{
	"contracts/core/MReciever.sol": {
		"MReciever": {
			"abi": [
				{
					"inputs": [
						{
							"internalType": "address",
							"name": "_register",
							"type": "address"
						},
						{
							"internalType": "address",
							"name": "_router",
							"type": "address"
						}
					],
					"stateMutability": "nonpayable",
					"type": "constructor"
				},
				{
					"inputs": [
						{
							"internalType": "address",
							"name": "router",
							"type": "address"
						}
					],
					"name": "InvalidRouter",
					"type": "error"
				},
				{
					"anonymous": false,
					"inputs": [
						{
							"indexed": false,
							"internalType": "address",
							"name": "owner",
							"type": "address"
						},
						{
							"indexed": false,
							"internalType": "uint256",
							"name": "amount",
							"type": "uint256"
						},
						{
							"indexed": false,
							"internalType": "bytes32",
							"name": "tGiltId",
							"type": "bytes32"
						},
						{
							"indexed": false,
							"internalType": "uint256",
							"name": "srcChain",
							"type": "uint256"
						},
						{
							"indexed": false,
							"internalType": "uint256",
							"name": "localGiltId",
							"type": "uint256"
						}
					],
					"name": "GILT_CLAIMED",
					"type": "event"
				},
				{
					"anonymous": false,
					"inputs": [
						{
							"indexed": false,
							"internalType": "address",
							"name": "owner",
							"type": "address"
						},
						{
							"indexed": false,
							"internalType": "uint256",
							"name": "amount",
							"type": "uint256"
						},
						{
							"indexed": false,
							"internalType": "uint256",
							"name": "foreignId",
							"type": "uint256"
						},
						{
							"indexed": false,
							"internalType": "uint256",
							"name": "srcChain",
							"type": "uint256"
						}
					],
					"name": "GILT_RECIEVED",
					"type": "event"
				},
				{
					"inputs": [
						{
							"components": [
								{
									"internalType": "bytes32",
									"name": "messageId",
									"type": "bytes32"
								},
								{
									"internalType": "uint64",
									"name": "sourceChainSelector",
									"type": "uint64"
								},
								{
									"internalType": "bytes",
									"name": "sender",
									"type": "bytes"
								},
								{
									"internalType": "bytes",
									"name": "data",
									"type": "bytes"
								},
								{
									"components": [
										{
											"internalType": "address",
											"name": "token",
											"type": "address"
										},
										{
											"internalType": "uint256",
											"name": "amount",
											"type": "uint256"
										}
									],
									"internalType": "struct Client.EVMTokenAmount[]",
									"name": "destTokenAmounts",
									"type": "tuple[]"
								}
							],
							"internalType": "struct Client.Any2EVMMessage",
							"name": "message",
							"type": "tuple"
						}
					],
					"name": "ccipReceive",
					"outputs": [],
					"stateMutability": "nonpayable",
					"type": "function"
				},
				{
					"inputs": [
						{
							"internalType": "address",
							"name": "_claimant",
							"type": "address"
						}
					],
					"name": "claimGilts",
					"outputs": [
						{
							"components": [
								{
									"internalType": "uint256",
									"name": "projectId",
									"type": "uint256"
								},
								{
									"internalType": "uint256",
									"name": "giltId",
									"type": "uint256"
								},
								{
									"internalType": "uint256",
									"name": "chainId",
									"type": "uint256"
								}
							],
							"internalType": "struct GiltClaim[]",
							"name": "_giltClaims",
							"type": "tuple[]"
						}
					],
					"stateMutability": "nonpayable",
					"type": "function"
				},
				{
					"inputs": [],
					"name": "getName",
					"outputs": [
						{
							"internalType": "string",
							"name": "_name",
							"type": "string"
						}
					],
					"stateMutability": "pure",
					"type": "function"
				},
				{
					"inputs": [],
					"name": "getRouter",
					"outputs": [
						{
							"internalType": "address",
							"name": "",
							"type": "address"
						}
					],
					"stateMutability": "view",
					"type": "function"
				},
				{
					"inputs": [],
					"name": "getTGiltIds",
					"outputs": [
						{
							"internalType": "bytes32[]",
							"name": "_tGiltIds",
							"type": "bytes32[]"
						}
					],
					"stateMutability": "view",
					"type": "function"
				},
				{
					"inputs": [
						{
							"internalType": "bytes32",
							"name": "_tGiltId",
							"type": "bytes32"
						}
					],
					"name": "getTransmittedGilt",
					"outputs": [
						{
							"components": [
								{
									"components": [
										{
											"internalType": "address",
											"name": "erc20",
											"type": "address"
										},
										{
											"internalType": "uint256",
											"name": "amount",
											"type": "uint256"
										},
										{
											"internalType": "uint256",
											"name": "creationDate",
											"type": "uint256"
										},
										{
											"internalType": "uint256",
											"name": "chainId",
											"type": "uint256"
										},
										{
											"internalType": "address",
											"name": "giltContract",
											"type": "address"
										},
										{
											"internalType": "uint256",
											"name": "id",
											"type": "uint256"
										}
									],
									"internalType": "struct Gilt",
									"name": "gilt",
									"type": "tuple"
								},
								{
									"internalType": "bytes32",
									"name": "alloProfileId",
									"type": "bytes32"
								},
								{
									"internalType": "uint256",
									"name": "projectId",
									"type": "uint256"
								},
								{
									"internalType": "address",
									"name": "owner",
									"type": "address"
								}
							],
							"internalType": "struct TransmittedGilt",
							"name": "tGilt",
							"type": "tuple"
						}
					],
					"stateMutability": "view",
					"type": "function"
				},
				{
					"inputs": [],
					"name": "getVersion",
					"outputs": [
						{
							"internalType": "uint256",
							"name": "_version",
							"type": "uint256"
						}
					],
					"stateMutability": "pure",
					"type": "function"
				},
				{
					"inputs": [
						{
							"internalType": "bytes4",
							"name": "interfaceId",
							"type": "bytes4"
						}
					],
					"name": "supportsInterface",
					"outputs": [
						{
							"internalType": "bool",
							"name": "",
							"type": "bool"
						}
					],
					"stateMutability": "pure",
					"type": "function"
				},
				{
					"inputs": [
						{
							"internalType": "address",
							"name": "_claimant",
							"type": "address"
						}
					],
					"name": "viewAvailableGiltClaims",
					"outputs": [
						{
							"components": [
								{
									"internalType": "address",
									"name": "erc20",
									"type": "address"
								},
								{
									"internalType": "uint256",
									"name": "amount",
									"type": "uint256"
								},
								{
									"internalType": "uint256",
									"name": "creationDate",
									"type": "uint256"
								},
								{
									"internalType": "uint256",
									"name": "chainId",
									"type": "uint256"
								},
								{
									"internalType": "address",
									"name": "giltContract",
									"type": "address"
								},
								{
									"internalType": "uint256",
									"name": "id",
									"type": "uint256"
								}
							],
							"internalType": "struct Gilt[]",
							"name": "_gilts",
							"type": "tuple[]"
						}
					],
					"stateMutability": "view",
					"type": "function"
				}
			],
			"devdoc": {
				"kind": "dev",
				"methods": {
					"ccipReceive((bytes32,uint64,bytes,bytes,(address,uint256)[]))": {
						"details": "Note ensure you check the msg.sender is the OffRampRouter",
						"params": {
							"message": "CCIP Message"
						}
					},
					"getRouter()": {
						"returns": {
							"_0": "i_router address"
						}
					},
					"supportsInterface(bytes4)": {
						"details": "Should indicate whether the contract implements IAny2EVMMessageReceiver e.g. return interfaceId == type(IAny2EVMMessageReceiver).interfaceId || interfaceId == type(IERC165).interfaceId This allows CCIP to check if ccipReceive is available before calling it. If this returns false or reverts, only tokens are transferred to the receiver. If this returns true, tokens are transferred and ccipReceive is called atomically. Additionally, if the receiver address does not have code associated with it at the time of execution (EXTCODESIZE returns 0), only tokens will be transferred.",
						"params": {
							"interfaceId": "The interfaceId to check"
						},
						"returns": {
							"_0": "true if the interfaceId is supported"
						}
					}
				},
				"version": 1
			},
			"evm": {
				"assembly": "    /* \"contracts/core/MReciever.sol\":537:4266  contract MReciever is CCIPReceiver, IMReciever, IMVersion {... */\n  mstore(0x40, 0xa0)\n    /* \"contracts/core/MReciever.sol\":1427:1548  constructor(address _register, address _router) CCIPReceiver(_router) {... */\n  callvalue\n  dup1\n  iszero\n  tag_1\n  jumpi\n  0x00\n  dup1\n  revert\ntag_1:\n  pop\n  mload(0x40)\n  sub(codesize, bytecodeSize)\n  dup1\n  bytecodeSize\n  dup4\n  codecopy\n  dup2\n  add\n  0x40\n  dup2\n  swap1\n  mstore\n  tag_2\n  swap2\n  tag_3\n  jump\t// in\ntag_2:\n    /* \"contracts/core/MReciever.sol\":1488:1495  _router */\n  dup1\n  sub(shl(0xa0, 0x01), 0x01)\n    /* \"@chainlink/contracts-ccip/src/v0.8/ccip/applications/CCIPReceiver.sol\":538:558  router == address(0) */\n  dup2\n  and\n    /* \"@chainlink/contracts-ccip/src/v0.8/ccip/applications/CCIPReceiver.sol\":534:592  if (router == address(0)) revert InvalidRouter(address(0)) */\n  tag_7\n  jumpi\n    /* \"@chainlink/contracts-ccip/src/v0.8/ccip/applications/CCIPReceiver.sol\":567:592  InvalidRouter(address(0)) */\n  mload(0x40)\n  shl(0xe2, 0x35fdcccd)\n  dup2\n  mstore\n    /* \"@chainlink/contracts-ccip/src/v0.8/ccip/applications/CCIPReceiver.sol\":589:590  0 */\n  0x00\n    /* \"@chainlink/contracts-ccip/src/v0.8/ccip/applications/CCIPReceiver.sol\":567:592  InvalidRouter(address(0)) */\n  0x04\n  dup3\n  add\n    /* \"#utility.yul\":640:691   */\n  mstore\n    /* \"#utility.yul\":613:631   */\n  0x24\n  add\n    /* \"@chainlink/contracts-ccip/src/v0.8/ccip/applications/CCIPReceiver.sol\":567:592  InvalidRouter(address(0)) */\n  mload(0x40)\n  dup1\n  swap2\n  sub\n  swap1\n  revert\n    /* \"@chainlink/contracts-ccip/src/v0.8/ccip/applications/CCIPReceiver.sol\":534:592  if (router == address(0)) revert InvalidRouter(address(0)) */\ntag_7:\n  sub(shl(0xa0, 0x01), 0x01)\n    /* \"@chainlink/contracts-ccip/src/v0.8/ccip/applications/CCIPReceiver.sol\":598:615  i_router = router */\n  swap1\n  dup2\n  and\n  0x80\n  mstore\n    /* \"contracts/core/MReciever.sol\":1508:1516  register */\n  0x00\n    /* \"contracts/core/MReciever.sol\":1508:1540  register = IMRegister(_register) */\n  dup1\n  sload\n  not(sub(shl(0xa0, 0x01), 0x01))\n  and\n  swap4\n  swap1\n  swap2\n  and\n  swap3\n  swap1\n  swap3\n  or\n  swap1\n  swap2\n  sstore\n  pop\n    /* \"contracts/core/MReciever.sol\":537:4266  contract MReciever is CCIPReceiver, IMReciever, IMVersion {... */\n  jump(tag_13)\n    /* \"#utility.yul\":14:191   */\ntag_12:\n    /* \"#utility.yul\":93:106   */\n  dup1\n  mload\n  sub(shl(0xa0, 0x01), 0x01)\n    /* \"#utility.yul\":135:166   */\n  dup2\n  and\n    /* \"#utility.yul\":125:167   */\n  dup2\n  eq\n    /* \"#utility.yul\":115:185   */\n  tag_15\n  jumpi\n    /* \"#utility.yul\":181:182   */\n  0x00\n    /* \"#utility.yul\":178:179   */\n  dup1\n    /* \"#utility.yul\":171:183   */\n  revert\n    /* \"#utility.yul\":115:185   */\ntag_15:\n    /* \"#utility.yul\":14:191   */\n  swap2\n  swap1\n  pop\n  jump\t// out\n    /* \"#utility.yul\":196:489   */\ntag_3:\n    /* \"#utility.yul\":275:281   */\n  0x00\n    /* \"#utility.yul\":283:289   */\n  dup1\n    /* \"#utility.yul\":336:338   */\n  0x40\n    /* \"#utility.yul\":324:333   */\n  dup4\n    /* \"#utility.yul\":315:322   */\n  dup6\n    /* \"#utility.yul\":311:334   */\n  sub\n    /* \"#utility.yul\":307:339   */\n  slt\n    /* \"#utility.yul\":304:356   */\n  iszero\n  tag_17\n  jumpi\n    /* \"#utility.yul\":352:353   */\n  0x00\n    /* \"#utility.yul\":349:350   */\n  dup1\n    /* \"#utility.yul\":342:354   */\n  revert\n    /* \"#utility.yul\":304:356   */\ntag_17:\n    /* \"#utility.yul\":375:415   */\n  tag_18\n    /* \"#utility.yul\":405:414   */\n  dup4\n    /* \"#utility.yul\":375:415   */\n  tag_12\n  jump\t// in\ntag_18:\n    /* \"#utility.yul\":365:415   */\n  swap2\n  pop\n    /* \"#utility.yul\":434:483   */\n  tag_19\n    /* \"#utility.yul\":479:481   */\n  0x20\n    /* \"#utility.yul\":468:477   */\n  dup5\n    /* \"#utility.yul\":464:482   */\n  add\n    /* \"#utility.yul\":434:483   */\n  tag_12\n  jump\t// in\ntag_19:\n    /* \"#utility.yul\":424:483   */\n  swap1\n  pop\n    /* \"#utility.yul\":196:489   */\n  swap3\n  pop\n  swap3\n  swap1\n  pop\n  jump\t// out\n    /* \"#utility.yul\":494:697   */\ntag_13:\n    /* \"contracts/core/MReciever.sol\":537:4266  contract MReciever is CCIPReceiver, IMReciever, IMVersion {... */\n  mload(0x80)\n  codecopy(0x00, dataOffset(sub_0), dataSize(sub_0))\n  0x00\n  assignImmutable(\"0x5c4c6aa067b6f8e6cb38e6ab843832a94d1712d661a04d73c517d6a1931a9e5d\")\n  return(0x00, dataSize(sub_0))\nstop\n\nsub_0: assembly {\n        /* \"contracts/core/MReciever.sol\":537:4266  contract MReciever is CCIPReceiver, IMReciever, IMVersion {... */\n      mstore(0x40, 0x80)\n      callvalue\n      dup1\n      iszero\n      tag_1\n      jumpi\n      0x00\n      dup1\n      revert\n    tag_1:\n      pop\n      jumpi(tag_2, lt(calldatasize, 0x04))\n      shr(0xe0, calldataload(0x00))\n      dup1\n      0x72d02aea\n      gt\n      tag_12\n      jumpi\n      dup1\n      0x72d02aea\n      eq\n      tag_7\n      jumpi\n      dup1\n      0x85572ffb\n      eq\n      tag_8\n      jumpi\n      dup1\n      0x885c7b39\n      eq\n      tag_9\n      jumpi\n      dup1\n      0xa7648435\n      eq\n      tag_10\n      jumpi\n      dup1\n      0xb0f479a1\n      eq\n      tag_11\n      jumpi\n      0x00\n      dup1\n      revert\n    tag_12:\n      dup1\n      0x01ffc9a7\n      eq\n      tag_3\n      jumpi\n      dup1\n      0x0d8e6e2c\n      eq\n      tag_4\n      jumpi\n      dup1\n      0x17d7de7c\n      eq\n      tag_5\n      jumpi\n      dup1\n      0x5c089a54\n      eq\n      tag_6\n      jumpi\n    tag_2:\n      0x00\n      dup1\n      revert\n        /* \"@chainlink/contracts-ccip/src/v0.8/ccip/applications/CCIPReceiver.sol\":1397:1606  function supportsInterface(bytes4 interfaceId) public pure virtual override returns (bool) {... */\n    tag_3:\n      tag_13\n      tag_14\n      calldatasize\n      0x04\n      tag_15\n      jump\t// in\n    tag_14:\n      tag_16\n      jump\t// in\n    tag_13:\n      mload(0x40)\n        /* \"#utility.yul\":470:484   */\n      swap1\n      iszero\n        /* \"#utility.yul\":463:485   */\n      iszero\n        /* \"#utility.yul\":445:486   */\n      dup2\n      mstore\n        /* \"#utility.yul\":433:435   */\n      0x20\n        /* \"#utility.yul\":418:436   */\n      add\n        /* \"@chainlink/contracts-ccip/src/v0.8/ccip/applications/CCIPReceiver.sol\":1397:1606  function supportsInterface(bytes4 interfaceId) public pure virtual override returns (bool) {... */\n    tag_17:\n      mload(0x40)\n      dup1\n      swap2\n      sub\n      swap1\n      return\n        /* \"contracts/core/MReciever.sol\":1658:1755  function getVersion() pure external returns (uint256 _version) {... */\n    tag_4:\n      mload(0x40)\n        /* \"contracts/core/MReciever.sol\":1030:1031  2 */\n      0x02\n        /* \"#utility.yul\":643:668   */\n      dup2\n      mstore\n        /* \"#utility.yul\":631:633   */\n      0x20\n        /* \"#utility.yul\":616:634   */\n      add\n        /* \"contracts/core/MReciever.sol\":1658:1755  function getVersion() pure external returns (uint256 _version) {... */\n      tag_17\n        /* \"#utility.yul\":497:674   */\n      jump\n        /* \"contracts/core/MReciever.sol\":1556:1650  function getName() pure external returns (string memory _name) {... */\n    tag_5:\n        /* \"contracts/core/MReciever.sol\":1637:1641  name */\n      0x40\n      dup1\n      mload\n      dup1\n      dup3\n      add\n      dup3\n      mstore\n      0x13\n      dup2\n      mstore\n      shl(0x69, 0x2922a9a2a92b22a22fa6afa922a1a4a2ab22a9)\n      0x20\n      dup3\n      add\n      mstore\n        /* \"contracts/core/MReciever.sol\":1556:1650  function getName() pure external returns (string memory _name) {... */\n      swap1\n      mload\n      tag_17\n      swap2\n        /* \"contracts/core/MReciever.sol\":1637:1641  name */\n      swap1\n        /* \"contracts/core/MReciever.sol\":1556:1650  function getName() pure external returns (string memory _name) {... */\n      tag_26\n      jump\t// in\n        /* \"contracts/core/MReciever.sol\":2232:2342  function getTGiltIds() view external returns (bytes32 [] memory _tGiltIds) {... */\n    tag_6:\n      tag_27\n      tag_28\n      jump\t// in\n    tag_27:\n      mload(0x40)\n      tag_17\n      swap2\n      swap1\n      tag_30\n      jump\t// in\n        /* \"contracts/core/MReciever.sol\":3003:4145  function claimGilts(address _claimant) external margariOnly returns (GiltClaim [] memory _giltClaims){... */\n    tag_7:\n      tag_31\n      tag_32\n      calldatasize\n      0x04\n      tag_33\n      jump\t// in\n    tag_32:\n      tag_34\n      jump\t// in\n    tag_31:\n      mload(0x40)\n      tag_17\n      swap2\n      swap1\n      tag_36\n      jump\t// in\n        /* \"@chainlink/contracts-ccip/src/v0.8/ccip/applications/CCIPReceiver.sol\":1652:1782  function ccipReceive(Client.Any2EVMMessage calldata message) external virtual override onlyRouter {... */\n    tag_8:\n      tag_37\n      tag_38\n      calldatasize\n      0x04\n      tag_39\n      jump\t// in\n    tag_38:\n      tag_40\n      jump\t// in\n    tag_37:\n      stop\n        /* \"contracts/core/MReciever.sol\":2502:2995  function viewAvailableGiltClaims(address _claimant)  view external returns (Gilt [] memory _gilts) {... */\n    tag_9:\n      tag_41\n      tag_42\n      calldatasize\n      0x04\n      tag_33\n      jump\t// in\n    tag_42:\n      tag_43\n      jump\t// in\n    tag_41:\n      mload(0x40)\n      tag_17\n      swap2\n      swap1\n      tag_45\n      jump\t// in\n        /* \"contracts/core/MReciever.sol\":2350:2494  function getTransmittedGilt(bytes32 _tGiltId) view external returns (TransmittedGilt memory tGilt) {... */\n    tag_10:\n      tag_46\n      tag_47\n      calldatasize\n      0x04\n      tag_48\n      jump\t// in\n    tag_47:\n      tag_49\n      jump\t// in\n    tag_46:\n      mload(0x40)\n      tag_17\n      swap2\n      swap1\n      tag_51\n      jump\t// in\n        /* \"@chainlink/contracts-ccip/src/v0.8/ccip/applications/CCIPReceiver.sol\":2194:2280  function getRouter() public view returns (address) {... */\n    tag_11:\n      mload(0x40)\n      sub(shl(0xa0, 0x01), 0x01)\n        /* \"@chainlink/contracts-ccip/src/v0.8/ccip/applications/CCIPReceiver.sol\":2266:2274  i_router */\n      immutable(\"0x5c4c6aa067b6f8e6cb38e6ab843832a94d1712d661a04d73c517d6a1931a9e5d\")\n        /* \"#utility.yul\":5572:5604   */\n      and\n        /* \"#utility.yul\":5554:5605   */\n      dup2\n      mstore\n        /* \"#utility.yul\":5542:5544   */\n      0x20\n        /* \"#utility.yul\":5527:5545   */\n      add\n        /* \"@chainlink/contracts-ccip/src/v0.8/ccip/applications/CCIPReceiver.sol\":2194:2280  function getRouter() public view returns (address) {... */\n      tag_17\n        /* \"#utility.yul\":5408:5611   */\n      jump\n        /* \"@chainlink/contracts-ccip/src/v0.8/ccip/applications/CCIPReceiver.sol\":1397:1606  function supportsInterface(bytes4 interfaceId) public pure virtual override returns (bool) {... */\n    tag_16:\n        /* \"@chainlink/contracts-ccip/src/v0.8/ccip/applications/CCIPReceiver.sol\":1482:1486  bool */\n      0x00\n      not(sub(shl(0xe0, 0x01), 0x01))\n        /* \"@chainlink/contracts-ccip/src/v0.8/ccip/applications/CCIPReceiver.sol\":1501:1557  interfaceId == type(IAny2EVMMessageReceiver).interfaceId */\n      dup3\n      and\n      shl(0xe0, 0x85572ffb)\n      eq\n      dup1\n        /* \"@chainlink/contracts-ccip/src/v0.8/ccip/applications/CCIPReceiver.sol\":1501:1601  interfaceId == type(IAny2EVMMessageReceiver).interfaceId || interfaceId == type(IERC165).interfaceId */\n      tag_57\n      jumpi\n      pop\n      not(sub(shl(0xe0, 0x01), 0x01))\n        /* \"@chainlink/contracts-ccip/src/v0.8/ccip/applications/CCIPReceiver.sol\":1561:1601  interfaceId == type(IERC165).interfaceId */\n      dup3\n      and\n      shl(0xe0, 0x01ffc9a7)\n      eq\n        /* \"@chainlink/contracts-ccip/src/v0.8/ccip/applications/CCIPReceiver.sol\":1501:1601  interfaceId == type(IAny2EVMMessageReceiver).interfaceId || interfaceId == type(IERC165).interfaceId */\n    tag_57:\n        /* \"@chainlink/contracts-ccip/src/v0.8/ccip/applications/CCIPReceiver.sol\":1494:1601  return interfaceId == type(IAny2EVMMessageReceiver).interfaceId || interfaceId == type(IERC165).interfaceId */\n      swap3\n        /* \"@chainlink/contracts-ccip/src/v0.8/ccip/applications/CCIPReceiver.sol\":1397:1606  function supportsInterface(bytes4 interfaceId) public pure virtual override returns (bool) {... */\n      swap2\n      pop\n      pop\n      jump\t// out\n        /* \"contracts/core/MReciever.sol\":2232:2342  function getTGiltIds() view external returns (bytes32 [] memory _tGiltIds) {... */\n    tag_28:\n        /* \"contracts/core/MReciever.sol\":2278:2305  bytes32 [] memory _tGiltIds */\n      0x60\n        /* \"contracts/core/MReciever.sol\":2325:2333  tGiltIds */\n      0x03\n        /* \"contracts/core/MReciever.sol\":2318:2333  return tGiltIds */\n      dup1\n      sload\n      dup1\n      0x20\n      mul\n      0x20\n      add\n      mload(0x40)\n      swap1\n      dup2\n      add\n      0x40\n      mstore\n      dup1\n      swap3\n      swap2\n      swap1\n      dup2\n      dup2\n      mstore\n      0x20\n      add\n      dup3\n      dup1\n      sload\n      dup1\n      iszero\n      tag_61\n      jumpi\n      0x20\n      mul\n      dup3\n      add\n      swap2\n      swap1\n      0x00\n      mstore\n      keccak256(0x00, 0x20)\n      swap1\n    tag_62:\n      dup2\n      sload\n      dup2\n      mstore\n      0x20\n      add\n      swap1\n      0x01\n      add\n      swap1\n      dup1\n      dup4\n      gt\n      tag_62\n      jumpi\n    tag_61:\n      pop\n      pop\n      pop\n      pop\n      pop\n      swap1\n      pop\n        /* \"contracts/core/MReciever.sol\":2232:2342  function getTGiltIds() view external returns (bytes32 [] memory _tGiltIds) {... */\n      swap1\n      jump\t// out\n        /* \"contracts/core/MReciever.sol\":3003:4145  function claimGilts(address _claimant) external margariOnly returns (GiltClaim [] memory _giltClaims){... */\n    tag_34:\n        /* \"contracts/core/MReciever.sol\":876:884  register */\n      sload(0x00)\n        /* \"contracts/core/MReciever.sol\":896:906  MARGARI_CA */\n      0x40\n      dup1\n      mload\n      dup1\n      dup3\n      add\n      dup3\n      mstore\n      0x15\n      dup2\n      mstore\n      shl(0x58, 0x52455345525645445f4d4152474152495f434f5245)\n      0x20\n      dup3\n      add\n      mstore\n        /* \"contracts/core/MReciever.sol\":876:907  register.getAddress(MARGARI_CA) */\n      swap1\n      mload\n      shl(0xe0, 0xbf40fac1)\n      dup2\n      mstore\n        /* \"contracts/core/MReciever.sol\":3072:3103  GiltClaim [] memory _giltClaims */\n      0x60\n      swap3\n      sub(shl(0xa0, 0x01), 0x01)\n        /* \"contracts/core/MReciever.sol\":876:884  register */\n      and\n      swap2\n        /* \"contracts/core/MReciever.sol\":876:895  register.getAddress */\n      0xbf40fac1\n      swap2\n        /* \"contracts/core/MReciever.sol\":876:907  register.getAddress(MARGARI_CA) */\n      tag_64\n      swap2\n        /* \"contracts/core/MReciever.sol\":896:906  MARGARI_CA */\n      swap1\n        /* \"contracts/core/MReciever.sol\":876:907  register.getAddress(MARGARI_CA) */\n      0x04\n      add\n      tag_26\n      jump\t// in\n    tag_64:\n      0x20\n      mload(0x40)\n      dup1\n      dup4\n      sub\n      dup2\n      dup7\n      gas\n      staticcall\n      iszero\n      dup1\n      iszero\n      tag_66\n      jumpi\n      returndatasize\n      0x00\n      dup1\n      returndatacopy\n      revert(0x00, returndatasize)\n    tag_66:\n      pop\n      pop\n      pop\n      pop\n      mload(0x40)\n      returndatasize\n      not(0x1f)\n      0x1f\n      dup3\n      add\n      and\n      dup3\n      add\n      dup1\n      0x40\n      mstore\n      pop\n      dup2\n      add\n      swap1\n      tag_67\n      swap2\n      swap1\n      tag_68\n      jump\t// in\n    tag_67:\n      sub(shl(0xa0, 0x01), 0x01)\n        /* \"contracts/core/MReciever.sol\":862:907  msg.sender == register.getAddress(MARGARI_CA) */\n      and\n        /* \"contracts/core/MReciever.sol\":862:872  msg.sender */\n      caller\n      sub(shl(0xa0, 0x01), 0x01)\n        /* \"contracts/core/MReciever.sol\":862:907  msg.sender == register.getAddress(MARGARI_CA) */\n      and\n      eq\n        /* \"contracts/core/MReciever.sol\":854:924  require(msg.sender == register.getAddress(MARGARI_CA), \"margari only\") */\n      tag_69\n      jumpi\n      mload(0x40)\n      shl(0xe5, 0x461bcd)\n      dup2\n      mstore\n        /* \"#utility.yul\":6074:6076   */\n      0x20\n        /* \"contracts/core/MReciever.sol\":854:924  require(msg.sender == register.getAddress(MARGARI_CA), \"margari only\") */\n      0x04\n      dup3\n      add\n        /* \"#utility.yul\":6056:6077   */\n      mstore\n        /* \"#utility.yul\":6113:6115   */\n      0x0c\n        /* \"#utility.yul\":6093:6111   */\n      0x24\n      dup3\n      add\n        /* \"#utility.yul\":6086:6116   */\n      mstore\n      shl(0xa0, 0x6d617267617269206f6e6c79)\n        /* \"#utility.yul\":6132:6150   */\n      0x44\n      dup3\n      add\n        /* \"#utility.yul\":6125:6167   */\n      mstore\n        /* \"#utility.yul\":6184:6202   */\n      0x64\n      add\n        /* \"contracts/core/MReciever.sol\":854:924  require(msg.sender == register.getAddress(MARGARI_CA), \"margari only\") */\n    tag_70:\n      mload(0x40)\n      dup1\n      swap2\n      sub\n      swap1\n      revert\n    tag_69:\n      sub(shl(0xa0, 0x01), 0x01)\n        /* \"contracts/core/MReciever.sol\":3150:3176  tGiltIdsByOwner[_claimant] */\n      dup3\n      and\n        /* \"contracts/core/MReciever.sol\":3115:3147  bytes32 [] memory unclaimedGilts */\n      0x00\n        /* \"contracts/core/MReciever.sol\":3150:3176  tGiltIdsByOwner[_claimant] */\n      swap1\n      dup2\n      mstore\n        /* \"contracts/core/MReciever.sol\":3150:3165  tGiltIdsByOwner */\n      0x05\n        /* \"contracts/core/MReciever.sol\":3150:3176  tGiltIdsByOwner[_claimant] */\n      0x20\n      swap1\n      dup2\n      mstore\n      0x40\n      dup1\n      dup4\n      keccak256\n        /* \"contracts/core/MReciever.sol\":3115:3176  bytes32 [] memory unclaimedGilts = tGiltIdsByOwner[_claimant] */\n      dup1\n      sload\n      dup3\n      mload\n      dup2\n      dup6\n      mul\n      dup2\n      add\n      dup6\n      add\n      swap1\n      swap4\n      mstore\n      dup1\n      dup4\n      mstore\n      swap2\n      swap3\n        /* \"contracts/core/MReciever.sol\":3150:3176  tGiltIdsByOwner[_claimant] */\n      swap1\n      swap2\n        /* \"contracts/core/MReciever.sol\":3115:3176  bytes32 [] memory unclaimedGilts = tGiltIdsByOwner[_claimant] */\n      swap1\n      dup4\n      add\n        /* \"contracts/core/MReciever.sol\":3150:3176  tGiltIdsByOwner[_claimant] */\n      dup3\n        /* \"contracts/core/MReciever.sol\":3115:3176  bytes32 [] memory unclaimedGilts = tGiltIdsByOwner[_claimant] */\n      dup3\n      dup1\n      iszero\n      tag_73\n      jumpi\n      0x20\n      mul\n      dup3\n      add\n      swap2\n      swap1\n      0x00\n      mstore\n      keccak256(0x00, 0x20)\n      swap1\n    tag_74:\n      dup2\n      sload\n      dup2\n      mstore\n      0x20\n      add\n      swap1\n      0x01\n      add\n      swap1\n      dup1\n      dup4\n      gt\n      tag_74\n      jumpi\n    tag_73:\n      pop\n      pop\n      pop\n      pop\n      sub(shl(0xa0, 0x01), 0x01)\n        /* \"contracts/core/MReciever.sol\":3194:3220  tGiltIdsByOwner[_claimant] */\n      dup6\n      and\n      0x00\n      swap1\n      dup2\n      mstore\n        /* \"contracts/core/MReciever.sol\":3194:3209  tGiltIdsByOwner */\n      0x05\n        /* \"contracts/core/MReciever.sol\":3194:3220  tGiltIdsByOwner[_claimant] */\n      0x20\n      mstore\n      0x40\n      dup2\n      keccak256\n        /* \"contracts/core/MReciever.sol\":3115:3176  bytes32 [] memory unclaimedGilts = tGiltIdsByOwner[_claimant] */\n      swap3\n      swap4\n      pop\n        /* \"contracts/core/MReciever.sol\":3187:3220  delete tGiltIdsByOwner[_claimant] */\n      tag_75\n      swap3\n        /* \"contracts/core/MReciever.sol\":3194:3220  tGiltIdsByOwner[_claimant] */\n      swap2\n      pop\n        /* \"contracts/core/MReciever.sol\":3187:3220  delete tGiltIdsByOwner[_claimant] */\n      tag_76\n      jump\t// in\n    tag_75:\n        /* \"contracts/core/MReciever.sol\":3279:3293  unclaimedGilts */\n      dup1\n        /* \"contracts/core/MReciever.sol\":3279:3300  unclaimedGilts.length */\n      mload\n        /* \"contracts/core/MReciever.sol\":3263:3301  new GiltClaim[](unclaimedGilts.length) */\n      0xffffffffffffffff\n      dup2\n      gt\n      iszero\n      tag_78\n      jumpi\n      tag_78\n      tag_79\n      jump\t// in\n    tag_78:\n      mload(0x40)\n      swap1\n      dup1\n      dup3\n      mstore\n      dup1\n      0x20\n      mul\n      0x20\n      add\n      dup3\n      add\n      0x40\n      mstore\n      dup1\n      iszero\n      tag_80\n      jumpi\n      dup2\n      0x20\n      add\n    tag_81:\n      tag_82\n      mload(0x40)\n      dup1\n      0x60\n      add\n      0x40\n      mstore\n      dup1\n      0x00\n      dup2\n      mstore\n      0x20\n      add\n      0x00\n      dup2\n      mstore\n      0x20\n      add\n      0x00\n      dup2\n      mstore\n      pop\n      swap1\n      jump\n    tag_82:\n      dup2\n      mstore\n      0x20\n      add\n      swap1\n      0x01\n      swap1\n      sub\n      swap1\n      dup2\n      tag_81\n      jumpi\n      swap1\n      pop\n    tag_80:\n      pop\n        /* \"contracts/core/MReciever.sol\":3249:3301  _giltClaims = new GiltClaim[](unclaimedGilts.length) */\n      swap2\n      pop\n        /* \"contracts/core/MReciever.sol\":3316:3325  uint256 x */\n      0x00\n        /* \"contracts/core/MReciever.sol\":3312:4108  for(uint256 x = 0; x < unclaimedGilts.length; x++) {    ... */\n    tag_84:\n        /* \"contracts/core/MReciever.sol\":3335:3349  unclaimedGilts */\n      dup2\n        /* \"contracts/core/MReciever.sol\":3335:3356  unclaimedGilts.length */\n      mload\n        /* \"contracts/core/MReciever.sol\":3331:3332  x */\n      dup2\n        /* \"contracts/core/MReciever.sol\":3331:3356  x < unclaimedGilts.length */\n      lt\n        /* \"contracts/core/MReciever.sol\":3312:4108  for(uint256 x = 0; x < unclaimedGilts.length; x++) {    ... */\n      iszero\n      tag_85\n      jumpi\n        /* \"contracts/core/MReciever.sol\":3382:3398  bytes32 tGiltId_ */\n      0x00\n        /* \"contracts/core/MReciever.sol\":3401:3415  unclaimedGilts */\n      dup3\n        /* \"contracts/core/MReciever.sol\":3416:3417  x */\n      dup3\n        /* \"contracts/core/MReciever.sol\":3401:3418  unclaimedGilts[x] */\n      dup2\n      mload\n      dup2\n      lt\n      tag_88\n      jumpi\n      tag_88\n      tag_89\n      jump\t// in\n    tag_88:\n      0x20\n      swap1\n      dup2\n      mul\n      swap2\n      swap1\n      swap2\n      add\n      dup2\n      add\n      mload\n        /* \"contracts/core/MReciever.sol\":3433:3462  TransmittedGilt memory tGilt_ */\n      0x00\n        /* \"contracts/core/MReciever.sol\":3465:3484  tGiltById[tGiltId_] */\n      dup2\n      dup2\n      mstore\n        /* \"contracts/core/MReciever.sol\":3465:3474  tGiltById */\n      0x04\n        /* \"contracts/core/MReciever.sol\":3465:3484  tGiltById[tGiltId_] */\n      dup1\n      dup5\n      mstore\n      0x40\n      dup1\n      dup4\n      keccak256\n        /* \"contracts/core/MReciever.sol\":3433:3484  TransmittedGilt memory tGilt_ = tGiltById[tGiltId_] */\n      dup2\n      mload\n      0x0140\n      dup2\n      add\n      dup4\n      mstore\n      dup2\n      sload\n      sub(shl(0xa0, 0x01), 0x01)\n      swap1\n      dup2\n      and\n      0x80\n      dup4\n      add\n      swap1\n      dup2\n      mstore\n      0x01\n      dup5\n      add\n      sload\n      0xa0\n      dup5\n      add\n      mstore\n      0x02\n      dup1\n      dup6\n      add\n      sload\n      0xc0\n      dup6\n      add\n      mstore\n      0x03\n      dup6\n      add\n      sload\n      0xe0\n      dup6\n      add\n      mstore\n      dup5\n      dup8\n      add\n      sload\n      dup4\n      and\n      0x0100\n      dup6\n      add\n      mstore\n      0x05\n      dup6\n      add\n      sload\n      0x0120\n      dup6\n      add\n      mstore\n      swap1\n      dup4\n      mstore\n      0x06\n      dup5\n      add\n      sload\n      swap9\n      dup4\n      add\n      swap9\n      swap1\n      swap9\n      mstore\n      0x07\n      dup4\n      add\n      sload\n      dup3\n      dup6\n      add\n      mstore\n      0x08\n      swap1\n      swap3\n      add\n      sload\n      dup3\n      and\n      0x60\n      dup3\n      add\n      mstore\n        /* \"contracts/core/MReciever.sol\":3538:3550  giltContract */\n      swap6\n      sload\n        /* \"contracts/core/MReciever.sol\":3538:3587  giltContract.mintLocalisedGilt(tGilt_, _claimant) */\n      swap2\n      mload\n      shl(0xe0, 0xb6b75251)\n      dup2\n      mstore\n        /* \"contracts/core/MReciever.sol\":3401:3418  unclaimedGilts[x] */\n      swap5\n      swap7\n      pop\n        /* \"contracts/core/MReciever.sol\":3433:3462  TransmittedGilt memory tGilt_ */\n      swap3\n      swap4\n        /* \"contracts/core/MReciever.sol\":3538:3550  giltContract */\n      swap3\n      and\n      swap2\n        /* \"contracts/core/MReciever.sol\":3538:3568  giltContract.mintLocalisedGilt */\n      0xb6b75251\n      swap2\n        /* \"contracts/core/MReciever.sol\":3538:3587  giltContract.mintLocalisedGilt(tGilt_, _claimant) */\n      tag_90\n      swap2\n        /* \"contracts/core/MReciever.sol\":3433:3484  TransmittedGilt memory tGilt_ = tGiltById[tGiltId_] */\n      dup7\n      swap2\n        /* \"contracts/core/MReciever.sol\":3577:3586  _claimant */\n      dup13\n      swap2\n        /* \"contracts/core/MReciever.sol\":3538:3587  giltContract.mintLocalisedGilt(tGilt_, _claimant) */\n      add\n      tag_91\n      jump\t// in\n    tag_90:\n      0xc0\n      mload(0x40)\n      dup1\n      dup4\n      sub\n      dup2\n      0x00\n      dup8\n      gas\n      call\n      iszero\n      dup1\n      iszero\n      tag_93\n      jumpi\n      returndatasize\n      0x00\n      dup1\n      returndatacopy\n      revert(0x00, returndatasize)\n    tag_93:\n      pop\n      pop\n      pop\n      pop\n      mload(0x40)\n      returndatasize\n      not(0x1f)\n      0x1f\n      dup3\n      add\n      and\n      dup3\n      add\n      dup1\n      0x40\n      mstore\n      pop\n      dup2\n      add\n      swap1\n      tag_94\n      swap2\n      swap1\n      tag_95\n      jump\t// in\n    tag_94:\n      sub(shl(0xa0, 0x01), 0x01)\n        /* \"contracts/core/MReciever.sol\":3616:3649  claimedTGiltIdsByOwner[_claimant] */\n      dup9\n      and\n      0x00\n      swap1\n      dup2\n      mstore\n        /* \"contracts/core/MReciever.sol\":3616:3638  claimedTGiltIdsByOwner */\n      0x06\n        /* \"contracts/core/MReciever.sol\":3616:3649  claimedTGiltIdsByOwner[_claimant] */\n      0x20\n      swap1\n      dup2\n      mstore\n      0x40\n      dup1\n      dup4\n      keccak256\n        /* \"contracts/core/MReciever.sol\":3616:3664  claimedTGiltIdsByOwner[_claimant].push(tGiltId_) */\n      dup1\n      sload\n      0x01\n      dup2\n      add\n      dup3\n      sstore\n      swap1\n      dup5\n      mstore\n      swap3\n      dup3\n      swap1\n      keccak256\n      swap1\n      swap3\n      add\n      dup7\n      swap1\n      sstore\n        /* \"contracts/core/MReciever.sol\":3710:3987  GiltClaim({... */\n      dup2\n      mload\n      0x60\n      dup1\n      dup3\n      add\n      dup5\n      mstore\n        /* \"contracts/core/MReciever.sol\":3779:3795  tGilt_.projectId */\n      dup7\n      dup5\n      add\n      mload\n        /* \"contracts/core/MReciever.sol\":3710:3987  GiltClaim({... */\n      dup3\n      mstore\n        /* \"contracts/core/MReciever.sol\":3852:3863  tGilt_.gilt */\n      dup7\n      mload\n        /* \"contracts/core/MReciever.sol\":3852:3866  tGilt_.gilt.id */\n      0xa0\n      add\n      mload\n        /* \"contracts/core/MReciever.sol\":3710:3987  GiltClaim({... */\n      swap3\n      dup3\n      add\n      swap3\n      swap1\n      swap3\n      mstore\n        /* \"contracts/core/MReciever.sol\":3924:3935  tGilt_.gilt */\n      dup6\n      mload\n        /* \"contracts/core/MReciever.sol\":3924:3943  tGilt_.gilt.chainId */\n      swap1\n      swap2\n      add\n      mload\n        /* \"contracts/core/MReciever.sol\":3710:3987  GiltClaim({... */\n      swap2\n      dup2\n      add\n      swap2\n      swap1\n      swap2\n      mstore\n        /* \"contracts/core/MReciever.sol\":3693:3707  _giltClaims[x] */\n      dup8\n      mload\n        /* \"contracts/core/MReciever.sol\":3513:3587  Gilt memory localGilt_ = giltContract.mintLocalisedGilt(tGilt_, _claimant) */\n      swap2\n      swap3\n      pop\n        /* \"contracts/core/MReciever.sol\":3710:3987  GiltClaim({... */\n      swap1\n        /* \"contracts/core/MReciever.sol\":3693:3704  _giltClaims */\n      dup8\n      swap1\n        /* \"contracts/core/MReciever.sol\":3705:3706  x */\n      dup7\n      swap1\n        /* \"contracts/core/MReciever.sol\":3693:3707  _giltClaims[x] */\n      dup2\n      lt\n      tag_98\n      jumpi\n      tag_98\n      tag_89\n      jump\t// in\n    tag_98:\n      0x20\n      swap1\n      dup2\n      mul\n      swap2\n      swap1\n      swap2\n      add\n      dup2\n      add\n        /* \"contracts/core/MReciever.sol\":3693:3987  _giltClaims[x] = GiltClaim({... */\n      swap2\n      swap1\n      swap2\n      mstore\n        /* \"contracts/core/MReciever.sol\":4031:4042  tGilt_.gilt */\n      dup3\n      mload\n        /* \"contracts/core/MReciever.sol\":4031:4049  tGilt_.gilt.amount */\n      dup1\n      dup3\n      add\n      mload\n        /* \"contracts/core/MReciever.sol\":4061:4080  tGilt_.gilt.chainId */\n      0x60\n      swap2\n      dup3\n      add\n      mload\n        /* \"contracts/core/MReciever.sol\":4082:4095  localGilt_.id */\n      0xa0\n      dup1\n      dup7\n      add\n      mload\n        /* \"contracts/core/MReciever.sol\":4007:4096  GILT_CLAIMED(_claimant, tGilt_.gilt.amount, tGiltId_, tGilt_.gilt.chainId, localGilt_.id) */\n      0x40\n      dup1\n      mload\n      sub(shl(0xa0, 0x01), 0x01)\n        /* \"#utility.yul\":9031:9063   */\n      dup16\n      and\n        /* \"#utility.yul\":9013:9064   */\n      dup2\n      mstore\n        /* \"#utility.yul\":9080:9098   */\n      swap7\n      dup8\n      add\n        /* \"#utility.yul\":9073:9107   */\n      swap5\n      swap1\n      swap5\n      mstore\n        /* \"#utility.yul\":9123:9141   */\n      swap3\n      dup6\n      add\n        /* \"#utility.yul\":9116:9150   */\n      dup9\n      swap1\n      mstore\n        /* \"#utility.yul\":9166:9184   */\n      swap3\n      dup5\n      add\n        /* \"#utility.yul\":9159:9193   */\n      mstore\n        /* \"#utility.yul\":9224:9227   */\n      0x80\n        /* \"#utility.yul\":9209:9228   */\n      dup4\n      add\n        /* \"#utility.yul\":9202:9237   */\n      mstore\n        /* \"contracts/core/MReciever.sol\":4007:4096  GILT_CLAIMED(_claimant, tGilt_.gilt.amount, tGiltId_, tGilt_.gilt.chainId, localGilt_.id) */\n      0xdb2b0c28633297e83dc452aad8a73d2ec0ab72bc7c22efdc5b830ac223dbad41\n      swap2\n        /* \"#utility.yul\":8985:9004   */\n      add\n        /* \"contracts/core/MReciever.sol\":4007:4096  GILT_CLAIMED(_claimant, tGilt_.gilt.amount, tGiltId_, tGilt_.gilt.chainId, localGilt_.id) */\n      mload(0x40)\n      dup1\n      swap2\n      sub\n      swap1\n      log1\n      pop\n      pop\n      pop\n        /* \"contracts/core/MReciever.sol\":3358:3361  x++ */\n      0x01\n      add\n        /* \"contracts/core/MReciever.sol\":3312:4108  for(uint256 x = 0; x < unclaimedGilts.length; x++) {    ... */\n      jump(tag_84)\n    tag_85:\n      pop\n        /* \"contracts/core/MReciever.sol\":4118:4136  return _giltClaims */\n      pop\n        /* \"contracts/core/MReciever.sol\":935:936  _ */\n    tag_72:\n        /* \"contracts/core/MReciever.sol\":3003:4145  function claimGilts(address _claimant) external margariOnly returns (GiltClaim [] memory _giltClaims){... */\n      swap2\n      swap1\n      pop\n      jump\t// out\n        /* \"@chainlink/contracts-ccip/src/v0.8/ccip/applications/CCIPReceiver.sol\":1652:1782  function ccipReceive(Client.Any2EVMMessage calldata message) external virtual override onlyRouter {... */\n    tag_40:\n        /* \"@chainlink/contracts-ccip/src/v0.8/ccip/applications/CCIPReceiver.sol\":2412:2422  msg.sender */\n      caller\n      sub(shl(0xa0, 0x01), 0x01)\n        /* \"@chainlink/contracts-ccip/src/v0.8/ccip/applications/CCIPReceiver.sol\":2434:2442  i_router */\n      immutable(\"0x5c4c6aa067b6f8e6cb38e6ab843832a94d1712d661a04d73c517d6a1931a9e5d\")\n        /* \"@chainlink/contracts-ccip/src/v0.8/ccip/applications/CCIPReceiver.sol\":2412:2443  msg.sender != address(i_router) */\n      and\n      eq\n        /* \"@chainlink/contracts-ccip/src/v0.8/ccip/applications/CCIPReceiver.sol\":2408:2477  if (msg.sender != address(i_router)) revert InvalidRouter(msg.sender) */\n      tag_102\n      jumpi\n        /* \"@chainlink/contracts-ccip/src/v0.8/ccip/applications/CCIPReceiver.sol\":2452:2477  InvalidRouter(msg.sender) */\n      mload(0x40)\n      shl(0xe2, 0x35fdcccd)\n      dup2\n      mstore\n        /* \"@chainlink/contracts-ccip/src/v0.8/ccip/applications/CCIPReceiver.sol\":2466:2476  msg.sender */\n      caller\n        /* \"@chainlink/contracts-ccip/src/v0.8/ccip/applications/CCIPReceiver.sol\":2452:2477  InvalidRouter(msg.sender) */\n      0x04\n      dup3\n      add\n        /* \"#utility.yul\":5554:5605   */\n      mstore\n        /* \"#utility.yul\":5527:5545   */\n      0x24\n      add\n        /* \"@chainlink/contracts-ccip/src/v0.8/ccip/applications/CCIPReceiver.sol\":2452:2477  InvalidRouter(msg.sender) */\n      tag_70\n        /* \"#utility.yul\":5408:5611   */\n      jump\n        /* \"@chainlink/contracts-ccip/src/v0.8/ccip/applications/CCIPReceiver.sol\":2408:2477  if (msg.sender != address(i_router)) revert InvalidRouter(msg.sender) */\n    tag_102:\n        /* \"@chainlink/contracts-ccip/src/v0.8/ccip/applications/CCIPReceiver.sol\":1756:1777  _ccipReceive(message) */\n      tag_105\n      tag_106\n        /* \"@chainlink/contracts-ccip/src/v0.8/ccip/applications/CCIPReceiver.sol\":1769:1776  message */\n      dup3\n        /* \"@chainlink/contracts-ccip/src/v0.8/ccip/applications/CCIPReceiver.sol\":1756:1777  _ccipReceive(message) */\n      tag_107\n      jump\t// in\n    tag_106:\n        /* \"@chainlink/contracts-ccip/src/v0.8/ccip/applications/CCIPReceiver.sol\":1756:1768  _ccipReceive */\n      tag_108\n        /* \"@chainlink/contracts-ccip/src/v0.8/ccip/applications/CCIPReceiver.sol\":1756:1777  _ccipReceive(message) */\n      jump\t// in\n    tag_105:\n        /* \"@chainlink/contracts-ccip/src/v0.8/ccip/applications/CCIPReceiver.sol\":1652:1782  function ccipReceive(Client.Any2EVMMessage calldata message) external virtual override onlyRouter {... */\n      pop\n      jump\t// out\n        /* \"contracts/core/MReciever.sol\":2502:2995  function viewAvailableGiltClaims(address _claimant)  view external returns (Gilt [] memory _gilts) {... */\n    tag_43:\n      sub(shl(0xa0, 0x01), 0x01)\n        /* \"contracts/core/MReciever.sol\":2648:2674  tGiltIdsByOwner[_claimant] */\n      dup2\n      and\n        /* \"contracts/core/MReciever.sol\":2612:2645  bytes32 [] memory unclaimedGilts_ */\n      0x00\n        /* \"contracts/core/MReciever.sol\":2648:2674  tGiltIdsByOwner[_claimant] */\n      swap1\n      dup2\n      mstore\n        /* \"contracts/core/MReciever.sol\":2648:2663  tGiltIdsByOwner */\n      0x05\n        /* \"contracts/core/MReciever.sol\":2648:2674  tGiltIdsByOwner[_claimant] */\n      0x20\n      swap1\n      dup2\n      mstore\n      0x40\n      dup1\n      dup4\n      keccak256\n        /* \"contracts/core/MReciever.sol\":2612:2674  bytes32 [] memory unclaimedGilts_ = tGiltIdsByOwner[_claimant] */\n      dup1\n      sload\n      dup3\n      mload\n      dup2\n      dup6\n      mul\n      dup2\n      add\n      dup6\n      add\n      swap1\n      swap4\n      mstore\n      dup1\n      dup4\n      mstore\n        /* \"contracts/core/MReciever.sol\":2578:2599  Gilt [] memory _gilts */\n      0x60\n      swap5\n        /* \"contracts/core/MReciever.sol\":2612:2645  bytes32 [] memory unclaimedGilts_ */\n      swap4\n        /* \"contracts/core/MReciever.sol\":2612:2674  bytes32 [] memory unclaimedGilts_ = tGiltIdsByOwner[_claimant] */\n      dup4\n      add\n        /* \"contracts/core/MReciever.sol\":2648:2674  tGiltIdsByOwner[_claimant] */\n      dup3\n        /* \"contracts/core/MReciever.sol\":2612:2674  bytes32 [] memory unclaimedGilts_ = tGiltIdsByOwner[_claimant] */\n      dup3\n      dup1\n      iszero\n      tag_110\n      jumpi\n      0x20\n      mul\n      dup3\n      add\n      swap2\n      swap1\n      0x00\n      mstore\n      keccak256(0x00, 0x20)\n      swap1\n    tag_111:\n      dup2\n      sload\n      dup2\n      mstore\n      0x20\n      add\n      swap1\n      0x01\n      add\n      swap1\n      dup1\n      dup4\n      gt\n      tag_111\n      jumpi\n    tag_110:\n      pop\n      pop\n      pop\n      pop\n      pop\n      swap1\n      pop\n        /* \"contracts/core/MReciever.sol\":2705:2720  unclaimedGilts_ */\n      dup1\n        /* \"contracts/core/MReciever.sol\":2705:2727  unclaimedGilts_.length */\n      mload\n        /* \"contracts/core/MReciever.sol\":2694:2728  new Gilt[](unclaimedGilts_.length) */\n      0xffffffffffffffff\n      dup2\n      gt\n      iszero\n      tag_113\n      jumpi\n      tag_113\n      tag_79\n      jump\t// in\n    tag_113:\n      mload(0x40)\n      swap1\n      dup1\n      dup3\n      mstore\n      dup1\n      0x20\n      mul\n      0x20\n      add\n      dup3\n      add\n      0x40\n      mstore\n      dup1\n      iszero\n      tag_114\n      jumpi\n      dup2\n      0x20\n      add\n    tag_115:\n      tag_116\n      tag_117\n      jump\t// in\n    tag_116:\n      dup2\n      mstore\n      0x20\n      add\n      swap1\n      0x01\n      swap1\n      sub\n      swap1\n      dup2\n      tag_115\n      jumpi\n      swap1\n      pop\n    tag_114:\n      pop\n        /* \"contracts/core/MReciever.sol\":2685:2728  _gilts = new Gilt[](unclaimedGilts_.length) */\n      swap2\n      pop\n        /* \"contracts/core/MReciever.sol\":2743:2752  uint256 x */\n      0x00\n        /* \"contracts/core/MReciever.sol\":2739:2964  for(uint256 x = 0; x < unclaimedGilts_.length; x++) {   ... */\n    tag_118:\n        /* \"contracts/core/MReciever.sol\":2762:2777  unclaimedGilts_ */\n      dup2\n        /* \"contracts/core/MReciever.sol\":2762:2784  unclaimedGilts_.length */\n      mload\n        /* \"contracts/core/MReciever.sol\":2758:2759  x */\n      dup2\n        /* \"contracts/core/MReciever.sol\":2758:2784  x < unclaimedGilts_.length */\n      lt\n        /* \"contracts/core/MReciever.sol\":2739:2964  for(uint256 x = 0; x < unclaimedGilts_.length; x++) {   ... */\n      iszero\n      tag_85\n      jumpi\n        /* \"contracts/core/MReciever.sol\":2809:2825  bytes32 tGiltId_ */\n      0x00\n        /* \"contracts/core/MReciever.sol\":2828:2843  unclaimedGilts_ */\n      dup3\n        /* \"contracts/core/MReciever.sol\":2844:2845  x */\n      dup3\n        /* \"contracts/core/MReciever.sol\":2828:2846  unclaimedGilts_[x] */\n      dup2\n      mload\n      dup2\n      lt\n      tag_122\n      jumpi\n      tag_122\n      tag_89\n      jump\t// in\n    tag_122:\n      0x20\n      swap1\n      dup2\n      mul\n      swap2\n      swap1\n      swap2\n      add\n      dup2\n      add\n      mload\n        /* \"contracts/core/MReciever.sol\":2862:2891  TransmittedGilt memory tGilt_ */\n      0x00\n        /* \"contracts/core/MReciever.sol\":2894:2913  tGiltById[tGiltId_] */\n      dup2\n      dup2\n      mstore\n        /* \"contracts/core/MReciever.sol\":2894:2903  tGiltById */\n      0x04\n        /* \"contracts/core/MReciever.sol\":2894:2913  tGiltById[tGiltId_] */\n      dup1\n      dup5\n      mstore\n      0x40\n      swap2\n      dup3\n      swap1\n      keccak256\n        /* \"contracts/core/MReciever.sol\":2862:2913  TransmittedGilt memory tGilt_ = tGiltById[tGiltId_] */\n      dup3\n      mload\n      0x0140\n      dup2\n      add\n      dup5\n      mstore\n      dup2\n      sload\n      sub(shl(0xa0, 0x01), 0x01)\n      swap1\n      dup2\n      and\n      0x80\n      dup4\n      add\n      swap1\n      dup2\n      mstore\n      0x01\n      dup5\n      add\n      sload\n      0xa0\n      dup5\n      add\n      mstore\n      0x02\n      dup5\n      add\n      sload\n      0xc0\n      dup5\n      add\n      mstore\n      0x03\n      dup5\n      add\n      sload\n      0xe0\n      dup5\n      add\n      mstore\n      swap4\n      dup4\n      add\n      sload\n      dup2\n      and\n      0x0100\n      dup4\n      add\n      mstore\n      0x05\n      dup4\n      add\n      sload\n      0x0120\n      dup4\n      add\n      mstore\n      dup4\n      dup3\n      mstore\n      0x06\n      dup4\n      add\n      sload\n      swap7\n      dup3\n      add\n      swap7\n      swap1\n      swap7\n      mstore\n      0x07\n      dup3\n      add\n      sload\n      swap4\n      dup2\n      add\n      swap4\n      swap1\n      swap4\n      mstore\n      0x08\n      add\n      sload\n      swap1\n      swap4\n      and\n      0x60\n      dup3\n      add\n      mstore\n        /* \"contracts/core/MReciever.sol\":2928:2937  _gilts[x] */\n      dup7\n      mload\n        /* \"contracts/core/MReciever.sol\":2828:2846  unclaimedGilts_[x] */\n      swap2\n      swap4\n      pop\n        /* \"contracts/core/MReciever.sol\":2862:2913  TransmittedGilt memory tGilt_ = tGiltById[tGiltId_] */\n      swap2\n      swap1\n        /* \"contracts/core/MReciever.sol\":2928:2934  _gilts */\n      dup7\n      swap1\n        /* \"contracts/core/MReciever.sol\":2935:2936  x */\n      dup6\n      swap1\n        /* \"contracts/core/MReciever.sol\":2928:2937  _gilts[x] */\n      dup2\n      lt\n      tag_124\n      jumpi\n      tag_124\n      tag_89\n      jump\t// in\n    tag_124:\n      0x20\n      swap1\n      dup2\n      mul\n      swap2\n      swap1\n      swap2\n      add\n      add\n        /* \"contracts/core/MReciever.sol\":2928:2951  _gilts[x] = tGilt_.gilt */\n      mstore\n      pop\n      pop\n        /* \"contracts/core/MReciever.sol\":2786:2789  x++ */\n      0x01\n      add\n        /* \"contracts/core/MReciever.sol\":2739:2964  for(uint256 x = 0; x < unclaimedGilts_.length; x++) {   ... */\n      jump(tag_118)\n        /* \"contracts/core/MReciever.sol\":2350:2494  function getTransmittedGilt(bytes32 _tGiltId) view external returns (TransmittedGilt memory tGilt) {... */\n    tag_49:\n        /* \"contracts/core/MReciever.sol\":2419:2447  TransmittedGilt memory tGilt */\n      tag_125\n      tag_126\n      jump\t// in\n    tag_125:\n      pop\n        /* \"contracts/core/MReciever.sol\":2467:2486  tGiltById[_tGiltId] */\n      0x00\n      swap1\n      dup2\n      mstore\n        /* \"contracts/core/MReciever.sol\":2467:2476  tGiltById */\n      0x04\n        /* \"contracts/core/MReciever.sol\":2467:2486  tGiltById[_tGiltId] */\n      0x20\n      dup2\n      dup2\n      mstore\n      0x40\n      swap3\n      dup4\n      swap1\n      keccak256\n        /* \"contracts/core/MReciever.sol\":2460:2486  return tGiltById[_tGiltId] */\n      dup4\n      mload\n      0x0140\n      dup2\n      add\n      dup6\n      mstore\n      dup2\n      sload\n      sub(shl(0xa0, 0x01), 0x01)\n      swap1\n      dup2\n      and\n      0x80\n      dup4\n      add\n      swap1\n      dup2\n      mstore\n      0x01\n      dup5\n      add\n      sload\n      0xa0\n      dup5\n      add\n      mstore\n      0x02\n      dup5\n      add\n      sload\n      0xc0\n      dup5\n      add\n      mstore\n      0x03\n      dup5\n      add\n      sload\n      0xe0\n      dup5\n      add\n      mstore\n      swap5\n      dup4\n      add\n      sload\n      dup2\n      and\n      0x0100\n      dup4\n      add\n      mstore\n      0x05\n      dup4\n      add\n      sload\n      0x0120\n      dup4\n      add\n      mstore\n      swap4\n      dup2\n      mstore\n      0x06\n      dup3\n      add\n      sload\n      swap3\n      dup2\n      add\n      swap3\n      swap1\n      swap3\n      mstore\n      0x07\n      dup2\n      add\n      sload\n      swap4\n      dup3\n      add\n      swap4\n      swap1\n      swap4\n      mstore\n      0x08\n      swap1\n      swap3\n      add\n      sload\n      and\n      0x60\n      dup3\n      add\n      mstore\n      swap1\n        /* \"contracts/core/MReciever.sol\":2350:2494  function getTransmittedGilt(bytes32 _tGiltId) view external returns (TransmittedGilt memory tGilt) {... */\n      jump\t// out\n        /* \"contracts/core/MReciever.sol\":1763:2224  function _ccipReceive(Client.Any2EVMMessage memory _message) internal override {... */\n    tag_108:\n        /* \"contracts/core/MReciever.sol\":1853:1882  TransmittedGilt memory _tGilt */\n      0x00\n        /* \"contracts/core/MReciever.sol\":1896:1904  _message */\n      dup2\n        /* \"contracts/core/MReciever.sol\":1896:1909  _message.data */\n      0x60\n      add\n      mload\n        /* \"contracts/core/MReciever.sol\":1885:1929  abi.decode(_message.data, (TransmittedGilt)) */\n      dup1\n      0x20\n      add\n      swap1\n      mload\n      dup2\n      add\n      swap1\n      tag_130\n      swap2\n      swap1\n      tag_131\n      jump\t// in\n    tag_130:\n        /* \"contracts/core/MReciever.sol\":1969:1982  _message.data */\n      0x60\n      dup4\n      dup2\n      add\n      mload\n        /* \"contracts/core/MReciever.sol\":1959:1983  keccak256(_message.data) */\n      dup1\n      mload\n      0x20\n      swap2\n      dup3\n      add\n      keccak256\n        /* \"contracts/core/MReciever.sol\":1940:1956  bytes32 _localId */\n      0x00\n        /* \"contracts/core/MReciever.sol\":1994:2013  tGiltById[_localId] */\n      dup2\n      dup2\n      mstore\n        /* \"contracts/core/MReciever.sol\":1994:2003  tGiltById */\n      0x04\n        /* \"contracts/core/MReciever.sol\":1994:2013  tGiltById[_localId] */\n      dup1\n      dup5\n      mstore\n      0x40\n      dup1\n      dup4\n      keccak256\n        /* \"contracts/core/MReciever.sol\":1994:2022  tGiltById[_localId] = _tGilt */\n      dup8\n      mload\n      dup1\n      mload\n      dup3\n      sload\n      not(sub(shl(0xa0, 0x01), 0x01))\n      swap1\n      dup2\n      and\n      sub(shl(0xa0, 0x01), 0x01)\n      swap3\n      dup4\n      and\n      or\n      dup5\n      sstore\n      dup3\n      dup10\n      add\n      mload\n      0x01\n      dup1\n      dup7\n      add\n      swap2\n      swap1\n      swap2\n      sstore\n      dup4\n      dup7\n      add\n      mload\n      0x02\n      dup7\n      add\n      sstore\n      dup4\n      dup12\n      add\n      mload\n      0x03\n      dup1\n      dup8\n      add\n      swap2\n      swap1\n      swap2\n      sstore\n      0x80\n      dup1\n      dup7\n      add\n      mload\n      swap9\n      dup8\n      add\n      dup1\n      sload\n      dup6\n      and\n      swap10\n      dup7\n      and\n      swap10\n      swap1\n      swap10\n      or\n      swap1\n      swap9\n      sstore\n      0xa0\n      swap5\n      dup6\n      add\n      mload\n      0x05\n      dup1\n      dup9\n      add\n      swap2\n      swap1\n      swap2\n      sstore\n      dup14\n      dup13\n      add\n      mload\n      0x06\n      dup9\n      add\n      sstore\n      dup14\n      dup9\n      add\n      mload\n      0x07\n      dup9\n      add\n      sstore\n      dup14\n      dup14\n      add\n      dup1\n      mload\n      0x08\n      swap1\n      swap9\n      add\n      dup1\n      sload\n      swap1\n      swap6\n      and\n      swap8\n      dup7\n      and\n      swap8\n      dup9\n      or\n      swap1\n      swap5\n      sstore\n        /* \"contracts/core/MReciever.sol\":2036:2065  tGiltIdsByOwner[_tGilt.owner] */\n      swap6\n      dup10\n      mstore\n      swap5\n      dup11\n      mstore\n      dup6\n      dup9\n      keccak256\n        /* \"contracts/core/MReciever.sol\":2036:2080  tGiltIdsByOwner[_tGilt.owner].push(_localId) */\n      dup1\n      sload\n      dup1\n      dup4\n      add\n      dup3\n      sstore\n      swap1\n      dup10\n      mstore\n      dup11\n      dup10\n      keccak256\n      add\n      dup10\n      swap1\n      sstore\n        /* \"contracts/core/MReciever.sol\":2091:2114  tGiltIds.push(_localId) */\n      dup5\n      sload\n      swap1\n      dup2\n      add\n      dup6\n      sstore\n      swap4\n      swap1\n      swap7\n      mstore\n      0xc2575a0e9e593c00f959f8c92f12db2869c3395a3b0502d05e2516446f71f85b\n      swap1\n      swap3\n      add\n      dup7\n      swap1\n      sstore\n        /* \"contracts/core/MReciever.sol\":2146:2158  _tGilt.owner */\n      swap4\n      mload\n        /* \"contracts/core/MReciever.sol\":2160:2171  _tGilt.gilt */\n      dup9\n      mload\n        /* \"contracts/core/MReciever.sol\":2160:2178  _tGilt.gilt.amount */\n      dup1\n      dup9\n      add\n      mload\n        /* \"contracts/core/MReciever.sol\":2180:2194  _tGilt.gilt.id */\n      swap6\n      dup2\n      add\n      mload\n        /* \"contracts/core/MReciever.sol\":2196:2215  _tGilt.gilt.chainId */\n      swap1\n      dup10\n      add\n      mload\n        /* \"contracts/core/MReciever.sol\":2132:2216  GILT_RECIEVED(_tGilt.owner, _tGilt.gilt.amount, _tGilt.gilt.id, _tGilt.gilt.chainId) */\n      dup5\n      mload\n        /* \"#utility.yul\":13039:13071   */\n      swap3\n      swap1\n      swap4\n      and\n        /* \"#utility.yul\":13021:13072   */\n      dup3\n      mstore\n        /* \"#utility.yul\":13088:13106   */\n      swap7\n      dup2\n      add\n        /* \"#utility.yul\":13081:13115   */\n      swap5\n      swap1\n      swap5\n      mstore\n        /* \"#utility.yul\":13131:13149   */\n      swap1\n      dup4\n      add\n        /* \"#utility.yul\":13124:13158   */\n      swap5\n      swap1\n      swap5\n      mstore\n        /* \"#utility.yul\":13174:13192   */\n      swap4\n      dup2\n      add\n        /* \"#utility.yul\":13167:13201   */\n      swap3\n      swap1\n      swap3\n      mstore\n        /* \"contracts/core/MReciever.sol\":1994:2022  tGiltById[_localId] = _tGilt */\n      swap3\n      swap4\n      pop\n        /* \"contracts/core/MReciever.sol\":2132:2216  GILT_RECIEVED(_tGilt.owner, _tGilt.gilt.amount, _tGilt.gilt.id, _tGilt.gilt.chainId) */\n      0xf0cd9c1bf761a2b8c68b22a2dcdf991327826018ecc4044c62ee439a63428d14\n      swap2\n        /* \"#utility.yul\":12993:13012   */\n      add\n        /* \"contracts/core/MReciever.sol\":2132:2216  GILT_RECIEVED(_tGilt.owner, _tGilt.gilt.amount, _tGilt.gilt.id, _tGilt.gilt.chainId) */\n      mload(0x40)\n      dup1\n      swap2\n      sub\n      swap1\n      log1\n        /* \"contracts/core/MReciever.sol\":1842:2224  {... */\n      pop\n      pop\n        /* \"contracts/core/MReciever.sol\":1763:2224  function _ccipReceive(Client.Any2EVMMessage memory _message) internal override {... */\n      pop\n      jump\t// out\n    tag_76:\n      pop\n      dup1\n      sload\n      0x00\n      dup3\n      sstore\n      swap1\n      0x00\n      mstore\n      keccak256(0x00, 0x20)\n      swap1\n      dup2\n      add\n      swap1\n      tag_105\n      swap2\n      swap1\n      tag_138\n      jump\t// in\n    tag_117:\n      mload(0x40)\n      dup1\n      0xc0\n      add\n      0x40\n      mstore\n      dup1\n      and(sub(shl(0xa0, 0x01), 0x01), 0x00)\n      dup2\n      mstore\n      0x20\n      add\n      0x00\n      dup2\n      mstore\n      0x20\n      add\n      0x00\n      dup2\n      mstore\n      0x20\n      add\n      0x00\n      dup2\n      mstore\n      0x20\n      add\n      and(sub(shl(0xa0, 0x01), 0x01), 0x00)\n      dup2\n      mstore\n      0x20\n      add\n      0x00\n      dup2\n      mstore\n      pop\n      swap1\n      jump\t// out\n    tag_126:\n      mload(0x40)\n      dup1\n      0x80\n      add\n      0x40\n      mstore\n      dup1\n      tag_139\n      tag_117\n      jump\t// in\n    tag_139:\n      dup2\n      mstore\n      0x00\n      0x20\n      dup3\n      add\n      dup2\n      swap1\n      mstore\n      0x40\n      dup3\n      add\n      dup2\n      swap1\n      mstore\n      0x60\n      swap1\n      swap2\n      add\n      mstore\n      swap1\n      jump\t// out\n    tag_138:\n    tag_140:\n      dup1\n      dup3\n      gt\n      iszero\n      tag_141\n      jumpi\n      0x00\n      dup2\n      sstore\n      0x01\n      add\n      jump(tag_140)\n    tag_141:\n      pop\n      swap1\n      jump\t// out\n        /* \"#utility.yul\":14:300   */\n    tag_15:\n        /* \"#utility.yul\":72:78   */\n      0x00\n        /* \"#utility.yul\":125:127   */\n      0x20\n        /* \"#utility.yul\":113:122   */\n      dup3\n        /* \"#utility.yul\":104:111   */\n      dup5\n        /* \"#utility.yul\":100:123   */\n      sub\n        /* \"#utility.yul\":96:128   */\n      slt\n        /* \"#utility.yul\":93:145   */\n      iszero\n      tag_154\n      jumpi\n        /* \"#utility.yul\":141:142   */\n      0x00\n        /* \"#utility.yul\":138:139   */\n      dup1\n        /* \"#utility.yul\":131:143   */\n      revert\n        /* \"#utility.yul\":93:145   */\n    tag_154:\n        /* \"#utility.yul\":167:190   */\n      dup2\n      calldataload\n      not(sub(shl(0xe0, 0x01), 0x01))\n        /* \"#utility.yul\":219:251   */\n      dup2\n      and\n        /* \"#utility.yul\":209:252   */\n      dup2\n      eq\n        /* \"#utility.yul\":199:270   */\n      tag_155\n      jumpi\n        /* \"#utility.yul\":266:267   */\n      0x00\n        /* \"#utility.yul\":263:264   */\n      dup1\n        /* \"#utility.yul\":256:268   */\n      revert\n        /* \"#utility.yul\":199:270   */\n    tag_155:\n        /* \"#utility.yul\":289:294   */\n      swap4\n        /* \"#utility.yul\":14:300   */\n      swap3\n      pop\n      pop\n      pop\n      jump\t// out\n        /* \"#utility.yul\":679:1227   */\n    tag_26:\n        /* \"#utility.yul\":791:795   */\n      0x00\n        /* \"#utility.yul\":820:822   */\n      0x20\n        /* \"#utility.yul\":849:851   */\n      dup1\n        /* \"#utility.yul\":838:847   */\n      dup4\n        /* \"#utility.yul\":831:852   */\n      mstore\n        /* \"#utility.yul\":881:887   */\n      dup4\n        /* \"#utility.yul\":875:888   */\n      mload\n        /* \"#utility.yul\":924:930   */\n      dup1\n        /* \"#utility.yul\":919:921   */\n      0x20\n        /* \"#utility.yul\":908:917   */\n      dup6\n        /* \"#utility.yul\":904:922   */\n      add\n        /* \"#utility.yul\":897:931   */\n      mstore\n        /* \"#utility.yul\":949:950   */\n      0x00\n        /* \"#utility.yul\":959:1099   */\n    tag_159:\n        /* \"#utility.yul\":973:979   */\n      dup2\n        /* \"#utility.yul\":970:971   */\n      dup2\n        /* \"#utility.yul\":967:980   */\n      lt\n        /* \"#utility.yul\":959:1099   */\n      iszero\n      tag_161\n      jumpi\n        /* \"#utility.yul\":1068:1082   */\n      dup6\n      dup2\n      add\n        /* \"#utility.yul\":1064:1087   */\n      dup4\n      add\n        /* \"#utility.yul\":1058:1088   */\n      mload\n        /* \"#utility.yul\":1034:1051   */\n      dup6\n      dup3\n      add\n        /* \"#utility.yul\":1053:1055   */\n      0x40\n        /* \"#utility.yul\":1030:1056   */\n      add\n        /* \"#utility.yul\":1023:1089   */\n      mstore\n        /* \"#utility.yul\":988:998   */\n      dup3\n      add\n        /* \"#utility.yul\":959:1099   */\n      jump(tag_159)\n    tag_161:\n        /* \"#utility.yul\":963:966   */\n      pop\n        /* \"#utility.yul\":1148:1149   */\n      0x00\n        /* \"#utility.yul\":1143:1145   */\n      0x40\n        /* \"#utility.yul\":1134:1140   */\n      dup3\n        /* \"#utility.yul\":1123:1132   */\n      dup7\n        /* \"#utility.yul\":1119:1141   */\n      add\n        /* \"#utility.yul\":1115:1146   */\n      add\n        /* \"#utility.yul\":1108:1150   */\n      mstore\n        /* \"#utility.yul\":1218:1220   */\n      0x40\n        /* \"#utility.yul\":1211:1213   */\n      0x1f\n        /* \"#utility.yul\":1207:1214   */\n      not\n        /* \"#utility.yul\":1202:1204   */\n      0x1f\n        /* \"#utility.yul\":1194:1200   */\n      dup4\n        /* \"#utility.yul\":1190:1205   */\n      add\n        /* \"#utility.yul\":1186:1215   */\n      and\n        /* \"#utility.yul\":1175:1184   */\n      dup6\n        /* \"#utility.yul\":1171:1216   */\n      add\n        /* \"#utility.yul\":1167:1221   */\n      add\n        /* \"#utility.yul\":1159:1221   */\n      swap3\n      pop\n      pop\n      pop\n        /* \"#utility.yul\":679:1227   */\n      swap3\n      swap2\n      pop\n      pop\n      jump\t// out\n        /* \"#utility.yul\":1232:1864   */\n    tag_30:\n        /* \"#utility.yul\":1403:1405   */\n      0x20\n        /* \"#utility.yul\":1455:1476   */\n      dup1\n      dup3\n      mstore\n        /* \"#utility.yul\":1525:1538   */\n      dup3\n      mload\n        /* \"#utility.yul\":1428:1446   */\n      dup3\n      dup3\n      add\n        /* \"#utility.yul\":1547:1569   */\n      dup2\n      swap1\n      mstore\n        /* \"#utility.yul\":1374:1378   */\n      0x00\n      swap2\n        /* \"#utility.yul\":1403:1405   */\n      swap1\n        /* \"#utility.yul\":1626:1641   */\n      dup5\n      dup3\n      add\n      swap1\n        /* \"#utility.yul\":1600:1602   */\n      0x40\n        /* \"#utility.yul\":1585:1603   */\n      dup6\n      add\n      swap1\n        /* \"#utility.yul\":1374:1378   */\n      dup5\n        /* \"#utility.yul\":1669:1838   */\n    tag_163:\n        /* \"#utility.yul\":1683:1689   */\n      dup2\n        /* \"#utility.yul\":1680:1681   */\n      dup2\n        /* \"#utility.yul\":1677:1690   */\n      lt\n        /* \"#utility.yul\":1669:1838   */\n      iszero\n      tag_165\n      jumpi\n        /* \"#utility.yul\":1744:1757   */\n      dup4\n      mload\n        /* \"#utility.yul\":1732:1758   */\n      dup4\n      mstore\n        /* \"#utility.yul\":1813:1828   */\n      swap3\n      dup5\n      add\n      swap3\n        /* \"#utility.yul\":1778:1790   */\n      swap2\n      dup5\n      add\n      swap2\n        /* \"#utility.yul\":1705:1706   */\n      0x01\n        /* \"#utility.yul\":1698:1707   */\n      add\n        /* \"#utility.yul\":1669:1838   */\n      jump(tag_163)\n    tag_165:\n      pop\n        /* \"#utility.yul\":1855:1858   */\n      swap1\n      swap7\n        /* \"#utility.yul\":1232:1864   */\n      swap6\n      pop\n      pop\n      pop\n      pop\n      pop\n      pop\n      jump\t// out\n        /* \"#utility.yul\":1869:2000   */\n    tag_142:\n      sub(shl(0xa0, 0x01), 0x01)\n        /* \"#utility.yul\":1944:1975   */\n      dup2\n      and\n        /* \"#utility.yul\":1934:1976   */\n      dup2\n      eq\n        /* \"#utility.yul\":1924:1994   */\n      tag_105\n      jumpi\n        /* \"#utility.yul\":1990:1991   */\n      0x00\n        /* \"#utility.yul\":1987:1988   */\n      dup1\n        /* \"#utility.yul\":1980:1992   */\n      revert\n        /* \"#utility.yul\":2005:2252   */\n    tag_33:\n        /* \"#utility.yul\":2064:2070   */\n      0x00\n        /* \"#utility.yul\":2117:2119   */\n      0x20\n        /* \"#utility.yul\":2105:2114   */\n      dup3\n        /* \"#utility.yul\":2096:2103   */\n      dup5\n        /* \"#utility.yul\":2092:2115   */\n      sub\n        /* \"#utility.yul\":2088:2120   */\n      slt\n        /* \"#utility.yul\":2085:2137   */\n      iszero\n      tag_169\n      jumpi\n        /* \"#utility.yul\":2133:2134   */\n      0x00\n        /* \"#utility.yul\":2130:2131   */\n      dup1\n        /* \"#utility.yul\":2123:2135   */\n      revert\n        /* \"#utility.yul\":2085:2137   */\n    tag_169:\n        /* \"#utility.yul\":2172:2181   */\n      dup2\n        /* \"#utility.yul\":2159:2182   */\n      calldataload\n        /* \"#utility.yul\":2191:2222   */\n      tag_155\n        /* \"#utility.yul\":2216:2221   */\n      dup2\n        /* \"#utility.yul\":2191:2222   */\n      tag_142\n      jump\t// in\n        /* \"#utility.yul\":2257:3102   */\n    tag_36:\n        /* \"#utility.yul\":2480:2482   */\n      0x20\n        /* \"#utility.yul\":2532:2553   */\n      dup1\n      dup3\n      mstore\n        /* \"#utility.yul\":2602:2615   */\n      dup3\n      mload\n        /* \"#utility.yul\":2505:2523   */\n      dup3\n      dup3\n      add\n        /* \"#utility.yul\":2624:2646   */\n      dup2\n      swap1\n      mstore\n        /* \"#utility.yul\":2451:2455   */\n      0x00\n      swap2\n        /* \"#utility.yul\":2480:2482   */\n      swap1\n        /* \"#utility.yul\":2665:2667   */\n      0x40\n      swap1\n        /* \"#utility.yul\":2683:2701   */\n      dup2\n      dup6\n      add\n      swap1\n        /* \"#utility.yul\":2724:2739   */\n      dup7\n      dup5\n      add\n        /* \"#utility.yul\":2451:2455   */\n      dup6\n        /* \"#utility.yul\":2767:3076   */\n    tag_172:\n        /* \"#utility.yul\":2781:2787   */\n      dup3\n        /* \"#utility.yul\":2778:2779   */\n      dup2\n        /* \"#utility.yul\":2775:2788   */\n      lt\n        /* \"#utility.yul\":2767:3076   */\n      iszero\n      tag_174\n      jumpi\n        /* \"#utility.yul\":2840:2853   */\n      dup2\n      mload\n        /* \"#utility.yul\":2878:2887   */\n      dup1\n      mload\n        /* \"#utility.yul\":2866:2888   */\n      dup6\n      mstore\n        /* \"#utility.yul\":2928:2939   */\n      dup7\n      dup2\n      add\n        /* \"#utility.yul\":2922:2940   */\n      mload\n        /* \"#utility.yul\":2908:2920   */\n      dup8\n      dup7\n      add\n        /* \"#utility.yul\":2901:2941   */\n      mstore\n        /* \"#utility.yul\":2981:2992   */\n      dup6\n      add\n        /* \"#utility.yul\":2975:2993   */\n      mload\n        /* \"#utility.yul\":2961:2973   */\n      dup6\n      dup6\n      add\n        /* \"#utility.yul\":2954:2994   */\n      mstore\n        /* \"#utility.yul\":3023:3027   */\n      0x60\n        /* \"#utility.yul\":3014:3028   */\n      swap1\n      swap4\n      add\n      swap3\n        /* \"#utility.yul\":3051:3066   */\n      swap1\n      dup6\n      add\n      swap1\n        /* \"#utility.yul\":2803:2804   */\n      0x01\n        /* \"#utility.yul\":2796:2805   */\n      add\n        /* \"#utility.yul\":2767:3076   */\n      jump(tag_172)\n    tag_174:\n      pop\n        /* \"#utility.yul\":3093:3096   */\n      swap2\n      swap8\n        /* \"#utility.yul\":2257:3102   */\n      swap7\n      pop\n      pop\n      pop\n      pop\n      pop\n      pop\n      pop\n      jump\t// out\n        /* \"#utility.yul\":3107:3500   */\n    tag_39:\n        /* \"#utility.yul\":3199:3205   */\n      0x00\n        /* \"#utility.yul\":3252:3254   */\n      0x20\n        /* \"#utility.yul\":3240:3249   */\n      dup3\n        /* \"#utility.yul\":3231:3238   */\n      dup5\n        /* \"#utility.yul\":3227:3250   */\n      sub\n        /* \"#utility.yul\":3223:3255   */\n      slt\n        /* \"#utility.yul\":3220:3272   */\n      iszero\n      tag_176\n      jumpi\n        /* \"#utility.yul\":3268:3269   */\n      0x00\n        /* \"#utility.yul\":3265:3266   */\n      dup1\n        /* \"#utility.yul\":3258:3270   */\n      revert\n        /* \"#utility.yul\":3220:3272   */\n    tag_176:\n        /* \"#utility.yul\":3308:3317   */\n      dup2\n        /* \"#utility.yul\":3295:3318   */\n      calldataload\n        /* \"#utility.yul\":3341:3359   */\n      0xffffffffffffffff\n        /* \"#utility.yul\":3333:3339   */\n      dup2\n        /* \"#utility.yul\":3330:3360   */\n      gt\n        /* \"#utility.yul\":3327:3377   */\n      iszero\n      tag_177\n      jumpi\n        /* \"#utility.yul\":3373:3374   */\n      0x00\n        /* \"#utility.yul\":3370:3371   */\n      dup1\n        /* \"#utility.yul\":3363:3375   */\n      revert\n        /* \"#utility.yul\":3327:3377   */\n    tag_177:\n        /* \"#utility.yul\":3396:3418   */\n      dup3\n      add\n        /* \"#utility.yul\":3452:3455   */\n      0xa0\n        /* \"#utility.yul\":3434:3450   */\n      dup2\n      dup6\n      sub\n        /* \"#utility.yul\":3430:3456   */\n      slt\n        /* \"#utility.yul\":3427:3473   */\n      iszero\n      tag_155\n      jumpi\n        /* \"#utility.yul\":3469:3470   */\n      0x00\n        /* \"#utility.yul\":3466:3467   */\n      dup1\n        /* \"#utility.yul\":3459:3471   */\n      revert\n        /* \"#utility.yul\":3505:3930   */\n    tag_143:\n        /* \"#utility.yul\":3617:3629   */\n      dup1\n      mload\n      sub(shl(0xa0, 0x01), 0x01)\n        /* \"#utility.yul\":3613:3634   */\n      swap1\n      dup2\n      and\n        /* \"#utility.yul\":3601:3635   */\n      dup4\n      mstore\n        /* \"#utility.yul\":3684:3688   */\n      0x20\n        /* \"#utility.yul\":3673:3689   */\n      dup1\n      dup4\n      add\n        /* \"#utility.yul\":3667:3690   */\n      mload\n        /* \"#utility.yul\":3651:3665   */\n      swap1\n      dup5\n      add\n        /* \"#utility.yul\":3644:3691   */\n      mstore\n        /* \"#utility.yul\":3740:3744   */\n      0x40\n        /* \"#utility.yul\":3729:3745   */\n      dup1\n      dup4\n      add\n        /* \"#utility.yul\":3723:3746   */\n      mload\n        /* \"#utility.yul\":3707:3721   */\n      swap1\n      dup5\n      add\n        /* \"#utility.yul\":3700:3747   */\n      mstore\n        /* \"#utility.yul\":3796:3800   */\n      0x60\n        /* \"#utility.yul\":3785:3801   */\n      dup1\n      dup4\n      add\n        /* \"#utility.yul\":3779:3802   */\n      mload\n        /* \"#utility.yul\":3763:3777   */\n      swap1\n      dup5\n      add\n        /* \"#utility.yul\":3756:3803   */\n      mstore\n        /* \"#utility.yul\":3856:3860   */\n      0x80\n        /* \"#utility.yul\":3845:3861   */\n      dup1\n      dup4\n      add\n        /* \"#utility.yul\":3839:3862   */\n      mload\n        /* \"#utility.yul\":3835:3867   */\n      swap1\n      swap2\n      and\n        /* \"#utility.yul\":3819:3833   */\n      swap1\n      dup4\n      add\n        /* \"#utility.yul\":3812:3868   */\n      mstore\n        /* \"#utility.yul\":3581:3584   */\n      0xa0\n        /* \"#utility.yul\":3906:3922   */\n      swap1\n      dup2\n      add\n        /* \"#utility.yul\":3900:3923   */\n      mload\n        /* \"#utility.yul\":3884:3898   */\n      swap2\n      add\n        /* \"#utility.yul\":3877:3924   */\n      mstore\n        /* \"#utility.yul\":3505:3930   */\n      jump\t// out\n        /* \"#utility.yul\":3935:4627   */\n    tag_45:\n        /* \"#utility.yul\":4148:4150   */\n      0x20\n        /* \"#utility.yul\":4200:4221   */\n      dup1\n      dup3\n      mstore\n        /* \"#utility.yul\":4270:4283   */\n      dup3\n      mload\n        /* \"#utility.yul\":4173:4191   */\n      dup3\n      dup3\n      add\n        /* \"#utility.yul\":4292:4314   */\n      dup2\n      swap1\n      mstore\n        /* \"#utility.yul\":4119:4123   */\n      0x00\n      swap2\n        /* \"#utility.yul\":4148:4150   */\n      swap1\n        /* \"#utility.yul\":4371:4386   */\n      dup5\n      dup3\n      add\n      swap1\n        /* \"#utility.yul\":4345:4347   */\n      0x40\n        /* \"#utility.yul\":4330:4348   */\n      dup6\n      add\n      swap1\n        /* \"#utility.yul\":4119:4123   */\n      dup5\n        /* \"#utility.yul\":4414:4601   */\n    tag_181:\n        /* \"#utility.yul\":4428:4434   */\n      dup2\n        /* \"#utility.yul\":4425:4426   */\n      dup2\n        /* \"#utility.yul\":4422:4435   */\n      lt\n        /* \"#utility.yul\":4414:4601   */\n      iszero\n      tag_165\n      jumpi\n        /* \"#utility.yul\":4477:4519   */\n      tag_184\n        /* \"#utility.yul\":4515:4518   */\n      dup4\n        /* \"#utility.yul\":4506:4512   */\n      dup6\n        /* \"#utility.yul\":4500:4513   */\n      mload\n        /* \"#utility.yul\":4477:4519   */\n      tag_143\n      jump\t// in\n    tag_184:\n        /* \"#utility.yul\":4576:4591   */\n      swap3\n      dup5\n      add\n      swap3\n        /* \"#utility.yul\":4548:4552   */\n      0xc0\n        /* \"#utility.yul\":4539:4553   */\n      swap3\n      swap1\n      swap3\n      add\n      swap2\n        /* \"#utility.yul\":4450:4451   */\n      0x01\n        /* \"#utility.yul\":4443:4452   */\n      add\n        /* \"#utility.yul\":4414:4601   */\n      jump(tag_181)\n        /* \"#utility.yul\":4632:4812   */\n    tag_48:\n        /* \"#utility.yul\":4691:4697   */\n      0x00\n        /* \"#utility.yul\":4744:4746   */\n      0x20\n        /* \"#utility.yul\":4732:4741   */\n      dup3\n        /* \"#utility.yul\":4723:4730   */\n      dup5\n        /* \"#utility.yul\":4719:4742   */\n      sub\n        /* \"#utility.yul\":4715:4747   */\n      slt\n        /* \"#utility.yul\":4712:4764   */\n      iszero\n      tag_186\n      jumpi\n        /* \"#utility.yul\":4760:4761   */\n      0x00\n        /* \"#utility.yul\":4757:4758   */\n      dup1\n        /* \"#utility.yul\":4750:4762   */\n      revert\n        /* \"#utility.yul\":4712:4764   */\n    tag_186:\n      pop\n        /* \"#utility.yul\":4783:4806   */\n      calldataload\n      swap2\n        /* \"#utility.yul\":4632:4812   */\n      swap1\n      pop\n      jump\t// out\n        /* \"#utility.yul\":4817:5129   */\n    tag_144:\n        /* \"#utility.yul\":4886:4927   */\n      tag_188\n        /* \"#utility.yul\":4923:4926   */\n      dup3\n        /* \"#utility.yul\":4915:4920   */\n      dup3\n        /* \"#utility.yul\":4909:4921   */\n      mload\n        /* \"#utility.yul\":4886:4927   */\n      tag_143\n      jump\t// in\n    tag_188:\n        /* \"#utility.yul\":4976:4980   */\n      0x20\n        /* \"#utility.yul\":4965:4981   */\n      dup2\n      add\n        /* \"#utility.yul\":4959:4982   */\n      mload\n        /* \"#utility.yul\":4952:4956   */\n      0xc0\n        /* \"#utility.yul\":4943:4957   */\n      dup4\n      add\n        /* \"#utility.yul\":4936:4983   */\n      mstore\n        /* \"#utility.yul\":5032:5036   */\n      0x40\n        /* \"#utility.yul\":5021:5037   */\n      dup2\n      add\n        /* \"#utility.yul\":5015:5038   */\n      mload\n        /* \"#utility.yul\":5008:5012   */\n      0xe0\n        /* \"#utility.yul\":4999:5013   */\n      dup4\n      add\n        /* \"#utility.yul\":4992:5039   */\n      mstore\n        /* \"#utility.yul\":5094:5098   */\n      0x60\n        /* \"#utility.yul\":5083:5099   */\n      add\n        /* \"#utility.yul\":5077:5100   */\n      mload\n      sub(shl(0xa0, 0x01), 0x01)\n        /* \"#utility.yul\":5073:5122   */\n      and\n        /* \"#utility.yul\":5064:5070   */\n      0x0100\n        /* \"#utility.yul\":5055:5071   */\n      swap1\n      swap2\n      add\n        /* \"#utility.yul\":5048:5123   */\n      mstore\n        /* \"#utility.yul\":4817:5129   */\n      jump\t// out\n        /* \"#utility.yul\":5134:5403   */\n    tag_51:\n        /* \"#utility.yul\":5332:5335   */\n      0x0120\n        /* \"#utility.yul\":5317:5336   */\n      dup2\n      add\n        /* \"#utility.yul\":5345:5397   */\n      tag_57\n        /* \"#utility.yul\":5321:5330   */\n      dup3\n        /* \"#utility.yul\":5379:5385   */\n      dup5\n        /* \"#utility.yul\":5345:5397   */\n      tag_144\n      jump\t// in\n        /* \"#utility.yul\":5616:5867   */\n    tag_68:\n        /* \"#utility.yul\":5686:5692   */\n      0x00\n        /* \"#utility.yul\":5739:5741   */\n      0x20\n        /* \"#utility.yul\":5727:5736   */\n      dup3\n        /* \"#utility.yul\":5718:5725   */\n      dup5\n        /* \"#utility.yul\":5714:5737   */\n      sub\n        /* \"#utility.yul\":5710:5742   */\n      slt\n        /* \"#utility.yul\":5707:5759   */\n      iszero\n      tag_193\n      jumpi\n        /* \"#utility.yul\":5755:5756   */\n      0x00\n        /* \"#utility.yul\":5752:5753   */\n      dup1\n        /* \"#utility.yul\":5745:5757   */\n      revert\n        /* \"#utility.yul\":5707:5759   */\n    tag_193:\n        /* \"#utility.yul\":5787:5796   */\n      dup2\n        /* \"#utility.yul\":5781:5797   */\n      mload\n        /* \"#utility.yul\":5806:5837   */\n      tag_155\n        /* \"#utility.yul\":5831:5836   */\n      dup2\n        /* \"#utility.yul\":5806:5837   */\n      tag_142\n      jump\t// in\n        /* \"#utility.yul\":6213:6340   */\n    tag_79:\n        /* \"#utility.yul\":6274:6284   */\n      0x4e487b71\n        /* \"#utility.yul\":6269:6272   */\n      0xe0\n        /* \"#utility.yul\":6265:6285   */\n      shl\n        /* \"#utility.yul\":6262:6263   */\n      0x00\n        /* \"#utility.yul\":6255:6286   */\n      mstore\n        /* \"#utility.yul\":6305:6309   */\n      0x41\n        /* \"#utility.yul\":6302:6303   */\n      0x04\n        /* \"#utility.yul\":6295:6310   */\n      mstore\n        /* \"#utility.yul\":6329:6333   */\n      0x24\n        /* \"#utility.yul\":6326:6327   */\n      0x00\n        /* \"#utility.yul\":6319:6334   */\n      revert\n        /* \"#utility.yul\":6345:6472   */\n    tag_89:\n        /* \"#utility.yul\":6406:6416   */\n      0x4e487b71\n        /* \"#utility.yul\":6401:6404   */\n      0xe0\n        /* \"#utility.yul\":6397:6417   */\n      shl\n        /* \"#utility.yul\":6394:6395   */\n      0x00\n        /* \"#utility.yul\":6387:6418   */\n      mstore\n        /* \"#utility.yul\":6437:6441   */\n      0x32\n        /* \"#utility.yul\":6434:6435   */\n      0x04\n        /* \"#utility.yul\":6427:6442   */\n      mstore\n        /* \"#utility.yul\":6461:6465   */\n      0x24\n        /* \"#utility.yul\":6458:6459   */\n      0x00\n        /* \"#utility.yul\":6451:6466   */\n      revert\n        /* \"#utility.yul\":6477:6844   */\n    tag_91:\n        /* \"#utility.yul\":6703:6706   */\n      0x0140\n        /* \"#utility.yul\":6688:6707   */\n      dup2\n      add\n        /* \"#utility.yul\":6716:6768   */\n      tag_199\n        /* \"#utility.yul\":6692:6701   */\n      dup3\n        /* \"#utility.yul\":6750:6756   */\n      dup6\n        /* \"#utility.yul\":6716:6768   */\n      tag_144\n      jump\t// in\n    tag_199:\n      sub(shl(0xa0, 0x01), 0x01)\n        /* \"#utility.yul\":6805:6837   */\n      swap3\n      swap1\n      swap3\n      and\n        /* \"#utility.yul\":6799:6802   */\n      0x0120\n        /* \"#utility.yul\":6784:6803   */\n      swap2\n      swap1\n      swap2\n      add\n        /* \"#utility.yul\":6777:6838   */\n      mstore\n        /* \"#utility.yul\":6477:6844   */\n      swap2\n      swap1\n      pop\n      jump\t// out\n        /* \"#utility.yul\":6849:7106   */\n    tag_145:\n        /* \"#utility.yul\":6921:6925   */\n      0x40\n        /* \"#utility.yul\":6915:6926   */\n      dup1\n      mload\n      swap1\n        /* \"#utility.yul\":6953:6970   */\n      dup2\n      add\n        /* \"#utility.yul\":7000:7018   */\n      0xffffffffffffffff\n        /* \"#utility.yul\":6985:7019   */\n      dup2\n      gt\n        /* \"#utility.yul\":7021:7043   */\n      dup3\n      dup3\n      lt\n        /* \"#utility.yul\":6982:7044   */\n      or\n        /* \"#utility.yul\":6979:7067   */\n      iszero\n      tag_202\n      jumpi\n        /* \"#utility.yul\":7047:7065   */\n      tag_202\n      tag_79\n      jump\t// in\n    tag_202:\n        /* \"#utility.yul\":7083:7087   */\n      0x40\n        /* \"#utility.yul\":7076:7100   */\n      mstore\n        /* \"#utility.yul\":6849:7106   */\n      swap1\n      jump\t// out\n        /* \"#utility.yul\":7111:7364   */\n    tag_146:\n        /* \"#utility.yul\":7183:7185   */\n      0x40\n        /* \"#utility.yul\":7177:7186   */\n      mload\n        /* \"#utility.yul\":7225:7229   */\n      0xa0\n        /* \"#utility.yul\":7213:7230   */\n      dup2\n      add\n        /* \"#utility.yul\":7260:7278   */\n      0xffffffffffffffff\n        /* \"#utility.yul\":7245:7279   */\n      dup2\n      gt\n        /* \"#utility.yul\":7281:7303   */\n      dup3\n      dup3\n      lt\n        /* \"#utility.yul\":7242:7304   */\n      or\n        /* \"#utility.yul\":7239:7327   */\n      iszero\n      tag_202\n      jumpi\n        /* \"#utility.yul\":7307:7325   */\n      tag_202\n      tag_79\n      jump\t// in\n        /* \"#utility.yul\":7369:7644   */\n    tag_147:\n        /* \"#utility.yul\":7440:7442   */\n      0x40\n        /* \"#utility.yul\":7434:7443   */\n      mload\n        /* \"#utility.yul\":7505:7507   */\n      0x1f\n        /* \"#utility.yul\":7486:7499   */\n      dup3\n      add\n      not(0x1f)\n        /* \"#utility.yul\":7482:7509   */\n      and\n        /* \"#utility.yul\":7470:7510   */\n      dup2\n      add\n        /* \"#utility.yul\":7540:7558   */\n      0xffffffffffffffff\n        /* \"#utility.yul\":7525:7559   */\n      dup2\n      gt\n        /* \"#utility.yul\":7561:7583   */\n      dup3\n      dup3\n      lt\n        /* \"#utility.yul\":7522:7584   */\n      or\n        /* \"#utility.yul\":7519:7607   */\n      iszero\n      tag_208\n      jumpi\n        /* \"#utility.yul\":7587:7605   */\n      tag_208\n      tag_79\n      jump\t// in\n    tag_208:\n        /* \"#utility.yul\":7623:7625   */\n      0x40\n        /* \"#utility.yul\":7616:7638   */\n      mstore\n        /* \"#utility.yul\":7369:7644   */\n      swap2\n      swap1\n      pop\n      jump\t// out\n        /* \"#utility.yul\":7649:8501   */\n    tag_148:\n        /* \"#utility.yul\":7711:7716   */\n      0x00\n        /* \"#utility.yul\":7759:7763   */\n      0xc0\n        /* \"#utility.yul\":7747:7756   */\n      dup3\n        /* \"#utility.yul\":7742:7745   */\n      dup5\n        /* \"#utility.yul\":7738:7757   */\n      sub\n        /* \"#utility.yul\":7734:7764   */\n      slt\n        /* \"#utility.yul\":7731:7781   */\n      iszero\n      tag_210\n      jumpi\n        /* \"#utility.yul\":7777:7778   */\n      0x00\n        /* \"#utility.yul\":7774:7775   */\n      dup1\n        /* \"#utility.yul\":7767:7779   */\n      revert\n        /* \"#utility.yul\":7731:7781   */\n    tag_210:\n        /* \"#utility.yul\":7810:7812   */\n      0x40\n        /* \"#utility.yul\":7804:7813   */\n      mload\n        /* \"#utility.yul\":7852:7856   */\n      0xc0\n        /* \"#utility.yul\":7844:7850   */\n      dup2\n        /* \"#utility.yul\":7840:7857   */\n      add\n        /* \"#utility.yul\":7923:7929   */\n      dup2\n        /* \"#utility.yul\":7911:7921   */\n      dup2\n        /* \"#utility.yul\":7908:7930   */\n      lt\n        /* \"#utility.yul\":7887:7905   */\n      0xffffffffffffffff\n        /* \"#utility.yul\":7875:7885   */\n      dup3\n        /* \"#utility.yul\":7872:7906   */\n      gt\n        /* \"#utility.yul\":7869:7931   */\n      or\n        /* \"#utility.yul\":7866:7954   */\n      iszero\n      tag_212\n      jumpi\n        /* \"#utility.yul\":7934:7952   */\n      tag_212\n      tag_79\n      jump\t// in\n    tag_212:\n        /* \"#utility.yul\":7974:7984   */\n      dup1\n        /* \"#utility.yul\":7970:7972   */\n      0x40\n        /* \"#utility.yul\":7963:7985   */\n      mstore\n      pop\n        /* \"#utility.yul\":8003:8009   */\n      dup1\n        /* \"#utility.yul\":7994:8009   */\n      swap2\n      pop\n        /* \"#utility.yul\":8039:8048   */\n      dup3\n        /* \"#utility.yul\":8033:8049   */\n      mload\n        /* \"#utility.yul\":8058:8091   */\n      tag_213\n        /* \"#utility.yul\":8083:8090   */\n      dup2\n        /* \"#utility.yul\":8058:8091   */\n      tag_142\n      jump\t// in\n    tag_213:\n        /* \"#utility.yul\":8115:8122   */\n      dup1\n        /* \"#utility.yul\":8107:8113   */\n      dup3\n        /* \"#utility.yul\":8100:8123   */\n      mstore\n      pop\n        /* \"#utility.yul\":8177:8179   */\n      0x20\n        /* \"#utility.yul\":8166:8175   */\n      dup4\n        /* \"#utility.yul\":8162:8180   */\n      add\n        /* \"#utility.yul\":8156:8181   */\n      mload\n        /* \"#utility.yul\":8151:8153   */\n      0x20\n        /* \"#utility.yul\":8143:8149   */\n      dup3\n        /* \"#utility.yul\":8139:8154   */\n      add\n        /* \"#utility.yul\":8132:8182   */\n      mstore\n        /* \"#utility.yul\":8236:8238   */\n      0x40\n        /* \"#utility.yul\":8225:8234   */\n      dup4\n        /* \"#utility.yul\":8221:8239   */\n      add\n        /* \"#utility.yul\":8215:8240   */\n      mload\n        /* \"#utility.yul\":8210:8212   */\n      0x40\n        /* \"#utility.yul\":8202:8208   */\n      dup3\n        /* \"#utility.yul\":8198:8213   */\n      add\n        /* \"#utility.yul\":8191:8241   */\n      mstore\n        /* \"#utility.yul\":8295:8297   */\n      0x60\n        /* \"#utility.yul\":8284:8293   */\n      dup4\n        /* \"#utility.yul\":8280:8298   */\n      add\n        /* \"#utility.yul\":8274:8299   */\n      mload\n        /* \"#utility.yul\":8269:8271   */\n      0x60\n        /* \"#utility.yul\":8261:8267   */\n      dup3\n        /* \"#utility.yul\":8257:8272   */\n      add\n        /* \"#utility.yul\":8250:8300   */\n      mstore\n        /* \"#utility.yul\":8345:8348   */\n      0x80\n        /* \"#utility.yul\":8334:8343   */\n      dup4\n        /* \"#utility.yul\":8330:8349   */\n      add\n        /* \"#utility.yul\":8324:8350   */\n      mload\n        /* \"#utility.yul\":8359:8392   */\n      tag_214\n        /* \"#utility.yul\":8384:8391   */\n      dup2\n        /* \"#utility.yul\":8359:8392   */\n      tag_142\n      jump\t// in\n    tag_214:\n        /* \"#utility.yul\":8420:8423   */\n      0x80\n        /* \"#utility.yul\":8408:8424   */\n      dup3\n      add\n        /* \"#utility.yul\":8401:8434   */\n      mstore\n        /* \"#utility.yul\":8489:8492   */\n      0xa0\n        /* \"#utility.yul\":8474:8493   */\n      swap3\n      dup4\n      add\n        /* \"#utility.yul\":8468:8494   */\n      mload\n        /* \"#utility.yul\":8450:8466   */\n      swap3\n      add\n        /* \"#utility.yul\":8443:8495   */\n      swap2\n      swap1\n      swap2\n      mstore\n        /* \"#utility.yul\":7649:8501   */\n      swap2\n      swap1\n      pop\n      jump\t// out\n        /* \"#utility.yul\":8506:8749   */\n    tag_95:\n        /* \"#utility.yul\":8597:8603   */\n      0x00\n        /* \"#utility.yul\":8650:8653   */\n      0xc0\n        /* \"#utility.yul\":8638:8647   */\n      dup3\n        /* \"#utility.yul\":8629:8636   */\n      dup5\n        /* \"#utility.yul\":8625:8648   */\n      sub\n        /* \"#utility.yul\":8621:8654   */\n      slt\n        /* \"#utility.yul\":8618:8671   */\n      iszero\n      tag_216\n      jumpi\n        /* \"#utility.yul\":8667:8668   */\n      0x00\n        /* \"#utility.yul\":8664:8665   */\n      dup1\n        /* \"#utility.yul\":8657:8669   */\n      revert\n        /* \"#utility.yul\":8618:8671   */\n    tag_216:\n        /* \"#utility.yul\":8690:8743   */\n      tag_155\n        /* \"#utility.yul\":8735:8742   */\n      dup4\n        /* \"#utility.yul\":8724:8733   */\n      dup4\n        /* \"#utility.yul\":8690:8743   */\n      tag_148\n      jump\t// in\n        /* \"#utility.yul\":9248:9419   */\n    tag_149:\n        /* \"#utility.yul\":9315:9335   */\n      dup1\n      calldataload\n        /* \"#utility.yul\":9375:9393   */\n      0xffffffffffffffff\n        /* \"#utility.yul\":9364:9394   */\n      dup2\n      and\n        /* \"#utility.yul\":9354:9395   */\n      dup2\n      eq\n        /* \"#utility.yul\":9344:9413   */\n      tag_72\n      jumpi\n        /* \"#utility.yul\":9409:9410   */\n      0x00\n        /* \"#utility.yul\":9406:9407   */\n      dup1\n        /* \"#utility.yul\":9399:9411   */\n      revert\n        /* \"#utility.yul\":9424:9954   */\n    tag_150:\n        /* \"#utility.yul\":9466:9471   */\n      0x00\n        /* \"#utility.yul\":9519:9522   */\n      dup3\n        /* \"#utility.yul\":9512:9516   */\n      0x1f\n        /* \"#utility.yul\":9504:9510   */\n      dup4\n        /* \"#utility.yul\":9500:9517   */\n      add\n        /* \"#utility.yul\":9496:9523   */\n      slt\n        /* \"#utility.yul\":9486:9541   */\n      tag_222\n      jumpi\n        /* \"#utility.yul\":9537:9538   */\n      0x00\n        /* \"#utility.yul\":9534:9535   */\n      dup1\n        /* \"#utility.yul\":9527:9539   */\n      revert\n        /* \"#utility.yul\":9486:9541   */\n    tag_222:\n        /* \"#utility.yul\":9573:9579   */\n      dup2\n        /* \"#utility.yul\":9560:9580   */\n      calldataload\n        /* \"#utility.yul\":9599:9617   */\n      0xffffffffffffffff\n        /* \"#utility.yul\":9595:9597   */\n      dup2\n        /* \"#utility.yul\":9592:9618   */\n      gt\n        /* \"#utility.yul\":9589:9641   */\n      iszero\n      tag_224\n      jumpi\n        /* \"#utility.yul\":9621:9639   */\n      tag_224\n      tag_79\n      jump\t// in\n    tag_224:\n        /* \"#utility.yul\":9665:9720   */\n      tag_225\n        /* \"#utility.yul\":9708:9710   */\n      0x1f\n        /* \"#utility.yul\":9689:9702   */\n      dup3\n      add\n      not(0x1f)\n        /* \"#utility.yul\":9685:9712   */\n      and\n        /* \"#utility.yul\":9714:9718   */\n      0x20\n        /* \"#utility.yul\":9681:9719   */\n      add\n        /* \"#utility.yul\":9665:9720   */\n      tag_147\n      jump\t// in\n    tag_225:\n        /* \"#utility.yul\":9745:9747   */\n      dup2\n        /* \"#utility.yul\":9736:9743   */\n      dup2\n        /* \"#utility.yul\":9729:9748   */\n      mstore\n        /* \"#utility.yul\":9791:9794   */\n      dup5\n        /* \"#utility.yul\":9784:9788   */\n      0x20\n        /* \"#utility.yul\":9779:9781   */\n      dup4\n        /* \"#utility.yul\":9771:9777   */\n      dup7\n        /* \"#utility.yul\":9767:9782   */\n      add\n        /* \"#utility.yul\":9763:9789   */\n      add\n        /* \"#utility.yul\":9760:9795   */\n      gt\n        /* \"#utility.yul\":9757:9812   */\n      iszero\n      tag_226\n      jumpi\n        /* \"#utility.yul\":9808:9809   */\n      0x00\n        /* \"#utility.yul\":9805:9806   */\n      dup1\n        /* \"#utility.yul\":9798:9810   */\n      revert\n        /* \"#utility.yul\":9757:9812   */\n    tag_226:\n        /* \"#utility.yul\":9873:9875   */\n      dup2\n        /* \"#utility.yul\":9866:9870   */\n      0x20\n        /* \"#utility.yul\":9858:9864   */\n      dup6\n        /* \"#utility.yul\":9854:9871   */\n      add\n        /* \"#utility.yul\":9847:9851   */\n      0x20\n        /* \"#utility.yul\":9838:9845   */\n      dup4\n        /* \"#utility.yul\":9834:9852   */\n      add\n        /* \"#utility.yul\":9821:9876   */\n      calldatacopy\n        /* \"#utility.yul\":9921:9922   */\n      0x00\n        /* \"#utility.yul\":9896:9912   */\n      swap2\n      dup2\n      add\n        /* \"#utility.yul\":9914:9918   */\n      0x20\n        /* \"#utility.yul\":9892:9919   */\n      add\n        /* \"#utility.yul\":9885:9923   */\n      swap2\n      swap1\n      swap2\n      mstore\n        /* \"#utility.yul\":9900:9907   */\n      swap4\n        /* \"#utility.yul\":9424:9954   */\n      swap3\n      pop\n      pop\n      pop\n      jump\t// out\n        /* \"#utility.yul\":9959:11026   */\n    tag_151:\n        /* \"#utility.yul\":10027:10032   */\n      0x00\n        /* \"#utility.yul\":10080:10083   */\n      dup3\n        /* \"#utility.yul\":10073:10077   */\n      0x1f\n        /* \"#utility.yul\":10065:10071   */\n      dup4\n        /* \"#utility.yul\":10061:10078   */\n      add\n        /* \"#utility.yul\":10057:10084   */\n      slt\n        /* \"#utility.yul\":10047:10102   */\n      tag_228\n      jumpi\n        /* \"#utility.yul\":10098:10099   */\n      0x00\n        /* \"#utility.yul\":10095:10096   */\n      dup1\n        /* \"#utility.yul\":10088:10100   */\n      revert\n        /* \"#utility.yul\":10047:10102   */\n    tag_228:\n        /* \"#utility.yul\":10134:10140   */\n      dup2\n        /* \"#utility.yul\":10121:10141   */\n      calldataload\n        /* \"#utility.yul\":10160:10164   */\n      0x20\n        /* \"#utility.yul\":10183:10201   */\n      0xffffffffffffffff\n        /* \"#utility.yul\":10179:10181   */\n      dup3\n        /* \"#utility.yul\":10176:10202   */\n      gt\n        /* \"#utility.yul\":10173:10225   */\n      iszero\n      tag_230\n      jumpi\n        /* \"#utility.yul\":10205:10223   */\n      tag_230\n      tag_79\n      jump\t// in\n    tag_230:\n        /* \"#utility.yul\":10245:10281   */\n      tag_231\n        /* \"#utility.yul\":10277:10279   */\n      dup2\n        /* \"#utility.yul\":10272:10274   */\n      dup4\n        /* \"#utility.yul\":10269:10270   */\n      0x05\n        /* \"#utility.yul\":10265:10275   */\n      shl\n        /* \"#utility.yul\":10261:10280   */\n      add\n        /* \"#utility.yul\":10245:10281   */\n      tag_147\n      jump\t// in\n    tag_231:\n        /* \"#utility.yul\":10315:10330   */\n      dup3\n      dup2\n      mstore\n        /* \"#utility.yul\":10401:10402   */\n      0x06\n        /* \"#utility.yul\":10397:10407   */\n      swap3\n      swap1\n      swap3\n      shl\n        /* \"#utility.yul\":10385:10408   */\n      dup5\n      add\n        /* \"#utility.yul\":10381:10413   */\n      dup2\n      add\n      swap2\n        /* \"#utility.yul\":10346:10358   */\n      dup2\n      dup2\n      add\n      swap1\n        /* \"#utility.yul\":10425:10440   */\n      dup7\n      dup5\n      gt\n        /* \"#utility.yul\":10422:10457   */\n      iszero\n      tag_232\n      jumpi\n        /* \"#utility.yul\":10453:10454   */\n      0x00\n        /* \"#utility.yul\":10450:10451   */\n      dup1\n        /* \"#utility.yul\":10443:10455   */\n      revert\n        /* \"#utility.yul\":10422:10457   */\n    tag_232:\n        /* \"#utility.yul\":10489:10491   */\n      dup3\n        /* \"#utility.yul\":10481:10487   */\n      dup7\n        /* \"#utility.yul\":10477:10492   */\n      add\n        /* \"#utility.yul\":10501:10997   */\n    tag_233:\n        /* \"#utility.yul\":10517:10523   */\n      dup5\n        /* \"#utility.yul\":10512:10515   */\n      dup2\n        /* \"#utility.yul\":10509:10524   */\n      lt\n        /* \"#utility.yul\":10501:10997   */\n      iszero\n      tag_235\n      jumpi\n        /* \"#utility.yul\":10595:10599   */\n      0x40\n        /* \"#utility.yul\":10589:10592   */\n      dup2\n        /* \"#utility.yul\":10584:10587   */\n      dup10\n        /* \"#utility.yul\":10580:10593   */\n      sub\n        /* \"#utility.yul\":10576:10600   */\n      slt\n        /* \"#utility.yul\":10573:10687   */\n      iszero\n      tag_236\n      jumpi\n        /* \"#utility.yul\":10641:10642   */\n      0x00\n        /* \"#utility.yul\":10670:10672   */\n      dup1\n        /* \"#utility.yul\":10666:10668   */\n      dup2\n        /* \"#utility.yul\":10659:10673   */\n      revert\n        /* \"#utility.yul\":10573:10687   */\n    tag_236:\n        /* \"#utility.yul\":10713:10735   */\n      tag_237\n      tag_145\n      jump\t// in\n    tag_237:\n        /* \"#utility.yul\":10776:10779   */\n      dup2\n        /* \"#utility.yul\":10763:10780   */\n      calldataload\n        /* \"#utility.yul\":10793:10826   */\n      tag_238\n        /* \"#utility.yul\":10818:10825   */\n      dup2\n        /* \"#utility.yul\":10793:10826   */\n      tag_142\n      jump\t// in\n    tag_238:\n        /* \"#utility.yul\":10839:10861   */\n      dup2\n      mstore\n        /* \"#utility.yul\":10910:10922   */\n      dup2\n      dup6\n      add\n        /* \"#utility.yul\":10897:10923   */\n      calldataload\n        /* \"#utility.yul\":10881:10895   */\n      dup6\n      dup3\n      add\n        /* \"#utility.yul\":10874:10924   */\n      mstore\n        /* \"#utility.yul\":10937:10955   */\n      dup4\n      mstore\n        /* \"#utility.yul\":10975:10987   */\n      swap2\n      dup4\n      add\n      swap2\n        /* \"#utility.yul\":10543:10547   */\n      0x40\n        /* \"#utility.yul\":10534:10548   */\n      add\n        /* \"#utility.yul\":10501:10997   */\n      jump(tag_233)\n    tag_235:\n      pop\n        /* \"#utility.yul\":11015:11020   */\n      swap7\n        /* \"#utility.yul\":9959:11026   */\n      swap6\n      pop\n      pop\n      pop\n      pop\n      pop\n      pop\n      jump\t// out\n        /* \"#utility.yul\":11031:12040   */\n    tag_107:\n        /* \"#utility.yul\":11145:11154   */\n      0x00\n        /* \"#utility.yul\":11204:11208   */\n      0xa0\n        /* \"#utility.yul\":11196:11201   */\n      dup3\n        /* \"#utility.yul\":11180:11194   */\n      calldatasize\n        /* \"#utility.yul\":11176:11202   */\n      sub\n        /* \"#utility.yul\":11172:11209   */\n      slt\n        /* \"#utility.yul\":11169:11226   */\n      iszero\n      tag_240\n      jumpi\n        /* \"#utility.yul\":11222:11223   */\n      0x00\n        /* \"#utility.yul\":11219:11220   */\n      dup1\n        /* \"#utility.yul\":11212:11224   */\n      revert\n        /* \"#utility.yul\":11169:11226   */\n    tag_240:\n        /* \"#utility.yul\":11250:11272   */\n      tag_241\n      tag_146\n      jump\t// in\n    tag_241:\n        /* \"#utility.yul\":11310:11315   */\n      dup3\n        /* \"#utility.yul\":11297:11316   */\n      calldataload\n        /* \"#utility.yul\":11288:11295   */\n      dup2\n        /* \"#utility.yul\":11281:11317   */\n      mstore\n        /* \"#utility.yul\":11351:11384   */\n      tag_242\n        /* \"#utility.yul\":11380:11382   */\n      0x20\n        /* \"#utility.yul\":11373:11378   */\n      dup5\n        /* \"#utility.yul\":11369:11383   */\n      add\n        /* \"#utility.yul\":11351:11384   */\n      tag_149\n      jump\t// in\n    tag_242:\n        /* \"#utility.yul\":11346:11348   */\n      0x20\n        /* \"#utility.yul\":11337:11344   */\n      dup3\n        /* \"#utility.yul\":11333:11349   */\n      add\n        /* \"#utility.yul\":11326:11385   */\n      mstore\n        /* \"#utility.yul\":11432:11434   */\n      0x40\n        /* \"#utility.yul\":11425:11430   */\n      dup4\n        /* \"#utility.yul\":11421:11435   */\n      add\n        /* \"#utility.yul\":11408:11436   */\n      calldataload\n        /* \"#utility.yul\":11455:11473   */\n      0xffffffffffffffff\n        /* \"#utility.yul\":11496:11498   */\n      dup1\n        /* \"#utility.yul\":11488:11494   */\n      dup3\n        /* \"#utility.yul\":11485:11499   */\n      gt\n        /* \"#utility.yul\":11482:11516   */\n      iszero\n      tag_243\n      jumpi\n        /* \"#utility.yul\":11512:11513   */\n      0x00\n        /* \"#utility.yul\":11509:11510   */\n      dup1\n        /* \"#utility.yul\":11502:11514   */\n      revert\n        /* \"#utility.yul\":11482:11516   */\n    tag_243:\n        /* \"#utility.yul\":11550:11602   */\n      tag_244\n        /* \"#utility.yul\":11587:11601   */\n      calldatasize\n        /* \"#utility.yul\":11578:11584   */\n      dup4\n        /* \"#utility.yul\":11571:11576   */\n      dup8\n        /* \"#utility.yul\":11567:11585   */\n      add\n        /* \"#utility.yul\":11550:11602   */\n      tag_150\n      jump\t// in\n    tag_244:\n        /* \"#utility.yul\":11545:11547   */\n      0x40\n        /* \"#utility.yul\":11536:11543   */\n      dup5\n        /* \"#utility.yul\":11532:11548   */\n      add\n        /* \"#utility.yul\":11525:11603   */\n      mstore\n        /* \"#utility.yul\":11652:11654   */\n      0x60\n        /* \"#utility.yul\":11645:11650   */\n      dup6\n        /* \"#utility.yul\":11641:11655   */\n      add\n        /* \"#utility.yul\":11628:11656   */\n      calldataload\n        /* \"#utility.yul\":11612:11656   */\n      swap2\n      pop\n        /* \"#utility.yul\":11681:11683   */\n      dup1\n        /* \"#utility.yul\":11671:11679   */\n      dup3\n        /* \"#utility.yul\":11668:11684   */\n      gt\n        /* \"#utility.yul\":11665:11701   */\n      iszero\n      tag_245\n      jumpi\n        /* \"#utility.yul\":11697:11698   */\n      0x00\n        /* \"#utility.yul\":11694:11695   */\n      dup1\n        /* \"#utility.yul\":11687:11699   */\n      revert\n        /* \"#utility.yul\":11665:11701   */\n    tag_245:\n        /* \"#utility.yul\":11735:11789   */\n      tag_246\n        /* \"#utility.yul\":11774:11788   */\n      calldatasize\n        /* \"#utility.yul\":11763:11771   */\n      dup4\n        /* \"#utility.yul\":11756:11761   */\n      dup8\n        /* \"#utility.yul\":11752:11772   */\n      add\n        /* \"#utility.yul\":11735:11789   */\n      tag_150\n      jump\t// in\n    tag_246:\n        /* \"#utility.yul\":11730:11732   */\n      0x60\n        /* \"#utility.yul\":11721:11728   */\n      dup5\n        /* \"#utility.yul\":11717:11733   */\n      add\n        /* \"#utility.yul\":11710:11790   */\n      mstore\n        /* \"#utility.yul\":11839:11842   */\n      0x80\n        /* \"#utility.yul\":11832:11837   */\n      dup6\n        /* \"#utility.yul\":11828:11843   */\n      add\n        /* \"#utility.yul\":11815:11844   */\n      calldataload\n        /* \"#utility.yul\":11799:11844   */\n      swap2\n      pop\n        /* \"#utility.yul\":11869:11871   */\n      dup1\n        /* \"#utility.yul\":11859:11867   */\n      dup3\n        /* \"#utility.yul\":11856:11872   */\n      gt\n        /* \"#utility.yul\":11853:11889   */\n      iszero\n      tag_247\n      jumpi\n        /* \"#utility.yul\":11885:11886   */\n      0x00\n        /* \"#utility.yul\":11882:11883   */\n      dup1\n        /* \"#utility.yul\":11875:11887   */\n      revert\n        /* \"#utility.yul\":11853:11889   */\n    tag_247:\n      pop\n        /* \"#utility.yul\":11924:12004   */\n      tag_248\n        /* \"#utility.yul\":11989:12003   */\n      calldatasize\n        /* \"#utility.yul\":11978:11986   */\n      dup3\n        /* \"#utility.yul\":11971:11976   */\n      dup7\n        /* \"#utility.yul\":11967:11987   */\n      add\n        /* \"#utility.yul\":11924:12004   */\n      tag_151\n      jump\t// in\n    tag_248:\n        /* \"#utility.yul\":11918:11921   */\n      0x80\n        /* \"#utility.yul\":11905:11922   */\n      dup4\n      add\n        /* \"#utility.yul\":11898:12005   */\n      mstore\n      pop\n        /* \"#utility.yul\":11909:11916   */\n      swap3\n        /* \"#utility.yul\":11031:12040   */\n      swap2\n      pop\n      pop\n      jump\t// out\n        /* \"#utility.yul\":12045:12785   */\n    tag_131:\n        /* \"#utility.yul\":12147:12153   */\n      0x00\n        /* \"#utility.yul\":12200:12203   */\n      0x0120\n        /* \"#utility.yul\":12188:12197   */\n      dup3\n        /* \"#utility.yul\":12179:12186   */\n      dup5\n        /* \"#utility.yul\":12175:12198   */\n      sub\n        /* \"#utility.yul\":12171:12204   */\n      slt\n        /* \"#utility.yul\":12168:12221   */\n      iszero\n      tag_250\n      jumpi\n        /* \"#utility.yul\":12217:12218   */\n      0x00\n        /* \"#utility.yul\":12214:12215   */\n      dup1\n        /* \"#utility.yul\":12207:12219   */\n      revert\n        /* \"#utility.yul\":12168:12221   */\n    tag_250:\n        /* \"#utility.yul\":12250:12252   */\n      0x40\n        /* \"#utility.yul\":12244:12253   */\n      mload\n        /* \"#utility.yul\":12292:12296   */\n      0x80\n        /* \"#utility.yul\":12284:12290   */\n      dup2\n        /* \"#utility.yul\":12280:12297   */\n      add\n        /* \"#utility.yul\":12363:12369   */\n      dup2\n        /* \"#utility.yul\":12351:12361   */\n      dup2\n        /* \"#utility.yul\":12348:12370   */\n      lt\n        /* \"#utility.yul\":12327:12345   */\n      0xffffffffffffffff\n        /* \"#utility.yul\":12315:12325   */\n      dup3\n        /* \"#utility.yul\":12312:12346   */\n      gt\n        /* \"#utility.yul\":12309:12371   */\n      or\n        /* \"#utility.yul\":12306:12394   */\n      iszero\n      tag_252\n      jumpi\n        /* \"#utility.yul\":12374:12392   */\n      tag_252\n      tag_79\n      jump\t// in\n    tag_252:\n        /* \"#utility.yul\":12410:12412   */\n      0x40\n        /* \"#utility.yul\":12403:12425   */\n      mstore\n        /* \"#utility.yul\":12449:12502   */\n      tag_253\n        /* \"#utility.yul\":12494:12501   */\n      dup5\n        /* \"#utility.yul\":12483:12492   */\n      dup5\n        /* \"#utility.yul\":12449:12502   */\n      tag_148\n      jump\t// in\n    tag_253:\n        /* \"#utility.yul\":12441:12447   */\n      dup2\n        /* \"#utility.yul\":12434:12503   */\n      mstore\n        /* \"#utility.yul\":12559:12562   */\n      0xc0\n        /* \"#utility.yul\":12548:12557   */\n      dup4\n        /* \"#utility.yul\":12544:12563   */\n      add\n        /* \"#utility.yul\":12538:12564   */\n      mload\n        /* \"#utility.yul\":12531:12535   */\n      0x20\n        /* \"#utility.yul\":12523:12529   */\n      dup3\n        /* \"#utility.yul\":12519:12536   */\n      add\n        /* \"#utility.yul\":12512:12565   */\n      mstore\n        /* \"#utility.yul\":12619:12622   */\n      0xe0\n        /* \"#utility.yul\":12608:12617   */\n      dup4\n        /* \"#utility.yul\":12604:12623   */\n      add\n        /* \"#utility.yul\":12598:12624   */\n      mload\n        /* \"#utility.yul\":12593:12595   */\n      0x40\n        /* \"#utility.yul\":12585:12591   */\n      dup3\n        /* \"#utility.yul\":12581:12596   */\n      add\n        /* \"#utility.yul\":12574:12625   */\n      mstore\n        /* \"#utility.yul\":12668:12671   */\n      0x0100\n        /* \"#utility.yul\":12657:12666   */\n      dup4\n        /* \"#utility.yul\":12653:12672   */\n      add\n        /* \"#utility.yul\":12647:12673   */\n      mload\n        /* \"#utility.yul\":12682:12713   */\n      tag_254\n        /* \"#utility.yul\":12707:12712   */\n      dup2\n        /* \"#utility.yul\":12682:12713   */\n      tag_142\n      jump\t// in\n    tag_254:\n        /* \"#utility.yul\":12741:12745   */\n      0x60\n        /* \"#utility.yul\":12729:12746   */\n      dup3\n      add\n        /* \"#utility.yul\":12722:12754   */\n      mstore\n        /* \"#utility.yul\":12733:12739   */\n      swap4\n        /* \"#utility.yul\":12045:12785   */\n      swap3\n      pop\n      pop\n      pop\n      jump\t// out\n\n    auxdata: 0xa2646970667358221220923beb484aaeed3514f62c302c571e452b5f87dfd976b58379ccd2b583278bbf64736f6c63430008170033\n}\n",
				"bytecode": {
					"linkReferences": {},
					"object": "60a060405234801561001057600080fd5b5060405161129b38038061129b83398101604081905261002f916100a7565b806001600160a01b03811661005e576040516335fdcccd60e21b81526000600482015260240160405180910390fd5b6001600160a01b03908116608052600080546001600160a01b0319169390911692909217909155506100da565b80516001600160a01b03811681146100a257600080fd5b919050565b600080604083850312156100ba57600080fd5b6100c38361008b565b91506100d16020840161008b565b90509250929050565b60805161119f6100fc6000396000818161019b0152610660015261119f6000f3fe608060405234801561001057600080fd5b50600436106100935760003560e01c806372d02aea1161006657806372d02aea1461011957806385572ffb14610139578063885c7b391461014e578063a76484351461016e578063b0f479a11461018e57600080fd5b806301ffc9a7146100985780630d8e6e2c146100c057806317d7de7c146100cf5780635c089a5414610104575b600080fd5b6100ab6100a6366004610b0d565b6101c5565b60405190151581526020015b60405180910390f35b604051600281526020016100b7565b60408051808201825260138152722922a9a2a92b22a22fa6afa922a1a4a2ab22a960691b602082015290516100b79190610b3e565b61010c6101fc565b6040516100b79190610b8d565b61012c610127366004610be6565b610254565b6040516100b79190610c03565b61014c610147366004610c5c565b610655565b005b61016161015c366004610be6565b6106b4565b6040516100b79190610cdc565b61018161017c366004610d1e565b610853565b6040516100b79190610d6c565b6040516001600160a01b037f00000000000000000000000000000000000000000000000000000000000000001681526020016100b7565b60006001600160e01b031982166385572ffb60e01b14806101f657506001600160e01b031982166301ffc9a760e01b145b92915050565b6060600380548060200260200160405190810160405280929190818152602001828054801561024a57602002820191906000526020600020905b815481526020019060010190808311610236575b5050505050905090565b600054604080518082018252601581527452455345525645445f4d4152474152495f434f524560581b6020820152905163bf40fac160e01b81526060926001600160a01b03169163bf40fac1916102ae9190600401610b3e565b602060405180830381865afa1580156102cb573d6000803e3d6000fd5b505050506040513d601f19601f820116820180604052508101906102ef9190610d7b565b6001600160a01b0316336001600160a01b0316146103435760405162461bcd60e51b815260206004820152600c60248201526b6d617267617269206f6e6c7960a01b60448201526064015b60405180910390fd5b6001600160a01b0382166000908152600560209081526040808320805482518185028101850190935280835291929091908301828280156103a357602002820191906000526020600020905b81548152602001906001019080831161038f575b505050506001600160a01b03851660009081526005602052604081209293506103cd929150610a60565b805167ffffffffffffffff8111156103e7576103e7610d98565b60405190808252806020026020018201604052801561043c57816020015b61042960405180606001604052806000815260200160008152602001600081525090565b8152602001906001900390816104055790505b50915060005b815181101561064d57600082828151811061045f5761045f610dae565b60209081029190910181015160008181526004808452604080832081516101408101835281546001600160a01b0390811660808301908152600184015460a084015260028085015460c0850152600385015460e08501528487015483166101008501526005850154610120850152908352600684015498830198909852600783015482850152600890920154821660608201529554915163b6b7525160e01b8152949650929392169163b6b752519161051c9186918c9101610dc4565b60c0604051808303816000875af115801561053b573d6000803e3d6000fd5b505050506040513d601f19601f8201168201806040525081019061055f9190610ef7565b6001600160a01b0388166000908152600660209081526040808320805460018101825590845292829020909201869055815160608082018452868401518252865160a0015192820192909252855190910151918101919091528751919250908790869081106105d0576105d0610dae565b60209081029190910181019190915282518082015160609182015160a080860151604080516001600160a01b038f168152968701949094529285018890529284015260808301527fdb2b0c28633297e83dc452aad8a73d2ec0ab72bc7c22efdc5b830ac223dbad41910160405180910390a1505050600101610442565b50505b919050565b336001600160a01b037f000000000000000000000000000000000000000000000000000000000000000016146106a0576040516335fdcccd60e21b815233600482015260240161033a565b6106b16106ac82611048565b6108ea565b50565b6001600160a01b038116600090815260056020908152604080832080548251818502810185019093528083526060949383018282801561071357602002820191906000526020600020905b8154815260200190600101908083116106ff575b50505050509050805167ffffffffffffffff81111561073457610734610d98565b60405190808252806020026020018201604052801561076d57816020015b61075a610a7e565b8152602001906001900390816107525790505b50915060005b815181101561064d57600082828151811061079057610790610dae565b6020908102919091018101516000818152600480845260409182902082516101408101845281546001600160a01b0390811660808301908152600184015460a0840152600284015460c0840152600384015460e084015293830154811661010083015260058301546101208301528382526006830154968201969096526007820154938101939093526008015490931660608201528651919350919086908590811061083e5761083e610dae565b60209081029190910101525050600101610773565b61085b610ac6565b5060009081526004602081815260409283902083516101408101855281546001600160a01b0390811660808301908152600184015460a0840152600284015460c0840152600384015460e0840152948301548116610100830152600583015461012083015293815260068201549281019290925260078101549382019390935260089092015416606082015290565b6000816060015180602001905181019061090491906110f5565b60608381015180516020918201206000818152600480845260408083208751805182546001600160a01b03199081166001600160a01b0392831617845582890151600180860191909155838601516002860155838b0151600380870191909155608080860151988701805485169986169990991790985560a0948501516005808801919091558d8c015160068801558d88015160078801558d8d01805160089098018054909516978616978817909455958952948a52858820805480830182559089528a89200189905584549081018555939096527fc2575a0e9e593c00f959f8c92f12db2869c3395a3b0502d05e2516446f71f85b9092018690559351885180880151958101519089015184519290931682529681019490945290830194909452938101929092529293507ff0cd9c1bf761a2b8c68b22a2dcdf991327826018ecc4044c62ee439a63428d14910160405180910390a1505050565b50805460008255906000526020600020908101906106b19190610af4565b6040518060c0016040528060006001600160a01b0316815260200160008152602001600081526020016000815260200160006001600160a01b03168152602001600081525090565b6040518060800160405280610ad9610a7e565b81526000602082018190526040820181905260609091015290565b5b80821115610b095760008155600101610af5565b5090565b600060208284031215610b1f57600080fd5b81356001600160e01b031981168114610b3757600080fd5b9392505050565b60006020808352835180602085015260005b81811015610b6c57858101830151858201604001528201610b50565b506000604082860101526040601f19601f8301168501019250505092915050565b6020808252825182820181905260009190848201906040850190845b81811015610bc557835183529284019291840191600101610ba9565b50909695505050505050565b6001600160a01b03811681146106b157600080fd5b600060208284031215610bf857600080fd5b8135610b3781610bd1565b602080825282518282018190526000919060409081850190868401855b82811015610c4f5781518051855286810151878601528501518585015260609093019290850190600101610c20565b5091979650505050505050565b600060208284031215610c6e57600080fd5b813567ffffffffffffffff811115610c8557600080fd5b820160a08185031215610b3757600080fd5b80516001600160a01b0390811683526020808301519084015260408083015190840152606080830151908401526080808301519091169083015260a090810151910152565b6020808252825182820181905260009190848201906040850190845b81811015610bc557610d0b838551610c97565b9284019260c09290920191600101610cf8565b600060208284031215610d3057600080fd5b5035919050565b610d42828251610c97565b602081015160c0830152604081015160e0830152606001516001600160a01b031661010090910152565b61012081016101f68284610d37565b600060208284031215610d8d57600080fd5b8151610b3781610bd1565b634e487b7160e01b600052604160045260246000fd5b634e487b7160e01b600052603260045260246000fd5b6101408101610dd38285610d37565b6001600160a01b03929092166101209190910152919050565b6040805190810167ffffffffffffffff81118282101715610e0f57610e0f610d98565b60405290565b60405160a0810167ffffffffffffffff81118282101715610e0f57610e0f610d98565b604051601f8201601f1916810167ffffffffffffffff81118282101715610e6157610e61610d98565b604052919050565b600060c08284031215610e7b57600080fd5b60405160c0810181811067ffffffffffffffff82111715610e9e57610e9e610d98565b80604052508091508251610eb181610bd1565b808252506020830151602082015260408301516040820152606083015160608201526080830151610ee181610bd1565b608082015260a092830151920191909152919050565b600060c08284031215610f0957600080fd5b610b378383610e69565b803567ffffffffffffffff8116811461065057600080fd5b600082601f830112610f3c57600080fd5b813567ffffffffffffffff811115610f5657610f56610d98565b610f69601f8201601f1916602001610e38565b818152846020838601011115610f7e57600080fd5b816020850160208301376000918101602001919091529392505050565b600082601f830112610fac57600080fd5b8135602067ffffffffffffffff821115610fc857610fc8610d98565b610fd6818360051b01610e38565b82815260069290921b84018101918181019086841115610ff557600080fd5b8286015b8481101561103d57604081890312156110125760008081fd5b61101a610dec565b813561102581610bd1565b81528185013585820152835291830191604001610ff9565b509695505050505050565b600060a0823603121561105a57600080fd5b611062610e15565b8235815261107260208401610f13565b6020820152604083013567ffffffffffffffff8082111561109257600080fd5b61109e36838701610f2b565b604084015260608501359150808211156110b757600080fd5b6110c336838701610f2b565b606084015260808501359150808211156110dc57600080fd5b506110e936828601610f9b565b60808301525092915050565b6000610120828403121561110857600080fd5b6040516080810181811067ffffffffffffffff8211171561112b5761112b610d98565b6040526111388484610e69565b815260c0830151602082015260e0830151604082015261010083015161115d81610bd1565b6060820152939250505056fea2646970667358221220923beb484aaeed3514f62c302c571e452b5f87dfd976b58379ccd2b583278bbf64736f6c63430008170033",
					"opcodes": "PUSH1 0xA0 PUSH1 0x40 MSTORE CALLVALUE DUP1 ISZERO PUSH2 0x10 JUMPI PUSH1 0x0 DUP1 REVERT JUMPDEST POP PUSH1 0x40 MLOAD PUSH2 0x129B CODESIZE SUB DUP1 PUSH2 0x129B DUP4 CODECOPY DUP2 ADD PUSH1 0x40 DUP2 SWAP1 MSTORE PUSH2 0x2F SWAP2 PUSH2 0xA7 JUMP JUMPDEST DUP1 PUSH1 0x1 PUSH1 0x1 PUSH1 0xA0 SHL SUB DUP2 AND PUSH2 0x5E JUMPI PUSH1 0x40 MLOAD PUSH4 0x35FDCCCD PUSH1 0xE2 SHL DUP2 MSTORE PUSH1 0x0 PUSH1 0x4 DUP3 ADD MSTORE PUSH1 0x24 ADD PUSH1 0x40 MLOAD DUP1 SWAP2 SUB SWAP1 REVERT JUMPDEST PUSH1 0x1 PUSH1 0x1 PUSH1 0xA0 SHL SUB SWAP1 DUP2 AND PUSH1 0x80 MSTORE PUSH1 0x0 DUP1 SLOAD PUSH1 0x1 PUSH1 0x1 PUSH1 0xA0 SHL SUB NOT AND SWAP4 SWAP1 SWAP2 AND SWAP3 SWAP1 SWAP3 OR SWAP1 SWAP2 SSTORE POP PUSH2 0xDA JUMP JUMPDEST DUP1 MLOAD PUSH1 0x1 PUSH1 0x1 PUSH1 0xA0 SHL SUB DUP2 AND DUP2 EQ PUSH2 0xA2 JUMPI PUSH1 0x0 DUP1 REVERT JUMPDEST SWAP2 SWAP1 POP JUMP JUMPDEST PUSH1 0x0 DUP1 PUSH1 0x40 DUP4 DUP6 SUB SLT ISZERO PUSH2 0xBA JUMPI PUSH1 0x0 DUP1 REVERT JUMPDEST PUSH2 0xC3 DUP4 PUSH2 0x8B JUMP JUMPDEST SWAP2 POP PUSH2 0xD1 PUSH1 0x20 DUP5 ADD PUSH2 0x8B JUMP JUMPDEST SWAP1 POP SWAP3 POP SWAP3 SWAP1 POP JUMP JUMPDEST PUSH1 0x80 MLOAD PUSH2 0x119F PUSH2 0xFC PUSH1 0x0 CODECOPY PUSH1 0x0 DUP2 DUP2 PUSH2 0x19B ADD MSTORE PUSH2 0x660 ADD MSTORE PUSH2 0x119F PUSH1 0x0 RETURN INVALID PUSH1 0x80 PUSH1 0x40 MSTORE CALLVALUE DUP1 ISZERO PUSH2 0x10 JUMPI PUSH1 0x0 DUP1 REVERT JUMPDEST POP PUSH1 0x4 CALLDATASIZE LT PUSH2 0x93 JUMPI PUSH1 0x0 CALLDATALOAD PUSH1 0xE0 SHR DUP1 PUSH4 0x72D02AEA GT PUSH2 0x66 JUMPI DUP1 PUSH4 0x72D02AEA EQ PUSH2 0x119 JUMPI DUP1 PUSH4 0x85572FFB EQ PUSH2 0x139 JUMPI DUP1 PUSH4 0x885C7B39 EQ PUSH2 0x14E JUMPI DUP1 PUSH4 0xA7648435 EQ PUSH2 0x16E JUMPI DUP1 PUSH4 0xB0F479A1 EQ PUSH2 0x18E JUMPI PUSH1 0x0 DUP1 REVERT JUMPDEST DUP1 PUSH4 0x1FFC9A7 EQ PUSH2 0x98 JUMPI DUP1 PUSH4 0xD8E6E2C EQ PUSH2 0xC0 JUMPI DUP1 PUSH4 0x17D7DE7C EQ PUSH2 0xCF JUMPI DUP1 PUSH4 0x5C089A54 EQ PUSH2 0x104 JUMPI JUMPDEST PUSH1 0x0 DUP1 REVERT JUMPDEST PUSH2 0xAB PUSH2 0xA6 CALLDATASIZE PUSH1 0x4 PUSH2 0xB0D JUMP JUMPDEST PUSH2 0x1C5 JUMP JUMPDEST PUSH1 0x40 MLOAD SWAP1 ISZERO ISZERO DUP2 MSTORE PUSH1 0x20 ADD JUMPDEST PUSH1 0x40 MLOAD DUP1 SWAP2 SUB SWAP1 RETURN JUMPDEST PUSH1 0x40 MLOAD PUSH1 0x2 DUP2 MSTORE PUSH1 0x20 ADD PUSH2 0xB7 JUMP JUMPDEST PUSH1 0x40 DUP1 MLOAD DUP1 DUP3 ADD DUP3 MSTORE PUSH1 0x13 DUP2 MSTORE PUSH19 0x2922A9A2A92B22A22FA6AFA922A1A4A2AB22A9 PUSH1 0x69 SHL PUSH1 0x20 DUP3 ADD MSTORE SWAP1 MLOAD PUSH2 0xB7 SWAP2 SWAP1 PUSH2 0xB3E JUMP JUMPDEST PUSH2 0x10C PUSH2 0x1FC JUMP JUMPDEST PUSH1 0x40 MLOAD PUSH2 0xB7 SWAP2 SWAP1 PUSH2 0xB8D JUMP JUMPDEST PUSH2 0x12C PUSH2 0x127 CALLDATASIZE PUSH1 0x4 PUSH2 0xBE6 JUMP JUMPDEST PUSH2 0x254 JUMP JUMPDEST PUSH1 0x40 MLOAD PUSH2 0xB7 SWAP2 SWAP1 PUSH2 0xC03 JUMP JUMPDEST PUSH2 0x14C PUSH2 0x147 CALLDATASIZE PUSH1 0x4 PUSH2 0xC5C JUMP JUMPDEST PUSH2 0x655 JUMP JUMPDEST STOP JUMPDEST PUSH2 0x161 PUSH2 0x15C CALLDATASIZE PUSH1 0x4 PUSH2 0xBE6 JUMP JUMPDEST PUSH2 0x6B4 JUMP JUMPDEST PUSH1 0x40 MLOAD PUSH2 0xB7 SWAP2 SWAP1 PUSH2 0xCDC JUMP JUMPDEST PUSH2 0x181 PUSH2 0x17C CALLDATASIZE PUSH1 0x4 PUSH2 0xD1E JUMP JUMPDEST PUSH2 0x853 JUMP JUMPDEST PUSH1 0x40 MLOAD PUSH2 0xB7 SWAP2 SWAP1 PUSH2 0xD6C JUMP JUMPDEST PUSH1 0x40 MLOAD PUSH1 0x1 PUSH1 0x1 PUSH1 0xA0 SHL SUB PUSH32 0x0 AND DUP2 MSTORE PUSH1 0x20 ADD PUSH2 0xB7 JUMP JUMPDEST PUSH1 0x0 PUSH1 0x1 PUSH1 0x1 PUSH1 0xE0 SHL SUB NOT DUP3 AND PUSH4 0x85572FFB PUSH1 0xE0 SHL EQ DUP1 PUSH2 0x1F6 JUMPI POP PUSH1 0x1 PUSH1 0x1 PUSH1 0xE0 SHL SUB NOT DUP3 AND PUSH4 0x1FFC9A7 PUSH1 0xE0 SHL EQ JUMPDEST SWAP3 SWAP2 POP POP JUMP JUMPDEST PUSH1 0x60 PUSH1 0x3 DUP1 SLOAD DUP1 PUSH1 0x20 MUL PUSH1 0x20 ADD PUSH1 0x40 MLOAD SWAP1 DUP2 ADD PUSH1 0x40 MSTORE DUP1 SWAP3 SWAP2 SWAP1 DUP2 DUP2 MSTORE PUSH1 0x20 ADD DUP3 DUP1 SLOAD DUP1 ISZERO PUSH2 0x24A JUMPI PUSH1 0x20 MUL DUP3 ADD SWAP2 SWAP1 PUSH1 0x0 MSTORE PUSH1 0x20 PUSH1 0x0 KECCAK256 SWAP1 JUMPDEST DUP2 SLOAD DUP2 MSTORE PUSH1 0x20 ADD SWAP1 PUSH1 0x1 ADD SWAP1 DUP1 DUP4 GT PUSH2 0x236 JUMPI JUMPDEST POP POP POP POP POP SWAP1 POP SWAP1 JUMP JUMPDEST PUSH1 0x0 SLOAD PUSH1 0x40 DUP1 MLOAD DUP1 DUP3 ADD DUP3 MSTORE PUSH1 0x15 DUP2 MSTORE PUSH21 0x52455345525645445F4D4152474152495F434F5245 PUSH1 0x58 SHL PUSH1 0x20 DUP3 ADD MSTORE SWAP1 MLOAD PUSH4 0xBF40FAC1 PUSH1 0xE0 SHL DUP2 MSTORE PUSH1 0x60 SWAP3 PUSH1 0x1 PUSH1 0x1 PUSH1 0xA0 SHL SUB AND SWAP2 PUSH4 0xBF40FAC1 SWAP2 PUSH2 0x2AE SWAP2 SWAP1 PUSH1 0x4 ADD PUSH2 0xB3E JUMP JUMPDEST PUSH1 0x20 PUSH1 0x40 MLOAD DUP1 DUP4 SUB DUP2 DUP7 GAS STATICCALL ISZERO DUP1 ISZERO PUSH2 0x2CB JUMPI RETURNDATASIZE PUSH1 0x0 DUP1 RETURNDATACOPY RETURNDATASIZE PUSH1 0x0 REVERT JUMPDEST POP POP POP POP PUSH1 0x40 MLOAD RETURNDATASIZE PUSH1 0x1F NOT PUSH1 0x1F DUP3 ADD AND DUP3 ADD DUP1 PUSH1 0x40 MSTORE POP DUP2 ADD SWAP1 PUSH2 0x2EF SWAP2 SWAP1 PUSH2 0xD7B JUMP JUMPDEST PUSH1 0x1 PUSH1 0x1 PUSH1 0xA0 SHL SUB AND CALLER PUSH1 0x1 PUSH1 0x1 PUSH1 0xA0 SHL SUB AND EQ PUSH2 0x343 JUMPI PUSH1 0x40 MLOAD PUSH3 0x461BCD PUSH1 0xE5 SHL DUP2 MSTORE PUSH1 0x20 PUSH1 0x4 DUP3 ADD MSTORE PUSH1 0xC PUSH1 0x24 DUP3 ADD MSTORE PUSH12 0x6D617267617269206F6E6C79 PUSH1 0xA0 SHL PUSH1 0x44 DUP3 ADD MSTORE PUSH1 0x64 ADD JUMPDEST PUSH1 0x40 MLOAD DUP1 SWAP2 SUB SWAP1 REVERT JUMPDEST PUSH1 0x1 PUSH1 0x1 PUSH1 0xA0 SHL SUB DUP3 AND PUSH1 0x0 SWAP1 DUP2 MSTORE PUSH1 0x5 PUSH1 0x20 SWAP1 DUP2 MSTORE PUSH1 0x40 DUP1 DUP4 KECCAK256 DUP1 SLOAD DUP3 MLOAD DUP2 DUP6 MUL DUP2 ADD DUP6 ADD SWAP1 SWAP4 MSTORE DUP1 DUP4 MSTORE SWAP2 SWAP3 SWAP1 SWAP2 SWAP1 DUP4 ADD DUP3 DUP3 DUP1 ISZERO PUSH2 0x3A3 JUMPI PUSH1 0x20 MUL DUP3 ADD SWAP2 SWAP1 PUSH1 0x0 MSTORE PUSH1 0x20 PUSH1 0x0 KECCAK256 SWAP1 JUMPDEST DUP2 SLOAD DUP2 MSTORE PUSH1 0x20 ADD SWAP1 PUSH1 0x1 ADD SWAP1 DUP1 DUP4 GT PUSH2 0x38F JUMPI JUMPDEST POP POP POP POP PUSH1 0x1 PUSH1 0x1 PUSH1 0xA0 SHL SUB DUP6 AND PUSH1 0x0 SWAP1 DUP2 MSTORE PUSH1 0x5 PUSH1 0x20 MSTORE PUSH1 0x40 DUP2 KECCAK256 SWAP3 SWAP4 POP PUSH2 0x3CD SWAP3 SWAP2 POP PUSH2 0xA60 JUMP JUMPDEST DUP1 MLOAD PUSH8 0xFFFFFFFFFFFFFFFF DUP2 GT ISZERO PUSH2 0x3E7 JUMPI PUSH2 0x3E7 PUSH2 0xD98 JUMP JUMPDEST PUSH1 0x40 MLOAD SWAP1 DUP1 DUP3 MSTORE DUP1 PUSH1 0x20 MUL PUSH1 0x20 ADD DUP3 ADD PUSH1 0x40 MSTORE DUP1 ISZERO PUSH2 0x43C JUMPI DUP2 PUSH1 0x20 ADD JUMPDEST PUSH2 0x429 PUSH1 0x40 MLOAD DUP1 PUSH1 0x60 ADD PUSH1 0x40 MSTORE DUP1 PUSH1 0x0 DUP2 MSTORE PUSH1 0x20 ADD PUSH1 0x0 DUP2 MSTORE PUSH1 0x20 ADD PUSH1 0x0 DUP2 MSTORE POP SWAP1 JUMP JUMPDEST DUP2 MSTORE PUSH1 0x20 ADD SWAP1 PUSH1 0x1 SWAP1 SUB SWAP1 DUP2 PUSH2 0x405 JUMPI SWAP1 POP JUMPDEST POP SWAP2 POP PUSH1 0x0 JUMPDEST DUP2 MLOAD DUP2 LT ISZERO PUSH2 0x64D JUMPI PUSH1 0x0 DUP3 DUP3 DUP2 MLOAD DUP2 LT PUSH2 0x45F JUMPI PUSH2 0x45F PUSH2 0xDAE JUMP JUMPDEST PUSH1 0x20 SWAP1 DUP2 MUL SWAP2 SWAP1 SWAP2 ADD DUP2 ADD MLOAD PUSH1 0x0 DUP2 DUP2 MSTORE PUSH1 0x4 DUP1 DUP5 MSTORE PUSH1 0x40 DUP1 DUP4 KECCAK256 DUP2 MLOAD PUSH2 0x140 DUP2 ADD DUP4 MSTORE DUP2 SLOAD PUSH1 0x1 PUSH1 0x1 PUSH1 0xA0 SHL SUB SWAP1 DUP2 AND PUSH1 0x80 DUP4 ADD SWAP1 DUP2 MSTORE PUSH1 0x1 DUP5 ADD SLOAD PUSH1 0xA0 DUP5 ADD MSTORE PUSH1 0x2 DUP1 DUP6 ADD SLOAD PUSH1 0xC0 DUP6 ADD MSTORE PUSH1 0x3 DUP6 ADD SLOAD PUSH1 0xE0 DUP6 ADD MSTORE DUP5 DUP8 ADD SLOAD DUP4 AND PUSH2 0x100 DUP6 ADD MSTORE PUSH1 0x5 DUP6 ADD SLOAD PUSH2 0x120 DUP6 ADD MSTORE SWAP1 DUP4 MSTORE PUSH1 0x6 DUP5 ADD SLOAD SWAP9 DUP4 ADD SWAP9 SWAP1 SWAP9 MSTORE PUSH1 0x7 DUP4 ADD SLOAD DUP3 DUP6 ADD MSTORE PUSH1 0x8 SWAP1 SWAP3 ADD SLOAD DUP3 AND PUSH1 0x60 DUP3 ADD MSTORE SWAP6 SLOAD SWAP2 MLOAD PUSH4 0xB6B75251 PUSH1 0xE0 SHL DUP2 MSTORE SWAP5 SWAP7 POP SWAP3 SWAP4 SWAP3 AND SWAP2 PUSH4 0xB6B75251 SWAP2 PUSH2 0x51C SWAP2 DUP7 SWAP2 DUP13 SWAP2 ADD PUSH2 0xDC4 JUMP JUMPDEST PUSH1 0xC0 PUSH1 0x40 MLOAD DUP1 DUP4 SUB DUP2 PUSH1 0x0 DUP8 GAS CALL ISZERO DUP1 ISZERO PUSH2 0x53B JUMPI RETURNDATASIZE PUSH1 0x0 DUP1 RETURNDATACOPY RETURNDATASIZE PUSH1 0x0 REVERT JUMPDEST POP POP POP POP PUSH1 0x40 MLOAD RETURNDATASIZE PUSH1 0x1F NOT PUSH1 0x1F DUP3 ADD AND DUP3 ADD DUP1 PUSH1 0x40 MSTORE POP DUP2 ADD SWAP1 PUSH2 0x55F SWAP2 SWAP1 PUSH2 0xEF7 JUMP JUMPDEST PUSH1 0x1 PUSH1 0x1 PUSH1 0xA0 SHL SUB DUP9 AND PUSH1 0x0 SWAP1 DUP2 MSTORE PUSH1 0x6 PUSH1 0x20 SWAP1 DUP2 MSTORE PUSH1 0x40 DUP1 DUP4 KECCAK256 DUP1 SLOAD PUSH1 0x1 DUP2 ADD DUP3 SSTORE SWAP1 DUP5 MSTORE SWAP3 DUP3 SWAP1 KECCAK256 SWAP1 SWAP3 ADD DUP7 SWAP1 SSTORE DUP2 MLOAD PUSH1 0x60 DUP1 DUP3 ADD DUP5 MSTORE DUP7 DUP5 ADD MLOAD DUP3 MSTORE DUP7 MLOAD PUSH1 0xA0 ADD MLOAD SWAP3 DUP3 ADD SWAP3 SWAP1 SWAP3 MSTORE DUP6 MLOAD SWAP1 SWAP2 ADD MLOAD SWAP2 DUP2 ADD SWAP2 SWAP1 SWAP2 MSTORE DUP8 MLOAD SWAP2 SWAP3 POP SWAP1 DUP8 SWAP1 DUP7 SWAP1 DUP2 LT PUSH2 0x5D0 JUMPI PUSH2 0x5D0 PUSH2 0xDAE JUMP JUMPDEST PUSH1 0x20 SWAP1 DUP2 MUL SWAP2 SWAP1 SWAP2 ADD DUP2 ADD SWAP2 SWAP1 SWAP2 MSTORE DUP3 MLOAD DUP1 DUP3 ADD MLOAD PUSH1 0x60 SWAP2 DUP3 ADD MLOAD PUSH1 0xA0 DUP1 DUP7 ADD MLOAD PUSH1 0x40 DUP1 MLOAD PUSH1 0x1 PUSH1 0x1 PUSH1 0xA0 SHL SUB DUP16 AND DUP2 MSTORE SWAP7 DUP8 ADD SWAP5 SWAP1 SWAP5 MSTORE SWAP3 DUP6 ADD DUP9 SWAP1 MSTORE SWAP3 DUP5 ADD MSTORE PUSH1 0x80 DUP4 ADD MSTORE PUSH32 0xDB2B0C28633297E83DC452AAD8A73D2EC0AB72BC7C22EFDC5B830AC223DBAD41 SWAP2 ADD PUSH1 0x40 MLOAD DUP1 SWAP2 SUB SWAP1 LOG1 POP POP POP PUSH1 0x1 ADD PUSH2 0x442 JUMP JUMPDEST POP POP JUMPDEST SWAP2 SWAP1 POP JUMP JUMPDEST CALLER PUSH1 0x1 PUSH1 0x1 PUSH1 0xA0 SHL SUB PUSH32 0x0 AND EQ PUSH2 0x6A0 JUMPI PUSH1 0x40 MLOAD PUSH4 0x35FDCCCD PUSH1 0xE2 SHL DUP2 MSTORE CALLER PUSH1 0x4 DUP3 ADD MSTORE PUSH1 0x24 ADD PUSH2 0x33A JUMP JUMPDEST PUSH2 0x6B1 PUSH2 0x6AC DUP3 PUSH2 0x1048 JUMP JUMPDEST PUSH2 0x8EA JUMP JUMPDEST POP JUMP JUMPDEST PUSH1 0x1 PUSH1 0x1 PUSH1 0xA0 SHL SUB DUP2 AND PUSH1 0x0 SWAP1 DUP2 MSTORE PUSH1 0x5 PUSH1 0x20 SWAP1 DUP2 MSTORE PUSH1 0x40 DUP1 DUP4 KECCAK256 DUP1 SLOAD DUP3 MLOAD DUP2 DUP6 MUL DUP2 ADD DUP6 ADD SWAP1 SWAP4 MSTORE DUP1 DUP4 MSTORE PUSH1 0x60 SWAP5 SWAP4 DUP4 ADD DUP3 DUP3 DUP1 ISZERO PUSH2 0x713 JUMPI PUSH1 0x20 MUL DUP3 ADD SWAP2 SWAP1 PUSH1 0x0 MSTORE PUSH1 0x20 PUSH1 0x0 KECCAK256 SWAP1 JUMPDEST DUP2 SLOAD DUP2 MSTORE PUSH1 0x20 ADD SWAP1 PUSH1 0x1 ADD SWAP1 DUP1 DUP4 GT PUSH2 0x6FF JUMPI JUMPDEST POP POP POP POP POP SWAP1 POP DUP1 MLOAD PUSH8 0xFFFFFFFFFFFFFFFF DUP2 GT ISZERO PUSH2 0x734 JUMPI PUSH2 0x734 PUSH2 0xD98 JUMP JUMPDEST PUSH1 0x40 MLOAD SWAP1 DUP1 DUP3 MSTORE DUP1 PUSH1 0x20 MUL PUSH1 0x20 ADD DUP3 ADD PUSH1 0x40 MSTORE DUP1 ISZERO PUSH2 0x76D JUMPI DUP2 PUSH1 0x20 ADD JUMPDEST PUSH2 0x75A PUSH2 0xA7E JUMP JUMPDEST DUP2 MSTORE PUSH1 0x20 ADD SWAP1 PUSH1 0x1 SWAP1 SUB SWAP1 DUP2 PUSH2 0x752 JUMPI SWAP1 POP JUMPDEST POP SWAP2 POP PUSH1 0x0 JUMPDEST DUP2 MLOAD DUP2 LT ISZERO PUSH2 0x64D JUMPI PUSH1 0x0 DUP3 DUP3 DUP2 MLOAD DUP2 LT PUSH2 0x790 JUMPI PUSH2 0x790 PUSH2 0xDAE JUMP JUMPDEST PUSH1 0x20 SWAP1 DUP2 MUL SWAP2 SWAP1 SWAP2 ADD DUP2 ADD MLOAD PUSH1 0x0 DUP2 DUP2 MSTORE PUSH1 0x4 DUP1 DUP5 MSTORE PUSH1 0x40 SWAP2 DUP3 SWAP1 KECCAK256 DUP3 MLOAD PUSH2 0x140 DUP2 ADD DUP5 MSTORE DUP2 SLOAD PUSH1 0x1 PUSH1 0x1 PUSH1 0xA0 SHL SUB SWAP1 DUP2 AND PUSH1 0x80 DUP4 ADD SWAP1 DUP2 MSTORE PUSH1 0x1 DUP5 ADD SLOAD PUSH1 0xA0 DUP5 ADD MSTORE PUSH1 0x2 DUP5 ADD SLOAD PUSH1 0xC0 DUP5 ADD MSTORE PUSH1 0x3 DUP5 ADD SLOAD PUSH1 0xE0 DUP5 ADD MSTORE SWAP4 DUP4 ADD SLOAD DUP2 AND PUSH2 0x100 DUP4 ADD MSTORE PUSH1 0x5 DUP4 ADD SLOAD PUSH2 0x120 DUP4 ADD MSTORE DUP4 DUP3 MSTORE PUSH1 0x6 DUP4 ADD SLOAD SWAP7 DUP3 ADD SWAP7 SWAP1 SWAP7 MSTORE PUSH1 0x7 DUP3 ADD SLOAD SWAP4 DUP2 ADD SWAP4 SWAP1 SWAP4 MSTORE PUSH1 0x8 ADD SLOAD SWAP1 SWAP4 AND PUSH1 0x60 DUP3 ADD MSTORE DUP7 MLOAD SWAP2 SWAP4 POP SWAP2 SWAP1 DUP7 SWAP1 DUP6 SWAP1 DUP2 LT PUSH2 0x83E JUMPI PUSH2 0x83E PUSH2 0xDAE JUMP JUMPDEST PUSH1 0x20 SWAP1 DUP2 MUL SWAP2 SWAP1 SWAP2 ADD ADD MSTORE POP POP PUSH1 0x1 ADD PUSH2 0x773 JUMP JUMPDEST PUSH2 0x85B PUSH2 0xAC6 JUMP JUMPDEST POP PUSH1 0x0 SWAP1 DUP2 MSTORE PUSH1 0x4 PUSH1 0x20 DUP2 DUP2 MSTORE PUSH1 0x40 SWAP3 DUP4 SWAP1 KECCAK256 DUP4 MLOAD PUSH2 0x140 DUP2 ADD DUP6 MSTORE DUP2 SLOAD PUSH1 0x1 PUSH1 0x1 PUSH1 0xA0 SHL SUB SWAP1 DUP2 AND PUSH1 0x80 DUP4 ADD SWAP1 DUP2 MSTORE PUSH1 0x1 DUP5 ADD SLOAD PUSH1 0xA0 DUP5 ADD MSTORE PUSH1 0x2 DUP5 ADD SLOAD PUSH1 0xC0 DUP5 ADD MSTORE PUSH1 0x3 DUP5 ADD SLOAD PUSH1 0xE0 DUP5 ADD MSTORE SWAP5 DUP4 ADD SLOAD DUP2 AND PUSH2 0x100 DUP4 ADD MSTORE PUSH1 0x5 DUP4 ADD SLOAD PUSH2 0x120 DUP4 ADD MSTORE SWAP4 DUP2 MSTORE PUSH1 0x6 DUP3 ADD SLOAD SWAP3 DUP2 ADD SWAP3 SWAP1 SWAP3 MSTORE PUSH1 0x7 DUP2 ADD SLOAD SWAP4 DUP3 ADD SWAP4 SWAP1 SWAP4 MSTORE PUSH1 0x8 SWAP1 SWAP3 ADD SLOAD AND PUSH1 0x60 DUP3 ADD MSTORE SWAP1 JUMP JUMPDEST PUSH1 0x0 DUP2 PUSH1 0x60 ADD MLOAD DUP1 PUSH1 0x20 ADD SWAP1 MLOAD DUP2 ADD SWAP1 PUSH2 0x904 SWAP2 SWAP1 PUSH2 0x10F5 JUMP JUMPDEST PUSH1 0x60 DUP4 DUP2 ADD MLOAD DUP1 MLOAD PUSH1 0x20 SWAP2 DUP3 ADD KECCAK256 PUSH1 0x0 DUP2 DUP2 MSTORE PUSH1 0x4 DUP1 DUP5 MSTORE PUSH1 0x40 DUP1 DUP4 KECCAK256 DUP8 MLOAD DUP1 MLOAD DUP3 SLOAD PUSH1 0x1 PUSH1 0x1 PUSH1 0xA0 SHL SUB NOT SWAP1 DUP2 AND PUSH1 0x1 PUSH1 0x1 PUSH1 0xA0 SHL SUB SWAP3 DUP4 AND OR DUP5 SSTORE DUP3 DUP10 ADD MLOAD PUSH1 0x1 DUP1 DUP7 ADD SWAP2 SWAP1 SWAP2 SSTORE DUP4 DUP7 ADD MLOAD PUSH1 0x2 DUP7 ADD SSTORE DUP4 DUP12 ADD MLOAD PUSH1 0x3 DUP1 DUP8 ADD SWAP2 SWAP1 SWAP2 SSTORE PUSH1 0x80 DUP1 DUP7 ADD MLOAD SWAP9 DUP8 ADD DUP1 SLOAD DUP6 AND SWAP10 DUP7 AND SWAP10 SWAP1 SWAP10 OR SWAP1 SWAP9 SSTORE PUSH1 0xA0 SWAP5 DUP6 ADD MLOAD PUSH1 0x5 DUP1 DUP9 ADD SWAP2 SWAP1 SWAP2 SSTORE DUP14 DUP13 ADD MLOAD PUSH1 0x6 DUP9 ADD SSTORE DUP14 DUP9 ADD MLOAD PUSH1 0x7 DUP9 ADD SSTORE DUP14 DUP14 ADD DUP1 MLOAD PUSH1 0x8 SWAP1 SWAP9 ADD DUP1 SLOAD SWAP1 SWAP6 AND SWAP8 DUP7 AND SWAP8 DUP9 OR SWAP1 SWAP5 SSTORE SWAP6 DUP10 MSTORE SWAP5 DUP11 MSTORE DUP6 DUP9 KECCAK256 DUP1 SLOAD DUP1 DUP4 ADD DUP3 SSTORE SWAP1 DUP10 MSTORE DUP11 DUP10 KECCAK256 ADD DUP10 SWAP1 SSTORE DUP5 SLOAD SWAP1 DUP2 ADD DUP6 SSTORE SWAP4 SWAP1 SWAP7 MSTORE PUSH32 0xC2575A0E9E593C00F959F8C92F12DB2869C3395A3B0502D05E2516446F71F85B SWAP1 SWAP3 ADD DUP7 SWAP1 SSTORE SWAP4 MLOAD DUP9 MLOAD DUP1 DUP9 ADD MLOAD SWAP6 DUP2 ADD MLOAD SWAP1 DUP10 ADD MLOAD DUP5 MLOAD SWAP3 SWAP1 SWAP4 AND DUP3 MSTORE SWAP7 DUP2 ADD SWAP5 SWAP1 SWAP5 MSTORE SWAP1 DUP4 ADD SWAP5 SWAP1 SWAP5 MSTORE SWAP4 DUP2 ADD SWAP3 SWAP1 SWAP3 MSTORE SWAP3 SWAP4 POP PUSH32 0xF0CD9C1BF761A2B8C68B22A2DCDF991327826018ECC4044C62EE439A63428D14 SWAP2 ADD PUSH1 0x40 MLOAD DUP1 SWAP2 SUB SWAP1 LOG1 POP POP POP JUMP JUMPDEST POP DUP1 SLOAD PUSH1 0x0 DUP3 SSTORE SWAP1 PUSH1 0x0 MSTORE PUSH1 0x20 PUSH1 0x0 KECCAK256 SWAP1 DUP2 ADD SWAP1 PUSH2 0x6B1 SWAP2 SWAP1 PUSH2 0xAF4 JUMP JUMPDEST PUSH1 0x40 MLOAD DUP1 PUSH1 0xC0 ADD PUSH1 0x40 MSTORE DUP1 PUSH1 0x0 PUSH1 0x1 PUSH1 0x1 PUSH1 0xA0 SHL SUB AND DUP2 MSTORE PUSH1 0x20 ADD PUSH1 0x0 DUP2 MSTORE PUSH1 0x20 ADD PUSH1 0x0 DUP2 MSTORE PUSH1 0x20 ADD PUSH1 0x0 DUP2 MSTORE PUSH1 0x20 ADD PUSH1 0x0 PUSH1 0x1 PUSH1 0x1 PUSH1 0xA0 SHL SUB AND DUP2 MSTORE PUSH1 0x20 ADD PUSH1 0x0 DUP2 MSTORE POP SWAP1 JUMP JUMPDEST PUSH1 0x40 MLOAD DUP1 PUSH1 0x80 ADD PUSH1 0x40 MSTORE DUP1 PUSH2 0xAD9 PUSH2 0xA7E JUMP JUMPDEST DUP2 MSTORE PUSH1 0x0 PUSH1 0x20 DUP3 ADD DUP2 SWAP1 MSTORE PUSH1 0x40 DUP3 ADD DUP2 SWAP1 MSTORE PUSH1 0x60 SWAP1 SWAP2 ADD MSTORE SWAP1 JUMP JUMPDEST JUMPDEST DUP1 DUP3 GT ISZERO PUSH2 0xB09 JUMPI PUSH1 0x0 DUP2 SSTORE PUSH1 0x1 ADD PUSH2 0xAF5 JUMP JUMPDEST POP SWAP1 JUMP JUMPDEST PUSH1 0x0 PUSH1 0x20 DUP3 DUP5 SUB SLT ISZERO PUSH2 0xB1F JUMPI PUSH1 0x0 DUP1 REVERT JUMPDEST DUP2 CALLDATALOAD PUSH1 0x1 PUSH1 0x1 PUSH1 0xE0 SHL SUB NOT DUP2 AND DUP2 EQ PUSH2 0xB37 JUMPI PUSH1 0x0 DUP1 REVERT JUMPDEST SWAP4 SWAP3 POP POP POP JUMP JUMPDEST PUSH1 0x0 PUSH1 0x20 DUP1 DUP4 MSTORE DUP4 MLOAD DUP1 PUSH1 0x20 DUP6 ADD MSTORE PUSH1 0x0 JUMPDEST DUP2 DUP2 LT ISZERO PUSH2 0xB6C JUMPI DUP6 DUP2 ADD DUP4 ADD MLOAD DUP6 DUP3 ADD PUSH1 0x40 ADD MSTORE DUP3 ADD PUSH2 0xB50 JUMP JUMPDEST POP PUSH1 0x0 PUSH1 0x40 DUP3 DUP7 ADD ADD MSTORE PUSH1 0x40 PUSH1 0x1F NOT PUSH1 0x1F DUP4 ADD AND DUP6 ADD ADD SWAP3 POP POP POP SWAP3 SWAP2 POP POP JUMP JUMPDEST PUSH1 0x20 DUP1 DUP3 MSTORE DUP3 MLOAD DUP3 DUP3 ADD DUP2 SWAP1 MSTORE PUSH1 0x0 SWAP2 SWAP1 DUP5 DUP3 ADD SWAP1 PUSH1 0x40 DUP6 ADD SWAP1 DUP5 JUMPDEST DUP2 DUP2 LT ISZERO PUSH2 0xBC5 JUMPI DUP4 MLOAD DUP4 MSTORE SWAP3 DUP5 ADD SWAP3 SWAP2 DUP5 ADD SWAP2 PUSH1 0x1 ADD PUSH2 0xBA9 JUMP JUMPDEST POP SWAP1 SWAP7 SWAP6 POP POP POP POP POP POP JUMP JUMPDEST PUSH1 0x1 PUSH1 0x1 PUSH1 0xA0 SHL SUB DUP2 AND DUP2 EQ PUSH2 0x6B1 JUMPI PUSH1 0x0 DUP1 REVERT JUMPDEST PUSH1 0x0 PUSH1 0x20 DUP3 DUP5 SUB SLT ISZERO PUSH2 0xBF8 JUMPI PUSH1 0x0 DUP1 REVERT JUMPDEST DUP2 CALLDATALOAD PUSH2 0xB37 DUP2 PUSH2 0xBD1 JUMP JUMPDEST PUSH1 0x20 DUP1 DUP3 MSTORE DUP3 MLOAD DUP3 DUP3 ADD DUP2 SWAP1 MSTORE PUSH1 0x0 SWAP2 SWAP1 PUSH1 0x40 SWAP1 DUP2 DUP6 ADD SWAP1 DUP7 DUP5 ADD DUP6 JUMPDEST DUP3 DUP2 LT ISZERO PUSH2 0xC4F JUMPI DUP2 MLOAD DUP1 MLOAD DUP6 MSTORE DUP7 DUP2 ADD MLOAD DUP8 DUP7 ADD MSTORE DUP6 ADD MLOAD DUP6 DUP6 ADD MSTORE PUSH1 0x60 SWAP1 SWAP4 ADD SWAP3 SWAP1 DUP6 ADD SWAP1 PUSH1 0x1 ADD PUSH2 0xC20 JUMP JUMPDEST POP SWAP2 SWAP8 SWAP7 POP POP POP POP POP POP POP JUMP JUMPDEST PUSH1 0x0 PUSH1 0x20 DUP3 DUP5 SUB SLT ISZERO PUSH2 0xC6E JUMPI PUSH1 0x0 DUP1 REVERT JUMPDEST DUP2 CALLDATALOAD PUSH8 0xFFFFFFFFFFFFFFFF DUP2 GT ISZERO PUSH2 0xC85 JUMPI PUSH1 0x0 DUP1 REVERT JUMPDEST DUP3 ADD PUSH1 0xA0 DUP2 DUP6 SUB SLT ISZERO PUSH2 0xB37 JUMPI PUSH1 0x0 DUP1 REVERT JUMPDEST DUP1 MLOAD PUSH1 0x1 PUSH1 0x1 PUSH1 0xA0 SHL SUB SWAP1 DUP2 AND DUP4 MSTORE PUSH1 0x20 DUP1 DUP4 ADD MLOAD SWAP1 DUP5 ADD MSTORE PUSH1 0x40 DUP1 DUP4 ADD MLOAD SWAP1 DUP5 ADD MSTORE PUSH1 0x60 DUP1 DUP4 ADD MLOAD SWAP1 DUP5 ADD MSTORE PUSH1 0x80 DUP1 DUP4 ADD MLOAD SWAP1 SWAP2 AND SWAP1 DUP4 ADD MSTORE PUSH1 0xA0 SWAP1 DUP2 ADD MLOAD SWAP2 ADD MSTORE JUMP JUMPDEST PUSH1 0x20 DUP1 DUP3 MSTORE DUP3 MLOAD DUP3 DUP3 ADD DUP2 SWAP1 MSTORE PUSH1 0x0 SWAP2 SWAP1 DUP5 DUP3 ADD SWAP1 PUSH1 0x40 DUP6 ADD SWAP1 DUP5 JUMPDEST DUP2 DUP2 LT ISZERO PUSH2 0xBC5 JUMPI PUSH2 0xD0B DUP4 DUP6 MLOAD PUSH2 0xC97 JUMP JUMPDEST SWAP3 DUP5 ADD SWAP3 PUSH1 0xC0 SWAP3 SWAP1 SWAP3 ADD SWAP2 PUSH1 0x1 ADD PUSH2 0xCF8 JUMP JUMPDEST PUSH1 0x0 PUSH1 0x20 DUP3 DUP5 SUB SLT ISZERO PUSH2 0xD30 JUMPI PUSH1 0x0 DUP1 REVERT JUMPDEST POP CALLDATALOAD SWAP2 SWAP1 POP JUMP JUMPDEST PUSH2 0xD42 DUP3 DUP3 MLOAD PUSH2 0xC97 JUMP JUMPDEST PUSH1 0x20 DUP2 ADD MLOAD PUSH1 0xC0 DUP4 ADD MSTORE PUSH1 0x40 DUP2 ADD MLOAD PUSH1 0xE0 DUP4 ADD MSTORE PUSH1 0x60 ADD MLOAD PUSH1 0x1 PUSH1 0x1 PUSH1 0xA0 SHL SUB AND PUSH2 0x100 SWAP1 SWAP2 ADD MSTORE JUMP JUMPDEST PUSH2 0x120 DUP2 ADD PUSH2 0x1F6 DUP3 DUP5 PUSH2 0xD37 JUMP JUMPDEST PUSH1 0x0 PUSH1 0x20 DUP3 DUP5 SUB SLT ISZERO PUSH2 0xD8D JUMPI PUSH1 0x0 DUP1 REVERT JUMPDEST DUP2 MLOAD PUSH2 0xB37 DUP2 PUSH2 0xBD1 JUMP JUMPDEST PUSH4 0x4E487B71 PUSH1 0xE0 SHL PUSH1 0x0 MSTORE PUSH1 0x41 PUSH1 0x4 MSTORE PUSH1 0x24 PUSH1 0x0 REVERT JUMPDEST PUSH4 0x4E487B71 PUSH1 0xE0 SHL PUSH1 0x0 MSTORE PUSH1 0x32 PUSH1 0x4 MSTORE PUSH1 0x24 PUSH1 0x0 REVERT JUMPDEST PUSH2 0x140 DUP2 ADD PUSH2 0xDD3 DUP3 DUP6 PUSH2 0xD37 JUMP JUMPDEST PUSH1 0x1 PUSH1 0x1 PUSH1 0xA0 SHL SUB SWAP3 SWAP1 SWAP3 AND PUSH2 0x120 SWAP2 SWAP1 SWAP2 ADD MSTORE SWAP2 SWAP1 POP JUMP JUMPDEST PUSH1 0x40 DUP1 MLOAD SWAP1 DUP2 ADD PUSH8 0xFFFFFFFFFFFFFFFF DUP2 GT DUP3 DUP3 LT OR ISZERO PUSH2 0xE0F JUMPI PUSH2 0xE0F PUSH2 0xD98 JUMP JUMPDEST PUSH1 0x40 MSTORE SWAP1 JUMP JUMPDEST PUSH1 0x40 MLOAD PUSH1 0xA0 DUP2 ADD PUSH8 0xFFFFFFFFFFFFFFFF DUP2 GT DUP3 DUP3 LT OR ISZERO PUSH2 0xE0F JUMPI PUSH2 0xE0F PUSH2 0xD98 JUMP JUMPDEST PUSH1 0x40 MLOAD PUSH1 0x1F DUP3 ADD PUSH1 0x1F NOT AND DUP2 ADD PUSH8 0xFFFFFFFFFFFFFFFF DUP2 GT DUP3 DUP3 LT OR ISZERO PUSH2 0xE61 JUMPI PUSH2 0xE61 PUSH2 0xD98 JUMP JUMPDEST PUSH1 0x40 MSTORE SWAP2 SWAP1 POP JUMP JUMPDEST PUSH1 0x0 PUSH1 0xC0 DUP3 DUP5 SUB SLT ISZERO PUSH2 0xE7B JUMPI PUSH1 0x0 DUP1 REVERT JUMPDEST PUSH1 0x40 MLOAD PUSH1 0xC0 DUP2 ADD DUP2 DUP2 LT PUSH8 0xFFFFFFFFFFFFFFFF DUP3 GT OR ISZERO PUSH2 0xE9E JUMPI PUSH2 0xE9E PUSH2 0xD98 JUMP JUMPDEST DUP1 PUSH1 0x40 MSTORE POP DUP1 SWAP2 POP DUP3 MLOAD PUSH2 0xEB1 DUP2 PUSH2 0xBD1 JUMP JUMPDEST DUP1 DUP3 MSTORE POP PUSH1 0x20 DUP4 ADD MLOAD PUSH1 0x20 DUP3 ADD MSTORE PUSH1 0x40 DUP4 ADD MLOAD PUSH1 0x40 DUP3 ADD MSTORE PUSH1 0x60 DUP4 ADD MLOAD PUSH1 0x60 DUP3 ADD MSTORE PUSH1 0x80 DUP4 ADD MLOAD PUSH2 0xEE1 DUP2 PUSH2 0xBD1 JUMP JUMPDEST PUSH1 0x80 DUP3 ADD MSTORE PUSH1 0xA0 SWAP3 DUP4 ADD MLOAD SWAP3 ADD SWAP2 SWAP1 SWAP2 MSTORE SWAP2 SWAP1 POP JUMP JUMPDEST PUSH1 0x0 PUSH1 0xC0 DUP3 DUP5 SUB SLT ISZERO PUSH2 0xF09 JUMPI PUSH1 0x0 DUP1 REVERT JUMPDEST PUSH2 0xB37 DUP4 DUP4 PUSH2 0xE69 JUMP JUMPDEST DUP1 CALLDATALOAD PUSH8 0xFFFFFFFFFFFFFFFF DUP2 AND DUP2 EQ PUSH2 0x650 JUMPI PUSH1 0x0 DUP1 REVERT JUMPDEST PUSH1 0x0 DUP3 PUSH1 0x1F DUP4 ADD SLT PUSH2 0xF3C JUMPI PUSH1 0x0 DUP1 REVERT JUMPDEST DUP2 CALLDATALOAD PUSH8 0xFFFFFFFFFFFFFFFF DUP2 GT ISZERO PUSH2 0xF56 JUMPI PUSH2 0xF56 PUSH2 0xD98 JUMP JUMPDEST PUSH2 0xF69 PUSH1 0x1F DUP3 ADD PUSH1 0x1F NOT AND PUSH1 0x20 ADD PUSH2 0xE38 JUMP JUMPDEST DUP2 DUP2 MSTORE DUP5 PUSH1 0x20 DUP4 DUP7 ADD ADD GT ISZERO PUSH2 0xF7E JUMPI PUSH1 0x0 DUP1 REVERT JUMPDEST DUP2 PUSH1 0x20 DUP6 ADD PUSH1 0x20 DUP4 ADD CALLDATACOPY PUSH1 0x0 SWAP2 DUP2 ADD PUSH1 0x20 ADD SWAP2 SWAP1 SWAP2 MSTORE SWAP4 SWAP3 POP POP POP JUMP JUMPDEST PUSH1 0x0 DUP3 PUSH1 0x1F DUP4 ADD SLT PUSH2 0xFAC JUMPI PUSH1 0x0 DUP1 REVERT JUMPDEST DUP2 CALLDATALOAD PUSH1 0x20 PUSH8 0xFFFFFFFFFFFFFFFF DUP3 GT ISZERO PUSH2 0xFC8 JUMPI PUSH2 0xFC8 PUSH2 0xD98 JUMP JUMPDEST PUSH2 0xFD6 DUP2 DUP4 PUSH1 0x5 SHL ADD PUSH2 0xE38 JUMP JUMPDEST DUP3 DUP2 MSTORE PUSH1 0x6 SWAP3 SWAP1 SWAP3 SHL DUP5 ADD DUP2 ADD SWAP2 DUP2 DUP2 ADD SWAP1 DUP7 DUP5 GT ISZERO PUSH2 0xFF5 JUMPI PUSH1 0x0 DUP1 REVERT JUMPDEST DUP3 DUP7 ADD JUMPDEST DUP5 DUP2 LT ISZERO PUSH2 0x103D JUMPI PUSH1 0x40 DUP2 DUP10 SUB SLT ISZERO PUSH2 0x1012 JUMPI PUSH1 0x0 DUP1 DUP2 REVERT JUMPDEST PUSH2 0x101A PUSH2 0xDEC JUMP JUMPDEST DUP2 CALLDATALOAD PUSH2 0x1025 DUP2 PUSH2 0xBD1 JUMP JUMPDEST DUP2 MSTORE DUP2 DUP6 ADD CALLDATALOAD DUP6 DUP3 ADD MSTORE DUP4 MSTORE SWAP2 DUP4 ADD SWAP2 PUSH1 0x40 ADD PUSH2 0xFF9 JUMP JUMPDEST POP SWAP7 SWAP6 POP POP POP POP POP POP JUMP JUMPDEST PUSH1 0x0 PUSH1 0xA0 DUP3 CALLDATASIZE SUB SLT ISZERO PUSH2 0x105A JUMPI PUSH1 0x0 DUP1 REVERT JUMPDEST PUSH2 0x1062 PUSH2 0xE15 JUMP JUMPDEST DUP3 CALLDATALOAD DUP2 MSTORE PUSH2 0x1072 PUSH1 0x20 DUP5 ADD PUSH2 0xF13 JUMP JUMPDEST PUSH1 0x20 DUP3 ADD MSTORE PUSH1 0x40 DUP4 ADD CALLDATALOAD PUSH8 0xFFFFFFFFFFFFFFFF DUP1 DUP3 GT ISZERO PUSH2 0x1092 JUMPI PUSH1 0x0 DUP1 REVERT JUMPDEST PUSH2 0x109E CALLDATASIZE DUP4 DUP8 ADD PUSH2 0xF2B JUMP JUMPDEST PUSH1 0x40 DUP5 ADD MSTORE PUSH1 0x60 DUP6 ADD CALLDATALOAD SWAP2 POP DUP1 DUP3 GT ISZERO PUSH2 0x10B7 JUMPI PUSH1 0x0 DUP1 REVERT JUMPDEST PUSH2 0x10C3 CALLDATASIZE DUP4 DUP8 ADD PUSH2 0xF2B JUMP JUMPDEST PUSH1 0x60 DUP5 ADD MSTORE PUSH1 0x80 DUP6 ADD CALLDATALOAD SWAP2 POP DUP1 DUP3 GT ISZERO PUSH2 0x10DC JUMPI PUSH1 0x0 DUP1 REVERT JUMPDEST POP PUSH2 0x10E9 CALLDATASIZE DUP3 DUP7 ADD PUSH2 0xF9B JUMP JUMPDEST PUSH1 0x80 DUP4 ADD MSTORE POP SWAP3 SWAP2 POP POP JUMP JUMPDEST PUSH1 0x0 PUSH2 0x120 DUP3 DUP5 SUB SLT ISZERO PUSH2 0x1108 JUMPI PUSH1 0x0 DUP1 REVERT JUMPDEST PUSH1 0x40 MLOAD PUSH1 0x80 DUP2 ADD DUP2 DUP2 LT PUSH8 0xFFFFFFFFFFFFFFFF DUP3 GT OR ISZERO PUSH2 0x112B JUMPI PUSH2 0x112B PUSH2 0xD98 JUMP JUMPDEST PUSH1 0x40 MSTORE PUSH2 0x1138 DUP5 DUP5 PUSH2 0xE69 JUMP JUMPDEST DUP2 MSTORE PUSH1 0xC0 DUP4 ADD MLOAD PUSH1 0x20 DUP3 ADD MSTORE PUSH1 0xE0 DUP4 ADD MLOAD PUSH1 0x40 DUP3 ADD MSTORE PUSH2 0x100 DUP4 ADD MLOAD PUSH2 0x115D DUP2 PUSH2 0xBD1 JUMP JUMPDEST PUSH1 0x60 DUP3 ADD MSTORE SWAP4 SWAP3 POP POP POP JUMP INVALID LOG2 PUSH5 0x6970667358 0x22 SLT KECCAK256 SWAP3 EXTCODESIZE 0xEB BASEFEE 0x4A 0xAE 0xED CALLDATALOAD EQ 0xF6 0x2C ADDRESS 0x2C JUMPI 0x1E GASLIMIT 0x2B PUSH0 DUP8 0xDF 0xD9 PUSH23 0xB58379CCD2B583278BBF64736F6C634300081700330000 "
				},
				"gasEstimates": {
					"creation": {
						"codeDepositCost": "902200",
						"executionCost": "infinite",
						"totalCost": "infinite"
					},
					"external": {
						"ccipReceive((bytes32,uint64,bytes,bytes,(address,uint256)[]))": "infinite",
						"claimGilts(address)": "infinite",
						"getName()": "infinite",
						"getRouter()": "infinite",
						"getTGiltIds()": "infinite",
						"getTransmittedGilt(bytes32)": "20325",
						"getVersion()": "200",
						"supportsInterface(bytes4)": "427",
						"viewAvailableGiltClaims(address)": "infinite"
					},
					"internal": {
						"_ccipReceive(struct Client.Any2EVMMessage memory)": "infinite"
					}
				},
				"methodIdentifiers": {
					"ccipReceive((bytes32,uint64,bytes,bytes,(address,uint256)[]))": "85572ffb",
					"claimGilts(address)": "72d02aea",
					"getName()": "17d7de7c",
					"getRouter()": "b0f479a1",
					"getTGiltIds()": "5c089a54",
					"getTransmittedGilt(bytes32)": "a7648435",
					"getVersion()": "0d8e6e2c",
					"supportsInterface(bytes4)": "01ffc9a7",
					"viewAvailableGiltClaims(address)": "885c7b39"
				}
			},
			"storageLayout": {
				"storage": [
					{
						"astId": 396,
						"contract": "contracts/core/MReciever.sol:MReciever",
						"label": "register",
						"offset": 0,
						"slot": "0",
						"type": "t_contract(IMRegister)844"
					},
					{
						"astId": 399,
						"contract": "contracts/core/MReciever.sol:MReciever",
						"label": "gcIerc721",
						"offset": 0,
						"slot": "1",
						"type": "t_contract(IERC721)317"
					},
					{
						"astId": 402,
						"contract": "contracts/core/MReciever.sol:MReciever",
						"label": "giltContract",
						"offset": 0,
						"slot": "2",
						"type": "t_contract(IGiltContract)797"
					},
					{
						"astId": 405,
						"contract": "contracts/core/MReciever.sol:MReciever",
						"label": "tGiltIds",
						"offset": 0,
						"slot": "3",
						"type": "t_array(t_bytes32)dyn_storage"
					},
					{
						"astId": 410,
						"contract": "contracts/core/MReciever.sol:MReciever",
						"label": "tGiltById",
						"offset": 0,
						"slot": "4",
						"type": "t_mapping(t_bytes32,t_struct(TransmittedGilt)871_storage)"
					},
					{
						"astId": 415,
						"contract": "contracts/core/MReciever.sol:MReciever",
						"label": "tGiltIdsByOwner",
						"offset": 0,
						"slot": "5",
						"type": "t_mapping(t_address,t_array(t_bytes32)dyn_storage)"
					},
					{
						"astId": 420,
						"contract": "contracts/core/MReciever.sol:MReciever",
						"label": "claimedTGiltIdsByOwner",
						"offset": 0,
						"slot": "6",
						"type": "t_mapping(t_address,t_array(t_bytes32)dyn_storage)"
					},
					{
						"astId": 424,
						"contract": "contracts/core/MReciever.sol:MReciever",
						"label": "isClaimedByGiltId",
						"offset": 0,
						"slot": "7",
						"type": "t_mapping(t_bytes32,t_bool)"
					}
				],
				"types": {
					"t_address": {
						"encoding": "inplace",
						"label": "address",
						"numberOfBytes": "20"
					},
					"t_array(t_bytes32)dyn_storage": {
						"base": "t_bytes32",
						"encoding": "dynamic_array",
						"label": "bytes32[]",
						"numberOfBytes": "32"
					},
					"t_bool": {
						"encoding": "inplace",
						"label": "bool",
						"numberOfBytes": "1"
					},
					"t_bytes32": {
						"encoding": "inplace",
						"label": "bytes32",
						"numberOfBytes": "32"
					},
					"t_contract(IERC721)317": {
						"encoding": "inplace",
						"label": "contract IERC721",
						"numberOfBytes": "20"
					},
					"t_contract(IGiltContract)797": {
						"encoding": "inplace",
						"label": "contract IGiltContract",
						"numberOfBytes": "20"
					},
					"t_contract(IMRegister)844": {
						"encoding": "inplace",
						"label": "contract IMRegister",
						"numberOfBytes": "20"
					},
					"t_mapping(t_address,t_array(t_bytes32)dyn_storage)": {
						"encoding": "mapping",
						"key": "t_address",
						"label": "mapping(address => bytes32[])",
						"numberOfBytes": "32",
						"value": "t_array(t_bytes32)dyn_storage"
					},
					"t_mapping(t_bytes32,t_bool)": {
						"encoding": "mapping",
						"key": "t_bytes32",
						"label": "mapping(bytes32 => bool)",
						"numberOfBytes": "32",
						"value": "t_bool"
					},
					"t_mapping(t_bytes32,t_struct(TransmittedGilt)871_storage)": {
						"encoding": "mapping",
						"key": "t_bytes32",
						"label": "mapping(bytes32 => struct TransmittedGilt)",
						"numberOfBytes": "32",
						"value": "t_struct(TransmittedGilt)871_storage"
					},
					"t_struct(Gilt)861_storage": {
						"encoding": "inplace",
						"label": "struct Gilt",
						"members": [
							{
								"astId": 850,
								"contract": "contracts/core/MReciever.sol:MReciever",
								"label": "erc20",
								"offset": 0,
								"slot": "0",
								"type": "t_address"
							},
							{
								"astId": 852,
								"contract": "contracts/core/MReciever.sol:MReciever",
								"label": "amount",
								"offset": 0,
								"slot": "1",
								"type": "t_uint256"
							},
							{
								"astId": 854,
								"contract": "contracts/core/MReciever.sol:MReciever",
								"label": "creationDate",
								"offset": 0,
								"slot": "2",
								"type": "t_uint256"
							},
							{
								"astId": 856,
								"contract": "contracts/core/MReciever.sol:MReciever",
								"label": "chainId",
								"offset": 0,
								"slot": "3",
								"type": "t_uint256"
							},
							{
								"astId": 858,
								"contract": "contracts/core/MReciever.sol:MReciever",
								"label": "giltContract",
								"offset": 0,
								"slot": "4",
								"type": "t_address"
							},
							{
								"astId": 860,
								"contract": "contracts/core/MReciever.sol:MReciever",
								"label": "id",
								"offset": 0,
								"slot": "5",
								"type": "t_uint256"
							}
						],
						"numberOfBytes": "192"
					},
					"t_struct(TransmittedGilt)871_storage": {
						"encoding": "inplace",
						"label": "struct TransmittedGilt",
						"members": [
							{
								"astId": 864,
								"contract": "contracts/core/MReciever.sol:MReciever",
								"label": "gilt",
								"offset": 0,
								"slot": "0",
								"type": "t_struct(Gilt)861_storage"
							},
							{
								"astId": 866,
								"contract": "contracts/core/MReciever.sol:MReciever",
								"label": "alloProfileId",
								"offset": 0,
								"slot": "6",
								"type": "t_bytes32"
							},
							{
								"astId": 868,
								"contract": "contracts/core/MReciever.sol:MReciever",
								"label": "projectId",
								"offset": 0,
								"slot": "7",
								"type": "t_uint256"
							},
							{
								"astId": 870,
								"contract": "contracts/core/MReciever.sol:MReciever",
								"label": "owner",
								"offset": 0,
								"slot": "8",
								"type": "t_address"
							}
						],
						"numberOfBytes": "288"
					},
					"t_uint256": {
						"encoding": "inplace",
						"label": "uint256",
						"numberOfBytes": "32"
					}
				}
			},
			"userdoc": {
				"kind": "user",
				"methods": {
					"ccipReceive((bytes32,uint64,bytes,bytes,(address,uint256)[]))": {
						"notice": "Called by the Router to deliver a message. If this reverts, any token transfers also revert. The message will move to a FAILED state and become available for manual execution."
					},
					"getRouter()": {
						"notice": "Return the current router"
					},
					"supportsInterface(bytes4)": {
						"notice": "IERC165 supports an interfaceId"
					}
				},
				"version": 1
			}
		}
	}
}