{
	"contracts/core/MProjectCreator.sol": {
		"MProjectCreator": {
			"abi": [
				{
					"inputs": [
						{
							"internalType": "address",
							"name": "_register",
							"type": "address"
						}
					],
					"stateMutability": "nonpayable",
					"type": "constructor"
				},
				{
					"inputs": [
						{
							"internalType": "bytes32",
							"name": "_profileId",
							"type": "bytes32"
						},
						{
							"internalType": "string",
							"name": "_profileName",
							"type": "string"
						}
					],
					"name": "addExternalProfile",
					"outputs": [
						{
							"internalType": "bool",
							"name": "_added",
							"type": "bool"
						}
					],
					"stateMutability": "nonpayable",
					"type": "function"
				},
				{
					"inputs": [
						{
							"internalType": "string",
							"name": "_orgName",
							"type": "string"
						},
						{
							"internalType": "string",
							"name": "_metadataIpfsHash",
							"type": "string"
						},
						{
							"internalType": "address[]",
							"name": "_adminAddresses",
							"type": "address[]"
						}
					],
					"name": "createFunderOrgProfile",
					"outputs": [
						{
							"internalType": "bytes32",
							"name": "_profileId",
							"type": "bytes32"
						}
					],
					"stateMutability": "nonpayable",
					"type": "function"
				},
				{
					"inputs": [
						{
							"internalType": "string",
							"name": "_orgName",
							"type": "string"
						},
						{
							"internalType": "address",
							"name": "_token",
							"type": "address"
						},
						{
							"internalType": "uint256",
							"name": "_poolSize",
							"type": "uint256"
						},
						{
							"internalType": "uint256",
							"name": "_initialFundingAmount",
							"type": "uint256"
						},
						{
							"internalType": "string",
							"name": "_metadataIpfsHash",
							"type": "string"
						},
						{
							"internalType": "address[]",
							"name": "_poolAdmins",
							"type": "address[]"
						}
					],
					"name": "createFundingPool",
					"outputs": [
						{
							"internalType": "uint256",
							"name": "_poolId",
							"type": "uint256"
						}
					],
					"stateMutability": "payable",
					"type": "function"
				},
				{
					"inputs": [
						{
							"internalType": "string",
							"name": "_orgName",
							"type": "string"
						},
						{
							"internalType": "uint256",
							"name": "_alloPoolId",
							"type": "uint256"
						},
						{
							"internalType": "string",
							"name": "_projectName",
							"type": "string"
						},
						{
							"internalType": "uint256",
							"name": "_budget",
							"type": "uint256"
						}
					],
					"name": "createProject",
					"outputs": [
						{
							"internalType": "address",
							"name": "_project",
							"type": "address"
						}
					],
					"stateMutability": "nonpayable",
					"type": "function"
				},
				{
					"inputs": [],
					"name": "getName",
					"outputs": [
						{
							"internalType": "string",
							"name": "_name",
							"type": "string"
						}
					],
					"stateMutability": "pure",
					"type": "function"
				},
				{
					"inputs": [],
					"name": "getOrgs",
					"outputs": [
						{
							"internalType": "string[]",
							"name": "_orgs",
							"type": "string[]"
						}
					],
					"stateMutability": "view",
					"type": "function"
				},
				{
					"inputs": [
						{
							"internalType": "string",
							"name": "_orgName",
							"type": "string"
						}
					],
					"name": "getPoolIdsByOrgName",
					"outputs": [
						{
							"internalType": "uint256[]",
							"name": "_poolIds",
							"type": "uint256[]"
						}
					],
					"stateMutability": "view",
					"type": "function"
				},
				{
					"inputs": [
						{
							"internalType": "string",
							"name": "_orgName",
							"type": "string"
						}
					],
					"name": "getProfileId",
					"outputs": [
						{
							"internalType": "bytes32",
							"name": "_profileId",
							"type": "bytes32"
						}
					],
					"stateMutability": "view",
					"type": "function"
				},
				{
					"inputs": [
						{
							"internalType": "string",
							"name": "_orgName",
							"type": "string"
						}
					],
					"name": "getProjectsByOrgName",
					"outputs": [
						{
							"internalType": "address[]",
							"name": "_projects",
							"type": "address[]"
						}
					],
					"stateMutability": "view",
					"type": "function"
				},
				{
					"inputs": [],
					"name": "getVersion",
					"outputs": [
						{
							"internalType": "uint256",
							"name": "_version",
							"type": "uint256"
						}
					],
					"stateMutability": "pure",
					"type": "function"
				},
				{
					"inputs": [],
					"name": "notifyChangeOfAddress",
					"outputs": [
						{
							"internalType": "bool",
							"name": "_acknowledged",
							"type": "bool"
						}
					],
					"stateMutability": "nonpayable",
					"type": "function"
				}
			],
			"devdoc": {
				"kind": "dev",
				"methods": {},
				"version": 1
			},
			"evm": {
				"assembly": "    /* \"contracts/core/MProjectCreator.sol\":525:7050  contract MProjectCreator is IMVersion {... */\n  mstore(0x40, 0xa0)\n    /* \"contracts/core/MProjectCreator.sol\":1664:1998  constructor(address _register) {... */\n  callvalue\n  dup1\n  iszero\n  tag_1\n  jumpi\n  0x00\n  dup1\n  revert\ntag_1:\n  pop\n  mload(0x40)\n  sub(codesize, bytecodeSize)\n  dup1\n  bytecodeSize\n  dup4\n  codecopy\n  dup2\n  add\n  0x40\n  dup2\n  swap1\n  mstore\n  tag_2\n  swap2\n  tag_3\n  jump\t// in\ntag_2:\n    /* \"contracts/core/MProjectCreator.sol\":1706:1714  register */\n  0x00\n    /* \"contracts/core/MProjectCreator.sol\":1706:1738  register = IMRegister(_register) */\n  dup1\n  sload\n  not(sub(shl(0xa0, 0x01), 0x01))\n  and\n  sub(shl(0xa0, 0x01), 0x01)\n  dup4\n  and\n  swap1\n  dup2\n  or\n  swap1\n  swap2\n  sstore\n    /* \"contracts/core/MProjectCreator.sol\":1782:1789  ALLO_CA */\n  0x40\n  dup1\n  mload\n  dup1\n  dup3\n  add\n  dup3\n  mstore\n  0x12\n  dup2\n  mstore\n  shl(0x70, 0x52455345525645445f414c4c4f5f434f5245)\n  0x20\n  dup3\n  add\n  mstore\n    /* \"contracts/core/MProjectCreator.sol\":1762:1790  register.getAddress(ALLO_CA) */\n  swap1\n  mload\n  shl(0xe0, 0xbf40fac1)\n  dup2\n  mstore\n    /* \"contracts/core/MProjectCreator.sol\":1762:1781  register.getAddress */\n  0xbf40fac1\n  swap2\n    /* \"contracts/core/MProjectCreator.sol\":1762:1790  register.getAddress(ALLO_CA) */\n  tag_6\n  swap2\n  0x04\n  add\n  tag_7\n  jump\t// in\ntag_6:\n  0x20\n  mload(0x40)\n  dup1\n  dup4\n  sub\n  dup2\n  dup7\n  gas\n  staticcall\n  iszero\n  dup1\n  iszero\n  tag_9\n  jumpi\n  returndatasize\n  0x00\n  dup1\n  returndatacopy\n  revert(0x00, returndatasize)\ntag_9:\n  pop\n  pop\n  pop\n  pop\n  mload(0x40)\n  returndatasize\n  not(0x1f)\n  0x1f\n  dup3\n  add\n  and\n  dup3\n  add\n  dup1\n  0x40\n  mstore\n  pop\n  dup2\n  add\n  swap1\n  tag_10\n  swap2\n  swap1\n  tag_3\n  jump\t// in\ntag_10:\n    /* \"contracts/core/MProjectCreator.sol\":1749:1753  allo */\n  0x02\n    /* \"contracts/core/MProjectCreator.sol\":1749:1791  allo = IAllo(register.getAddress(ALLO_CA)) */\n  dup1\n  sload\n  not(sub(shl(0xa0, 0x01), 0x01))\n  and\n  sub(shl(0xa0, 0x01), 0x01)\n  swap3\n  dup4\n  and\n  or\n  swap1\n  sstore\n  0x00\n    /* \"contracts/core/MProjectCreator.sol\":1827:1835  register */\n  sload\n    /* \"contracts/core/MProjectCreator.sol\":1847:1871  ALLO_PROFILE_REGISTER_CA */\n  0x40\n  dup1\n  mload\n  dup1\n  dup3\n  add\n  dup3\n  mstore\n  0x1e\n  dup2\n  mstore\n  0x52455345525645445f414c4c4f5f50524f46494c455f52454749535445520000\n  0x20\n  dup3\n  add\n  mstore\n    /* \"contracts/core/MProjectCreator.sol\":1827:1872  register.getAddress(ALLO_PROFILE_REGISTER_CA) */\n  swap1\n  mload\n  shl(0xe0, 0xbf40fac1)\n  dup2\n  mstore\n    /* \"contracts/core/MProjectCreator.sol\":1827:1835  register */\n  swap2\n  swap1\n  swap3\n  and\n  swap2\n    /* \"contracts/core/MProjectCreator.sol\":1827:1846  register.getAddress */\n  0xbf40fac1\n  swap2\n    /* \"contracts/core/MProjectCreator.sol\":1827:1872  register.getAddress(ALLO_PROFILE_REGISTER_CA) */\n  tag_11\n  swap2\n    /* \"contracts/core/MProjectCreator.sol\":1847:1871  ALLO_PROFILE_REGISTER_CA */\n  swap1\n    /* \"contracts/core/MProjectCreator.sol\":1827:1872  register.getAddress(ALLO_PROFILE_REGISTER_CA) */\n  0x04\n  add\n  tag_7\n  jump\t// in\ntag_11:\n  0x20\n  mload(0x40)\n  dup1\n  dup4\n  sub\n  dup2\n  dup7\n  gas\n  staticcall\n  iszero\n  dup1\n  iszero\n  tag_13\n  jumpi\n  returndatasize\n  0x00\n  dup1\n  returndatacopy\n  revert(0x00, returndatasize)\ntag_13:\n  pop\n  pop\n  pop\n  pop\n  mload(0x40)\n  returndatasize\n  not(0x1f)\n  0x1f\n  dup3\n  add\n  and\n  dup3\n  add\n  dup1\n  0x40\n  mstore\n  pop\n  dup2\n  add\n  swap1\n  tag_14\n  swap2\n  swap1\n  tag_3\n  jump\t// in\ntag_14:\n    /* \"contracts/core/MProjectCreator.sol\":1802:1814  alloRegistry */\n  0x01\n    /* \"contracts/core/MProjectCreator.sol\":1802:1873  alloRegistry = IRegistry(register.getAddress(ALLO_PROFILE_REGISTER_CA)) */\n  dup1\n  sload\n  not(sub(shl(0xa0, 0x01), 0x01))\n  and\n  sub(shl(0xa0, 0x01), 0x01)\n  swap3\n  dup4\n  and\n  or\n  swap1\n  sstore\n  0x00\n    /* \"contracts/core/MProjectCreator.sol\":1919:1927  register */\n  sload\n    /* \"contracts/core/MProjectCreator.sol\":1939:1957  PROJECT_FACTORY_CA */\n  0x40\n  dup1\n  mload\n  dup1\n  dup3\n  add\n  dup3\n  mstore\n  0x18\n  dup2\n  mstore\n  0x52455345525645445f50524f4a4543545f464143544f52590000000000000000\n  0x20\n  dup3\n  add\n  mstore\n    /* \"contracts/core/MProjectCreator.sol\":1919:1958  register.getAddress(PROJECT_FACTORY_CA) */\n  swap1\n  mload\n  shl(0xe0, 0xbf40fac1)\n  dup2\n  mstore\n    /* \"contracts/core/MProjectCreator.sol\":1919:1927  register */\n  swap2\n  swap1\n  swap3\n  and\n  swap2\n    /* \"contracts/core/MProjectCreator.sol\":1919:1938  register.getAddress */\n  0xbf40fac1\n  swap2\n    /* \"contracts/core/MProjectCreator.sol\":1919:1958  register.getAddress(PROJECT_FACTORY_CA) */\n  tag_15\n  swap2\n    /* \"contracts/core/MProjectCreator.sol\":1939:1957  PROJECT_FACTORY_CA */\n  swap1\n    /* \"contracts/core/MProjectCreator.sol\":1919:1958  register.getAddress(PROJECT_FACTORY_CA) */\n  0x04\n  add\n  tag_7\n  jump\t// in\ntag_15:\n  0x20\n  mload(0x40)\n  dup1\n  dup4\n  sub\n  dup2\n  dup7\n  gas\n  staticcall\n  iszero\n  dup1\n  iszero\n  tag_17\n  jumpi\n  returndatasize\n  0x00\n  dup1\n  returndatacopy\n  revert(0x00, returndatasize)\ntag_17:\n  pop\n  pop\n  pop\n  pop\n  mload(0x40)\n  returndatasize\n  not(0x1f)\n  0x1f\n  dup3\n  add\n  and\n  dup3\n  add\n  dup1\n  0x40\n  mstore\n  pop\n  dup2\n  add\n  swap1\n  tag_18\n  swap2\n  swap1\n  tag_3\n  jump\t// in\ntag_18:\n    /* \"contracts/core/MProjectCreator.sol\":1885:1899  projectFactory */\n  0x03\n    /* \"contracts/core/MProjectCreator.sol\":1885:1959  projectFactory = IMProjectFactory(register.getAddress(PROJECT_FACTORY_CA)) */\n  dup1\n  sload\n  not(sub(shl(0xa0, 0x01), 0x01))\n  and\n  sub(shl(0xa0, 0x01), 0x01)\n  swap3\n  swap1\n  swap3\n  and\n  swap2\n  swap1\n  swap2\n  or\n  swap1\n  sstore\n  pop\n    /* \"contracts/core/MProjectCreator.sol\":1985:1989  this */\n  address\n    /* \"contracts/core/MProjectCreator.sol\":1970:1990  self = address(this) */\n  0x80\n  mstore\n    /* \"contracts/core/MProjectCreator.sol\":525:7050  contract MProjectCreator is IMVersion {... */\n  jump(tag_20)\n    /* \"#utility.yul\":14:304   */\ntag_3:\n    /* \"#utility.yul\":84:90   */\n  0x00\n    /* \"#utility.yul\":137:139   */\n  0x20\n    /* \"#utility.yul\":125:134   */\n  dup3\n    /* \"#utility.yul\":116:123   */\n  dup5\n    /* \"#utility.yul\":112:135   */\n  sub\n    /* \"#utility.yul\":108:140   */\n  slt\n    /* \"#utility.yul\":105:157   */\n  iszero\n  tag_22\n  jumpi\n    /* \"#utility.yul\":153:154   */\n  0x00\n    /* \"#utility.yul\":150:151   */\n  dup1\n    /* \"#utility.yul\":143:155   */\n  revert\n    /* \"#utility.yul\":105:157   */\ntag_22:\n    /* \"#utility.yul\":179:195   */\n  dup2\n  mload\n  sub(shl(0xa0, 0x01), 0x01)\n    /* \"#utility.yul\":224:255   */\n  dup2\n  and\n    /* \"#utility.yul\":214:256   */\n  dup2\n  eq\n    /* \"#utility.yul\":204:274   */\n  tag_23\n  jumpi\n    /* \"#utility.yul\":270:271   */\n  0x00\n    /* \"#utility.yul\":267:268   */\n  dup1\n    /* \"#utility.yul\":260:272   */\n  revert\n    /* \"#utility.yul\":204:274   */\ntag_23:\n    /* \"#utility.yul\":293:298   */\n  swap4\n    /* \"#utility.yul\":14:304   */\n  swap3\n  pop\n  pop\n  pop\n  jump\t// out\n    /* \"#utility.yul\":309:857   */\ntag_7:\n    /* \"#utility.yul\":421:425   */\n  0x00\n    /* \"#utility.yul\":450:452   */\n  0x20\n    /* \"#utility.yul\":479:481   */\n  dup1\n    /* \"#utility.yul\":468:477   */\n  dup4\n    /* \"#utility.yul\":461:482   */\n  mstore\n    /* \"#utility.yul\":511:517   */\n  dup4\n    /* \"#utility.yul\":505:518   */\n  mload\n    /* \"#utility.yul\":554:560   */\n  dup1\n    /* \"#utility.yul\":549:551   */\n  0x20\n    /* \"#utility.yul\":538:547   */\n  dup6\n    /* \"#utility.yul\":534:552   */\n  add\n    /* \"#utility.yul\":527:561   */\n  mstore\n    /* \"#utility.yul\":579:580   */\n  0x00\n    /* \"#utility.yul\":589:729   */\ntag_25:\n    /* \"#utility.yul\":603:609   */\n  dup2\n    /* \"#utility.yul\":600:601   */\n  dup2\n    /* \"#utility.yul\":597:610   */\n  lt\n    /* \"#utility.yul\":589:729   */\n  iszero\n  tag_27\n  jumpi\n    /* \"#utility.yul\":698:712   */\n  dup6\n  dup2\n  add\n    /* \"#utility.yul\":694:717   */\n  dup4\n  add\n    /* \"#utility.yul\":688:718   */\n  mload\n    /* \"#utility.yul\":664:681   */\n  dup6\n  dup3\n  add\n    /* \"#utility.yul\":683:685   */\n  0x40\n    /* \"#utility.yul\":660:686   */\n  add\n    /* \"#utility.yul\":653:719   */\n  mstore\n    /* \"#utility.yul\":618:628   */\n  dup3\n  add\n    /* \"#utility.yul\":589:729   */\n  jump(tag_25)\ntag_27:\n    /* \"#utility.yul\":593:596   */\n  pop\n    /* \"#utility.yul\":778:779   */\n  0x00\n    /* \"#utility.yul\":773:775   */\n  0x40\n    /* \"#utility.yul\":764:770   */\n  dup3\n    /* \"#utility.yul\":753:762   */\n  dup7\n    /* \"#utility.yul\":749:771   */\n  add\n    /* \"#utility.yul\":745:776   */\n  add\n    /* \"#utility.yul\":738:780   */\n  mstore\n    /* \"#utility.yul\":848:850   */\n  0x40\n    /* \"#utility.yul\":841:843   */\n  0x1f\n    /* \"#utility.yul\":837:844   */\n  not\n    /* \"#utility.yul\":832:834   */\n  0x1f\n    /* \"#utility.yul\":824:830   */\n  dup4\n    /* \"#utility.yul\":820:835   */\n  add\n    /* \"#utility.yul\":816:845   */\n  and\n    /* \"#utility.yul\":805:814   */\n  dup6\n    /* \"#utility.yul\":801:846   */\n  add\n    /* \"#utility.yul\":797:851   */\n  add\n    /* \"#utility.yul\":789:851   */\n  swap3\n  pop\n  pop\n  pop\n    /* \"#utility.yul\":309:857   */\n  swap3\n  swap2\n  pop\n  pop\n  jump\t// out\ntag_20:\n    /* \"contracts/core/MProjectCreator.sol\":525:7050  contract MProjectCreator is IMVersion {... */\n  mload(0x80)\n  codecopy(0x00, dataOffset(sub_0), dataSize(sub_0))\n  0x00\n  assignImmutable(\"0x2b2a51e6e75ece6beb4c5ed9d51d381a6766e4929f34c8c545b0c0f22a890e3d\")\n  return(0x00, dataSize(sub_0))\nstop\n\nsub_0: assembly {\n        /* \"contracts/core/MProjectCreator.sol\":525:7050  contract MProjectCreator is IMVersion {... */\n      mstore(0x40, 0x80)\n      jumpi(tag_1, lt(calldatasize, 0x04))\n      shr(0xe0, calldataload(0x00))\n      dup1\n      0x6b803971\n      gt\n      tag_13\n      jumpi\n      dup1\n      0x6b803971\n      eq\n      tag_7\n      jumpi\n      dup1\n      0x74331ece\n      eq\n      tag_8\n      jumpi\n      dup1\n      0x74a2b288\n      eq\n      tag_9\n      jumpi\n      dup1\n      0xcde4c10c\n      eq\n      tag_10\n      jumpi\n      dup1\n      0xdbbca721\n      eq\n      tag_11\n      jumpi\n      dup1\n      0xede76775\n      eq\n      tag_12\n      jumpi\n      0x00\n      dup1\n      revert\n    tag_13:\n      dup1\n      0x86a4d5\n      eq\n      tag_2\n      jumpi\n      dup1\n      0x0d8e6e2c\n      eq\n      tag_3\n      jumpi\n      dup1\n      0x17d7de7c\n      eq\n      tag_4\n      jumpi\n      dup1\n      0x4d1ec600\n      eq\n      tag_5\n      jumpi\n      dup1\n      0x6485fa41\n      eq\n      tag_6\n      jumpi\n    tag_1:\n      0x00\n      dup1\n      revert\n        /* \"contracts/core/MProjectCreator.sol\":4019:5360  function createFundingPool(string memory _orgName, address _token, uint256 _poolSize,  uint256 _initialFundingAmount, string memory _metadataIpfsHash, address [] memory _poolAdmins) external payable returns (uint256 _poolId){... */\n    tag_2:\n      tag_14\n      tag_15\n      calldatasize\n      0x04\n      tag_16\n      jump\t// in\n    tag_15:\n      tag_17\n      jump\t// in\n    tag_14:\n      mload(0x40)\n        /* \"#utility.yul\":3084:3109   */\n      swap1\n      dup2\n      mstore\n        /* \"#utility.yul\":3072:3074   */\n      0x20\n        /* \"#utility.yul\":3057:3075   */\n      add\n        /* \"contracts/core/MProjectCreator.sol\":4019:5360  function createFundingPool(string memory _orgName, address _token, uint256 _poolSize,  uint256 _initialFundingAmount, string memory _metadataIpfsHash, address [] memory _poolAdmins) external payable returns (uint256 _poolId){... */\n    tag_18:\n      mload(0x40)\n      dup1\n      swap2\n      sub\n      swap1\n      return\n        /* \"contracts/core/MProjectCreator.sol\":6489:6586  function getVersion() pure external returns (uint256 _version) {... */\n    tag_3:\n      callvalue\n      dup1\n      iszero\n      tag_20\n      jumpi\n      0x00\n      dup1\n      revert\n    tag_20:\n      pop\n        /* \"contracts/core/MProjectCreator.sol\":783:784  7 */\n      0x07\n        /* \"contracts/core/MProjectCreator.sol\":6489:6586  function getVersion() pure external returns (uint256 _version) {... */\n      jump(tag_14)\n        /* \"contracts/core/MProjectCreator.sol\":6388:6481  function getName() pure external returns (string memory _name) {... */\n    tag_4:\n      callvalue\n      dup1\n      iszero\n      tag_24\n      jumpi\n      0x00\n      dup1\n      revert\n    tag_24:\n      pop\n        /* \"contracts/core/MProjectCreator.sol\":6469:6473  name */\n      0x40\n      dup1\n      mload\n      dup1\n      dup3\n      add\n      dup3\n      mstore\n      0x17\n      dup2\n      mstore\n      0x4d4152474152495f50524f4a4543545f43524541544f52000000000000000000\n      0x20\n      dup3\n      add\n      mstore\n        /* \"contracts/core/MProjectCreator.sol\":6388:6481  function getName() pure external returns (string memory _name) {... */\n      swap1\n      mload\n      tag_18\n      swap2\n        /* \"contracts/core/MProjectCreator.sol\":6469:6473  name */\n      swap1\n        /* \"contracts/core/MProjectCreator.sol\":6388:6481  function getName() pure external returns (string memory _name) {... */\n      tag_28\n      jump\t// in\n        /* \"contracts/core/MProjectCreator.sol\":5371:6037  function createProject(string memory _orgName, uint256 _alloPoolId, string memory _projectName, uint256 _budget)  external returns (address _project) {... */\n    tag_5:\n      callvalue\n      dup1\n      iszero\n      tag_29\n      jumpi\n      0x00\n      dup1\n      revert\n    tag_29:\n      pop\n      tag_30\n      tag_31\n      calldatasize\n      0x04\n      tag_32\n      jump\t// in\n    tag_31:\n      tag_33\n      jump\t// in\n    tag_30:\n      mload(0x40)\n      sub(shl(0xa0, 0x01), 0x01)\n        /* \"#utility.yul\":4725:4757   */\n      swap1\n      swap2\n      and\n        /* \"#utility.yul\":4707:4758   */\n      dup2\n      mstore\n        /* \"#utility.yul\":4695:4697   */\n      0x20\n        /* \"#utility.yul\":4680:4698   */\n      add\n        /* \"contracts/core/MProjectCreator.sol\":5371:6037  function createProject(string memory _orgName, uint256 _alloPoolId, string memory _projectName, uint256 _budget)  external returns (address _project) {... */\n      tag_18\n        /* \"#utility.yul\":4561:4764   */\n      jump\n        /* \"contracts/core/MProjectCreator.sol\":2597:3600  function createFunderOrgProfile(string memory _orgName, string memory _metadataIpfsHash, address [] memory _adminAddresses) external returns (bytes32 _profileId){... */\n    tag_6:\n      callvalue\n      dup1\n      iszero\n      tag_36\n      jumpi\n      0x00\n      dup1\n      revert\n    tag_36:\n      pop\n      tag_14\n      tag_38\n      calldatasize\n      0x04\n      tag_39\n      jump\t// in\n    tag_38:\n      tag_40\n      jump\t// in\n        /* \"contracts/core/MProjectCreator.sol\":2430:2589  function getProjectsByOrgName(string memory _orgName) view external returns (address [] memory _projects) {... */\n    tag_7:\n      callvalue\n      dup1\n      iszero\n      tag_43\n      jumpi\n      0x00\n      dup1\n      revert\n    tag_43:\n      pop\n      tag_44\n      tag_45\n      calldatasize\n      0x04\n      tag_46\n      jump\t// in\n    tag_45:\n      tag_47\n      jump\t// in\n    tag_44:\n      mload(0x40)\n      tag_18\n      swap2\n      swap1\n      tag_49\n      jump\t// in\n        /* \"contracts/core/MProjectCreator.sol\":3608:4011  function addExternalProfile(bytes32 _profileId, string memory _profileName)  external returns (bool _added) {... */\n    tag_8:\n      callvalue\n      dup1\n      iszero\n      tag_50\n      jumpi\n      0x00\n      dup1\n      revert\n    tag_50:\n      pop\n      tag_51\n      tag_52\n      calldatasize\n      0x04\n      tag_53\n      jump\t// in\n    tag_52:\n      tag_54\n      jump\t// in\n    tag_51:\n      mload(0x40)\n        /* \"#utility.yul\":7348:7362   */\n      swap1\n      iszero\n        /* \"#utility.yul\":7341:7363   */\n      iszero\n        /* \"#utility.yul\":7323:7364   */\n      dup2\n      mstore\n        /* \"#utility.yul\":7311:7313   */\n      0x20\n        /* \"#utility.yul\":7296:7314   */\n      add\n        /* \"contracts/core/MProjectCreator.sol\":3608:4011  function addExternalProfile(bytes32 _profileId, string memory _profileName)  external returns (bool _added) {... */\n      tag_18\n        /* \"#utility.yul\":7183:7370   */\n      jump\n        /* \"contracts/core/MProjectCreator.sol\":2279:2422  function getProfileId(string memory _orgName) view external returns (bytes32 _profileId) {... */\n    tag_9:\n      callvalue\n      dup1\n      iszero\n      tag_57\n      jumpi\n      0x00\n      dup1\n      revert\n    tag_57:\n      pop\n      tag_14\n      tag_59\n      calldatasize\n      0x04\n      tag_46\n      jump\t// in\n    tag_59:\n      tag_60\n      jump\t// in\n        /* \"contracts/core/MProjectCreator.sol\":6045:6378  function notifyChangeOfAddress() external adminOnly returns (bool _acknowledged) {... */\n    tag_10:\n      callvalue\n      dup1\n      iszero\n      tag_62\n      jumpi\n      0x00\n      dup1\n      revert\n    tag_62:\n      pop\n      tag_51\n      tag_64\n      jump\t// in\n        /* \"contracts/core/MProjectCreator.sol\":2115:2271  function getPoolIdsByOrgName(string memory _orgName) view external returns (uint256 [] memory _poolIds) {... */\n    tag_11:\n      callvalue\n      dup1\n      iszero\n      tag_66\n      jumpi\n      0x00\n      dup1\n      revert\n    tag_66:\n      pop\n      tag_67\n      tag_68\n      calldatasize\n      0x04\n      tag_46\n      jump\t// in\n    tag_68:\n      tag_69\n      jump\t// in\n    tag_67:\n      mload(0x40)\n      tag_18\n      swap2\n      swap1\n      tag_71\n      jump\t// in\n        /* \"contracts/core/MProjectCreator.sol\":2006:2107  function getOrgs() view external returns (string [] memory _orgs) {... */\n    tag_12:\n      callvalue\n      dup1\n      iszero\n      tag_72\n      jumpi\n      0x00\n      dup1\n      revert\n    tag_72:\n      pop\n      tag_73\n      tag_74\n      jump\t// in\n    tag_73:\n      mload(0x40)\n      tag_18\n      swap2\n      swap1\n      tag_76\n      jump\t// in\n        /* \"contracts/core/MProjectCreator.sol\":4019:5360  function createFundingPool(string memory _orgName, address _token, uint256 _poolSize,  uint256 _initialFundingAmount, string memory _metadataIpfsHash, address [] memory _poolAdmins) external payable returns (uint256 _poolId){... */\n    tag_17:\n        /* \"contracts/core/MProjectCreator.sol\":4227:4242  uint256 _poolId */\n      0x00\n        /* \"contracts/core/MProjectCreator.sol\":4262:4281  hasProfileByOrgName */\n      0x06\n        /* \"contracts/core/MProjectCreator.sol\":4282:4290  _orgName */\n      dup8\n        /* \"contracts/core/MProjectCreator.sol\":4262:4291  hasProfileByOrgName[_orgName] */\n      mload(0x40)\n      tag_78\n      swap2\n      swap1\n      tag_79\n      jump\t// in\n    tag_78:\n      swap1\n      dup2\n      mstore\n      mload(0x40)\n      swap1\n      dup2\n      swap1\n      sub\n      0x20\n      add\n      swap1\n      keccak256\n      sload\n      0xff\n      and\n        /* \"contracts/core/MProjectCreator.sol\":4254:4307  require(hasProfileByOrgName[_orgName], \"unknown org\") */\n      tag_80\n      jumpi\n      mload(0x40)\n      shl(0xe5, 0x461bcd)\n      dup2\n      mstore\n        /* \"#utility.yul\":9316:9318   */\n      0x20\n        /* \"contracts/core/MProjectCreator.sol\":4254:4307  require(hasProfileByOrgName[_orgName], \"unknown org\") */\n      0x04\n      dup3\n      add\n        /* \"#utility.yul\":9298:9319   */\n      mstore\n        /* \"#utility.yul\":9355:9357   */\n      0x0b\n        /* \"#utility.yul\":9335:9353   */\n      0x24\n      dup3\n      add\n        /* \"#utility.yul\":9328:9358   */\n      mstore\n      shl(0xa8, 0x756e6b6e6f776e206f7267)\n        /* \"#utility.yul\":9374:9392   */\n      0x44\n      dup3\n      add\n        /* \"#utility.yul\":9367:9408   */\n      mstore\n        /* \"#utility.yul\":9425:9443   */\n      0x64\n      add\n        /* \"contracts/core/MProjectCreator.sol\":4254:4307  require(hasProfileByOrgName[_orgName], \"unknown org\") */\n    tag_81:\n      mload(0x40)\n      dup1\n      swap2\n      sub\n      swap1\n      revert\n    tag_80:\n        /* \"contracts/core/MProjectCreator.sol\":4339:4360  _initialFundingAmount */\n      dup4\n        /* \"contracts/core/MProjectCreator.sol\":4326:4335  _poolSize */\n      dup6\n        /* \"contracts/core/MProjectCreator.sol\":4326:4360  _poolSize >= _initialFundingAmount */\n      lt\n      iszero\n        /* \"contracts/core/MProjectCreator.sol\":4318:4411  require(_poolSize >= _initialFundingAmount, \" pool size must be greater or equal to amount \") */\n      tag_83\n      jumpi\n      mload(0x40)\n      shl(0xe5, 0x461bcd)\n      dup2\n      mstore\n        /* \"#utility.yul\":9656:9658   */\n      0x20\n        /* \"contracts/core/MProjectCreator.sol\":4318:4411  require(_poolSize >= _initialFundingAmount, \" pool size must be greater or equal to amount \") */\n      0x04\n      dup3\n      add\n        /* \"#utility.yul\":9638:9659   */\n      mstore\n        /* \"#utility.yul\":9695:9697   */\n      0x2e\n        /* \"#utility.yul\":9675:9693   */\n      0x24\n      dup3\n      add\n        /* \"#utility.yul\":9668:9698   */\n      mstore\n        /* \"#utility.yul\":9734:9768   */\n      0x20706f6f6c2073697a65206d7573742062652067726561746572206f72206571\n        /* \"#utility.yul\":9714:9732   */\n      0x44\n      dup3\n      add\n        /* \"#utility.yul\":9707:9769   */\n      mstore\n      shl(0x95, 0x03ab0b6103a379030b6b7bab73a1)\n        /* \"#utility.yul\":9785:9803   */\n      0x64\n      dup3\n      add\n        /* \"#utility.yul\":9778:9822   */\n      mstore\n        /* \"#utility.yul\":9839:9858   */\n      0x84\n      add\n        /* \"contracts/core/MProjectCreator.sol\":4318:4411  require(_poolSize >= _initialFundingAmount, \" pool size must be greater or equal to amount \") */\n      tag_81\n        /* \"#utility.yul\":9454:9864   */\n      jump\n        /* \"contracts/core/MProjectCreator.sol\":4318:4411  require(_poolSize >= _initialFundingAmount, \" pool size must be greater or equal to amount \") */\n    tag_83:\n      not(0xeeeeeeeeeeeeeeeeeeeeeeeeeeeeeeeeeeeeeeed)\n      sub(shl(0xa0, 0x01), 0x01)\n        /* \"contracts/core/MProjectCreator.sol\":4427:4443  _token == NATIVE */\n      dup8\n      and\n      add\n        /* \"contracts/core/MProjectCreator.sol\":4424:4680  if(_token == NATIVE) {... */\n      tag_86\n      jumpi\n        /* \"contracts/core/MProjectCreator.sol\":4480:4501  _initialFundingAmount */\n      dup4\n        /* \"contracts/core/MProjectCreator.sol\":4468:4477  msg.value */\n      callvalue\n        /* \"contracts/core/MProjectCreator.sol\":4468:4501  msg.value>= _initialFundingAmount */\n      lt\n      iszero\n        /* \"contracts/core/MProjectCreator.sol\":4460:4558  require(msg.value>= _initialFundingAmount, \"insufficient initial amount transmitted to fund pool\") */\n      tag_87\n      jumpi\n      mload(0x40)\n      shl(0xe5, 0x461bcd)\n      dup2\n      mstore\n        /* \"#utility.yul\":10071:10073   */\n      0x20\n        /* \"contracts/core/MProjectCreator.sol\":4460:4558  require(msg.value>= _initialFundingAmount, \"insufficient initial amount transmitted to fund pool\") */\n      0x04\n      dup3\n      add\n        /* \"#utility.yul\":10053:10074   */\n      mstore\n        /* \"#utility.yul\":10110:10112   */\n      0x34\n        /* \"#utility.yul\":10090:10108   */\n      0x24\n      dup3\n      add\n        /* \"#utility.yul\":10083:10113   */\n      mstore\n        /* \"#utility.yul\":10149:10183   */\n      0x696e73756666696369656e7420696e697469616c20616d6f756e74207472616e\n        /* \"#utility.yul\":10129:10147   */\n      0x44\n      dup3\n      add\n        /* \"#utility.yul\":10122:10184   */\n      mstore\n      shl(0x62, 0x1cdb5a5d1d1959081d1bc8199d5b99081c1bdbdb)\n        /* \"#utility.yul\":10200:10218   */\n      0x64\n      dup3\n      add\n        /* \"#utility.yul\":10193:10243   */\n      mstore\n        /* \"#utility.yul\":10260:10279   */\n      0x84\n      add\n        /* \"contracts/core/MProjectCreator.sol\":4460:4558  require(msg.value>= _initialFundingAmount, \"insufficient initial amount transmitted to fund pool\") */\n      tag_81\n        /* \"#utility.yul\":9869:10285   */\n      jump\n        /* \"contracts/core/MProjectCreator.sol\":4460:4558  require(msg.value>= _initialFundingAmount, \"insufficient initial amount transmitted to fund pool\") */\n    tag_87:\n        /* \"contracts/core/MProjectCreator.sol\":4424:4680  if(_token == NATIVE) {... */\n      jump(tag_90)\n    tag_86:\n        /* \"contracts/core/MProjectCreator.sol\":4600:4668  IERC20(_token).transferFrom(msg.sender, self, _initialFundingAmount) */\n      mload(0x40)\n      shl(0xe0, 0x23b872dd)\n      dup2\n      mstore\n        /* \"contracts/core/MProjectCreator.sol\":4628:4638  msg.sender */\n      caller\n        /* \"contracts/core/MProjectCreator.sol\":4600:4668  IERC20(_token).transferFrom(msg.sender, self, _initialFundingAmount) */\n      0x04\n      dup3\n      add\n        /* \"#utility.yul\":10530:10564   */\n      mstore\n      sub(shl(0xa0, 0x01), 0x01)\n        /* \"contracts/core/MProjectCreator.sol\":4640:4644  self */\n      immutable(\"0x2b2a51e6e75ece6beb4c5ed9d51d381a6766e4929f34c8c545b0c0f22a890e3d\")\n        /* \"#utility.yul\":10600:10615   */\n      dup2\n      and\n        /* \"#utility.yul\":10580:10598   */\n      0x24\n      dup4\n      add\n        /* \"#utility.yul\":10573:10616   */\n      mstore\n        /* \"#utility.yul\":10632:10650   */\n      0x44\n      dup3\n      add\n        /* \"#utility.yul\":10625:10659   */\n      dup7\n      swap1\n      mstore\n        /* \"contracts/core/MProjectCreator.sol\":4600:4627  IERC20(_token).transferFrom */\n      dup8\n      and\n      swap1\n      0x23b872dd\n      swap1\n        /* \"#utility.yul\":10465:10483   */\n      0x64\n      add\n        /* \"contracts/core/MProjectCreator.sol\":4600:4668  IERC20(_token).transferFrom(msg.sender, self, _initialFundingAmount) */\n      0x20\n      mload(0x40)\n      dup1\n      dup4\n      sub\n      dup2\n      0x00\n      dup8\n      gas\n      call\n      iszero\n      dup1\n      iszero\n      tag_94\n      jumpi\n      returndatasize\n      0x00\n      dup1\n      returndatacopy\n      revert(0x00, returndatasize)\n    tag_94:\n      pop\n      pop\n      pop\n      pop\n      mload(0x40)\n      returndatasize\n      not(0x1f)\n      0x1f\n      dup3\n      add\n      and\n      dup3\n      add\n      dup1\n      0x40\n      mstore\n      pop\n      dup2\n      add\n      swap1\n      tag_95\n      swap2\n      swap1\n      tag_96\n      jump\t// in\n    tag_95:\n      pop\n        /* \"contracts/core/MProjectCreator.sol\":4424:4680  if(_token == NATIVE) {... */\n    tag_90:\n        /* \"contracts/core/MProjectCreator.sol\":4690:4708  bytes32 profileId_ */\n      0x00\n        /* \"contracts/core/MProjectCreator.sol\":4711:4729  profileIdByOrgName */\n      0x07\n        /* \"contracts/core/MProjectCreator.sol\":4730:4738  _orgName */\n      dup9\n        /* \"contracts/core/MProjectCreator.sol\":4711:4739  profileIdByOrgName[_orgName] */\n      mload(0x40)\n      tag_97\n      swap2\n      swap1\n      tag_79\n      jump\t// in\n    tag_97:\n      swap1\n      dup2\n      mstore\n      0x20\n      add\n      mload(0x40)\n      dup1\n      swap2\n      sub\n      swap1\n      keccak256\n      sload\n        /* \"contracts/core/MProjectCreator.sol\":4690:4739  bytes32 profileId_ = profileIdByOrgName[_orgName] */\n      swap1\n      pop\n        /* \"contracts/core/MProjectCreator.sol\":4750:4772  bytes memory zeroData_ */\n      0x00\n        /* \"contracts/core/MProjectCreator.sol\":4775:4790  abi.encode(\"0\") */\n      add(0x20, mload(0x40))\n      tag_98\n      swap1\n        /* \"#utility.yul\":11154:11156   */\n      0x20\n        /* \"#utility.yul\":11136:11157   */\n      dup1\n      dup3\n      mstore\n        /* \"#utility.yul\":11193:11194   */\n      0x01\n        /* \"#utility.yul\":11173:11191   */\n      swap1\n      dup3\n      add\n        /* \"#utility.yul\":11166:11195   */\n      mstore\n      shl(0xfc, 0x03)\n        /* \"#utility.yul\":11226:11228   */\n      0x40\n        /* \"#utility.yul\":11211:11229   */\n      dup3\n      add\n        /* \"#utility.yul\":11204:11235   */\n      mstore\n        /* \"#utility.yul\":11267:11269   */\n      0x60\n        /* \"#utility.yul\":11252:11270   */\n      add\n      swap1\n        /* \"#utility.yul\":10952:11276   */\n      jump\n        /* \"contracts/core/MProjectCreator.sol\":4775:4790  abi.encode(\"0\") */\n    tag_98:\n      0x40\n      dup1\n      mload\n      not(0x1f)\n      dup2\n      dup5\n      sub\n      add\n      dup2\n      mstore\n        /* \"contracts/core/MProjectCreator.sol\":4811:4815  allo */\n      sload(0x02)\n      0x00\n        /* \"contracts/core/MProjectCreator.sol\":4857:4865  register */\n      sload\n        /* \"contracts/core/MProjectCreator.sol\":4877:4901  MARGARI_ALLO_STRATEGY_CA */\n      dup5\n      dup5\n      add\n      dup5\n      mstore\n      0x1e\n      dup6\n      mstore\n      0x52455345525645445f4d5f415f44454c49564552595f53545241544547590000\n        /* \"contracts/core/MProjectCreator.sol\":4775:4790  abi.encode(\"0\") */\n      0x20\n        /* \"contracts/core/MProjectCreator.sol\":4877:4901  MARGARI_ALLO_STRATEGY_CA */\n      dup7\n      add\n      mstore\n        /* \"contracts/core/MProjectCreator.sol\":4857:4902  register.getAddress(MARGARI_ALLO_STRATEGY_CA) */\n      swap3\n      mload\n      shl(0xe0, 0xbf40fac1)\n      dup2\n      mstore\n        /* \"contracts/core/MProjectCreator.sol\":4775:4790  abi.encode(\"0\") */\n      swap2\n      swap5\n      pop\n      sub(shl(0xa0, 0x01), 0x01)\n        /* \"contracts/core/MProjectCreator.sol\":4811:4815  allo */\n      swap1\n      dup2\n      and\n      swap4\n        /* \"contracts/core/MProjectCreator.sol\":4811:4844  allo.createPoolWithCustomStrategy */\n      0xe1007d4a\n      swap4\n        /* \"contracts/core/MProjectCreator.sol\":4845:4855  profileId_ */\n      dup8\n      swap4\n        /* \"contracts/core/MProjectCreator.sol\":4857:4865  register */\n      swap3\n      and\n      swap2\n        /* \"contracts/core/MProjectCreator.sol\":4857:4876  register.getAddress */\n      0xbf40fac1\n      swap2\n        /* \"contracts/core/MProjectCreator.sol\":4857:4902  register.getAddress(MARGARI_ALLO_STRATEGY_CA) */\n      tag_100\n      swap2\n      0x04\n      add\n      tag_28\n      jump\t// in\n    tag_100:\n      0x20\n      mload(0x40)\n      dup1\n      dup4\n      sub\n      dup2\n      dup7\n      gas\n      staticcall\n      iszero\n      dup1\n      iszero\n      tag_102\n      jumpi\n      returndatasize\n      0x00\n      dup1\n      returndatacopy\n      revert(0x00, returndatasize)\n    tag_102:\n      pop\n      pop\n      pop\n      pop\n      mload(0x40)\n      returndatasize\n      not(0x1f)\n      0x1f\n      dup3\n      add\n      and\n      dup3\n      add\n      dup1\n      0x40\n      mstore\n      pop\n      dup2\n      add\n      swap1\n      tag_103\n      swap2\n      swap1\n      tag_104\n      jump\t// in\n    tag_103:\n        /* \"contracts/core/MProjectCreator.sol\":4904:4913  zeroData_ */\n      dup5\n        /* \"contracts/core/MProjectCreator.sol\":4915:4921  _token */\n      dup13\n        /* \"contracts/core/MProjectCreator.sol\":4923:4932  _poolSize */\n      dup13\n        /* \"contracts/core/MProjectCreator.sol\":4934:4964  getMetadata(_metadataIpfsHash) */\n      tag_105\n        /* \"contracts/core/MProjectCreator.sol\":4946:4963  _metadataIpfsHash */\n      dup13\n      0x40\n      dup1\n      mload\n      dup1\n      dup3\n      add\n      dup3\n      mstore\n      0x00\n      dup2\n      mstore\n      0x60\n      0x20\n      swap2\n      dup3\n      add\n      mstore\n        /* \"contracts/core/MProjectCreator.sol\":6837:6928  Metadata({... */\n      dup2\n      mload\n      dup1\n      dup4\n      add\n      swap1\n      swap3\n      mstore\n        /* \"contracts/core/MProjectCreator.sol\":6872:6873  1 */\n      0x01\n        /* \"contracts/core/MProjectCreator.sol\":6837:6928  Metadata({... */\n      dup3\n      mstore\n      dup2\n      add\n      swap2\n      swap1\n      swap2\n      mstore\n      swap1\n        /* \"contracts/core/MProjectCreator.sol\":6715:6936  function getMetadata(string memory _metadataIpfsHash) pure internal returns (Metadata memory _metadata) {... */\n      jump\n        /* \"contracts/core/MProjectCreator.sol\":4934:4964  getMetadata(_metadataIpfsHash) */\n    tag_105:\n        /* \"contracts/core/MProjectCreator.sol\":4966:4977  _poolAdmins */\n      dup12\n        /* \"contracts/core/MProjectCreator.sol\":4811:4978  allo.createPoolWithCustomStrategy(profileId_, register.getAddress(MARGARI_ALLO_STRATEGY_CA), zeroData_, _token, _poolSize, getMetadata(_metadataIpfsHash), _poolAdmins) */\n      mload(0x40)\n      dup9\n      0xffffffff\n      and\n      0xe0\n      shl\n      dup2\n      mstore\n      0x04\n      add\n      tag_107\n      swap8\n      swap7\n      swap6\n      swap5\n      swap4\n      swap3\n      swap2\n      swap1\n      tag_108\n      jump\t// in\n    tag_107:\n      0x20\n      mload(0x40)\n      dup1\n      dup4\n      sub\n      dup2\n      0x00\n      dup8\n      gas\n      call\n      iszero\n      dup1\n      iszero\n      tag_110\n      jumpi\n      returndatasize\n      0x00\n      dup1\n      returndatacopy\n      revert(0x00, returndatasize)\n    tag_110:\n      pop\n      pop\n      pop\n      pop\n      mload(0x40)\n      returndatasize\n      not(0x1f)\n      0x1f\n      dup3\n      add\n      and\n      dup3\n      add\n      dup1\n      0x40\n      mstore\n      pop\n      dup2\n      add\n      swap1\n      tag_111\n      swap2\n      swap1\n      tag_112\n      jump\t// in\n    tag_111:\n        /* \"contracts/core/MProjectCreator.sol\":4801:4978  _poolId = allo.createPoolWithCustomStrategy(profileId_, register.getAddress(MARGARI_ALLO_STRATEGY_CA), zeroData_, _token, _poolSize, getMetadata(_metadataIpfsHash), _poolAdmins) */\n      swap3\n      pop\n        /* \"contracts/core/MProjectCreator.sol\":4990:5006  poolIdsByOrgName */\n      0x08\n        /* \"contracts/core/MProjectCreator.sol\":5007:5015  _orgName */\n      dup10\n        /* \"contracts/core/MProjectCreator.sol\":4990:5016  poolIdsByOrgName[_orgName] */\n      mload(0x40)\n      tag_113\n      swap2\n      swap1\n      tag_79\n      jump\t// in\n    tag_113:\n      swap1\n      dup2\n      mstore\n      mload(0x40)\n      0x20\n      swap2\n      dup2\n      swap1\n      sub\n      dup3\n      add\n      swap1\n      keccak256\n        /* \"contracts/core/MProjectCreator.sol\":4990:5030  poolIdsByOrgName[_orgName].push(_poolId) */\n      dup1\n      sload\n      0x01\n      dup2\n      add\n      dup3\n      sstore\n      0x00\n      swap2\n      dup3\n      mstore\n      swap2\n      swap1\n      keccak256\n      add\n      dup4\n      swap1\n      sstore\n      sub(shl(0xa0, 0x01), 0x01)\n        /* \"contracts/core/MProjectCreator.sol\":5044:5060  _token == NATIVE */\n      dup9\n      and\n      not(0xeeeeeeeeeeeeeeeeeeeeeeeeeeeeeeeeeeeeeeed)\n      add\n        /* \"contracts/core/MProjectCreator.sol\":5041:5327  if(_token == NATIVE) {... */\n      tag_115\n      jumpi\n        /* \"contracts/core/MProjectCreator.sol\":5077:5081  allo */\n      sload(0x02)\n        /* \"contracts/core/MProjectCreator.sol\":5077:5153  allo.fundPool{value : _initialFundingAmount}(_poolId, _initialFundingAmount) */\n      mload(0x40)\n      shl(0xe2, 0x16b35beb)\n      dup2\n      mstore\n      0x04\n      dup2\n      add\n        /* \"#utility.yul\":13133:13158   */\n      dup6\n      swap1\n      mstore\n        /* \"#utility.yul\":13174:13192   */\n      0x24\n      dup2\n      add\n        /* \"#utility.yul\":13167:13201   */\n      dup9\n      swap1\n      mstore\n      sub(shl(0xa0, 0x01), 0x01)\n        /* \"contracts/core/MProjectCreator.sol\":5077:5081  allo */\n      swap1\n      swap2\n      and\n      swap1\n        /* \"contracts/core/MProjectCreator.sol\":5077:5090  allo.fundPool */\n      0x5acd6fac\n      swap1\n        /* \"contracts/core/MProjectCreator.sol\":5099:5120  _initialFundingAmount */\n      dup9\n      swap1\n        /* \"#utility.yul\":13106:13124   */\n      0x44\n      add\n        /* \"contracts/core/MProjectCreator.sol\":5077:5153  allo.fundPool{value : _initialFundingAmount}(_poolId, _initialFundingAmount) */\n      0x00\n      mload(0x40)\n      dup1\n      dup4\n      sub\n      dup2\n      dup6\n      dup9\n      dup1\n      extcodesize\n      iszero\n      dup1\n      iszero\n      tag_118\n      jumpi\n      0x00\n      dup1\n      revert\n    tag_118:\n      pop\n      gas\n      call\n      iszero\n      dup1\n      iszero\n      tag_120\n      jumpi\n      returndatasize\n      0x00\n      dup1\n      returndatacopy\n      revert(0x00, returndatasize)\n    tag_120:\n      pop\n      pop\n      pop\n      pop\n      pop\n        /* \"contracts/core/MProjectCreator.sol\":5041:5327  if(_token == NATIVE) {... */\n      jump(tag_121)\n    tag_115:\n        /* \"contracts/core/MProjectCreator.sol\":5226:5230  allo */\n      sload(0x02)\n        /* \"contracts/core/MProjectCreator.sol\":5195:5255  IERC20(_token).approve(address(allo), _initialFundingAmount) */\n      mload(0x40)\n      shl(0xe0, 0x095ea7b3)\n      dup2\n      mstore\n      sub(shl(0xa0, 0x01), 0x01)\n        /* \"contracts/core/MProjectCreator.sol\":5226:5230  allo */\n      swap2\n      dup3\n      and\n        /* \"contracts/core/MProjectCreator.sol\":5195:5255  IERC20(_token).approve(address(allo), _initialFundingAmount) */\n      0x04\n      dup3\n      add\n        /* \"#utility.yul\":13386:13437   */\n      mstore\n        /* \"#utility.yul\":13453:13471   */\n      0x24\n      dup2\n      add\n        /* \"#utility.yul\":13446:13480   */\n      dup9\n      swap1\n      mstore\n        /* \"contracts/core/MProjectCreator.sol\":5195:5217  IERC20(_token).approve */\n      swap1\n      dup10\n      and\n      swap1\n      0x095ea7b3\n      swap1\n        /* \"#utility.yul\":13359:13377   */\n      0x44\n      add\n        /* \"contracts/core/MProjectCreator.sol\":5195:5255  IERC20(_token).approve(address(allo), _initialFundingAmount) */\n      0x20\n      mload(0x40)\n      dup1\n      dup4\n      sub\n      dup2\n      0x00\n      dup8\n      gas\n      call\n      iszero\n      dup1\n      iszero\n      tag_125\n      jumpi\n      returndatasize\n      0x00\n      dup1\n      returndatacopy\n      revert(0x00, returndatasize)\n    tag_125:\n      pop\n      pop\n      pop\n      pop\n      mload(0x40)\n      returndatasize\n      not(0x1f)\n      0x1f\n      dup3\n      add\n      and\n      dup3\n      add\n      dup1\n      0x40\n      mstore\n      pop\n      dup2\n      add\n      swap1\n      tag_126\n      swap2\n      swap1\n      tag_96\n      jump\t// in\n    tag_126:\n      pop\n        /* \"contracts/core/MProjectCreator.sol\":5270:5274  allo */\n      sload(0x02)\n        /* \"contracts/core/MProjectCreator.sol\":5270:5315  allo.fundPool(_poolId, _initialFundingAmount) */\n      mload(0x40)\n      shl(0xe2, 0x16b35beb)\n      dup2\n      mstore\n      0x04\n      dup2\n      add\n        /* \"#utility.yul\":13133:13158   */\n      dup6\n      swap1\n      mstore\n        /* \"#utility.yul\":13174:13192   */\n      0x24\n      dup2\n      add\n        /* \"#utility.yul\":13167:13201   */\n      dup9\n      swap1\n      mstore\n      sub(shl(0xa0, 0x01), 0x01)\n        /* \"contracts/core/MProjectCreator.sol\":5270:5274  allo */\n      swap1\n      swap2\n      and\n      swap1\n        /* \"contracts/core/MProjectCreator.sol\":5270:5283  allo.fundPool */\n      0x5acd6fac\n      swap1\n        /* \"#utility.yul\":13106:13124   */\n      0x44\n      add\n        /* \"contracts/core/MProjectCreator.sol\":5270:5315  allo.fundPool(_poolId, _initialFundingAmount) */\n      0x00\n      mload(0x40)\n      dup1\n      dup4\n      sub\n      dup2\n      0x00\n      dup8\n      dup1\n      extcodesize\n      iszero\n      dup1\n      iszero\n      tag_128\n      jumpi\n      0x00\n      dup1\n      revert\n    tag_128:\n      pop\n      gas\n      call\n      iszero\n      dup1\n      iszero\n      tag_130\n      jumpi\n      returndatasize\n      0x00\n      dup1\n      returndatacopy\n      revert(0x00, returndatasize)\n    tag_130:\n      pop\n      pop\n      pop\n      pop\n        /* \"contracts/core/MProjectCreator.sol\":5041:5327  if(_token == NATIVE) {... */\n    tag_121:\n        /* \"contracts/core/MProjectCreator.sol\":5337:5351  return _poolId */\n      pop\n      pop\n        /* \"contracts/core/MProjectCreator.sol\":4019:5360  function createFundingPool(string memory _orgName, address _token, uint256 _poolSize,  uint256 _initialFundingAmount, string memory _metadataIpfsHash, address [] memory _poolAdmins) external payable returns (uint256 _poolId){... */\n      swap7\n      swap6\n      pop\n      pop\n      pop\n      pop\n      pop\n      pop\n      jump\t// out\n        /* \"contracts/core/MProjectCreator.sol\":5371:6037  function createProject(string memory _orgName, uint256 _alloPoolId, string memory _projectName, uint256 _budget)  external returns (address _project) {... */\n    tag_33:\n        /* \"contracts/core/MProjectCreator.sol\":5543:5557  projectFactory */\n      sload(0x03)\n        /* \"contracts/core/MProjectCreator.sol\":5572:5600  profileIdByOrgName[_orgName] */\n      mload(0x40)\n        /* \"contracts/core/MProjectCreator.sol\":5503:5519  address _project */\n      0x00\n      swap2\n      sub(shl(0xa0, 0x01), 0x01)\n        /* \"contracts/core/MProjectCreator.sol\":5543:5557  projectFactory */\n      and\n      swap1\n        /* \"contracts/core/MProjectCreator.sol\":5543:5571  projectFactory.createProject */\n      0xa41b40f4\n      swap1\n        /* \"contracts/core/MProjectCreator.sol\":5572:5590  profileIdByOrgName */\n      0x07\n      swap1\n        /* \"contracts/core/MProjectCreator.sol\":5572:5600  profileIdByOrgName[_orgName] */\n      tag_134\n      swap1\n        /* \"contracts/core/MProjectCreator.sol\":5591:5599  _orgName */\n      dup10\n      swap1\n        /* \"contracts/core/MProjectCreator.sol\":5572:5600  profileIdByOrgName[_orgName] */\n      tag_79\n      jump\t// in\n    tag_134:\n      swap1\n      dup2\n      mstore\n      mload(0x40)\n      swap1\n      dup2\n      swap1\n      sub\n      0x20\n      add\n      dup2\n      keccak256\n      sload\n      not(sub(shl(0xe0, 0x01), 0x01))\n        /* \"contracts/core/MProjectCreator.sol\":5543:5637  projectFactory.createProject(profileIdByOrgName[_orgName], _alloPoolId, _projectName, _budget) */\n      0xe0\n      dup5\n      swap1\n      shl\n      and\n      dup3\n      mstore\n      tag_135\n      swap2\n        /* \"contracts/core/MProjectCreator.sol\":5602:5613  _alloPoolId */\n      dup9\n      swap1\n        /* \"contracts/core/MProjectCreator.sol\":5615:5627  _projectName */\n      dup9\n      swap1\n        /* \"contracts/core/MProjectCreator.sol\":5629:5636  _budget */\n      dup9\n      swap1\n        /* \"contracts/core/MProjectCreator.sol\":5543:5637  projectFactory.createProject(profileIdByOrgName[_orgName], _alloPoolId, _projectName, _budget) */\n      0x04\n      add\n      tag_136\n      jump\t// in\n    tag_135:\n      0x20\n      mload(0x40)\n      dup1\n      dup4\n      sub\n      dup2\n      0x00\n      dup8\n      gas\n      call\n      iszero\n      dup1\n      iszero\n      tag_138\n      jumpi\n      returndatasize\n      0x00\n      dup1\n      returndatacopy\n      revert(0x00, returndatasize)\n    tag_138:\n      pop\n      pop\n      pop\n      pop\n      mload(0x40)\n      returndatasize\n      not(0x1f)\n      0x1f\n      dup3\n      add\n      and\n      dup3\n      add\n      dup1\n      0x40\n      mstore\n      pop\n      dup2\n      add\n      swap1\n      tag_139\n      swap2\n      swap1\n      tag_104\n      jump\t// in\n    tag_139:\n        /* \"contracts/core/MProjectCreator.sol\":5670:5690  abi.encode(_project) */\n      0x40\n      dup1\n      mload\n      sub(shl(0xa0, 0x01), 0x01)\n        /* \"#utility.yul\":4725:4757   */\n      dup4\n      and\n        /* \"contracts/core/MProjectCreator.sol\":5670:5690  abi.encode(_project) */\n      0x20\n      dup3\n      add\n        /* \"#utility.yul\":4707:4758   */\n      mstore\n        /* \"contracts/core/MProjectCreator.sol\":5532:5637  _project = projectFactory.createProject(profileIdByOrgName[_orgName], _alloPoolId, _projectName, _budget) */\n      swap2\n      swap3\n      pop\n        /* \"contracts/core/MProjectCreator.sol\":5648:5666  bytes memory data_ */\n      0x00\n      swap2\n        /* \"#utility.yul\":4680:4698   */\n      add\n        /* \"contracts/core/MProjectCreator.sol\":5670:5690  abi.encode(_project) */\n      0x40\n      dup1\n      mload\n      not(0x1f)\n      dup2\n      dup5\n      sub\n      add\n      dup2\n      mstore\n      swap1\n      dup3\n      swap1\n      mstore\n        /* \"contracts/core/MProjectCreator.sol\":5701:5705  allo */\n      sload(0x02)\n      shl(0xe2, 0x01d703a7)\n        /* \"contracts/core/MProjectCreator.sol\":5701:5744  allo.registerRecipient(_alloPoolId,  data_) */\n      dup4\n      mstore\n        /* \"contracts/core/MProjectCreator.sol\":5670:5690  abi.encode(_project) */\n      swap1\n      swap3\n      pop\n      sub(shl(0xa0, 0x01), 0x01)\n        /* \"contracts/core/MProjectCreator.sol\":5701:5705  allo */\n      and\n      swap1\n        /* \"contracts/core/MProjectCreator.sol\":5701:5723  allo.registerRecipient */\n      0x075c0e9c\n      swap1\n        /* \"contracts/core/MProjectCreator.sol\":5701:5744  allo.registerRecipient(_alloPoolId,  data_) */\n      tag_141\n      swap1\n        /* \"contracts/core/MProjectCreator.sol\":5724:5735  _alloPoolId */\n      dup9\n      swap1\n        /* \"contracts/core/MProjectCreator.sol\":5670:5690  abi.encode(_project) */\n      dup6\n      swap1\n        /* \"contracts/core/MProjectCreator.sol\":5701:5744  allo.registerRecipient(_alloPoolId,  data_) */\n      0x04\n      add\n      tag_142\n      jump\t// in\n    tag_141:\n      0x20\n      mload(0x40)\n      dup1\n      dup4\n      sub\n      dup2\n      0x00\n      dup8\n      gas\n      call\n      iszero\n      dup1\n      iszero\n      tag_144\n      jumpi\n      returndatasize\n      0x00\n      dup1\n      returndatacopy\n      revert(0x00, returndatasize)\n    tag_144:\n      pop\n      pop\n      pop\n      pop\n      mload(0x40)\n      returndatasize\n      not(0x1f)\n      0x1f\n      dup3\n      add\n      and\n      dup3\n      add\n      dup1\n      0x40\n      mstore\n      pop\n      dup2\n      add\n      swap1\n      tag_145\n      swap2\n      swap1\n      tag_104\n      jump\t// in\n    tag_145:\n      pop\n        /* \"contracts/core/MProjectCreator.sol\":5794:5899  ProjectAllocation({... */\n      0x40\n      dup1\n      mload\n      dup1\n      dup3\n      add\n      dup3\n      mstore\n      sub(shl(0xa0, 0x01), 0x01)\n      dup5\n      dup2\n      and\n      dup1\n      dup4\n      mstore\n      0x20\n      dup1\n      dup5\n      add\n      dup9\n      dup2\n      mstore\n        /* \"contracts/core/MProjectCreator.sol\":5932:5955  abi.encode(allocation_) */\n      dup6\n      mload\n      swap2\n      dup3\n      add\n        /* \"#utility.yul\":14439:14497   */\n      swap3\n      swap1\n      swap3\n      mstore\n        /* \"#utility.yul\":14535:14559   */\n      swap1\n      mload\n        /* \"#utility.yul\":14513:14533   */\n      dup2\n      dup6\n      add\n        /* \"#utility.yul\":14506:14560   */\n      mstore\n        /* \"contracts/core/MProjectCreator.sol\":5932:5955  abi.encode(allocation_) */\n      dup4\n      mload\n      dup1\n      dup3\n      sub\n      dup6\n      add\n      dup2\n      mstore\n        /* \"#utility.yul\":14412:14430   */\n      0x60\n      dup3\n      add\n        /* \"contracts/core/MProjectCreator.sol\":5932:5955  abi.encode(allocation_) */\n      swap5\n      dup6\n      swap1\n      mstore\n        /* \"contracts/core/MProjectCreator.sol\":5966:5970  allo */\n      sload(0x02)\n      shl(0xe3, 0x05d87031)\n        /* \"contracts/core/MProjectCreator.sol\":5966:6000  allo.allocate(_alloPoolId, adata_) */\n      swap1\n      swap6\n      mstore\n        /* \"contracts/core/MProjectCreator.sol\":5794:5899  ProjectAllocation({... */\n      swap3\n      swap4\n        /* \"contracts/core/MProjectCreator.sol\":5966:5970  allo */\n      swap1\n      swap2\n      and\n      swap1\n        /* \"contracts/core/MProjectCreator.sol\":5966:5979  allo.allocate */\n      0x2ec38188\n      swap1\n        /* \"contracts/core/MProjectCreator.sol\":5966:6000  allo.allocate(_alloPoolId, adata_) */\n      tag_148\n      swap1\n        /* \"contracts/core/MProjectCreator.sol\":5980:5991  _alloPoolId */\n      dup11\n      swap1\n        /* \"contracts/core/MProjectCreator.sol\":5932:5955  abi.encode(allocation_) */\n      dup6\n      swap1\n        /* \"contracts/core/MProjectCreator.sol\":5966:6000  allo.allocate(_alloPoolId, adata_) */\n      0x64\n      add\n      tag_142\n      jump\t// in\n    tag_148:\n      0x00\n      mload(0x40)\n      dup1\n      dup4\n      sub\n      dup2\n      0x00\n      dup8\n      dup1\n      extcodesize\n      iszero\n      dup1\n      iszero\n      tag_149\n      jumpi\n      0x00\n      dup1\n      revert\n    tag_149:\n      pop\n      gas\n      call\n      iszero\n      dup1\n      iszero\n      tag_151\n      jumpi\n      returndatasize\n      0x00\n      dup1\n      returndatacopy\n      revert(0x00, returndatasize)\n    tag_151:\n      pop\n      pop\n      pop\n      pop\n        /* \"contracts/core/MProjectCreator.sol\":6013:6028  return _project */\n      pop\n      pop\n      pop\n        /* \"contracts/core/MProjectCreator.sol\":5371:6037  function createProject(string memory _orgName, uint256 _alloPoolId, string memory _projectName, uint256 _budget)  external returns (address _project) {... */\n      swap5\n      swap4\n      pop\n      pop\n      pop\n      pop\n      jump\t// out\n        /* \"contracts/core/MProjectCreator.sol\":2597:3600  function createFunderOrgProfile(string memory _orgName, string memory _metadataIpfsHash, address [] memory _adminAddresses) external returns (bytes32 _profileId){... */\n    tag_40:\n        /* \"contracts/core/MProjectCreator.sol\":2739:2757  bytes32 _profileId */\n      0x00\n        /* \"contracts/core/MProjectCreator.sol\":2778:2790  knownOrgName */\n      0x05\n        /* \"contracts/core/MProjectCreator.sol\":2791:2799  _orgName */\n      dup5\n        /* \"contracts/core/MProjectCreator.sol\":2778:2800  knownOrgName[_orgName] */\n      mload(0x40)\n      tag_153\n      swap2\n      swap1\n      tag_79\n      jump\t// in\n    tag_153:\n      swap1\n      dup2\n      mstore\n      mload(0x40)\n      swap1\n      dup2\n      swap1\n      sub\n      0x20\n      add\n      swap1\n      keccak256\n      sload\n      0xff\n      and\n        /* \"contracts/core/MProjectCreator.sol\":2777:2800  !knownOrgName[_orgName] */\n      iszero\n        /* \"contracts/core/MProjectCreator.sol\":2769:2824  require(!knownOrgName[_orgName], \"org already created\") */\n      tag_154\n      jumpi\n      mload(0x40)\n      shl(0xe5, 0x461bcd)\n      dup2\n      mstore\n        /* \"#utility.yul\":14773:14775   */\n      0x20\n        /* \"contracts/core/MProjectCreator.sol\":2769:2824  require(!knownOrgName[_orgName], \"org already created\") */\n      0x04\n      dup3\n      add\n        /* \"#utility.yul\":14755:14776   */\n      mstore\n        /* \"#utility.yul\":14812:14814   */\n      0x13\n        /* \"#utility.yul\":14792:14810   */\n      0x24\n      dup3\n      add\n        /* \"#utility.yul\":14785:14815   */\n      mstore\n      shl(0x6a, 0x1bdc99c8185b1c9958591e4818dc99585d1959)\n        /* \"#utility.yul\":14831:14849   */\n      0x44\n      dup3\n      add\n        /* \"#utility.yul\":14824:14873   */\n      mstore\n        /* \"#utility.yul\":14890:14908   */\n      0x64\n      add\n        /* \"contracts/core/MProjectCreator.sol\":2769:2824  require(!knownOrgName[_orgName], \"org already created\") */\n      tag_81\n        /* \"#utility.yul\":14571:14914   */\n      jump\n        /* \"contracts/core/MProjectCreator.sol\":2769:2824  require(!knownOrgName[_orgName], \"org already created\") */\n    tag_154:\n        /* \"contracts/core/MProjectCreator.sol\":2860:2864  true */\n      0x01\n        /* \"contracts/core/MProjectCreator.sol\":2835:2847  knownOrgName */\n      0x05\n        /* \"contracts/core/MProjectCreator.sol\":2848:2856  _orgName */\n      dup6\n        /* \"contracts/core/MProjectCreator.sol\":2835:2857  knownOrgName[_orgName] */\n      mload(0x40)\n      tag_157\n      swap2\n      swap1\n      tag_79\n      jump\t// in\n    tag_157:\n      swap1\n      dup2\n      mstore\n      mload(0x40)\n      swap1\n      dup2\n      swap1\n      sub\n      0x20\n      add\n      swap1\n      keccak256\n        /* \"contracts/core/MProjectCreator.sol\":2835:2864  knownOrgName[_orgName] = true */\n      dup1\n      sload\n      swap2\n      iszero\n      iszero\n      not(0xff)\n      swap1\n      swap3\n      and\n      swap2\n      swap1\n      swap2\n      or\n      swap1\n      sstore\n        /* \"contracts/core/MProjectCreator.sol\":2876:2884  orgNames */\n      0x04\n        /* \"contracts/core/MProjectCreator.sol\":2876:2899  orgNames.push(_orgName) */\n      dup1\n      sload\n        /* \"contracts/core/MProjectCreator.sol\":2835:2864  knownOrgName[_orgName] = true */\n      0x01\n        /* \"contracts/core/MProjectCreator.sol\":2876:2899  orgNames.push(_orgName) */\n      dup2\n      add\n      dup3\n      sstore\n        /* \"contracts/core/MProjectCreator.sol\":2835:2857  knownOrgName[_orgName] */\n      0x00\n        /* \"contracts/core/MProjectCreator.sol\":2876:2899  orgNames.push(_orgName) */\n      swap2\n      swap1\n      swap2\n      mstore\n      0x8a35acfbc15ff81a39ae7d344fd709f28e8600b4aa8c65c6b64bfe7fe36bd19b\n      add\n      tag_159\n        /* \"contracts/core/MProjectCreator.sol\":2890:2898  _orgName */\n      dup6\n        /* \"contracts/core/MProjectCreator.sol\":2876:2899  orgNames.push(_orgName) */\n      dup3\n      tag_160\n      jump\t// in\n    tag_159:\n      pop\n        /* \"contracts/core/MProjectCreator.sol\":3398:3410  alloRegistry */\n      and(sub(shl(0xa0, 0x01), 0x01), sload(0x01))\n        /* \"contracts/core/MProjectCreator.sol\":3398:3424  alloRegistry.createProfile */\n      0x3a92f65f\n        /* \"contracts/core/MProjectCreator.sol\":7021:7036  block.timestamp */\n      timestamp\n        /* \"contracts/core/MProjectCreator.sol\":3437:3445  _orgName */\n      dup7\n        /* \"contracts/core/MProjectCreator.sol\":3447:3477  getMetadata(_metadataIpfsHash) */\n      tag_163\n        /* \"contracts/core/MProjectCreator.sol\":3459:3476  _metadataIpfsHash */\n      dup8\n      0x40\n      dup1\n      mload\n      dup1\n      dup3\n      add\n      dup3\n      mstore\n      0x00\n      dup2\n      mstore\n      0x60\n      0x20\n      swap2\n      dup3\n      add\n      mstore\n        /* \"contracts/core/MProjectCreator.sol\":6837:6928  Metadata({... */\n      dup2\n      mload\n      dup1\n      dup4\n      add\n      swap1\n      swap3\n      mstore\n        /* \"contracts/core/MProjectCreator.sol\":6872:6873  1 */\n      0x01\n        /* \"contracts/core/MProjectCreator.sol\":6837:6928  Metadata({... */\n      dup3\n      mstore\n      dup2\n      add\n      swap2\n      swap1\n      swap2\n      mstore\n      swap1\n        /* \"contracts/core/MProjectCreator.sol\":6715:6936  function getMetadata(string memory _metadataIpfsHash) pure internal returns (Metadata memory _metadata) {... */\n      jump\n        /* \"contracts/core/MProjectCreator.sol\":3447:3477  getMetadata(_metadataIpfsHash) */\n    tag_163:\n        /* \"contracts/core/MProjectCreator.sol\":3479:3489  msg.sender */\n      caller\n        /* \"contracts/core/MProjectCreator.sol\":3491:3506  _adminAddresses */\n      dup8\n        /* \"contracts/core/MProjectCreator.sol\":3398:3507  alloRegistry.createProfile(getNonce(), _orgName, getMetadata(_metadataIpfsHash), msg.sender, _adminAddresses) */\n      mload(0x40)\n      dup7\n      0xffffffff\n      and\n      0xe0\n      shl\n      dup2\n      mstore\n      0x04\n      add\n      tag_164\n      swap6\n      swap5\n      swap4\n      swap3\n      swap2\n      swap1\n      tag_165\n      jump\t// in\n    tag_164:\n      0x20\n      mload(0x40)\n      dup1\n      dup4\n      sub\n      dup2\n      0x00\n      dup8\n      gas\n      call\n      iszero\n      dup1\n      iszero\n      tag_167\n      jumpi\n      returndatasize\n      0x00\n      dup1\n      returndatacopy\n      revert(0x00, returndatasize)\n    tag_167:\n      pop\n      pop\n      pop\n      pop\n      mload(0x40)\n      returndatasize\n      not(0x1f)\n      0x1f\n      dup3\n      add\n      and\n      dup3\n      add\n      dup1\n      0x40\n      mstore\n      pop\n      dup2\n      add\n      swap1\n      tag_168\n      swap2\n      swap1\n      tag_112\n      jump\t// in\n    tag_168:\n        /* \"contracts/core/MProjectCreator.sol\":3385:3507  _profileId = alloRegistry.createProfile(getNonce(), _orgName, getMetadata(_metadataIpfsHash), msg.sender, _adminAddresses) */\n      swap1\n      pop\n        /* \"contracts/core/MProjectCreator.sol\":3552:3562  _profileId */\n      dup1\n        /* \"contracts/core/MProjectCreator.sol\":3521:3539  profileIdByOrgName */\n      0x07\n        /* \"contracts/core/MProjectCreator.sol\":3540:3548  _orgName */\n      dup6\n        /* \"contracts/core/MProjectCreator.sol\":3521:3549  profileIdByOrgName[_orgName] */\n      mload(0x40)\n      tag_170\n      swap2\n      swap1\n      tag_79\n      jump\t// in\n    tag_170:\n      swap1\n      dup2\n      mstore\n      mload(0x40)\n      swap1\n      dup2\n      swap1\n      sub\n      0x20\n      add\n      swap1\n      keccak256\n        /* \"contracts/core/MProjectCreator.sol\":3521:3562  profileIdByOrgName[_orgName] = _profileId */\n      sstore\n        /* \"contracts/core/MProjectCreator.sol\":2597:3600  function createFunderOrgProfile(string memory _orgName, string memory _metadataIpfsHash, address [] memory _adminAddresses) external returns (bytes32 _profileId){... */\n      swap4\n      swap3\n      pop\n      pop\n      pop\n      jump\t// out\n        /* \"contracts/core/MProjectCreator.sol\":2430:2589  function getProjectsByOrgName(string memory _orgName) view external returns (address [] memory _projects) {... */\n    tag_47:\n        /* \"contracts/core/MProjectCreator.sol\":2507:2534  address [] memory _projects */\n      0x60\n        /* \"contracts/core/MProjectCreator.sol\":2554:2571  projectsByOrgName */\n      0x09\n        /* \"contracts/core/MProjectCreator.sol\":2572:2580  _orgName */\n      dup3\n        /* \"contracts/core/MProjectCreator.sol\":2554:2581  projectsByOrgName[_orgName] */\n      mload(0x40)\n      tag_172\n      swap2\n      swap1\n      tag_79\n      jump\t// in\n    tag_172:\n      swap1\n      dup2\n      mstore\n      0x40\n      dup1\n      mload\n      swap2\n      dup3\n      swap1\n      sub\n      0x20\n      swap1\n      dup2\n      add\n      dup4\n      keccak256\n        /* \"contracts/core/MProjectCreator.sol\":2547:2581  return projectsByOrgName[_orgName] */\n      dup1\n      sload\n      dup1\n      dup4\n      mul\n      dup6\n      add\n      dup4\n      add\n      swap1\n      swap4\n      mstore\n      dup3\n      dup5\n      mstore\n        /* \"contracts/core/MProjectCreator.sol\":2554:2581  projectsByOrgName[_orgName] */\n      swap2\n        /* \"contracts/core/MProjectCreator.sol\":2547:2581  return projectsByOrgName[_orgName] */\n      swap1\n      dup4\n      add\n        /* \"contracts/core/MProjectCreator.sol\":2554:2581  projectsByOrgName[_orgName] */\n      dup3\n        /* \"contracts/core/MProjectCreator.sol\":2547:2581  return projectsByOrgName[_orgName] */\n      dup3\n      dup1\n      iszero\n      tag_173\n      jumpi\n      0x20\n      mul\n      dup3\n      add\n      swap2\n      swap1\n      0x00\n      mstore\n      keccak256(0x00, 0x20)\n      swap1\n    tag_174:\n      dup2\n      sload\n      sub(shl(0xa0, 0x01), 0x01)\n      and\n      dup2\n      mstore\n      0x01\n      swap1\n      swap2\n      add\n      swap1\n      0x20\n      add\n      dup1\n      dup4\n      gt\n      tag_174\n      jumpi\n    tag_173:\n      pop\n      pop\n      pop\n      pop\n      pop\n      swap1\n      pop\n        /* \"contracts/core/MProjectCreator.sol\":2430:2589  function getProjectsByOrgName(string memory _orgName) view external returns (address [] memory _projects) {... */\n      swap2\n      swap1\n      pop\n      jump\t// out\n        /* \"contracts/core/MProjectCreator.sol\":3608:4011  function addExternalProfile(bytes32 _profileId, string memory _profileName)  external returns (bool _added) {... */\n    tag_54:\n        /* \"contracts/core/MProjectCreator.sol\":3703:3714  bool _added */\n      0x00\n        /* \"contracts/core/MProjectCreator.sol\":3737:3749  knownOrgName */\n      0x05\n        /* \"contracts/core/MProjectCreator.sol\":3750:3762  _profileName */\n      dup3\n        /* \"contracts/core/MProjectCreator.sol\":3737:3763  knownOrgName[_profileName] */\n      mload(0x40)\n      tag_176\n      swap2\n      swap1\n      tag_79\n      jump\t// in\n    tag_176:\n      swap1\n      dup2\n      mstore\n      mload(0x40)\n      swap1\n      dup2\n      swap1\n      sub\n      0x20\n      add\n      swap1\n      keccak256\n      sload\n      0xff\n      and\n        /* \"contracts/core/MProjectCreator.sol\":3736:3763  !knownOrgName[_profileName] */\n      iszero\n        /* \"contracts/core/MProjectCreator.sol\":3728:3787  require(!knownOrgName[_profileName], \"org already created\") */\n      tag_177\n      jumpi\n      mload(0x40)\n      shl(0xe5, 0x461bcd)\n      dup2\n      mstore\n        /* \"#utility.yul\":14773:14775   */\n      0x20\n        /* \"contracts/core/MProjectCreator.sol\":3728:3787  require(!knownOrgName[_profileName], \"org already created\") */\n      0x04\n      dup3\n      add\n        /* \"#utility.yul\":14755:14776   */\n      mstore\n        /* \"#utility.yul\":14812:14814   */\n      0x13\n        /* \"#utility.yul\":14792:14810   */\n      0x24\n      dup3\n      add\n        /* \"#utility.yul\":14785:14815   */\n      mstore\n      shl(0x6a, 0x1bdc99c8185b1c9958591e4818dc99585d1959)\n        /* \"#utility.yul\":14831:14849   */\n      0x44\n      dup3\n      add\n        /* \"#utility.yul\":14824:14873   */\n      mstore\n        /* \"#utility.yul\":14890:14908   */\n      0x64\n      add\n        /* \"contracts/core/MProjectCreator.sol\":3728:3787  require(!knownOrgName[_profileName], \"org already created\") */\n      tag_81\n        /* \"#utility.yul\":14571:14914   */\n      jump\n        /* \"contracts/core/MProjectCreator.sol\":3728:3787  require(!knownOrgName[_profileName], \"org already created\") */\n    tag_177:\n        /* \"contracts/core/MProjectCreator.sol\":3827:3831  true */\n      0x01\n        /* \"contracts/core/MProjectCreator.sol\":3798:3810  knownOrgName */\n      0x05\n        /* \"contracts/core/MProjectCreator.sol\":3811:3823  _profileName */\n      dup4\n        /* \"contracts/core/MProjectCreator.sol\":3798:3824  knownOrgName[_profileName] */\n      mload(0x40)\n      tag_179\n      swap2\n      swap1\n      tag_79\n      jump\t// in\n    tag_179:\n      swap1\n      dup2\n      mstore\n      mload(0x40)\n      swap1\n      dup2\n      swap1\n      sub\n      0x20\n      add\n      swap1\n      keccak256\n        /* \"contracts/core/MProjectCreator.sol\":3798:3831  knownOrgName[_profileName] = true */\n      dup1\n      sload\n      swap2\n      iszero\n      iszero\n      not(0xff)\n      swap1\n      swap3\n      and\n      swap2\n      swap1\n      swap2\n      or\n      swap1\n      sstore\n        /* \"contracts/core/MProjectCreator.sol\":3842:3850  orgNames */\n      0x04\n        /* \"contracts/core/MProjectCreator.sol\":3842:3869  orgNames.push(_profileName) */\n      dup1\n      sload\n        /* \"contracts/core/MProjectCreator.sol\":3798:3831  knownOrgName[_profileName] = true */\n      0x01\n        /* \"contracts/core/MProjectCreator.sol\":3842:3869  orgNames.push(_profileName) */\n      dup2\n      add\n      dup3\n      sstore\n        /* \"contracts/core/MProjectCreator.sol\":3798:3824  knownOrgName[_profileName] */\n      0x00\n        /* \"contracts/core/MProjectCreator.sol\":3842:3869  orgNames.push(_profileName) */\n      swap2\n      swap1\n      swap2\n      mstore\n      0x8a35acfbc15ff81a39ae7d344fd709f28e8600b4aa8c65c6b64bfe7fe36bd19b\n      add\n      tag_181\n        /* \"contracts/core/MProjectCreator.sol\":3856:3868  _profileName */\n      dup4\n        /* \"contracts/core/MProjectCreator.sol\":3842:3869  orgNames.push(_profileName) */\n      dup3\n      tag_160\n      jump\t// in\n    tag_181:\n      pop\n        /* \"contracts/core/MProjectCreator.sol\":3916:3920  true */\n      0x01\n        /* \"contracts/core/MProjectCreator.sol\":3880:3899  hasProfileByOrgName */\n      0x06\n        /* \"contracts/core/MProjectCreator.sol\":3900:3912  _profileName */\n      dup4\n        /* \"contracts/core/MProjectCreator.sol\":3880:3913  hasProfileByOrgName[_profileName] */\n      mload(0x40)\n      tag_182\n      swap2\n      swap1\n      tag_79\n      jump\t// in\n    tag_182:\n      swap1\n      dup2\n      mstore\n      mload(0x40)\n      swap1\n      dup2\n      swap1\n      sub\n      0x20\n      add\n      dup2\n      keccak256\n        /* \"contracts/core/MProjectCreator.sol\":3880:3920  hasProfileByOrgName[_profileName] = true */\n      dup1\n      sload\n      swap3\n      iszero\n      iszero\n      not(0xff)\n      swap1\n      swap4\n      and\n      swap3\n      swap1\n      swap3\n      or\n      swap1\n      swap2\n      sstore\n        /* \"contracts/core/MProjectCreator.sol\":3969:3979  _profileId */\n      dup4\n      swap1\n        /* \"contracts/core/MProjectCreator.sol\":3934:3952  profileIdByOrgName */\n      0x07\n      swap1\n        /* \"contracts/core/MProjectCreator.sol\":3934:3966  profileIdByOrgName[_profileName] */\n      tag_183\n      swap1\n        /* \"contracts/core/MProjectCreator.sol\":3953:3965  _profileName */\n      dup6\n      swap1\n        /* \"contracts/core/MProjectCreator.sol\":3934:3966  profileIdByOrgName[_profileName] */\n      tag_79\n      jump\t// in\n    tag_183:\n      swap1\n      dup2\n      mstore\n      mload(0x40)\n      swap1\n      dup2\n      swap1\n      sub\n      0x20\n      add\n      swap1\n      keccak256\n        /* \"contracts/core/MProjectCreator.sol\":3934:3979  profileIdByOrgName[_profileName] = _profileId */\n      sstore\n      pop\n        /* \"contracts/core/MProjectCreator.sol\":3998:4002  true */\n      0x01\n        /* \"contracts/core/MProjectCreator.sol\":3608:4011  function addExternalProfile(bytes32 _profileId, string memory _profileName)  external returns (bool _added) {... */\n      swap3\n      swap2\n      pop\n      pop\n      jump\t// out\n        /* \"contracts/core/MProjectCreator.sol\":2279:2422  function getProfileId(string memory _orgName) view external returns (bytes32 _profileId) {... */\n    tag_60:\n        /* \"contracts/core/MProjectCreator.sol\":2348:2366  bytes32 _profileId */\n      0x00\n        /* \"contracts/core/MProjectCreator.sol\":2386:2404  profileIdByOrgName */\n      0x07\n        /* \"contracts/core/MProjectCreator.sol\":2405:2413  _orgName */\n      dup3\n        /* \"contracts/core/MProjectCreator.sol\":2386:2414  profileIdByOrgName[_orgName] */\n      mload(0x40)\n      tag_185\n      swap2\n      swap1\n      tag_79\n      jump\t// in\n    tag_185:\n      swap1\n      dup2\n      mstore\n      0x20\n      add\n      mload(0x40)\n      dup1\n      swap2\n      sub\n      swap1\n      keccak256\n      sload\n        /* \"contracts/core/MProjectCreator.sol\":2379:2414  return profileIdByOrgName[_orgName] */\n      swap1\n      pop\n        /* \"contracts/core/MProjectCreator.sol\":2279:2422  function getProfileId(string memory _orgName) view external returns (bytes32 _profileId) {... */\n      swap2\n      swap1\n      pop\n      jump\t// out\n        /* \"contracts/core/MProjectCreator.sol\":6045:6378  function notifyChangeOfAddress() external adminOnly returns (bool _acknowledged) {... */\n    tag_64:\n        /* \"contracts/core/MProjectCreator.sol\":6106:6124  bool _acknowledged */\n      0x00\n        /* \"contracts/core/MProjectCreator.sol\":624:632  register */\n      dup1\n      sload\n        /* \"contracts/core/MProjectCreator.sol\":644:654  M_ADMIN_CA */\n      0x40\n      dup1\n      mload\n      dup1\n      dup3\n      add\n      dup3\n      mstore\n      0x10\n      dup2\n      mstore\n      shl(0x81, 0x2922a9a2a92b22a22fa6afa0a226a4a7)\n      0x20\n      dup3\n      add\n      mstore\n        /* \"contracts/core/MProjectCreator.sol\":624:655  register.getAddress(M_ADMIN_CA) */\n      swap1\n      mload\n      shl(0xe0, 0xbf40fac1)\n      dup2\n      mstore\n      sub(shl(0xa0, 0x01), 0x01)\n        /* \"contracts/core/MProjectCreator.sol\":624:632  register */\n      swap1\n      swap3\n      and\n      swap2\n        /* \"contracts/core/MProjectCreator.sol\":624:643  register.getAddress */\n      0xbf40fac1\n      swap2\n        /* \"contracts/core/MProjectCreator.sol\":624:655  register.getAddress(M_ADMIN_CA) */\n      tag_187\n      swap2\n      0x04\n      add\n      tag_28\n      jump\t// in\n    tag_187:\n      0x20\n      mload(0x40)\n      dup1\n      dup4\n      sub\n      dup2\n      dup7\n      gas\n      staticcall\n      iszero\n      dup1\n      iszero\n      tag_189\n      jumpi\n      returndatasize\n      0x00\n      dup1\n      returndatacopy\n      revert(0x00, returndatasize)\n    tag_189:\n      pop\n      pop\n      pop\n      pop\n      mload(0x40)\n      returndatasize\n      not(0x1f)\n      0x1f\n      dup3\n      add\n      and\n      dup3\n      add\n      dup1\n      0x40\n      mstore\n      pop\n      dup2\n      add\n      swap1\n      tag_190\n      swap2\n      swap1\n      tag_104\n      jump\t// in\n    tag_190:\n      sub(shl(0xa0, 0x01), 0x01)\n        /* \"contracts/core/MProjectCreator.sol\":610:655  msg.sender == register.getAddress(M_ADMIN_CA) */\n      and\n        /* \"contracts/core/MProjectCreator.sol\":610:620  msg.sender */\n      caller\n      sub(shl(0xa0, 0x01), 0x01)\n        /* \"contracts/core/MProjectCreator.sol\":610:655  msg.sender == register.getAddress(M_ADMIN_CA) */\n      and\n      eq\n        /* \"contracts/core/MProjectCreator.sol\":602:672  require(msg.sender == register.getAddress(M_ADMIN_CA), \" admin only \") */\n      tag_191\n      jumpi\n      mload(0x40)\n      shl(0xe5, 0x461bcd)\n      dup2\n      mstore\n        /* \"#utility.yul\":18694:18696   */\n      0x20\n        /* \"contracts/core/MProjectCreator.sol\":602:672  require(msg.sender == register.getAddress(M_ADMIN_CA), \" admin only \") */\n      0x04\n      dup3\n      add\n        /* \"#utility.yul\":18676:18697   */\n      mstore\n        /* \"#utility.yul\":18733:18735   */\n      0x0c\n        /* \"#utility.yul\":18713:18731   */\n      0x24\n      dup3\n      add\n        /* \"#utility.yul\":18706:18736   */\n      mstore\n      shl(0xa5, 0x01030b236b4b71037b7363c9)\n        /* \"#utility.yul\":18752:18770   */\n      0x44\n      dup3\n      add\n        /* \"#utility.yul\":18745:18787   */\n      mstore\n        /* \"#utility.yul\":18804:18822   */\n      0x64\n      add\n        /* \"contracts/core/MProjectCreator.sol\":602:672  require(msg.sender == register.getAddress(M_ADMIN_CA), \" admin only \") */\n      tag_81\n        /* \"#utility.yul\":18492:18828   */\n      jump\n        /* \"contracts/core/MProjectCreator.sol\":602:672  require(msg.sender == register.getAddress(M_ADMIN_CA), \" admin only \") */\n    tag_191:\n        /* \"contracts/core/MProjectCreator.sol\":6150:6158  register */\n      sload(0x00)\n        /* \"contracts/core/MProjectCreator.sol\":6170:6177  ALLO_CA */\n      0x40\n      dup1\n      mload\n      dup1\n      dup3\n      add\n      dup3\n      mstore\n      0x12\n      dup2\n      mstore\n      shl(0x70, 0x52455345525645445f414c4c4f5f434f5245)\n      0x20\n      dup3\n      add\n      mstore\n        /* \"contracts/core/MProjectCreator.sol\":6150:6178  register.getAddress(ALLO_CA) */\n      swap1\n      mload\n      shl(0xe0, 0xbf40fac1)\n      dup2\n      mstore\n      sub(shl(0xa0, 0x01), 0x01)\n        /* \"contracts/core/MProjectCreator.sol\":6150:6158  register */\n      swap1\n      swap3\n      and\n      swap2\n        /* \"contracts/core/MProjectCreator.sol\":6150:6169  register.getAddress */\n      0xbf40fac1\n      swap2\n        /* \"contracts/core/MProjectCreator.sol\":6150:6178  register.getAddress(ALLO_CA) */\n      tag_195\n      swap2\n      0x04\n      add\n      tag_28\n      jump\t// in\n    tag_195:\n      0x20\n      mload(0x40)\n      dup1\n      dup4\n      sub\n      dup2\n      dup7\n      gas\n      staticcall\n      iszero\n      dup1\n      iszero\n      tag_197\n      jumpi\n      returndatasize\n      0x00\n      dup1\n      returndatacopy\n      revert(0x00, returndatasize)\n    tag_197:\n      pop\n      pop\n      pop\n      pop\n      mload(0x40)\n      returndatasize\n      not(0x1f)\n      0x1f\n      dup3\n      add\n      and\n      dup3\n      add\n      dup1\n      0x40\n      mstore\n      pop\n      dup2\n      add\n      swap1\n      tag_198\n      swap2\n      swap1\n      tag_104\n      jump\t// in\n    tag_198:\n        /* \"contracts/core/MProjectCreator.sol\":6137:6141  allo */\n      0x02\n        /* \"contracts/core/MProjectCreator.sol\":6137:6179  allo = IAllo(register.getAddress(ALLO_CA)) */\n      dup1\n      sload\n      not(sub(shl(0xa0, 0x01), 0x01))\n      and\n      sub(shl(0xa0, 0x01), 0x01)\n      swap3\n      dup4\n      and\n      or\n      swap1\n      sstore\n      0x00\n        /* \"contracts/core/MProjectCreator.sol\":6215:6223  register */\n      sload\n        /* \"contracts/core/MProjectCreator.sol\":6235:6259  ALLO_PROFILE_REGISTER_CA */\n      0x40\n      dup1\n      mload\n      dup1\n      dup3\n      add\n      dup3\n      mstore\n      0x1e\n      dup2\n      mstore\n      0x52455345525645445f414c4c4f5f50524f46494c455f52454749535445520000\n      0x20\n      dup3\n      add\n      mstore\n        /* \"contracts/core/MProjectCreator.sol\":6215:6260  register.getAddress(ALLO_PROFILE_REGISTER_CA) */\n      swap1\n      mload\n      shl(0xe0, 0xbf40fac1)\n      dup2\n      mstore\n        /* \"contracts/core/MProjectCreator.sol\":6215:6223  register */\n      swap2\n      swap1\n      swap3\n      and\n      swap2\n        /* \"contracts/core/MProjectCreator.sol\":6215:6234  register.getAddress */\n      0xbf40fac1\n      swap2\n        /* \"contracts/core/MProjectCreator.sol\":6215:6260  register.getAddress(ALLO_PROFILE_REGISTER_CA) */\n      tag_199\n      swap2\n        /* \"contracts/core/MProjectCreator.sol\":6235:6259  ALLO_PROFILE_REGISTER_CA */\n      swap1\n        /* \"contracts/core/MProjectCreator.sol\":6215:6260  register.getAddress(ALLO_PROFILE_REGISTER_CA) */\n      0x04\n      add\n      tag_28\n      jump\t// in\n    tag_199:\n      0x20\n      mload(0x40)\n      dup1\n      dup4\n      sub\n      dup2\n      dup7\n      gas\n      staticcall\n      iszero\n      dup1\n      iszero\n      tag_201\n      jumpi\n      returndatasize\n      0x00\n      dup1\n      returndatacopy\n      revert(0x00, returndatasize)\n    tag_201:\n      pop\n      pop\n      pop\n      pop\n      mload(0x40)\n      returndatasize\n      not(0x1f)\n      0x1f\n      dup3\n      add\n      and\n      dup3\n      add\n      dup1\n      0x40\n      mstore\n      pop\n      dup2\n      add\n      swap1\n      tag_202\n      swap2\n      swap1\n      tag_104\n      jump\t// in\n    tag_202:\n        /* \"contracts/core/MProjectCreator.sol\":6190:6202  alloRegistry */\n      0x01\n        /* \"contracts/core/MProjectCreator.sol\":6190:6261  alloRegistry = IRegistry(register.getAddress(ALLO_PROFILE_REGISTER_CA)) */\n      dup1\n      sload\n      not(sub(shl(0xa0, 0x01), 0x01))\n      and\n      sub(shl(0xa0, 0x01), 0x01)\n      swap3\n      dup4\n      and\n      or\n      swap1\n      sstore\n      0x00\n        /* \"contracts/core/MProjectCreator.sol\":6307:6315  register */\n      sload\n        /* \"contracts/core/MProjectCreator.sol\":6327:6345  PROJECT_FACTORY_CA */\n      0x40\n      dup1\n      mload\n      dup1\n      dup3\n      add\n      dup3\n      mstore\n      0x18\n      dup2\n      mstore\n      0x52455345525645445f50524f4a4543545f464143544f52590000000000000000\n      0x20\n      dup3\n      add\n      mstore\n        /* \"contracts/core/MProjectCreator.sol\":6307:6346  register.getAddress(PROJECT_FACTORY_CA) */\n      swap1\n      mload\n      shl(0xe0, 0xbf40fac1)\n      dup2\n      mstore\n        /* \"contracts/core/MProjectCreator.sol\":6307:6315  register */\n      swap2\n      swap1\n      swap3\n      and\n      swap2\n        /* \"contracts/core/MProjectCreator.sol\":6307:6326  register.getAddress */\n      0xbf40fac1\n      swap2\n        /* \"contracts/core/MProjectCreator.sol\":6307:6346  register.getAddress(PROJECT_FACTORY_CA) */\n      tag_203\n      swap2\n        /* \"contracts/core/MProjectCreator.sol\":6327:6345  PROJECT_FACTORY_CA */\n      swap1\n        /* \"contracts/core/MProjectCreator.sol\":6307:6346  register.getAddress(PROJECT_FACTORY_CA) */\n      0x04\n      add\n      tag_28\n      jump\t// in\n    tag_203:\n      0x20\n      mload(0x40)\n      dup1\n      dup4\n      sub\n      dup2\n      dup7\n      gas\n      staticcall\n      iszero\n      dup1\n      iszero\n      tag_205\n      jumpi\n      returndatasize\n      0x00\n      dup1\n      returndatacopy\n      revert(0x00, returndatasize)\n    tag_205:\n      pop\n      pop\n      pop\n      pop\n      mload(0x40)\n      returndatasize\n      not(0x1f)\n      0x1f\n      dup3\n      add\n      and\n      dup3\n      add\n      dup1\n      0x40\n      mstore\n      pop\n      dup2\n      add\n      swap1\n      tag_206\n      swap2\n      swap1\n      tag_104\n      jump\t// in\n    tag_206:\n        /* \"contracts/core/MProjectCreator.sol\":6273:6287  projectFactory */\n      0x03\n        /* \"contracts/core/MProjectCreator.sol\":6273:6347  projectFactory = IMProjectFactory(register.getAddress(PROJECT_FACTORY_CA)) */\n      dup1\n      sload\n      not(sub(shl(0xa0, 0x01), 0x01))\n      and\n      sub(shl(0xa0, 0x01), 0x01)\n      swap3\n      swap1\n      swap3\n      and\n      swap2\n      swap1\n      swap2\n      or\n      swap1\n      sstore\n      pop\n      0x01\n      swap1\n        /* \"contracts/core/MProjectCreator.sol\":6045:6378  function notifyChangeOfAddress() external adminOnly returns (bool _acknowledged) {... */\n      jump\t// out\n        /* \"contracts/core/MProjectCreator.sol\":2115:2271  function getPoolIdsByOrgName(string memory _orgName) view external returns (uint256 [] memory _poolIds) {... */\n    tag_69:\n        /* \"contracts/core/MProjectCreator.sol\":2191:2217  uint256 [] memory _poolIds */\n      0x60\n        /* \"contracts/core/MProjectCreator.sol\":2237:2253  poolIdsByOrgName */\n      0x08\n        /* \"contracts/core/MProjectCreator.sol\":2254:2262  _orgName */\n      dup3\n        /* \"contracts/core/MProjectCreator.sol\":2237:2263  poolIdsByOrgName[_orgName] */\n      mload(0x40)\n      tag_208\n      swap2\n      swap1\n      tag_79\n      jump\t// in\n    tag_208:\n      swap1\n      dup2\n      mstore\n      0x40\n      dup1\n      mload\n      swap2\n      dup3\n      swap1\n      sub\n      0x20\n      swap1\n      dup2\n      add\n      dup4\n      keccak256\n        /* \"contracts/core/MProjectCreator.sol\":2230:2263  return poolIdsByOrgName[_orgName] */\n      dup1\n      sload\n      dup1\n      dup4\n      mul\n      dup6\n      add\n      dup4\n      add\n      swap1\n      swap4\n      mstore\n      dup3\n      dup5\n      mstore\n        /* \"contracts/core/MProjectCreator.sol\":2237:2263  poolIdsByOrgName[_orgName] */\n      swap2\n        /* \"contracts/core/MProjectCreator.sol\":2230:2263  return poolIdsByOrgName[_orgName] */\n      swap1\n      dup4\n      add\n        /* \"contracts/core/MProjectCreator.sol\":2237:2263  poolIdsByOrgName[_orgName] */\n      dup3\n        /* \"contracts/core/MProjectCreator.sol\":2230:2263  return poolIdsByOrgName[_orgName] */\n      dup3\n      dup1\n      iszero\n      tag_173\n      jumpi\n      0x20\n      mul\n      dup3\n      add\n      swap2\n      swap1\n      0x00\n      mstore\n      keccak256(0x00, 0x20)\n      swap1\n    tag_210:\n      dup2\n      sload\n      dup2\n      mstore\n      0x20\n      add\n      swap1\n      0x01\n      add\n      swap1\n      dup1\n      dup4\n      gt\n      tag_210\n      jumpi\n      pop\n      pop\n      pop\n      pop\n      pop\n      swap1\n      pop\n        /* \"contracts/core/MProjectCreator.sol\":2115:2271  function getPoolIdsByOrgName(string memory _orgName) view external returns (uint256 [] memory _poolIds) {... */\n      swap2\n      swap1\n      pop\n      jump\t// out\n        /* \"contracts/core/MProjectCreator.sol\":2006:2107  function getOrgs() view external returns (string [] memory _orgs) {... */\n    tag_74:\n        /* \"contracts/core/MProjectCreator.sol\":2048:2070  string [] memory _orgs */\n      0x60\n        /* \"contracts/core/MProjectCreator.sol\":2090:2098  orgNames */\n      0x04\n        /* \"contracts/core/MProjectCreator.sol\":2083:2098  return orgNames */\n      dup1\n      sload\n      dup1\n      0x20\n      mul\n      0x20\n      add\n      mload(0x40)\n      swap1\n      dup2\n      add\n      0x40\n      mstore\n      dup1\n      swap3\n      swap2\n      swap1\n      dup2\n      dup2\n      mstore\n      0x20\n      add\n      0x00\n      swap1\n    tag_212:\n      dup3\n      dup3\n      lt\n      iszero\n      tag_213\n      jumpi\n      dup4\n      dup3\n      swap1\n      0x00\n      mstore\n      keccak256(0x00, 0x20)\n      add\n      dup1\n      sload\n      tag_215\n      swap1\n      tag_216\n      jump\t// in\n    tag_215:\n      dup1\n      0x1f\n      add\n      0x20\n      dup1\n      swap2\n      div\n      mul\n      0x20\n      add\n      mload(0x40)\n      swap1\n      dup2\n      add\n      0x40\n      mstore\n      dup1\n      swap3\n      swap2\n      swap1\n      dup2\n      dup2\n      mstore\n      0x20\n      add\n      dup3\n      dup1\n      sload\n      tag_217\n      swap1\n      tag_216\n      jump\t// in\n    tag_217:\n      dup1\n      iszero\n      tag_218\n      jumpi\n      dup1\n      0x1f\n      lt\n      tag_219\n      jumpi\n      0x0100\n      dup1\n      dup4\n      sload\n      div\n      mul\n      dup4\n      mstore\n      swap2\n      0x20\n      add\n      swap2\n      jump(tag_218)\n    tag_219:\n      dup3\n      add\n      swap2\n      swap1\n      0x00\n      mstore\n      keccak256(0x00, 0x20)\n      swap1\n    tag_220:\n      dup2\n      sload\n      dup2\n      mstore\n      swap1\n      0x01\n      add\n      swap1\n      0x20\n      add\n      dup1\n      dup4\n      gt\n      tag_220\n      jumpi\n      dup3\n      swap1\n      sub\n      0x1f\n      and\n      dup3\n      add\n      swap2\n    tag_218:\n      pop\n      pop\n      pop\n      pop\n      pop\n      dup2\n      mstore\n      0x20\n      add\n      swap1\n      0x01\n      add\n      swap1\n      jump(tag_212)\n    tag_213:\n      pop\n      pop\n      pop\n      pop\n      swap1\n      pop\n        /* \"contracts/core/MProjectCreator.sol\":2006:2107  function getOrgs() view external returns (string [] memory _orgs) {... */\n      swap1\n      jump\t// out\n        /* \"#utility.yul\":14:141   */\n    tag_225:\n        /* \"#utility.yul\":75:85   */\n      0x4e487b71\n        /* \"#utility.yul\":70:73   */\n      0xe0\n        /* \"#utility.yul\":66:86   */\n      shl\n        /* \"#utility.yul\":63:64   */\n      0x00\n        /* \"#utility.yul\":56:87   */\n      mstore\n        /* \"#utility.yul\":106:110   */\n      0x41\n        /* \"#utility.yul\":103:104   */\n      0x04\n        /* \"#utility.yul\":96:111   */\n      mstore\n        /* \"#utility.yul\":130:134   */\n      0x24\n        /* \"#utility.yul\":127:128   */\n      0x00\n        /* \"#utility.yul\":120:135   */\n      revert\n        /* \"#utility.yul\":146:421   */\n    tag_226:\n        /* \"#utility.yul\":217:219   */\n      0x40\n        /* \"#utility.yul\":211:220   */\n      mload\n        /* \"#utility.yul\":282:284   */\n      0x1f\n        /* \"#utility.yul\":263:276   */\n      dup3\n      add\n      not(0x1f)\n        /* \"#utility.yul\":259:286   */\n      and\n        /* \"#utility.yul\":247:287   */\n      dup2\n      add\n        /* \"#utility.yul\":317:335   */\n      0xffffffffffffffff\n        /* \"#utility.yul\":302:336   */\n      dup2\n      gt\n        /* \"#utility.yul\":338:360   */\n      dup3\n      dup3\n      lt\n        /* \"#utility.yul\":299:361   */\n      or\n        /* \"#utility.yul\":296:384   */\n      iszero\n      tag_241\n      jumpi\n        /* \"#utility.yul\":364:382   */\n      tag_241\n      tag_225\n      jump\t// in\n    tag_241:\n        /* \"#utility.yul\":400:402   */\n      0x40\n        /* \"#utility.yul\":393:415   */\n      mstore\n        /* \"#utility.yul\":146:421   */\n      swap2\n      swap1\n      pop\n      jump\t// out\n        /* \"#utility.yul\":426:957   */\n    tag_227:\n        /* \"#utility.yul\":469:474   */\n      0x00\n        /* \"#utility.yul\":522:525   */\n      dup3\n        /* \"#utility.yul\":515:519   */\n      0x1f\n        /* \"#utility.yul\":507:513   */\n      dup4\n        /* \"#utility.yul\":503:520   */\n      add\n        /* \"#utility.yul\":499:526   */\n      slt\n        /* \"#utility.yul\":489:544   */\n      tag_243\n      jumpi\n        /* \"#utility.yul\":540:541   */\n      0x00\n        /* \"#utility.yul\":537:538   */\n      dup1\n        /* \"#utility.yul\":530:542   */\n      revert\n        /* \"#utility.yul\":489:544   */\n    tag_243:\n        /* \"#utility.yul\":576:582   */\n      dup2\n        /* \"#utility.yul\":563:583   */\n      calldataload\n        /* \"#utility.yul\":602:620   */\n      0xffffffffffffffff\n        /* \"#utility.yul\":598:600   */\n      dup2\n        /* \"#utility.yul\":595:621   */\n      gt\n        /* \"#utility.yul\":592:644   */\n      iszero\n      tag_245\n      jumpi\n        /* \"#utility.yul\":624:642   */\n      tag_245\n      tag_225\n      jump\t// in\n    tag_245:\n        /* \"#utility.yul\":668:723   */\n      tag_246\n        /* \"#utility.yul\":711:713   */\n      0x1f\n        /* \"#utility.yul\":692:705   */\n      dup3\n      add\n      not(0x1f)\n        /* \"#utility.yul\":688:715   */\n      and\n        /* \"#utility.yul\":717:721   */\n      0x20\n        /* \"#utility.yul\":684:722   */\n      add\n        /* \"#utility.yul\":668:723   */\n      tag_226\n      jump\t// in\n    tag_246:\n        /* \"#utility.yul\":748:750   */\n      dup2\n        /* \"#utility.yul\":739:746   */\n      dup2\n        /* \"#utility.yul\":732:751   */\n      mstore\n        /* \"#utility.yul\":794:797   */\n      dup5\n        /* \"#utility.yul\":787:791   */\n      0x20\n        /* \"#utility.yul\":782:784   */\n      dup4\n        /* \"#utility.yul\":774:780   */\n      dup7\n        /* \"#utility.yul\":770:785   */\n      add\n        /* \"#utility.yul\":766:792   */\n      add\n        /* \"#utility.yul\":763:798   */\n      gt\n        /* \"#utility.yul\":760:815   */\n      iszero\n      tag_247\n      jumpi\n        /* \"#utility.yul\":811:812   */\n      0x00\n        /* \"#utility.yul\":808:809   */\n      dup1\n        /* \"#utility.yul\":801:813   */\n      revert\n        /* \"#utility.yul\":760:815   */\n    tag_247:\n        /* \"#utility.yul\":876:878   */\n      dup2\n        /* \"#utility.yul\":869:873   */\n      0x20\n        /* \"#utility.yul\":861:867   */\n      dup6\n        /* \"#utility.yul\":857:874   */\n      add\n        /* \"#utility.yul\":850:854   */\n      0x20\n        /* \"#utility.yul\":841:848   */\n      dup4\n        /* \"#utility.yul\":837:855   */\n      add\n        /* \"#utility.yul\":824:879   */\n      calldatacopy\n        /* \"#utility.yul\":924:925   */\n      0x00\n        /* \"#utility.yul\":899:915   */\n      swap2\n      dup2\n      add\n        /* \"#utility.yul\":917:921   */\n      0x20\n        /* \"#utility.yul\":895:922   */\n      add\n        /* \"#utility.yul\":888:926   */\n      swap2\n      swap1\n      swap2\n      mstore\n        /* \"#utility.yul\":903:910   */\n      swap4\n        /* \"#utility.yul\":426:957   */\n      swap3\n      pop\n      pop\n      pop\n      jump\t// out\n        /* \"#utility.yul\":962:1093   */\n    tag_228:\n      sub(shl(0xa0, 0x01), 0x01)\n        /* \"#utility.yul\":1037:1068   */\n      dup2\n      and\n        /* \"#utility.yul\":1027:1069   */\n      dup2\n      eq\n        /* \"#utility.yul\":1017:1087   */\n      tag_249\n      jumpi\n        /* \"#utility.yul\":1083:1084   */\n      0x00\n        /* \"#utility.yul\":1080:1081   */\n      dup1\n        /* \"#utility.yul\":1073:1085   */\n      revert\n        /* \"#utility.yul\":1017:1087   */\n    tag_249:\n        /* \"#utility.yul\":962:1093   */\n      pop\n      jump\t// out\n        /* \"#utility.yul\":1098:1885   */\n    tag_229:\n        /* \"#utility.yul\":1152:1157   */\n      0x00\n        /* \"#utility.yul\":1205:1208   */\n      dup3\n        /* \"#utility.yul\":1198:1202   */\n      0x1f\n        /* \"#utility.yul\":1190:1196   */\n      dup4\n        /* \"#utility.yul\":1186:1203   */\n      add\n        /* \"#utility.yul\":1182:1209   */\n      slt\n        /* \"#utility.yul\":1172:1227   */\n      tag_251\n      jumpi\n        /* \"#utility.yul\":1223:1224   */\n      0x00\n        /* \"#utility.yul\":1220:1221   */\n      dup1\n        /* \"#utility.yul\":1213:1225   */\n      revert\n        /* \"#utility.yul\":1172:1227   */\n    tag_251:\n        /* \"#utility.yul\":1259:1265   */\n      dup2\n        /* \"#utility.yul\":1246:1266   */\n      calldataload\n        /* \"#utility.yul\":1285:1289   */\n      0x20\n        /* \"#utility.yul\":1308:1326   */\n      0xffffffffffffffff\n        /* \"#utility.yul\":1304:1306   */\n      dup3\n        /* \"#utility.yul\":1301:1327   */\n      gt\n        /* \"#utility.yul\":1298:1350   */\n      iszero\n      tag_253\n      jumpi\n        /* \"#utility.yul\":1330:1348   */\n      tag_253\n      tag_225\n      jump\t// in\n    tag_253:\n        /* \"#utility.yul\":1376:1378   */\n      dup2\n        /* \"#utility.yul\":1373:1374   */\n      0x05\n        /* \"#utility.yul\":1369:1379   */\n      shl\n        /* \"#utility.yul\":1399:1427   */\n      tag_254\n        /* \"#utility.yul\":1423:1425   */\n      dup3\n        /* \"#utility.yul\":1419:1421   */\n      dup3\n        /* \"#utility.yul\":1415:1426   */\n      add\n        /* \"#utility.yul\":1399:1427   */\n      tag_226\n      jump\t// in\n    tag_254:\n        /* \"#utility.yul\":1461:1476   */\n      swap3\n      dup4\n      mstore\n        /* \"#utility.yul\":1531:1546   */\n      dup5\n      dup2\n      add\n        /* \"#utility.yul\":1527:1551   */\n      dup3\n      add\n      swap3\n        /* \"#utility.yul\":1492:1504   */\n      dup3\n      dup2\n      add\n      swap1\n        /* \"#utility.yul\":1563:1578   */\n      dup8\n      dup6\n      gt\n        /* \"#utility.yul\":1560:1595   */\n      iszero\n      tag_255\n      jumpi\n        /* \"#utility.yul\":1591:1592   */\n      0x00\n        /* \"#utility.yul\":1588:1589   */\n      dup1\n        /* \"#utility.yul\":1581:1593   */\n      revert\n        /* \"#utility.yul\":1560:1595   */\n    tag_255:\n        /* \"#utility.yul\":1627:1629   */\n      dup4\n        /* \"#utility.yul\":1619:1625   */\n      dup8\n        /* \"#utility.yul\":1615:1630   */\n      add\n        /* \"#utility.yul\":1604:1630   */\n      swap3\n      pop\n        /* \"#utility.yul\":1639:1856   */\n    tag_256:\n        /* \"#utility.yul\":1655:1661   */\n      dup5\n        /* \"#utility.yul\":1650:1653   */\n      dup4\n        /* \"#utility.yul\":1647:1662   */\n      lt\n        /* \"#utility.yul\":1639:1856   */\n      iszero\n      tag_258\n      jumpi\n        /* \"#utility.yul\":1735:1738   */\n      dup3\n        /* \"#utility.yul\":1722:1739   */\n      calldataload\n        /* \"#utility.yul\":1752:1783   */\n      tag_259\n        /* \"#utility.yul\":1777:1782   */\n      dup2\n        /* \"#utility.yul\":1752:1783   */\n      tag_228\n      jump\t// in\n    tag_259:\n        /* \"#utility.yul\":1796:1814   */\n      dup3\n      mstore\n        /* \"#utility.yul\":1672:1684   */\n      swap2\n      dup4\n      add\n      swap2\n        /* \"#utility.yul\":1834:1846   */\n      swap1\n      dup4\n      add\n      swap1\n        /* \"#utility.yul\":1639:1856   */\n      jump(tag_256)\n    tag_258:\n        /* \"#utility.yul\":1874:1879   */\n      swap8\n        /* \"#utility.yul\":1098:1885   */\n      swap7\n      pop\n      pop\n      pop\n      pop\n      pop\n      pop\n      pop\n      jump\t// out\n        /* \"#utility.yul\":1890:2933   */\n    tag_16:\n        /* \"#utility.yul\":2039:2045   */\n      0x00\n        /* \"#utility.yul\":2047:2053   */\n      dup1\n        /* \"#utility.yul\":2055:2061   */\n      0x00\n        /* \"#utility.yul\":2063:2069   */\n      dup1\n        /* \"#utility.yul\":2071:2077   */\n      0x00\n        /* \"#utility.yul\":2079:2085   */\n      dup1\n        /* \"#utility.yul\":2132:2135   */\n      0xc0\n        /* \"#utility.yul\":2120:2129   */\n      dup8\n        /* \"#utility.yul\":2111:2118   */\n      dup10\n        /* \"#utility.yul\":2107:2130   */\n      sub\n        /* \"#utility.yul\":2103:2136   */\n      slt\n        /* \"#utility.yul\":2100:2153   */\n      iszero\n      tag_261\n      jumpi\n        /* \"#utility.yul\":2149:2150   */\n      0x00\n        /* \"#utility.yul\":2146:2147   */\n      dup1\n        /* \"#utility.yul\":2139:2151   */\n      revert\n        /* \"#utility.yul\":2100:2153   */\n    tag_261:\n        /* \"#utility.yul\":2189:2198   */\n      dup7\n        /* \"#utility.yul\":2176:2199   */\n      calldataload\n        /* \"#utility.yul\":2218:2236   */\n      0xffffffffffffffff\n        /* \"#utility.yul\":2259:2261   */\n      dup1\n        /* \"#utility.yul\":2251:2257   */\n      dup3\n        /* \"#utility.yul\":2248:2262   */\n      gt\n        /* \"#utility.yul\":2245:2279   */\n      iszero\n      tag_262\n      jumpi\n        /* \"#utility.yul\":2275:2276   */\n      0x00\n        /* \"#utility.yul\":2272:2273   */\n      dup1\n        /* \"#utility.yul\":2265:2277   */\n      revert\n        /* \"#utility.yul\":2245:2279   */\n    tag_262:\n        /* \"#utility.yul\":2298:2348   */\n      tag_263\n        /* \"#utility.yul\":2340:2347   */\n      dup11\n        /* \"#utility.yul\":2331:2337   */\n      dup4\n        /* \"#utility.yul\":2320:2329   */\n      dup12\n        /* \"#utility.yul\":2316:2338   */\n      add\n        /* \"#utility.yul\":2298:2348   */\n      tag_227\n      jump\t// in\n    tag_263:\n        /* \"#utility.yul\":2288:2348   */\n      swap8\n      pop\n        /* \"#utility.yul\":2398:2400   */\n      0x20\n        /* \"#utility.yul\":2387:2396   */\n      dup10\n        /* \"#utility.yul\":2383:2401   */\n      add\n        /* \"#utility.yul\":2370:2402   */\n      calldataload\n        /* \"#utility.yul\":2357:2402   */\n      swap2\n      pop\n        /* \"#utility.yul\":2411:2442   */\n      tag_264\n        /* \"#utility.yul\":2436:2441   */\n      dup3\n        /* \"#utility.yul\":2411:2442   */\n      tag_228\n      jump\t// in\n    tag_264:\n        /* \"#utility.yul\":2461:2466   */\n      swap1\n      swap6\n      pop\n        /* \"#utility.yul\":2513:2515   */\n      0x40\n        /* \"#utility.yul\":2498:2516   */\n      dup9\n      add\n        /* \"#utility.yul\":2485:2517   */\n      calldataload\n      swap5\n      pop\n        /* \"#utility.yul\":2564:2566   */\n      0x60\n        /* \"#utility.yul\":2549:2567   */\n      dup9\n      add\n        /* \"#utility.yul\":2536:2568   */\n      calldataload\n      swap4\n      pop\n        /* \"#utility.yul\":2621:2624   */\n      0x80\n        /* \"#utility.yul\":2606:2625   */\n      dup9\n      add\n        /* \"#utility.yul\":2593:2626   */\n      calldataload\n      swap1\n        /* \"#utility.yul\":2638:2654   */\n      dup1\n      dup3\n      gt\n        /* \"#utility.yul\":2635:2671   */\n      iszero\n      tag_265\n      jumpi\n        /* \"#utility.yul\":2667:2668   */\n      0x00\n        /* \"#utility.yul\":2664:2665   */\n      dup1\n        /* \"#utility.yul\":2657:2669   */\n      revert\n        /* \"#utility.yul\":2635:2671   */\n    tag_265:\n        /* \"#utility.yul\":2690:2742   */\n      tag_266\n        /* \"#utility.yul\":2734:2741   */\n      dup11\n        /* \"#utility.yul\":2723:2731   */\n      dup4\n        /* \"#utility.yul\":2712:2721   */\n      dup12\n        /* \"#utility.yul\":2708:2732   */\n      add\n        /* \"#utility.yul\":2690:2742   */\n      tag_227\n      jump\t// in\n    tag_266:\n        /* \"#utility.yul\":2680:2742   */\n      swap4\n      pop\n        /* \"#utility.yul\":2795:2798   */\n      0xa0\n        /* \"#utility.yul\":2784:2793   */\n      dup10\n        /* \"#utility.yul\":2780:2799   */\n      add\n        /* \"#utility.yul\":2767:2800   */\n      calldataload\n        /* \"#utility.yul\":2751:2800   */\n      swap2\n      pop\n        /* \"#utility.yul\":2825:2827   */\n      dup1\n        /* \"#utility.yul\":2815:2823   */\n      dup3\n        /* \"#utility.yul\":2812:2828   */\n      gt\n        /* \"#utility.yul\":2809:2845   */\n      iszero\n      tag_267\n      jumpi\n        /* \"#utility.yul\":2841:2842   */\n      0x00\n        /* \"#utility.yul\":2838:2839   */\n      dup1\n        /* \"#utility.yul\":2831:2843   */\n      revert\n        /* \"#utility.yul\":2809:2845   */\n    tag_267:\n      pop\n        /* \"#utility.yul\":2864:2927   */\n      tag_268\n        /* \"#utility.yul\":2919:2926   */\n      dup10\n        /* \"#utility.yul\":2908:2916   */\n      dup3\n        /* \"#utility.yul\":2897:2906   */\n      dup11\n        /* \"#utility.yul\":2893:2917   */\n      add\n        /* \"#utility.yul\":2864:2927   */\n      tag_229\n      jump\t// in\n    tag_268:\n        /* \"#utility.yul\":2854:2927   */\n      swap2\n      pop\n      pop\n        /* \"#utility.yul\":1890:2933   */\n      swap3\n      swap6\n      pop\n      swap3\n      swap6\n      pop\n      swap3\n      swap6\n      jump\t// out\n        /* \"#utility.yul\":3120:3370   */\n    tag_230:\n        /* \"#utility.yul\":3205:3206   */\n      0x00\n        /* \"#utility.yul\":3215:3328   */\n    tag_271:\n        /* \"#utility.yul\":3229:3235   */\n      dup4\n        /* \"#utility.yul\":3226:3227   */\n      dup2\n        /* \"#utility.yul\":3223:3236   */\n      lt\n        /* \"#utility.yul\":3215:3328   */\n      iszero\n      tag_273\n      jumpi\n        /* \"#utility.yul\":3305:3316   */\n      dup2\n      dup2\n      add\n        /* \"#utility.yul\":3299:3317   */\n      mload\n        /* \"#utility.yul\":3286:3297   */\n      dup4\n      dup3\n      add\n        /* \"#utility.yul\":3279:3318   */\n      mstore\n        /* \"#utility.yul\":3251:3253   */\n      0x20\n        /* \"#utility.yul\":3244:3254   */\n      add\n        /* \"#utility.yul\":3215:3328   */\n      jump(tag_271)\n    tag_273:\n      pop\n      pop\n        /* \"#utility.yul\":3362:3363   */\n      0x00\n        /* \"#utility.yul\":3344:3360   */\n      swap2\n      add\n        /* \"#utility.yul\":3337:3364   */\n      mstore\n        /* \"#utility.yul\":3120:3370   */\n      jump\t// out\n        /* \"#utility.yul\":3375:3646   */\n    tag_231:\n        /* \"#utility.yul\":3417:3420   */\n      0x00\n        /* \"#utility.yul\":3455:3460   */\n      dup2\n        /* \"#utility.yul\":3449:3461   */\n      mload\n        /* \"#utility.yul\":3482:3488   */\n      dup1\n        /* \"#utility.yul\":3477:3480   */\n      dup5\n        /* \"#utility.yul\":3470:3489   */\n      mstore\n        /* \"#utility.yul\":3498:3574   */\n      tag_275\n        /* \"#utility.yul\":3567:3573   */\n      dup2\n        /* \"#utility.yul\":3560:3564   */\n      0x20\n        /* \"#utility.yul\":3555:3558   */\n      dup7\n        /* \"#utility.yul\":3551:3565   */\n      add\n        /* \"#utility.yul\":3544:3548   */\n      0x20\n        /* \"#utility.yul\":3537:3542   */\n      dup7\n        /* \"#utility.yul\":3533:3549   */\n      add\n        /* \"#utility.yul\":3498:3574   */\n      tag_230\n      jump\t// in\n    tag_275:\n        /* \"#utility.yul\":3628:3630   */\n      0x1f\n        /* \"#utility.yul\":3607:3622   */\n      add\n      not(0x1f)\n        /* \"#utility.yul\":3603:3632   */\n      and\n        /* \"#utility.yul\":3594:3633   */\n      swap3\n      swap1\n      swap3\n      add\n        /* \"#utility.yul\":3635:3639   */\n      0x20\n        /* \"#utility.yul\":3590:3640   */\n      add\n      swap3\n        /* \"#utility.yul\":3375:3646   */\n      swap2\n      pop\n      pop\n      jump\t// out\n        /* \"#utility.yul\":3651:3871   */\n    tag_28:\n        /* \"#utility.yul\":3800:3802   */\n      0x20\n        /* \"#utility.yul\":3789:3798   */\n      dup2\n        /* \"#utility.yul\":3782:3803   */\n      mstore\n        /* \"#utility.yul\":3763:3767   */\n      0x00\n        /* \"#utility.yul\":3820:3865   */\n      tag_277\n        /* \"#utility.yul\":3861:3863   */\n      0x20\n        /* \"#utility.yul\":3850:3859   */\n      dup4\n        /* \"#utility.yul\":3846:3864   */\n      add\n        /* \"#utility.yul\":3838:3844   */\n      dup5\n        /* \"#utility.yul\":3820:3865   */\n      tag_231\n      jump\t// in\n    tag_277:\n        /* \"#utility.yul\":3812:3865   */\n      swap4\n        /* \"#utility.yul\":3651:3871   */\n      swap3\n      pop\n      pop\n      pop\n      jump\t// out\n        /* \"#utility.yul\":3876:4556   */\n    tag_32:\n        /* \"#utility.yul\":3982:3988   */\n      0x00\n        /* \"#utility.yul\":3990:3996   */\n      dup1\n        /* \"#utility.yul\":3998:4004   */\n      0x00\n        /* \"#utility.yul\":4006:4012   */\n      dup1\n        /* \"#utility.yul\":4059:4062   */\n      0x80\n        /* \"#utility.yul\":4047:4056   */\n      dup6\n        /* \"#utility.yul\":4038:4045   */\n      dup8\n        /* \"#utility.yul\":4034:4057   */\n      sub\n        /* \"#utility.yul\":4030:4063   */\n      slt\n        /* \"#utility.yul\":4027:4080   */\n      iszero\n      tag_279\n      jumpi\n        /* \"#utility.yul\":4076:4077   */\n      0x00\n        /* \"#utility.yul\":4073:4074   */\n      dup1\n        /* \"#utility.yul\":4066:4078   */\n      revert\n        /* \"#utility.yul\":4027:4080   */\n    tag_279:\n        /* \"#utility.yul\":4116:4125   */\n      dup5\n        /* \"#utility.yul\":4103:4126   */\n      calldataload\n        /* \"#utility.yul\":4145:4163   */\n      0xffffffffffffffff\n        /* \"#utility.yul\":4186:4188   */\n      dup1\n        /* \"#utility.yul\":4178:4184   */\n      dup3\n        /* \"#utility.yul\":4175:4189   */\n      gt\n        /* \"#utility.yul\":4172:4206   */\n      iszero\n      tag_280\n      jumpi\n        /* \"#utility.yul\":4202:4203   */\n      0x00\n        /* \"#utility.yul\":4199:4200   */\n      dup1\n        /* \"#utility.yul\":4192:4204   */\n      revert\n        /* \"#utility.yul\":4172:4206   */\n    tag_280:\n        /* \"#utility.yul\":4225:4275   */\n      tag_281\n        /* \"#utility.yul\":4267:4274   */\n      dup9\n        /* \"#utility.yul\":4258:4264   */\n      dup4\n        /* \"#utility.yul\":4247:4256   */\n      dup10\n        /* \"#utility.yul\":4243:4265   */\n      add\n        /* \"#utility.yul\":4225:4275   */\n      tag_227\n      jump\t// in\n    tag_281:\n        /* \"#utility.yul\":4215:4275   */\n      swap6\n      pop\n        /* \"#utility.yul\":4322:4324   */\n      0x20\n        /* \"#utility.yul\":4311:4320   */\n      dup8\n        /* \"#utility.yul\":4307:4325   */\n      add\n        /* \"#utility.yul\":4294:4326   */\n      calldataload\n        /* \"#utility.yul\":4284:4326   */\n      swap5\n      pop\n        /* \"#utility.yul\":4379:4381   */\n      0x40\n        /* \"#utility.yul\":4368:4377   */\n      dup8\n        /* \"#utility.yul\":4364:4382   */\n      add\n        /* \"#utility.yul\":4351:4383   */\n      calldataload\n        /* \"#utility.yul\":4335:4383   */\n      swap2\n      pop\n        /* \"#utility.yul\":4408:4410   */\n      dup1\n        /* \"#utility.yul\":4398:4406   */\n      dup3\n        /* \"#utility.yul\":4395:4411   */\n      gt\n        /* \"#utility.yul\":4392:4428   */\n      iszero\n      tag_282\n      jumpi\n        /* \"#utility.yul\":4424:4425   */\n      0x00\n        /* \"#utility.yul\":4421:4422   */\n      dup1\n        /* \"#utility.yul\":4414:4426   */\n      revert\n        /* \"#utility.yul\":4392:4428   */\n    tag_282:\n      pop\n        /* \"#utility.yul\":4447:4499   */\n      tag_283\n        /* \"#utility.yul\":4491:4498   */\n      dup8\n        /* \"#utility.yul\":4480:4488   */\n      dup3\n        /* \"#utility.yul\":4469:4478   */\n      dup9\n        /* \"#utility.yul\":4465:4489   */\n      add\n        /* \"#utility.yul\":4447:4499   */\n      tag_227\n      jump\t// in\n    tag_283:\n        /* \"#utility.yul\":3876:4556   */\n      swap5\n      swap8\n      swap4\n      swap7\n      pop\n        /* \"#utility.yul\":4437:4499   */\n      swap4\n      swap5\n        /* \"#utility.yul\":4546:4548   */\n      0x60\n        /* \"#utility.yul\":4531:4549   */\n      add\n        /* \"#utility.yul\":4518:4550   */\n      calldataload\n      swap4\n      pop\n      pop\n      pop\n        /* \"#utility.yul\":3876:4556   */\n      jump\t// out\n        /* \"#utility.yul\":4769:5538   */\n    tag_39:\n        /* \"#utility.yul\":4891:4897   */\n      0x00\n        /* \"#utility.yul\":4899:4905   */\n      dup1\n        /* \"#utility.yul\":4907:4913   */\n      0x00\n        /* \"#utility.yul\":4960:4962   */\n      0x60\n        /* \"#utility.yul\":4948:4957   */\n      dup5\n        /* \"#utility.yul\":4939:4946   */\n      dup7\n        /* \"#utility.yul\":4935:4958   */\n      sub\n        /* \"#utility.yul\":4931:4963   */\n      slt\n        /* \"#utility.yul\":4928:4980   */\n      iszero\n      tag_286\n      jumpi\n        /* \"#utility.yul\":4976:4977   */\n      0x00\n        /* \"#utility.yul\":4973:4974   */\n      dup1\n        /* \"#utility.yul\":4966:4978   */\n      revert\n        /* \"#utility.yul\":4928:4980   */\n    tag_286:\n        /* \"#utility.yul\":5016:5025   */\n      dup4\n        /* \"#utility.yul\":5003:5026   */\n      calldataload\n        /* \"#utility.yul\":5045:5063   */\n      0xffffffffffffffff\n        /* \"#utility.yul\":5086:5088   */\n      dup1\n        /* \"#utility.yul\":5078:5084   */\n      dup3\n        /* \"#utility.yul\":5075:5089   */\n      gt\n        /* \"#utility.yul\":5072:5106   */\n      iszero\n      tag_287\n      jumpi\n        /* \"#utility.yul\":5102:5103   */\n      0x00\n        /* \"#utility.yul\":5099:5100   */\n      dup1\n        /* \"#utility.yul\":5092:5104   */\n      revert\n        /* \"#utility.yul\":5072:5106   */\n    tag_287:\n        /* \"#utility.yul\":5125:5175   */\n      tag_288\n        /* \"#utility.yul\":5167:5174   */\n      dup8\n        /* \"#utility.yul\":5158:5164   */\n      dup4\n        /* \"#utility.yul\":5147:5156   */\n      dup9\n        /* \"#utility.yul\":5143:5165   */\n      add\n        /* \"#utility.yul\":5125:5175   */\n      tag_227\n      jump\t// in\n    tag_288:\n        /* \"#utility.yul\":5115:5175   */\n      swap5\n      pop\n        /* \"#utility.yul\":5228:5230   */\n      0x20\n        /* \"#utility.yul\":5217:5226   */\n      dup7\n        /* \"#utility.yul\":5213:5231   */\n      add\n        /* \"#utility.yul\":5200:5232   */\n      calldataload\n        /* \"#utility.yul\":5184:5232   */\n      swap2\n      pop\n        /* \"#utility.yul\":5257:5259   */\n      dup1\n        /* \"#utility.yul\":5247:5255   */\n      dup3\n        /* \"#utility.yul\":5244:5260   */\n      gt\n        /* \"#utility.yul\":5241:5277   */\n      iszero\n      tag_289\n      jumpi\n        /* \"#utility.yul\":5273:5274   */\n      0x00\n        /* \"#utility.yul\":5270:5271   */\n      dup1\n        /* \"#utility.yul\":5263:5275   */\n      revert\n        /* \"#utility.yul\":5241:5277   */\n    tag_289:\n        /* \"#utility.yul\":5296:5348   */\n      tag_290\n        /* \"#utility.yul\":5340:5347   */\n      dup8\n        /* \"#utility.yul\":5329:5337   */\n      dup4\n        /* \"#utility.yul\":5318:5327   */\n      dup9\n        /* \"#utility.yul\":5314:5338   */\n      add\n        /* \"#utility.yul\":5296:5348   */\n      tag_227\n      jump\t// in\n    tag_290:\n        /* \"#utility.yul\":5286:5348   */\n      swap4\n      pop\n        /* \"#utility.yul\":5401:5403   */\n      0x40\n        /* \"#utility.yul\":5390:5399   */\n      dup7\n        /* \"#utility.yul\":5386:5404   */\n      add\n        /* \"#utility.yul\":5373:5405   */\n      calldataload\n        /* \"#utility.yul\":5357:5405   */\n      swap2\n      pop\n        /* \"#utility.yul\":5430:5432   */\n      dup1\n        /* \"#utility.yul\":5420:5428   */\n      dup3\n        /* \"#utility.yul\":5417:5433   */\n      gt\n        /* \"#utility.yul\":5414:5450   */\n      iszero\n      tag_291\n      jumpi\n        /* \"#utility.yul\":5446:5447   */\n      0x00\n        /* \"#utility.yul\":5443:5444   */\n      dup1\n        /* \"#utility.yul\":5436:5448   */\n      revert\n        /* \"#utility.yul\":5414:5450   */\n    tag_291:\n      pop\n        /* \"#utility.yul\":5469:5532   */\n      tag_292\n        /* \"#utility.yul\":5524:5531   */\n      dup7\n        /* \"#utility.yul\":5513:5521   */\n      dup3\n        /* \"#utility.yul\":5502:5511   */\n      dup8\n        /* \"#utility.yul\":5498:5522   */\n      add\n        /* \"#utility.yul\":5469:5532   */\n      tag_229\n      jump\t// in\n    tag_292:\n        /* \"#utility.yul\":5459:5532   */\n      swap2\n      pop\n      pop\n        /* \"#utility.yul\":4769:5538   */\n      swap3\n      pop\n      swap3\n      pop\n      swap3\n      jump\t// out\n        /* \"#utility.yul\":5725:6047   */\n    tag_46:\n        /* \"#utility.yul\":5794:5800   */\n      0x00\n        /* \"#utility.yul\":5847:5849   */\n      0x20\n        /* \"#utility.yul\":5835:5844   */\n      dup3\n        /* \"#utility.yul\":5826:5833   */\n      dup5\n        /* \"#utility.yul\":5822:5845   */\n      sub\n        /* \"#utility.yul\":5818:5850   */\n      slt\n        /* \"#utility.yul\":5815:5867   */\n      iszero\n      tag_295\n      jumpi\n        /* \"#utility.yul\":5863:5864   */\n      0x00\n        /* \"#utility.yul\":5860:5861   */\n      dup1\n        /* \"#utility.yul\":5853:5865   */\n      revert\n        /* \"#utility.yul\":5815:5867   */\n    tag_295:\n        /* \"#utility.yul\":5903:5912   */\n      dup2\n        /* \"#utility.yul\":5890:5913   */\n      calldataload\n        /* \"#utility.yul\":5936:5954   */\n      0xffffffffffffffff\n        /* \"#utility.yul\":5928:5934   */\n      dup2\n        /* \"#utility.yul\":5925:5955   */\n      gt\n        /* \"#utility.yul\":5922:5972   */\n      iszero\n      tag_296\n      jumpi\n        /* \"#utility.yul\":5968:5969   */\n      0x00\n        /* \"#utility.yul\":5965:5966   */\n      dup1\n        /* \"#utility.yul\":5958:5970   */\n      revert\n        /* \"#utility.yul\":5922:5972   */\n    tag_296:\n        /* \"#utility.yul\":5991:6041   */\n      tag_297\n        /* \"#utility.yul\":6033:6040   */\n      dup5\n        /* \"#utility.yul\":6024:6030   */\n      dup3\n        /* \"#utility.yul\":6013:6022   */\n      dup6\n        /* \"#utility.yul\":6009:6031   */\n      add\n        /* \"#utility.yul\":5991:6041   */\n      tag_227\n      jump\t// in\n    tag_297:\n        /* \"#utility.yul\":5981:6041   */\n      swap5\n        /* \"#utility.yul\":5725:6047   */\n      swap4\n      pop\n      pop\n      pop\n      pop\n      jump\t// out\n        /* \"#utility.yul\":6052:6517   */\n    tag_232:\n        /* \"#utility.yul\":6105:6108   */\n      0x00\n        /* \"#utility.yul\":6143:6148   */\n      dup2\n        /* \"#utility.yul\":6137:6149   */\n      mload\n        /* \"#utility.yul\":6170:6176   */\n      dup1\n        /* \"#utility.yul\":6165:6168   */\n      dup5\n        /* \"#utility.yul\":6158:6177   */\n      mstore\n        /* \"#utility.yul\":6196:6200   */\n      0x20\n        /* \"#utility.yul\":6225:6229   */\n      dup1\n        /* \"#utility.yul\":6220:6223   */\n      dup6\n        /* \"#utility.yul\":6216:6230   */\n      add\n        /* \"#utility.yul\":6209:6230   */\n      swap5\n      pop\n        /* \"#utility.yul\":6264:6268   */\n      0x20\n        /* \"#utility.yul\":6257:6262   */\n      dup5\n        /* \"#utility.yul\":6253:6269   */\n      add\n        /* \"#utility.yul\":6287:6288   */\n      0x00\n        /* \"#utility.yul\":6297:6492   */\n    tag_299:\n        /* \"#utility.yul\":6311:6317   */\n      dup4\n        /* \"#utility.yul\":6308:6309   */\n      dup2\n        /* \"#utility.yul\":6305:6318   */\n      lt\n        /* \"#utility.yul\":6297:6492   */\n      iszero\n      tag_301\n      jumpi\n        /* \"#utility.yul\":6376:6389   */\n      dup2\n      mload\n      sub(shl(0xa0, 0x01), 0x01)\n        /* \"#utility.yul\":6372:6411   */\n      and\n        /* \"#utility.yul\":6360:6412   */\n      dup8\n      mstore\n        /* \"#utility.yul\":6432:6444   */\n      swap6\n      dup3\n      add\n      swap6\n        /* \"#utility.yul\":6467:6482   */\n      swap1\n      dup3\n      add\n      swap1\n        /* \"#utility.yul\":6408:6409   */\n      0x01\n        /* \"#utility.yul\":6326:6335   */\n      add\n        /* \"#utility.yul\":6297:6492   */\n      jump(tag_299)\n    tag_301:\n      pop\n        /* \"#utility.yul\":6508:6511   */\n      swap5\n      swap6\n        /* \"#utility.yul\":6052:6517   */\n      swap5\n      pop\n      pop\n      pop\n      pop\n      pop\n      jump\t// out\n        /* \"#utility.yul\":6522:6783   */\n    tag_49:\n        /* \"#utility.yul\":6701:6703   */\n      0x20\n        /* \"#utility.yul\":6690:6699   */\n      dup2\n        /* \"#utility.yul\":6683:6704   */\n      mstore\n        /* \"#utility.yul\":6664:6668   */\n      0x00\n        /* \"#utility.yul\":6721:6777   */\n      tag_277\n        /* \"#utility.yul\":6773:6775   */\n      0x20\n        /* \"#utility.yul\":6762:6771   */\n      dup4\n        /* \"#utility.yul\":6758:6776   */\n      add\n        /* \"#utility.yul\":6750:6756   */\n      dup5\n        /* \"#utility.yul\":6721:6777   */\n      tag_232\n      jump\t// in\n        /* \"#utility.yul\":6788:7178   */\n    tag_53:\n        /* \"#utility.yul\":6866:6872   */\n      0x00\n        /* \"#utility.yul\":6874:6880   */\n      dup1\n        /* \"#utility.yul\":6927:6929   */\n      0x40\n        /* \"#utility.yul\":6915:6924   */\n      dup4\n        /* \"#utility.yul\":6906:6913   */\n      dup6\n        /* \"#utility.yul\":6902:6925   */\n      sub\n        /* \"#utility.yul\":6898:6930   */\n      slt\n        /* \"#utility.yul\":6895:6947   */\n      iszero\n      tag_305\n      jumpi\n        /* \"#utility.yul\":6943:6944   */\n      0x00\n        /* \"#utility.yul\":6940:6941   */\n      dup1\n        /* \"#utility.yul\":6933:6945   */\n      revert\n        /* \"#utility.yul\":6895:6947   */\n    tag_305:\n        /* \"#utility.yul\":6979:6988   */\n      dup3\n        /* \"#utility.yul\":6966:6989   */\n      calldataload\n        /* \"#utility.yul\":6956:6989   */\n      swap2\n      pop\n        /* \"#utility.yul\":7040:7042   */\n      0x20\n        /* \"#utility.yul\":7029:7038   */\n      dup4\n        /* \"#utility.yul\":7025:7043   */\n      add\n        /* \"#utility.yul\":7012:7044   */\n      calldataload\n        /* \"#utility.yul\":7067:7085   */\n      0xffffffffffffffff\n        /* \"#utility.yul\":7059:7065   */\n      dup2\n        /* \"#utility.yul\":7056:7086   */\n      gt\n        /* \"#utility.yul\":7053:7103   */\n      iszero\n      tag_306\n      jumpi\n        /* \"#utility.yul\":7099:7100   */\n      0x00\n        /* \"#utility.yul\":7096:7097   */\n      dup1\n        /* \"#utility.yul\":7089:7101   */\n      revert\n        /* \"#utility.yul\":7053:7103   */\n    tag_306:\n        /* \"#utility.yul\":7122:7172   */\n      tag_307\n        /* \"#utility.yul\":7164:7171   */\n      dup6\n        /* \"#utility.yul\":7155:7161   */\n      dup3\n        /* \"#utility.yul\":7144:7153   */\n      dup7\n        /* \"#utility.yul\":7140:7162   */\n      add\n        /* \"#utility.yul\":7122:7172   */\n      tag_227\n      jump\t// in\n    tag_307:\n        /* \"#utility.yul\":7112:7172   */\n      swap2\n      pop\n      pop\n        /* \"#utility.yul\":6788:7178   */\n      swap3\n      pop\n      swap3\n      swap1\n      pop\n      jump\t// out\n        /* \"#utility.yul\":7375:8007   */\n    tag_71:\n        /* \"#utility.yul\":7546:7548   */\n      0x20\n        /* \"#utility.yul\":7598:7619   */\n      dup1\n      dup3\n      mstore\n        /* \"#utility.yul\":7668:7681   */\n      dup3\n      mload\n        /* \"#utility.yul\":7571:7589   */\n      dup3\n      dup3\n      add\n        /* \"#utility.yul\":7690:7712   */\n      dup2\n      swap1\n      mstore\n        /* \"#utility.yul\":7517:7521   */\n      0x00\n      swap2\n        /* \"#utility.yul\":7546:7548   */\n      swap1\n        /* \"#utility.yul\":7769:7784   */\n      dup5\n      dup3\n      add\n      swap1\n        /* \"#utility.yul\":7743:7745   */\n      0x40\n        /* \"#utility.yul\":7728:7746   */\n      dup6\n      add\n      swap1\n        /* \"#utility.yul\":7517:7521   */\n      dup5\n        /* \"#utility.yul\":7812:7981   */\n    tag_310:\n        /* \"#utility.yul\":7826:7832   */\n      dup2\n        /* \"#utility.yul\":7823:7824   */\n      dup2\n        /* \"#utility.yul\":7820:7833   */\n      lt\n        /* \"#utility.yul\":7812:7981   */\n      iszero\n      tag_312\n      jumpi\n        /* \"#utility.yul\":7887:7900   */\n      dup4\n      mload\n        /* \"#utility.yul\":7875:7901   */\n      dup4\n      mstore\n        /* \"#utility.yul\":7956:7971   */\n      swap3\n      dup5\n      add\n      swap3\n        /* \"#utility.yul\":7921:7933   */\n      swap2\n      dup5\n      add\n      swap2\n        /* \"#utility.yul\":7848:7849   */\n      0x01\n        /* \"#utility.yul\":7841:7850   */\n      add\n        /* \"#utility.yul\":7812:7981   */\n      jump(tag_310)\n    tag_312:\n      pop\n        /* \"#utility.yul\":7998:8001   */\n      swap1\n      swap7\n        /* \"#utility.yul\":7375:8007   */\n      swap6\n      pop\n      pop\n      pop\n      pop\n      pop\n      pop\n      jump\t// out\n        /* \"#utility.yul\":8012:8815   */\n    tag_76:\n        /* \"#utility.yul\":8174:8178   */\n      0x00\n        /* \"#utility.yul\":8203:8205   */\n      0x20\n        /* \"#utility.yul\":8243:8245   */\n      dup1\n        /* \"#utility.yul\":8232:8241   */\n      dup4\n        /* \"#utility.yul\":8228:8246   */\n      add\n        /* \"#utility.yul\":8273:8275   */\n      0x20\n        /* \"#utility.yul\":8262:8271   */\n      dup5\n        /* \"#utility.yul\":8255:8276   */\n      mstore\n        /* \"#utility.yul\":8296:8302   */\n      dup1\n        /* \"#utility.yul\":8331:8337   */\n      dup6\n        /* \"#utility.yul\":8325:8338   */\n      mload\n        /* \"#utility.yul\":8362:8368   */\n      dup1\n        /* \"#utility.yul\":8354:8360   */\n      dup4\n        /* \"#utility.yul\":8347:8369   */\n      mstore\n        /* \"#utility.yul\":8400:8402   */\n      0x40\n        /* \"#utility.yul\":8389:8398   */\n      dup7\n        /* \"#utility.yul\":8385:8403   */\n      add\n        /* \"#utility.yul\":8378:8403   */\n      swap2\n      pop\n        /* \"#utility.yul\":8462:8464   */\n      0x40\n        /* \"#utility.yul\":8452:8458   */\n      dup2\n        /* \"#utility.yul\":8449:8450   */\n      0x05\n        /* \"#utility.yul\":8445:8459   */\n      shl\n        /* \"#utility.yul\":8434:8443   */\n      dup8\n        /* \"#utility.yul\":8430:8460   */\n      add\n        /* \"#utility.yul\":8426:8465   */\n      add\n        /* \"#utility.yul\":8412:8465   */\n      swap3\n      pop\n        /* \"#utility.yul\":8500:8502   */\n      0x20\n        /* \"#utility.yul\":8492:8498   */\n      dup8\n        /* \"#utility.yul\":8488:8503   */\n      add\n        /* \"#utility.yul\":8521:8522   */\n      0x00\n        /* \"#utility.yul\":8531:8786   */\n    tag_314:\n        /* \"#utility.yul\":8545:8551   */\n      dup3\n        /* \"#utility.yul\":8542:8543   */\n      dup2\n        /* \"#utility.yul\":8539:8552   */\n      lt\n        /* \"#utility.yul\":8531:8786   */\n      iszero\n      tag_316\n      jumpi\n        /* \"#utility.yul\":8638:8640   */\n      0x3f\n        /* \"#utility.yul\":8634:8641   */\n      not\n        /* \"#utility.yul\":8622:8631   */\n      dup9\n        /* \"#utility.yul\":8614:8620   */\n      dup7\n        /* \"#utility.yul\":8610:8632   */\n      sub\n        /* \"#utility.yul\":8606:8642   */\n      add\n        /* \"#utility.yul\":8601:8604   */\n      dup5\n        /* \"#utility.yul\":8594:8643   */\n      mstore\n        /* \"#utility.yul\":8666:8706   */\n      tag_317\n        /* \"#utility.yul\":8699:8705   */\n      dup6\n        /* \"#utility.yul\":8690:8696   */\n      dup4\n        /* \"#utility.yul\":8684:8697   */\n      mload\n        /* \"#utility.yul\":8666:8706   */\n      tag_231\n      jump\t// in\n    tag_317:\n        /* \"#utility.yul\":8656:8706   */\n      swap5\n      pop\n        /* \"#utility.yul\":8764:8776   */\n      swap3\n      dup6\n      add\n      swap3\n        /* \"#utility.yul\":8729:8744   */\n      swap1\n      dup6\n      add\n      swap1\n        /* \"#utility.yul\":8567:8568   */\n      0x01\n        /* \"#utility.yul\":8560:8569   */\n      add\n        /* \"#utility.yul\":8531:8786   */\n      jump(tag_314)\n    tag_316:\n      pop\n        /* \"#utility.yul\":8803:8809   */\n      swap3\n      swap8\n        /* \"#utility.yul\":8012:8815   */\n      swap7\n      pop\n      pop\n      pop\n      pop\n      pop\n      pop\n      pop\n      jump\t// out\n        /* \"#utility.yul\":8820:9109   */\n    tag_79:\n        /* \"#utility.yul\":8951:8954   */\n      0x00\n        /* \"#utility.yul\":8989:8995   */\n      dup3\n        /* \"#utility.yul\":8983:8996   */\n      mload\n        /* \"#utility.yul\":9005:9071   */\n      tag_319\n        /* \"#utility.yul\":9064:9070   */\n      dup2\n        /* \"#utility.yul\":9059:9062   */\n      dup5\n        /* \"#utility.yul\":9052:9056   */\n      0x20\n        /* \"#utility.yul\":9044:9050   */\n      dup8\n        /* \"#utility.yul\":9040:9057   */\n      add\n        /* \"#utility.yul\":9005:9071   */\n      tag_230\n      jump\t// in\n    tag_319:\n        /* \"#utility.yul\":9087:9103   */\n      swap2\n      swap1\n      swap2\n      add\n      swap3\n        /* \"#utility.yul\":8820:9109   */\n      swap2\n      pop\n      pop\n      jump\t// out\n        /* \"#utility.yul\":10670:10947   */\n    tag_96:\n        /* \"#utility.yul\":10737:10743   */\n      0x00\n        /* \"#utility.yul\":10790:10792   */\n      0x20\n        /* \"#utility.yul\":10778:10787   */\n      dup3\n        /* \"#utility.yul\":10769:10776   */\n      dup5\n        /* \"#utility.yul\":10765:10788   */\n      sub\n        /* \"#utility.yul\":10761:10793   */\n      slt\n        /* \"#utility.yul\":10758:10810   */\n      iszero\n      tag_325\n      jumpi\n        /* \"#utility.yul\":10806:10807   */\n      0x00\n        /* \"#utility.yul\":10803:10804   */\n      dup1\n        /* \"#utility.yul\":10796:10808   */\n      revert\n        /* \"#utility.yul\":10758:10810   */\n    tag_325:\n        /* \"#utility.yul\":10838:10847   */\n      dup2\n        /* \"#utility.yul\":10832:10848   */\n      mload\n        /* \"#utility.yul\":10891:10896   */\n      dup1\n        /* \"#utility.yul\":10884:10897   */\n      iszero\n        /* \"#utility.yul\":10877:10898   */\n      iszero\n        /* \"#utility.yul\":10870:10875   */\n      dup2\n        /* \"#utility.yul\":10867:10899   */\n      eq\n        /* \"#utility.yul\":10857:10917   */\n      tag_277\n      jumpi\n        /* \"#utility.yul\":10913:10914   */\n      0x00\n        /* \"#utility.yul\":10910:10911   */\n      dup1\n        /* \"#utility.yul\":10903:10915   */\n      revert\n        /* \"#utility.yul\":11281:11532   */\n    tag_104:\n        /* \"#utility.yul\":11351:11357   */\n      0x00\n        /* \"#utility.yul\":11404:11406   */\n      0x20\n        /* \"#utility.yul\":11392:11401   */\n      dup3\n        /* \"#utility.yul\":11383:11390   */\n      dup5\n        /* \"#utility.yul\":11379:11402   */\n      sub\n        /* \"#utility.yul\":11375:11407   */\n      slt\n        /* \"#utility.yul\":11372:11424   */\n      iszero\n      tag_329\n      jumpi\n        /* \"#utility.yul\":11420:11421   */\n      0x00\n        /* \"#utility.yul\":11417:11418   */\n      dup1\n        /* \"#utility.yul\":11410:11422   */\n      revert\n        /* \"#utility.yul\":11372:11424   */\n    tag_329:\n        /* \"#utility.yul\":11452:11461   */\n      dup2\n        /* \"#utility.yul\":11446:11462   */\n      mload\n        /* \"#utility.yul\":11471:11502   */\n      tag_277\n        /* \"#utility.yul\":11496:11501   */\n      dup2\n        /* \"#utility.yul\":11471:11502   */\n      tag_228\n      jump\t// in\n        /* \"#utility.yul\":11537:11789   */\n    tag_233:\n        /* \"#utility.yul\":11624:11629   */\n      dup1\n        /* \"#utility.yul\":11618:11630   */\n      mload\n        /* \"#utility.yul\":11613:11616   */\n      dup3\n        /* \"#utility.yul\":11606:11631   */\n      mstore\n        /* \"#utility.yul\":11588:11591   */\n      0x00\n        /* \"#utility.yul\":11677:11681   */\n      0x20\n        /* \"#utility.yul\":11670:11675   */\n      dup3\n        /* \"#utility.yul\":11666:11682   */\n      add\n        /* \"#utility.yul\":11660:11683   */\n      mload\n        /* \"#utility.yul\":11715:11719   */\n      0x40\n        /* \"#utility.yul\":11708:11712   */\n      0x20\n        /* \"#utility.yul\":11703:11706   */\n      dup6\n        /* \"#utility.yul\":11699:11713   */\n      add\n        /* \"#utility.yul\":11692:11720   */\n      mstore\n        /* \"#utility.yul\":11736:11783   */\n      tag_297\n        /* \"#utility.yul\":11777:11781   */\n      0x40\n        /* \"#utility.yul\":11772:11775   */\n      dup6\n        /* \"#utility.yul\":11768:11782   */\n      add\n        /* \"#utility.yul\":11754:11766   */\n      dup3\n        /* \"#utility.yul\":11736:11783   */\n      tag_231\n      jump\t// in\n        /* \"#utility.yul\":11794:12765   */\n    tag_108:\n        /* \"#utility.yul\":12211:12217   */\n      dup8\n        /* \"#utility.yul\":12200:12209   */\n      dup2\n        /* \"#utility.yul\":12193:12218   */\n      mstore\n        /* \"#utility.yul\":12174:12178   */\n      0x00\n        /* \"#utility.yul\":12254:12255   */\n      0x01\n        /* \"#utility.yul\":12250:12251   */\n      dup1\n        /* \"#utility.yul\":12245:12248   */\n      0xa0\n        /* \"#utility.yul\":12241:12252   */\n      shl\n        /* \"#utility.yul\":12237:12256   */\n      sub\n        /* \"#utility.yul\":12304:12306   */\n      dup1\n        /* \"#utility.yul\":12296:12302   */\n      dup10\n        /* \"#utility.yul\":12292:12307   */\n      and\n        /* \"#utility.yul\":12287:12289   */\n      0x20\n        /* \"#utility.yul\":12276:12285   */\n      dup5\n        /* \"#utility.yul\":12272:12290   */\n      add\n        /* \"#utility.yul\":12265:12308   */\n      mstore\n        /* \"#utility.yul\":12344:12347   */\n      0xe0\n        /* \"#utility.yul\":12339:12341   */\n      0x40\n        /* \"#utility.yul\":12328:12337   */\n      dup5\n        /* \"#utility.yul\":12324:12342   */\n      add\n        /* \"#utility.yul\":12317:12348   */\n      mstore\n        /* \"#utility.yul\":12371:12417   */\n      tag_334\n        /* \"#utility.yul\":12412:12415   */\n      0xe0\n        /* \"#utility.yul\":12401:12410   */\n      dup5\n        /* \"#utility.yul\":12397:12416   */\n      add\n        /* \"#utility.yul\":12389:12395   */\n      dup10\n        /* \"#utility.yul\":12371:12417   */\n      tag_231\n      jump\t// in\n    tag_334:\n        /* \"#utility.yul\":12465:12467   */\n      dup2\n        /* \"#utility.yul\":12457:12463   */\n      dup9\n        /* \"#utility.yul\":12453:12468   */\n      and\n        /* \"#utility.yul\":12448:12450   */\n      0x60\n        /* \"#utility.yul\":12437:12446   */\n      dup6\n        /* \"#utility.yul\":12433:12451   */\n      add\n        /* \"#utility.yul\":12426:12469   */\n      mstore\n        /* \"#utility.yul\":12506:12512   */\n      dup7\n        /* \"#utility.yul\":12500:12503   */\n      0x80\n        /* \"#utility.yul\":12489:12498   */\n      dup6\n        /* \"#utility.yul\":12485:12504   */\n      add\n        /* \"#utility.yul\":12478:12513   */\n      mstore\n        /* \"#utility.yul\":12562:12571   */\n      dup4\n        /* \"#utility.yul\":12554:12560   */\n      dup2\n        /* \"#utility.yul\":12550:12572   */\n      sub\n        /* \"#utility.yul\":12544:12547   */\n      0xa0\n        /* \"#utility.yul\":12533:12542   */\n      dup6\n        /* \"#utility.yul\":12529:12548   */\n      add\n        /* \"#utility.yul\":12522:12573   */\n      mstore\n        /* \"#utility.yul\":12596:12638   */\n      tag_335\n        /* \"#utility.yul\":12631:12637   */\n      dup2\n        /* \"#utility.yul\":12623:12629   */\n      dup8\n        /* \"#utility.yul\":12596:12638   */\n      tag_233\n      jump\t// in\n    tag_335:\n        /* \"#utility.yul\":12582:12638   */\n      swap2\n      pop\n      pop\n        /* \"#utility.yul\":12687:12696   */\n      dup3\n        /* \"#utility.yul\":12679:12685   */\n      dup2\n        /* \"#utility.yul\":12675:12697   */\n      sub\n        /* \"#utility.yul\":12669:12672   */\n      0xc0\n        /* \"#utility.yul\":12658:12667   */\n      dup5\n        /* \"#utility.yul\":12654:12673   */\n      add\n        /* \"#utility.yul\":12647:12698   */\n      mstore\n        /* \"#utility.yul\":12715:12759   */\n      tag_336\n        /* \"#utility.yul\":12752:12758   */\n      dup2\n        /* \"#utility.yul\":12744:12750   */\n      dup6\n        /* \"#utility.yul\":12715:12759   */\n      tag_232\n      jump\t// in\n    tag_336:\n        /* \"#utility.yul\":12707:12759   */\n      swap11\n        /* \"#utility.yul\":11794:12765   */\n      swap10\n      pop\n      pop\n      pop\n      pop\n      pop\n      pop\n      pop\n      pop\n      pop\n      pop\n      jump\t// out\n        /* \"#utility.yul\":12770:12954   */\n    tag_112:\n        /* \"#utility.yul\":12840:12846   */\n      0x00\n        /* \"#utility.yul\":12893:12895   */\n      0x20\n        /* \"#utility.yul\":12881:12890   */\n      dup3\n        /* \"#utility.yul\":12872:12879   */\n      dup5\n        /* \"#utility.yul\":12868:12891   */\n      sub\n        /* \"#utility.yul\":12864:12896   */\n      slt\n        /* \"#utility.yul\":12861:12913   */\n      iszero\n      tag_338\n      jumpi\n        /* \"#utility.yul\":12909:12910   */\n      0x00\n        /* \"#utility.yul\":12906:12907   */\n      dup1\n        /* \"#utility.yul\":12899:12911   */\n      revert\n        /* \"#utility.yul\":12861:12913   */\n    tag_338:\n      pop\n        /* \"#utility.yul\":12932:12948   */\n      mload\n      swap2\n        /* \"#utility.yul\":12770:12954   */\n      swap1\n      pop\n      jump\t// out\n        /* \"#utility.yul\":13491:13926   */\n    tag_136:\n        /* \"#utility.yul\":13724:13730   */\n      dup5\n        /* \"#utility.yul\":13713:13722   */\n      dup2\n        /* \"#utility.yul\":13706:13731   */\n      mstore\n        /* \"#utility.yul\":13767:13773   */\n      dup4\n        /* \"#utility.yul\":13762:13764   */\n      0x20\n        /* \"#utility.yul\":13751:13760   */\n      dup3\n        /* \"#utility.yul\":13747:13765   */\n      add\n        /* \"#utility.yul\":13740:13774   */\n      mstore\n        /* \"#utility.yul\":13810:13813   */\n      0x80\n        /* \"#utility.yul\":13805:13807   */\n      0x40\n        /* \"#utility.yul\":13794:13803   */\n      dup3\n        /* \"#utility.yul\":13790:13808   */\n      add\n        /* \"#utility.yul\":13783:13814   */\n      mstore\n        /* \"#utility.yul\":13687:13691   */\n      0x00\n        /* \"#utility.yul\":13831:13877   */\n      tag_342\n        /* \"#utility.yul\":13872:13875   */\n      0x80\n        /* \"#utility.yul\":13861:13870   */\n      dup4\n        /* \"#utility.yul\":13857:13876   */\n      add\n        /* \"#utility.yul\":13849:13855   */\n      dup6\n        /* \"#utility.yul\":13831:13877   */\n      tag_231\n      jump\t// in\n    tag_342:\n        /* \"#utility.yul\":13823:13877   */\n      swap1\n      pop\n        /* \"#utility.yul\":13913:13919   */\n      dup3\n        /* \"#utility.yul\":13908:13910   */\n      0x60\n        /* \"#utility.yul\":13897:13906   */\n      dup4\n        /* \"#utility.yul\":13893:13911   */\n      add\n        /* \"#utility.yul\":13886:13920   */\n      mstore\n        /* \"#utility.yul\":13491:13926   */\n      swap6\n      swap5\n      pop\n      pop\n      pop\n      pop\n      pop\n      jump\t// out\n        /* \"#utility.yul\":13931:14220   */\n    tag_142:\n        /* \"#utility.yul\":14106:14112   */\n      dup3\n        /* \"#utility.yul\":14095:14104   */\n      dup2\n        /* \"#utility.yul\":14088:14113   */\n      mstore\n        /* \"#utility.yul\":14149:14151   */\n      0x40\n        /* \"#utility.yul\":14144:14146   */\n      0x20\n        /* \"#utility.yul\":14133:14142   */\n      dup3\n        /* \"#utility.yul\":14129:14147   */\n      add\n        /* \"#utility.yul\":14122:14152   */\n      mstore\n        /* \"#utility.yul\":14069:14073   */\n      0x00\n        /* \"#utility.yul\":14169:14214   */\n      tag_297\n        /* \"#utility.yul\":14210:14212   */\n      0x40\n        /* \"#utility.yul\":14199:14208   */\n      dup4\n        /* \"#utility.yul\":14195:14213   */\n      add\n        /* \"#utility.yul\":14187:14193   */\n      dup5\n        /* \"#utility.yul\":14169:14214   */\n      tag_231\n      jump\t// in\n        /* \"#utility.yul\":14919:15299   */\n    tag_216:\n        /* \"#utility.yul\":14998:14999   */\n      0x01\n        /* \"#utility.yul\":14994:15006   */\n      dup2\n      dup2\n      shr\n      swap1\n        /* \"#utility.yul\":15041:15053   */\n      dup3\n      and\n      dup1\n        /* \"#utility.yul\":15062:15123   */\n      tag_348\n      jumpi\n        /* \"#utility.yul\":15116:15120   */\n      0x7f\n        /* \"#utility.yul\":15108:15114   */\n      dup3\n        /* \"#utility.yul\":15104:15121   */\n      and\n        /* \"#utility.yul\":15094:15121   */\n      swap2\n      pop\n        /* \"#utility.yul\":15062:15123   */\n    tag_348:\n        /* \"#utility.yul\":15169:15171   */\n      0x20\n        /* \"#utility.yul\":15161:15167   */\n      dup3\n        /* \"#utility.yul\":15158:15172   */\n      lt\n        /* \"#utility.yul\":15138:15156   */\n      dup2\n        /* \"#utility.yul\":15135:15173   */\n      sub\n        /* \"#utility.yul\":15132:15293   */\n      tag_349\n      jumpi\n        /* \"#utility.yul\":15215:15225   */\n      0x4e487b71\n        /* \"#utility.yul\":15210:15213   */\n      0xe0\n        /* \"#utility.yul\":15206:15226   */\n      shl\n        /* \"#utility.yul\":15203:15204   */\n      0x00\n        /* \"#utility.yul\":15196:15227   */\n      mstore\n        /* \"#utility.yul\":15250:15254   */\n      0x22\n        /* \"#utility.yul\":15247:15248   */\n      0x04\n        /* \"#utility.yul\":15240:15255   */\n      mstore\n        /* \"#utility.yul\":15278:15282   */\n      0x24\n        /* \"#utility.yul\":15275:15276   */\n      0x00\n        /* \"#utility.yul\":15268:15283   */\n      revert\n        /* \"#utility.yul\":15132:15293   */\n    tag_349:\n      pop\n        /* \"#utility.yul\":14919:15299   */\n      swap2\n      swap1\n      pop\n      jump\t// out\n        /* \"#utility.yul\":15430:15973   */\n    tag_235:\n        /* \"#utility.yul\":15532:15534   */\n      0x1f\n        /* \"#utility.yul\":15527:15530   */\n      dup3\n        /* \"#utility.yul\":15524:15535   */\n      gt\n        /* \"#utility.yul\":15521:15967   */\n      iszero\n      tag_352\n      jumpi\n        /* \"#utility.yul\":15568:15569   */\n      0x00\n        /* \"#utility.yul\":15592:15597   */\n      dup2\n        /* \"#utility.yul\":15589:15590   */\n      0x00\n        /* \"#utility.yul\":15582:15598   */\n      mstore\n        /* \"#utility.yul\":15636:15640   */\n      0x20\n        /* \"#utility.yul\":15633:15634   */\n      0x00\n        /* \"#utility.yul\":15623:15641   */\n      keccak256\n        /* \"#utility.yul\":15706:15708   */\n      0x1f\n        /* \"#utility.yul\":15694:15704   */\n      dup6\n        /* \"#utility.yul\":15690:15709   */\n      add\n        /* \"#utility.yul\":15687:15688   */\n      0x05\n        /* \"#utility.yul\":15683:15710   */\n      shr\n        /* \"#utility.yul\":15677:15681   */\n      dup2\n        /* \"#utility.yul\":15673:15711   */\n      add\n        /* \"#utility.yul\":15742:15746   */\n      0x20\n        /* \"#utility.yul\":15730:15740   */\n      dup7\n        /* \"#utility.yul\":15727:15747   */\n      lt\n        /* \"#utility.yul\":15724:15771   */\n      iszero\n      tag_353\n      jumpi\n      pop\n        /* \"#utility.yul\":15765:15769   */\n      dup1\n        /* \"#utility.yul\":15724:15771   */\n    tag_353:\n        /* \"#utility.yul\":15820:15822   */\n      0x1f\n        /* \"#utility.yul\":15815:15818   */\n      dup6\n        /* \"#utility.yul\":15811:15823   */\n      add\n        /* \"#utility.yul\":15808:15809   */\n      0x05\n        /* \"#utility.yul\":15804:15824   */\n      shr\n        /* \"#utility.yul\":15798:15802   */\n      dup3\n        /* \"#utility.yul\":15794:15825   */\n      add\n        /* \"#utility.yul\":15784:15825   */\n      swap2\n      pop\n        /* \"#utility.yul\":15875:15957   */\n    tag_354:\n        /* \"#utility.yul\":15893:15895   */\n      dup2\n        /* \"#utility.yul\":15886:15891   */\n      dup2\n        /* \"#utility.yul\":15883:15896   */\n      lt\n        /* \"#utility.yul\":15875:15957   */\n      iszero\n      tag_356\n      jumpi\n        /* \"#utility.yul\":15938:15955   */\n      dup3\n      dup2\n      sstore\n        /* \"#utility.yul\":15919:15920   */\n      0x01\n        /* \"#utility.yul\":15908:15921   */\n      add\n        /* \"#utility.yul\":15875:15957   */\n      jump(tag_354)\n    tag_356:\n        /* \"#utility.yul\":15879:15882   */\n      pop\n      pop\n      pop\n        /* \"#utility.yul\":15521:15967   */\n    tag_352:\n        /* \"#utility.yul\":15430:15973   */\n      pop\n      pop\n      pop\n      jump\t// out\n        /* \"#utility.yul\":16149:17494   */\n    tag_160:\n        /* \"#utility.yul\":16275:16278   */\n      dup2\n        /* \"#utility.yul\":16269:16279   */\n      mload\n        /* \"#utility.yul\":16302:16320   */\n      0xffffffffffffffff\n        /* \"#utility.yul\":16294:16300   */\n      dup2\n        /* \"#utility.yul\":16291:16321   */\n      gt\n        /* \"#utility.yul\":16288:16344   */\n      iszero\n      tag_360\n      jumpi\n        /* \"#utility.yul\":16324:16342   */\n      tag_360\n      tag_225\n      jump\t// in\n    tag_360:\n        /* \"#utility.yul\":16353:16450   */\n      tag_361\n        /* \"#utility.yul\":16443:16449   */\n      dup2\n        /* \"#utility.yul\":16403:16441   */\n      tag_362\n        /* \"#utility.yul\":16435:16439   */\n      dup5\n        /* \"#utility.yul\":16429:16440   */\n      sload\n        /* \"#utility.yul\":16403:16441   */\n      tag_216\n      jump\t// in\n    tag_362:\n        /* \"#utility.yul\":16397:16401   */\n      dup5\n        /* \"#utility.yul\":16353:16450   */\n      tag_235\n      jump\t// in\n    tag_361:\n        /* \"#utility.yul\":16505:16509   */\n      0x20\n      dup1\n        /* \"#utility.yul\":16562:16564   */\n      0x1f\n        /* \"#utility.yul\":16551:16565   */\n      dup4\n      gt\n        /* \"#utility.yul\":16579:16580   */\n      0x01\n        /* \"#utility.yul\":16574:17237   */\n      dup2\n      eq\n      tag_364\n      jumpi\n        /* \"#utility.yul\":17281:17282   */\n      0x00\n        /* \"#utility.yul\":17298:17304   */\n      dup5\n        /* \"#utility.yul\":17295:17384   */\n      iszero\n      tag_365\n      jumpi\n      pop\n        /* \"#utility.yul\":17350:17369   */\n      dup6\n      dup4\n      add\n        /* \"#utility.yul\":17344:17370   */\n      mload\n        /* \"#utility.yul\":17295:17384   */\n    tag_365:\n      not(0x00)\n        /* \"#utility.yul\":16106:16107   */\n      0x03\n        /* \"#utility.yul\":16102:16113   */\n      dup7\n      swap1\n      shl\n        /* \"#utility.yul\":16098:16122   */\n      shr\n        /* \"#utility.yul\":16094:16123   */\n      not\n        /* \"#utility.yul\":16084:16124   */\n      and\n        /* \"#utility.yul\":16130:16131   */\n      0x01\n        /* \"#utility.yul\":16126:16137   */\n      dup6\n      swap1\n      shl\n        /* \"#utility.yul\":16081:16138   */\n      or\n        /* \"#utility.yul\":17397:17478   */\n      dup6\n      sstore\n        /* \"#utility.yul\":16544:17488   */\n      jump(tag_356)\n        /* \"#utility.yul\":16574:17237   */\n    tag_364:\n        /* \"#utility.yul\":15377:15378   */\n      0x00\n        /* \"#utility.yul\":15370:15384   */\n      dup6\n      dup2\n      mstore\n        /* \"#utility.yul\":15414:15418   */\n      0x20\n        /* \"#utility.yul\":15401:15419   */\n      dup2\n      keccak256\n      not(0x1f)\n        /* \"#utility.yul\":16610:16630   */\n      dup7\n      and\n      swap2\n        /* \"#utility.yul\":16728:16964   */\n    tag_368:\n        /* \"#utility.yul\":16742:16749   */\n      dup3\n        /* \"#utility.yul\":16739:16740   */\n      dup2\n        /* \"#utility.yul\":16736:16750   */\n      lt\n        /* \"#utility.yul\":16728:16964   */\n      iszero\n      tag_370\n      jumpi\n        /* \"#utility.yul\":16831:16850   */\n      dup9\n      dup7\n      add\n        /* \"#utility.yul\":16825:16851   */\n      mload\n        /* \"#utility.yul\":16810:16852   */\n      dup3\n      sstore\n        /* \"#utility.yul\":16923:16950   */\n      swap5\n      dup5\n      add\n      swap5\n        /* \"#utility.yul\":16891:16892   */\n      0x01\n        /* \"#utility.yul\":16879:16893   */\n      swap1\n      swap2\n      add\n      swap1\n        /* \"#utility.yul\":16758:16777   */\n      dup5\n      add\n        /* \"#utility.yul\":16728:16964   */\n      jump(tag_368)\n    tag_370:\n        /* \"#utility.yul\":16732:16735   */\n      pop\n        /* \"#utility.yul\":16992:16998   */\n      dup6\n        /* \"#utility.yul\":16983:16990   */\n      dup3\n        /* \"#utility.yul\":16980:16999   */\n      lt\n        /* \"#utility.yul\":16977:17178   */\n      iszero\n      tag_371\n      jumpi\n        /* \"#utility.yul\":17053:17072   */\n      dup8\n      dup6\n      add\n        /* \"#utility.yul\":17047:17073   */\n      mload\n      not(0x00)\n        /* \"#utility.yul\":17136:17137   */\n      0x03\n        /* \"#utility.yul\":17132:17146   */\n      dup9\n      swap1\n      shl\n        /* \"#utility.yul\":17148:17151   */\n      0xf8\n        /* \"#utility.yul\":17128:17152   */\n      and\n        /* \"#utility.yul\":17124:17161   */\n      shr\n        /* \"#utility.yul\":17120:17162   */\n      not\n        /* \"#utility.yul\":17105:17163   */\n      and\n        /* \"#utility.yul\":17090:17164   */\n      dup2\n      sstore\n        /* \"#utility.yul\":16977:17178   */\n    tag_371:\n      pop\n      pop\n      pop\n      pop\n      pop\n        /* \"#utility.yul\":17224:17225   */\n      0x01\n        /* \"#utility.yul\":17208:17222   */\n      swap1\n      dup2\n      shl\n        /* \"#utility.yul\":17204:17226   */\n      add\n        /* \"#utility.yul\":17191:17227   */\n      swap1\n      sstore\n      pop\n        /* \"#utility.yul\":16149:17494   */\n      jump\t// out\n        /* \"#utility.yul\":17499:18298   */\n    tag_165:\n        /* \"#utility.yul\":17862:17868   */\n      dup6\n        /* \"#utility.yul\":17851:17860   */\n      dup2\n        /* \"#utility.yul\":17844:17869   */\n      mstore\n        /* \"#utility.yul\":17905:17908   */\n      0xa0\n        /* \"#utility.yul\":17900:17902   */\n      0x20\n        /* \"#utility.yul\":17889:17898   */\n      dup3\n        /* \"#utility.yul\":17885:17903   */\n      add\n        /* \"#utility.yul\":17878:17909   */\n      mstore\n        /* \"#utility.yul\":17825:17829   */\n      0x00\n        /* \"#utility.yul\":17932:17978   */\n      tag_373\n        /* \"#utility.yul\":17973:17976   */\n      0xa0\n        /* \"#utility.yul\":17962:17971   */\n      dup4\n        /* \"#utility.yul\":17958:17977   */\n      add\n        /* \"#utility.yul\":17950:17956   */\n      dup8\n        /* \"#utility.yul\":17932:17978   */\n      tag_231\n      jump\t// in\n    tag_373:\n        /* \"#utility.yul\":18026:18035   */\n      dup3\n        /* \"#utility.yul\":18018:18024   */\n      dup2\n        /* \"#utility.yul\":18014:18036   */\n      sub\n        /* \"#utility.yul\":18009:18011   */\n      0x40\n        /* \"#utility.yul\":17998:18007   */\n      dup5\n        /* \"#utility.yul\":17994:18012   */\n      add\n        /* \"#utility.yul\":17987:18037   */\n      mstore\n        /* \"#utility.yul\":18060:18102   */\n      tag_374\n        /* \"#utility.yul\":18095:18101   */\n      dup2\n        /* \"#utility.yul\":18087:18093   */\n      dup8\n        /* \"#utility.yul\":18060:18102   */\n      tag_233\n      jump\t// in\n    tag_374:\n      sub(shl(0xa0, 0x01), 0x01)\n        /* \"#utility.yul\":18138:18170   */\n      dup7\n      and\n        /* \"#utility.yul\":18133:18135   */\n      0x60\n        /* \"#utility.yul\":18118:18136   */\n      dup6\n      add\n        /* \"#utility.yul\":18111:18171   */\n      mstore\n        /* \"#utility.yul\":18208:18230   */\n      dup4\n      dup2\n      sub\n        /* \"#utility.yul\":18202:18205   */\n      0x80\n        /* \"#utility.yul\":18187:18206   */\n      dup6\n      add\n        /* \"#utility.yul\":18180:18231   */\n      mstore\n        /* \"#utility.yul\":18046:18102   */\n      swap1\n      pop\n        /* \"#utility.yul\":18248:18292   */\n      tag_375\n        /* \"#utility.yul\":18046:18102   */\n      dup2\n        /* \"#utility.yul\":18277:18283   */\n      dup6\n        /* \"#utility.yul\":18248:18292   */\n      tag_232\n      jump\t// in\n    tag_375:\n        /* \"#utility.yul\":18240:18292   */\n      swap9\n        /* \"#utility.yul\":17499:18298   */\n      swap8\n      pop\n      pop\n      pop\n      pop\n      pop\n      pop\n      pop\n      pop\n      jump\t// out\n\n    auxdata: 0xa2646970667358221220a54fe2fca0ddc4c5e7c7ce983d20490e90fd96cd6b1c35107d831eceb8c0e7aa64736f6c63430008170033\n}\n",
				"bytecode": {
					"linkReferences": {},
					"object": "60a06040523480156200001157600080fd5b5060405162001c9138038062001c91833981016040819052620000349162000281565b600080546001600160a01b0319166001600160a01b038316908117909155604080518082018252601281527152455345525645445f414c4c4f5f434f524560701b6020820152905163bf40fac160e01b815263bf40fac1916200009a91600401620002b3565b602060405180830381865afa158015620000b8573d6000803e3d6000fd5b505050506040513d601f19601f82011682018060405250810190620000de919062000281565b600280546001600160a01b0319166001600160a01b03928316179055600054604080518082018252601e81527f52455345525645445f414c4c4f5f50524f46494c455f524547495354455200006020820152905163bf40fac160e01b8152919092169163bf40fac191620001569190600401620002b3565b602060405180830381865afa15801562000174573d6000803e3d6000fd5b505050506040513d601f19601f820116820180604052508101906200019a919062000281565b600180546001600160a01b0319166001600160a01b03928316179055600054604080518082018252601881527f52455345525645445f50524f4a4543545f464143544f525900000000000000006020820152905163bf40fac160e01b8152919092169163bf40fac191620002129190600401620002b3565b602060405180830381865afa15801562000230573d6000803e3d6000fd5b505050506040513d601f19601f8201168201806040525081019062000256919062000281565b600380546001600160a01b0319166001600160a01b0392909216919091179055503060805262000304565b6000602082840312156200029457600080fd5b81516001600160a01b0381168114620002ac57600080fd5b9392505050565b60006020808352835180602085015260005b81811015620002e357858101830151858201604001528201620002c5565b506000604082860101526040601f19601f8301168501019250505092915050565b6080516119716200032060003960006103de01526119716000f3fe60806040526004361061009b5760003560e01c80636b803971116100645780636b8039711461017e57806374331ece146101ab57806374a2b288146101db578063cde4c10c146101fb578063dbbca72114610210578063ede767751461023d57600080fd5b806286a4d5146100a05780630d8e6e2c146100c657806317d7de7c146100da5780634d1ec600146101265780636485fa411461015e575b600080fd5b6100b36100ae3660046112b5565b61025f565b6040519081526020015b60405180910390f35b3480156100d257600080fd5b5060076100b3565b3480156100e657600080fd5b50604080518082018252601781527f4d4152474152495f50524f4a4543545f43524541544f52000000000000000000602082015290516100bd91906113b4565b34801561013257600080fd5b506101466101413660046113ce565b6107a9565b6040516001600160a01b0390911681526020016100bd565b34801561016a57600080fd5b506100b3610179366004611443565b61098b565b34801561018a57600080fd5b5061019e6101993660046114cb565b610b32565b6040516100bd919061154d565b3480156101b757600080fd5b506101cb6101c6366004611560565b610bac565b60405190151581526020016100bd565b3480156101e757600080fd5b506100b36101f63660046114cb565b610cdf565b34801561020757600080fd5b506101cb610d07565b34801561021c57600080fd5b5061023061022b3660046114cb565b611015565b6040516100bd91906115a7565b34801561024957600080fd5b50610252611084565b6040516100bd91906115eb565b6000600687604051610271919061164f565b9081526040519081900360200190205460ff166102c35760405162461bcd60e51b815260206004820152600b60248201526a756e6b6e6f776e206f726760a81b60448201526064015b60405180910390fd5b8385101561032a5760405162461bcd60e51b815260206004820152602e60248201527f20706f6f6c2073697a65206d7573742062652067726561746572206f7220657160448201526d03ab0b6103a379030b6b7bab73a160951b60648201526084016102ba565b73eeeeeeeeeeeeeeeeeeeeeeeeeeeeeeeeeeeeeeed196001600160a01b038716016103c157833410156103bc5760405162461bcd60e51b815260206004820152603460248201527f696e73756666696369656e7420696e697469616c20616d6f756e74207472616e6044820152731cdb5a5d1d1959081d1bc8199d5b99081c1bdbdb60621b60648201526084016102ba565b61045c565b6040516323b872dd60e01b81523360048201526001600160a01b037f000000000000000000000000000000000000000000000000000000000000000081166024830152604482018690528716906323b872dd906064016020604051808303816000875af1158015610436573d6000803e3d6000fd5b505050506040513d601f19601f8201168201806040525081019061045a919061166b565b505b600060078860405161046e919061164f565b908152602001604051809103902054905060006040516020016104a6906020808252600190820152600360fc1b604082015260600190565b60408051601f198184030181526002546000548484018452601e85527f52455345525645445f4d5f415f44454c49564552595f535452415445475900006020860152925163bf40fac160e01b81529194506001600160a01b039081169363e1007d4a93879392169163bf40fac191610520916004016113b4565b602060405180830381865afa15801561053d573d6000803e3d6000fd5b505050506040513d601f19601f82011682018060405250810190610561919061168d565b848c8c6105928c60408051808201825260008152606060209182015281518083019092526001825281019190915290565b8b6040518863ffffffff1660e01b81526004016105b597969594939291906116c9565b6020604051808303816000875af11580156105d4573d6000803e3d6000fd5b505050506040513d601f19601f820116820180604052508101906105f89190611734565b925060088960405161060a919061164f565b9081526040516020918190038201902080546001810182556000918252919020018390556001600160a01b03881673eeeeeeeeeeeeeeeeeeeeeeeeeeeeeeeeeeeeeeed19016106bf576002546040516316b35beb60e21b815260048101859052602481018890526001600160a01b0390911690635acd6fac9088906044016000604051808303818588803b1580156106a157600080fd5b505af11580156106b5573d6000803e3d6000fd5b505050505061079d565b60025460405163095ea7b360e01b81526001600160a01b039182166004820152602481018890529089169063095ea7b3906044016020604051808303816000875af1158015610712573d6000803e3d6000fd5b505050506040513d601f19601f82011682018060405250810190610736919061166b565b506002546040516316b35beb60e21b815260048101859052602481018890526001600160a01b0390911690635acd6fac90604401600060405180830381600087803b15801561078457600080fd5b505af1158015610798573d6000803e3d6000fd5b505050505b50509695505050505050565b6003546040516000916001600160a01b03169063a41b40f4906007906107d090899061164f565b908152604051908190036020018120546001600160e01b031960e084901b1682526108039188908890889060040161174d565b6020604051808303816000875af1158015610822573d6000803e3d6000fd5b505050506040513d601f19601f82011682018060405250810190610846919061168d565b604080516001600160a01b03831660208201529192506000910160408051601f19818403018152908290526002546301d703a760e21b83529092506001600160a01b03169063075c0e9c906108a1908890859060040161177d565b6020604051808303816000875af11580156108c0573d6000803e3d6000fd5b505050506040513d601f19601f820116820180604052508101906108e4919061168d565b506040805180820182526001600160a01b03848116808352602080840188815285519182019290925290518185015283518082038501815260608201948590526002546305d8703160e31b909552929390911690632ec381889061094e908a90859060640161177d565b600060405180830381600087803b15801561096857600080fd5b505af115801561097c573d6000803e3d6000fd5b50505050505050949350505050565b600060058460405161099d919061164f565b9081526040519081900360200190205460ff16156109f35760405162461bcd60e51b81526020600482015260136024820152721bdc99c8185b1c9958591e4818dc99585d1959606a1b60448201526064016102ba565b6001600585604051610a05919061164f565b908152604051908190036020019020805491151560ff19909216919091179055600480546001810182556000919091527f8a35acfbc15ff81a39ae7d344fd709f28e8600b4aa8c65c6b64bfe7fe36bd19b01610a618582611821565b506001546001600160a01b0316633a92f65f4286610aa38760408051808201825260008152606060209182015281518083019092526001825281019190915290565b33876040518663ffffffff1660e01b8152600401610ac59594939291906118e1565b6020604051808303816000875af1158015610ae4573d6000803e3d6000fd5b505050506040513d601f19601f82011682018060405250810190610b089190611734565b905080600785604051610b1b919061164f565b908152604051908190036020019020559392505050565b6060600982604051610b44919061164f565b9081526040805191829003602090810183208054808302850183019093528284529190830182828015610ba057602002820191906000526020600020905b81546001600160a01b03168152600190910190602001808311610b82575b50505050509050919050565b6000600582604051610bbe919061164f565b9081526040519081900360200190205460ff1615610c145760405162461bcd60e51b81526020600482015260136024820152721bdc99c8185b1c9958591e4818dc99585d1959606a1b60448201526064016102ba565b6001600583604051610c26919061164f565b908152604051908190036020019020805491151560ff19909216919091179055600480546001810182556000919091527f8a35acfbc15ff81a39ae7d344fd709f28e8600b4aa8c65c6b64bfe7fe36bd19b01610c828382611821565b506001600683604051610c95919061164f565b908152604051908190036020018120805492151560ff19909316929092179091558390600790610cc690859061164f565b9081526040519081900360200190205550600192915050565b6000600782604051610cf1919061164f565b9081526020016040518091039020549050919050565b60008054604080518082018252601081526f2922a9a2a92b22a22fa6afa0a226a4a760811b6020820152905163bf40fac160e01b81526001600160a01b039092169163bf40fac191610d5b916004016113b4565b602060405180830381865afa158015610d78573d6000803e3d6000fd5b505050506040513d601f19601f82011682018060405250810190610d9c919061168d565b6001600160a01b0316336001600160a01b031614610deb5760405162461bcd60e51b815260206004820152600c60248201526b01030b236b4b71037b7363c960a51b60448201526064016102ba565b600054604080518082018252601281527152455345525645445f414c4c4f5f434f524560701b6020820152905163bf40fac160e01b81526001600160a01b039092169163bf40fac191610e40916004016113b4565b602060405180830381865afa158015610e5d573d6000803e3d6000fd5b505050506040513d601f19601f82011682018060405250810190610e81919061168d565b600280546001600160a01b0319166001600160a01b03928316179055600054604080518082018252601e81527f52455345525645445f414c4c4f5f50524f46494c455f524547495354455200006020820152905163bf40fac160e01b8152919092169163bf40fac191610ef791906004016113b4565b602060405180830381865afa158015610f14573d6000803e3d6000fd5b505050506040513d601f19601f82011682018060405250810190610f38919061168d565b600180546001600160a01b0319166001600160a01b03928316179055600054604080518082018252601881527f52455345525645445f50524f4a4543545f464143544f525900000000000000006020820152905163bf40fac160e01b8152919092169163bf40fac191610fae91906004016113b4565b602060405180830381865afa158015610fcb573d6000803e3d6000fd5b505050506040513d601f19601f82011682018060405250810190610fef919061168d565b600380546001600160a01b0319166001600160a01b039290921691909117905550600190565b6060600882604051611027919061164f565b9081526040805191829003602090810183208054808302850183019093528284529190830182828015610ba057602002820191906000526020600020905b8154815260200190600101908083116110655750505050509050919050565b60606004805480602002602001604051908101604052809291908181526020016000905b828210156111545783829060005260206000200180546110c790611796565b80601f01602080910402602001604051908101604052809291908181526020018280546110f390611796565b80156111405780601f1061111557610100808354040283529160200191611140565b820191906000526020600020905b81548152906001019060200180831161112357829003601f168201915b5050505050815260200190600101906110a8565b50505050905090565b634e487b7160e01b600052604160045260246000fd5b604051601f8201601f1916810167ffffffffffffffff8111828210171561119c5761119c61115d565b604052919050565b600082601f8301126111b557600080fd5b813567ffffffffffffffff8111156111cf576111cf61115d565b6111e2601f8201601f1916602001611173565b8181528460208386010111156111f757600080fd5b816020850160208301376000918101602001919091529392505050565b6001600160a01b038116811461122957600080fd5b50565b600082601f83011261123d57600080fd5b8135602067ffffffffffffffff8211156112595761125961115d565b8160051b611268828201611173565b928352848101820192828101908785111561128257600080fd5b83870192505b848310156112aa57823561129b81611214565b82529183019190830190611288565b979650505050505050565b60008060008060008060c087890312156112ce57600080fd5b863567ffffffffffffffff808211156112e657600080fd5b6112f28a838b016111a4565b97506020890135915061130482611214565b90955060408801359450606088013593506080880135908082111561132857600080fd5b6113348a838b016111a4565b935060a089013591508082111561134a57600080fd5b5061135789828a0161122c565b9150509295509295509295565b60005b8381101561137f578181015183820152602001611367565b50506000910152565b600081518084526113a0816020860160208601611364565b601f01601f19169290920160200192915050565b6020815260006113c76020830184611388565b9392505050565b600080600080608085870312156113e457600080fd5b843567ffffffffffffffff808211156113fc57600080fd5b611408888389016111a4565b955060208701359450604087013591508082111561142557600080fd5b50611432878288016111a4565b949793965093946060013593505050565b60008060006060848603121561145857600080fd5b833567ffffffffffffffff8082111561147057600080fd5b61147c878388016111a4565b9450602086013591508082111561149257600080fd5b61149e878388016111a4565b935060408601359150808211156114b457600080fd5b506114c18682870161122c565b9150509250925092565b6000602082840312156114dd57600080fd5b813567ffffffffffffffff8111156114f457600080fd5b611500848285016111a4565b949350505050565b60008151808452602080850194506020840160005b838110156115425781516001600160a01b03168752958201959082019060010161151d565b509495945050505050565b6020815260006113c76020830184611508565b6000806040838503121561157357600080fd5b82359150602083013567ffffffffffffffff81111561159157600080fd5b61159d858286016111a4565b9150509250929050565b6020808252825182820181905260009190848201906040850190845b818110156115df578351835292840192918401916001016115c3565b50909695505050505050565b600060208083016020845280855180835260408601915060408160051b87010192506020870160005b8281101561164257603f19888603018452611630858351611388565b94509285019290850190600101611614565b5092979650505050505050565b60008251611661818460208701611364565b9190910192915050565b60006020828403121561167d57600080fd5b815180151581146113c757600080fd5b60006020828403121561169f57600080fd5b81516113c781611214565b8051825260006020820151604060208501526115006040850182611388565b878152600060018060a01b03808916602084015260e060408401526116f160e0840189611388565b818816606085015286608085015283810360a085015261171181876116aa565b91505082810360c08401526117268185611508565b9a9950505050505050505050565b60006020828403121561174657600080fd5b5051919050565b84815283602082015260806040820152600061176c6080830185611388565b905082606083015295945050505050565b8281526040602082015260006115006040830184611388565b600181811c908216806117aa57607f821691505b6020821081036117ca57634e487b7160e01b600052602260045260246000fd5b50919050565b601f82111561181c576000816000526020600020601f850160051c810160208610156117f95750805b601f850160051c820191505b8181101561181857828155600101611805565b5050505b505050565b815167ffffffffffffffff81111561183b5761183b61115d565b61184f816118498454611796565b846117d0565b602080601f831160018114611884576000841561186c5750858301515b600019600386901b1c1916600185901b178555611818565b600085815260208120601f198616915b828110156118b357888601518255948401946001909101908401611894565b50858210156118d15787850151600019600388901b60f8161c191681555b5050505050600190811b01905550565b85815260a0602082015260006118fa60a0830187611388565b828103604084015261190c81876116aa565b6001600160a01b03861660608501528381036080850152905061192f8185611508565b9897505050505050505056fea2646970667358221220a54fe2fca0ddc4c5e7c7ce983d20490e90fd96cd6b1c35107d831eceb8c0e7aa64736f6c63430008170033",
					"opcodes": "PUSH1 0xA0 PUSH1 0x40 MSTORE CALLVALUE DUP1 ISZERO PUSH3 0x11 JUMPI PUSH1 0x0 DUP1 REVERT JUMPDEST POP PUSH1 0x40 MLOAD PUSH3 0x1C91 CODESIZE SUB DUP1 PUSH3 0x1C91 DUP4 CODECOPY DUP2 ADD PUSH1 0x40 DUP2 SWAP1 MSTORE PUSH3 0x34 SWAP2 PUSH3 0x281 JUMP JUMPDEST PUSH1 0x0 DUP1 SLOAD PUSH1 0x1 PUSH1 0x1 PUSH1 0xA0 SHL SUB NOT AND PUSH1 0x1 PUSH1 0x1 PUSH1 0xA0 SHL SUB DUP4 AND SWAP1 DUP2 OR SWAP1 SWAP2 SSTORE PUSH1 0x40 DUP1 MLOAD DUP1 DUP3 ADD DUP3 MSTORE PUSH1 0x12 DUP2 MSTORE PUSH18 0x52455345525645445F414C4C4F5F434F5245 PUSH1 0x70 SHL PUSH1 0x20 DUP3 ADD MSTORE SWAP1 MLOAD PUSH4 0xBF40FAC1 PUSH1 0xE0 SHL DUP2 MSTORE PUSH4 0xBF40FAC1 SWAP2 PUSH3 0x9A SWAP2 PUSH1 0x4 ADD PUSH3 0x2B3 JUMP JUMPDEST PUSH1 0x20 PUSH1 0x40 MLOAD DUP1 DUP4 SUB DUP2 DUP7 GAS STATICCALL ISZERO DUP1 ISZERO PUSH3 0xB8 JUMPI RETURNDATASIZE PUSH1 0x0 DUP1 RETURNDATACOPY RETURNDATASIZE PUSH1 0x0 REVERT JUMPDEST POP POP POP POP PUSH1 0x40 MLOAD RETURNDATASIZE PUSH1 0x1F NOT PUSH1 0x1F DUP3 ADD AND DUP3 ADD DUP1 PUSH1 0x40 MSTORE POP DUP2 ADD SWAP1 PUSH3 0xDE SWAP2 SWAP1 PUSH3 0x281 JUMP JUMPDEST PUSH1 0x2 DUP1 SLOAD PUSH1 0x1 PUSH1 0x1 PUSH1 0xA0 SHL SUB NOT AND PUSH1 0x1 PUSH1 0x1 PUSH1 0xA0 SHL SUB SWAP3 DUP4 AND OR SWAP1 SSTORE PUSH1 0x0 SLOAD PUSH1 0x40 DUP1 MLOAD DUP1 DUP3 ADD DUP3 MSTORE PUSH1 0x1E DUP2 MSTORE PUSH32 0x52455345525645445F414C4C4F5F50524F46494C455F52454749535445520000 PUSH1 0x20 DUP3 ADD MSTORE SWAP1 MLOAD PUSH4 0xBF40FAC1 PUSH1 0xE0 SHL DUP2 MSTORE SWAP2 SWAP1 SWAP3 AND SWAP2 PUSH4 0xBF40FAC1 SWAP2 PUSH3 0x156 SWAP2 SWAP1 PUSH1 0x4 ADD PUSH3 0x2B3 JUMP JUMPDEST PUSH1 0x20 PUSH1 0x40 MLOAD DUP1 DUP4 SUB DUP2 DUP7 GAS STATICCALL ISZERO DUP1 ISZERO PUSH3 0x174 JUMPI RETURNDATASIZE PUSH1 0x0 DUP1 RETURNDATACOPY RETURNDATASIZE PUSH1 0x0 REVERT JUMPDEST POP POP POP POP PUSH1 0x40 MLOAD RETURNDATASIZE PUSH1 0x1F NOT PUSH1 0x1F DUP3 ADD AND DUP3 ADD DUP1 PUSH1 0x40 MSTORE POP DUP2 ADD SWAP1 PUSH3 0x19A SWAP2 SWAP1 PUSH3 0x281 JUMP JUMPDEST PUSH1 0x1 DUP1 SLOAD PUSH1 0x1 PUSH1 0x1 PUSH1 0xA0 SHL SUB NOT AND PUSH1 0x1 PUSH1 0x1 PUSH1 0xA0 SHL SUB SWAP3 DUP4 AND OR SWAP1 SSTORE PUSH1 0x0 SLOAD PUSH1 0x40 DUP1 MLOAD DUP1 DUP3 ADD DUP3 MSTORE PUSH1 0x18 DUP2 MSTORE PUSH32 0x52455345525645445F50524F4A4543545F464143544F52590000000000000000 PUSH1 0x20 DUP3 ADD MSTORE SWAP1 MLOAD PUSH4 0xBF40FAC1 PUSH1 0xE0 SHL DUP2 MSTORE SWAP2 SWAP1 SWAP3 AND SWAP2 PUSH4 0xBF40FAC1 SWAP2 PUSH3 0x212 SWAP2 SWAP1 PUSH1 0x4 ADD PUSH3 0x2B3 JUMP JUMPDEST PUSH1 0x20 PUSH1 0x40 MLOAD DUP1 DUP4 SUB DUP2 DUP7 GAS STATICCALL ISZERO DUP1 ISZERO PUSH3 0x230 JUMPI RETURNDATASIZE PUSH1 0x0 DUP1 RETURNDATACOPY RETURNDATASIZE PUSH1 0x0 REVERT JUMPDEST POP POP POP POP PUSH1 0x40 MLOAD RETURNDATASIZE PUSH1 0x1F NOT PUSH1 0x1F DUP3 ADD AND DUP3 ADD DUP1 PUSH1 0x40 MSTORE POP DUP2 ADD SWAP1 PUSH3 0x256 SWAP2 SWAP1 PUSH3 0x281 JUMP JUMPDEST PUSH1 0x3 DUP1 SLOAD PUSH1 0x1 PUSH1 0x1 PUSH1 0xA0 SHL SUB NOT AND PUSH1 0x1 PUSH1 0x1 PUSH1 0xA0 SHL SUB SWAP3 SWAP1 SWAP3 AND SWAP2 SWAP1 SWAP2 OR SWAP1 SSTORE POP ADDRESS PUSH1 0x80 MSTORE PUSH3 0x304 JUMP JUMPDEST PUSH1 0x0 PUSH1 0x20 DUP3 DUP5 SUB SLT ISZERO PUSH3 0x294 JUMPI PUSH1 0x0 DUP1 REVERT JUMPDEST DUP2 MLOAD PUSH1 0x1 PUSH1 0x1 PUSH1 0xA0 SHL SUB DUP2 AND DUP2 EQ PUSH3 0x2AC JUMPI PUSH1 0x0 DUP1 REVERT JUMPDEST SWAP4 SWAP3 POP POP POP JUMP JUMPDEST PUSH1 0x0 PUSH1 0x20 DUP1 DUP4 MSTORE DUP4 MLOAD DUP1 PUSH1 0x20 DUP6 ADD MSTORE PUSH1 0x0 JUMPDEST DUP2 DUP2 LT ISZERO PUSH3 0x2E3 JUMPI DUP6 DUP2 ADD DUP4 ADD MLOAD DUP6 DUP3 ADD PUSH1 0x40 ADD MSTORE DUP3 ADD PUSH3 0x2C5 JUMP JUMPDEST POP PUSH1 0x0 PUSH1 0x40 DUP3 DUP7 ADD ADD MSTORE PUSH1 0x40 PUSH1 0x1F NOT PUSH1 0x1F DUP4 ADD AND DUP6 ADD ADD SWAP3 POP POP POP SWAP3 SWAP2 POP POP JUMP JUMPDEST PUSH1 0x80 MLOAD PUSH2 0x1971 PUSH3 0x320 PUSH1 0x0 CODECOPY PUSH1 0x0 PUSH2 0x3DE ADD MSTORE PUSH2 0x1971 PUSH1 0x0 RETURN INVALID PUSH1 0x80 PUSH1 0x40 MSTORE PUSH1 0x4 CALLDATASIZE LT PUSH2 0x9B JUMPI PUSH1 0x0 CALLDATALOAD PUSH1 0xE0 SHR DUP1 PUSH4 0x6B803971 GT PUSH2 0x64 JUMPI DUP1 PUSH4 0x6B803971 EQ PUSH2 0x17E JUMPI DUP1 PUSH4 0x74331ECE EQ PUSH2 0x1AB JUMPI DUP1 PUSH4 0x74A2B288 EQ PUSH2 0x1DB JUMPI DUP1 PUSH4 0xCDE4C10C EQ PUSH2 0x1FB JUMPI DUP1 PUSH4 0xDBBCA721 EQ PUSH2 0x210 JUMPI DUP1 PUSH4 0xEDE76775 EQ PUSH2 0x23D JUMPI PUSH1 0x0 DUP1 REVERT JUMPDEST DUP1 PUSH3 0x86A4D5 EQ PUSH2 0xA0 JUMPI DUP1 PUSH4 0xD8E6E2C EQ PUSH2 0xC6 JUMPI DUP1 PUSH4 0x17D7DE7C EQ PUSH2 0xDA JUMPI DUP1 PUSH4 0x4D1EC600 EQ PUSH2 0x126 JUMPI DUP1 PUSH4 0x6485FA41 EQ PUSH2 0x15E JUMPI JUMPDEST PUSH1 0x0 DUP1 REVERT JUMPDEST PUSH2 0xB3 PUSH2 0xAE CALLDATASIZE PUSH1 0x4 PUSH2 0x12B5 JUMP JUMPDEST PUSH2 0x25F JUMP JUMPDEST PUSH1 0x40 MLOAD SWAP1 DUP2 MSTORE PUSH1 0x20 ADD JUMPDEST PUSH1 0x40 MLOAD DUP1 SWAP2 SUB SWAP1 RETURN JUMPDEST CALLVALUE DUP1 ISZERO PUSH2 0xD2 JUMPI PUSH1 0x0 DUP1 REVERT JUMPDEST POP PUSH1 0x7 PUSH2 0xB3 JUMP JUMPDEST CALLVALUE DUP1 ISZERO PUSH2 0xE6 JUMPI PUSH1 0x0 DUP1 REVERT JUMPDEST POP PUSH1 0x40 DUP1 MLOAD DUP1 DUP3 ADD DUP3 MSTORE PUSH1 0x17 DUP2 MSTORE PUSH32 0x4D4152474152495F50524F4A4543545F43524541544F52000000000000000000 PUSH1 0x20 DUP3 ADD MSTORE SWAP1 MLOAD PUSH2 0xBD SWAP2 SWAP1 PUSH2 0x13B4 JUMP JUMPDEST CALLVALUE DUP1 ISZERO PUSH2 0x132 JUMPI PUSH1 0x0 DUP1 REVERT JUMPDEST POP PUSH2 0x146 PUSH2 0x141 CALLDATASIZE PUSH1 0x4 PUSH2 0x13CE JUMP JUMPDEST PUSH2 0x7A9 JUMP JUMPDEST PUSH1 0x40 MLOAD PUSH1 0x1 PUSH1 0x1 PUSH1 0xA0 SHL SUB SWAP1 SWAP2 AND DUP2 MSTORE PUSH1 0x20 ADD PUSH2 0xBD JUMP JUMPDEST CALLVALUE DUP1 ISZERO PUSH2 0x16A JUMPI PUSH1 0x0 DUP1 REVERT JUMPDEST POP PUSH2 0xB3 PUSH2 0x179 CALLDATASIZE PUSH1 0x4 PUSH2 0x1443 JUMP JUMPDEST PUSH2 0x98B JUMP JUMPDEST CALLVALUE DUP1 ISZERO PUSH2 0x18A JUMPI PUSH1 0x0 DUP1 REVERT JUMPDEST POP PUSH2 0x19E PUSH2 0x199 CALLDATASIZE PUSH1 0x4 PUSH2 0x14CB JUMP JUMPDEST PUSH2 0xB32 JUMP JUMPDEST PUSH1 0x40 MLOAD PUSH2 0xBD SWAP2 SWAP1 PUSH2 0x154D JUMP JUMPDEST CALLVALUE DUP1 ISZERO PUSH2 0x1B7 JUMPI PUSH1 0x0 DUP1 REVERT JUMPDEST POP PUSH2 0x1CB PUSH2 0x1C6 CALLDATASIZE PUSH1 0x4 PUSH2 0x1560 JUMP JUMPDEST PUSH2 0xBAC JUMP JUMPDEST PUSH1 0x40 MLOAD SWAP1 ISZERO ISZERO DUP2 MSTORE PUSH1 0x20 ADD PUSH2 0xBD JUMP JUMPDEST CALLVALUE DUP1 ISZERO PUSH2 0x1E7 JUMPI PUSH1 0x0 DUP1 REVERT JUMPDEST POP PUSH2 0xB3 PUSH2 0x1F6 CALLDATASIZE PUSH1 0x4 PUSH2 0x14CB JUMP JUMPDEST PUSH2 0xCDF JUMP JUMPDEST CALLVALUE DUP1 ISZERO PUSH2 0x207 JUMPI PUSH1 0x0 DUP1 REVERT JUMPDEST POP PUSH2 0x1CB PUSH2 0xD07 JUMP JUMPDEST CALLVALUE DUP1 ISZERO PUSH2 0x21C JUMPI PUSH1 0x0 DUP1 REVERT JUMPDEST POP PUSH2 0x230 PUSH2 0x22B CALLDATASIZE PUSH1 0x4 PUSH2 0x14CB JUMP JUMPDEST PUSH2 0x1015 JUMP JUMPDEST PUSH1 0x40 MLOAD PUSH2 0xBD SWAP2 SWAP1 PUSH2 0x15A7 JUMP JUMPDEST CALLVALUE DUP1 ISZERO PUSH2 0x249 JUMPI PUSH1 0x0 DUP1 REVERT JUMPDEST POP PUSH2 0x252 PUSH2 0x1084 JUMP JUMPDEST PUSH1 0x40 MLOAD PUSH2 0xBD SWAP2 SWAP1 PUSH2 0x15EB JUMP JUMPDEST PUSH1 0x0 PUSH1 0x6 DUP8 PUSH1 0x40 MLOAD PUSH2 0x271 SWAP2 SWAP1 PUSH2 0x164F JUMP JUMPDEST SWAP1 DUP2 MSTORE PUSH1 0x40 MLOAD SWAP1 DUP2 SWAP1 SUB PUSH1 0x20 ADD SWAP1 KECCAK256 SLOAD PUSH1 0xFF AND PUSH2 0x2C3 JUMPI PUSH1 0x40 MLOAD PUSH3 0x461BCD PUSH1 0xE5 SHL DUP2 MSTORE PUSH1 0x20 PUSH1 0x4 DUP3 ADD MSTORE PUSH1 0xB PUSH1 0x24 DUP3 ADD MSTORE PUSH11 0x756E6B6E6F776E206F7267 PUSH1 0xA8 SHL PUSH1 0x44 DUP3 ADD MSTORE PUSH1 0x64 ADD JUMPDEST PUSH1 0x40 MLOAD DUP1 SWAP2 SUB SWAP1 REVERT JUMPDEST DUP4 DUP6 LT ISZERO PUSH2 0x32A JUMPI PUSH1 0x40 MLOAD PUSH3 0x461BCD PUSH1 0xE5 SHL DUP2 MSTORE PUSH1 0x20 PUSH1 0x4 DUP3 ADD MSTORE PUSH1 0x2E PUSH1 0x24 DUP3 ADD MSTORE PUSH32 0x20706F6F6C2073697A65206D7573742062652067726561746572206F72206571 PUSH1 0x44 DUP3 ADD MSTORE PUSH14 0x3AB0B6103A379030B6B7BAB73A1 PUSH1 0x95 SHL PUSH1 0x64 DUP3 ADD MSTORE PUSH1 0x84 ADD PUSH2 0x2BA JUMP JUMPDEST PUSH20 0xEEEEEEEEEEEEEEEEEEEEEEEEEEEEEEEEEEEEEEED NOT PUSH1 0x1 PUSH1 0x1 PUSH1 0xA0 SHL SUB DUP8 AND ADD PUSH2 0x3C1 JUMPI DUP4 CALLVALUE LT ISZERO PUSH2 0x3BC JUMPI PUSH1 0x40 MLOAD PUSH3 0x461BCD PUSH1 0xE5 SHL DUP2 MSTORE PUSH1 0x20 PUSH1 0x4 DUP3 ADD MSTORE PUSH1 0x34 PUSH1 0x24 DUP3 ADD MSTORE PUSH32 0x696E73756666696369656E7420696E697469616C20616D6F756E74207472616E PUSH1 0x44 DUP3 ADD MSTORE PUSH20 0x1CDB5A5D1D1959081D1BC8199D5B99081C1BDBDB PUSH1 0x62 SHL PUSH1 0x64 DUP3 ADD MSTORE PUSH1 0x84 ADD PUSH2 0x2BA JUMP JUMPDEST PUSH2 0x45C JUMP JUMPDEST PUSH1 0x40 MLOAD PUSH4 0x23B872DD PUSH1 0xE0 SHL DUP2 MSTORE CALLER PUSH1 0x4 DUP3 ADD MSTORE PUSH1 0x1 PUSH1 0x1 PUSH1 0xA0 SHL SUB PUSH32 0x0 DUP2 AND PUSH1 0x24 DUP4 ADD MSTORE PUSH1 0x44 DUP3 ADD DUP7 SWAP1 MSTORE DUP8 AND SWAP1 PUSH4 0x23B872DD SWAP1 PUSH1 0x64 ADD PUSH1 0x20 PUSH1 0x40 MLOAD DUP1 DUP4 SUB DUP2 PUSH1 0x0 DUP8 GAS CALL ISZERO DUP1 ISZERO PUSH2 0x436 JUMPI RETURNDATASIZE PUSH1 0x0 DUP1 RETURNDATACOPY RETURNDATASIZE PUSH1 0x0 REVERT JUMPDEST POP POP POP POP PUSH1 0x40 MLOAD RETURNDATASIZE PUSH1 0x1F NOT PUSH1 0x1F DUP3 ADD AND DUP3 ADD DUP1 PUSH1 0x40 MSTORE POP DUP2 ADD SWAP1 PUSH2 0x45A SWAP2 SWAP1 PUSH2 0x166B JUMP JUMPDEST POP JUMPDEST PUSH1 0x0 PUSH1 0x7 DUP9 PUSH1 0x40 MLOAD PUSH2 0x46E SWAP2 SWAP1 PUSH2 0x164F JUMP JUMPDEST SWAP1 DUP2 MSTORE PUSH1 0x20 ADD PUSH1 0x40 MLOAD DUP1 SWAP2 SUB SWAP1 KECCAK256 SLOAD SWAP1 POP PUSH1 0x0 PUSH1 0x40 MLOAD PUSH1 0x20 ADD PUSH2 0x4A6 SWAP1 PUSH1 0x20 DUP1 DUP3 MSTORE PUSH1 0x1 SWAP1 DUP3 ADD MSTORE PUSH1 0x3 PUSH1 0xFC SHL PUSH1 0x40 DUP3 ADD MSTORE PUSH1 0x60 ADD SWAP1 JUMP JUMPDEST PUSH1 0x40 DUP1 MLOAD PUSH1 0x1F NOT DUP2 DUP5 SUB ADD DUP2 MSTORE PUSH1 0x2 SLOAD PUSH1 0x0 SLOAD DUP5 DUP5 ADD DUP5 MSTORE PUSH1 0x1E DUP6 MSTORE PUSH32 0x52455345525645445F4D5F415F44454C49564552595F53545241544547590000 PUSH1 0x20 DUP7 ADD MSTORE SWAP3 MLOAD PUSH4 0xBF40FAC1 PUSH1 0xE0 SHL DUP2 MSTORE SWAP2 SWAP5 POP PUSH1 0x1 PUSH1 0x1 PUSH1 0xA0 SHL SUB SWAP1 DUP2 AND SWAP4 PUSH4 0xE1007D4A SWAP4 DUP8 SWAP4 SWAP3 AND SWAP2 PUSH4 0xBF40FAC1 SWAP2 PUSH2 0x520 SWAP2 PUSH1 0x4 ADD PUSH2 0x13B4 JUMP JUMPDEST PUSH1 0x20 PUSH1 0x40 MLOAD DUP1 DUP4 SUB DUP2 DUP7 GAS STATICCALL ISZERO DUP1 ISZERO PUSH2 0x53D JUMPI RETURNDATASIZE PUSH1 0x0 DUP1 RETURNDATACOPY RETURNDATASIZE PUSH1 0x0 REVERT JUMPDEST POP POP POP POP PUSH1 0x40 MLOAD RETURNDATASIZE PUSH1 0x1F NOT PUSH1 0x1F DUP3 ADD AND DUP3 ADD DUP1 PUSH1 0x40 MSTORE POP DUP2 ADD SWAP1 PUSH2 0x561 SWAP2 SWAP1 PUSH2 0x168D JUMP JUMPDEST DUP5 DUP13 DUP13 PUSH2 0x592 DUP13 PUSH1 0x40 DUP1 MLOAD DUP1 DUP3 ADD DUP3 MSTORE PUSH1 0x0 DUP2 MSTORE PUSH1 0x60 PUSH1 0x20 SWAP2 DUP3 ADD MSTORE DUP2 MLOAD DUP1 DUP4 ADD SWAP1 SWAP3 MSTORE PUSH1 0x1 DUP3 MSTORE DUP2 ADD SWAP2 SWAP1 SWAP2 MSTORE SWAP1 JUMP JUMPDEST DUP12 PUSH1 0x40 MLOAD DUP9 PUSH4 0xFFFFFFFF AND PUSH1 0xE0 SHL DUP2 MSTORE PUSH1 0x4 ADD PUSH2 0x5B5 SWAP8 SWAP7 SWAP6 SWAP5 SWAP4 SWAP3 SWAP2 SWAP1 PUSH2 0x16C9 JUMP JUMPDEST PUSH1 0x20 PUSH1 0x40 MLOAD DUP1 DUP4 SUB DUP2 PUSH1 0x0 DUP8 GAS CALL ISZERO DUP1 ISZERO PUSH2 0x5D4 JUMPI RETURNDATASIZE PUSH1 0x0 DUP1 RETURNDATACOPY RETURNDATASIZE PUSH1 0x0 REVERT JUMPDEST POP POP POP POP PUSH1 0x40 MLOAD RETURNDATASIZE PUSH1 0x1F NOT PUSH1 0x1F DUP3 ADD AND DUP3 ADD DUP1 PUSH1 0x40 MSTORE POP DUP2 ADD SWAP1 PUSH2 0x5F8 SWAP2 SWAP1 PUSH2 0x1734 JUMP JUMPDEST SWAP3 POP PUSH1 0x8 DUP10 PUSH1 0x40 MLOAD PUSH2 0x60A SWAP2 SWAP1 PUSH2 0x164F JUMP JUMPDEST SWAP1 DUP2 MSTORE PUSH1 0x40 MLOAD PUSH1 0x20 SWAP2 DUP2 SWAP1 SUB DUP3 ADD SWAP1 KECCAK256 DUP1 SLOAD PUSH1 0x1 DUP2 ADD DUP3 SSTORE PUSH1 0x0 SWAP2 DUP3 MSTORE SWAP2 SWAP1 KECCAK256 ADD DUP4 SWAP1 SSTORE PUSH1 0x1 PUSH1 0x1 PUSH1 0xA0 SHL SUB DUP9 AND PUSH20 0xEEEEEEEEEEEEEEEEEEEEEEEEEEEEEEEEEEEEEEED NOT ADD PUSH2 0x6BF JUMPI PUSH1 0x2 SLOAD PUSH1 0x40 MLOAD PUSH4 0x16B35BEB PUSH1 0xE2 SHL DUP2 MSTORE PUSH1 0x4 DUP2 ADD DUP6 SWAP1 MSTORE PUSH1 0x24 DUP2 ADD DUP9 SWAP1 MSTORE PUSH1 0x1 PUSH1 0x1 PUSH1 0xA0 SHL SUB SWAP1 SWAP2 AND SWAP1 PUSH4 0x5ACD6FAC SWAP1 DUP9 SWAP1 PUSH1 0x44 ADD PUSH1 0x0 PUSH1 0x40 MLOAD DUP1 DUP4 SUB DUP2 DUP6 DUP9 DUP1 EXTCODESIZE ISZERO DUP1 ISZERO PUSH2 0x6A1 JUMPI PUSH1 0x0 DUP1 REVERT JUMPDEST POP GAS CALL ISZERO DUP1 ISZERO PUSH2 0x6B5 JUMPI RETURNDATASIZE PUSH1 0x0 DUP1 RETURNDATACOPY RETURNDATASIZE PUSH1 0x0 REVERT JUMPDEST POP POP POP POP POP PUSH2 0x79D JUMP JUMPDEST PUSH1 0x2 SLOAD PUSH1 0x40 MLOAD PUSH4 0x95EA7B3 PUSH1 0xE0 SHL DUP2 MSTORE PUSH1 0x1 PUSH1 0x1 PUSH1 0xA0 SHL SUB SWAP2 DUP3 AND PUSH1 0x4 DUP3 ADD MSTORE PUSH1 0x24 DUP2 ADD DUP9 SWAP1 MSTORE SWAP1 DUP10 AND SWAP1 PUSH4 0x95EA7B3 SWAP1 PUSH1 0x44 ADD PUSH1 0x20 PUSH1 0x40 MLOAD DUP1 DUP4 SUB DUP2 PUSH1 0x0 DUP8 GAS CALL ISZERO DUP1 ISZERO PUSH2 0x712 JUMPI RETURNDATASIZE PUSH1 0x0 DUP1 RETURNDATACOPY RETURNDATASIZE PUSH1 0x0 REVERT JUMPDEST POP POP POP POP PUSH1 0x40 MLOAD RETURNDATASIZE PUSH1 0x1F NOT PUSH1 0x1F DUP3 ADD AND DUP3 ADD DUP1 PUSH1 0x40 MSTORE POP DUP2 ADD SWAP1 PUSH2 0x736 SWAP2 SWAP1 PUSH2 0x166B JUMP JUMPDEST POP PUSH1 0x2 SLOAD PUSH1 0x40 MLOAD PUSH4 0x16B35BEB PUSH1 0xE2 SHL DUP2 MSTORE PUSH1 0x4 DUP2 ADD DUP6 SWAP1 MSTORE PUSH1 0x24 DUP2 ADD DUP9 SWAP1 MSTORE PUSH1 0x1 PUSH1 0x1 PUSH1 0xA0 SHL SUB SWAP1 SWAP2 AND SWAP1 PUSH4 0x5ACD6FAC SWAP1 PUSH1 0x44 ADD PUSH1 0x0 PUSH1 0x40 MLOAD DUP1 DUP4 SUB DUP2 PUSH1 0x0 DUP8 DUP1 EXTCODESIZE ISZERO DUP1 ISZERO PUSH2 0x784 JUMPI PUSH1 0x0 DUP1 REVERT JUMPDEST POP GAS CALL ISZERO DUP1 ISZERO PUSH2 0x798 JUMPI RETURNDATASIZE PUSH1 0x0 DUP1 RETURNDATACOPY RETURNDATASIZE PUSH1 0x0 REVERT JUMPDEST POP POP POP POP JUMPDEST POP POP SWAP7 SWAP6 POP POP POP POP POP POP JUMP JUMPDEST PUSH1 0x3 SLOAD PUSH1 0x40 MLOAD PUSH1 0x0 SWAP2 PUSH1 0x1 PUSH1 0x1 PUSH1 0xA0 SHL SUB AND SWAP1 PUSH4 0xA41B40F4 SWAP1 PUSH1 0x7 SWAP1 PUSH2 0x7D0 SWAP1 DUP10 SWAP1 PUSH2 0x164F JUMP JUMPDEST SWAP1 DUP2 MSTORE PUSH1 0x40 MLOAD SWAP1 DUP2 SWAP1 SUB PUSH1 0x20 ADD DUP2 KECCAK256 SLOAD PUSH1 0x1 PUSH1 0x1 PUSH1 0xE0 SHL SUB NOT PUSH1 0xE0 DUP5 SWAP1 SHL AND DUP3 MSTORE PUSH2 0x803 SWAP2 DUP9 SWAP1 DUP9 SWAP1 DUP9 SWAP1 PUSH1 0x4 ADD PUSH2 0x174D JUMP JUMPDEST PUSH1 0x20 PUSH1 0x40 MLOAD DUP1 DUP4 SUB DUP2 PUSH1 0x0 DUP8 GAS CALL ISZERO DUP1 ISZERO PUSH2 0x822 JUMPI RETURNDATASIZE PUSH1 0x0 DUP1 RETURNDATACOPY RETURNDATASIZE PUSH1 0x0 REVERT JUMPDEST POP POP POP POP PUSH1 0x40 MLOAD RETURNDATASIZE PUSH1 0x1F NOT PUSH1 0x1F DUP3 ADD AND DUP3 ADD DUP1 PUSH1 0x40 MSTORE POP DUP2 ADD SWAP1 PUSH2 0x846 SWAP2 SWAP1 PUSH2 0x168D JUMP JUMPDEST PUSH1 0x40 DUP1 MLOAD PUSH1 0x1 PUSH1 0x1 PUSH1 0xA0 SHL SUB DUP4 AND PUSH1 0x20 DUP3 ADD MSTORE SWAP2 SWAP3 POP PUSH1 0x0 SWAP2 ADD PUSH1 0x40 DUP1 MLOAD PUSH1 0x1F NOT DUP2 DUP5 SUB ADD DUP2 MSTORE SWAP1 DUP3 SWAP1 MSTORE PUSH1 0x2 SLOAD PUSH4 0x1D703A7 PUSH1 0xE2 SHL DUP4 MSTORE SWAP1 SWAP3 POP PUSH1 0x1 PUSH1 0x1 PUSH1 0xA0 SHL SUB AND SWAP1 PUSH4 0x75C0E9C SWAP1 PUSH2 0x8A1 SWAP1 DUP9 SWAP1 DUP6 SWAP1 PUSH1 0x4 ADD PUSH2 0x177D JUMP JUMPDEST PUSH1 0x20 PUSH1 0x40 MLOAD DUP1 DUP4 SUB DUP2 PUSH1 0x0 DUP8 GAS CALL ISZERO DUP1 ISZERO PUSH2 0x8C0 JUMPI RETURNDATASIZE PUSH1 0x0 DUP1 RETURNDATACOPY RETURNDATASIZE PUSH1 0x0 REVERT JUMPDEST POP POP POP POP PUSH1 0x40 MLOAD RETURNDATASIZE PUSH1 0x1F NOT PUSH1 0x1F DUP3 ADD AND DUP3 ADD DUP1 PUSH1 0x40 MSTORE POP DUP2 ADD SWAP1 PUSH2 0x8E4 SWAP2 SWAP1 PUSH2 0x168D JUMP JUMPDEST POP PUSH1 0x40 DUP1 MLOAD DUP1 DUP3 ADD DUP3 MSTORE PUSH1 0x1 PUSH1 0x1 PUSH1 0xA0 SHL SUB DUP5 DUP2 AND DUP1 DUP4 MSTORE PUSH1 0x20 DUP1 DUP5 ADD DUP9 DUP2 MSTORE DUP6 MLOAD SWAP2 DUP3 ADD SWAP3 SWAP1 SWAP3 MSTORE SWAP1 MLOAD DUP2 DUP6 ADD MSTORE DUP4 MLOAD DUP1 DUP3 SUB DUP6 ADD DUP2 MSTORE PUSH1 0x60 DUP3 ADD SWAP5 DUP6 SWAP1 MSTORE PUSH1 0x2 SLOAD PUSH4 0x5D87031 PUSH1 0xE3 SHL SWAP1 SWAP6 MSTORE SWAP3 SWAP4 SWAP1 SWAP2 AND SWAP1 PUSH4 0x2EC38188 SWAP1 PUSH2 0x94E SWAP1 DUP11 SWAP1 DUP6 SWAP1 PUSH1 0x64 ADD PUSH2 0x177D JUMP JUMPDEST PUSH1 0x0 PUSH1 0x40 MLOAD DUP1 DUP4 SUB DUP2 PUSH1 0x0 DUP8 DUP1 EXTCODESIZE ISZERO DUP1 ISZERO PUSH2 0x968 JUMPI PUSH1 0x0 DUP1 REVERT JUMPDEST POP GAS CALL ISZERO DUP1 ISZERO PUSH2 0x97C JUMPI RETURNDATASIZE PUSH1 0x0 DUP1 RETURNDATACOPY RETURNDATASIZE PUSH1 0x0 REVERT JUMPDEST POP POP POP POP POP POP POP SWAP5 SWAP4 POP POP POP POP JUMP JUMPDEST PUSH1 0x0 PUSH1 0x5 DUP5 PUSH1 0x40 MLOAD PUSH2 0x99D SWAP2 SWAP1 PUSH2 0x164F JUMP JUMPDEST SWAP1 DUP2 MSTORE PUSH1 0x40 MLOAD SWAP1 DUP2 SWAP1 SUB PUSH1 0x20 ADD SWAP1 KECCAK256 SLOAD PUSH1 0xFF AND ISZERO PUSH2 0x9F3 JUMPI PUSH1 0x40 MLOAD PUSH3 0x461BCD PUSH1 0xE5 SHL DUP2 MSTORE PUSH1 0x20 PUSH1 0x4 DUP3 ADD MSTORE PUSH1 0x13 PUSH1 0x24 DUP3 ADD MSTORE PUSH19 0x1BDC99C8185B1C9958591E4818DC99585D1959 PUSH1 0x6A SHL PUSH1 0x44 DUP3 ADD MSTORE PUSH1 0x64 ADD PUSH2 0x2BA JUMP JUMPDEST PUSH1 0x1 PUSH1 0x5 DUP6 PUSH1 0x40 MLOAD PUSH2 0xA05 SWAP2 SWAP1 PUSH2 0x164F JUMP JUMPDEST SWAP1 DUP2 MSTORE PUSH1 0x40 MLOAD SWAP1 DUP2 SWAP1 SUB PUSH1 0x20 ADD SWAP1 KECCAK256 DUP1 SLOAD SWAP2 ISZERO ISZERO PUSH1 0xFF NOT SWAP1 SWAP3 AND SWAP2 SWAP1 SWAP2 OR SWAP1 SSTORE PUSH1 0x4 DUP1 SLOAD PUSH1 0x1 DUP2 ADD DUP3 SSTORE PUSH1 0x0 SWAP2 SWAP1 SWAP2 MSTORE PUSH32 0x8A35ACFBC15FF81A39AE7D344FD709F28E8600B4AA8C65C6B64BFE7FE36BD19B ADD PUSH2 0xA61 DUP6 DUP3 PUSH2 0x1821 JUMP JUMPDEST POP PUSH1 0x1 SLOAD PUSH1 0x1 PUSH1 0x1 PUSH1 0xA0 SHL SUB AND PUSH4 0x3A92F65F TIMESTAMP DUP7 PUSH2 0xAA3 DUP8 PUSH1 0x40 DUP1 MLOAD DUP1 DUP3 ADD DUP3 MSTORE PUSH1 0x0 DUP2 MSTORE PUSH1 0x60 PUSH1 0x20 SWAP2 DUP3 ADD MSTORE DUP2 MLOAD DUP1 DUP4 ADD SWAP1 SWAP3 MSTORE PUSH1 0x1 DUP3 MSTORE DUP2 ADD SWAP2 SWAP1 SWAP2 MSTORE SWAP1 JUMP JUMPDEST CALLER DUP8 PUSH1 0x40 MLOAD DUP7 PUSH4 0xFFFFFFFF AND PUSH1 0xE0 SHL DUP2 MSTORE PUSH1 0x4 ADD PUSH2 0xAC5 SWAP6 SWAP5 SWAP4 SWAP3 SWAP2 SWAP1 PUSH2 0x18E1 JUMP JUMPDEST PUSH1 0x20 PUSH1 0x40 MLOAD DUP1 DUP4 SUB DUP2 PUSH1 0x0 DUP8 GAS CALL ISZERO DUP1 ISZERO PUSH2 0xAE4 JUMPI RETURNDATASIZE PUSH1 0x0 DUP1 RETURNDATACOPY RETURNDATASIZE PUSH1 0x0 REVERT JUMPDEST POP POP POP POP PUSH1 0x40 MLOAD RETURNDATASIZE PUSH1 0x1F NOT PUSH1 0x1F DUP3 ADD AND DUP3 ADD DUP1 PUSH1 0x40 MSTORE POP DUP2 ADD SWAP1 PUSH2 0xB08 SWAP2 SWAP1 PUSH2 0x1734 JUMP JUMPDEST SWAP1 POP DUP1 PUSH1 0x7 DUP6 PUSH1 0x40 MLOAD PUSH2 0xB1B SWAP2 SWAP1 PUSH2 0x164F JUMP JUMPDEST SWAP1 DUP2 MSTORE PUSH1 0x40 MLOAD SWAP1 DUP2 SWAP1 SUB PUSH1 0x20 ADD SWAP1 KECCAK256 SSTORE SWAP4 SWAP3 POP POP POP JUMP JUMPDEST PUSH1 0x60 PUSH1 0x9 DUP3 PUSH1 0x40 MLOAD PUSH2 0xB44 SWAP2 SWAP1 PUSH2 0x164F JUMP JUMPDEST SWAP1 DUP2 MSTORE PUSH1 0x40 DUP1 MLOAD SWAP2 DUP3 SWAP1 SUB PUSH1 0x20 SWAP1 DUP2 ADD DUP4 KECCAK256 DUP1 SLOAD DUP1 DUP4 MUL DUP6 ADD DUP4 ADD SWAP1 SWAP4 MSTORE DUP3 DUP5 MSTORE SWAP2 SWAP1 DUP4 ADD DUP3 DUP3 DUP1 ISZERO PUSH2 0xBA0 JUMPI PUSH1 0x20 MUL DUP3 ADD SWAP2 SWAP1 PUSH1 0x0 MSTORE PUSH1 0x20 PUSH1 0x0 KECCAK256 SWAP1 JUMPDEST DUP2 SLOAD PUSH1 0x1 PUSH1 0x1 PUSH1 0xA0 SHL SUB AND DUP2 MSTORE PUSH1 0x1 SWAP1 SWAP2 ADD SWAP1 PUSH1 0x20 ADD DUP1 DUP4 GT PUSH2 0xB82 JUMPI JUMPDEST POP POP POP POP POP SWAP1 POP SWAP2 SWAP1 POP JUMP JUMPDEST PUSH1 0x0 PUSH1 0x5 DUP3 PUSH1 0x40 MLOAD PUSH2 0xBBE SWAP2 SWAP1 PUSH2 0x164F JUMP JUMPDEST SWAP1 DUP2 MSTORE PUSH1 0x40 MLOAD SWAP1 DUP2 SWAP1 SUB PUSH1 0x20 ADD SWAP1 KECCAK256 SLOAD PUSH1 0xFF AND ISZERO PUSH2 0xC14 JUMPI PUSH1 0x40 MLOAD PUSH3 0x461BCD PUSH1 0xE5 SHL DUP2 MSTORE PUSH1 0x20 PUSH1 0x4 DUP3 ADD MSTORE PUSH1 0x13 PUSH1 0x24 DUP3 ADD MSTORE PUSH19 0x1BDC99C8185B1C9958591E4818DC99585D1959 PUSH1 0x6A SHL PUSH1 0x44 DUP3 ADD MSTORE PUSH1 0x64 ADD PUSH2 0x2BA JUMP JUMPDEST PUSH1 0x1 PUSH1 0x5 DUP4 PUSH1 0x40 MLOAD PUSH2 0xC26 SWAP2 SWAP1 PUSH2 0x164F JUMP JUMPDEST SWAP1 DUP2 MSTORE PUSH1 0x40 MLOAD SWAP1 DUP2 SWAP1 SUB PUSH1 0x20 ADD SWAP1 KECCAK256 DUP1 SLOAD SWAP2 ISZERO ISZERO PUSH1 0xFF NOT SWAP1 SWAP3 AND SWAP2 SWAP1 SWAP2 OR SWAP1 SSTORE PUSH1 0x4 DUP1 SLOAD PUSH1 0x1 DUP2 ADD DUP3 SSTORE PUSH1 0x0 SWAP2 SWAP1 SWAP2 MSTORE PUSH32 0x8A35ACFBC15FF81A39AE7D344FD709F28E8600B4AA8C65C6B64BFE7FE36BD19B ADD PUSH2 0xC82 DUP4 DUP3 PUSH2 0x1821 JUMP JUMPDEST POP PUSH1 0x1 PUSH1 0x6 DUP4 PUSH1 0x40 MLOAD PUSH2 0xC95 SWAP2 SWAP1 PUSH2 0x164F JUMP JUMPDEST SWAP1 DUP2 MSTORE PUSH1 0x40 MLOAD SWAP1 DUP2 SWAP1 SUB PUSH1 0x20 ADD DUP2 KECCAK256 DUP1 SLOAD SWAP3 ISZERO ISZERO PUSH1 0xFF NOT SWAP1 SWAP4 AND SWAP3 SWAP1 SWAP3 OR SWAP1 SWAP2 SSTORE DUP4 SWAP1 PUSH1 0x7 SWAP1 PUSH2 0xCC6 SWAP1 DUP6 SWAP1 PUSH2 0x164F JUMP JUMPDEST SWAP1 DUP2 MSTORE PUSH1 0x40 MLOAD SWAP1 DUP2 SWAP1 SUB PUSH1 0x20 ADD SWAP1 KECCAK256 SSTORE POP PUSH1 0x1 SWAP3 SWAP2 POP POP JUMP JUMPDEST PUSH1 0x0 PUSH1 0x7 DUP3 PUSH1 0x40 MLOAD PUSH2 0xCF1 SWAP2 SWAP1 PUSH2 0x164F JUMP JUMPDEST SWAP1 DUP2 MSTORE PUSH1 0x20 ADD PUSH1 0x40 MLOAD DUP1 SWAP2 SUB SWAP1 KECCAK256 SLOAD SWAP1 POP SWAP2 SWAP1 POP JUMP JUMPDEST PUSH1 0x0 DUP1 SLOAD PUSH1 0x40 DUP1 MLOAD DUP1 DUP3 ADD DUP3 MSTORE PUSH1 0x10 DUP2 MSTORE PUSH16 0x2922A9A2A92B22A22FA6AFA0A226A4A7 PUSH1 0x81 SHL PUSH1 0x20 DUP3 ADD MSTORE SWAP1 MLOAD PUSH4 0xBF40FAC1 PUSH1 0xE0 SHL DUP2 MSTORE PUSH1 0x1 PUSH1 0x1 PUSH1 0xA0 SHL SUB SWAP1 SWAP3 AND SWAP2 PUSH4 0xBF40FAC1 SWAP2 PUSH2 0xD5B SWAP2 PUSH1 0x4 ADD PUSH2 0x13B4 JUMP JUMPDEST PUSH1 0x20 PUSH1 0x40 MLOAD DUP1 DUP4 SUB DUP2 DUP7 GAS STATICCALL ISZERO DUP1 ISZERO PUSH2 0xD78 JUMPI RETURNDATASIZE PUSH1 0x0 DUP1 RETURNDATACOPY RETURNDATASIZE PUSH1 0x0 REVERT JUMPDEST POP POP POP POP PUSH1 0x40 MLOAD RETURNDATASIZE PUSH1 0x1F NOT PUSH1 0x1F DUP3 ADD AND DUP3 ADD DUP1 PUSH1 0x40 MSTORE POP DUP2 ADD SWAP1 PUSH2 0xD9C SWAP2 SWAP1 PUSH2 0x168D JUMP JUMPDEST PUSH1 0x1 PUSH1 0x1 PUSH1 0xA0 SHL SUB AND CALLER PUSH1 0x1 PUSH1 0x1 PUSH1 0xA0 SHL SUB AND EQ PUSH2 0xDEB JUMPI PUSH1 0x40 MLOAD PUSH3 0x461BCD PUSH1 0xE5 SHL DUP2 MSTORE PUSH1 0x20 PUSH1 0x4 DUP3 ADD MSTORE PUSH1 0xC PUSH1 0x24 DUP3 ADD MSTORE PUSH12 0x1030B236B4B71037B7363C9 PUSH1 0xA5 SHL PUSH1 0x44 DUP3 ADD MSTORE PUSH1 0x64 ADD PUSH2 0x2BA JUMP JUMPDEST PUSH1 0x0 SLOAD PUSH1 0x40 DUP1 MLOAD DUP1 DUP3 ADD DUP3 MSTORE PUSH1 0x12 DUP2 MSTORE PUSH18 0x52455345525645445F414C4C4F5F434F5245 PUSH1 0x70 SHL PUSH1 0x20 DUP3 ADD MSTORE SWAP1 MLOAD PUSH4 0xBF40FAC1 PUSH1 0xE0 SHL DUP2 MSTORE PUSH1 0x1 PUSH1 0x1 PUSH1 0xA0 SHL SUB SWAP1 SWAP3 AND SWAP2 PUSH4 0xBF40FAC1 SWAP2 PUSH2 0xE40 SWAP2 PUSH1 0x4 ADD PUSH2 0x13B4 JUMP JUMPDEST PUSH1 0x20 PUSH1 0x40 MLOAD DUP1 DUP4 SUB DUP2 DUP7 GAS STATICCALL ISZERO DUP1 ISZERO PUSH2 0xE5D JUMPI RETURNDATASIZE PUSH1 0x0 DUP1 RETURNDATACOPY RETURNDATASIZE PUSH1 0x0 REVERT JUMPDEST POP POP POP POP PUSH1 0x40 MLOAD RETURNDATASIZE PUSH1 0x1F NOT PUSH1 0x1F DUP3 ADD AND DUP3 ADD DUP1 PUSH1 0x40 MSTORE POP DUP2 ADD SWAP1 PUSH2 0xE81 SWAP2 SWAP1 PUSH2 0x168D JUMP JUMPDEST PUSH1 0x2 DUP1 SLOAD PUSH1 0x1 PUSH1 0x1 PUSH1 0xA0 SHL SUB NOT AND PUSH1 0x1 PUSH1 0x1 PUSH1 0xA0 SHL SUB SWAP3 DUP4 AND OR SWAP1 SSTORE PUSH1 0x0 SLOAD PUSH1 0x40 DUP1 MLOAD DUP1 DUP3 ADD DUP3 MSTORE PUSH1 0x1E DUP2 MSTORE PUSH32 0x52455345525645445F414C4C4F5F50524F46494C455F52454749535445520000 PUSH1 0x20 DUP3 ADD MSTORE SWAP1 MLOAD PUSH4 0xBF40FAC1 PUSH1 0xE0 SHL DUP2 MSTORE SWAP2 SWAP1 SWAP3 AND SWAP2 PUSH4 0xBF40FAC1 SWAP2 PUSH2 0xEF7 SWAP2 SWAP1 PUSH1 0x4 ADD PUSH2 0x13B4 JUMP JUMPDEST PUSH1 0x20 PUSH1 0x40 MLOAD DUP1 DUP4 SUB DUP2 DUP7 GAS STATICCALL ISZERO DUP1 ISZERO PUSH2 0xF14 JUMPI RETURNDATASIZE PUSH1 0x0 DUP1 RETURNDATACOPY RETURNDATASIZE PUSH1 0x0 REVERT JUMPDEST POP POP POP POP PUSH1 0x40 MLOAD RETURNDATASIZE PUSH1 0x1F NOT PUSH1 0x1F DUP3 ADD AND DUP3 ADD DUP1 PUSH1 0x40 MSTORE POP DUP2 ADD SWAP1 PUSH2 0xF38 SWAP2 SWAP1 PUSH2 0x168D JUMP JUMPDEST PUSH1 0x1 DUP1 SLOAD PUSH1 0x1 PUSH1 0x1 PUSH1 0xA0 SHL SUB NOT AND PUSH1 0x1 PUSH1 0x1 PUSH1 0xA0 SHL SUB SWAP3 DUP4 AND OR SWAP1 SSTORE PUSH1 0x0 SLOAD PUSH1 0x40 DUP1 MLOAD DUP1 DUP3 ADD DUP3 MSTORE PUSH1 0x18 DUP2 MSTORE PUSH32 0x52455345525645445F50524F4A4543545F464143544F52590000000000000000 PUSH1 0x20 DUP3 ADD MSTORE SWAP1 MLOAD PUSH4 0xBF40FAC1 PUSH1 0xE0 SHL DUP2 MSTORE SWAP2 SWAP1 SWAP3 AND SWAP2 PUSH4 0xBF40FAC1 SWAP2 PUSH2 0xFAE SWAP2 SWAP1 PUSH1 0x4 ADD PUSH2 0x13B4 JUMP JUMPDEST PUSH1 0x20 PUSH1 0x40 MLOAD DUP1 DUP4 SUB DUP2 DUP7 GAS STATICCALL ISZERO DUP1 ISZERO PUSH2 0xFCB JUMPI RETURNDATASIZE PUSH1 0x0 DUP1 RETURNDATACOPY RETURNDATASIZE PUSH1 0x0 REVERT JUMPDEST POP POP POP POP PUSH1 0x40 MLOAD RETURNDATASIZE PUSH1 0x1F NOT PUSH1 0x1F DUP3 ADD AND DUP3 ADD DUP1 PUSH1 0x40 MSTORE POP DUP2 ADD SWAP1 PUSH2 0xFEF SWAP2 SWAP1 PUSH2 0x168D JUMP JUMPDEST PUSH1 0x3 DUP1 SLOAD PUSH1 0x1 PUSH1 0x1 PUSH1 0xA0 SHL SUB NOT AND PUSH1 0x1 PUSH1 0x1 PUSH1 0xA0 SHL SUB SWAP3 SWAP1 SWAP3 AND SWAP2 SWAP1 SWAP2 OR SWAP1 SSTORE POP PUSH1 0x1 SWAP1 JUMP JUMPDEST PUSH1 0x60 PUSH1 0x8 DUP3 PUSH1 0x40 MLOAD PUSH2 0x1027 SWAP2 SWAP1 PUSH2 0x164F JUMP JUMPDEST SWAP1 DUP2 MSTORE PUSH1 0x40 DUP1 MLOAD SWAP2 DUP3 SWAP1 SUB PUSH1 0x20 SWAP1 DUP2 ADD DUP4 KECCAK256 DUP1 SLOAD DUP1 DUP4 MUL DUP6 ADD DUP4 ADD SWAP1 SWAP4 MSTORE DUP3 DUP5 MSTORE SWAP2 SWAP1 DUP4 ADD DUP3 DUP3 DUP1 ISZERO PUSH2 0xBA0 JUMPI PUSH1 0x20 MUL DUP3 ADD SWAP2 SWAP1 PUSH1 0x0 MSTORE PUSH1 0x20 PUSH1 0x0 KECCAK256 SWAP1 JUMPDEST DUP2 SLOAD DUP2 MSTORE PUSH1 0x20 ADD SWAP1 PUSH1 0x1 ADD SWAP1 DUP1 DUP4 GT PUSH2 0x1065 JUMPI POP POP POP POP POP SWAP1 POP SWAP2 SWAP1 POP JUMP JUMPDEST PUSH1 0x60 PUSH1 0x4 DUP1 SLOAD DUP1 PUSH1 0x20 MUL PUSH1 0x20 ADD PUSH1 0x40 MLOAD SWAP1 DUP2 ADD PUSH1 0x40 MSTORE DUP1 SWAP3 SWAP2 SWAP1 DUP2 DUP2 MSTORE PUSH1 0x20 ADD PUSH1 0x0 SWAP1 JUMPDEST DUP3 DUP3 LT ISZERO PUSH2 0x1154 JUMPI DUP4 DUP3 SWAP1 PUSH1 0x0 MSTORE PUSH1 0x20 PUSH1 0x0 KECCAK256 ADD DUP1 SLOAD PUSH2 0x10C7 SWAP1 PUSH2 0x1796 JUMP JUMPDEST DUP1 PUSH1 0x1F ADD PUSH1 0x20 DUP1 SWAP2 DIV MUL PUSH1 0x20 ADD PUSH1 0x40 MLOAD SWAP1 DUP2 ADD PUSH1 0x40 MSTORE DUP1 SWAP3 SWAP2 SWAP1 DUP2 DUP2 MSTORE PUSH1 0x20 ADD DUP3 DUP1 SLOAD PUSH2 0x10F3 SWAP1 PUSH2 0x1796 JUMP JUMPDEST DUP1 ISZERO PUSH2 0x1140 JUMPI DUP1 PUSH1 0x1F LT PUSH2 0x1115 JUMPI PUSH2 0x100 DUP1 DUP4 SLOAD DIV MUL DUP4 MSTORE SWAP2 PUSH1 0x20 ADD SWAP2 PUSH2 0x1140 JUMP JUMPDEST DUP3 ADD SWAP2 SWAP1 PUSH1 0x0 MSTORE PUSH1 0x20 PUSH1 0x0 KECCAK256 SWAP1 JUMPDEST DUP2 SLOAD DUP2 MSTORE SWAP1 PUSH1 0x1 ADD SWAP1 PUSH1 0x20 ADD DUP1 DUP4 GT PUSH2 0x1123 JUMPI DUP3 SWAP1 SUB PUSH1 0x1F AND DUP3 ADD SWAP2 JUMPDEST POP POP POP POP POP DUP2 MSTORE PUSH1 0x20 ADD SWAP1 PUSH1 0x1 ADD SWAP1 PUSH2 0x10A8 JUMP JUMPDEST POP POP POP POP SWAP1 POP SWAP1 JUMP JUMPDEST PUSH4 0x4E487B71 PUSH1 0xE0 SHL PUSH1 0x0 MSTORE PUSH1 0x41 PUSH1 0x4 MSTORE PUSH1 0x24 PUSH1 0x0 REVERT JUMPDEST PUSH1 0x40 MLOAD PUSH1 0x1F DUP3 ADD PUSH1 0x1F NOT AND DUP2 ADD PUSH8 0xFFFFFFFFFFFFFFFF DUP2 GT DUP3 DUP3 LT OR ISZERO PUSH2 0x119C JUMPI PUSH2 0x119C PUSH2 0x115D JUMP JUMPDEST PUSH1 0x40 MSTORE SWAP2 SWAP1 POP JUMP JUMPDEST PUSH1 0x0 DUP3 PUSH1 0x1F DUP4 ADD SLT PUSH2 0x11B5 JUMPI PUSH1 0x0 DUP1 REVERT JUMPDEST DUP2 CALLDATALOAD PUSH8 0xFFFFFFFFFFFFFFFF DUP2 GT ISZERO PUSH2 0x11CF JUMPI PUSH2 0x11CF PUSH2 0x115D JUMP JUMPDEST PUSH2 0x11E2 PUSH1 0x1F DUP3 ADD PUSH1 0x1F NOT AND PUSH1 0x20 ADD PUSH2 0x1173 JUMP JUMPDEST DUP2 DUP2 MSTORE DUP5 PUSH1 0x20 DUP4 DUP7 ADD ADD GT ISZERO PUSH2 0x11F7 JUMPI PUSH1 0x0 DUP1 REVERT JUMPDEST DUP2 PUSH1 0x20 DUP6 ADD PUSH1 0x20 DUP4 ADD CALLDATACOPY PUSH1 0x0 SWAP2 DUP2 ADD PUSH1 0x20 ADD SWAP2 SWAP1 SWAP2 MSTORE SWAP4 SWAP3 POP POP POP JUMP JUMPDEST PUSH1 0x1 PUSH1 0x1 PUSH1 0xA0 SHL SUB DUP2 AND DUP2 EQ PUSH2 0x1229 JUMPI PUSH1 0x0 DUP1 REVERT JUMPDEST POP JUMP JUMPDEST PUSH1 0x0 DUP3 PUSH1 0x1F DUP4 ADD SLT PUSH2 0x123D JUMPI PUSH1 0x0 DUP1 REVERT JUMPDEST DUP2 CALLDATALOAD PUSH1 0x20 PUSH8 0xFFFFFFFFFFFFFFFF DUP3 GT ISZERO PUSH2 0x1259 JUMPI PUSH2 0x1259 PUSH2 0x115D JUMP JUMPDEST DUP2 PUSH1 0x5 SHL PUSH2 0x1268 DUP3 DUP3 ADD PUSH2 0x1173 JUMP JUMPDEST SWAP3 DUP4 MSTORE DUP5 DUP2 ADD DUP3 ADD SWAP3 DUP3 DUP2 ADD SWAP1 DUP8 DUP6 GT ISZERO PUSH2 0x1282 JUMPI PUSH1 0x0 DUP1 REVERT JUMPDEST DUP4 DUP8 ADD SWAP3 POP JUMPDEST DUP5 DUP4 LT ISZERO PUSH2 0x12AA JUMPI DUP3 CALLDATALOAD PUSH2 0x129B DUP2 PUSH2 0x1214 JUMP JUMPDEST DUP3 MSTORE SWAP2 DUP4 ADD SWAP2 SWAP1 DUP4 ADD SWAP1 PUSH2 0x1288 JUMP JUMPDEST SWAP8 SWAP7 POP POP POP POP POP POP POP JUMP JUMPDEST PUSH1 0x0 DUP1 PUSH1 0x0 DUP1 PUSH1 0x0 DUP1 PUSH1 0xC0 DUP8 DUP10 SUB SLT ISZERO PUSH2 0x12CE JUMPI PUSH1 0x0 DUP1 REVERT JUMPDEST DUP7 CALLDATALOAD PUSH8 0xFFFFFFFFFFFFFFFF DUP1 DUP3 GT ISZERO PUSH2 0x12E6 JUMPI PUSH1 0x0 DUP1 REVERT JUMPDEST PUSH2 0x12F2 DUP11 DUP4 DUP12 ADD PUSH2 0x11A4 JUMP JUMPDEST SWAP8 POP PUSH1 0x20 DUP10 ADD CALLDATALOAD SWAP2 POP PUSH2 0x1304 DUP3 PUSH2 0x1214 JUMP JUMPDEST SWAP1 SWAP6 POP PUSH1 0x40 DUP9 ADD CALLDATALOAD SWAP5 POP PUSH1 0x60 DUP9 ADD CALLDATALOAD SWAP4 POP PUSH1 0x80 DUP9 ADD CALLDATALOAD SWAP1 DUP1 DUP3 GT ISZERO PUSH2 0x1328 JUMPI PUSH1 0x0 DUP1 REVERT JUMPDEST PUSH2 0x1334 DUP11 DUP4 DUP12 ADD PUSH2 0x11A4 JUMP JUMPDEST SWAP4 POP PUSH1 0xA0 DUP10 ADD CALLDATALOAD SWAP2 POP DUP1 DUP3 GT ISZERO PUSH2 0x134A JUMPI PUSH1 0x0 DUP1 REVERT JUMPDEST POP PUSH2 0x1357 DUP10 DUP3 DUP11 ADD PUSH2 0x122C JUMP JUMPDEST SWAP2 POP POP SWAP3 SWAP6 POP SWAP3 SWAP6 POP SWAP3 SWAP6 JUMP JUMPDEST PUSH1 0x0 JUMPDEST DUP4 DUP2 LT ISZERO PUSH2 0x137F JUMPI DUP2 DUP2 ADD MLOAD DUP4 DUP3 ADD MSTORE PUSH1 0x20 ADD PUSH2 0x1367 JUMP JUMPDEST POP POP PUSH1 0x0 SWAP2 ADD MSTORE JUMP JUMPDEST PUSH1 0x0 DUP2 MLOAD DUP1 DUP5 MSTORE PUSH2 0x13A0 DUP2 PUSH1 0x20 DUP7 ADD PUSH1 0x20 DUP7 ADD PUSH2 0x1364 JUMP JUMPDEST PUSH1 0x1F ADD PUSH1 0x1F NOT AND SWAP3 SWAP1 SWAP3 ADD PUSH1 0x20 ADD SWAP3 SWAP2 POP POP JUMP JUMPDEST PUSH1 0x20 DUP2 MSTORE PUSH1 0x0 PUSH2 0x13C7 PUSH1 0x20 DUP4 ADD DUP5 PUSH2 0x1388 JUMP JUMPDEST SWAP4 SWAP3 POP POP POP JUMP JUMPDEST PUSH1 0x0 DUP1 PUSH1 0x0 DUP1 PUSH1 0x80 DUP6 DUP8 SUB SLT ISZERO PUSH2 0x13E4 JUMPI PUSH1 0x0 DUP1 REVERT JUMPDEST DUP5 CALLDATALOAD PUSH8 0xFFFFFFFFFFFFFFFF DUP1 DUP3 GT ISZERO PUSH2 0x13FC JUMPI PUSH1 0x0 DUP1 REVERT JUMPDEST PUSH2 0x1408 DUP9 DUP4 DUP10 ADD PUSH2 0x11A4 JUMP JUMPDEST SWAP6 POP PUSH1 0x20 DUP8 ADD CALLDATALOAD SWAP5 POP PUSH1 0x40 DUP8 ADD CALLDATALOAD SWAP2 POP DUP1 DUP3 GT ISZERO PUSH2 0x1425 JUMPI PUSH1 0x0 DUP1 REVERT JUMPDEST POP PUSH2 0x1432 DUP8 DUP3 DUP9 ADD PUSH2 0x11A4 JUMP JUMPDEST SWAP5 SWAP8 SWAP4 SWAP7 POP SWAP4 SWAP5 PUSH1 0x60 ADD CALLDATALOAD SWAP4 POP POP POP JUMP JUMPDEST PUSH1 0x0 DUP1 PUSH1 0x0 PUSH1 0x60 DUP5 DUP7 SUB SLT ISZERO PUSH2 0x1458 JUMPI PUSH1 0x0 DUP1 REVERT JUMPDEST DUP4 CALLDATALOAD PUSH8 0xFFFFFFFFFFFFFFFF DUP1 DUP3 GT ISZERO PUSH2 0x1470 JUMPI PUSH1 0x0 DUP1 REVERT JUMPDEST PUSH2 0x147C DUP8 DUP4 DUP9 ADD PUSH2 0x11A4 JUMP JUMPDEST SWAP5 POP PUSH1 0x20 DUP7 ADD CALLDATALOAD SWAP2 POP DUP1 DUP3 GT ISZERO PUSH2 0x1492 JUMPI PUSH1 0x0 DUP1 REVERT JUMPDEST PUSH2 0x149E DUP8 DUP4 DUP9 ADD PUSH2 0x11A4 JUMP JUMPDEST SWAP4 POP PUSH1 0x40 DUP7 ADD CALLDATALOAD SWAP2 POP DUP1 DUP3 GT ISZERO PUSH2 0x14B4 JUMPI PUSH1 0x0 DUP1 REVERT JUMPDEST POP PUSH2 0x14C1 DUP7 DUP3 DUP8 ADD PUSH2 0x122C JUMP JUMPDEST SWAP2 POP POP SWAP3 POP SWAP3 POP SWAP3 JUMP JUMPDEST PUSH1 0x0 PUSH1 0x20 DUP3 DUP5 SUB SLT ISZERO PUSH2 0x14DD JUMPI PUSH1 0x0 DUP1 REVERT JUMPDEST DUP2 CALLDATALOAD PUSH8 0xFFFFFFFFFFFFFFFF DUP2 GT ISZERO PUSH2 0x14F4 JUMPI PUSH1 0x0 DUP1 REVERT JUMPDEST PUSH2 0x1500 DUP5 DUP3 DUP6 ADD PUSH2 0x11A4 JUMP JUMPDEST SWAP5 SWAP4 POP POP POP POP JUMP JUMPDEST PUSH1 0x0 DUP2 MLOAD DUP1 DUP5 MSTORE PUSH1 0x20 DUP1 DUP6 ADD SWAP5 POP PUSH1 0x20 DUP5 ADD PUSH1 0x0 JUMPDEST DUP4 DUP2 LT ISZERO PUSH2 0x1542 JUMPI DUP2 MLOAD PUSH1 0x1 PUSH1 0x1 PUSH1 0xA0 SHL SUB AND DUP8 MSTORE SWAP6 DUP3 ADD SWAP6 SWAP1 DUP3 ADD SWAP1 PUSH1 0x1 ADD PUSH2 0x151D JUMP JUMPDEST POP SWAP5 SWAP6 SWAP5 POP POP POP POP POP JUMP JUMPDEST PUSH1 0x20 DUP2 MSTORE PUSH1 0x0 PUSH2 0x13C7 PUSH1 0x20 DUP4 ADD DUP5 PUSH2 0x1508 JUMP JUMPDEST PUSH1 0x0 DUP1 PUSH1 0x40 DUP4 DUP6 SUB SLT ISZERO PUSH2 0x1573 JUMPI PUSH1 0x0 DUP1 REVERT JUMPDEST DUP3 CALLDATALOAD SWAP2 POP PUSH1 0x20 DUP4 ADD CALLDATALOAD PUSH8 0xFFFFFFFFFFFFFFFF DUP2 GT ISZERO PUSH2 0x1591 JUMPI PUSH1 0x0 DUP1 REVERT JUMPDEST PUSH2 0x159D DUP6 DUP3 DUP7 ADD PUSH2 0x11A4 JUMP JUMPDEST SWAP2 POP POP SWAP3 POP SWAP3 SWAP1 POP JUMP JUMPDEST PUSH1 0x20 DUP1 DUP3 MSTORE DUP3 MLOAD DUP3 DUP3 ADD DUP2 SWAP1 MSTORE PUSH1 0x0 SWAP2 SWAP1 DUP5 DUP3 ADD SWAP1 PUSH1 0x40 DUP6 ADD SWAP1 DUP5 JUMPDEST DUP2 DUP2 LT ISZERO PUSH2 0x15DF JUMPI DUP4 MLOAD DUP4 MSTORE SWAP3 DUP5 ADD SWAP3 SWAP2 DUP5 ADD SWAP2 PUSH1 0x1 ADD PUSH2 0x15C3 JUMP JUMPDEST POP SWAP1 SWAP7 SWAP6 POP POP POP POP POP POP JUMP JUMPDEST PUSH1 0x0 PUSH1 0x20 DUP1 DUP4 ADD PUSH1 0x20 DUP5 MSTORE DUP1 DUP6 MLOAD DUP1 DUP4 MSTORE PUSH1 0x40 DUP7 ADD SWAP2 POP PUSH1 0x40 DUP2 PUSH1 0x5 SHL DUP8 ADD ADD SWAP3 POP PUSH1 0x20 DUP8 ADD PUSH1 0x0 JUMPDEST DUP3 DUP2 LT ISZERO PUSH2 0x1642 JUMPI PUSH1 0x3F NOT DUP9 DUP7 SUB ADD DUP5 MSTORE PUSH2 0x1630 DUP6 DUP4 MLOAD PUSH2 0x1388 JUMP JUMPDEST SWAP5 POP SWAP3 DUP6 ADD SWAP3 SWAP1 DUP6 ADD SWAP1 PUSH1 0x1 ADD PUSH2 0x1614 JUMP JUMPDEST POP SWAP3 SWAP8 SWAP7 POP POP POP POP POP POP POP JUMP JUMPDEST PUSH1 0x0 DUP3 MLOAD PUSH2 0x1661 DUP2 DUP5 PUSH1 0x20 DUP8 ADD PUSH2 0x1364 JUMP JUMPDEST SWAP2 SWAP1 SWAP2 ADD SWAP3 SWAP2 POP POP JUMP JUMPDEST PUSH1 0x0 PUSH1 0x20 DUP3 DUP5 SUB SLT ISZERO PUSH2 0x167D JUMPI PUSH1 0x0 DUP1 REVERT JUMPDEST DUP2 MLOAD DUP1 ISZERO ISZERO DUP2 EQ PUSH2 0x13C7 JUMPI PUSH1 0x0 DUP1 REVERT JUMPDEST PUSH1 0x0 PUSH1 0x20 DUP3 DUP5 SUB SLT ISZERO PUSH2 0x169F JUMPI PUSH1 0x0 DUP1 REVERT JUMPDEST DUP2 MLOAD PUSH2 0x13C7 DUP2 PUSH2 0x1214 JUMP JUMPDEST DUP1 MLOAD DUP3 MSTORE PUSH1 0x0 PUSH1 0x20 DUP3 ADD MLOAD PUSH1 0x40 PUSH1 0x20 DUP6 ADD MSTORE PUSH2 0x1500 PUSH1 0x40 DUP6 ADD DUP3 PUSH2 0x1388 JUMP JUMPDEST DUP8 DUP2 MSTORE PUSH1 0x0 PUSH1 0x1 DUP1 PUSH1 0xA0 SHL SUB DUP1 DUP10 AND PUSH1 0x20 DUP5 ADD MSTORE PUSH1 0xE0 PUSH1 0x40 DUP5 ADD MSTORE PUSH2 0x16F1 PUSH1 0xE0 DUP5 ADD DUP10 PUSH2 0x1388 JUMP JUMPDEST DUP2 DUP9 AND PUSH1 0x60 DUP6 ADD MSTORE DUP7 PUSH1 0x80 DUP6 ADD MSTORE DUP4 DUP2 SUB PUSH1 0xA0 DUP6 ADD MSTORE PUSH2 0x1711 DUP2 DUP8 PUSH2 0x16AA JUMP JUMPDEST SWAP2 POP POP DUP3 DUP2 SUB PUSH1 0xC0 DUP5 ADD MSTORE PUSH2 0x1726 DUP2 DUP6 PUSH2 0x1508 JUMP JUMPDEST SWAP11 SWAP10 POP POP POP POP POP POP POP POP POP POP JUMP JUMPDEST PUSH1 0x0 PUSH1 0x20 DUP3 DUP5 SUB SLT ISZERO PUSH2 0x1746 JUMPI PUSH1 0x0 DUP1 REVERT JUMPDEST POP MLOAD SWAP2 SWAP1 POP JUMP JUMPDEST DUP5 DUP2 MSTORE DUP4 PUSH1 0x20 DUP3 ADD MSTORE PUSH1 0x80 PUSH1 0x40 DUP3 ADD MSTORE PUSH1 0x0 PUSH2 0x176C PUSH1 0x80 DUP4 ADD DUP6 PUSH2 0x1388 JUMP JUMPDEST SWAP1 POP DUP3 PUSH1 0x60 DUP4 ADD MSTORE SWAP6 SWAP5 POP POP POP POP POP JUMP JUMPDEST DUP3 DUP2 MSTORE PUSH1 0x40 PUSH1 0x20 DUP3 ADD MSTORE PUSH1 0x0 PUSH2 0x1500 PUSH1 0x40 DUP4 ADD DUP5 PUSH2 0x1388 JUMP JUMPDEST PUSH1 0x1 DUP2 DUP2 SHR SWAP1 DUP3 AND DUP1 PUSH2 0x17AA JUMPI PUSH1 0x7F DUP3 AND SWAP2 POP JUMPDEST PUSH1 0x20 DUP3 LT DUP2 SUB PUSH2 0x17CA JUMPI PUSH4 0x4E487B71 PUSH1 0xE0 SHL PUSH1 0x0 MSTORE PUSH1 0x22 PUSH1 0x4 MSTORE PUSH1 0x24 PUSH1 0x0 REVERT JUMPDEST POP SWAP2 SWAP1 POP JUMP JUMPDEST PUSH1 0x1F DUP3 GT ISZERO PUSH2 0x181C JUMPI PUSH1 0x0 DUP2 PUSH1 0x0 MSTORE PUSH1 0x20 PUSH1 0x0 KECCAK256 PUSH1 0x1F DUP6 ADD PUSH1 0x5 SHR DUP2 ADD PUSH1 0x20 DUP7 LT ISZERO PUSH2 0x17F9 JUMPI POP DUP1 JUMPDEST PUSH1 0x1F DUP6 ADD PUSH1 0x5 SHR DUP3 ADD SWAP2 POP JUMPDEST DUP2 DUP2 LT ISZERO PUSH2 0x1818 JUMPI DUP3 DUP2 SSTORE PUSH1 0x1 ADD PUSH2 0x1805 JUMP JUMPDEST POP POP POP JUMPDEST POP POP POP JUMP JUMPDEST DUP2 MLOAD PUSH8 0xFFFFFFFFFFFFFFFF DUP2 GT ISZERO PUSH2 0x183B JUMPI PUSH2 0x183B PUSH2 0x115D JUMP JUMPDEST PUSH2 0x184F DUP2 PUSH2 0x1849 DUP5 SLOAD PUSH2 0x1796 JUMP JUMPDEST DUP5 PUSH2 0x17D0 JUMP JUMPDEST PUSH1 0x20 DUP1 PUSH1 0x1F DUP4 GT PUSH1 0x1 DUP2 EQ PUSH2 0x1884 JUMPI PUSH1 0x0 DUP5 ISZERO PUSH2 0x186C JUMPI POP DUP6 DUP4 ADD MLOAD JUMPDEST PUSH1 0x0 NOT PUSH1 0x3 DUP7 SWAP1 SHL SHR NOT AND PUSH1 0x1 DUP6 SWAP1 SHL OR DUP6 SSTORE PUSH2 0x1818 JUMP JUMPDEST PUSH1 0x0 DUP6 DUP2 MSTORE PUSH1 0x20 DUP2 KECCAK256 PUSH1 0x1F NOT DUP7 AND SWAP2 JUMPDEST DUP3 DUP2 LT ISZERO PUSH2 0x18B3 JUMPI DUP9 DUP7 ADD MLOAD DUP3 SSTORE SWAP5 DUP5 ADD SWAP5 PUSH1 0x1 SWAP1 SWAP2 ADD SWAP1 DUP5 ADD PUSH2 0x1894 JUMP JUMPDEST POP DUP6 DUP3 LT ISZERO PUSH2 0x18D1 JUMPI DUP8 DUP6 ADD MLOAD PUSH1 0x0 NOT PUSH1 0x3 DUP9 SWAP1 SHL PUSH1 0xF8 AND SHR NOT AND DUP2 SSTORE JUMPDEST POP POP POP POP POP PUSH1 0x1 SWAP1 DUP2 SHL ADD SWAP1 SSTORE POP JUMP JUMPDEST DUP6 DUP2 MSTORE PUSH1 0xA0 PUSH1 0x20 DUP3 ADD MSTORE PUSH1 0x0 PUSH2 0x18FA PUSH1 0xA0 DUP4 ADD DUP8 PUSH2 0x1388 JUMP JUMPDEST DUP3 DUP2 SUB PUSH1 0x40 DUP5 ADD MSTORE PUSH2 0x190C DUP2 DUP8 PUSH2 0x16AA JUMP JUMPDEST PUSH1 0x1 PUSH1 0x1 PUSH1 0xA0 SHL SUB DUP7 AND PUSH1 0x60 DUP6 ADD MSTORE DUP4 DUP2 SUB PUSH1 0x80 DUP6 ADD MSTORE SWAP1 POP PUSH2 0x192F DUP2 DUP6 PUSH2 0x1508 JUMP JUMPDEST SWAP9 SWAP8 POP POP POP POP POP POP POP POP JUMP INVALID LOG2 PUSH5 0x6970667358 0x22 SLT KECCAK256 0xA5 0x4F 0xE2 0xFC LOG0 0xDD 0xC4 0xC5 0xE7 0xC7 0xCE SWAP9 RETURNDATASIZE KECCAK256 0x49 0xE SWAP1 REVERT SWAP7 0xCD PUSH12 0x1C35107D831ECEB8C0E7AA64 PUSH20 0x6F6C634300081700330000000000000000000000 "
				},
				"gasEstimates": {
					"creation": {
						"codeDepositCost": "1302600",
						"executionCost": "infinite",
						"totalCost": "infinite"
					},
					"external": {
						"addExternalProfile(bytes32,string)": "infinite",
						"createFunderOrgProfile(string,string,address[])": "infinite",
						"createFundingPool(string,address,uint256,uint256,string,address[])": "infinite",
						"createProject(string,uint256,string,uint256)": "infinite",
						"getName()": "infinite",
						"getOrgs()": "infinite",
						"getPoolIdsByOrgName(string)": "infinite",
						"getProfileId(string)": "infinite",
						"getProjectsByOrgName(string)": "infinite",
						"getVersion()": "204",
						"notifyChangeOfAddress()": "infinite"
					},
					"internal": {
						"getMetadata(string memory)": "infinite",
						"getNonce()": "infinite"
					}
				},
				"methodIdentifiers": {
					"addExternalProfile(bytes32,string)": "74331ece",
					"createFunderOrgProfile(string,string,address[])": "6485fa41",
					"createFundingPool(string,address,uint256,uint256,string,address[])": "0086a4d5",
					"createProject(string,uint256,string,uint256)": "4d1ec600",
					"getName()": "17d7de7c",
					"getOrgs()": "ede76775",
					"getPoolIdsByOrgName(string)": "dbbca721",
					"getProfileId(string)": "74a2b288",
					"getProjectsByOrgName(string)": "6b803971",
					"getVersion()": "0d8e6e2c",
					"notifyChangeOfAddress()": "cde4c10c"
				}
			},
			"storageLayout": {
				"storage": [
					{
						"astId": 131,
						"contract": "contracts/core/MProjectCreator.sol:MProjectCreator",
						"label": "register",
						"offset": 0,
						"slot": "0",
						"type": "t_contract(IMRegister)688"
					},
					{
						"astId": 134,
						"contract": "contracts/core/MProjectCreator.sol:MProjectCreator",
						"label": "alloRegistry",
						"offset": 0,
						"slot": "1",
						"type": "t_contract(IRegistry)1377"
					},
					{
						"astId": 137,
						"contract": "contracts/core/MProjectCreator.sol:MProjectCreator",
						"label": "allo",
						"offset": 0,
						"slot": "2",
						"type": "t_contract(IAllo)1184"
					},
					{
						"astId": 140,
						"contract": "contracts/core/MProjectCreator.sol:MProjectCreator",
						"label": "projectFactory",
						"offset": 0,
						"slot": "3",
						"type": "t_contract(IMProjectFactory)656"
					},
					{
						"astId": 145,
						"contract": "contracts/core/MProjectCreator.sol:MProjectCreator",
						"label": "orgNames",
						"offset": 0,
						"slot": "4",
						"type": "t_array(t_string_storage)dyn_storage"
					},
					{
						"astId": 149,
						"contract": "contracts/core/MProjectCreator.sol:MProjectCreator",
						"label": "knownOrgName",
						"offset": 0,
						"slot": "5",
						"type": "t_mapping(t_string_memory_ptr,t_bool)"
					},
					{
						"astId": 153,
						"contract": "contracts/core/MProjectCreator.sol:MProjectCreator",
						"label": "hasProfileByOrgName",
						"offset": 0,
						"slot": "6",
						"type": "t_mapping(t_string_memory_ptr,t_bool)"
					},
					{
						"astId": 157,
						"contract": "contracts/core/MProjectCreator.sol:MProjectCreator",
						"label": "profileIdByOrgName",
						"offset": 0,
						"slot": "7",
						"type": "t_mapping(t_string_memory_ptr,t_bytes32)"
					},
					{
						"astId": 162,
						"contract": "contracts/core/MProjectCreator.sol:MProjectCreator",
						"label": "poolIdsByOrgName",
						"offset": 0,
						"slot": "8",
						"type": "t_mapping(t_string_memory_ptr,t_array(t_uint256)dyn_storage)"
					},
					{
						"astId": 167,
						"contract": "contracts/core/MProjectCreator.sol:MProjectCreator",
						"label": "projectsByOrgName",
						"offset": 0,
						"slot": "9",
						"type": "t_mapping(t_string_memory_ptr,t_array(t_address)dyn_storage)"
					}
				],
				"types": {
					"t_address": {
						"encoding": "inplace",
						"label": "address",
						"numberOfBytes": "20"
					},
					"t_array(t_address)dyn_storage": {
						"base": "t_address",
						"encoding": "dynamic_array",
						"label": "address[]",
						"numberOfBytes": "32"
					},
					"t_array(t_string_storage)dyn_storage": {
						"base": "t_string_storage",
						"encoding": "dynamic_array",
						"label": "string[]",
						"numberOfBytes": "32"
					},
					"t_array(t_uint256)dyn_storage": {
						"base": "t_uint256",
						"encoding": "dynamic_array",
						"label": "uint256[]",
						"numberOfBytes": "32"
					},
					"t_bool": {
						"encoding": "inplace",
						"label": "bool",
						"numberOfBytes": "1"
					},
					"t_bytes32": {
						"encoding": "inplace",
						"label": "bytes32",
						"numberOfBytes": "32"
					},
					"t_contract(IAllo)1184": {
						"encoding": "inplace",
						"label": "contract IAllo",
						"numberOfBytes": "20"
					},
					"t_contract(IMProjectFactory)656": {
						"encoding": "inplace",
						"label": "contract IMProjectFactory",
						"numberOfBytes": "20"
					},
					"t_contract(IMRegister)688": {
						"encoding": "inplace",
						"label": "contract IMRegister",
						"numberOfBytes": "20"
					},
					"t_contract(IRegistry)1377": {
						"encoding": "inplace",
						"label": "contract IRegistry",
						"numberOfBytes": "20"
					},
					"t_mapping(t_string_memory_ptr,t_array(t_address)dyn_storage)": {
						"encoding": "mapping",
						"key": "t_string_memory_ptr",
						"label": "mapping(string => address[])",
						"numberOfBytes": "32",
						"value": "t_array(t_address)dyn_storage"
					},
					"t_mapping(t_string_memory_ptr,t_array(t_uint256)dyn_storage)": {
						"encoding": "mapping",
						"key": "t_string_memory_ptr",
						"label": "mapping(string => uint256[])",
						"numberOfBytes": "32",
						"value": "t_array(t_uint256)dyn_storage"
					},
					"t_mapping(t_string_memory_ptr,t_bool)": {
						"encoding": "mapping",
						"key": "t_string_memory_ptr",
						"label": "mapping(string => bool)",
						"numberOfBytes": "32",
						"value": "t_bool"
					},
					"t_mapping(t_string_memory_ptr,t_bytes32)": {
						"encoding": "mapping",
						"key": "t_string_memory_ptr",
						"label": "mapping(string => bytes32)",
						"numberOfBytes": "32",
						"value": "t_bytes32"
					},
					"t_string_memory_ptr": {
						"encoding": "bytes",
						"label": "string",
						"numberOfBytes": "32"
					},
					"t_string_storage": {
						"encoding": "bytes",
						"label": "string",
						"numberOfBytes": "32"
					},
					"t_uint256": {
						"encoding": "inplace",
						"label": "uint256",
						"numberOfBytes": "32"
					}
				}
			},
			"userdoc": {
				"kind": "user",
				"methods": {},
				"version": 1
			}
		}
	}
}