{
	"contracts/core/MADeliveryStrategy.sol": {
		"MADeliveryStrategy": {
			"abi": [
				{
					"inputs": [
						{
							"internalType": "address",
							"name": "_register",
							"type": "address"
						},
						{
							"internalType": "address",
							"name": "_allo",
							"type": "address"
						},
						{
							"internalType": "string",
							"name": "_name",
							"type": "string"
						}
					],
					"stateMutability": "nonpayable",
					"type": "constructor"
				},
				{
					"anonymous": false,
					"inputs": [
						{
							"indexed": true,
							"internalType": "address",
							"name": "recipientId",
							"type": "address"
						},
						{
							"indexed": false,
							"internalType": "uint256",
							"name": "amount",
							"type": "uint256"
						},
						{
							"indexed": false,
							"internalType": "address",
							"name": "token",
							"type": "address"
						},
						{
							"indexed": false,
							"internalType": "address",
							"name": "sender",
							"type": "address"
						}
					],
					"name": "Allocated",
					"type": "event"
				},
				{
					"anonymous": false,
					"inputs": [
						{
							"indexed": true,
							"internalType": "address",
							"name": "recipientId",
							"type": "address"
						},
						{
							"indexed": false,
							"internalType": "address",
							"name": "recipientAddress",
							"type": "address"
						},
						{
							"indexed": false,
							"internalType": "uint256",
							"name": "amount",
							"type": "uint256"
						},
						{
							"indexed": false,
							"internalType": "address",
							"name": "sender",
							"type": "address"
						}
					],
					"name": "Distributed",
					"type": "event"
				},
				{
					"anonymous": false,
					"inputs": [
						{
							"indexed": false,
							"internalType": "uint256",
							"name": "poolId",
							"type": "uint256"
						},
						{
							"indexed": false,
							"internalType": "bytes",
							"name": "data",
							"type": "bytes"
						}
					],
					"name": "Initialized",
					"type": "event"
				},
				{
					"anonymous": false,
					"inputs": [
						{
							"indexed": false,
							"internalType": "bool",
							"name": "active",
							"type": "bool"
						}
					],
					"name": "PoolActive",
					"type": "event"
				},
				{
					"anonymous": false,
					"inputs": [
						{
							"indexed": true,
							"internalType": "address",
							"name": "recipientId",
							"type": "address"
						},
						{
							"indexed": false,
							"internalType": "bytes",
							"name": "data",
							"type": "bytes"
						},
						{
							"indexed": false,
							"internalType": "address",
							"name": "sender",
							"type": "address"
						}
					],
					"name": "Registered",
					"type": "event"
				},
				{
					"inputs": [
						{
							"internalType": "address",
							"name": "_allocator",
							"type": "address"
						}
					],
					"name": "addAllocator",
					"outputs": [
						{
							"internalType": "bool",
							"name": "_added",
							"type": "bool"
						}
					],
					"stateMutability": "nonpayable",
					"type": "function"
				},
				{
					"inputs": [
						{
							"internalType": "bytes",
							"name": "_data",
							"type": "bytes"
						},
						{
							"internalType": "address",
							"name": "_sender",
							"type": "address"
						}
					],
					"name": "allocate",
					"outputs": [],
					"stateMutability": "payable",
					"type": "function"
				},
				{
					"inputs": [
						{
							"internalType": "address[]",
							"name": "_recipientIds",
							"type": "address[]"
						},
						{
							"internalType": "bytes",
							"name": "_data",
							"type": "bytes"
						},
						{
							"internalType": "address",
							"name": "_sender",
							"type": "address"
						}
					],
					"name": "distribute",
					"outputs": [],
					"stateMutability": "nonpayable",
					"type": "function"
				},
				{
					"inputs": [],
					"name": "getAllo",
					"outputs": [
						{
							"internalType": "contract IAllo",
							"name": "",
							"type": "address"
						}
					],
					"stateMutability": "view",
					"type": "function"
				},
				{
					"inputs": [],
					"name": "getName",
					"outputs": [
						{
							"internalType": "string",
							"name": "_name",
							"type": "string"
						}
					],
					"stateMutability": "pure",
					"type": "function"
				},
				{
					"inputs": [
						{
							"internalType": "address[]",
							"name": "_recipientIds",
							"type": "address[]"
						},
						{
							"internalType": "bytes[]",
							"name": "_data",
							"type": "bytes[]"
						}
					],
					"name": "getPayouts",
					"outputs": [
						{
							"components": [
								{
									"internalType": "address",
									"name": "recipientAddress",
									"type": "address"
								},
								{
									"internalType": "uint256",
									"name": "amount",
									"type": "uint256"
								}
							],
							"internalType": "struct IStrategy.PayoutSummary[]",
							"name": "",
							"type": "tuple[]"
						}
					],
					"stateMutability": "view",
					"type": "function"
				},
				{
					"inputs": [],
					"name": "getPoolAmount",
					"outputs": [
						{
							"internalType": "uint256",
							"name": "",
							"type": "uint256"
						}
					],
					"stateMutability": "view",
					"type": "function"
				},
				{
					"inputs": [],
					"name": "getPoolId",
					"outputs": [
						{
							"internalType": "uint256",
							"name": "",
							"type": "uint256"
						}
					],
					"stateMutability": "view",
					"type": "function"
				},
				{
					"inputs": [],
					"name": "getProjects",
					"outputs": [
						{
							"internalType": "address[]",
							"name": "_projects",
							"type": "address[]"
						}
					],
					"stateMutability": "view",
					"type": "function"
				},
				{
					"inputs": [
						{
							"internalType": "address",
							"name": "_recipientId",
							"type": "address"
						}
					],
					"name": "getRecipientStatus",
					"outputs": [
						{
							"internalType": "enum IStrategy.Status",
							"name": "",
							"type": "uint8"
						}
					],
					"stateMutability": "view",
					"type": "function"
				},
				{
					"inputs": [],
					"name": "getStrategyId",
					"outputs": [
						{
							"internalType": "bytes32",
							"name": "",
							"type": "bytes32"
						}
					],
					"stateMutability": "view",
					"type": "function"
				},
				{
					"inputs": [],
					"name": "getVersion",
					"outputs": [
						{
							"internalType": "uint256",
							"name": "_version",
							"type": "uint256"
						}
					],
					"stateMutability": "pure",
					"type": "function"
				},
				{
					"inputs": [
						{
							"internalType": "uint256",
							"name": "_amount",
							"type": "uint256"
						}
					],
					"name": "increasePoolAmount",
					"outputs": [],
					"stateMutability": "nonpayable",
					"type": "function"
				},
				{
					"inputs": [
						{
							"internalType": "uint256",
							"name": "_poolId",
							"type": "uint256"
						},
						{
							"internalType": "bytes",
							"name": "_data",
							"type": "bytes"
						}
					],
					"name": "initialize",
					"outputs": [],
					"stateMutability": "nonpayable",
					"type": "function"
				},
				{
					"inputs": [],
					"name": "isPoolActive",
					"outputs": [
						{
							"internalType": "bool",
							"name": "",
							"type": "bool"
						}
					],
					"stateMutability": "view",
					"type": "function"
				},
				{
					"inputs": [
						{
							"internalType": "address",
							"name": "_allocator",
							"type": "address"
						}
					],
					"name": "isValidAllocator",
					"outputs": [
						{
							"internalType": "bool",
							"name": "",
							"type": "bool"
						}
					],
					"stateMutability": "view",
					"type": "function"
				},
				{
					"inputs": [
						{
							"internalType": "bytes",
							"name": "_data",
							"type": "bytes"
						},
						{
							"internalType": "address",
							"name": "_sender",
							"type": "address"
						}
					],
					"name": "registerRecipient",
					"outputs": [
						{
							"internalType": "address",
							"name": "recipientId",
							"type": "address"
						}
					],
					"stateMutability": "payable",
					"type": "function"
				}
			],
			"devdoc": {
				"events": {
					"Allocated(address,uint256,address,address)": {
						"params": {
							"amount": "The amount allocated",
							"recipientId": "The ID of the recipient",
							"token": "The token allocated"
						}
					},
					"Distributed(address,address,uint256,address)": {
						"params": {
							"amount": "The amount distributed",
							"recipientAddress": "The recipient",
							"recipientId": "The ID of the recipient",
							"sender": "The sender"
						}
					},
					"Initialized(uint256,bytes)": {
						"params": {
							"data": "The data passed to the 'initialize' function",
							"poolId": "The ID of the pool"
						}
					},
					"PoolActive(bool)": {
						"params": {
							"active": "The status of the pool"
						}
					},
					"Registered(address,bytes,address)": {
						"params": {
							"data": "The data passed to the 'registerRecipient' function",
							"recipientId": "The ID of the recipient",
							"sender": "The sender"
						}
					}
				},
				"kind": "dev",
				"methods": {
					"allocate(bytes,address)": {
						"details": "The encoded '_data' will be determined by the strategy implementation. Only 'Allo' contract can      call this when it is initialized.",
						"params": {
							"_data": "The data to use to allocate to the recipient",
							"_sender": "The address of the sender"
						}
					},
					"distribute(address[],bytes,address)": {
						"details": "The encoded '_data' will be determined by the strategy implementation. Only 'Allo' contract can      call this when it is initialized.",
						"params": {
							"_data": "The data to use to distribute to the recipients",
							"_recipientIds": "The IDs of the recipients",
							"_sender": "The address of the sender"
						}
					},
					"getAllo()": {
						"returns": {
							"_0": "The Allo contract"
						}
					},
					"getPayouts(address[],bytes[])": {
						"details": "The encoded '_data' will be determined by the strategy implementation.",
						"params": {
							"_data": "The data to use to get the payout summary for the recipients",
							"_recipientIds": "The IDs of the recipients"
						},
						"returns": {
							"_0": "The payout summary for the recipients"
						}
					},
					"getPoolAmount()": {
						"returns": {
							"_0": "The balance of the pool"
						}
					},
					"getPoolId()": {
						"returns": {
							"_0": "The ID of the pool"
						}
					},
					"getRecipientStatus(address)": {
						"params": {
							"_recipientId": "The ID of the recipient"
						},
						"returns": {
							"_0": "The status of the recipient"
						}
					},
					"getStrategyId()": {
						"returns": {
							"_0": "The ID of the strategy"
						}
					},
					"increasePoolAmount(uint256)": {
						"details": "Increases the 'poolAmount' by '_amount'. Only 'Allo' contract can call this.",
						"params": {
							"_amount": "The amount to increase the pool by"
						}
					},
					"initialize(uint256,bytes)": {
						"params": {
							"_data": "The encoded data",
							"_poolId": "The ID of the pool"
						}
					},
					"isPoolActive()": {
						"returns": {
							"_0": "'true' if the pool is active, otherwise 'false'"
						}
					},
					"isValidAllocator(address)": {
						"details": "How the allocator is determined is up to the strategy implementation.",
						"params": {
							"_allocator": "The address to check if it is a valid allocator for the strategy."
						},
						"returns": {
							"_0": "'true' if the address is a valid allocator, 'false' otherwise"
						}
					},
					"registerRecipient(bytes,address)": {
						"details": "Registers a recipient and returns the ID of the recipient. The encoded '_data' will be determined by the      strategy implementation. Only 'Allo' contract can call this when it is initialized.",
						"params": {
							"_data": "The data to use to register the recipient",
							"_sender": "The address of the sender"
						},
						"returns": {
							"recipientId": "The recipientId"
						}
					}
				},
				"version": 1
			},
			"evm": {
				"assembly": "    /* \"contracts/core/MADeliveryStrategy.sol\":773:10348  contract MADeliveryStrategy is IMargariAlloStrategy, IMVersion, MBaseStrategy { ... */\n  mstore(0x40, 0xe0)\n    /* \"contracts/core/MADeliveryStrategy.sol\":8770:8774  1000 */\n  0x03e8\n    /* \"contracts/core/MADeliveryStrategy.sol\":8754:8774  uint256 index = 1000 */\n  0x0c\n  sstore\n    /* \"contracts/core/MADeliveryStrategy.sol\":1645:1831  constructor(address _register, address _allo, string memory _name) MBaseStrategy(_allo, _name){... */\n  callvalue\n  dup1\n  iszero\n  tag_1\n  jumpi\n  0x00\n  dup1\n  revert\ntag_1:\n  pop\n  mload(0x40)\n  sub(codesize, bytecodeSize)\n  dup1\n  bytecodeSize\n  dup4\n  codecopy\n  dup2\n  add\n  0x40\n  dup2\n  swap1\n  mstore\n  tag_2\n  swap2\n  tag_3\n  jump\t// in\ntag_2:\n  sub(shl(0xa0, 0x01), 0x01)\n    /* \"contracts/core/MBaseStrategy.sol\":5306:5325  allo = IAllo(_allo) */\n  dup3\n  and\n  0x80\n  mstore\n    /* \"contracts/core/MBaseStrategy.sol\":5359:5376  abi.encode(_name) */\n  mload(0x40)\n    /* \"contracts/core/MADeliveryStrategy.sol\":1726:1731  _allo */\n  dup3\n  swap1\n    /* \"contracts/core/MADeliveryStrategy.sol\":1733:1738  _name */\n  dup3\n  swap1\n    /* \"contracts/core/MBaseStrategy.sol\":5359:5376  abi.encode(_name) */\n  tag_7\n  swap1\n    /* \"contracts/core/MADeliveryStrategy.sol\":1733:1738  _name */\n  dup3\n  swap1\n    /* \"contracts/core/MBaseStrategy.sol\":5359:5376  abi.encode(_name) */\n  0x20\n  add\n  tag_8\n  jump\t// in\ntag_7:\n  0x40\n  dup1\n  mload\n  dup1\n  dup4\n  sub\n  not(0x1f)\n  add\n  dup2\n  mstore\n  swap2\n  swap1\n  mstore\n    /* \"contracts/core/MBaseStrategy.sol\":5349:5377  keccak256(abi.encode(_name)) */\n  dup1\n  mload\n    /* \"contracts/core/MBaseStrategy.sol\":5359:5376  abi.encode(_name) */\n  0x20\n    /* \"contracts/core/MBaseStrategy.sol\":5349:5377  keccak256(abi.encode(_name)) */\n  swap1\n  swap2\n  add\n  keccak256\n    /* \"contracts/core/MBaseStrategy.sol\":5336:5377  strategyId = keccak256(abi.encode(_name)) */\n  0xa0\n  mstore\n  pop\n  pop\n    /* \"contracts/core/MADeliveryStrategy.sol\":1750:1758  register */\n  0x03\n    /* \"contracts/core/MADeliveryStrategy.sol\":1750:1782  register = IMRegister(_register) */\n  dup1\n  sload\n  not(sub(shl(0xa0, 0x01), 0x01))\n  and\n  sub(shl(0xa0, 0x01), 0x01)\n  swap5\n  swap1\n  swap5\n  and\n  swap4\n  swap1\n  swap4\n  or\n  swap1\n  swap3\n  sstore\n  pop\n  pop\n    /* \"contracts/core/MADeliveryStrategy.sol\":1818:1822  this */\n  address\n    /* \"contracts/core/MADeliveryStrategy.sol\":1803:1823  self = address(this) */\n  0xc0\n  mstore\n    /* \"contracts/core/MADeliveryStrategy.sol\":773:10348  contract MADeliveryStrategy is IMargariAlloStrategy, IMVersion, MBaseStrategy { ... */\n  jump(tag_14)\n    /* \"#utility.yul\":14:191   */\ntag_11:\n    /* \"#utility.yul\":93:106   */\n  dup1\n  mload\n  sub(shl(0xa0, 0x01), 0x01)\n    /* \"#utility.yul\":135:166   */\n  dup2\n  and\n    /* \"#utility.yul\":125:167   */\n  dup2\n  eq\n    /* \"#utility.yul\":115:185   */\n  tag_16\n  jumpi\n    /* \"#utility.yul\":181:182   */\n  0x00\n    /* \"#utility.yul\":178:179   */\n  dup1\n    /* \"#utility.yul\":171:183   */\n  revert\n    /* \"#utility.yul\":115:185   */\ntag_16:\n    /* \"#utility.yul\":14:191   */\n  swap2\n  swap1\n  pop\n  jump\t// out\n    /* \"#utility.yul\":196:323   */\ntag_12:\n    /* \"#utility.yul\":257:267   */\n  0x4e487b71\n    /* \"#utility.yul\":252:255   */\n  0xe0\n    /* \"#utility.yul\":248:268   */\n  shl\n    /* \"#utility.yul\":245:246   */\n  0x00\n    /* \"#utility.yul\":238:269   */\n  mstore\n    /* \"#utility.yul\":288:292   */\n  0x41\n    /* \"#utility.yul\":285:286   */\n  0x04\n    /* \"#utility.yul\":278:293   */\n  mstore\n    /* \"#utility.yul\":312:316   */\n  0x24\n    /* \"#utility.yul\":309:310   */\n  0x00\n    /* \"#utility.yul\":302:317   */\n  revert\n    /* \"#utility.yul\":328:578   */\ntag_13:\n    /* \"#utility.yul\":413:414   */\n  0x00\n    /* \"#utility.yul\":423:536   */\ntag_19:\n    /* \"#utility.yul\":437:443   */\n  dup4\n    /* \"#utility.yul\":434:435   */\n  dup2\n    /* \"#utility.yul\":431:444   */\n  lt\n    /* \"#utility.yul\":423:536   */\n  iszero\n  tag_21\n  jumpi\n    /* \"#utility.yul\":513:524   */\n  dup2\n  dup2\n  add\n    /* \"#utility.yul\":507:525   */\n  mload\n    /* \"#utility.yul\":494:505   */\n  dup4\n  dup3\n  add\n    /* \"#utility.yul\":487:526   */\n  mstore\n    /* \"#utility.yul\":459:461   */\n  0x20\n    /* \"#utility.yul\":452:462   */\n  add\n    /* \"#utility.yul\":423:536   */\n  jump(tag_19)\ntag_21:\n  pop\n  pop\n    /* \"#utility.yul\":570:571   */\n  0x00\n    /* \"#utility.yul\":552:568   */\n  swap2\n  add\n    /* \"#utility.yul\":545:572   */\n  mstore\n    /* \"#utility.yul\":328:578   */\n  jump\t// out\n    /* \"#utility.yul\":583:1650   */\ntag_3:\n    /* \"#utility.yul\":681:687   */\n  0x00\n    /* \"#utility.yul\":689:695   */\n  dup1\n    /* \"#utility.yul\":697:703   */\n  0x00\n    /* \"#utility.yul\":750:752   */\n  0x60\n    /* \"#utility.yul\":738:747   */\n  dup5\n    /* \"#utility.yul\":729:736   */\n  dup7\n    /* \"#utility.yul\":725:748   */\n  sub\n    /* \"#utility.yul\":721:753   */\n  slt\n    /* \"#utility.yul\":718:770   */\n  iszero\n  tag_23\n  jumpi\n    /* \"#utility.yul\":766:767   */\n  0x00\n    /* \"#utility.yul\":763:764   */\n  dup1\n    /* \"#utility.yul\":756:768   */\n  revert\n    /* \"#utility.yul\":718:770   */\ntag_23:\n    /* \"#utility.yul\":789:829   */\n  tag_24\n    /* \"#utility.yul\":819:828   */\n  dup5\n    /* \"#utility.yul\":789:829   */\n  tag_11\n  jump\t// in\ntag_24:\n    /* \"#utility.yul\":779:829   */\n  swap3\n  pop\n    /* \"#utility.yul\":848:897   */\n  tag_25\n    /* \"#utility.yul\":893:895   */\n  0x20\n    /* \"#utility.yul\":882:891   */\n  dup6\n    /* \"#utility.yul\":878:896   */\n  add\n    /* \"#utility.yul\":848:897   */\n  tag_11\n  jump\t// in\ntag_25:\n    /* \"#utility.yul\":941:943   */\n  0x40\n    /* \"#utility.yul\":926:944   */\n  dup6\n  add\n    /* \"#utility.yul\":920:945   */\n  mload\n    /* \"#utility.yul\":838:897   */\n  swap1\n  swap3\n  pop\n  sub(shl(0x40, 0x01), 0x01)\n    /* \"#utility.yul\":994:1008   */\n  dup1\n  dup3\n  gt\n    /* \"#utility.yul\":991:1025   */\n  iszero\n  tag_26\n  jumpi\n    /* \"#utility.yul\":1021:1022   */\n  0x00\n    /* \"#utility.yul\":1018:1019   */\n  dup1\n    /* \"#utility.yul\":1011:1023   */\n  revert\n    /* \"#utility.yul\":991:1025   */\ntag_26:\n    /* \"#utility.yul\":1059:1065   */\n  dup2\n    /* \"#utility.yul\":1048:1057   */\n  dup7\n    /* \"#utility.yul\":1044:1066   */\n  add\n    /* \"#utility.yul\":1034:1066   */\n  swap2\n  pop\n    /* \"#utility.yul\":1104:1111   */\n  dup7\n    /* \"#utility.yul\":1097:1101   */\n  0x1f\n    /* \"#utility.yul\":1093:1095   */\n  dup4\n    /* \"#utility.yul\":1089:1102   */\n  add\n    /* \"#utility.yul\":1085:1112   */\n  slt\n    /* \"#utility.yul\":1075:1130   */\n  tag_27\n  jumpi\n    /* \"#utility.yul\":1126:1127   */\n  0x00\n    /* \"#utility.yul\":1123:1124   */\n  dup1\n    /* \"#utility.yul\":1116:1128   */\n  revert\n    /* \"#utility.yul\":1075:1130   */\ntag_27:\n    /* \"#utility.yul\":1155:1157   */\n  dup2\n    /* \"#utility.yul\":1149:1158   */\n  mload\n    /* \"#utility.yul\":1177:1179   */\n  dup2\n    /* \"#utility.yul\":1173:1175   */\n  dup2\n    /* \"#utility.yul\":1170:1180   */\n  gt\n    /* \"#utility.yul\":1167:1203   */\n  iszero\n  tag_29\n  jumpi\n    /* \"#utility.yul\":1183:1201   */\n  tag_29\n  tag_12\n  jump\t// in\ntag_29:\n    /* \"#utility.yul\":1258:1260   */\n  0x40\n    /* \"#utility.yul\":1252:1261   */\n  mload\n    /* \"#utility.yul\":1226:1228   */\n  0x1f\n    /* \"#utility.yul\":1312:1325   */\n  dup3\n  add\n  not(0x1f)\n    /* \"#utility.yul\":1308:1330   */\n  swap1\n  dup2\n  and\n    /* \"#utility.yul\":1332:1334   */\n  0x3f\n    /* \"#utility.yul\":1304:1335   */\n  add\n    /* \"#utility.yul\":1300:1340   */\n  and\n    /* \"#utility.yul\":1288:1341   */\n  dup2\n  add\n  swap1\n    /* \"#utility.yul\":1356:1374   */\n  dup4\n  dup3\n  gt\n    /* \"#utility.yul\":1376:1398   */\n  dup2\n  dup4\n  lt\n    /* \"#utility.yul\":1353:1399   */\n  or\n    /* \"#utility.yul\":1350:1422   */\n  iszero\n  tag_31\n  jumpi\n    /* \"#utility.yul\":1402:1420   */\n  tag_31\n  tag_12\n  jump\t// in\ntag_31:\n    /* \"#utility.yul\":1442:1452   */\n  dup2\n    /* \"#utility.yul\":1438:1440   */\n  0x40\n    /* \"#utility.yul\":1431:1453   */\n  mstore\n    /* \"#utility.yul\":1477:1479   */\n  dup3\n    /* \"#utility.yul\":1469:1475   */\n  dup2\n    /* \"#utility.yul\":1462:1480   */\n  mstore\n    /* \"#utility.yul\":1517:1524   */\n  dup10\n    /* \"#utility.yul\":1512:1514   */\n  0x20\n    /* \"#utility.yul\":1507:1509   */\n  dup5\n    /* \"#utility.yul\":1503:1505   */\n  dup8\n    /* \"#utility.yul\":1499:1510   */\n  add\n    /* \"#utility.yul\":1495:1515   */\n  add\n    /* \"#utility.yul\":1492:1525   */\n  gt\n    /* \"#utility.yul\":1489:1542   */\n  iszero\n  tag_32\n  jumpi\n    /* \"#utility.yul\":1538:1539   */\n  0x00\n    /* \"#utility.yul\":1535:1536   */\n  dup1\n    /* \"#utility.yul\":1528:1540   */\n  revert\n    /* \"#utility.yul\":1489:1542   */\ntag_32:\n    /* \"#utility.yul\":1551:1619   */\n  tag_33\n    /* \"#utility.yul\":1616:1618   */\n  dup4\n    /* \"#utility.yul\":1611:1613   */\n  0x20\n    /* \"#utility.yul\":1603:1609   */\n  dup4\n    /* \"#utility.yul\":1599:1614   */\n  add\n    /* \"#utility.yul\":1594:1596   */\n  0x20\n    /* \"#utility.yul\":1590:1592   */\n  dup9\n    /* \"#utility.yul\":1586:1597   */\n  add\n    /* \"#utility.yul\":1551:1619   */\n  tag_13\n  jump\t// in\ntag_33:\n    /* \"#utility.yul\":1638:1644   */\n  dup1\n    /* \"#utility.yul\":1628:1644   */\n  swap6\n  pop\n  pop\n  pop\n  pop\n  pop\n  pop\n    /* \"#utility.yul\":583:1650   */\n  swap3\n  pop\n  swap3\n  pop\n  swap3\n  jump\t// out\n    /* \"#utility.yul\":1655:2051   */\ntag_8:\n    /* \"#utility.yul\":1804:1806   */\n  0x20\n    /* \"#utility.yul\":1793:1802   */\n  dup2\n    /* \"#utility.yul\":1786:1807   */\n  mstore\n    /* \"#utility.yul\":1767:1771   */\n  0x00\n    /* \"#utility.yul\":1836:1842   */\n  dup3\n    /* \"#utility.yul\":1830:1843   */\n  mload\n    /* \"#utility.yul\":1879:1885   */\n  dup1\n    /* \"#utility.yul\":1874:1876   */\n  0x20\n    /* \"#utility.yul\":1863:1872   */\n  dup5\n    /* \"#utility.yul\":1859:1877   */\n  add\n    /* \"#utility.yul\":1852:1886   */\n  mstore\n    /* \"#utility.yul\":1895:1974   */\n  tag_35\n    /* \"#utility.yul\":1967:1973   */\n  dup2\n    /* \"#utility.yul\":1962:1964   */\n  0x40\n    /* \"#utility.yul\":1951:1960   */\n  dup6\n    /* \"#utility.yul\":1947:1965   */\n  add\n    /* \"#utility.yul\":1942:1944   */\n  0x20\n    /* \"#utility.yul\":1934:1940   */\n  dup8\n    /* \"#utility.yul\":1930:1945   */\n  add\n    /* \"#utility.yul\":1895:1974   */\n  tag_13\n  jump\t// in\ntag_35:\n    /* \"#utility.yul\":2035:2037   */\n  0x1f\n    /* \"#utility.yul\":2014:2029   */\n  add\n  not(0x1f)\n    /* \"#utility.yul\":2010:2039   */\n  and\n    /* \"#utility.yul\":1995:2040   */\n  swap2\n  swap1\n  swap2\n  add\n    /* \"#utility.yul\":2042:2044   */\n  0x40\n    /* \"#utility.yul\":1991:2045   */\n  add\n  swap3\n    /* \"#utility.yul\":1655:2051   */\n  swap2\n  pop\n  pop\n  jump\t// out\ntag_14:\n    /* \"contracts/core/MADeliveryStrategy.sol\":773:10348  contract MADeliveryStrategy is IMargariAlloStrategy, IMVersion, MBaseStrategy { ... */\n  mload(0x80)\n  mload(0xa0)\n  mload(0xc0)\n  codecopy(0x00, dataOffset(sub_0), dataSize(sub_0))\n  0x00\n  assignImmutable(\"0x06cc276dcbd36fa8a4ad61c60dbe1da479204cba66678327f4ef951465234202\")\n  0x00\n  assignImmutable(\"0x6012fd21c5b23786b63b1af9ec5ac656f1ee22fef68774e5dea3571e42d00d20\")\n  0x00\n  assignImmutable(\"0x7d7050a99011d63e16791c8480547b004e718c753821a2fe030c671d08e65086\")\n  return(0x00, dataSize(sub_0))\nstop\n\nsub_0: assembly {\n        /* \"contracts/core/MADeliveryStrategy.sol\":773:10348  contract MADeliveryStrategy is IMargariAlloStrategy, IMVersion, MBaseStrategy { ... */\n      mstore(0x40, 0x80)\n      jumpi(tag_1, lt(calldatasize, 0x04))\n      shr(0xe0, calldataload(0x00))\n      dup1\n      0x4ab4ba42\n      gt\n      tag_19\n      jumpi\n      dup1\n      0xdf868ed3\n      gt\n      tag_20\n      jumpi\n      dup1\n      0xdf868ed3\n      eq\n      tag_14\n      jumpi\n      dup1\n      0xeb11af93\n      eq\n      tag_15\n      jumpi\n      dup1\n      0xedd146cc\n      eq\n      tag_16\n      jumpi\n      dup1\n      0xef2920fc\n      eq\n      tag_17\n      jumpi\n      dup1\n      0xf5b0dfb7\n      eq\n      tag_18\n      jumpi\n      0x00\n      dup1\n      revert\n    tag_20:\n      dup1\n      0x4ab4ba42\n      eq\n      tag_10\n      jumpi\n      dup1\n      0x4d31d087\n      eq\n      tag_11\n      jumpi\n      dup1\n      0xb2b878d0\n      eq\n      tag_12\n      jumpi\n      dup1\n      0xdcc60128\n      eq\n      tag_13\n      jumpi\n      0x00\n      dup1\n      revert\n    tag_19:\n      dup1\n      0x2bbe0cae\n      gt\n      tag_21\n      jumpi\n      dup1\n      0x2bbe0cae\n      eq\n      tag_6\n      jumpi\n      dup1\n      0x38fff2d0\n      eq\n      tag_7\n      jumpi\n      dup1\n      0x41f44125\n      eq\n      tag_8\n      jumpi\n      dup1\n      0x42fda9c7\n      eq\n      tag_9\n      jumpi\n      0x00\n      dup1\n      revert\n    tag_21:\n      dup1\n      0x0a6f0ee9\n      eq\n      tag_2\n      jumpi\n      dup1\n      0x0d8e6e2c\n      eq\n      tag_3\n      jumpi\n      dup1\n      0x15cc481e\n      eq\n      tag_4\n      jumpi\n      dup1\n      0x17d7de7c\n      eq\n      tag_5\n      jumpi\n    tag_1:\n      0x00\n      dup1\n      revert\n        /* \"contracts/core/MBaseStrategy.sol\":10891:11224  function distribute(address[] memory _recipientIds, bytes memory _data, address _sender)... */\n    tag_2:\n      callvalue\n      dup1\n      iszero\n      tag_22\n      jumpi\n      0x00\n      dup1\n      revert\n    tag_22:\n      pop\n      tag_23\n      tag_24\n      calldatasize\n      0x04\n      tag_25\n      jump\t// in\n    tag_24:\n      tag_26\n      jump\t// in\n    tag_23:\n      stop\n        /* \"contracts/core/MADeliveryStrategy.sol\":2050:2147  function getVersion() pure external returns (uint256 _version) {... */\n    tag_3:\n      callvalue\n      dup1\n      iszero\n      tag_27\n      jumpi\n      0x00\n      dup1\n      revert\n    tag_27:\n      pop\n        /* \"contracts/core/MADeliveryStrategy.sol\":950:951  3 */\n      0x03\n        /* \"contracts/core/MADeliveryStrategy.sol\":2050:2147  function getVersion() pure external returns (uint256 _version) {... */\n    tag_28:\n      mload(0x40)\n        /* \"#utility.yul\":4041:4066   */\n      swap1\n      dup2\n      mstore\n        /* \"#utility.yul\":4029:4031   */\n      0x20\n        /* \"#utility.yul\":4014:4032   */\n      add\n        /* \"contracts/core/MADeliveryStrategy.sol\":2050:2147  function getVersion() pure external returns (uint256 _version) {... */\n    tag_30:\n      mload(0x40)\n      dup1\n      swap2\n      sub\n      swap1\n      return\n        /* \"contracts/core/MBaseStrategy.sol\":6873:6961  function getAllo() external view override returns (IAllo) {... */\n    tag_4:\n      callvalue\n      dup1\n      iszero\n      tag_32\n      jumpi\n      0x00\n      dup1\n      revert\n    tag_32:\n      pop\n        /* \"contracts/core/MBaseStrategy.sol\":6949:6953  allo */\n      immutable(\"0x7d7050a99011d63e16791c8480547b004e718c753821a2fe030c671d08e65086\")\n        /* \"contracts/core/MBaseStrategy.sol\":6873:6961  function getAllo() external view override returns (IAllo) {... */\n    tag_33:\n      mload(0x40)\n      sub(shl(0xa0, 0x01), 0x01)\n        /* \"#utility.yul\":4255:4287   */\n      swap1\n      swap2\n      and\n        /* \"#utility.yul\":4237:4288   */\n      dup2\n      mstore\n        /* \"#utility.yul\":4225:4227   */\n      0x20\n        /* \"#utility.yul\":4210:4228   */\n      add\n        /* \"contracts/core/MBaseStrategy.sol\":6873:6961  function getAllo() external view override returns (IAllo) {... */\n      tag_30\n        /* \"#utility.yul\":4077:4294   */\n      jump\n        /* \"contracts/core/MADeliveryStrategy.sol\":1948:2042  function getName() pure external returns (string memory _name) {... */\n    tag_5:\n      callvalue\n      dup1\n      iszero\n      tag_37\n      jumpi\n      0x00\n      dup1\n      revert\n    tag_37:\n      pop\n        /* \"contracts/core/MADeliveryStrategy.sol\":2029:2033  name */\n      0x40\n      dup1\n      mload\n      dup1\n      dup3\n      add\n      dup3\n      mstore\n      0x1e\n      dup2\n      mstore\n      0x52455345525645445f4d5f415f44454c49564552595f53545241544547590000\n      0x20\n      dup3\n      add\n      mstore\n        /* \"contracts/core/MADeliveryStrategy.sol\":1948:2042  function getName() pure external returns (string memory _name) {... */\n      swap1\n      mload\n      tag_30\n      swap2\n        /* \"contracts/core/MADeliveryStrategy.sol\":2029:2033  name */\n      swap1\n        /* \"contracts/core/MADeliveryStrategy.sol\":1948:2042  function getName() pure external returns (string memory _name) {... */\n      tag_41\n      jump\t// in\n        /* \"contracts/core/MBaseStrategy.sol\":9586:9940  function registerRecipient(bytes memory _data, address _sender)... */\n    tag_6:\n      tag_33\n      tag_43\n      calldatasize\n      0x04\n      tag_44\n      jump\t// in\n    tag_43:\n      tag_45\n      jump\t// in\n        /* \"contracts/core/MBaseStrategy.sol\":7047:7141  function getPoolId() external view override returns (uint256) {... */\n    tag_7:\n      callvalue\n      dup1\n      iszero\n      tag_48\n      jumpi\n      0x00\n      dup1\n      revert\n    tag_48:\n      pop\n        /* \"contracts/core/MBaseStrategy.sol\":7127:7133  poolId */\n      sload(0x01)\n        /* \"contracts/core/MBaseStrategy.sol\":7047:7141  function getPoolId() external view override returns (uint256) {... */\n      jump(tag_28)\n        /* \"contracts/core/MADeliveryStrategy.sol\":2565:2726  function addAllocator(address _allocator ) external returns (bool _added) {... */\n    tag_8:\n      callvalue\n      dup1\n      iszero\n      tag_52\n      jumpi\n      0x00\n      dup1\n      revert\n    tag_52:\n      pop\n      tag_53\n      tag_54\n      calldatasize\n      0x04\n      tag_55\n      jump\t// in\n    tag_54:\n      sub(shl(0xa0, 0x01), 0x01)\n        /* \"contracts/core/MADeliveryStrategy.sol\":2650:2687  isValidAllocatorByAddress[_allocator] */\n      and\n        /* \"contracts/core/MADeliveryStrategy.sol\":2626:2637  bool _added */\n      0x00\n        /* \"contracts/core/MADeliveryStrategy.sol\":2650:2687  isValidAllocatorByAddress[_allocator] */\n      swap1\n      dup2\n      mstore\n        /* \"contracts/core/MADeliveryStrategy.sol\":2650:2675  isValidAllocatorByAddress */\n      0x08\n        /* \"contracts/core/MADeliveryStrategy.sol\":2650:2687  isValidAllocatorByAddress[_allocator] */\n      0x20\n      mstore\n      0x40\n      swap1\n      keccak256\n        /* \"contracts/core/MADeliveryStrategy.sol\":2650:2694  isValidAllocatorByAddress[_allocator] = true */\n      dup1\n      sload\n      not(0xff)\n      and\n        /* \"contracts/core/MADeliveryStrategy.sol\":2690:2694  true */\n      0x01\n        /* \"contracts/core/MADeliveryStrategy.sol\":2650:2694  isValidAllocatorByAddress[_allocator] = true */\n      swap1\n      dup2\n      or\n      swap1\n      swap2\n      sstore\n        /* \"contracts/core/MADeliveryStrategy.sol\":2690:2694  true */\n      swap1\n        /* \"contracts/core/MADeliveryStrategy.sol\":2565:2726  function addAllocator(address _allocator ) external returns (bool _added) {... */\n      jump\n    tag_53:\n      mload(0x40)\n        /* \"#utility.yul\":6040:6054   */\n      swap1\n      iszero\n        /* \"#utility.yul\":6033:6055   */\n      iszero\n        /* \"#utility.yul\":6015:6056   */\n      dup2\n      mstore\n        /* \"#utility.yul\":6003:6005   */\n      0x20\n        /* \"#utility.yul\":5988:6006   */\n      add\n        /* \"contracts/core/MADeliveryStrategy.sol\":2565:2726  function addAllocator(address _allocator ) external returns (bool _added) {... */\n      tag_30\n        /* \"#utility.yul\":5875:6062   */\n      jump\n        /* \"contracts/core/MBaseStrategy.sol\":7235:7337  function getStrategyId() external view override returns (bytes32) {... */\n    tag_9:\n      callvalue\n      dup1\n      iszero\n      tag_59\n      jumpi\n      0x00\n      dup1\n      revert\n    tag_59:\n      pop\n        /* \"contracts/core/MBaseStrategy.sol\":7319:7329  strategyId */\n      immutable(\"0x6012fd21c5b23786b63b1af9ec5ac656f1ee22fef68774e5dea3571e42d00d20\")\n        /* \"contracts/core/MBaseStrategy.sol\":7235:7337  function getStrategyId() external view override returns (bytes32) {... */\n      jump(tag_28)\n        /* \"contracts/core/MBaseStrategy.sol\":7432:7542  function getPoolAmount() external view virtual override returns (uint256) {... */\n    tag_10:\n      callvalue\n      dup1\n      iszero\n      tag_64\n      jumpi\n      0x00\n      dup1\n      revert\n    tag_64:\n      pop\n        /* \"contracts/core/MBaseStrategy.sol\":7524:7534  poolAmount */\n      sload(0x02)\n        /* \"contracts/core/MBaseStrategy.sol\":7432:7542  function getPoolAmount() external view virtual override returns (uint256) {... */\n      jump(tag_28)\n        /* \"contracts/core/MBaseStrategy.sol\":12622:12769  function isValidAllocator(address _allocator) external view virtual override returns (bool) {... */\n    tag_11:\n      callvalue\n      dup1\n      iszero\n      tag_68\n      jumpi\n      0x00\n      dup1\n      revert\n    tag_68:\n      pop\n      tag_53\n      tag_70\n      calldatasize\n      0x04\n      tag_55\n      jump\t// in\n    tag_70:\n      tag_71\n      jump\t// in\n        /* \"contracts/core/MBaseStrategy.sol\":11568:12292  function getPayouts(address[] memory _recipientIds, bytes[] memory _data)... */\n    tag_12:\n      callvalue\n      dup1\n      iszero\n      tag_73\n      jumpi\n      0x00\n      dup1\n      revert\n    tag_73:\n      pop\n      tag_74\n      tag_75\n      calldatasize\n      0x04\n      tag_76\n      jump\t// in\n    tag_75:\n      tag_77\n      jump\t// in\n    tag_74:\n      mload(0x40)\n      tag_30\n      swap2\n      swap1\n      tag_79\n      jump\t// in\n        /* \"contracts/core/MADeliveryStrategy.sol\":2155:2265  function getProjects() view external returns (address [] memory _projects) {... */\n    tag_13:\n      callvalue\n      dup1\n      iszero\n      tag_80\n      jumpi\n      0x00\n      dup1\n      revert\n    tag_80:\n      pop\n      tag_81\n      tag_82\n      jump\t// in\n    tag_81:\n      mload(0x40)\n      tag_30\n      swap2\n      swap1\n      tag_84\n      jump\t// in\n        /* \"contracts/core/MBaseStrategy.sol\":7678:7781  function isPoolActive() external view override returns (bool) {... */\n    tag_14:\n      callvalue\n      dup1\n      iszero\n      tag_85\n      jumpi\n      0x00\n      dup1\n      revert\n    tag_85:\n      pop\n        /* \"contracts/core/MBaseStrategy.sol\":7734:7738  bool */\n      0x00\n        /* \"contracts/core/MBaseStrategy.sol\":14765:14775  poolActive */\n      sload\n      0xff\n      and\n        /* \"contracts/core/MBaseStrategy.sol\":7678:7781  function isPoolActive() external view override returns (bool) {... */\n      jump(tag_53)\n        /* \"contracts/core/MBaseStrategy.sol\":7942:8090  function getRecipientStatus(address _recipientId) external view virtual returns (Status) {... */\n    tag_15:\n      callvalue\n      dup1\n      iszero\n      tag_89\n      jumpi\n      0x00\n      dup1\n      revert\n    tag_89:\n      pop\n      tag_90\n      tag_91\n      calldatasize\n      0x04\n      tag_55\n      jump\t// in\n    tag_91:\n      tag_92\n      jump\t// in\n    tag_90:\n      mload(0x40)\n      tag_30\n      swap2\n      swap1\n      tag_94\n      jump\t// in\n        /* \"contracts/core/MADeliveryStrategy.sol\":1839:1940  function initialize(uint256 _poolId, bytes memory _data) external{... */\n    tag_16:\n      callvalue\n      dup1\n      iszero\n      tag_95\n      jumpi\n      0x00\n      dup1\n      revert\n    tag_95:\n      pop\n      tag_23\n      tag_97\n      calldatasize\n      0x04\n      tag_98\n      jump\t// in\n    tag_97:\n      pop\n        /* \"contracts/core/MADeliveryStrategy.sol\":1915:1921  poolId */\n      0x01\n        /* \"contracts/core/MADeliveryStrategy.sol\":1915:1931  poolId = _poolId */\n      sstore\n        /* \"contracts/core/MADeliveryStrategy.sol\":1839:1940  function initialize(uint256 _poolId, bytes memory _data) external{... */\n      jump\n        /* \"contracts/core/MBaseStrategy.sol\":10266:10490  function allocate(bytes memory _data, address _sender) external payable onlyAllo onlyInitialized {... */\n    tag_17:\n      tag_23\n      tag_101\n      calldatasize\n      0x04\n      tag_44\n      jump\t// in\n    tag_101:\n      tag_102\n      jump\t// in\n        /* \"contracts/core/MBaseStrategy.sol\":8961:9162  function increasePoolAmount(uint256 _amount) external override onlyAllo {... */\n    tag_18:\n      callvalue\n      dup1\n      iszero\n      tag_103\n      jumpi\n      0x00\n      dup1\n      revert\n    tag_103:\n      pop\n      tag_23\n      tag_105\n      calldatasize\n      0x04\n      tag_106\n      jump\t// in\n    tag_105:\n      tag_107\n      jump\t// in\n        /* \"contracts/core/MBaseStrategy.sol\":10891:11224  function distribute(address[] memory _recipientIds, bytes memory _data, address _sender)... */\n    tag_26:\n        /* \"contracts/core/MBaseStrategy.sol\":5709:5725  _checkOnlyAllo() */\n      tag_109\n        /* \"contracts/core/MBaseStrategy.sol\":5709:5723  _checkOnlyAllo */\n      tag_110\n        /* \"contracts/core/MBaseStrategy.sol\":5709:5725  _checkOnlyAllo() */\n      jump\t// in\n    tag_109:\n        /* \"contracts/core/MBaseStrategy.sol\":6610:6633  _checkOnlyInitialized() */\n      tag_112\n        /* \"contracts/core/MBaseStrategy.sol\":6610:6631  _checkOnlyInitialized */\n      tag_113\n        /* \"contracts/core/MBaseStrategy.sol\":6610:6633  _checkOnlyInitialized() */\n      jump\t// in\n    tag_112:\n        /* \"contracts/core/MBaseStrategy.sol\":11116:11158  _distribute(_recipientIds, _data, _sender) */\n      tag_117\n        /* \"contracts/core/MBaseStrategy.sol\":11128:11141  _recipientIds */\n      dup4\n        /* \"contracts/core/MBaseStrategy.sol\":11143:11148  _data */\n      dup4\n        /* \"contracts/core/MBaseStrategy.sol\":11150:11157  _sender */\n      dup4\n        /* \"contracts/core/MBaseStrategy.sol\":11116:11127  _distribute */\n      tag_118\n        /* \"contracts/core/MBaseStrategy.sol\":11116:11158  _distribute(_recipientIds, _data, _sender) */\n      jump\t// in\n    tag_117:\n        /* \"contracts/core/MBaseStrategy.sol\":10891:11224  function distribute(address[] memory _recipientIds, bytes memory _data, address _sender)... */\n      pop\n      pop\n      pop\n      jump\t// out\n        /* \"contracts/core/MBaseStrategy.sol\":9586:9940  function registerRecipient(bytes memory _data, address _sender)... */\n    tag_45:\n        /* \"contracts/core/MBaseStrategy.sol\":9746:9765  address recipientId */\n      0x00\n        /* \"contracts/core/MBaseStrategy.sol\":5709:5725  _checkOnlyAllo() */\n      tag_125\n        /* \"contracts/core/MBaseStrategy.sol\":5709:5723  _checkOnlyAllo */\n      tag_110\n        /* \"contracts/core/MBaseStrategy.sol\":5709:5725  _checkOnlyAllo() */\n      jump\t// in\n    tag_125:\n        /* \"contracts/core/MBaseStrategy.sol\":6610:6633  _checkOnlyInitialized() */\n      tag_127\n        /* \"contracts/core/MBaseStrategy.sol\":6610:6631  _checkOnlyInitialized */\n      tag_113\n        /* \"contracts/core/MBaseStrategy.sol\":6610:6633  _checkOnlyInitialized() */\n      jump\t// in\n    tag_127:\n        /* \"contracts/core/MBaseStrategy.sol\":9848:9882  _registerRecipient(_data, _sender) */\n      tag_131\n        /* \"contracts/core/MBaseStrategy.sol\":9867:9872  _data */\n      dup4\n        /* \"contracts/core/MBaseStrategy.sol\":9874:9881  _sender */\n      dup4\n        /* \"contracts/core/MBaseStrategy.sol\":9848:9866  _registerRecipient */\n      tag_132\n        /* \"contracts/core/MBaseStrategy.sol\":9848:9882  _registerRecipient(_data, _sender) */\n      jump\t// in\n    tag_131:\n        /* \"contracts/core/MBaseStrategy.sol\":9834:9882  recipientId = _registerRecipient(_data, _sender) */\n      swap1\n      pop\n        /* \"contracts/core/MBaseStrategy.sol\":9893:9932  _afterRegisterRecipient(_data, _sender) */\n    tag_133:\n        /* \"contracts/core/MBaseStrategy.sol\":9586:9940  function registerRecipient(bytes memory _data, address _sender)... */\n      swap3\n      swap2\n      pop\n      pop\n      jump\t// out\n        /* \"contracts/core/MBaseStrategy.sol\":12622:12769  function isValidAllocator(address _allocator) external view virtual override returns (bool) {... */\n    tag_71:\n        /* \"contracts/core/MBaseStrategy.sol\":12708:12712  bool */\n      0x00\n        /* \"contracts/core/MADeliveryStrategy.sol\":2544:2548  true */\n      0x01\n        /* \"contracts/core/MBaseStrategy.sol\":12732:12761  _isValidAllocator(_allocator) */\n      tag_133\n        /* \"contracts/core/MADeliveryStrategy.sol\":2442:2557  function _isValidAllocator(address _allocator) internal pure override returns (bool){... */\n      jump\n        /* \"contracts/core/MBaseStrategy.sol\":11568:12292  function getPayouts(address[] memory _recipientIds, bytes[] memory _data)... */\n    tag_77:\n        /* \"contracts/core/MBaseStrategy.sol\":11793:11813  _recipientIds.length */\n      dup2\n      mload\n        /* \"contracts/core/MBaseStrategy.sol\":11951:11963  _data.length */\n      dup2\n      mload\n        /* \"contracts/core/MBaseStrategy.sol\":11727:11749  PayoutSummary[] memory */\n      0x60\n      swap2\n        /* \"contracts/core/MBaseStrategy.sol\":11793:11813  _recipientIds.length */\n      swap1\n        /* \"contracts/core/MBaseStrategy.sol\":11932:11963  recipientLength != _data.length */\n      dup2\n      eq\n        /* \"contracts/core/MBaseStrategy.sol\":11928:11989  if (recipientLength != _data.length) revert(\"ARRAY MISMATCH\") */\n      tag_143\n      jumpi\n        /* \"contracts/core/MBaseStrategy.sol\":11965:11989  revert(\"ARRAY MISMATCH\") */\n      mload(0x40)\n      shl(0xe5, 0x461bcd)\n      dup2\n      mstore\n        /* \"#utility.yul\":10264:10266   */\n      0x20\n        /* \"contracts/core/MBaseStrategy.sol\":11965:11989  revert(\"ARRAY MISMATCH\") */\n      0x04\n      dup3\n      add\n        /* \"#utility.yul\":10246:10267   */\n      mstore\n        /* \"#utility.yul\":10303:10305   */\n      0x0e\n        /* \"#utility.yul\":10283:10301   */\n      0x24\n      dup3\n      add\n        /* \"#utility.yul\":10276:10306   */\n      mstore\n      shl(0x93, 0x082a4a482b2409a92a69a82a8869)\n        /* \"#utility.yul\":10322:10340   */\n      0x44\n      dup3\n      add\n        /* \"#utility.yul\":10315:10359   */\n      mstore\n        /* \"#utility.yul\":10376:10394   */\n      0x64\n      add\n        /* \"contracts/core/MBaseStrategy.sol\":11965:11989  revert(\"ARRAY MISMATCH\") */\n    tag_144:\n      mload(0x40)\n      dup1\n      swap2\n      sub\n      swap1\n      revert\n        /* \"contracts/core/MBaseStrategy.sol\":11928:11989  if (recipientLength != _data.length) revert(\"ARRAY MISMATCH\") */\n    tag_143:\n        /* \"contracts/core/MBaseStrategy.sol\":12002:12032  PayoutSummary[] memory payouts */\n      0x00\n        /* \"contracts/core/MBaseStrategy.sol\":12055:12070  recipientLength */\n      dup2\n      sub(shl(0x40, 0x01), 0x01)\n        /* \"contracts/core/MBaseStrategy.sol\":12035:12071  new PayoutSummary[](recipientLength) */\n      dup2\n      gt\n      iszero\n      tag_147\n      jumpi\n      tag_147\n      tag_148\n      jump\t// in\n    tag_147:\n      mload(0x40)\n      swap1\n      dup1\n      dup3\n      mstore\n      dup1\n      0x20\n      mul\n      0x20\n      add\n      dup3\n      add\n      0x40\n      mstore\n      dup1\n      iszero\n      tag_149\n      jumpi\n      dup2\n      0x20\n      add\n    tag_150:\n      0x40\n      dup1\n      mload\n      dup1\n      dup3\n      add\n      swap1\n      swap2\n      mstore\n      0x00\n      dup1\n      dup3\n      mstore\n      0x20\n      dup3\n      add\n      mstore\n      dup2\n      mstore\n      0x20\n      add\n      swap1\n      0x01\n      swap1\n      sub\n      swap1\n      dup2\n      tag_150\n      jumpi\n      swap1\n      pop\n    tag_149:\n      pop\n        /* \"contracts/core/MBaseStrategy.sol\":12002:12071  PayoutSummary[] memory payouts = new PayoutSummary[](recipientLength) */\n      swap1\n      pop\n        /* \"contracts/core/MBaseStrategy.sol\":12087:12096  uint256 i */\n      0x00\n        /* \"contracts/core/MBaseStrategy.sol\":12082:12260  for (uint256 i; i < recipientLength;) {... */\n    tag_153:\n        /* \"contracts/core/MBaseStrategy.sol\":12102:12117  recipientLength */\n      dup3\n        /* \"contracts/core/MBaseStrategy.sol\":12098:12099  i */\n      dup2\n        /* \"contracts/core/MBaseStrategy.sol\":12098:12117  i < recipientLength */\n      lt\n        /* \"contracts/core/MBaseStrategy.sol\":12082:12260  for (uint256 i; i < recipientLength;) {... */\n      iszero\n      tag_154\n      jumpi\n        /* \"contracts/core/MBaseStrategy.sol\":12148:12186  _getPayout(_recipientIds[i], _data[i]) */\n      tag_156\n        /* \"contracts/core/MBaseStrategy.sol\":12159:12172  _recipientIds */\n      dup7\n        /* \"contracts/core/MBaseStrategy.sol\":12173:12174  i */\n      dup3\n        /* \"contracts/core/MBaseStrategy.sol\":12159:12175  _recipientIds[i] */\n      dup2\n      mload\n      dup2\n      lt\n      tag_158\n      jumpi\n      tag_158\n      tag_159\n      jump\t// in\n    tag_158:\n      0x20\n      mul\n      0x20\n      add\n      add\n      mload\n        /* \"contracts/core/MBaseStrategy.sol\":12177:12182  _data */\n      dup7\n        /* \"contracts/core/MBaseStrategy.sol\":12183:12184  i */\n      dup4\n        /* \"contracts/core/MBaseStrategy.sol\":12177:12185  _data[i] */\n      dup2\n      mload\n      dup2\n      lt\n      tag_161\n      jumpi\n      tag_161\n      tag_159\n      jump\t// in\n    tag_161:\n      pop\n      pop\n      0x40\n      dup1\n      mload\n      dup1\n      dup3\n      add\n      dup3\n      mstore\n      0x00\n      dup1\n      dup3\n      mstore\n      0x20\n      swap2\n      dup3\n      add\n      dup2\n      swap1\n      mstore\n        /* \"contracts/core/MADeliveryStrategy.sol\":9441:9585  PayoutSummary ({... */\n      dup3\n      mload\n      dup1\n      dup5\n      add\n      dup5\n      mstore\n      sub(shl(0xa0, 0x01), 0x01)\n      swap5\n      swap1\n      swap5\n      and\n      dup1\n      dup6\n      mstore\n        /* \"contracts/core/MADeliveryStrategy.sol\":9535:9569  totalPaidByRecipient[_recipientId] */\n      dup2\n      mstore\n        /* \"contracts/core/MADeliveryStrategy.sol\":9535:9555  totalPaidByRecipient */\n      0x0b\n        /* \"contracts/core/MADeliveryStrategy.sol\":9535:9569  totalPaidByRecipient[_recipientId] */\n      dup3\n      mstore\n      swap2\n      swap1\n      swap2\n      keccak256\n      sload\n        /* \"contracts/core/MADeliveryStrategy.sol\":9441:9585  PayoutSummary ({... */\n      swap1\n      dup3\n      add\n      mstore\n      swap1\n        /* \"contracts/core/MADeliveryStrategy.sol\":9266:9595  function _getPayout(address _recipientId, bytes memory _data)... */\n      jump\n        /* \"contracts/core/MBaseStrategy.sol\":12148:12186  _getPayout(_recipientIds[i], _data[i]) */\n    tag_156:\n        /* \"contracts/core/MBaseStrategy.sol\":12135:12142  payouts */\n      dup3\n        /* \"contracts/core/MBaseStrategy.sol\":12143:12144  i */\n      dup3\n        /* \"contracts/core/MBaseStrategy.sol\":12135:12145  payouts[i] */\n      dup2\n      mload\n      dup2\n      lt\n      tag_164\n      jumpi\n      tag_164\n      tag_159\n      jump\t// in\n    tag_164:\n      0x20\n      swap1\n      dup2\n      mul\n      swap2\n      swap1\n      swap2\n      add\n      add\n        /* \"contracts/core/MBaseStrategy.sol\":12135:12186  payouts[i] = _getPayout(_recipientIds[i], _data[i]) */\n      mstore\n        /* \"contracts/core/MBaseStrategy.sol\":12230:12233  i++ */\n      0x01\n      add\n        /* \"contracts/core/MBaseStrategy.sol\":12082:12260  for (uint256 i; i < recipientLength;) {... */\n      jump(tag_153)\n    tag_154:\n      pop\n        /* \"contracts/core/MBaseStrategy.sol\":12277:12284  payouts */\n      swap5\n        /* \"contracts/core/MBaseStrategy.sol\":11568:12292  function getPayouts(address[] memory _recipientIds, bytes[] memory _data)... */\n      swap4\n      pop\n      pop\n      pop\n      pop\n      jump\t// out\n        /* \"contracts/core/MADeliveryStrategy.sol\":2155:2265  function getProjects() view external returns (address [] memory _projects) {... */\n    tag_82:\n        /* \"contracts/core/MADeliveryStrategy.sol\":2201:2228  address [] memory _projects */\n      0x60\n        /* \"contracts/core/MADeliveryStrategy.sol\":2248:2256  projects */\n      0x04\n        /* \"contracts/core/MADeliveryStrategy.sol\":2241:2256  return projects */\n      dup1\n      sload\n      dup1\n      0x20\n      mul\n      0x20\n      add\n      mload(0x40)\n      swap1\n      dup2\n      add\n      0x40\n      mstore\n      dup1\n      swap3\n      swap2\n      swap1\n      dup2\n      dup2\n      mstore\n      0x20\n      add\n      dup3\n      dup1\n      sload\n      dup1\n      iszero\n      tag_166\n      jumpi\n      0x20\n      mul\n      dup3\n      add\n      swap2\n      swap1\n      0x00\n      mstore\n      keccak256(0x00, 0x20)\n      swap1\n    tag_167:\n      dup2\n      sload\n      sub(shl(0xa0, 0x01), 0x01)\n      and\n      dup2\n      mstore\n      0x01\n      swap1\n      swap2\n      add\n      swap1\n      0x20\n      add\n      dup1\n      dup4\n      gt\n      tag_167\n      jumpi\n    tag_166:\n      pop\n      pop\n      pop\n      pop\n      pop\n      swap1\n      pop\n        /* \"contracts/core/MADeliveryStrategy.sol\":2155:2265  function getProjects() view external returns (address [] memory _projects) {... */\n      swap1\n      jump\t// out\n        /* \"contracts/core/MBaseStrategy.sol\":7942:8090  function getRecipientStatus(address _recipientId) external view virtual returns (Status) {... */\n    tag_92:\n        /* \"contracts/core/MBaseStrategy.sol\":8023:8029  Status */\n      0x00\n      dup1\n        /* \"contracts/core/MBaseStrategy.sol\":8049:8082  _getRecipientStatus(_recipientId) */\n      tag_133\n        /* \"contracts/core/MADeliveryStrategy.sol\":9759:9859  function _getRecipientStatus(address _recipientId) internal view override returns (Status){... */\n      jump\n        /* \"contracts/core/MBaseStrategy.sol\":10266:10490  function allocate(bytes memory _data, address _sender) external payable onlyAllo onlyInitialized {... */\n    tag_102:\n        /* \"contracts/core/MBaseStrategy.sol\":5709:5725  _checkOnlyAllo() */\n      tag_176\n        /* \"contracts/core/MBaseStrategy.sol\":5709:5723  _checkOnlyAllo */\n      tag_110\n        /* \"contracts/core/MBaseStrategy.sol\":5709:5725  _checkOnlyAllo() */\n      jump\t// in\n    tag_176:\n        /* \"contracts/core/MBaseStrategy.sol\":6610:6633  _checkOnlyInitialized() */\n      tag_178\n        /* \"contracts/core/MBaseStrategy.sol\":6610:6631  _checkOnlyInitialized */\n      tag_113\n        /* \"contracts/core/MBaseStrategy.sol\":6610:6633  _checkOnlyInitialized() */\n      jump\t// in\n    tag_178:\n        /* \"contracts/core/MBaseStrategy.sol\":10416:10441  _allocate(_data, _sender) */\n      tag_182\n        /* \"contracts/core/MBaseStrategy.sol\":10426:10431  _data */\n      dup3\n        /* \"contracts/core/MBaseStrategy.sol\":10433:10440  _sender */\n      dup3\n        /* \"contracts/core/MBaseStrategy.sol\":10416:10425  _allocate */\n      tag_183\n        /* \"contracts/core/MBaseStrategy.sol\":10416:10441  _allocate(_data, _sender) */\n      jump\t// in\n    tag_182:\n        /* \"contracts/core/MBaseStrategy.sol\":10266:10490  function allocate(bytes memory _data, address _sender) external payable onlyAllo onlyInitialized {... */\n      pop\n      pop\n      jump\t// out\n        /* \"contracts/core/MBaseStrategy.sol\":8961:9162  function increasePoolAmount(uint256 _amount) external override onlyAllo {... */\n    tag_107:\n        /* \"contracts/core/MBaseStrategy.sol\":5709:5725  _checkOnlyAllo() */\n      tag_187\n        /* \"contracts/core/MBaseStrategy.sol\":5709:5723  _checkOnlyAllo */\n      tag_110\n        /* \"contracts/core/MBaseStrategy.sol\":5709:5725  _checkOnlyAllo() */\n      jump\t// in\n    tag_187:\n        /* \"contracts/core/MBaseStrategy.sol\":9103:9110  _amount */\n      dup1\n        /* \"contracts/core/MBaseStrategy.sol\":9089:9099  poolAmount */\n      0x02\n      0x00\n        /* \"contracts/core/MBaseStrategy.sol\":9089:9110  poolAmount += _amount */\n      dup3\n      dup3\n      sload\n      tag_191\n      swap2\n      swap1\n      tag_192\n      jump\t// in\n    tag_191:\n      swap1\n      swap2\n      sstore\n      pop\n        /* \"contracts/core/MBaseStrategy.sol\":9121:9154  _afterIncreasePoolAmount(_amount) */\n      tag_193\n      swap1\n      pop\n        /* \"contracts/core/MBaseStrategy.sol\":9146:9153  _amount */\n      dup2\n        /* \"contracts/core/MBaseStrategy.sol\":9121:9154  _afterIncreasePoolAmount(_amount) */\n      dup2\n      jump\t// in\n    tag_193:\n        /* \"contracts/core/MBaseStrategy.sol\":8961:9162  function increasePoolAmount(uint256 _amount) external override onlyAllo {... */\n      pop\n      jump\t// out\n        /* \"contracts/core/MBaseStrategy.sol\":13051:13165  function _checkOnlyAllo() internal view {... */\n    tag_110:\n        /* \"contracts/core/MBaseStrategy.sol\":13106:13116  msg.sender */\n      caller\n      sub(shl(0xa0, 0x01), 0x01)\n        /* \"contracts/core/MBaseStrategy.sol\":13128:13132  allo */\n      immutable(\"0x7d7050a99011d63e16791c8480547b004e718c753821a2fe030c671d08e65086\")\n        /* \"contracts/core/MBaseStrategy.sol\":13106:13133  msg.sender != address(allo) */\n      and\n      eq\n        /* \"contracts/core/MBaseStrategy.sol\":13102:13157  if (msg.sender != address(allo)) revert(\"UNAUTHORIZED\") */\n      tag_196\n      jumpi\n        /* \"contracts/core/MBaseStrategy.sol\":13135:13157  revert(\"UNAUTHORIZED\") */\n      mload(0x40)\n      shl(0xe5, 0x461bcd)\n      dup2\n      mstore\n        /* \"#utility.yul\":11001:11003   */\n      0x20\n        /* \"contracts/core/MBaseStrategy.sol\":13135:13157  revert(\"UNAUTHORIZED\") */\n      0x04\n      dup3\n      add\n        /* \"#utility.yul\":10983:11004   */\n      mstore\n        /* \"#utility.yul\":11040:11042   */\n      0x0c\n        /* \"#utility.yul\":11020:11038   */\n      0x24\n      dup3\n      add\n        /* \"#utility.yul\":11013:11043   */\n      mstore\n      shl(0xa2, 0x15539055551213d492569151)\n        /* \"#utility.yul\":11059:11077   */\n      0x44\n      dup3\n      add\n        /* \"#utility.yul\":11052:11094   */\n      mstore\n        /* \"#utility.yul\":11111:11129   */\n      0x64\n      add\n        /* \"contracts/core/MBaseStrategy.sol\":13135:13157  revert(\"UNAUTHORIZED\") */\n      tag_144\n        /* \"#utility.yul\":10799:11135   */\n      jump\n        /* \"contracts/core/MBaseStrategy.sol\":13102:13157  if (msg.sender != address(allo)) revert(\"UNAUTHORIZED\") */\n    tag_196:\n        /* \"contracts/core/MBaseStrategy.sol\":13051:13165  function _checkOnlyAllo() internal view {... */\n      jump\t// out\n        /* \"contracts/core/MBaseStrategy.sol\":14039:14148  function _checkOnlyInitialized() internal view {... */\n    tag_113:\n        /* \"contracts/core/MBaseStrategy.sol\":14101:14107  poolId */\n      sload(0x01)\n        /* \"contracts/core/MBaseStrategy.sol\":14111:14112  0 */\n      0x00\n        /* \"contracts/core/MBaseStrategy.sol\":14101:14112  poolId == 0 */\n      sub\n        /* \"contracts/core/MBaseStrategy.sol\":14097:14139  if (poolId == 0) revert(\"NOT_INITIALIZED\") */\n      tag_196\n      jumpi\n        /* \"contracts/core/MBaseStrategy.sol\":14114:14139  revert(\"NOT_INITIALIZED\") */\n      mload(0x40)\n      shl(0xe5, 0x461bcd)\n      dup2\n      mstore\n        /* \"#utility.yul\":11342:11344   */\n      0x20\n        /* \"contracts/core/MBaseStrategy.sol\":14114:14139  revert(\"NOT_INITIALIZED\") */\n      0x04\n      dup3\n      add\n        /* \"#utility.yul\":11324:11345   */\n      mstore\n        /* \"#utility.yul\":11381:11383   */\n      0x0f\n        /* \"#utility.yul\":11361:11379   */\n      0x24\n      dup3\n      add\n        /* \"#utility.yul\":11354:11384   */\n      mstore\n      shl(0x8a, 0x1393d517d253925512505312569151)\n        /* \"#utility.yul\":11400:11418   */\n      0x44\n      dup3\n      add\n        /* \"#utility.yul\":11393:11438   */\n      mstore\n        /* \"#utility.yul\":11455:11473   */\n      0x64\n      add\n        /* \"contracts/core/MBaseStrategy.sol\":14114:14139  revert(\"NOT_INITIALIZED\") */\n      tag_144\n        /* \"#utility.yul\":11140:11479   */\n      jump\n        /* \"contracts/core/MADeliveryStrategy.sol\":5224:6718  function _distribute(address[] memory _recipientIds, bytes memory _data, address _sender) internal override {... */\n    tag_118:\n        /* \"contracts/core/MADeliveryStrategy.sol\":5357:5366  uint256 x */\n      0x00\n        /* \"contracts/core/MADeliveryStrategy.sol\":5353:6711  for(uint256 x = 0; x < _recipientIds.length; x++){... */\n    tag_205:\n        /* \"contracts/core/MADeliveryStrategy.sol\":5376:5389  _recipientIds */\n      dup4\n        /* \"contracts/core/MADeliveryStrategy.sol\":5376:5396  _recipientIds.length */\n      mload\n        /* \"contracts/core/MADeliveryStrategy.sol\":5372:5373  x */\n      dup2\n        /* \"contracts/core/MADeliveryStrategy.sol\":5372:5396  x < _recipientIds.length */\n      lt\n        /* \"contracts/core/MADeliveryStrategy.sol\":5353:6711  for(uint256 x = 0; x < _recipientIds.length; x++){... */\n      iszero\n      tag_206\n      jumpi\n        /* \"contracts/core/MADeliveryStrategy.sol\":5417:5440  address projectAddress_ */\n      0x00\n        /* \"contracts/core/MADeliveryStrategy.sol\":5443:5456  _recipientIds */\n      dup5\n        /* \"contracts/core/MADeliveryStrategy.sol\":5457:5458  x */\n      dup3\n        /* \"contracts/core/MADeliveryStrategy.sol\":5443:5459  _recipientIds[x] */\n      dup2\n      mload\n      dup2\n      lt\n      tag_209\n      jumpi\n      tag_209\n      tag_159\n      jump\t// in\n    tag_209:\n      0x20\n      mul\n      0x20\n      add\n      add\n      mload\n        /* \"contracts/core/MADeliveryStrategy.sol\":5417:5459  address projectAddress_ = _recipientIds[x] */\n      swap1\n      pop\n        /* \"contracts/core/MADeliveryStrategy.sol\":5474:5492  IMProject project_ */\n      0x00\n        /* \"contracts/core/MADeliveryStrategy.sol\":5505:5520  projectAddress_ */\n      dup2\n        /* \"contracts/core/MADeliveryStrategy.sol\":5474:5521  IMProject project_ = IMProject(projectAddress_) */\n      swap1\n      pop\n        /* \"contracts/core/MADeliveryStrategy.sol\":5537:5563  Project memory descriptor_ */\n      0x00\n        /* \"contracts/core/MADeliveryStrategy.sol\":5566:5574  project_ */\n      dup2\n      sub(shl(0xa0, 0x01), 0x01)\n        /* \"contracts/core/MADeliveryStrategy.sol\":5566:5595  project_.getProjectDescriptor */\n      and\n      0x3ba94ed8\n        /* \"contracts/core/MADeliveryStrategy.sol\":5566:5597  project_.getProjectDescriptor() */\n      mload(0x40)\n      dup2\n      0xffffffff\n      and\n      0xe0\n      shl\n      dup2\n      mstore\n      0x04\n      add\n      0x00\n      mload(0x40)\n      dup1\n      dup4\n      sub\n      dup2\n      dup7\n      gas\n      staticcall\n      iszero\n      dup1\n      iszero\n      tag_211\n      jumpi\n      returndatasize\n      0x00\n      dup1\n      returndatacopy\n      revert(0x00, returndatasize)\n    tag_211:\n      pop\n      pop\n      pop\n      pop\n      mload(0x40)\n      returndatasize\n      0x00\n      dup3\n      returndatacopy\n      0x1f\n      returndatasize\n      swap1\n      dup2\n      add\n      not(0x1f)\n      and\n      dup3\n      add\n      0x40\n      mstore\n      tag_212\n      swap2\n      swap1\n      dup2\n      add\n      swap1\n      tag_213\n      jump\t// in\n    tag_212:\n        /* \"contracts/core/MADeliveryStrategy.sol\":5537:5597  Project memory descriptor_ = project_.getProjectDescriptor() */\n      swap1\n      pop\n        /* \"contracts/core/MADeliveryStrategy.sol\":5620:5689  onlyAdmin(_sender, descriptor_.alloPoolId, descriptor_.alloProfileId) */\n      tag_214\n        /* \"contracts/core/MADeliveryStrategy.sol\":5630:5637  _sender */\n      dup6\n        /* \"contracts/core/MADeliveryStrategy.sol\":5639:5650  descriptor_ */\n      dup3\n        /* \"contracts/core/MADeliveryStrategy.sol\":5639:5661  descriptor_.alloPoolId */\n      0x40\n      add\n      mload\n        /* \"contracts/core/MADeliveryStrategy.sol\":5663:5674  descriptor_ */\n      dup4\n        /* \"contracts/core/MADeliveryStrategy.sol\":5663:5688  descriptor_.alloProfileId */\n      0x60\n      add\n      mload\n        /* \"contracts/core/MADeliveryStrategy.sol\":5620:5629  onlyAdmin */\n      tag_215\n        /* \"contracts/core/MADeliveryStrategy.sol\":5620:5689  onlyAdmin(_sender, descriptor_.alloPoolId, descriptor_.alloProfileId) */\n      jump\t// in\n    tag_214:\n        /* \"contracts/core/MADeliveryStrategy.sol\":5612:5723  require(onlyAdmin(_sender, descriptor_.alloPoolId, descriptor_.alloProfileId), \"recipient <> sender mis-match\") */\n      tag_216\n      jumpi\n      mload(0x40)\n      shl(0xe5, 0x461bcd)\n      dup2\n      mstore\n        /* \"#utility.yul\":14978:14980   */\n      0x20\n        /* \"contracts/core/MADeliveryStrategy.sol\":5612:5723  require(onlyAdmin(_sender, descriptor_.alloPoolId, descriptor_.alloProfileId), \"recipient <> sender mis-match\") */\n      0x04\n      dup3\n      add\n        /* \"#utility.yul\":14960:14981   */\n      mstore\n        /* \"#utility.yul\":15017:15019   */\n      0x1d\n        /* \"#utility.yul\":14997:15015   */\n      0x24\n      dup3\n      add\n        /* \"#utility.yul\":14990:15020   */\n      mstore\n        /* \"#utility.yul\":15056:15087   */\n      0x726563697069656e74203c3e2073656e646572206d69732d6d61746368000000\n        /* \"#utility.yul\":15036:15054   */\n      0x44\n      dup3\n      add\n        /* \"#utility.yul\":15029:15088   */\n      mstore\n        /* \"#utility.yul\":15105:15123   */\n      0x64\n      add\n        /* \"contracts/core/MADeliveryStrategy.sol\":5612:5723  require(onlyAdmin(_sender, descriptor_.alloPoolId, descriptor_.alloProfileId), \"recipient <> sender mis-match\") */\n      tag_144\n        /* \"#utility.yul\":14776:15129   */\n      jump\n        /* \"contracts/core/MADeliveryStrategy.sol\":5612:5723  require(onlyAdmin(_sender, descriptor_.alloPoolId, descriptor_.alloProfileId), \"recipient <> sender mis-match\") */\n    tag_216:\n        /* \"contracts/core/MADeliveryStrategy.sol\":5740:5753  IERC20 erc20_ */\n      0x00\n        /* \"contracts/core/MADeliveryStrategy.sol\":5763:5774  descriptor_ */\n      dup2\n        /* \"contracts/core/MADeliveryStrategy.sol\":5763:5789  descriptor_.payoutCurrency */\n      0x80\n      add\n      mload\n        /* \"contracts/core/MADeliveryStrategy.sol\":5740:5790  IERC20 erc20_ = IERC20(descriptor_.payoutCurrency) */\n      swap1\n      pop\n        /* \"contracts/core/MADeliveryStrategy.sol\":5863:5874  descriptor_ */\n      dup2\n        /* \"contracts/core/MADeliveryStrategy.sol\":5863:5881  descriptor_.budget */\n      0xa0\n      add\n      mload\n        /* \"contracts/core/MADeliveryStrategy.sol\":5813:5841  remainingAllocationByProject */\n      0x06\n        /* \"contracts/core/MADeliveryStrategy.sol\":5813:5859  remainingAllocationByProject[_recipientIds[x]] */\n      0x00\n        /* \"contracts/core/MADeliveryStrategy.sol\":5842:5855  _recipientIds */\n      dup11\n        /* \"contracts/core/MADeliveryStrategy.sol\":5856:5857  x */\n      dup9\n        /* \"contracts/core/MADeliveryStrategy.sol\":5842:5858  _recipientIds[x] */\n      dup2\n      mload\n      dup2\n      lt\n      tag_220\n      jumpi\n      tag_220\n      tag_159\n      jump\t// in\n    tag_220:\n      0x20\n      mul\n      0x20\n      add\n      add\n      mload\n      sub(shl(0xa0, 0x01), 0x01)\n        /* \"contracts/core/MADeliveryStrategy.sol\":5813:5859  remainingAllocationByProject[_recipientIds[x]] */\n      and\n      sub(shl(0xa0, 0x01), 0x01)\n      and\n      dup2\n      mstore\n      0x20\n      add\n      swap1\n      dup2\n      mstore\n      0x20\n      add\n      0x00\n      keccak256\n      sload\n        /* \"contracts/core/MADeliveryStrategy.sol\":5813:5881  remainingAllocationByProject[_recipientIds[x]] >= descriptor_.budget */\n      lt\n      iszero\n        /* \"contracts/core/MADeliveryStrategy.sol\":5805:5926  require(remainingAllocationByProject[_recipientIds[x]] >= descriptor_.budget, \"budget <> remaining allocation mis-match\") */\n      tag_221\n      jumpi\n      mload(0x40)\n      shl(0xe5, 0x461bcd)\n      dup2\n      mstore\n        /* \"#utility.yul\":15336:15338   */\n      0x20\n        /* \"contracts/core/MADeliveryStrategy.sol\":5805:5926  require(remainingAllocationByProject[_recipientIds[x]] >= descriptor_.budget, \"budget <> remaining allocation mis-match\") */\n      0x04\n      dup3\n      add\n        /* \"#utility.yul\":15318:15339   */\n      mstore\n        /* \"#utility.yul\":15375:15377   */\n      0x28\n        /* \"#utility.yul\":15355:15373   */\n      0x24\n      dup3\n      add\n        /* \"#utility.yul\":15348:15378   */\n      mstore\n        /* \"#utility.yul\":15414:15448   */\n      0x627564676574203c3e2072656d61696e696e6720616c6c6f636174696f6e206d\n        /* \"#utility.yul\":15394:15412   */\n      0x44\n      dup3\n      add\n        /* \"#utility.yul\":15387:15449   */\n      mstore\n      shl(0xc3, 0x0d2e65adac2e8c6d)\n        /* \"#utility.yul\":15465:15483   */\n      0x64\n      dup3\n      add\n        /* \"#utility.yul\":15458:15496   */\n      mstore\n        /* \"#utility.yul\":15513:15532   */\n      0x84\n      add\n        /* \"contracts/core/MADeliveryStrategy.sol\":5805:5926  require(remainingAllocationByProject[_recipientIds[x]] >= descriptor_.budget, \"budget <> remaining allocation mis-match\") */\n      tag_144\n        /* \"#utility.yul\":15134:15538   */\n      jump\n        /* \"contracts/core/MADeliveryStrategy.sol\":5805:5926  require(remainingAllocationByProject[_recipientIds[x]] >= descriptor_.budget, \"budget <> remaining allocation mis-match\") */\n    tag_221:\n        /* \"contracts/core/MADeliveryStrategy.sol\":5993:6004  descriptor_ */\n      dup2\n        /* \"contracts/core/MADeliveryStrategy.sol\":5993:6011  descriptor_.budget */\n      0xa0\n      add\n      mload\n        /* \"contracts/core/MADeliveryStrategy.sol\":5943:5971  remainingAllocationByProject */\n      0x06\n        /* \"contracts/core/MADeliveryStrategy.sol\":5943:5989  remainingAllocationByProject[_recipientIds[x]] */\n      0x00\n        /* \"contracts/core/MADeliveryStrategy.sol\":5972:5985  _recipientIds */\n      dup11\n        /* \"contracts/core/MADeliveryStrategy.sol\":5986:5987  x */\n      dup9\n        /* \"contracts/core/MADeliveryStrategy.sol\":5972:5988  _recipientIds[x] */\n      dup2\n      mload\n      dup2\n      lt\n      tag_225\n      jumpi\n      tag_225\n      tag_159\n      jump\t// in\n    tag_225:\n      0x20\n      mul\n      0x20\n      add\n      add\n      mload\n      sub(shl(0xa0, 0x01), 0x01)\n        /* \"contracts/core/MADeliveryStrategy.sol\":5943:5989  remainingAllocationByProject[_recipientIds[x]] */\n      and\n      sub(shl(0xa0, 0x01), 0x01)\n      and\n      dup2\n      mstore\n      0x20\n      add\n      swap1\n      dup2\n      mstore\n      0x20\n      add\n      0x00\n      keccak256\n      0x00\n        /* \"contracts/core/MADeliveryStrategy.sol\":5943:6011  remainingAllocationByProject[_recipientIds[x]] -= descriptor_.budget */\n      dup3\n      dup3\n      sload\n      tag_226\n      swap2\n      swap1\n      tag_227\n      jump\t// in\n    tag_226:\n      swap1\n      swap2\n      sstore\n      pop\n      pop\n      not(0xeeeeeeeeeeeeeeeeeeeeeeeeeeeeeeeeeeeeeeed)\n      sub(shl(0xa0, 0x01), 0x01)\n        /* \"contracts/core/MADeliveryStrategy.sol\":6031:6056  address(erc20_) == NATIVE */\n      dup3\n      and\n      add\n        /* \"contracts/core/MADeliveryStrategy.sol\":6028:6402  if(address(erc20_) == NATIVE){... */\n      tag_228\n      jumpi\n        /* \"contracts/core/MADeliveryStrategy.sol\":6100:6111  descriptor_ */\n      dup2\n        /* \"contracts/core/MADeliveryStrategy.sol\":6100:6118  descriptor_.budget */\n      0xa0\n      add\n      mload\n        /* \"contracts/core/MADeliveryStrategy.sol\":6084:6088  self */\n      immutable(\"0x06cc276dcbd36fa8a4ad61c60dbe1da479204cba66678327f4ef951465234202\")\n      sub(shl(0xa0, 0x01), 0x01)\n        /* \"contracts/core/MADeliveryStrategy.sol\":6084:6096  self.balance */\n      and\n      balance\n        /* \"contracts/core/MADeliveryStrategy.sol\":6084:6118  self.balance >= descriptor_.budget */\n      lt\n      iszero\n        /* \"contracts/core/MADeliveryStrategy.sol\":6076:6163  require(self.balance >= descriptor_.budget, \"insufficient native token funds in pool \") */\n      tag_229\n      jumpi\n      mload(0x40)\n      shl(0xe5, 0x461bcd)\n      dup2\n      mstore\n        /* \"#utility.yul\":15878:15880   */\n      0x20\n        /* \"contracts/core/MADeliveryStrategy.sol\":6076:6163  require(self.balance >= descriptor_.budget, \"insufficient native token funds in pool \") */\n      0x04\n      dup3\n      add\n        /* \"#utility.yul\":15860:15881   */\n      mstore\n        /* \"#utility.yul\":15917:15919   */\n      0x28\n        /* \"#utility.yul\":15897:15915   */\n      0x24\n      dup3\n      add\n        /* \"#utility.yul\":15890:15920   */\n      mstore\n        /* \"#utility.yul\":15956:15990   */\n      0x696e73756666696369656e74206e617469766520746f6b656e2066756e647320\n        /* \"#utility.yul\":15936:15954   */\n      0x44\n      dup3\n      add\n        /* \"#utility.yul\":15929:15991   */\n      mstore\n      shl(0xc5, 0x034b7103837b7b61)\n        /* \"#utility.yul\":16007:16025   */\n      0x64\n      dup3\n      add\n        /* \"#utility.yul\":16000:16038   */\n      mstore\n        /* \"#utility.yul\":16055:16074   */\n      0x84\n      add\n        /* \"contracts/core/MADeliveryStrategy.sol\":6076:6163  require(self.balance >= descriptor_.budget, \"insufficient native token funds in pool \") */\n      tag_144\n        /* \"#utility.yul\":15676:16080   */\n      jump\n        /* \"contracts/core/MADeliveryStrategy.sol\":6076:6163  require(self.balance >= descriptor_.budget, \"insufficient native token funds in pool \") */\n    tag_229:\n        /* \"contracts/core/MADeliveryStrategy.sol\":6028:6402  if(address(erc20_) == NATIVE){... */\n      jump(tag_232)\n    tag_228:\n        /* \"contracts/core/MADeliveryStrategy.sol\":6251:6269  descriptor_.budget */\n      0xa0\n      dup3\n      add\n      mload\n        /* \"contracts/core/MADeliveryStrategy.sol\":6225:6247  erc20_.balanceOf(self) */\n      mload(0x40)\n      shl(0xe0, 0x70a08231)\n      dup2\n      mstore\n      sub(shl(0xa0, 0x01), 0x01)\n        /* \"contracts/core/MADeliveryStrategy.sol\":6242:6246  self */\n      immutable(\"0x06cc276dcbd36fa8a4ad61c60dbe1da479204cba66678327f4ef951465234202\")\n        /* \"#utility.yul\":4255:4287   */\n      dup2\n      and\n        /* \"contracts/core/MADeliveryStrategy.sol\":6225:6247  erc20_.balanceOf(self) */\n      0x04\n      dup4\n      add\n        /* \"#utility.yul\":4237:4288   */\n      mstore\n        /* \"contracts/core/MADeliveryStrategy.sol\":6225:6241  erc20_.balanceOf */\n      dup4\n      and\n      swap1\n      0x70a08231\n      swap1\n        /* \"#utility.yul\":4210:4228   */\n      0x24\n      add\n        /* \"contracts/core/MADeliveryStrategy.sol\":6225:6247  erc20_.balanceOf(self) */\n      0x20\n      mload(0x40)\n      dup1\n      dup4\n      sub\n      dup2\n      dup7\n      gas\n      staticcall\n      iszero\n      dup1\n      iszero\n      tag_235\n      jumpi\n      returndatasize\n      0x00\n      dup1\n      returndatacopy\n      revert(0x00, returndatasize)\n    tag_235:\n      pop\n      pop\n      pop\n      pop\n      mload(0x40)\n      returndatasize\n      not(0x1f)\n      0x1f\n      dup3\n      add\n      and\n      dup3\n      add\n      dup1\n      0x40\n      mstore\n      pop\n      dup2\n      add\n      swap1\n      tag_236\n      swap2\n      swap1\n      tag_237\n      jump\t// in\n    tag_236:\n        /* \"contracts/core/MADeliveryStrategy.sol\":6225:6269  erc20_.balanceOf(self) >= descriptor_.budget */\n      lt\n      iszero\n        /* \"contracts/core/MADeliveryStrategy.sol\":6217:6300  require(erc20_.balanceOf(self) >= descriptor_.budget, \"insufficient funds in pool\") */\n      tag_238\n      jumpi\n      mload(0x40)\n      shl(0xe5, 0x461bcd)\n      dup2\n      mstore\n        /* \"#utility.yul\":16476:16478   */\n      0x20\n        /* \"contracts/core/MADeliveryStrategy.sol\":6217:6300  require(erc20_.balanceOf(self) >= descriptor_.budget, \"insufficient funds in pool\") */\n      0x04\n      dup3\n      add\n        /* \"#utility.yul\":16458:16479   */\n      mstore\n        /* \"#utility.yul\":16515:16517   */\n      0x1a\n        /* \"#utility.yul\":16495:16513   */\n      0x24\n      dup3\n      add\n        /* \"#utility.yul\":16488:16518   */\n      mstore\n        /* \"#utility.yul\":16554:16582   */\n      0x696e73756666696369656e742066756e647320696e20706f6f6c000000000000\n        /* \"#utility.yul\":16534:16552   */\n      0x44\n      dup3\n      add\n        /* \"#utility.yul\":16527:16583   */\n      mstore\n        /* \"#utility.yul\":16600:16618   */\n      0x64\n      add\n        /* \"contracts/core/MADeliveryStrategy.sol\":6217:6300  require(erc20_.balanceOf(self) >= descriptor_.budget, \"insufficient funds in pool\") */\n      tag_144\n        /* \"#utility.yul\":16274:16624   */\n      jump\n        /* \"contracts/core/MADeliveryStrategy.sol\":6217:6300  require(erc20_.balanceOf(self) >= descriptor_.budget, \"insufficient funds in pool\") */\n    tag_238:\n        /* \"contracts/core/MADeliveryStrategy.sol\":6334:6342  register */\n      sload(0x03)\n        /* \"contracts/core/MADeliveryStrategy.sol\":6354:6364  MARGARI_CA */\n      0x40\n      dup1\n      mload\n      dup1\n      dup3\n      add\n      dup3\n      mstore\n      0x15\n      dup2\n      mstore\n      shl(0x58, 0x52455345525645445f4d4152474152495f434f5245)\n      0x20\n      dup3\n      add\n      mstore\n        /* \"contracts/core/MADeliveryStrategy.sol\":6334:6365  register.getAddress(MARGARI_CA) */\n      swap1\n      mload\n      shl(0xe0, 0xbf40fac1)\n      dup2\n      mstore\n      sub(shl(0xa0, 0x01), 0x01)\n        /* \"contracts/core/MADeliveryStrategy.sol\":6319:6333  erc20_.approve */\n      dup1\n      dup6\n      and\n      swap4\n      0x095ea7b3\n      swap4\n        /* \"contracts/core/MADeliveryStrategy.sol\":6334:6342  register */\n      swap2\n      and\n      swap2\n        /* \"contracts/core/MADeliveryStrategy.sol\":6334:6353  register.getAddress */\n      0xbf40fac1\n      swap2\n        /* \"contracts/core/MADeliveryStrategy.sol\":6334:6365  register.getAddress(MARGARI_CA) */\n      tag_241\n      swap2\n      0x04\n      add\n      tag_41\n      jump\t// in\n    tag_241:\n      0x20\n      mload(0x40)\n      dup1\n      dup4\n      sub\n      dup2\n      dup7\n      gas\n      staticcall\n      iszero\n      dup1\n      iszero\n      tag_243\n      jumpi\n      returndatasize\n      0x00\n      dup1\n      returndatacopy\n      revert(0x00, returndatasize)\n    tag_243:\n      pop\n      pop\n      pop\n      pop\n      mload(0x40)\n      returndatasize\n      not(0x1f)\n      0x1f\n      dup3\n      add\n      and\n      dup3\n      add\n      dup1\n      0x40\n      mstore\n      pop\n      dup2\n      add\n      swap1\n      tag_244\n      swap2\n      swap1\n      tag_245\n      jump\t// in\n    tag_244:\n        /* \"contracts/core/MADeliveryStrategy.sol\":6367:6385  descriptor_.budget */\n      0xa0\n      dup6\n      add\n      mload\n        /* \"contracts/core/MADeliveryStrategy.sol\":6319:6386  erc20_.approve(register.getAddress(MARGARI_CA), descriptor_.budget) */\n      mload(0x40)\n      not(sub(shl(0xe0, 0x01), 0x01))\n      0xe0\n      dup6\n      swap1\n      shl\n      and\n      dup2\n      mstore\n      sub(shl(0xa0, 0x01), 0x01)\n        /* \"#utility.yul\":17077:17109   */\n      swap1\n      swap3\n      and\n        /* \"contracts/core/MADeliveryStrategy.sol\":6319:6386  erc20_.approve(register.getAddress(MARGARI_CA), descriptor_.budget) */\n      0x04\n      dup4\n      add\n        /* \"#utility.yul\":17059:17110   */\n      mstore\n        /* \"#utility.yul\":17126:17144   */\n      0x24\n      dup3\n      add\n        /* \"#utility.yul\":17119:17153   */\n      mstore\n        /* \"#utility.yul\":17032:17050   */\n      0x44\n      add\n        /* \"contracts/core/MADeliveryStrategy.sol\":6319:6386  erc20_.approve(register.getAddress(MARGARI_CA), descriptor_.budget) */\n      0x20\n      mload(0x40)\n      dup1\n      dup4\n      sub\n      dup2\n      0x00\n      dup8\n      gas\n      call\n      iszero\n      dup1\n      iszero\n      tag_249\n      jumpi\n      returndatasize\n      0x00\n      dup1\n      returndatacopy\n      revert(0x00, returndatasize)\n    tag_249:\n      pop\n      pop\n      pop\n      pop\n      mload(0x40)\n      returndatasize\n      not(0x1f)\n      0x1f\n      dup3\n      add\n      and\n      dup3\n      add\n      dup1\n      0x40\n      mstore\n      pop\n      dup2\n      add\n      swap1\n      tag_250\n      swap2\n      swap1\n      tag_251\n      jump\t// in\n    tag_250:\n      pop\n        /* \"contracts/core/MADeliveryStrategy.sol\":6028:6402  if(address(erc20_) == NATIVE){... */\n    tag_232:\n        /* \"contracts/core/MADeliveryStrategy.sol\":6418:6463  PaymentDirective [] memory paymentDirectives_ */\n      0x00\n        /* \"contracts/core/MADeliveryStrategy.sol\":6466:6474  project_ */\n      dup4\n      sub(shl(0xa0, 0x01), 0x01)\n        /* \"contracts/core/MADeliveryStrategy.sol\":6466:6495  project_.getPaymentDirectives */\n      and\n      0x1fae35d4\n        /* \"contracts/core/MADeliveryStrategy.sol\":6466:6497  project_.getPaymentDirectives() */\n      mload(0x40)\n      dup2\n      0xffffffff\n      and\n      0xe0\n      shl\n      dup2\n      mstore\n      0x04\n      add\n      0x00\n      mload(0x40)\n      dup1\n      dup4\n      sub\n      dup2\n      dup7\n      gas\n      staticcall\n      iszero\n      dup1\n      iszero\n      tag_253\n      jumpi\n      returndatasize\n      0x00\n      dup1\n      returndatacopy\n      revert(0x00, returndatasize)\n    tag_253:\n      pop\n      pop\n      pop\n      pop\n      mload(0x40)\n      returndatasize\n      0x00\n      dup3\n      returndatacopy\n      0x1f\n      returndatasize\n      swap1\n      dup2\n      add\n      not(0x1f)\n      and\n      dup3\n      add\n      0x40\n      mstore\n      tag_254\n      swap2\n      swap1\n      dup2\n      add\n      swap1\n      tag_255\n      jump\t// in\n    tag_254:\n        /* \"contracts/core/MADeliveryStrategy.sol\":6418:6497  PaymentDirective [] memory paymentDirectives_ = project_.getPaymentDirectives() */\n      swap1\n      pop\n        /* \"contracts/core/MADeliveryStrategy.sol\":6514:6540  uint256 [] memory sendIds_ */\n      0x00\n        /* \"contracts/core/MADeliveryStrategy.sol\":6542:6560  uint256 totalPaid_ */\n      dup1\n        /* \"contracts/core/MADeliveryStrategy.sol\":6564:6617  payoutDirectives(paymentDirectives_, projectAddress_) */\n      tag_256\n        /* \"contracts/core/MADeliveryStrategy.sol\":6581:6599  paymentDirectives_ */\n      dup4\n        /* \"contracts/core/MADeliveryStrategy.sol\":6601:6616  projectAddress_ */\n      dup9\n        /* \"contracts/core/MADeliveryStrategy.sol\":6564:6580  payoutDirectives */\n      tag_257\n        /* \"contracts/core/MADeliveryStrategy.sol\":6564:6617  payoutDirectives(paymentDirectives_, projectAddress_) */\n      jump\t// in\n    tag_256:\n      sub(shl(0xa0, 0x01), 0x01)\n        /* \"contracts/core/MADeliveryStrategy.sol\":6646:6683  totalPaidByRecipient[projectAddress_] */\n      dup10\n      and\n      0x00\n      swap1\n      dup2\n      mstore\n        /* \"contracts/core/MADeliveryStrategy.sol\":6646:6666  totalPaidByRecipient */\n      0x0b\n        /* \"contracts/core/MADeliveryStrategy.sol\":6646:6683  totalPaidByRecipient[projectAddress_] */\n      0x20\n      mstore\n      0x40\n      dup2\n      keccak256\n        /* \"contracts/core/MADeliveryStrategy.sol\":6646:6697  totalPaidByRecipient[projectAddress_] += totalPaid_ */\n      dup1\n      sload\n        /* \"contracts/core/MADeliveryStrategy.sol\":6513:6617  (uint256 [] memory sendIds_, uint256 totalPaid_) = payoutDirectives(paymentDirectives_, projectAddress_) */\n      swap4\n      swap6\n      pop\n      swap2\n      swap4\n      pop\n      dup4\n      swap3\n        /* \"contracts/core/MADeliveryStrategy.sol\":6646:6697  totalPaidByRecipient[projectAddress_] += totalPaid_ */\n      tag_258\n      swap1\n        /* \"contracts/core/MADeliveryStrategy.sol\":6513:6617  (uint256 [] memory sendIds_, uint256 totalPaid_) = payoutDirectives(paymentDirectives_, projectAddress_) */\n      dup5\n      swap1\n        /* \"contracts/core/MADeliveryStrategy.sol\":6646:6697  totalPaidByRecipient[projectAddress_] += totalPaid_ */\n      tag_192\n      jump\t// in\n    tag_258:\n      swap1\n      swap2\n      sstore\n      pop\n      pop\n        /* \"contracts/core/MADeliveryStrategy.sol\":5398:5401  x++ */\n      0x01\n      swap1\n      swap8\n      add\n      swap7\n      pop\n        /* \"contracts/core/MADeliveryStrategy.sol\":5353:6711  for(uint256 x = 0; x < _recipientIds.length; x++){... */\n      tag_205\n      swap6\n      pop\n      pop\n      pop\n      pop\n      pop\n      pop\n      jump\n    tag_206:\n      pop\n        /* \"contracts/core/MADeliveryStrategy.sol\":5224:6718  function _distribute(address[] memory _recipientIds, bytes memory _data, address _sender) internal override {... */\n      pop\n      pop\n      pop\n      jump\t// out\n        /* \"contracts/core/MADeliveryStrategy.sol\":3335:3822  function _registerRecipient(bytes memory _data, address _sender) internal override returns (address){... */\n    tag_132:\n        /* \"contracts/core/MADeliveryStrategy.sol\":3427:3434  address */\n      0x00\n        /* \"contracts/core/MADeliveryStrategy.sol\":3446:3469  address projectAddress_ */\n      dup1\n        /* \"contracts/core/MADeliveryStrategy.sol\":3483:3488  _data */\n      dup4\n        /* \"contracts/core/MADeliveryStrategy.sol\":3472:3500  abi.decode(_data, (address)) */\n      dup1\n      0x20\n      add\n      swap1\n      mload\n      dup2\n      add\n      swap1\n      tag_262\n      swap2\n      swap1\n      tag_245\n      jump\t// in\n    tag_262:\n        /* \"contracts/core/MADeliveryStrategy.sol\":3446:3500  address projectAddress_ = abi.decode(_data, (address)) */\n      swap1\n      pop\n        /* \"contracts/core/MADeliveryStrategy.sol\":3512:3530  IMProject project_ */\n      0x00\n        /* \"contracts/core/MADeliveryStrategy.sol\":3543:3558  projectAddress_ */\n      dup2\n        /* \"contracts/core/MADeliveryStrategy.sol\":3512:3559  IMProject project_ = IMProject(projectAddress_) */\n      swap1\n      pop\n        /* \"contracts/core/MADeliveryStrategy.sol\":3570:3596  Project memory descriptor_ */\n      0x00\n        /* \"contracts/core/MADeliveryStrategy.sol\":3599:3607  project_ */\n      dup2\n      sub(shl(0xa0, 0x01), 0x01)\n        /* \"contracts/core/MADeliveryStrategy.sol\":3599:3628  project_.getProjectDescriptor */\n      and\n      0x3ba94ed8\n        /* \"contracts/core/MADeliveryStrategy.sol\":3599:3630  project_.getProjectDescriptor() */\n      mload(0x40)\n      dup2\n      0xffffffff\n      and\n      0xe0\n      shl\n      dup2\n      mstore\n      0x04\n      add\n      0x00\n      mload(0x40)\n      dup1\n      dup4\n      sub\n      dup2\n      dup7\n      gas\n      staticcall\n      iszero\n      dup1\n      iszero\n      tag_265\n      jumpi\n      returndatasize\n      0x00\n      dup1\n      returndatacopy\n      revert(0x00, returndatasize)\n    tag_265:\n      pop\n      pop\n      pop\n      pop\n      mload(0x40)\n      returndatasize\n      0x00\n      dup3\n      returndatacopy\n      0x1f\n      returndatasize\n      swap1\n      dup2\n      add\n      not(0x1f)\n      and\n      dup3\n      add\n      0x40\n      mstore\n      tag_266\n      swap2\n      swap1\n      dup2\n      add\n      swap1\n      tag_213\n      jump\t// in\n    tag_266:\n        /* \"contracts/core/MADeliveryStrategy.sol\":3570:3630  Project memory descriptor_ = project_.getProjectDescriptor() */\n      swap1\n      pop\n        /* \"contracts/core/MADeliveryStrategy.sol\":3650:3719  onlyAdmin(_sender, descriptor_.alloPoolId, descriptor_.alloProfileId) */\n      tag_267\n        /* \"contracts/core/MADeliveryStrategy.sol\":3660:3667  _sender */\n      dup6\n        /* \"contracts/core/MADeliveryStrategy.sol\":3669:3680  descriptor_ */\n      dup3\n        /* \"contracts/core/MADeliveryStrategy.sol\":3669:3691  descriptor_.alloPoolId */\n      0x40\n      add\n      mload\n        /* \"contracts/core/MADeliveryStrategy.sol\":3693:3704  descriptor_ */\n      dup4\n        /* \"contracts/core/MADeliveryStrategy.sol\":3693:3718  descriptor_.alloProfileId */\n      0x60\n      add\n      mload\n        /* \"contracts/core/MADeliveryStrategy.sol\":3650:3659  onlyAdmin */\n      tag_215\n        /* \"contracts/core/MADeliveryStrategy.sol\":3650:3719  onlyAdmin(_sender, descriptor_.alloPoolId, descriptor_.alloProfileId) */\n      jump\t// in\n    tag_267:\n        /* \"contracts/core/MADeliveryStrategy.sol\":3642:3740  require(onlyAdmin(_sender, descriptor_.alloPoolId, descriptor_.alloProfileId), \" org admin only \") */\n      tag_268\n      jumpi\n      mload(0x40)\n      shl(0xe5, 0x461bcd)\n      dup2\n      mstore\n        /* \"#utility.yul\":20974:20976   */\n      0x20\n        /* \"contracts/core/MADeliveryStrategy.sol\":3642:3740  require(onlyAdmin(_sender, descriptor_.alloPoolId, descriptor_.alloProfileId), \" org admin only \") */\n      0x04\n      dup3\n      add\n        /* \"#utility.yul\":20956:20977   */\n      mstore\n        /* \"#utility.yul\":21013:21015   */\n      0x10\n        /* \"#utility.yul\":20993:21011   */\n      0x24\n      dup3\n      add\n        /* \"#utility.yul\":20986:21016   */\n      mstore\n      shl(0x85, 0x01037b9339030b236b4b71037b7363c9)\n        /* \"#utility.yul\":21032:21050   */\n      0x44\n      dup3\n      add\n        /* \"#utility.yul\":21025:21071   */\n      mstore\n        /* \"#utility.yul\":21088:21106   */\n      0x64\n      add\n        /* \"contracts/core/MADeliveryStrategy.sol\":3642:3740  require(onlyAdmin(_sender, descriptor_.alloPoolId, descriptor_.alloProfileId), \" org admin only \") */\n      tag_144\n        /* \"#utility.yul\":20772:21112   */\n      jump\n        /* \"contracts/core/MADeliveryStrategy.sol\":3642:3740  require(onlyAdmin(_sender, descriptor_.alloPoolId, descriptor_.alloProfileId), \" org admin only \") */\n    tag_268:\n      pop\n      pop\n        /* \"contracts/core/MADeliveryStrategy.sol\":3751:3759  projects */\n      0x04\n        /* \"contracts/core/MADeliveryStrategy.sol\":3751:3781  projects.push(projectAddress_) */\n      dup1\n      sload\n      0x01\n      dup2\n      add\n      dup3\n      sstore\n      0x00\n      swap2\n      swap1\n      swap2\n      mstore\n      0x8a35acfbc15ff81a39ae7d344fd709f28e8600b4aa8c65c6b64bfe7fe36bd19b\n      add\n      dup1\n      sload\n      not(sub(shl(0xa0, 0x01), 0x01))\n      and\n      sub(shl(0xa0, 0x01), 0x01)\n      dup4\n      and\n      or\n      swap1\n      sstore\n      swap4\n        /* \"contracts/core/MADeliveryStrategy.sol\":3335:3822  function _registerRecipient(bytes memory _data, address _sender) internal override returns (address){... */\n      swap3\n      pop\n      pop\n      pop\n      jump\t// out\n        /* \"contracts/core/MADeliveryStrategy.sol\":4084:4735  function _allocate(bytes memory _data, address _sender) internal override{... */\n    tag_183:\n        /* \"contracts/core/MADeliveryStrategy.sol\":4178:4214  ProjectAllocation memory allocation_ */\n      0x00\n        /* \"contracts/core/MADeliveryStrategy.sol\":4228:4233  _data */\n      dup3\n        /* \"contracts/core/MADeliveryStrategy.sol\":4217:4255  abi.decode(_data, (ProjectAllocation)) */\n      dup1\n      0x20\n      add\n      swap1\n      mload\n      dup2\n      add\n      swap1\n      tag_280\n      swap2\n      swap1\n      tag_281\n      jump\t// in\n    tag_280:\n        /* \"contracts/core/MADeliveryStrategy.sol\":4178:4255  ProjectAllocation memory allocation_ = abi.decode(_data, (ProjectAllocation)) */\n      swap1\n      pop\n        /* \"contracts/core/MADeliveryStrategy.sol\":4266:4284  IMProject project_ */\n      0x00\n        /* \"contracts/core/MADeliveryStrategy.sol\":4297:4308  allocation_ */\n      dup2\n        /* \"contracts/core/MADeliveryStrategy.sol\":4297:4316  allocation_.project */\n      0x00\n      add\n      mload\n        /* \"contracts/core/MADeliveryStrategy.sol\":4266:4317  IMProject project_ = IMProject(allocation_.project) */\n      swap1\n      pop\n        /* \"contracts/core/MADeliveryStrategy.sol\":4328:4354  Project memory descriptor_ */\n      0x00\n        /* \"contracts/core/MADeliveryStrategy.sol\":4357:4365  project_ */\n      dup2\n      sub(shl(0xa0, 0x01), 0x01)\n        /* \"contracts/core/MADeliveryStrategy.sol\":4357:4386  project_.getProjectDescriptor */\n      and\n      0x3ba94ed8\n        /* \"contracts/core/MADeliveryStrategy.sol\":4357:4388  project_.getProjectDescriptor() */\n      mload(0x40)\n      dup2\n      0xffffffff\n      and\n      0xe0\n      shl\n      dup2\n      mstore\n      0x04\n      add\n      0x00\n      mload(0x40)\n      dup1\n      dup4\n      sub\n      dup2\n      dup7\n      gas\n      staticcall\n      iszero\n      dup1\n      iszero\n      tag_283\n      jumpi\n      returndatasize\n      0x00\n      dup1\n      returndatacopy\n      revert(0x00, returndatasize)\n    tag_283:\n      pop\n      pop\n      pop\n      pop\n      mload(0x40)\n      returndatasize\n      0x00\n      dup3\n      returndatacopy\n      0x1f\n      returndatasize\n      swap1\n      dup2\n      add\n      not(0x1f)\n      and\n      dup3\n      add\n      0x40\n      mstore\n      tag_284\n      swap2\n      swap1\n      dup2\n      add\n      swap1\n      tag_213\n      jump\t// in\n    tag_284:\n        /* \"contracts/core/MADeliveryStrategy.sol\":4328:4388  Project memory descriptor_ = project_.getProjectDescriptor() */\n      swap1\n      pop\n        /* \"contracts/core/MADeliveryStrategy.sol\":4409:4478  onlyAdmin(_sender, descriptor_.alloPoolId, descriptor_.alloProfileId) */\n      tag_285\n        /* \"contracts/core/MADeliveryStrategy.sol\":4419:4426  _sender */\n      dup5\n        /* \"contracts/core/MADeliveryStrategy.sol\":4428:4439  descriptor_ */\n      dup3\n        /* \"contracts/core/MADeliveryStrategy.sol\":4428:4450  descriptor_.alloPoolId */\n      0x40\n      add\n      mload\n        /* \"contracts/core/MADeliveryStrategy.sol\":4452:4463  descriptor_ */\n      dup4\n        /* \"contracts/core/MADeliveryStrategy.sol\":4452:4477  descriptor_.alloProfileId */\n      0x60\n      add\n      mload\n        /* \"contracts/core/MADeliveryStrategy.sol\":4409:4418  onlyAdmin */\n      tag_215\n        /* \"contracts/core/MADeliveryStrategy.sol\":4409:4478  onlyAdmin(_sender, descriptor_.alloPoolId, descriptor_.alloProfileId) */\n      jump\t// in\n    tag_285:\n        /* \"contracts/core/MADeliveryStrategy.sol\":4401:4499  require(onlyAdmin(_sender, descriptor_.alloPoolId, descriptor_.alloProfileId), \" org admin only \") */\n      tag_286\n      jumpi\n      mload(0x40)\n      shl(0xe5, 0x461bcd)\n      dup2\n      mstore\n        /* \"#utility.yul\":20974:20976   */\n      0x20\n        /* \"contracts/core/MADeliveryStrategy.sol\":4401:4499  require(onlyAdmin(_sender, descriptor_.alloPoolId, descriptor_.alloProfileId), \" org admin only \") */\n      0x04\n      dup3\n      add\n        /* \"#utility.yul\":20956:20977   */\n      mstore\n        /* \"#utility.yul\":21013:21015   */\n      0x10\n        /* \"#utility.yul\":20993:21011   */\n      0x24\n      dup3\n      add\n        /* \"#utility.yul\":20986:21016   */\n      mstore\n      shl(0x85, 0x01037b9339030b236b4b71037b7363c9)\n        /* \"#utility.yul\":21032:21050   */\n      0x44\n      dup3\n      add\n        /* \"#utility.yul\":21025:21071   */\n      mstore\n        /* \"#utility.yul\":21088:21106   */\n      0x64\n      add\n        /* \"contracts/core/MADeliveryStrategy.sol\":4401:4499  require(onlyAdmin(_sender, descriptor_.alloPoolId, descriptor_.alloProfileId), \" org admin only \") */\n      tag_144\n        /* \"#utility.yul\":20772:21112   */\n      jump\n        /* \"contracts/core/MADeliveryStrategy.sol\":4401:4499  require(onlyAdmin(_sender, descriptor_.alloPoolId, descriptor_.alloProfileId), \" org admin only \") */\n    tag_286:\n        /* \"contracts/core/MADeliveryStrategy.sol\":4553:4578  allocation_.newAllocation */\n      0x20\n      dup1\n      dup5\n      add\n      mload\n        /* \"contracts/core/MADeliveryStrategy.sol\":4530:4549  allocation_.project */\n      dup5\n      mload\n      sub(shl(0xa0, 0x01), 0x01)\n        /* \"contracts/core/MADeliveryStrategy.sol\":4510:4550  allocationByProject[allocation_.project] */\n      swap1\n      dup2\n      and\n      0x00\n      swap1\n      dup2\n      mstore\n        /* \"contracts/core/MADeliveryStrategy.sol\":4510:4529  allocationByProject */\n      0x05\n        /* \"contracts/core/MADeliveryStrategy.sol\":4510:4550  allocationByProject[allocation_.project] */\n      dup1\n      dup6\n      mstore\n      0x40\n      dup1\n      dup4\n      keccak256\n        /* \"contracts/core/MADeliveryStrategy.sol\":4510:4578  allocationByProject[allocation_.project] = allocation_.newAllocation */\n      swap5\n      swap1\n      swap5\n      sstore\n        /* \"contracts/core/MADeliveryStrategy.sol\":4707:4726  allocation_.project */\n      dup8\n      mload\n        /* \"contracts/core/MADeliveryStrategy.sol\":4685:4727  totalPaidoutByProject[allocation_.project] */\n      dup4\n      and\n      dup3\n      mstore\n        /* \"contracts/core/MADeliveryStrategy.sol\":4685:4706  totalPaidoutByProject */\n      0x07\n        /* \"contracts/core/MADeliveryStrategy.sol\":4685:4727  totalPaidoutByProject[allocation_.project] */\n      dup6\n      mstore\n      dup4\n      dup3\n      keccak256\n      sload\n        /* \"contracts/core/MADeliveryStrategy.sol\":4662:4681  allocation_.project */\n      dup9\n      mload\n        /* \"contracts/core/MADeliveryStrategy.sol\":4642:4682  allocationByProject[allocation_.project] */\n      swap1\n      swap4\n      and\n      dup3\n      mstore\n      swap1\n      swap4\n      mstore\n      swap2\n      keccak256\n      sload\n        /* \"contracts/core/MADeliveryStrategy.sol\":4642:4727  allocationByProject[allocation_.project] - totalPaidoutByProject[allocation_.project] */\n      tag_288\n      swap2\n        /* \"contracts/core/MADeliveryStrategy.sol\":4685:4727  totalPaidoutByProject[allocation_.project] */\n      swap1\n        /* \"contracts/core/MADeliveryStrategy.sol\":4642:4727  allocationByProject[allocation_.project] - totalPaidoutByProject[allocation_.project] */\n      tag_227\n      jump\t// in\n    tag_288:\n        /* \"contracts/core/MADeliveryStrategy.sol\":4619:4638  allocation_.project */\n      swap3\n      mload\n      sub(shl(0xa0, 0x01), 0x01)\n        /* \"contracts/core/MADeliveryStrategy.sol\":4590:4639  remainingAllocationByProject[allocation_.project] */\n      and\n      0x00\n      swap1\n      dup2\n      mstore\n        /* \"contracts/core/MADeliveryStrategy.sol\":4590:4618  remainingAllocationByProject */\n      0x06\n        /* \"contracts/core/MADeliveryStrategy.sol\":4590:4639  remainingAllocationByProject[allocation_.project] */\n      0x20\n      mstore\n      0x40\n      swap1\n      keccak256\n        /* \"contracts/core/MADeliveryStrategy.sol\":4590:4727  remainingAllocationByProject[allocation_.project] = allocationByProject[allocation_.project] - totalPaidoutByProject[allocation_.project] */\n      swap3\n      swap1\n      swap3\n      sstore\n      pop\n      pop\n      pop\n      pop\n        /* \"contracts/core/MADeliveryStrategy.sol\":4084:4735  function _allocate(bytes memory _data, address _sender) internal override{... */\n      jump\t// out\n        /* \"contracts/core/MADeliveryStrategy.sol\":9867:10343  function onlyAdmin(address _sender, uint256 _poolId, bytes32 _alloProfileId) view internal returns (bool _isAdmin) {... */\n    tag_215:\n        /* \"contracts/core/MADeliveryStrategy.sol\":10012:10020  register */\n      sload(0x03)\n        /* \"contracts/core/MADeliveryStrategy.sol\":10032:10039  ALLO_CA */\n      0x40\n      dup1\n      mload\n      dup1\n      dup3\n      add\n      dup3\n      mstore\n      0x12\n      dup2\n      mstore\n      shl(0x70, 0x52455345525645445f414c4c4f5f434f5245)\n      0x20\n      dup3\n      add\n      mstore\n        /* \"contracts/core/MADeliveryStrategy.sol\":10012:10040  register.getAddress(ALLO_CA) */\n      swap1\n      mload\n      shl(0xe0, 0xbf40fac1)\n      dup2\n      mstore\n        /* \"contracts/core/MADeliveryStrategy.sol\":9967:9980  bool _isAdmin */\n      0x00\n      swap3\n      dup4\n      swap3\n      sub(shl(0xa0, 0x01), 0x01)\n        /* \"contracts/core/MADeliveryStrategy.sol\":10012:10020  register */\n      swap1\n      swap2\n      and\n      swap2\n        /* \"contracts/core/MADeliveryStrategy.sol\":10012:10031  register.getAddress */\n      0xbf40fac1\n      swap2\n        /* \"contracts/core/MADeliveryStrategy.sol\":10012:10040  register.getAddress(ALLO_CA) */\n      tag_293\n      swap2\n      0x04\n      add\n      tag_41\n      jump\t// in\n    tag_293:\n      0x20\n      mload(0x40)\n      dup1\n      dup4\n      sub\n      dup2\n      dup7\n      gas\n      staticcall\n      iszero\n      dup1\n      iszero\n      tag_295\n      jumpi\n      returndatasize\n      0x00\n      dup1\n      returndatacopy\n      revert(0x00, returndatasize)\n    tag_295:\n      pop\n      pop\n      pop\n      pop\n      mload(0x40)\n      returndatasize\n      not(0x1f)\n      0x1f\n      dup3\n      add\n      and\n      dup3\n      add\n      dup1\n      0x40\n      mstore\n      pop\n      dup2\n      add\n      swap1\n      tag_296\n      swap2\n      swap1\n      tag_245\n      jump\t// in\n    tag_296:\n        /* \"contracts/core/MADeliveryStrategy.sol\":9993:10041  IAllo allo = IAllo(register.getAddress(ALLO_CA)) */\n      swap1\n      pop\n        /* \"contracts/core/MADeliveryStrategy.sol\":10052:10074  IRegistry alloRegistry */\n      0x00\n        /* \"contracts/core/MADeliveryStrategy.sol\":10077:10081  allo */\n      dup2\n      sub(shl(0xa0, 0x01), 0x01)\n        /* \"contracts/core/MADeliveryStrategy.sol\":10077:10093  allo.getRegistry */\n      and\n      0x5ab1bd53\n        /* \"contracts/core/MADeliveryStrategy.sol\":10077:10095  allo.getRegistry() */\n      mload(0x40)\n      dup2\n      0xffffffff\n      and\n      0xe0\n      shl\n      dup2\n      mstore\n      0x04\n      add\n      0x20\n      mload(0x40)\n      dup1\n      dup4\n      sub\n      dup2\n      dup7\n      gas\n      staticcall\n      iszero\n      dup1\n      iszero\n      tag_298\n      jumpi\n      returndatasize\n      0x00\n      dup1\n      returndatacopy\n      revert(0x00, returndatasize)\n    tag_298:\n      pop\n      pop\n      pop\n      pop\n      mload(0x40)\n      returndatasize\n      not(0x1f)\n      0x1f\n      dup3\n      add\n      and\n      dup3\n      add\n      dup1\n      0x40\n      mstore\n      pop\n      dup2\n      add\n      swap1\n      tag_299\n      swap2\n      swap1\n      tag_245\n      jump\t// in\n    tag_299:\n        /* \"contracts/core/MADeliveryStrategy.sol\":10110:10146  allo.isPoolManager(_poolId, _sender) */\n      mload(0x40)\n      shl(0xe0, 0x29e40d4b)\n      dup2\n      mstore\n      0x04\n      dup2\n      add\n        /* \"#utility.yul\":21993:22018   */\n      dup8\n      swap1\n      mstore\n      sub(shl(0xa0, 0x01), 0x01)\n        /* \"#utility.yul\":22054:22086   */\n      dup9\n      dup2\n      and\n        /* \"#utility.yul\":22034:22052   */\n      0x24\n      dup4\n      add\n        /* \"#utility.yul\":22027:22087   */\n      mstore\n        /* \"contracts/core/MADeliveryStrategy.sol\":10052:10095  IRegistry alloRegistry = allo.getRegistry() */\n      swap2\n      swap3\n      pop\n        /* \"contracts/core/MADeliveryStrategy.sol\":10110:10128  allo.isPoolManager */\n      swap1\n      dup4\n      and\n      swap1\n      0x29e40d4b\n      swap1\n        /* \"#utility.yul\":21966:21984   */\n      0x44\n      add\n        /* \"contracts/core/MADeliveryStrategy.sol\":10110:10146  allo.isPoolManager(_poolId, _sender) */\n      0x20\n      mload(0x40)\n      dup1\n      dup4\n      sub\n      dup2\n      dup7\n      gas\n      staticcall\n      iszero\n      dup1\n      iszero\n      tag_304\n      jumpi\n      returndatasize\n      0x00\n      dup1\n      returndatacopy\n      revert(0x00, returndatasize)\n    tag_304:\n      pop\n      pop\n      pop\n      pop\n      mload(0x40)\n      returndatasize\n      not(0x1f)\n      0x1f\n      dup3\n      add\n      and\n      dup3\n      add\n      dup1\n      0x40\n      mstore\n      pop\n      dup2\n      add\n      swap1\n      tag_305\n      swap2\n      swap1\n      tag_251\n      jump\t// in\n    tag_305:\n        /* \"contracts/core/MADeliveryStrategy.sol\":10110:10198  allo.isPoolManager(_poolId, _sender) ... */\n      dup1\n      tag_310\n      jumpi\n      pop\n        /* \"contracts/core/MADeliveryStrategy.sol\":10164:10198  allo.isPoolAdmin(_poolId, _sender) */\n      mload(0x40)\n      shl(0xe1, 0x559ff5e3)\n      dup2\n      mstore\n      0x04\n      dup2\n      add\n        /* \"#utility.yul\":21993:22018   */\n      dup7\n      swap1\n      mstore\n      sub(shl(0xa0, 0x01), 0x01)\n        /* \"#utility.yul\":22054:22086   */\n      dup8\n      dup2\n      and\n        /* \"#utility.yul\":22034:22052   */\n      0x24\n      dup4\n      add\n        /* \"#utility.yul\":22027:22087   */\n      mstore\n        /* \"contracts/core/MADeliveryStrategy.sol\":10164:10180  allo.isPoolAdmin */\n      dup4\n      and\n      swap1\n      0xab3febc6\n      swap1\n        /* \"#utility.yul\":21966:21984   */\n      0x44\n      add\n        /* \"contracts/core/MADeliveryStrategy.sol\":10164:10198  allo.isPoolAdmin(_poolId, _sender) */\n      0x20\n      mload(0x40)\n      dup1\n      dup4\n      sub\n      dup2\n      dup7\n      gas\n      staticcall\n      iszero\n      dup1\n      iszero\n      tag_309\n      jumpi\n      returndatasize\n      0x00\n      dup1\n      returndatacopy\n      revert(0x00, returndatasize)\n    tag_309:\n      pop\n      pop\n      pop\n      pop\n      mload(0x40)\n      returndatasize\n      not(0x1f)\n      0x1f\n      dup3\n      add\n      and\n      dup3\n      add\n      dup1\n      0x40\n      mstore\n      pop\n      dup2\n      add\n      swap1\n      tag_310\n      swap2\n      swap1\n      tag_251\n      jump\t// in\n    tag_310:\n        /* \"contracts/core/MADeliveryStrategy.sol\":10110:10270  allo.isPoolManager(_poolId, _sender) ... */\n      dup1\n      tag_316\n      jumpi\n      pop\n        /* \"contracts/core/MADeliveryStrategy.sol\":10216:10270  alloRegistry.isOwnerOfProfile(_alloProfileId, _sender) */\n      mload(0x40)\n      shl(0xe2, 0x0e6e1ae3)\n      dup2\n      mstore\n      0x04\n      dup2\n      add\n        /* \"#utility.yul\":21993:22018   */\n      dup6\n      swap1\n      mstore\n      sub(shl(0xa0, 0x01), 0x01)\n        /* \"#utility.yul\":22054:22086   */\n      dup8\n      dup2\n      and\n        /* \"#utility.yul\":22034:22052   */\n      0x24\n      dup4\n      add\n        /* \"#utility.yul\":22027:22087   */\n      mstore\n        /* \"contracts/core/MADeliveryStrategy.sol\":10216:10245  alloRegistry.isOwnerOfProfile */\n      dup3\n      and\n      swap1\n      0x39b86b8c\n      swap1\n        /* \"#utility.yul\":21966:21984   */\n      0x44\n      add\n        /* \"contracts/core/MADeliveryStrategy.sol\":10216:10270  alloRegistry.isOwnerOfProfile(_alloProfileId, _sender) */\n      0x20\n      mload(0x40)\n      dup1\n      dup4\n      sub\n      dup2\n      dup7\n      gas\n      staticcall\n      iszero\n      dup1\n      iszero\n      tag_315\n      jumpi\n      returndatasize\n      0x00\n      dup1\n      returndatacopy\n      revert(0x00, returndatasize)\n    tag_315:\n      pop\n      pop\n      pop\n      pop\n      mload(0x40)\n      returndatasize\n      not(0x1f)\n      0x1f\n      dup3\n      add\n      and\n      dup3\n      add\n      dup1\n      0x40\n      mstore\n      pop\n      dup2\n      add\n      swap1\n      tag_316\n      swap2\n      swap1\n      tag_251\n      jump\t// in\n    tag_316:\n        /* \"contracts/core/MADeliveryStrategy.sol\":10107:10310  if(allo.isPoolManager(_poolId, _sender) ... */\n      iszero\n      tag_317\n      jumpi\n        /* \"contracts/core/MADeliveryStrategy.sol\":10293:10297  true */\n      0x01\n        /* \"contracts/core/MADeliveryStrategy.sol\":10286:10297  return true */\n      swap3\n      pop\n      pop\n      pop\n      jump(tag_292)\n        /* \"contracts/core/MADeliveryStrategy.sol\":10107:10310  if(allo.isPoolManager(_poolId, _sender) ... */\n    tag_317:\n        /* \"contracts/core/MADeliveryStrategy.sol\":10327:10332  false */\n      0x00\n        /* \"contracts/core/MADeliveryStrategy.sol\":10320:10332  return false */\n      swap3\n      pop\n      pop\n      pop\n        /* \"contracts/core/MADeliveryStrategy.sol\":9867:10343  function onlyAdmin(address _sender, uint256 _poolId, bytes32 _alloProfileId) view internal returns (bool _isAdmin) {... */\n    tag_292:\n      swap4\n      swap3\n      pop\n      pop\n      pop\n      jump\t// out\n        /* \"contracts/core/MADeliveryStrategy.sol\":6726:8746  function payoutDirectives(PaymentDirective [] memory paymentDirectives_, address _projectAddress) internal returns (uint256 [] memory _sendIds, uint256 _totalPaid){... */\n    tag_257:\n        /* \"contracts/core/MADeliveryStrategy.sol\":6929:6937  register */\n      sload(0x03)\n        /* \"contracts/core/MADeliveryStrategy.sol\":6949:6959  MARGARI_CA */\n      0x40\n      dup1\n      mload\n      dup1\n      dup3\n      add\n      dup3\n      mstore\n      0x15\n      dup2\n      mstore\n      shl(0x58, 0x52455345525645445f4d4152474152495f434f5245)\n      0x20\n      dup3\n      add\n      mstore\n        /* \"contracts/core/MADeliveryStrategy.sol\":6929:6960  register.getAddress(MARGARI_CA) */\n      swap1\n      mload\n      shl(0xe0, 0xbf40fac1)\n      dup2\n      mstore\n        /* \"contracts/core/MADeliveryStrategy.sol\":6842:6868  uint256 [] memory _sendIds */\n      0x60\n      swap3\n        /* \"contracts/core/MADeliveryStrategy.sol\":6870:6888  uint256 _totalPaid */\n      0x00\n      swap3\n      dup4\n      swap3\n      sub(shl(0xa0, 0x01), 0x01)\n        /* \"contracts/core/MADeliveryStrategy.sol\":6929:6937  register */\n      swap1\n      swap3\n      and\n      swap2\n        /* \"contracts/core/MADeliveryStrategy.sol\":6929:6948  register.getAddress */\n      0xbf40fac1\n      swap2\n        /* \"contracts/core/MADeliveryStrategy.sol\":6929:6960  register.getAddress(MARGARI_CA) */\n      tag_319\n      swap2\n      0x04\n      add\n      tag_41\n      jump\t// in\n    tag_319:\n      0x20\n      mload(0x40)\n      dup1\n      dup4\n      sub\n      dup2\n      dup7\n      gas\n      staticcall\n      iszero\n      dup1\n      iszero\n      tag_321\n      jumpi\n      returndatasize\n      0x00\n      dup1\n      returndatacopy\n      revert(0x00, returndatasize)\n    tag_321:\n      pop\n      pop\n      pop\n      pop\n      mload(0x40)\n      returndatasize\n      not(0x1f)\n      0x1f\n      dup3\n      add\n      and\n      dup3\n      add\n      dup1\n      0x40\n      mstore\n      pop\n      dup2\n      add\n      swap1\n      tag_322\n      swap2\n      swap1\n      tag_245\n      jump\t// in\n    tag_322:\n        /* \"contracts/core/MADeliveryStrategy.sol\":7058:7083  paymentDirectives_.length */\n      dup6\n      mload\n        /* \"contracts/core/MADeliveryStrategy.sol\":6901:6961  IMargari margari = IMargari(register.getAddress(MARGARI_CA)) */\n      swap1\n      swap2\n      pop\n        /* \"contracts/core/MADeliveryStrategy.sol\":7004:7019  _projectAddress */\n      dup5\n      swap1\n      sub(shl(0x40, 0x01), 0x01)\n        /* \"contracts/core/MADeliveryStrategy.sol\":7044:7084  new uint256[](paymentDirectives_.length) */\n      dup2\n      gt\n      iszero\n      tag_324\n      jumpi\n      tag_324\n      tag_148\n      jump\t// in\n    tag_324:\n      mload(0x40)\n      swap1\n      dup1\n      dup3\n      mstore\n      dup1\n      0x20\n      mul\n      0x20\n      add\n      dup3\n      add\n      0x40\n      mstore\n      dup1\n      iszero\n      tag_325\n      jumpi\n      dup2\n      0x20\n      add\n      0x20\n      dup3\n      mul\n      dup1\n      calldatasize\n      dup4\n      calldatacopy\n      add\n      swap1\n      pop\n    tag_325:\n      pop\n        /* \"contracts/core/MADeliveryStrategy.sol\":7033:7084  _sendIds = new uint256[](paymentDirectives_.length) */\n      swap4\n      pop\n        /* \"contracts/core/MADeliveryStrategy.sol\":7099:7108  uint256 y */\n      0x00\n        /* \"contracts/core/MADeliveryStrategy.sol\":7095:8698  for(uint256 y = 0; y < paymentDirectives_.length; y++){... */\n    tag_326:\n        /* \"contracts/core/MADeliveryStrategy.sol\":7118:7136  paymentDirectives_ */\n      dup7\n        /* \"contracts/core/MADeliveryStrategy.sol\":7118:7143  paymentDirectives_.length */\n      mload\n        /* \"contracts/core/MADeliveryStrategy.sol\":7114:7115  y */\n      dup2\n        /* \"contracts/core/MADeliveryStrategy.sol\":7114:7143  y < paymentDirectives_.length */\n      lt\n        /* \"contracts/core/MADeliveryStrategy.sol\":7095:8698  for(uint256 y = 0; y < paymentDirectives_.length; y++){... */\n      iszero\n      tag_327\n      jumpi\n        /* \"contracts/core/MADeliveryStrategy.sol\":7164:7205  PaymentDirective memory paymentDirective_ */\n      0x00\n        /* \"contracts/core/MADeliveryStrategy.sol\":7208:7226  paymentDirectives_ */\n      dup8\n        /* \"contracts/core/MADeliveryStrategy.sol\":7227:7228  y */\n      dup3\n        /* \"contracts/core/MADeliveryStrategy.sol\":7208:7229  paymentDirectives_[y] */\n      dup2\n      mload\n      dup2\n      lt\n      tag_330\n      jumpi\n      tag_330\n      tag_159\n      jump\t// in\n    tag_330:\n      0x20\n      mul\n      0x20\n      add\n      add\n      mload\n        /* \"contracts/core/MADeliveryStrategy.sol\":7164:7229  PaymentDirective memory paymentDirective_ = paymentDirectives_[y] */\n      swap1\n      pop\n        /* \"contracts/core/MADeliveryStrategy.sol\":7258:7275  paymentDirective_ */\n      dup1\n        /* \"contracts/core/MADeliveryStrategy.sol\":7258:7282  paymentDirective_.amount */\n      0xa0\n      add\n      mload\n        /* \"contracts/core/MADeliveryStrategy.sol\":7244:7282  _totalPaid += paymentDirective_.amount */\n      dup6\n      tag_331\n      swap2\n      swap1\n      tag_192\n      jump\t// in\n    tag_331:\n      swap5\n      pop\n        /* \"contracts/core/MADeliveryStrategy.sol\":7344:7352  register */\n      0x03\n      0x00\n      swap1\n      sload\n      swap1\n      0x0100\n      exp\n      swap1\n      div\n      sub(shl(0xa0, 0x01), 0x01)\n      and\n      sub(shl(0xa0, 0x01), 0x01)\n        /* \"contracts/core/MADeliveryStrategy.sol\":7344:7363  register.getChainId */\n      and\n      0x3408e470\n        /* \"contracts/core/MADeliveryStrategy.sol\":7344:7365  register.getChainId() */\n      mload(0x40)\n      dup2\n      0xffffffff\n      and\n      0xe0\n      shl\n      dup2\n      mstore\n      0x04\n      add\n      0x20\n      mload(0x40)\n      dup1\n      dup4\n      sub\n      dup2\n      dup7\n      gas\n      staticcall\n      iszero\n      dup1\n      iszero\n      tag_333\n      jumpi\n      returndatasize\n      0x00\n      dup1\n      returndatacopy\n      revert(0x00, returndatasize)\n    tag_333:\n      pop\n      pop\n      pop\n      pop\n      mload(0x40)\n      returndatasize\n      not(0x1f)\n      0x1f\n      dup3\n      add\n      and\n      dup3\n      add\n      dup1\n      0x40\n      mstore\n      pop\n      dup2\n      add\n      swap1\n      tag_334\n      swap2\n      swap1\n      tag_237\n      jump\t// in\n    tag_334:\n        /* \"contracts/core/MADeliveryStrategy.sol\":7301:7318  paymentDirective_ */\n      dup2\n        /* \"contracts/core/MADeliveryStrategy.sol\":7301:7330  paymentDirective_.contributor */\n      0x20\n      add\n      mload\n        /* \"contracts/core/MADeliveryStrategy.sol\":7301:7340  paymentDirective_.contributor.homeChain */\n      0x20\n      add\n      mload\n        /* \"contracts/core/MADeliveryStrategy.sol\":7301:7365  paymentDirective_.contributor.homeChain != register.getChainId() */\n      eq\n        /* \"contracts/core/MADeliveryStrategy.sol\":7298:8450  if(paymentDirective_.contributor.homeChain != register.getChainId()){... */\n      tag_335\n      jumpi\n        /* \"contracts/core/MBaseStrategy.sol\":4712:4754  0xEeeeeEeeeEeEeeEeEeEeeEEEeeeeEeeeeeeeEEeE */\n      0xeeeeeeeeeeeeeeeeeeeeeeeeeeeeeeeeeeeeeeee\n      sub(shl(0xa0, 0x01), 0x01)\n        /* \"contracts/core/MADeliveryStrategy.sol\":7388:7421  paymentDirective_.erc20 == NATIVE */\n      and\n        /* \"contracts/core/MADeliveryStrategy.sol\":7388:7405  paymentDirective_ */\n      dup2\n        /* \"contracts/core/MADeliveryStrategy.sol\":7388:7411  paymentDirective_.erc20 */\n      0xc0\n      add\n      mload\n      sub(shl(0xa0, 0x01), 0x01)\n        /* \"contracts/core/MADeliveryStrategy.sol\":7388:7421  paymentDirective_.erc20 == NATIVE */\n      and\n      sub\n        /* \"contracts/core/MADeliveryStrategy.sol\":7385:8009  if(paymentDirective_.erc20 == NATIVE){... */\n      tag_336\n      jumpi\n        /* \"contracts/core/MADeliveryStrategy.sol\":7485:7509  paymentDirective_.amount */\n      0xa0\n      dup2\n      add\n      mload\n        /* \"contracts/core/MADeliveryStrategy.sol\":7511:7540  paymentDirective_.contributor */\n      0x20\n      dup1\n      dup4\n      add\n      mload\n        /* \"contracts/core/MADeliveryStrategy.sol\":7511:7550  paymentDirective_.contributor.homeChain */\n      swap1\n      dup2\n      add\n      mload\n        /* \"contracts/core/MADeliveryStrategy.sol\":7552:7575  paymentDirective_.erc20 */\n      0xc0\n      dup5\n      add\n      mload\n        /* \"contracts/core/MADeliveryStrategy.sol\":7603:7639  paymentDirective_.contributor.wallet */\n      0x40\n      swap3\n      dup4\n      add\n      mload\n        /* \"contracts/core/MADeliveryStrategy.sol\":7640:7671  paymentDirective_.alloProfileId */\n      0x60\n      dup7\n      add\n      mload\n        /* \"contracts/core/MADeliveryStrategy.sol\":7672:7699  paymentDirective_.projectId */\n      dup5\n      dup8\n      add\n      mload\n        /* \"contracts/core/MADeliveryStrategy.sol\":7459:7701  margari.sendFunds{value : paymentDirective_.amount}(paymentDirective_.contributor.homeChain, paymentDirective_.erc20, paymentDirective_.amount ,paymentDirective_.contributor.wallet,paymentDirective_.alloProfileId,paymentDirective_.projectId ) */\n      swap5\n      mload\n      shl(0xe1, 0x60f71bf1)\n      dup2\n      mstore\n      0x04\n      dup2\n      add\n        /* \"#utility.yul\":22664:22689   */\n      swap5\n      swap1\n      swap5\n      mstore\n      sub(shl(0xa0, 0x01), 0x01)\n        /* \"#utility.yul\":22763:22778   */\n      swap3\n      dup4\n      and\n        /* \"#utility.yul\":22743:22761   */\n      0x24\n      dup6\n      add\n        /* \"#utility.yul\":22736:22779   */\n      mstore\n        /* \"#utility.yul\":22795:22813   */\n      0x44\n      dup5\n      add\n        /* \"#utility.yul\":22788:22822   */\n      dup7\n      swap1\n      mstore\n        /* \"#utility.yul\":22858:22873   */\n      swap1\n      dup3\n      and\n        /* \"#utility.yul\":22838:22856   */\n      0x64\n      dup5\n      add\n        /* \"#utility.yul\":22831:22874   */\n      mstore\n        /* \"#utility.yul\":22890:22909   */\n      0x84\n      dup4\n      add\n        /* \"#utility.yul\":22883:22918   */\n      mstore\n        /* \"#utility.yul\":22934:22953   */\n      0xa4\n      dup3\n      add\n        /* \"#utility.yul\":22927:22962   */\n      swap3\n      swap1\n      swap3\n      mstore\n        /* \"contracts/core/MADeliveryStrategy.sol\":7459:7476  margari.sendFunds */\n      swap1\n      dup7\n      and\n      swap2\n      0xc1ee37e2\n      swap2\n        /* \"#utility.yul\":22636:22655   */\n      0xc4\n      add\n        /* \"contracts/core/MADeliveryStrategy.sol\":7459:7701  margari.sendFunds{value : paymentDirective_.amount}(paymentDirective_.contributor.homeChain, paymentDirective_.erc20, paymentDirective_.amount ,paymentDirective_.contributor.wallet,paymentDirective_.alloProfileId,paymentDirective_.projectId ) */\n      0x20\n      mload(0x40)\n      dup1\n      dup4\n      sub\n      dup2\n      dup6\n      dup9\n      gas\n      call\n      iszero\n      dup1\n      iszero\n      tag_340\n      jumpi\n      returndatasize\n      0x00\n      dup1\n      returndatacopy\n      revert(0x00, returndatasize)\n    tag_340:\n      pop\n      pop\n      pop\n      pop\n      pop\n      mload(0x40)\n      returndatasize\n      not(0x1f)\n      0x1f\n      dup3\n      add\n      and\n      dup3\n      add\n      dup1\n      0x40\n      mstore\n      pop\n      dup2\n      add\n      swap1\n      tag_341\n      swap2\n      swap1\n      tag_237\n      jump\t// in\n    tag_341:\n        /* \"contracts/core/MADeliveryStrategy.sol\":7445:7453  _sendIds */\n      dup7\n        /* \"contracts/core/MADeliveryStrategy.sol\":7454:7455  y */\n      dup4\n        /* \"contracts/core/MADeliveryStrategy.sol\":7445:7456  _sendIds[y] */\n      dup2\n      mload\n      dup2\n      lt\n      tag_343\n      jumpi\n      tag_343\n      tag_159\n      jump\t// in\n    tag_343:\n      0x20\n      mul\n      0x20\n      add\n      add\n        /* \"contracts/core/MADeliveryStrategy.sol\":7445:7701  _sendIds[y] = margari.sendFunds{value : paymentDirective_.amount}(paymentDirective_.contributor.homeChain, paymentDirective_.erc20, paymentDirective_.amount ,paymentDirective_.contributor.wallet,paymentDirective_.alloProfileId,paymentDirective_.projectId ) */\n      dup2\n      dup2\n      mstore\n      pop\n      pop\n        /* \"contracts/core/MADeliveryStrategy.sol\":7298:8450  if(paymentDirective_.contributor.homeChain != register.getChainId()){... */\n      jump(tag_351)\n        /* \"contracts/core/MADeliveryStrategy.sol\":7385:8009  if(paymentDirective_.erc20 == NATIVE){... */\n    tag_336:\n        /* \"contracts/core/MADeliveryStrategy.sol\":7799:7828  paymentDirective_.contributor */\n      0x20\n      dup1\n      dup3\n      add\n      mload\n        /* \"contracts/core/MADeliveryStrategy.sol\":7799:7838  paymentDirective_.contributor.homeChain */\n      swap1\n      dup2\n      add\n      mload\n        /* \"contracts/core/MADeliveryStrategy.sol\":7840:7863  paymentDirective_.erc20 */\n      0xc0\n      dup4\n      add\n      mload\n        /* \"contracts/core/MADeliveryStrategy.sol\":7865:7889  paymentDirective_.amount */\n      0xa0\n      dup5\n      add\n      mload\n        /* \"contracts/core/MADeliveryStrategy.sol\":7891:7927  paymentDirective_.contributor.wallet */\n      0x40\n      swap4\n      dup5\n      add\n      mload\n        /* \"contracts/core/MADeliveryStrategy.sol\":7928:7959  paymentDirective_.alloProfileId */\n      0x60\n      dup7\n      add\n      mload\n        /* \"contracts/core/MADeliveryStrategy.sol\":7960:7987  paymentDirective_.projectId */\n      dup6\n      dup8\n      add\n      mload\n        /* \"contracts/core/MADeliveryStrategy.sol\":7781:7989  margari.sendFunds(paymentDirective_.contributor.homeChain, paymentDirective_.erc20, paymentDirective_.amount ,paymentDirective_.contributor.wallet,paymentDirective_.alloProfileId,paymentDirective_.projectId ) */\n      swap6\n      mload\n      shl(0xe1, 0x60f71bf1)\n      dup2\n      mstore\n      0x04\n      dup2\n      add\n        /* \"#utility.yul\":22664:22689   */\n      swap6\n      swap1\n      swap6\n      mstore\n      sub(shl(0xa0, 0x01), 0x01)\n        /* \"#utility.yul\":22763:22778   */\n      swap4\n      dup5\n      and\n        /* \"#utility.yul\":22743:22761   */\n      0x24\n      dup7\n      add\n        /* \"#utility.yul\":22736:22779   */\n      mstore\n        /* \"#utility.yul\":22795:22813   */\n      0x44\n      dup6\n      add\n        /* \"#utility.yul\":22788:22822   */\n      swap3\n      swap1\n      swap3\n      mstore\n        /* \"#utility.yul\":22858:22873   */\n      dup3\n      and\n        /* \"#utility.yul\":22838:22856   */\n      0x64\n      dup5\n      add\n        /* \"#utility.yul\":22831:22874   */\n      mstore\n        /* \"#utility.yul\":22890:22909   */\n      0x84\n      dup4\n      add\n        /* \"#utility.yul\":22883:22918   */\n      mstore\n        /* \"#utility.yul\":22934:22953   */\n      0xa4\n      dup3\n      add\n        /* \"#utility.yul\":22927:22962   */\n      swap3\n      swap1\n      swap3\n      mstore\n        /* \"contracts/core/MADeliveryStrategy.sol\":7781:7798  margari.sendFunds */\n      swap1\n      dup6\n      and\n      swap1\n      0xc1ee37e2\n      swap1\n        /* \"#utility.yul\":22636:22655   */\n      0xc4\n      add\n        /* \"contracts/core/MADeliveryStrategy.sol\":7781:7989  margari.sendFunds(paymentDirective_.contributor.homeChain, paymentDirective_.erc20, paymentDirective_.amount ,paymentDirective_.contributor.wallet,paymentDirective_.alloProfileId,paymentDirective_.projectId ) */\n      0x20\n      mload(0x40)\n      dup1\n      dup4\n      sub\n      dup2\n      0x00\n      dup8\n      gas\n      call\n      iszero\n      dup1\n      iszero\n      tag_347\n      jumpi\n      returndatasize\n      0x00\n      dup1\n      returndatacopy\n      revert(0x00, returndatasize)\n    tag_347:\n      pop\n      pop\n      pop\n      pop\n      mload(0x40)\n      returndatasize\n      not(0x1f)\n      0x1f\n      dup3\n      add\n      and\n      dup3\n      add\n      dup1\n      0x40\n      mstore\n      pop\n      dup2\n      add\n      swap1\n      tag_341\n      swap2\n      swap1\n      tag_237\n      jump\t// in\n        /* \"contracts/core/MADeliveryStrategy.sol\":7298:8450  if(paymentDirective_.contributor.homeChain != register.getChainId()){... */\n    tag_335:\n        /* \"contracts/core/MBaseStrategy.sol\":4712:4754  0xEeeeeEeeeEeEeeEeEeEeeEEEeeeeEeeeeeeeEEeE */\n      0xeeeeeeeeeeeeeeeeeeeeeeeeeeeeeeeeeeeeeeee\n      sub(shl(0xa0, 0x01), 0x01)\n        /* \"contracts/core/MADeliveryStrategy.sol\":8065:8098  paymentDirective_.erc20 == NATIVE */\n      and\n        /* \"contracts/core/MADeliveryStrategy.sol\":8065:8082  paymentDirective_ */\n      dup2\n        /* \"contracts/core/MADeliveryStrategy.sol\":8065:8088  paymentDirective_.erc20 */\n      0xc0\n      add\n      mload\n      sub(shl(0xa0, 0x01), 0x01)\n        /* \"contracts/core/MADeliveryStrategy.sol\":8065:8098  paymentDirective_.erc20 == NATIVE */\n      and\n      sub\n        /* \"contracts/core/MADeliveryStrategy.sol\":8062:8392  if(paymentDirective_.erc20 == NATIVE){... */\n      tag_352\n      jumpi\n        /* \"contracts/core/MADeliveryStrategy.sol\":8130:8147  paymentDirective_ */\n      dup1\n        /* \"contracts/core/MADeliveryStrategy.sol\":8130:8159  paymentDirective_.contributor */\n      0x20\n      add\n      mload\n        /* \"contracts/core/MADeliveryStrategy.sol\":8130:8166  paymentDirective_.contributor.wallet */\n      0x40\n      add\n      mload\n      sub(shl(0xa0, 0x01), 0x01)\n        /* \"contracts/core/MADeliveryStrategy.sol\":8122:8176  payable(paymentDirective_.contributor.wallet).transfer */\n      and\n        /* \"contracts/core/MADeliveryStrategy.sol\":8122:8202  payable(paymentDirective_.contributor.wallet).transfer(paymentDirective_.amount) */\n      0x08fc\n        /* \"contracts/core/MADeliveryStrategy.sol\":8177:8194  paymentDirective_ */\n      dup3\n        /* \"contracts/core/MADeliveryStrategy.sol\":8177:8201  paymentDirective_.amount */\n      0xa0\n      add\n      mload\n        /* \"contracts/core/MADeliveryStrategy.sol\":8122:8202  payable(paymentDirective_.contributor.wallet).transfer(paymentDirective_.amount) */\n      swap1\n      dup2\n      iszero\n      mul\n      swap1\n      mload(0x40)\n      0x00\n      mload(0x40)\n      dup1\n      dup4\n      sub\n      dup2\n      dup6\n      dup9\n      dup9\n      call\n      swap4\n      pop\n      pop\n      pop\n      pop\n      iszero\n      dup1\n      iszero\n      tag_354\n      jumpi\n      returndatasize\n      0x00\n      dup1\n      returndatacopy\n      revert(0x00, returndatasize)\n    tag_354:\n      pop\n        /* \"contracts/core/MADeliveryStrategy.sol\":8062:8392  if(paymentDirective_.erc20 == NATIVE){... */\n      jump(tag_355)\n    tag_352:\n        /* \"contracts/core/MADeliveryStrategy.sol\":8275:8298  paymentDirective_.erc20 */\n      0xc0\n      dup2\n      add\n      mload\n        /* \"contracts/core/MADeliveryStrategy.sol\":8309:8338  paymentDirective_.contributor */\n      0x20\n      dup3\n      add\n      mload\n        /* \"contracts/core/MADeliveryStrategy.sol\":8309:8345  paymentDirective_.contributor.wallet */\n      0x40\n      swap1\n      dup2\n      add\n      mload\n        /* \"contracts/core/MADeliveryStrategy.sol\":8346:8370  paymentDirective_.amount */\n      0xa0\n      dup5\n      add\n      mload\n        /* \"contracts/core/MADeliveryStrategy.sol\":8268:8372  IERC20(paymentDirective_.erc20).transfer(paymentDirective_.contributor.wallet,paymentDirective_.amount ) */\n      swap2\n      mload\n      shl(0xe0, 0xa9059cbb)\n      dup2\n      mstore\n      sub(shl(0xa0, 0x01), 0x01)\n        /* \"#utility.yul\":17077:17109   */\n      swap2\n      dup3\n      and\n        /* \"contracts/core/MADeliveryStrategy.sol\":8268:8372  IERC20(paymentDirective_.erc20).transfer(paymentDirective_.contributor.wallet,paymentDirective_.amount ) */\n      0x04\n      dup3\n      add\n        /* \"#utility.yul\":17059:17110   */\n      mstore\n        /* \"#utility.yul\":17126:17144   */\n      0x24\n      dup2\n      add\n        /* \"#utility.yul\":17119:17153   */\n      swap3\n      swap1\n      swap3\n      mstore\n        /* \"contracts/core/MADeliveryStrategy.sol\":8268:8308  IERC20(paymentDirective_.erc20).transfer */\n      swap1\n      swap2\n      and\n      swap1\n      0xa9059cbb\n      swap1\n        /* \"#utility.yul\":17032:17050   */\n      0x44\n      add\n        /* \"contracts/core/MADeliveryStrategy.sol\":8268:8372  IERC20(paymentDirective_.erc20).transfer(paymentDirective_.contributor.wallet,paymentDirective_.amount ) */\n      0x20\n      mload(0x40)\n      dup1\n      dup4\n      sub\n      dup2\n      0x00\n      dup8\n      gas\n      call\n      iszero\n      dup1\n      iszero\n      tag_358\n      jumpi\n      returndatasize\n      0x00\n      dup1\n      returndatacopy\n      revert(0x00, returndatasize)\n    tag_358:\n      pop\n      pop\n      pop\n      pop\n      mload(0x40)\n      returndatasize\n      not(0x1f)\n      0x1f\n      dup3\n      add\n      and\n      dup3\n      add\n      dup1\n      0x40\n      mstore\n      pop\n      dup2\n      add\n      swap1\n      tag_359\n      swap2\n      swap1\n      tag_251\n      jump\t// in\n    tag_359:\n      pop\n        /* \"contracts/core/MADeliveryStrategy.sol\":8062:8392  if(paymentDirective_.erc20 == NATIVE){... */\n    tag_355:\n        /* \"contracts/core/MADeliveryStrategy.sol\":8424:8434  getIndex() */\n      tag_360\n        /* \"contracts/core/MADeliveryStrategy.sol\":8424:8432  getIndex */\n      tag_361\n        /* \"contracts/core/MADeliveryStrategy.sol\":8424:8434  getIndex() */\n      jump\t// in\n    tag_360:\n        /* \"contracts/core/MADeliveryStrategy.sol\":8410:8418  _sendIds */\n      dup7\n        /* \"contracts/core/MADeliveryStrategy.sol\":8419:8420  y */\n      dup4\n        /* \"contracts/core/MADeliveryStrategy.sol\":8410:8421  _sendIds[y] */\n      dup2\n      mload\n      dup2\n      lt\n      tag_363\n      jumpi\n      tag_363\n      tag_159\n      jump\t// in\n    tag_363:\n      0x20\n      mul\n      0x20\n      add\n      add\n        /* \"contracts/core/MADeliveryStrategy.sol\":8410:8434  _sendIds[y] = getIndex() */\n      dup2\n      dup2\n      mstore\n      pop\n      pop\n        /* \"contracts/core/MADeliveryStrategy.sol\":7298:8450  if(paymentDirective_.contributor.homeChain != register.getChainId()){... */\n    tag_351:\n        /* \"contracts/core/MADeliveryStrategy.sol\":8493:8524  paymentDirective_.deliverableId */\n      0x80\n      dup2\n      add\n      mload\n        /* \"contracts/core/MADeliveryStrategy.sol\":8465:8544  project_.updatePayoutStatus(paymentDirective_.deliverableId, PayoutStatus.PAID) */\n      mload(0x40)\n      shl(0xe1, 0x026192df)\n      dup2\n      mstore\n      sub(shl(0xa0, 0x01), 0x01)\n        /* \"contracts/core/MADeliveryStrategy.sol\":8465:8492  project_.updatePayoutStatus */\n      dup6\n      and\n      swap2\n      0x04c325be\n      swap2\n        /* \"contracts/core/MADeliveryStrategy.sol\":8465:8544  project_.updatePayoutStatus(paymentDirective_.deliverableId, PayoutStatus.PAID) */\n      tag_364\n      swap2\n        /* \"contracts/core/MADeliveryStrategy.sol\":8493:8524  paymentDirective_.deliverableId */\n      swap1\n        /* \"contracts/core/MADeliveryStrategy.sol\":8526:8543  PayoutStatus.PAID */\n      0x02\n      swap1\n        /* \"contracts/core/MADeliveryStrategy.sol\":8465:8544  project_.updatePayoutStatus(paymentDirective_.deliverableId, PayoutStatus.PAID) */\n      0x04\n      add\n      tag_365\n      jump\t// in\n    tag_364:\n      0x20\n      mload(0x40)\n      dup1\n      dup4\n      sub\n      dup2\n      0x00\n      dup8\n      gas\n      call\n      iszero\n      dup1\n      iszero\n      tag_367\n      jumpi\n      returndatasize\n      0x00\n      dup1\n      returndatacopy\n      revert(0x00, returndatasize)\n    tag_367:\n      pop\n      pop\n      pop\n      pop\n      mload(0x40)\n      returndatasize\n      not(0x1f)\n      0x1f\n      dup3\n      add\n      and\n      dup3\n      add\n      dup1\n      0x40\n      mstore\n      pop\n      dup2\n      add\n      swap1\n      tag_368\n      swap2\n      swap1\n      tag_251\n      jump\t// in\n    tag_368:\n      pop\n        /* \"contracts/core/MADeliveryStrategy.sol\":8601:8618  paymentDirective_ */\n      dup1\n        /* \"contracts/core/MADeliveryStrategy.sol\":8561:8585  paymentDirectiveBySendId */\n      0x09\n        /* \"contracts/core/MADeliveryStrategy.sol\":8561:8598  paymentDirectiveBySendId[_sendIds[y]] */\n      0x00\n        /* \"contracts/core/MADeliveryStrategy.sol\":8586:8594  _sendIds */\n      dup9\n        /* \"contracts/core/MADeliveryStrategy.sol\":8595:8596  y */\n      dup6\n        /* \"contracts/core/MADeliveryStrategy.sol\":8586:8597  _sendIds[y] */\n      dup2\n      mload\n      dup2\n      lt\n      tag_370\n      jumpi\n      tag_370\n      tag_159\n      jump\t// in\n    tag_370:\n      0x20\n      mul\n      0x20\n      add\n      add\n      mload\n        /* \"contracts/core/MADeliveryStrategy.sol\":8561:8598  paymentDirectiveBySendId[_sendIds[y]] */\n      dup2\n      mstore\n      0x20\n      add\n      swap1\n      dup2\n      mstore\n      0x20\n      add\n      0x00\n      keccak256\n        /* \"contracts/core/MADeliveryStrategy.sol\":8561:8618  paymentDirectiveBySendId[_sendIds[y]] = paymentDirective_ */\n      0x00\n      dup3\n      add\n      mload\n      dup2\n      0x00\n      add\n      sstore\n      0x20\n      dup3\n      add\n      mload\n      dup2\n      0x01\n      add\n      0x00\n      dup3\n      add\n      mload\n      dup2\n      0x00\n      add\n      sstore\n      0x20\n      dup3\n      add\n      mload\n      dup2\n      0x01\n      add\n      sstore\n      0x40\n      dup3\n      add\n      mload\n      dup2\n      0x02\n      add\n      exp(0x0100, 0x00)\n      dup2\n      sload\n      dup2\n      sub(shl(0xa0, 0x01), 0x01)\n      mul\n      not\n      and\n      swap1\n      dup4\n      sub(shl(0xa0, 0x01), 0x01)\n      and\n      mul\n      or\n      swap1\n      sstore\n      pop\n      0x60\n      dup3\n      add\n      mload\n      dup2\n      0x03\n      add\n      0x00\n      dup3\n      add\n      mload\n      dup2\n      0x00\n      add\n      sstore\n      0x20\n      dup3\n      add\n      mload\n      dup2\n      0x01\n      add\n      swap1\n      dup2\n      tag_371\n      swap2\n      swap1\n      tag_372\n      jump\t// in\n    tag_371:\n      pop\n      pop\n      pop\n      pop\n      0x40\n      dup4\n      dup2\n      add\n      mload\n      0x06\n      dup5\n      add\n      sstore\n      0x60\n      dup5\n      add\n      mload\n      0x07\n      dup5\n      add\n      sstore\n      0x80\n      dup5\n      add\n      mload\n      0x08\n      dup5\n      add\n      sstore\n      0xa0\n      dup5\n      add\n      mload\n      0x09\n      dup5\n      add\n      sstore\n      0xc0\n      swap1\n      swap4\n      add\n      mload\n      0x0a\n      swap3\n      dup4\n      add\n      dup1\n      sload\n      not(sub(shl(0xa0, 0x01), 0x01))\n      and\n      sub(shl(0xa0, 0x01), 0x01)\n      swap3\n      dup4\n      and\n      or\n      swap1\n      sstore\n        /* \"contracts/core/MADeliveryStrategy.sol\":8633:8668  sendIdsByRecipient[_projectAddress] */\n      dup11\n      and\n      0x00\n      swap1\n      dup2\n      mstore\n      0x20\n      swap3\n      swap1\n      swap3\n      mstore\n      pop\n      keccak256\n        /* \"contracts/core/MADeliveryStrategy.sol\":8674:8685  _sendIds[y] */\n      dup7\n      mload\n      dup8\n      swap1\n        /* \"contracts/core/MADeliveryStrategy.sol\":8683:8684  y */\n      dup5\n      swap1\n        /* \"contracts/core/MADeliveryStrategy.sol\":8674:8685  _sendIds[y] */\n      dup2\n      lt\n      tag_374\n      jumpi\n      tag_374\n      tag_159\n      jump\t// in\n    tag_374:\n      0x20\n      swap1\n      dup2\n      mul\n      swap2\n      swap1\n      swap2\n      add\n      dup2\n      add\n      mload\n        /* \"contracts/core/MADeliveryStrategy.sol\":8633:8686  sendIdsByRecipient[_projectAddress].push(_sendIds[y]) */\n      dup3\n      sload\n      0x01\n      dup2\n      dup2\n      add\n      dup6\n      sstore\n      0x00\n      swap5\n      dup6\n      mstore\n      swap3\n      swap1\n      swap4\n      keccak256\n      swap1\n      swap3\n      add\n      swap2\n      swap1\n      swap2\n      sstore\n        /* \"contracts/core/MADeliveryStrategy.sol\":7145:7148  y++ */\n      swap2\n      swap1\n      swap2\n      add\n      swap1\n      pop\n        /* \"contracts/core/MADeliveryStrategy.sol\":7095:8698  for(uint256 y = 0; y < paymentDirectives_.length; y++){... */\n      jump(tag_326)\n    tag_327:\n      pop\n        /* \"contracts/core/MADeliveryStrategy.sol\":8708:8737  return (_sendIds, _totalPaid) */\n      pop\n      pop\n        /* \"contracts/core/MADeliveryStrategy.sol\":6726:8746  function payoutDirectives(PaymentDirective [] memory paymentDirectives_, address _projectAddress) internal returns (uint256 [] memory _sendIds, uint256 _totalPaid){... */\n      swap3\n      pop\n      swap3\n      swap1\n      pop\n      jump\t// out\n        /* \"contracts/core/MADeliveryStrategy.sol\":8784:8915  function getIndex() internal returns (uint256 _index) {... */\n    tag_361:\n        /* \"contracts/core/MADeliveryStrategy.sol\":8858:8863  index */\n      0x0c\n      dup1\n      sload\n      swap1\n      dup2\n      swap1\n        /* \"contracts/core/MADeliveryStrategy.sol\":8822:8836  uint256 _index */\n      0x00\n        /* \"contracts/core/MADeliveryStrategy.sol\":8875:8882  index++ */\n      tag_377\n        /* \"contracts/core/MADeliveryStrategy.sol\":8858:8863  index */\n      dup4\n        /* \"contracts/core/MADeliveryStrategy.sol\":8875:8882  index++ */\n      tag_378\n      jump\t// in\n    tag_377:\n      swap2\n      swap1\n      pop\n      sstore\n      pop\n        /* \"contracts/core/MADeliveryStrategy.sol\":8784:8915  function getIndex() internal returns (uint256 _index) {... */\n      swap1\n      jump\t// out\n        /* \"#utility.yul\":14:141   */\n    tag_148:\n        /* \"#utility.yul\":75:85   */\n      0x4e487b71\n        /* \"#utility.yul\":70:73   */\n      0xe0\n        /* \"#utility.yul\":66:86   */\n      shl\n        /* \"#utility.yul\":63:64   */\n      0x00\n        /* \"#utility.yul\":56:87   */\n      mstore\n        /* \"#utility.yul\":106:110   */\n      0x41\n        /* \"#utility.yul\":103:104   */\n      0x04\n        /* \"#utility.yul\":96:111   */\n      mstore\n        /* \"#utility.yul\":130:134   */\n      0x24\n        /* \"#utility.yul\":127:128   */\n      0x00\n        /* \"#utility.yul\":120:135   */\n      revert\n        /* \"#utility.yul\":146:401   */\n    tag_379:\n        /* \"#utility.yul\":218:220   */\n      0x40\n        /* \"#utility.yul\":212:221   */\n      mload\n        /* \"#utility.yul\":260:266   */\n      0x0100\n        /* \"#utility.yul\":248:267   */\n      dup2\n      add\n      sub(shl(0x40, 0x01), 0x01)\n        /* \"#utility.yul\":282:316   */\n      dup2\n      gt\n        /* \"#utility.yul\":318:340   */\n      dup3\n      dup3\n      lt\n        /* \"#utility.yul\":279:341   */\n      or\n        /* \"#utility.yul\":276:364   */\n      iszero\n      tag_405\n      jumpi\n        /* \"#utility.yul\":344:362   */\n      tag_405\n      tag_148\n      jump\t// in\n    tag_405:\n        /* \"#utility.yul\":380:382   */\n      0x40\n        /* \"#utility.yul\":373:395   */\n      mstore\n        /* \"#utility.yul\":146:401   */\n      swap1\n      jump\t// out\n        /* \"#utility.yul\":406:659   */\n    tag_380:\n        /* \"#utility.yul\":478:480   */\n      0x40\n        /* \"#utility.yul\":472:481   */\n      mload\n        /* \"#utility.yul\":520:524   */\n      0x80\n        /* \"#utility.yul\":508:525   */\n      dup2\n      add\n      sub(shl(0x40, 0x01), 0x01)\n        /* \"#utility.yul\":540:574   */\n      dup2\n      gt\n        /* \"#utility.yul\":576:598   */\n      dup3\n      dup3\n      lt\n        /* \"#utility.yul\":537:599   */\n      or\n        /* \"#utility.yul\":534:622   */\n      iszero\n      tag_405\n      jumpi\n        /* \"#utility.yul\":602:620   */\n      tag_405\n      tag_148\n      jump\t// in\n        /* \"#utility.yul\":664:915   */\n    tag_381:\n        /* \"#utility.yul\":736:738   */\n      0x40\n        /* \"#utility.yul\":730:739   */\n      dup1\n      mload\n      swap1\n        /* \"#utility.yul\":766:781   */\n      dup2\n      add\n      sub(shl(0x40, 0x01), 0x01)\n        /* \"#utility.yul\":796:830   */\n      dup2\n      gt\n        /* \"#utility.yul\":832:854   */\n      dup3\n      dup3\n      lt\n        /* \"#utility.yul\":793:855   */\n      or\n        /* \"#utility.yul\":790:878   */\n      iszero\n      tag_405\n      jumpi\n        /* \"#utility.yul\":858:876   */\n      tag_405\n      tag_148\n      jump\t// in\n        /* \"#utility.yul\":920:1173   */\n    tag_382:\n        /* \"#utility.yul\":992:994   */\n      0x40\n        /* \"#utility.yul\":986:995   */\n      mload\n        /* \"#utility.yul\":1034:1038   */\n      0xe0\n        /* \"#utility.yul\":1022:1039   */\n      dup2\n      add\n      sub(shl(0x40, 0x01), 0x01)\n        /* \"#utility.yul\":1054:1088   */\n      dup2\n      gt\n        /* \"#utility.yul\":1090:1112   */\n      dup3\n      dup3\n      lt\n        /* \"#utility.yul\":1051:1113   */\n      or\n        /* \"#utility.yul\":1048:1136   */\n      iszero\n      tag_405\n      jumpi\n        /* \"#utility.yul\":1116:1134   */\n      tag_405\n      tag_148\n      jump\t// in\n        /* \"#utility.yul\":1178:1453   */\n    tag_383:\n        /* \"#utility.yul\":1249:1251   */\n      0x40\n        /* \"#utility.yul\":1243:1252   */\n      mload\n        /* \"#utility.yul\":1314:1316   */\n      0x1f\n        /* \"#utility.yul\":1295:1308   */\n      dup3\n      add\n      not(0x1f)\n        /* \"#utility.yul\":1291:1318   */\n      and\n        /* \"#utility.yul\":1279:1319   */\n      dup2\n      add\n      sub(shl(0x40, 0x01), 0x01)\n        /* \"#utility.yul\":1334:1368   */\n      dup2\n      gt\n        /* \"#utility.yul\":1370:1392   */\n      dup3\n      dup3\n      lt\n        /* \"#utility.yul\":1331:1393   */\n      or\n        /* \"#utility.yul\":1328:1416   */\n      iszero\n      tag_417\n      jumpi\n        /* \"#utility.yul\":1396:1414   */\n      tag_417\n      tag_148\n      jump\t// in\n    tag_417:\n        /* \"#utility.yul\":1432:1434   */\n      0x40\n        /* \"#utility.yul\":1425:1447   */\n      mstore\n        /* \"#utility.yul\":1178:1453   */\n      swap2\n      swap1\n      pop\n      jump\t// out\n        /* \"#utility.yul\":1458:1641   */\n    tag_384:\n        /* \"#utility.yul\":1518:1522   */\n      0x00\n      sub(shl(0x40, 0x01), 0x01)\n        /* \"#utility.yul\":1543:1549   */\n      dup3\n        /* \"#utility.yul\":1540:1570   */\n      gt\n        /* \"#utility.yul\":1537:1593   */\n      iszero\n      tag_420\n      jumpi\n        /* \"#utility.yul\":1573:1591   */\n      tag_420\n      tag_148\n      jump\t// in\n    tag_420:\n      pop\n        /* \"#utility.yul\":1618:1619   */\n      0x05\n        /* \"#utility.yul\":1614:1628   */\n      shl\n        /* \"#utility.yul\":1630:1634   */\n      0x20\n        /* \"#utility.yul\":1610:1635   */\n      add\n      swap1\n        /* \"#utility.yul\":1458:1641   */\n      jump\t// out\n        /* \"#utility.yul\":1646:1777   */\n    tag_385:\n      sub(shl(0xa0, 0x01), 0x01)\n        /* \"#utility.yul\":1721:1752   */\n      dup2\n      and\n        /* \"#utility.yul\":1711:1753   */\n      dup2\n      eq\n        /* \"#utility.yul\":1701:1771   */\n      tag_193\n      jumpi\n        /* \"#utility.yul\":1767:1768   */\n      0x00\n        /* \"#utility.yul\":1764:1765   */\n      dup1\n        /* \"#utility.yul\":1757:1769   */\n      revert\n        /* \"#utility.yul\":1782:2525   */\n    tag_386:\n        /* \"#utility.yul\":1836:1841   */\n      0x00\n        /* \"#utility.yul\":1889:1892   */\n      dup3\n        /* \"#utility.yul\":1882:1886   */\n      0x1f\n        /* \"#utility.yul\":1874:1880   */\n      dup4\n        /* \"#utility.yul\":1870:1887   */\n      add\n        /* \"#utility.yul\":1866:1893   */\n      slt\n        /* \"#utility.yul\":1856:1911   */\n      tag_424\n      jumpi\n        /* \"#utility.yul\":1907:1908   */\n      0x00\n        /* \"#utility.yul\":1904:1905   */\n      dup1\n        /* \"#utility.yul\":1897:1909   */\n      revert\n        /* \"#utility.yul\":1856:1911   */\n    tag_424:\n        /* \"#utility.yul\":1943:1949   */\n      dup2\n        /* \"#utility.yul\":1930:1950   */\n      calldataload\n        /* \"#utility.yul\":1969:1973   */\n      0x20\n        /* \"#utility.yul\":1993:2053   */\n      tag_425\n        /* \"#utility.yul\":2009:2052   */\n      tag_426\n        /* \"#utility.yul\":2049:2051   */\n      dup4\n        /* \"#utility.yul\":2009:2052   */\n      tag_384\n      jump\t// in\n    tag_426:\n        /* \"#utility.yul\":1993:2053   */\n      tag_383\n      jump\t// in\n    tag_425:\n        /* \"#utility.yul\":2075:2078   */\n      dup1\n        /* \"#utility.yul\":2099:2101   */\n      dup4\n        /* \"#utility.yul\":2094:2097   */\n      dup3\n        /* \"#utility.yul\":2087:2102   */\n      mstore\n        /* \"#utility.yul\":2127:2131   */\n      0x20\n        /* \"#utility.yul\":2122:2125   */\n      dup3\n        /* \"#utility.yul\":2118:2132   */\n      add\n        /* \"#utility.yul\":2111:2132   */\n      swap2\n      pop\n        /* \"#utility.yul\":2184:2188   */\n      0x20\n        /* \"#utility.yul\":2178:2180   */\n      dup5\n        /* \"#utility.yul\":2175:2176   */\n      0x05\n        /* \"#utility.yul\":2171:2181   */\n      shl\n        /* \"#utility.yul\":2163:2169   */\n      dup8\n        /* \"#utility.yul\":2159:2182   */\n      add\n        /* \"#utility.yul\":2155:2189   */\n      add\n        /* \"#utility.yul\":2141:2189   */\n      swap4\n      pop\n        /* \"#utility.yul\":2212:2215   */\n      dup7\n        /* \"#utility.yul\":2204:2210   */\n      dup5\n        /* \"#utility.yul\":2201:2216   */\n      gt\n        /* \"#utility.yul\":2198:2233   */\n      iszero\n      tag_427\n      jumpi\n        /* \"#utility.yul\":2229:2230   */\n      0x00\n        /* \"#utility.yul\":2226:2227   */\n      dup1\n        /* \"#utility.yul\":2219:2231   */\n      revert\n        /* \"#utility.yul\":2198:2233   */\n    tag_427:\n        /* \"#utility.yul\":2265:2269   */\n      0x20\n        /* \"#utility.yul\":2257:2263   */\n      dup7\n        /* \"#utility.yul\":2253:2270   */\n      add\n        /* \"#utility.yul\":2279:2496   */\n    tag_428:\n        /* \"#utility.yul\":2295:2301   */\n      dup5\n        /* \"#utility.yul\":2290:2293   */\n      dup2\n        /* \"#utility.yul\":2287:2302   */\n      lt\n        /* \"#utility.yul\":2279:2496   */\n      iszero\n      tag_430\n      jumpi\n        /* \"#utility.yul\":2375:2378   */\n      dup1\n        /* \"#utility.yul\":2362:2379   */\n      calldataload\n        /* \"#utility.yul\":2392:2423   */\n      tag_431\n        /* \"#utility.yul\":2417:2422   */\n      dup2\n        /* \"#utility.yul\":2392:2423   */\n      tag_385\n      jump\t// in\n    tag_431:\n        /* \"#utility.yul\":2436:2454   */\n      dup4\n      mstore\n        /* \"#utility.yul\":2474:2486   */\n      swap2\n      dup4\n      add\n      swap2\n        /* \"#utility.yul\":2312:2324   */\n      dup4\n      add\n        /* \"#utility.yul\":2279:2496   */\n      jump(tag_428)\n    tag_430:\n      pop\n        /* \"#utility.yul\":2514:2519   */\n      swap7\n        /* \"#utility.yul\":1782:2525   */\n      swap6\n      pop\n      pop\n      pop\n      pop\n      pop\n      pop\n      jump\t// out\n        /* \"#utility.yul\":2530:2716   */\n    tag_387:\n        /* \"#utility.yul\":2578:2582   */\n      0x00\n      sub(shl(0x40, 0x01), 0x01)\n        /* \"#utility.yul\":2603:2609   */\n      dup3\n        /* \"#utility.yul\":2600:2630   */\n      gt\n        /* \"#utility.yul\":2597:2653   */\n      iszero\n      tag_434\n      jumpi\n        /* \"#utility.yul\":2633:2651   */\n      tag_434\n      tag_148\n      jump\t// in\n    tag_434:\n      pop\n        /* \"#utility.yul\":2699:2701   */\n      0x1f\n        /* \"#utility.yul\":2678:2693   */\n      add\n      not(0x1f)\n        /* \"#utility.yul\":2674:2703   */\n      and\n        /* \"#utility.yul\":2705:2709   */\n      0x20\n        /* \"#utility.yul\":2670:2710   */\n      add\n      swap1\n        /* \"#utility.yul\":2530:2716   */\n      jump\t// out\n        /* \"#utility.yul\":2721:3183   */\n    tag_388:\n        /* \"#utility.yul\":2763:2768   */\n      0x00\n        /* \"#utility.yul\":2816:2819   */\n      dup3\n        /* \"#utility.yul\":2809:2813   */\n      0x1f\n        /* \"#utility.yul\":2801:2807   */\n      dup4\n        /* \"#utility.yul\":2797:2814   */\n      add\n        /* \"#utility.yul\":2793:2820   */\n      slt\n        /* \"#utility.yul\":2783:2838   */\n      tag_436\n      jumpi\n        /* \"#utility.yul\":2834:2835   */\n      0x00\n        /* \"#utility.yul\":2831:2832   */\n      dup1\n        /* \"#utility.yul\":2824:2836   */\n      revert\n        /* \"#utility.yul\":2783:2838   */\n    tag_436:\n        /* \"#utility.yul\":2870:2876   */\n      dup2\n        /* \"#utility.yul\":2857:2877   */\n      calldataload\n        /* \"#utility.yul\":2901:2949   */\n      tag_437\n        /* \"#utility.yul\":2917:2948   */\n      tag_426\n        /* \"#utility.yul\":2945:2947   */\n      dup3\n        /* \"#utility.yul\":2917:2948   */\n      tag_387\n      jump\t// in\n        /* \"#utility.yul\":2901:2949   */\n    tag_437:\n        /* \"#utility.yul\":2974:2976   */\n      dup2\n        /* \"#utility.yul\":2965:2972   */\n      dup2\n        /* \"#utility.yul\":2958:2977   */\n      mstore\n        /* \"#utility.yul\":3020:3023   */\n      dup5\n        /* \"#utility.yul\":3013:3017   */\n      0x20\n        /* \"#utility.yul\":3008:3010   */\n      dup4\n        /* \"#utility.yul\":3000:3006   */\n      dup7\n        /* \"#utility.yul\":2996:3011   */\n      add\n        /* \"#utility.yul\":2992:3018   */\n      add\n        /* \"#utility.yul\":2989:3024   */\n      gt\n        /* \"#utility.yul\":2986:3041   */\n      iszero\n      tag_439\n      jumpi\n        /* \"#utility.yul\":3037:3038   */\n      0x00\n        /* \"#utility.yul\":3034:3035   */\n      dup1\n        /* \"#utility.yul\":3027:3039   */\n      revert\n        /* \"#utility.yul\":2986:3041   */\n    tag_439:\n        /* \"#utility.yul\":3102:3104   */\n      dup2\n        /* \"#utility.yul\":3095:3099   */\n      0x20\n        /* \"#utility.yul\":3087:3093   */\n      dup6\n        /* \"#utility.yul\":3083:3100   */\n      add\n        /* \"#utility.yul\":3076:3080   */\n      0x20\n        /* \"#utility.yul\":3067:3074   */\n      dup4\n        /* \"#utility.yul\":3063:3081   */\n      add\n        /* \"#utility.yul\":3050:3105   */\n      calldatacopy\n        /* \"#utility.yul\":3150:3151   */\n      0x00\n        /* \"#utility.yul\":3125:3141   */\n      swap2\n      dup2\n      add\n        /* \"#utility.yul\":3143:3147   */\n      0x20\n        /* \"#utility.yul\":3121:3148   */\n      add\n        /* \"#utility.yul\":3114:3152   */\n      swap2\n      swap1\n      swap2\n      mstore\n        /* \"#utility.yul\":3129:3136   */\n      swap4\n        /* \"#utility.yul\":2721:3183   */\n      swap3\n      pop\n      pop\n      pop\n      jump\t// out\n        /* \"#utility.yul\":3188:3890   */\n    tag_25:\n        /* \"#utility.yul\":3299:3305   */\n      0x00\n        /* \"#utility.yul\":3307:3313   */\n      dup1\n        /* \"#utility.yul\":3315:3321   */\n      0x00\n        /* \"#utility.yul\":3368:3370   */\n      0x60\n        /* \"#utility.yul\":3356:3365   */\n      dup5\n        /* \"#utility.yul\":3347:3354   */\n      dup7\n        /* \"#utility.yul\":3343:3366   */\n      sub\n        /* \"#utility.yul\":3339:3371   */\n      slt\n        /* \"#utility.yul\":3336:3388   */\n      iszero\n      tag_441\n      jumpi\n        /* \"#utility.yul\":3384:3385   */\n      0x00\n        /* \"#utility.yul\":3381:3382   */\n      dup1\n        /* \"#utility.yul\":3374:3386   */\n      revert\n        /* \"#utility.yul\":3336:3388   */\n    tag_441:\n        /* \"#utility.yul\":3424:3433   */\n      dup4\n        /* \"#utility.yul\":3411:3434   */\n      calldataload\n      sub(shl(0x40, 0x01), 0x01)\n        /* \"#utility.yul\":3494:3496   */\n      dup1\n        /* \"#utility.yul\":3486:3492   */\n      dup3\n        /* \"#utility.yul\":3483:3497   */\n      gt\n        /* \"#utility.yul\":3480:3514   */\n      iszero\n      tag_442\n      jumpi\n        /* \"#utility.yul\":3510:3511   */\n      0x00\n        /* \"#utility.yul\":3507:3508   */\n      dup1\n        /* \"#utility.yul\":3500:3512   */\n      revert\n        /* \"#utility.yul\":3480:3514   */\n    tag_442:\n        /* \"#utility.yul\":3533:3594   */\n      tag_443\n        /* \"#utility.yul\":3586:3593   */\n      dup8\n        /* \"#utility.yul\":3577:3583   */\n      dup4\n        /* \"#utility.yul\":3566:3575   */\n      dup9\n        /* \"#utility.yul\":3562:3584   */\n      add\n        /* \"#utility.yul\":3533:3594   */\n      tag_386\n      jump\t// in\n    tag_443:\n        /* \"#utility.yul\":3523:3594   */\n      swap5\n      pop\n        /* \"#utility.yul\":3647:3649   */\n      0x20\n        /* \"#utility.yul\":3636:3645   */\n      dup7\n        /* \"#utility.yul\":3632:3650   */\n      add\n        /* \"#utility.yul\":3619:3651   */\n      calldataload\n        /* \"#utility.yul\":3603:3651   */\n      swap2\n      pop\n        /* \"#utility.yul\":3676:3678   */\n      dup1\n        /* \"#utility.yul\":3666:3674   */\n      dup3\n        /* \"#utility.yul\":3663:3679   */\n      gt\n        /* \"#utility.yul\":3660:3696   */\n      iszero\n      tag_444\n      jumpi\n        /* \"#utility.yul\":3692:3693   */\n      0x00\n        /* \"#utility.yul\":3689:3690   */\n      dup1\n        /* \"#utility.yul\":3682:3694   */\n      revert\n        /* \"#utility.yul\":3660:3696   */\n    tag_444:\n      pop\n        /* \"#utility.yul\":3715:3766   */\n      tag_445\n        /* \"#utility.yul\":3758:3765   */\n      dup7\n        /* \"#utility.yul\":3747:3755   */\n      dup3\n        /* \"#utility.yul\":3736:3745   */\n      dup8\n        /* \"#utility.yul\":3732:3756   */\n      add\n        /* \"#utility.yul\":3715:3766   */\n      tag_388\n      jump\t// in\n    tag_445:\n        /* \"#utility.yul\":3705:3766   */\n      swap3\n      pop\n      pop\n        /* \"#utility.yul\":3816:3818   */\n      0x40\n        /* \"#utility.yul\":3805:3814   */\n      dup5\n        /* \"#utility.yul\":3801:3819   */\n      add\n        /* \"#utility.yul\":3788:3820   */\n      calldataload\n        /* \"#utility.yul\":3829:3860   */\n      tag_446\n        /* \"#utility.yul\":3854:3859   */\n      dup2\n        /* \"#utility.yul\":3829:3860   */\n      tag_385\n      jump\t// in\n    tag_446:\n        /* \"#utility.yul\":3879:3884   */\n      dup1\n        /* \"#utility.yul\":3869:3884   */\n      swap2\n      pop\n      pop\n        /* \"#utility.yul\":3188:3890   */\n      swap3\n      pop\n      swap3\n      pop\n      swap3\n      jump\t// out\n        /* \"#utility.yul\":4299:4549   */\n    tag_389:\n        /* \"#utility.yul\":4384:4385   */\n      0x00\n        /* \"#utility.yul\":4394:4507   */\n    tag_450:\n        /* \"#utility.yul\":4408:4414   */\n      dup4\n        /* \"#utility.yul\":4405:4406   */\n      dup2\n        /* \"#utility.yul\":4402:4415   */\n      lt\n        /* \"#utility.yul\":4394:4507   */\n      iszero\n      tag_452\n      jumpi\n        /* \"#utility.yul\":4484:4495   */\n      dup2\n      dup2\n      add\n        /* \"#utility.yul\":4478:4496   */\n      mload\n        /* \"#utility.yul\":4465:4476   */\n      dup4\n      dup3\n      add\n        /* \"#utility.yul\":4458:4497   */\n      mstore\n        /* \"#utility.yul\":4430:4432   */\n      0x20\n        /* \"#utility.yul\":4423:4433   */\n      add\n        /* \"#utility.yul\":4394:4507   */\n      jump(tag_450)\n    tag_452:\n      pop\n      pop\n        /* \"#utility.yul\":4541:4542   */\n      0x00\n        /* \"#utility.yul\":4523:4539   */\n      swap2\n      add\n        /* \"#utility.yul\":4516:4543   */\n      mstore\n        /* \"#utility.yul\":4299:4549   */\n      jump\t// out\n        /* \"#utility.yul\":4554:4950   */\n    tag_41:\n        /* \"#utility.yul\":4703:4705   */\n      0x20\n        /* \"#utility.yul\":4692:4701   */\n      dup2\n        /* \"#utility.yul\":4685:4706   */\n      mstore\n        /* \"#utility.yul\":4666:4670   */\n      0x00\n        /* \"#utility.yul\":4735:4741   */\n      dup3\n        /* \"#utility.yul\":4729:4742   */\n      mload\n        /* \"#utility.yul\":4778:4784   */\n      dup1\n        /* \"#utility.yul\":4773:4775   */\n      0x20\n        /* \"#utility.yul\":4762:4771   */\n      dup5\n        /* \"#utility.yul\":4758:4776   */\n      add\n        /* \"#utility.yul\":4751:4785   */\n      mstore\n        /* \"#utility.yul\":4794:4873   */\n      tag_454\n        /* \"#utility.yul\":4866:4872   */\n      dup2\n        /* \"#utility.yul\":4861:4863   */\n      0x40\n        /* \"#utility.yul\":4850:4859   */\n      dup6\n        /* \"#utility.yul\":4846:4864   */\n      add\n        /* \"#utility.yul\":4841:4843   */\n      0x20\n        /* \"#utility.yul\":4833:4839   */\n      dup8\n        /* \"#utility.yul\":4829:4844   */\n      add\n        /* \"#utility.yul\":4794:4873   */\n      tag_389\n      jump\t// in\n    tag_454:\n        /* \"#utility.yul\":4934:4936   */\n      0x1f\n        /* \"#utility.yul\":4913:4928   */\n      add\n      not(0x1f)\n        /* \"#utility.yul\":4909:4938   */\n      and\n        /* \"#utility.yul\":4894:4939   */\n      swap2\n      swap1\n      swap2\n      add\n        /* \"#utility.yul\":4941:4943   */\n      0x40\n        /* \"#utility.yul\":4890:4944   */\n      add\n      swap3\n        /* \"#utility.yul\":4554:4950   */\n      swap2\n      pop\n      pop\n      jump\t// out\n        /* \"#utility.yul\":4955:5410   */\n    tag_44:\n        /* \"#utility.yul\":5032:5038   */\n      0x00\n        /* \"#utility.yul\":5040:5046   */\n      dup1\n        /* \"#utility.yul\":5093:5095   */\n      0x40\n        /* \"#utility.yul\":5081:5090   */\n      dup4\n        /* \"#utility.yul\":5072:5079   */\n      dup6\n        /* \"#utility.yul\":5068:5091   */\n      sub\n        /* \"#utility.yul\":5064:5096   */\n      slt\n        /* \"#utility.yul\":5061:5113   */\n      iszero\n      tag_456\n      jumpi\n        /* \"#utility.yul\":5109:5110   */\n      0x00\n        /* \"#utility.yul\":5106:5107   */\n      dup1\n        /* \"#utility.yul\":5099:5111   */\n      revert\n        /* \"#utility.yul\":5061:5113   */\n    tag_456:\n        /* \"#utility.yul\":5149:5158   */\n      dup3\n        /* \"#utility.yul\":5136:5159   */\n      calldataload\n      sub(shl(0x40, 0x01), 0x01)\n        /* \"#utility.yul\":5174:5180   */\n      dup2\n        /* \"#utility.yul\":5171:5201   */\n      gt\n        /* \"#utility.yul\":5168:5218   */\n      iszero\n      tag_457\n      jumpi\n        /* \"#utility.yul\":5214:5215   */\n      0x00\n        /* \"#utility.yul\":5211:5212   */\n      dup1\n        /* \"#utility.yul\":5204:5216   */\n      revert\n        /* \"#utility.yul\":5168:5218   */\n    tag_457:\n        /* \"#utility.yul\":5237:5286   */\n      tag_458\n        /* \"#utility.yul\":5278:5285   */\n      dup6\n        /* \"#utility.yul\":5269:5275   */\n      dup3\n        /* \"#utility.yul\":5258:5267   */\n      dup7\n        /* \"#utility.yul\":5254:5276   */\n      add\n        /* \"#utility.yul\":5237:5286   */\n      tag_388\n      jump\t// in\n    tag_458:\n        /* \"#utility.yul\":5227:5286   */\n      swap3\n      pop\n      pop\n        /* \"#utility.yul\":5336:5338   */\n      0x20\n        /* \"#utility.yul\":5325:5334   */\n      dup4\n        /* \"#utility.yul\":5321:5339   */\n      add\n        /* \"#utility.yul\":5308:5340   */\n      calldataload\n        /* \"#utility.yul\":5349:5380   */\n      tag_459\n        /* \"#utility.yul\":5374:5379   */\n      dup2\n        /* \"#utility.yul\":5349:5380   */\n      tag_385\n      jump\t// in\n    tag_459:\n        /* \"#utility.yul\":5399:5404   */\n      dup1\n        /* \"#utility.yul\":5389:5404   */\n      swap2\n      pop\n      pop\n        /* \"#utility.yul\":4955:5410   */\n      swap3\n      pop\n      swap3\n      swap1\n      pop\n      jump\t// out\n        /* \"#utility.yul\":5623:5870   */\n    tag_55:\n        /* \"#utility.yul\":5682:5688   */\n      0x00\n        /* \"#utility.yul\":5735:5737   */\n      0x20\n        /* \"#utility.yul\":5723:5732   */\n      dup3\n        /* \"#utility.yul\":5714:5721   */\n      dup5\n        /* \"#utility.yul\":5710:5733   */\n      sub\n        /* \"#utility.yul\":5706:5738   */\n      slt\n        /* \"#utility.yul\":5703:5755   */\n      iszero\n      tag_462\n      jumpi\n        /* \"#utility.yul\":5751:5752   */\n      0x00\n        /* \"#utility.yul\":5748:5749   */\n      dup1\n        /* \"#utility.yul\":5741:5753   */\n      revert\n        /* \"#utility.yul\":5703:5755   */\n    tag_462:\n        /* \"#utility.yul\":5790:5799   */\n      dup2\n        /* \"#utility.yul\":5777:5800   */\n      calldataload\n        /* \"#utility.yul\":5809:5840   */\n      tag_292\n        /* \"#utility.yul\":5834:5839   */\n      dup2\n        /* \"#utility.yul\":5809:5840   */\n      tag_385\n      jump\t// in\n        /* \"#utility.yul\":6249:7606   */\n    tag_76:\n        /* \"#utility.yul\":6376:6382   */\n      0x00\n        /* \"#utility.yul\":6384:6390   */\n      dup1\n        /* \"#utility.yul\":6437:6439   */\n      0x40\n        /* \"#utility.yul\":6425:6434   */\n      dup4\n        /* \"#utility.yul\":6416:6423   */\n      dup6\n        /* \"#utility.yul\":6412:6435   */\n      sub\n        /* \"#utility.yul\":6408:6440   */\n      slt\n        /* \"#utility.yul\":6405:6457   */\n      iszero\n      tag_467\n      jumpi\n        /* \"#utility.yul\":6453:6454   */\n      0x00\n        /* \"#utility.yul\":6450:6451   */\n      dup1\n        /* \"#utility.yul\":6443:6455   */\n      revert\n        /* \"#utility.yul\":6405:6457   */\n    tag_467:\n        /* \"#utility.yul\":6493:6502   */\n      dup3\n        /* \"#utility.yul\":6480:6503   */\n      calldataload\n      sub(shl(0x40, 0x01), 0x01)\n        /* \"#utility.yul\":6563:6565   */\n      dup1\n        /* \"#utility.yul\":6555:6561   */\n      dup3\n        /* \"#utility.yul\":6552:6566   */\n      gt\n        /* \"#utility.yul\":6549:6583   */\n      iszero\n      tag_468\n      jumpi\n        /* \"#utility.yul\":6579:6580   */\n      0x00\n        /* \"#utility.yul\":6576:6577   */\n      dup1\n        /* \"#utility.yul\":6569:6581   */\n      revert\n        /* \"#utility.yul\":6549:6583   */\n    tag_468:\n        /* \"#utility.yul\":6602:6663   */\n      tag_469\n        /* \"#utility.yul\":6655:6662   */\n      dup7\n        /* \"#utility.yul\":6646:6652   */\n      dup4\n        /* \"#utility.yul\":6635:6644   */\n      dup8\n        /* \"#utility.yul\":6631:6653   */\n      add\n        /* \"#utility.yul\":6602:6663   */\n      tag_386\n      jump\t// in\n    tag_469:\n        /* \"#utility.yul\":6592:6663   */\n      swap4\n      pop\n        /* \"#utility.yul\":6682:6684   */\n      0x20\n        /* \"#utility.yul\":6672:6684   */\n      swap2\n      pop\n        /* \"#utility.yul\":6737:6739   */\n      dup2\n        /* \"#utility.yul\":6726:6735   */\n      dup6\n        /* \"#utility.yul\":6722:6740   */\n      add\n        /* \"#utility.yul\":6709:6741   */\n      calldataload\n        /* \"#utility.yul\":6766:6768   */\n      dup2\n        /* \"#utility.yul\":6756:6764   */\n      dup2\n        /* \"#utility.yul\":6753:6769   */\n      gt\n        /* \"#utility.yul\":6750:6786   */\n      iszero\n      tag_470\n      jumpi\n        /* \"#utility.yul\":6782:6783   */\n      0x00\n        /* \"#utility.yul\":6779:6780   */\n      dup1\n        /* \"#utility.yul\":6772:6784   */\n      revert\n        /* \"#utility.yul\":6750:6786   */\n    tag_470:\n        /* \"#utility.yul\":6805:6829   */\n      dup6\n      add\n        /* \"#utility.yul\":6860:6864   */\n      0x1f\n        /* \"#utility.yul\":6852:6865   */\n      dup2\n      add\n        /* \"#utility.yul\":6848:6875   */\n      dup8\n      sgt\n        /* \"#utility.yul\":6838:6893   */\n      tag_471\n      jumpi\n        /* \"#utility.yul\":6889:6890   */\n      0x00\n        /* \"#utility.yul\":6886:6887   */\n      dup1\n        /* \"#utility.yul\":6879:6891   */\n      revert\n        /* \"#utility.yul\":6838:6893   */\n    tag_471:\n        /* \"#utility.yul\":6925:6927   */\n      dup1\n        /* \"#utility.yul\":6912:6928   */\n      calldataload\n        /* \"#utility.yul\":6948:7008   */\n      tag_472\n        /* \"#utility.yul\":6964:7007   */\n      tag_426\n        /* \"#utility.yul\":7004:7006   */\n      dup3\n        /* \"#utility.yul\":6964:7007   */\n      tag_384\n      jump\t// in\n        /* \"#utility.yul\":6948:7008   */\n    tag_472:\n        /* \"#utility.yul\":7042:7057   */\n      dup2\n      dup2\n      mstore\n        /* \"#utility.yul\":7124:7125   */\n      0x05\n        /* \"#utility.yul\":7120:7130   */\n      swap2\n      swap1\n      swap2\n      shl\n        /* \"#utility.yul\":7112:7131   */\n      dup3\n      add\n        /* \"#utility.yul\":7108:7136   */\n      dup5\n      add\n      swap1\n        /* \"#utility.yul\":7073:7085   */\n      dup5\n      dup2\n      add\n      swap1\n        /* \"#utility.yul\":7148:7167   */\n      dup10\n      dup4\n      gt\n        /* \"#utility.yul\":7145:7184   */\n      iszero\n      tag_474\n      jumpi\n        /* \"#utility.yul\":7180:7181   */\n      0x00\n        /* \"#utility.yul\":7177:7178   */\n      dup1\n        /* \"#utility.yul\":7170:7182   */\n      revert\n        /* \"#utility.yul\":7145:7184   */\n    tag_474:\n        /* \"#utility.yul\":7212:7214   */\n      dup6\n        /* \"#utility.yul\":7208:7210   */\n      dup5\n        /* \"#utility.yul\":7204:7215   */\n      add\n        /* \"#utility.yul\":7224:7576   */\n    tag_475:\n        /* \"#utility.yul\":7240:7246   */\n      dup4\n        /* \"#utility.yul\":7235:7238   */\n      dup2\n        /* \"#utility.yul\":7232:7247   */\n      lt\n        /* \"#utility.yul\":7224:7576   */\n      iszero\n      tag_477\n      jumpi\n        /* \"#utility.yul\":7326:7329   */\n      dup1\n        /* \"#utility.yul\":7313:7330   */\n      calldataload\n        /* \"#utility.yul\":7362:7364   */\n      dup7\n        /* \"#utility.yul\":7349:7360   */\n      dup2\n        /* \"#utility.yul\":7346:7365   */\n      gt\n        /* \"#utility.yul\":7343:7452   */\n      iszero\n      tag_478\n      jumpi\n        /* \"#utility.yul\":7406:7407   */\n      0x00\n        /* \"#utility.yul\":7435:7437   */\n      dup1\n        /* \"#utility.yul\":7431:7433   */\n      dup2\n        /* \"#utility.yul\":7424:7438   */\n      revert\n        /* \"#utility.yul\":7343:7452   */\n    tag_478:\n        /* \"#utility.yul\":7477:7533   */\n      tag_479\n        /* \"#utility.yul\":7525:7532   */\n      dup13\n        /* \"#utility.yul\":7520:7522   */\n      dup10\n        /* \"#utility.yul\":7506:7517   */\n      dup4\n        /* \"#utility.yul\":7502:7504   */\n      dup10\n        /* \"#utility.yul\":7498:7518   */\n      add\n        /* \"#utility.yul\":7494:7523   */\n      add\n        /* \"#utility.yul\":7477:7533   */\n      tag_388\n      jump\t// in\n    tag_479:\n        /* \"#utility.yul\":7465:7534   */\n      dup5\n      mstore\n      pop\n        /* \"#utility.yul\":7554:7566   */\n      swap2\n      dup7\n      add\n      swap2\n        /* \"#utility.yul\":7257:7269   */\n      dup7\n      add\n        /* \"#utility.yul\":7224:7576   */\n      jump(tag_475)\n    tag_477:\n        /* \"#utility.yul\":7228:7231   */\n      pop\n        /* \"#utility.yul\":7595:7600   */\n      dup1\n        /* \"#utility.yul\":7585:7600   */\n      swap7\n      pop\n      pop\n      pop\n      pop\n      pop\n      pop\n      pop\n        /* \"#utility.yul\":6249:7606   */\n      swap3\n      pop\n      swap3\n      swap1\n      pop\n      jump\t// out\n        /* \"#utility.yul\":7611:8437   */\n    tag_79:\n        /* \"#utility.yul\":7844:7846   */\n      0x20\n        /* \"#utility.yul\":7896:7917   */\n      dup1\n      dup3\n      mstore\n        /* \"#utility.yul\":7966:7979   */\n      dup3\n      mload\n        /* \"#utility.yul\":7869:7887   */\n      dup3\n      dup3\n      add\n        /* \"#utility.yul\":7988:8010   */\n      dup2\n      swap1\n      mstore\n        /* \"#utility.yul\":7815:7819   */\n      0x00\n      swap2\n        /* \"#utility.yul\":7844:7846   */\n      swap1\n        /* \"#utility.yul\":8029:8031   */\n      0x40\n      swap1\n        /* \"#utility.yul\":8047:8065   */\n      dup2\n      dup6\n      add\n      swap1\n        /* \"#utility.yul\":8088:8103   */\n      dup7\n      dup5\n      add\n        /* \"#utility.yul\":7815:7819   */\n      dup6\n        /* \"#utility.yul\":8131:8411   */\n    tag_481:\n        /* \"#utility.yul\":8145:8151   */\n      dup3\n        /* \"#utility.yul\":8142:8143   */\n      dup2\n        /* \"#utility.yul\":8139:8152   */\n      lt\n        /* \"#utility.yul\":8131:8411   */\n      iszero\n      tag_483\n      jumpi\n        /* \"#utility.yul\":8204:8217   */\n      dup2\n      mload\n        /* \"#utility.yul\":8246:8255   */\n      dup1\n      mload\n      sub(shl(0xa0, 0x01), 0x01)\n        /* \"#utility.yul\":8242:8277   */\n      and\n        /* \"#utility.yul\":8230:8278   */\n      dup6\n      mstore\n        /* \"#utility.yul\":8318:8329   */\n      dup7\n      add\n        /* \"#utility.yul\":8312:8330   */\n      mload\n        /* \"#utility.yul\":8298:8310   */\n      dup7\n      dup6\n      add\n        /* \"#utility.yul\":8291:8331   */\n      mstore\n        /* \"#utility.yul\":8351:8363   */\n      swap3\n      dup5\n      add\n      swap3\n        /* \"#utility.yul\":8386:8401   */\n      swap1\n      dup6\n      add\n      swap1\n        /* \"#utility.yul\":8274:8275   */\n      0x01\n        /* \"#utility.yul\":8160:8169   */\n      add\n        /* \"#utility.yul\":8131:8411   */\n      jump(tag_481)\n    tag_483:\n      pop\n        /* \"#utility.yul\":8428:8431   */\n      swap2\n      swap8\n        /* \"#utility.yul\":7611:8437   */\n      swap7\n      pop\n      pop\n      pop\n      pop\n      pop\n      pop\n      pop\n      jump\t// out\n        /* \"#utility.yul\":8442:9100   */\n    tag_84:\n        /* \"#utility.yul\":8613:8615   */\n      0x20\n        /* \"#utility.yul\":8665:8686   */\n      dup1\n      dup3\n      mstore\n        /* \"#utility.yul\":8735:8748   */\n      dup3\n      mload\n        /* \"#utility.yul\":8638:8656   */\n      dup3\n      dup3\n      add\n        /* \"#utility.yul\":8757:8779   */\n      dup2\n      swap1\n      mstore\n        /* \"#utility.yul\":8584:8588   */\n      0x00\n      swap2\n        /* \"#utility.yul\":8613:8615   */\n      swap1\n        /* \"#utility.yul\":8836:8851   */\n      dup5\n      dup3\n      add\n      swap1\n        /* \"#utility.yul\":8810:8812   */\n      0x40\n        /* \"#utility.yul\":8795:8813   */\n      dup6\n      add\n      swap1\n        /* \"#utility.yul\":8584:8588   */\n      dup5\n        /* \"#utility.yul\":8879:9074   */\n    tag_485:\n        /* \"#utility.yul\":8893:8899   */\n      dup2\n        /* \"#utility.yul\":8890:8891   */\n      dup2\n        /* \"#utility.yul\":8887:8900   */\n      lt\n        /* \"#utility.yul\":8879:9074   */\n      iszero\n      tag_487\n      jumpi\n        /* \"#utility.yul\":8958:8971   */\n      dup4\n      mload\n      sub(shl(0xa0, 0x01), 0x01)\n        /* \"#utility.yul\":8954:8993   */\n      and\n        /* \"#utility.yul\":8942:8994   */\n      dup4\n      mstore\n        /* \"#utility.yul\":9049:9064   */\n      swap3\n      dup5\n      add\n      swap3\n        /* \"#utility.yul\":9014:9026   */\n      swap2\n      dup5\n      add\n      swap2\n        /* \"#utility.yul\":8990:8991   */\n      0x01\n        /* \"#utility.yul\":8908:8917   */\n      add\n        /* \"#utility.yul\":8879:9074   */\n      jump(tag_485)\n    tag_487:\n      pop\n        /* \"#utility.yul\":9091:9094   */\n      swap1\n      swap7\n        /* \"#utility.yul\":8442:9100   */\n      swap6\n      pop\n      pop\n      pop\n      pop\n      pop\n      pop\n      jump\t// out\n        /* \"#utility.yul\":9105:9232   */\n    tag_390:\n        /* \"#utility.yul\":9166:9176   */\n      0x4e487b71\n        /* \"#utility.yul\":9161:9164   */\n      0xe0\n        /* \"#utility.yul\":9157:9177   */\n      shl\n        /* \"#utility.yul\":9154:9155   */\n      0x00\n        /* \"#utility.yul\":9147:9178   */\n      mstore\n        /* \"#utility.yul\":9197:9201   */\n      0x21\n        /* \"#utility.yul\":9194:9195   */\n      0x04\n        /* \"#utility.yul\":9187:9202   */\n      mstore\n        /* \"#utility.yul\":9221:9225   */\n      0x24\n        /* \"#utility.yul\":9218:9219   */\n      0x00\n        /* \"#utility.yul\":9211:9226   */\n      revert\n        /* \"#utility.yul\":9237:9479   */\n    tag_94:\n        /* \"#utility.yul\":9380:9382   */\n      0x20\n        /* \"#utility.yul\":9365:9383   */\n      dup2\n      add\n        /* \"#utility.yul\":9413:9414   */\n      0x07\n        /* \"#utility.yul\":9402:9415   */\n      dup4\n      lt\n        /* \"#utility.yul\":9392:9439   */\n      tag_491\n      jumpi\n        /* \"#utility.yul\":9419:9437   */\n      tag_491\n      tag_390\n      jump\t// in\n    tag_491:\n        /* \"#utility.yul\":9448:9473   */\n      swap2\n      swap1\n      mstore\n        /* \"#utility.yul\":9237:9479   */\n      swap1\n      jump\t// out\n        /* \"#utility.yul\":9484:9872   */\n    tag_98:\n        /* \"#utility.yul\":9561:9567   */\n      0x00\n        /* \"#utility.yul\":9569:9575   */\n      dup1\n        /* \"#utility.yul\":9622:9624   */\n      0x40\n        /* \"#utility.yul\":9610:9619   */\n      dup4\n        /* \"#utility.yul\":9601:9608   */\n      dup6\n        /* \"#utility.yul\":9597:9620   */\n      sub\n        /* \"#utility.yul\":9593:9625   */\n      slt\n        /* \"#utility.yul\":9590:9642   */\n      iszero\n      tag_493\n      jumpi\n        /* \"#utility.yul\":9638:9639   */\n      0x00\n        /* \"#utility.yul\":9635:9636   */\n      dup1\n        /* \"#utility.yul\":9628:9640   */\n      revert\n        /* \"#utility.yul\":9590:9642   */\n    tag_493:\n        /* \"#utility.yul\":9674:9683   */\n      dup3\n        /* \"#utility.yul\":9661:9684   */\n      calldataload\n        /* \"#utility.yul\":9651:9684   */\n      swap2\n      pop\n        /* \"#utility.yul\":9735:9737   */\n      0x20\n        /* \"#utility.yul\":9724:9733   */\n      dup4\n        /* \"#utility.yul\":9720:9738   */\n      add\n        /* \"#utility.yul\":9707:9739   */\n      calldataload\n      sub(shl(0x40, 0x01), 0x01)\n        /* \"#utility.yul\":9754:9760   */\n      dup2\n        /* \"#utility.yul\":9751:9781   */\n      gt\n        /* \"#utility.yul\":9748:9798   */\n      iszero\n      tag_494\n      jumpi\n        /* \"#utility.yul\":9794:9795   */\n      0x00\n        /* \"#utility.yul\":9791:9792   */\n      dup1\n        /* \"#utility.yul\":9784:9796   */\n      revert\n        /* \"#utility.yul\":9748:9798   */\n    tag_494:\n        /* \"#utility.yul\":9817:9866   */\n      tag_495\n        /* \"#utility.yul\":9858:9865   */\n      dup6\n        /* \"#utility.yul\":9849:9855   */\n      dup3\n        /* \"#utility.yul\":9838:9847   */\n      dup7\n        /* \"#utility.yul\":9834:9856   */\n      add\n        /* \"#utility.yul\":9817:9866   */\n      tag_388\n      jump\t// in\n    tag_495:\n        /* \"#utility.yul\":9807:9866   */\n      swap2\n      pop\n      pop\n        /* \"#utility.yul\":9484:9872   */\n      swap3\n      pop\n      swap3\n      swap1\n      pop\n      jump\t// out\n        /* \"#utility.yul\":9877:10057   */\n    tag_106:\n        /* \"#utility.yul\":9936:9942   */\n      0x00\n        /* \"#utility.yul\":9989:9991   */\n      0x20\n        /* \"#utility.yul\":9977:9986   */\n      dup3\n        /* \"#utility.yul\":9968:9975   */\n      dup5\n        /* \"#utility.yul\":9964:9987   */\n      sub\n        /* \"#utility.yul\":9960:9992   */\n      slt\n        /* \"#utility.yul\":9957:10009   */\n      iszero\n      tag_497\n      jumpi\n        /* \"#utility.yul\":10005:10006   */\n      0x00\n        /* \"#utility.yul\":10002:10003   */\n      dup1\n        /* \"#utility.yul\":9995:10007   */\n      revert\n        /* \"#utility.yul\":9957:10009   */\n    tag_497:\n      pop\n        /* \"#utility.yul\":10028:10051   */\n      calldataload\n      swap2\n        /* \"#utility.yul\":9877:10057   */\n      swap1\n      pop\n      jump\t// out\n        /* \"#utility.yul\":10405:10532   */\n    tag_159:\n        /* \"#utility.yul\":10466:10476   */\n      0x4e487b71\n        /* \"#utility.yul\":10461:10464   */\n      0xe0\n        /* \"#utility.yul\":10457:10477   */\n      shl\n        /* \"#utility.yul\":10454:10455   */\n      0x00\n        /* \"#utility.yul\":10447:10478   */\n      mstore\n        /* \"#utility.yul\":10497:10501   */\n      0x32\n        /* \"#utility.yul\":10494:10495   */\n      0x04\n        /* \"#utility.yul\":10487:10502   */\n      mstore\n        /* \"#utility.yul\":10521:10525   */\n      0x24\n        /* \"#utility.yul\":10518:10519   */\n      0x00\n        /* \"#utility.yul\":10511:10526   */\n      revert\n        /* \"#utility.yul\":10537:10664   */\n    tag_391:\n        /* \"#utility.yul\":10598:10608   */\n      0x4e487b71\n        /* \"#utility.yul\":10593:10596   */\n      0xe0\n        /* \"#utility.yul\":10589:10609   */\n      shl\n        /* \"#utility.yul\":10586:10587   */\n      0x00\n        /* \"#utility.yul\":10579:10610   */\n      mstore\n        /* \"#utility.yul\":10629:10633   */\n      0x11\n        /* \"#utility.yul\":10626:10627   */\n      0x04\n        /* \"#utility.yul\":10619:10634   */\n      mstore\n        /* \"#utility.yul\":10653:10657   */\n      0x24\n        /* \"#utility.yul\":10650:10651   */\n      0x00\n        /* \"#utility.yul\":10643:10658   */\n      revert\n        /* \"#utility.yul\":10669:10794   */\n    tag_192:\n        /* \"#utility.yul\":10734:10743   */\n      dup1\n      dup3\n      add\n        /* \"#utility.yul\":10755:10765   */\n      dup1\n      dup3\n      gt\n        /* \"#utility.yul\":10752:10788   */\n      iszero\n      tag_133\n      jumpi\n        /* \"#utility.yul\":10768:10786   */\n      tag_133\n      tag_391\n      jump\t// in\n        /* \"#utility.yul\":11484:11926   */\n    tag_392:\n        /* \"#utility.yul\":11538:11543   */\n      0x00\n        /* \"#utility.yul\":11591:11594   */\n      dup3\n        /* \"#utility.yul\":11584:11588   */\n      0x1f\n        /* \"#utility.yul\":11576:11582   */\n      dup4\n        /* \"#utility.yul\":11572:11589   */\n      add\n        /* \"#utility.yul\":11568:11595   */\n      slt\n        /* \"#utility.yul\":11558:11613   */\n      tag_507\n      jumpi\n        /* \"#utility.yul\":11609:11610   */\n      0x00\n        /* \"#utility.yul\":11606:11607   */\n      dup1\n        /* \"#utility.yul\":11599:11611   */\n      revert\n        /* \"#utility.yul\":11558:11613   */\n    tag_507:\n        /* \"#utility.yul\":11638:11644   */\n      dup2\n        /* \"#utility.yul\":11632:11645   */\n      mload\n        /* \"#utility.yul\":11669:11717   */\n      tag_508\n        /* \"#utility.yul\":11685:11716   */\n      tag_426\n        /* \"#utility.yul\":11713:11715   */\n      dup3\n        /* \"#utility.yul\":11685:11716   */\n      tag_387\n      jump\t// in\n        /* \"#utility.yul\":11669:11717   */\n    tag_508:\n        /* \"#utility.yul\":11742:11744   */\n      dup2\n        /* \"#utility.yul\":11733:11740   */\n      dup2\n        /* \"#utility.yul\":11726:11745   */\n      mstore\n        /* \"#utility.yul\":11788:11791   */\n      dup5\n        /* \"#utility.yul\":11781:11785   */\n      0x20\n        /* \"#utility.yul\":11776:11778   */\n      dup4\n        /* \"#utility.yul\":11768:11774   */\n      dup7\n        /* \"#utility.yul\":11764:11779   */\n      add\n        /* \"#utility.yul\":11760:11786   */\n      add\n        /* \"#utility.yul\":11757:11792   */\n      gt\n        /* \"#utility.yul\":11754:11809   */\n      iszero\n      tag_510\n      jumpi\n        /* \"#utility.yul\":11805:11806   */\n      0x00\n        /* \"#utility.yul\":11802:11803   */\n      dup1\n        /* \"#utility.yul\":11795:11807   */\n      revert\n        /* \"#utility.yul\":11754:11809   */\n    tag_510:\n        /* \"#utility.yul\":11818:11895   */\n      tag_511\n        /* \"#utility.yul\":11892:11894   */\n      dup3\n        /* \"#utility.yul\":11885:11889   */\n      0x20\n        /* \"#utility.yul\":11876:11883   */\n      dup4\n        /* \"#utility.yul\":11872:11890   */\n      add\n        /* \"#utility.yul\":11865:11869   */\n      0x20\n        /* \"#utility.yul\":11857:11863   */\n      dup8\n        /* \"#utility.yul\":11853:11870   */\n      add\n        /* \"#utility.yul\":11818:11895   */\n      tag_389\n      jump\t// in\n    tag_511:\n        /* \"#utility.yul\":11913:11920   */\n      swap5\n        /* \"#utility.yul\":11484:11926   */\n      swap4\n      pop\n      pop\n      pop\n      pop\n      jump\t// out\n        /* \"#utility.yul\":11931:12069   */\n    tag_393:\n        /* \"#utility.yul\":12010:12023   */\n      dup1\n      mload\n        /* \"#utility.yul\":12032:12063   */\n      tag_513\n        /* \"#utility.yul\":12010:12023   */\n      dup2\n        /* \"#utility.yul\":12032:12063   */\n      tag_385\n      jump\t// in\n    tag_513:\n        /* \"#utility.yul\":11931:12069   */\n      swap2\n      swap1\n      pop\n      jump\t// out\n        /* \"#utility.yul\":12074:12739   */\n    tag_394:\n        /* \"#utility.yul\":12139:12144   */\n      0x00\n        /* \"#utility.yul\":12192:12195   */\n      dup3\n        /* \"#utility.yul\":12185:12189   */\n      0x1f\n        /* \"#utility.yul\":12177:12183   */\n      dup4\n        /* \"#utility.yul\":12173:12190   */\n      add\n        /* \"#utility.yul\":12169:12196   */\n      slt\n        /* \"#utility.yul\":12159:12214   */\n      tag_515\n      jumpi\n        /* \"#utility.yul\":12210:12211   */\n      0x00\n        /* \"#utility.yul\":12207:12208   */\n      dup1\n        /* \"#utility.yul\":12200:12212   */\n      revert\n        /* \"#utility.yul\":12159:12214   */\n    tag_515:\n        /* \"#utility.yul\":12239:12245   */\n      dup2\n        /* \"#utility.yul\":12233:12246   */\n      mload\n        /* \"#utility.yul\":12265:12269   */\n      0x20\n        /* \"#utility.yul\":12289:12349   */\n      tag_516\n        /* \"#utility.yul\":12305:12348   */\n      tag_426\n        /* \"#utility.yul\":12345:12347   */\n      dup4\n        /* \"#utility.yul\":12305:12348   */\n      tag_384\n      jump\t// in\n        /* \"#utility.yul\":12289:12349   */\n    tag_516:\n        /* \"#utility.yul\":12371:12374   */\n      dup1\n        /* \"#utility.yul\":12395:12397   */\n      dup4\n        /* \"#utility.yul\":12390:12393   */\n      dup3\n        /* \"#utility.yul\":12383:12398   */\n      mstore\n        /* \"#utility.yul\":12423:12427   */\n      0x20\n        /* \"#utility.yul\":12418:12421   */\n      dup3\n        /* \"#utility.yul\":12414:12428   */\n      add\n        /* \"#utility.yul\":12407:12428   */\n      swap2\n      pop\n        /* \"#utility.yul\":12480:12484   */\n      0x20\n        /* \"#utility.yul\":12474:12476   */\n      dup5\n        /* \"#utility.yul\":12471:12472   */\n      0x05\n        /* \"#utility.yul\":12467:12477   */\n      shl\n        /* \"#utility.yul\":12459:12465   */\n      dup8\n        /* \"#utility.yul\":12455:12478   */\n      add\n        /* \"#utility.yul\":12451:12485   */\n      add\n        /* \"#utility.yul\":12437:12485   */\n      swap4\n      pop\n        /* \"#utility.yul\":12508:12511   */\n      dup7\n        /* \"#utility.yul\":12500:12506   */\n      dup5\n        /* \"#utility.yul\":12497:12512   */\n      gt\n        /* \"#utility.yul\":12494:12529   */\n      iszero\n      tag_518\n      jumpi\n        /* \"#utility.yul\":12525:12526   */\n      0x00\n        /* \"#utility.yul\":12522:12523   */\n      dup1\n        /* \"#utility.yul\":12515:12527   */\n      revert\n        /* \"#utility.yul\":12494:12529   */\n    tag_518:\n        /* \"#utility.yul\":12561:12565   */\n      0x20\n        /* \"#utility.yul\":12553:12559   */\n      dup7\n        /* \"#utility.yul\":12549:12566   */\n      add\n        /* \"#utility.yul\":12575:12710   */\n    tag_519:\n        /* \"#utility.yul\":12591:12597   */\n      dup5\n        /* \"#utility.yul\":12586:12589   */\n      dup2\n        /* \"#utility.yul\":12583:12598   */\n      lt\n        /* \"#utility.yul\":12575:12710   */\n      iszero\n      tag_430\n      jumpi\n        /* \"#utility.yul\":12657:12667   */\n      dup1\n      mload\n        /* \"#utility.yul\":12645:12668   */\n      dup4\n      mstore\n        /* \"#utility.yul\":12688:12700   */\n      swap2\n      dup4\n      add\n      swap2\n        /* \"#utility.yul\":12608:12620   */\n      dup4\n      add\n        /* \"#utility.yul\":12575:12710   */\n      jump(tag_519)\n        /* \"#utility.yul\":12744:13484   */\n    tag_395:\n        /* \"#utility.yul\":12809:12814   */\n      0x00\n        /* \"#utility.yul\":12862:12865   */\n      dup3\n        /* \"#utility.yul\":12855:12859   */\n      0x1f\n        /* \"#utility.yul\":12847:12853   */\n      dup4\n        /* \"#utility.yul\":12843:12860   */\n      add\n        /* \"#utility.yul\":12839:12866   */\n      slt\n        /* \"#utility.yul\":12829:12884   */\n      tag_523\n      jumpi\n        /* \"#utility.yul\":12880:12881   */\n      0x00\n        /* \"#utility.yul\":12877:12878   */\n      dup1\n        /* \"#utility.yul\":12870:12882   */\n      revert\n        /* \"#utility.yul\":12829:12884   */\n    tag_523:\n        /* \"#utility.yul\":12909:12915   */\n      dup2\n        /* \"#utility.yul\":12903:12916   */\n      mload\n        /* \"#utility.yul\":12935:12939   */\n      0x20\n        /* \"#utility.yul\":12959:13019   */\n      tag_524\n        /* \"#utility.yul\":12975:13018   */\n      tag_426\n        /* \"#utility.yul\":13015:13017   */\n      dup4\n        /* \"#utility.yul\":12975:13018   */\n      tag_384\n      jump\t// in\n        /* \"#utility.yul\":12959:13019   */\n    tag_524:\n        /* \"#utility.yul\":13041:13044   */\n      dup1\n        /* \"#utility.yul\":13065:13067   */\n      dup4\n        /* \"#utility.yul\":13060:13063   */\n      dup3\n        /* \"#utility.yul\":13053:13068   */\n      mstore\n        /* \"#utility.yul\":13093:13097   */\n      0x20\n        /* \"#utility.yul\":13088:13091   */\n      dup3\n        /* \"#utility.yul\":13084:13098   */\n      add\n        /* \"#utility.yul\":13077:13098   */\n      swap2\n      pop\n        /* \"#utility.yul\":13150:13154   */\n      0x20\n        /* \"#utility.yul\":13144:13146   */\n      dup5\n        /* \"#utility.yul\":13141:13142   */\n      0x05\n        /* \"#utility.yul\":13137:13147   */\n      shl\n        /* \"#utility.yul\":13129:13135   */\n      dup8\n        /* \"#utility.yul\":13125:13148   */\n      add\n        /* \"#utility.yul\":13121:13155   */\n      add\n        /* \"#utility.yul\":13107:13155   */\n      swap4\n      pop\n        /* \"#utility.yul\":13178:13181   */\n      dup7\n        /* \"#utility.yul\":13170:13176   */\n      dup5\n        /* \"#utility.yul\":13167:13182   */\n      gt\n        /* \"#utility.yul\":13164:13199   */\n      iszero\n      tag_526\n      jumpi\n        /* \"#utility.yul\":13195:13196   */\n      0x00\n        /* \"#utility.yul\":13192:13193   */\n      dup1\n        /* \"#utility.yul\":13185:13197   */\n      revert\n        /* \"#utility.yul\":13164:13199   */\n    tag_526:\n        /* \"#utility.yul\":13231:13235   */\n      0x20\n        /* \"#utility.yul\":13223:13229   */\n      dup7\n        /* \"#utility.yul\":13219:13236   */\n      add\n        /* \"#utility.yul\":13245:13455   */\n    tag_527:\n        /* \"#utility.yul\":13261:13267   */\n      dup5\n        /* \"#utility.yul\":13256:13259   */\n      dup2\n        /* \"#utility.yul\":13253:13268   */\n      lt\n        /* \"#utility.yul\":13245:13455   */\n      iszero\n      tag_430\n      jumpi\n        /* \"#utility.yul\":13334:13337   */\n      dup1\n        /* \"#utility.yul\":13328:13338   */\n      mload\n        /* \"#utility.yul\":13351:13382   */\n      tag_530\n        /* \"#utility.yul\":13376:13381   */\n      dup2\n        /* \"#utility.yul\":13351:13382   */\n      tag_385\n      jump\t// in\n    tag_530:\n        /* \"#utility.yul\":13395:13413   */\n      dup4\n      mstore\n        /* \"#utility.yul\":13433:13445   */\n      swap2\n      dup4\n      add\n      swap2\n        /* \"#utility.yul\":13278:13290   */\n      dup4\n      add\n        /* \"#utility.yul\":13245:13455   */\n      jump(tag_527)\n        /* \"#utility.yul\":13489:14771   */\n    tag_213:\n        /* \"#utility.yul\":13584:13590   */\n      0x00\n        /* \"#utility.yul\":13637:13639   */\n      0x20\n        /* \"#utility.yul\":13625:13634   */\n      dup3\n        /* \"#utility.yul\":13616:13623   */\n      dup5\n        /* \"#utility.yul\":13612:13635   */\n      sub\n        /* \"#utility.yul\":13608:13640   */\n      slt\n        /* \"#utility.yul\":13605:13657   */\n      iszero\n      tag_532\n      jumpi\n        /* \"#utility.yul\":13653:13654   */\n      0x00\n        /* \"#utility.yul\":13650:13651   */\n      dup1\n        /* \"#utility.yul\":13643:13655   */\n      revert\n        /* \"#utility.yul\":13605:13657   */\n    tag_532:\n        /* \"#utility.yul\":13686:13695   */\n      dup2\n        /* \"#utility.yul\":13680:13696   */\n      mload\n      sub(shl(0x40, 0x01), 0x01)\n        /* \"#utility.yul\":13756:13758   */\n      dup1\n        /* \"#utility.yul\":13748:13754   */\n      dup3\n        /* \"#utility.yul\":13745:13759   */\n      gt\n        /* \"#utility.yul\":13742:13776   */\n      iszero\n      tag_533\n      jumpi\n        /* \"#utility.yul\":13772:13773   */\n      0x00\n        /* \"#utility.yul\":13769:13770   */\n      dup1\n        /* \"#utility.yul\":13762:13774   */\n      revert\n        /* \"#utility.yul\":13742:13776   */\n    tag_533:\n        /* \"#utility.yul\":13795:13817   */\n      swap1\n      dup4\n      add\n      swap1\n        /* \"#utility.yul\":13851:13857   */\n      0x0100\n        /* \"#utility.yul\":13833:13849   */\n      dup3\n      dup7\n      sub\n        /* \"#utility.yul\":13829:13858   */\n      slt\n        /* \"#utility.yul\":13826:13875   */\n      iszero\n      tag_534\n      jumpi\n        /* \"#utility.yul\":13871:13872   */\n      0x00\n        /* \"#utility.yul\":13868:13869   */\n      dup1\n        /* \"#utility.yul\":13861:13873   */\n      revert\n        /* \"#utility.yul\":13826:13875   */\n    tag_534:\n        /* \"#utility.yul\":13897:13919   */\n      tag_535\n      tag_379\n      jump\t// in\n    tag_535:\n        /* \"#utility.yul\":13948:13950   */\n      dup3\n        /* \"#utility.yul\":13942:13951   */\n      mload\n        /* \"#utility.yul\":13935:13940   */\n      dup2\n        /* \"#utility.yul\":13928:13952   */\n      mstore\n        /* \"#utility.yul\":13991:13993   */\n      0x20\n        /* \"#utility.yul\":13987:13989   */\n      dup4\n        /* \"#utility.yul\":13983:13994   */\n      add\n        /* \"#utility.yul\":13977:13995   */\n      mload\n        /* \"#utility.yul\":14020:14022   */\n      dup3\n        /* \"#utility.yul\":14010:14018   */\n      dup2\n        /* \"#utility.yul\":14007:14023   */\n      gt\n        /* \"#utility.yul\":14004:14040   */\n      iszero\n      tag_536\n      jumpi\n        /* \"#utility.yul\":14036:14037   */\n      0x00\n        /* \"#utility.yul\":14033:14034   */\n      dup1\n        /* \"#utility.yul\":14026:14038   */\n      revert\n        /* \"#utility.yul\":14004:14040   */\n    tag_536:\n        /* \"#utility.yul\":14072:14128   */\n      tag_537\n        /* \"#utility.yul\":14120:14127   */\n      dup8\n        /* \"#utility.yul\":14109:14117   */\n      dup3\n        /* \"#utility.yul\":14105:14107   */\n      dup7\n        /* \"#utility.yul\":14101:14118   */\n      add\n        /* \"#utility.yul\":14072:14128   */\n      tag_392\n      jump\t// in\n    tag_537:\n        /* \"#utility.yul\":14067:14069   */\n      0x20\n        /* \"#utility.yul\":14060:14065   */\n      dup4\n        /* \"#utility.yul\":14056:14070   */\n      add\n        /* \"#utility.yul\":14049:14129   */\n      mstore\n      pop\n        /* \"#utility.yul\":14175:14177   */\n      0x40\n        /* \"#utility.yul\":14171:14173   */\n      dup4\n        /* \"#utility.yul\":14167:14178   */\n      add\n        /* \"#utility.yul\":14161:14179   */\n      mload\n        /* \"#utility.yul\":14156:14158   */\n      0x40\n        /* \"#utility.yul\":14149:14154   */\n      dup3\n        /* \"#utility.yul\":14145:14159   */\n      add\n        /* \"#utility.yul\":14138:14180   */\n      mstore\n        /* \"#utility.yul\":14226:14228   */\n      0x60\n        /* \"#utility.yul\":14222:14224   */\n      dup4\n        /* \"#utility.yul\":14218:14229   */\n      add\n        /* \"#utility.yul\":14212:14230   */\n      mload\n        /* \"#utility.yul\":14207:14209   */\n      0x60\n        /* \"#utility.yul\":14200:14205   */\n      dup3\n        /* \"#utility.yul\":14196:14210   */\n      add\n        /* \"#utility.yul\":14189:14231   */\n      mstore\n        /* \"#utility.yul\":14264:14307   */\n      tag_538\n        /* \"#utility.yul\":14302:14305   */\n      0x80\n        /* \"#utility.yul\":14298:14300   */\n      dup5\n        /* \"#utility.yul\":14294:14306   */\n      add\n        /* \"#utility.yul\":14264:14307   */\n      tag_393\n      jump\t// in\n    tag_538:\n        /* \"#utility.yul\":14258:14261   */\n      0x80\n        /* \"#utility.yul\":14251:14256   */\n      dup3\n        /* \"#utility.yul\":14247:14262   */\n      add\n        /* \"#utility.yul\":14240:14308   */\n      mstore\n        /* \"#utility.yul\":14355:14358   */\n      0xa0\n        /* \"#utility.yul\":14351:14353   */\n      dup4\n        /* \"#utility.yul\":14347:14359   */\n      add\n        /* \"#utility.yul\":14341:14360   */\n      mload\n        /* \"#utility.yul\":14335:14338   */\n      0xa0\n        /* \"#utility.yul\":14328:14333   */\n      dup3\n        /* \"#utility.yul\":14324:14339   */\n      add\n        /* \"#utility.yul\":14317:14361   */\n      mstore\n        /* \"#utility.yul\":14400:14403   */\n      0xc0\n        /* \"#utility.yul\":14396:14398   */\n      dup4\n        /* \"#utility.yul\":14392:14404   */\n      add\n        /* \"#utility.yul\":14386:14405   */\n      mload\n        /* \"#utility.yul\":14430:14432   */\n      dup3\n        /* \"#utility.yul\":14420:14428   */\n      dup2\n        /* \"#utility.yul\":14417:14433   */\n      gt\n        /* \"#utility.yul\":14414:14450   */\n      iszero\n      tag_539\n      jumpi\n        /* \"#utility.yul\":14446:14447   */\n      0x00\n        /* \"#utility.yul\":14443:14444   */\n      dup1\n        /* \"#utility.yul\":14436:14448   */\n      revert\n        /* \"#utility.yul\":14414:14450   */\n    tag_539:\n        /* \"#utility.yul\":14483:14550   */\n      tag_540\n        /* \"#utility.yul\":14542:14549   */\n      dup8\n        /* \"#utility.yul\":14531:14539   */\n      dup3\n        /* \"#utility.yul\":14527:14529   */\n      dup7\n        /* \"#utility.yul\":14523:14540   */\n      add\n        /* \"#utility.yul\":14483:14550   */\n      tag_394\n      jump\t// in\n    tag_540:\n        /* \"#utility.yul\":14477:14480   */\n      0xc0\n        /* \"#utility.yul\":14470:14475   */\n      dup4\n        /* \"#utility.yul\":14466:14481   */\n      add\n        /* \"#utility.yul\":14459:14551   */\n      mstore\n      pop\n        /* \"#utility.yul\":14590:14593   */\n      0xe0\n        /* \"#utility.yul\":14586:14588   */\n      dup4\n        /* \"#utility.yul\":14582:14594   */\n      add\n        /* \"#utility.yul\":14576:14595   */\n      mload\n        /* \"#utility.yul\":14620:14622   */\n      dup3\n        /* \"#utility.yul\":14610:14618   */\n      dup2\n        /* \"#utility.yul\":14607:14623   */\n      gt\n        /* \"#utility.yul\":14604:14640   */\n      iszero\n      tag_541\n      jumpi\n        /* \"#utility.yul\":14636:14637   */\n      0x00\n        /* \"#utility.yul\":14633:14634   */\n      dup1\n        /* \"#utility.yul\":14626:14638   */\n      revert\n        /* \"#utility.yul\":14604:14640   */\n    tag_541:\n        /* \"#utility.yul\":14673:14740   */\n      tag_542\n        /* \"#utility.yul\":14732:14739   */\n      dup8\n        /* \"#utility.yul\":14721:14729   */\n      dup3\n        /* \"#utility.yul\":14717:14719   */\n      dup7\n        /* \"#utility.yul\":14713:14730   */\n      add\n        /* \"#utility.yul\":14673:14740   */\n      tag_395\n      jump\t// in\n    tag_542:\n        /* \"#utility.yul\":14667:14670   */\n      0xe0\n        /* \"#utility.yul\":14656:14671   */\n      dup4\n      add\n        /* \"#utility.yul\":14649:14741   */\n      mstore\n      pop\n        /* \"#utility.yul\":14660:14665   */\n      swap6\n        /* \"#utility.yul\":13489:14771   */\n      swap5\n      pop\n      pop\n      pop\n      pop\n      pop\n      jump\t// out\n        /* \"#utility.yul\":15543:15671   */\n    tag_227:\n        /* \"#utility.yul\":15610:15619   */\n      dup2\n      dup2\n      sub\n        /* \"#utility.yul\":15631:15642   */\n      dup2\n      dup2\n      gt\n        /* \"#utility.yul\":15628:15665   */\n      iszero\n      tag_133\n      jumpi\n        /* \"#utility.yul\":15645:15663   */\n      tag_133\n      tag_391\n      jump\t// in\n        /* \"#utility.yul\":16085:16269   */\n    tag_237:\n        /* \"#utility.yul\":16155:16161   */\n      0x00\n        /* \"#utility.yul\":16208:16210   */\n      0x20\n        /* \"#utility.yul\":16196:16205   */\n      dup3\n        /* \"#utility.yul\":16187:16194   */\n      dup5\n        /* \"#utility.yul\":16183:16206   */\n      sub\n        /* \"#utility.yul\":16179:16211   */\n      slt\n        /* \"#utility.yul\":16176:16228   */\n      iszero\n      tag_550\n      jumpi\n        /* \"#utility.yul\":16224:16225   */\n      0x00\n        /* \"#utility.yul\":16221:16222   */\n      dup1\n        /* \"#utility.yul\":16214:16226   */\n      revert\n        /* \"#utility.yul\":16176:16228   */\n    tag_550:\n      pop\n        /* \"#utility.yul\":16247:16263   */\n      mload\n      swap2\n        /* \"#utility.yul\":16085:16269   */\n      swap1\n      pop\n      jump\t// out\n        /* \"#utility.yul\":16629:16880   */\n    tag_245:\n        /* \"#utility.yul\":16699:16705   */\n      0x00\n        /* \"#utility.yul\":16752:16754   */\n      0x20\n        /* \"#utility.yul\":16740:16749   */\n      dup3\n        /* \"#utility.yul\":16731:16738   */\n      dup5\n        /* \"#utility.yul\":16727:16750   */\n      sub\n        /* \"#utility.yul\":16723:16755   */\n      slt\n        /* \"#utility.yul\":16720:16772   */\n      iszero\n      tag_553\n      jumpi\n        /* \"#utility.yul\":16768:16769   */\n      0x00\n        /* \"#utility.yul\":16765:16766   */\n      dup1\n        /* \"#utility.yul\":16758:16770   */\n      revert\n        /* \"#utility.yul\":16720:16772   */\n    tag_553:\n        /* \"#utility.yul\":16800:16809   */\n      dup2\n        /* \"#utility.yul\":16794:16810   */\n      mload\n        /* \"#utility.yul\":16819:16850   */\n      tag_292\n        /* \"#utility.yul\":16844:16849   */\n      dup2\n        /* \"#utility.yul\":16819:16850   */\n      tag_385\n      jump\t// in\n        /* \"#utility.yul\":17164:17441   */\n    tag_251:\n        /* \"#utility.yul\":17231:17237   */\n      0x00\n        /* \"#utility.yul\":17284:17286   */\n      0x20\n        /* \"#utility.yul\":17272:17281   */\n      dup3\n        /* \"#utility.yul\":17263:17270   */\n      dup5\n        /* \"#utility.yul\":17259:17282   */\n      sub\n        /* \"#utility.yul\":17255:17287   */\n      slt\n        /* \"#utility.yul\":17252:17304   */\n      iszero\n      tag_557\n      jumpi\n        /* \"#utility.yul\":17300:17301   */\n      0x00\n        /* \"#utility.yul\":17297:17298   */\n      dup1\n        /* \"#utility.yul\":17290:17302   */\n      revert\n        /* \"#utility.yul\":17252:17304   */\n    tag_557:\n        /* \"#utility.yul\":17332:17341   */\n      dup2\n        /* \"#utility.yul\":17326:17342   */\n      mload\n        /* \"#utility.yul\":17385:17390   */\n      dup1\n        /* \"#utility.yul\":17378:17391   */\n      iszero\n        /* \"#utility.yul\":17371:17392   */\n      iszero\n        /* \"#utility.yul\":17364:17369   */\n      dup2\n        /* \"#utility.yul\":17361:17393   */\n      eq\n        /* \"#utility.yul\":17351:17411   */\n      tag_292\n      jumpi\n        /* \"#utility.yul\":17407:17408   */\n      0x00\n        /* \"#utility.yul\":17404:17405   */\n      dup1\n        /* \"#utility.yul\":17397:17409   */\n      revert\n        /* \"#utility.yul\":17446:18375   */\n    tag_396:\n        /* \"#utility.yul\":17515:17520   */\n      0x00\n        /* \"#utility.yul\":17563:17567   */\n      0x80\n        /* \"#utility.yul\":17551:17560   */\n      dup3\n        /* \"#utility.yul\":17546:17549   */\n      dup5\n        /* \"#utility.yul\":17542:17561   */\n      sub\n        /* \"#utility.yul\":17538:17568   */\n      slt\n        /* \"#utility.yul\":17535:17585   */\n      iszero\n      tag_560\n      jumpi\n        /* \"#utility.yul\":17581:17582   */\n      0x00\n        /* \"#utility.yul\":17578:17579   */\n      dup1\n        /* \"#utility.yul\":17571:17583   */\n      revert\n        /* \"#utility.yul\":17535:17585   */\n    tag_560:\n        /* \"#utility.yul\":17603:17625   */\n      tag_561\n      tag_380\n      jump\t// in\n    tag_561:\n        /* \"#utility.yul\":17594:17625   */\n      swap1\n      pop\n        /* \"#utility.yul\":17654:17663   */\n      dup2\n        /* \"#utility.yul\":17648:17664   */\n      mload\n        /* \"#utility.yul\":17641:17646   */\n      dup2\n        /* \"#utility.yul\":17634:17665   */\n      mstore\n        /* \"#utility.yul\":17718:17720   */\n      0x20\n        /* \"#utility.yul\":17707:17716   */\n      dup3\n        /* \"#utility.yul\":17703:17721   */\n      add\n        /* \"#utility.yul\":17697:17722   */\n      mload\n        /* \"#utility.yul\":17692:17694   */\n      0x20\n        /* \"#utility.yul\":17685:17690   */\n      dup3\n        /* \"#utility.yul\":17681:17695   */\n      add\n        /* \"#utility.yul\":17674:17723   */\n      mstore\n        /* \"#utility.yul\":17768:17770   */\n      0x40\n        /* \"#utility.yul\":17757:17766   */\n      dup3\n        /* \"#utility.yul\":17753:17771   */\n      add\n        /* \"#utility.yul\":17747:17772   */\n      mload\n        /* \"#utility.yul\":17781:17814   */\n      tag_562\n        /* \"#utility.yul\":17806:17813   */\n      dup2\n        /* \"#utility.yul\":17781:17814   */\n      tag_385\n      jump\t// in\n    tag_562:\n        /* \"#utility.yul\":17841:17843   */\n      0x40\n        /* \"#utility.yul\":17830:17844   */\n      dup3\n      add\n        /* \"#utility.yul\":17823:17854   */\n      mstore\n        /* \"#utility.yul\":17898:17900   */\n      0x60\n        /* \"#utility.yul\":17883:17901   */\n      dup3\n      add\n        /* \"#utility.yul\":17877:17902   */\n      mload\n      sub(shl(0x40, 0x01), 0x01)\n        /* \"#utility.yul\":17951:17965   */\n      dup1\n      dup3\n      gt\n        /* \"#utility.yul\":17948:17982   */\n      iszero\n      tag_563\n      jumpi\n        /* \"#utility.yul\":17978:17979   */\n      0x00\n        /* \"#utility.yul\":17975:17976   */\n      dup1\n        /* \"#utility.yul\":17968:17980   */\n      revert\n        /* \"#utility.yul\":17948:17982   */\n    tag_563:\n        /* \"#utility.yul\":18001:18023   */\n      swap1\n      dup4\n      add\n      swap1\n        /* \"#utility.yul\":18053:18055   */\n      0x40\n        /* \"#utility.yul\":18039:18051   */\n      dup3\n      dup7\n      sub\n        /* \"#utility.yul\":18035:18056   */\n      slt\n        /* \"#utility.yul\":18032:18073   */\n      iszero\n      tag_564\n      jumpi\n        /* \"#utility.yul\":18069:18070   */\n      0x00\n        /* \"#utility.yul\":18066:18067   */\n      dup1\n        /* \"#utility.yul\":18059:18071   */\n      revert\n        /* \"#utility.yul\":18032:18073   */\n    tag_564:\n        /* \"#utility.yul\":18097:18119   */\n      tag_565\n      tag_381\n      jump\t// in\n    tag_565:\n        /* \"#utility.yul\":18150:18152   */\n      dup3\n        /* \"#utility.yul\":18144:18153   */\n      mload\n        /* \"#utility.yul\":18135:18142   */\n      dup2\n        /* \"#utility.yul\":18128:18154   */\n      mstore\n        /* \"#utility.yul\":18193:18195   */\n      0x20\n        /* \"#utility.yul\":18189:18191   */\n      dup4\n        /* \"#utility.yul\":18185:18196   */\n      add\n        /* \"#utility.yul\":18179:18197   */\n      mload\n        /* \"#utility.yul\":18222:18224   */\n      dup3\n        /* \"#utility.yul\":18212:18220   */\n      dup2\n        /* \"#utility.yul\":18209:18225   */\n      gt\n        /* \"#utility.yul\":18206:18242   */\n      iszero\n      tag_566\n      jumpi\n        /* \"#utility.yul\":18238:18239   */\n      0x00\n        /* \"#utility.yul\":18235:18236   */\n      dup1\n        /* \"#utility.yul\":18228:18240   */\n      revert\n        /* \"#utility.yul\":18206:18242   */\n    tag_566:\n        /* \"#utility.yul\":18276:18328   */\n      tag_567\n        /* \"#utility.yul\":18324:18327   */\n      dup8\n        /* \"#utility.yul\":18313:18321   */\n      dup3\n        /* \"#utility.yul\":18309:18311   */\n      dup7\n        /* \"#utility.yul\":18305:18322   */\n      add\n        /* \"#utility.yul\":18276:18328   */\n      tag_392\n      jump\t// in\n    tag_567:\n        /* \"#utility.yul\":18271:18273   */\n      0x20\n        /* \"#utility.yul\":18258:18274   */\n      dup4\n      add\n        /* \"#utility.yul\":18251:18329   */\n      mstore\n      pop\n        /* \"#utility.yul\":18356:18358   */\n      0x60\n        /* \"#utility.yul\":18345:18359   */\n      dup5\n      add\n        /* \"#utility.yul\":18338:18369   */\n      mstore\n      pop\n        /* \"#utility.yul\":18349:18354   */\n      swap1\n      swap4\n        /* \"#utility.yul\":17446:18375   */\n      swap3\n      pop\n      pop\n      pop\n      jump\t// out\n        /* \"#utility.yul\":18380:20503   */\n    tag_255:\n        /* \"#utility.yul\":18509:18515   */\n      0x00\n        /* \"#utility.yul\":18540:18542   */\n      0x20\n        /* \"#utility.yul\":18583:18585   */\n      dup1\n        /* \"#utility.yul\":18571:18580   */\n      dup4\n        /* \"#utility.yul\":18562:18569   */\n      dup6\n        /* \"#utility.yul\":18558:18581   */\n      sub\n        /* \"#utility.yul\":18554:18586   */\n      slt\n        /* \"#utility.yul\":18551:18603   */\n      iszero\n      tag_569\n      jumpi\n        /* \"#utility.yul\":18599:18600   */\n      0x00\n        /* \"#utility.yul\":18596:18597   */\n      dup1\n        /* \"#utility.yul\":18589:18601   */\n      revert\n        /* \"#utility.yul\":18551:18603   */\n    tag_569:\n        /* \"#utility.yul\":18632:18641   */\n      dup3\n        /* \"#utility.yul\":18626:18642   */\n      mload\n      sub(shl(0x40, 0x01), 0x01)\n        /* \"#utility.yul\":18702:18704   */\n      dup1\n        /* \"#utility.yul\":18694:18700   */\n      dup3\n        /* \"#utility.yul\":18691:18705   */\n      gt\n        /* \"#utility.yul\":18688:18722   */\n      iszero\n      tag_570\n      jumpi\n        /* \"#utility.yul\":18718:18719   */\n      0x00\n        /* \"#utility.yul\":18715:18716   */\n      dup1\n        /* \"#utility.yul\":18708:18720   */\n      revert\n        /* \"#utility.yul\":18688:18722   */\n    tag_570:\n        /* \"#utility.yul\":18756:18762   */\n      dup2\n        /* \"#utility.yul\":18745:18754   */\n      dup6\n        /* \"#utility.yul\":18741:18763   */\n      add\n        /* \"#utility.yul\":18731:18763   */\n      swap2\n      pop\n        /* \"#utility.yul\":18801:18808   */\n      dup6\n        /* \"#utility.yul\":18794:18798   */\n      0x1f\n        /* \"#utility.yul\":18790:18792   */\n      dup4\n        /* \"#utility.yul\":18786:18799   */\n      add\n        /* \"#utility.yul\":18782:18809   */\n      slt\n        /* \"#utility.yul\":18772:18827   */\n      tag_571\n      jumpi\n        /* \"#utility.yul\":18823:18824   */\n      0x00\n        /* \"#utility.yul\":18820:18821   */\n      dup1\n        /* \"#utility.yul\":18813:18825   */\n      revert\n        /* \"#utility.yul\":18772:18827   */\n    tag_571:\n        /* \"#utility.yul\":18852:18854   */\n      dup2\n        /* \"#utility.yul\":18846:18855   */\n      mload\n        /* \"#utility.yul\":18875:18935   */\n      tag_572\n        /* \"#utility.yul\":18891:18934   */\n      tag_426\n        /* \"#utility.yul\":18931:18933   */\n      dup3\n        /* \"#utility.yul\":18891:18934   */\n      tag_384\n      jump\t// in\n        /* \"#utility.yul\":18875:18935   */\n    tag_572:\n        /* \"#utility.yul\":18969:18984   */\n      dup2\n      dup2\n      mstore\n        /* \"#utility.yul\":19051:19052   */\n      0x05\n        /* \"#utility.yul\":19047:19057   */\n      swap2\n      swap1\n      swap2\n      shl\n        /* \"#utility.yul\":19039:19058   */\n      dup4\n      add\n        /* \"#utility.yul\":19035:19063   */\n      dup5\n      add\n      swap1\n        /* \"#utility.yul\":19000:19012   */\n      dup5\n      dup2\n      add\n      swap1\n        /* \"#utility.yul\":19075:19094   */\n      dup9\n      dup4\n      gt\n        /* \"#utility.yul\":19072:19111   */\n      iszero\n      tag_574\n      jumpi\n        /* \"#utility.yul\":19107:19108   */\n      0x00\n        /* \"#utility.yul\":19104:19105   */\n      dup1\n        /* \"#utility.yul\":19097:19109   */\n      revert\n        /* \"#utility.yul\":19072:19111   */\n    tag_574:\n        /* \"#utility.yul\":19139:19141   */\n      dup6\n        /* \"#utility.yul\":19135:19137   */\n      dup6\n        /* \"#utility.yul\":19131:19142   */\n      add\n        /* \"#utility.yul\":19151:20473   */\n    tag_575:\n        /* \"#utility.yul\":19167:19173   */\n      dup4\n        /* \"#utility.yul\":19162:19165   */\n      dup2\n        /* \"#utility.yul\":19159:19174   */\n      lt\n        /* \"#utility.yul\":19151:20473   */\n      iszero\n      tag_577\n      jumpi\n        /* \"#utility.yul\":19246:19249   */\n      dup1\n        /* \"#utility.yul\":19240:19250   */\n      mload\n        /* \"#utility.yul\":19282:19284   */\n      dup6\n        /* \"#utility.yul\":19269:19280   */\n      dup2\n        /* \"#utility.yul\":19266:19285   */\n      gt\n        /* \"#utility.yul\":19263:19372   */\n      iszero\n      tag_578\n      jumpi\n        /* \"#utility.yul\":19326:19327   */\n      0x00\n        /* \"#utility.yul\":19355:19357   */\n      dup1\n        /* \"#utility.yul\":19351:19353   */\n      dup2\n        /* \"#utility.yul\":19344:19358   */\n      revert\n        /* \"#utility.yul\":19263:19372   */\n    tag_578:\n        /* \"#utility.yul\":19395:19415   */\n      dup7\n      add\n        /* \"#utility.yul\":19438:19442   */\n      0xe0\n        /* \"#utility.yul\":19466:19482   */\n      dup2\n      dup13\n      sub\n      not(0x1f)\n        /* \"#utility.yul\":19462:19492   */\n      add\n        /* \"#utility.yul\":19458:19497   */\n      dup2\n      sgt\n        /* \"#utility.yul\":19455:19584   */\n      iszero\n      tag_579\n      jumpi\n        /* \"#utility.yul\":19538:19539   */\n      0x00\n        /* \"#utility.yul\":19567:19569   */\n      dup1\n        /* \"#utility.yul\":19563:19565   */\n      dup2\n        /* \"#utility.yul\":19556:19570   */\n      revert\n        /* \"#utility.yul\":19455:19584   */\n    tag_579:\n        /* \"#utility.yul\":19610:19632   */\n      tag_580\n      tag_382\n      jump\t// in\n    tag_580:\n        /* \"#utility.yul\":19673:19675   */\n      dup10\n        /* \"#utility.yul\":19669:19671   */\n      dup4\n        /* \"#utility.yul\":19665:19676   */\n      add\n        /* \"#utility.yul\":19659:19677   */\n      mload\n        /* \"#utility.yul\":19652:19657   */\n      dup2\n        /* \"#utility.yul\":19645:19678   */\n      mstore\n        /* \"#utility.yul\":19701:19703   */\n      0x40\n        /* \"#utility.yul\":19746:19748   */\n      dup1\n        /* \"#utility.yul\":19742:19744   */\n      dup5\n        /* \"#utility.yul\":19738:19749   */\n      add\n        /* \"#utility.yul\":19732:19750   */\n      mload\n        /* \"#utility.yul\":19779:19781   */\n      dup10\n        /* \"#utility.yul\":19769:19777   */\n      dup2\n        /* \"#utility.yul\":19766:19782   */\n      gt\n        /* \"#utility.yul\":19763:19872   */\n      iszero\n      tag_581\n      jumpi\n        /* \"#utility.yul\":19824:19825   */\n      0x00\n        /* \"#utility.yul\":19854:19857   */\n      dup1\n        /* \"#utility.yul\":19849:19852   */\n      dup2\n        /* \"#utility.yul\":19842:19858   */\n      revert\n        /* \"#utility.yul\":19763:19872   */\n    tag_581:\n        /* \"#utility.yul\":19908:19985   */\n      tag_582\n        /* \"#utility.yul\":19977:19984   */\n      dup16\n        /* \"#utility.yul\":19972:19974   */\n      dup14\n        /* \"#utility.yul\":19961:19969   */\n      dup4\n        /* \"#utility.yul\":19957:19959   */\n      dup9\n        /* \"#utility.yul\":19953:19970   */\n      add\n        /* \"#utility.yul\":19949:19975   */\n      add\n        /* \"#utility.yul\":19908:19985   */\n      tag_396\n      jump\t// in\n    tag_582:\n        /* \"#utility.yul\":19903:19905   */\n      dup13\n        /* \"#utility.yul\":19896:19901   */\n      dup5\n        /* \"#utility.yul\":19892:19906   */\n      add\n        /* \"#utility.yul\":19885:19986   */\n      mstore\n      pop\n        /* \"#utility.yul\":20010:20012   */\n      0x60\n        /* \"#utility.yul\":20062:20065   */\n      dup1\n        /* \"#utility.yul\":20058:20060   */\n      dup6\n        /* \"#utility.yul\":20054:20066   */\n      add\n        /* \"#utility.yul\":20048:20067   */\n      mload\n        /* \"#utility.yul\":20043:20045   */\n      dup3\n        /* \"#utility.yul\":20036:20041   */\n      dup5\n        /* \"#utility.yul\":20032:20046   */\n      add\n        /* \"#utility.yul\":20025:20068   */\n      mstore\n        /* \"#utility.yul\":20092:20095   */\n      0x80\n        /* \"#utility.yul\":20081:20095   */\n      swap2\n      pop\n        /* \"#utility.yul\":20146:20149   */\n      dup2\n        /* \"#utility.yul\":20142:20144   */\n      dup6\n        /* \"#utility.yul\":20138:20150   */\n      add\n        /* \"#utility.yul\":20132:20151   */\n      mload\n        /* \"#utility.yul\":20126:20129   */\n      dup2\n        /* \"#utility.yul\":20119:20124   */\n      dup5\n        /* \"#utility.yul\":20115:20130   */\n      add\n        /* \"#utility.yul\":20108:20152   */\n      mstore\n      pop\n        /* \"#utility.yul\":20176:20179   */\n      0xa0\n        /* \"#utility.yul\":20230:20233   */\n      dup1\n        /* \"#utility.yul\":20226:20228   */\n      dup6\n        /* \"#utility.yul\":20222:20234   */\n      add\n        /* \"#utility.yul\":20216:20235   */\n      mload\n        /* \"#utility.yul\":20210:20213   */\n      dup3\n        /* \"#utility.yul\":20203:20208   */\n      dup5\n        /* \"#utility.yul\":20199:20214   */\n      add\n        /* \"#utility.yul\":20192:20236   */\n      mstore\n        /* \"#utility.yul\":20260:20263   */\n      0xc0\n        /* \"#utility.yul\":20249:20263   */\n      swap2\n      pop\n        /* \"#utility.yul\":20314:20317   */\n      dup2\n        /* \"#utility.yul\":20310:20312   */\n      dup6\n        /* \"#utility.yul\":20306:20318   */\n      add\n        /* \"#utility.yul\":20300:20319   */\n      mload\n        /* \"#utility.yul\":20294:20297   */\n      dup2\n        /* \"#utility.yul\":20287:20292   */\n      dup5\n        /* \"#utility.yul\":20283:20298   */\n      add\n        /* \"#utility.yul\":20276:20320   */\n      mstore\n      pop\n        /* \"#utility.yul\":20357:20399   */\n      tag_583\n        /* \"#utility.yul\":20395:20397   */\n      dup4\n        /* \"#utility.yul\":20391:20393   */\n      dup6\n        /* \"#utility.yul\":20387:20398   */\n      add\n        /* \"#utility.yul\":20357:20399   */\n      tag_393\n      jump\t// in\n    tag_583:\n        /* \"#utility.yul\":20340:20355   */\n      swap1\n      dup3\n      add\n        /* \"#utility.yul\":20333:20400   */\n      mstore\n        /* \"#utility.yul\":20413:20431   */\n      dup6\n      mstore\n      pop\n      pop\n        /* \"#utility.yul\":20451:20463   */\n      swap2\n      dup7\n      add\n      swap2\n        /* \"#utility.yul\":19184:19196   */\n      dup7\n      add\n        /* \"#utility.yul\":19151:20473   */\n      jump(tag_575)\n    tag_577:\n      pop\n        /* \"#utility.yul\":20492:20497   */\n      swap9\n        /* \"#utility.yul\":18380:20503   */\n      swap8\n      pop\n      pop\n      pop\n      pop\n      pop\n      pop\n      pop\n      pop\n      jump\t// out\n        /* \"#utility.yul\":21117:21540   */\n    tag_281:\n        /* \"#utility.yul\":21222:21228   */\n      0x00\n        /* \"#utility.yul\":21275:21277   */\n      0x40\n        /* \"#utility.yul\":21263:21272   */\n      dup3\n        /* \"#utility.yul\":21254:21261   */\n      dup5\n        /* \"#utility.yul\":21250:21273   */\n      sub\n        /* \"#utility.yul\":21246:21278   */\n      slt\n        /* \"#utility.yul\":21243:21295   */\n      iszero\n      tag_589\n      jumpi\n        /* \"#utility.yul\":21291:21292   */\n      0x00\n        /* \"#utility.yul\":21288:21289   */\n      dup1\n        /* \"#utility.yul\":21281:21293   */\n      revert\n        /* \"#utility.yul\":21243:21295   */\n    tag_589:\n        /* \"#utility.yul\":21317:21339   */\n      tag_590\n      tag_381\n      jump\t// in\n    tag_590:\n        /* \"#utility.yul\":21369:21378   */\n      dup3\n        /* \"#utility.yul\":21363:21379   */\n      mload\n        /* \"#utility.yul\":21388:21421   */\n      tag_591\n        /* \"#utility.yul\":21413:21420   */\n      dup2\n        /* \"#utility.yul\":21388:21421   */\n      tag_385\n      jump\t// in\n    tag_591:\n        /* \"#utility.yul\":21430:21452   */\n      dup2\n      mstore\n        /* \"#utility.yul\":21505:21507   */\n      0x20\n        /* \"#utility.yul\":21490:21508   */\n      swap3\n      dup4\n      add\n        /* \"#utility.yul\":21484:21509   */\n      mload\n        /* \"#utility.yul\":21468:21482   */\n      swap3\n      dup2\n      add\n        /* \"#utility.yul\":21461:21510   */\n      swap3\n      swap1\n      swap3\n      mstore\n      pop\n        /* \"#utility.yul\":21437:21442   */\n      swap2\n        /* \"#utility.yul\":21117:21540   */\n      swap1\n      pop\n      jump\t// out\n        /* \"#utility.yul\":22973:23292   */\n    tag_365:\n        /* \"#utility.yul\":23162:23187   */\n      dup3\n      dup2\n      mstore\n        /* \"#utility.yul\":23150:23152   */\n      0x40\n        /* \"#utility.yul\":23135:23153   */\n      dup2\n      add\n        /* \"#utility.yul\":23217:23218   */\n      0x05\n        /* \"#utility.yul\":23206:23219   */\n      dup4\n      lt\n        /* \"#utility.yul\":23196:23243   */\n      tag_600\n      jumpi\n        /* \"#utility.yul\":23223:23241   */\n      tag_600\n      tag_390\n      jump\t// in\n    tag_600:\n        /* \"#utility.yul\":23279:23285   */\n      dup3\n        /* \"#utility.yul\":23274:23276   */\n      0x20\n        /* \"#utility.yul\":23263:23272   */\n      dup4\n        /* \"#utility.yul\":23259:23277   */\n      add\n        /* \"#utility.yul\":23252:23286   */\n      mstore\n        /* \"#utility.yul\":22973:23292   */\n      swap4\n      swap3\n      pop\n      pop\n      pop\n      jump\t// out\n        /* \"#utility.yul\":23297:23677   */\n    tag_397:\n        /* \"#utility.yul\":23376:23377   */\n      0x01\n        /* \"#utility.yul\":23372:23384   */\n      dup2\n      dup2\n      shr\n      swap1\n        /* \"#utility.yul\":23419:23431   */\n      dup3\n      and\n      dup1\n        /* \"#utility.yul\":23440:23501   */\n      tag_602\n      jumpi\n        /* \"#utility.yul\":23494:23498   */\n      0x7f\n        /* \"#utility.yul\":23486:23492   */\n      dup3\n        /* \"#utility.yul\":23482:23499   */\n      and\n        /* \"#utility.yul\":23472:23499   */\n      swap2\n      pop\n        /* \"#utility.yul\":23440:23501   */\n    tag_602:\n        /* \"#utility.yul\":23547:23549   */\n      0x20\n        /* \"#utility.yul\":23539:23545   */\n      dup3\n        /* \"#utility.yul\":23536:23550   */\n      lt\n        /* \"#utility.yul\":23516:23534   */\n      dup2\n        /* \"#utility.yul\":23513:23551   */\n      sub\n        /* \"#utility.yul\":23510:23671   */\n      tag_603\n      jumpi\n        /* \"#utility.yul\":23593:23603   */\n      0x4e487b71\n        /* \"#utility.yul\":23588:23591   */\n      0xe0\n        /* \"#utility.yul\":23584:23604   */\n      shl\n        /* \"#utility.yul\":23581:23582   */\n      0x00\n        /* \"#utility.yul\":23574:23605   */\n      mstore\n        /* \"#utility.yul\":23628:23632   */\n      0x22\n        /* \"#utility.yul\":23625:23626   */\n      0x04\n        /* \"#utility.yul\":23618:23633   */\n      mstore\n        /* \"#utility.yul\":23656:23660   */\n      0x24\n        /* \"#utility.yul\":23653:23654   */\n      0x00\n        /* \"#utility.yul\":23646:23661   */\n      revert\n        /* \"#utility.yul\":23510:23671   */\n    tag_603:\n      pop\n        /* \"#utility.yul\":23297:23677   */\n      swap2\n      swap1\n      pop\n      jump\t// out\n        /* \"#utility.yul\":23808:24351   */\n    tag_399:\n        /* \"#utility.yul\":23910:23912   */\n      0x1f\n        /* \"#utility.yul\":23905:23908   */\n      dup3\n        /* \"#utility.yul\":23902:23913   */\n      gt\n        /* \"#utility.yul\":23899:24345   */\n      iszero\n      tag_117\n      jumpi\n        /* \"#utility.yul\":23946:23947   */\n      0x00\n        /* \"#utility.yul\":23970:23975   */\n      dup2\n        /* \"#utility.yul\":23967:23968   */\n      0x00\n        /* \"#utility.yul\":23960:23976   */\n      mstore\n        /* \"#utility.yul\":24014:24018   */\n      0x20\n        /* \"#utility.yul\":24011:24012   */\n      0x00\n        /* \"#utility.yul\":24001:24019   */\n      keccak256\n        /* \"#utility.yul\":24084:24086   */\n      0x1f\n        /* \"#utility.yul\":24072:24082   */\n      dup6\n        /* \"#utility.yul\":24068:24087   */\n      add\n        /* \"#utility.yul\":24065:24066   */\n      0x05\n        /* \"#utility.yul\":24061:24088   */\n      shr\n        /* \"#utility.yul\":24055:24059   */\n      dup2\n        /* \"#utility.yul\":24051:24089   */\n      add\n        /* \"#utility.yul\":24120:24124   */\n      0x20\n        /* \"#utility.yul\":24108:24118   */\n      dup7\n        /* \"#utility.yul\":24105:24125   */\n      lt\n        /* \"#utility.yul\":24102:24149   */\n      iszero\n      tag_607\n      jumpi\n      pop\n        /* \"#utility.yul\":24143:24147   */\n      dup1\n        /* \"#utility.yul\":24102:24149   */\n    tag_607:\n        /* \"#utility.yul\":24198:24200   */\n      0x1f\n        /* \"#utility.yul\":24193:24196   */\n      dup6\n        /* \"#utility.yul\":24189:24201   */\n      add\n        /* \"#utility.yul\":24186:24187   */\n      0x05\n        /* \"#utility.yul\":24182:24202   */\n      shr\n        /* \"#utility.yul\":24176:24180   */\n      dup3\n        /* \"#utility.yul\":24172:24203   */\n      add\n        /* \"#utility.yul\":24162:24203   */\n      swap2\n      pop\n        /* \"#utility.yul\":24253:24335   */\n    tag_608:\n        /* \"#utility.yul\":24271:24273   */\n      dup2\n        /* \"#utility.yul\":24264:24269   */\n      dup2\n        /* \"#utility.yul\":24261:24274   */\n      lt\n        /* \"#utility.yul\":24253:24335   */\n      iszero\n      tag_610\n      jumpi\n        /* \"#utility.yul\":24316:24333   */\n      dup3\n      dup2\n      sstore\n        /* \"#utility.yul\":24297:24298   */\n      0x01\n        /* \"#utility.yul\":24286:24299   */\n      add\n        /* \"#utility.yul\":24253:24335   */\n      jump(tag_608)\n    tag_610:\n        /* \"#utility.yul\":24257:24260   */\n      pop\n      pop\n      pop\n        /* \"#utility.yul\":23808:24351   */\n      pop\n      pop\n      pop\n      jump\t// out\n        /* \"#utility.yul\":24527:25872   */\n    tag_372:\n        /* \"#utility.yul\":24653:24656   */\n      dup2\n        /* \"#utility.yul\":24647:24657   */\n      mload\n      sub(shl(0x40, 0x01), 0x01)\n        /* \"#utility.yul\":24672:24678   */\n      dup2\n        /* \"#utility.yul\":24669:24699   */\n      gt\n        /* \"#utility.yul\":24666:24722   */\n      iszero\n      tag_614\n      jumpi\n        /* \"#utility.yul\":24702:24720   */\n      tag_614\n      tag_148\n      jump\t// in\n    tag_614:\n        /* \"#utility.yul\":24731:24828   */\n      tag_615\n        /* \"#utility.yul\":24821:24827   */\n      dup2\n        /* \"#utility.yul\":24781:24819   */\n      tag_616\n        /* \"#utility.yul\":24813:24817   */\n      dup5\n        /* \"#utility.yul\":24807:24818   */\n      sload\n        /* \"#utility.yul\":24781:24819   */\n      tag_397\n      jump\t// in\n    tag_616:\n        /* \"#utility.yul\":24775:24779   */\n      dup5\n        /* \"#utility.yul\":24731:24828   */\n      tag_399\n      jump\t// in\n    tag_615:\n        /* \"#utility.yul\":24883:24887   */\n      0x20\n      dup1\n        /* \"#utility.yul\":24940:24942   */\n      0x1f\n        /* \"#utility.yul\":24929:24943   */\n      dup4\n      gt\n        /* \"#utility.yul\":24957:24958   */\n      0x01\n        /* \"#utility.yul\":24952:25615   */\n      dup2\n      eq\n      tag_618\n      jumpi\n        /* \"#utility.yul\":25659:25660   */\n      0x00\n        /* \"#utility.yul\":25676:25682   */\n      dup5\n        /* \"#utility.yul\":25673:25762   */\n      iszero\n      tag_619\n      jumpi\n      pop\n        /* \"#utility.yul\":25728:25747   */\n      dup6\n      dup4\n      add\n        /* \"#utility.yul\":25722:25748   */\n      mload\n        /* \"#utility.yul\":25673:25762   */\n    tag_619:\n      not(0x00)\n        /* \"#utility.yul\":24484:24485   */\n      0x03\n        /* \"#utility.yul\":24480:24491   */\n      dup7\n      swap1\n      shl\n        /* \"#utility.yul\":24476:24500   */\n      shr\n        /* \"#utility.yul\":24472:24501   */\n      not\n        /* \"#utility.yul\":24462:24502   */\n      and\n        /* \"#utility.yul\":24508:24509   */\n      0x01\n        /* \"#utility.yul\":24504:24515   */\n      dup6\n      swap1\n      shl\n        /* \"#utility.yul\":24459:24516   */\n      or\n        /* \"#utility.yul\":25775:25856   */\n      dup6\n      sstore\n        /* \"#utility.yul\":24922:25866   */\n      jump(tag_610)\n        /* \"#utility.yul\":24952:25615   */\n    tag_618:\n        /* \"#utility.yul\":23755:23756   */\n      0x00\n        /* \"#utility.yul\":23748:23762   */\n      dup6\n      dup2\n      mstore\n        /* \"#utility.yul\":23792:23796   */\n      0x20\n        /* \"#utility.yul\":23779:23797   */\n      dup2\n      keccak256\n      not(0x1f)\n        /* \"#utility.yul\":24988:25008   */\n      dup7\n      and\n      swap2\n        /* \"#utility.yul\":25106:25342   */\n    tag_622:\n        /* \"#utility.yul\":25120:25127   */\n      dup3\n        /* \"#utility.yul\":25117:25118   */\n      dup2\n        /* \"#utility.yul\":25114:25128   */\n      lt\n        /* \"#utility.yul\":25106:25342   */\n      iszero\n      tag_624\n      jumpi\n        /* \"#utility.yul\":25209:25228   */\n      dup9\n      dup7\n      add\n        /* \"#utility.yul\":25203:25229   */\n      mload\n        /* \"#utility.yul\":25188:25230   */\n      dup3\n      sstore\n        /* \"#utility.yul\":25301:25328   */\n      swap5\n      dup5\n      add\n      swap5\n        /* \"#utility.yul\":25269:25270   */\n      0x01\n        /* \"#utility.yul\":25257:25271   */\n      swap1\n      swap2\n      add\n      swap1\n        /* \"#utility.yul\":25136:25155   */\n      dup5\n      add\n        /* \"#utility.yul\":25106:25342   */\n      jump(tag_622)\n    tag_624:\n        /* \"#utility.yul\":25110:25113   */\n      pop\n        /* \"#utility.yul\":25370:25376   */\n      dup6\n        /* \"#utility.yul\":25361:25368   */\n      dup3\n        /* \"#utility.yul\":25358:25377   */\n      lt\n        /* \"#utility.yul\":25355:25556   */\n      iszero\n      tag_625\n      jumpi\n        /* \"#utility.yul\":25431:25450   */\n      dup8\n      dup6\n      add\n        /* \"#utility.yul\":25425:25451   */\n      mload\n      not(0x00)\n        /* \"#utility.yul\":25514:25515   */\n      0x03\n        /* \"#utility.yul\":25510:25524   */\n      dup9\n      swap1\n      shl\n        /* \"#utility.yul\":25526:25529   */\n      0xf8\n        /* \"#utility.yul\":25506:25530   */\n      and\n        /* \"#utility.yul\":25502:25539   */\n      shr\n        /* \"#utility.yul\":25498:25540   */\n      not\n        /* \"#utility.yul\":25483:25541   */\n      and\n        /* \"#utility.yul\":25468:25542   */\n      dup2\n      sstore\n        /* \"#utility.yul\":25355:25556   */\n    tag_625:\n      pop\n      pop\n      pop\n      pop\n      pop\n        /* \"#utility.yul\":25602:25603   */\n      0x01\n        /* \"#utility.yul\":25586:25600   */\n      swap1\n      dup2\n      shl\n        /* \"#utility.yul\":25582:25604   */\n      add\n        /* \"#utility.yul\":25569:25605   */\n      swap1\n      sstore\n      pop\n        /* \"#utility.yul\":24527:25872   */\n      jump\t// out\n        /* \"#utility.yul\":25877:26012   */\n    tag_378:\n        /* \"#utility.yul\":25916:25919   */\n      0x00\n        /* \"#utility.yul\":25937:25954   */\n      0x01\n      dup3\n      add\n        /* \"#utility.yul\":25934:25977   */\n      tag_628\n      jumpi\n        /* \"#utility.yul\":25957:25975   */\n      tag_628\n      tag_391\n      jump\t// in\n    tag_628:\n      pop\n        /* \"#utility.yul\":26004:26005   */\n      0x01\n        /* \"#utility.yul\":25993:26006   */\n      add\n      swap1\n        /* \"#utility.yul\":25877:26012   */\n      jump\t// out\n\n    auxdata: 0xa26469706673582212206fa922810d036d6123da454c079629c1bff0a1ad52c185aa505154b3c2f1025f64736f6c63430008170033\n}\n",
				"bytecode": {
					"linkReferences": {},
					"object": "60e06040526103e8600c553480156200001757600080fd5b50604051620025a9380380620025a98339810160408190526200003a9162000101565b6001600160a01b038216608052604051829082906200005e908290602001620001e1565b60408051808303601f19018152919052805160209091012060a0525050600380546001600160a01b0319166001600160a01b03949094169390931790925550503060c05262000216565b80516001600160a01b0381168114620000c057600080fd5b919050565b634e487b7160e01b600052604160045260246000fd5b60005b83811015620000f8578181015183820152602001620000de565b50506000910152565b6000806000606084860312156200011757600080fd5b6200012284620000a8565b92506200013260208501620000a8565b60408501519092506001600160401b03808211156200015057600080fd5b818601915086601f8301126200016557600080fd5b8151818111156200017a576200017a620000c5565b604051601f8201601f19908116603f01168101908382118183101715620001a557620001a5620000c5565b81604052828152896020848701011115620001bf57600080fd5b620001d2836020830160208801620000db565b80955050505050509250925092565b602081526000825180602084015262000202816040850160208701620000db565b601f01601f19169190910160400192915050565b60805160a05160c05161235562000254600039600081816108d0015261097901526000610265015260008181610157015261060701526123556000f3fe6080604052600436106100fe5760003560e01c80634ab4ba4211610095578063df868ed311610064578063df868ed31461030d578063eb11af9314610325578063edd146cc14610352578063ef2920fc14610373578063f5b0dfb71461038657600080fd5b80634ab4ba42146102895780634d31d0871461029e578063b2b878d0146102be578063dcc60128146102eb57600080fd5b80632bbe0cae116100d15780632bbe0cae146101db57806338fff2d0146101ee57806341f441251461020357806342fda9c71461025657600080fd5b80630a6f0ee9146101035780630d8e6e2c1461012557806315cc481e1461014857806317d7de7c1461018f575b600080fd5b34801561010f57600080fd5b5061012361011e366004611989565b6103a6565b005b34801561013157600080fd5b5060035b6040519081526020015b60405180910390f35b34801561015457600080fd5b507f00000000000000000000000000000000000000000000000000000000000000005b6040516001600160a01b03909116815260200161013f565b34801561019b57600080fd5b50604080518082018252601e81527f52455345525645445f4d5f415f44454c49564552595f535452415445475900006020820152905161013f9190611a24565b6101776101e9366004611a57565b6103c6565b3480156101fa57600080fd5b50600154610135565b34801561020f57600080fd5b5061024661021e366004611aa8565b6001600160a01b03166000908152600860205260409020805460ff1916600190811790915590565b604051901515815260200161013f565b34801561026257600080fd5b507f0000000000000000000000000000000000000000000000000000000000000000610135565b34801561029557600080fd5b50600254610135565b3480156102aa57600080fd5b506102466102b9366004611aa8565b6103eb565b3480156102ca57600080fd5b506102de6102d9366004611ac5565b6103f4565b60405161013f9190611b99565b3480156102f757600080fd5b5061030061054a565b60405161013f9190611bf1565b34801561031957600080fd5b5060005460ff16610246565b34801561033157600080fd5b50610345610340366004611aa8565b6105ac565b60405161013f9190611c54565b34801561035e57600080fd5b5061012361036d366004611c6e565b50600155565b610123610381366004611a57565b6105b4565b34801561039257600080fd5b506101236103a1366004611cb4565b6105d2565b6103ae6105fc565b6103b6610665565b6103c18383836106a9565b505050565b60006103d06105fc565b6103d8610665565b6103e28383610c14565b90505b92915050565b600060016103e5565b815181516060919081146104405760405162461bcd60e51b815260206004820152600e60248201526d082a4a482b2409a92a69a82a886960931b60448201526064015b60405180910390fd5b6000816001600160401b0381111561045a5761045a61178c565b60405190808252806020026020018201604052801561049f57816020015b60408051808201909152600080825260208201528152602001906001900390816104785790505b50905060005b828110156105415761051c8682815181106104c2576104c2611ccd565b60200260200101518683815181106104dc576104dc611ccd565b505060408051808201825260008082526020918201819052825180840184526001600160a01b03949094168085528152600b825291909120549082015290565b82828151811061052e5761052e611ccd565b60209081029190910101526001016104a5565b50949350505050565b606060048054806020026020016040519081016040528092919081815260200182805480156105a257602002820191906000526020600020905b81546001600160a01b03168152600190910190602001808311610584575b5050505050905090565b6000806103e5565b6105bc6105fc565b6105c4610665565b6105ce8282610d42565b5050565b6105da6105fc565b80600260008282546105ec9190611cf9565b909155506105f990508181565b50565b336001600160a01b037f000000000000000000000000000000000000000000000000000000000000000016146106635760405162461bcd60e51b815260206004820152600c60248201526b15539055551213d49256915160a21b6044820152606401610437565b565b6001546000036106635760405162461bcd60e51b815260206004820152600f60248201526e1393d517d253925512505312569151608a1b6044820152606401610437565b60005b8351811015610c0e5760008482815181106106c9576106c9611ccd565b6020026020010151905060008190506000816001600160a01b0316633ba94ed86040518163ffffffff1660e01b8152600401600060405180830381865afa158015610718573d6000803e3d6000fd5b505050506040513d6000823e601f3d908101601f191682016040526107409190810190611e30565b90506107558582604001518360600151610e8d565b6107a15760405162461bcd60e51b815260206004820152601d60248201527f726563697069656e74203c3e2073656e646572206d69732d6d617463680000006044820152606401610437565b6000816080015190508160a00151600660008a88815181106107c5576107c5611ccd565b60200260200101516001600160a01b03166001600160a01b0316815260200190815260200160002054101561084d5760405162461bcd60e51b815260206004820152602860248201527f627564676574203c3e2072656d61696e696e6720616c6c6f636174696f6e206d6044820152670d2e65adac2e8c6d60c31b6064820152608401610437565b8160a00151600660008a888151811061086857610868611ccd565b60200260200101516001600160a01b03166001600160a01b03168152602001908152602001600020600082825461089f9190611f1e565b909155505073eeeeeeeeeeeeeeeeeeeeeeeeeeeeeeeeeeeeeeed196001600160a01b0382160161095d578160a001517f00000000000000000000000000000000000000000000000000000000000000006001600160a01b03163110156109585760405162461bcd60e51b815260206004820152602860248201527f696e73756666696369656e74206e617469766520746f6b656e2066756e647320604482015267034b7103837b7b6160c51b6064820152608401610437565b610b52565b60a08201516040516370a0823160e01b81526001600160a01b037f0000000000000000000000000000000000000000000000000000000000000000811660048301528316906370a0823190602401602060405180830381865afa1580156109c8573d6000803e3d6000fd5b505050506040513d601f19601f820116820180604052508101906109ec9190611f31565b1015610a3a5760405162461bcd60e51b815260206004820152601a60248201527f696e73756666696369656e742066756e647320696e20706f6f6c0000000000006044820152606401610437565b600354604080518082018252601581527452455345525645445f4d4152474152495f434f524560581b6020820152905163bf40fac160e01b81526001600160a01b038085169363095ea7b39391169163bf40fac191610a9b91600401611a24565b602060405180830381865afa158015610ab8573d6000803e3d6000fd5b505050506040513d601f19601f82011682018060405250810190610adc9190611f4a565b60a08501516040516001600160e01b031960e085901b1681526001600160a01b03909216600483015260248201526044016020604051808303816000875af1158015610b2c573d6000803e3d6000fd5b505050506040513d601f19601f82011682018060405250810190610b509190611f67565b505b6000836001600160a01b0316631fae35d46040518163ffffffff1660e01b8152600401600060405180830381865afa158015610b92573d6000803e3d6000fd5b505050506040513d6000823e601f3d908101601f19168201604052610bba9190810190612032565b9050600080610bc9838861110f565b6001600160a01b0389166000908152600b6020526040812080549395509193508392610bf6908490611cf9565b9091555050600190970196506106ac95505050505050565b50505050565b60008083806020019051810190610c2b9190611f4a565b905060008190506000816001600160a01b0316633ba94ed86040518163ffffffff1660e01b8152600401600060405180830381865afa158015610c72573d6000803e3d6000fd5b505050506040513d6000823e601f3d908101601f19168201604052610c9a9190810190611e30565b9050610caf8582604001518360600151610e8d565b610cee5760405162461bcd60e51b815260206004820152601060248201526f01037b9339030b236b4b71037b7363c960851b6044820152606401610437565b5050600480546001810182556000919091527f8a35acfbc15ff81a39ae7d344fd709f28e8600b4aa8c65c6b64bfe7fe36bd19b0180546001600160a01b0319166001600160a01b0383161790559392505050565b600082806020019051810190610d58919061215f565b90506000816000015190506000816001600160a01b0316633ba94ed86040518163ffffffff1660e01b8152600401600060405180830381865afa158015610da3573d6000803e3d6000fd5b505050506040513d6000823e601f3d908101601f19168201604052610dcb9190810190611e30565b9050610de08482604001518360600151610e8d565b610e1f5760405162461bcd60e51b815260206004820152601060248201526f01037b9339030b236b4b71037b7363c960851b6044820152606401610437565b60208084015184516001600160a01b0390811660009081526005808552604080832094909455875183168252600785528382205488519093168252909352912054610e6a9190611f1e565b92516001600160a01b031660009081526006602052604090209290925550505050565b600354604080518082018252601281527152455345525645445f414c4c4f5f434f524560701b6020820152905163bf40fac160e01b815260009283926001600160a01b039091169163bf40fac191610ee791600401611a24565b602060405180830381865afa158015610f04573d6000803e3d6000fd5b505050506040513d601f19601f82011682018060405250810190610f289190611f4a565b90506000816001600160a01b0316635ab1bd536040518163ffffffff1660e01b8152600401602060405180830381865afa158015610f6a573d6000803e3d6000fd5b505050506040513d601f19601f82011682018060405250810190610f8e9190611f4a565b6040516329e40d4b60e01b8152600481018790526001600160a01b038881166024830152919250908316906329e40d4b90604401602060405180830381865afa158015610fdf573d6000803e3d6000fd5b505050506040513d601f19601f820116820180604052508101906110039190611f67565b8061107a575060405163559ff5e360e11b8152600481018690526001600160a01b03878116602483015283169063ab3febc690604401602060405180830381865afa158015611056573d6000803e3d6000fd5b505050506040513d601f19601f8201168201806040525081019061107a9190611f67565b806110f15750604051630e6e1ae360e21b8152600481018590526001600160a01b0387811660248301528216906339b86b8c90604401602060405180830381865afa1580156110cd573d6000803e3d6000fd5b505050506040513d601f19601f820116820180604052508101906110f19190611f67565b1561110157600192505050611108565b6000925050505b9392505050565b600354604080518082018252601581527452455345525645445f4d4152474152495f434f524560581b6020820152905163bf40fac160e01b815260609260009283926001600160a01b039092169163bf40fac19161116f91600401611a24565b602060405180830381865afa15801561118c573d6000803e3d6000fd5b505050506040513d601f19601f820116820180604052508101906111b09190611f4a565b855190915084906001600160401b038111156111ce576111ce61178c565b6040519080825280602002602001820160405280156111f7578160200160208202803683370190505b50935060005b865181101561176857600087828151811061121a5761121a611ccd565b602002602001015190508060a00151856112349190611cf9565b9450600360009054906101000a90046001600160a01b03166001600160a01b0316633408e4706040518163ffffffff1660e01b8152600401602060405180830381865afa158015611289573d6000803e3d6000fd5b505050506040513d601f19601f820116820180604052508101906112ad9190611f31565b816020015160200151146114755773eeeeeeeeeeeeeeeeeeeeeeeeeeeeeeeeeeeeeeee6001600160a01b03168160c001516001600160a01b0316036113c25760a08101516020808301519081015160c084015160409283015160608601518487015194516360f71bf160e11b815260048101949094526001600160a01b039283166024850152604484018690529082166064840152608483015260a48201929092529086169163c1ee37e29160c40160206040518083038185885af115801561137a573d6000803e3d6000fd5b50505050506040513d601f19601f8201168201806040525081019061139f9190611f31565b8683815181106113b1576113b1611ccd565b6020026020010181815250506115a3565b6020808201519081015160c083015160a084015160409384015160608601518587015195516360f71bf160e11b815260048101959095526001600160a01b039384166024860152604485019290925282166064840152608483015260a48201929092529085169063c1ee37e29060c4016020604051808303816000875af1158015611451573d6000803e3d6000fd5b505050506040513d601f19601f8201168201806040525081019061139f9190611f31565b73eeeeeeeeeeeeeeeeeeeeeeeeeeeeeeeeeeeeeeee6001600160a01b03168160c001516001600160a01b0316036114f1578060200151604001516001600160a01b03166108fc8260a001519081150290604051600060405180830381858888f193505050501580156114eb573d6000803e3d6000fd5b5061157c565b60c0810151602082015160409081015160a0840151915163a9059cbb60e01b81526001600160a01b03918216600482015260248101929092529091169063a9059cbb906044016020604051808303816000875af1158015611556573d6000803e3d6000fd5b505050506040513d601f19601f8201168201806040525081019061157a9190611f67565b505b611584611772565b86838151811061159657611596611ccd565b6020026020010181815250505b608081015160405163026192df60e11b81526001600160a01b038516916304c325be916115d69190600290600401612199565b6020604051808303816000875af11580156115f5573d6000803e3d6000fd5b505050506040513d601f19601f820116820180604052508101906116199190611f67565b50806009600088858151811061163157611631611ccd565b6020026020010151815260200190815260200160002060008201518160000155602082015181600101600082015181600001556020820151816001015560408201518160020160006101000a8154816001600160a01b0302191690836001600160a01b031602179055506060820151816003016000820151816000015560208201518160010190816116c39190612247565b505050506040838101516006840155606084015160078401556080840151600884015560a0840151600984015560c090930151600a92830180546001600160a01b0319166001600160a01b039283161790558a1660009081526020929092525020865187908490811061173857611738611ccd565b602090810291909101810151825460018181018555600094855292909320909201919091559190910190506111fd565b5050509250929050565b600c8054908190600061178483612306565b919050555090565b634e487b7160e01b600052604160045260246000fd5b60405161010081016001600160401b03811182821017156117c5576117c561178c565b60405290565b604051608081016001600160401b03811182821017156117c5576117c561178c565b604080519081016001600160401b03811182821017156117c5576117c561178c565b60405160e081016001600160401b03811182821017156117c5576117c561178c565b604051601f8201601f191681016001600160401b03811182821017156118595761185961178c565b604052919050565b60006001600160401b0382111561187a5761187a61178c565b5060051b60200190565b6001600160a01b03811681146105f957600080fd5b600082601f8301126118aa57600080fd5b813560206118bf6118ba83611861565b611831565b8083825260208201915060208460051b8701019350868411156118e157600080fd5b602086015b848110156119065780356118f981611884565b83529183019183016118e6565b509695505050505050565b60006001600160401b0382111561192a5761192a61178c565b50601f01601f191660200190565b600082601f83011261194957600080fd5b81356119576118ba82611911565b81815284602083860101111561196c57600080fd5b816020850160208301376000918101602001919091529392505050565b60008060006060848603121561199e57600080fd5b83356001600160401b03808211156119b557600080fd5b6119c187838801611899565b945060208601359150808211156119d757600080fd5b506119e486828701611938565b92505060408401356119f581611884565b809150509250925092565b60005b83811015611a1b578181015183820152602001611a03565b50506000910152565b6020815260008251806020840152611a43816040850160208701611a00565b601f01601f19169190910160400192915050565b60008060408385031215611a6a57600080fd5b82356001600160401b03811115611a8057600080fd5b611a8c85828601611938565b9250506020830135611a9d81611884565b809150509250929050565b600060208284031215611aba57600080fd5b813561110881611884565b60008060408385031215611ad857600080fd5b82356001600160401b0380821115611aef57600080fd5b611afb86838701611899565b9350602091508185013581811115611b1257600080fd5b8501601f81018713611b2357600080fd5b8035611b316118ba82611861565b81815260059190911b82018401908481019089831115611b5057600080fd5b8584015b83811015611b8857803586811115611b6c5760008081fd5b611b7a8c8983890101611938565b845250918601918601611b54565b508096505050505050509250929050565b602080825282518282018190526000919060409081850190868401855b82811015611be457815180516001600160a01b03168552860151868501529284019290850190600101611bb6565b5091979650505050505050565b6020808252825182820181905260009190848201906040850190845b81811015611c325783516001600160a01b031683529284019291840191600101611c0d565b50909695505050505050565b634e487b7160e01b600052602160045260246000fd5b6020810160078310611c6857611c68611c3e565b91905290565b60008060408385031215611c8157600080fd5b8235915060208301356001600160401b03811115611c9e57600080fd5b611caa85828601611938565b9150509250929050565b600060208284031215611cc657600080fd5b5035919050565b634e487b7160e01b600052603260045260246000fd5b634e487b7160e01b600052601160045260246000fd5b808201808211156103e5576103e5611ce3565b600082601f830112611d1d57600080fd5b8151611d2b6118ba82611911565b818152846020838601011115611d4057600080fd5b611d51826020830160208701611a00565b949350505050565b8051611d6481611884565b919050565b600082601f830112611d7a57600080fd5b81516020611d8a6118ba83611861565b8083825260208201915060208460051b870101935086841115611dac57600080fd5b602086015b848110156119065780518352918301918301611db1565b600082601f830112611dd957600080fd5b81516020611de96118ba83611861565b8083825260208201915060208460051b870101935086841115611e0b57600080fd5b602086015b84811015611906578051611e2381611884565b8352918301918301611e10565b600060208284031215611e4257600080fd5b81516001600160401b0380821115611e5957600080fd5b908301906101008286031215611e6e57600080fd5b611e766117a2565b82518152602083015182811115611e8c57600080fd5b611e9887828601611d0c565b6020830152506040830151604082015260608301516060820152611ebe60808401611d59565b608082015260a083015160a082015260c083015182811115611edf57600080fd5b611eeb87828601611d69565b60c08301525060e083015182811115611f0357600080fd5b611f0f87828601611dc8565b60e08301525095945050505050565b818103818111156103e5576103e5611ce3565b600060208284031215611f4357600080fd5b5051919050565b600060208284031215611f5c57600080fd5b815161110881611884565b600060208284031215611f7957600080fd5b8151801515811461110857600080fd5b600060808284031215611f9b57600080fd5b611fa36117cb565b905081518152602082015160208201526040820151611fc181611884565b604082015260608201516001600160401b0380821115611fe057600080fd5b9083019060408286031215611ff457600080fd5b611ffc6117ed565b8251815260208301518281111561201257600080fd5b61201e87828601611d0c565b602083015250606084015250909392505050565b6000602080838503121561204557600080fd5b82516001600160401b038082111561205c57600080fd5b818501915085601f83011261207057600080fd5b815161207e6118ba82611861565b81815260059190911b8301840190848101908883111561209d57600080fd5b8585015b83811015612152578051858111156120b95760008081fd5b860160e0818c03601f19018113156120d15760008081fd5b6120d961180f565b898301518152604080840151898111156120f35760008081fd5b6121018f8d83880101611f89565b8c84015250606080850151828401526080915081850151818401525060a0808501518284015260c0915081850151818401525061213f838501611d59565b90820152855250509186019186016120a1565b5098975050505050505050565b60006040828403121561217157600080fd5b6121796117ed565b825161218481611884565b81526020928301519281019290925250919050565b82815260408101600583106121b0576121b0611c3e565b8260208301529392505050565b600181811c908216806121d157607f821691505b6020821081036121f157634e487b7160e01b600052602260045260246000fd5b50919050565b601f8211156103c1576000816000526020600020601f850160051c810160208610156122205750805b601f850160051c820191505b8181101561223f5782815560010161222c565b505050505050565b81516001600160401b038111156122605761226061178c565b6122748161226e84546121bd565b846121f7565b602080601f8311600181146122a957600084156122915750858301515b600019600386901b1c1916600185901b17855561223f565b600085815260208120601f198616915b828110156122d8578886015182559484019460019091019084016122b9565b50858210156122f65787850151600019600388901b60f8161c191681555b5050505050600190811b01905550565b60006001820161231857612318611ce3565b506001019056fea26469706673582212206fa922810d036d6123da454c079629c1bff0a1ad52c185aa505154b3c2f1025f64736f6c63430008170033",
					"opcodes": "PUSH1 0xE0 PUSH1 0x40 MSTORE PUSH2 0x3E8 PUSH1 0xC SSTORE CALLVALUE DUP1 ISZERO PUSH3 0x17 JUMPI PUSH1 0x0 DUP1 REVERT JUMPDEST POP PUSH1 0x40 MLOAD PUSH3 0x25A9 CODESIZE SUB DUP1 PUSH3 0x25A9 DUP4 CODECOPY DUP2 ADD PUSH1 0x40 DUP2 SWAP1 MSTORE PUSH3 0x3A SWAP2 PUSH3 0x101 JUMP JUMPDEST PUSH1 0x1 PUSH1 0x1 PUSH1 0xA0 SHL SUB DUP3 AND PUSH1 0x80 MSTORE PUSH1 0x40 MLOAD DUP3 SWAP1 DUP3 SWAP1 PUSH3 0x5E SWAP1 DUP3 SWAP1 PUSH1 0x20 ADD PUSH3 0x1E1 JUMP JUMPDEST PUSH1 0x40 DUP1 MLOAD DUP1 DUP4 SUB PUSH1 0x1F NOT ADD DUP2 MSTORE SWAP2 SWAP1 MSTORE DUP1 MLOAD PUSH1 0x20 SWAP1 SWAP2 ADD KECCAK256 PUSH1 0xA0 MSTORE POP POP PUSH1 0x3 DUP1 SLOAD PUSH1 0x1 PUSH1 0x1 PUSH1 0xA0 SHL SUB NOT AND PUSH1 0x1 PUSH1 0x1 PUSH1 0xA0 SHL SUB SWAP5 SWAP1 SWAP5 AND SWAP4 SWAP1 SWAP4 OR SWAP1 SWAP3 SSTORE POP POP ADDRESS PUSH1 0xC0 MSTORE PUSH3 0x216 JUMP JUMPDEST DUP1 MLOAD PUSH1 0x1 PUSH1 0x1 PUSH1 0xA0 SHL SUB DUP2 AND DUP2 EQ PUSH3 0xC0 JUMPI PUSH1 0x0 DUP1 REVERT JUMPDEST SWAP2 SWAP1 POP JUMP JUMPDEST PUSH4 0x4E487B71 PUSH1 0xE0 SHL PUSH1 0x0 MSTORE PUSH1 0x41 PUSH1 0x4 MSTORE PUSH1 0x24 PUSH1 0x0 REVERT JUMPDEST PUSH1 0x0 JUMPDEST DUP4 DUP2 LT ISZERO PUSH3 0xF8 JUMPI DUP2 DUP2 ADD MLOAD DUP4 DUP3 ADD MSTORE PUSH1 0x20 ADD PUSH3 0xDE JUMP JUMPDEST POP POP PUSH1 0x0 SWAP2 ADD MSTORE JUMP JUMPDEST PUSH1 0x0 DUP1 PUSH1 0x0 PUSH1 0x60 DUP5 DUP7 SUB SLT ISZERO PUSH3 0x117 JUMPI PUSH1 0x0 DUP1 REVERT JUMPDEST PUSH3 0x122 DUP5 PUSH3 0xA8 JUMP JUMPDEST SWAP3 POP PUSH3 0x132 PUSH1 0x20 DUP6 ADD PUSH3 0xA8 JUMP JUMPDEST PUSH1 0x40 DUP6 ADD MLOAD SWAP1 SWAP3 POP PUSH1 0x1 PUSH1 0x1 PUSH1 0x40 SHL SUB DUP1 DUP3 GT ISZERO PUSH3 0x150 JUMPI PUSH1 0x0 DUP1 REVERT JUMPDEST DUP2 DUP7 ADD SWAP2 POP DUP7 PUSH1 0x1F DUP4 ADD SLT PUSH3 0x165 JUMPI PUSH1 0x0 DUP1 REVERT JUMPDEST DUP2 MLOAD DUP2 DUP2 GT ISZERO PUSH3 0x17A JUMPI PUSH3 0x17A PUSH3 0xC5 JUMP JUMPDEST PUSH1 0x40 MLOAD PUSH1 0x1F DUP3 ADD PUSH1 0x1F NOT SWAP1 DUP2 AND PUSH1 0x3F ADD AND DUP2 ADD SWAP1 DUP4 DUP3 GT DUP2 DUP4 LT OR ISZERO PUSH3 0x1A5 JUMPI PUSH3 0x1A5 PUSH3 0xC5 JUMP JUMPDEST DUP2 PUSH1 0x40 MSTORE DUP3 DUP2 MSTORE DUP10 PUSH1 0x20 DUP5 DUP8 ADD ADD GT ISZERO PUSH3 0x1BF JUMPI PUSH1 0x0 DUP1 REVERT JUMPDEST PUSH3 0x1D2 DUP4 PUSH1 0x20 DUP4 ADD PUSH1 0x20 DUP9 ADD PUSH3 0xDB JUMP JUMPDEST DUP1 SWAP6 POP POP POP POP POP POP SWAP3 POP SWAP3 POP SWAP3 JUMP JUMPDEST PUSH1 0x20 DUP2 MSTORE PUSH1 0x0 DUP3 MLOAD DUP1 PUSH1 0x20 DUP5 ADD MSTORE PUSH3 0x202 DUP2 PUSH1 0x40 DUP6 ADD PUSH1 0x20 DUP8 ADD PUSH3 0xDB JUMP JUMPDEST PUSH1 0x1F ADD PUSH1 0x1F NOT AND SWAP2 SWAP1 SWAP2 ADD PUSH1 0x40 ADD SWAP3 SWAP2 POP POP JUMP JUMPDEST PUSH1 0x80 MLOAD PUSH1 0xA0 MLOAD PUSH1 0xC0 MLOAD PUSH2 0x2355 PUSH3 0x254 PUSH1 0x0 CODECOPY PUSH1 0x0 DUP2 DUP2 PUSH2 0x8D0 ADD MSTORE PUSH2 0x979 ADD MSTORE PUSH1 0x0 PUSH2 0x265 ADD MSTORE PUSH1 0x0 DUP2 DUP2 PUSH2 0x157 ADD MSTORE PUSH2 0x607 ADD MSTORE PUSH2 0x2355 PUSH1 0x0 RETURN INVALID PUSH1 0x80 PUSH1 0x40 MSTORE PUSH1 0x4 CALLDATASIZE LT PUSH2 0xFE JUMPI PUSH1 0x0 CALLDATALOAD PUSH1 0xE0 SHR DUP1 PUSH4 0x4AB4BA42 GT PUSH2 0x95 JUMPI DUP1 PUSH4 0xDF868ED3 GT PUSH2 0x64 JUMPI DUP1 PUSH4 0xDF868ED3 EQ PUSH2 0x30D JUMPI DUP1 PUSH4 0xEB11AF93 EQ PUSH2 0x325 JUMPI DUP1 PUSH4 0xEDD146CC EQ PUSH2 0x352 JUMPI DUP1 PUSH4 0xEF2920FC EQ PUSH2 0x373 JUMPI DUP1 PUSH4 0xF5B0DFB7 EQ PUSH2 0x386 JUMPI PUSH1 0x0 DUP1 REVERT JUMPDEST DUP1 PUSH4 0x4AB4BA42 EQ PUSH2 0x289 JUMPI DUP1 PUSH4 0x4D31D087 EQ PUSH2 0x29E JUMPI DUP1 PUSH4 0xB2B878D0 EQ PUSH2 0x2BE JUMPI DUP1 PUSH4 0xDCC60128 EQ PUSH2 0x2EB JUMPI PUSH1 0x0 DUP1 REVERT JUMPDEST DUP1 PUSH4 0x2BBE0CAE GT PUSH2 0xD1 JUMPI DUP1 PUSH4 0x2BBE0CAE EQ PUSH2 0x1DB JUMPI DUP1 PUSH4 0x38FFF2D0 EQ PUSH2 0x1EE JUMPI DUP1 PUSH4 0x41F44125 EQ PUSH2 0x203 JUMPI DUP1 PUSH4 0x42FDA9C7 EQ PUSH2 0x256 JUMPI PUSH1 0x0 DUP1 REVERT JUMPDEST DUP1 PUSH4 0xA6F0EE9 EQ PUSH2 0x103 JUMPI DUP1 PUSH4 0xD8E6E2C EQ PUSH2 0x125 JUMPI DUP1 PUSH4 0x15CC481E EQ PUSH2 0x148 JUMPI DUP1 PUSH4 0x17D7DE7C EQ PUSH2 0x18F JUMPI JUMPDEST PUSH1 0x0 DUP1 REVERT JUMPDEST CALLVALUE DUP1 ISZERO PUSH2 0x10F JUMPI PUSH1 0x0 DUP1 REVERT JUMPDEST POP PUSH2 0x123 PUSH2 0x11E CALLDATASIZE PUSH1 0x4 PUSH2 0x1989 JUMP JUMPDEST PUSH2 0x3A6 JUMP JUMPDEST STOP JUMPDEST CALLVALUE DUP1 ISZERO PUSH2 0x131 JUMPI PUSH1 0x0 DUP1 REVERT JUMPDEST POP PUSH1 0x3 JUMPDEST PUSH1 0x40 MLOAD SWAP1 DUP2 MSTORE PUSH1 0x20 ADD JUMPDEST PUSH1 0x40 MLOAD DUP1 SWAP2 SUB SWAP1 RETURN JUMPDEST CALLVALUE DUP1 ISZERO PUSH2 0x154 JUMPI PUSH1 0x0 DUP1 REVERT JUMPDEST POP PUSH32 0x0 JUMPDEST PUSH1 0x40 MLOAD PUSH1 0x1 PUSH1 0x1 PUSH1 0xA0 SHL SUB SWAP1 SWAP2 AND DUP2 MSTORE PUSH1 0x20 ADD PUSH2 0x13F JUMP JUMPDEST CALLVALUE DUP1 ISZERO PUSH2 0x19B JUMPI PUSH1 0x0 DUP1 REVERT JUMPDEST POP PUSH1 0x40 DUP1 MLOAD DUP1 DUP3 ADD DUP3 MSTORE PUSH1 0x1E DUP2 MSTORE PUSH32 0x52455345525645445F4D5F415F44454C49564552595F53545241544547590000 PUSH1 0x20 DUP3 ADD MSTORE SWAP1 MLOAD PUSH2 0x13F SWAP2 SWAP1 PUSH2 0x1A24 JUMP JUMPDEST PUSH2 0x177 PUSH2 0x1E9 CALLDATASIZE PUSH1 0x4 PUSH2 0x1A57 JUMP JUMPDEST PUSH2 0x3C6 JUMP JUMPDEST CALLVALUE DUP1 ISZERO PUSH2 0x1FA JUMPI PUSH1 0x0 DUP1 REVERT JUMPDEST POP PUSH1 0x1 SLOAD PUSH2 0x135 JUMP JUMPDEST CALLVALUE DUP1 ISZERO PUSH2 0x20F JUMPI PUSH1 0x0 DUP1 REVERT JUMPDEST POP PUSH2 0x246 PUSH2 0x21E CALLDATASIZE PUSH1 0x4 PUSH2 0x1AA8 JUMP JUMPDEST PUSH1 0x1 PUSH1 0x1 PUSH1 0xA0 SHL SUB AND PUSH1 0x0 SWAP1 DUP2 MSTORE PUSH1 0x8 PUSH1 0x20 MSTORE PUSH1 0x40 SWAP1 KECCAK256 DUP1 SLOAD PUSH1 0xFF NOT AND PUSH1 0x1 SWAP1 DUP2 OR SWAP1 SWAP2 SSTORE SWAP1 JUMP JUMPDEST PUSH1 0x40 MLOAD SWAP1 ISZERO ISZERO DUP2 MSTORE PUSH1 0x20 ADD PUSH2 0x13F JUMP JUMPDEST CALLVALUE DUP1 ISZERO PUSH2 0x262 JUMPI PUSH1 0x0 DUP1 REVERT JUMPDEST POP PUSH32 0x0 PUSH2 0x135 JUMP JUMPDEST CALLVALUE DUP1 ISZERO PUSH2 0x295 JUMPI PUSH1 0x0 DUP1 REVERT JUMPDEST POP PUSH1 0x2 SLOAD PUSH2 0x135 JUMP JUMPDEST CALLVALUE DUP1 ISZERO PUSH2 0x2AA JUMPI PUSH1 0x0 DUP1 REVERT JUMPDEST POP PUSH2 0x246 PUSH2 0x2B9 CALLDATASIZE PUSH1 0x4 PUSH2 0x1AA8 JUMP JUMPDEST PUSH2 0x3EB JUMP JUMPDEST CALLVALUE DUP1 ISZERO PUSH2 0x2CA JUMPI PUSH1 0x0 DUP1 REVERT JUMPDEST POP PUSH2 0x2DE PUSH2 0x2D9 CALLDATASIZE PUSH1 0x4 PUSH2 0x1AC5 JUMP JUMPDEST PUSH2 0x3F4 JUMP JUMPDEST PUSH1 0x40 MLOAD PUSH2 0x13F SWAP2 SWAP1 PUSH2 0x1B99 JUMP JUMPDEST CALLVALUE DUP1 ISZERO PUSH2 0x2F7 JUMPI PUSH1 0x0 DUP1 REVERT JUMPDEST POP PUSH2 0x300 PUSH2 0x54A JUMP JUMPDEST PUSH1 0x40 MLOAD PUSH2 0x13F SWAP2 SWAP1 PUSH2 0x1BF1 JUMP JUMPDEST CALLVALUE DUP1 ISZERO PUSH2 0x319 JUMPI PUSH1 0x0 DUP1 REVERT JUMPDEST POP PUSH1 0x0 SLOAD PUSH1 0xFF AND PUSH2 0x246 JUMP JUMPDEST CALLVALUE DUP1 ISZERO PUSH2 0x331 JUMPI PUSH1 0x0 DUP1 REVERT JUMPDEST POP PUSH2 0x345 PUSH2 0x340 CALLDATASIZE PUSH1 0x4 PUSH2 0x1AA8 JUMP JUMPDEST PUSH2 0x5AC JUMP JUMPDEST PUSH1 0x40 MLOAD PUSH2 0x13F SWAP2 SWAP1 PUSH2 0x1C54 JUMP JUMPDEST CALLVALUE DUP1 ISZERO PUSH2 0x35E JUMPI PUSH1 0x0 DUP1 REVERT JUMPDEST POP PUSH2 0x123 PUSH2 0x36D CALLDATASIZE PUSH1 0x4 PUSH2 0x1C6E JUMP JUMPDEST POP PUSH1 0x1 SSTORE JUMP JUMPDEST PUSH2 0x123 PUSH2 0x381 CALLDATASIZE PUSH1 0x4 PUSH2 0x1A57 JUMP JUMPDEST PUSH2 0x5B4 JUMP JUMPDEST CALLVALUE DUP1 ISZERO PUSH2 0x392 JUMPI PUSH1 0x0 DUP1 REVERT JUMPDEST POP PUSH2 0x123 PUSH2 0x3A1 CALLDATASIZE PUSH1 0x4 PUSH2 0x1CB4 JUMP JUMPDEST PUSH2 0x5D2 JUMP JUMPDEST PUSH2 0x3AE PUSH2 0x5FC JUMP JUMPDEST PUSH2 0x3B6 PUSH2 0x665 JUMP JUMPDEST PUSH2 0x3C1 DUP4 DUP4 DUP4 PUSH2 0x6A9 JUMP JUMPDEST POP POP POP JUMP JUMPDEST PUSH1 0x0 PUSH2 0x3D0 PUSH2 0x5FC JUMP JUMPDEST PUSH2 0x3D8 PUSH2 0x665 JUMP JUMPDEST PUSH2 0x3E2 DUP4 DUP4 PUSH2 0xC14 JUMP JUMPDEST SWAP1 POP JUMPDEST SWAP3 SWAP2 POP POP JUMP JUMPDEST PUSH1 0x0 PUSH1 0x1 PUSH2 0x3E5 JUMP JUMPDEST DUP2 MLOAD DUP2 MLOAD PUSH1 0x60 SWAP2 SWAP1 DUP2 EQ PUSH2 0x440 JUMPI PUSH1 0x40 MLOAD PUSH3 0x461BCD PUSH1 0xE5 SHL DUP2 MSTORE PUSH1 0x20 PUSH1 0x4 DUP3 ADD MSTORE PUSH1 0xE PUSH1 0x24 DUP3 ADD MSTORE PUSH14 0x82A4A482B2409A92A69A82A8869 PUSH1 0x93 SHL PUSH1 0x44 DUP3 ADD MSTORE PUSH1 0x64 ADD JUMPDEST PUSH1 0x40 MLOAD DUP1 SWAP2 SUB SWAP1 REVERT JUMPDEST PUSH1 0x0 DUP2 PUSH1 0x1 PUSH1 0x1 PUSH1 0x40 SHL SUB DUP2 GT ISZERO PUSH2 0x45A JUMPI PUSH2 0x45A PUSH2 0x178C JUMP JUMPDEST PUSH1 0x40 MLOAD SWAP1 DUP1 DUP3 MSTORE DUP1 PUSH1 0x20 MUL PUSH1 0x20 ADD DUP3 ADD PUSH1 0x40 MSTORE DUP1 ISZERO PUSH2 0x49F JUMPI DUP2 PUSH1 0x20 ADD JUMPDEST PUSH1 0x40 DUP1 MLOAD DUP1 DUP3 ADD SWAP1 SWAP2 MSTORE PUSH1 0x0 DUP1 DUP3 MSTORE PUSH1 0x20 DUP3 ADD MSTORE DUP2 MSTORE PUSH1 0x20 ADD SWAP1 PUSH1 0x1 SWAP1 SUB SWAP1 DUP2 PUSH2 0x478 JUMPI SWAP1 POP JUMPDEST POP SWAP1 POP PUSH1 0x0 JUMPDEST DUP3 DUP2 LT ISZERO PUSH2 0x541 JUMPI PUSH2 0x51C DUP7 DUP3 DUP2 MLOAD DUP2 LT PUSH2 0x4C2 JUMPI PUSH2 0x4C2 PUSH2 0x1CCD JUMP JUMPDEST PUSH1 0x20 MUL PUSH1 0x20 ADD ADD MLOAD DUP7 DUP4 DUP2 MLOAD DUP2 LT PUSH2 0x4DC JUMPI PUSH2 0x4DC PUSH2 0x1CCD JUMP JUMPDEST POP POP PUSH1 0x40 DUP1 MLOAD DUP1 DUP3 ADD DUP3 MSTORE PUSH1 0x0 DUP1 DUP3 MSTORE PUSH1 0x20 SWAP2 DUP3 ADD DUP2 SWAP1 MSTORE DUP3 MLOAD DUP1 DUP5 ADD DUP5 MSTORE PUSH1 0x1 PUSH1 0x1 PUSH1 0xA0 SHL SUB SWAP5 SWAP1 SWAP5 AND DUP1 DUP6 MSTORE DUP2 MSTORE PUSH1 0xB DUP3 MSTORE SWAP2 SWAP1 SWAP2 KECCAK256 SLOAD SWAP1 DUP3 ADD MSTORE SWAP1 JUMP JUMPDEST DUP3 DUP3 DUP2 MLOAD DUP2 LT PUSH2 0x52E JUMPI PUSH2 0x52E PUSH2 0x1CCD JUMP JUMPDEST PUSH1 0x20 SWAP1 DUP2 MUL SWAP2 SWAP1 SWAP2 ADD ADD MSTORE PUSH1 0x1 ADD PUSH2 0x4A5 JUMP JUMPDEST POP SWAP5 SWAP4 POP POP POP POP JUMP JUMPDEST PUSH1 0x60 PUSH1 0x4 DUP1 SLOAD DUP1 PUSH1 0x20 MUL PUSH1 0x20 ADD PUSH1 0x40 MLOAD SWAP1 DUP2 ADD PUSH1 0x40 MSTORE DUP1 SWAP3 SWAP2 SWAP1 DUP2 DUP2 MSTORE PUSH1 0x20 ADD DUP3 DUP1 SLOAD DUP1 ISZERO PUSH2 0x5A2 JUMPI PUSH1 0x20 MUL DUP3 ADD SWAP2 SWAP1 PUSH1 0x0 MSTORE PUSH1 0x20 PUSH1 0x0 KECCAK256 SWAP1 JUMPDEST DUP2 SLOAD PUSH1 0x1 PUSH1 0x1 PUSH1 0xA0 SHL SUB AND DUP2 MSTORE PUSH1 0x1 SWAP1 SWAP2 ADD SWAP1 PUSH1 0x20 ADD DUP1 DUP4 GT PUSH2 0x584 JUMPI JUMPDEST POP POP POP POP POP SWAP1 POP SWAP1 JUMP JUMPDEST PUSH1 0x0 DUP1 PUSH2 0x3E5 JUMP JUMPDEST PUSH2 0x5BC PUSH2 0x5FC JUMP JUMPDEST PUSH2 0x5C4 PUSH2 0x665 JUMP JUMPDEST PUSH2 0x5CE DUP3 DUP3 PUSH2 0xD42 JUMP JUMPDEST POP POP JUMP JUMPDEST PUSH2 0x5DA PUSH2 0x5FC JUMP JUMPDEST DUP1 PUSH1 0x2 PUSH1 0x0 DUP3 DUP3 SLOAD PUSH2 0x5EC SWAP2 SWAP1 PUSH2 0x1CF9 JUMP JUMPDEST SWAP1 SWAP2 SSTORE POP PUSH2 0x5F9 SWAP1 POP DUP2 DUP2 JUMP JUMPDEST POP JUMP JUMPDEST CALLER PUSH1 0x1 PUSH1 0x1 PUSH1 0xA0 SHL SUB PUSH32 0x0 AND EQ PUSH2 0x663 JUMPI PUSH1 0x40 MLOAD PUSH3 0x461BCD PUSH1 0xE5 SHL DUP2 MSTORE PUSH1 0x20 PUSH1 0x4 DUP3 ADD MSTORE PUSH1 0xC PUSH1 0x24 DUP3 ADD MSTORE PUSH12 0x15539055551213D492569151 PUSH1 0xA2 SHL PUSH1 0x44 DUP3 ADD MSTORE PUSH1 0x64 ADD PUSH2 0x437 JUMP JUMPDEST JUMP JUMPDEST PUSH1 0x1 SLOAD PUSH1 0x0 SUB PUSH2 0x663 JUMPI PUSH1 0x40 MLOAD PUSH3 0x461BCD PUSH1 0xE5 SHL DUP2 MSTORE PUSH1 0x20 PUSH1 0x4 DUP3 ADD MSTORE PUSH1 0xF PUSH1 0x24 DUP3 ADD MSTORE PUSH15 0x1393D517D253925512505312569151 PUSH1 0x8A SHL PUSH1 0x44 DUP3 ADD MSTORE PUSH1 0x64 ADD PUSH2 0x437 JUMP JUMPDEST PUSH1 0x0 JUMPDEST DUP4 MLOAD DUP2 LT ISZERO PUSH2 0xC0E JUMPI PUSH1 0x0 DUP5 DUP3 DUP2 MLOAD DUP2 LT PUSH2 0x6C9 JUMPI PUSH2 0x6C9 PUSH2 0x1CCD JUMP JUMPDEST PUSH1 0x20 MUL PUSH1 0x20 ADD ADD MLOAD SWAP1 POP PUSH1 0x0 DUP2 SWAP1 POP PUSH1 0x0 DUP2 PUSH1 0x1 PUSH1 0x1 PUSH1 0xA0 SHL SUB AND PUSH4 0x3BA94ED8 PUSH1 0x40 MLOAD DUP2 PUSH4 0xFFFFFFFF AND PUSH1 0xE0 SHL DUP2 MSTORE PUSH1 0x4 ADD PUSH1 0x0 PUSH1 0x40 MLOAD DUP1 DUP4 SUB DUP2 DUP7 GAS STATICCALL ISZERO DUP1 ISZERO PUSH2 0x718 JUMPI RETURNDATASIZE PUSH1 0x0 DUP1 RETURNDATACOPY RETURNDATASIZE PUSH1 0x0 REVERT JUMPDEST POP POP POP POP PUSH1 0x40 MLOAD RETURNDATASIZE PUSH1 0x0 DUP3 RETURNDATACOPY PUSH1 0x1F RETURNDATASIZE SWAP1 DUP2 ADD PUSH1 0x1F NOT AND DUP3 ADD PUSH1 0x40 MSTORE PUSH2 0x740 SWAP2 SWAP1 DUP2 ADD SWAP1 PUSH2 0x1E30 JUMP JUMPDEST SWAP1 POP PUSH2 0x755 DUP6 DUP3 PUSH1 0x40 ADD MLOAD DUP4 PUSH1 0x60 ADD MLOAD PUSH2 0xE8D JUMP JUMPDEST PUSH2 0x7A1 JUMPI PUSH1 0x40 MLOAD PUSH3 0x461BCD PUSH1 0xE5 SHL DUP2 MSTORE PUSH1 0x20 PUSH1 0x4 DUP3 ADD MSTORE PUSH1 0x1D PUSH1 0x24 DUP3 ADD MSTORE PUSH32 0x726563697069656E74203C3E2073656E646572206D69732D6D61746368000000 PUSH1 0x44 DUP3 ADD MSTORE PUSH1 0x64 ADD PUSH2 0x437 JUMP JUMPDEST PUSH1 0x0 DUP2 PUSH1 0x80 ADD MLOAD SWAP1 POP DUP2 PUSH1 0xA0 ADD MLOAD PUSH1 0x6 PUSH1 0x0 DUP11 DUP9 DUP2 MLOAD DUP2 LT PUSH2 0x7C5 JUMPI PUSH2 0x7C5 PUSH2 0x1CCD JUMP JUMPDEST PUSH1 0x20 MUL PUSH1 0x20 ADD ADD MLOAD PUSH1 0x1 PUSH1 0x1 PUSH1 0xA0 SHL SUB AND PUSH1 0x1 PUSH1 0x1 PUSH1 0xA0 SHL SUB AND DUP2 MSTORE PUSH1 0x20 ADD SWAP1 DUP2 MSTORE PUSH1 0x20 ADD PUSH1 0x0 KECCAK256 SLOAD LT ISZERO PUSH2 0x84D JUMPI PUSH1 0x40 MLOAD PUSH3 0x461BCD PUSH1 0xE5 SHL DUP2 MSTORE PUSH1 0x20 PUSH1 0x4 DUP3 ADD MSTORE PUSH1 0x28 PUSH1 0x24 DUP3 ADD MSTORE PUSH32 0x627564676574203C3E2072656D61696E696E6720616C6C6F636174696F6E206D PUSH1 0x44 DUP3 ADD MSTORE PUSH8 0xD2E65ADAC2E8C6D PUSH1 0xC3 SHL PUSH1 0x64 DUP3 ADD MSTORE PUSH1 0x84 ADD PUSH2 0x437 JUMP JUMPDEST DUP2 PUSH1 0xA0 ADD MLOAD PUSH1 0x6 PUSH1 0x0 DUP11 DUP9 DUP2 MLOAD DUP2 LT PUSH2 0x868 JUMPI PUSH2 0x868 PUSH2 0x1CCD JUMP JUMPDEST PUSH1 0x20 MUL PUSH1 0x20 ADD ADD MLOAD PUSH1 0x1 PUSH1 0x1 PUSH1 0xA0 SHL SUB AND PUSH1 0x1 PUSH1 0x1 PUSH1 0xA0 SHL SUB AND DUP2 MSTORE PUSH1 0x20 ADD SWAP1 DUP2 MSTORE PUSH1 0x20 ADD PUSH1 0x0 KECCAK256 PUSH1 0x0 DUP3 DUP3 SLOAD PUSH2 0x89F SWAP2 SWAP1 PUSH2 0x1F1E JUMP JUMPDEST SWAP1 SWAP2 SSTORE POP POP PUSH20 0xEEEEEEEEEEEEEEEEEEEEEEEEEEEEEEEEEEEEEEED NOT PUSH1 0x1 PUSH1 0x1 PUSH1 0xA0 SHL SUB DUP3 AND ADD PUSH2 0x95D JUMPI DUP2 PUSH1 0xA0 ADD MLOAD PUSH32 0x0 PUSH1 0x1 PUSH1 0x1 PUSH1 0xA0 SHL SUB AND BALANCE LT ISZERO PUSH2 0x958 JUMPI PUSH1 0x40 MLOAD PUSH3 0x461BCD PUSH1 0xE5 SHL DUP2 MSTORE PUSH1 0x20 PUSH1 0x4 DUP3 ADD MSTORE PUSH1 0x28 PUSH1 0x24 DUP3 ADD MSTORE PUSH32 0x696E73756666696369656E74206E617469766520746F6B656E2066756E647320 PUSH1 0x44 DUP3 ADD MSTORE PUSH8 0x34B7103837B7B61 PUSH1 0xC5 SHL PUSH1 0x64 DUP3 ADD MSTORE PUSH1 0x84 ADD PUSH2 0x437 JUMP JUMPDEST PUSH2 0xB52 JUMP JUMPDEST PUSH1 0xA0 DUP3 ADD MLOAD PUSH1 0x40 MLOAD PUSH4 0x70A08231 PUSH1 0xE0 SHL DUP2 MSTORE PUSH1 0x1 PUSH1 0x1 PUSH1 0xA0 SHL SUB PUSH32 0x0 DUP2 AND PUSH1 0x4 DUP4 ADD MSTORE DUP4 AND SWAP1 PUSH4 0x70A08231 SWAP1 PUSH1 0x24 ADD PUSH1 0x20 PUSH1 0x40 MLOAD DUP1 DUP4 SUB DUP2 DUP7 GAS STATICCALL ISZERO DUP1 ISZERO PUSH2 0x9C8 JUMPI RETURNDATASIZE PUSH1 0x0 DUP1 RETURNDATACOPY RETURNDATASIZE PUSH1 0x0 REVERT JUMPDEST POP POP POP POP PUSH1 0x40 MLOAD RETURNDATASIZE PUSH1 0x1F NOT PUSH1 0x1F DUP3 ADD AND DUP3 ADD DUP1 PUSH1 0x40 MSTORE POP DUP2 ADD SWAP1 PUSH2 0x9EC SWAP2 SWAP1 PUSH2 0x1F31 JUMP JUMPDEST LT ISZERO PUSH2 0xA3A JUMPI PUSH1 0x40 MLOAD PUSH3 0x461BCD PUSH1 0xE5 SHL DUP2 MSTORE PUSH1 0x20 PUSH1 0x4 DUP3 ADD MSTORE PUSH1 0x1A PUSH1 0x24 DUP3 ADD MSTORE PUSH32 0x696E73756666696369656E742066756E647320696E20706F6F6C000000000000 PUSH1 0x44 DUP3 ADD MSTORE PUSH1 0x64 ADD PUSH2 0x437 JUMP JUMPDEST PUSH1 0x3 SLOAD PUSH1 0x40 DUP1 MLOAD DUP1 DUP3 ADD DUP3 MSTORE PUSH1 0x15 DUP2 MSTORE PUSH21 0x52455345525645445F4D4152474152495F434F5245 PUSH1 0x58 SHL PUSH1 0x20 DUP3 ADD MSTORE SWAP1 MLOAD PUSH4 0xBF40FAC1 PUSH1 0xE0 SHL DUP2 MSTORE PUSH1 0x1 PUSH1 0x1 PUSH1 0xA0 SHL SUB DUP1 DUP6 AND SWAP4 PUSH4 0x95EA7B3 SWAP4 SWAP2 AND SWAP2 PUSH4 0xBF40FAC1 SWAP2 PUSH2 0xA9B SWAP2 PUSH1 0x4 ADD PUSH2 0x1A24 JUMP JUMPDEST PUSH1 0x20 PUSH1 0x40 MLOAD DUP1 DUP4 SUB DUP2 DUP7 GAS STATICCALL ISZERO DUP1 ISZERO PUSH2 0xAB8 JUMPI RETURNDATASIZE PUSH1 0x0 DUP1 RETURNDATACOPY RETURNDATASIZE PUSH1 0x0 REVERT JUMPDEST POP POP POP POP PUSH1 0x40 MLOAD RETURNDATASIZE PUSH1 0x1F NOT PUSH1 0x1F DUP3 ADD AND DUP3 ADD DUP1 PUSH1 0x40 MSTORE POP DUP2 ADD SWAP1 PUSH2 0xADC SWAP2 SWAP1 PUSH2 0x1F4A JUMP JUMPDEST PUSH1 0xA0 DUP6 ADD MLOAD PUSH1 0x40 MLOAD PUSH1 0x1 PUSH1 0x1 PUSH1 0xE0 SHL SUB NOT PUSH1 0xE0 DUP6 SWAP1 SHL AND DUP2 MSTORE PUSH1 0x1 PUSH1 0x1 PUSH1 0xA0 SHL SUB SWAP1 SWAP3 AND PUSH1 0x4 DUP4 ADD MSTORE PUSH1 0x24 DUP3 ADD MSTORE PUSH1 0x44 ADD PUSH1 0x20 PUSH1 0x40 MLOAD DUP1 DUP4 SUB DUP2 PUSH1 0x0 DUP8 GAS CALL ISZERO DUP1 ISZERO PUSH2 0xB2C JUMPI RETURNDATASIZE PUSH1 0x0 DUP1 RETURNDATACOPY RETURNDATASIZE PUSH1 0x0 REVERT JUMPDEST POP POP POP POP PUSH1 0x40 MLOAD RETURNDATASIZE PUSH1 0x1F NOT PUSH1 0x1F DUP3 ADD AND DUP3 ADD DUP1 PUSH1 0x40 MSTORE POP DUP2 ADD SWAP1 PUSH2 0xB50 SWAP2 SWAP1 PUSH2 0x1F67 JUMP JUMPDEST POP JUMPDEST PUSH1 0x0 DUP4 PUSH1 0x1 PUSH1 0x1 PUSH1 0xA0 SHL SUB AND PUSH4 0x1FAE35D4 PUSH1 0x40 MLOAD DUP2 PUSH4 0xFFFFFFFF AND PUSH1 0xE0 SHL DUP2 MSTORE PUSH1 0x4 ADD PUSH1 0x0 PUSH1 0x40 MLOAD DUP1 DUP4 SUB DUP2 DUP7 GAS STATICCALL ISZERO DUP1 ISZERO PUSH2 0xB92 JUMPI RETURNDATASIZE PUSH1 0x0 DUP1 RETURNDATACOPY RETURNDATASIZE PUSH1 0x0 REVERT JUMPDEST POP POP POP POP PUSH1 0x40 MLOAD RETURNDATASIZE PUSH1 0x0 DUP3 RETURNDATACOPY PUSH1 0x1F RETURNDATASIZE SWAP1 DUP2 ADD PUSH1 0x1F NOT AND DUP3 ADD PUSH1 0x40 MSTORE PUSH2 0xBBA SWAP2 SWAP1 DUP2 ADD SWAP1 PUSH2 0x2032 JUMP JUMPDEST SWAP1 POP PUSH1 0x0 DUP1 PUSH2 0xBC9 DUP4 DUP9 PUSH2 0x110F JUMP JUMPDEST PUSH1 0x1 PUSH1 0x1 PUSH1 0xA0 SHL SUB DUP10 AND PUSH1 0x0 SWAP1 DUP2 MSTORE PUSH1 0xB PUSH1 0x20 MSTORE PUSH1 0x40 DUP2 KECCAK256 DUP1 SLOAD SWAP4 SWAP6 POP SWAP2 SWAP4 POP DUP4 SWAP3 PUSH2 0xBF6 SWAP1 DUP5 SWAP1 PUSH2 0x1CF9 JUMP JUMPDEST SWAP1 SWAP2 SSTORE POP POP PUSH1 0x1 SWAP1 SWAP8 ADD SWAP7 POP PUSH2 0x6AC SWAP6 POP POP POP POP POP POP JUMP JUMPDEST POP POP POP POP JUMP JUMPDEST PUSH1 0x0 DUP1 DUP4 DUP1 PUSH1 0x20 ADD SWAP1 MLOAD DUP2 ADD SWAP1 PUSH2 0xC2B SWAP2 SWAP1 PUSH2 0x1F4A JUMP JUMPDEST SWAP1 POP PUSH1 0x0 DUP2 SWAP1 POP PUSH1 0x0 DUP2 PUSH1 0x1 PUSH1 0x1 PUSH1 0xA0 SHL SUB AND PUSH4 0x3BA94ED8 PUSH1 0x40 MLOAD DUP2 PUSH4 0xFFFFFFFF AND PUSH1 0xE0 SHL DUP2 MSTORE PUSH1 0x4 ADD PUSH1 0x0 PUSH1 0x40 MLOAD DUP1 DUP4 SUB DUP2 DUP7 GAS STATICCALL ISZERO DUP1 ISZERO PUSH2 0xC72 JUMPI RETURNDATASIZE PUSH1 0x0 DUP1 RETURNDATACOPY RETURNDATASIZE PUSH1 0x0 REVERT JUMPDEST POP POP POP POP PUSH1 0x40 MLOAD RETURNDATASIZE PUSH1 0x0 DUP3 RETURNDATACOPY PUSH1 0x1F RETURNDATASIZE SWAP1 DUP2 ADD PUSH1 0x1F NOT AND DUP3 ADD PUSH1 0x40 MSTORE PUSH2 0xC9A SWAP2 SWAP1 DUP2 ADD SWAP1 PUSH2 0x1E30 JUMP JUMPDEST SWAP1 POP PUSH2 0xCAF DUP6 DUP3 PUSH1 0x40 ADD MLOAD DUP4 PUSH1 0x60 ADD MLOAD PUSH2 0xE8D JUMP JUMPDEST PUSH2 0xCEE JUMPI PUSH1 0x40 MLOAD PUSH3 0x461BCD PUSH1 0xE5 SHL DUP2 MSTORE PUSH1 0x20 PUSH1 0x4 DUP3 ADD MSTORE PUSH1 0x10 PUSH1 0x24 DUP3 ADD MSTORE PUSH16 0x1037B9339030B236B4B71037B7363C9 PUSH1 0x85 SHL PUSH1 0x44 DUP3 ADD MSTORE PUSH1 0x64 ADD PUSH2 0x437 JUMP JUMPDEST POP POP PUSH1 0x4 DUP1 SLOAD PUSH1 0x1 DUP2 ADD DUP3 SSTORE PUSH1 0x0 SWAP2 SWAP1 SWAP2 MSTORE PUSH32 0x8A35ACFBC15FF81A39AE7D344FD709F28E8600B4AA8C65C6B64BFE7FE36BD19B ADD DUP1 SLOAD PUSH1 0x1 PUSH1 0x1 PUSH1 0xA0 SHL SUB NOT AND PUSH1 0x1 PUSH1 0x1 PUSH1 0xA0 SHL SUB DUP4 AND OR SWAP1 SSTORE SWAP4 SWAP3 POP POP POP JUMP JUMPDEST PUSH1 0x0 DUP3 DUP1 PUSH1 0x20 ADD SWAP1 MLOAD DUP2 ADD SWAP1 PUSH2 0xD58 SWAP2 SWAP1 PUSH2 0x215F JUMP JUMPDEST SWAP1 POP PUSH1 0x0 DUP2 PUSH1 0x0 ADD MLOAD SWAP1 POP PUSH1 0x0 DUP2 PUSH1 0x1 PUSH1 0x1 PUSH1 0xA0 SHL SUB AND PUSH4 0x3BA94ED8 PUSH1 0x40 MLOAD DUP2 PUSH4 0xFFFFFFFF AND PUSH1 0xE0 SHL DUP2 MSTORE PUSH1 0x4 ADD PUSH1 0x0 PUSH1 0x40 MLOAD DUP1 DUP4 SUB DUP2 DUP7 GAS STATICCALL ISZERO DUP1 ISZERO PUSH2 0xDA3 JUMPI RETURNDATASIZE PUSH1 0x0 DUP1 RETURNDATACOPY RETURNDATASIZE PUSH1 0x0 REVERT JUMPDEST POP POP POP POP PUSH1 0x40 MLOAD RETURNDATASIZE PUSH1 0x0 DUP3 RETURNDATACOPY PUSH1 0x1F RETURNDATASIZE SWAP1 DUP2 ADD PUSH1 0x1F NOT AND DUP3 ADD PUSH1 0x40 MSTORE PUSH2 0xDCB SWAP2 SWAP1 DUP2 ADD SWAP1 PUSH2 0x1E30 JUMP JUMPDEST SWAP1 POP PUSH2 0xDE0 DUP5 DUP3 PUSH1 0x40 ADD MLOAD DUP4 PUSH1 0x60 ADD MLOAD PUSH2 0xE8D JUMP JUMPDEST PUSH2 0xE1F JUMPI PUSH1 0x40 MLOAD PUSH3 0x461BCD PUSH1 0xE5 SHL DUP2 MSTORE PUSH1 0x20 PUSH1 0x4 DUP3 ADD MSTORE PUSH1 0x10 PUSH1 0x24 DUP3 ADD MSTORE PUSH16 0x1037B9339030B236B4B71037B7363C9 PUSH1 0x85 SHL PUSH1 0x44 DUP3 ADD MSTORE PUSH1 0x64 ADD PUSH2 0x437 JUMP JUMPDEST PUSH1 0x20 DUP1 DUP5 ADD MLOAD DUP5 MLOAD PUSH1 0x1 PUSH1 0x1 PUSH1 0xA0 SHL SUB SWAP1 DUP2 AND PUSH1 0x0 SWAP1 DUP2 MSTORE PUSH1 0x5 DUP1 DUP6 MSTORE PUSH1 0x40 DUP1 DUP4 KECCAK256 SWAP5 SWAP1 SWAP5 SSTORE DUP8 MLOAD DUP4 AND DUP3 MSTORE PUSH1 0x7 DUP6 MSTORE DUP4 DUP3 KECCAK256 SLOAD DUP9 MLOAD SWAP1 SWAP4 AND DUP3 MSTORE SWAP1 SWAP4 MSTORE SWAP2 KECCAK256 SLOAD PUSH2 0xE6A SWAP2 SWAP1 PUSH2 0x1F1E JUMP JUMPDEST SWAP3 MLOAD PUSH1 0x1 PUSH1 0x1 PUSH1 0xA0 SHL SUB AND PUSH1 0x0 SWAP1 DUP2 MSTORE PUSH1 0x6 PUSH1 0x20 MSTORE PUSH1 0x40 SWAP1 KECCAK256 SWAP3 SWAP1 SWAP3 SSTORE POP POP POP POP JUMP JUMPDEST PUSH1 0x3 SLOAD PUSH1 0x40 DUP1 MLOAD DUP1 DUP3 ADD DUP3 MSTORE PUSH1 0x12 DUP2 MSTORE PUSH18 0x52455345525645445F414C4C4F5F434F5245 PUSH1 0x70 SHL PUSH1 0x20 DUP3 ADD MSTORE SWAP1 MLOAD PUSH4 0xBF40FAC1 PUSH1 0xE0 SHL DUP2 MSTORE PUSH1 0x0 SWAP3 DUP4 SWAP3 PUSH1 0x1 PUSH1 0x1 PUSH1 0xA0 SHL SUB SWAP1 SWAP2 AND SWAP2 PUSH4 0xBF40FAC1 SWAP2 PUSH2 0xEE7 SWAP2 PUSH1 0x4 ADD PUSH2 0x1A24 JUMP JUMPDEST PUSH1 0x20 PUSH1 0x40 MLOAD DUP1 DUP4 SUB DUP2 DUP7 GAS STATICCALL ISZERO DUP1 ISZERO PUSH2 0xF04 JUMPI RETURNDATASIZE PUSH1 0x0 DUP1 RETURNDATACOPY RETURNDATASIZE PUSH1 0x0 REVERT JUMPDEST POP POP POP POP PUSH1 0x40 MLOAD RETURNDATASIZE PUSH1 0x1F NOT PUSH1 0x1F DUP3 ADD AND DUP3 ADD DUP1 PUSH1 0x40 MSTORE POP DUP2 ADD SWAP1 PUSH2 0xF28 SWAP2 SWAP1 PUSH2 0x1F4A JUMP JUMPDEST SWAP1 POP PUSH1 0x0 DUP2 PUSH1 0x1 PUSH1 0x1 PUSH1 0xA0 SHL SUB AND PUSH4 0x5AB1BD53 PUSH1 0x40 MLOAD DUP2 PUSH4 0xFFFFFFFF AND PUSH1 0xE0 SHL DUP2 MSTORE PUSH1 0x4 ADD PUSH1 0x20 PUSH1 0x40 MLOAD DUP1 DUP4 SUB DUP2 DUP7 GAS STATICCALL ISZERO DUP1 ISZERO PUSH2 0xF6A JUMPI RETURNDATASIZE PUSH1 0x0 DUP1 RETURNDATACOPY RETURNDATASIZE PUSH1 0x0 REVERT JUMPDEST POP POP POP POP PUSH1 0x40 MLOAD RETURNDATASIZE PUSH1 0x1F NOT PUSH1 0x1F DUP3 ADD AND DUP3 ADD DUP1 PUSH1 0x40 MSTORE POP DUP2 ADD SWAP1 PUSH2 0xF8E SWAP2 SWAP1 PUSH2 0x1F4A JUMP JUMPDEST PUSH1 0x40 MLOAD PUSH4 0x29E40D4B PUSH1 0xE0 SHL DUP2 MSTORE PUSH1 0x4 DUP2 ADD DUP8 SWAP1 MSTORE PUSH1 0x1 PUSH1 0x1 PUSH1 0xA0 SHL SUB DUP9 DUP2 AND PUSH1 0x24 DUP4 ADD MSTORE SWAP2 SWAP3 POP SWAP1 DUP4 AND SWAP1 PUSH4 0x29E40D4B SWAP1 PUSH1 0x44 ADD PUSH1 0x20 PUSH1 0x40 MLOAD DUP1 DUP4 SUB DUP2 DUP7 GAS STATICCALL ISZERO DUP1 ISZERO PUSH2 0xFDF JUMPI RETURNDATASIZE PUSH1 0x0 DUP1 RETURNDATACOPY RETURNDATASIZE PUSH1 0x0 REVERT JUMPDEST POP POP POP POP PUSH1 0x40 MLOAD RETURNDATASIZE PUSH1 0x1F NOT PUSH1 0x1F DUP3 ADD AND DUP3 ADD DUP1 PUSH1 0x40 MSTORE POP DUP2 ADD SWAP1 PUSH2 0x1003 SWAP2 SWAP1 PUSH2 0x1F67 JUMP JUMPDEST DUP1 PUSH2 0x107A JUMPI POP PUSH1 0x40 MLOAD PUSH4 0x559FF5E3 PUSH1 0xE1 SHL DUP2 MSTORE PUSH1 0x4 DUP2 ADD DUP7 SWAP1 MSTORE PUSH1 0x1 PUSH1 0x1 PUSH1 0xA0 SHL SUB DUP8 DUP2 AND PUSH1 0x24 DUP4 ADD MSTORE DUP4 AND SWAP1 PUSH4 0xAB3FEBC6 SWAP1 PUSH1 0x44 ADD PUSH1 0x20 PUSH1 0x40 MLOAD DUP1 DUP4 SUB DUP2 DUP7 GAS STATICCALL ISZERO DUP1 ISZERO PUSH2 0x1056 JUMPI RETURNDATASIZE PUSH1 0x0 DUP1 RETURNDATACOPY RETURNDATASIZE PUSH1 0x0 REVERT JUMPDEST POP POP POP POP PUSH1 0x40 MLOAD RETURNDATASIZE PUSH1 0x1F NOT PUSH1 0x1F DUP3 ADD AND DUP3 ADD DUP1 PUSH1 0x40 MSTORE POP DUP2 ADD SWAP1 PUSH2 0x107A SWAP2 SWAP1 PUSH2 0x1F67 JUMP JUMPDEST DUP1 PUSH2 0x10F1 JUMPI POP PUSH1 0x40 MLOAD PUSH4 0xE6E1AE3 PUSH1 0xE2 SHL DUP2 MSTORE PUSH1 0x4 DUP2 ADD DUP6 SWAP1 MSTORE PUSH1 0x1 PUSH1 0x1 PUSH1 0xA0 SHL SUB DUP8 DUP2 AND PUSH1 0x24 DUP4 ADD MSTORE DUP3 AND SWAP1 PUSH4 0x39B86B8C SWAP1 PUSH1 0x44 ADD PUSH1 0x20 PUSH1 0x40 MLOAD DUP1 DUP4 SUB DUP2 DUP7 GAS STATICCALL ISZERO DUP1 ISZERO PUSH2 0x10CD JUMPI RETURNDATASIZE PUSH1 0x0 DUP1 RETURNDATACOPY RETURNDATASIZE PUSH1 0x0 REVERT JUMPDEST POP POP POP POP PUSH1 0x40 MLOAD RETURNDATASIZE PUSH1 0x1F NOT PUSH1 0x1F DUP3 ADD AND DUP3 ADD DUP1 PUSH1 0x40 MSTORE POP DUP2 ADD SWAP1 PUSH2 0x10F1 SWAP2 SWAP1 PUSH2 0x1F67 JUMP JUMPDEST ISZERO PUSH2 0x1101 JUMPI PUSH1 0x1 SWAP3 POP POP POP PUSH2 0x1108 JUMP JUMPDEST PUSH1 0x0 SWAP3 POP POP POP JUMPDEST SWAP4 SWAP3 POP POP POP JUMP JUMPDEST PUSH1 0x3 SLOAD PUSH1 0x40 DUP1 MLOAD DUP1 DUP3 ADD DUP3 MSTORE PUSH1 0x15 DUP2 MSTORE PUSH21 0x52455345525645445F4D4152474152495F434F5245 PUSH1 0x58 SHL PUSH1 0x20 DUP3 ADD MSTORE SWAP1 MLOAD PUSH4 0xBF40FAC1 PUSH1 0xE0 SHL DUP2 MSTORE PUSH1 0x60 SWAP3 PUSH1 0x0 SWAP3 DUP4 SWAP3 PUSH1 0x1 PUSH1 0x1 PUSH1 0xA0 SHL SUB SWAP1 SWAP3 AND SWAP2 PUSH4 0xBF40FAC1 SWAP2 PUSH2 0x116F SWAP2 PUSH1 0x4 ADD PUSH2 0x1A24 JUMP JUMPDEST PUSH1 0x20 PUSH1 0x40 MLOAD DUP1 DUP4 SUB DUP2 DUP7 GAS STATICCALL ISZERO DUP1 ISZERO PUSH2 0x118C JUMPI RETURNDATASIZE PUSH1 0x0 DUP1 RETURNDATACOPY RETURNDATASIZE PUSH1 0x0 REVERT JUMPDEST POP POP POP POP PUSH1 0x40 MLOAD RETURNDATASIZE PUSH1 0x1F NOT PUSH1 0x1F DUP3 ADD AND DUP3 ADD DUP1 PUSH1 0x40 MSTORE POP DUP2 ADD SWAP1 PUSH2 0x11B0 SWAP2 SWAP1 PUSH2 0x1F4A JUMP JUMPDEST DUP6 MLOAD SWAP1 SWAP2 POP DUP5 SWAP1 PUSH1 0x1 PUSH1 0x1 PUSH1 0x40 SHL SUB DUP2 GT ISZERO PUSH2 0x11CE JUMPI PUSH2 0x11CE PUSH2 0x178C JUMP JUMPDEST PUSH1 0x40 MLOAD SWAP1 DUP1 DUP3 MSTORE DUP1 PUSH1 0x20 MUL PUSH1 0x20 ADD DUP3 ADD PUSH1 0x40 MSTORE DUP1 ISZERO PUSH2 0x11F7 JUMPI DUP2 PUSH1 0x20 ADD PUSH1 0x20 DUP3 MUL DUP1 CALLDATASIZE DUP4 CALLDATACOPY ADD SWAP1 POP JUMPDEST POP SWAP4 POP PUSH1 0x0 JUMPDEST DUP7 MLOAD DUP2 LT ISZERO PUSH2 0x1768 JUMPI PUSH1 0x0 DUP8 DUP3 DUP2 MLOAD DUP2 LT PUSH2 0x121A JUMPI PUSH2 0x121A PUSH2 0x1CCD JUMP JUMPDEST PUSH1 0x20 MUL PUSH1 0x20 ADD ADD MLOAD SWAP1 POP DUP1 PUSH1 0xA0 ADD MLOAD DUP6 PUSH2 0x1234 SWAP2 SWAP1 PUSH2 0x1CF9 JUMP JUMPDEST SWAP5 POP PUSH1 0x3 PUSH1 0x0 SWAP1 SLOAD SWAP1 PUSH2 0x100 EXP SWAP1 DIV PUSH1 0x1 PUSH1 0x1 PUSH1 0xA0 SHL SUB AND PUSH1 0x1 PUSH1 0x1 PUSH1 0xA0 SHL SUB AND PUSH4 0x3408E470 PUSH1 0x40 MLOAD DUP2 PUSH4 0xFFFFFFFF AND PUSH1 0xE0 SHL DUP2 MSTORE PUSH1 0x4 ADD PUSH1 0x20 PUSH1 0x40 MLOAD DUP1 DUP4 SUB DUP2 DUP7 GAS STATICCALL ISZERO DUP1 ISZERO PUSH2 0x1289 JUMPI RETURNDATASIZE PUSH1 0x0 DUP1 RETURNDATACOPY RETURNDATASIZE PUSH1 0x0 REVERT JUMPDEST POP POP POP POP PUSH1 0x40 MLOAD RETURNDATASIZE PUSH1 0x1F NOT PUSH1 0x1F DUP3 ADD AND DUP3 ADD DUP1 PUSH1 0x40 MSTORE POP DUP2 ADD SWAP1 PUSH2 0x12AD SWAP2 SWAP1 PUSH2 0x1F31 JUMP JUMPDEST DUP2 PUSH1 0x20 ADD MLOAD PUSH1 0x20 ADD MLOAD EQ PUSH2 0x1475 JUMPI PUSH20 0xEEEEEEEEEEEEEEEEEEEEEEEEEEEEEEEEEEEEEEEE PUSH1 0x1 PUSH1 0x1 PUSH1 0xA0 SHL SUB AND DUP2 PUSH1 0xC0 ADD MLOAD PUSH1 0x1 PUSH1 0x1 PUSH1 0xA0 SHL SUB AND SUB PUSH2 0x13C2 JUMPI PUSH1 0xA0 DUP2 ADD MLOAD PUSH1 0x20 DUP1 DUP4 ADD MLOAD SWAP1 DUP2 ADD MLOAD PUSH1 0xC0 DUP5 ADD MLOAD PUSH1 0x40 SWAP3 DUP4 ADD MLOAD PUSH1 0x60 DUP7 ADD MLOAD DUP5 DUP8 ADD MLOAD SWAP5 MLOAD PUSH4 0x60F71BF1 PUSH1 0xE1 SHL DUP2 MSTORE PUSH1 0x4 DUP2 ADD SWAP5 SWAP1 SWAP5 MSTORE PUSH1 0x1 PUSH1 0x1 PUSH1 0xA0 SHL SUB SWAP3 DUP4 AND PUSH1 0x24 DUP6 ADD MSTORE PUSH1 0x44 DUP5 ADD DUP7 SWAP1 MSTORE SWAP1 DUP3 AND PUSH1 0x64 DUP5 ADD MSTORE PUSH1 0x84 DUP4 ADD MSTORE PUSH1 0xA4 DUP3 ADD SWAP3 SWAP1 SWAP3 MSTORE SWAP1 DUP7 AND SWAP2 PUSH4 0xC1EE37E2 SWAP2 PUSH1 0xC4 ADD PUSH1 0x20 PUSH1 0x40 MLOAD DUP1 DUP4 SUB DUP2 DUP6 DUP9 GAS CALL ISZERO DUP1 ISZERO PUSH2 0x137A JUMPI RETURNDATASIZE PUSH1 0x0 DUP1 RETURNDATACOPY RETURNDATASIZE PUSH1 0x0 REVERT JUMPDEST POP POP POP POP POP PUSH1 0x40 MLOAD RETURNDATASIZE PUSH1 0x1F NOT PUSH1 0x1F DUP3 ADD AND DUP3 ADD DUP1 PUSH1 0x40 MSTORE POP DUP2 ADD SWAP1 PUSH2 0x139F SWAP2 SWAP1 PUSH2 0x1F31 JUMP JUMPDEST DUP7 DUP4 DUP2 MLOAD DUP2 LT PUSH2 0x13B1 JUMPI PUSH2 0x13B1 PUSH2 0x1CCD JUMP JUMPDEST PUSH1 0x20 MUL PUSH1 0x20 ADD ADD DUP2 DUP2 MSTORE POP POP PUSH2 0x15A3 JUMP JUMPDEST PUSH1 0x20 DUP1 DUP3 ADD MLOAD SWAP1 DUP2 ADD MLOAD PUSH1 0xC0 DUP4 ADD MLOAD PUSH1 0xA0 DUP5 ADD MLOAD PUSH1 0x40 SWAP4 DUP5 ADD MLOAD PUSH1 0x60 DUP7 ADD MLOAD DUP6 DUP8 ADD MLOAD SWAP6 MLOAD PUSH4 0x60F71BF1 PUSH1 0xE1 SHL DUP2 MSTORE PUSH1 0x4 DUP2 ADD SWAP6 SWAP1 SWAP6 MSTORE PUSH1 0x1 PUSH1 0x1 PUSH1 0xA0 SHL SUB SWAP4 DUP5 AND PUSH1 0x24 DUP7 ADD MSTORE PUSH1 0x44 DUP6 ADD SWAP3 SWAP1 SWAP3 MSTORE DUP3 AND PUSH1 0x64 DUP5 ADD MSTORE PUSH1 0x84 DUP4 ADD MSTORE PUSH1 0xA4 DUP3 ADD SWAP3 SWAP1 SWAP3 MSTORE SWAP1 DUP6 AND SWAP1 PUSH4 0xC1EE37E2 SWAP1 PUSH1 0xC4 ADD PUSH1 0x20 PUSH1 0x40 MLOAD DUP1 DUP4 SUB DUP2 PUSH1 0x0 DUP8 GAS CALL ISZERO DUP1 ISZERO PUSH2 0x1451 JUMPI RETURNDATASIZE PUSH1 0x0 DUP1 RETURNDATACOPY RETURNDATASIZE PUSH1 0x0 REVERT JUMPDEST POP POP POP POP PUSH1 0x40 MLOAD RETURNDATASIZE PUSH1 0x1F NOT PUSH1 0x1F DUP3 ADD AND DUP3 ADD DUP1 PUSH1 0x40 MSTORE POP DUP2 ADD SWAP1 PUSH2 0x139F SWAP2 SWAP1 PUSH2 0x1F31 JUMP JUMPDEST PUSH20 0xEEEEEEEEEEEEEEEEEEEEEEEEEEEEEEEEEEEEEEEE PUSH1 0x1 PUSH1 0x1 PUSH1 0xA0 SHL SUB AND DUP2 PUSH1 0xC0 ADD MLOAD PUSH1 0x1 PUSH1 0x1 PUSH1 0xA0 SHL SUB AND SUB PUSH2 0x14F1 JUMPI DUP1 PUSH1 0x20 ADD MLOAD PUSH1 0x40 ADD MLOAD PUSH1 0x1 PUSH1 0x1 PUSH1 0xA0 SHL SUB AND PUSH2 0x8FC DUP3 PUSH1 0xA0 ADD MLOAD SWAP1 DUP2 ISZERO MUL SWAP1 PUSH1 0x40 MLOAD PUSH1 0x0 PUSH1 0x40 MLOAD DUP1 DUP4 SUB DUP2 DUP6 DUP9 DUP9 CALL SWAP4 POP POP POP POP ISZERO DUP1 ISZERO PUSH2 0x14EB JUMPI RETURNDATASIZE PUSH1 0x0 DUP1 RETURNDATACOPY RETURNDATASIZE PUSH1 0x0 REVERT JUMPDEST POP PUSH2 0x157C JUMP JUMPDEST PUSH1 0xC0 DUP2 ADD MLOAD PUSH1 0x20 DUP3 ADD MLOAD PUSH1 0x40 SWAP1 DUP2 ADD MLOAD PUSH1 0xA0 DUP5 ADD MLOAD SWAP2 MLOAD PUSH4 0xA9059CBB PUSH1 0xE0 SHL DUP2 MSTORE PUSH1 0x1 PUSH1 0x1 PUSH1 0xA0 SHL SUB SWAP2 DUP3 AND PUSH1 0x4 DUP3 ADD MSTORE PUSH1 0x24 DUP2 ADD SWAP3 SWAP1 SWAP3 MSTORE SWAP1 SWAP2 AND SWAP1 PUSH4 0xA9059CBB SWAP1 PUSH1 0x44 ADD PUSH1 0x20 PUSH1 0x40 MLOAD DUP1 DUP4 SUB DUP2 PUSH1 0x0 DUP8 GAS CALL ISZERO DUP1 ISZERO PUSH2 0x1556 JUMPI RETURNDATASIZE PUSH1 0x0 DUP1 RETURNDATACOPY RETURNDATASIZE PUSH1 0x0 REVERT JUMPDEST POP POP POP POP PUSH1 0x40 MLOAD RETURNDATASIZE PUSH1 0x1F NOT PUSH1 0x1F DUP3 ADD AND DUP3 ADD DUP1 PUSH1 0x40 MSTORE POP DUP2 ADD SWAP1 PUSH2 0x157A SWAP2 SWAP1 PUSH2 0x1F67 JUMP JUMPDEST POP JUMPDEST PUSH2 0x1584 PUSH2 0x1772 JUMP JUMPDEST DUP7 DUP4 DUP2 MLOAD DUP2 LT PUSH2 0x1596 JUMPI PUSH2 0x1596 PUSH2 0x1CCD JUMP JUMPDEST PUSH1 0x20 MUL PUSH1 0x20 ADD ADD DUP2 DUP2 MSTORE POP POP JUMPDEST PUSH1 0x80 DUP2 ADD MLOAD PUSH1 0x40 MLOAD PUSH4 0x26192DF PUSH1 0xE1 SHL DUP2 MSTORE PUSH1 0x1 PUSH1 0x1 PUSH1 0xA0 SHL SUB DUP6 AND SWAP2 PUSH4 0x4C325BE SWAP2 PUSH2 0x15D6 SWAP2 SWAP1 PUSH1 0x2 SWAP1 PUSH1 0x4 ADD PUSH2 0x2199 JUMP JUMPDEST PUSH1 0x20 PUSH1 0x40 MLOAD DUP1 DUP4 SUB DUP2 PUSH1 0x0 DUP8 GAS CALL ISZERO DUP1 ISZERO PUSH2 0x15F5 JUMPI RETURNDATASIZE PUSH1 0x0 DUP1 RETURNDATACOPY RETURNDATASIZE PUSH1 0x0 REVERT JUMPDEST POP POP POP POP PUSH1 0x40 MLOAD RETURNDATASIZE PUSH1 0x1F NOT PUSH1 0x1F DUP3 ADD AND DUP3 ADD DUP1 PUSH1 0x40 MSTORE POP DUP2 ADD SWAP1 PUSH2 0x1619 SWAP2 SWAP1 PUSH2 0x1F67 JUMP JUMPDEST POP DUP1 PUSH1 0x9 PUSH1 0x0 DUP9 DUP6 DUP2 MLOAD DUP2 LT PUSH2 0x1631 JUMPI PUSH2 0x1631 PUSH2 0x1CCD JUMP JUMPDEST PUSH1 0x20 MUL PUSH1 0x20 ADD ADD MLOAD DUP2 MSTORE PUSH1 0x20 ADD SWAP1 DUP2 MSTORE PUSH1 0x20 ADD PUSH1 0x0 KECCAK256 PUSH1 0x0 DUP3 ADD MLOAD DUP2 PUSH1 0x0 ADD SSTORE PUSH1 0x20 DUP3 ADD MLOAD DUP2 PUSH1 0x1 ADD PUSH1 0x0 DUP3 ADD MLOAD DUP2 PUSH1 0x0 ADD SSTORE PUSH1 0x20 DUP3 ADD MLOAD DUP2 PUSH1 0x1 ADD SSTORE PUSH1 0x40 DUP3 ADD MLOAD DUP2 PUSH1 0x2 ADD PUSH1 0x0 PUSH2 0x100 EXP DUP2 SLOAD DUP2 PUSH1 0x1 PUSH1 0x1 PUSH1 0xA0 SHL SUB MUL NOT AND SWAP1 DUP4 PUSH1 0x1 PUSH1 0x1 PUSH1 0xA0 SHL SUB AND MUL OR SWAP1 SSTORE POP PUSH1 0x60 DUP3 ADD MLOAD DUP2 PUSH1 0x3 ADD PUSH1 0x0 DUP3 ADD MLOAD DUP2 PUSH1 0x0 ADD SSTORE PUSH1 0x20 DUP3 ADD MLOAD DUP2 PUSH1 0x1 ADD SWAP1 DUP2 PUSH2 0x16C3 SWAP2 SWAP1 PUSH2 0x2247 JUMP JUMPDEST POP POP POP POP PUSH1 0x40 DUP4 DUP2 ADD MLOAD PUSH1 0x6 DUP5 ADD SSTORE PUSH1 0x60 DUP5 ADD MLOAD PUSH1 0x7 DUP5 ADD SSTORE PUSH1 0x80 DUP5 ADD MLOAD PUSH1 0x8 DUP5 ADD SSTORE PUSH1 0xA0 DUP5 ADD MLOAD PUSH1 0x9 DUP5 ADD SSTORE PUSH1 0xC0 SWAP1 SWAP4 ADD MLOAD PUSH1 0xA SWAP3 DUP4 ADD DUP1 SLOAD PUSH1 0x1 PUSH1 0x1 PUSH1 0xA0 SHL SUB NOT AND PUSH1 0x1 PUSH1 0x1 PUSH1 0xA0 SHL SUB SWAP3 DUP4 AND OR SWAP1 SSTORE DUP11 AND PUSH1 0x0 SWAP1 DUP2 MSTORE PUSH1 0x20 SWAP3 SWAP1 SWAP3 MSTORE POP KECCAK256 DUP7 MLOAD DUP8 SWAP1 DUP5 SWAP1 DUP2 LT PUSH2 0x1738 JUMPI PUSH2 0x1738 PUSH2 0x1CCD JUMP JUMPDEST PUSH1 0x20 SWAP1 DUP2 MUL SWAP2 SWAP1 SWAP2 ADD DUP2 ADD MLOAD DUP3 SLOAD PUSH1 0x1 DUP2 DUP2 ADD DUP6 SSTORE PUSH1 0x0 SWAP5 DUP6 MSTORE SWAP3 SWAP1 SWAP4 KECCAK256 SWAP1 SWAP3 ADD SWAP2 SWAP1 SWAP2 SSTORE SWAP2 SWAP1 SWAP2 ADD SWAP1 POP PUSH2 0x11FD JUMP JUMPDEST POP POP POP SWAP3 POP SWAP3 SWAP1 POP JUMP JUMPDEST PUSH1 0xC DUP1 SLOAD SWAP1 DUP2 SWAP1 PUSH1 0x0 PUSH2 0x1784 DUP4 PUSH2 0x2306 JUMP JUMPDEST SWAP2 SWAP1 POP SSTORE POP SWAP1 JUMP JUMPDEST PUSH4 0x4E487B71 PUSH1 0xE0 SHL PUSH1 0x0 MSTORE PUSH1 0x41 PUSH1 0x4 MSTORE PUSH1 0x24 PUSH1 0x0 REVERT JUMPDEST PUSH1 0x40 MLOAD PUSH2 0x100 DUP2 ADD PUSH1 0x1 PUSH1 0x1 PUSH1 0x40 SHL SUB DUP2 GT DUP3 DUP3 LT OR ISZERO PUSH2 0x17C5 JUMPI PUSH2 0x17C5 PUSH2 0x178C JUMP JUMPDEST PUSH1 0x40 MSTORE SWAP1 JUMP JUMPDEST PUSH1 0x40 MLOAD PUSH1 0x80 DUP2 ADD PUSH1 0x1 PUSH1 0x1 PUSH1 0x40 SHL SUB DUP2 GT DUP3 DUP3 LT OR ISZERO PUSH2 0x17C5 JUMPI PUSH2 0x17C5 PUSH2 0x178C JUMP JUMPDEST PUSH1 0x40 DUP1 MLOAD SWAP1 DUP2 ADD PUSH1 0x1 PUSH1 0x1 PUSH1 0x40 SHL SUB DUP2 GT DUP3 DUP3 LT OR ISZERO PUSH2 0x17C5 JUMPI PUSH2 0x17C5 PUSH2 0x178C JUMP JUMPDEST PUSH1 0x40 MLOAD PUSH1 0xE0 DUP2 ADD PUSH1 0x1 PUSH1 0x1 PUSH1 0x40 SHL SUB DUP2 GT DUP3 DUP3 LT OR ISZERO PUSH2 0x17C5 JUMPI PUSH2 0x17C5 PUSH2 0x178C JUMP JUMPDEST PUSH1 0x40 MLOAD PUSH1 0x1F DUP3 ADD PUSH1 0x1F NOT AND DUP2 ADD PUSH1 0x1 PUSH1 0x1 PUSH1 0x40 SHL SUB DUP2 GT DUP3 DUP3 LT OR ISZERO PUSH2 0x1859 JUMPI PUSH2 0x1859 PUSH2 0x178C JUMP JUMPDEST PUSH1 0x40 MSTORE SWAP2 SWAP1 POP JUMP JUMPDEST PUSH1 0x0 PUSH1 0x1 PUSH1 0x1 PUSH1 0x40 SHL SUB DUP3 GT ISZERO PUSH2 0x187A JUMPI PUSH2 0x187A PUSH2 0x178C JUMP JUMPDEST POP PUSH1 0x5 SHL PUSH1 0x20 ADD SWAP1 JUMP JUMPDEST PUSH1 0x1 PUSH1 0x1 PUSH1 0xA0 SHL SUB DUP2 AND DUP2 EQ PUSH2 0x5F9 JUMPI PUSH1 0x0 DUP1 REVERT JUMPDEST PUSH1 0x0 DUP3 PUSH1 0x1F DUP4 ADD SLT PUSH2 0x18AA JUMPI PUSH1 0x0 DUP1 REVERT JUMPDEST DUP2 CALLDATALOAD PUSH1 0x20 PUSH2 0x18BF PUSH2 0x18BA DUP4 PUSH2 0x1861 JUMP JUMPDEST PUSH2 0x1831 JUMP JUMPDEST DUP1 DUP4 DUP3 MSTORE PUSH1 0x20 DUP3 ADD SWAP2 POP PUSH1 0x20 DUP5 PUSH1 0x5 SHL DUP8 ADD ADD SWAP4 POP DUP7 DUP5 GT ISZERO PUSH2 0x18E1 JUMPI PUSH1 0x0 DUP1 REVERT JUMPDEST PUSH1 0x20 DUP7 ADD JUMPDEST DUP5 DUP2 LT ISZERO PUSH2 0x1906 JUMPI DUP1 CALLDATALOAD PUSH2 0x18F9 DUP2 PUSH2 0x1884 JUMP JUMPDEST DUP4 MSTORE SWAP2 DUP4 ADD SWAP2 DUP4 ADD PUSH2 0x18E6 JUMP JUMPDEST POP SWAP7 SWAP6 POP POP POP POP POP POP JUMP JUMPDEST PUSH1 0x0 PUSH1 0x1 PUSH1 0x1 PUSH1 0x40 SHL SUB DUP3 GT ISZERO PUSH2 0x192A JUMPI PUSH2 0x192A PUSH2 0x178C JUMP JUMPDEST POP PUSH1 0x1F ADD PUSH1 0x1F NOT AND PUSH1 0x20 ADD SWAP1 JUMP JUMPDEST PUSH1 0x0 DUP3 PUSH1 0x1F DUP4 ADD SLT PUSH2 0x1949 JUMPI PUSH1 0x0 DUP1 REVERT JUMPDEST DUP2 CALLDATALOAD PUSH2 0x1957 PUSH2 0x18BA DUP3 PUSH2 0x1911 JUMP JUMPDEST DUP2 DUP2 MSTORE DUP5 PUSH1 0x20 DUP4 DUP7 ADD ADD GT ISZERO PUSH2 0x196C JUMPI PUSH1 0x0 DUP1 REVERT JUMPDEST DUP2 PUSH1 0x20 DUP6 ADD PUSH1 0x20 DUP4 ADD CALLDATACOPY PUSH1 0x0 SWAP2 DUP2 ADD PUSH1 0x20 ADD SWAP2 SWAP1 SWAP2 MSTORE SWAP4 SWAP3 POP POP POP JUMP JUMPDEST PUSH1 0x0 DUP1 PUSH1 0x0 PUSH1 0x60 DUP5 DUP7 SUB SLT ISZERO PUSH2 0x199E JUMPI PUSH1 0x0 DUP1 REVERT JUMPDEST DUP4 CALLDATALOAD PUSH1 0x1 PUSH1 0x1 PUSH1 0x40 SHL SUB DUP1 DUP3 GT ISZERO PUSH2 0x19B5 JUMPI PUSH1 0x0 DUP1 REVERT JUMPDEST PUSH2 0x19C1 DUP8 DUP4 DUP9 ADD PUSH2 0x1899 JUMP JUMPDEST SWAP5 POP PUSH1 0x20 DUP7 ADD CALLDATALOAD SWAP2 POP DUP1 DUP3 GT ISZERO PUSH2 0x19D7 JUMPI PUSH1 0x0 DUP1 REVERT JUMPDEST POP PUSH2 0x19E4 DUP7 DUP3 DUP8 ADD PUSH2 0x1938 JUMP JUMPDEST SWAP3 POP POP PUSH1 0x40 DUP5 ADD CALLDATALOAD PUSH2 0x19F5 DUP2 PUSH2 0x1884 JUMP JUMPDEST DUP1 SWAP2 POP POP SWAP3 POP SWAP3 POP SWAP3 JUMP JUMPDEST PUSH1 0x0 JUMPDEST DUP4 DUP2 LT ISZERO PUSH2 0x1A1B JUMPI DUP2 DUP2 ADD MLOAD DUP4 DUP3 ADD MSTORE PUSH1 0x20 ADD PUSH2 0x1A03 JUMP JUMPDEST POP POP PUSH1 0x0 SWAP2 ADD MSTORE JUMP JUMPDEST PUSH1 0x20 DUP2 MSTORE PUSH1 0x0 DUP3 MLOAD DUP1 PUSH1 0x20 DUP5 ADD MSTORE PUSH2 0x1A43 DUP2 PUSH1 0x40 DUP6 ADD PUSH1 0x20 DUP8 ADD PUSH2 0x1A00 JUMP JUMPDEST PUSH1 0x1F ADD PUSH1 0x1F NOT AND SWAP2 SWAP1 SWAP2 ADD PUSH1 0x40 ADD SWAP3 SWAP2 POP POP JUMP JUMPDEST PUSH1 0x0 DUP1 PUSH1 0x40 DUP4 DUP6 SUB SLT ISZERO PUSH2 0x1A6A JUMPI PUSH1 0x0 DUP1 REVERT JUMPDEST DUP3 CALLDATALOAD PUSH1 0x1 PUSH1 0x1 PUSH1 0x40 SHL SUB DUP2 GT ISZERO PUSH2 0x1A80 JUMPI PUSH1 0x0 DUP1 REVERT JUMPDEST PUSH2 0x1A8C DUP6 DUP3 DUP7 ADD PUSH2 0x1938 JUMP JUMPDEST SWAP3 POP POP PUSH1 0x20 DUP4 ADD CALLDATALOAD PUSH2 0x1A9D DUP2 PUSH2 0x1884 JUMP JUMPDEST DUP1 SWAP2 POP POP SWAP3 POP SWAP3 SWAP1 POP JUMP JUMPDEST PUSH1 0x0 PUSH1 0x20 DUP3 DUP5 SUB SLT ISZERO PUSH2 0x1ABA JUMPI PUSH1 0x0 DUP1 REVERT JUMPDEST DUP2 CALLDATALOAD PUSH2 0x1108 DUP2 PUSH2 0x1884 JUMP JUMPDEST PUSH1 0x0 DUP1 PUSH1 0x40 DUP4 DUP6 SUB SLT ISZERO PUSH2 0x1AD8 JUMPI PUSH1 0x0 DUP1 REVERT JUMPDEST DUP3 CALLDATALOAD PUSH1 0x1 PUSH1 0x1 PUSH1 0x40 SHL SUB DUP1 DUP3 GT ISZERO PUSH2 0x1AEF JUMPI PUSH1 0x0 DUP1 REVERT JUMPDEST PUSH2 0x1AFB DUP7 DUP4 DUP8 ADD PUSH2 0x1899 JUMP JUMPDEST SWAP4 POP PUSH1 0x20 SWAP2 POP DUP2 DUP6 ADD CALLDATALOAD DUP2 DUP2 GT ISZERO PUSH2 0x1B12 JUMPI PUSH1 0x0 DUP1 REVERT JUMPDEST DUP6 ADD PUSH1 0x1F DUP2 ADD DUP8 SGT PUSH2 0x1B23 JUMPI PUSH1 0x0 DUP1 REVERT JUMPDEST DUP1 CALLDATALOAD PUSH2 0x1B31 PUSH2 0x18BA DUP3 PUSH2 0x1861 JUMP JUMPDEST DUP2 DUP2 MSTORE PUSH1 0x5 SWAP2 SWAP1 SWAP2 SHL DUP3 ADD DUP5 ADD SWAP1 DUP5 DUP2 ADD SWAP1 DUP10 DUP4 GT ISZERO PUSH2 0x1B50 JUMPI PUSH1 0x0 DUP1 REVERT JUMPDEST DUP6 DUP5 ADD JUMPDEST DUP4 DUP2 LT ISZERO PUSH2 0x1B88 JUMPI DUP1 CALLDATALOAD DUP7 DUP2 GT ISZERO PUSH2 0x1B6C JUMPI PUSH1 0x0 DUP1 DUP2 REVERT JUMPDEST PUSH2 0x1B7A DUP13 DUP10 DUP4 DUP10 ADD ADD PUSH2 0x1938 JUMP JUMPDEST DUP5 MSTORE POP SWAP2 DUP7 ADD SWAP2 DUP7 ADD PUSH2 0x1B54 JUMP JUMPDEST POP DUP1 SWAP7 POP POP POP POP POP POP POP SWAP3 POP SWAP3 SWAP1 POP JUMP JUMPDEST PUSH1 0x20 DUP1 DUP3 MSTORE DUP3 MLOAD DUP3 DUP3 ADD DUP2 SWAP1 MSTORE PUSH1 0x0 SWAP2 SWAP1 PUSH1 0x40 SWAP1 DUP2 DUP6 ADD SWAP1 DUP7 DUP5 ADD DUP6 JUMPDEST DUP3 DUP2 LT ISZERO PUSH2 0x1BE4 JUMPI DUP2 MLOAD DUP1 MLOAD PUSH1 0x1 PUSH1 0x1 PUSH1 0xA0 SHL SUB AND DUP6 MSTORE DUP7 ADD MLOAD DUP7 DUP6 ADD MSTORE SWAP3 DUP5 ADD SWAP3 SWAP1 DUP6 ADD SWAP1 PUSH1 0x1 ADD PUSH2 0x1BB6 JUMP JUMPDEST POP SWAP2 SWAP8 SWAP7 POP POP POP POP POP POP POP JUMP JUMPDEST PUSH1 0x20 DUP1 DUP3 MSTORE DUP3 MLOAD DUP3 DUP3 ADD DUP2 SWAP1 MSTORE PUSH1 0x0 SWAP2 SWAP1 DUP5 DUP3 ADD SWAP1 PUSH1 0x40 DUP6 ADD SWAP1 DUP5 JUMPDEST DUP2 DUP2 LT ISZERO PUSH2 0x1C32 JUMPI DUP4 MLOAD PUSH1 0x1 PUSH1 0x1 PUSH1 0xA0 SHL SUB AND DUP4 MSTORE SWAP3 DUP5 ADD SWAP3 SWAP2 DUP5 ADD SWAP2 PUSH1 0x1 ADD PUSH2 0x1C0D JUMP JUMPDEST POP SWAP1 SWAP7 SWAP6 POP POP POP POP POP POP JUMP JUMPDEST PUSH4 0x4E487B71 PUSH1 0xE0 SHL PUSH1 0x0 MSTORE PUSH1 0x21 PUSH1 0x4 MSTORE PUSH1 0x24 PUSH1 0x0 REVERT JUMPDEST PUSH1 0x20 DUP2 ADD PUSH1 0x7 DUP4 LT PUSH2 0x1C68 JUMPI PUSH2 0x1C68 PUSH2 0x1C3E JUMP JUMPDEST SWAP2 SWAP1 MSTORE SWAP1 JUMP JUMPDEST PUSH1 0x0 DUP1 PUSH1 0x40 DUP4 DUP6 SUB SLT ISZERO PUSH2 0x1C81 JUMPI PUSH1 0x0 DUP1 REVERT JUMPDEST DUP3 CALLDATALOAD SWAP2 POP PUSH1 0x20 DUP4 ADD CALLDATALOAD PUSH1 0x1 PUSH1 0x1 PUSH1 0x40 SHL SUB DUP2 GT ISZERO PUSH2 0x1C9E JUMPI PUSH1 0x0 DUP1 REVERT JUMPDEST PUSH2 0x1CAA DUP6 DUP3 DUP7 ADD PUSH2 0x1938 JUMP JUMPDEST SWAP2 POP POP SWAP3 POP SWAP3 SWAP1 POP JUMP JUMPDEST PUSH1 0x0 PUSH1 0x20 DUP3 DUP5 SUB SLT ISZERO PUSH2 0x1CC6 JUMPI PUSH1 0x0 DUP1 REVERT JUMPDEST POP CALLDATALOAD SWAP2 SWAP1 POP JUMP JUMPDEST PUSH4 0x4E487B71 PUSH1 0xE0 SHL PUSH1 0x0 MSTORE PUSH1 0x32 PUSH1 0x4 MSTORE PUSH1 0x24 PUSH1 0x0 REVERT JUMPDEST PUSH4 0x4E487B71 PUSH1 0xE0 SHL PUSH1 0x0 MSTORE PUSH1 0x11 PUSH1 0x4 MSTORE PUSH1 0x24 PUSH1 0x0 REVERT JUMPDEST DUP1 DUP3 ADD DUP1 DUP3 GT ISZERO PUSH2 0x3E5 JUMPI PUSH2 0x3E5 PUSH2 0x1CE3 JUMP JUMPDEST PUSH1 0x0 DUP3 PUSH1 0x1F DUP4 ADD SLT PUSH2 0x1D1D JUMPI PUSH1 0x0 DUP1 REVERT JUMPDEST DUP2 MLOAD PUSH2 0x1D2B PUSH2 0x18BA DUP3 PUSH2 0x1911 JUMP JUMPDEST DUP2 DUP2 MSTORE DUP5 PUSH1 0x20 DUP4 DUP7 ADD ADD GT ISZERO PUSH2 0x1D40 JUMPI PUSH1 0x0 DUP1 REVERT JUMPDEST PUSH2 0x1D51 DUP3 PUSH1 0x20 DUP4 ADD PUSH1 0x20 DUP8 ADD PUSH2 0x1A00 JUMP JUMPDEST SWAP5 SWAP4 POP POP POP POP JUMP JUMPDEST DUP1 MLOAD PUSH2 0x1D64 DUP2 PUSH2 0x1884 JUMP JUMPDEST SWAP2 SWAP1 POP JUMP JUMPDEST PUSH1 0x0 DUP3 PUSH1 0x1F DUP4 ADD SLT PUSH2 0x1D7A JUMPI PUSH1 0x0 DUP1 REVERT JUMPDEST DUP2 MLOAD PUSH1 0x20 PUSH2 0x1D8A PUSH2 0x18BA DUP4 PUSH2 0x1861 JUMP JUMPDEST DUP1 DUP4 DUP3 MSTORE PUSH1 0x20 DUP3 ADD SWAP2 POP PUSH1 0x20 DUP5 PUSH1 0x5 SHL DUP8 ADD ADD SWAP4 POP DUP7 DUP5 GT ISZERO PUSH2 0x1DAC JUMPI PUSH1 0x0 DUP1 REVERT JUMPDEST PUSH1 0x20 DUP7 ADD JUMPDEST DUP5 DUP2 LT ISZERO PUSH2 0x1906 JUMPI DUP1 MLOAD DUP4 MSTORE SWAP2 DUP4 ADD SWAP2 DUP4 ADD PUSH2 0x1DB1 JUMP JUMPDEST PUSH1 0x0 DUP3 PUSH1 0x1F DUP4 ADD SLT PUSH2 0x1DD9 JUMPI PUSH1 0x0 DUP1 REVERT JUMPDEST DUP2 MLOAD PUSH1 0x20 PUSH2 0x1DE9 PUSH2 0x18BA DUP4 PUSH2 0x1861 JUMP JUMPDEST DUP1 DUP4 DUP3 MSTORE PUSH1 0x20 DUP3 ADD SWAP2 POP PUSH1 0x20 DUP5 PUSH1 0x5 SHL DUP8 ADD ADD SWAP4 POP DUP7 DUP5 GT ISZERO PUSH2 0x1E0B JUMPI PUSH1 0x0 DUP1 REVERT JUMPDEST PUSH1 0x20 DUP7 ADD JUMPDEST DUP5 DUP2 LT ISZERO PUSH2 0x1906 JUMPI DUP1 MLOAD PUSH2 0x1E23 DUP2 PUSH2 0x1884 JUMP JUMPDEST DUP4 MSTORE SWAP2 DUP4 ADD SWAP2 DUP4 ADD PUSH2 0x1E10 JUMP JUMPDEST PUSH1 0x0 PUSH1 0x20 DUP3 DUP5 SUB SLT ISZERO PUSH2 0x1E42 JUMPI PUSH1 0x0 DUP1 REVERT JUMPDEST DUP2 MLOAD PUSH1 0x1 PUSH1 0x1 PUSH1 0x40 SHL SUB DUP1 DUP3 GT ISZERO PUSH2 0x1E59 JUMPI PUSH1 0x0 DUP1 REVERT JUMPDEST SWAP1 DUP4 ADD SWAP1 PUSH2 0x100 DUP3 DUP7 SUB SLT ISZERO PUSH2 0x1E6E JUMPI PUSH1 0x0 DUP1 REVERT JUMPDEST PUSH2 0x1E76 PUSH2 0x17A2 JUMP JUMPDEST DUP3 MLOAD DUP2 MSTORE PUSH1 0x20 DUP4 ADD MLOAD DUP3 DUP2 GT ISZERO PUSH2 0x1E8C JUMPI PUSH1 0x0 DUP1 REVERT JUMPDEST PUSH2 0x1E98 DUP8 DUP3 DUP7 ADD PUSH2 0x1D0C JUMP JUMPDEST PUSH1 0x20 DUP4 ADD MSTORE POP PUSH1 0x40 DUP4 ADD MLOAD PUSH1 0x40 DUP3 ADD MSTORE PUSH1 0x60 DUP4 ADD MLOAD PUSH1 0x60 DUP3 ADD MSTORE PUSH2 0x1EBE PUSH1 0x80 DUP5 ADD PUSH2 0x1D59 JUMP JUMPDEST PUSH1 0x80 DUP3 ADD MSTORE PUSH1 0xA0 DUP4 ADD MLOAD PUSH1 0xA0 DUP3 ADD MSTORE PUSH1 0xC0 DUP4 ADD MLOAD DUP3 DUP2 GT ISZERO PUSH2 0x1EDF JUMPI PUSH1 0x0 DUP1 REVERT JUMPDEST PUSH2 0x1EEB DUP8 DUP3 DUP7 ADD PUSH2 0x1D69 JUMP JUMPDEST PUSH1 0xC0 DUP4 ADD MSTORE POP PUSH1 0xE0 DUP4 ADD MLOAD DUP3 DUP2 GT ISZERO PUSH2 0x1F03 JUMPI PUSH1 0x0 DUP1 REVERT JUMPDEST PUSH2 0x1F0F DUP8 DUP3 DUP7 ADD PUSH2 0x1DC8 JUMP JUMPDEST PUSH1 0xE0 DUP4 ADD MSTORE POP SWAP6 SWAP5 POP POP POP POP POP JUMP JUMPDEST DUP2 DUP2 SUB DUP2 DUP2 GT ISZERO PUSH2 0x3E5 JUMPI PUSH2 0x3E5 PUSH2 0x1CE3 JUMP JUMPDEST PUSH1 0x0 PUSH1 0x20 DUP3 DUP5 SUB SLT ISZERO PUSH2 0x1F43 JUMPI PUSH1 0x0 DUP1 REVERT JUMPDEST POP MLOAD SWAP2 SWAP1 POP JUMP JUMPDEST PUSH1 0x0 PUSH1 0x20 DUP3 DUP5 SUB SLT ISZERO PUSH2 0x1F5C JUMPI PUSH1 0x0 DUP1 REVERT JUMPDEST DUP2 MLOAD PUSH2 0x1108 DUP2 PUSH2 0x1884 JUMP JUMPDEST PUSH1 0x0 PUSH1 0x20 DUP3 DUP5 SUB SLT ISZERO PUSH2 0x1F79 JUMPI PUSH1 0x0 DUP1 REVERT JUMPDEST DUP2 MLOAD DUP1 ISZERO ISZERO DUP2 EQ PUSH2 0x1108 JUMPI PUSH1 0x0 DUP1 REVERT JUMPDEST PUSH1 0x0 PUSH1 0x80 DUP3 DUP5 SUB SLT ISZERO PUSH2 0x1F9B JUMPI PUSH1 0x0 DUP1 REVERT JUMPDEST PUSH2 0x1FA3 PUSH2 0x17CB JUMP JUMPDEST SWAP1 POP DUP2 MLOAD DUP2 MSTORE PUSH1 0x20 DUP3 ADD MLOAD PUSH1 0x20 DUP3 ADD MSTORE PUSH1 0x40 DUP3 ADD MLOAD PUSH2 0x1FC1 DUP2 PUSH2 0x1884 JUMP JUMPDEST PUSH1 0x40 DUP3 ADD MSTORE PUSH1 0x60 DUP3 ADD MLOAD PUSH1 0x1 PUSH1 0x1 PUSH1 0x40 SHL SUB DUP1 DUP3 GT ISZERO PUSH2 0x1FE0 JUMPI PUSH1 0x0 DUP1 REVERT JUMPDEST SWAP1 DUP4 ADD SWAP1 PUSH1 0x40 DUP3 DUP7 SUB SLT ISZERO PUSH2 0x1FF4 JUMPI PUSH1 0x0 DUP1 REVERT JUMPDEST PUSH2 0x1FFC PUSH2 0x17ED JUMP JUMPDEST DUP3 MLOAD DUP2 MSTORE PUSH1 0x20 DUP4 ADD MLOAD DUP3 DUP2 GT ISZERO PUSH2 0x2012 JUMPI PUSH1 0x0 DUP1 REVERT JUMPDEST PUSH2 0x201E DUP8 DUP3 DUP7 ADD PUSH2 0x1D0C JUMP JUMPDEST PUSH1 0x20 DUP4 ADD MSTORE POP PUSH1 0x60 DUP5 ADD MSTORE POP SWAP1 SWAP4 SWAP3 POP POP POP JUMP JUMPDEST PUSH1 0x0 PUSH1 0x20 DUP1 DUP4 DUP6 SUB SLT ISZERO PUSH2 0x2045 JUMPI PUSH1 0x0 DUP1 REVERT JUMPDEST DUP3 MLOAD PUSH1 0x1 PUSH1 0x1 PUSH1 0x40 SHL SUB DUP1 DUP3 GT ISZERO PUSH2 0x205C JUMPI PUSH1 0x0 DUP1 REVERT JUMPDEST DUP2 DUP6 ADD SWAP2 POP DUP6 PUSH1 0x1F DUP4 ADD SLT PUSH2 0x2070 JUMPI PUSH1 0x0 DUP1 REVERT JUMPDEST DUP2 MLOAD PUSH2 0x207E PUSH2 0x18BA DUP3 PUSH2 0x1861 JUMP JUMPDEST DUP2 DUP2 MSTORE PUSH1 0x5 SWAP2 SWAP1 SWAP2 SHL DUP4 ADD DUP5 ADD SWAP1 DUP5 DUP2 ADD SWAP1 DUP9 DUP4 GT ISZERO PUSH2 0x209D JUMPI PUSH1 0x0 DUP1 REVERT JUMPDEST DUP6 DUP6 ADD JUMPDEST DUP4 DUP2 LT ISZERO PUSH2 0x2152 JUMPI DUP1 MLOAD DUP6 DUP2 GT ISZERO PUSH2 0x20B9 JUMPI PUSH1 0x0 DUP1 DUP2 REVERT JUMPDEST DUP7 ADD PUSH1 0xE0 DUP2 DUP13 SUB PUSH1 0x1F NOT ADD DUP2 SGT ISZERO PUSH2 0x20D1 JUMPI PUSH1 0x0 DUP1 DUP2 REVERT JUMPDEST PUSH2 0x20D9 PUSH2 0x180F JUMP JUMPDEST DUP10 DUP4 ADD MLOAD DUP2 MSTORE PUSH1 0x40 DUP1 DUP5 ADD MLOAD DUP10 DUP2 GT ISZERO PUSH2 0x20F3 JUMPI PUSH1 0x0 DUP1 DUP2 REVERT JUMPDEST PUSH2 0x2101 DUP16 DUP14 DUP4 DUP9 ADD ADD PUSH2 0x1F89 JUMP JUMPDEST DUP13 DUP5 ADD MSTORE POP PUSH1 0x60 DUP1 DUP6 ADD MLOAD DUP3 DUP5 ADD MSTORE PUSH1 0x80 SWAP2 POP DUP2 DUP6 ADD MLOAD DUP2 DUP5 ADD MSTORE POP PUSH1 0xA0 DUP1 DUP6 ADD MLOAD DUP3 DUP5 ADD MSTORE PUSH1 0xC0 SWAP2 POP DUP2 DUP6 ADD MLOAD DUP2 DUP5 ADD MSTORE POP PUSH2 0x213F DUP4 DUP6 ADD PUSH2 0x1D59 JUMP JUMPDEST SWAP1 DUP3 ADD MSTORE DUP6 MSTORE POP POP SWAP2 DUP7 ADD SWAP2 DUP7 ADD PUSH2 0x20A1 JUMP JUMPDEST POP SWAP9 SWAP8 POP POP POP POP POP POP POP POP JUMP JUMPDEST PUSH1 0x0 PUSH1 0x40 DUP3 DUP5 SUB SLT ISZERO PUSH2 0x2171 JUMPI PUSH1 0x0 DUP1 REVERT JUMPDEST PUSH2 0x2179 PUSH2 0x17ED JUMP JUMPDEST DUP3 MLOAD PUSH2 0x2184 DUP2 PUSH2 0x1884 JUMP JUMPDEST DUP2 MSTORE PUSH1 0x20 SWAP3 DUP4 ADD MLOAD SWAP3 DUP2 ADD SWAP3 SWAP1 SWAP3 MSTORE POP SWAP2 SWAP1 POP JUMP JUMPDEST DUP3 DUP2 MSTORE PUSH1 0x40 DUP2 ADD PUSH1 0x5 DUP4 LT PUSH2 0x21B0 JUMPI PUSH2 0x21B0 PUSH2 0x1C3E JUMP JUMPDEST DUP3 PUSH1 0x20 DUP4 ADD MSTORE SWAP4 SWAP3 POP POP POP JUMP JUMPDEST PUSH1 0x1 DUP2 DUP2 SHR SWAP1 DUP3 AND DUP1 PUSH2 0x21D1 JUMPI PUSH1 0x7F DUP3 AND SWAP2 POP JUMPDEST PUSH1 0x20 DUP3 LT DUP2 SUB PUSH2 0x21F1 JUMPI PUSH4 0x4E487B71 PUSH1 0xE0 SHL PUSH1 0x0 MSTORE PUSH1 0x22 PUSH1 0x4 MSTORE PUSH1 0x24 PUSH1 0x0 REVERT JUMPDEST POP SWAP2 SWAP1 POP JUMP JUMPDEST PUSH1 0x1F DUP3 GT ISZERO PUSH2 0x3C1 JUMPI PUSH1 0x0 DUP2 PUSH1 0x0 MSTORE PUSH1 0x20 PUSH1 0x0 KECCAK256 PUSH1 0x1F DUP6 ADD PUSH1 0x5 SHR DUP2 ADD PUSH1 0x20 DUP7 LT ISZERO PUSH2 0x2220 JUMPI POP DUP1 JUMPDEST PUSH1 0x1F DUP6 ADD PUSH1 0x5 SHR DUP3 ADD SWAP2 POP JUMPDEST DUP2 DUP2 LT ISZERO PUSH2 0x223F JUMPI DUP3 DUP2 SSTORE PUSH1 0x1 ADD PUSH2 0x222C JUMP JUMPDEST POP POP POP POP POP POP JUMP JUMPDEST DUP2 MLOAD PUSH1 0x1 PUSH1 0x1 PUSH1 0x40 SHL SUB DUP2 GT ISZERO PUSH2 0x2260 JUMPI PUSH2 0x2260 PUSH2 0x178C JUMP JUMPDEST PUSH2 0x2274 DUP2 PUSH2 0x226E DUP5 SLOAD PUSH2 0x21BD JUMP JUMPDEST DUP5 PUSH2 0x21F7 JUMP JUMPDEST PUSH1 0x20 DUP1 PUSH1 0x1F DUP4 GT PUSH1 0x1 DUP2 EQ PUSH2 0x22A9 JUMPI PUSH1 0x0 DUP5 ISZERO PUSH2 0x2291 JUMPI POP DUP6 DUP4 ADD MLOAD JUMPDEST PUSH1 0x0 NOT PUSH1 0x3 DUP7 SWAP1 SHL SHR NOT AND PUSH1 0x1 DUP6 SWAP1 SHL OR DUP6 SSTORE PUSH2 0x223F JUMP JUMPDEST PUSH1 0x0 DUP6 DUP2 MSTORE PUSH1 0x20 DUP2 KECCAK256 PUSH1 0x1F NOT DUP7 AND SWAP2 JUMPDEST DUP3 DUP2 LT ISZERO PUSH2 0x22D8 JUMPI DUP9 DUP7 ADD MLOAD DUP3 SSTORE SWAP5 DUP5 ADD SWAP5 PUSH1 0x1 SWAP1 SWAP2 ADD SWAP1 DUP5 ADD PUSH2 0x22B9 JUMP JUMPDEST POP DUP6 DUP3 LT ISZERO PUSH2 0x22F6 JUMPI DUP8 DUP6 ADD MLOAD PUSH1 0x0 NOT PUSH1 0x3 DUP9 SWAP1 SHL PUSH1 0xF8 AND SHR NOT AND DUP2 SSTORE JUMPDEST POP POP POP POP POP PUSH1 0x1 SWAP1 DUP2 SHL ADD SWAP1 SSTORE POP JUMP JUMPDEST PUSH1 0x0 PUSH1 0x1 DUP3 ADD PUSH2 0x2318 JUMPI PUSH2 0x2318 PUSH2 0x1CE3 JUMP JUMPDEST POP PUSH1 0x1 ADD SWAP1 JUMP INVALID LOG2 PUSH5 0x6970667358 0x22 SLT KECCAK256 PUSH16 0xA922810D036D6123DA454C079629C1BF CREATE LOG1 0xAD MSTORE 0xC1 DUP6 0xAA POP MLOAD SLOAD 0xB3 0xC2 CALL MUL PUSH0 PUSH5 0x736F6C6343 STOP ADDMOD OR STOP CALLER "
				},
				"gasEstimates": {
					"creation": {
						"codeDepositCost": "1809000",
						"executionCost": "infinite",
						"totalCost": "infinite"
					},
					"external": {
						"addAllocator(address)": "24734",
						"allocate(bytes,address)": "infinite",
						"distribute(address[],bytes,address)": "infinite",
						"getAllo()": "infinite",
						"getName()": "infinite",
						"getPayouts(address[],bytes[])": "infinite",
						"getPoolAmount()": "2304",
						"getPoolId()": "2326",
						"getProjects()": "infinite",
						"getRecipientStatus(address)": "472",
						"getStrategyId()": "infinite",
						"getVersion()": "216",
						"increasePoolAmount(uint256)": "infinite",
						"initialize(uint256,bytes)": "infinite",
						"isPoolActive()": "2326",
						"isValidAllocator(address)": "432",
						"registerRecipient(bytes,address)": "infinite"
					},
					"internal": {
						"_allocate(bytes memory,address)": "infinite",
						"_distribute(address[] memory,bytes memory,address)": "infinite",
						"_getPayout(address,bytes memory)": "infinite",
						"_getRecipientStatus(address)": "infinite",
						"_isValidAllocator(address)": "infinite",
						"_registerRecipient(bytes memory,address)": "infinite",
						"getIndex()": "24304",
						"onlyAdmin(address,uint256,bytes32)": "infinite",
						"payoutDirectives(struct PaymentDirective memory[] memory,address)": "infinite"
					}
				},
				"methodIdentifiers": {
					"addAllocator(address)": "41f44125",
					"allocate(bytes,address)": "ef2920fc",
					"distribute(address[],bytes,address)": "0a6f0ee9",
					"getAllo()": "15cc481e",
					"getName()": "17d7de7c",
					"getPayouts(address[],bytes[])": "b2b878d0",
					"getPoolAmount()": "4ab4ba42",
					"getPoolId()": "38fff2d0",
					"getProjects()": "dcc60128",
					"getRecipientStatus(address)": "eb11af93",
					"getStrategyId()": "42fda9c7",
					"getVersion()": "0d8e6e2c",
					"increasePoolAmount(uint256)": "f5b0dfb7",
					"initialize(uint256,bytes)": "edd146cc",
					"isPoolActive()": "df868ed3",
					"isValidAllocator(address)": "4d31d087",
					"registerRecipient(bytes,address)": "2bbe0cae"
				}
			},
			"storageLayout": {
				"storage": [
					{
						"astId": 837,
						"contract": "contracts/core/MADeliveryStrategy.sol:MADeliveryStrategy",
						"label": "poolActive",
						"offset": 0,
						"slot": "0",
						"type": "t_bool"
					},
					{
						"astId": 839,
						"contract": "contracts/core/MADeliveryStrategy.sol:MADeliveryStrategy",
						"label": "poolId",
						"offset": 0,
						"slot": "1",
						"type": "t_uint256"
					},
					{
						"astId": 841,
						"contract": "contracts/core/MADeliveryStrategy.sol:MADeliveryStrategy",
						"label": "poolAmount",
						"offset": 0,
						"slot": "2",
						"type": "t_uint256"
					},
					{
						"astId": 119,
						"contract": "contracts/core/MADeliveryStrategy.sol:MADeliveryStrategy",
						"label": "register",
						"offset": 0,
						"slot": "3",
						"type": "t_contract(IMRegister)1546"
					},
					{
						"astId": 122,
						"contract": "contracts/core/MADeliveryStrategy.sol:MADeliveryStrategy",
						"label": "projects",
						"offset": 0,
						"slot": "4",
						"type": "t_array(t_address)dyn_storage"
					},
					{
						"astId": 126,
						"contract": "contracts/core/MADeliveryStrategy.sol:MADeliveryStrategy",
						"label": "allocationByProject",
						"offset": 0,
						"slot": "5",
						"type": "t_mapping(t_address,t_uint256)"
					},
					{
						"astId": 130,
						"contract": "contracts/core/MADeliveryStrategy.sol:MADeliveryStrategy",
						"label": "remainingAllocationByProject",
						"offset": 0,
						"slot": "6",
						"type": "t_mapping(t_address,t_uint256)"
					},
					{
						"astId": 134,
						"contract": "contracts/core/MADeliveryStrategy.sol:MADeliveryStrategy",
						"label": "totalPaidoutByProject",
						"offset": 0,
						"slot": "7",
						"type": "t_mapping(t_address,t_uint256)"
					},
					{
						"astId": 138,
						"contract": "contracts/core/MADeliveryStrategy.sol:MADeliveryStrategy",
						"label": "isValidAllocatorByAddress",
						"offset": 0,
						"slot": "8",
						"type": "t_mapping(t_address,t_bool)"
					},
					{
						"astId": 143,
						"contract": "contracts/core/MADeliveryStrategy.sol:MADeliveryStrategy",
						"label": "paymentDirectiveBySendId",
						"offset": 0,
						"slot": "9",
						"type": "t_mapping(t_uint256,t_struct(PaymentDirective)1674_storage)"
					},
					{
						"astId": 148,
						"contract": "contracts/core/MADeliveryStrategy.sol:MADeliveryStrategy",
						"label": "sendIdsByRecipient",
						"offset": 0,
						"slot": "10",
						"type": "t_mapping(t_address,t_array(t_uint256)dyn_storage)"
					},
					{
						"astId": 152,
						"contract": "contracts/core/MADeliveryStrategy.sol:MADeliveryStrategy",
						"label": "totalPaidByRecipient",
						"offset": 0,
						"slot": "11",
						"type": "t_mapping(t_address,t_uint256)"
					},
					{
						"astId": 721,
						"contract": "contracts/core/MADeliveryStrategy.sol:MADeliveryStrategy",
						"label": "index",
						"offset": 0,
						"slot": "12",
						"type": "t_uint256"
					}
				],
				"types": {
					"t_address": {
						"encoding": "inplace",
						"label": "address",
						"numberOfBytes": "20"
					},
					"t_array(t_address)dyn_storage": {
						"base": "t_address",
						"encoding": "dynamic_array",
						"label": "address[]",
						"numberOfBytes": "32"
					},
					"t_array(t_uint256)dyn_storage": {
						"base": "t_uint256",
						"encoding": "dynamic_array",
						"label": "uint256[]",
						"numberOfBytes": "32"
					},
					"t_bool": {
						"encoding": "inplace",
						"label": "bool",
						"numberOfBytes": "1"
					},
					"t_bytes32": {
						"encoding": "inplace",
						"label": "bytes32",
						"numberOfBytes": "32"
					},
					"t_contract(IMRegister)1546": {
						"encoding": "inplace",
						"label": "contract IMRegister",
						"numberOfBytes": "20"
					},
					"t_mapping(t_address,t_array(t_uint256)dyn_storage)": {
						"encoding": "mapping",
						"key": "t_address",
						"label": "mapping(address => uint256[])",
						"numberOfBytes": "32",
						"value": "t_array(t_uint256)dyn_storage"
					},
					"t_mapping(t_address,t_bool)": {
						"encoding": "mapping",
						"key": "t_address",
						"label": "mapping(address => bool)",
						"numberOfBytes": "32",
						"value": "t_bool"
					},
					"t_mapping(t_address,t_uint256)": {
						"encoding": "mapping",
						"key": "t_address",
						"label": "mapping(address => uint256)",
						"numberOfBytes": "32",
						"value": "t_uint256"
					},
					"t_mapping(t_uint256,t_struct(PaymentDirective)1674_storage)": {
						"encoding": "mapping",
						"key": "t_uint256",
						"label": "mapping(uint256 => struct PaymentDirective)",
						"numberOfBytes": "32",
						"value": "t_struct(PaymentDirective)1674_storage"
					},
					"t_string_storage": {
						"encoding": "bytes",
						"label": "string",
						"numberOfBytes": "32"
					},
					"t_struct(Contributor)1634_storage": {
						"encoding": "inplace",
						"label": "struct Contributor",
						"members": [
							{
								"astId": 1626,
								"contract": "contracts/core/MADeliveryStrategy.sol:MADeliveryStrategy",
								"label": "id",
								"offset": 0,
								"slot": "0",
								"type": "t_uint256"
							},
							{
								"astId": 1628,
								"contract": "contracts/core/MADeliveryStrategy.sol:MADeliveryStrategy",
								"label": "homeChain",
								"offset": 0,
								"slot": "1",
								"type": "t_uint256"
							},
							{
								"astId": 1630,
								"contract": "contracts/core/MADeliveryStrategy.sol:MADeliveryStrategy",
								"label": "wallet",
								"offset": 0,
								"slot": "2",
								"type": "t_address"
							},
							{
								"astId": 1633,
								"contract": "contracts/core/MADeliveryStrategy.sol:MADeliveryStrategy",
								"label": "metadata",
								"offset": 0,
								"slot": "3",
								"type": "t_struct(Metadata)2461_storage"
							}
						],
						"numberOfBytes": "160"
					},
					"t_struct(Metadata)2461_storage": {
						"encoding": "inplace",
						"label": "struct Metadata",
						"members": [
							{
								"astId": 2457,
								"contract": "contracts/core/MADeliveryStrategy.sol:MADeliveryStrategy",
								"label": "protocol",
								"offset": 0,
								"slot": "0",
								"type": "t_uint256"
							},
							{
								"astId": 2460,
								"contract": "contracts/core/MADeliveryStrategy.sol:MADeliveryStrategy",
								"label": "pointer",
								"offset": 0,
								"slot": "1",
								"type": "t_string_storage"
							}
						],
						"numberOfBytes": "64"
					},
					"t_struct(PaymentDirective)1674_storage": {
						"encoding": "inplace",
						"label": "struct PaymentDirective",
						"members": [
							{
								"astId": 1660,
								"contract": "contracts/core/MADeliveryStrategy.sol:MADeliveryStrategy",
								"label": "id",
								"offset": 0,
								"slot": "0",
								"type": "t_uint256"
							},
							{
								"astId": 1663,
								"contract": "contracts/core/MADeliveryStrategy.sol:MADeliveryStrategy",
								"label": "contributor",
								"offset": 0,
								"slot": "1",
								"type": "t_struct(Contributor)1634_storage"
							},
							{
								"astId": 1665,
								"contract": "contracts/core/MADeliveryStrategy.sol:MADeliveryStrategy",
								"label": "projectId",
								"offset": 0,
								"slot": "6",
								"type": "t_uint256"
							},
							{
								"astId": 1667,
								"contract": "contracts/core/MADeliveryStrategy.sol:MADeliveryStrategy",
								"label": "alloProfileId",
								"offset": 0,
								"slot": "7",
								"type": "t_bytes32"
							},
							{
								"astId": 1669,
								"contract": "contracts/core/MADeliveryStrategy.sol:MADeliveryStrategy",
								"label": "deliverableId",
								"offset": 0,
								"slot": "8",
								"type": "t_uint256"
							},
							{
								"astId": 1671,
								"contract": "contracts/core/MADeliveryStrategy.sol:MADeliveryStrategy",
								"label": "amount",
								"offset": 0,
								"slot": "9",
								"type": "t_uint256"
							},
							{
								"astId": 1673,
								"contract": "contracts/core/MADeliveryStrategy.sol:MADeliveryStrategy",
								"label": "erc20",
								"offset": 0,
								"slot": "10",
								"type": "t_address"
							}
						],
						"numberOfBytes": "352"
					},
					"t_uint256": {
						"encoding": "inplace",
						"label": "uint256",
						"numberOfBytes": "32"
					}
				}
			},
			"userdoc": {
				"events": {
					"Allocated(address,uint256,address,address)": {
						"notice": "Emitted when a recipient is allocated to."
					},
					"Distributed(address,address,uint256,address)": {
						"notice": "Emitted when tokens are distributed."
					},
					"Initialized(uint256,bytes)": {
						"notice": "Emitted when strategy is initialized."
					},
					"PoolActive(bool)": {
						"notice": "Emitted when pool is set to active status."
					},
					"Registered(address,bytes,address)": {
						"notice": "Emitted when a recipient is registered."
					}
				},
				"kind": "user",
				"methods": {
					"allocate(bytes,address)": {
						"notice": "Allocates to a recipient."
					},
					"distribute(address[],bytes,address)": {
						"notice": "Distributes funds (tokens) to recipients."
					},
					"getAllo()": {
						"notice": "Getter for the 'Allo' contract."
					},
					"getPayouts(address[],bytes[])": {
						"notice": "Gets the payout summary for recipients."
					},
					"getPoolAmount()": {
						"notice": "Getter for the 'poolAmount'."
					},
					"getPoolId()": {
						"notice": "Getter for the 'poolId'."
					},
					"getRecipientStatus(address)": {
						"notice": "Getter for the status of a recipient."
					},
					"getStrategyId()": {
						"notice": "Getter for the 'strategyId'."
					},
					"increasePoolAmount(uint256)": {
						"notice": "Increases the pool amount."
					},
					"initialize(uint256,bytes)": {
						"notice": "@dev The default BaseStrategy version will not use the data  if a strategy wants to use it, they will overwrite it,      use it, and then call super.initialize()."
					},
					"isPoolActive()": {
						"notice": "Getter for whether or not the pool is active."
					},
					"isValidAllocator(address)": {
						"notice": "Checks if the '_allocator' is a valid allocator."
					},
					"registerRecipient(bytes,address)": {
						"notice": "Registers a recipient."
					}
				},
				"version": 1
			}
		}
	}
}