{
	"contracts/core/MSender_flattened.sol": {
		"MSender": {
			"abi": [
				{
					"inputs": [
						{
							"internalType": "address",
							"name": "_register",
							"type": "address"
						}
					],
					"stateMutability": "nonpayable",
					"type": "constructor"
				},
				{
					"inputs": [],
					"name": "getName",
					"outputs": [
						{
							"internalType": "string",
							"name": "_name",
							"type": "string"
						}
					],
					"stateMutability": "pure",
					"type": "function"
				},
				{
					"inputs": [],
					"name": "getSendIds",
					"outputs": [
						{
							"internalType": "uint256[]",
							"name": "_sendIds",
							"type": "uint256[]"
						}
					],
					"stateMutability": "view",
					"type": "function"
				},
				{
					"inputs": [
						{
							"internalType": "uint256",
							"name": "_sendId",
							"type": "uint256"
						}
					],
					"name": "getSendStatement",
					"outputs": [
						{
							"components": [
								{
									"internalType": "uint256",
									"name": "sendId",
									"type": "uint256"
								},
								{
									"internalType": "uint256",
									"name": "fees",
									"type": "uint256"
								},
								{
									"internalType": "address",
									"name": "token",
									"type": "address"
								},
								{
									"internalType": "uint256",
									"name": "sendDate",
									"type": "uint256"
								},
								{
									"internalType": "bytes32",
									"name": "ccipMesssageId",
									"type": "bytes32"
								}
							],
							"internalType": "struct SendStatement",
							"name": "_sendStatement",
							"type": "tuple"
						}
					],
					"stateMutability": "view",
					"type": "function"
				},
				{
					"inputs": [
						{
							"internalType": "uint256",
							"name": "_sendId",
							"type": "uint256"
						}
					],
					"name": "getTransmittedGilt",
					"outputs": [
						{
							"components": [
								{
									"components": [
										{
											"internalType": "address",
											"name": "erc20",
											"type": "address"
										},
										{
											"internalType": "uint256",
											"name": "amount",
											"type": "uint256"
										},
										{
											"internalType": "uint256",
											"name": "creationDate",
											"type": "uint256"
										},
										{
											"internalType": "uint256",
											"name": "chainId",
											"type": "uint256"
										},
										{
											"internalType": "address",
											"name": "giltContract",
											"type": "address"
										},
										{
											"internalType": "uint256",
											"name": "id",
											"type": "uint256"
										}
									],
									"internalType": "struct Gilt",
									"name": "gilt",
									"type": "tuple"
								},
								{
									"internalType": "bytes32",
									"name": "alloProfileId",
									"type": "bytes32"
								},
								{
									"internalType": "uint256",
									"name": "projectId",
									"type": "uint256"
								},
								{
									"internalType": "address",
									"name": "owner",
									"type": "address"
								}
							],
							"internalType": "struct TransmittedGilt",
							"name": "_gilt",
							"type": "tuple"
						}
					],
					"stateMutability": "view",
					"type": "function"
				},
				{
					"inputs": [],
					"name": "getVersion",
					"outputs": [
						{
							"internalType": "uint256",
							"name": "_version",
							"type": "uint256"
						}
					],
					"stateMutability": "pure",
					"type": "function"
				},
				{
					"inputs": [],
					"name": "notifyChangeOfAddress",
					"outputs": [
						{
							"internalType": "bool",
							"name": "_acknowledged",
							"type": "bool"
						}
					],
					"stateMutability": "nonpayable",
					"type": "function"
				},
				{
					"inputs": [
						{
							"internalType": "uint256",
							"name": "_destinationChainId",
							"type": "uint256"
						},
						{
							"components": [
								{
									"internalType": "address",
									"name": "erc20",
									"type": "address"
								},
								{
									"internalType": "uint256",
									"name": "amount",
									"type": "uint256"
								},
								{
									"internalType": "uint256",
									"name": "creationDate",
									"type": "uint256"
								},
								{
									"internalType": "uint256",
									"name": "chainId",
									"type": "uint256"
								},
								{
									"internalType": "address",
									"name": "giltContract",
									"type": "address"
								},
								{
									"internalType": "uint256",
									"name": "id",
									"type": "uint256"
								}
							],
							"internalType": "struct Gilt",
							"name": "_gilt",
							"type": "tuple"
						},
						{
							"internalType": "address",
							"name": "_owner",
							"type": "address"
						},
						{
							"internalType": "bytes32",
							"name": "_alloProfileId",
							"type": "bytes32"
						},
						{
							"internalType": "uint256",
							"name": "_projectId",
							"type": "uint256"
						}
					],
					"name": "sendGilt",
					"outputs": [
						{
							"internalType": "uint256",
							"name": "_sendId",
							"type": "uint256"
						}
					],
					"stateMutability": "nonpayable",
					"type": "function"
				}
			],
			"devdoc": {
				"kind": "dev",
				"methods": {},
				"version": 1
			},
			"evm": {
				"assembly": "    /* \"contracts/core/MSender_flattened.sol\":18020:23814  contract MSender is IMSender, IMVersion {... */\n  mstore(0x40, 0xa0)\n    /* \"contracts/core/MSender_flattened.sol\":19007:19188  constructor(address _register) {... */\n  callvalue\n  dup1\n  iszero\n  tag_1\n  jumpi\n  0x00\n  dup1\n  revert\ntag_1:\n  pop\n  mload(0x40)\n  sub(codesize, bytecodeSize)\n  dup1\n  bytecodeSize\n  dup4\n  codecopy\n  dup2\n  add\n  0x40\n  dup2\n  swap1\n  mstore\n  tag_2\n  swap2\n  tag_3\n  jump\t// in\ntag_2:\n    /* \"contracts/core/MSender_flattened.sol\":19048:19056  register */\n  0x00\n    /* \"contracts/core/MSender_flattened.sol\":19048:19080  register = IMRegister(_register) */\n  dup1\n  sload\n  not(sub(shl(0xa0, 0x01), 0x01))\n  and\n  sub(shl(0xa0, 0x01), 0x01)\n  dup4\n  and\n  swap1\n  dup2\n  or\n  swap1\n  swap2\n  sstore\n    /* \"contracts/core/MSender_flattened.sol\":19133:19149  ROUTER_CLIENT_CA */\n  0x40\n  dup1\n  mload\n  dup1\n  dup3\n  add\n  dup3\n  mstore\n  0x20\n  dup1\n  dup3\n  mstore\n  0x52455345525645445f434841494e4c494e4b5f524f555445525f434c49454e54\n  swap1\n  dup3\n  add\n  mstore\n    /* \"contracts/core/MSender_flattened.sol\":19113:19150  register.getAddress(ROUTER_CLIENT_CA) */\n  swap1\n  mload\n  shl(0xe0, 0xbf40fac1)\n  dup2\n  mstore\n    /* \"contracts/core/MSender_flattened.sol\":19113:19132  register.getAddress */\n  0xbf40fac1\n  swap2\n    /* \"contracts/core/MSender_flattened.sol\":19113:19150  register.getAddress(ROUTER_CLIENT_CA) */\n  tag_6\n  swap2\n  0x04\n  add\n  tag_7\n  jump\t// in\ntag_6:\n  0x20\n  mload(0x40)\n  dup1\n  dup4\n  sub\n  dup2\n  dup7\n  gas\n  staticcall\n  iszero\n  dup1\n  iszero\n  tag_9\n  jumpi\n  returndatasize\n  0x00\n  dup1\n  returndatacopy\n  revert(0x00, returndatasize)\ntag_9:\n  pop\n  pop\n  pop\n  pop\n  mload(0x40)\n  returndatasize\n  not(0x1f)\n  0x1f\n  dup3\n  add\n  and\n  dup3\n  add\n  dup1\n  0x40\n  mstore\n  pop\n  dup2\n  add\n  swap1\n  tag_10\n  swap2\n  swap1\n  tag_3\n  jump\t// in\ntag_10:\n    /* \"contracts/core/MSender_flattened.sol\":19090:19096  router */\n  0x01\n    /* \"contracts/core/MSender_flattened.sol\":19090:19151  router = IRouterClient(register.getAddress(ROUTER_CLIENT_CA)) */\n  dup1\n  sload\n  not(sub(shl(0xa0, 0x01), 0x01))\n  and\n  sub(shl(0xa0, 0x01), 0x01)\n  swap3\n  swap1\n  swap3\n  and\n  swap2\n  swap1\n  swap2\n  or\n  swap1\n  sstore\n  pop\n    /* \"contracts/core/MSender_flattened.sol\":19176:19180  this */\n  address\n    /* \"contracts/core/MSender_flattened.sol\":19161:19181  self = address(this) */\n  0x80\n  mstore\n    /* \"contracts/core/MSender_flattened.sol\":18020:23814  contract MSender is IMSender, IMVersion {... */\n  jump(tag_12)\n    /* \"#utility.yul\":14:304   */\ntag_3:\n    /* \"#utility.yul\":84:90   */\n  0x00\n    /* \"#utility.yul\":137:139   */\n  0x20\n    /* \"#utility.yul\":125:134   */\n  dup3\n    /* \"#utility.yul\":116:123   */\n  dup5\n    /* \"#utility.yul\":112:135   */\n  sub\n    /* \"#utility.yul\":108:140   */\n  slt\n    /* \"#utility.yul\":105:157   */\n  iszero\n  tag_14\n  jumpi\n    /* \"#utility.yul\":153:154   */\n  0x00\n    /* \"#utility.yul\":150:151   */\n  dup1\n    /* \"#utility.yul\":143:155   */\n  revert\n    /* \"#utility.yul\":105:157   */\ntag_14:\n    /* \"#utility.yul\":179:195   */\n  dup2\n  mload\n  sub(shl(0xa0, 0x01), 0x01)\n    /* \"#utility.yul\":224:255   */\n  dup2\n  and\n    /* \"#utility.yul\":214:256   */\n  dup2\n  eq\n    /* \"#utility.yul\":204:274   */\n  tag_15\n  jumpi\n    /* \"#utility.yul\":270:271   */\n  0x00\n    /* \"#utility.yul\":267:268   */\n  dup1\n    /* \"#utility.yul\":260:272   */\n  revert\n    /* \"#utility.yul\":204:274   */\ntag_15:\n    /* \"#utility.yul\":293:298   */\n  swap4\n    /* \"#utility.yul\":14:304   */\n  swap3\n  pop\n  pop\n  pop\n  jump\t// out\n    /* \"#utility.yul\":309:857   */\ntag_7:\n    /* \"#utility.yul\":421:425   */\n  0x00\n    /* \"#utility.yul\":450:452   */\n  0x20\n    /* \"#utility.yul\":479:481   */\n  dup1\n    /* \"#utility.yul\":468:477   */\n  dup4\n    /* \"#utility.yul\":461:482   */\n  mstore\n    /* \"#utility.yul\":511:517   */\n  dup4\n    /* \"#utility.yul\":505:518   */\n  mload\n    /* \"#utility.yul\":554:560   */\n  dup1\n    /* \"#utility.yul\":549:551   */\n  0x20\n    /* \"#utility.yul\":538:547   */\n  dup6\n    /* \"#utility.yul\":534:552   */\n  add\n    /* \"#utility.yul\":527:561   */\n  mstore\n    /* \"#utility.yul\":579:580   */\n  0x00\n    /* \"#utility.yul\":589:729   */\ntag_17:\n    /* \"#utility.yul\":603:609   */\n  dup2\n    /* \"#utility.yul\":600:601   */\n  dup2\n    /* \"#utility.yul\":597:610   */\n  lt\n    /* \"#utility.yul\":589:729   */\n  iszero\n  tag_19\n  jumpi\n    /* \"#utility.yul\":698:712   */\n  dup6\n  dup2\n  add\n    /* \"#utility.yul\":694:717   */\n  dup4\n  add\n    /* \"#utility.yul\":688:718   */\n  mload\n    /* \"#utility.yul\":664:681   */\n  dup6\n  dup3\n  add\n    /* \"#utility.yul\":683:685   */\n  0x40\n    /* \"#utility.yul\":660:686   */\n  add\n    /* \"#utility.yul\":653:719   */\n  mstore\n    /* \"#utility.yul\":618:628   */\n  dup3\n  add\n    /* \"#utility.yul\":589:729   */\n  jump(tag_17)\ntag_19:\n    /* \"#utility.yul\":593:596   */\n  pop\n    /* \"#utility.yul\":778:779   */\n  0x00\n    /* \"#utility.yul\":773:775   */\n  0x40\n    /* \"#utility.yul\":764:770   */\n  dup3\n    /* \"#utility.yul\":753:762   */\n  dup7\n    /* \"#utility.yul\":749:771   */\n  add\n    /* \"#utility.yul\":745:776   */\n  add\n    /* \"#utility.yul\":738:780   */\n  mstore\n    /* \"#utility.yul\":848:850   */\n  0x40\n    /* \"#utility.yul\":841:843   */\n  0x1f\n    /* \"#utility.yul\":837:844   */\n  not\n    /* \"#utility.yul\":832:834   */\n  0x1f\n    /* \"#utility.yul\":824:830   */\n  dup4\n    /* \"#utility.yul\":820:835   */\n  add\n    /* \"#utility.yul\":816:845   */\n  and\n    /* \"#utility.yul\":805:814   */\n  dup6\n    /* \"#utility.yul\":801:846   */\n  add\n    /* \"#utility.yul\":797:851   */\n  add\n    /* \"#utility.yul\":789:851   */\n  swap3\n  pop\n  pop\n  pop\n    /* \"#utility.yul\":309:857   */\n  swap3\n  swap2\n  pop\n  pop\n  jump\t// out\ntag_12:\n    /* \"contracts/core/MSender_flattened.sol\":18020:23814  contract MSender is IMSender, IMVersion {... */\n  mload(0x80)\n  codecopy(0x00, dataOffset(sub_0), dataSize(sub_0))\n  0x00\n  assignImmutable(\"0x7c4b9619c581b88a141b2eb4807c7231fe75a5bedaa863d4150e3dabc19d88ab\")\n  return(0x00, dataSize(sub_0))\nstop\n\nsub_0: assembly {\n        /* \"contracts/core/MSender_flattened.sol\":18020:23814  contract MSender is IMSender, IMVersion {... */\n      mstore(0x40, 0x80)\n      callvalue\n      dup1\n      iszero\n      tag_1\n      jumpi\n      0x00\n      dup1\n      revert\n    tag_1:\n      pop\n      jumpi(tag_2, lt(calldatasize, 0x04))\n      shr(0xe0, calldataload(0x00))\n      dup1\n      0x6fac704c\n      gt\n      tag_10\n      jumpi\n      dup1\n      0x6fac704c\n      eq\n      tag_6\n      jumpi\n      dup1\n      0x7e13289f\n      eq\n      tag_7\n      jumpi\n      dup1\n      0x98e3a7c6\n      eq\n      tag_8\n      jumpi\n      dup1\n      0xcde4c10c\n      eq\n      tag_9\n      jumpi\n      0x00\n      dup1\n      revert\n    tag_10:\n      dup1\n      0x0d8e6e2c\n      eq\n      tag_3\n      jumpi\n      dup1\n      0x17d7de7c\n      eq\n      tag_4\n      jumpi\n      dup1\n      0x1bb05e71\n      eq\n      tag_5\n      jumpi\n    tag_2:\n      0x00\n      dup1\n      revert\n        /* \"contracts/core/MSender_flattened.sol\":19292:19387  function getVersion() pure external returns (uint256 _version) {... */\n    tag_3:\n        /* \"contracts/core/MSender_flattened.sol\":18391:18392  1 */\n      0x01\n        /* \"contracts/core/MSender_flattened.sol\":19292:19387  function getVersion() pure external returns (uint256 _version) {... */\n    tag_11:\n      mload(0x40)\n        /* \"#utility.yul\":160:185   */\n      swap1\n      dup2\n      mstore\n        /* \"#utility.yul\":148:150   */\n      0x20\n        /* \"#utility.yul\":133:151   */\n      add\n        /* \"contracts/core/MSender_flattened.sol\":19292:19387  function getVersion() pure external returns (uint256 _version) {... */\n    tag_13:\n      mload(0x40)\n      dup1\n      swap2\n      sub\n      swap1\n      return\n        /* \"contracts/core/MSender_flattened.sol\":19194:19286  function getName() pure external returns (string memory _name) {... */\n    tag_4:\n        /* \"contracts/core/MSender_flattened.sol\":19274:19278  name */\n      0x40\n      dup1\n      mload\n      dup1\n      dup3\n      add\n      dup3\n      mstore\n      0x11\n      dup2\n      mstore\n      shl(0x79, 0x2922a9a2a92b22a22fa6afa9a2a72222a9)\n      0x20\n      dup3\n      add\n      mstore\n        /* \"contracts/core/MSender_flattened.sol\":19194:19286  function getName() pure external returns (string memory _name) {... */\n      swap1\n      mload\n      tag_13\n      swap2\n        /* \"contracts/core/MSender_flattened.sol\":19274:19278  name */\n      swap1\n        /* \"contracts/core/MSender_flattened.sol\":19194:19286  function getName() pure external returns (string memory _name) {... */\n      tag_18\n      jump\t// in\n        /* \"contracts/core/MSender_flattened.sol\":19393:19508  function getSendIds() view external adminOnly returns (uint256 [] memory _sendIds) {... */\n    tag_5:\n      tag_19\n      tag_20\n      jump\t// in\n    tag_19:\n      mload(0x40)\n      tag_13\n      swap2\n      swap1\n      tag_22\n      jump\t// in\n        /* \"contracts/core/MSender_flattened.sol\":19677:19830  function getTransmittedGilt(uint256 _sendId) view external returns (TransmittedGilt memory _gilt){... */\n    tag_6:\n      tag_23\n      tag_24\n      calldatasize\n      0x04\n      tag_25\n      jump\t// in\n    tag_24:\n      0x40\n      dup1\n      mload\n      0x0140\n      dup2\n      add\n      dup3\n      mstore\n      0x00\n      0x80\n      dup3\n      add\n      dup2\n      dup2\n      mstore\n      0xa0\n      dup4\n      add\n      dup3\n      swap1\n      mstore\n      0xc0\n      dup4\n      add\n      dup3\n      swap1\n      mstore\n      0xe0\n      dup4\n      add\n      dup3\n      swap1\n      mstore\n      0x0100\n      dup4\n      add\n      dup3\n      swap1\n      mstore\n      0x0120\n      dup4\n      add\n      dup3\n      swap1\n      mstore\n      dup3\n      mstore\n      0x20\n      dup3\n      add\n      dup2\n      swap1\n      mstore\n      swap2\n      dup2\n      add\n      dup3\n      swap1\n      mstore\n      0x60\n      dup2\n      add\n      swap2\n      swap1\n      swap2\n      mstore\n      pop\n        /* \"contracts/core/MSender_flattened.sol\":19791:19823  transmittedGiltBySendId[_sendId] */\n      0x00\n      swap1\n      dup2\n      mstore\n        /* \"contracts/core/MSender_flattened.sol\":19791:19814  transmittedGiltBySendId */\n      0x03\n        /* \"contracts/core/MSender_flattened.sol\":19791:19823  transmittedGiltBySendId[_sendId] */\n      0x20\n      dup2\n      dup2\n      mstore\n      0x40\n      swap3\n      dup4\n      swap1\n      keccak256\n        /* \"contracts/core/MSender_flattened.sol\":19784:19823  return transmittedGiltBySendId[_sendId] */\n      dup4\n      mload\n      0x0140\n      dup2\n      add\n      dup6\n      mstore\n      dup2\n      sload\n      sub(shl(0xa0, 0x01), 0x01)\n      swap1\n      dup2\n      and\n      0x80\n      dup4\n      add\n      swap1\n      dup2\n      mstore\n      0x01\n      dup5\n      add\n      sload\n      0xa0\n      dup5\n      add\n      mstore\n      0x02\n      dup5\n      add\n      sload\n      0xc0\n      dup5\n      add\n      mstore\n      swap5\n      dup4\n      add\n      sload\n      0xe0\n      dup4\n      add\n      mstore\n      0x04\n      dup4\n      add\n      sload\n      dup2\n      and\n      0x0100\n      dup4\n      add\n      mstore\n      0x05\n      dup4\n      add\n      sload\n      0x0120\n      dup4\n      add\n      mstore\n      swap4\n      dup2\n      mstore\n      0x06\n      dup3\n      add\n      sload\n      swap3\n      dup2\n      add\n      swap3\n      swap1\n      swap3\n      mstore\n      0x07\n      dup2\n      add\n      sload\n      swap4\n      dup3\n      add\n      swap4\n      swap1\n      swap4\n      mstore\n      0x08\n      swap1\n      swap3\n      add\n      sload\n      and\n      0x60\n      dup3\n      add\n      mstore\n      swap1\n        /* \"contracts/core/MSender_flattened.sol\":19677:19830  function getTransmittedGilt(uint256 _sendId) view external returns (TransmittedGilt memory _gilt){... */\n      jump\n    tag_23:\n      mload(0x40)\n      tag_13\n      swap2\n      swap1\n      tag_28\n      jump\t// in\n        /* \"contracts/core/MSender_flattened.sol\":19836:23299  function sendGilt(uint256 _destinationChainId, Gilt memory _gilt, address _owner, bytes32 _alloProfileId, uint256 _projectId) external returns (uint256 _sendId){... */\n    tag_7:\n      tag_11\n      tag_30\n      calldatasize\n      0x04\n      tag_31\n      jump\t// in\n    tag_30:\n      tag_32\n      jump\t// in\n        /* \"contracts/core/MSender_flattened.sol\":19514:19671  function getSendStatement(uint256 _sendId) view external returns (SendStatement memory _sendStatement) {... */\n    tag_8:\n      tag_34\n      tag_35\n      calldatasize\n      0x04\n      tag_25\n      jump\t// in\n    tag_35:\n      0x40\n      dup1\n      mload\n      0xa0\n      dup2\n      add\n      dup3\n      mstore\n      0x00\n      dup1\n      dup3\n      mstore\n      0x20\n      dup3\n      add\n      dup2\n      swap1\n      mstore\n      swap2\n      dup2\n      add\n      dup3\n      swap1\n      mstore\n      0x60\n      dup2\n      add\n      dup3\n      swap1\n      mstore\n      0x80\n      dup2\n      add\n      swap2\n      swap1\n      swap2\n      mstore\n      pop\n        /* \"contracts/core/MSender_flattened.sol\":19634:19664  sendStatementBySendId[_sendId] */\n      0x00\n      swap1\n      dup2\n      mstore\n        /* \"contracts/core/MSender_flattened.sol\":19634:19655  sendStatementBySendId */\n      0x05\n        /* \"contracts/core/MSender_flattened.sol\":19634:19664  sendStatementBySendId[_sendId] */\n      0x20\n      swap1\n      dup2\n      mstore\n      0x40\n      swap2\n      dup3\n      swap1\n      keccak256\n        /* \"contracts/core/MSender_flattened.sol\":19627:19664  return sendStatementBySendId[_sendId] */\n      dup3\n      mload\n      0xa0\n      dup2\n      add\n      dup5\n      mstore\n      dup2\n      sload\n      dup2\n      mstore\n      0x01\n      dup3\n      add\n      sload\n      swap3\n      dup2\n      add\n      swap3\n      swap1\n      swap3\n      mstore\n      0x02\n      dup2\n      add\n      sload\n      sub(shl(0xa0, 0x01), 0x01)\n      and\n      swap3\n      dup3\n      add\n      swap3\n      swap1\n      swap3\n      mstore\n      0x03\n      dup3\n      add\n      sload\n      0x60\n      dup3\n      add\n      mstore\n      0x04\n      swap1\n      swap2\n      add\n      sload\n      0x80\n      dup3\n      add\n      mstore\n      swap1\n        /* \"contracts/core/MSender_flattened.sol\":19514:19671  function getSendStatement(uint256 _sendId) view external returns (SendStatement memory _sendStatement) {... */\n      jump\n    tag_34:\n      mload(0x40)\n      tag_13\n      swap2\n      swap1\n        /* \"#utility.yul\":4950:4963   */\n      dup2\n      mload\n        /* \"#utility.yul\":4932:4964   */\n      dup2\n      mstore\n        /* \"#utility.yul\":5020:5024   */\n      0x20\n        /* \"#utility.yul\":5008:5025   */\n      dup1\n      dup4\n      add\n        /* \"#utility.yul\":5002:5026   */\n      mload\n        /* \"#utility.yul\":4980:5000   */\n      swap1\n      dup3\n      add\n        /* \"#utility.yul\":4973:5027   */\n      mstore\n        /* \"#utility.yul\":5087:5091   */\n      0x40\n        /* \"#utility.yul\":5075:5092   */\n      dup1\n      dup4\n      add\n        /* \"#utility.yul\":5069:5093   */\n      mload\n      sub(shl(0xa0, 0x01), 0x01)\n        /* \"#utility.yul\":5065:5115   */\n      and\n        /* \"#utility.yul\":5043:5063   */\n      swap1\n      dup3\n      add\n        /* \"#utility.yul\":5036:5116   */\n      mstore\n        /* \"#utility.yul\":5172:5176   */\n      0x60\n        /* \"#utility.yul\":5160:5177   */\n      dup1\n      dup4\n      add\n        /* \"#utility.yul\":5154:5178   */\n      mload\n        /* \"#utility.yul\":5132:5152   */\n      swap1\n      dup3\n      add\n        /* \"#utility.yul\":5125:5179   */\n      mstore\n        /* \"#utility.yul\":5235:5239   */\n      0x80\n        /* \"#utility.yul\":5223:5240   */\n      swap2\n      dup3\n      add\n        /* \"#utility.yul\":5217:5241   */\n      mload\n        /* \"#utility.yul\":5195:5215   */\n      swap2\n      dup2\n      add\n        /* \"#utility.yul\":5188:5242   */\n      swap2\n      swap1\n      swap2\n      mstore\n        /* \"#utility.yul\":4919:4922   */\n      0xa0\n        /* \"#utility.yul\":4904:4923   */\n      add\n      swap1\n        /* \"#utility.yul\":4725:5248   */\n      jump\n        /* \"contracts/core/MSender_flattened.sol\":23306:23542  function notifyChangeOfAddress() external returns (bool _acknowledged) {... */\n    tag_9:\n      tag_39\n      tag_40\n      jump\t// in\n    tag_39:\n      mload(0x40)\n        /* \"#utility.yul\":5418:5432   */\n      swap1\n      iszero\n        /* \"#utility.yul\":5411:5433   */\n      iszero\n        /* \"#utility.yul\":5393:5434   */\n      dup2\n      mstore\n        /* \"#utility.yul\":5381:5383   */\n      0x20\n        /* \"#utility.yul\":5366:5384   */\n      add\n        /* \"contracts/core/MSender_flattened.sol\":23306:23542  function notifyChangeOfAddress() external returns (bool _acknowledged) {... */\n      tag_13\n        /* \"#utility.yul\":5253:5440   */\n      jump\n        /* \"contracts/core/MSender_flattened.sol\":19393:19508  function getSendIds() view external adminOnly returns (uint256 [] memory _sendIds) {... */\n    tag_20:\n        /* \"contracts/core/MSender_flattened.sol\":18244:18252  register */\n      sload(0x00)\n        /* \"contracts/core/MSender_flattened.sol\":18264:18274  M_ADMIN_CA */\n      0x40\n      dup1\n      mload\n      dup1\n      dup3\n      add\n      dup3\n      mstore\n      0x10\n      dup2\n      mstore\n      shl(0x81, 0x2922a9a2a92b22a22fa6afa0a226a4a7)\n      0x20\n      dup3\n      add\n      mstore\n        /* \"contracts/core/MSender_flattened.sol\":18244:18275  register.getAddress(M_ADMIN_CA) */\n      swap1\n      mload\n      shl(0xe0, 0xbf40fac1)\n      dup2\n      mstore\n        /* \"contracts/core/MSender_flattened.sol\":19448:19474  uint256 [] memory _sendIds */\n      0x60\n      swap3\n      sub(shl(0xa0, 0x01), 0x01)\n        /* \"contracts/core/MSender_flattened.sol\":18244:18252  register */\n      and\n      swap2\n        /* \"contracts/core/MSender_flattened.sol\":18244:18263  register.getAddress */\n      0xbf40fac1\n      swap2\n        /* \"contracts/core/MSender_flattened.sol\":18244:18275  register.getAddress(M_ADMIN_CA) */\n      tag_46\n      swap2\n        /* \"contracts/core/MSender_flattened.sol\":18264:18274  M_ADMIN_CA */\n      swap1\n        /* \"contracts/core/MSender_flattened.sol\":18244:18275  register.getAddress(M_ADMIN_CA) */\n      0x04\n      add\n      tag_18\n      jump\t// in\n    tag_46:\n      0x20\n      mload(0x40)\n      dup1\n      dup4\n      sub\n      dup2\n      dup7\n      gas\n      staticcall\n      iszero\n      dup1\n      iszero\n      tag_48\n      jumpi\n      returndatasize\n      0x00\n      dup1\n      returndatacopy\n      revert(0x00, returndatasize)\n    tag_48:\n      pop\n      pop\n      pop\n      pop\n      mload(0x40)\n      returndatasize\n      not(0x1f)\n      0x1f\n      dup3\n      add\n      and\n      dup3\n      add\n      dup1\n      0x40\n      mstore\n      pop\n      dup2\n      add\n      swap1\n      tag_49\n      swap2\n      swap1\n      tag_50\n      jump\t// in\n    tag_49:\n      sub(shl(0xa0, 0x01), 0x01)\n        /* \"contracts/core/MSender_flattened.sol\":18230:18275  msg.sender == register.getAddress(M_ADMIN_CA) */\n      and\n        /* \"contracts/core/MSender_flattened.sol\":18230:18240  msg.sender */\n      caller\n      sub(shl(0xa0, 0x01), 0x01)\n        /* \"contracts/core/MSender_flattened.sol\":18230:18275  msg.sender == register.getAddress(M_ADMIN_CA) */\n      and\n      eq\n        /* \"contracts/core/MSender_flattened.sol\":18222:18292  require(msg.sender == register.getAddress(M_ADMIN_CA), \" admin only \") */\n      tag_51\n      jumpi\n      mload(0x40)\n      shl(0xe5, 0x461bcd)\n      dup2\n      mstore\n        /* \"#utility.yul\":6046:6048   */\n      0x20\n        /* \"contracts/core/MSender_flattened.sol\":18222:18292  require(msg.sender == register.getAddress(M_ADMIN_CA), \" admin only \") */\n      0x04\n      dup3\n      add\n        /* \"#utility.yul\":6028:6049   */\n      mstore\n        /* \"#utility.yul\":6085:6087   */\n      0x0c\n        /* \"#utility.yul\":6065:6083   */\n      0x24\n      dup3\n      add\n        /* \"#utility.yul\":6058:6088   */\n      mstore\n      shl(0xa5, 0x01030b236b4b71037b7363c9)\n        /* \"#utility.yul\":6104:6122   */\n      0x44\n      dup3\n      add\n        /* \"#utility.yul\":6097:6139   */\n      mstore\n        /* \"#utility.yul\":6156:6174   */\n      0x64\n      add\n        /* \"contracts/core/MSender_flattened.sol\":18222:18292  require(msg.sender == register.getAddress(M_ADMIN_CA), \" admin only \") */\n      mload(0x40)\n      dup1\n      swap2\n      sub\n      swap1\n      revert\n    tag_51:\n        /* \"contracts/core/MSender_flattened.sol\":19493:19500  sendIds */\n      0x02\n        /* \"contracts/core/MSender_flattened.sol\":19486:19500  return sendIds */\n      dup1\n      sload\n      dup1\n      0x20\n      mul\n      0x20\n      add\n      mload(0x40)\n      swap1\n      dup2\n      add\n      0x40\n      mstore\n      dup1\n      swap3\n      swap2\n      swap1\n      dup2\n      dup2\n      mstore\n      0x20\n      add\n      dup3\n      dup1\n      sload\n      dup1\n      iszero\n      tag_55\n      jumpi\n      0x20\n      mul\n      dup3\n      add\n      swap2\n      swap1\n      0x00\n      mstore\n      keccak256(0x00, 0x20)\n      swap1\n    tag_56:\n      dup2\n      sload\n      dup2\n      mstore\n      0x20\n      add\n      swap1\n      0x01\n      add\n      swap1\n      dup1\n      dup4\n      gt\n      tag_56\n      jumpi\n    tag_55:\n      pop\n      pop\n      pop\n      pop\n      pop\n      swap1\n      pop\n        /* \"contracts/core/MSender_flattened.sol\":19393:19508  function getSendIds() view external adminOnly returns (uint256 [] memory _sendIds) {... */\n      swap1\n      jump\t// out\n        /* \"contracts/core/MSender_flattened.sol\":19836:23299  function sendGilt(uint256 _destinationChainId, Gilt memory _gilt, address _owner, bytes32 _alloProfileId, uint256 _projectId) external returns (uint256 _sendId){... */\n    tag_32:\n        /* \"contracts/core/MSender_flattened.sol\":19980:19995  uint256 _sendId */\n      0x00\n        /* \"contracts/core/MSender_flattened.sol\":20016:20026  getIndex() */\n      tag_61\n        /* \"contracts/core/MSender_flattened.sol\":20016:20024  getIndex */\n      tag_62\n        /* \"contracts/core/MSender_flattened.sol\":20016:20026  getIndex() */\n      jump\t// in\n    tag_61:\n        /* \"contracts/core/MSender_flattened.sol\":20037:20044  sendIds */\n      0x02\n        /* \"contracts/core/MSender_flattened.sol\":20037:20058  sendIds.push(_sendId) */\n      dup1\n      sload\n      0x01\n      dup2\n      add\n      dup3\n      sstore\n      0x00\n      swap2\n      swap1\n      swap2\n      mstore\n      0x405787fa12a823e0f2b7631cc41b3ba8828b3321ca811111fa75cd3aa3bb5ace\n      add\n      dup2\n      swap1\n      sstore\n        /* \"contracts/core/MSender_flattened.sol\":20094:20112  _gilt.giltContract */\n      0x80\n      dup7\n      add\n      mload\n        /* \"contracts/core/MSender_flattened.sol\":20162:20170  _gilt.id */\n      0xa0\n      dup8\n      add\n      mload\n        /* \"contracts/core/MSender_flattened.sol\":20123:20171  gErc721.transferFrom(msg.sender, self, _gilt.id) */\n      mload(0x40)\n      shl(0xe0, 0x23b872dd)\n      dup2\n      mstore\n        /* \"contracts/core/MSender_flattened.sol\":20144:20154  msg.sender */\n      caller\n        /* \"contracts/core/MSender_flattened.sol\":20123:20171  gErc721.transferFrom(msg.sender, self, _gilt.id) */\n      0x04\n      dup3\n      add\n        /* \"#utility.yul\":6425:6459   */\n      mstore\n      sub(shl(0xa0, 0x01), 0x01)\n        /* \"contracts/core/MSender_flattened.sol\":20156:20160  self */\n      immutable(\"0x7c4b9619c581b88a141b2eb4807c7231fe75a5bedaa863d4150e3dabc19d88ab\")\n        /* \"#utility.yul\":6495:6510   */\n      dup2\n      and\n        /* \"#utility.yul\":6475:6493   */\n      0x24\n      dup4\n      add\n        /* \"#utility.yul\":6468:6511   */\n      mstore\n        /* \"#utility.yul\":6527:6545   */\n      0x44\n      dup3\n      add\n        /* \"#utility.yul\":6520:6554   */\n      swap3\n      swap1\n      swap3\n      mstore\n        /* \"contracts/core/MSender_flattened.sol\":20037:20058  sendIds.push(_sendId) */\n      swap3\n      swap4\n      pop\n        /* \"contracts/core/MSender_flattened.sol\":20094:20112  _gilt.giltContract */\n      swap1\n      swap2\n        /* \"contracts/core/MSender_flattened.sol\":20123:20143  gErc721.transferFrom */\n      swap1\n      dup3\n      and\n      swap1\n      0x23b872dd\n      swap1\n        /* \"#utility.yul\":6360:6378   */\n      0x64\n      add\n        /* \"contracts/core/MSender_flattened.sol\":20123:20171  gErc721.transferFrom(msg.sender, self, _gilt.id) */\n      0x00\n      mload(0x40)\n      dup1\n      dup4\n      sub\n      dup2\n      0x00\n      dup8\n      dup1\n      extcodesize\n      iszero\n      dup1\n      iszero\n      tag_66\n      jumpi\n      0x00\n      dup1\n      revert\n    tag_66:\n      pop\n      gas\n      call\n      iszero\n      dup1\n      iszero\n      tag_68\n      jumpi\n      returndatasize\n      0x00\n      dup1\n      returndatacopy\n      revert(0x00, returndatasize)\n    tag_68:\n      pop\n      pop\n      pop\n      pop\n        /* \"contracts/core/MSender_flattened.sol\":20234:20252  _gilt.giltContract */\n      0x80\n      dup7\n      add\n      mload\n        /* \"contracts/core/MSender_flattened.sol\":20295:20303  _gilt.id */\n      0xa0\n      dup8\n      add\n      mload\n        /* \"contracts/core/MSender_flattened.sol\":20267:20304  giltContract_.isLocalBonded(_gilt.id) */\n      mload(0x40)\n      shl(0xe0, 0x296c6b03)\n      dup2\n      mstore\n      0x04\n      dup2\n      add\n        /* \"#utility.yul\":160:185   */\n      swap2\n      swap1\n      swap2\n      mstore\n      sub(shl(0xa0, 0x01), 0x01)\n        /* \"contracts/core/MSender_flattened.sol\":20267:20294  giltContract_.isLocalBonded */\n      dup3\n      and\n      swap1\n      0x296c6b03\n      swap1\n        /* \"#utility.yul\":133:151   */\n      0x24\n      add\n        /* \"contracts/core/MSender_flattened.sol\":20267:20304  giltContract_.isLocalBonded(_gilt.id) */\n      0x20\n      mload(0x40)\n      dup1\n      dup4\n      sub\n      dup2\n      dup7\n      gas\n      staticcall\n      iszero\n      dup1\n      iszero\n      tag_71\n      jumpi\n      returndatasize\n      0x00\n      dup1\n      returndatacopy\n      revert(0x00, returndatasize)\n    tag_71:\n      pop\n      pop\n      pop\n      pop\n      mload(0x40)\n      returndatasize\n      not(0x1f)\n      0x1f\n      dup3\n      add\n      and\n      dup3\n      add\n      dup1\n      0x40\n      mstore\n      pop\n      dup2\n      add\n      swap1\n      tag_72\n      swap2\n      swap1\n      tag_73\n      jump\t// in\n    tag_72:\n        /* \"contracts/core/MSender_flattened.sol\":20263:20509  if(!giltContract_.isLocalBonded(_gilt.id)){... */\n      tag_74\n      jumpi\n        /* \"contracts/core/MSender_flattened.sol\":20319:20357  giltContract_.burnLocalisedGilt(_gilt) */\n      mload(0x40)\n      shl(0xe1, 0x7d9cd053)\n      dup2\n      mstore\n      sub(shl(0xa0, 0x01), 0x01)\n        /* \"contracts/core/MSender_flattened.sol\":20319:20350  giltContract_.burnLocalisedGilt */\n      dup3\n      and\n      swap1\n      0xfb39a0a6\n      swap1\n        /* \"contracts/core/MSender_flattened.sol\":20319:20357  giltContract_.burnLocalisedGilt(_gilt) */\n      tag_75\n      swap1\n        /* \"contracts/core/MSender_flattened.sol\":20351:20356  _gilt */\n      dup11\n      swap1\n        /* \"contracts/core/MSender_flattened.sol\":20319:20357  giltContract_.burnLocalisedGilt(_gilt) */\n      0x04\n      add\n      tag_76\n      jump\t// in\n    tag_75:\n      0x0120\n      mload(0x40)\n      dup1\n      dup4\n      sub\n      dup2\n      0x00\n      dup8\n      gas\n      call\n      iszero\n      dup1\n      iszero\n      tag_78\n      jumpi\n      returndatasize\n      0x00\n      dup1\n      returndatacopy\n      revert(0x00, returndatasize)\n    tag_78:\n      pop\n      pop\n      pop\n      pop\n      mload(0x40)\n      returndatasize\n      not(0x1f)\n      0x1f\n      dup3\n      add\n      and\n      dup3\n      add\n      dup1\n      0x40\n      mstore\n      pop\n      dup2\n      add\n      swap1\n      tag_79\n      swap2\n      swap1\n      tag_80\n      jump\t// in\n    tag_79:\n      pop\n        /* \"contracts/core/MSender_flattened.sol\":20263:20509  if(!giltContract_.isLocalBonded(_gilt.id)){... */\n      jump(tag_81)\n    tag_74:\n        /* \"contracts/core/MSender_flattened.sol\":20459:20467  _gilt.id */\n      0xa0\n      dup8\n      add\n      mload\n        /* \"contracts/core/MSender_flattened.sol\":20436:20468  giltContract_.lockGilt(_gilt.id) */\n      mload(0x40)\n      shl(0xe0, 0xdcc4df73)\n      dup2\n      mstore\n      0x04\n      dup2\n      add\n        /* \"#utility.yul\":160:185   */\n      swap2\n      swap1\n      swap2\n      mstore\n      sub(shl(0xa0, 0x01), 0x01)\n        /* \"contracts/core/MSender_flattened.sol\":20436:20458  giltContract_.lockGilt */\n      dup3\n      and\n      swap1\n      0xdcc4df73\n      swap1\n        /* \"#utility.yul\":133:151   */\n      0x24\n      add\n        /* \"contracts/core/MSender_flattened.sol\":20436:20468  giltContract_.lockGilt(_gilt.id) */\n      0xc0\n      mload(0x40)\n      dup1\n      dup4\n      sub\n      dup2\n      0x00\n      dup8\n      gas\n      call\n      iszero\n      dup1\n      iszero\n      tag_84\n      jumpi\n      returndatasize\n      0x00\n      dup1\n      returndatacopy\n      revert(0x00, returndatasize)\n    tag_84:\n      pop\n      pop\n      pop\n      pop\n      mload(0x40)\n      returndatasize\n      not(0x1f)\n      0x1f\n      dup3\n      add\n      and\n      dup3\n      add\n      dup1\n      0x40\n      mstore\n      pop\n      dup2\n      add\n      swap1\n      tag_85\n      swap2\n      swap1\n      tag_86\n      jump\t// in\n    tag_85:\n      pop\n        /* \"contracts/core/MSender_flattened.sol\":20263:20509  if(!giltContract_.isLocalBonded(_gilt.id)){... */\n    tag_81:\n        /* \"contracts/core/MSender_flattened.sol\":20551:20956  TransmittedGilt({... */\n      0x40\n      dup1\n      mload\n      0x80\n      dup2\n      add\n      dup3\n      mstore\n      dup9\n      dup2\n      mstore\n      0x20\n      dup2\n      add\n      dup8\n      swap1\n      mstore\n      dup1\n      dup3\n      add\n      dup7\n      swap1\n      mstore\n      sub(shl(0xa0, 0x01), 0x01)\n      dup9\n      dup2\n      and\n      0x60\n      dup4\n      add\n      mstore\n      0x00\n        /* \"contracts/core/MSender_flattened.sol\":21013:21021  register */\n      dup1\n      sload\n        /* \"contracts/core/MSender_flattened.sol\":21013:21063  register.getDestinationConfig(_destinationChainId) */\n      swap4\n      mload\n      shl(0xe1, 0x67513e1b)\n      dup2\n      mstore\n      0x04\n      dup2\n      add\n        /* \"#utility.yul\":160:185   */\n      dup14\n      swap1\n      mstore\n        /* \"contracts/core/MSender_flattened.sol\":20551:20956  TransmittedGilt({... */\n      swap3\n      swap4\n      swap1\n      swap3\n        /* \"contracts/core/MSender_flattened.sol\":21013:21021  register */\n      swap2\n      and\n      swap1\n        /* \"contracts/core/MSender_flattened.sol\":21013:21042  register.getDestinationConfig */\n      0xcea27c36\n      swap1\n        /* \"#utility.yul\":133:151   */\n      0x24\n      add\n        /* \"contracts/core/MSender_flattened.sol\":21013:21063  register.getDestinationConfig(_destinationChainId) */\n      0x00\n      mload(0x40)\n      dup1\n      dup4\n      sub\n      dup2\n      dup7\n      gas\n      staticcall\n      iszero\n      dup1\n      iszero\n      tag_89\n      jumpi\n      returndatasize\n      0x00\n      dup1\n      returndatacopy\n      revert(0x00, returndatasize)\n    tag_89:\n      pop\n      pop\n      pop\n      pop\n      mload(0x40)\n      returndatasize\n      0x00\n      dup3\n      returndatacopy\n      0x1f\n      returndatasize\n      swap1\n      dup2\n      add\n      not(0x1f)\n      and\n      dup3\n      add\n      0x40\n      mstore\n      tag_90\n      swap2\n      swap1\n      dup2\n      add\n      swap1\n      tag_91\n      jump\t// in\n    tag_90:\n        /* \"contracts/core/MSender_flattened.sol\":21121:22281  Client.EVM2AnyMessage({... */\n      0x40\n      dup1\n      mload\n      0xa0\n      dup2\n      add\n      swap1\n      swap2\n      mstore\n        /* \"contracts/core/MSender_flattened.sol\":21246:21277  destinationConfig_.giltReciever */\n      0x80\n      dup3\n      add\n      mload\n      sub(shl(0xa0, 0x01), 0x01)\n        /* \"#utility.yul\":10930:10962   */\n      and\n        /* \"contracts/core/MSender_flattened.sol\":21235:21278  abi.encode(destinationConfig_.giltReciever) */\n      0xc0\n      dup3\n      add\n        /* \"#utility.yul\":10912:10963   */\n      mstore\n        /* \"contracts/core/MSender_flattened.sol\":20967:21063  DestinationConfig memory destinationConfig_ = register.getDestinationConfig(_destinationChainId) */\n      swap1\n      swap2\n      pop\n        /* \"contracts/core/MSender_flattened.sol\":21074:21118  Client.EVM2AnyMessage memory evm2AnyMessage_ */\n      0x00\n      swap1\n        /* \"contracts/core/MSender_flattened.sol\":21121:22281  Client.EVM2AnyMessage({... */\n      dup1\n        /* \"#utility.yul\":10885:10903   */\n      0xe0\n      dup2\n      add\n        /* \"contracts/core/MSender_flattened.sol\":21235:21278  abi.encode(destinationConfig_.giltReciever) */\n      mload(0x40)\n      0x20\n      dup2\n      dup4\n      sub\n      sub\n      dup2\n      mstore\n      swap1\n      0x40\n      mstore\n        /* \"contracts/core/MSender_flattened.sol\":21121:22281  Client.EVM2AnyMessage({... */\n      dup2\n      mstore\n      0x20\n      add\n        /* \"contracts/core/MSender_flattened.sol\":21409:21415  tGilt_ */\n      dup5\n        /* \"contracts/core/MSender_flattened.sol\":21398:21416  abi.encode(tGilt_) */\n      add(0x20, mload(0x40))\n      tag_94\n      swap2\n      swap1\n      tag_28\n      jump\t// in\n    tag_94:\n      0x40\n      dup1\n      mload\n      not(0x1f)\n      dup2\n      dup5\n      sub\n      add\n      dup2\n      mstore\n      swap2\n      swap1\n      mstore\n        /* \"contracts/core/MSender_flattened.sol\":21121:22281  Client.EVM2AnyMessage({... */\n      dup2\n      mstore\n        /* \"contracts/core/MSender_flattened.sol\":21398:21416  abi.encode(tGilt_) */\n      0x20\n        /* \"contracts/core/MSender_flattened.sol\":21121:22281  Client.EVM2AnyMessage({... */\n      add\n        /* \"contracts/core/MSender_flattened.sol\":21570:21571  0 */\n      0x00\n        /* \"contracts/core/MSender_flattened.sol\":21542:21572  new Client.EVMTokenAmount[](0) */\n      mload(0x40)\n      swap1\n      dup1\n      dup3\n      mstore\n      dup1\n      0x20\n      mul\n      0x20\n      add\n      dup3\n      add\n      0x40\n      mstore\n      dup1\n      iszero\n      tag_98\n      jumpi\n      dup2\n      0x20\n      add\n    tag_99:\n      0x40\n      dup1\n      mload\n      dup1\n      dup3\n      add\n      swap1\n      swap2\n      mstore\n      0x00\n      dup1\n      dup3\n      mstore\n      0x20\n      dup3\n      add\n      mstore\n      dup2\n      mstore\n      0x20\n      add\n      swap1\n      0x01\n      swap1\n      sub\n      swap1\n      dup2\n      tag_99\n      jumpi\n      swap1\n      pop\n    tag_98:\n      pop\n        /* \"contracts/core/MSender_flattened.sol\":21121:22281  Client.EVM2AnyMessage({... */\n      dup2\n      mstore\n      0x20\n      add\n        /* \"contracts/core/MSender_flattened.sol\":22117:22118  0 */\n      0x00\n      sub(shl(0xa0, 0x01), 0x01)\n        /* \"contracts/core/MSender_flattened.sol\":21121:22281  Client.EVM2AnyMessage({... */\n      and\n      dup2\n      mstore\n      0x20\n      add\n        /* \"contracts/core/MSender_flattened.sol\":21716:22017  Client._argsToBytes(... */\n      tag_102\n        /* \"contracts/core/MSender_flattened.sol\":21821:21863  Client.EVMExtraArgsV1({gasLimit: 400_000}) */\n      mload(0x40)\n      dup1\n      0x20\n      add\n      0x40\n      mstore\n      dup1\n        /* \"contracts/core/MSender_flattened.sol\":21854:21861  400_000 */\n      0x061a80\n        /* \"contracts/core/MSender_flattened.sol\":21821:21863  Client.EVMExtraArgsV1({gasLimit: 400_000}) */\n      dup2\n      mstore\n      pop\n        /* \"contracts/core/MSender_flattened.sol\":1435:1491  abi.encodeWithSelector(EVM_EXTRA_ARGS_V1_TAG, extraArgs) */\n      0x40\n      dup1\n      mload\n        /* \"#utility.yul\":13422:13435   */\n      swap2\n      mload\n        /* \"contracts/core/MSender_flattened.sol\":1435:1491  abi.encodeWithSelector(EVM_EXTRA_ARGS_V1_TAG, extraArgs) */\n      0x24\n      dup1\n      dup5\n      add\n        /* \"#utility.yul\":13404:13436   */\n      swap2\n      swap1\n      swap2\n      mstore\n        /* \"contracts/core/MSender_flattened.sol\":1435:1491  abi.encodeWithSelector(EVM_EXTRA_ARGS_V1_TAG, extraArgs) */\n      dup2\n      mload\n      dup1\n      dup5\n      sub\n      swap1\n      swap2\n      add\n      dup2\n      mstore\n        /* \"#utility.yul\":13377:13395   */\n      0x44\n      swap1\n      swap3\n      add\n        /* \"contracts/core/MSender_flattened.sol\":1435:1491  abi.encodeWithSelector(EVM_EXTRA_ARGS_V1_TAG, extraArgs) */\n      swap1\n      mstore\n      0x20\n      dup2\n      add\n      dup1\n      mload\n      sub(shl(0xe0, 0x01), 0x01)\n      and\n      shl(0xe0, 0x97a657c9)\n      or\n      swap1\n      mstore\n      swap1\n        /* \"contracts/core/MSender_flattened.sol\":1326:1496  function _argsToBytes(EVMExtraArgsV1 memory extraArgs) internal pure returns (bytes memory bts) {... */\n      jump\n        /* \"contracts/core/MSender_flattened.sol\":21716:22017  Client._argsToBytes(... */\n    tag_102:\n        /* \"contracts/core/MSender_flattened.sol\":21121:22281  Client.EVM2AnyMessage({... */\n      swap1\n      mstore\n        /* \"contracts/core/MSender_flattened.sol\":22360:22366  router */\n      sload(0x01)\n        /* \"contracts/core/MSender_flattened.sol\":22374:22410  destinationConfig_.ccipChainSelector */\n      0x20\n      dup5\n      add\n      mload\n        /* \"contracts/core/MSender_flattened.sol\":22360:22428  router.getFee(destinationConfig_.ccipChainSelector, evm2AnyMessage_) */\n      mload(0x40)\n      shl(0xe0, 0x20487ded)\n      dup2\n      mstore\n        /* \"contracts/core/MSender_flattened.sol\":21074:22281  Client.EVM2AnyMessage memory evm2AnyMessage_ = Client.EVM2AnyMessage({... */\n      swap3\n      swap4\n      pop\n        /* \"contracts/core/MSender_flattened.sol\":22344:22357  uint256 fees_ */\n      0x00\n      swap3\n      sub(shl(0xa0, 0x01), 0x01)\n        /* \"contracts/core/MSender_flattened.sol\":22360:22366  router */\n      swap1\n      swap3\n      and\n      swap2\n        /* \"contracts/core/MSender_flattened.sol\":22360:22373  router.getFee */\n      0x20487ded\n      swap2\n        /* \"contracts/core/MSender_flattened.sol\":22360:22428  router.getFee(destinationConfig_.ccipChainSelector, evm2AnyMessage_) */\n      tag_104\n      swap2\n        /* \"contracts/core/MSender_flattened.sol\":21074:22281  Client.EVM2AnyMessage memory evm2AnyMessage_ = Client.EVM2AnyMessage({... */\n      dup7\n      swap1\n        /* \"contracts/core/MSender_flattened.sol\":22360:22428  router.getFee(destinationConfig_.ccipChainSelector, evm2AnyMessage_) */\n      0x04\n      add\n      tag_105\n      jump\t// in\n    tag_104:\n      0x20\n      mload(0x40)\n      dup1\n      dup4\n      sub\n      dup2\n      dup7\n      gas\n      staticcall\n      iszero\n      dup1\n      iszero\n      tag_107\n      jumpi\n      returndatasize\n      0x00\n      dup1\n      returndatacopy\n      revert(0x00, returndatasize)\n    tag_107:\n      pop\n      pop\n      pop\n      pop\n      mload(0x40)\n      returndatasize\n      not(0x1f)\n      0x1f\n      dup3\n      add\n      and\n      dup3\n      add\n      dup1\n      0x40\n      mstore\n      pop\n      dup2\n      add\n      swap1\n      tag_108\n      swap2\n      swap1\n      tag_109\n      jump\t// in\n    tag_108:\n        /* \"contracts/core/MSender_flattened.sol\":22541:22547  router */\n      sload(0x01)\n        /* \"contracts/core/MSender_flattened.sol\":22571:22607  destinationConfig_.ccipChainSelector */\n      0x20\n      dup6\n      add\n      mload\n        /* \"contracts/core/MSender_flattened.sol\":22541:22625  router.ccipSend{value: fees_}(destinationConfig_.ccipChainSelector, evm2AnyMessage_) */\n      mload(0x40)\n      shl(0xe0, 0x96f4e9f9)\n      dup2\n      mstore\n        /* \"contracts/core/MSender_flattened.sol\":22344:22428  uint256 fees_ = router.getFee(destinationConfig_.ccipChainSelector, evm2AnyMessage_) */\n      swap3\n      swap4\n      pop\n        /* \"contracts/core/MSender_flattened.sol\":22520:22538  bytes32 messageId_ */\n      0x00\n      swap3\n      sub(shl(0xa0, 0x01), 0x01)\n        /* \"contracts/core/MSender_flattened.sol\":22541:22547  router */\n      swap1\n      swap3\n      and\n      swap2\n        /* \"contracts/core/MSender_flattened.sol\":22541:22556  router.ccipSend */\n      0x96f4e9f9\n      swap2\n        /* \"contracts/core/MSender_flattened.sol\":22344:22428  uint256 fees_ = router.getFee(destinationConfig_.ccipChainSelector, evm2AnyMessage_) */\n      dup6\n      swap2\n        /* \"contracts/core/MSender_flattened.sol\":22541:22625  router.ccipSend{value: fees_}(destinationConfig_.ccipChainSelector, evm2AnyMessage_) */\n      tag_110\n      swap2\n        /* \"contracts/core/MSender_flattened.sol\":22571:22607  destinationConfig_.ccipChainSelector */\n      swap1\n        /* \"contracts/core/MSender_flattened.sol\":22609:22624  evm2AnyMessage_ */\n      dup9\n      swap1\n        /* \"contracts/core/MSender_flattened.sol\":22541:22625  router.ccipSend{value: fees_}(destinationConfig_.ccipChainSelector, evm2AnyMessage_) */\n      0x04\n      add\n      tag_105\n      jump\t// in\n    tag_110:\n      0x20\n      mload(0x40)\n      dup1\n      dup4\n      sub\n      dup2\n      dup6\n      dup9\n      gas\n      call\n      iszero\n      dup1\n      iszero\n      tag_112\n      jumpi\n      returndatasize\n      0x00\n      dup1\n      returndatacopy\n      revert(0x00, returndatasize)\n    tag_112:\n      pop\n      pop\n      pop\n      pop\n      pop\n      mload(0x40)\n      returndatasize\n      not(0x1f)\n      0x1f\n      dup3\n      add\n      and\n      dup3\n      add\n      dup1\n      0x40\n      mstore\n      pop\n      dup2\n      add\n      swap1\n      tag_113\n      swap2\n      swap1\n      tag_109\n      jump\t// in\n    tag_113:\n        /* \"contracts/core/MSender_flattened.sol\":22636:22666  ccipMessageIdBySendId[_sendId] */\n      0x00\n      dup10\n      dup2\n      mstore\n        /* \"contracts/core/MSender_flattened.sol\":22636:22657  ccipMessageIdBySendId */\n      0x04\n        /* \"contracts/core/MSender_flattened.sol\":22636:22666  ccipMessageIdBySendId[_sendId] */\n      0x20\n      dup2\n      dup2\n      mstore\n      0x40\n      dup1\n      dup5\n      keccak256\n        /* \"contracts/core/MSender_flattened.sol\":22636:22679  ccipMessageIdBySendId[_sendId] = messageId_ */\n      dup6\n      swap1\n      sstore\n        /* \"contracts/core/MSender_flattened.sol\":22723:23204  SendStatement({... */\n      dup1\n      mload\n      0xa0\n      dup2\n      add\n      dup3\n      mstore\n      dup14\n      dup2\n      mstore\n      dup1\n      dup4\n      add\n      swap8\n      dup9\n      mstore\n        /* \"contracts/core/MSender_flattened.sol\":18425:18467  0xEeeeeEeeeEeEeeEeEeEeeEEEeeeeEeeeeeeeEEeE */\n      0xeeeeeeeeeeeeeeeeeeeeeeeeeeeeeeeeeeeeeeee\n        /* \"contracts/core/MSender_flattened.sol\":22723:23204  SendStatement({... */\n      dup2\n      dup4\n      add\n      swap1\n      dup2\n      mstore\n        /* \"contracts/core/MSender_flattened.sol\":23041:23056  block.timestamp */\n      timestamp\n        /* \"contracts/core/MSender_flattened.sol\":22723:23204  SendStatement({... */\n      0x60\n      dup4\n      add\n      swap1\n      dup2\n      mstore\n      0x80\n      dup4\n      add\n      swap8\n      dup9\n      mstore\n        /* \"contracts/core/MSender_flattened.sol\":22690:22720  sendStatementBySendId[_sendId] */\n      dup16\n      dup8\n      mstore\n        /* \"contracts/core/MSender_flattened.sol\":22690:22711  sendStatementBySendId */\n      0x05\n        /* \"contracts/core/MSender_flattened.sol\":22690:22720  sendStatementBySendId[_sendId] */\n      swap1\n      swap5\n      mstore\n      swap2\n      dup6\n      keccak256\n        /* \"contracts/core/MSender_flattened.sol\":22690:23204  sendStatementBySendId[_sendId] = SendStatement({... */\n      swap1\n      mload\n      dup2\n      sstore\n      swap7\n      mload\n      0x01\n      dup1\n      dup10\n      add\n      swap2\n      swap1\n      swap2\n      sstore\n      swap1\n      mload\n      0x02\n      dup1\n      dup10\n      add\n      dup1\n      sload\n      not(sub(shl(0xa0, 0x01), 0x01))\n      and\n      sub(shl(0xa0, 0x01), 0x01)\n      swap1\n      swap4\n      and\n      swap3\n      swap1\n      swap3\n      or\n      swap1\n      swap2\n      sstore\n      swap2\n      mload\n      0x03\n      dup9\n      add\n      sstore\n      swap4\n      mload\n      swap6\n      swap1\n      swap2\n      add\n      swap5\n      swap1\n      swap5\n      sstore\n        /* \"contracts/core/MSender_flattened.sol\":23214:23235  sendIds.push(_sendId) */\n      dup4\n      sload\n      swap2\n      dup3\n      add\n      dup5\n      sstore\n      swap3\n      swap1\n      swap3\n      mstore\n      pop\n      0x405787fa12a823e0f2b7631cc41b3ba8828b3321ca811111fa75cd3aa3bb5ace\n      add\n      dup7\n      swap1\n      sstore\n      pop\n        /* \"contracts/core/MSender_flattened.sol\":22636:22666  ccipMessageIdBySendId[_sendId] */\n      swap4\n      swap10\n        /* \"contracts/core/MSender_flattened.sol\":19836:23299  function sendGilt(uint256 _destinationChainId, Gilt memory _gilt, address _owner, bytes32 _alloProfileId, uint256 _projectId) external returns (uint256 _sendId){... */\n      swap9\n      pop\n      pop\n      pop\n      pop\n      pop\n      pop\n      pop\n      pop\n      pop\n      jump\t// out\n        /* \"contracts/core/MSender_flattened.sol\":23306:23542  function notifyChangeOfAddress() external returns (bool _acknowledged) {... */\n    tag_40:\n        /* \"contracts/core/MSender_flattened.sol\":23357:23375  bool _acknowledged */\n      0x00\n        /* \"contracts/core/MSender_flattened.sol\":23409:23417  register */\n      dup1\n      sload\n        /* \"contracts/core/MSender_flattened.sol\":23429:23440  REGISTER_CA */\n      0x40\n      dup1\n      mload\n      dup1\n      dup3\n      add\n      dup3\n      mstore\n      0x13\n      dup2\n      mstore\n      shl(0x69, 0x2922a9a2a92b22a22fa6afa922a3a4a9aa22a9)\n      0x20\n      dup3\n      add\n      mstore\n        /* \"contracts/core/MSender_flattened.sol\":23409:23441  register.getAddress(REGISTER_CA) */\n      swap1\n      mload\n      shl(0xe0, 0xbf40fac1)\n      dup2\n      mstore\n      sub(shl(0xa0, 0x01), 0x01)\n        /* \"contracts/core/MSender_flattened.sol\":23409:23417  register */\n      swap1\n      swap3\n      and\n      swap2\n        /* \"contracts/core/MSender_flattened.sol\":23409:23428  register.getAddress */\n      0xbf40fac1\n      swap2\n        /* \"contracts/core/MSender_flattened.sol\":23409:23441  register.getAddress(REGISTER_CA) */\n      tag_120\n      swap2\n      0x04\n      add\n      tag_18\n      jump\t// in\n    tag_120:\n      0x20\n      mload(0x40)\n      dup1\n      dup4\n      sub\n      dup2\n      dup7\n      gas\n      staticcall\n      iszero\n      dup1\n      iszero\n      tag_122\n      jumpi\n      returndatasize\n      0x00\n      dup1\n      returndatacopy\n      revert(0x00, returndatasize)\n    tag_122:\n      pop\n      pop\n      pop\n      pop\n      mload(0x40)\n      returndatasize\n      not(0x1f)\n      0x1f\n      dup3\n      add\n      and\n      dup3\n      add\n      dup1\n      0x40\n      mstore\n      pop\n      dup2\n      add\n      swap1\n      tag_123\n      swap2\n      swap1\n      tag_50\n      jump\t// in\n    tag_123:\n        /* \"contracts/core/MSender_flattened.sol\":23387:23395  register */\n      0x00\n        /* \"contracts/core/MSender_flattened.sol\":23387:23442  register = IMRegister(register.getAddress(REGISTER_CA)) */\n      dup1\n      sload\n      not(sub(shl(0xa0, 0x01), 0x01))\n      and\n      sub(shl(0xa0, 0x01), 0x01)\n      swap3\n      swap1\n      swap3\n      and\n      swap2\n      dup3\n      or\n      swap1\n      sstore\n        /* \"contracts/core/MSender_flattened.sol\":23495:23511  ROUTER_CLIENT_CA */\n      0x40\n      dup1\n      mload\n      dup1\n      dup3\n      add\n      dup3\n      mstore\n      0x20\n      dup1\n      dup3\n      mstore\n      0x52455345525645445f434841494e4c494e4b5f524f555445525f434c49454e54\n      swap1\n      dup3\n      add\n      mstore\n        /* \"contracts/core/MSender_flattened.sol\":23475:23512  register.getAddress(ROUTER_CLIENT_CA) */\n      swap1\n      mload\n      shl(0xe0, 0xbf40fac1)\n      dup2\n      mstore\n        /* \"contracts/core/MSender_flattened.sol\":23475:23494  register.getAddress */\n      0xbf40fac1\n      swap2\n        /* \"contracts/core/MSender_flattened.sol\":23475:23512  register.getAddress(ROUTER_CLIENT_CA) */\n      tag_124\n      swap2\n      0x04\n      add\n      tag_18\n      jump\t// in\n    tag_124:\n      0x20\n      mload(0x40)\n      dup1\n      dup4\n      sub\n      dup2\n      dup7\n      gas\n      staticcall\n      iszero\n      dup1\n      iszero\n      tag_126\n      jumpi\n      returndatasize\n      0x00\n      dup1\n      returndatacopy\n      revert(0x00, returndatasize)\n    tag_126:\n      pop\n      pop\n      pop\n      pop\n      mload(0x40)\n      returndatasize\n      not(0x1f)\n      0x1f\n      dup3\n      add\n      and\n      dup3\n      add\n      dup1\n      0x40\n      mstore\n      pop\n      dup2\n      add\n      swap1\n      tag_127\n      swap2\n      swap1\n      tag_50\n      jump\t// in\n    tag_127:\n        /* \"contracts/core/MSender_flattened.sol\":23452:23458  router */\n      0x01\n        /* \"contracts/core/MSender_flattened.sol\":23452:23513  router = IRouterClient(register.getAddress(ROUTER_CLIENT_CA)) */\n      dup1\n      sload\n      not(sub(shl(0xa0, 0x01), 0x01))\n      and\n      sub(shl(0xa0, 0x01), 0x01)\n      swap3\n      swap1\n      swap3\n      and\n      swap2\n      swap1\n      swap2\n      or\n      dup2\n      sstore\n        /* \"contracts/core/MSender_flattened.sol\":23452:23458  router */\n      swap2\n      swap1\n      pop\n        /* \"contracts/core/MSender_flattened.sol\":23306:23542  function notifyChangeOfAddress() external returns (bool _acknowledged) {... */\n      jump\t// out\n        /* \"contracts/core/MSender_flattened.sol\":23701:23811  function getIndex() internal returns (uint256 _index){... */\n    tag_62:\n        /* \"contracts/core/MSender_flattened.sol\":23773:23778  index */\n      0x06\n        /* \"contracts/core/MSender_flattened.sol\":23773:23780  index++ */\n      dup1\n      sload\n        /* \"contracts/core/MSender_flattened.sol\":23739:23753  uint256 _index */\n      0x00\n      swap2\n      dup3\n        /* \"contracts/core/MSender_flattened.sol\":23773:23780  index++ */\n      tag_129\n      dup4\n      tag_130\n      jump\t// in\n    tag_129:\n      swap2\n      swap1\n      pop\n      sstore\n        /* \"contracts/core/MSender_flattened.sol\":23764:23780  _index = index++ */\n      swap1\n      pop\n        /* \"contracts/core/MSender_flattened.sol\":23701:23811  function getIndex() internal returns (uint256 _index){... */\n      swap1\n      jump\t// out\n        /* \"#utility.yul\":196:619   */\n    tag_136:\n        /* \"#utility.yul\":238:241   */\n      0x00\n        /* \"#utility.yul\":276:281   */\n      dup2\n        /* \"#utility.yul\":270:282   */\n      mload\n        /* \"#utility.yul\":303:309   */\n      dup1\n        /* \"#utility.yul\":298:301   */\n      dup5\n        /* \"#utility.yul\":291:310   */\n      mstore\n        /* \"#utility.yul\":328:329   */\n      0x00\n        /* \"#utility.yul\":338:500   */\n    tag_149:\n        /* \"#utility.yul\":352:358   */\n      dup2\n        /* \"#utility.yul\":349:350   */\n      dup2\n        /* \"#utility.yul\":346:359   */\n      lt\n        /* \"#utility.yul\":338:500   */\n      iszero\n      tag_151\n      jumpi\n        /* \"#utility.yul\":414:418   */\n      0x20\n        /* \"#utility.yul\":470:483   */\n      dup2\n      dup6\n      add\n        /* \"#utility.yul\":466:488   */\n      dup2\n      add\n        /* \"#utility.yul\":460:489   */\n      mload\n        /* \"#utility.yul\":442:453   */\n      dup7\n      dup4\n      add\n        /* \"#utility.yul\":438:458   */\n      dup3\n      add\n        /* \"#utility.yul\":431:490   */\n      mstore\n        /* \"#utility.yul\":367:379   */\n      add\n        /* \"#utility.yul\":338:500   */\n      jump(tag_149)\n    tag_151:\n        /* \"#utility.yul\":342:345   */\n      pop\n        /* \"#utility.yul\":545:546   */\n      0x00\n        /* \"#utility.yul\":538:542   */\n      0x20\n        /* \"#utility.yul\":529:535   */\n      dup3\n        /* \"#utility.yul\":524:527   */\n      dup7\n        /* \"#utility.yul\":520:536   */\n      add\n        /* \"#utility.yul\":516:543   */\n      add\n        /* \"#utility.yul\":509:547   */\n      mstore\n        /* \"#utility.yul\":608:612   */\n      0x20\n        /* \"#utility.yul\":601:603   */\n      0x1f\n        /* \"#utility.yul\":597:604   */\n      not\n        /* \"#utility.yul\":592:594   */\n      0x1f\n        /* \"#utility.yul\":584:590   */\n      dup4\n        /* \"#utility.yul\":580:595   */\n      add\n        /* \"#utility.yul\":576:605   */\n      and\n        /* \"#utility.yul\":571:574   */\n      dup6\n        /* \"#utility.yul\":567:606   */\n      add\n        /* \"#utility.yul\":563:613   */\n      add\n        /* \"#utility.yul\":556:613   */\n      swap2\n      pop\n      pop\n        /* \"#utility.yul\":196:619   */\n      swap3\n      swap2\n      pop\n      pop\n      jump\t// out\n        /* \"#utility.yul\":624:844   */\n    tag_18:\n        /* \"#utility.yul\":773:775   */\n      0x20\n        /* \"#utility.yul\":762:771   */\n      dup2\n        /* \"#utility.yul\":755:776   */\n      mstore\n        /* \"#utility.yul\":736:740   */\n      0x00\n        /* \"#utility.yul\":793:838   */\n      tag_153\n        /* \"#utility.yul\":834:836   */\n      0x20\n        /* \"#utility.yul\":823:832   */\n      dup4\n        /* \"#utility.yul\":819:837   */\n      add\n        /* \"#utility.yul\":811:817   */\n      dup5\n        /* \"#utility.yul\":793:838   */\n      tag_136\n      jump\t// in\n    tag_153:\n        /* \"#utility.yul\":785:838   */\n      swap4\n        /* \"#utility.yul\":624:844   */\n      swap3\n      pop\n      pop\n      pop\n      jump\t// out\n        /* \"#utility.yul\":849:1481   */\n    tag_22:\n        /* \"#utility.yul\":1020:1022   */\n      0x20\n        /* \"#utility.yul\":1072:1093   */\n      dup1\n      dup3\n      mstore\n        /* \"#utility.yul\":1142:1155   */\n      dup3\n      mload\n        /* \"#utility.yul\":1045:1063   */\n      dup3\n      dup3\n      add\n        /* \"#utility.yul\":1164:1186   */\n      dup2\n      swap1\n      mstore\n        /* \"#utility.yul\":991:995   */\n      0x00\n      swap2\n        /* \"#utility.yul\":1020:1022   */\n      swap1\n        /* \"#utility.yul\":1243:1258   */\n      dup5\n      dup3\n      add\n      swap1\n        /* \"#utility.yul\":1217:1219   */\n      0x40\n        /* \"#utility.yul\":1202:1220   */\n      dup6\n      add\n      swap1\n        /* \"#utility.yul\":991:995   */\n      dup5\n        /* \"#utility.yul\":1286:1455   */\n    tag_155:\n        /* \"#utility.yul\":1300:1306   */\n      dup2\n        /* \"#utility.yul\":1297:1298   */\n      dup2\n        /* \"#utility.yul\":1294:1307   */\n      lt\n        /* \"#utility.yul\":1286:1455   */\n      iszero\n      tag_157\n      jumpi\n        /* \"#utility.yul\":1361:1374   */\n      dup4\n      mload\n        /* \"#utility.yul\":1349:1375   */\n      dup4\n      mstore\n        /* \"#utility.yul\":1430:1445   */\n      swap3\n      dup5\n      add\n      swap3\n        /* \"#utility.yul\":1395:1407   */\n      swap2\n      dup5\n      add\n      swap2\n        /* \"#utility.yul\":1322:1323   */\n      0x01\n        /* \"#utility.yul\":1315:1324   */\n      add\n        /* \"#utility.yul\":1286:1455   */\n      jump(tag_155)\n    tag_157:\n      pop\n        /* \"#utility.yul\":1472:1475   */\n      swap1\n      swap7\n        /* \"#utility.yul\":849:1481   */\n      swap6\n      pop\n      pop\n      pop\n      pop\n      pop\n      pop\n      jump\t// out\n        /* \"#utility.yul\":1486:1666   */\n    tag_25:\n        /* \"#utility.yul\":1545:1551   */\n      0x00\n        /* \"#utility.yul\":1598:1600   */\n      0x20\n        /* \"#utility.yul\":1586:1595   */\n      dup3\n        /* \"#utility.yul\":1577:1584   */\n      dup5\n        /* \"#utility.yul\":1573:1596   */\n      sub\n        /* \"#utility.yul\":1569:1601   */\n      slt\n        /* \"#utility.yul\":1566:1618   */\n      iszero\n      tag_159\n      jumpi\n        /* \"#utility.yul\":1614:1615   */\n      0x00\n        /* \"#utility.yul\":1611:1612   */\n      dup1\n        /* \"#utility.yul\":1604:1616   */\n      revert\n        /* \"#utility.yul\":1566:1618   */\n    tag_159:\n      pop\n        /* \"#utility.yul\":1637:1660   */\n      calldataload\n      swap2\n        /* \"#utility.yul\":1486:1666   */\n      swap1\n      pop\n      jump\t// out\n        /* \"#utility.yul\":1780:2205   */\n    tag_138:\n        /* \"#utility.yul\":1892:1904   */\n      dup1\n      mload\n      sub(shl(0xa0, 0x01), 0x01)\n        /* \"#utility.yul\":1888:1909   */\n      swap1\n      dup2\n      and\n        /* \"#utility.yul\":1876:1910   */\n      dup4\n      mstore\n        /* \"#utility.yul\":1959:1963   */\n      0x20\n        /* \"#utility.yul\":1948:1964   */\n      dup1\n      dup4\n      add\n        /* \"#utility.yul\":1942:1965   */\n      mload\n        /* \"#utility.yul\":1926:1940   */\n      swap1\n      dup5\n      add\n        /* \"#utility.yul\":1919:1966   */\n      mstore\n        /* \"#utility.yul\":2015:2019   */\n      0x40\n        /* \"#utility.yul\":2004:2020   */\n      dup1\n      dup4\n      add\n        /* \"#utility.yul\":1998:2021   */\n      mload\n        /* \"#utility.yul\":1982:1996   */\n      swap1\n      dup5\n      add\n        /* \"#utility.yul\":1975:2022   */\n      mstore\n        /* \"#utility.yul\":2071:2075   */\n      0x60\n        /* \"#utility.yul\":2060:2076   */\n      dup1\n      dup4\n      add\n        /* \"#utility.yul\":2054:2077   */\n      mload\n        /* \"#utility.yul\":2038:2052   */\n      swap1\n      dup5\n      add\n        /* \"#utility.yul\":2031:2078   */\n      mstore\n        /* \"#utility.yul\":2131:2135   */\n      0x80\n        /* \"#utility.yul\":2120:2136   */\n      dup1\n      dup4\n      add\n        /* \"#utility.yul\":2114:2137   */\n      mload\n        /* \"#utility.yul\":2110:2142   */\n      swap1\n      swap2\n      and\n        /* \"#utility.yul\":2094:2108   */\n      swap1\n      dup4\n      add\n        /* \"#utility.yul\":2087:2143   */\n      mstore\n        /* \"#utility.yul\":1856:1859   */\n      0xa0\n        /* \"#utility.yul\":2181:2197   */\n      swap1\n      dup2\n      add\n        /* \"#utility.yul\":2175:2198   */\n      mload\n        /* \"#utility.yul\":2159:2173   */\n      swap2\n      add\n        /* \"#utility.yul\":2152:2199   */\n      mstore\n        /* \"#utility.yul\":1780:2205   */\n      jump\t// out\n        /* \"#utility.yul\":2210:2692   */\n    tag_28:\n        /* \"#utility.yul\":2366:2370   */\n      0x00\n        /* \"#utility.yul\":2408:2411   */\n      0x0120\n        /* \"#utility.yul\":2397:2406   */\n      dup3\n        /* \"#utility.yul\":2393:2412   */\n      add\n        /* \"#utility.yul\":2385:2412   */\n      swap1\n      pop\n        /* \"#utility.yul\":2421:2469   */\n      tag_163\n        /* \"#utility.yul\":2459:2468   */\n      dup3\n        /* \"#utility.yul\":2450:2456   */\n      dup5\n        /* \"#utility.yul\":2444:2457   */\n      mload\n        /* \"#utility.yul\":2421:2469   */\n      tag_138\n      jump\t// in\n    tag_163:\n        /* \"#utility.yul\":2525:2529   */\n      0x20\n        /* \"#utility.yul\":2513:2530   */\n      dup4\n      add\n        /* \"#utility.yul\":2507:2531   */\n      mload\n        /* \"#utility.yul\":2500:2504   */\n      0xc0\n        /* \"#utility.yul\":2485:2505   */\n      dup4\n      add\n        /* \"#utility.yul\":2478:2532   */\n      mstore\n        /* \"#utility.yul\":2588:2592   */\n      0x40\n        /* \"#utility.yul\":2576:2593   */\n      dup4\n      add\n        /* \"#utility.yul\":2570:2594   */\n      mload\n        /* \"#utility.yul\":2563:2567   */\n      0xe0\n        /* \"#utility.yul\":2548:2568   */\n      dup4\n      add\n        /* \"#utility.yul\":2541:2595   */\n      mstore\n        /* \"#utility.yul\":2657:2661   */\n      0x60\n        /* \"#utility.yul\":2645:2662   */\n      swap1\n      swap3\n      add\n        /* \"#utility.yul\":2639:2663   */\n      mload\n      sub(shl(0xa0, 0x01), 0x01)\n        /* \"#utility.yul\":2635:2685   */\n      and\n        /* \"#utility.yul\":2626:2632   */\n      0x0100\n        /* \"#utility.yul\":2611:2633   */\n      swap1\n      swap2\n      add\n        /* \"#utility.yul\":2604:2686   */\n      mstore\n        /* \"#utility.yul\":2210:2692   */\n      swap1\n      jump\t// out\n        /* \"#utility.yul\":2697:2824   */\n    tag_97:\n        /* \"#utility.yul\":2758:2768   */\n      0x4e487b71\n        /* \"#utility.yul\":2753:2756   */\n      0xe0\n        /* \"#utility.yul\":2749:2769   */\n      shl\n        /* \"#utility.yul\":2746:2747   */\n      0x00\n        /* \"#utility.yul\":2739:2770   */\n      mstore\n        /* \"#utility.yul\":2789:2793   */\n      0x41\n        /* \"#utility.yul\":2786:2787   */\n      0x04\n        /* \"#utility.yul\":2779:2794   */\n      mstore\n        /* \"#utility.yul\":2813:2817   */\n      0x24\n        /* \"#utility.yul\":2810:2811   */\n      0x00\n        /* \"#utility.yul\":2803:2818   */\n      revert\n        /* \"#utility.yul\":2829:3077   */\n    tag_139:\n        /* \"#utility.yul\":2896:2898   */\n      0x40\n        /* \"#utility.yul\":2890:2899   */\n      mload\n        /* \"#utility.yul\":2938:2942   */\n      0xc0\n        /* \"#utility.yul\":2926:2943   */\n      dup2\n      add\n        /* \"#utility.yul\":2973:2991   */\n      0xffffffffffffffff\n        /* \"#utility.yul\":2958:2992   */\n      dup2\n      gt\n        /* \"#utility.yul\":2994:3016   */\n      dup3\n      dup3\n      lt\n        /* \"#utility.yul\":2955:3017   */\n      or\n        /* \"#utility.yul\":2952:3040   */\n      iszero\n      tag_167\n      jumpi\n        /* \"#utility.yul\":3020:3038   */\n      tag_167\n      tag_97\n      jump\t// in\n    tag_167:\n        /* \"#utility.yul\":3056:3058   */\n      0x40\n        /* \"#utility.yul\":3049:3071   */\n      mstore\n        /* \"#utility.yul\":2829:3077   */\n      swap1\n      jump\t// out\n        /* \"#utility.yul\":3082:3335   */\n    tag_140:\n        /* \"#utility.yul\":3154:3156   */\n      0x40\n        /* \"#utility.yul\":3148:3157   */\n      mload\n        /* \"#utility.yul\":3196:3200   */\n      0xa0\n        /* \"#utility.yul\":3184:3201   */\n      dup2\n      add\n        /* \"#utility.yul\":3231:3249   */\n      0xffffffffffffffff\n        /* \"#utility.yul\":3216:3250   */\n      dup2\n      gt\n        /* \"#utility.yul\":3252:3274   */\n      dup3\n      dup3\n      lt\n        /* \"#utility.yul\":3213:3275   */\n      or\n        /* \"#utility.yul\":3210:3298   */\n      iszero\n      tag_167\n      jumpi\n        /* \"#utility.yul\":3278:3296   */\n      tag_167\n      tag_97\n      jump\t// in\n        /* \"#utility.yul\":3340:3471   */\n    tag_141:\n      sub(shl(0xa0, 0x01), 0x01)\n        /* \"#utility.yul\":3415:3446   */\n      dup2\n      and\n        /* \"#utility.yul\":3405:3447   */\n      dup2\n      eq\n        /* \"#utility.yul\":3395:3465   */\n      tag_172\n      jumpi\n        /* \"#utility.yul\":3461:3462   */\n      0x00\n        /* \"#utility.yul\":3458:3459   */\n      dup1\n        /* \"#utility.yul\":3451:3463   */\n      revert\n        /* \"#utility.yul\":3395:3465   */\n    tag_172:\n        /* \"#utility.yul\":3340:3471   */\n      pop\n      jump\t// out\n        /* \"#utility.yul\":3476:3610   */\n    tag_142:\n        /* \"#utility.yul\":3544:3564   */\n      dup1\n      calldataload\n        /* \"#utility.yul\":3573:3604   */\n      tag_174\n        /* \"#utility.yul\":3544:3564   */\n      dup2\n        /* \"#utility.yul\":3573:3604   */\n      tag_141\n      jump\t// in\n    tag_174:\n        /* \"#utility.yul\":3476:3610   */\n      swap2\n      swap1\n      pop\n      jump\t// out\n        /* \"#utility.yul\":3615:4720   */\n    tag_31:\n        /* \"#utility.yul\":3731:3737   */\n      0x00\n        /* \"#utility.yul\":3739:3745   */\n      dup1\n        /* \"#utility.yul\":3747:3753   */\n      0x00\n        /* \"#utility.yul\":3755:3761   */\n      dup1\n        /* \"#utility.yul\":3763:3769   */\n      0x00\n        /* \"#utility.yul\":3807:3816   */\n      dup6\n        /* \"#utility.yul\":3798:3805   */\n      dup8\n        /* \"#utility.yul\":3794:3817   */\n      sub\n        /* \"#utility.yul\":3837:3840   */\n      0x0140\n        /* \"#utility.yul\":3833:3835   */\n      dup2\n        /* \"#utility.yul\":3829:3841   */\n      slt\n        /* \"#utility.yul\":3826:3858   */\n      iszero\n      tag_176\n      jumpi\n        /* \"#utility.yul\":3854:3855   */\n      0x00\n        /* \"#utility.yul\":3851:3852   */\n      dup1\n        /* \"#utility.yul\":3844:3856   */\n      revert\n        /* \"#utility.yul\":3826:3858   */\n    tag_176:\n        /* \"#utility.yul\":3877:3900   */\n      dup7\n      calldataload\n      swap6\n      pop\n        /* \"#utility.yul\":3934:3938   */\n      0xc0\n      not(0x1f)\n        /* \"#utility.yul\":3916:3932   */\n      dup3\n      add\n        /* \"#utility.yul\":3912:3939   */\n      slt\n        /* \"#utility.yul\":3909:3956   */\n      iszero\n      tag_177\n      jumpi\n        /* \"#utility.yul\":3952:3953   */\n      0x00\n        /* \"#utility.yul\":3949:3950   */\n      dup1\n        /* \"#utility.yul\":3942:3954   */\n      revert\n        /* \"#utility.yul\":3909:3956   */\n    tag_177:\n      pop\n        /* \"#utility.yul\":3978:3995   */\n      tag_178\n      tag_139\n      jump\t// in\n    tag_178:\n        /* \"#utility.yul\":4047:4049   */\n      0x20\n        /* \"#utility.yul\":4036:4045   */\n      dup8\n        /* \"#utility.yul\":4032:4050   */\n      add\n        /* \"#utility.yul\":4019:4051   */\n      calldataload\n        /* \"#utility.yul\":4060:4093   */\n      tag_179\n        /* \"#utility.yul\":4085:4092   */\n      dup2\n        /* \"#utility.yul\":4060:4093   */\n      tag_141\n      jump\t// in\n    tag_179:\n        /* \"#utility.yul\":4116:4123   */\n      dup1\n        /* \"#utility.yul\":4109:4114   */\n      dup3\n        /* \"#utility.yul\":4102:4124   */\n      mstore\n      pop\n        /* \"#utility.yul\":4184:4186   */\n      0x40\n        /* \"#utility.yul\":4173:4182   */\n      dup8\n        /* \"#utility.yul\":4169:4187   */\n      add\n        /* \"#utility.yul\":4156:4188   */\n      calldataload\n        /* \"#utility.yul\":4151:4153   */\n      0x20\n        /* \"#utility.yul\":4144:4149   */\n      dup3\n        /* \"#utility.yul\":4140:4154   */\n      add\n        /* \"#utility.yul\":4133:4189   */\n      mstore\n        /* \"#utility.yul\":4249:4251   */\n      0x60\n        /* \"#utility.yul\":4238:4247   */\n      dup8\n        /* \"#utility.yul\":4234:4252   */\n      add\n        /* \"#utility.yul\":4221:4253   */\n      calldataload\n        /* \"#utility.yul\":4216:4218   */\n      0x40\n        /* \"#utility.yul\":4209:4214   */\n      dup3\n        /* \"#utility.yul\":4205:4219   */\n      add\n        /* \"#utility.yul\":4198:4254   */\n      mstore\n        /* \"#utility.yul\":4314:4317   */\n      0x80\n        /* \"#utility.yul\":4303:4312   */\n      dup8\n        /* \"#utility.yul\":4299:4318   */\n      add\n        /* \"#utility.yul\":4286:4319   */\n      calldataload\n        /* \"#utility.yul\":4281:4283   */\n      0x60\n        /* \"#utility.yul\":4274:4279   */\n      dup3\n        /* \"#utility.yul\":4270:4284   */\n      add\n        /* \"#utility.yul\":4263:4320   */\n      mstore\n        /* \"#utility.yul\":4372:4375   */\n      0xa0\n        /* \"#utility.yul\":4361:4370   */\n      dup8\n        /* \"#utility.yul\":4357:4376   */\n      add\n        /* \"#utility.yul\":4344:4377   */\n      calldataload\n        /* \"#utility.yul\":4386:4419   */\n      tag_180\n        /* \"#utility.yul\":4411:4418   */\n      dup2\n        /* \"#utility.yul\":4386:4419   */\n      tag_141\n      jump\t// in\n    tag_180:\n        /* \"#utility.yul\":4446:4449   */\n      0x80\n        /* \"#utility.yul\":4435:4450   */\n      dup3\n      add\n        /* \"#utility.yul\":4428:4460   */\n      mstore\n        /* \"#utility.yul\":4521:4525   */\n      0xc0\n        /* \"#utility.yul\":4506:4526   */\n      dup8\n      add\n        /* \"#utility.yul\":4493:4527   */\n      calldataload\n        /* \"#utility.yul\":4487:4490   */\n      0xa0\n        /* \"#utility.yul\":4476:4491   */\n      dup3\n      add\n        /* \"#utility.yul\":4469:4528   */\n      mstore\n        /* \"#utility.yul\":4439:4444   */\n      swap4\n      pop\n        /* \"#utility.yul\":4571:4610   */\n      tag_181\n        /* \"#utility.yul\":4605:4608   */\n      0xe0\n        /* \"#utility.yul\":4590:4609   */\n      dup8\n      add\n        /* \"#utility.yul\":4571:4610   */\n      tag_142\n      jump\t// in\n    tag_181:\n        /* \"#utility.yul\":3615:4720   */\n      swap5\n      swap8\n      swap4\n      swap7\n      pop\n        /* \"#utility.yul\":4561:4610   */\n      swap4\n      swap5\n        /* \"#utility.yul\":4657:4660   */\n      0x0100\n        /* \"#utility.yul\":4642:4661   */\n      dup2\n      add\n        /* \"#utility.yul\":4629:4662   */\n      calldataload\n      swap5\n      pop\n        /* \"#utility.yul\":4709:4712   */\n      0x0120\n        /* \"#utility.yul\":4694:4713   */\n      add\n        /* \"#utility.yul\":4681:4714   */\n      calldataload\n      swap3\n        /* \"#utility.yul\":3615:4720   */\n      swap2\n      pop\n      pop\n      jump\t// out\n        /* \"#utility.yul\":5445:5583   */\n    tag_143:\n        /* \"#utility.yul\":5524:5537   */\n      dup1\n      mload\n        /* \"#utility.yul\":5546:5577   */\n      tag_174\n        /* \"#utility.yul\":5524:5537   */\n      dup2\n        /* \"#utility.yul\":5546:5577   */\n      tag_141\n      jump\t// in\n        /* \"#utility.yul\":5588:5839   */\n    tag_50:\n        /* \"#utility.yul\":5658:5664   */\n      0x00\n        /* \"#utility.yul\":5711:5713   */\n      0x20\n        /* \"#utility.yul\":5699:5708   */\n      dup3\n        /* \"#utility.yul\":5690:5697   */\n      dup5\n        /* \"#utility.yul\":5686:5709   */\n      sub\n        /* \"#utility.yul\":5682:5714   */\n      slt\n        /* \"#utility.yul\":5679:5731   */\n      iszero\n      tag_187\n      jumpi\n        /* \"#utility.yul\":5727:5728   */\n      0x00\n        /* \"#utility.yul\":5724:5725   */\n      dup1\n        /* \"#utility.yul\":5717:5729   */\n      revert\n        /* \"#utility.yul\":5679:5731   */\n    tag_187:\n        /* \"#utility.yul\":5759:5768   */\n      dup2\n        /* \"#utility.yul\":5753:5769   */\n      mload\n        /* \"#utility.yul\":5778:5809   */\n      tag_153\n        /* \"#utility.yul\":5803:5808   */\n      dup2\n        /* \"#utility.yul\":5778:5809   */\n      tag_141\n      jump\t// in\n        /* \"#utility.yul\":6565:6842   */\n    tag_73:\n        /* \"#utility.yul\":6632:6638   */\n      0x00\n        /* \"#utility.yul\":6685:6687   */\n      0x20\n        /* \"#utility.yul\":6673:6682   */\n      dup3\n        /* \"#utility.yul\":6664:6671   */\n      dup5\n        /* \"#utility.yul\":6660:6683   */\n      sub\n        /* \"#utility.yul\":6656:6688   */\n      slt\n        /* \"#utility.yul\":6653:6705   */\n      iszero\n      tag_192\n      jumpi\n        /* \"#utility.yul\":6701:6702   */\n      0x00\n        /* \"#utility.yul\":6698:6699   */\n      dup1\n        /* \"#utility.yul\":6691:6703   */\n      revert\n        /* \"#utility.yul\":6653:6705   */\n    tag_192:\n        /* \"#utility.yul\":6733:6742   */\n      dup2\n        /* \"#utility.yul\":6727:6743   */\n      mload\n        /* \"#utility.yul\":6786:6791   */\n      dup1\n        /* \"#utility.yul\":6779:6792   */\n      iszero\n        /* \"#utility.yul\":6772:6793   */\n      iszero\n        /* \"#utility.yul\":6765:6770   */\n      dup2\n        /* \"#utility.yul\":6762:6794   */\n      eq\n        /* \"#utility.yul\":6752:6812   */\n      tag_153\n      jumpi\n        /* \"#utility.yul\":6808:6809   */\n      0x00\n        /* \"#utility.yul\":6805:6806   */\n      dup1\n        /* \"#utility.yul\":6798:6810   */\n      revert\n        /* \"#utility.yul\":6847:7083   */\n    tag_76:\n        /* \"#utility.yul\":7023:7026   */\n      0xc0\n        /* \"#utility.yul\":7008:7027   */\n      dup2\n      add\n        /* \"#utility.yul\":7036:7077   */\n      tag_195\n        /* \"#utility.yul\":7012:7021   */\n      dup3\n        /* \"#utility.yul\":7059:7065   */\n      dup5\n        /* \"#utility.yul\":7036:7077   */\n      tag_138\n      jump\t// in\n    tag_195:\n        /* \"#utility.yul\":6847:7083   */\n      swap3\n      swap2\n      pop\n      pop\n      jump\t// out\n        /* \"#utility.yul\":7088:7741   */\n    tag_144:\n        /* \"#utility.yul\":7150:7155   */\n      0x00\n        /* \"#utility.yul\":7198:7202   */\n      0xc0\n        /* \"#utility.yul\":7186:7195   */\n      dup3\n        /* \"#utility.yul\":7181:7184   */\n      dup5\n        /* \"#utility.yul\":7177:7196   */\n      sub\n        /* \"#utility.yul\":7173:7203   */\n      slt\n        /* \"#utility.yul\":7170:7220   */\n      iszero\n      tag_197\n      jumpi\n        /* \"#utility.yul\":7216:7217   */\n      0x00\n        /* \"#utility.yul\":7213:7214   */\n      dup1\n        /* \"#utility.yul\":7206:7218   */\n      revert\n        /* \"#utility.yul\":7170:7220   */\n    tag_197:\n        /* \"#utility.yul\":7238:7255   */\n      tag_198\n      tag_139\n      jump\t// in\n    tag_198:\n        /* \"#utility.yul\":7229:7255   */\n      swap1\n      pop\n        /* \"#utility.yul\":7285:7294   */\n      dup2\n        /* \"#utility.yul\":7279:7295   */\n      mload\n        /* \"#utility.yul\":7304:7337   */\n      tag_199\n        /* \"#utility.yul\":7329:7336   */\n      dup2\n        /* \"#utility.yul\":7304:7337   */\n      tag_141\n      jump\t// in\n    tag_199:\n        /* \"#utility.yul\":7360:7367   */\n      dup1\n        /* \"#utility.yul\":7353:7358   */\n      dup3\n        /* \"#utility.yul\":7346:7368   */\n      mstore\n      pop\n        /* \"#utility.yul\":7421:7423   */\n      0x20\n        /* \"#utility.yul\":7410:7419   */\n      dup3\n        /* \"#utility.yul\":7406:7424   */\n      add\n        /* \"#utility.yul\":7400:7425   */\n      mload\n        /* \"#utility.yul\":7395:7397   */\n      0x20\n        /* \"#utility.yul\":7388:7393   */\n      dup3\n        /* \"#utility.yul\":7384:7398   */\n      add\n        /* \"#utility.yul\":7377:7426   */\n      mstore\n        /* \"#utility.yul\":7479:7481   */\n      0x40\n        /* \"#utility.yul\":7468:7477   */\n      dup3\n        /* \"#utility.yul\":7464:7482   */\n      add\n        /* \"#utility.yul\":7458:7483   */\n      mload\n        /* \"#utility.yul\":7453:7455   */\n      0x40\n        /* \"#utility.yul\":7446:7451   */\n      dup3\n        /* \"#utility.yul\":7442:7456   */\n      add\n        /* \"#utility.yul\":7435:7484   */\n      mstore\n        /* \"#utility.yul\":7537:7539   */\n      0x60\n        /* \"#utility.yul\":7526:7535   */\n      dup3\n        /* \"#utility.yul\":7522:7540   */\n      add\n        /* \"#utility.yul\":7516:7541   */\n      mload\n        /* \"#utility.yul\":7511:7513   */\n      0x60\n        /* \"#utility.yul\":7504:7509   */\n      dup3\n        /* \"#utility.yul\":7500:7514   */\n      add\n        /* \"#utility.yul\":7493:7542   */\n      mstore\n        /* \"#utility.yul\":7587:7590   */\n      0x80\n        /* \"#utility.yul\":7576:7585   */\n      dup3\n        /* \"#utility.yul\":7572:7591   */\n      add\n        /* \"#utility.yul\":7566:7592   */\n      mload\n        /* \"#utility.yul\":7601:7634   */\n      tag_200\n        /* \"#utility.yul\":7626:7633   */\n      dup2\n        /* \"#utility.yul\":7601:7634   */\n      tag_141\n      jump\t// in\n    tag_200:\n        /* \"#utility.yul\":7667:7674   */\n      dup1\n        /* \"#utility.yul\":7661:7664   */\n      0x80\n        /* \"#utility.yul\":7654:7659   */\n      dup4\n        /* \"#utility.yul\":7650:7665   */\n      add\n        /* \"#utility.yul\":7643:7675   */\n      mstore\n      pop\n        /* \"#utility.yul\":7729:7732   */\n      0xa0\n        /* \"#utility.yul\":7718:7727   */\n      dup3\n        /* \"#utility.yul\":7714:7733   */\n      add\n        /* \"#utility.yul\":7708:7734   */\n      mload\n        /* \"#utility.yul\":7702:7705   */\n      0xa0\n        /* \"#utility.yul\":7695:7700   */\n      dup3\n        /* \"#utility.yul\":7691:7706   */\n      add\n        /* \"#utility.yul\":7684:7735   */\n      mstore\n        /* \"#utility.yul\":7088:7741   */\n      swap3\n      swap2\n      pop\n      pop\n      jump\t// out\n        /* \"#utility.yul\":7746:8486   */\n    tag_80:\n        /* \"#utility.yul\":7848:7854   */\n      0x00\n        /* \"#utility.yul\":7901:7904   */\n      0x0120\n        /* \"#utility.yul\":7889:7898   */\n      dup3\n        /* \"#utility.yul\":7880:7887   */\n      dup5\n        /* \"#utility.yul\":7876:7899   */\n      sub\n        /* \"#utility.yul\":7872:7905   */\n      slt\n        /* \"#utility.yul\":7869:7922   */\n      iszero\n      tag_202\n      jumpi\n        /* \"#utility.yul\":7918:7919   */\n      0x00\n        /* \"#utility.yul\":7915:7916   */\n      dup1\n        /* \"#utility.yul\":7908:7920   */\n      revert\n        /* \"#utility.yul\":7869:7922   */\n    tag_202:\n        /* \"#utility.yul\":7951:7953   */\n      0x40\n        /* \"#utility.yul\":7945:7954   */\n      mload\n        /* \"#utility.yul\":7993:7997   */\n      0x80\n        /* \"#utility.yul\":7985:7991   */\n      dup2\n        /* \"#utility.yul\":7981:7998   */\n      add\n        /* \"#utility.yul\":8064:8070   */\n      dup2\n        /* \"#utility.yul\":8052:8062   */\n      dup2\n        /* \"#utility.yul\":8049:8071   */\n      lt\n        /* \"#utility.yul\":8028:8046   */\n      0xffffffffffffffff\n        /* \"#utility.yul\":8016:8026   */\n      dup3\n        /* \"#utility.yul\":8013:8047   */\n      gt\n        /* \"#utility.yul\":8010:8072   */\n      or\n        /* \"#utility.yul\":8007:8095   */\n      iszero\n      tag_204\n      jumpi\n        /* \"#utility.yul\":8075:8093   */\n      tag_204\n      tag_97\n      jump\t// in\n    tag_204:\n        /* \"#utility.yul\":8111:8113   */\n      0x40\n        /* \"#utility.yul\":8104:8126   */\n      mstore\n        /* \"#utility.yul\":8150:8203   */\n      tag_205\n        /* \"#utility.yul\":8195:8202   */\n      dup5\n        /* \"#utility.yul\":8184:8193   */\n      dup5\n        /* \"#utility.yul\":8150:8203   */\n      tag_144\n      jump\t// in\n    tag_205:\n        /* \"#utility.yul\":8142:8148   */\n      dup2\n        /* \"#utility.yul\":8135:8204   */\n      mstore\n        /* \"#utility.yul\":8260:8263   */\n      0xc0\n        /* \"#utility.yul\":8249:8258   */\n      dup4\n        /* \"#utility.yul\":8245:8264   */\n      add\n        /* \"#utility.yul\":8239:8265   */\n      mload\n        /* \"#utility.yul\":8232:8236   */\n      0x20\n        /* \"#utility.yul\":8224:8230   */\n      dup3\n        /* \"#utility.yul\":8220:8237   */\n      add\n        /* \"#utility.yul\":8213:8266   */\n      mstore\n        /* \"#utility.yul\":8320:8323   */\n      0xe0\n        /* \"#utility.yul\":8309:8318   */\n      dup4\n        /* \"#utility.yul\":8305:8324   */\n      add\n        /* \"#utility.yul\":8299:8325   */\n      mload\n        /* \"#utility.yul\":8294:8296   */\n      0x40\n        /* \"#utility.yul\":8286:8292   */\n      dup3\n        /* \"#utility.yul\":8282:8297   */\n      add\n        /* \"#utility.yul\":8275:8326   */\n      mstore\n        /* \"#utility.yul\":8369:8372   */\n      0x0100\n        /* \"#utility.yul\":8358:8367   */\n      dup4\n        /* \"#utility.yul\":8354:8373   */\n      add\n        /* \"#utility.yul\":8348:8374   */\n      mload\n        /* \"#utility.yul\":8383:8414   */\n      tag_206\n        /* \"#utility.yul\":8408:8413   */\n      dup2\n        /* \"#utility.yul\":8383:8414   */\n      tag_141\n      jump\t// in\n    tag_206:\n        /* \"#utility.yul\":8442:8446   */\n      0x60\n        /* \"#utility.yul\":8430:8447   */\n      dup3\n      add\n        /* \"#utility.yul\":8423:8455   */\n      mstore\n        /* \"#utility.yul\":8434:8440   */\n      swap4\n        /* \"#utility.yul\":7746:8486   */\n      swap3\n      pop\n      pop\n      pop\n      jump\t// out\n        /* \"#utility.yul\":8491:8734   */\n    tag_86:\n        /* \"#utility.yul\":8582:8588   */\n      0x00\n        /* \"#utility.yul\":8635:8638   */\n      0xc0\n        /* \"#utility.yul\":8623:8632   */\n      dup3\n        /* \"#utility.yul\":8614:8621   */\n      dup5\n        /* \"#utility.yul\":8610:8633   */\n      sub\n        /* \"#utility.yul\":8606:8639   */\n      slt\n        /* \"#utility.yul\":8603:8656   */\n      iszero\n      tag_208\n      jumpi\n        /* \"#utility.yul\":8652:8653   */\n      0x00\n        /* \"#utility.yul\":8649:8650   */\n      dup1\n        /* \"#utility.yul\":8642:8654   */\n      revert\n        /* \"#utility.yul\":8603:8656   */\n    tag_208:\n        /* \"#utility.yul\":8675:8728   */\n      tag_153\n        /* \"#utility.yul\":8720:8727   */\n      dup4\n        /* \"#utility.yul\":8709:8718   */\n      dup4\n        /* \"#utility.yul\":8675:8728   */\n      tag_144\n      jump\t// in\n        /* \"#utility.yul\":8739:9719   */\n    tag_145:\n        /* \"#utility.yul\":8804:8809   */\n      0x00\n        /* \"#utility.yul\":8857:8860   */\n      dup3\n        /* \"#utility.yul\":8850:8854   */\n      0x1f\n        /* \"#utility.yul\":8842:8848   */\n      dup4\n        /* \"#utility.yul\":8838:8855   */\n      add\n        /* \"#utility.yul\":8834:8861   */\n      slt\n        /* \"#utility.yul\":8824:8879   */\n      tag_211\n      jumpi\n        /* \"#utility.yul\":8875:8876   */\n      0x00\n        /* \"#utility.yul\":8872:8873   */\n      dup1\n        /* \"#utility.yul\":8865:8877   */\n      revert\n        /* \"#utility.yul\":8824:8879   */\n    tag_211:\n        /* \"#utility.yul\":8904:8910   */\n      dup2\n        /* \"#utility.yul\":8898:8911   */\n      mload\n        /* \"#utility.yul\":8930:8934   */\n      0x20\n        /* \"#utility.yul\":8953:8971   */\n      0xffffffffffffffff\n        /* \"#utility.yul\":8990:8992   */\n      dup1\n        /* \"#utility.yul\":8986:8988   */\n      dup4\n        /* \"#utility.yul\":8983:8993   */\n      gt\n        /* \"#utility.yul\":8980:9016   */\n      iszero\n      tag_213\n      jumpi\n        /* \"#utility.yul\":8996:9014   */\n      tag_213\n      tag_97\n      jump\t// in\n    tag_213:\n        /* \"#utility.yul\":9042:9044   */\n      dup3\n        /* \"#utility.yul\":9039:9040   */\n      0x05\n        /* \"#utility.yul\":9035:9045   */\n      shl\n        /* \"#utility.yul\":9074:9076   */\n      0x40\n        /* \"#utility.yul\":9068:9077   */\n      mload\n        /* \"#utility.yul\":9137:9139   */\n      0x1f\n        /* \"#utility.yul\":9133:9140   */\n      not\n        /* \"#utility.yul\":9128:9130   */\n      0x3f\n        /* \"#utility.yul\":9124:9126   */\n      dup4\n        /* \"#utility.yul\":9120:9131   */\n      add\n        /* \"#utility.yul\":9116:9141   */\n      and\n        /* \"#utility.yul\":9108:9114   */\n      dup2\n        /* \"#utility.yul\":9104:9142   */\n      add\n        /* \"#utility.yul\":9192:9198   */\n      dup2\n        /* \"#utility.yul\":9180:9190   */\n      dup2\n        /* \"#utility.yul\":9177:9199   */\n      lt\n        /* \"#utility.yul\":9172:9174   */\n      dup5\n        /* \"#utility.yul\":9160:9170   */\n      dup3\n        /* \"#utility.yul\":9157:9175   */\n      gt\n        /* \"#utility.yul\":9154:9200   */\n      or\n        /* \"#utility.yul\":9151:9223   */\n      iszero\n      tag_215\n      jumpi\n        /* \"#utility.yul\":9203:9221   */\n      tag_215\n      tag_97\n      jump\t// in\n    tag_215:\n        /* \"#utility.yul\":9239:9241   */\n      0x40\n        /* \"#utility.yul\":9232:9254   */\n      mstore\n        /* \"#utility.yul\":9289:9307   */\n      swap4\n      dup5\n      mstore\n        /* \"#utility.yul\":9335:9339   */\n      0x20\n        /* \"#utility.yul\":9367:9382   */\n      dup2\n      dup8\n      add\n        /* \"#utility.yul\":9363:9389   */\n      dup2\n      add\n      swap5\n        /* \"#utility.yul\":9323:9340   */\n      swap1\n      dup2\n      add\n      swap3\n      pop\n        /* \"#utility.yul\":9401:9416   */\n      dup8\n      dup6\n      gt\n        /* \"#utility.yul\":9398:9433   */\n      iszero\n      tag_216\n      jumpi\n        /* \"#utility.yul\":9429:9430   */\n      0x00\n        /* \"#utility.yul\":9426:9427   */\n      dup1\n        /* \"#utility.yul\":9419:9431   */\n      revert\n        /* \"#utility.yul\":9398:9433   */\n    tag_216:\n        /* \"#utility.yul\":9465:9469   */\n      0x20\n        /* \"#utility.yul\":9457:9463   */\n      dup8\n        /* \"#utility.yul\":9453:9470   */\n      add\n        /* \"#utility.yul\":9442:9470   */\n      swap2\n      pop\n        /* \"#utility.yul\":9479:9689   */\n    tag_217:\n        /* \"#utility.yul\":9495:9501   */\n      dup5\n        /* \"#utility.yul\":9490:9493   */\n      dup3\n        /* \"#utility.yul\":9487:9502   */\n      lt\n        /* \"#utility.yul\":9479:9689   */\n      iszero\n      tag_219\n      jumpi\n        /* \"#utility.yul\":9568:9571   */\n      dup2\n        /* \"#utility.yul\":9562:9572   */\n      mload\n        /* \"#utility.yul\":9585:9616   */\n      tag_220\n        /* \"#utility.yul\":9610:9615   */\n      dup2\n        /* \"#utility.yul\":9585:9616   */\n      tag_141\n      jump\t// in\n    tag_220:\n        /* \"#utility.yul\":9629:9647   */\n      dup4\n      mstore\n        /* \"#utility.yul\":9667:9679   */\n      swap2\n      dup4\n      add\n      swap2\n        /* \"#utility.yul\":9512:9524   */\n      swap1\n      dup4\n      add\n      swap1\n        /* \"#utility.yul\":9479:9689   */\n      jump(tag_217)\n    tag_219:\n        /* \"#utility.yul\":9707:9713   */\n      swap8\n        /* \"#utility.yul\":8739:9719   */\n      swap7\n      pop\n      pop\n      pop\n      pop\n      pop\n      pop\n      pop\n      jump\t// out\n        /* \"#utility.yul\":9724:10761   */\n    tag_91:\n        /* \"#utility.yul\":9828:9834   */\n      0x00\n        /* \"#utility.yul\":9881:9883   */\n      0x20\n        /* \"#utility.yul\":9869:9878   */\n      dup3\n        /* \"#utility.yul\":9860:9867   */\n      dup5\n        /* \"#utility.yul\":9856:9879   */\n      sub\n        /* \"#utility.yul\":9852:9884   */\n      slt\n        /* \"#utility.yul\":9849:9901   */\n      iszero\n      tag_222\n      jumpi\n        /* \"#utility.yul\":9897:9898   */\n      0x00\n        /* \"#utility.yul\":9894:9895   */\n      dup1\n        /* \"#utility.yul\":9887:9899   */\n      revert\n        /* \"#utility.yul\":9849:9901   */\n    tag_222:\n        /* \"#utility.yul\":9930:9939   */\n      dup2\n        /* \"#utility.yul\":9924:9940   */\n      mload\n        /* \"#utility.yul\":9959:9977   */\n      0xffffffffffffffff\n        /* \"#utility.yul\":10000:10002   */\n      dup1\n        /* \"#utility.yul\":9992:9998   */\n      dup3\n        /* \"#utility.yul\":9989:10003   */\n      gt\n        /* \"#utility.yul\":9986:10020   */\n      iszero\n      tag_223\n      jumpi\n        /* \"#utility.yul\":10016:10017   */\n      0x00\n        /* \"#utility.yul\":10013:10014   */\n      dup1\n        /* \"#utility.yul\":10006:10018   */\n      revert\n        /* \"#utility.yul\":9986:10020   */\n    tag_223:\n        /* \"#utility.yul\":10039:10061   */\n      swap1\n      dup4\n      add\n      swap1\n        /* \"#utility.yul\":10095:10099   */\n      0xa0\n        /* \"#utility.yul\":10077:10093   */\n      dup3\n      dup7\n      sub\n        /* \"#utility.yul\":10073:10100   */\n      slt\n        /* \"#utility.yul\":10070:10117   */\n      iszero\n      tag_224\n      jumpi\n        /* \"#utility.yul\":10113:10114   */\n      0x00\n        /* \"#utility.yul\":10110:10111   */\n      dup1\n        /* \"#utility.yul\":10103:10115   */\n      revert\n        /* \"#utility.yul\":10070:10117   */\n    tag_224:\n        /* \"#utility.yul\":10139:10161   */\n      tag_225\n      tag_140\n      jump\t// in\n    tag_225:\n        /* \"#utility.yul\":10190:10192   */\n      dup3\n        /* \"#utility.yul\":10184:10193   */\n      mload\n        /* \"#utility.yul\":10177:10182   */\n      dup2\n        /* \"#utility.yul\":10170:10194   */\n      mstore\n        /* \"#utility.yul\":10232:10234   */\n      0x20\n        /* \"#utility.yul\":10228:10230   */\n      dup4\n        /* \"#utility.yul\":10224:10235   */\n      add\n        /* \"#utility.yul\":10218:10236   */\n      mload\n        /* \"#utility.yul\":10280:10282   */\n      dup3\n        /* \"#utility.yul\":10271:10278   */\n      dup2\n        /* \"#utility.yul\":10267:10283   */\n      and\n        /* \"#utility.yul\":10258:10265   */\n      dup2\n        /* \"#utility.yul\":10255:10284   */\n      eq\n        /* \"#utility.yul\":10245:10302   */\n      tag_226\n      jumpi\n        /* \"#utility.yul\":10298:10299   */\n      0x00\n        /* \"#utility.yul\":10295:10296   */\n      dup1\n        /* \"#utility.yul\":10288:10300   */\n      revert\n        /* \"#utility.yul\":10245:10302   */\n    tag_226:\n        /* \"#utility.yul\":10329:10331   */\n      0x20\n        /* \"#utility.yul\":10318:10332   */\n      dup3\n      add\n        /* \"#utility.yul\":10311:10342   */\n      mstore\n        /* \"#utility.yul\":10380:10382   */\n      0x40\n        /* \"#utility.yul\":10372:10383   */\n      dup4\n      add\n        /* \"#utility.yul\":10366:10384   */\n      mload\n        /* \"#utility.yul\":10393:10426   */\n      tag_227\n        /* \"#utility.yul\":10366:10384   */\n      dup2\n        /* \"#utility.yul\":10393:10426   */\n      tag_141\n      jump\t// in\n    tag_227:\n        /* \"#utility.yul\":10453:10455   */\n      0x40\n        /* \"#utility.yul\":10442:10456   */\n      dup3\n      add\n        /* \"#utility.yul\":10435:10466   */\n      mstore\n        /* \"#utility.yul\":10505:10507   */\n      0x60\n        /* \"#utility.yul\":10497:10508   */\n      dup4\n      add\n        /* \"#utility.yul\":10491:10509   */\n      mload\n        /* \"#utility.yul\":10521:10537   */\n      dup3\n      dup2\n      gt\n        /* \"#utility.yul\":10518:10554   */\n      iszero\n      tag_228\n      jumpi\n        /* \"#utility.yul\":10550:10551   */\n      0x00\n        /* \"#utility.yul\":10547:10548   */\n      dup1\n        /* \"#utility.yul\":10540:10552   */\n      revert\n        /* \"#utility.yul\":10518:10554   */\n    tag_228:\n        /* \"#utility.yul\":10586:10653   */\n      tag_229\n        /* \"#utility.yul\":10645:10652   */\n      dup8\n        /* \"#utility.yul\":10634:10642   */\n      dup3\n        /* \"#utility.yul\":10630:10632   */\n      dup7\n        /* \"#utility.yul\":10626:10643   */\n      add\n        /* \"#utility.yul\":10586:10653   */\n      tag_145\n      jump\t// in\n    tag_229:\n        /* \"#utility.yul\":10581:10583   */\n      0x60\n        /* \"#utility.yul\":10574:10579   */\n      dup4\n        /* \"#utility.yul\":10570:10584   */\n      add\n        /* \"#utility.yul\":10563:10654   */\n      mstore\n      pop\n        /* \"#utility.yul\":10687:10730   */\n      tag_230\n        /* \"#utility.yul\":10725:10728   */\n      0x80\n        /* \"#utility.yul\":10721:10723   */\n      dup5\n        /* \"#utility.yul\":10717:10729   */\n      add\n        /* \"#utility.yul\":10687:10730   */\n      tag_143\n      jump\t// in\n    tag_230:\n        /* \"#utility.yul\":10681:10684   */\n      0x80\n        /* \"#utility.yul\":10670:10685   */\n      dup3\n      add\n        /* \"#utility.yul\":10663:10731   */\n      mstore\n        /* \"#utility.yul\":10674:10679   */\n      swap6\n        /* \"#utility.yul\":9724:10761   */\n      swap5\n      pop\n      pop\n      pop\n      pop\n      pop\n      jump\t// out\n        /* \"#utility.yul\":10974:12578   */\n    tag_105:\n        /* \"#utility.yul\":11152:11156   */\n      0x00\n        /* \"#utility.yul\":11181:11183   */\n      0x40\n        /* \"#utility.yul\":11222:11240   */\n      0xffffffffffffffff\n        /* \"#utility.yul\":11214:11220   */\n      dup6\n        /* \"#utility.yul\":11210:11241   */\n      and\n        /* \"#utility.yul\":11199:11208   */\n      dup4\n        /* \"#utility.yul\":11192:11242   */\n      mstore\n        /* \"#utility.yul\":11261:11263   */\n      0x20\n        /* \"#utility.yul\":11299:11301   */\n      0x40\n        /* \"#utility.yul\":11294:11296   */\n      dup2\n        /* \"#utility.yul\":11283:11292   */\n      dup6\n        /* \"#utility.yul\":11279:11297   */\n      add\n        /* \"#utility.yul\":11272:11302   */\n      mstore\n        /* \"#utility.yul\":11337:11343   */\n      dup5\n        /* \"#utility.yul\":11331:11344   */\n      mload\n        /* \"#utility.yul\":11380:11384   */\n      0xa0\n        /* \"#utility.yul\":11375:11377   */\n      0x40\n        /* \"#utility.yul\":11364:11373   */\n      dup7\n        /* \"#utility.yul\":11360:11378   */\n      add\n        /* \"#utility.yul\":11353:11385   */\n      mstore\n        /* \"#utility.yul\":11408:11460   */\n      tag_233\n        /* \"#utility.yul\":11455:11458   */\n      0xe0\n        /* \"#utility.yul\":11444:11453   */\n      dup7\n        /* \"#utility.yul\":11440:11459   */\n      add\n        /* \"#utility.yul\":11426:11438   */\n      dup3\n        /* \"#utility.yul\":11408:11460   */\n      tag_136\n      jump\t// in\n    tag_233:\n        /* \"#utility.yul\":11394:11460   */\n      swap1\n      pop\n        /* \"#utility.yul\":11509:11511   */\n      dup2\n        /* \"#utility.yul\":11501:11507   */\n      dup7\n        /* \"#utility.yul\":11497:11512   */\n      add\n        /* \"#utility.yul\":11491:11513   */\n      mload\n        /* \"#utility.yul\":11536:11538   */\n      0x3f\n        /* \"#utility.yul\":11532:11539   */\n      not\n        /* \"#utility.yul\":11603:11605   */\n      dup1\n        /* \"#utility.yul\":11591:11600   */\n      dup8\n        /* \"#utility.yul\":11583:11589   */\n      dup5\n        /* \"#utility.yul\":11579:11601   */\n      sub\n        /* \"#utility.yul\":11575:11606   */\n      add\n        /* \"#utility.yul\":11570:11572   */\n      0x60\n        /* \"#utility.yul\":11559:11568   */\n      dup9\n        /* \"#utility.yul\":11555:11573   */\n      add\n        /* \"#utility.yul\":11548:11607   */\n      mstore\n        /* \"#utility.yul\":11630:11671   */\n      tag_234\n        /* \"#utility.yul\":11664:11670   */\n      dup4\n        /* \"#utility.yul\":11648:11662   */\n      dup4\n        /* \"#utility.yul\":11630:11671   */\n      tag_136\n      jump\t// in\n    tag_234:\n        /* \"#utility.yul\":11720:11722   */\n      0x40\n        /* \"#utility.yul\":11708:11723   */\n      dup10\n      add\n        /* \"#utility.yul\":11702:11724   */\n      mload\n        /* \"#utility.yul\":11765:11787   */\n      dup9\n      dup3\n      sub\n        /* \"#utility.yul\":11761:11792   */\n      dup4\n      add\n        /* \"#utility.yul\":11755:11758   */\n      0x80\n        /* \"#utility.yul\":11740:11759   */\n      dup11\n      add\n        /* \"#utility.yul\":11733:11793   */\n      mstore\n        /* \"#utility.yul\":11842:11863   */\n      dup1\n      mload\n        /* \"#utility.yul\":11872:11894   */\n      dup1\n      dup4\n      mstore\n        /* \"#utility.yul\":11948:11971   */\n      swap1\n      dup7\n      add\n      swap5\n      pop\n        /* \"#utility.yul\":11989:11990   */\n      0x00\n      swap4\n      pop\n        /* \"#utility.yul\":11910:11925   */\n      swap1\n      dup6\n      add\n      swap1\n        /* \"#utility.yul\":11999:12279   */\n    tag_235:\n        /* \"#utility.yul\":12013:12019   */\n      dup1\n        /* \"#utility.yul\":12010:12011   */\n      dup5\n        /* \"#utility.yul\":12007:12020   */\n      lt\n        /* \"#utility.yul\":11999:12279   */\n      iszero\n      tag_237\n      jumpi\n        /* \"#utility.yul\":12072:12085   */\n      dup5\n      mload\n        /* \"#utility.yul\":12114:12123   */\n      dup1\n      mload\n      sub(shl(0xa0, 0x01), 0x01)\n        /* \"#utility.yul\":12110:12145   */\n      and\n        /* \"#utility.yul\":12098:12146   */\n      dup4\n      mstore\n        /* \"#utility.yul\":12186:12197   */\n      dup7\n      add\n        /* \"#utility.yul\":12180:12198   */\n      mload\n        /* \"#utility.yul\":12166:12178   */\n      dup7\n      dup4\n      add\n        /* \"#utility.yul\":12159:12199   */\n      mstore\n        /* \"#utility.yul\":12254:12269   */\n      swap4\n      dup6\n      add\n      swap4\n        /* \"#utility.yul\":12142:12143   */\n      0x01\n        /* \"#utility.yul\":12028:12037   */\n      swap4\n      swap1\n      swap4\n      add\n      swap3\n        /* \"#utility.yul\":12219:12231   */\n      swap1\n      dup7\n      add\n      swap1\n        /* \"#utility.yul\":11999:12279   */\n      jump(tag_235)\n    tag_237:\n      pop\n        /* \"#utility.yul\":12328:12330   */\n      0x60\n        /* \"#utility.yul\":12316:12331   */\n      dup10\n      add\n        /* \"#utility.yul\":12310:12332   */\n      mload\n      sub(shl(0xa0, 0x01), 0x01)\n        /* \"#utility.yul\":1737:1768   */\n      and\n        /* \"#utility.yul\":12391:12395   */\n      0xa0\n        /* \"#utility.yul\":12376:12396   */\n      dup10\n      add\n        /* \"#utility.yul\":1725:1769   */\n      mstore\n        /* \"#utility.yul\":12446:12449   */\n      0x80\n        /* \"#utility.yul\":12434:12450   */\n      dup10\n      add\n        /* \"#utility.yul\":12428:12451   */\n      mload\n        /* \"#utility.yul\":12492:12511   */\n      dup9\n      dup3\n      sub\n        /* \"#utility.yul\":12488:12516   */\n      dup4\n      add\n        /* \"#utility.yul\":12482:12485   */\n      0xc0\n        /* \"#utility.yul\":12467:12486   */\n      dup11\n      add\n        /* \"#utility.yul\":12460:12517   */\n      mstore\n        /* \"#utility.yul\":12428:12451   */\n      swap6\n      pop\n        /* \"#utility.yul\":12534:12572   */\n      tag_239\n        /* \"#utility.yul\":12496:12499   */\n      dup2\n        /* \"#utility.yul\":12428:12451   */\n      dup8\n        /* \"#utility.yul\":12534:12572   */\n      tag_136\n      jump\t// in\n    tag_239:\n        /* \"#utility.yul\":12526:12572   */\n      swap11\n        /* \"#utility.yul\":10974:12578   */\n      swap10\n      pop\n      pop\n      pop\n      pop\n      pop\n      pop\n      pop\n      pop\n      pop\n      pop\n      jump\t// out\n        /* \"#utility.yul\":12583:12767   */\n    tag_109:\n        /* \"#utility.yul\":12653:12659   */\n      0x00\n        /* \"#utility.yul\":12706:12708   */\n      0x20\n        /* \"#utility.yul\":12694:12703   */\n      dup3\n        /* \"#utility.yul\":12685:12692   */\n      dup5\n        /* \"#utility.yul\":12681:12704   */\n      sub\n        /* \"#utility.yul\":12677:12709   */\n      slt\n        /* \"#utility.yul\":12674:12726   */\n      iszero\n      tag_241\n      jumpi\n        /* \"#utility.yul\":12722:12723   */\n      0x00\n        /* \"#utility.yul\":12719:12720   */\n      dup1\n        /* \"#utility.yul\":12712:12724   */\n      revert\n        /* \"#utility.yul\":12674:12726   */\n    tag_241:\n      pop\n        /* \"#utility.yul\":12745:12761   */\n      mload\n      swap2\n        /* \"#utility.yul\":12583:12767   */\n      swap1\n      pop\n      jump\t// out\n        /* \"#utility.yul\":12961:13193   */\n    tag_130:\n        /* \"#utility.yul\":13000:13003   */\n      0x00\n        /* \"#utility.yul\":13021:13038   */\n      0x01\n      dup3\n      add\n        /* \"#utility.yul\":13018:13158   */\n      tag_245\n      jumpi\n        /* \"#utility.yul\":13080:13090   */\n      0x4e487b71\n        /* \"#utility.yul\":13075:13078   */\n      0xe0\n        /* \"#utility.yul\":13071:13091   */\n      shl\n        /* \"#utility.yul\":13068:13069   */\n      0x00\n        /* \"#utility.yul\":13061:13092   */\n      mstore\n        /* \"#utility.yul\":13115:13119   */\n      0x11\n        /* \"#utility.yul\":13112:13113   */\n      0x04\n        /* \"#utility.yul\":13105:13120   */\n      mstore\n        /* \"#utility.yul\":13143:13147   */\n      0x24\n        /* \"#utility.yul\":13140:13141   */\n      0x00\n        /* \"#utility.yul\":13133:13148   */\n      revert\n        /* \"#utility.yul\":13018:13158   */\n    tag_245:\n      pop\n        /* \"#utility.yul\":13185:13186   */\n      0x01\n        /* \"#utility.yul\":13174:13187   */\n      add\n      swap1\n        /* \"#utility.yul\":12961:13193   */\n      jump\t// out\n\n    auxdata: 0xa26469706673582212206b48c45530f258ae5d7ce28f4b578d39f926e81340d252284e523c3d4801cc2664736f6c63430008170033\n}\n",
				"bytecode": {
					"linkReferences": {},
					"object": "60a060405234801561001057600080fd5b506040516200138c3803806200138c8339810160408190526100319161010b565b600080546001600160a01b0319166001600160a01b03831690811790915560408051808201825260208082527f52455345525645445f434841494e4c494e4b5f524f555445525f434c49454e5490820152905163bf40fac160e01b815263bf40fac1916100a09160040161013b565b602060405180830381865afa1580156100bd573d6000803e3d6000fd5b505050506040513d601f19601f820116820180604052508101906100e1919061010b565b600180546001600160a01b0319166001600160a01b0392909216919091179055503060805261018a565b60006020828403121561011d57600080fd5b81516001600160a01b038116811461013457600080fd5b9392505050565b60006020808352835180602085015260005b818110156101695785810183015185820160400152820161014d565b506000604082860101526040601f19601f8301168501019250505092915050565b6080516111e6620001a6600039600061048101526111e66000f3fe608060405234801561001057600080fd5b506004361061007d5760003560e01c80636fac704c1161005b5780636fac704c146100e05780637e13289f146101da57806398e3a7c6146101ed578063cde4c10c146102c457600080fd5b80630d8e6e2c1461008257806317d7de7c146100985780631bb05e71146100cb575b600080fd5b60015b6040519081526020015b60405180910390f35b60408051808201825260118152702922a9a2a92b22a22fa6afa9a2a72222a960791b6020820152905161008f9190610ba8565b6100d36102dc565b60405161008f9190610bc2565b6101cd6100ee366004610c06565b604080516101408101825260006080820181815260a0830182905260c0830182905260e083018290526101008301829052610120830182905282526020820181905291810182905260608101919091525060009081526003602081815260409283902083516101408101855281546001600160a01b0390811660808301908152600184015460a0840152600284015460c08401529483015460e083015260048301548116610100830152600583015461012083015293815260068201549281019290925260078101549382019390935260089092015416606082015290565b60405161008f9190610c64565b6100856101e8366004610d2f565b61041b565b61027e6101fb366004610c06565b6040805160a08101825260008082526020820181905291810182905260608101829052608081019190915250600090815260056020908152604091829020825160a0810184528154815260018201549281019290925260028101546001600160a01b03169282019290925260038201546060820152600490910154608082015290565b60405161008f919081518152602080830151908201526040808301516001600160a01b031690820152606080830151908201526080918201519181019190915260a00190565b6102cc6109da565b604051901515815260200161008f565b600054604080518082018252601081526f2922a9a2a92b22a22fa6afa0a226a4a760811b6020820152905163bf40fac160e01b81526060926001600160a01b03169163bf40fac1916103319190600401610ba8565b602060405180830381865afa15801561034e573d6000803e3d6000fd5b505050506040513d601f19601f820116820180604052508101906103729190610de8565b6001600160a01b0316336001600160a01b0316146103c55760405162461bcd60e51b815260206004820152600c60248201526b01030b236b4b71037b7363c960a51b604482015260640160405180910390fd5b600280548060200260200160405190810160405280929190818152602001828054801561041157602002820191906000526020600020905b8154815260200190600101908083116103fd575b5050505050905090565b6000610425610b48565b600280546001810182556000919091527f405787fa12a823e0f2b7631cc41b3ba8828b3321ca811111fa75cd3aa3bb5ace01819055608086015160a08701516040516323b872dd60e01b81523360048201526001600160a01b037f00000000000000000000000000000000000000000000000000000000000000008116602483015260448201929092529293509091908216906323b872dd90606401600060405180830381600087803b1580156104db57600080fd5b505af11580156104ef573d6000803e3d6000fd5b50505050608086015160a087015160405163296c6b0360e01b815260048101919091526001600160a01b0382169063296c6b0390602401602060405180830381865afa158015610543573d6000803e3d6000fd5b505050506040513d601f19601f820116820180604052508101906105679190610e05565b6105e157604051637d9cd05360e11b81526001600160a01b0382169063fb39a0a690610597908a90600401610e27565b610120604051808303816000875af11580156105b7573d6000803e3d6000fd5b505050506040513d601f19601f820116820180604052508101906105db9190610ea9565b50610654565b60a087015160405163dcc4df7360e01b815260048101919091526001600160a01b0382169063dcc4df739060240160c0604051808303816000875af115801561062e573d6000803e3d6000fd5b505050506040513d601f19601f820116820180604052508101906106529190610f1d565b505b60408051608081018252888152602081018790528082018690526001600160a01b0388811660608301526000805493516367513e1b60e11b8152600481018d90529293909291169063cea27c3690602401600060405180830381865afa1580156106c2573d6000803e3d6000fd5b505050506040513d6000823e601f3d908101601f191682016040526106ea9190810190610fe0565b6040805160a0810190915260808201516001600160a01b031660c08201529091506000908060e081016040516020818303038152906040528152602001846040516020016107389190610c64565b60408051601f198184030181529190528152602001600060405190808252806020026020018201604052801561079457816020015b604080518082019091526000808252602082015281526020019060019003908161076d5790505b50815260200160006001600160a01b031681526020016107fc604051806020016040528062061a8081525060408051915160248084019190915281518084039091018152604490920190526020810180516001600160e01b03166397a657c960e01b17905290565b905260015460208401516040516320487ded60e01b81529293506000926001600160a01b03909216916320487ded91610839918690600401611093565b602060405180830381865afa158015610856573d6000803e3d6000fd5b505050506040513d601f19601f8201168201806040525081019061087a9190611170565b60015460208501516040516396f4e9f960e01b81529293506000926001600160a01b03909216916396f4e9f99185916108b891908890600401611093565b60206040518083038185885af11580156108d6573d6000803e3d6000fd5b50505050506040513d601f19601f820116820180604052508101906108fb9190611170565b6000898152600460208181526040808420859055805160a0810182528d815280830197885273eeeeeeeeeeeeeeeeeeeeeeeeeeeeeeeeeeeeeeee8183019081524260608301908152608083019788528f875260059094529185209051815596516001808901919091559051600280890180546001600160a01b0319166001600160a01b039093169290921790915591516003880155935195909101949094558354918201845592909252507f405787fa12a823e0f2b7631cc41b3ba8828b3321ca811111fa75cd3aa3bb5ace0186905550939998505050505050505050565b6000805460408051808201825260138152722922a9a2a92b22a22fa6afa922a3a4a9aa22a960691b6020820152905163bf40fac160e01b81526001600160a01b039092169163bf40fac191610a3191600401610ba8565b602060405180830381865afa158015610a4e573d6000803e3d6000fd5b505050506040513d601f19601f82011682018060405250810190610a729190610de8565b600080546001600160a01b0319166001600160a01b0392909216918217905560408051808201825260208082527f52455345525645445f434841494e4c494e4b5f524f555445525f434c49454e5490820152905163bf40fac160e01b815263bf40fac191610ae291600401610ba8565b602060405180830381865afa158015610aff573d6000803e3d6000fd5b505050506040513d601f19601f82011682018060405250810190610b239190610de8565b600180546001600160a01b0319166001600160a01b0392909216919091178155919050565b6006805460009182610b5983611189565b91905055905090565b6000815180845260005b81811015610b8857602081850181015186830182015201610b6c565b506000602082860101526020601f19601f83011685010191505092915050565b602081526000610bbb6020830184610b62565b9392505050565b6020808252825182820181905260009190848201906040850190845b81811015610bfa57835183529284019291840191600101610bde565b50909695505050505050565b600060208284031215610c1857600080fd5b5035919050565b80516001600160a01b0390811683526020808301519084015260408083015190840152606080830151908401526080808301519091169083015260a090810151910152565b600061012082019050610c78828451610c1f565b602083015160c0830152604083015160e08301526060909201516001600160a01b03166101009091015290565b634e487b7160e01b600052604160045260246000fd5b60405160c0810167ffffffffffffffff81118282101715610cde57610cde610ca5565b60405290565b60405160a0810167ffffffffffffffff81118282101715610cde57610cde610ca5565b6001600160a01b0381168114610d1c57600080fd5b50565b8035610d2a81610d07565b919050565b6000806000806000858703610140811215610d4957600080fd5b8635955060c0601f1982011215610d5f57600080fd5b50610d68610cbb565b6020870135610d7681610d07565b8082525060408701356020820152606087013560408201526080870135606082015260a0870135610da681610d07565b608082015260c087013560a08201529350610dc360e08701610d1f565b949793965093946101008101359450610120013592915050565b8051610d2a81610d07565b600060208284031215610dfa57600080fd5b8151610bbb81610d07565b600060208284031215610e1757600080fd5b81518015158114610bbb57600080fd5b60c08101610e358284610c1f565b92915050565b600060c08284031215610e4d57600080fd5b610e55610cbb565b90508151610e6281610d07565b808252506020820151602082015260408201516040820152606082015160608201526080820151610e9281610d07565b8060808301525060a082015160a082015292915050565b60006101208284031215610ebc57600080fd5b6040516080810181811067ffffffffffffffff82111715610edf57610edf610ca5565b604052610eec8484610e3b565b815260c0830151602082015260e08301516040820152610100830151610f1181610d07565b60608201529392505050565b600060c08284031215610f2f57600080fd5b610bbb8383610e3b565b600082601f830112610f4a57600080fd5b8151602067ffffffffffffffff80831115610f6757610f67610ca5565b8260051b604051601f19603f83011681018181108482111715610f8c57610f8c610ca5565b6040529384526020818701810194908101925087851115610fac57600080fd5b6020870191505b84821015610fd5578151610fc681610d07565b83529183019190830190610fb3565b979650505050505050565b600060208284031215610ff257600080fd5b815167ffffffffffffffff8082111561100a57600080fd5b9083019060a0828603121561101e57600080fd5b611026610ce4565b825181526020830151828116811461103d57600080fd5b6020820152604083015161105081610d07565b604082015260608301518281111561106757600080fd5b61107387828601610f39565b60608301525061108560808401610ddd565b608082015295945050505050565b6000604067ffffffffffffffff851683526020604081850152845160a060408601526110c260e0860182610b62565b905081860151603f19808784030160608801526110df8383610b62565b6040890151888203830160808a01528051808352908601945060009350908501905b8084101561113357845180516001600160a01b0316835286015186830152938501936001939093019290860190611101565b5060608901516001600160a01b031660a08901526080890151888203830160c08a015295506111628187610b62565b9a9950505050505050505050565b60006020828403121561118257600080fd5b5051919050565b6000600182016111a957634e487b7160e01b600052601160045260246000fd5b506001019056fea26469706673582212206b48c45530f258ae5d7ce28f4b578d39f926e81340d252284e523c3d4801cc2664736f6c63430008170033",
					"opcodes": "PUSH1 0xA0 PUSH1 0x40 MSTORE CALLVALUE DUP1 ISZERO PUSH2 0x10 JUMPI PUSH1 0x0 DUP1 REVERT JUMPDEST POP PUSH1 0x40 MLOAD PUSH3 0x138C CODESIZE SUB DUP1 PUSH3 0x138C DUP4 CODECOPY DUP2 ADD PUSH1 0x40 DUP2 SWAP1 MSTORE PUSH2 0x31 SWAP2 PUSH2 0x10B JUMP JUMPDEST PUSH1 0x0 DUP1 SLOAD PUSH1 0x1 PUSH1 0x1 PUSH1 0xA0 SHL SUB NOT AND PUSH1 0x1 PUSH1 0x1 PUSH1 0xA0 SHL SUB DUP4 AND SWAP1 DUP2 OR SWAP1 SWAP2 SSTORE PUSH1 0x40 DUP1 MLOAD DUP1 DUP3 ADD DUP3 MSTORE PUSH1 0x20 DUP1 DUP3 MSTORE PUSH32 0x52455345525645445F434841494E4C494E4B5F524F555445525F434C49454E54 SWAP1 DUP3 ADD MSTORE SWAP1 MLOAD PUSH4 0xBF40FAC1 PUSH1 0xE0 SHL DUP2 MSTORE PUSH4 0xBF40FAC1 SWAP2 PUSH2 0xA0 SWAP2 PUSH1 0x4 ADD PUSH2 0x13B JUMP JUMPDEST PUSH1 0x20 PUSH1 0x40 MLOAD DUP1 DUP4 SUB DUP2 DUP7 GAS STATICCALL ISZERO DUP1 ISZERO PUSH2 0xBD JUMPI RETURNDATASIZE PUSH1 0x0 DUP1 RETURNDATACOPY RETURNDATASIZE PUSH1 0x0 REVERT JUMPDEST POP POP POP POP PUSH1 0x40 MLOAD RETURNDATASIZE PUSH1 0x1F NOT PUSH1 0x1F DUP3 ADD AND DUP3 ADD DUP1 PUSH1 0x40 MSTORE POP DUP2 ADD SWAP1 PUSH2 0xE1 SWAP2 SWAP1 PUSH2 0x10B JUMP JUMPDEST PUSH1 0x1 DUP1 SLOAD PUSH1 0x1 PUSH1 0x1 PUSH1 0xA0 SHL SUB NOT AND PUSH1 0x1 PUSH1 0x1 PUSH1 0xA0 SHL SUB SWAP3 SWAP1 SWAP3 AND SWAP2 SWAP1 SWAP2 OR SWAP1 SSTORE POP ADDRESS PUSH1 0x80 MSTORE PUSH2 0x18A JUMP JUMPDEST PUSH1 0x0 PUSH1 0x20 DUP3 DUP5 SUB SLT ISZERO PUSH2 0x11D JUMPI PUSH1 0x0 DUP1 REVERT JUMPDEST DUP2 MLOAD PUSH1 0x1 PUSH1 0x1 PUSH1 0xA0 SHL SUB DUP2 AND DUP2 EQ PUSH2 0x134 JUMPI PUSH1 0x0 DUP1 REVERT JUMPDEST SWAP4 SWAP3 POP POP POP JUMP JUMPDEST PUSH1 0x0 PUSH1 0x20 DUP1 DUP4 MSTORE DUP4 MLOAD DUP1 PUSH1 0x20 DUP6 ADD MSTORE PUSH1 0x0 JUMPDEST DUP2 DUP2 LT ISZERO PUSH2 0x169 JUMPI DUP6 DUP2 ADD DUP4 ADD MLOAD DUP6 DUP3 ADD PUSH1 0x40 ADD MSTORE DUP3 ADD PUSH2 0x14D JUMP JUMPDEST POP PUSH1 0x0 PUSH1 0x40 DUP3 DUP7 ADD ADD MSTORE PUSH1 0x40 PUSH1 0x1F NOT PUSH1 0x1F DUP4 ADD AND DUP6 ADD ADD SWAP3 POP POP POP SWAP3 SWAP2 POP POP JUMP JUMPDEST PUSH1 0x80 MLOAD PUSH2 0x11E6 PUSH3 0x1A6 PUSH1 0x0 CODECOPY PUSH1 0x0 PUSH2 0x481 ADD MSTORE PUSH2 0x11E6 PUSH1 0x0 RETURN INVALID PUSH1 0x80 PUSH1 0x40 MSTORE CALLVALUE DUP1 ISZERO PUSH2 0x10 JUMPI PUSH1 0x0 DUP1 REVERT JUMPDEST POP PUSH1 0x4 CALLDATASIZE LT PUSH2 0x7D JUMPI PUSH1 0x0 CALLDATALOAD PUSH1 0xE0 SHR DUP1 PUSH4 0x6FAC704C GT PUSH2 0x5B JUMPI DUP1 PUSH4 0x6FAC704C EQ PUSH2 0xE0 JUMPI DUP1 PUSH4 0x7E13289F EQ PUSH2 0x1DA JUMPI DUP1 PUSH4 0x98E3A7C6 EQ PUSH2 0x1ED JUMPI DUP1 PUSH4 0xCDE4C10C EQ PUSH2 0x2C4 JUMPI PUSH1 0x0 DUP1 REVERT JUMPDEST DUP1 PUSH4 0xD8E6E2C EQ PUSH2 0x82 JUMPI DUP1 PUSH4 0x17D7DE7C EQ PUSH2 0x98 JUMPI DUP1 PUSH4 0x1BB05E71 EQ PUSH2 0xCB JUMPI JUMPDEST PUSH1 0x0 DUP1 REVERT JUMPDEST PUSH1 0x1 JUMPDEST PUSH1 0x40 MLOAD SWAP1 DUP2 MSTORE PUSH1 0x20 ADD JUMPDEST PUSH1 0x40 MLOAD DUP1 SWAP2 SUB SWAP1 RETURN JUMPDEST PUSH1 0x40 DUP1 MLOAD DUP1 DUP3 ADD DUP3 MSTORE PUSH1 0x11 DUP2 MSTORE PUSH17 0x2922A9A2A92B22A22FA6AFA9A2A72222A9 PUSH1 0x79 SHL PUSH1 0x20 DUP3 ADD MSTORE SWAP1 MLOAD PUSH2 0x8F SWAP2 SWAP1 PUSH2 0xBA8 JUMP JUMPDEST PUSH2 0xD3 PUSH2 0x2DC JUMP JUMPDEST PUSH1 0x40 MLOAD PUSH2 0x8F SWAP2 SWAP1 PUSH2 0xBC2 JUMP JUMPDEST PUSH2 0x1CD PUSH2 0xEE CALLDATASIZE PUSH1 0x4 PUSH2 0xC06 JUMP JUMPDEST PUSH1 0x40 DUP1 MLOAD PUSH2 0x140 DUP2 ADD DUP3 MSTORE PUSH1 0x0 PUSH1 0x80 DUP3 ADD DUP2 DUP2 MSTORE PUSH1 0xA0 DUP4 ADD DUP3 SWAP1 MSTORE PUSH1 0xC0 DUP4 ADD DUP3 SWAP1 MSTORE PUSH1 0xE0 DUP4 ADD DUP3 SWAP1 MSTORE PUSH2 0x100 DUP4 ADD DUP3 SWAP1 MSTORE PUSH2 0x120 DUP4 ADD DUP3 SWAP1 MSTORE DUP3 MSTORE PUSH1 0x20 DUP3 ADD DUP2 SWAP1 MSTORE SWAP2 DUP2 ADD DUP3 SWAP1 MSTORE PUSH1 0x60 DUP2 ADD SWAP2 SWAP1 SWAP2 MSTORE POP PUSH1 0x0 SWAP1 DUP2 MSTORE PUSH1 0x3 PUSH1 0x20 DUP2 DUP2 MSTORE PUSH1 0x40 SWAP3 DUP4 SWAP1 KECCAK256 DUP4 MLOAD PUSH2 0x140 DUP2 ADD DUP6 MSTORE DUP2 SLOAD PUSH1 0x1 PUSH1 0x1 PUSH1 0xA0 SHL SUB SWAP1 DUP2 AND PUSH1 0x80 DUP4 ADD SWAP1 DUP2 MSTORE PUSH1 0x1 DUP5 ADD SLOAD PUSH1 0xA0 DUP5 ADD MSTORE PUSH1 0x2 DUP5 ADD SLOAD PUSH1 0xC0 DUP5 ADD MSTORE SWAP5 DUP4 ADD SLOAD PUSH1 0xE0 DUP4 ADD MSTORE PUSH1 0x4 DUP4 ADD SLOAD DUP2 AND PUSH2 0x100 DUP4 ADD MSTORE PUSH1 0x5 DUP4 ADD SLOAD PUSH2 0x120 DUP4 ADD MSTORE SWAP4 DUP2 MSTORE PUSH1 0x6 DUP3 ADD SLOAD SWAP3 DUP2 ADD SWAP3 SWAP1 SWAP3 MSTORE PUSH1 0x7 DUP2 ADD SLOAD SWAP4 DUP3 ADD SWAP4 SWAP1 SWAP4 MSTORE PUSH1 0x8 SWAP1 SWAP3 ADD SLOAD AND PUSH1 0x60 DUP3 ADD MSTORE SWAP1 JUMP JUMPDEST PUSH1 0x40 MLOAD PUSH2 0x8F SWAP2 SWAP1 PUSH2 0xC64 JUMP JUMPDEST PUSH2 0x85 PUSH2 0x1E8 CALLDATASIZE PUSH1 0x4 PUSH2 0xD2F JUMP JUMPDEST PUSH2 0x41B JUMP JUMPDEST PUSH2 0x27E PUSH2 0x1FB CALLDATASIZE PUSH1 0x4 PUSH2 0xC06 JUMP JUMPDEST PUSH1 0x40 DUP1 MLOAD PUSH1 0xA0 DUP2 ADD DUP3 MSTORE PUSH1 0x0 DUP1 DUP3 MSTORE PUSH1 0x20 DUP3 ADD DUP2 SWAP1 MSTORE SWAP2 DUP2 ADD DUP3 SWAP1 MSTORE PUSH1 0x60 DUP2 ADD DUP3 SWAP1 MSTORE PUSH1 0x80 DUP2 ADD SWAP2 SWAP1 SWAP2 MSTORE POP PUSH1 0x0 SWAP1 DUP2 MSTORE PUSH1 0x5 PUSH1 0x20 SWAP1 DUP2 MSTORE PUSH1 0x40 SWAP2 DUP3 SWAP1 KECCAK256 DUP3 MLOAD PUSH1 0xA0 DUP2 ADD DUP5 MSTORE DUP2 SLOAD DUP2 MSTORE PUSH1 0x1 DUP3 ADD SLOAD SWAP3 DUP2 ADD SWAP3 SWAP1 SWAP3 MSTORE PUSH1 0x2 DUP2 ADD SLOAD PUSH1 0x1 PUSH1 0x1 PUSH1 0xA0 SHL SUB AND SWAP3 DUP3 ADD SWAP3 SWAP1 SWAP3 MSTORE PUSH1 0x3 DUP3 ADD SLOAD PUSH1 0x60 DUP3 ADD MSTORE PUSH1 0x4 SWAP1 SWAP2 ADD SLOAD PUSH1 0x80 DUP3 ADD MSTORE SWAP1 JUMP JUMPDEST PUSH1 0x40 MLOAD PUSH2 0x8F SWAP2 SWAP1 DUP2 MLOAD DUP2 MSTORE PUSH1 0x20 DUP1 DUP4 ADD MLOAD SWAP1 DUP3 ADD MSTORE PUSH1 0x40 DUP1 DUP4 ADD MLOAD PUSH1 0x1 PUSH1 0x1 PUSH1 0xA0 SHL SUB AND SWAP1 DUP3 ADD MSTORE PUSH1 0x60 DUP1 DUP4 ADD MLOAD SWAP1 DUP3 ADD MSTORE PUSH1 0x80 SWAP2 DUP3 ADD MLOAD SWAP2 DUP2 ADD SWAP2 SWAP1 SWAP2 MSTORE PUSH1 0xA0 ADD SWAP1 JUMP JUMPDEST PUSH2 0x2CC PUSH2 0x9DA JUMP JUMPDEST PUSH1 0x40 MLOAD SWAP1 ISZERO ISZERO DUP2 MSTORE PUSH1 0x20 ADD PUSH2 0x8F JUMP JUMPDEST PUSH1 0x0 SLOAD PUSH1 0x40 DUP1 MLOAD DUP1 DUP3 ADD DUP3 MSTORE PUSH1 0x10 DUP2 MSTORE PUSH16 0x2922A9A2A92B22A22FA6AFA0A226A4A7 PUSH1 0x81 SHL PUSH1 0x20 DUP3 ADD MSTORE SWAP1 MLOAD PUSH4 0xBF40FAC1 PUSH1 0xE0 SHL DUP2 MSTORE PUSH1 0x60 SWAP3 PUSH1 0x1 PUSH1 0x1 PUSH1 0xA0 SHL SUB AND SWAP2 PUSH4 0xBF40FAC1 SWAP2 PUSH2 0x331 SWAP2 SWAP1 PUSH1 0x4 ADD PUSH2 0xBA8 JUMP JUMPDEST PUSH1 0x20 PUSH1 0x40 MLOAD DUP1 DUP4 SUB DUP2 DUP7 GAS STATICCALL ISZERO DUP1 ISZERO PUSH2 0x34E JUMPI RETURNDATASIZE PUSH1 0x0 DUP1 RETURNDATACOPY RETURNDATASIZE PUSH1 0x0 REVERT JUMPDEST POP POP POP POP PUSH1 0x40 MLOAD RETURNDATASIZE PUSH1 0x1F NOT PUSH1 0x1F DUP3 ADD AND DUP3 ADD DUP1 PUSH1 0x40 MSTORE POP DUP2 ADD SWAP1 PUSH2 0x372 SWAP2 SWAP1 PUSH2 0xDE8 JUMP JUMPDEST PUSH1 0x1 PUSH1 0x1 PUSH1 0xA0 SHL SUB AND CALLER PUSH1 0x1 PUSH1 0x1 PUSH1 0xA0 SHL SUB AND EQ PUSH2 0x3C5 JUMPI PUSH1 0x40 MLOAD PUSH3 0x461BCD PUSH1 0xE5 SHL DUP2 MSTORE PUSH1 0x20 PUSH1 0x4 DUP3 ADD MSTORE PUSH1 0xC PUSH1 0x24 DUP3 ADD MSTORE PUSH12 0x1030B236B4B71037B7363C9 PUSH1 0xA5 SHL PUSH1 0x44 DUP3 ADD MSTORE PUSH1 0x64 ADD PUSH1 0x40 MLOAD DUP1 SWAP2 SUB SWAP1 REVERT JUMPDEST PUSH1 0x2 DUP1 SLOAD DUP1 PUSH1 0x20 MUL PUSH1 0x20 ADD PUSH1 0x40 MLOAD SWAP1 DUP2 ADD PUSH1 0x40 MSTORE DUP1 SWAP3 SWAP2 SWAP1 DUP2 DUP2 MSTORE PUSH1 0x20 ADD DUP3 DUP1 SLOAD DUP1 ISZERO PUSH2 0x411 JUMPI PUSH1 0x20 MUL DUP3 ADD SWAP2 SWAP1 PUSH1 0x0 MSTORE PUSH1 0x20 PUSH1 0x0 KECCAK256 SWAP1 JUMPDEST DUP2 SLOAD DUP2 MSTORE PUSH1 0x20 ADD SWAP1 PUSH1 0x1 ADD SWAP1 DUP1 DUP4 GT PUSH2 0x3FD JUMPI JUMPDEST POP POP POP POP POP SWAP1 POP SWAP1 JUMP JUMPDEST PUSH1 0x0 PUSH2 0x425 PUSH2 0xB48 JUMP JUMPDEST PUSH1 0x2 DUP1 SLOAD PUSH1 0x1 DUP2 ADD DUP3 SSTORE PUSH1 0x0 SWAP2 SWAP1 SWAP2 MSTORE PUSH32 0x405787FA12A823E0F2B7631CC41B3BA8828B3321CA811111FA75CD3AA3BB5ACE ADD DUP2 SWAP1 SSTORE PUSH1 0x80 DUP7 ADD MLOAD PUSH1 0xA0 DUP8 ADD MLOAD PUSH1 0x40 MLOAD PUSH4 0x23B872DD PUSH1 0xE0 SHL DUP2 MSTORE CALLER PUSH1 0x4 DUP3 ADD MSTORE PUSH1 0x1 PUSH1 0x1 PUSH1 0xA0 SHL SUB PUSH32 0x0 DUP2 AND PUSH1 0x24 DUP4 ADD MSTORE PUSH1 0x44 DUP3 ADD SWAP3 SWAP1 SWAP3 MSTORE SWAP3 SWAP4 POP SWAP1 SWAP2 SWAP1 DUP3 AND SWAP1 PUSH4 0x23B872DD SWAP1 PUSH1 0x64 ADD PUSH1 0x0 PUSH1 0x40 MLOAD DUP1 DUP4 SUB DUP2 PUSH1 0x0 DUP8 DUP1 EXTCODESIZE ISZERO DUP1 ISZERO PUSH2 0x4DB JUMPI PUSH1 0x0 DUP1 REVERT JUMPDEST POP GAS CALL ISZERO DUP1 ISZERO PUSH2 0x4EF JUMPI RETURNDATASIZE PUSH1 0x0 DUP1 RETURNDATACOPY RETURNDATASIZE PUSH1 0x0 REVERT JUMPDEST POP POP POP POP PUSH1 0x80 DUP7 ADD MLOAD PUSH1 0xA0 DUP8 ADD MLOAD PUSH1 0x40 MLOAD PUSH4 0x296C6B03 PUSH1 0xE0 SHL DUP2 MSTORE PUSH1 0x4 DUP2 ADD SWAP2 SWAP1 SWAP2 MSTORE PUSH1 0x1 PUSH1 0x1 PUSH1 0xA0 SHL SUB DUP3 AND SWAP1 PUSH4 0x296C6B03 SWAP1 PUSH1 0x24 ADD PUSH1 0x20 PUSH1 0x40 MLOAD DUP1 DUP4 SUB DUP2 DUP7 GAS STATICCALL ISZERO DUP1 ISZERO PUSH2 0x543 JUMPI RETURNDATASIZE PUSH1 0x0 DUP1 RETURNDATACOPY RETURNDATASIZE PUSH1 0x0 REVERT JUMPDEST POP POP POP POP PUSH1 0x40 MLOAD RETURNDATASIZE PUSH1 0x1F NOT PUSH1 0x1F DUP3 ADD AND DUP3 ADD DUP1 PUSH1 0x40 MSTORE POP DUP2 ADD SWAP1 PUSH2 0x567 SWAP2 SWAP1 PUSH2 0xE05 JUMP JUMPDEST PUSH2 0x5E1 JUMPI PUSH1 0x40 MLOAD PUSH4 0x7D9CD053 PUSH1 0xE1 SHL DUP2 MSTORE PUSH1 0x1 PUSH1 0x1 PUSH1 0xA0 SHL SUB DUP3 AND SWAP1 PUSH4 0xFB39A0A6 SWAP1 PUSH2 0x597 SWAP1 DUP11 SWAP1 PUSH1 0x4 ADD PUSH2 0xE27 JUMP JUMPDEST PUSH2 0x120 PUSH1 0x40 MLOAD DUP1 DUP4 SUB DUP2 PUSH1 0x0 DUP8 GAS CALL ISZERO DUP1 ISZERO PUSH2 0x5B7 JUMPI RETURNDATASIZE PUSH1 0x0 DUP1 RETURNDATACOPY RETURNDATASIZE PUSH1 0x0 REVERT JUMPDEST POP POP POP POP PUSH1 0x40 MLOAD RETURNDATASIZE PUSH1 0x1F NOT PUSH1 0x1F DUP3 ADD AND DUP3 ADD DUP1 PUSH1 0x40 MSTORE POP DUP2 ADD SWAP1 PUSH2 0x5DB SWAP2 SWAP1 PUSH2 0xEA9 JUMP JUMPDEST POP PUSH2 0x654 JUMP JUMPDEST PUSH1 0xA0 DUP8 ADD MLOAD PUSH1 0x40 MLOAD PUSH4 0xDCC4DF73 PUSH1 0xE0 SHL DUP2 MSTORE PUSH1 0x4 DUP2 ADD SWAP2 SWAP1 SWAP2 MSTORE PUSH1 0x1 PUSH1 0x1 PUSH1 0xA0 SHL SUB DUP3 AND SWAP1 PUSH4 0xDCC4DF73 SWAP1 PUSH1 0x24 ADD PUSH1 0xC0 PUSH1 0x40 MLOAD DUP1 DUP4 SUB DUP2 PUSH1 0x0 DUP8 GAS CALL ISZERO DUP1 ISZERO PUSH2 0x62E JUMPI RETURNDATASIZE PUSH1 0x0 DUP1 RETURNDATACOPY RETURNDATASIZE PUSH1 0x0 REVERT JUMPDEST POP POP POP POP PUSH1 0x40 MLOAD RETURNDATASIZE PUSH1 0x1F NOT PUSH1 0x1F DUP3 ADD AND DUP3 ADD DUP1 PUSH1 0x40 MSTORE POP DUP2 ADD SWAP1 PUSH2 0x652 SWAP2 SWAP1 PUSH2 0xF1D JUMP JUMPDEST POP JUMPDEST PUSH1 0x40 DUP1 MLOAD PUSH1 0x80 DUP2 ADD DUP3 MSTORE DUP9 DUP2 MSTORE PUSH1 0x20 DUP2 ADD DUP8 SWAP1 MSTORE DUP1 DUP3 ADD DUP7 SWAP1 MSTORE PUSH1 0x1 PUSH1 0x1 PUSH1 0xA0 SHL SUB DUP9 DUP2 AND PUSH1 0x60 DUP4 ADD MSTORE PUSH1 0x0 DUP1 SLOAD SWAP4 MLOAD PUSH4 0x67513E1B PUSH1 0xE1 SHL DUP2 MSTORE PUSH1 0x4 DUP2 ADD DUP14 SWAP1 MSTORE SWAP3 SWAP4 SWAP1 SWAP3 SWAP2 AND SWAP1 PUSH4 0xCEA27C36 SWAP1 PUSH1 0x24 ADD PUSH1 0x0 PUSH1 0x40 MLOAD DUP1 DUP4 SUB DUP2 DUP7 GAS STATICCALL ISZERO DUP1 ISZERO PUSH2 0x6C2 JUMPI RETURNDATASIZE PUSH1 0x0 DUP1 RETURNDATACOPY RETURNDATASIZE PUSH1 0x0 REVERT JUMPDEST POP POP POP POP PUSH1 0x40 MLOAD RETURNDATASIZE PUSH1 0x0 DUP3 RETURNDATACOPY PUSH1 0x1F RETURNDATASIZE SWAP1 DUP2 ADD PUSH1 0x1F NOT AND DUP3 ADD PUSH1 0x40 MSTORE PUSH2 0x6EA SWAP2 SWAP1 DUP2 ADD SWAP1 PUSH2 0xFE0 JUMP JUMPDEST PUSH1 0x40 DUP1 MLOAD PUSH1 0xA0 DUP2 ADD SWAP1 SWAP2 MSTORE PUSH1 0x80 DUP3 ADD MLOAD PUSH1 0x1 PUSH1 0x1 PUSH1 0xA0 SHL SUB AND PUSH1 0xC0 DUP3 ADD MSTORE SWAP1 SWAP2 POP PUSH1 0x0 SWAP1 DUP1 PUSH1 0xE0 DUP2 ADD PUSH1 0x40 MLOAD PUSH1 0x20 DUP2 DUP4 SUB SUB DUP2 MSTORE SWAP1 PUSH1 0x40 MSTORE DUP2 MSTORE PUSH1 0x20 ADD DUP5 PUSH1 0x40 MLOAD PUSH1 0x20 ADD PUSH2 0x738 SWAP2 SWAP1 PUSH2 0xC64 JUMP JUMPDEST PUSH1 0x40 DUP1 MLOAD PUSH1 0x1F NOT DUP2 DUP5 SUB ADD DUP2 MSTORE SWAP2 SWAP1 MSTORE DUP2 MSTORE PUSH1 0x20 ADD PUSH1 0x0 PUSH1 0x40 MLOAD SWAP1 DUP1 DUP3 MSTORE DUP1 PUSH1 0x20 MUL PUSH1 0x20 ADD DUP3 ADD PUSH1 0x40 MSTORE DUP1 ISZERO PUSH2 0x794 JUMPI DUP2 PUSH1 0x20 ADD JUMPDEST PUSH1 0x40 DUP1 MLOAD DUP1 DUP3 ADD SWAP1 SWAP2 MSTORE PUSH1 0x0 DUP1 DUP3 MSTORE PUSH1 0x20 DUP3 ADD MSTORE DUP2 MSTORE PUSH1 0x20 ADD SWAP1 PUSH1 0x1 SWAP1 SUB SWAP1 DUP2 PUSH2 0x76D JUMPI SWAP1 POP JUMPDEST POP DUP2 MSTORE PUSH1 0x20 ADD PUSH1 0x0 PUSH1 0x1 PUSH1 0x1 PUSH1 0xA0 SHL SUB AND DUP2 MSTORE PUSH1 0x20 ADD PUSH2 0x7FC PUSH1 0x40 MLOAD DUP1 PUSH1 0x20 ADD PUSH1 0x40 MSTORE DUP1 PUSH3 0x61A80 DUP2 MSTORE POP PUSH1 0x40 DUP1 MLOAD SWAP2 MLOAD PUSH1 0x24 DUP1 DUP5 ADD SWAP2 SWAP1 SWAP2 MSTORE DUP2 MLOAD DUP1 DUP5 SUB SWAP1 SWAP2 ADD DUP2 MSTORE PUSH1 0x44 SWAP1 SWAP3 ADD SWAP1 MSTORE PUSH1 0x20 DUP2 ADD DUP1 MLOAD PUSH1 0x1 PUSH1 0x1 PUSH1 0xE0 SHL SUB AND PUSH4 0x97A657C9 PUSH1 0xE0 SHL OR SWAP1 MSTORE SWAP1 JUMP JUMPDEST SWAP1 MSTORE PUSH1 0x1 SLOAD PUSH1 0x20 DUP5 ADD MLOAD PUSH1 0x40 MLOAD PUSH4 0x20487DED PUSH1 0xE0 SHL DUP2 MSTORE SWAP3 SWAP4 POP PUSH1 0x0 SWAP3 PUSH1 0x1 PUSH1 0x1 PUSH1 0xA0 SHL SUB SWAP1 SWAP3 AND SWAP2 PUSH4 0x20487DED SWAP2 PUSH2 0x839 SWAP2 DUP7 SWAP1 PUSH1 0x4 ADD PUSH2 0x1093 JUMP JUMPDEST PUSH1 0x20 PUSH1 0x40 MLOAD DUP1 DUP4 SUB DUP2 DUP7 GAS STATICCALL ISZERO DUP1 ISZERO PUSH2 0x856 JUMPI RETURNDATASIZE PUSH1 0x0 DUP1 RETURNDATACOPY RETURNDATASIZE PUSH1 0x0 REVERT JUMPDEST POP POP POP POP PUSH1 0x40 MLOAD RETURNDATASIZE PUSH1 0x1F NOT PUSH1 0x1F DUP3 ADD AND DUP3 ADD DUP1 PUSH1 0x40 MSTORE POP DUP2 ADD SWAP1 PUSH2 0x87A SWAP2 SWAP1 PUSH2 0x1170 JUMP JUMPDEST PUSH1 0x1 SLOAD PUSH1 0x20 DUP6 ADD MLOAD PUSH1 0x40 MLOAD PUSH4 0x96F4E9F9 PUSH1 0xE0 SHL DUP2 MSTORE SWAP3 SWAP4 POP PUSH1 0x0 SWAP3 PUSH1 0x1 PUSH1 0x1 PUSH1 0xA0 SHL SUB SWAP1 SWAP3 AND SWAP2 PUSH4 0x96F4E9F9 SWAP2 DUP6 SWAP2 PUSH2 0x8B8 SWAP2 SWAP1 DUP9 SWAP1 PUSH1 0x4 ADD PUSH2 0x1093 JUMP JUMPDEST PUSH1 0x20 PUSH1 0x40 MLOAD DUP1 DUP4 SUB DUP2 DUP6 DUP9 GAS CALL ISZERO DUP1 ISZERO PUSH2 0x8D6 JUMPI RETURNDATASIZE PUSH1 0x0 DUP1 RETURNDATACOPY RETURNDATASIZE PUSH1 0x0 REVERT JUMPDEST POP POP POP POP POP PUSH1 0x40 MLOAD RETURNDATASIZE PUSH1 0x1F NOT PUSH1 0x1F DUP3 ADD AND DUP3 ADD DUP1 PUSH1 0x40 MSTORE POP DUP2 ADD SWAP1 PUSH2 0x8FB SWAP2 SWAP1 PUSH2 0x1170 JUMP JUMPDEST PUSH1 0x0 DUP10 DUP2 MSTORE PUSH1 0x4 PUSH1 0x20 DUP2 DUP2 MSTORE PUSH1 0x40 DUP1 DUP5 KECCAK256 DUP6 SWAP1 SSTORE DUP1 MLOAD PUSH1 0xA0 DUP2 ADD DUP3 MSTORE DUP14 DUP2 MSTORE DUP1 DUP4 ADD SWAP8 DUP9 MSTORE PUSH20 0xEEEEEEEEEEEEEEEEEEEEEEEEEEEEEEEEEEEEEEEE DUP2 DUP4 ADD SWAP1 DUP2 MSTORE TIMESTAMP PUSH1 0x60 DUP4 ADD SWAP1 DUP2 MSTORE PUSH1 0x80 DUP4 ADD SWAP8 DUP9 MSTORE DUP16 DUP8 MSTORE PUSH1 0x5 SWAP1 SWAP5 MSTORE SWAP2 DUP6 KECCAK256 SWAP1 MLOAD DUP2 SSTORE SWAP7 MLOAD PUSH1 0x1 DUP1 DUP10 ADD SWAP2 SWAP1 SWAP2 SSTORE SWAP1 MLOAD PUSH1 0x2 DUP1 DUP10 ADD DUP1 SLOAD PUSH1 0x1 PUSH1 0x1 PUSH1 0xA0 SHL SUB NOT AND PUSH1 0x1 PUSH1 0x1 PUSH1 0xA0 SHL SUB SWAP1 SWAP4 AND SWAP3 SWAP1 SWAP3 OR SWAP1 SWAP2 SSTORE SWAP2 MLOAD PUSH1 0x3 DUP9 ADD SSTORE SWAP4 MLOAD SWAP6 SWAP1 SWAP2 ADD SWAP5 SWAP1 SWAP5 SSTORE DUP4 SLOAD SWAP2 DUP3 ADD DUP5 SSTORE SWAP3 SWAP1 SWAP3 MSTORE POP PUSH32 0x405787FA12A823E0F2B7631CC41B3BA8828B3321CA811111FA75CD3AA3BB5ACE ADD DUP7 SWAP1 SSTORE POP SWAP4 SWAP10 SWAP9 POP POP POP POP POP POP POP POP POP JUMP JUMPDEST PUSH1 0x0 DUP1 SLOAD PUSH1 0x40 DUP1 MLOAD DUP1 DUP3 ADD DUP3 MSTORE PUSH1 0x13 DUP2 MSTORE PUSH19 0x2922A9A2A92B22A22FA6AFA922A3A4A9AA22A9 PUSH1 0x69 SHL PUSH1 0x20 DUP3 ADD MSTORE SWAP1 MLOAD PUSH4 0xBF40FAC1 PUSH1 0xE0 SHL DUP2 MSTORE PUSH1 0x1 PUSH1 0x1 PUSH1 0xA0 SHL SUB SWAP1 SWAP3 AND SWAP2 PUSH4 0xBF40FAC1 SWAP2 PUSH2 0xA31 SWAP2 PUSH1 0x4 ADD PUSH2 0xBA8 JUMP JUMPDEST PUSH1 0x20 PUSH1 0x40 MLOAD DUP1 DUP4 SUB DUP2 DUP7 GAS STATICCALL ISZERO DUP1 ISZERO PUSH2 0xA4E JUMPI RETURNDATASIZE PUSH1 0x0 DUP1 RETURNDATACOPY RETURNDATASIZE PUSH1 0x0 REVERT JUMPDEST POP POP POP POP PUSH1 0x40 MLOAD RETURNDATASIZE PUSH1 0x1F NOT PUSH1 0x1F DUP3 ADD AND DUP3 ADD DUP1 PUSH1 0x40 MSTORE POP DUP2 ADD SWAP1 PUSH2 0xA72 SWAP2 SWAP1 PUSH2 0xDE8 JUMP JUMPDEST PUSH1 0x0 DUP1 SLOAD PUSH1 0x1 PUSH1 0x1 PUSH1 0xA0 SHL SUB NOT AND PUSH1 0x1 PUSH1 0x1 PUSH1 0xA0 SHL SUB SWAP3 SWAP1 SWAP3 AND SWAP2 DUP3 OR SWAP1 SSTORE PUSH1 0x40 DUP1 MLOAD DUP1 DUP3 ADD DUP3 MSTORE PUSH1 0x20 DUP1 DUP3 MSTORE PUSH32 0x52455345525645445F434841494E4C494E4B5F524F555445525F434C49454E54 SWAP1 DUP3 ADD MSTORE SWAP1 MLOAD PUSH4 0xBF40FAC1 PUSH1 0xE0 SHL DUP2 MSTORE PUSH4 0xBF40FAC1 SWAP2 PUSH2 0xAE2 SWAP2 PUSH1 0x4 ADD PUSH2 0xBA8 JUMP JUMPDEST PUSH1 0x20 PUSH1 0x40 MLOAD DUP1 DUP4 SUB DUP2 DUP7 GAS STATICCALL ISZERO DUP1 ISZERO PUSH2 0xAFF JUMPI RETURNDATASIZE PUSH1 0x0 DUP1 RETURNDATACOPY RETURNDATASIZE PUSH1 0x0 REVERT JUMPDEST POP POP POP POP PUSH1 0x40 MLOAD RETURNDATASIZE PUSH1 0x1F NOT PUSH1 0x1F DUP3 ADD AND DUP3 ADD DUP1 PUSH1 0x40 MSTORE POP DUP2 ADD SWAP1 PUSH2 0xB23 SWAP2 SWAP1 PUSH2 0xDE8 JUMP JUMPDEST PUSH1 0x1 DUP1 SLOAD PUSH1 0x1 PUSH1 0x1 PUSH1 0xA0 SHL SUB NOT AND PUSH1 0x1 PUSH1 0x1 PUSH1 0xA0 SHL SUB SWAP3 SWAP1 SWAP3 AND SWAP2 SWAP1 SWAP2 OR DUP2 SSTORE SWAP2 SWAP1 POP JUMP JUMPDEST PUSH1 0x6 DUP1 SLOAD PUSH1 0x0 SWAP2 DUP3 PUSH2 0xB59 DUP4 PUSH2 0x1189 JUMP JUMPDEST SWAP2 SWAP1 POP SSTORE SWAP1 POP SWAP1 JUMP JUMPDEST PUSH1 0x0 DUP2 MLOAD DUP1 DUP5 MSTORE PUSH1 0x0 JUMPDEST DUP2 DUP2 LT ISZERO PUSH2 0xB88 JUMPI PUSH1 0x20 DUP2 DUP6 ADD DUP2 ADD MLOAD DUP7 DUP4 ADD DUP3 ADD MSTORE ADD PUSH2 0xB6C JUMP JUMPDEST POP PUSH1 0x0 PUSH1 0x20 DUP3 DUP7 ADD ADD MSTORE PUSH1 0x20 PUSH1 0x1F NOT PUSH1 0x1F DUP4 ADD AND DUP6 ADD ADD SWAP2 POP POP SWAP3 SWAP2 POP POP JUMP JUMPDEST PUSH1 0x20 DUP2 MSTORE PUSH1 0x0 PUSH2 0xBBB PUSH1 0x20 DUP4 ADD DUP5 PUSH2 0xB62 JUMP JUMPDEST SWAP4 SWAP3 POP POP POP JUMP JUMPDEST PUSH1 0x20 DUP1 DUP3 MSTORE DUP3 MLOAD DUP3 DUP3 ADD DUP2 SWAP1 MSTORE PUSH1 0x0 SWAP2 SWAP1 DUP5 DUP3 ADD SWAP1 PUSH1 0x40 DUP6 ADD SWAP1 DUP5 JUMPDEST DUP2 DUP2 LT ISZERO PUSH2 0xBFA JUMPI DUP4 MLOAD DUP4 MSTORE SWAP3 DUP5 ADD SWAP3 SWAP2 DUP5 ADD SWAP2 PUSH1 0x1 ADD PUSH2 0xBDE JUMP JUMPDEST POP SWAP1 SWAP7 SWAP6 POP POP POP POP POP POP JUMP JUMPDEST PUSH1 0x0 PUSH1 0x20 DUP3 DUP5 SUB SLT ISZERO PUSH2 0xC18 JUMPI PUSH1 0x0 DUP1 REVERT JUMPDEST POP CALLDATALOAD SWAP2 SWAP1 POP JUMP JUMPDEST DUP1 MLOAD PUSH1 0x1 PUSH1 0x1 PUSH1 0xA0 SHL SUB SWAP1 DUP2 AND DUP4 MSTORE PUSH1 0x20 DUP1 DUP4 ADD MLOAD SWAP1 DUP5 ADD MSTORE PUSH1 0x40 DUP1 DUP4 ADD MLOAD SWAP1 DUP5 ADD MSTORE PUSH1 0x60 DUP1 DUP4 ADD MLOAD SWAP1 DUP5 ADD MSTORE PUSH1 0x80 DUP1 DUP4 ADD MLOAD SWAP1 SWAP2 AND SWAP1 DUP4 ADD MSTORE PUSH1 0xA0 SWAP1 DUP2 ADD MLOAD SWAP2 ADD MSTORE JUMP JUMPDEST PUSH1 0x0 PUSH2 0x120 DUP3 ADD SWAP1 POP PUSH2 0xC78 DUP3 DUP5 MLOAD PUSH2 0xC1F JUMP JUMPDEST PUSH1 0x20 DUP4 ADD MLOAD PUSH1 0xC0 DUP4 ADD MSTORE PUSH1 0x40 DUP4 ADD MLOAD PUSH1 0xE0 DUP4 ADD MSTORE PUSH1 0x60 SWAP1 SWAP3 ADD MLOAD PUSH1 0x1 PUSH1 0x1 PUSH1 0xA0 SHL SUB AND PUSH2 0x100 SWAP1 SWAP2 ADD MSTORE SWAP1 JUMP JUMPDEST PUSH4 0x4E487B71 PUSH1 0xE0 SHL PUSH1 0x0 MSTORE PUSH1 0x41 PUSH1 0x4 MSTORE PUSH1 0x24 PUSH1 0x0 REVERT JUMPDEST PUSH1 0x40 MLOAD PUSH1 0xC0 DUP2 ADD PUSH8 0xFFFFFFFFFFFFFFFF DUP2 GT DUP3 DUP3 LT OR ISZERO PUSH2 0xCDE JUMPI PUSH2 0xCDE PUSH2 0xCA5 JUMP JUMPDEST PUSH1 0x40 MSTORE SWAP1 JUMP JUMPDEST PUSH1 0x40 MLOAD PUSH1 0xA0 DUP2 ADD PUSH8 0xFFFFFFFFFFFFFFFF DUP2 GT DUP3 DUP3 LT OR ISZERO PUSH2 0xCDE JUMPI PUSH2 0xCDE PUSH2 0xCA5 JUMP JUMPDEST PUSH1 0x1 PUSH1 0x1 PUSH1 0xA0 SHL SUB DUP2 AND DUP2 EQ PUSH2 0xD1C JUMPI PUSH1 0x0 DUP1 REVERT JUMPDEST POP JUMP JUMPDEST DUP1 CALLDATALOAD PUSH2 0xD2A DUP2 PUSH2 0xD07 JUMP JUMPDEST SWAP2 SWAP1 POP JUMP JUMPDEST PUSH1 0x0 DUP1 PUSH1 0x0 DUP1 PUSH1 0x0 DUP6 DUP8 SUB PUSH2 0x140 DUP2 SLT ISZERO PUSH2 0xD49 JUMPI PUSH1 0x0 DUP1 REVERT JUMPDEST DUP7 CALLDATALOAD SWAP6 POP PUSH1 0xC0 PUSH1 0x1F NOT DUP3 ADD SLT ISZERO PUSH2 0xD5F JUMPI PUSH1 0x0 DUP1 REVERT JUMPDEST POP PUSH2 0xD68 PUSH2 0xCBB JUMP JUMPDEST PUSH1 0x20 DUP8 ADD CALLDATALOAD PUSH2 0xD76 DUP2 PUSH2 0xD07 JUMP JUMPDEST DUP1 DUP3 MSTORE POP PUSH1 0x40 DUP8 ADD CALLDATALOAD PUSH1 0x20 DUP3 ADD MSTORE PUSH1 0x60 DUP8 ADD CALLDATALOAD PUSH1 0x40 DUP3 ADD MSTORE PUSH1 0x80 DUP8 ADD CALLDATALOAD PUSH1 0x60 DUP3 ADD MSTORE PUSH1 0xA0 DUP8 ADD CALLDATALOAD PUSH2 0xDA6 DUP2 PUSH2 0xD07 JUMP JUMPDEST PUSH1 0x80 DUP3 ADD MSTORE PUSH1 0xC0 DUP8 ADD CALLDATALOAD PUSH1 0xA0 DUP3 ADD MSTORE SWAP4 POP PUSH2 0xDC3 PUSH1 0xE0 DUP8 ADD PUSH2 0xD1F JUMP JUMPDEST SWAP5 SWAP8 SWAP4 SWAP7 POP SWAP4 SWAP5 PUSH2 0x100 DUP2 ADD CALLDATALOAD SWAP5 POP PUSH2 0x120 ADD CALLDATALOAD SWAP3 SWAP2 POP POP JUMP JUMPDEST DUP1 MLOAD PUSH2 0xD2A DUP2 PUSH2 0xD07 JUMP JUMPDEST PUSH1 0x0 PUSH1 0x20 DUP3 DUP5 SUB SLT ISZERO PUSH2 0xDFA JUMPI PUSH1 0x0 DUP1 REVERT JUMPDEST DUP2 MLOAD PUSH2 0xBBB DUP2 PUSH2 0xD07 JUMP JUMPDEST PUSH1 0x0 PUSH1 0x20 DUP3 DUP5 SUB SLT ISZERO PUSH2 0xE17 JUMPI PUSH1 0x0 DUP1 REVERT JUMPDEST DUP2 MLOAD DUP1 ISZERO ISZERO DUP2 EQ PUSH2 0xBBB JUMPI PUSH1 0x0 DUP1 REVERT JUMPDEST PUSH1 0xC0 DUP2 ADD PUSH2 0xE35 DUP3 DUP5 PUSH2 0xC1F JUMP JUMPDEST SWAP3 SWAP2 POP POP JUMP JUMPDEST PUSH1 0x0 PUSH1 0xC0 DUP3 DUP5 SUB SLT ISZERO PUSH2 0xE4D JUMPI PUSH1 0x0 DUP1 REVERT JUMPDEST PUSH2 0xE55 PUSH2 0xCBB JUMP JUMPDEST SWAP1 POP DUP2 MLOAD PUSH2 0xE62 DUP2 PUSH2 0xD07 JUMP JUMPDEST DUP1 DUP3 MSTORE POP PUSH1 0x20 DUP3 ADD MLOAD PUSH1 0x20 DUP3 ADD MSTORE PUSH1 0x40 DUP3 ADD MLOAD PUSH1 0x40 DUP3 ADD MSTORE PUSH1 0x60 DUP3 ADD MLOAD PUSH1 0x60 DUP3 ADD MSTORE PUSH1 0x80 DUP3 ADD MLOAD PUSH2 0xE92 DUP2 PUSH2 0xD07 JUMP JUMPDEST DUP1 PUSH1 0x80 DUP4 ADD MSTORE POP PUSH1 0xA0 DUP3 ADD MLOAD PUSH1 0xA0 DUP3 ADD MSTORE SWAP3 SWAP2 POP POP JUMP JUMPDEST PUSH1 0x0 PUSH2 0x120 DUP3 DUP5 SUB SLT ISZERO PUSH2 0xEBC JUMPI PUSH1 0x0 DUP1 REVERT JUMPDEST PUSH1 0x40 MLOAD PUSH1 0x80 DUP2 ADD DUP2 DUP2 LT PUSH8 0xFFFFFFFFFFFFFFFF DUP3 GT OR ISZERO PUSH2 0xEDF JUMPI PUSH2 0xEDF PUSH2 0xCA5 JUMP JUMPDEST PUSH1 0x40 MSTORE PUSH2 0xEEC DUP5 DUP5 PUSH2 0xE3B JUMP JUMPDEST DUP2 MSTORE PUSH1 0xC0 DUP4 ADD MLOAD PUSH1 0x20 DUP3 ADD MSTORE PUSH1 0xE0 DUP4 ADD MLOAD PUSH1 0x40 DUP3 ADD MSTORE PUSH2 0x100 DUP4 ADD MLOAD PUSH2 0xF11 DUP2 PUSH2 0xD07 JUMP JUMPDEST PUSH1 0x60 DUP3 ADD MSTORE SWAP4 SWAP3 POP POP POP JUMP JUMPDEST PUSH1 0x0 PUSH1 0xC0 DUP3 DUP5 SUB SLT ISZERO PUSH2 0xF2F JUMPI PUSH1 0x0 DUP1 REVERT JUMPDEST PUSH2 0xBBB DUP4 DUP4 PUSH2 0xE3B JUMP JUMPDEST PUSH1 0x0 DUP3 PUSH1 0x1F DUP4 ADD SLT PUSH2 0xF4A JUMPI PUSH1 0x0 DUP1 REVERT JUMPDEST DUP2 MLOAD PUSH1 0x20 PUSH8 0xFFFFFFFFFFFFFFFF DUP1 DUP4 GT ISZERO PUSH2 0xF67 JUMPI PUSH2 0xF67 PUSH2 0xCA5 JUMP JUMPDEST DUP3 PUSH1 0x5 SHL PUSH1 0x40 MLOAD PUSH1 0x1F NOT PUSH1 0x3F DUP4 ADD AND DUP2 ADD DUP2 DUP2 LT DUP5 DUP3 GT OR ISZERO PUSH2 0xF8C JUMPI PUSH2 0xF8C PUSH2 0xCA5 JUMP JUMPDEST PUSH1 0x40 MSTORE SWAP4 DUP5 MSTORE PUSH1 0x20 DUP2 DUP8 ADD DUP2 ADD SWAP5 SWAP1 DUP2 ADD SWAP3 POP DUP8 DUP6 GT ISZERO PUSH2 0xFAC JUMPI PUSH1 0x0 DUP1 REVERT JUMPDEST PUSH1 0x20 DUP8 ADD SWAP2 POP JUMPDEST DUP5 DUP3 LT ISZERO PUSH2 0xFD5 JUMPI DUP2 MLOAD PUSH2 0xFC6 DUP2 PUSH2 0xD07 JUMP JUMPDEST DUP4 MSTORE SWAP2 DUP4 ADD SWAP2 SWAP1 DUP4 ADD SWAP1 PUSH2 0xFB3 JUMP JUMPDEST SWAP8 SWAP7 POP POP POP POP POP POP POP JUMP JUMPDEST PUSH1 0x0 PUSH1 0x20 DUP3 DUP5 SUB SLT ISZERO PUSH2 0xFF2 JUMPI PUSH1 0x0 DUP1 REVERT JUMPDEST DUP2 MLOAD PUSH8 0xFFFFFFFFFFFFFFFF DUP1 DUP3 GT ISZERO PUSH2 0x100A JUMPI PUSH1 0x0 DUP1 REVERT JUMPDEST SWAP1 DUP4 ADD SWAP1 PUSH1 0xA0 DUP3 DUP7 SUB SLT ISZERO PUSH2 0x101E JUMPI PUSH1 0x0 DUP1 REVERT JUMPDEST PUSH2 0x1026 PUSH2 0xCE4 JUMP JUMPDEST DUP3 MLOAD DUP2 MSTORE PUSH1 0x20 DUP4 ADD MLOAD DUP3 DUP2 AND DUP2 EQ PUSH2 0x103D JUMPI PUSH1 0x0 DUP1 REVERT JUMPDEST PUSH1 0x20 DUP3 ADD MSTORE PUSH1 0x40 DUP4 ADD MLOAD PUSH2 0x1050 DUP2 PUSH2 0xD07 JUMP JUMPDEST PUSH1 0x40 DUP3 ADD MSTORE PUSH1 0x60 DUP4 ADD MLOAD DUP3 DUP2 GT ISZERO PUSH2 0x1067 JUMPI PUSH1 0x0 DUP1 REVERT JUMPDEST PUSH2 0x1073 DUP8 DUP3 DUP7 ADD PUSH2 0xF39 JUMP JUMPDEST PUSH1 0x60 DUP4 ADD MSTORE POP PUSH2 0x1085 PUSH1 0x80 DUP5 ADD PUSH2 0xDDD JUMP JUMPDEST PUSH1 0x80 DUP3 ADD MSTORE SWAP6 SWAP5 POP POP POP POP POP JUMP JUMPDEST PUSH1 0x0 PUSH1 0x40 PUSH8 0xFFFFFFFFFFFFFFFF DUP6 AND DUP4 MSTORE PUSH1 0x20 PUSH1 0x40 DUP2 DUP6 ADD MSTORE DUP5 MLOAD PUSH1 0xA0 PUSH1 0x40 DUP7 ADD MSTORE PUSH2 0x10C2 PUSH1 0xE0 DUP7 ADD DUP3 PUSH2 0xB62 JUMP JUMPDEST SWAP1 POP DUP2 DUP7 ADD MLOAD PUSH1 0x3F NOT DUP1 DUP8 DUP5 SUB ADD PUSH1 0x60 DUP9 ADD MSTORE PUSH2 0x10DF DUP4 DUP4 PUSH2 0xB62 JUMP JUMPDEST PUSH1 0x40 DUP10 ADD MLOAD DUP9 DUP3 SUB DUP4 ADD PUSH1 0x80 DUP11 ADD MSTORE DUP1 MLOAD DUP1 DUP4 MSTORE SWAP1 DUP7 ADD SWAP5 POP PUSH1 0x0 SWAP4 POP SWAP1 DUP6 ADD SWAP1 JUMPDEST DUP1 DUP5 LT ISZERO PUSH2 0x1133 JUMPI DUP5 MLOAD DUP1 MLOAD PUSH1 0x1 PUSH1 0x1 PUSH1 0xA0 SHL SUB AND DUP4 MSTORE DUP7 ADD MLOAD DUP7 DUP4 ADD MSTORE SWAP4 DUP6 ADD SWAP4 PUSH1 0x1 SWAP4 SWAP1 SWAP4 ADD SWAP3 SWAP1 DUP7 ADD SWAP1 PUSH2 0x1101 JUMP JUMPDEST POP PUSH1 0x60 DUP10 ADD MLOAD PUSH1 0x1 PUSH1 0x1 PUSH1 0xA0 SHL SUB AND PUSH1 0xA0 DUP10 ADD MSTORE PUSH1 0x80 DUP10 ADD MLOAD DUP9 DUP3 SUB DUP4 ADD PUSH1 0xC0 DUP11 ADD MSTORE SWAP6 POP PUSH2 0x1162 DUP2 DUP8 PUSH2 0xB62 JUMP JUMPDEST SWAP11 SWAP10 POP POP POP POP POP POP POP POP POP POP JUMP JUMPDEST PUSH1 0x0 PUSH1 0x20 DUP3 DUP5 SUB SLT ISZERO PUSH2 0x1182 JUMPI PUSH1 0x0 DUP1 REVERT JUMPDEST POP MLOAD SWAP2 SWAP1 POP JUMP JUMPDEST PUSH1 0x0 PUSH1 0x1 DUP3 ADD PUSH2 0x11A9 JUMPI PUSH4 0x4E487B71 PUSH1 0xE0 SHL PUSH1 0x0 MSTORE PUSH1 0x11 PUSH1 0x4 MSTORE PUSH1 0x24 PUSH1 0x0 REVERT JUMPDEST POP PUSH1 0x1 ADD SWAP1 JUMP INVALID LOG2 PUSH5 0x6970667358 0x22 SLT KECCAK256 PUSH12 0x48C45530F258AE5D7CE28F4B JUMPI DUP14 CODECOPY 0xF9 0x26 0xE8 SGT BLOCKHASH 0xD2 MSTORE 0x28 0x4E MSTORE EXTCODECOPY RETURNDATASIZE BASEFEE ADD 0xCC 0x26 PUSH5 0x736F6C6343 STOP ADDMOD OR STOP CALLER "
				},
				"gasEstimates": {
					"creation": {
						"codeDepositCost": "916400",
						"executionCost": "infinite",
						"totalCost": "infinite"
					},
					"external": {
						"getName()": "infinite",
						"getSendIds()": "infinite",
						"getSendStatement(uint256)": "11349",
						"getTransmittedGilt(uint256)": "20138",
						"getVersion()": "171",
						"notifyChangeOfAddress()": "infinite",
						"sendGilt(uint256,(address,uint256,uint256,uint256,address,uint256),address,bytes32,uint256)": "infinite"
					},
					"internal": {
						"getIndex()": "24304"
					}
				},
				"methodIdentifiers": {
					"getName()": "17d7de7c",
					"getSendIds()": "1bb05e71",
					"getSendStatement(uint256)": "98e3a7c6",
					"getTransmittedGilt(uint256)": "6fac704c",
					"getVersion()": "0d8e6e2c",
					"notifyChangeOfAddress()": "cde4c10c",
					"sendGilt(uint256,(address,uint256,uint256,uint256,address,uint256),address,bytes32,uint256)": "7e13289f"
				}
			},
			"storageLayout": {
				"storage": [
					{
						"astId": 590,
						"contract": "contracts/core/MSender_flattened.sol:MSender",
						"label": "register",
						"offset": 0,
						"slot": "0",
						"type": "t_contract(IMRegister)529"
					},
					{
						"astId": 593,
						"contract": "contracts/core/MSender_flattened.sol:MSender",
						"label": "router",
						"offset": 0,
						"slot": "1",
						"type": "t_contract(IRouterClient)104"
					},
					{
						"astId": 596,
						"contract": "contracts/core/MSender_flattened.sol:MSender",
						"label": "sendIds",
						"offset": 0,
						"slot": "2",
						"type": "t_array(t_uint256)dyn_storage"
					},
					{
						"astId": 601,
						"contract": "contracts/core/MSender_flattened.sol:MSender",
						"label": "transmittedGiltBySendId",
						"offset": 0,
						"slot": "3",
						"type": "t_mapping(t_uint256,t_struct(TransmittedGilt)274_storage)"
					},
					{
						"astId": 605,
						"contract": "contracts/core/MSender_flattened.sol:MSender",
						"label": "ccipMessageIdBySendId",
						"offset": 0,
						"slot": "4",
						"type": "t_mapping(t_uint256,t_bytes32)"
					},
					{
						"astId": 610,
						"contract": "contracts/core/MSender_flattened.sol:MSender",
						"label": "sendStatementBySendId",
						"offset": 0,
						"slot": "5",
						"type": "t_mapping(t_uint256,t_struct(SendStatement)304_storage)"
					},
					{
						"astId": 895,
						"contract": "contracts/core/MSender_flattened.sol:MSender",
						"label": "index",
						"offset": 0,
						"slot": "6",
						"type": "t_uint256"
					}
				],
				"types": {
					"t_address": {
						"encoding": "inplace",
						"label": "address",
						"numberOfBytes": "20"
					},
					"t_array(t_uint256)dyn_storage": {
						"base": "t_uint256",
						"encoding": "dynamic_array",
						"label": "uint256[]",
						"numberOfBytes": "32"
					},
					"t_bytes32": {
						"encoding": "inplace",
						"label": "bytes32",
						"numberOfBytes": "32"
					},
					"t_contract(IMRegister)529": {
						"encoding": "inplace",
						"label": "contract IMRegister",
						"numberOfBytes": "20"
					},
					"t_contract(IRouterClient)104": {
						"encoding": "inplace",
						"label": "contract IRouterClient",
						"numberOfBytes": "20"
					},
					"t_mapping(t_uint256,t_bytes32)": {
						"encoding": "mapping",
						"key": "t_uint256",
						"label": "mapping(uint256 => bytes32)",
						"numberOfBytes": "32",
						"value": "t_bytes32"
					},
					"t_mapping(t_uint256,t_struct(SendStatement)304_storage)": {
						"encoding": "mapping",
						"key": "t_uint256",
						"label": "mapping(uint256 => struct SendStatement)",
						"numberOfBytes": "32",
						"value": "t_struct(SendStatement)304_storage"
					},
					"t_mapping(t_uint256,t_struct(TransmittedGilt)274_storage)": {
						"encoding": "mapping",
						"key": "t_uint256",
						"label": "mapping(uint256 => struct TransmittedGilt)",
						"numberOfBytes": "32",
						"value": "t_struct(TransmittedGilt)274_storage"
					},
					"t_struct(Gilt)264_storage": {
						"encoding": "inplace",
						"label": "struct Gilt",
						"members": [
							{
								"astId": 253,
								"contract": "contracts/core/MSender_flattened.sol:MSender",
								"label": "erc20",
								"offset": 0,
								"slot": "0",
								"type": "t_address"
							},
							{
								"astId": 255,
								"contract": "contracts/core/MSender_flattened.sol:MSender",
								"label": "amount",
								"offset": 0,
								"slot": "1",
								"type": "t_uint256"
							},
							{
								"astId": 257,
								"contract": "contracts/core/MSender_flattened.sol:MSender",
								"label": "creationDate",
								"offset": 0,
								"slot": "2",
								"type": "t_uint256"
							},
							{
								"astId": 259,
								"contract": "contracts/core/MSender_flattened.sol:MSender",
								"label": "chainId",
								"offset": 0,
								"slot": "3",
								"type": "t_uint256"
							},
							{
								"astId": 261,
								"contract": "contracts/core/MSender_flattened.sol:MSender",
								"label": "giltContract",
								"offset": 0,
								"slot": "4",
								"type": "t_address"
							},
							{
								"astId": 263,
								"contract": "contracts/core/MSender_flattened.sol:MSender",
								"label": "id",
								"offset": 0,
								"slot": "5",
								"type": "t_uint256"
							}
						],
						"numberOfBytes": "192"
					},
					"t_struct(SendStatement)304_storage": {
						"encoding": "inplace",
						"label": "struct SendStatement",
						"members": [
							{
								"astId": 295,
								"contract": "contracts/core/MSender_flattened.sol:MSender",
								"label": "sendId",
								"offset": 0,
								"slot": "0",
								"type": "t_uint256"
							},
							{
								"astId": 297,
								"contract": "contracts/core/MSender_flattened.sol:MSender",
								"label": "fees",
								"offset": 0,
								"slot": "1",
								"type": "t_uint256"
							},
							{
								"astId": 299,
								"contract": "contracts/core/MSender_flattened.sol:MSender",
								"label": "token",
								"offset": 0,
								"slot": "2",
								"type": "t_address"
							},
							{
								"astId": 301,
								"contract": "contracts/core/MSender_flattened.sol:MSender",
								"label": "sendDate",
								"offset": 0,
								"slot": "3",
								"type": "t_uint256"
							},
							{
								"astId": 303,
								"contract": "contracts/core/MSender_flattened.sol:MSender",
								"label": "ccipMesssageId",
								"offset": 0,
								"slot": "4",
								"type": "t_bytes32"
							}
						],
						"numberOfBytes": "160"
					},
					"t_struct(TransmittedGilt)274_storage": {
						"encoding": "inplace",
						"label": "struct TransmittedGilt",
						"members": [
							{
								"astId": 267,
								"contract": "contracts/core/MSender_flattened.sol:MSender",
								"label": "gilt",
								"offset": 0,
								"slot": "0",
								"type": "t_struct(Gilt)264_storage"
							},
							{
								"astId": 269,
								"contract": "contracts/core/MSender_flattened.sol:MSender",
								"label": "alloProfileId",
								"offset": 0,
								"slot": "6",
								"type": "t_bytes32"
							},
							{
								"astId": 271,
								"contract": "contracts/core/MSender_flattened.sol:MSender",
								"label": "projectId",
								"offset": 0,
								"slot": "7",
								"type": "t_uint256"
							},
							{
								"astId": 273,
								"contract": "contracts/core/MSender_flattened.sol:MSender",
								"label": "owner",
								"offset": 0,
								"slot": "8",
								"type": "t_address"
							}
						],
						"numberOfBytes": "288"
					},
					"t_uint256": {
						"encoding": "inplace",
						"label": "uint256",
						"numberOfBytes": "32"
					}
				}
			},
			"userdoc": {
				"kind": "user",
				"methods": {},
				"version": 1
			}
		}
	}
}