{
	"contracts/core/GVaultFactory_flattened.sol": {
		"GVaultFactory": {
			"abi": [
				{
					"inputs": [
						{
							"internalType": "address",
							"name": "_register",
							"type": "address"
						}
					],
					"stateMutability": "nonpayable",
					"type": "constructor"
				},
				{
					"inputs": [
						{
							"components": [
								{
									"internalType": "address",
									"name": "erc20",
									"type": "address"
								},
								{
									"internalType": "uint256",
									"name": "amount",
									"type": "uint256"
								},
								{
									"internalType": "uint256",
									"name": "creationDate",
									"type": "uint256"
								},
								{
									"internalType": "uint256",
									"name": "chainId",
									"type": "uint256"
								},
								{
									"internalType": "address",
									"name": "giltContract",
									"type": "address"
								},
								{
									"internalType": "uint256",
									"name": "id",
									"type": "uint256"
								}
							],
							"internalType": "struct Gilt",
							"name": "_gilt",
							"type": "tuple"
						}
					],
					"name": "createVault",
					"outputs": [
						{
							"internalType": "address",
							"name": "_vault",
							"type": "address"
						}
					],
					"stateMutability": "nonpayable",
					"type": "function"
				},
				{
					"inputs": [],
					"name": "getName",
					"outputs": [
						{
							"internalType": "string",
							"name": "_name",
							"type": "string"
						}
					],
					"stateMutability": "pure",
					"type": "function"
				},
				{
					"inputs": [],
					"name": "getVaults",
					"outputs": [
						{
							"internalType": "address[]",
							"name": "_vaults",
							"type": "address[]"
						}
					],
					"stateMutability": "view",
					"type": "function"
				},
				{
					"inputs": [],
					"name": "getVersion",
					"outputs": [
						{
							"internalType": "uint256",
							"name": "_version",
							"type": "uint256"
						}
					],
					"stateMutability": "pure",
					"type": "function"
				},
				{
					"inputs": [
						{
							"internalType": "address",
							"name": "_vault",
							"type": "address"
						}
					],
					"name": "isKnownVault",
					"outputs": [
						{
							"internalType": "bool",
							"name": "_isKnown",
							"type": "bool"
						}
					],
					"stateMutability": "view",
					"type": "function"
				}
			],
			"devdoc": {
				"kind": "dev",
				"methods": {},
				"version": 1
			},
			"evm": {
				"assembly": "    /* \"contracts/core/GVaultFactory_flattened.sol\":13180:14631  contract GVaultFactory is IGVaultFactory, IMVersion { ... */\n  mstore(0x40, 0x80)\n    /* \"contracts/core/GVaultFactory_flattened.sol\":13826:13908  constructor(address _register) {... */\n  callvalue\n  dup1\n  iszero\n  tag_1\n  jumpi\n  0x00\n  dup1\n  revert\ntag_1:\n  pop\n  mload(0x40)\n  sub(codesize, bytecodeSize)\n  dup1\n  bytecodeSize\n  dup4\n  codecopy\n  dup2\n  add\n  0x40\n  dup2\n  swap1\n  mstore\n  tag_2\n  swap2\n  tag_3\n  jump\t// in\ntag_2:\n    /* \"contracts/core/GVaultFactory_flattened.sol\":13868:13876  register */\n  0x00\n    /* \"contracts/core/GVaultFactory_flattened.sol\":13868:13900  register = IMRegister(_register) */\n  dup1\n  sload\n  not(sub(shl(0xa0, 0x01), 0x01))\n  and\n  sub(shl(0xa0, 0x01), 0x01)\n  swap3\n  swap1\n  swap3\n  and\n  swap2\n  swap1\n  swap2\n  or\n  swap1\n  sstore\n    /* \"contracts/core/GVaultFactory_flattened.sol\":13180:14631  contract GVaultFactory is IGVaultFactory, IMVersion { ... */\n  jump(tag_7)\n    /* \"#utility.yul\":14:304   */\ntag_3:\n    /* \"#utility.yul\":84:90   */\n  0x00\n    /* \"#utility.yul\":137:139   */\n  0x20\n    /* \"#utility.yul\":125:134   */\n  dup3\n    /* \"#utility.yul\":116:123   */\n  dup5\n    /* \"#utility.yul\":112:135   */\n  sub\n    /* \"#utility.yul\":108:140   */\n  slt\n    /* \"#utility.yul\":105:157   */\n  iszero\n  tag_9\n  jumpi\n    /* \"#utility.yul\":153:154   */\n  0x00\n    /* \"#utility.yul\":150:151   */\n  dup1\n    /* \"#utility.yul\":143:155   */\n  revert\n    /* \"#utility.yul\":105:157   */\ntag_9:\n    /* \"#utility.yul\":179:195   */\n  dup2\n  mload\n  sub(shl(0xa0, 0x01), 0x01)\n    /* \"#utility.yul\":224:255   */\n  dup2\n  and\n    /* \"#utility.yul\":214:256   */\n  dup2\n  eq\n    /* \"#utility.yul\":204:274   */\n  tag_10\n  jumpi\n    /* \"#utility.yul\":270:271   */\n  0x00\n    /* \"#utility.yul\":267:268   */\n  dup1\n    /* \"#utility.yul\":260:272   */\n  revert\n    /* \"#utility.yul\":204:274   */\ntag_10:\n    /* \"#utility.yul\":293:298   */\n  swap4\n    /* \"#utility.yul\":14:304   */\n  swap3\n  pop\n  pop\n  pop\n  jump\t// out\ntag_7:\n    /* \"contracts/core/GVaultFactory_flattened.sol\":13180:14631  contract GVaultFactory is IGVaultFactory, IMVersion { ... */\n  dataSize(sub_0)\n  dup1\n  dataOffset(sub_0)\n  0x00\n  codecopy\n  0x00\n  return\nstop\n\nsub_0: assembly {\n        /* \"contracts/core/GVaultFactory_flattened.sol\":13180:14631  contract GVaultFactory is IGVaultFactory, IMVersion { ... */\n      mstore(0x40, 0x80)\n      callvalue\n      dup1\n      iszero\n      tag_1\n      jumpi\n      0x00\n      dup1\n      revert\n    tag_1:\n      pop\n      jumpi(tag_2, lt(calldatasize, 0x04))\n      shr(0xe0, calldataload(0x00))\n      dup1\n      0x0d8e6e2c\n      eq\n      tag_3\n      jumpi\n      dup1\n      0x17d7de7c\n      eq\n      tag_4\n      jumpi\n      dup1\n      0x44d00f82\n      eq\n      tag_5\n      jumpi\n      dup1\n      0x57a9913b\n      eq\n      tag_6\n      jumpi\n      dup1\n      0xd8e45a09\n      eq\n      tag_7\n      jumpi\n    tag_2:\n      0x00\n      dup1\n      revert\n        /* \"contracts/core/GVaultFactory_flattened.sol\":14018:14115  function getVersion() pure external returns (uint256 _version) {... */\n    tag_3:\n      mload(0x40)\n        /* \"contracts/core/GVaultFactory_flattened.sol\":13599:13600  2 */\n      0x02\n        /* \"#utility.yul\":160:185   */\n      dup2\n      mstore\n        /* \"#utility.yul\":148:150   */\n      0x20\n        /* \"#utility.yul\":133:151   */\n      add\n        /* \"contracts/core/GVaultFactory_flattened.sol\":14018:14115  function getVersion() pure external returns (uint256 _version) {... */\n    tag_10:\n      mload(0x40)\n      dup1\n      swap2\n      sub\n      swap1\n      return\n        /* \"contracts/core/GVaultFactory_flattened.sol\":13916:14010  function getName() pure external returns (string memory _name) {... */\n    tag_4:\n        /* \"contracts/core/GVaultFactory_flattened.sol\":13997:14001  name */\n      0x40\n      dup1\n      mload\n      dup1\n      dup3\n      add\n      dup3\n      mstore\n      0x18\n      dup2\n      mstore\n      0x52455345525645445f475f5641554c545f464143544f52590000000000000000\n      0x20\n      dup3\n      add\n      mstore\n        /* \"contracts/core/GVaultFactory_flattened.sol\":13916:14010  function getName() pure external returns (string memory _name) {... */\n      swap1\n      mload\n      tag_10\n      swap2\n        /* \"contracts/core/GVaultFactory_flattened.sol\":13997:14001  name */\n      swap1\n        /* \"contracts/core/GVaultFactory_flattened.sol\":13916:14010  function getName() pure external returns (string memory _name) {... */\n      tag_15\n      jump\t// in\n        /* \"contracts/core/GVaultFactory_flattened.sol\":14123:14237  function getVaults() view external adminOnly returns (address [] memory _vaults) {... */\n    tag_5:\n      tag_16\n      tag_17\n      jump\t// in\n    tag_16:\n      mload(0x40)\n      tag_10\n      swap2\n      swap1\n      tag_19\n      jump\t// in\n        /* \"contracts/core/GVaultFactory_flattened.sol\":14371:14624  function createVault(Gilt memory _gilt) external giltContractOnly returns (address _vault){... */\n    tag_6:\n      tag_20\n      tag_21\n      calldatasize\n      0x04\n      tag_22\n      jump\t// in\n    tag_21:\n      tag_23\n      jump\t// in\n    tag_20:\n      mload(0x40)\n      sub(shl(0xa0, 0x01), 0x01)\n        /* \"#utility.yul\":2735:2767   */\n      swap1\n      swap2\n      and\n        /* \"#utility.yul\":2717:2768   */\n      dup2\n      mstore\n        /* \"#utility.yul\":2705:2707   */\n      0x20\n        /* \"#utility.yul\":2690:2708   */\n      add\n        /* \"contracts/core/GVaultFactory_flattened.sol\":14371:14624  function createVault(Gilt memory _gilt) external giltContractOnly returns (address _vault){... */\n      tag_10\n        /* \"#utility.yul\":2571:2774   */\n      jump\n        /* \"contracts/core/GVaultFactory_flattened.sol\":14245:14363  function isKnownVault(address _vault) view external returns (bool _isKnown) {... */\n    tag_7:\n      tag_26\n      tag_27\n      calldatasize\n      0x04\n      tag_28\n      jump\t// in\n    tag_27:\n      sub(shl(0xa0, 0x01), 0x01)\n        /* \"contracts/core/GVaultFactory_flattened.sol\":14339:14355  isKnownV[_vault] */\n      and\n        /* \"contracts/core/GVaultFactory_flattened.sol\":14306:14319  bool _isKnown */\n      0x00\n        /* \"contracts/core/GVaultFactory_flattened.sol\":14339:14355  isKnownV[_vault] */\n      swap1\n      dup2\n      mstore\n        /* \"contracts/core/GVaultFactory_flattened.sol\":14339:14347  isKnownV */\n      0x02\n        /* \"contracts/core/GVaultFactory_flattened.sol\":14339:14355  isKnownV[_vault] */\n      0x20\n      mstore\n      0x40\n      swap1\n      keccak256\n      sload\n      0xff\n      and\n      swap1\n        /* \"contracts/core/GVaultFactory_flattened.sol\":14245:14363  function isKnownVault(address _vault) view external returns (bool _isKnown) {... */\n      jump\n    tag_26:\n      mload(0x40)\n        /* \"#utility.yul\":3196:3210   */\n      swap1\n      iszero\n        /* \"#utility.yul\":3189:3211   */\n      iszero\n        /* \"#utility.yul\":3171:3212   */\n      dup2\n      mstore\n        /* \"#utility.yul\":3159:3161   */\n      0x20\n        /* \"#utility.yul\":3144:3162   */\n      add\n        /* \"contracts/core/GVaultFactory_flattened.sol\":14245:14363  function isKnownVault(address _vault) view external returns (bool _isKnown) {... */\n      tag_10\n        /* \"#utility.yul\":3031:3218   */\n      jump\n        /* \"contracts/core/GVaultFactory_flattened.sol\":14123:14237  function getVaults() view external adminOnly returns (address [] memory _vaults) {... */\n    tag_17:\n        /* \"contracts/core/GVaultFactory_flattened.sol\":13442:13450  register */\n      sload(0x00)\n        /* \"contracts/core/GVaultFactory_flattened.sol\":13462:13472  M_ADMIN_CA */\n      0x40\n      dup1\n      mload\n      dup1\n      dup3\n      add\n      dup3\n      mstore\n      0x10\n      dup2\n      mstore\n      shl(0x81, 0x2922a9a2a92b22a22fa6afa0a226a4a7)\n      0x20\n      dup3\n      add\n      mstore\n        /* \"contracts/core/GVaultFactory_flattened.sol\":13442:13473  register.getAddress(M_ADMIN_CA) */\n      swap1\n      mload\n      shl(0xe0, 0xbf40fac1)\n      dup2\n      mstore\n        /* \"contracts/core/GVaultFactory_flattened.sol\":14177:14202  address [] memory _vaults */\n      0x60\n      swap3\n      sub(shl(0xa0, 0x01), 0x01)\n        /* \"contracts/core/GVaultFactory_flattened.sol\":13442:13450  register */\n      and\n      swap2\n        /* \"contracts/core/GVaultFactory_flattened.sol\":13442:13461  register.getAddress */\n      0xbf40fac1\n      swap2\n        /* \"contracts/core/GVaultFactory_flattened.sol\":13442:13473  register.getAddress(M_ADMIN_CA) */\n      tag_35\n      swap2\n        /* \"contracts/core/GVaultFactory_flattened.sol\":13462:13472  M_ADMIN_CA */\n      swap1\n        /* \"contracts/core/GVaultFactory_flattened.sol\":13442:13473  register.getAddress(M_ADMIN_CA) */\n      0x04\n      add\n      tag_15\n      jump\t// in\n    tag_35:\n      0x20\n      mload(0x40)\n      dup1\n      dup4\n      sub\n      dup2\n      dup7\n      gas\n      staticcall\n      iszero\n      dup1\n      iszero\n      tag_37\n      jumpi\n      returndatasize\n      0x00\n      dup1\n      returndatacopy\n      revert(0x00, returndatasize)\n    tag_37:\n      pop\n      pop\n      pop\n      pop\n      mload(0x40)\n      returndatasize\n      not(0x1f)\n      0x1f\n      dup3\n      add\n      and\n      dup3\n      add\n      dup1\n      0x40\n      mstore\n      pop\n      dup2\n      add\n      swap1\n      tag_38\n      swap2\n      swap1\n      tag_39\n      jump\t// in\n    tag_38:\n      sub(shl(0xa0, 0x01), 0x01)\n        /* \"contracts/core/GVaultFactory_flattened.sol\":13428:13473  msg.sender == register.getAddress(M_ADMIN_CA) */\n      and\n        /* \"contracts/core/GVaultFactory_flattened.sol\":13428:13438  msg.sender */\n      caller\n      sub(shl(0xa0, 0x01), 0x01)\n        /* \"contracts/core/GVaultFactory_flattened.sol\":13428:13473  msg.sender == register.getAddress(M_ADMIN_CA) */\n      and\n      eq\n        /* \"contracts/core/GVaultFactory_flattened.sol\":13420:13488  require(msg.sender == register.getAddress(M_ADMIN_CA), \"admin only\") */\n      tag_40\n      jumpi\n      mload(0x40)\n      shl(0xe5, 0x461bcd)\n      dup2\n      mstore\n        /* \"#utility.yul\":3681:3683   */\n      0x20\n        /* \"contracts/core/GVaultFactory_flattened.sol\":13420:13488  require(msg.sender == register.getAddress(M_ADMIN_CA), \"admin only\") */\n      0x04\n      dup3\n      add\n        /* \"#utility.yul\":3663:3684   */\n      mstore\n        /* \"#utility.yul\":3720:3722   */\n      0x0a\n        /* \"#utility.yul\":3700:3718   */\n      0x24\n      dup3\n      add\n        /* \"#utility.yul\":3693:3723   */\n      mstore\n      shl(0xb0, 0x61646d696e206f6e6c79)\n        /* \"#utility.yul\":3739:3757   */\n      0x44\n      dup3\n      add\n        /* \"#utility.yul\":3732:3772   */\n      mstore\n        /* \"#utility.yul\":3789:3807   */\n      0x64\n      add\n        /* \"contracts/core/GVaultFactory_flattened.sol\":13420:13488  require(msg.sender == register.getAddress(M_ADMIN_CA), \"admin only\") */\n    tag_41:\n      mload(0x40)\n      dup1\n      swap2\n      sub\n      swap1\n      revert\n    tag_40:\n        /* \"contracts/core/GVaultFactory_flattened.sol\":14222:14228  vaults */\n      0x01\n        /* \"contracts/core/GVaultFactory_flattened.sol\":14215:14228  return vaults */\n      dup1\n      sload\n      dup1\n      0x20\n      mul\n      0x20\n      add\n      mload(0x40)\n      swap1\n      dup2\n      add\n      0x40\n      mstore\n      dup1\n      swap3\n      swap2\n      swap1\n      dup2\n      dup2\n      mstore\n      0x20\n      add\n      dup3\n      dup1\n      sload\n      dup1\n      iszero\n      tag_44\n      jumpi\n      0x20\n      mul\n      dup3\n      add\n      swap2\n      swap1\n      0x00\n      mstore\n      keccak256(0x00, 0x20)\n      swap1\n    tag_45:\n      dup2\n      sload\n      sub(shl(0xa0, 0x01), 0x01)\n      and\n      dup2\n      mstore\n      0x01\n      swap1\n      swap2\n      add\n      swap1\n      0x20\n      add\n      dup1\n      dup4\n      gt\n      tag_45\n      jumpi\n    tag_44:\n      pop\n      pop\n      pop\n      pop\n      pop\n      swap1\n      pop\n        /* \"contracts/core/GVaultFactory_flattened.sol\":14123:14237  function getVaults() view external adminOnly returns (address [] memory _vaults) {... */\n      swap1\n      jump\t// out\n        /* \"contracts/core/GVaultFactory_flattened.sol\":14371:14624  function createVault(Gilt memory _gilt) external giltContractOnly returns (address _vault){... */\n    tag_23:\n        /* \"contracts/core/GVaultFactory_flattened.sol\":14446:14460  address _vault */\n      0x00\n        /* \"contracts/core/GVaultFactory_flattened.sol\":13302:13310  register */\n      dup1\n      sload\n        /* \"contracts/core/GVaultFactory_flattened.sol\":13322:13338  GILT_CONTRACT_CA */\n      0x40\n      dup1\n      mload\n      dup1\n      dup3\n      add\n      dup3\n      mstore\n      0x16\n      dup2\n      mstore\n      shl(0x52, 0x149154d15495915117d1d2531517d0d3d395149050d5)\n      0x20\n      dup3\n      add\n      mstore\n        /* \"contracts/core/GVaultFactory_flattened.sol\":13302:13339  register.getAddress(GILT_CONTRACT_CA) */\n      swap1\n      mload\n      shl(0xe0, 0xbf40fac1)\n      dup2\n      mstore\n      sub(shl(0xa0, 0x01), 0x01)\n        /* \"contracts/core/GVaultFactory_flattened.sol\":13302:13310  register */\n      swap1\n      swap3\n      and\n      swap2\n        /* \"contracts/core/GVaultFactory_flattened.sol\":13302:13321  register.getAddress */\n      0xbf40fac1\n      swap2\n        /* \"contracts/core/GVaultFactory_flattened.sol\":13302:13339  register.getAddress(GILT_CONTRACT_CA) */\n      tag_47\n      swap2\n      0x04\n      add\n      tag_15\n      jump\t// in\n    tag_47:\n      0x20\n      mload(0x40)\n      dup1\n      dup4\n      sub\n      dup2\n      dup7\n      gas\n      staticcall\n      iszero\n      dup1\n      iszero\n      tag_49\n      jumpi\n      returndatasize\n      0x00\n      dup1\n      returndatacopy\n      revert(0x00, returndatasize)\n    tag_49:\n      pop\n      pop\n      pop\n      pop\n      mload(0x40)\n      returndatasize\n      not(0x1f)\n      0x1f\n      dup3\n      add\n      and\n      dup3\n      add\n      dup1\n      0x40\n      mstore\n      pop\n      dup2\n      add\n      swap1\n      tag_50\n      swap2\n      swap1\n      tag_39\n      jump\t// in\n    tag_50:\n      sub(shl(0xa0, 0x01), 0x01)\n        /* \"contracts/core/GVaultFactory_flattened.sol\":13288:13339  msg.sender == register.getAddress(GILT_CONTRACT_CA) */\n      and\n        /* \"contracts/core/GVaultFactory_flattened.sol\":13288:13298  msg.sender */\n      caller\n      sub(shl(0xa0, 0x01), 0x01)\n        /* \"contracts/core/GVaultFactory_flattened.sol\":13288:13339  msg.sender == register.getAddress(GILT_CONTRACT_CA) */\n      and\n      eq\n        /* \"contracts/core/GVaultFactory_flattened.sol\":13280:13362  require(msg.sender == register.getAddress(GILT_CONTRACT_CA), \"gilt contract only\") */\n      tag_51\n      jumpi\n      mload(0x40)\n      shl(0xe5, 0x461bcd)\n      dup2\n      mstore\n        /* \"#utility.yul\":4020:4022   */\n      0x20\n        /* \"contracts/core/GVaultFactory_flattened.sol\":13280:13362  require(msg.sender == register.getAddress(GILT_CONTRACT_CA), \"gilt contract only\") */\n      0x04\n      dup3\n      add\n        /* \"#utility.yul\":4002:4023   */\n      mstore\n        /* \"#utility.yul\":4059:4061   */\n      0x12\n        /* \"#utility.yul\":4039:4057   */\n      0x24\n      dup3\n      add\n        /* \"#utility.yul\":4032:4062   */\n      mstore\n      shl(0x70, 0x67696c7420636f6e7472616374206f6e6c79)\n        /* \"#utility.yul\":4078:4096   */\n      0x44\n      dup3\n      add\n        /* \"#utility.yul\":4071:4119   */\n      mstore\n        /* \"#utility.yul\":4136:4154   */\n      0x64\n      add\n        /* \"contracts/core/GVaultFactory_flattened.sol\":13280:13362  require(msg.sender == register.getAddress(GILT_CONTRACT_CA), \"gilt contract only\") */\n      tag_41\n        /* \"#utility.yul\":3818:4160   */\n      jump\n        /* \"contracts/core/GVaultFactory_flattened.sol\":13280:13362  require(msg.sender == register.getAddress(GILT_CONTRACT_CA), \"gilt contract only\") */\n    tag_51:\n        /* \"contracts/core/GVaultFactory_flattened.sol\":14508:14516  register */\n      sload(0x00)\n        /* \"contracts/core/GVaultFactory_flattened.sol\":14489:14525  new GVault(address(register), _gilt) */\n      mload(0x40)\n      sub(shl(0xa0, 0x01), 0x01)\n        /* \"contracts/core/GVaultFactory_flattened.sol\":14508:14516  register */\n      swap1\n      swap2\n      and\n      swap1\n        /* \"contracts/core/GVaultFactory_flattened.sol\":14519:14524  _gilt */\n      dup4\n      swap1\n        /* \"contracts/core/GVaultFactory_flattened.sol\":14489:14525  new GVault(address(register), _gilt) */\n      tag_55\n      swap1\n      tag_56\n      jump\t// in\n    tag_55:\n      sub(shl(0xa0, 0x01), 0x01)\n        /* \"#utility.yul\":4438:4453   */\n      swap3\n      dup4\n      and\n        /* \"#utility.yul\":4420:4454   */\n      dup2\n      mstore\n        /* \"#utility.yul\":4494:4507   */\n      dup2\n      mload\n        /* \"#utility.yul\":4490:4512   */\n      dup4\n      and\n        /* \"#utility.yul\":4485:4487   */\n      0x20\n        /* \"#utility.yul\":4470:4488   */\n      dup1\n      dup4\n      add\n        /* \"#utility.yul\":4463:4513   */\n      swap2\n      swap1\n      swap2\n      mstore\n        /* \"#utility.yul\":4555:4570   */\n      dup3\n      add\n        /* \"#utility.yul\":4549:4571   */\n      mload\n        /* \"#utility.yul\":4544:4546   */\n      0x40\n        /* \"#utility.yul\":4529:4547   */\n      dup1\n      dup4\n      add\n        /* \"#utility.yul\":4522:4572   */\n      swap2\n      swap1\n      swap2\n      mstore\n        /* \"#utility.yul\":4614:4629   */\n      dup3\n      add\n        /* \"#utility.yul\":4608:4630   */\n      mload\n        /* \"#utility.yul\":4603:4605   */\n      0x60\n        /* \"#utility.yul\":4588:4606   */\n      dup1\n      dup4\n      add\n        /* \"#utility.yul\":4581:4631   */\n      swap2\n      swap1\n      swap2\n      mstore\n        /* \"#utility.yul\":4674:4689   */\n      dup3\n      add\n        /* \"#utility.yul\":4668:4690   */\n      mload\n        /* \"#utility.yul\":4662:4665   */\n      0x80\n        /* \"#utility.yul\":4647:4666   */\n      dup1\n      dup4\n      add\n        /* \"#utility.yul\":4640:4691   */\n      swap2\n      swap1\n      swap2\n      mstore\n        /* \"#utility.yul\":4738:4754   */\n      dup3\n      add\n        /* \"#utility.yul\":4732:4755   */\n      mload\n        /* \"#utility.yul\":4728:4760   */\n      swap1\n      swap3\n      and\n        /* \"#utility.yul\":4400:4403   */\n      0xa0\n        /* \"#utility.yul\":4707:4726   */\n      dup1\n      dup5\n      add\n        /* \"#utility.yul\":4700:4761   */\n      swap2\n      swap1\n      swap2\n      mstore\n        /* \"#utility.yul\":4804:4820   */\n      add\n        /* \"#utility.yul\":4798:4821   */\n      mload\n        /* \"#utility.yul\":4792:4795   */\n      0xc0\n        /* \"#utility.yul\":4777:4796   */\n      dup3\n      add\n        /* \"#utility.yul\":4770:4822   */\n      mstore\n        /* \"#utility.yul\":4369:4372   */\n      0xe0\n        /* \"#utility.yul\":4354:4373   */\n      add\n        /* \"contracts/core/GVaultFactory_flattened.sol\":14489:14525  new GVault(address(register), _gilt) */\n      mload(0x40)\n      dup1\n      swap2\n      sub\n      swap1\n      0x00\n      create\n      dup1\n      iszero\n      dup1\n      iszero\n      tag_59\n      jumpi\n      returndatasize\n      0x00\n      dup1\n      returndatacopy\n      revert(0x00, returndatasize)\n    tag_59:\n      pop\n        /* \"contracts/core/GVaultFactory_flattened.sol\":14537:14543  vaults */\n      0x01\n        /* \"contracts/core/GVaultFactory_flattened.sol\":14537:14556  vaults.push(_vault) */\n      dup1\n      sload\n      dup1\n      dup3\n      add\n      dup3\n      sstore\n      0xb10e2d527612073b26eecdfd717e6a320cf44b4afac2b0732d9fcbe2b7fa0cf6\n      add\n      dup1\n      sload\n      not(sub(shl(0xa0, 0x01), 0x01))\n      and\n      sub(shl(0xa0, 0x01), 0x01)\n      dup5\n      and\n      swap1\n      dup2\n      or\n      swap1\n      swap2\n      sstore\n      0x00\n        /* \"contracts/core/GVaultFactory_flattened.sol\":14567:14583  isKnownV[_vault] */\n      swap1\n      dup2\n      mstore\n        /* \"contracts/core/GVaultFactory_flattened.sol\":14567:14575  isKnownV */\n      0x02\n        /* \"contracts/core/GVaultFactory_flattened.sol\":14537:14556  vaults.push(_vault) */\n      0x20\n        /* \"contracts/core/GVaultFactory_flattened.sol\":14567:14583  isKnownV[_vault] */\n      mstore\n      0x40\n      swap1\n      keccak256\n        /* \"contracts/core/GVaultFactory_flattened.sol\":14567:14590  isKnownV[_vault] = true */\n      dup1\n      sload\n      not(0xff)\n      and\n      swap1\n      swap2\n      or\n      swap1\n      sstore\n        /* \"contracts/core/GVaultFactory_flattened.sol\":14537:14556  vaults.push(_vault) */\n      swap1\n      pop\n        /* \"contracts/core/GVaultFactory_flattened.sol\":13373:13374  _ */\n    tag_54:\n        /* \"contracts/core/GVaultFactory_flattened.sol\":14371:14624  function createVault(Gilt memory _gilt) external giltContractOnly returns (address _vault){... */\n      swap2\n      swap1\n      pop\n      jump\t// out\n    tag_56:\n      dataSize(sub_0)\n      dup1\n      dataOffset(sub_0)\n      dup4\n      codecopy\n      add\n      swap1\n      jump\t// out\n        /* \"#utility.yul\":196:744   */\n    tag_15:\n        /* \"#utility.yul\":308:312   */\n      0x00\n        /* \"#utility.yul\":337:339   */\n      0x20\n        /* \"#utility.yul\":366:368   */\n      dup1\n        /* \"#utility.yul\":355:364   */\n      dup4\n        /* \"#utility.yul\":348:369   */\n      mstore\n        /* \"#utility.yul\":398:404   */\n      dup4\n        /* \"#utility.yul\":392:405   */\n      mload\n        /* \"#utility.yul\":441:447   */\n      dup1\n        /* \"#utility.yul\":436:438   */\n      0x20\n        /* \"#utility.yul\":425:434   */\n      dup6\n        /* \"#utility.yul\":421:439   */\n      add\n        /* \"#utility.yul\":414:448   */\n      mstore\n        /* \"#utility.yul\":466:467   */\n      0x00\n        /* \"#utility.yul\":476:616   */\n    tag_67:\n        /* \"#utility.yul\":490:496   */\n      dup2\n        /* \"#utility.yul\":487:488   */\n      dup2\n        /* \"#utility.yul\":484:497   */\n      lt\n        /* \"#utility.yul\":476:616   */\n      iszero\n      tag_69\n      jumpi\n        /* \"#utility.yul\":585:599   */\n      dup6\n      dup2\n      add\n        /* \"#utility.yul\":581:604   */\n      dup4\n      add\n        /* \"#utility.yul\":575:605   */\n      mload\n        /* \"#utility.yul\":551:568   */\n      dup6\n      dup3\n      add\n        /* \"#utility.yul\":570:572   */\n      0x40\n        /* \"#utility.yul\":547:573   */\n      add\n        /* \"#utility.yul\":540:606   */\n      mstore\n        /* \"#utility.yul\":505:515   */\n      dup3\n      add\n        /* \"#utility.yul\":476:616   */\n      jump(tag_67)\n    tag_69:\n        /* \"#utility.yul\":480:483   */\n      pop\n        /* \"#utility.yul\":665:666   */\n      0x00\n        /* \"#utility.yul\":660:662   */\n      0x40\n        /* \"#utility.yul\":651:657   */\n      dup3\n        /* \"#utility.yul\":640:649   */\n      dup7\n        /* \"#utility.yul\":636:658   */\n      add\n        /* \"#utility.yul\":632:663   */\n      add\n        /* \"#utility.yul\":625:667   */\n      mstore\n        /* \"#utility.yul\":735:737   */\n      0x40\n        /* \"#utility.yul\":728:730   */\n      0x1f\n        /* \"#utility.yul\":724:731   */\n      not\n        /* \"#utility.yul\":719:721   */\n      0x1f\n        /* \"#utility.yul\":711:717   */\n      dup4\n        /* \"#utility.yul\":707:722   */\n      add\n        /* \"#utility.yul\":703:732   */\n      and\n        /* \"#utility.yul\":692:701   */\n      dup6\n        /* \"#utility.yul\":688:733   */\n      add\n        /* \"#utility.yul\":684:738   */\n      add\n        /* \"#utility.yul\":676:738   */\n      swap3\n      pop\n      pop\n      pop\n        /* \"#utility.yul\":196:744   */\n      swap3\n      swap2\n      pop\n      pop\n      jump\t// out\n        /* \"#utility.yul\":749:1407   */\n    tag_19:\n        /* \"#utility.yul\":920:922   */\n      0x20\n        /* \"#utility.yul\":972:993   */\n      dup1\n      dup3\n      mstore\n        /* \"#utility.yul\":1042:1055   */\n      dup3\n      mload\n        /* \"#utility.yul\":945:963   */\n      dup3\n      dup3\n      add\n        /* \"#utility.yul\":1064:1086   */\n      dup2\n      swap1\n      mstore\n        /* \"#utility.yul\":891:895   */\n      0x00\n      swap2\n        /* \"#utility.yul\":920:922   */\n      swap1\n        /* \"#utility.yul\":1143:1158   */\n      dup5\n      dup3\n      add\n      swap1\n        /* \"#utility.yul\":1117:1119   */\n      0x40\n        /* \"#utility.yul\":1102:1120   */\n      dup6\n      add\n      swap1\n        /* \"#utility.yul\":891:895   */\n      dup5\n        /* \"#utility.yul\":1186:1381   */\n    tag_71:\n        /* \"#utility.yul\":1200:1206   */\n      dup2\n        /* \"#utility.yul\":1197:1198   */\n      dup2\n        /* \"#utility.yul\":1194:1207   */\n      lt\n        /* \"#utility.yul\":1186:1381   */\n      iszero\n      tag_73\n      jumpi\n        /* \"#utility.yul\":1265:1278   */\n      dup4\n      mload\n      sub(shl(0xa0, 0x01), 0x01)\n        /* \"#utility.yul\":1261:1300   */\n      and\n        /* \"#utility.yul\":1249:1301   */\n      dup4\n      mstore\n        /* \"#utility.yul\":1356:1371   */\n      swap3\n      dup5\n      add\n      swap3\n        /* \"#utility.yul\":1321:1333   */\n      swap2\n      dup5\n      add\n      swap2\n        /* \"#utility.yul\":1297:1298   */\n      0x01\n        /* \"#utility.yul\":1215:1224   */\n      add\n        /* \"#utility.yul\":1186:1381   */\n      jump(tag_71)\n    tag_73:\n      pop\n        /* \"#utility.yul\":1398:1401   */\n      swap1\n      swap7\n        /* \"#utility.yul\":749:1407   */\n      swap6\n      pop\n      pop\n      pop\n      pop\n      pop\n      pop\n      jump\t// out\n        /* \"#utility.yul\":1412:1543   */\n    tag_62:\n      sub(shl(0xa0, 0x01), 0x01)\n        /* \"#utility.yul\":1487:1518   */\n      dup2\n      and\n        /* \"#utility.yul\":1477:1519   */\n      dup2\n      eq\n        /* \"#utility.yul\":1467:1537   */\n      tag_75\n      jumpi\n        /* \"#utility.yul\":1533:1534   */\n      0x00\n        /* \"#utility.yul\":1530:1531   */\n      dup1\n        /* \"#utility.yul\":1523:1535   */\n      revert\n        /* \"#utility.yul\":1467:1537   */\n    tag_75:\n        /* \"#utility.yul\":1412:1543   */\n      pop\n      jump\t// out\n        /* \"#utility.yul\":1548:1682   */\n    tag_63:\n        /* \"#utility.yul\":1616:1636   */\n      dup1\n      calldataload\n        /* \"#utility.yul\":1645:1676   */\n      tag_54\n        /* \"#utility.yul\":1616:1636   */\n      dup2\n        /* \"#utility.yul\":1645:1676   */\n      tag_62\n      jump\t// in\n        /* \"#utility.yul\":1687:2566   */\n    tag_22:\n        /* \"#utility.yul\":1767:1773   */\n      0x00\n        /* \"#utility.yul\":1820:1823   */\n      0xc0\n        /* \"#utility.yul\":1808:1817   */\n      dup3\n        /* \"#utility.yul\":1799:1806   */\n      dup5\n        /* \"#utility.yul\":1795:1818   */\n      sub\n        /* \"#utility.yul\":1791:1824   */\n      slt\n        /* \"#utility.yul\":1788:1841   */\n      iszero\n      tag_79\n      jumpi\n        /* \"#utility.yul\":1837:1838   */\n      0x00\n        /* \"#utility.yul\":1834:1835   */\n      dup1\n        /* \"#utility.yul\":1827:1839   */\n      revert\n        /* \"#utility.yul\":1788:1841   */\n    tag_79:\n        /* \"#utility.yul\":1870:1872   */\n      0x40\n        /* \"#utility.yul\":1864:1873   */\n      mload\n        /* \"#utility.yul\":1912:1915   */\n      0xc0\n        /* \"#utility.yul\":1904:1910   */\n      dup2\n        /* \"#utility.yul\":1900:1916   */\n      add\n        /* \"#utility.yul\":1982:1988   */\n      dup2\n        /* \"#utility.yul\":1970:1980   */\n      dup2\n        /* \"#utility.yul\":1967:1989   */\n      lt\n        /* \"#utility.yul\":1946:1964   */\n      0xffffffffffffffff\n        /* \"#utility.yul\":1934:1944   */\n      dup3\n        /* \"#utility.yul\":1931:1965   */\n      gt\n        /* \"#utility.yul\":1928:1990   */\n      or\n        /* \"#utility.yul\":1925:2110   */\n      iszero\n      tag_80\n      jumpi\n        /* \"#utility.yul\":2032:2042   */\n      0x4e487b71\n        /* \"#utility.yul\":2027:2030   */\n      0xe0\n        /* \"#utility.yul\":2023:2043   */\n      shl\n        /* \"#utility.yul\":2020:2021   */\n      0x00\n        /* \"#utility.yul\":2013:2044   */\n      mstore\n        /* \"#utility.yul\":2067:2071   */\n      0x41\n        /* \"#utility.yul\":2064:2065   */\n      0x04\n        /* \"#utility.yul\":2057:2072   */\n      mstore\n        /* \"#utility.yul\":2095:2099   */\n      0x24\n        /* \"#utility.yul\":2092:2093   */\n      0x00\n        /* \"#utility.yul\":2085:2100   */\n      revert\n        /* \"#utility.yul\":1925:2110   */\n    tag_80:\n        /* \"#utility.yul\":2126:2128   */\n      0x40\n        /* \"#utility.yul\":2119:2141   */\n      mstore\n        /* \"#utility.yul\":2165:2194   */\n      tag_81\n        /* \"#utility.yul\":2184:2193   */\n      dup4\n        /* \"#utility.yul\":2165:2194   */\n      tag_63\n      jump\t// in\n    tag_81:\n        /* \"#utility.yul\":2157:2163   */\n      dup2\n        /* \"#utility.yul\":2150:2195   */\n      mstore\n        /* \"#utility.yul\":2256:2258   */\n      0x20\n        /* \"#utility.yul\":2245:2254   */\n      dup4\n        /* \"#utility.yul\":2241:2259   */\n      add\n        /* \"#utility.yul\":2228:2260   */\n      calldataload\n        /* \"#utility.yul\":2223:2225   */\n      0x20\n        /* \"#utility.yul\":2215:2221   */\n      dup3\n        /* \"#utility.yul\":2211:2226   */\n      add\n        /* \"#utility.yul\":2204:2261   */\n      mstore\n        /* \"#utility.yul\":2322:2324   */\n      0x40\n        /* \"#utility.yul\":2311:2320   */\n      dup4\n        /* \"#utility.yul\":2307:2325   */\n      add\n        /* \"#utility.yul\":2294:2326   */\n      calldataload\n        /* \"#utility.yul\":2289:2291   */\n      0x40\n        /* \"#utility.yul\":2281:2287   */\n      dup3\n        /* \"#utility.yul\":2277:2292   */\n      add\n        /* \"#utility.yul\":2270:2327   */\n      mstore\n        /* \"#utility.yul\":2388:2390   */\n      0x60\n        /* \"#utility.yul\":2377:2386   */\n      dup4\n        /* \"#utility.yul\":2373:2391   */\n      add\n        /* \"#utility.yul\":2360:2392   */\n      calldataload\n        /* \"#utility.yul\":2355:2357   */\n      0x60\n        /* \"#utility.yul\":2347:2353   */\n      dup3\n        /* \"#utility.yul\":2343:2358   */\n      add\n        /* \"#utility.yul\":2336:2393   */\n      mstore\n        /* \"#utility.yul\":2427:2466   */\n      tag_82\n        /* \"#utility.yul\":2461:2464   */\n      0x80\n        /* \"#utility.yul\":2450:2459   */\n      dup5\n        /* \"#utility.yul\":2446:2465   */\n      add\n        /* \"#utility.yul\":2427:2466   */\n      tag_63\n      jump\t// in\n    tag_82:\n        /* \"#utility.yul\":2421:2424   */\n      0x80\n        /* \"#utility.yul\":2413:2419   */\n      dup3\n        /* \"#utility.yul\":2409:2425   */\n      add\n        /* \"#utility.yul\":2402:2467   */\n      mstore\n        /* \"#utility.yul\":2529:2532   */\n      0xa0\n        /* \"#utility.yul\":2518:2527   */\n      dup4\n        /* \"#utility.yul\":2514:2533   */\n      add\n        /* \"#utility.yul\":2501:2534   */\n      calldataload\n        /* \"#utility.yul\":2495:2498   */\n      0xa0\n        /* \"#utility.yul\":2487:2493   */\n      dup3\n        /* \"#utility.yul\":2483:2499   */\n      add\n        /* \"#utility.yul\":2476:2535   */\n      mstore\n        /* \"#utility.yul\":2554:2560   */\n      dup1\n        /* \"#utility.yul\":2544:2560   */\n      swap2\n      pop\n      pop\n        /* \"#utility.yul\":1687:2566   */\n      swap3\n      swap2\n      pop\n      pop\n      jump\t// out\n        /* \"#utility.yul\":2779:3026   */\n    tag_28:\n        /* \"#utility.yul\":2838:2844   */\n      0x00\n        /* \"#utility.yul\":2891:2893   */\n      0x20\n        /* \"#utility.yul\":2879:2888   */\n      dup3\n        /* \"#utility.yul\":2870:2877   */\n      dup5\n        /* \"#utility.yul\":2866:2889   */\n      sub\n        /* \"#utility.yul\":2862:2894   */\n      slt\n        /* \"#utility.yul\":2859:2911   */\n      iszero\n      tag_85\n      jumpi\n        /* \"#utility.yul\":2907:2908   */\n      0x00\n        /* \"#utility.yul\":2904:2905   */\n      dup1\n        /* \"#utility.yul\":2897:2909   */\n      revert\n        /* \"#utility.yul\":2859:2911   */\n    tag_85:\n        /* \"#utility.yul\":2946:2955   */\n      dup2\n        /* \"#utility.yul\":2933:2956   */\n      calldataload\n        /* \"#utility.yul\":2965:2996   */\n      tag_86\n        /* \"#utility.yul\":2990:2995   */\n      dup2\n        /* \"#utility.yul\":2965:2996   */\n      tag_62\n      jump\t// in\n    tag_86:\n        /* \"#utility.yul\":3015:3020   */\n      swap4\n        /* \"#utility.yul\":2779:3026   */\n      swap3\n      pop\n      pop\n      pop\n      jump\t// out\n        /* \"#utility.yul\":3223:3474   */\n    tag_39:\n        /* \"#utility.yul\":3293:3299   */\n      0x00\n        /* \"#utility.yul\":3346:3348   */\n      0x20\n        /* \"#utility.yul\":3334:3343   */\n      dup3\n        /* \"#utility.yul\":3325:3332   */\n      dup5\n        /* \"#utility.yul\":3321:3344   */\n      sub\n        /* \"#utility.yul\":3317:3349   */\n      slt\n        /* \"#utility.yul\":3314:3366   */\n      iszero\n      tag_89\n      jumpi\n        /* \"#utility.yul\":3362:3363   */\n      0x00\n        /* \"#utility.yul\":3359:3360   */\n      dup1\n        /* \"#utility.yul\":3352:3364   */\n      revert\n        /* \"#utility.yul\":3314:3366   */\n    tag_89:\n        /* \"#utility.yul\":3394:3403   */\n      dup2\n        /* \"#utility.yul\":3388:3404   */\n      mload\n        /* \"#utility.yul\":3413:3444   */\n      tag_86\n        /* \"#utility.yul\":3438:3443   */\n      dup2\n        /* \"#utility.yul\":3413:3444   */\n      tag_62\n      jump\t// in\n    stop\n\n    sub_0: assembly {\n            /* \"contracts/core/GVaultFactory_flattened.sol\":11006:13097  contract GVault is IGVault, IMVersion { ... */\n          mstore(0x40, 0xa0)\n            /* \"contracts/core/GVaultFactory_flattened.sol\":11281:11302  bool expended = false */\n          0x06\n          dup1\n          sload\n          not(shl(0xa0, 0xffff))\n            /* \"contracts/core/GVaultFactory_flattened.sol\":11310:11332  bool committed = false */\n          and\n          swap1\n          sstore\n            /* \"contracts/core/GVaultFactory_flattened.sol\":11342:11499  constructor(address _register, Gilt memory _gilt) { ... */\n          callvalue\n          dup1\n          iszero\n          tag_1\n          jumpi\n          0x00\n          dup1\n          revert\n        tag_1:\n          pop\n          mload(0x40)\n          sub(codesize, bytecodeSize)\n          dup1\n          bytecodeSize\n          dup4\n          codecopy\n          dup2\n          add\n          0x40\n          dup2\n          swap1\n          mstore\n          tag_2\n          swap2\n          tag_3\n          jump\t// in\n        tag_2:\n            /* \"contracts/core/GVaultFactory_flattened.sol\":11404:11416  gilt = _gilt */\n          dup1\n          mload\n            /* \"contracts/core/GVaultFactory_flattened.sol\":11404:11408  gilt */\n          0x00\n            /* \"contracts/core/GVaultFactory_flattened.sol\":11404:11416  gilt = _gilt */\n          dup1\n          sload\n          sub(shl(0xa0, 0x01), 0x01)\n          swap3\n          dup4\n          and\n          not(sub(shl(0xa0, 0x01), 0x01))\n          swap2\n          dup3\n          and\n          or\n          swap1\n          swap2\n          sstore\n          0x20\n          dup4\n          add\n          mload\n          0x01\n          sstore\n          0x40\n          dup4\n          add\n          mload\n          0x02\n          sstore\n          0x60\n          dup4\n          add\n          mload\n          0x03\n          sstore\n          0x80\n          dup1\n          dup5\n          add\n          mload\n          0x04\n          dup1\n          sload\n          swap2\n          dup6\n          and\n          swap2\n          dup5\n          and\n          swap2\n          swap1\n          swap2\n          or\n          swap1\n          sstore\n          0xa0\n          swap1\n          swap4\n          add\n          mload\n          0x05\n          sstore\n            /* \"contracts/core/GVaultFactory_flattened.sol\":11427:11435  register */\n          0x06\n            /* \"contracts/core/GVaultFactory_flattened.sol\":11427:11459  register = IMRegister(_register) */\n          dup1\n          sload\n          swap5\n          swap1\n          swap3\n          and\n          swap4\n          and\n          swap3\n          swap1\n          swap3\n          or\n          swap1\n          swap2\n          sstore\n            /* \"contracts/core/GVaultFactory_flattened.sol\":11485:11489  this */\n          address\n            /* \"contracts/core/GVaultFactory_flattened.sol\":11470:11490  self = address(this) */\n          swap1\n          mstore\n            /* \"contracts/core/GVaultFactory_flattened.sol\":11006:13097  contract GVault is IGVault, IMVersion { ... */\n          jump(tag_8)\n            /* \"#utility.yul\":14:191   */\n        tag_7:\n            /* \"#utility.yul\":93:106   */\n          dup1\n          mload\n          sub(shl(0xa0, 0x01), 0x01)\n            /* \"#utility.yul\":135:166   */\n          dup2\n          and\n            /* \"#utility.yul\":125:167   */\n          dup2\n          eq\n            /* \"#utility.yul\":115:185   */\n          tag_10\n          jumpi\n            /* \"#utility.yul\":181:182   */\n          0x00\n            /* \"#utility.yul\":178:179   */\n          dup1\n            /* \"#utility.yul\":171:183   */\n          revert\n            /* \"#utility.yul\":115:185   */\n        tag_10:\n            /* \"#utility.yul\":14:191   */\n          swap2\n          swap1\n          pop\n          jump\t// out\n            /* \"#utility.yul\":196:1245   */\n        tag_3:\n            /* \"#utility.yul\":296:302   */\n          0x00\n            /* \"#utility.yul\":304:310   */\n          dup1\n            /* \"#utility.yul\":348:357   */\n          dup3\n            /* \"#utility.yul\":339:346   */\n          dup5\n            /* \"#utility.yul\":335:358   */\n          sub\n            /* \"#utility.yul\":378:381   */\n          0xe0\n            /* \"#utility.yul\":374:376   */\n          dup2\n            /* \"#utility.yul\":370:382   */\n          slt\n            /* \"#utility.yul\":367:399   */\n          iszero\n          tag_12\n          jumpi\n            /* \"#utility.yul\":395:396   */\n          0x00\n            /* \"#utility.yul\":392:393   */\n          dup1\n            /* \"#utility.yul\":385:397   */\n          revert\n            /* \"#utility.yul\":367:399   */\n        tag_12:\n            /* \"#utility.yul\":418:458   */\n          tag_13\n            /* \"#utility.yul\":448:457   */\n          dup5\n            /* \"#utility.yul\":418:458   */\n          tag_7\n          jump\t// in\n        tag_13:\n            /* \"#utility.yul\":408:458   */\n          swap3\n          pop\n            /* \"#utility.yul\":492:496   */\n          0xc0\n          not(0x1f)\n            /* \"#utility.yul\":474:490   */\n          dup3\n          add\n            /* \"#utility.yul\":470:497   */\n          slt\n            /* \"#utility.yul\":467:514   */\n          iszero\n          tag_14\n          jumpi\n            /* \"#utility.yul\":510:511   */\n          0x00\n            /* \"#utility.yul\":507:508   */\n          dup1\n            /* \"#utility.yul\":500:512   */\n          revert\n            /* \"#utility.yul\":467:514   */\n        tag_14:\n          pop\n            /* \"#utility.yul\":543:545   */\n          0x40\n            /* \"#utility.yul\":537:546   */\n          mload\n            /* \"#utility.yul\":585:589   */\n          0xc0\n            /* \"#utility.yul\":573:590   */\n          dup2\n          add\n          sub(shl(0x40, 0x01), 0x01)\n            /* \"#utility.yul\":605:639   */\n          dup2\n          gt\n            /* \"#utility.yul\":641:663   */\n          dup3\n          dup3\n          lt\n            /* \"#utility.yul\":602:664   */\n          or\n            /* \"#utility.yul\":599:784   */\n          iszero\n          tag_15\n          jumpi\n            /* \"#utility.yul\":706:716   */\n          0x4e487b71\n            /* \"#utility.yul\":701:704   */\n          0xe0\n            /* \"#utility.yul\":697:717   */\n          shl\n            /* \"#utility.yul\":694:695   */\n          0x00\n            /* \"#utility.yul\":687:718   */\n          mstore\n            /* \"#utility.yul\":741:745   */\n          0x41\n            /* \"#utility.yul\":738:739   */\n          0x04\n            /* \"#utility.yul\":731:746   */\n          mstore\n            /* \"#utility.yul\":769:773   */\n          0x24\n            /* \"#utility.yul\":766:767   */\n          0x00\n            /* \"#utility.yul\":759:774   */\n          revert\n            /* \"#utility.yul\":599:784   */\n        tag_15:\n            /* \"#utility.yul\":800:802   */\n          0x40\n            /* \"#utility.yul\":793:815   */\n          mstore\n            /* \"#utility.yul\":839:888   */\n          tag_16\n            /* \"#utility.yul\":884:886   */\n          0x20\n            /* \"#utility.yul\":869:887   */\n          dup6\n          add\n            /* \"#utility.yul\":839:888   */\n          tag_7\n          jump\t// in\n        tag_16:\n            /* \"#utility.yul\":831:837   */\n          dup2\n            /* \"#utility.yul\":824:889   */\n          mstore\n            /* \"#utility.yul\":943:945   */\n          0x40\n            /* \"#utility.yul\":932:941   */\n          dup5\n            /* \"#utility.yul\":928:946   */\n          add\n            /* \"#utility.yul\":922:947   */\n          mload\n            /* \"#utility.yul\":917:919   */\n          0x20\n            /* \"#utility.yul\":909:915   */\n          dup3\n            /* \"#utility.yul\":905:920   */\n          add\n            /* \"#utility.yul\":898:948   */\n          mstore\n            /* \"#utility.yul\":1002:1004   */\n          0x60\n            /* \"#utility.yul\":991:1000   */\n          dup5\n            /* \"#utility.yul\":987:1005   */\n          add\n            /* \"#utility.yul\":981:1006   */\n          mload\n            /* \"#utility.yul\":976:978   */\n          0x40\n            /* \"#utility.yul\":968:974   */\n          dup3\n            /* \"#utility.yul\":964:979   */\n          add\n            /* \"#utility.yul\":957:1007   */\n          mstore\n            /* \"#utility.yul\":1061:1064   */\n          0x80\n            /* \"#utility.yul\":1050:1059   */\n          dup5\n            /* \"#utility.yul\":1046:1065   */\n          add\n            /* \"#utility.yul\":1040:1066   */\n          mload\n            /* \"#utility.yul\":1035:1037   */\n          0x60\n            /* \"#utility.yul\":1027:1033   */\n          dup3\n            /* \"#utility.yul\":1023:1038   */\n          add\n            /* \"#utility.yul\":1016:1067   */\n          mstore\n            /* \"#utility.yul\":1101:1151   */\n          tag_17\n            /* \"#utility.yul\":1146:1149   */\n          0xa0\n            /* \"#utility.yul\":1135:1144   */\n          dup6\n            /* \"#utility.yul\":1131:1150   */\n          add\n            /* \"#utility.yul\":1101:1151   */\n          tag_7\n          jump\t// in\n        tag_17:\n            /* \"#utility.yul\":1095:1098   */\n          0x80\n            /* \"#utility.yul\":1083:1099   */\n          dup3\n          add\n            /* \"#utility.yul\":1076:1152   */\n          mstore\n            /* \"#utility.yul\":1207:1211   */\n          0xc0\n            /* \"#utility.yul\":1192:1212   */\n          swap4\n          swap1\n          swap4\n          add\n            /* \"#utility.yul\":1186:1213   */\n          mload\n            /* \"#utility.yul\":1180:1183   */\n          0xa0\n            /* \"#utility.yul\":1168:1184   */\n          dup5\n          add\n            /* \"#utility.yul\":1161:1214   */\n          mstore\n          pop\n            /* \"#utility.yul\":196:1245   */\n          swap3\n            /* \"#utility.yul\":1087:1093   */\n          swap1\n          swap2\n          pop\n            /* \"#utility.yul\":196:1245   */\n          jump\t// out\n        tag_8:\n            /* \"contracts/core/GVaultFactory_flattened.sol\":11006:13097  contract GVault is IGVault, IMVersion { ... */\n          mload(0x80)\n          codecopy(0x00, dataOffset(sub_0), dataSize(sub_0))\n          0x00\n          assignImmutable(\"0xc3e7a0f00dec549e28e164b0a86acf4e2ca38757a351368e18554e74f2a07bf0\")\n          return(0x00, dataSize(sub_0))\n        stop\n\n        sub_0: assembly {\n                /* \"contracts/core/GVaultFactory_flattened.sol\":11006:13097  contract GVault is IGVault, IMVersion { ... */\n              mstore(0x40, 0x80)\n              jumpi(tag_1, lt(calldatasize, 0x04))\n              shr(0xe0, calldataload(0x00))\n              dup1\n              0x7299cc83\n              gt\n              tag_11\n              jumpi\n              dup1\n              0x7299cc83\n              eq\n              tag_6\n              jumpi\n              dup1\n              0x7af148c0\n              eq\n              tag_7\n              jumpi\n              dup1\n              0x8aa24983\n              eq\n              tag_8\n              jumpi\n              dup1\n              0x932221fb\n              eq\n              tag_9\n              jumpi\n              dup1\n              0x97a8382b\n              eq\n              tag_10\n              jumpi\n              0x00\n              dup1\n              revert\n            tag_11:\n              dup1\n              0x0d8e6e2c\n              eq\n              tag_2\n              jumpi\n              dup1\n              0x17d7de7c\n              eq\n              tag_3\n              jumpi\n              dup1\n              0x374cc890\n              eq\n              tag_4\n              jumpi\n              dup1\n              0x69d89575\n              eq\n              tag_5\n              jumpi\n            tag_1:\n              0x00\n              dup1\n              revert\n                /* \"contracts/core/GVaultFactory_flattened.sol\":11609:11706  function getVersion() pure external returns (uint256 _version) {... */\n            tag_2:\n              callvalue\n              dup1\n              iszero\n              tag_12\n              jumpi\n              0x00\n              dup1\n              revert\n            tag_12:\n              pop\n                /* \"contracts/core/GVaultFactory_flattened.sol\":11120:11121  2 */\n              0x02\n                /* \"contracts/core/GVaultFactory_flattened.sol\":11609:11706  function getVersion() pure external returns (uint256 _version) {... */\n            tag_13:\n              mload(0x40)\n                /* \"#utility.yul\":160:185   */\n              swap1\n              dup2\n              mstore\n                /* \"#utility.yul\":148:150   */\n              0x20\n                /* \"#utility.yul\":133:151   */\n              add\n                /* \"contracts/core/GVaultFactory_flattened.sol\":11609:11706  function getVersion() pure external returns (uint256 _version) {... */\n            tag_15:\n              mload(0x40)\n              dup1\n              swap2\n              sub\n              swap1\n              return\n                /* \"contracts/core/GVaultFactory_flattened.sol\":11507:11601  function getName() pure external returns (string memory _name) {... */\n            tag_3:\n              callvalue\n              dup1\n              iszero\n              tag_17\n              jumpi\n              0x00\n              dup1\n              revert\n            tag_17:\n              pop\n                /* \"contracts/core/GVaultFactory_flattened.sol\":11588:11592  name */\n              0x40\n              dup1\n              mload\n              dup1\n              dup3\n              add\n              dup3\n              mstore\n              0x07\n              dup2\n              mstore\n              shl(0xca, 0x11d7d590555315)\n              0x20\n              dup3\n              add\n              mstore\n                /* \"contracts/core/GVaultFactory_flattened.sol\":11507:11601  function getName() pure external returns (string memory _name) {... */\n              swap1\n              mload\n              tag_15\n              swap2\n                /* \"contracts/core/GVaultFactory_flattened.sol\":11588:11592  name */\n              swap1\n                /* \"contracts/core/GVaultFactory_flattened.sol\":11507:11601  function getName() pure external returns (string memory _name) {... */\n              tag_21\n              jump\t// in\n                /* \"contracts/core/GVaultFactory_flattened.sol\":11916:12042  function getAmountStored() view external returns (uint256 _amount){... */\n            tag_4:\n              callvalue\n              dup1\n              iszero\n              tag_22\n              jumpi\n              0x00\n              dup1\n              revert\n            tag_22:\n              pop\n              tag_13\n              tag_24\n              jump\t// in\n                /* \"contracts/core/GVaultFactory_flattened.sol\":12466:12877  function releaseFunds() external returns(bool _empty){... */\n            tag_5:\n              callvalue\n              dup1\n              iszero\n              tag_26\n              jumpi\n              0x00\n              dup1\n              revert\n            tag_26:\n              pop\n              tag_27\n              tag_28\n              jump\t// in\n            tag_27:\n              mload(0x40)\n                /* \"#utility.yul\":914:928   */\n              swap1\n              iszero\n                /* \"#utility.yul\":907:929   */\n              iszero\n                /* \"#utility.yul\":889:930   */\n              dup2\n              mstore\n                /* \"#utility.yul\":877:879   */\n              0x20\n                /* \"#utility.yul\":862:880   */\n              add\n                /* \"contracts/core/GVaultFactory_flattened.sol\":12466:12877  function releaseFunds() external returns(bool _empty){... */\n              tag_15\n                /* \"#utility.yul\":749:936   */\n              jump\n                /* \"contracts/core/GVaultFactory_flattened.sol\":12050:12458  function storeFunds() external payable returns (bool _stored){... */\n            tag_6:\n              tag_27\n              tag_32\n              jump\t// in\n                /* \"contracts/core/GVaultFactory_flattened.sol\":11813:11908  function getErc20() view external returns (address _erc20){... */\n            tag_7:\n              callvalue\n              dup1\n              iszero\n              tag_34\n              jumpi\n              0x00\n              dup1\n              revert\n            tag_34:\n              pop\n                /* \"contracts/core/GVaultFactory_flattened.sol\":11856:11870  address _erc20 */\n              0x00\n                /* \"contracts/core/GVaultFactory_flattened.sol\":11889:11899  gilt.erc20 */\n              sload\n                /* \"contracts/core/GVaultFactory_flattened.sol\":11813:11908  function getErc20() view external returns (address _erc20){... */\n              mload(0x40)\n              sub(shl(0xa0, 0x01), 0x01)\n                /* \"contracts/core/GVaultFactory_flattened.sol\":11889:11899  gilt.erc20 */\n              swap1\n              swap2\n              and\n                /* \"#utility.yul\":1087:1138   */\n              dup2\n              mstore\n                /* \"#utility.yul\":1075:1077   */\n              0x20\n                /* \"#utility.yul\":1060:1078   */\n              add\n                /* \"contracts/core/GVaultFactory_flattened.sol\":11813:11908  function getErc20() view external returns (address _erc20){... */\n              tag_15\n                /* \"#utility.yul\":941:1144   */\n              jump\n                /* \"contracts/core/GVaultFactory_flattened.sol\":12992:13089  function isExpended() view external returns (bool _isExpended){... */\n            tag_8:\n              callvalue\n              dup1\n              iszero\n              tag_39\n              jumpi\n              0x00\n              dup1\n              revert\n            tag_39:\n              pop\n                /* \"contracts/core/GVaultFactory_flattened.sol\":13072:13080  expended */\n              sload(0x06)\n              shl(0xa0, 0x01)\n              swap1\n              div\n              0xff\n              and\n                /* \"contracts/core/GVaultFactory_flattened.sol\":12992:13089  function isExpended() view external returns (bool _isExpended){... */\n              jump(tag_27)\n                /* \"contracts/core/GVaultFactory_flattened.sol\":12885:12984  function isCommitted() view external returns(bool _isCommitted){... */\n            tag_9:\n              callvalue\n              dup1\n              iszero\n              tag_43\n              jumpi\n              0x00\n              dup1\n              revert\n            tag_43:\n              pop\n                /* \"contracts/core/GVaultFactory_flattened.sol\":12966:12975  committed */\n              sload(0x06)\n              shl(0xa8, 0x01)\n              swap1\n              div\n              0xff\n              and\n                /* \"contracts/core/GVaultFactory_flattened.sol\":12885:12984  function isCommitted() view external returns(bool _isCommitted){... */\n              jump(tag_27)\n                /* \"contracts/core/GVaultFactory_flattened.sol\":11714:11805  function getGilt() view external returns (Gilt memory _gilt){... */\n            tag_10:\n              callvalue\n              dup1\n              iszero\n              tag_47\n              jumpi\n              0x00\n              dup1\n              revert\n            tag_47:\n              pop\n              tag_48\n              tag_49\n              jump\t// in\n            tag_48:\n              mload(0x40)\n              tag_15\n              swap2\n              swap1\n                /* \"#utility.yul\":1398:1411   */\n              dup2\n              mload\n              sub(shl(0xa0, 0x01), 0x01)\n                /* \"#utility.yul\":1394:1416   */\n              swap1\n              dup2\n              and\n                /* \"#utility.yul\":1376:1417   */\n              dup3\n              mstore\n                /* \"#utility.yul\":1473:1477   */\n              0x20\n                /* \"#utility.yul\":1461:1478   */\n              dup1\n              dup5\n              add\n                /* \"#utility.yul\":1455:1479   */\n              mload\n                /* \"#utility.yul\":1433:1453   */\n              swap1\n              dup4\n              add\n                /* \"#utility.yul\":1426:1480   */\n              mstore\n                /* \"#utility.yul\":1536:1540   */\n              0x40\n                /* \"#utility.yul\":1524:1541   */\n              dup1\n              dup5\n              add\n                /* \"#utility.yul\":1518:1542   */\n              mload\n                /* \"#utility.yul\":1496:1516   */\n              swap1\n              dup4\n              add\n                /* \"#utility.yul\":1489:1543   */\n              mstore\n                /* \"#utility.yul\":1599:1603   */\n              0x60\n                /* \"#utility.yul\":1587:1604   */\n              dup1\n              dup5\n              add\n                /* \"#utility.yul\":1581:1605   */\n              mload\n                /* \"#utility.yul\":1559:1579   */\n              swap1\n              dup4\n              add\n                /* \"#utility.yul\":1552:1606   */\n              mstore\n                /* \"#utility.yul\":1666:1670   */\n              0x80\n                /* \"#utility.yul\":1654:1671   */\n              dup1\n              dup5\n              add\n                /* \"#utility.yul\":1648:1672   */\n              mload\n                /* \"#utility.yul\":1644:1677   */\n              swap1\n              swap2\n              and\n                /* \"#utility.yul\":1622:1642   */\n              swap1\n              dup3\n              add\n                /* \"#utility.yul\":1615:1678   */\n              mstore\n                /* \"#utility.yul\":1356:1359   */\n              0xa0\n                /* \"#utility.yul\":1722:1739   */\n              swap2\n              dup3\n              add\n                /* \"#utility.yul\":1716:1740   */\n              mload\n                /* \"#utility.yul\":1694:1714   */\n              swap2\n              dup2\n              add\n                /* \"#utility.yul\":1687:1741   */\n              swap2\n              swap1\n              swap2\n              mstore\n                /* \"#utility.yul\":1325:1328   */\n              0xc0\n                /* \"#utility.yul\":1310:1329   */\n              add\n              swap1\n                /* \"#utility.yul\":1149:1747   */\n              jump\n                /* \"contracts/core/GVaultFactory_flattened.sol\":11916:12042  function getAmountStored() view external returns (uint256 _amount){... */\n            tag_24:\n                /* \"contracts/core/GVaultFactory_flattened.sol\":11966:11981  uint256 _amount */\n              0x00\n                /* \"contracts/core/GVaultFactory_flattened.sol\":12007:12017  gilt.erc20 */\n              dup1\n              sload\n                /* \"contracts/core/GVaultFactory_flattened.sol\":12000:12034  IERC20(gilt.erc20).balanceOf(self) */\n              mload(0x40)\n              shl(0xe0, 0x70a08231)\n              dup2\n              mstore\n              sub(shl(0xa0, 0x01), 0x01)\n                /* \"contracts/core/GVaultFactory_flattened.sol\":12029:12033  self */\n              immutable(\"0xc3e7a0f00dec549e28e164b0a86acf4e2ca38757a351368e18554e74f2a07bf0\")\n                /* \"#utility.yul\":1105:1137   */\n              dup2\n              and\n                /* \"contracts/core/GVaultFactory_flattened.sol\":12000:12034  IERC20(gilt.erc20).balanceOf(self) */\n              0x04\n              dup4\n              add\n                /* \"#utility.yul\":1087:1138   */\n              mstore\n                /* \"contracts/core/GVaultFactory_flattened.sol\":12007:12017  gilt.erc20 */\n              swap1\n              swap2\n              and\n              swap1\n                /* \"contracts/core/GVaultFactory_flattened.sol\":12000:12028  IERC20(gilt.erc20).balanceOf */\n              0x70a08231\n              swap1\n                /* \"#utility.yul\":1060:1078   */\n              0x24\n              add\n                /* \"contracts/core/GVaultFactory_flattened.sol\":12000:12034  IERC20(gilt.erc20).balanceOf(self) */\n              0x20\n              mload(0x40)\n              dup1\n              dup4\n              sub\n              dup2\n              dup7\n              gas\n              staticcall\n              iszero\n              dup1\n              iszero\n              tag_57\n              jumpi\n              returndatasize\n              0x00\n              dup1\n              returndatacopy\n              revert(0x00, returndatasize)\n            tag_57:\n              pop\n              pop\n              pop\n              pop\n              mload(0x40)\n              returndatasize\n              not(0x1f)\n              0x1f\n              dup3\n              add\n              and\n              dup3\n              add\n              dup1\n              0x40\n              mstore\n              pop\n              dup2\n              add\n              swap1\n              tag_58\n              swap2\n              swap1\n              tag_59\n              jump\t// in\n            tag_58:\n                /* \"contracts/core/GVaultFactory_flattened.sol\":11993:12034  return IERC20(gilt.erc20).balanceOf(self) */\n              swap1\n              pop\n                /* \"contracts/core/GVaultFactory_flattened.sol\":11916:12042  function getAmountStored() view external returns (uint256 _amount){... */\n              swap1\n              jump\t// out\n                /* \"contracts/core/GVaultFactory_flattened.sol\":12466:12877  function releaseFunds() external returns(bool _empty){... */\n            tag_28:\n                /* \"contracts/core/GVaultFactory_flattened.sol\":12538:12547  committed */\n              sload(0x06)\n                /* \"contracts/core/GVaultFactory_flattened.sol\":12507:12518  bool _empty */\n              0x00\n              swap1\n              shl(0xa8, 0x01)\n                /* \"contracts/core/GVaultFactory_flattened.sol\":12538:12547  committed */\n              swap1\n              div\n              0xff\n              and\n                /* \"contracts/core/GVaultFactory_flattened.sol\":12530:12571  require(committed, \"vault not committed\") */\n              tag_61\n              jumpi\n              mload(0x40)\n              shl(0xe5, 0x461bcd)\n              dup2\n              mstore\n                /* \"#utility.yul\":2143:2145   */\n              0x20\n                /* \"contracts/core/GVaultFactory_flattened.sol\":12530:12571  require(committed, \"vault not committed\") */\n              0x04\n              dup3\n              add\n                /* \"#utility.yul\":2125:2146   */\n              mstore\n                /* \"#utility.yul\":2182:2184   */\n              0x13\n                /* \"#utility.yul\":2162:2180   */\n              0x24\n              dup3\n              add\n                /* \"#utility.yul\":2155:2185   */\n              mstore\n              shl(0x6a, 0x1d985d5b1d081b9bdd0818dbdb5b5a5d1d1959)\n                /* \"#utility.yul\":2201:2219   */\n              0x44\n              dup3\n              add\n                /* \"#utility.yul\":2194:2243   */\n              mstore\n                /* \"#utility.yul\":2260:2278   */\n              0x64\n              add\n                /* \"contracts/core/GVaultFactory_flattened.sol\":12530:12571  require(committed, \"vault not committed\") */\n            tag_62:\n              mload(0x40)\n              dup1\n              swap2\n              sub\n              swap1\n              revert\n            tag_61:\n                /* \"contracts/core/GVaultFactory_flattened.sol\":12591:12599  expended */\n              sload(0x06)\n              shl(0xa0, 0x01)\n              swap1\n              div\n              0xff\n              and\n                /* \"contracts/core/GVaultFactory_flattened.sol\":12590:12599  !expended */\n              iszero\n                /* \"contracts/core/GVaultFactory_flattened.sol\":12582:12618  require(!expended, \"vault expended\") */\n              tag_64\n              jumpi\n              mload(0x40)\n              shl(0xe5, 0x461bcd)\n              dup2\n              mstore\n                /* \"#utility.yul\":2491:2493   */\n              0x20\n                /* \"contracts/core/GVaultFactory_flattened.sol\":12582:12618  require(!expended, \"vault expended\") */\n              0x04\n              dup3\n              add\n                /* \"#utility.yul\":2473:2494   */\n              mstore\n                /* \"#utility.yul\":2530:2532   */\n              0x0e\n                /* \"#utility.yul\":2510:2528   */\n              0x24\n              dup3\n              add\n                /* \"#utility.yul\":2503:2533   */\n              mstore\n              shl(0x92, 0x1d985d5b1d08195e1c195b991959)\n                /* \"#utility.yul\":2549:2567   */\n              0x44\n              dup3\n              add\n                /* \"#utility.yul\":2542:2586   */\n              mstore\n                /* \"#utility.yul\":2603:2621   */\n              0x64\n              add\n                /* \"contracts/core/GVaultFactory_flattened.sol\":12582:12618  require(!expended, \"vault expended\") */\n              tag_62\n                /* \"#utility.yul\":2289:2627   */\n              jump\n                /* \"contracts/core/GVaultFactory_flattened.sol\":12582:12618  require(!expended, \"vault expended\") */\n            tag_64:\n                /* \"contracts/core/GVaultFactory_flattened.sol\":12629:12637  expended */\n              0x06\n                /* \"contracts/core/GVaultFactory_flattened.sol\":12629:12644  expended = true */\n              dup1\n              sload\n              shl(0xa0, 0x01)\n              not(shl(0xa0, 0xff))\n              swap1\n              swap2\n              and\n              or\n              swap1\n              sstore\n              0x00\n                /* \"contracts/core/GVaultFactory_flattened.sol\":12659:12669  gilt.erc20 */\n              sload\n              sub(shl(0xa0, 0x01), 0x01)\n              and\n              not(0xeeeeeeeeeeeeeeeeeeeeeeeeeeeeeeeeeeeeeeed)\n                /* \"contracts/core/GVaultFactory_flattened.sol\":12659:12679  gilt.erc20 == NATIVE */\n              add\n                /* \"contracts/core/GVaultFactory_flattened.sol\":12656:12843  if(gilt.erc20 == NATIVE) {... */\n              tag_67\n              jumpi\n                /* \"contracts/core/GVaultFactory_flattened.sol\":12696:12738  payable(msg.sender).transfer(self.balance) */\n              mload(0x40)\n                /* \"contracts/core/GVaultFactory_flattened.sol\":12704:12714  msg.sender */\n              caller\n              swap1\n                /* \"contracts/core/GVaultFactory_flattened.sol\":12725:12729  self */\n              immutable(\"0xc3e7a0f00dec549e28e164b0a86acf4e2ca38757a351368e18554e74f2a07bf0\")\n              sub(shl(0xa0, 0x01), 0x01)\n                /* \"contracts/core/GVaultFactory_flattened.sol\":12725:12737  self.balance */\n              and\n              balance\n                /* \"contracts/core/GVaultFactory_flattened.sol\":12696:12738  payable(msg.sender).transfer(self.balance) */\n              dup1\n              iszero\n              0x08fc\n              mul\n              swap2\n              0x00\n              dup2\n              dup2\n              dup2\n                /* \"contracts/core/GVaultFactory_flattened.sol\":12725:12737  self.balance */\n              dup6\n                /* \"contracts/core/GVaultFactory_flattened.sol\":12704:12714  msg.sender */\n              dup9\n                /* \"contracts/core/GVaultFactory_flattened.sol\":12696:12738  payable(msg.sender).transfer(self.balance) */\n              dup9\n              call\n              swap4\n              pop\n              pop\n              pop\n              pop\n              iszero\n              dup1\n              iszero\n              tag_69\n              jumpi\n              returndatasize\n              0x00\n              dup1\n              returndatacopy\n              revert(0x00, returndatasize)\n            tag_69:\n              pop\n                /* \"contracts/core/GVaultFactory_flattened.sol\":12656:12843  if(gilt.erc20 == NATIVE) {... */\n              jump(tag_70)\n            tag_67:\n                /* \"contracts/core/GVaultFactory_flattened.sol\":12787:12791  gilt */\n              0x00\n                /* \"contracts/core/GVaultFactory_flattened.sol\":12787:12797  gilt.erc20 */\n              sload\n              0x01\n                /* \"contracts/core/GVaultFactory_flattened.sol\":12819:12830  gilt.amount */\n              sload\n                /* \"contracts/core/GVaultFactory_flattened.sol\":12780:12831  IERC20(gilt.erc20).approve(msg.sender, gilt.amount) */\n              mload(0x40)\n              shl(0xe0, 0x095ea7b3)\n              dup2\n              mstore\n                /* \"contracts/core/GVaultFactory_flattened.sol\":12807:12817  msg.sender */\n              caller\n                /* \"contracts/core/GVaultFactory_flattened.sol\":12780:12831  IERC20(gilt.erc20).approve(msg.sender, gilt.amount) */\n              0x04\n              dup3\n              add\n                /* \"#utility.yul\":2806:2857   */\n              mstore\n                /* \"#utility.yul\":2873:2891   */\n              0x24\n              dup2\n              add\n                /* \"#utility.yul\":2866:2900   */\n              swap2\n              swap1\n              swap2\n              mstore\n              sub(shl(0xa0, 0x01), 0x01)\n                /* \"contracts/core/GVaultFactory_flattened.sol\":12787:12797  gilt.erc20 */\n              swap1\n              swap2\n              and\n              swap1\n                /* \"contracts/core/GVaultFactory_flattened.sol\":12780:12806  IERC20(gilt.erc20).approve */\n              0x095ea7b3\n              swap1\n                /* \"#utility.yul\":2779:2797   */\n              0x44\n              add\n                /* \"contracts/core/GVaultFactory_flattened.sol\":12780:12831  IERC20(gilt.erc20).approve(msg.sender, gilt.amount) */\n              0x20\n              mload(0x40)\n              dup1\n              dup4\n              sub\n              dup2\n              0x00\n              dup8\n              gas\n              call\n              iszero\n              dup1\n              iszero\n              tag_74\n              jumpi\n              returndatasize\n              0x00\n              dup1\n              returndatacopy\n              revert(0x00, returndatasize)\n            tag_74:\n              pop\n              pop\n              pop\n              pop\n              mload(0x40)\n              returndatasize\n              not(0x1f)\n              0x1f\n              dup3\n              add\n              and\n              dup3\n              add\n              dup1\n              0x40\n              mstore\n              pop\n              dup2\n              add\n              swap1\n              tag_75\n              swap2\n              swap1\n              tag_76\n              jump\t// in\n            tag_75:\n              pop\n                /* \"contracts/core/GVaultFactory_flattened.sol\":12656:12843  if(gilt.erc20 == NATIVE) {... */\n            tag_70:\n              pop\n                /* \"contracts/core/GVaultFactory_flattened.sol\":12860:12868  expended */\n              sload(0x06)\n              shl(0xa0, 0x01)\n              swap1\n              div\n              0xff\n              and\n              swap1\n                /* \"contracts/core/GVaultFactory_flattened.sol\":12466:12877  function releaseFunds() external returns(bool _empty){... */\n              jump\t// out\n                /* \"contracts/core/GVaultFactory_flattened.sol\":12050:12458  function storeFunds() external payable returns (bool _stored){... */\n            tag_32:\n                /* \"contracts/core/GVaultFactory_flattened.sol\":12131:12140  committed */\n              sload(0x06)\n                /* \"contracts/core/GVaultFactory_flattened.sol\":12098:12110  bool _stored */\n              0x00\n              swap1\n              shl(0xa8, 0x01)\n                /* \"contracts/core/GVaultFactory_flattened.sol\":12131:12140  committed */\n              swap1\n              div\n              0xff\n              and\n                /* \"contracts/core/GVaultFactory_flattened.sol\":12130:12140  !committed */\n              iszero\n                /* \"contracts/core/GVaultFactory_flattened.sol\":12122:12160  require(!committed, \"vault committed\") */\n              tag_78\n              jumpi\n              mload(0x40)\n              shl(0xe5, 0x461bcd)\n              dup2\n              mstore\n                /* \"#utility.yul\":3395:3397   */\n              0x20\n                /* \"contracts/core/GVaultFactory_flattened.sol\":12122:12160  require(!committed, \"vault committed\") */\n              0x04\n              dup3\n              add\n                /* \"#utility.yul\":3377:3398   */\n              mstore\n                /* \"#utility.yul\":3434:3436   */\n              0x0f\n                /* \"#utility.yul\":3414:3432   */\n              0x24\n              dup3\n              add\n                /* \"#utility.yul\":3407:3437   */\n              mstore\n              shl(0x8a, 0x1d985d5b1d0818dbdb5b5a5d1d1959)\n                /* \"#utility.yul\":3453:3471   */\n              0x44\n              dup3\n              add\n                /* \"#utility.yul\":3446:3491   */\n              mstore\n                /* \"#utility.yul\":3508:3526   */\n              0x64\n              add\n                /* \"contracts/core/GVaultFactory_flattened.sol\":12122:12160  require(!committed, \"vault committed\") */\n              tag_62\n                /* \"#utility.yul\":3193:3532   */\n              jump\n                /* \"contracts/core/GVaultFactory_flattened.sol\":12122:12160  require(!committed, \"vault committed\") */\n            tag_78:\n                /* \"contracts/core/GVaultFactory_flattened.sol\":12171:12180  committed */\n              0x06\n                /* \"contracts/core/GVaultFactory_flattened.sol\":12171:12187  committed = true */\n              dup1\n              sload\n              shl(0xa8, 0x01)\n              not(shl(0xa8, 0xff))\n              swap1\n              swap2\n              and\n              or\n              swap1\n              sstore\n              0x00\n                /* \"contracts/core/GVaultFactory_flattened.sol\":12202:12212  gilt.erc20 */\n              sload\n              sub(shl(0xa0, 0x01), 0x01)\n              and\n              not(0xeeeeeeeeeeeeeeeeeeeeeeeeeeeeeeeeeeeeeeed)\n                /* \"contracts/core/GVaultFactory_flattened.sol\":12202:12222  gilt.erc20 == NATIVE */\n              add\n                /* \"contracts/core/GVaultFactory_flattened.sol\":12199:12428  if(gilt.erc20 == NATIVE) {... */\n              tag_81\n              jumpi\n                /* \"contracts/core/GVaultFactory_flattened.sol\":12260:12271  gilt.amount */\n              sload(0x01)\n                /* \"contracts/core/GVaultFactory_flattened.sol\":12247:12256  msg.value */\n              callvalue\n                /* \"contracts/core/GVaultFactory_flattened.sol\":12247:12271  msg.value >= gilt.amount */\n              lt\n              iszero\n                /* \"contracts/core/GVaultFactory_flattened.sol\":12239:12312  require(msg.value >= gilt.amount, \" NATIVE token transmission mis-match\") */\n              tag_82\n              jumpi\n              mload(0x40)\n              shl(0xe5, 0x461bcd)\n              dup2\n              mstore\n                /* \"#utility.yul\":3739:3741   */\n              0x20\n                /* \"contracts/core/GVaultFactory_flattened.sol\":12239:12312  require(msg.value >= gilt.amount, \" NATIVE token transmission mis-match\") */\n              0x04\n              dup3\n              add\n                /* \"#utility.yul\":3721:3742   */\n              mstore\n                /* \"#utility.yul\":3778:3780   */\n              0x24\n                /* \"#utility.yul\":3758:3776   */\n              dup1\n              dup3\n              add\n                /* \"#utility.yul\":3751:3781   */\n              mstore\n                /* \"#utility.yul\":3817:3851   */\n              0x204e415449564520746f6b656e207472616e736d697373696f6e206d69732d6d\n                /* \"#utility.yul\":3797:3815   */\n              0x44\n              dup3\n              add\n                /* \"#utility.yul\":3790:3852   */\n              mstore\n              shl(0xe3, 0x0c2e8c6d)\n                /* \"#utility.yul\":3868:3886   */\n              0x64\n              dup3\n              add\n                /* \"#utility.yul\":3861:3895   */\n              mstore\n                /* \"#utility.yul\":3912:3931   */\n              0x84\n              add\n                /* \"contracts/core/GVaultFactory_flattened.sol\":12239:12312  require(msg.value >= gilt.amount, \" NATIVE token transmission mis-match\") */\n              tag_62\n                /* \"#utility.yul\":3537:3937   */\n              jump\n                /* \"contracts/core/GVaultFactory_flattened.sol\":12239:12312  require(msg.value >= gilt.amount, \" NATIVE token transmission mis-match\") */\n            tag_82:\n                /* \"contracts/core/GVaultFactory_flattened.sol\":12199:12428  if(gilt.erc20 == NATIVE) {... */\n              jump(tag_85)\n            tag_81:\n                /* \"contracts/core/GVaultFactory_flattened.sol\":12361:12365  gilt */\n              0x00\n                /* \"contracts/core/GVaultFactory_flattened.sol\":12361:12371  gilt.erc20 */\n              sload\n              0x01\n                /* \"contracts/core/GVaultFactory_flattened.sol\":12404:12415  gilt.amount */\n              sload\n                /* \"contracts/core/GVaultFactory_flattened.sol\":12354:12416  IERC20(gilt.erc20).transferFrom(msg.sender, self, gilt.amount) */\n              mload(0x40)\n              shl(0xe0, 0x23b872dd)\n              dup2\n              mstore\n                /* \"contracts/core/GVaultFactory_flattened.sol\":12386:12396  msg.sender */\n              caller\n                /* \"contracts/core/GVaultFactory_flattened.sol\":12354:12416  IERC20(gilt.erc20).transferFrom(msg.sender, self, gilt.amount) */\n              0x04\n              dup3\n              add\n                /* \"#utility.yul\":4182:4216   */\n              mstore\n              sub(shl(0xa0, 0x01), 0x01)\n                /* \"contracts/core/GVaultFactory_flattened.sol\":12398:12402  self */\n              immutable(\"0xc3e7a0f00dec549e28e164b0a86acf4e2ca38757a351368e18554e74f2a07bf0\")\n                /* \"#utility.yul\":4252:4267   */\n              dup2\n              and\n                /* \"#utility.yul\":4232:4250   */\n              0x24\n              dup4\n              add\n                /* \"#utility.yul\":4225:4268   */\n              mstore\n                /* \"#utility.yul\":4284:4302   */\n              0x44\n              dup3\n              add\n                /* \"#utility.yul\":4277:4311   */\n              swap3\n              swap1\n              swap3\n              mstore\n                /* \"contracts/core/GVaultFactory_flattened.sol\":12361:12371  gilt.erc20 */\n              swap2\n              and\n              swap1\n                /* \"contracts/core/GVaultFactory_flattened.sol\":12354:12385  IERC20(gilt.erc20).transferFrom */\n              0x23b872dd\n              swap1\n                /* \"#utility.yul\":4117:4135   */\n              0x64\n              add\n                /* \"contracts/core/GVaultFactory_flattened.sol\":12354:12416  IERC20(gilt.erc20).transferFrom(msg.sender, self, gilt.amount) */\n              0x20\n              mload(0x40)\n              dup1\n              dup4\n              sub\n              dup2\n              0x00\n              dup8\n              gas\n              call\n              iszero\n              dup1\n              iszero\n              tag_89\n              jumpi\n              returndatasize\n              0x00\n              dup1\n              returndatacopy\n              revert(0x00, returndatasize)\n            tag_89:\n              pop\n              pop\n              pop\n              pop\n              mload(0x40)\n              returndatasize\n              not(0x1f)\n              0x1f\n              dup3\n              add\n              and\n              dup3\n              add\n              dup1\n              0x40\n              mstore\n              pop\n              dup2\n              add\n              swap1\n              tag_90\n              swap2\n              swap1\n              tag_76\n              jump\t// in\n            tag_90:\n              pop\n                /* \"contracts/core/GVaultFactory_flattened.sol\":12199:12428  if(gilt.erc20 == NATIVE) {... */\n            tag_85:\n              pop\n                /* \"contracts/core/GVaultFactory_flattened.sol\":12445:12449  true */\n              0x01\n              swap1\n                /* \"contracts/core/GVaultFactory_flattened.sol\":12050:12458  function storeFunds() external payable returns (bool _stored){... */\n              jump\t// out\n                /* \"contracts/core/GVaultFactory_flattened.sol\":11714:11805  function getGilt() view external returns (Gilt memory _gilt){... */\n            tag_49:\n                /* \"contracts/core/GVaultFactory_flattened.sol\":11756:11773  Gilt memory _gilt */\n              tag_94\n              mload(0x40)\n              dup1\n              0xc0\n              add\n              0x40\n              mstore\n              dup1\n              and(sub(shl(0xa0, 0x01), 0x01), 0x00)\n              dup2\n              mstore\n              0x20\n              add\n              0x00\n              dup2\n              mstore\n              0x20\n              add\n              0x00\n              dup2\n              mstore\n              0x20\n              add\n              0x00\n              dup2\n              mstore\n              0x20\n              add\n              and(sub(shl(0xa0, 0x01), 0x01), 0x00)\n              dup2\n              mstore\n              0x20\n              add\n              0x00\n              dup2\n              mstore\n              pop\n              swap1\n              jump\n            tag_94:\n              pop\n                /* \"contracts/core/GVaultFactory_flattened.sol\":11785:11796  return gilt */\n              0x40\n              dup1\n              mload\n              0xc0\n              dup2\n              add\n              dup3\n              mstore\n                /* \"contracts/core/GVaultFactory_flattened.sol\":11792:11796  gilt */\n              0x00\n                /* \"contracts/core/GVaultFactory_flattened.sol\":11785:11796  return gilt */\n              sload\n              sub(shl(0xa0, 0x01), 0x01)\n              swap1\n              dup2\n              and\n              dup3\n              mstore\n              sload(0x01)\n              0x20\n              dup4\n              add\n              mstore\n              sload(0x02)\n              swap3\n              dup3\n              add\n              swap3\n              swap1\n              swap3\n              mstore\n              sload(0x03)\n              0x60\n              dup3\n              add\n              mstore\n              sload(0x04)\n              swap1\n              swap2\n              and\n              0x80\n              dup3\n              add\n              mstore\n              sload(0x05)\n              0xa0\n              dup3\n              add\n              mstore\n              swap1\n                /* \"contracts/core/GVaultFactory_flattened.sol\":11714:11805  function getGilt() view external returns (Gilt memory _gilt){... */\n              jump\t// out\n                /* \"#utility.yul\":196:744   */\n            tag_21:\n                /* \"#utility.yul\":308:312   */\n              0x00\n                /* \"#utility.yul\":337:339   */\n              0x20\n                /* \"#utility.yul\":366:368   */\n              dup1\n                /* \"#utility.yul\":355:364   */\n              dup4\n                /* \"#utility.yul\":348:369   */\n              mstore\n                /* \"#utility.yul\":398:404   */\n              dup4\n                /* \"#utility.yul\":392:405   */\n              mload\n                /* \"#utility.yul\":441:447   */\n              dup1\n                /* \"#utility.yul\":436:438   */\n              0x20\n                /* \"#utility.yul\":425:434   */\n              dup6\n                /* \"#utility.yul\":421:439   */\n              add\n                /* \"#utility.yul\":414:448   */\n              mstore\n                /* \"#utility.yul\":466:467   */\n              0x00\n                /* \"#utility.yul\":476:616   */\n            tag_100:\n                /* \"#utility.yul\":490:496   */\n              dup2\n                /* \"#utility.yul\":487:488   */\n              dup2\n                /* \"#utility.yul\":484:497   */\n              lt\n                /* \"#utility.yul\":476:616   */\n              iszero\n              tag_102\n              jumpi\n                /* \"#utility.yul\":585:599   */\n              dup6\n              dup2\n              add\n                /* \"#utility.yul\":581:604   */\n              dup4\n              add\n                /* \"#utility.yul\":575:605   */\n              mload\n                /* \"#utility.yul\":551:568   */\n              dup6\n              dup3\n              add\n                /* \"#utility.yul\":570:572   */\n              0x40\n                /* \"#utility.yul\":547:573   */\n              add\n                /* \"#utility.yul\":540:606   */\n              mstore\n                /* \"#utility.yul\":505:515   */\n              dup3\n              add\n                /* \"#utility.yul\":476:616   */\n              jump(tag_100)\n            tag_102:\n                /* \"#utility.yul\":480:483   */\n              pop\n                /* \"#utility.yul\":665:666   */\n              0x00\n                /* \"#utility.yul\":660:662   */\n              0x40\n                /* \"#utility.yul\":651:657   */\n              dup3\n                /* \"#utility.yul\":640:649   */\n              dup7\n                /* \"#utility.yul\":636:658   */\n              add\n                /* \"#utility.yul\":632:663   */\n              add\n                /* \"#utility.yul\":625:667   */\n              mstore\n                /* \"#utility.yul\":735:737   */\n              0x40\n                /* \"#utility.yul\":728:730   */\n              0x1f\n                /* \"#utility.yul\":724:731   */\n              not\n                /* \"#utility.yul\":719:721   */\n              0x1f\n                /* \"#utility.yul\":711:717   */\n              dup4\n                /* \"#utility.yul\":707:722   */\n              add\n                /* \"#utility.yul\":703:732   */\n              and\n                /* \"#utility.yul\":692:701   */\n              dup6\n                /* \"#utility.yul\":688:733   */\n              add\n                /* \"#utility.yul\":684:738   */\n              add\n                /* \"#utility.yul\":676:738   */\n              swap3\n              pop\n              pop\n              pop\n                /* \"#utility.yul\":196:744   */\n              swap3\n              swap2\n              pop\n              pop\n              jump\t// out\n                /* \"#utility.yul\":1752:1936   */\n            tag_59:\n                /* \"#utility.yul\":1822:1828   */\n              0x00\n                /* \"#utility.yul\":1875:1877   */\n              0x20\n                /* \"#utility.yul\":1863:1872   */\n              dup3\n                /* \"#utility.yul\":1854:1861   */\n              dup5\n                /* \"#utility.yul\":1850:1873   */\n              sub\n                /* \"#utility.yul\":1846:1878   */\n              slt\n                /* \"#utility.yul\":1843:1895   */\n              iszero\n              tag_107\n              jumpi\n                /* \"#utility.yul\":1891:1892   */\n              0x00\n                /* \"#utility.yul\":1888:1889   */\n              dup1\n                /* \"#utility.yul\":1881:1893   */\n              revert\n                /* \"#utility.yul\":1843:1895   */\n            tag_107:\n              pop\n                /* \"#utility.yul\":1914:1930   */\n              mload\n              swap2\n                /* \"#utility.yul\":1752:1936   */\n              swap1\n              pop\n              jump\t// out\n                /* \"#utility.yul\":2911:3188   */\n            tag_76:\n                /* \"#utility.yul\":2978:2984   */\n              0x00\n                /* \"#utility.yul\":3031:3033   */\n              0x20\n                /* \"#utility.yul\":3019:3028   */\n              dup3\n                /* \"#utility.yul\":3010:3017   */\n              dup5\n                /* \"#utility.yul\":3006:3029   */\n              sub\n                /* \"#utility.yul\":3002:3034   */\n              slt\n                /* \"#utility.yul\":2999:3051   */\n              iszero\n              tag_112\n              jumpi\n                /* \"#utility.yul\":3047:3048   */\n              0x00\n                /* \"#utility.yul\":3044:3045   */\n              dup1\n                /* \"#utility.yul\":3037:3049   */\n              revert\n                /* \"#utility.yul\":2999:3051   */\n            tag_112:\n                /* \"#utility.yul\":3079:3088   */\n              dup2\n                /* \"#utility.yul\":3073:3089   */\n              mload\n                /* \"#utility.yul\":3132:3137   */\n              dup1\n                /* \"#utility.yul\":3125:3138   */\n              iszero\n                /* \"#utility.yul\":3118:3139   */\n              iszero\n                /* \"#utility.yul\":3111:3116   */\n              dup2\n                /* \"#utility.yul\":3108:3140   */\n              eq\n                /* \"#utility.yul\":3098:3158   */\n              tag_113\n              jumpi\n                /* \"#utility.yul\":3154:3155   */\n              0x00\n                /* \"#utility.yul\":3151:3152   */\n              dup1\n                /* \"#utility.yul\":3144:3156   */\n              revert\n                /* \"#utility.yul\":3098:3158   */\n            tag_113:\n                /* \"#utility.yul\":3177:3182   */\n              swap4\n                /* \"#utility.yul\":2911:3188   */\n              swap3\n              pop\n              pop\n              pop\n              jump\t// out\n\n            auxdata: 0xa2646970667358221220ef00c6f665167f9f8a51fc57a2c64f76300ef7d9e8f33fcd24b39c622d7d534264736f6c63430008170033\n        }\n    }\n\n    auxdata: 0xa26469706673582212205da9a769bb3429e94bee9c23065f76668febd5b0f01def166281b447cca3d97364736f6c63430008170033\n}\n",
				"bytecode": {
					"linkReferences": {},
					"object": "608060405234801561001057600080fd5b50604051610fb1380380610fb183398101604081905261002f91610054565b600080546001600160a01b0319166001600160a01b0392909216919091179055610084565b60006020828403121561006657600080fd5b81516001600160a01b038116811461007d57600080fd5b9392505050565b610f1e806100936000396000f3fe608060405234801561001057600080fd5b50600436106100575760003560e01c80630d8e6e2c1461005c57806317d7de7c1461007057806344d00f82146100af57806357a9913b146100c4578063d8e45a09146100ef575b600080fd5b604051600281526020015b60405180910390f35b604080518082018252601881527f52455345525645445f475f5641554c545f464143544f52590000000000000000602082015290516100679190610469565b6100b761012b565b60405161006791906104b8565b6100d76100d2366004610528565b610273565b6040516001600160a01b039091168152602001610067565b61011b6100fd3660046105bc565b6001600160a01b031660009081526002602052604090205460ff1690565b6040519015158152602001610067565b600054604080518082018252601081526f2922a9a2a92b22a22fa6afa0a226a4a760811b6020820152905163bf40fac160e01b81526060926001600160a01b03169163bf40fac1916101809190600401610469565b602060405180830381865afa15801561019d573d6000803e3d6000fd5b505050506040513d601f19601f820116820180604052508101906101c191906105e0565b6001600160a01b0316336001600160a01b0316146102135760405162461bcd60e51b815260206004820152600a60248201526961646d696e206f6e6c7960b01b60448201526064015b60405180910390fd5b600180548060200260200160405190810160405280929190818152602001828054801561026957602002820191906000526020600020905b81546001600160a01b0316815260019091019060200180831161024b575b5050505050905090565b600080546040805180820182526016815275149154d15495915117d1d2531517d0d3d395149050d560521b6020820152905163bf40fac160e01b81526001600160a01b039092169163bf40fac1916102cd91600401610469565b602060405180830381865afa1580156102ea573d6000803e3d6000fd5b505050506040513d601f19601f8201168201806040525081019061030e91906105e0565b6001600160a01b0316336001600160a01b0316146103635760405162461bcd60e51b815260206004820152601260248201527167696c7420636f6e7472616374206f6e6c7960701b604482015260640161020a565b6000546040516001600160a01b039091169083906103809061045c565b6001600160a01b0392831681528151831660208083019190915282015160408083019190915282015160608083019190915282015160808083019190915282015190921660a080840191909152015160c082015260e001604051809103906000f0801580156103f3573d6000803e3d6000fd5b506001805480820182557fb10e2d527612073b26eecdfd717e6a320cf44b4afac2b0732d9fcbe2b7fa0cf60180546001600160a01b0319166001600160a01b0384169081179091556000908152600260205260409020805460ff1916909117905590505b919050565b6108eb806105fe83390190565b60006020808352835180602085015260005b818110156104975785810183015185820160400152820161047b565b506000604082860101526040601f19601f8301168501019250505092915050565b6020808252825182820181905260009190848201906040850190845b818110156104f95783516001600160a01b0316835292840192918401916001016104d4565b50909695505050505050565b6001600160a01b038116811461051a57600080fd5b50565b803561045781610505565b600060c0828403121561053a57600080fd5b60405160c0810181811067ffffffffffffffff8211171561056b57634e487b7160e01b600052604160045260246000fd5b6040526105778361051d565b81526020830135602082015260408301356040820152606083013560608201526105a36080840161051d565b608082015260a083013560a08201528091505092915050565b6000602082840312156105ce57600080fd5b81356105d981610505565b9392505050565b6000602082840312156105f257600080fd5b81516105d98161050556fe60a06040526006805461ffff60a01b1916905534801561001e57600080fd5b506040516108eb3803806108eb83398101604081905261003d916100ca565b8051600080546001600160a01b039283166001600160a01b0319918216179091556020830151600155604083015160025560608301516003556080808401516004805491851691841691909117905560a090930151600555600680549490921693169290921790915530905261017f565b80516001600160a01b03811681146100c557600080fd5b919050565b60008082840360e08112156100de57600080fd5b6100e7846100ae565b925060c0601f19820112156100fb57600080fd5b5060405160c081016001600160401b038111828210171561012c57634e487b7160e01b600052604160045260246000fd5b60405261013b602085016100ae565b815260408401516020820152606084015160408201526080840151606082015261016760a085016100ae565b608082015260c0939093015160a08401525092909150565b6080516107436101a8600039600081816102110152818161036f015261056101526107436000f3fe6080604052600436106100865760003560e01c80637299cc83116100595780637299cc831461011e5780637af148c0146101265780638aa249831461014e578063932221fb1461016d57806397a8382b1461018c57600080fd5b80630d8e6e2c1461008b57806317d7de7c146100ae578063374cc890146100e457806369d89575146100f9575b600080fd5b34801561009757600080fd5b5060025b6040519081526020015b60405180910390f35b3480156100ba57600080fd5b50604080518082018252600781526611d7d59055531560ca1b602082015290516100a5919061067c565b3480156100f057600080fd5b5061009b6101f6565b34801561010557600080fd5b5061010e61028a565b60405190151581526020016100a5565b61010e610450565b34801561013257600080fd5b506000546040516001600160a01b0390911681526020016100a5565b34801561015a57600080fd5b50600654600160a01b900460ff1661010e565b34801561017957600080fd5b50600654600160a81b900460ff1661010e565b34801561019857600080fd5b506101a16105e6565b6040516100a5919081516001600160a01b0390811682526020808401519083015260408084015190830152606080840151908301526080808401519091169082015260a0918201519181019190915260c00190565b600080546040516370a0823160e01b81526001600160a01b037f000000000000000000000000000000000000000000000000000000000000000081166004830152909116906370a0823190602401602060405180830381865afa158015610261573d6000803e3d6000fd5b505050506040513d601f19601f8201168201806040525081019061028591906106cb565b905090565b600654600090600160a81b900460ff166102e15760405162461bcd60e51b81526020600482015260136024820152721d985d5b1d081b9bdd0818dbdb5b5a5d1d1959606a1b60448201526064015b60405180910390fd5b600654600160a01b900460ff161561032c5760405162461bcd60e51b815260206004820152600e60248201526d1d985d5b1d08195e1c195b99195960921b60448201526064016102d8565b60068054600160a01b60ff60a01b199091161790556000546001600160a01b031673eeeeeeeeeeeeeeeeeeeeeeeeeeeeeeeeeeeeeeed19016103c45760405133907f00000000000000000000000000000000000000000000000000000000000000006001600160a01b03163180156108fc02916000818181858888f193505050501580156103be573d6000803e3d6000fd5b5061043f565b60005460015460405163095ea7b360e01b815233600482015260248101919091526001600160a01b039091169063095ea7b3906044016020604051808303816000875af1158015610419573d6000803e3d6000fd5b505050506040513d601f19601f8201168201806040525081019061043d91906106e4565b505b50600654600160a01b900460ff1690565b600654600090600160a81b900460ff161561049f5760405162461bcd60e51b815260206004820152600f60248201526e1d985d5b1d0818dbdb5b5a5d1d1959608a1b60448201526064016102d8565b60068054600160a81b60ff60a81b199091161790556000546001600160a01b031673eeeeeeeeeeeeeeeeeeeeeeeeeeeeeeeeeeeeeeed190161053e576001543410156105395760405162461bcd60e51b8152602060048201526024808201527f204e415449564520746f6b656e207472616e736d697373696f6e206d69732d6d6044820152630c2e8c6d60e31b60648201526084016102d8565b6105e0565b6000546001546040516323b872dd60e01b81523360048201526001600160a01b037f00000000000000000000000000000000000000000000000000000000000000008116602483015260448201929092529116906323b872dd906064016020604051808303816000875af11580156105ba573d6000803e3d6000fd5b505050506040513d601f19601f820116820180604052508101906105de91906106e4565b505b50600190565b6106316040518060c0016040528060006001600160a01b0316815260200160008152602001600081526020016000815260200160006001600160a01b03168152602001600081525090565b506040805160c0810182526000546001600160a01b0390811682526001546020830152600254928201929092526003546060820152600454909116608082015260055460a082015290565b60006020808352835180602085015260005b818110156106aa5785810183015185820160400152820161068e565b506000604082860101526040601f19601f8301168501019250505092915050565b6000602082840312156106dd57600080fd5b5051919050565b6000602082840312156106f657600080fd5b8151801515811461070657600080fd5b939250505056fea2646970667358221220ef00c6f665167f9f8a51fc57a2c64f76300ef7d9e8f33fcd24b39c622d7d534264736f6c63430008170033a26469706673582212205da9a769bb3429e94bee9c23065f76668febd5b0f01def166281b447cca3d97364736f6c63430008170033",
					"opcodes": "PUSH1 0x80 PUSH1 0x40 MSTORE CALLVALUE DUP1 ISZERO PUSH2 0x10 JUMPI PUSH1 0x0 DUP1 REVERT JUMPDEST POP PUSH1 0x40 MLOAD PUSH2 0xFB1 CODESIZE SUB DUP1 PUSH2 0xFB1 DUP4 CODECOPY DUP2 ADD PUSH1 0x40 DUP2 SWAP1 MSTORE PUSH2 0x2F SWAP2 PUSH2 0x54 JUMP JUMPDEST PUSH1 0x0 DUP1 SLOAD PUSH1 0x1 PUSH1 0x1 PUSH1 0xA0 SHL SUB NOT AND PUSH1 0x1 PUSH1 0x1 PUSH1 0xA0 SHL SUB SWAP3 SWAP1 SWAP3 AND SWAP2 SWAP1 SWAP2 OR SWAP1 SSTORE PUSH2 0x84 JUMP JUMPDEST PUSH1 0x0 PUSH1 0x20 DUP3 DUP5 SUB SLT ISZERO PUSH2 0x66 JUMPI PUSH1 0x0 DUP1 REVERT JUMPDEST DUP2 MLOAD PUSH1 0x1 PUSH1 0x1 PUSH1 0xA0 SHL SUB DUP2 AND DUP2 EQ PUSH2 0x7D JUMPI PUSH1 0x0 DUP1 REVERT JUMPDEST SWAP4 SWAP3 POP POP POP JUMP JUMPDEST PUSH2 0xF1E DUP1 PUSH2 0x93 PUSH1 0x0 CODECOPY PUSH1 0x0 RETURN INVALID PUSH1 0x80 PUSH1 0x40 MSTORE CALLVALUE DUP1 ISZERO PUSH2 0x10 JUMPI PUSH1 0x0 DUP1 REVERT JUMPDEST POP PUSH1 0x4 CALLDATASIZE LT PUSH2 0x57 JUMPI PUSH1 0x0 CALLDATALOAD PUSH1 0xE0 SHR DUP1 PUSH4 0xD8E6E2C EQ PUSH2 0x5C JUMPI DUP1 PUSH4 0x17D7DE7C EQ PUSH2 0x70 JUMPI DUP1 PUSH4 0x44D00F82 EQ PUSH2 0xAF JUMPI DUP1 PUSH4 0x57A9913B EQ PUSH2 0xC4 JUMPI DUP1 PUSH4 0xD8E45A09 EQ PUSH2 0xEF JUMPI JUMPDEST PUSH1 0x0 DUP1 REVERT JUMPDEST PUSH1 0x40 MLOAD PUSH1 0x2 DUP2 MSTORE PUSH1 0x20 ADD JUMPDEST PUSH1 0x40 MLOAD DUP1 SWAP2 SUB SWAP1 RETURN JUMPDEST PUSH1 0x40 DUP1 MLOAD DUP1 DUP3 ADD DUP3 MSTORE PUSH1 0x18 DUP2 MSTORE PUSH32 0x52455345525645445F475F5641554C545F464143544F52590000000000000000 PUSH1 0x20 DUP3 ADD MSTORE SWAP1 MLOAD PUSH2 0x67 SWAP2 SWAP1 PUSH2 0x469 JUMP JUMPDEST PUSH2 0xB7 PUSH2 0x12B JUMP JUMPDEST PUSH1 0x40 MLOAD PUSH2 0x67 SWAP2 SWAP1 PUSH2 0x4B8 JUMP JUMPDEST PUSH2 0xD7 PUSH2 0xD2 CALLDATASIZE PUSH1 0x4 PUSH2 0x528 JUMP JUMPDEST PUSH2 0x273 JUMP JUMPDEST PUSH1 0x40 MLOAD PUSH1 0x1 PUSH1 0x1 PUSH1 0xA0 SHL SUB SWAP1 SWAP2 AND DUP2 MSTORE PUSH1 0x20 ADD PUSH2 0x67 JUMP JUMPDEST PUSH2 0x11B PUSH2 0xFD CALLDATASIZE PUSH1 0x4 PUSH2 0x5BC JUMP JUMPDEST PUSH1 0x1 PUSH1 0x1 PUSH1 0xA0 SHL SUB AND PUSH1 0x0 SWAP1 DUP2 MSTORE PUSH1 0x2 PUSH1 0x20 MSTORE PUSH1 0x40 SWAP1 KECCAK256 SLOAD PUSH1 0xFF AND SWAP1 JUMP JUMPDEST PUSH1 0x40 MLOAD SWAP1 ISZERO ISZERO DUP2 MSTORE PUSH1 0x20 ADD PUSH2 0x67 JUMP JUMPDEST PUSH1 0x0 SLOAD PUSH1 0x40 DUP1 MLOAD DUP1 DUP3 ADD DUP3 MSTORE PUSH1 0x10 DUP2 MSTORE PUSH16 0x2922A9A2A92B22A22FA6AFA0A226A4A7 PUSH1 0x81 SHL PUSH1 0x20 DUP3 ADD MSTORE SWAP1 MLOAD PUSH4 0xBF40FAC1 PUSH1 0xE0 SHL DUP2 MSTORE PUSH1 0x60 SWAP3 PUSH1 0x1 PUSH1 0x1 PUSH1 0xA0 SHL SUB AND SWAP2 PUSH4 0xBF40FAC1 SWAP2 PUSH2 0x180 SWAP2 SWAP1 PUSH1 0x4 ADD PUSH2 0x469 JUMP JUMPDEST PUSH1 0x20 PUSH1 0x40 MLOAD DUP1 DUP4 SUB DUP2 DUP7 GAS STATICCALL ISZERO DUP1 ISZERO PUSH2 0x19D JUMPI RETURNDATASIZE PUSH1 0x0 DUP1 RETURNDATACOPY RETURNDATASIZE PUSH1 0x0 REVERT JUMPDEST POP POP POP POP PUSH1 0x40 MLOAD RETURNDATASIZE PUSH1 0x1F NOT PUSH1 0x1F DUP3 ADD AND DUP3 ADD DUP1 PUSH1 0x40 MSTORE POP DUP2 ADD SWAP1 PUSH2 0x1C1 SWAP2 SWAP1 PUSH2 0x5E0 JUMP JUMPDEST PUSH1 0x1 PUSH1 0x1 PUSH1 0xA0 SHL SUB AND CALLER PUSH1 0x1 PUSH1 0x1 PUSH1 0xA0 SHL SUB AND EQ PUSH2 0x213 JUMPI PUSH1 0x40 MLOAD PUSH3 0x461BCD PUSH1 0xE5 SHL DUP2 MSTORE PUSH1 0x20 PUSH1 0x4 DUP3 ADD MSTORE PUSH1 0xA PUSH1 0x24 DUP3 ADD MSTORE PUSH10 0x61646D696E206F6E6C79 PUSH1 0xB0 SHL PUSH1 0x44 DUP3 ADD MSTORE PUSH1 0x64 ADD JUMPDEST PUSH1 0x40 MLOAD DUP1 SWAP2 SUB SWAP1 REVERT JUMPDEST PUSH1 0x1 DUP1 SLOAD DUP1 PUSH1 0x20 MUL PUSH1 0x20 ADD PUSH1 0x40 MLOAD SWAP1 DUP2 ADD PUSH1 0x40 MSTORE DUP1 SWAP3 SWAP2 SWAP1 DUP2 DUP2 MSTORE PUSH1 0x20 ADD DUP3 DUP1 SLOAD DUP1 ISZERO PUSH2 0x269 JUMPI PUSH1 0x20 MUL DUP3 ADD SWAP2 SWAP1 PUSH1 0x0 MSTORE PUSH1 0x20 PUSH1 0x0 KECCAK256 SWAP1 JUMPDEST DUP2 SLOAD PUSH1 0x1 PUSH1 0x1 PUSH1 0xA0 SHL SUB AND DUP2 MSTORE PUSH1 0x1 SWAP1 SWAP2 ADD SWAP1 PUSH1 0x20 ADD DUP1 DUP4 GT PUSH2 0x24B JUMPI JUMPDEST POP POP POP POP POP SWAP1 POP SWAP1 JUMP JUMPDEST PUSH1 0x0 DUP1 SLOAD PUSH1 0x40 DUP1 MLOAD DUP1 DUP3 ADD DUP3 MSTORE PUSH1 0x16 DUP2 MSTORE PUSH22 0x149154D15495915117D1D2531517D0D3D395149050D5 PUSH1 0x52 SHL PUSH1 0x20 DUP3 ADD MSTORE SWAP1 MLOAD PUSH4 0xBF40FAC1 PUSH1 0xE0 SHL DUP2 MSTORE PUSH1 0x1 PUSH1 0x1 PUSH1 0xA0 SHL SUB SWAP1 SWAP3 AND SWAP2 PUSH4 0xBF40FAC1 SWAP2 PUSH2 0x2CD SWAP2 PUSH1 0x4 ADD PUSH2 0x469 JUMP JUMPDEST PUSH1 0x20 PUSH1 0x40 MLOAD DUP1 DUP4 SUB DUP2 DUP7 GAS STATICCALL ISZERO DUP1 ISZERO PUSH2 0x2EA JUMPI RETURNDATASIZE PUSH1 0x0 DUP1 RETURNDATACOPY RETURNDATASIZE PUSH1 0x0 REVERT JUMPDEST POP POP POP POP PUSH1 0x40 MLOAD RETURNDATASIZE PUSH1 0x1F NOT PUSH1 0x1F DUP3 ADD AND DUP3 ADD DUP1 PUSH1 0x40 MSTORE POP DUP2 ADD SWAP1 PUSH2 0x30E SWAP2 SWAP1 PUSH2 0x5E0 JUMP JUMPDEST PUSH1 0x1 PUSH1 0x1 PUSH1 0xA0 SHL SUB AND CALLER PUSH1 0x1 PUSH1 0x1 PUSH1 0xA0 SHL SUB AND EQ PUSH2 0x363 JUMPI PUSH1 0x40 MLOAD PUSH3 0x461BCD PUSH1 0xE5 SHL DUP2 MSTORE PUSH1 0x20 PUSH1 0x4 DUP3 ADD MSTORE PUSH1 0x12 PUSH1 0x24 DUP3 ADD MSTORE PUSH18 0x67696C7420636F6E7472616374206F6E6C79 PUSH1 0x70 SHL PUSH1 0x44 DUP3 ADD MSTORE PUSH1 0x64 ADD PUSH2 0x20A JUMP JUMPDEST PUSH1 0x0 SLOAD PUSH1 0x40 MLOAD PUSH1 0x1 PUSH1 0x1 PUSH1 0xA0 SHL SUB SWAP1 SWAP2 AND SWAP1 DUP4 SWAP1 PUSH2 0x380 SWAP1 PUSH2 0x45C JUMP JUMPDEST PUSH1 0x1 PUSH1 0x1 PUSH1 0xA0 SHL SUB SWAP3 DUP4 AND DUP2 MSTORE DUP2 MLOAD DUP4 AND PUSH1 0x20 DUP1 DUP4 ADD SWAP2 SWAP1 SWAP2 MSTORE DUP3 ADD MLOAD PUSH1 0x40 DUP1 DUP4 ADD SWAP2 SWAP1 SWAP2 MSTORE DUP3 ADD MLOAD PUSH1 0x60 DUP1 DUP4 ADD SWAP2 SWAP1 SWAP2 MSTORE DUP3 ADD MLOAD PUSH1 0x80 DUP1 DUP4 ADD SWAP2 SWAP1 SWAP2 MSTORE DUP3 ADD MLOAD SWAP1 SWAP3 AND PUSH1 0xA0 DUP1 DUP5 ADD SWAP2 SWAP1 SWAP2 MSTORE ADD MLOAD PUSH1 0xC0 DUP3 ADD MSTORE PUSH1 0xE0 ADD PUSH1 0x40 MLOAD DUP1 SWAP2 SUB SWAP1 PUSH1 0x0 CREATE DUP1 ISZERO DUP1 ISZERO PUSH2 0x3F3 JUMPI RETURNDATASIZE PUSH1 0x0 DUP1 RETURNDATACOPY RETURNDATASIZE PUSH1 0x0 REVERT JUMPDEST POP PUSH1 0x1 DUP1 SLOAD DUP1 DUP3 ADD DUP3 SSTORE PUSH32 0xB10E2D527612073B26EECDFD717E6A320CF44B4AFAC2B0732D9FCBE2B7FA0CF6 ADD DUP1 SLOAD PUSH1 0x1 PUSH1 0x1 PUSH1 0xA0 SHL SUB NOT AND PUSH1 0x1 PUSH1 0x1 PUSH1 0xA0 SHL SUB DUP5 AND SWAP1 DUP2 OR SWAP1 SWAP2 SSTORE PUSH1 0x0 SWAP1 DUP2 MSTORE PUSH1 0x2 PUSH1 0x20 MSTORE PUSH1 0x40 SWAP1 KECCAK256 DUP1 SLOAD PUSH1 0xFF NOT AND SWAP1 SWAP2 OR SWAP1 SSTORE SWAP1 POP JUMPDEST SWAP2 SWAP1 POP JUMP JUMPDEST PUSH2 0x8EB DUP1 PUSH2 0x5FE DUP4 CODECOPY ADD SWAP1 JUMP JUMPDEST PUSH1 0x0 PUSH1 0x20 DUP1 DUP4 MSTORE DUP4 MLOAD DUP1 PUSH1 0x20 DUP6 ADD MSTORE PUSH1 0x0 JUMPDEST DUP2 DUP2 LT ISZERO PUSH2 0x497 JUMPI DUP6 DUP2 ADD DUP4 ADD MLOAD DUP6 DUP3 ADD PUSH1 0x40 ADD MSTORE DUP3 ADD PUSH2 0x47B JUMP JUMPDEST POP PUSH1 0x0 PUSH1 0x40 DUP3 DUP7 ADD ADD MSTORE PUSH1 0x40 PUSH1 0x1F NOT PUSH1 0x1F DUP4 ADD AND DUP6 ADD ADD SWAP3 POP POP POP SWAP3 SWAP2 POP POP JUMP JUMPDEST PUSH1 0x20 DUP1 DUP3 MSTORE DUP3 MLOAD DUP3 DUP3 ADD DUP2 SWAP1 MSTORE PUSH1 0x0 SWAP2 SWAP1 DUP5 DUP3 ADD SWAP1 PUSH1 0x40 DUP6 ADD SWAP1 DUP5 JUMPDEST DUP2 DUP2 LT ISZERO PUSH2 0x4F9 JUMPI DUP4 MLOAD PUSH1 0x1 PUSH1 0x1 PUSH1 0xA0 SHL SUB AND DUP4 MSTORE SWAP3 DUP5 ADD SWAP3 SWAP2 DUP5 ADD SWAP2 PUSH1 0x1 ADD PUSH2 0x4D4 JUMP JUMPDEST POP SWAP1 SWAP7 SWAP6 POP POP POP POP POP POP JUMP JUMPDEST PUSH1 0x1 PUSH1 0x1 PUSH1 0xA0 SHL SUB DUP2 AND DUP2 EQ PUSH2 0x51A JUMPI PUSH1 0x0 DUP1 REVERT JUMPDEST POP JUMP JUMPDEST DUP1 CALLDATALOAD PUSH2 0x457 DUP2 PUSH2 0x505 JUMP JUMPDEST PUSH1 0x0 PUSH1 0xC0 DUP3 DUP5 SUB SLT ISZERO PUSH2 0x53A JUMPI PUSH1 0x0 DUP1 REVERT JUMPDEST PUSH1 0x40 MLOAD PUSH1 0xC0 DUP2 ADD DUP2 DUP2 LT PUSH8 0xFFFFFFFFFFFFFFFF DUP3 GT OR ISZERO PUSH2 0x56B JUMPI PUSH4 0x4E487B71 PUSH1 0xE0 SHL PUSH1 0x0 MSTORE PUSH1 0x41 PUSH1 0x4 MSTORE PUSH1 0x24 PUSH1 0x0 REVERT JUMPDEST PUSH1 0x40 MSTORE PUSH2 0x577 DUP4 PUSH2 0x51D JUMP JUMPDEST DUP2 MSTORE PUSH1 0x20 DUP4 ADD CALLDATALOAD PUSH1 0x20 DUP3 ADD MSTORE PUSH1 0x40 DUP4 ADD CALLDATALOAD PUSH1 0x40 DUP3 ADD MSTORE PUSH1 0x60 DUP4 ADD CALLDATALOAD PUSH1 0x60 DUP3 ADD MSTORE PUSH2 0x5A3 PUSH1 0x80 DUP5 ADD PUSH2 0x51D JUMP JUMPDEST PUSH1 0x80 DUP3 ADD MSTORE PUSH1 0xA0 DUP4 ADD CALLDATALOAD PUSH1 0xA0 DUP3 ADD MSTORE DUP1 SWAP2 POP POP SWAP3 SWAP2 POP POP JUMP JUMPDEST PUSH1 0x0 PUSH1 0x20 DUP3 DUP5 SUB SLT ISZERO PUSH2 0x5CE JUMPI PUSH1 0x0 DUP1 REVERT JUMPDEST DUP2 CALLDATALOAD PUSH2 0x5D9 DUP2 PUSH2 0x505 JUMP JUMPDEST SWAP4 SWAP3 POP POP POP JUMP JUMPDEST PUSH1 0x0 PUSH1 0x20 DUP3 DUP5 SUB SLT ISZERO PUSH2 0x5F2 JUMPI PUSH1 0x0 DUP1 REVERT JUMPDEST DUP2 MLOAD PUSH2 0x5D9 DUP2 PUSH2 0x505 JUMP INVALID PUSH1 0xA0 PUSH1 0x40 MSTORE PUSH1 0x6 DUP1 SLOAD PUSH2 0xFFFF PUSH1 0xA0 SHL NOT AND SWAP1 SSTORE CALLVALUE DUP1 ISZERO PUSH2 0x1E JUMPI PUSH1 0x0 DUP1 REVERT JUMPDEST POP PUSH1 0x40 MLOAD PUSH2 0x8EB CODESIZE SUB DUP1 PUSH2 0x8EB DUP4 CODECOPY DUP2 ADD PUSH1 0x40 DUP2 SWAP1 MSTORE PUSH2 0x3D SWAP2 PUSH2 0xCA JUMP JUMPDEST DUP1 MLOAD PUSH1 0x0 DUP1 SLOAD PUSH1 0x1 PUSH1 0x1 PUSH1 0xA0 SHL SUB SWAP3 DUP4 AND PUSH1 0x1 PUSH1 0x1 PUSH1 0xA0 SHL SUB NOT SWAP2 DUP3 AND OR SWAP1 SWAP2 SSTORE PUSH1 0x20 DUP4 ADD MLOAD PUSH1 0x1 SSTORE PUSH1 0x40 DUP4 ADD MLOAD PUSH1 0x2 SSTORE PUSH1 0x60 DUP4 ADD MLOAD PUSH1 0x3 SSTORE PUSH1 0x80 DUP1 DUP5 ADD MLOAD PUSH1 0x4 DUP1 SLOAD SWAP2 DUP6 AND SWAP2 DUP5 AND SWAP2 SWAP1 SWAP2 OR SWAP1 SSTORE PUSH1 0xA0 SWAP1 SWAP4 ADD MLOAD PUSH1 0x5 SSTORE PUSH1 0x6 DUP1 SLOAD SWAP5 SWAP1 SWAP3 AND SWAP4 AND SWAP3 SWAP1 SWAP3 OR SWAP1 SWAP2 SSTORE ADDRESS SWAP1 MSTORE PUSH2 0x17F JUMP JUMPDEST DUP1 MLOAD PUSH1 0x1 PUSH1 0x1 PUSH1 0xA0 SHL SUB DUP2 AND DUP2 EQ PUSH2 0xC5 JUMPI PUSH1 0x0 DUP1 REVERT JUMPDEST SWAP2 SWAP1 POP JUMP JUMPDEST PUSH1 0x0 DUP1 DUP3 DUP5 SUB PUSH1 0xE0 DUP2 SLT ISZERO PUSH2 0xDE JUMPI PUSH1 0x0 DUP1 REVERT JUMPDEST PUSH2 0xE7 DUP5 PUSH2 0xAE JUMP JUMPDEST SWAP3 POP PUSH1 0xC0 PUSH1 0x1F NOT DUP3 ADD SLT ISZERO PUSH2 0xFB JUMPI PUSH1 0x0 DUP1 REVERT JUMPDEST POP PUSH1 0x40 MLOAD PUSH1 0xC0 DUP2 ADD PUSH1 0x1 PUSH1 0x1 PUSH1 0x40 SHL SUB DUP2 GT DUP3 DUP3 LT OR ISZERO PUSH2 0x12C JUMPI PUSH4 0x4E487B71 PUSH1 0xE0 SHL PUSH1 0x0 MSTORE PUSH1 0x41 PUSH1 0x4 MSTORE PUSH1 0x24 PUSH1 0x0 REVERT JUMPDEST PUSH1 0x40 MSTORE PUSH2 0x13B PUSH1 0x20 DUP6 ADD PUSH2 0xAE JUMP JUMPDEST DUP2 MSTORE PUSH1 0x40 DUP5 ADD MLOAD PUSH1 0x20 DUP3 ADD MSTORE PUSH1 0x60 DUP5 ADD MLOAD PUSH1 0x40 DUP3 ADD MSTORE PUSH1 0x80 DUP5 ADD MLOAD PUSH1 0x60 DUP3 ADD MSTORE PUSH2 0x167 PUSH1 0xA0 DUP6 ADD PUSH2 0xAE JUMP JUMPDEST PUSH1 0x80 DUP3 ADD MSTORE PUSH1 0xC0 SWAP4 SWAP1 SWAP4 ADD MLOAD PUSH1 0xA0 DUP5 ADD MSTORE POP SWAP3 SWAP1 SWAP2 POP JUMP JUMPDEST PUSH1 0x80 MLOAD PUSH2 0x743 PUSH2 0x1A8 PUSH1 0x0 CODECOPY PUSH1 0x0 DUP2 DUP2 PUSH2 0x211 ADD MSTORE DUP2 DUP2 PUSH2 0x36F ADD MSTORE PUSH2 0x561 ADD MSTORE PUSH2 0x743 PUSH1 0x0 RETURN INVALID PUSH1 0x80 PUSH1 0x40 MSTORE PUSH1 0x4 CALLDATASIZE LT PUSH2 0x86 JUMPI PUSH1 0x0 CALLDATALOAD PUSH1 0xE0 SHR DUP1 PUSH4 0x7299CC83 GT PUSH2 0x59 JUMPI DUP1 PUSH4 0x7299CC83 EQ PUSH2 0x11E JUMPI DUP1 PUSH4 0x7AF148C0 EQ PUSH2 0x126 JUMPI DUP1 PUSH4 0x8AA24983 EQ PUSH2 0x14E JUMPI DUP1 PUSH4 0x932221FB EQ PUSH2 0x16D JUMPI DUP1 PUSH4 0x97A8382B EQ PUSH2 0x18C JUMPI PUSH1 0x0 DUP1 REVERT JUMPDEST DUP1 PUSH4 0xD8E6E2C EQ PUSH2 0x8B JUMPI DUP1 PUSH4 0x17D7DE7C EQ PUSH2 0xAE JUMPI DUP1 PUSH4 0x374CC890 EQ PUSH2 0xE4 JUMPI DUP1 PUSH4 0x69D89575 EQ PUSH2 0xF9 JUMPI JUMPDEST PUSH1 0x0 DUP1 REVERT JUMPDEST CALLVALUE DUP1 ISZERO PUSH2 0x97 JUMPI PUSH1 0x0 DUP1 REVERT JUMPDEST POP PUSH1 0x2 JUMPDEST PUSH1 0x40 MLOAD SWAP1 DUP2 MSTORE PUSH1 0x20 ADD JUMPDEST PUSH1 0x40 MLOAD DUP1 SWAP2 SUB SWAP1 RETURN JUMPDEST CALLVALUE DUP1 ISZERO PUSH2 0xBA JUMPI PUSH1 0x0 DUP1 REVERT JUMPDEST POP PUSH1 0x40 DUP1 MLOAD DUP1 DUP3 ADD DUP3 MSTORE PUSH1 0x7 DUP2 MSTORE PUSH7 0x11D7D590555315 PUSH1 0xCA SHL PUSH1 0x20 DUP3 ADD MSTORE SWAP1 MLOAD PUSH2 0xA5 SWAP2 SWAP1 PUSH2 0x67C JUMP JUMPDEST CALLVALUE DUP1 ISZERO PUSH2 0xF0 JUMPI PUSH1 0x0 DUP1 REVERT JUMPDEST POP PUSH2 0x9B PUSH2 0x1F6 JUMP JUMPDEST CALLVALUE DUP1 ISZERO PUSH2 0x105 JUMPI PUSH1 0x0 DUP1 REVERT JUMPDEST POP PUSH2 0x10E PUSH2 0x28A JUMP JUMPDEST PUSH1 0x40 MLOAD SWAP1 ISZERO ISZERO DUP2 MSTORE PUSH1 0x20 ADD PUSH2 0xA5 JUMP JUMPDEST PUSH2 0x10E PUSH2 0x450 JUMP JUMPDEST CALLVALUE DUP1 ISZERO PUSH2 0x132 JUMPI PUSH1 0x0 DUP1 REVERT JUMPDEST POP PUSH1 0x0 SLOAD PUSH1 0x40 MLOAD PUSH1 0x1 PUSH1 0x1 PUSH1 0xA0 SHL SUB SWAP1 SWAP2 AND DUP2 MSTORE PUSH1 0x20 ADD PUSH2 0xA5 JUMP JUMPDEST CALLVALUE DUP1 ISZERO PUSH2 0x15A JUMPI PUSH1 0x0 DUP1 REVERT JUMPDEST POP PUSH1 0x6 SLOAD PUSH1 0x1 PUSH1 0xA0 SHL SWAP1 DIV PUSH1 0xFF AND PUSH2 0x10E JUMP JUMPDEST CALLVALUE DUP1 ISZERO PUSH2 0x179 JUMPI PUSH1 0x0 DUP1 REVERT JUMPDEST POP PUSH1 0x6 SLOAD PUSH1 0x1 PUSH1 0xA8 SHL SWAP1 DIV PUSH1 0xFF AND PUSH2 0x10E JUMP JUMPDEST CALLVALUE DUP1 ISZERO PUSH2 0x198 JUMPI PUSH1 0x0 DUP1 REVERT JUMPDEST POP PUSH2 0x1A1 PUSH2 0x5E6 JUMP JUMPDEST PUSH1 0x40 MLOAD PUSH2 0xA5 SWAP2 SWAP1 DUP2 MLOAD PUSH1 0x1 PUSH1 0x1 PUSH1 0xA0 SHL SUB SWAP1 DUP2 AND DUP3 MSTORE PUSH1 0x20 DUP1 DUP5 ADD MLOAD SWAP1 DUP4 ADD MSTORE PUSH1 0x40 DUP1 DUP5 ADD MLOAD SWAP1 DUP4 ADD MSTORE PUSH1 0x60 DUP1 DUP5 ADD MLOAD SWAP1 DUP4 ADD MSTORE PUSH1 0x80 DUP1 DUP5 ADD MLOAD SWAP1 SWAP2 AND SWAP1 DUP3 ADD MSTORE PUSH1 0xA0 SWAP2 DUP3 ADD MLOAD SWAP2 DUP2 ADD SWAP2 SWAP1 SWAP2 MSTORE PUSH1 0xC0 ADD SWAP1 JUMP JUMPDEST PUSH1 0x0 DUP1 SLOAD PUSH1 0x40 MLOAD PUSH4 0x70A08231 PUSH1 0xE0 SHL DUP2 MSTORE PUSH1 0x1 PUSH1 0x1 PUSH1 0xA0 SHL SUB PUSH32 0x0 DUP2 AND PUSH1 0x4 DUP4 ADD MSTORE SWAP1 SWAP2 AND SWAP1 PUSH4 0x70A08231 SWAP1 PUSH1 0x24 ADD PUSH1 0x20 PUSH1 0x40 MLOAD DUP1 DUP4 SUB DUP2 DUP7 GAS STATICCALL ISZERO DUP1 ISZERO PUSH2 0x261 JUMPI RETURNDATASIZE PUSH1 0x0 DUP1 RETURNDATACOPY RETURNDATASIZE PUSH1 0x0 REVERT JUMPDEST POP POP POP POP PUSH1 0x40 MLOAD RETURNDATASIZE PUSH1 0x1F NOT PUSH1 0x1F DUP3 ADD AND DUP3 ADD DUP1 PUSH1 0x40 MSTORE POP DUP2 ADD SWAP1 PUSH2 0x285 SWAP2 SWAP1 PUSH2 0x6CB JUMP JUMPDEST SWAP1 POP SWAP1 JUMP JUMPDEST PUSH1 0x6 SLOAD PUSH1 0x0 SWAP1 PUSH1 0x1 PUSH1 0xA8 SHL SWAP1 DIV PUSH1 0xFF AND PUSH2 0x2E1 JUMPI PUSH1 0x40 MLOAD PUSH3 0x461BCD PUSH1 0xE5 SHL DUP2 MSTORE PUSH1 0x20 PUSH1 0x4 DUP3 ADD MSTORE PUSH1 0x13 PUSH1 0x24 DUP3 ADD MSTORE PUSH19 0x1D985D5B1D081B9BDD0818DBDB5B5A5D1D1959 PUSH1 0x6A SHL PUSH1 0x44 DUP3 ADD MSTORE PUSH1 0x64 ADD JUMPDEST PUSH1 0x40 MLOAD DUP1 SWAP2 SUB SWAP1 REVERT JUMPDEST PUSH1 0x6 SLOAD PUSH1 0x1 PUSH1 0xA0 SHL SWAP1 DIV PUSH1 0xFF AND ISZERO PUSH2 0x32C JUMPI PUSH1 0x40 MLOAD PUSH3 0x461BCD PUSH1 0xE5 SHL DUP2 MSTORE PUSH1 0x20 PUSH1 0x4 DUP3 ADD MSTORE PUSH1 0xE PUSH1 0x24 DUP3 ADD MSTORE PUSH14 0x1D985D5B1D08195E1C195B991959 PUSH1 0x92 SHL PUSH1 0x44 DUP3 ADD MSTORE PUSH1 0x64 ADD PUSH2 0x2D8 JUMP JUMPDEST PUSH1 0x6 DUP1 SLOAD PUSH1 0x1 PUSH1 0xA0 SHL PUSH1 0xFF PUSH1 0xA0 SHL NOT SWAP1 SWAP2 AND OR SWAP1 SSTORE PUSH1 0x0 SLOAD PUSH1 0x1 PUSH1 0x1 PUSH1 0xA0 SHL SUB AND PUSH20 0xEEEEEEEEEEEEEEEEEEEEEEEEEEEEEEEEEEEEEEED NOT ADD PUSH2 0x3C4 JUMPI PUSH1 0x40 MLOAD CALLER SWAP1 PUSH32 0x0 PUSH1 0x1 PUSH1 0x1 PUSH1 0xA0 SHL SUB AND BALANCE DUP1 ISZERO PUSH2 0x8FC MUL SWAP2 PUSH1 0x0 DUP2 DUP2 DUP2 DUP6 DUP9 DUP9 CALL SWAP4 POP POP POP POP ISZERO DUP1 ISZERO PUSH2 0x3BE JUMPI RETURNDATASIZE PUSH1 0x0 DUP1 RETURNDATACOPY RETURNDATASIZE PUSH1 0x0 REVERT JUMPDEST POP PUSH2 0x43F JUMP JUMPDEST PUSH1 0x0 SLOAD PUSH1 0x1 SLOAD PUSH1 0x40 MLOAD PUSH4 0x95EA7B3 PUSH1 0xE0 SHL DUP2 MSTORE CALLER PUSH1 0x4 DUP3 ADD MSTORE PUSH1 0x24 DUP2 ADD SWAP2 SWAP1 SWAP2 MSTORE PUSH1 0x1 PUSH1 0x1 PUSH1 0xA0 SHL SUB SWAP1 SWAP2 AND SWAP1 PUSH4 0x95EA7B3 SWAP1 PUSH1 0x44 ADD PUSH1 0x20 PUSH1 0x40 MLOAD DUP1 DUP4 SUB DUP2 PUSH1 0x0 DUP8 GAS CALL ISZERO DUP1 ISZERO PUSH2 0x419 JUMPI RETURNDATASIZE PUSH1 0x0 DUP1 RETURNDATACOPY RETURNDATASIZE PUSH1 0x0 REVERT JUMPDEST POP POP POP POP PUSH1 0x40 MLOAD RETURNDATASIZE PUSH1 0x1F NOT PUSH1 0x1F DUP3 ADD AND DUP3 ADD DUP1 PUSH1 0x40 MSTORE POP DUP2 ADD SWAP1 PUSH2 0x43D SWAP2 SWAP1 PUSH2 0x6E4 JUMP JUMPDEST POP JUMPDEST POP PUSH1 0x6 SLOAD PUSH1 0x1 PUSH1 0xA0 SHL SWAP1 DIV PUSH1 0xFF AND SWAP1 JUMP JUMPDEST PUSH1 0x6 SLOAD PUSH1 0x0 SWAP1 PUSH1 0x1 PUSH1 0xA8 SHL SWAP1 DIV PUSH1 0xFF AND ISZERO PUSH2 0x49F JUMPI PUSH1 0x40 MLOAD PUSH3 0x461BCD PUSH1 0xE5 SHL DUP2 MSTORE PUSH1 0x20 PUSH1 0x4 DUP3 ADD MSTORE PUSH1 0xF PUSH1 0x24 DUP3 ADD MSTORE PUSH15 0x1D985D5B1D0818DBDB5B5A5D1D1959 PUSH1 0x8A SHL PUSH1 0x44 DUP3 ADD MSTORE PUSH1 0x64 ADD PUSH2 0x2D8 JUMP JUMPDEST PUSH1 0x6 DUP1 SLOAD PUSH1 0x1 PUSH1 0xA8 SHL PUSH1 0xFF PUSH1 0xA8 SHL NOT SWAP1 SWAP2 AND OR SWAP1 SSTORE PUSH1 0x0 SLOAD PUSH1 0x1 PUSH1 0x1 PUSH1 0xA0 SHL SUB AND PUSH20 0xEEEEEEEEEEEEEEEEEEEEEEEEEEEEEEEEEEEEEEED NOT ADD PUSH2 0x53E JUMPI PUSH1 0x1 SLOAD CALLVALUE LT ISZERO PUSH2 0x539 JUMPI PUSH1 0x40 MLOAD PUSH3 0x461BCD PUSH1 0xE5 SHL DUP2 MSTORE PUSH1 0x20 PUSH1 0x4 DUP3 ADD MSTORE PUSH1 0x24 DUP1 DUP3 ADD MSTORE PUSH32 0x204E415449564520746F6B656E207472616E736D697373696F6E206D69732D6D PUSH1 0x44 DUP3 ADD MSTORE PUSH4 0xC2E8C6D PUSH1 0xE3 SHL PUSH1 0x64 DUP3 ADD MSTORE PUSH1 0x84 ADD PUSH2 0x2D8 JUMP JUMPDEST PUSH2 0x5E0 JUMP JUMPDEST PUSH1 0x0 SLOAD PUSH1 0x1 SLOAD PUSH1 0x40 MLOAD PUSH4 0x23B872DD PUSH1 0xE0 SHL DUP2 MSTORE CALLER PUSH1 0x4 DUP3 ADD MSTORE PUSH1 0x1 PUSH1 0x1 PUSH1 0xA0 SHL SUB PUSH32 0x0 DUP2 AND PUSH1 0x24 DUP4 ADD MSTORE PUSH1 0x44 DUP3 ADD SWAP3 SWAP1 SWAP3 MSTORE SWAP2 AND SWAP1 PUSH4 0x23B872DD SWAP1 PUSH1 0x64 ADD PUSH1 0x20 PUSH1 0x40 MLOAD DUP1 DUP4 SUB DUP2 PUSH1 0x0 DUP8 GAS CALL ISZERO DUP1 ISZERO PUSH2 0x5BA JUMPI RETURNDATASIZE PUSH1 0x0 DUP1 RETURNDATACOPY RETURNDATASIZE PUSH1 0x0 REVERT JUMPDEST POP POP POP POP PUSH1 0x40 MLOAD RETURNDATASIZE PUSH1 0x1F NOT PUSH1 0x1F DUP3 ADD AND DUP3 ADD DUP1 PUSH1 0x40 MSTORE POP DUP2 ADD SWAP1 PUSH2 0x5DE SWAP2 SWAP1 PUSH2 0x6E4 JUMP JUMPDEST POP JUMPDEST POP PUSH1 0x1 SWAP1 JUMP JUMPDEST PUSH2 0x631 PUSH1 0x40 MLOAD DUP1 PUSH1 0xC0 ADD PUSH1 0x40 MSTORE DUP1 PUSH1 0x0 PUSH1 0x1 PUSH1 0x1 PUSH1 0xA0 SHL SUB AND DUP2 MSTORE PUSH1 0x20 ADD PUSH1 0x0 DUP2 MSTORE PUSH1 0x20 ADD PUSH1 0x0 DUP2 MSTORE PUSH1 0x20 ADD PUSH1 0x0 DUP2 MSTORE PUSH1 0x20 ADD PUSH1 0x0 PUSH1 0x1 PUSH1 0x1 PUSH1 0xA0 SHL SUB AND DUP2 MSTORE PUSH1 0x20 ADD PUSH1 0x0 DUP2 MSTORE POP SWAP1 JUMP JUMPDEST POP PUSH1 0x40 DUP1 MLOAD PUSH1 0xC0 DUP2 ADD DUP3 MSTORE PUSH1 0x0 SLOAD PUSH1 0x1 PUSH1 0x1 PUSH1 0xA0 SHL SUB SWAP1 DUP2 AND DUP3 MSTORE PUSH1 0x1 SLOAD PUSH1 0x20 DUP4 ADD MSTORE PUSH1 0x2 SLOAD SWAP3 DUP3 ADD SWAP3 SWAP1 SWAP3 MSTORE PUSH1 0x3 SLOAD PUSH1 0x60 DUP3 ADD MSTORE PUSH1 0x4 SLOAD SWAP1 SWAP2 AND PUSH1 0x80 DUP3 ADD MSTORE PUSH1 0x5 SLOAD PUSH1 0xA0 DUP3 ADD MSTORE SWAP1 JUMP JUMPDEST PUSH1 0x0 PUSH1 0x20 DUP1 DUP4 MSTORE DUP4 MLOAD DUP1 PUSH1 0x20 DUP6 ADD MSTORE PUSH1 0x0 JUMPDEST DUP2 DUP2 LT ISZERO PUSH2 0x6AA JUMPI DUP6 DUP2 ADD DUP4 ADD MLOAD DUP6 DUP3 ADD PUSH1 0x40 ADD MSTORE DUP3 ADD PUSH2 0x68E JUMP JUMPDEST POP PUSH1 0x0 PUSH1 0x40 DUP3 DUP7 ADD ADD MSTORE PUSH1 0x40 PUSH1 0x1F NOT PUSH1 0x1F DUP4 ADD AND DUP6 ADD ADD SWAP3 POP POP POP SWAP3 SWAP2 POP POP JUMP JUMPDEST PUSH1 0x0 PUSH1 0x20 DUP3 DUP5 SUB SLT ISZERO PUSH2 0x6DD JUMPI PUSH1 0x0 DUP1 REVERT JUMPDEST POP MLOAD SWAP2 SWAP1 POP JUMP JUMPDEST PUSH1 0x0 PUSH1 0x20 DUP3 DUP5 SUB SLT ISZERO PUSH2 0x6F6 JUMPI PUSH1 0x0 DUP1 REVERT JUMPDEST DUP2 MLOAD DUP1 ISZERO ISZERO DUP2 EQ PUSH2 0x706 JUMPI PUSH1 0x0 DUP1 REVERT JUMPDEST SWAP4 SWAP3 POP POP POP JUMP INVALID LOG2 PUSH5 0x6970667358 0x22 SLT KECCAK256 0xEF STOP 0xC6 0xF6 PUSH6 0x167F9F8A51FC JUMPI LOG2 0xC6 0x4F PUSH23 0x300EF7D9E8F33FCD24B39C622D7D534264736F6C634300 ADDMOD OR STOP CALLER LOG2 PUSH5 0x6970667358 0x22 SLT KECCAK256 0x5D 0xA9 0xA7 PUSH10 0xBB3429E94BEE9C23065F PUSH23 0x668FEBD5B0F01DEF166281B447CCA3D97364736F6C6343 STOP ADDMOD OR STOP CALLER "
				},
				"gasEstimates": {
					"creation": {
						"codeDepositCost": "774000",
						"executionCost": "infinite",
						"totalCost": "infinite"
					},
					"external": {
						"createVault((address,uint256,uint256,uint256,address,uint256))": "infinite",
						"getName()": "infinite",
						"getVaults()": "infinite",
						"getVersion()": "144",
						"isKnownVault(address)": "2609"
					}
				},
				"methodIdentifiers": {
					"createVault((address,uint256,uint256,uint256,address,uint256))": "57a9913b",
					"getName()": "17d7de7c",
					"getVaults()": "44d00f82",
					"getVersion()": "0d8e6e2c",
					"isKnownVault(address)": "d8e45a09"
				}
			},
			"storageLayout": {
				"storage": [
					{
						"astId": 579,
						"contract": "contracts/core/GVaultFactory_flattened.sol:GVaultFactory",
						"label": "register",
						"offset": 0,
						"slot": "0",
						"type": "t_contract(IMRegister)313"
					},
					{
						"astId": 582,
						"contract": "contracts/core/GVaultFactory_flattened.sol:GVaultFactory",
						"label": "vaults",
						"offset": 0,
						"slot": "1",
						"type": "t_array(t_address)dyn_storage"
					},
					{
						"astId": 586,
						"contract": "contracts/core/GVaultFactory_flattened.sol:GVaultFactory",
						"label": "isKnownV",
						"offset": 0,
						"slot": "2",
						"type": "t_mapping(t_address,t_bool)"
					}
				],
				"types": {
					"t_address": {
						"encoding": "inplace",
						"label": "address",
						"numberOfBytes": "20"
					},
					"t_array(t_address)dyn_storage": {
						"base": "t_address",
						"encoding": "dynamic_array",
						"label": "address[]",
						"numberOfBytes": "32"
					},
					"t_bool": {
						"encoding": "inplace",
						"label": "bool",
						"numberOfBytes": "1"
					},
					"t_contract(IMRegister)313": {
						"encoding": "inplace",
						"label": "contract IMRegister",
						"numberOfBytes": "20"
					},
					"t_mapping(t_address,t_bool)": {
						"encoding": "mapping",
						"key": "t_address",
						"label": "mapping(address => bool)",
						"numberOfBytes": "32",
						"value": "t_bool"
					}
				}
			},
			"userdoc": {
				"kind": "user",
				"methods": {},
				"version": 1
			}
		}
	}
}