{
	"contracts/core/MReciever_flattened.sol": {
		"MReciever": {
			"abi": [
				{
					"inputs": [
						{
							"internalType": "address",
							"name": "_register",
							"type": "address"
						},
						{
							"internalType": "address",
							"name": "_router",
							"type": "address"
						}
					],
					"stateMutability": "nonpayable",
					"type": "constructor"
				},
				{
					"inputs": [
						{
							"internalType": "address",
							"name": "router",
							"type": "address"
						}
					],
					"name": "InvalidRouter",
					"type": "error"
				},
				{
					"anonymous": false,
					"inputs": [
						{
							"indexed": false,
							"internalType": "address",
							"name": "owner",
							"type": "address"
						},
						{
							"indexed": false,
							"internalType": "uint256",
							"name": "amount",
							"type": "uint256"
						},
						{
							"indexed": false,
							"internalType": "bytes32",
							"name": "tGiltId",
							"type": "bytes32"
						},
						{
							"indexed": false,
							"internalType": "uint256",
							"name": "srcChain",
							"type": "uint256"
						},
						{
							"indexed": false,
							"internalType": "uint256",
							"name": "localGiltId",
							"type": "uint256"
						}
					],
					"name": "GILT_CLAIMED",
					"type": "event"
				},
				{
					"anonymous": false,
					"inputs": [
						{
							"indexed": false,
							"internalType": "address",
							"name": "owner",
							"type": "address"
						},
						{
							"indexed": false,
							"internalType": "uint256",
							"name": "amount",
							"type": "uint256"
						},
						{
							"indexed": false,
							"internalType": "uint256",
							"name": "foreignId",
							"type": "uint256"
						},
						{
							"indexed": false,
							"internalType": "uint256",
							"name": "srcChain",
							"type": "uint256"
						}
					],
					"name": "GILT_RECIEVED",
					"type": "event"
				},
				{
					"inputs": [
						{
							"components": [
								{
									"internalType": "bytes32",
									"name": "messageId",
									"type": "bytes32"
								},
								{
									"internalType": "uint64",
									"name": "sourceChainSelector",
									"type": "uint64"
								},
								{
									"internalType": "bytes",
									"name": "sender",
									"type": "bytes"
								},
								{
									"internalType": "bytes",
									"name": "data",
									"type": "bytes"
								},
								{
									"components": [
										{
											"internalType": "address",
											"name": "token",
											"type": "address"
										},
										{
											"internalType": "uint256",
											"name": "amount",
											"type": "uint256"
										}
									],
									"internalType": "struct Client.EVMTokenAmount[]",
									"name": "destTokenAmounts",
									"type": "tuple[]"
								}
							],
							"internalType": "struct Client.Any2EVMMessage",
							"name": "message",
							"type": "tuple"
						}
					],
					"name": "ccipReceive",
					"outputs": [],
					"stateMutability": "nonpayable",
					"type": "function"
				},
				{
					"inputs": [
						{
							"internalType": "address",
							"name": "_claimant",
							"type": "address"
						}
					],
					"name": "claimGilts",
					"outputs": [
						{
							"components": [
								{
									"internalType": "uint256",
									"name": "projectId",
									"type": "uint256"
								},
								{
									"internalType": "uint256",
									"name": "giltId",
									"type": "uint256"
								},
								{
									"internalType": "uint256",
									"name": "chainId",
									"type": "uint256"
								}
							],
							"internalType": "struct GiltClaim[]",
							"name": "_giltClaims",
							"type": "tuple[]"
						}
					],
					"stateMutability": "nonpayable",
					"type": "function"
				},
				{
					"inputs": [],
					"name": "getName",
					"outputs": [
						{
							"internalType": "string",
							"name": "_name",
							"type": "string"
						}
					],
					"stateMutability": "pure",
					"type": "function"
				},
				{
					"inputs": [],
					"name": "getRouter",
					"outputs": [
						{
							"internalType": "address",
							"name": "",
							"type": "address"
						}
					],
					"stateMutability": "view",
					"type": "function"
				},
				{
					"inputs": [],
					"name": "getTGiltIds",
					"outputs": [
						{
							"internalType": "bytes32[]",
							"name": "_tGiltIds",
							"type": "bytes32[]"
						}
					],
					"stateMutability": "view",
					"type": "function"
				},
				{
					"inputs": [
						{
							"internalType": "bytes32",
							"name": "_tGiltId",
							"type": "bytes32"
						}
					],
					"name": "getTransmittedGilt",
					"outputs": [
						{
							"components": [
								{
									"components": [
										{
											"internalType": "address",
											"name": "erc20",
											"type": "address"
										},
										{
											"internalType": "uint256",
											"name": "amount",
											"type": "uint256"
										},
										{
											"internalType": "uint256",
											"name": "creationDate",
											"type": "uint256"
										},
										{
											"internalType": "uint256",
											"name": "chainId",
											"type": "uint256"
										},
										{
											"internalType": "address",
											"name": "giltContract",
											"type": "address"
										},
										{
											"internalType": "uint256",
											"name": "id",
											"type": "uint256"
										}
									],
									"internalType": "struct Gilt",
									"name": "gilt",
									"type": "tuple"
								},
								{
									"internalType": "bytes32",
									"name": "alloProfileId",
									"type": "bytes32"
								},
								{
									"internalType": "uint256",
									"name": "projectId",
									"type": "uint256"
								},
								{
									"internalType": "address",
									"name": "owner",
									"type": "address"
								}
							],
							"internalType": "struct TransmittedGilt",
							"name": "tGilt",
							"type": "tuple"
						}
					],
					"stateMutability": "view",
					"type": "function"
				},
				{
					"inputs": [],
					"name": "getVersion",
					"outputs": [
						{
							"internalType": "uint256",
							"name": "_version",
							"type": "uint256"
						}
					],
					"stateMutability": "pure",
					"type": "function"
				},
				{
					"inputs": [
						{
							"internalType": "bytes4",
							"name": "interfaceId",
							"type": "bytes4"
						}
					],
					"name": "supportsInterface",
					"outputs": [
						{
							"internalType": "bool",
							"name": "",
							"type": "bool"
						}
					],
					"stateMutability": "pure",
					"type": "function"
				},
				{
					"inputs": [
						{
							"internalType": "address",
							"name": "_claimant",
							"type": "address"
						}
					],
					"name": "viewAvailableGiltClaims",
					"outputs": [
						{
							"components": [
								{
									"internalType": "address",
									"name": "erc20",
									"type": "address"
								},
								{
									"internalType": "uint256",
									"name": "amount",
									"type": "uint256"
								},
								{
									"internalType": "uint256",
									"name": "creationDate",
									"type": "uint256"
								},
								{
									"internalType": "uint256",
									"name": "chainId",
									"type": "uint256"
								},
								{
									"internalType": "address",
									"name": "giltContract",
									"type": "address"
								},
								{
									"internalType": "uint256",
									"name": "id",
									"type": "uint256"
								}
							],
							"internalType": "struct Gilt[]",
							"name": "_gilts",
							"type": "tuple[]"
						}
					],
					"stateMutability": "view",
					"type": "function"
				}
			],
			"devdoc": {
				"kind": "dev",
				"methods": {
					"ccipReceive((bytes32,uint64,bytes,bytes,(address,uint256)[]))": {
						"details": "Note ensure you check the msg.sender is the OffRampRouter",
						"params": {
							"message": "CCIP Message"
						}
					},
					"getRouter()": {
						"returns": {
							"_0": "i_router address"
						}
					},
					"supportsInterface(bytes4)": {
						"details": "Should indicate whether the contract implements IAny2EVMMessageReceiver e.g. return interfaceId == type(IAny2EVMMessageReceiver).interfaceId || interfaceId == type(IERC165).interfaceId This allows CCIP to check if ccipReceive is available before calling it. If this returns false or reverts, only tokens are transferred to the receiver. If this returns true, tokens are transferred and ccipReceive is called atomically. Additionally, if the receiver address does not have code associated with it at the time of execution (EXTCODESIZE returns 0), only tokens will be transferred.",
						"params": {
							"interfaceId": "The interfaceId to check"
						},
						"returns": {
							"_0": "true if the interfaceId is supported"
						}
					}
				},
				"version": 1
			},
			"evm": {
				"assembly": "    /* \"contracts/core/MReciever_flattened.sol\":19069:22701  contract MReciever is CCIPReceiver, IMReciever, IMVersion {... */\n  mstore(0x40, 0xa0)\n    /* \"contracts/core/MReciever_flattened.sol\":19931:20050  constructor(address _register, address _router) CCIPReceiver(_router) {... */\n  callvalue\n  dup1\n  iszero\n  tag_1\n  jumpi\n  0x00\n  dup1\n  revert\ntag_1:\n  pop\n  mload(0x40)\n  sub(codesize, bytecodeSize)\n  dup1\n  bytecodeSize\n  dup4\n  codecopy\n  dup2\n  add\n  0x40\n  dup2\n  swap1\n  mstore\n  tag_2\n  swap2\n  tag_3\n  jump\t// in\ntag_2:\n    /* \"contracts/core/MReciever_flattened.sol\":19992:19999  _router */\n  dup1\n  sub(shl(0xa0, 0x01), 0x01)\n    /* \"contracts/core/MReciever_flattened.sol\":3444:3464  router == address(0) */\n  dup2\n  and\n    /* \"contracts/core/MReciever_flattened.sol\":3440:3498  if (router == address(0)) revert InvalidRouter(address(0)) */\n  tag_7\n  jumpi\n    /* \"contracts/core/MReciever_flattened.sol\":3473:3498  InvalidRouter(address(0)) */\n  mload(0x40)\n  shl(0xe2, 0x35fdcccd)\n  dup2\n  mstore\n    /* \"contracts/core/MReciever_flattened.sol\":3495:3496  0 */\n  0x00\n    /* \"contracts/core/MReciever_flattened.sol\":3473:3498  InvalidRouter(address(0)) */\n  0x04\n  dup3\n  add\n    /* \"#utility.yul\":640:691   */\n  mstore\n    /* \"#utility.yul\":613:631   */\n  0x24\n  add\n    /* \"contracts/core/MReciever_flattened.sol\":3473:3498  InvalidRouter(address(0)) */\n  mload(0x40)\n  dup1\n  swap2\n  sub\n  swap1\n  revert\n    /* \"contracts/core/MReciever_flattened.sol\":3440:3498  if (router == address(0)) revert InvalidRouter(address(0)) */\ntag_7:\n  sub(shl(0xa0, 0x01), 0x01)\n    /* \"contracts/core/MReciever_flattened.sol\":3504:3521  i_router = router */\n  swap1\n  dup2\n  and\n  0x80\n  mstore\n    /* \"contracts/core/MReciever_flattened.sol\":20011:20019  register */\n  0x00\n    /* \"contracts/core/MReciever_flattened.sol\":20011:20043  register = IMRegister(_register) */\n  dup1\n  sload\n  not(sub(shl(0xa0, 0x01), 0x01))\n  and\n  swap4\n  swap1\n  swap2\n  and\n  swap3\n  swap1\n  swap3\n  or\n  swap1\n  swap2\n  sstore\n  pop\n    /* \"contracts/core/MReciever_flattened.sol\":19069:22701  contract MReciever is CCIPReceiver, IMReciever, IMVersion {... */\n  jump(tag_13)\n    /* \"#utility.yul\":14:191   */\ntag_12:\n    /* \"#utility.yul\":93:106   */\n  dup1\n  mload\n  sub(shl(0xa0, 0x01), 0x01)\n    /* \"#utility.yul\":135:166   */\n  dup2\n  and\n    /* \"#utility.yul\":125:167   */\n  dup2\n  eq\n    /* \"#utility.yul\":115:185   */\n  tag_15\n  jumpi\n    /* \"#utility.yul\":181:182   */\n  0x00\n    /* \"#utility.yul\":178:179   */\n  dup1\n    /* \"#utility.yul\":171:183   */\n  revert\n    /* \"#utility.yul\":115:185   */\ntag_15:\n    /* \"#utility.yul\":14:191   */\n  swap2\n  swap1\n  pop\n  jump\t// out\n    /* \"#utility.yul\":196:489   */\ntag_3:\n    /* \"#utility.yul\":275:281   */\n  0x00\n    /* \"#utility.yul\":283:289   */\n  dup1\n    /* \"#utility.yul\":336:338   */\n  0x40\n    /* \"#utility.yul\":324:333   */\n  dup4\n    /* \"#utility.yul\":315:322   */\n  dup6\n    /* \"#utility.yul\":311:334   */\n  sub\n    /* \"#utility.yul\":307:339   */\n  slt\n    /* \"#utility.yul\":304:356   */\n  iszero\n  tag_17\n  jumpi\n    /* \"#utility.yul\":352:353   */\n  0x00\n    /* \"#utility.yul\":349:350   */\n  dup1\n    /* \"#utility.yul\":342:354   */\n  revert\n    /* \"#utility.yul\":304:356   */\ntag_17:\n    /* \"#utility.yul\":375:415   */\n  tag_18\n    /* \"#utility.yul\":405:414   */\n  dup4\n    /* \"#utility.yul\":375:415   */\n  tag_12\n  jump\t// in\ntag_18:\n    /* \"#utility.yul\":365:415   */\n  swap2\n  pop\n    /* \"#utility.yul\":434:483   */\n  tag_19\n    /* \"#utility.yul\":479:481   */\n  0x20\n    /* \"#utility.yul\":468:477   */\n  dup5\n    /* \"#utility.yul\":464:482   */\n  add\n    /* \"#utility.yul\":434:483   */\n  tag_12\n  jump\t// in\ntag_19:\n    /* \"#utility.yul\":424:483   */\n  swap1\n  pop\n    /* \"#utility.yul\":196:489   */\n  swap3\n  pop\n  swap3\n  swap1\n  pop\n  jump\t// out\n    /* \"#utility.yul\":494:697   */\ntag_13:\n    /* \"contracts/core/MReciever_flattened.sol\":19069:22701  contract MReciever is CCIPReceiver, IMReciever, IMVersion {... */\n  mload(0x80)\n  codecopy(0x00, dataOffset(sub_0), dataSize(sub_0))\n  0x00\n  assignImmutable(\"0xab20a672b3c5d5f71a8da6c43d4bf580ed35b623d6b0366b1de9df7e12238080\")\n  return(0x00, dataSize(sub_0))\nstop\n\nsub_0: assembly {\n        /* \"contracts/core/MReciever_flattened.sol\":19069:22701  contract MReciever is CCIPReceiver, IMReciever, IMVersion {... */\n      mstore(0x40, 0x80)\n      callvalue\n      dup1\n      iszero\n      tag_1\n      jumpi\n      0x00\n      dup1\n      revert\n    tag_1:\n      pop\n      jumpi(tag_2, lt(calldatasize, 0x04))\n      shr(0xe0, calldataload(0x00))\n      dup1\n      0x72d02aea\n      gt\n      tag_12\n      jumpi\n      dup1\n      0x72d02aea\n      eq\n      tag_7\n      jumpi\n      dup1\n      0x85572ffb\n      eq\n      tag_8\n      jumpi\n      dup1\n      0x885c7b39\n      eq\n      tag_9\n      jumpi\n      dup1\n      0xa7648435\n      eq\n      tag_10\n      jumpi\n      dup1\n      0xb0f479a1\n      eq\n      tag_11\n      jumpi\n      0x00\n      dup1\n      revert\n    tag_12:\n      dup1\n      0x01ffc9a7\n      eq\n      tag_3\n      jumpi\n      dup1\n      0x0d8e6e2c\n      eq\n      tag_4\n      jumpi\n      dup1\n      0x17d7de7c\n      eq\n      tag_5\n      jumpi\n      dup1\n      0x5c089a54\n      eq\n      tag_6\n      jumpi\n    tag_2:\n      0x00\n      dup1\n      revert\n        /* \"contracts/core/MReciever_flattened.sol\":4303:4512  function supportsInterface(bytes4 interfaceId) public pure virtual override returns (bool) {... */\n    tag_3:\n      tag_13\n      tag_14\n      calldatasize\n      0x04\n      tag_15\n      jump\t// in\n    tag_14:\n      tag_16\n      jump\t// in\n    tag_13:\n      mload(0x40)\n        /* \"#utility.yul\":470:484   */\n      swap1\n      iszero\n        /* \"#utility.yul\":463:485   */\n      iszero\n        /* \"#utility.yul\":445:486   */\n      dup2\n      mstore\n        /* \"#utility.yul\":433:435   */\n      0x20\n        /* \"#utility.yul\":418:436   */\n      add\n        /* \"contracts/core/MReciever_flattened.sol\":4303:4512  function supportsInterface(bytes4 interfaceId) public pure virtual override returns (bool) {... */\n    tag_17:\n      mload(0x40)\n      dup1\n      swap2\n      sub\n      swap1\n      return\n        /* \"contracts/core/MReciever_flattened.sol\":20154:20249  function getVersion() pure external returns (uint256 _version) {... */\n    tag_4:\n      mload(0x40)\n        /* \"contracts/core/MReciever_flattened.sol\":19548:19549  2 */\n      0x02\n        /* \"#utility.yul\":643:668   */\n      dup2\n      mstore\n        /* \"#utility.yul\":631:633   */\n      0x20\n        /* \"#utility.yul\":616:634   */\n      add\n        /* \"contracts/core/MReciever_flattened.sol\":20154:20249  function getVersion() pure external returns (uint256 _version) {... */\n      tag_17\n        /* \"#utility.yul\":497:674   */\n      jump\n        /* \"contracts/core/MReciever_flattened.sol\":20056:20148  function getName() pure external returns (string memory _name) {... */\n    tag_5:\n        /* \"contracts/core/MReciever_flattened.sol\":20136:20140  name */\n      0x40\n      dup1\n      mload\n      dup1\n      dup3\n      add\n      dup3\n      mstore\n      0x13\n      dup2\n      mstore\n      shl(0x69, 0x2922a9a2a92b22a22fa6afa922a1a4a2ab22a9)\n      0x20\n      dup3\n      add\n      mstore\n        /* \"contracts/core/MReciever_flattened.sol\":20056:20148  function getName() pure external returns (string memory _name) {... */\n      swap1\n      mload\n      tag_17\n      swap2\n        /* \"contracts/core/MReciever_flattened.sol\":20136:20140  name */\n      swap1\n        /* \"contracts/core/MReciever_flattened.sol\":20056:20148  function getName() pure external returns (string memory _name) {... */\n      tag_26\n      jump\t// in\n        /* \"contracts/core/MReciever_flattened.sol\":20713:20821  function getTGiltIds() view external returns (bytes32 [] memory _tGiltIds) {... */\n    tag_6:\n      tag_27\n      tag_28\n      jump\t// in\n    tag_27:\n      mload(0x40)\n      tag_17\n      swap2\n      swap1\n      tag_30\n      jump\t// in\n        /* \"contracts/core/MReciever_flattened.sol\":21465:22586  function claimGilts(address _claimant) external margariOnly returns (GiltClaim [] memory _giltClaims){... */\n    tag_7:\n      tag_31\n      tag_32\n      calldatasize\n      0x04\n      tag_33\n      jump\t// in\n    tag_32:\n      tag_34\n      jump\t// in\n    tag_31:\n      mload(0x40)\n      tag_17\n      swap2\n      swap1\n      tag_36\n      jump\t// in\n        /* \"contracts/core/MReciever_flattened.sol\":4558:4688  function ccipReceive(Client.Any2EVMMessage calldata message) external virtual override onlyRouter {... */\n    tag_8:\n      tag_37\n      tag_38\n      calldatasize\n      0x04\n      tag_39\n      jump\t// in\n    tag_38:\n      tag_40\n      jump\t// in\n    tag_37:\n      stop\n        /* \"contracts/core/MReciever_flattened.sol\":20975:21459  function viewAvailableGiltClaims(address _claimant)  view external returns (Gilt [] memory _gilts) {... */\n    tag_9:\n      tag_41\n      tag_42\n      calldatasize\n      0x04\n      tag_33\n      jump\t// in\n    tag_42:\n      tag_43\n      jump\t// in\n    tag_41:\n      mload(0x40)\n      tag_17\n      swap2\n      swap1\n      tag_45\n      jump\t// in\n        /* \"contracts/core/MReciever_flattened.sol\":20827:20969  function getTransmittedGilt(bytes32 _tGiltId) view external returns (TransmittedGilt memory tGilt) {... */\n    tag_10:\n      tag_46\n      tag_47\n      calldatasize\n      0x04\n      tag_48\n      jump\t// in\n    tag_47:\n      tag_49\n      jump\t// in\n    tag_46:\n      mload(0x40)\n      tag_17\n      swap2\n      swap1\n      tag_51\n      jump\t// in\n        /* \"contracts/core/MReciever_flattened.sol\":5100:5186  function getRouter() public view returns (address) {... */\n    tag_11:\n      mload(0x40)\n      sub(shl(0xa0, 0x01), 0x01)\n        /* \"contracts/core/MReciever_flattened.sol\":5172:5180  i_router */\n      immutable(\"0xab20a672b3c5d5f71a8da6c43d4bf580ed35b623d6b0366b1de9df7e12238080\")\n        /* \"#utility.yul\":5571:5603   */\n      and\n        /* \"#utility.yul\":5553:5604   */\n      dup2\n      mstore\n        /* \"#utility.yul\":5541:5543   */\n      0x20\n        /* \"#utility.yul\":5526:5544   */\n      add\n        /* \"contracts/core/MReciever_flattened.sol\":5100:5186  function getRouter() public view returns (address) {... */\n      tag_17\n        /* \"#utility.yul\":5407:5610   */\n      jump\n        /* \"contracts/core/MReciever_flattened.sol\":4303:4512  function supportsInterface(bytes4 interfaceId) public pure virtual override returns (bool) {... */\n    tag_16:\n        /* \"contracts/core/MReciever_flattened.sol\":4388:4392  bool */\n      0x00\n      not(sub(shl(0xe0, 0x01), 0x01))\n        /* \"contracts/core/MReciever_flattened.sol\":4407:4463  interfaceId == type(IAny2EVMMessageReceiver).interfaceId */\n      dup3\n      and\n      shl(0xe0, 0x85572ffb)\n      eq\n      dup1\n        /* \"contracts/core/MReciever_flattened.sol\":4407:4507  interfaceId == type(IAny2EVMMessageReceiver).interfaceId || interfaceId == type(IERC165).interfaceId */\n      tag_57\n      jumpi\n      pop\n      not(sub(shl(0xe0, 0x01), 0x01))\n        /* \"contracts/core/MReciever_flattened.sol\":4467:4507  interfaceId == type(IERC165).interfaceId */\n      dup3\n      and\n      shl(0xe0, 0x01ffc9a7)\n      eq\n        /* \"contracts/core/MReciever_flattened.sol\":4407:4507  interfaceId == type(IAny2EVMMessageReceiver).interfaceId || interfaceId == type(IERC165).interfaceId */\n    tag_57:\n        /* \"contracts/core/MReciever_flattened.sol\":4400:4507  return interfaceId == type(IAny2EVMMessageReceiver).interfaceId || interfaceId == type(IERC165).interfaceId */\n      swap3\n        /* \"contracts/core/MReciever_flattened.sol\":4303:4512  function supportsInterface(bytes4 interfaceId) public pure virtual override returns (bool) {... */\n      swap2\n      pop\n      pop\n      jump\t// out\n        /* \"contracts/core/MReciever_flattened.sol\":20713:20821  function getTGiltIds() view external returns (bytes32 [] memory _tGiltIds) {... */\n    tag_28:\n        /* \"contracts/core/MReciever_flattened.sol\":20759:20786  bytes32 [] memory _tGiltIds */\n      0x60\n        /* \"contracts/core/MReciever_flattened.sol\":20805:20813  tGiltIds */\n      0x03\n        /* \"contracts/core/MReciever_flattened.sol\":20798:20813  return tGiltIds */\n      dup1\n      sload\n      dup1\n      0x20\n      mul\n      0x20\n      add\n      mload(0x40)\n      swap1\n      dup2\n      add\n      0x40\n      mstore\n      dup1\n      swap3\n      swap2\n      swap1\n      dup2\n      dup2\n      mstore\n      0x20\n      add\n      dup3\n      dup1\n      sload\n      dup1\n      iszero\n      tag_61\n      jumpi\n      0x20\n      mul\n      dup3\n      add\n      swap2\n      swap1\n      0x00\n      mstore\n      keccak256(0x00, 0x20)\n      swap1\n    tag_62:\n      dup2\n      sload\n      dup2\n      mstore\n      0x20\n      add\n      swap1\n      0x01\n      add\n      swap1\n      dup1\n      dup4\n      gt\n      tag_62\n      jumpi\n    tag_61:\n      pop\n      pop\n      pop\n      pop\n      pop\n      swap1\n      pop\n        /* \"contracts/core/MReciever_flattened.sol\":20713:20821  function getTGiltIds() view external returns (bytes32 [] memory _tGiltIds) {... */\n      swap1\n      jump\t// out\n        /* \"contracts/core/MReciever_flattened.sol\":21465:22586  function claimGilts(address _claimant) external margariOnly returns (GiltClaim [] memory _giltClaims){... */\n    tag_34:\n        /* \"contracts/core/MReciever_flattened.sol\":19399:19407  register */\n      sload(0x00)\n        /* \"contracts/core/MReciever_flattened.sol\":19419:19429  MARGARI_CA */\n      0x40\n      dup1\n      mload\n      dup1\n      dup3\n      add\n      dup3\n      mstore\n      0x15\n      dup2\n      mstore\n      shl(0x58, 0x52455345525645445f4d4152474152495f434f5245)\n      0x20\n      dup3\n      add\n      mstore\n        /* \"contracts/core/MReciever_flattened.sol\":19399:19430  register.getAddress(MARGARI_CA) */\n      swap1\n      mload\n      shl(0xe0, 0xbf40fac1)\n      dup2\n      mstore\n        /* \"contracts/core/MReciever_flattened.sol\":21534:21565  GiltClaim [] memory _giltClaims */\n      0x60\n      swap3\n      sub(shl(0xa0, 0x01), 0x01)\n        /* \"contracts/core/MReciever_flattened.sol\":19399:19407  register */\n      and\n      swap2\n        /* \"contracts/core/MReciever_flattened.sol\":19399:19418  register.getAddress */\n      0xbf40fac1\n      swap2\n        /* \"contracts/core/MReciever_flattened.sol\":19399:19430  register.getAddress(MARGARI_CA) */\n      tag_64\n      swap2\n        /* \"contracts/core/MReciever_flattened.sol\":19419:19429  MARGARI_CA */\n      swap1\n        /* \"contracts/core/MReciever_flattened.sol\":19399:19430  register.getAddress(MARGARI_CA) */\n      0x04\n      add\n      tag_26\n      jump\t// in\n    tag_64:\n      0x20\n      mload(0x40)\n      dup1\n      dup4\n      sub\n      dup2\n      dup7\n      gas\n      staticcall\n      iszero\n      dup1\n      iszero\n      tag_66\n      jumpi\n      returndatasize\n      0x00\n      dup1\n      returndatacopy\n      revert(0x00, returndatasize)\n    tag_66:\n      pop\n      pop\n      pop\n      pop\n      mload(0x40)\n      returndatasize\n      not(0x1f)\n      0x1f\n      dup3\n      add\n      and\n      dup3\n      add\n      dup1\n      0x40\n      mstore\n      pop\n      dup2\n      add\n      swap1\n      tag_67\n      swap2\n      swap1\n      tag_68\n      jump\t// in\n    tag_67:\n      sub(shl(0xa0, 0x01), 0x01)\n        /* \"contracts/core/MReciever_flattened.sol\":19385:19430  msg.sender == register.getAddress(MARGARI_CA) */\n      and\n        /* \"contracts/core/MReciever_flattened.sol\":19385:19395  msg.sender */\n      caller\n      sub(shl(0xa0, 0x01), 0x01)\n        /* \"contracts/core/MReciever_flattened.sol\":19385:19430  msg.sender == register.getAddress(MARGARI_CA) */\n      and\n      eq\n        /* \"contracts/core/MReciever_flattened.sol\":19377:19447  require(msg.sender == register.getAddress(MARGARI_CA), \"margari only\") */\n      tag_69\n      jumpi\n      mload(0x40)\n      shl(0xe5, 0x461bcd)\n      dup2\n      mstore\n        /* \"#utility.yul\":6073:6075   */\n      0x20\n        /* \"contracts/core/MReciever_flattened.sol\":19377:19447  require(msg.sender == register.getAddress(MARGARI_CA), \"margari only\") */\n      0x04\n      dup3\n      add\n        /* \"#utility.yul\":6055:6076   */\n      mstore\n        /* \"#utility.yul\":6112:6114   */\n      0x0c\n        /* \"#utility.yul\":6092:6110   */\n      0x24\n      dup3\n      add\n        /* \"#utility.yul\":6085:6115   */\n      mstore\n      shl(0xa0, 0x6d617267617269206f6e6c79)\n        /* \"#utility.yul\":6131:6149   */\n      0x44\n      dup3\n      add\n        /* \"#utility.yul\":6124:6166   */\n      mstore\n        /* \"#utility.yul\":6183:6201   */\n      0x64\n      add\n        /* \"contracts/core/MReciever_flattened.sol\":19377:19447  require(msg.sender == register.getAddress(MARGARI_CA), \"margari only\") */\n    tag_70:\n      mload(0x40)\n      dup1\n      swap2\n      sub\n      swap1\n      revert\n    tag_69:\n      sub(shl(0xa0, 0x01), 0x01)\n        /* \"contracts/core/MReciever_flattened.sol\":21611:21637  tGiltIdsByOwner[_claimant] */\n      dup3\n      and\n        /* \"contracts/core/MReciever_flattened.sol\":21576:21608  bytes32 [] memory unclaimedGilts */\n      0x00\n        /* \"contracts/core/MReciever_flattened.sol\":21611:21637  tGiltIdsByOwner[_claimant] */\n      swap1\n      dup2\n      mstore\n        /* \"contracts/core/MReciever_flattened.sol\":21611:21626  tGiltIdsByOwner */\n      0x05\n        /* \"contracts/core/MReciever_flattened.sol\":21611:21637  tGiltIdsByOwner[_claimant] */\n      0x20\n      swap1\n      dup2\n      mstore\n      0x40\n      dup1\n      dup4\n      keccak256\n        /* \"contracts/core/MReciever_flattened.sol\":21576:21637  bytes32 [] memory unclaimedGilts = tGiltIdsByOwner[_claimant] */\n      dup1\n      sload\n      dup3\n      mload\n      dup2\n      dup6\n      mul\n      dup2\n      add\n      dup6\n      add\n      swap1\n      swap4\n      mstore\n      dup1\n      dup4\n      mstore\n      swap2\n      swap3\n        /* \"contracts/core/MReciever_flattened.sol\":21611:21637  tGiltIdsByOwner[_claimant] */\n      swap1\n      swap2\n        /* \"contracts/core/MReciever_flattened.sol\":21576:21637  bytes32 [] memory unclaimedGilts = tGiltIdsByOwner[_claimant] */\n      swap1\n      dup4\n      add\n        /* \"contracts/core/MReciever_flattened.sol\":21611:21637  tGiltIdsByOwner[_claimant] */\n      dup3\n        /* \"contracts/core/MReciever_flattened.sol\":21576:21637  bytes32 [] memory unclaimedGilts = tGiltIdsByOwner[_claimant] */\n      dup3\n      dup1\n      iszero\n      tag_73\n      jumpi\n      0x20\n      mul\n      dup3\n      add\n      swap2\n      swap1\n      0x00\n      mstore\n      keccak256(0x00, 0x20)\n      swap1\n    tag_74:\n      dup2\n      sload\n      dup2\n      mstore\n      0x20\n      add\n      swap1\n      0x01\n      add\n      swap1\n      dup1\n      dup4\n      gt\n      tag_74\n      jumpi\n    tag_73:\n      pop\n      pop\n      pop\n      pop\n      sub(shl(0xa0, 0x01), 0x01)\n        /* \"contracts/core/MReciever_flattened.sol\":21654:21680  tGiltIdsByOwner[_claimant] */\n      dup6\n      and\n      0x00\n      swap1\n      dup2\n      mstore\n        /* \"contracts/core/MReciever_flattened.sol\":21654:21669  tGiltIdsByOwner */\n      0x05\n        /* \"contracts/core/MReciever_flattened.sol\":21654:21680  tGiltIdsByOwner[_claimant] */\n      0x20\n      mstore\n      0x40\n      dup2\n      keccak256\n        /* \"contracts/core/MReciever_flattened.sol\":21576:21637  bytes32 [] memory unclaimedGilts = tGiltIdsByOwner[_claimant] */\n      swap3\n      swap4\n      pop\n        /* \"contracts/core/MReciever_flattened.sol\":21647:21680  delete tGiltIdsByOwner[_claimant] */\n      tag_75\n      swap3\n        /* \"contracts/core/MReciever_flattened.sol\":21654:21680  tGiltIdsByOwner[_claimant] */\n      swap2\n      pop\n        /* \"contracts/core/MReciever_flattened.sol\":21647:21680  delete tGiltIdsByOwner[_claimant] */\n      tag_76\n      jump\t// in\n    tag_75:\n        /* \"contracts/core/MReciever_flattened.sol\":21737:21751  unclaimedGilts */\n      dup1\n        /* \"contracts/core/MReciever_flattened.sol\":21737:21758  unclaimedGilts.length */\n      mload\n        /* \"contracts/core/MReciever_flattened.sol\":21721:21759  new GiltClaim[](unclaimedGilts.length) */\n      0xffffffffffffffff\n      dup2\n      gt\n      iszero\n      tag_78\n      jumpi\n      tag_78\n      tag_79\n      jump\t// in\n    tag_78:\n      mload(0x40)\n      swap1\n      dup1\n      dup3\n      mstore\n      dup1\n      0x20\n      mul\n      0x20\n      add\n      dup3\n      add\n      0x40\n      mstore\n      dup1\n      iszero\n      tag_80\n      jumpi\n      dup2\n      0x20\n      add\n    tag_81:\n      tag_82\n      mload(0x40)\n      dup1\n      0x60\n      add\n      0x40\n      mstore\n      dup1\n      0x00\n      dup2\n      mstore\n      0x20\n      add\n      0x00\n      dup2\n      mstore\n      0x20\n      add\n      0x00\n      dup2\n      mstore\n      pop\n      swap1\n      jump\n    tag_82:\n      dup2\n      mstore\n      0x20\n      add\n      swap1\n      0x01\n      swap1\n      sub\n      swap1\n      dup2\n      tag_81\n      jumpi\n      swap1\n      pop\n    tag_80:\n      pop\n        /* \"contracts/core/MReciever_flattened.sol\":21707:21759  _giltClaims = new GiltClaim[](unclaimedGilts.length) */\n      swap2\n      pop\n        /* \"contracts/core/MReciever_flattened.sol\":21773:21782  uint256 x */\n      0x00\n        /* \"contracts/core/MReciever_flattened.sol\":21769:22551  for(uint256 x = 0; x < unclaimedGilts.length; x++) {    ... */\n    tag_84:\n        /* \"contracts/core/MReciever_flattened.sol\":21792:21806  unclaimedGilts */\n      dup2\n        /* \"contracts/core/MReciever_flattened.sol\":21792:21813  unclaimedGilts.length */\n      mload\n        /* \"contracts/core/MReciever_flattened.sol\":21788:21789  x */\n      dup2\n        /* \"contracts/core/MReciever_flattened.sol\":21788:21813  x < unclaimedGilts.length */\n      lt\n        /* \"contracts/core/MReciever_flattened.sol\":21769:22551  for(uint256 x = 0; x < unclaimedGilts.length; x++) {    ... */\n      iszero\n      tag_85\n      jumpi\n        /* \"contracts/core/MReciever_flattened.sol\":21838:21854  bytes32 tGiltId_ */\n      0x00\n        /* \"contracts/core/MReciever_flattened.sol\":21857:21871  unclaimedGilts */\n      dup3\n        /* \"contracts/core/MReciever_flattened.sol\":21872:21873  x */\n      dup3\n        /* \"contracts/core/MReciever_flattened.sol\":21857:21874  unclaimedGilts[x] */\n      dup2\n      mload\n      dup2\n      lt\n      tag_88\n      jumpi\n      tag_88\n      tag_89\n      jump\t// in\n    tag_88:\n      0x20\n      swap1\n      dup2\n      mul\n      swap2\n      swap1\n      swap2\n      add\n      dup2\n      add\n      mload\n        /* \"contracts/core/MReciever_flattened.sol\":21888:21917  TransmittedGilt memory tGilt_ */\n      0x00\n        /* \"contracts/core/MReciever_flattened.sol\":21920:21939  tGiltById[tGiltId_] */\n      dup2\n      dup2\n      mstore\n        /* \"contracts/core/MReciever_flattened.sol\":21920:21929  tGiltById */\n      0x04\n        /* \"contracts/core/MReciever_flattened.sol\":21920:21939  tGiltById[tGiltId_] */\n      dup1\n      dup5\n      mstore\n      0x40\n      dup1\n      dup4\n      keccak256\n        /* \"contracts/core/MReciever_flattened.sol\":21888:21939  TransmittedGilt memory tGilt_ = tGiltById[tGiltId_] */\n      dup2\n      mload\n      0x0140\n      dup2\n      add\n      dup4\n      mstore\n      dup2\n      sload\n      sub(shl(0xa0, 0x01), 0x01)\n      swap1\n      dup2\n      and\n      0x80\n      dup4\n      add\n      swap1\n      dup2\n      mstore\n      0x01\n      dup5\n      add\n      sload\n      0xa0\n      dup5\n      add\n      mstore\n      0x02\n      dup1\n      dup6\n      add\n      sload\n      0xc0\n      dup6\n      add\n      mstore\n      0x03\n      dup6\n      add\n      sload\n      0xe0\n      dup6\n      add\n      mstore\n      dup5\n      dup8\n      add\n      sload\n      dup4\n      and\n      0x0100\n      dup6\n      add\n      mstore\n      0x05\n      dup6\n      add\n      sload\n      0x0120\n      dup6\n      add\n      mstore\n      swap1\n      dup4\n      mstore\n      0x06\n      dup5\n      add\n      sload\n      swap9\n      dup4\n      add\n      swap9\n      swap1\n      swap9\n      mstore\n      0x07\n      dup4\n      add\n      sload\n      dup3\n      dup6\n      add\n      mstore\n      0x08\n      swap1\n      swap3\n      add\n      sload\n      dup3\n      and\n      0x60\n      dup3\n      add\n      mstore\n        /* \"contracts/core/MReciever_flattened.sol\":21991:22003  giltContract */\n      swap6\n      sload\n        /* \"contracts/core/MReciever_flattened.sol\":21991:22040  giltContract.mintLocalisedGilt(tGilt_, _claimant) */\n      swap2\n      mload\n      shl(0xe0, 0xb6b75251)\n      dup2\n      mstore\n        /* \"contracts/core/MReciever_flattened.sol\":21857:21874  unclaimedGilts[x] */\n      swap5\n      swap7\n      pop\n        /* \"contracts/core/MReciever_flattened.sol\":21888:21917  TransmittedGilt memory tGilt_ */\n      swap3\n      swap4\n        /* \"contracts/core/MReciever_flattened.sol\":21991:22003  giltContract */\n      swap3\n      and\n      swap2\n        /* \"contracts/core/MReciever_flattened.sol\":21991:22021  giltContract.mintLocalisedGilt */\n      0xb6b75251\n      swap2\n        /* \"contracts/core/MReciever_flattened.sol\":21991:22040  giltContract.mintLocalisedGilt(tGilt_, _claimant) */\n      tag_90\n      swap2\n        /* \"contracts/core/MReciever_flattened.sol\":21888:21939  TransmittedGilt memory tGilt_ = tGiltById[tGiltId_] */\n      dup7\n      swap2\n        /* \"contracts/core/MReciever_flattened.sol\":22030:22039  _claimant */\n      dup13\n      swap2\n        /* \"contracts/core/MReciever_flattened.sol\":21991:22040  giltContract.mintLocalisedGilt(tGilt_, _claimant) */\n      add\n      tag_91\n      jump\t// in\n    tag_90:\n      0xc0\n      mload(0x40)\n      dup1\n      dup4\n      sub\n      dup2\n      0x00\n      dup8\n      gas\n      call\n      iszero\n      dup1\n      iszero\n      tag_93\n      jumpi\n      returndatasize\n      0x00\n      dup1\n      returndatacopy\n      revert(0x00, returndatasize)\n    tag_93:\n      pop\n      pop\n      pop\n      pop\n      mload(0x40)\n      returndatasize\n      not(0x1f)\n      0x1f\n      dup3\n      add\n      and\n      dup3\n      add\n      dup1\n      0x40\n      mstore\n      pop\n      dup2\n      add\n      swap1\n      tag_94\n      swap2\n      swap1\n      tag_95\n      jump\t// in\n    tag_94:\n      sub(shl(0xa0, 0x01), 0x01)\n        /* \"contracts/core/MReciever_flattened.sol\":22067:22100  claimedTGiltIdsByOwner[_claimant] */\n      dup9\n      and\n      0x00\n      swap1\n      dup2\n      mstore\n        /* \"contracts/core/MReciever_flattened.sol\":22067:22089  claimedTGiltIdsByOwner */\n      0x06\n        /* \"contracts/core/MReciever_flattened.sol\":22067:22100  claimedTGiltIdsByOwner[_claimant] */\n      0x20\n      swap1\n      dup2\n      mstore\n      0x40\n      dup1\n      dup4\n      keccak256\n        /* \"contracts/core/MReciever_flattened.sol\":22067:22115  claimedTGiltIdsByOwner[_claimant].push(tGiltId_) */\n      dup1\n      sload\n      0x01\n      dup2\n      add\n      dup3\n      sstore\n      swap1\n      dup5\n      mstore\n      swap3\n      dup3\n      swap1\n      keccak256\n      swap1\n      swap3\n      add\n      dup7\n      swap1\n      sstore\n        /* \"contracts/core/MReciever_flattened.sol\":22159:22432  GiltClaim({... */\n      dup2\n      mload\n      0x60\n      dup1\n      dup3\n      add\n      dup5\n      mstore\n        /* \"contracts/core/MReciever_flattened.sol\":22227:22243  tGilt_.projectId */\n      dup7\n      dup5\n      add\n      mload\n        /* \"contracts/core/MReciever_flattened.sol\":22159:22432  GiltClaim({... */\n      dup3\n      mstore\n        /* \"contracts/core/MReciever_flattened.sol\":22299:22310  tGilt_.gilt */\n      dup7\n      mload\n        /* \"contracts/core/MReciever_flattened.sol\":22299:22313  tGilt_.gilt.id */\n      0xa0\n      add\n      mload\n        /* \"contracts/core/MReciever_flattened.sol\":22159:22432  GiltClaim({... */\n      swap3\n      dup3\n      add\n      swap3\n      swap1\n      swap3\n      mstore\n        /* \"contracts/core/MReciever_flattened.sol\":22370:22381  tGilt_.gilt */\n      dup6\n      mload\n        /* \"contracts/core/MReciever_flattened.sol\":22370:22389  tGilt_.gilt.chainId */\n      swap1\n      swap2\n      add\n      mload\n        /* \"contracts/core/MReciever_flattened.sol\":22159:22432  GiltClaim({... */\n      swap2\n      dup2\n      add\n      swap2\n      swap1\n      swap2\n      mstore\n        /* \"contracts/core/MReciever_flattened.sol\":22142:22156  _giltClaims[x] */\n      dup8\n      mload\n        /* \"contracts/core/MReciever_flattened.sol\":21966:22040  Gilt memory localGilt_ = giltContract.mintLocalisedGilt(tGilt_, _claimant) */\n      swap2\n      swap3\n      pop\n        /* \"contracts/core/MReciever_flattened.sol\":22159:22432  GiltClaim({... */\n      swap1\n        /* \"contracts/core/MReciever_flattened.sol\":22142:22153  _giltClaims */\n      dup8\n      swap1\n        /* \"contracts/core/MReciever_flattened.sol\":22154:22155  x */\n      dup7\n      swap1\n        /* \"contracts/core/MReciever_flattened.sol\":22142:22156  _giltClaims[x] */\n      dup2\n      lt\n      tag_98\n      jumpi\n      tag_98\n      tag_89\n      jump\t// in\n    tag_98:\n      0x20\n      swap1\n      dup2\n      mul\n      swap2\n      swap1\n      swap2\n      add\n      dup2\n      add\n        /* \"contracts/core/MReciever_flattened.sol\":22142:22432  _giltClaims[x] = GiltClaim({... */\n      swap2\n      swap1\n      swap2\n      mstore\n        /* \"contracts/core/MReciever_flattened.sol\":22475:22486  tGilt_.gilt */\n      dup3\n      mload\n        /* \"contracts/core/MReciever_flattened.sol\":22475:22493  tGilt_.gilt.amount */\n      dup1\n      dup3\n      add\n      mload\n        /* \"contracts/core/MReciever_flattened.sol\":22505:22524  tGilt_.gilt.chainId */\n      0x60\n      swap2\n      dup3\n      add\n      mload\n        /* \"contracts/core/MReciever_flattened.sol\":22526:22539  localGilt_.id */\n      0xa0\n      dup1\n      dup7\n      add\n      mload\n        /* \"contracts/core/MReciever_flattened.sol\":22451:22540  GILT_CLAIMED(_claimant, tGilt_.gilt.amount, tGiltId_, tGilt_.gilt.chainId, localGilt_.id) */\n      0x40\n      dup1\n      mload\n      sub(shl(0xa0, 0x01), 0x01)\n        /* \"#utility.yul\":9030:9062   */\n      dup16\n      and\n        /* \"#utility.yul\":9012:9063   */\n      dup2\n      mstore\n        /* \"#utility.yul\":9079:9097   */\n      swap7\n      dup8\n      add\n        /* \"#utility.yul\":9072:9106   */\n      swap5\n      swap1\n      swap5\n      mstore\n        /* \"#utility.yul\":9122:9140   */\n      swap3\n      dup6\n      add\n        /* \"#utility.yul\":9115:9149   */\n      dup9\n      swap1\n      mstore\n        /* \"#utility.yul\":9165:9183   */\n      swap3\n      dup5\n      add\n        /* \"#utility.yul\":9158:9192   */\n      mstore\n        /* \"#utility.yul\":9223:9226   */\n      0x80\n        /* \"#utility.yul\":9208:9227   */\n      dup4\n      add\n        /* \"#utility.yul\":9201:9236   */\n      mstore\n        /* \"contracts/core/MReciever_flattened.sol\":22451:22540  GILT_CLAIMED(_claimant, tGilt_.gilt.amount, tGiltId_, tGilt_.gilt.chainId, localGilt_.id) */\n      0xdb2b0c28633297e83dc452aad8a73d2ec0ab72bc7c22efdc5b830ac223dbad41\n      swap2\n        /* \"#utility.yul\":8984:9003   */\n      add\n        /* \"contracts/core/MReciever_flattened.sol\":22451:22540  GILT_CLAIMED(_claimant, tGilt_.gilt.amount, tGiltId_, tGilt_.gilt.chainId, localGilt_.id) */\n      mload(0x40)\n      dup1\n      swap2\n      sub\n      swap1\n      log1\n      pop\n      pop\n      pop\n        /* \"contracts/core/MReciever_flattened.sol\":21815:21818  x++ */\n      0x01\n      add\n        /* \"contracts/core/MReciever_flattened.sol\":21769:22551  for(uint256 x = 0; x < unclaimedGilts.length; x++) {    ... */\n      jump(tag_84)\n    tag_85:\n      pop\n        /* \"contracts/core/MReciever_flattened.sol\":22560:22578  return _giltClaims */\n      pop\n        /* \"contracts/core/MReciever_flattened.sol\":19457:19458  _ */\n    tag_72:\n        /* \"contracts/core/MReciever_flattened.sol\":21465:22586  function claimGilts(address _claimant) external margariOnly returns (GiltClaim [] memory _giltClaims){... */\n      swap2\n      swap1\n      pop\n      jump\t// out\n        /* \"contracts/core/MReciever_flattened.sol\":4558:4688  function ccipReceive(Client.Any2EVMMessage calldata message) external virtual override onlyRouter {... */\n    tag_40:\n        /* \"contracts/core/MReciever_flattened.sol\":5318:5328  msg.sender */\n      caller\n      sub(shl(0xa0, 0x01), 0x01)\n        /* \"contracts/core/MReciever_flattened.sol\":5340:5348  i_router */\n      immutable(\"0xab20a672b3c5d5f71a8da6c43d4bf580ed35b623d6b0366b1de9df7e12238080\")\n        /* \"contracts/core/MReciever_flattened.sol\":5318:5349  msg.sender != address(i_router) */\n      and\n      eq\n        /* \"contracts/core/MReciever_flattened.sol\":5314:5383  if (msg.sender != address(i_router)) revert InvalidRouter(msg.sender) */\n      tag_102\n      jumpi\n        /* \"contracts/core/MReciever_flattened.sol\":5358:5383  InvalidRouter(msg.sender) */\n      mload(0x40)\n      shl(0xe2, 0x35fdcccd)\n      dup2\n      mstore\n        /* \"contracts/core/MReciever_flattened.sol\":5372:5382  msg.sender */\n      caller\n        /* \"contracts/core/MReciever_flattened.sol\":5358:5383  InvalidRouter(msg.sender) */\n      0x04\n      dup3\n      add\n        /* \"#utility.yul\":5553:5604   */\n      mstore\n        /* \"#utility.yul\":5526:5544   */\n      0x24\n      add\n        /* \"contracts/core/MReciever_flattened.sol\":5358:5383  InvalidRouter(msg.sender) */\n      tag_70\n        /* \"#utility.yul\":5407:5610   */\n      jump\n        /* \"contracts/core/MReciever_flattened.sol\":5314:5383  if (msg.sender != address(i_router)) revert InvalidRouter(msg.sender) */\n    tag_102:\n        /* \"contracts/core/MReciever_flattened.sol\":4662:4683  _ccipReceive(message) */\n      tag_105\n      tag_106\n        /* \"contracts/core/MReciever_flattened.sol\":4675:4682  message */\n      dup3\n        /* \"contracts/core/MReciever_flattened.sol\":4662:4683  _ccipReceive(message) */\n      tag_107\n      jump\t// in\n    tag_106:\n        /* \"contracts/core/MReciever_flattened.sol\":4662:4674  _ccipReceive */\n      tag_108\n        /* \"contracts/core/MReciever_flattened.sol\":4662:4683  _ccipReceive(message) */\n      jump\t// in\n    tag_105:\n        /* \"contracts/core/MReciever_flattened.sol\":4558:4688  function ccipReceive(Client.Any2EVMMessage calldata message) external virtual override onlyRouter {... */\n      pop\n      jump\t// out\n        /* \"contracts/core/MReciever_flattened.sol\":20975:21459  function viewAvailableGiltClaims(address _claimant)  view external returns (Gilt [] memory _gilts) {... */\n    tag_43:\n      sub(shl(0xa0, 0x01), 0x01)\n        /* \"contracts/core/MReciever_flattened.sol\":21120:21146  tGiltIdsByOwner[_claimant] */\n      dup2\n      and\n        /* \"contracts/core/MReciever_flattened.sol\":21084:21117  bytes32 [] memory unclaimedGilts_ */\n      0x00\n        /* \"contracts/core/MReciever_flattened.sol\":21120:21146  tGiltIdsByOwner[_claimant] */\n      swap1\n      dup2\n      mstore\n        /* \"contracts/core/MReciever_flattened.sol\":21120:21135  tGiltIdsByOwner */\n      0x05\n        /* \"contracts/core/MReciever_flattened.sol\":21120:21146  tGiltIdsByOwner[_claimant] */\n      0x20\n      swap1\n      dup2\n      mstore\n      0x40\n      dup1\n      dup4\n      keccak256\n        /* \"contracts/core/MReciever_flattened.sol\":21084:21146  bytes32 [] memory unclaimedGilts_ = tGiltIdsByOwner[_claimant] */\n      dup1\n      sload\n      dup3\n      mload\n      dup2\n      dup6\n      mul\n      dup2\n      add\n      dup6\n      add\n      swap1\n      swap4\n      mstore\n      dup1\n      dup4\n      mstore\n        /* \"contracts/core/MReciever_flattened.sol\":21051:21072  Gilt [] memory _gilts */\n      0x60\n      swap5\n        /* \"contracts/core/MReciever_flattened.sol\":21084:21117  bytes32 [] memory unclaimedGilts_ */\n      swap4\n        /* \"contracts/core/MReciever_flattened.sol\":21084:21146  bytes32 [] memory unclaimedGilts_ = tGiltIdsByOwner[_claimant] */\n      dup4\n      add\n        /* \"contracts/core/MReciever_flattened.sol\":21120:21146  tGiltIdsByOwner[_claimant] */\n      dup3\n        /* \"contracts/core/MReciever_flattened.sol\":21084:21146  bytes32 [] memory unclaimedGilts_ = tGiltIdsByOwner[_claimant] */\n      dup3\n      dup1\n      iszero\n      tag_110\n      jumpi\n      0x20\n      mul\n      dup3\n      add\n      swap2\n      swap1\n      0x00\n      mstore\n      keccak256(0x00, 0x20)\n      swap1\n    tag_111:\n      dup2\n      sload\n      dup2\n      mstore\n      0x20\n      add\n      swap1\n      0x01\n      add\n      swap1\n      dup1\n      dup4\n      gt\n      tag_111\n      jumpi\n    tag_110:\n      pop\n      pop\n      pop\n      pop\n      pop\n      swap1\n      pop\n        /* \"contracts/core/MReciever_flattened.sol\":21176:21191  unclaimedGilts_ */\n      dup1\n        /* \"contracts/core/MReciever_flattened.sol\":21176:21198  unclaimedGilts_.length */\n      mload\n        /* \"contracts/core/MReciever_flattened.sol\":21165:21199  new Gilt[](unclaimedGilts_.length) */\n      0xffffffffffffffff\n      dup2\n      gt\n      iszero\n      tag_113\n      jumpi\n      tag_113\n      tag_79\n      jump\t// in\n    tag_113:\n      mload(0x40)\n      swap1\n      dup1\n      dup3\n      mstore\n      dup1\n      0x20\n      mul\n      0x20\n      add\n      dup3\n      add\n      0x40\n      mstore\n      dup1\n      iszero\n      tag_114\n      jumpi\n      dup2\n      0x20\n      add\n    tag_115:\n      tag_116\n      tag_117\n      jump\t// in\n    tag_116:\n      dup2\n      mstore\n      0x20\n      add\n      swap1\n      0x01\n      swap1\n      sub\n      swap1\n      dup2\n      tag_115\n      jumpi\n      swap1\n      pop\n    tag_114:\n      pop\n        /* \"contracts/core/MReciever_flattened.sol\":21156:21199  _gilts = new Gilt[](unclaimedGilts_.length) */\n      swap2\n      pop\n        /* \"contracts/core/MReciever_flattened.sol\":21213:21222  uint256 x */\n      0x00\n        /* \"contracts/core/MReciever_flattened.sol\":21209:21430  for(uint256 x = 0; x < unclaimedGilts_.length; x++) {   ... */\n    tag_118:\n        /* \"contracts/core/MReciever_flattened.sol\":21232:21247  unclaimedGilts_ */\n      dup2\n        /* \"contracts/core/MReciever_flattened.sol\":21232:21254  unclaimedGilts_.length */\n      mload\n        /* \"contracts/core/MReciever_flattened.sol\":21228:21229  x */\n      dup2\n        /* \"contracts/core/MReciever_flattened.sol\":21228:21254  x < unclaimedGilts_.length */\n      lt\n        /* \"contracts/core/MReciever_flattened.sol\":21209:21430  for(uint256 x = 0; x < unclaimedGilts_.length; x++) {   ... */\n      iszero\n      tag_85\n      jumpi\n        /* \"contracts/core/MReciever_flattened.sol\":21278:21294  bytes32 tGiltId_ */\n      0x00\n        /* \"contracts/core/MReciever_flattened.sol\":21297:21312  unclaimedGilts_ */\n      dup3\n        /* \"contracts/core/MReciever_flattened.sol\":21313:21314  x */\n      dup3\n        /* \"contracts/core/MReciever_flattened.sol\":21297:21315  unclaimedGilts_[x] */\n      dup2\n      mload\n      dup2\n      lt\n      tag_122\n      jumpi\n      tag_122\n      tag_89\n      jump\t// in\n    tag_122:\n      0x20\n      swap1\n      dup2\n      mul\n      swap2\n      swap1\n      swap2\n      add\n      dup2\n      add\n      mload\n        /* \"contracts/core/MReciever_flattened.sol\":21330:21359  TransmittedGilt memory tGilt_ */\n      0x00\n        /* \"contracts/core/MReciever_flattened.sol\":21362:21381  tGiltById[tGiltId_] */\n      dup2\n      dup2\n      mstore\n        /* \"contracts/core/MReciever_flattened.sol\":21362:21371  tGiltById */\n      0x04\n        /* \"contracts/core/MReciever_flattened.sol\":21362:21381  tGiltById[tGiltId_] */\n      dup1\n      dup5\n      mstore\n      0x40\n      swap2\n      dup3\n      swap1\n      keccak256\n        /* \"contracts/core/MReciever_flattened.sol\":21330:21381  TransmittedGilt memory tGilt_ = tGiltById[tGiltId_] */\n      dup3\n      mload\n      0x0140\n      dup2\n      add\n      dup5\n      mstore\n      dup2\n      sload\n      sub(shl(0xa0, 0x01), 0x01)\n      swap1\n      dup2\n      and\n      0x80\n      dup4\n      add\n      swap1\n      dup2\n      mstore\n      0x01\n      dup5\n      add\n      sload\n      0xa0\n      dup5\n      add\n      mstore\n      0x02\n      dup5\n      add\n      sload\n      0xc0\n      dup5\n      add\n      mstore\n      0x03\n      dup5\n      add\n      sload\n      0xe0\n      dup5\n      add\n      mstore\n      swap4\n      dup4\n      add\n      sload\n      dup2\n      and\n      0x0100\n      dup4\n      add\n      mstore\n      0x05\n      dup4\n      add\n      sload\n      0x0120\n      dup4\n      add\n      mstore\n      dup4\n      dup3\n      mstore\n      0x06\n      dup4\n      add\n      sload\n      swap7\n      dup3\n      add\n      swap7\n      swap1\n      swap7\n      mstore\n      0x07\n      dup3\n      add\n      sload\n      swap4\n      dup2\n      add\n      swap4\n      swap1\n      swap4\n      mstore\n      0x08\n      add\n      sload\n      swap1\n      swap4\n      and\n      0x60\n      dup3\n      add\n      mstore\n        /* \"contracts/core/MReciever_flattened.sol\":21395:21404  _gilts[x] */\n      dup7\n      mload\n        /* \"contracts/core/MReciever_flattened.sol\":21297:21315  unclaimedGilts_[x] */\n      swap2\n      swap4\n      pop\n        /* \"contracts/core/MReciever_flattened.sol\":21330:21381  TransmittedGilt memory tGilt_ = tGiltById[tGiltId_] */\n      swap2\n      swap1\n        /* \"contracts/core/MReciever_flattened.sol\":21395:21401  _gilts */\n      dup7\n      swap1\n        /* \"contracts/core/MReciever_flattened.sol\":21402:21403  x */\n      dup6\n      swap1\n        /* \"contracts/core/MReciever_flattened.sol\":21395:21404  _gilts[x] */\n      dup2\n      lt\n      tag_124\n      jumpi\n      tag_124\n      tag_89\n      jump\t// in\n    tag_124:\n      0x20\n      swap1\n      dup2\n      mul\n      swap2\n      swap1\n      swap2\n      add\n      add\n        /* \"contracts/core/MReciever_flattened.sol\":21395:21418  _gilts[x] = tGilt_.gilt */\n      mstore\n      pop\n      pop\n        /* \"contracts/core/MReciever_flattened.sol\":21256:21259  x++ */\n      0x01\n      add\n        /* \"contracts/core/MReciever_flattened.sol\":21209:21430  for(uint256 x = 0; x < unclaimedGilts_.length; x++) {   ... */\n      jump(tag_118)\n        /* \"contracts/core/MReciever_flattened.sol\":20827:20969  function getTransmittedGilt(bytes32 _tGiltId) view external returns (TransmittedGilt memory tGilt) {... */\n    tag_49:\n        /* \"contracts/core/MReciever_flattened.sol\":20896:20924  TransmittedGilt memory tGilt */\n      tag_125\n      tag_126\n      jump\t// in\n    tag_125:\n      pop\n        /* \"contracts/core/MReciever_flattened.sol\":20943:20962  tGiltById[_tGiltId] */\n      0x00\n      swap1\n      dup2\n      mstore\n        /* \"contracts/core/MReciever_flattened.sol\":20943:20952  tGiltById */\n      0x04\n        /* \"contracts/core/MReciever_flattened.sol\":20943:20962  tGiltById[_tGiltId] */\n      0x20\n      dup2\n      dup2\n      mstore\n      0x40\n      swap3\n      dup4\n      swap1\n      keccak256\n        /* \"contracts/core/MReciever_flattened.sol\":20936:20962  return tGiltById[_tGiltId] */\n      dup4\n      mload\n      0x0140\n      dup2\n      add\n      dup6\n      mstore\n      dup2\n      sload\n      sub(shl(0xa0, 0x01), 0x01)\n      swap1\n      dup2\n      and\n      0x80\n      dup4\n      add\n      swap1\n      dup2\n      mstore\n      0x01\n      dup5\n      add\n      sload\n      0xa0\n      dup5\n      add\n      mstore\n      0x02\n      dup5\n      add\n      sload\n      0xc0\n      dup5\n      add\n      mstore\n      0x03\n      dup5\n      add\n      sload\n      0xe0\n      dup5\n      add\n      mstore\n      swap5\n      dup4\n      add\n      sload\n      dup2\n      and\n      0x0100\n      dup4\n      add\n      mstore\n      0x05\n      dup4\n      add\n      sload\n      0x0120\n      dup4\n      add\n      mstore\n      swap4\n      dup2\n      mstore\n      0x06\n      dup3\n      add\n      sload\n      swap3\n      dup2\n      add\n      swap3\n      swap1\n      swap3\n      mstore\n      0x07\n      dup2\n      add\n      sload\n      swap4\n      dup3\n      add\n      swap4\n      swap1\n      swap4\n      mstore\n      0x08\n      swap1\n      swap3\n      add\n      sload\n      and\n      0x60\n      dup3\n      add\n      mstore\n      swap1\n        /* \"contracts/core/MReciever_flattened.sol\":20827:20969  function getTransmittedGilt(bytes32 _tGiltId) view external returns (TransmittedGilt memory tGilt) {... */\n      jump\t// out\n        /* \"contracts/core/MReciever_flattened.sol\":20255:20707  function _ccipReceive(Client.Any2EVMMessage memory _message) internal override {... */\n    tag_108:\n        /* \"contracts/core/MReciever_flattened.sol\":20344:20373  TransmittedGilt memory _tGilt */\n      0x00\n        /* \"contracts/core/MReciever_flattened.sol\":20387:20395  _message */\n      dup2\n        /* \"contracts/core/MReciever_flattened.sol\":20387:20400  _message.data */\n      0x60\n      add\n      mload\n        /* \"contracts/core/MReciever_flattened.sol\":20376:20420  abi.decode(_message.data, (TransmittedGilt)) */\n      dup1\n      0x20\n      add\n      swap1\n      mload\n      dup2\n      add\n      swap1\n      tag_130\n      swap2\n      swap1\n      tag_131\n      jump\t// in\n    tag_130:\n        /* \"contracts/core/MReciever_flattened.sol\":20459:20472  _message.data */\n      0x60\n      dup4\n      dup2\n      add\n      mload\n        /* \"contracts/core/MReciever_flattened.sol\":20449:20473  keccak256(_message.data) */\n      dup1\n      mload\n      0x20\n      swap2\n      dup3\n      add\n      keccak256\n        /* \"contracts/core/MReciever_flattened.sol\":20430:20446  bytes32 _localId */\n      0x00\n        /* \"contracts/core/MReciever_flattened.sol\":20483:20502  tGiltById[_localId] */\n      dup2\n      dup2\n      mstore\n        /* \"contracts/core/MReciever_flattened.sol\":20483:20492  tGiltById */\n      0x04\n        /* \"contracts/core/MReciever_flattened.sol\":20483:20502  tGiltById[_localId] */\n      dup1\n      dup5\n      mstore\n      0x40\n      dup1\n      dup4\n      keccak256\n        /* \"contracts/core/MReciever_flattened.sol\":20483:20511  tGiltById[_localId] = _tGilt */\n      dup8\n      mload\n      dup1\n      mload\n      dup3\n      sload\n      not(sub(shl(0xa0, 0x01), 0x01))\n      swap1\n      dup2\n      and\n      sub(shl(0xa0, 0x01), 0x01)\n      swap3\n      dup4\n      and\n      or\n      dup5\n      sstore\n      dup3\n      dup10\n      add\n      mload\n      0x01\n      dup1\n      dup7\n      add\n      swap2\n      swap1\n      swap2\n      sstore\n      dup4\n      dup7\n      add\n      mload\n      0x02\n      dup7\n      add\n      sstore\n      dup4\n      dup12\n      add\n      mload\n      0x03\n      dup1\n      dup8\n      add\n      swap2\n      swap1\n      swap2\n      sstore\n      0x80\n      dup1\n      dup7\n      add\n      mload\n      swap9\n      dup8\n      add\n      dup1\n      sload\n      dup6\n      and\n      swap10\n      dup7\n      and\n      swap10\n      swap1\n      swap10\n      or\n      swap1\n      swap9\n      sstore\n      0xa0\n      swap5\n      dup6\n      add\n      mload\n      0x05\n      dup1\n      dup9\n      add\n      swap2\n      swap1\n      swap2\n      sstore\n      dup14\n      dup13\n      add\n      mload\n      0x06\n      dup9\n      add\n      sstore\n      dup14\n      dup9\n      add\n      mload\n      0x07\n      dup9\n      add\n      sstore\n      dup14\n      dup14\n      add\n      dup1\n      mload\n      0x08\n      swap1\n      swap9\n      add\n      dup1\n      sload\n      swap1\n      swap6\n      and\n      swap8\n      dup7\n      and\n      swap8\n      dup9\n      or\n      swap1\n      swap5\n      sstore\n        /* \"contracts/core/MReciever_flattened.sol\":20523:20552  tGiltIdsByOwner[_tGilt.owner] */\n      swap6\n      dup10\n      mstore\n      swap5\n      dup11\n      mstore\n      dup6\n      dup9\n      keccak256\n        /* \"contracts/core/MReciever_flattened.sol\":20523:20567  tGiltIdsByOwner[_tGilt.owner].push(_localId) */\n      dup1\n      sload\n      dup1\n      dup4\n      add\n      dup3\n      sstore\n      swap1\n      dup10\n      mstore\n      dup11\n      dup10\n      keccak256\n      add\n      dup10\n      swap1\n      sstore\n        /* \"contracts/core/MReciever_flattened.sol\":20577:20600  tGiltIds.push(_localId) */\n      dup5\n      sload\n      swap1\n      dup2\n      add\n      dup6\n      sstore\n      swap4\n      swap1\n      swap7\n      mstore\n      0xc2575a0e9e593c00f959f8c92f12db2869c3395a3b0502d05e2516446f71f85b\n      swap1\n      swap3\n      add\n      dup7\n      swap1\n      sstore\n        /* \"contracts/core/MReciever_flattened.sol\":20630:20642  _tGilt.owner */\n      swap4\n      mload\n        /* \"contracts/core/MReciever_flattened.sol\":20644:20655  _tGilt.gilt */\n      dup9\n      mload\n        /* \"contracts/core/MReciever_flattened.sol\":20644:20662  _tGilt.gilt.amount */\n      dup1\n      dup9\n      add\n      mload\n        /* \"contracts/core/MReciever_flattened.sol\":20664:20678  _tGilt.gilt.id */\n      swap6\n      dup2\n      add\n      mload\n        /* \"contracts/core/MReciever_flattened.sol\":20680:20699  _tGilt.gilt.chainId */\n      swap1\n      dup10\n      add\n      mload\n        /* \"contracts/core/MReciever_flattened.sol\":20616:20700  GILT_RECIEVED(_tGilt.owner, _tGilt.gilt.amount, _tGilt.gilt.id, _tGilt.gilt.chainId) */\n      dup5\n      mload\n        /* \"#utility.yul\":13036:13068   */\n      swap3\n      swap1\n      swap4\n      and\n        /* \"#utility.yul\":13018:13069   */\n      dup3\n      mstore\n        /* \"#utility.yul\":13085:13103   */\n      swap7\n      dup2\n      add\n        /* \"#utility.yul\":13078:13112   */\n      swap5\n      swap1\n      swap5\n      mstore\n        /* \"#utility.yul\":13128:13146   */\n      swap1\n      dup4\n      add\n        /* \"#utility.yul\":13121:13155   */\n      swap5\n      swap1\n      swap5\n      mstore\n        /* \"#utility.yul\":13171:13189   */\n      swap4\n      dup2\n      add\n        /* \"#utility.yul\":13164:13198   */\n      swap3\n      swap1\n      swap3\n      mstore\n        /* \"contracts/core/MReciever_flattened.sol\":20483:20511  tGiltById[_localId] = _tGilt */\n      swap3\n      swap4\n      pop\n        /* \"contracts/core/MReciever_flattened.sol\":20616:20700  GILT_RECIEVED(_tGilt.owner, _tGilt.gilt.amount, _tGilt.gilt.id, _tGilt.gilt.chainId) */\n      0xf0cd9c1bf761a2b8c68b22a2dcdf991327826018ecc4044c62ee439a63428d14\n      swap2\n        /* \"#utility.yul\":12990:13009   */\n      add\n        /* \"contracts/core/MReciever_flattened.sol\":20616:20700  GILT_RECIEVED(_tGilt.owner, _tGilt.gilt.amount, _tGilt.gilt.id, _tGilt.gilt.chainId) */\n      mload(0x40)\n      dup1\n      swap2\n      sub\n      swap1\n      log1\n        /* \"contracts/core/MReciever_flattened.sol\":20334:20707  {... */\n      pop\n      pop\n        /* \"contracts/core/MReciever_flattened.sol\":20255:20707  function _ccipReceive(Client.Any2EVMMessage memory _message) internal override {... */\n      pop\n      jump\t// out\n    tag_76:\n      pop\n      dup1\n      sload\n      0x00\n      dup3\n      sstore\n      swap1\n      0x00\n      mstore\n      keccak256(0x00, 0x20)\n      swap1\n      dup2\n      add\n      swap1\n      tag_105\n      swap2\n      swap1\n      tag_138\n      jump\t// in\n    tag_117:\n      mload(0x40)\n      dup1\n      0xc0\n      add\n      0x40\n      mstore\n      dup1\n      and(sub(shl(0xa0, 0x01), 0x01), 0x00)\n      dup2\n      mstore\n      0x20\n      add\n      0x00\n      dup2\n      mstore\n      0x20\n      add\n      0x00\n      dup2\n      mstore\n      0x20\n      add\n      0x00\n      dup2\n      mstore\n      0x20\n      add\n      and(sub(shl(0xa0, 0x01), 0x01), 0x00)\n      dup2\n      mstore\n      0x20\n      add\n      0x00\n      dup2\n      mstore\n      pop\n      swap1\n      jump\t// out\n    tag_126:\n      mload(0x40)\n      dup1\n      0x80\n      add\n      0x40\n      mstore\n      dup1\n      tag_139\n      tag_117\n      jump\t// in\n    tag_139:\n      dup2\n      mstore\n      0x00\n      0x20\n      dup3\n      add\n      dup2\n      swap1\n      mstore\n      0x40\n      dup3\n      add\n      dup2\n      swap1\n      mstore\n      0x60\n      swap1\n      swap2\n      add\n      mstore\n      swap1\n      jump\t// out\n    tag_138:\n    tag_140:\n      dup1\n      dup3\n      gt\n      iszero\n      tag_141\n      jumpi\n      0x00\n      dup2\n      sstore\n      0x01\n      add\n      jump(tag_140)\n    tag_141:\n      pop\n      swap1\n      jump\t// out\n        /* \"#utility.yul\":14:300   */\n    tag_15:\n        /* \"#utility.yul\":72:78   */\n      0x00\n        /* \"#utility.yul\":125:127   */\n      0x20\n        /* \"#utility.yul\":113:122   */\n      dup3\n        /* \"#utility.yul\":104:111   */\n      dup5\n        /* \"#utility.yul\":100:123   */\n      sub\n        /* \"#utility.yul\":96:128   */\n      slt\n        /* \"#utility.yul\":93:145   */\n      iszero\n      tag_154\n      jumpi\n        /* \"#utility.yul\":141:142   */\n      0x00\n        /* \"#utility.yul\":138:139   */\n      dup1\n        /* \"#utility.yul\":131:143   */\n      revert\n        /* \"#utility.yul\":93:145   */\n    tag_154:\n        /* \"#utility.yul\":167:190   */\n      dup2\n      calldataload\n      not(sub(shl(0xe0, 0x01), 0x01))\n        /* \"#utility.yul\":219:251   */\n      dup2\n      and\n        /* \"#utility.yul\":209:252   */\n      dup2\n      eq\n        /* \"#utility.yul\":199:270   */\n      tag_155\n      jumpi\n        /* \"#utility.yul\":266:267   */\n      0x00\n        /* \"#utility.yul\":263:264   */\n      dup1\n        /* \"#utility.yul\":256:268   */\n      revert\n        /* \"#utility.yul\":199:270   */\n    tag_155:\n        /* \"#utility.yul\":289:294   */\n      swap4\n        /* \"#utility.yul\":14:300   */\n      swap3\n      pop\n      pop\n      pop\n      jump\t// out\n        /* \"#utility.yul\":679:1227   */\n    tag_26:\n        /* \"#utility.yul\":791:795   */\n      0x00\n        /* \"#utility.yul\":820:822   */\n      0x20\n        /* \"#utility.yul\":849:851   */\n      dup1\n        /* \"#utility.yul\":838:847   */\n      dup4\n        /* \"#utility.yul\":831:852   */\n      mstore\n        /* \"#utility.yul\":881:887   */\n      dup4\n        /* \"#utility.yul\":875:888   */\n      mload\n        /* \"#utility.yul\":924:930   */\n      dup1\n        /* \"#utility.yul\":919:921   */\n      0x20\n        /* \"#utility.yul\":908:917   */\n      dup6\n        /* \"#utility.yul\":904:922   */\n      add\n        /* \"#utility.yul\":897:931   */\n      mstore\n        /* \"#utility.yul\":949:950   */\n      0x00\n        /* \"#utility.yul\":959:1099   */\n    tag_159:\n        /* \"#utility.yul\":973:979   */\n      dup2\n        /* \"#utility.yul\":970:971   */\n      dup2\n        /* \"#utility.yul\":967:980   */\n      lt\n        /* \"#utility.yul\":959:1099   */\n      iszero\n      tag_161\n      jumpi\n        /* \"#utility.yul\":1068:1082   */\n      dup6\n      dup2\n      add\n        /* \"#utility.yul\":1064:1087   */\n      dup4\n      add\n        /* \"#utility.yul\":1058:1088   */\n      mload\n        /* \"#utility.yul\":1034:1051   */\n      dup6\n      dup3\n      add\n        /* \"#utility.yul\":1053:1055   */\n      0x40\n        /* \"#utility.yul\":1030:1056   */\n      add\n        /* \"#utility.yul\":1023:1089   */\n      mstore\n        /* \"#utility.yul\":988:998   */\n      dup3\n      add\n        /* \"#utility.yul\":959:1099   */\n      jump(tag_159)\n    tag_161:\n        /* \"#utility.yul\":963:966   */\n      pop\n        /* \"#utility.yul\":1148:1149   */\n      0x00\n        /* \"#utility.yul\":1143:1145   */\n      0x40\n        /* \"#utility.yul\":1134:1140   */\n      dup3\n        /* \"#utility.yul\":1123:1132   */\n      dup7\n        /* \"#utility.yul\":1119:1141   */\n      add\n        /* \"#utility.yul\":1115:1146   */\n      add\n        /* \"#utility.yul\":1108:1150   */\n      mstore\n        /* \"#utility.yul\":1218:1220   */\n      0x40\n        /* \"#utility.yul\":1211:1213   */\n      0x1f\n        /* \"#utility.yul\":1207:1214   */\n      not\n        /* \"#utility.yul\":1202:1204   */\n      0x1f\n        /* \"#utility.yul\":1194:1200   */\n      dup4\n        /* \"#utility.yul\":1190:1205   */\n      add\n        /* \"#utility.yul\":1186:1215   */\n      and\n        /* \"#utility.yul\":1175:1184   */\n      dup6\n        /* \"#utility.yul\":1171:1216   */\n      add\n        /* \"#utility.yul\":1167:1221   */\n      add\n        /* \"#utility.yul\":1159:1221   */\n      swap3\n      pop\n      pop\n      pop\n        /* \"#utility.yul\":679:1227   */\n      swap3\n      swap2\n      pop\n      pop\n      jump\t// out\n        /* \"#utility.yul\":1232:1864   */\n    tag_30:\n        /* \"#utility.yul\":1403:1405   */\n      0x20\n        /* \"#utility.yul\":1455:1476   */\n      dup1\n      dup3\n      mstore\n        /* \"#utility.yul\":1525:1538   */\n      dup3\n      mload\n        /* \"#utility.yul\":1428:1446   */\n      dup3\n      dup3\n      add\n        /* \"#utility.yul\":1547:1569   */\n      dup2\n      swap1\n      mstore\n        /* \"#utility.yul\":1374:1378   */\n      0x00\n      swap2\n        /* \"#utility.yul\":1403:1405   */\n      swap1\n        /* \"#utility.yul\":1626:1641   */\n      dup5\n      dup3\n      add\n      swap1\n        /* \"#utility.yul\":1600:1602   */\n      0x40\n        /* \"#utility.yul\":1585:1603   */\n      dup6\n      add\n      swap1\n        /* \"#utility.yul\":1374:1378   */\n      dup5\n        /* \"#utility.yul\":1669:1838   */\n    tag_163:\n        /* \"#utility.yul\":1683:1689   */\n      dup2\n        /* \"#utility.yul\":1680:1681   */\n      dup2\n        /* \"#utility.yul\":1677:1690   */\n      lt\n        /* \"#utility.yul\":1669:1838   */\n      iszero\n      tag_165\n      jumpi\n        /* \"#utility.yul\":1744:1757   */\n      dup4\n      mload\n        /* \"#utility.yul\":1732:1758   */\n      dup4\n      mstore\n        /* \"#utility.yul\":1813:1828   */\n      swap3\n      dup5\n      add\n      swap3\n        /* \"#utility.yul\":1778:1790   */\n      swap2\n      dup5\n      add\n      swap2\n        /* \"#utility.yul\":1705:1706   */\n      0x01\n        /* \"#utility.yul\":1698:1707   */\n      add\n        /* \"#utility.yul\":1669:1838   */\n      jump(tag_163)\n    tag_165:\n      pop\n        /* \"#utility.yul\":1855:1858   */\n      swap1\n      swap7\n        /* \"#utility.yul\":1232:1864   */\n      swap6\n      pop\n      pop\n      pop\n      pop\n      pop\n      pop\n      jump\t// out\n        /* \"#utility.yul\":1869:2000   */\n    tag_142:\n      sub(shl(0xa0, 0x01), 0x01)\n        /* \"#utility.yul\":1944:1975   */\n      dup2\n      and\n        /* \"#utility.yul\":1934:1976   */\n      dup2\n      eq\n        /* \"#utility.yul\":1924:1994   */\n      tag_105\n      jumpi\n        /* \"#utility.yul\":1990:1991   */\n      0x00\n        /* \"#utility.yul\":1987:1988   */\n      dup1\n        /* \"#utility.yul\":1980:1992   */\n      revert\n        /* \"#utility.yul\":2005:2252   */\n    tag_33:\n        /* \"#utility.yul\":2064:2070   */\n      0x00\n        /* \"#utility.yul\":2117:2119   */\n      0x20\n        /* \"#utility.yul\":2105:2114   */\n      dup3\n        /* \"#utility.yul\":2096:2103   */\n      dup5\n        /* \"#utility.yul\":2092:2115   */\n      sub\n        /* \"#utility.yul\":2088:2120   */\n      slt\n        /* \"#utility.yul\":2085:2137   */\n      iszero\n      tag_169\n      jumpi\n        /* \"#utility.yul\":2133:2134   */\n      0x00\n        /* \"#utility.yul\":2130:2131   */\n      dup1\n        /* \"#utility.yul\":2123:2135   */\n      revert\n        /* \"#utility.yul\":2085:2137   */\n    tag_169:\n        /* \"#utility.yul\":2172:2181   */\n      dup2\n        /* \"#utility.yul\":2159:2182   */\n      calldataload\n        /* \"#utility.yul\":2191:2222   */\n      tag_155\n        /* \"#utility.yul\":2216:2221   */\n      dup2\n        /* \"#utility.yul\":2191:2222   */\n      tag_142\n      jump\t// in\n        /* \"#utility.yul\":2257:3102   */\n    tag_36:\n        /* \"#utility.yul\":2480:2482   */\n      0x20\n        /* \"#utility.yul\":2532:2553   */\n      dup1\n      dup3\n      mstore\n        /* \"#utility.yul\":2602:2615   */\n      dup3\n      mload\n        /* \"#utility.yul\":2505:2523   */\n      dup3\n      dup3\n      add\n        /* \"#utility.yul\":2624:2646   */\n      dup2\n      swap1\n      mstore\n        /* \"#utility.yul\":2451:2455   */\n      0x00\n      swap2\n        /* \"#utility.yul\":2480:2482   */\n      swap1\n        /* \"#utility.yul\":2665:2667   */\n      0x40\n      swap1\n        /* \"#utility.yul\":2683:2701   */\n      dup2\n      dup6\n      add\n      swap1\n        /* \"#utility.yul\":2724:2739   */\n      dup7\n      dup5\n      add\n        /* \"#utility.yul\":2451:2455   */\n      dup6\n        /* \"#utility.yul\":2767:3076   */\n    tag_172:\n        /* \"#utility.yul\":2781:2787   */\n      dup3\n        /* \"#utility.yul\":2778:2779   */\n      dup2\n        /* \"#utility.yul\":2775:2788   */\n      lt\n        /* \"#utility.yul\":2767:3076   */\n      iszero\n      tag_174\n      jumpi\n        /* \"#utility.yul\":2840:2853   */\n      dup2\n      mload\n        /* \"#utility.yul\":2878:2887   */\n      dup1\n      mload\n        /* \"#utility.yul\":2866:2888   */\n      dup6\n      mstore\n        /* \"#utility.yul\":2928:2939   */\n      dup7\n      dup2\n      add\n        /* \"#utility.yul\":2922:2940   */\n      mload\n        /* \"#utility.yul\":2908:2920   */\n      dup8\n      dup7\n      add\n        /* \"#utility.yul\":2901:2941   */\n      mstore\n        /* \"#utility.yul\":2981:2992   */\n      dup6\n      add\n        /* \"#utility.yul\":2975:2993   */\n      mload\n        /* \"#utility.yul\":2961:2973   */\n      dup6\n      dup6\n      add\n        /* \"#utility.yul\":2954:2994   */\n      mstore\n        /* \"#utility.yul\":3023:3027   */\n      0x60\n        /* \"#utility.yul\":3014:3028   */\n      swap1\n      swap4\n      add\n      swap3\n        /* \"#utility.yul\":3051:3066   */\n      swap1\n      dup6\n      add\n      swap1\n        /* \"#utility.yul\":2803:2804   */\n      0x01\n        /* \"#utility.yul\":2796:2805   */\n      add\n        /* \"#utility.yul\":2767:3076   */\n      jump(tag_172)\n    tag_174:\n      pop\n        /* \"#utility.yul\":3093:3096   */\n      swap2\n      swap8\n        /* \"#utility.yul\":2257:3102   */\n      swap7\n      pop\n      pop\n      pop\n      pop\n      pop\n      pop\n      pop\n      jump\t// out\n        /* \"#utility.yul\":3107:3499   */\n    tag_39:\n        /* \"#utility.yul\":3198:3204   */\n      0x00\n        /* \"#utility.yul\":3251:3253   */\n      0x20\n        /* \"#utility.yul\":3239:3248   */\n      dup3\n        /* \"#utility.yul\":3230:3237   */\n      dup5\n        /* \"#utility.yul\":3226:3249   */\n      sub\n        /* \"#utility.yul\":3222:3254   */\n      slt\n        /* \"#utility.yul\":3219:3271   */\n      iszero\n      tag_176\n      jumpi\n        /* \"#utility.yul\":3267:3268   */\n      0x00\n        /* \"#utility.yul\":3264:3265   */\n      dup1\n        /* \"#utility.yul\":3257:3269   */\n      revert\n        /* \"#utility.yul\":3219:3271   */\n    tag_176:\n        /* \"#utility.yul\":3307:3316   */\n      dup2\n        /* \"#utility.yul\":3294:3317   */\n      calldataload\n        /* \"#utility.yul\":3340:3358   */\n      0xffffffffffffffff\n        /* \"#utility.yul\":3332:3338   */\n      dup2\n        /* \"#utility.yul\":3329:3359   */\n      gt\n        /* \"#utility.yul\":3326:3376   */\n      iszero\n      tag_177\n      jumpi\n        /* \"#utility.yul\":3372:3373   */\n      0x00\n        /* \"#utility.yul\":3369:3370   */\n      dup1\n        /* \"#utility.yul\":3362:3374   */\n      revert\n        /* \"#utility.yul\":3326:3376   */\n    tag_177:\n        /* \"#utility.yul\":3395:3417   */\n      dup3\n      add\n        /* \"#utility.yul\":3451:3454   */\n      0xa0\n        /* \"#utility.yul\":3433:3449   */\n      dup2\n      dup6\n      sub\n        /* \"#utility.yul\":3429:3455   */\n      slt\n        /* \"#utility.yul\":3426:3472   */\n      iszero\n      tag_155\n      jumpi\n        /* \"#utility.yul\":3468:3469   */\n      0x00\n        /* \"#utility.yul\":3465:3466   */\n      dup1\n        /* \"#utility.yul\":3458:3470   */\n      revert\n        /* \"#utility.yul\":3504:3929   */\n    tag_143:\n        /* \"#utility.yul\":3616:3628   */\n      dup1\n      mload\n      sub(shl(0xa0, 0x01), 0x01)\n        /* \"#utility.yul\":3612:3633   */\n      swap1\n      dup2\n      and\n        /* \"#utility.yul\":3600:3634   */\n      dup4\n      mstore\n        /* \"#utility.yul\":3683:3687   */\n      0x20\n        /* \"#utility.yul\":3672:3688   */\n      dup1\n      dup4\n      add\n        /* \"#utility.yul\":3666:3689   */\n      mload\n        /* \"#utility.yul\":3650:3664   */\n      swap1\n      dup5\n      add\n        /* \"#utility.yul\":3643:3690   */\n      mstore\n        /* \"#utility.yul\":3739:3743   */\n      0x40\n        /* \"#utility.yul\":3728:3744   */\n      dup1\n      dup4\n      add\n        /* \"#utility.yul\":3722:3745   */\n      mload\n        /* \"#utility.yul\":3706:3720   */\n      swap1\n      dup5\n      add\n        /* \"#utility.yul\":3699:3746   */\n      mstore\n        /* \"#utility.yul\":3795:3799   */\n      0x60\n        /* \"#utility.yul\":3784:3800   */\n      dup1\n      dup4\n      add\n        /* \"#utility.yul\":3778:3801   */\n      mload\n        /* \"#utility.yul\":3762:3776   */\n      swap1\n      dup5\n      add\n        /* \"#utility.yul\":3755:3802   */\n      mstore\n        /* \"#utility.yul\":3855:3859   */\n      0x80\n        /* \"#utility.yul\":3844:3860   */\n      dup1\n      dup4\n      add\n        /* \"#utility.yul\":3838:3861   */\n      mload\n        /* \"#utility.yul\":3834:3866   */\n      swap1\n      swap2\n      and\n        /* \"#utility.yul\":3818:3832   */\n      swap1\n      dup4\n      add\n        /* \"#utility.yul\":3811:3867   */\n      mstore\n        /* \"#utility.yul\":3580:3583   */\n      0xa0\n        /* \"#utility.yul\":3905:3921   */\n      swap1\n      dup2\n      add\n        /* \"#utility.yul\":3899:3922   */\n      mload\n        /* \"#utility.yul\":3883:3897   */\n      swap2\n      add\n        /* \"#utility.yul\":3876:3923   */\n      mstore\n        /* \"#utility.yul\":3504:3929   */\n      jump\t// out\n        /* \"#utility.yul\":3934:4626   */\n    tag_45:\n        /* \"#utility.yul\":4147:4149   */\n      0x20\n        /* \"#utility.yul\":4199:4220   */\n      dup1\n      dup3\n      mstore\n        /* \"#utility.yul\":4269:4282   */\n      dup3\n      mload\n        /* \"#utility.yul\":4172:4190   */\n      dup3\n      dup3\n      add\n        /* \"#utility.yul\":4291:4313   */\n      dup2\n      swap1\n      mstore\n        /* \"#utility.yul\":4118:4122   */\n      0x00\n      swap2\n        /* \"#utility.yul\":4147:4149   */\n      swap1\n        /* \"#utility.yul\":4370:4385   */\n      dup5\n      dup3\n      add\n      swap1\n        /* \"#utility.yul\":4344:4346   */\n      0x40\n        /* \"#utility.yul\":4329:4347   */\n      dup6\n      add\n      swap1\n        /* \"#utility.yul\":4118:4122   */\n      dup5\n        /* \"#utility.yul\":4413:4600   */\n    tag_181:\n        /* \"#utility.yul\":4427:4433   */\n      dup2\n        /* \"#utility.yul\":4424:4425   */\n      dup2\n        /* \"#utility.yul\":4421:4434   */\n      lt\n        /* \"#utility.yul\":4413:4600   */\n      iszero\n      tag_165\n      jumpi\n        /* \"#utility.yul\":4476:4518   */\n      tag_184\n        /* \"#utility.yul\":4514:4517   */\n      dup4\n        /* \"#utility.yul\":4505:4511   */\n      dup6\n        /* \"#utility.yul\":4499:4512   */\n      mload\n        /* \"#utility.yul\":4476:4518   */\n      tag_143\n      jump\t// in\n    tag_184:\n        /* \"#utility.yul\":4575:4590   */\n      swap3\n      dup5\n      add\n      swap3\n        /* \"#utility.yul\":4547:4551   */\n      0xc0\n        /* \"#utility.yul\":4538:4552   */\n      swap3\n      swap1\n      swap3\n      add\n      swap2\n        /* \"#utility.yul\":4449:4450   */\n      0x01\n        /* \"#utility.yul\":4442:4451   */\n      add\n        /* \"#utility.yul\":4413:4600   */\n      jump(tag_181)\n        /* \"#utility.yul\":4631:4811   */\n    tag_48:\n        /* \"#utility.yul\":4690:4696   */\n      0x00\n        /* \"#utility.yul\":4743:4745   */\n      0x20\n        /* \"#utility.yul\":4731:4740   */\n      dup3\n        /* \"#utility.yul\":4722:4729   */\n      dup5\n        /* \"#utility.yul\":4718:4741   */\n      sub\n        /* \"#utility.yul\":4714:4746   */\n      slt\n        /* \"#utility.yul\":4711:4763   */\n      iszero\n      tag_186\n      jumpi\n        /* \"#utility.yul\":4759:4760   */\n      0x00\n        /* \"#utility.yul\":4756:4757   */\n      dup1\n        /* \"#utility.yul\":4749:4761   */\n      revert\n        /* \"#utility.yul\":4711:4763   */\n    tag_186:\n      pop\n        /* \"#utility.yul\":4782:4805   */\n      calldataload\n      swap2\n        /* \"#utility.yul\":4631:4811   */\n      swap1\n      pop\n      jump\t// out\n        /* \"#utility.yul\":4816:5128   */\n    tag_144:\n        /* \"#utility.yul\":4885:4926   */\n      tag_188\n        /* \"#utility.yul\":4922:4925   */\n      dup3\n        /* \"#utility.yul\":4914:4919   */\n      dup3\n        /* \"#utility.yul\":4908:4920   */\n      mload\n        /* \"#utility.yul\":4885:4926   */\n      tag_143\n      jump\t// in\n    tag_188:\n        /* \"#utility.yul\":4975:4979   */\n      0x20\n        /* \"#utility.yul\":4964:4980   */\n      dup2\n      add\n        /* \"#utility.yul\":4958:4981   */\n      mload\n        /* \"#utility.yul\":4951:4955   */\n      0xc0\n        /* \"#utility.yul\":4942:4956   */\n      dup4\n      add\n        /* \"#utility.yul\":4935:4982   */\n      mstore\n        /* \"#utility.yul\":5031:5035   */\n      0x40\n        /* \"#utility.yul\":5020:5036   */\n      dup2\n      add\n        /* \"#utility.yul\":5014:5037   */\n      mload\n        /* \"#utility.yul\":5007:5011   */\n      0xe0\n        /* \"#utility.yul\":4998:5012   */\n      dup4\n      add\n        /* \"#utility.yul\":4991:5038   */\n      mstore\n        /* \"#utility.yul\":5093:5097   */\n      0x60\n        /* \"#utility.yul\":5082:5098   */\n      add\n        /* \"#utility.yul\":5076:5099   */\n      mload\n      sub(shl(0xa0, 0x01), 0x01)\n        /* \"#utility.yul\":5072:5121   */\n      and\n        /* \"#utility.yul\":5063:5069   */\n      0x0100\n        /* \"#utility.yul\":5054:5070   */\n      swap1\n      swap2\n      add\n        /* \"#utility.yul\":5047:5122   */\n      mstore\n        /* \"#utility.yul\":4816:5128   */\n      jump\t// out\n        /* \"#utility.yul\":5133:5402   */\n    tag_51:\n        /* \"#utility.yul\":5331:5334   */\n      0x0120\n        /* \"#utility.yul\":5316:5335   */\n      dup2\n      add\n        /* \"#utility.yul\":5344:5396   */\n      tag_57\n        /* \"#utility.yul\":5320:5329   */\n      dup3\n        /* \"#utility.yul\":5378:5384   */\n      dup5\n        /* \"#utility.yul\":5344:5396   */\n      tag_144\n      jump\t// in\n        /* \"#utility.yul\":5615:5866   */\n    tag_68:\n        /* \"#utility.yul\":5685:5691   */\n      0x00\n        /* \"#utility.yul\":5738:5740   */\n      0x20\n        /* \"#utility.yul\":5726:5735   */\n      dup3\n        /* \"#utility.yul\":5717:5724   */\n      dup5\n        /* \"#utility.yul\":5713:5736   */\n      sub\n        /* \"#utility.yul\":5709:5741   */\n      slt\n        /* \"#utility.yul\":5706:5758   */\n      iszero\n      tag_193\n      jumpi\n        /* \"#utility.yul\":5754:5755   */\n      0x00\n        /* \"#utility.yul\":5751:5752   */\n      dup1\n        /* \"#utility.yul\":5744:5756   */\n      revert\n        /* \"#utility.yul\":5706:5758   */\n    tag_193:\n        /* \"#utility.yul\":5786:5795   */\n      dup2\n        /* \"#utility.yul\":5780:5796   */\n      mload\n        /* \"#utility.yul\":5805:5836   */\n      tag_155\n        /* \"#utility.yul\":5830:5835   */\n      dup2\n        /* \"#utility.yul\":5805:5836   */\n      tag_142\n      jump\t// in\n        /* \"#utility.yul\":6212:6339   */\n    tag_79:\n        /* \"#utility.yul\":6273:6283   */\n      0x4e487b71\n        /* \"#utility.yul\":6268:6271   */\n      0xe0\n        /* \"#utility.yul\":6264:6284   */\n      shl\n        /* \"#utility.yul\":6261:6262   */\n      0x00\n        /* \"#utility.yul\":6254:6285   */\n      mstore\n        /* \"#utility.yul\":6304:6308   */\n      0x41\n        /* \"#utility.yul\":6301:6302   */\n      0x04\n        /* \"#utility.yul\":6294:6309   */\n      mstore\n        /* \"#utility.yul\":6328:6332   */\n      0x24\n        /* \"#utility.yul\":6325:6326   */\n      0x00\n        /* \"#utility.yul\":6318:6333   */\n      revert\n        /* \"#utility.yul\":6344:6471   */\n    tag_89:\n        /* \"#utility.yul\":6405:6415   */\n      0x4e487b71\n        /* \"#utility.yul\":6400:6403   */\n      0xe0\n        /* \"#utility.yul\":6396:6416   */\n      shl\n        /* \"#utility.yul\":6393:6394   */\n      0x00\n        /* \"#utility.yul\":6386:6417   */\n      mstore\n        /* \"#utility.yul\":6436:6440   */\n      0x32\n        /* \"#utility.yul\":6433:6434   */\n      0x04\n        /* \"#utility.yul\":6426:6441   */\n      mstore\n        /* \"#utility.yul\":6460:6464   */\n      0x24\n        /* \"#utility.yul\":6457:6458   */\n      0x00\n        /* \"#utility.yul\":6450:6465   */\n      revert\n        /* \"#utility.yul\":6476:6843   */\n    tag_91:\n        /* \"#utility.yul\":6702:6705   */\n      0x0140\n        /* \"#utility.yul\":6687:6706   */\n      dup2\n      add\n        /* \"#utility.yul\":6715:6767   */\n      tag_199\n        /* \"#utility.yul\":6691:6700   */\n      dup3\n        /* \"#utility.yul\":6749:6755   */\n      dup6\n        /* \"#utility.yul\":6715:6767   */\n      tag_144\n      jump\t// in\n    tag_199:\n      sub(shl(0xa0, 0x01), 0x01)\n        /* \"#utility.yul\":6804:6836   */\n      swap3\n      swap1\n      swap3\n      and\n        /* \"#utility.yul\":6798:6801   */\n      0x0120\n        /* \"#utility.yul\":6783:6802   */\n      swap2\n      swap1\n      swap2\n      add\n        /* \"#utility.yul\":6776:6837   */\n      mstore\n        /* \"#utility.yul\":6476:6843   */\n      swap2\n      swap1\n      pop\n      jump\t// out\n        /* \"#utility.yul\":6848:7105   */\n    tag_145:\n        /* \"#utility.yul\":6920:6924   */\n      0x40\n        /* \"#utility.yul\":6914:6925   */\n      dup1\n      mload\n      swap1\n        /* \"#utility.yul\":6952:6969   */\n      dup2\n      add\n        /* \"#utility.yul\":6999:7017   */\n      0xffffffffffffffff\n        /* \"#utility.yul\":6984:7018   */\n      dup2\n      gt\n        /* \"#utility.yul\":7020:7042   */\n      dup3\n      dup3\n      lt\n        /* \"#utility.yul\":6981:7043   */\n      or\n        /* \"#utility.yul\":6978:7066   */\n      iszero\n      tag_202\n      jumpi\n        /* \"#utility.yul\":7046:7064   */\n      tag_202\n      tag_79\n      jump\t// in\n    tag_202:\n        /* \"#utility.yul\":7082:7086   */\n      0x40\n        /* \"#utility.yul\":7075:7099   */\n      mstore\n        /* \"#utility.yul\":6848:7105   */\n      swap1\n      jump\t// out\n        /* \"#utility.yul\":7110:7363   */\n    tag_146:\n        /* \"#utility.yul\":7182:7184   */\n      0x40\n        /* \"#utility.yul\":7176:7185   */\n      mload\n        /* \"#utility.yul\":7224:7228   */\n      0xa0\n        /* \"#utility.yul\":7212:7229   */\n      dup2\n      add\n        /* \"#utility.yul\":7259:7277   */\n      0xffffffffffffffff\n        /* \"#utility.yul\":7244:7278   */\n      dup2\n      gt\n        /* \"#utility.yul\":7280:7302   */\n      dup3\n      dup3\n      lt\n        /* \"#utility.yul\":7241:7303   */\n      or\n        /* \"#utility.yul\":7238:7326   */\n      iszero\n      tag_202\n      jumpi\n        /* \"#utility.yul\":7306:7324   */\n      tag_202\n      tag_79\n      jump\t// in\n        /* \"#utility.yul\":7368:7643   */\n    tag_147:\n        /* \"#utility.yul\":7439:7441   */\n      0x40\n        /* \"#utility.yul\":7433:7442   */\n      mload\n        /* \"#utility.yul\":7504:7506   */\n      0x1f\n        /* \"#utility.yul\":7485:7498   */\n      dup3\n      add\n      not(0x1f)\n        /* \"#utility.yul\":7481:7508   */\n      and\n        /* \"#utility.yul\":7469:7509   */\n      dup2\n      add\n        /* \"#utility.yul\":7539:7557   */\n      0xffffffffffffffff\n        /* \"#utility.yul\":7524:7558   */\n      dup2\n      gt\n        /* \"#utility.yul\":7560:7582   */\n      dup3\n      dup3\n      lt\n        /* \"#utility.yul\":7521:7583   */\n      or\n        /* \"#utility.yul\":7518:7606   */\n      iszero\n      tag_208\n      jumpi\n        /* \"#utility.yul\":7586:7604   */\n      tag_208\n      tag_79\n      jump\t// in\n    tag_208:\n        /* \"#utility.yul\":7622:7624   */\n      0x40\n        /* \"#utility.yul\":7615:7637   */\n      mstore\n        /* \"#utility.yul\":7368:7643   */\n      swap2\n      swap1\n      pop\n      jump\t// out\n        /* \"#utility.yul\":7648:8500   */\n    tag_148:\n        /* \"#utility.yul\":7710:7715   */\n      0x00\n        /* \"#utility.yul\":7758:7762   */\n      0xc0\n        /* \"#utility.yul\":7746:7755   */\n      dup3\n        /* \"#utility.yul\":7741:7744   */\n      dup5\n        /* \"#utility.yul\":7737:7756   */\n      sub\n        /* \"#utility.yul\":7733:7763   */\n      slt\n        /* \"#utility.yul\":7730:7780   */\n      iszero\n      tag_210\n      jumpi\n        /* \"#utility.yul\":7776:7777   */\n      0x00\n        /* \"#utility.yul\":7773:7774   */\n      dup1\n        /* \"#utility.yul\":7766:7778   */\n      revert\n        /* \"#utility.yul\":7730:7780   */\n    tag_210:\n        /* \"#utility.yul\":7809:7811   */\n      0x40\n        /* \"#utility.yul\":7803:7812   */\n      mload\n        /* \"#utility.yul\":7851:7855   */\n      0xc0\n        /* \"#utility.yul\":7843:7849   */\n      dup2\n        /* \"#utility.yul\":7839:7856   */\n      add\n        /* \"#utility.yul\":7922:7928   */\n      dup2\n        /* \"#utility.yul\":7910:7920   */\n      dup2\n        /* \"#utility.yul\":7907:7929   */\n      lt\n        /* \"#utility.yul\":7886:7904   */\n      0xffffffffffffffff\n        /* \"#utility.yul\":7874:7884   */\n      dup3\n        /* \"#utility.yul\":7871:7905   */\n      gt\n        /* \"#utility.yul\":7868:7930   */\n      or\n        /* \"#utility.yul\":7865:7953   */\n      iszero\n      tag_212\n      jumpi\n        /* \"#utility.yul\":7933:7951   */\n      tag_212\n      tag_79\n      jump\t// in\n    tag_212:\n        /* \"#utility.yul\":7973:7983   */\n      dup1\n        /* \"#utility.yul\":7969:7971   */\n      0x40\n        /* \"#utility.yul\":7962:7984   */\n      mstore\n      pop\n        /* \"#utility.yul\":8002:8008   */\n      dup1\n        /* \"#utility.yul\":7993:8008   */\n      swap2\n      pop\n        /* \"#utility.yul\":8038:8047   */\n      dup3\n        /* \"#utility.yul\":8032:8048   */\n      mload\n        /* \"#utility.yul\":8057:8090   */\n      tag_213\n        /* \"#utility.yul\":8082:8089   */\n      dup2\n        /* \"#utility.yul\":8057:8090   */\n      tag_142\n      jump\t// in\n    tag_213:\n        /* \"#utility.yul\":8114:8121   */\n      dup1\n        /* \"#utility.yul\":8106:8112   */\n      dup3\n        /* \"#utility.yul\":8099:8122   */\n      mstore\n      pop\n        /* \"#utility.yul\":8176:8178   */\n      0x20\n        /* \"#utility.yul\":8165:8174   */\n      dup4\n        /* \"#utility.yul\":8161:8179   */\n      add\n        /* \"#utility.yul\":8155:8180   */\n      mload\n        /* \"#utility.yul\":8150:8152   */\n      0x20\n        /* \"#utility.yul\":8142:8148   */\n      dup3\n        /* \"#utility.yul\":8138:8153   */\n      add\n        /* \"#utility.yul\":8131:8181   */\n      mstore\n        /* \"#utility.yul\":8235:8237   */\n      0x40\n        /* \"#utility.yul\":8224:8233   */\n      dup4\n        /* \"#utility.yul\":8220:8238   */\n      add\n        /* \"#utility.yul\":8214:8239   */\n      mload\n        /* \"#utility.yul\":8209:8211   */\n      0x40\n        /* \"#utility.yul\":8201:8207   */\n      dup3\n        /* \"#utility.yul\":8197:8212   */\n      add\n        /* \"#utility.yul\":8190:8240   */\n      mstore\n        /* \"#utility.yul\":8294:8296   */\n      0x60\n        /* \"#utility.yul\":8283:8292   */\n      dup4\n        /* \"#utility.yul\":8279:8297   */\n      add\n        /* \"#utility.yul\":8273:8298   */\n      mload\n        /* \"#utility.yul\":8268:8270   */\n      0x60\n        /* \"#utility.yul\":8260:8266   */\n      dup3\n        /* \"#utility.yul\":8256:8271   */\n      add\n        /* \"#utility.yul\":8249:8299   */\n      mstore\n        /* \"#utility.yul\":8344:8347   */\n      0x80\n        /* \"#utility.yul\":8333:8342   */\n      dup4\n        /* \"#utility.yul\":8329:8348   */\n      add\n        /* \"#utility.yul\":8323:8349   */\n      mload\n        /* \"#utility.yul\":8358:8391   */\n      tag_214\n        /* \"#utility.yul\":8383:8390   */\n      dup2\n        /* \"#utility.yul\":8358:8391   */\n      tag_142\n      jump\t// in\n    tag_214:\n        /* \"#utility.yul\":8419:8422   */\n      0x80\n        /* \"#utility.yul\":8407:8423   */\n      dup3\n      add\n        /* \"#utility.yul\":8400:8433   */\n      mstore\n        /* \"#utility.yul\":8488:8491   */\n      0xa0\n        /* \"#utility.yul\":8473:8492   */\n      swap3\n      dup4\n      add\n        /* \"#utility.yul\":8467:8493   */\n      mload\n        /* \"#utility.yul\":8449:8465   */\n      swap3\n      add\n        /* \"#utility.yul\":8442:8494   */\n      swap2\n      swap1\n      swap2\n      mstore\n        /* \"#utility.yul\":7648:8500   */\n      swap2\n      swap1\n      pop\n      jump\t// out\n        /* \"#utility.yul\":8505:8748   */\n    tag_95:\n        /* \"#utility.yul\":8596:8602   */\n      0x00\n        /* \"#utility.yul\":8649:8652   */\n      0xc0\n        /* \"#utility.yul\":8637:8646   */\n      dup3\n        /* \"#utility.yul\":8628:8635   */\n      dup5\n        /* \"#utility.yul\":8624:8647   */\n      sub\n        /* \"#utility.yul\":8620:8653   */\n      slt\n        /* \"#utility.yul\":8617:8670   */\n      iszero\n      tag_216\n      jumpi\n        /* \"#utility.yul\":8666:8667   */\n      0x00\n        /* \"#utility.yul\":8663:8664   */\n      dup1\n        /* \"#utility.yul\":8656:8668   */\n      revert\n        /* \"#utility.yul\":8617:8670   */\n    tag_216:\n        /* \"#utility.yul\":8689:8742   */\n      tag_155\n        /* \"#utility.yul\":8734:8741   */\n      dup4\n        /* \"#utility.yul\":8723:8732   */\n      dup4\n        /* \"#utility.yul\":8689:8742   */\n      tag_148\n      jump\t// in\n        /* \"#utility.yul\":9247:9418   */\n    tag_149:\n        /* \"#utility.yul\":9314:9334   */\n      dup1\n      calldataload\n        /* \"#utility.yul\":9374:9392   */\n      0xffffffffffffffff\n        /* \"#utility.yul\":9363:9393   */\n      dup2\n      and\n        /* \"#utility.yul\":9353:9394   */\n      dup2\n      eq\n        /* \"#utility.yul\":9343:9412   */\n      tag_72\n      jumpi\n        /* \"#utility.yul\":9408:9409   */\n      0x00\n        /* \"#utility.yul\":9405:9406   */\n      dup1\n        /* \"#utility.yul\":9398:9410   */\n      revert\n        /* \"#utility.yul\":9423:9953   */\n    tag_150:\n        /* \"#utility.yul\":9465:9470   */\n      0x00\n        /* \"#utility.yul\":9518:9521   */\n      dup3\n        /* \"#utility.yul\":9511:9515   */\n      0x1f\n        /* \"#utility.yul\":9503:9509   */\n      dup4\n        /* \"#utility.yul\":9499:9516   */\n      add\n        /* \"#utility.yul\":9495:9522   */\n      slt\n        /* \"#utility.yul\":9485:9540   */\n      tag_222\n      jumpi\n        /* \"#utility.yul\":9536:9537   */\n      0x00\n        /* \"#utility.yul\":9533:9534   */\n      dup1\n        /* \"#utility.yul\":9526:9538   */\n      revert\n        /* \"#utility.yul\":9485:9540   */\n    tag_222:\n        /* \"#utility.yul\":9572:9578   */\n      dup2\n        /* \"#utility.yul\":9559:9579   */\n      calldataload\n        /* \"#utility.yul\":9598:9616   */\n      0xffffffffffffffff\n        /* \"#utility.yul\":9594:9596   */\n      dup2\n        /* \"#utility.yul\":9591:9617   */\n      gt\n        /* \"#utility.yul\":9588:9640   */\n      iszero\n      tag_224\n      jumpi\n        /* \"#utility.yul\":9620:9638   */\n      tag_224\n      tag_79\n      jump\t// in\n    tag_224:\n        /* \"#utility.yul\":9664:9719   */\n      tag_225\n        /* \"#utility.yul\":9707:9709   */\n      0x1f\n        /* \"#utility.yul\":9688:9701   */\n      dup3\n      add\n      not(0x1f)\n        /* \"#utility.yul\":9684:9711   */\n      and\n        /* \"#utility.yul\":9713:9717   */\n      0x20\n        /* \"#utility.yul\":9680:9718   */\n      add\n        /* \"#utility.yul\":9664:9719   */\n      tag_147\n      jump\t// in\n    tag_225:\n        /* \"#utility.yul\":9744:9746   */\n      dup2\n        /* \"#utility.yul\":9735:9742   */\n      dup2\n        /* \"#utility.yul\":9728:9747   */\n      mstore\n        /* \"#utility.yul\":9790:9793   */\n      dup5\n        /* \"#utility.yul\":9783:9787   */\n      0x20\n        /* \"#utility.yul\":9778:9780   */\n      dup4\n        /* \"#utility.yul\":9770:9776   */\n      dup7\n        /* \"#utility.yul\":9766:9781   */\n      add\n        /* \"#utility.yul\":9762:9788   */\n      add\n        /* \"#utility.yul\":9759:9794   */\n      gt\n        /* \"#utility.yul\":9756:9811   */\n      iszero\n      tag_226\n      jumpi\n        /* \"#utility.yul\":9807:9808   */\n      0x00\n        /* \"#utility.yul\":9804:9805   */\n      dup1\n        /* \"#utility.yul\":9797:9809   */\n      revert\n        /* \"#utility.yul\":9756:9811   */\n    tag_226:\n        /* \"#utility.yul\":9872:9874   */\n      dup2\n        /* \"#utility.yul\":9865:9869   */\n      0x20\n        /* \"#utility.yul\":9857:9863   */\n      dup6\n        /* \"#utility.yul\":9853:9870   */\n      add\n        /* \"#utility.yul\":9846:9850   */\n      0x20\n        /* \"#utility.yul\":9837:9844   */\n      dup4\n        /* \"#utility.yul\":9833:9851   */\n      add\n        /* \"#utility.yul\":9820:9875   */\n      calldatacopy\n        /* \"#utility.yul\":9920:9921   */\n      0x00\n        /* \"#utility.yul\":9895:9911   */\n      swap2\n      dup2\n      add\n        /* \"#utility.yul\":9913:9917   */\n      0x20\n        /* \"#utility.yul\":9891:9918   */\n      add\n        /* \"#utility.yul\":9884:9922   */\n      swap2\n      swap1\n      swap2\n      mstore\n        /* \"#utility.yul\":9899:9906   */\n      swap4\n        /* \"#utility.yul\":9423:9953   */\n      swap3\n      pop\n      pop\n      pop\n      jump\t// out\n        /* \"#utility.yul\":9958:11025   */\n    tag_151:\n        /* \"#utility.yul\":10026:10031   */\n      0x00\n        /* \"#utility.yul\":10079:10082   */\n      dup3\n        /* \"#utility.yul\":10072:10076   */\n      0x1f\n        /* \"#utility.yul\":10064:10070   */\n      dup4\n        /* \"#utility.yul\":10060:10077   */\n      add\n        /* \"#utility.yul\":10056:10083   */\n      slt\n        /* \"#utility.yul\":10046:10101   */\n      tag_228\n      jumpi\n        /* \"#utility.yul\":10097:10098   */\n      0x00\n        /* \"#utility.yul\":10094:10095   */\n      dup1\n        /* \"#utility.yul\":10087:10099   */\n      revert\n        /* \"#utility.yul\":10046:10101   */\n    tag_228:\n        /* \"#utility.yul\":10133:10139   */\n      dup2\n        /* \"#utility.yul\":10120:10140   */\n      calldataload\n        /* \"#utility.yul\":10159:10163   */\n      0x20\n        /* \"#utility.yul\":10182:10200   */\n      0xffffffffffffffff\n        /* \"#utility.yul\":10178:10180   */\n      dup3\n        /* \"#utility.yul\":10175:10201   */\n      gt\n        /* \"#utility.yul\":10172:10224   */\n      iszero\n      tag_230\n      jumpi\n        /* \"#utility.yul\":10204:10222   */\n      tag_230\n      tag_79\n      jump\t// in\n    tag_230:\n        /* \"#utility.yul\":10244:10280   */\n      tag_231\n        /* \"#utility.yul\":10276:10278   */\n      dup2\n        /* \"#utility.yul\":10271:10273   */\n      dup4\n        /* \"#utility.yul\":10268:10269   */\n      0x05\n        /* \"#utility.yul\":10264:10274   */\n      shl\n        /* \"#utility.yul\":10260:10279   */\n      add\n        /* \"#utility.yul\":10244:10280   */\n      tag_147\n      jump\t// in\n    tag_231:\n        /* \"#utility.yul\":10314:10329   */\n      dup3\n      dup2\n      mstore\n        /* \"#utility.yul\":10400:10401   */\n      0x06\n        /* \"#utility.yul\":10396:10406   */\n      swap3\n      swap1\n      swap3\n      shl\n        /* \"#utility.yul\":10384:10407   */\n      dup5\n      add\n        /* \"#utility.yul\":10380:10412   */\n      dup2\n      add\n      swap2\n        /* \"#utility.yul\":10345:10357   */\n      dup2\n      dup2\n      add\n      swap1\n        /* \"#utility.yul\":10424:10439   */\n      dup7\n      dup5\n      gt\n        /* \"#utility.yul\":10421:10456   */\n      iszero\n      tag_232\n      jumpi\n        /* \"#utility.yul\":10452:10453   */\n      0x00\n        /* \"#utility.yul\":10449:10450   */\n      dup1\n        /* \"#utility.yul\":10442:10454   */\n      revert\n        /* \"#utility.yul\":10421:10456   */\n    tag_232:\n        /* \"#utility.yul\":10488:10490   */\n      dup3\n        /* \"#utility.yul\":10480:10486   */\n      dup7\n        /* \"#utility.yul\":10476:10491   */\n      add\n        /* \"#utility.yul\":10500:10996   */\n    tag_233:\n        /* \"#utility.yul\":10516:10522   */\n      dup5\n        /* \"#utility.yul\":10511:10514   */\n      dup2\n        /* \"#utility.yul\":10508:10523   */\n      lt\n        /* \"#utility.yul\":10500:10996   */\n      iszero\n      tag_235\n      jumpi\n        /* \"#utility.yul\":10594:10598   */\n      0x40\n        /* \"#utility.yul\":10588:10591   */\n      dup2\n        /* \"#utility.yul\":10583:10586   */\n      dup10\n        /* \"#utility.yul\":10579:10592   */\n      sub\n        /* \"#utility.yul\":10575:10599   */\n      slt\n        /* \"#utility.yul\":10572:10686   */\n      iszero\n      tag_236\n      jumpi\n        /* \"#utility.yul\":10640:10641   */\n      0x00\n        /* \"#utility.yul\":10669:10671   */\n      dup1\n        /* \"#utility.yul\":10665:10667   */\n      dup2\n        /* \"#utility.yul\":10658:10672   */\n      revert\n        /* \"#utility.yul\":10572:10686   */\n    tag_236:\n        /* \"#utility.yul\":10712:10734   */\n      tag_237\n      tag_145\n      jump\t// in\n    tag_237:\n        /* \"#utility.yul\":10775:10778   */\n      dup2\n        /* \"#utility.yul\":10762:10779   */\n      calldataload\n        /* \"#utility.yul\":10792:10825   */\n      tag_238\n        /* \"#utility.yul\":10817:10824   */\n      dup2\n        /* \"#utility.yul\":10792:10825   */\n      tag_142\n      jump\t// in\n    tag_238:\n        /* \"#utility.yul\":10838:10860   */\n      dup2\n      mstore\n        /* \"#utility.yul\":10909:10921   */\n      dup2\n      dup6\n      add\n        /* \"#utility.yul\":10896:10922   */\n      calldataload\n        /* \"#utility.yul\":10880:10894   */\n      dup6\n      dup3\n      add\n        /* \"#utility.yul\":10873:10923   */\n      mstore\n        /* \"#utility.yul\":10936:10954   */\n      dup4\n      mstore\n        /* \"#utility.yul\":10974:10986   */\n      swap2\n      dup4\n      add\n      swap2\n        /* \"#utility.yul\":10542:10546   */\n      0x40\n        /* \"#utility.yul\":10533:10547   */\n      add\n        /* \"#utility.yul\":10500:10996   */\n      jump(tag_233)\n    tag_235:\n      pop\n        /* \"#utility.yul\":11014:11019   */\n      swap7\n        /* \"#utility.yul\":9958:11025   */\n      swap6\n      pop\n      pop\n      pop\n      pop\n      pop\n      pop\n      jump\t// out\n        /* \"#utility.yul\":11030:12037   */\n    tag_107:\n        /* \"#utility.yul\":11142:11151   */\n      0x00\n        /* \"#utility.yul\":11201:11205   */\n      0xa0\n        /* \"#utility.yul\":11193:11198   */\n      dup3\n        /* \"#utility.yul\":11177:11191   */\n      calldatasize\n        /* \"#utility.yul\":11173:11199   */\n      sub\n        /* \"#utility.yul\":11169:11206   */\n      slt\n        /* \"#utility.yul\":11166:11223   */\n      iszero\n      tag_240\n      jumpi\n        /* \"#utility.yul\":11219:11220   */\n      0x00\n        /* \"#utility.yul\":11216:11217   */\n      dup1\n        /* \"#utility.yul\":11209:11221   */\n      revert\n        /* \"#utility.yul\":11166:11223   */\n    tag_240:\n        /* \"#utility.yul\":11247:11269   */\n      tag_241\n      tag_146\n      jump\t// in\n    tag_241:\n        /* \"#utility.yul\":11307:11312   */\n      dup3\n        /* \"#utility.yul\":11294:11313   */\n      calldataload\n        /* \"#utility.yul\":11285:11292   */\n      dup2\n        /* \"#utility.yul\":11278:11314   */\n      mstore\n        /* \"#utility.yul\":11348:11381   */\n      tag_242\n        /* \"#utility.yul\":11377:11379   */\n      0x20\n        /* \"#utility.yul\":11370:11375   */\n      dup5\n        /* \"#utility.yul\":11366:11380   */\n      add\n        /* \"#utility.yul\":11348:11381   */\n      tag_149\n      jump\t// in\n    tag_242:\n        /* \"#utility.yul\":11343:11345   */\n      0x20\n        /* \"#utility.yul\":11334:11341   */\n      dup3\n        /* \"#utility.yul\":11330:11346   */\n      add\n        /* \"#utility.yul\":11323:11382   */\n      mstore\n        /* \"#utility.yul\":11429:11431   */\n      0x40\n        /* \"#utility.yul\":11422:11427   */\n      dup4\n        /* \"#utility.yul\":11418:11432   */\n      add\n        /* \"#utility.yul\":11405:11433   */\n      calldataload\n        /* \"#utility.yul\":11452:11470   */\n      0xffffffffffffffff\n        /* \"#utility.yul\":11493:11495   */\n      dup1\n        /* \"#utility.yul\":11485:11491   */\n      dup3\n        /* \"#utility.yul\":11482:11496   */\n      gt\n        /* \"#utility.yul\":11479:11513   */\n      iszero\n      tag_243\n      jumpi\n        /* \"#utility.yul\":11509:11510   */\n      0x00\n        /* \"#utility.yul\":11506:11507   */\n      dup1\n        /* \"#utility.yul\":11499:11511   */\n      revert\n        /* \"#utility.yul\":11479:11513   */\n    tag_243:\n        /* \"#utility.yul\":11547:11599   */\n      tag_244\n        /* \"#utility.yul\":11584:11598   */\n      calldatasize\n        /* \"#utility.yul\":11575:11581   */\n      dup4\n        /* \"#utility.yul\":11568:11573   */\n      dup8\n        /* \"#utility.yul\":11564:11582   */\n      add\n        /* \"#utility.yul\":11547:11599   */\n      tag_150\n      jump\t// in\n    tag_244:\n        /* \"#utility.yul\":11542:11544   */\n      0x40\n        /* \"#utility.yul\":11533:11540   */\n      dup5\n        /* \"#utility.yul\":11529:11545   */\n      add\n        /* \"#utility.yul\":11522:11600   */\n      mstore\n        /* \"#utility.yul\":11649:11651   */\n      0x60\n        /* \"#utility.yul\":11642:11647   */\n      dup6\n        /* \"#utility.yul\":11638:11652   */\n      add\n        /* \"#utility.yul\":11625:11653   */\n      calldataload\n        /* \"#utility.yul\":11609:11653   */\n      swap2\n      pop\n        /* \"#utility.yul\":11678:11680   */\n      dup1\n        /* \"#utility.yul\":11668:11676   */\n      dup3\n        /* \"#utility.yul\":11665:11681   */\n      gt\n        /* \"#utility.yul\":11662:11698   */\n      iszero\n      tag_245\n      jumpi\n        /* \"#utility.yul\":11694:11695   */\n      0x00\n        /* \"#utility.yul\":11691:11692   */\n      dup1\n        /* \"#utility.yul\":11684:11696   */\n      revert\n        /* \"#utility.yul\":11662:11698   */\n    tag_245:\n        /* \"#utility.yul\":11732:11786   */\n      tag_246\n        /* \"#utility.yul\":11771:11785   */\n      calldatasize\n        /* \"#utility.yul\":11760:11768   */\n      dup4\n        /* \"#utility.yul\":11753:11758   */\n      dup8\n        /* \"#utility.yul\":11749:11769   */\n      add\n        /* \"#utility.yul\":11732:11786   */\n      tag_150\n      jump\t// in\n    tag_246:\n        /* \"#utility.yul\":11727:11729   */\n      0x60\n        /* \"#utility.yul\":11718:11725   */\n      dup5\n        /* \"#utility.yul\":11714:11730   */\n      add\n        /* \"#utility.yul\":11707:11787   */\n      mstore\n        /* \"#utility.yul\":11836:11839   */\n      0x80\n        /* \"#utility.yul\":11829:11834   */\n      dup6\n        /* \"#utility.yul\":11825:11840   */\n      add\n        /* \"#utility.yul\":11812:11841   */\n      calldataload\n        /* \"#utility.yul\":11796:11841   */\n      swap2\n      pop\n        /* \"#utility.yul\":11866:11868   */\n      dup1\n        /* \"#utility.yul\":11856:11864   */\n      dup3\n        /* \"#utility.yul\":11853:11869   */\n      gt\n        /* \"#utility.yul\":11850:11886   */\n      iszero\n      tag_247\n      jumpi\n        /* \"#utility.yul\":11882:11883   */\n      0x00\n        /* \"#utility.yul\":11879:11880   */\n      dup1\n        /* \"#utility.yul\":11872:11884   */\n      revert\n        /* \"#utility.yul\":11850:11886   */\n    tag_247:\n      pop\n        /* \"#utility.yul\":11921:12001   */\n      tag_248\n        /* \"#utility.yul\":11986:12000   */\n      calldatasize\n        /* \"#utility.yul\":11975:11983   */\n      dup3\n        /* \"#utility.yul\":11968:11973   */\n      dup7\n        /* \"#utility.yul\":11964:11984   */\n      add\n        /* \"#utility.yul\":11921:12001   */\n      tag_151\n      jump\t// in\n    tag_248:\n        /* \"#utility.yul\":11915:11918   */\n      0x80\n        /* \"#utility.yul\":11902:11919   */\n      dup4\n      add\n        /* \"#utility.yul\":11895:12002   */\n      mstore\n      pop\n        /* \"#utility.yul\":11906:11913   */\n      swap3\n        /* \"#utility.yul\":11030:12037   */\n      swap2\n      pop\n      pop\n      jump\t// out\n        /* \"#utility.yul\":12042:12782   */\n    tag_131:\n        /* \"#utility.yul\":12144:12150   */\n      0x00\n        /* \"#utility.yul\":12197:12200   */\n      0x0120\n        /* \"#utility.yul\":12185:12194   */\n      dup3\n        /* \"#utility.yul\":12176:12183   */\n      dup5\n        /* \"#utility.yul\":12172:12195   */\n      sub\n        /* \"#utility.yul\":12168:12201   */\n      slt\n        /* \"#utility.yul\":12165:12218   */\n      iszero\n      tag_250\n      jumpi\n        /* \"#utility.yul\":12214:12215   */\n      0x00\n        /* \"#utility.yul\":12211:12212   */\n      dup1\n        /* \"#utility.yul\":12204:12216   */\n      revert\n        /* \"#utility.yul\":12165:12218   */\n    tag_250:\n        /* \"#utility.yul\":12247:12249   */\n      0x40\n        /* \"#utility.yul\":12241:12250   */\n      mload\n        /* \"#utility.yul\":12289:12293   */\n      0x80\n        /* \"#utility.yul\":12281:12287   */\n      dup2\n        /* \"#utility.yul\":12277:12294   */\n      add\n        /* \"#utility.yul\":12360:12366   */\n      dup2\n        /* \"#utility.yul\":12348:12358   */\n      dup2\n        /* \"#utility.yul\":12345:12367   */\n      lt\n        /* \"#utility.yul\":12324:12342   */\n      0xffffffffffffffff\n        /* \"#utility.yul\":12312:12322   */\n      dup3\n        /* \"#utility.yul\":12309:12343   */\n      gt\n        /* \"#utility.yul\":12306:12368   */\n      or\n        /* \"#utility.yul\":12303:12391   */\n      iszero\n      tag_252\n      jumpi\n        /* \"#utility.yul\":12371:12389   */\n      tag_252\n      tag_79\n      jump\t// in\n    tag_252:\n        /* \"#utility.yul\":12407:12409   */\n      0x40\n        /* \"#utility.yul\":12400:12422   */\n      mstore\n        /* \"#utility.yul\":12446:12499   */\n      tag_253\n        /* \"#utility.yul\":12491:12498   */\n      dup5\n        /* \"#utility.yul\":12480:12489   */\n      dup5\n        /* \"#utility.yul\":12446:12499   */\n      tag_148\n      jump\t// in\n    tag_253:\n        /* \"#utility.yul\":12438:12444   */\n      dup2\n        /* \"#utility.yul\":12431:12500   */\n      mstore\n        /* \"#utility.yul\":12556:12559   */\n      0xc0\n        /* \"#utility.yul\":12545:12554   */\n      dup4\n        /* \"#utility.yul\":12541:12560   */\n      add\n        /* \"#utility.yul\":12535:12561   */\n      mload\n        /* \"#utility.yul\":12528:12532   */\n      0x20\n        /* \"#utility.yul\":12520:12526   */\n      dup3\n        /* \"#utility.yul\":12516:12533   */\n      add\n        /* \"#utility.yul\":12509:12562   */\n      mstore\n        /* \"#utility.yul\":12616:12619   */\n      0xe0\n        /* \"#utility.yul\":12605:12614   */\n      dup4\n        /* \"#utility.yul\":12601:12620   */\n      add\n        /* \"#utility.yul\":12595:12621   */\n      mload\n        /* \"#utility.yul\":12590:12592   */\n      0x40\n        /* \"#utility.yul\":12582:12588   */\n      dup3\n        /* \"#utility.yul\":12578:12593   */\n      add\n        /* \"#utility.yul\":12571:12622   */\n      mstore\n        /* \"#utility.yul\":12665:12668   */\n      0x0100\n        /* \"#utility.yul\":12654:12663   */\n      dup4\n        /* \"#utility.yul\":12650:12669   */\n      add\n        /* \"#utility.yul\":12644:12670   */\n      mload\n        /* \"#utility.yul\":12679:12710   */\n      tag_254\n        /* \"#utility.yul\":12704:12709   */\n      dup2\n        /* \"#utility.yul\":12679:12710   */\n      tag_142\n      jump\t// in\n    tag_254:\n        /* \"#utility.yul\":12738:12742   */\n      0x60\n        /* \"#utility.yul\":12726:12743   */\n      dup3\n      add\n        /* \"#utility.yul\":12719:12751   */\n      mstore\n        /* \"#utility.yul\":12730:12736   */\n      swap4\n        /* \"#utility.yul\":12042:12782   */\n      swap3\n      pop\n      pop\n      pop\n      jump\t// out\n\n    auxdata: 0xa2646970667358221220a61ae182bfb51a1019ef59b00af2197a48101817fb02f58af54a96e79ed4bd4964736f6c63430008170033\n}\n",
				"bytecode": {
					"linkReferences": {},
					"object": "60a060405234801561001057600080fd5b5060405161129b38038061129b83398101604081905261002f916100a7565b806001600160a01b03811661005e576040516335fdcccd60e21b81526000600482015260240160405180910390fd5b6001600160a01b03908116608052600080546001600160a01b0319169390911692909217909155506100da565b80516001600160a01b03811681146100a257600080fd5b919050565b600080604083850312156100ba57600080fd5b6100c38361008b565b91506100d16020840161008b565b90509250929050565b60805161119f6100fc6000396000818161019b0152610660015261119f6000f3fe608060405234801561001057600080fd5b50600436106100935760003560e01c806372d02aea1161006657806372d02aea1461011957806385572ffb14610139578063885c7b391461014e578063a76484351461016e578063b0f479a11461018e57600080fd5b806301ffc9a7146100985780630d8e6e2c146100c057806317d7de7c146100cf5780635c089a5414610104575b600080fd5b6100ab6100a6366004610b0d565b6101c5565b60405190151581526020015b60405180910390f35b604051600281526020016100b7565b60408051808201825260138152722922a9a2a92b22a22fa6afa922a1a4a2ab22a960691b602082015290516100b79190610b3e565b61010c6101fc565b6040516100b79190610b8d565b61012c610127366004610be6565b610254565b6040516100b79190610c03565b61014c610147366004610c5c565b610655565b005b61016161015c366004610be6565b6106b4565b6040516100b79190610cdc565b61018161017c366004610d1e565b610853565b6040516100b79190610d6c565b6040516001600160a01b037f00000000000000000000000000000000000000000000000000000000000000001681526020016100b7565b60006001600160e01b031982166385572ffb60e01b14806101f657506001600160e01b031982166301ffc9a760e01b145b92915050565b6060600380548060200260200160405190810160405280929190818152602001828054801561024a57602002820191906000526020600020905b815481526020019060010190808311610236575b5050505050905090565b600054604080518082018252601581527452455345525645445f4d4152474152495f434f524560581b6020820152905163bf40fac160e01b81526060926001600160a01b03169163bf40fac1916102ae9190600401610b3e565b602060405180830381865afa1580156102cb573d6000803e3d6000fd5b505050506040513d601f19601f820116820180604052508101906102ef9190610d7b565b6001600160a01b0316336001600160a01b0316146103435760405162461bcd60e51b815260206004820152600c60248201526b6d617267617269206f6e6c7960a01b60448201526064015b60405180910390fd5b6001600160a01b0382166000908152600560209081526040808320805482518185028101850190935280835291929091908301828280156103a357602002820191906000526020600020905b81548152602001906001019080831161038f575b505050506001600160a01b03851660009081526005602052604081209293506103cd929150610a60565b805167ffffffffffffffff8111156103e7576103e7610d98565b60405190808252806020026020018201604052801561043c57816020015b61042960405180606001604052806000815260200160008152602001600081525090565b8152602001906001900390816104055790505b50915060005b815181101561064d57600082828151811061045f5761045f610dae565b60209081029190910181015160008181526004808452604080832081516101408101835281546001600160a01b0390811660808301908152600184015460a084015260028085015460c0850152600385015460e08501528487015483166101008501526005850154610120850152908352600684015498830198909852600783015482850152600890920154821660608201529554915163b6b7525160e01b8152949650929392169163b6b752519161051c9186918c9101610dc4565b60c0604051808303816000875af115801561053b573d6000803e3d6000fd5b505050506040513d601f19601f8201168201806040525081019061055f9190610ef7565b6001600160a01b0388166000908152600660209081526040808320805460018101825590845292829020909201869055815160608082018452868401518252865160a0015192820192909252855190910151918101919091528751919250908790869081106105d0576105d0610dae565b60209081029190910181019190915282518082015160609182015160a080860151604080516001600160a01b038f168152968701949094529285018890529284015260808301527fdb2b0c28633297e83dc452aad8a73d2ec0ab72bc7c22efdc5b830ac223dbad41910160405180910390a1505050600101610442565b50505b919050565b336001600160a01b037f000000000000000000000000000000000000000000000000000000000000000016146106a0576040516335fdcccd60e21b815233600482015260240161033a565b6106b16106ac82611048565b6108ea565b50565b6001600160a01b038116600090815260056020908152604080832080548251818502810185019093528083526060949383018282801561071357602002820191906000526020600020905b8154815260200190600101908083116106ff575b50505050509050805167ffffffffffffffff81111561073457610734610d98565b60405190808252806020026020018201604052801561076d57816020015b61075a610a7e565b8152602001906001900390816107525790505b50915060005b815181101561064d57600082828151811061079057610790610dae565b6020908102919091018101516000818152600480845260409182902082516101408101845281546001600160a01b0390811660808301908152600184015460a0840152600284015460c0840152600384015460e084015293830154811661010083015260058301546101208301528382526006830154968201969096526007820154938101939093526008015490931660608201528651919350919086908590811061083e5761083e610dae565b60209081029190910101525050600101610773565b61085b610ac6565b5060009081526004602081815260409283902083516101408101855281546001600160a01b0390811660808301908152600184015460a0840152600284015460c0840152600384015460e0840152948301548116610100830152600583015461012083015293815260068201549281019290925260078101549382019390935260089092015416606082015290565b6000816060015180602001905181019061090491906110f5565b60608381015180516020918201206000818152600480845260408083208751805182546001600160a01b03199081166001600160a01b0392831617845582890151600180860191909155838601516002860155838b0151600380870191909155608080860151988701805485169986169990991790985560a0948501516005808801919091558d8c015160068801558d88015160078801558d8d01805160089098018054909516978616978817909455958952948a52858820805480830182559089528a89200189905584549081018555939096527fc2575a0e9e593c00f959f8c92f12db2869c3395a3b0502d05e2516446f71f85b9092018690559351885180880151958101519089015184519290931682529681019490945290830194909452938101929092529293507ff0cd9c1bf761a2b8c68b22a2dcdf991327826018ecc4044c62ee439a63428d14910160405180910390a1505050565b50805460008255906000526020600020908101906106b19190610af4565b6040518060c0016040528060006001600160a01b0316815260200160008152602001600081526020016000815260200160006001600160a01b03168152602001600081525090565b6040518060800160405280610ad9610a7e565b81526000602082018190526040820181905260609091015290565b5b80821115610b095760008155600101610af5565b5090565b600060208284031215610b1f57600080fd5b81356001600160e01b031981168114610b3757600080fd5b9392505050565b60006020808352835180602085015260005b81811015610b6c57858101830151858201604001528201610b50565b506000604082860101526040601f19601f8301168501019250505092915050565b6020808252825182820181905260009190848201906040850190845b81811015610bc557835183529284019291840191600101610ba9565b50909695505050505050565b6001600160a01b03811681146106b157600080fd5b600060208284031215610bf857600080fd5b8135610b3781610bd1565b602080825282518282018190526000919060409081850190868401855b82811015610c4f5781518051855286810151878601528501518585015260609093019290850190600101610c20565b5091979650505050505050565b600060208284031215610c6e57600080fd5b813567ffffffffffffffff811115610c8557600080fd5b820160a08185031215610b3757600080fd5b80516001600160a01b0390811683526020808301519084015260408083015190840152606080830151908401526080808301519091169083015260a090810151910152565b6020808252825182820181905260009190848201906040850190845b81811015610bc557610d0b838551610c97565b9284019260c09290920191600101610cf8565b600060208284031215610d3057600080fd5b5035919050565b610d42828251610c97565b602081015160c0830152604081015160e0830152606001516001600160a01b031661010090910152565b61012081016101f68284610d37565b600060208284031215610d8d57600080fd5b8151610b3781610bd1565b634e487b7160e01b600052604160045260246000fd5b634e487b7160e01b600052603260045260246000fd5b6101408101610dd38285610d37565b6001600160a01b03929092166101209190910152919050565b6040805190810167ffffffffffffffff81118282101715610e0f57610e0f610d98565b60405290565b60405160a0810167ffffffffffffffff81118282101715610e0f57610e0f610d98565b604051601f8201601f1916810167ffffffffffffffff81118282101715610e6157610e61610d98565b604052919050565b600060c08284031215610e7b57600080fd5b60405160c0810181811067ffffffffffffffff82111715610e9e57610e9e610d98565b80604052508091508251610eb181610bd1565b808252506020830151602082015260408301516040820152606083015160608201526080830151610ee181610bd1565b608082015260a092830151920191909152919050565b600060c08284031215610f0957600080fd5b610b378383610e69565b803567ffffffffffffffff8116811461065057600080fd5b600082601f830112610f3c57600080fd5b813567ffffffffffffffff811115610f5657610f56610d98565b610f69601f8201601f1916602001610e38565b818152846020838601011115610f7e57600080fd5b816020850160208301376000918101602001919091529392505050565b600082601f830112610fac57600080fd5b8135602067ffffffffffffffff821115610fc857610fc8610d98565b610fd6818360051b01610e38565b82815260069290921b84018101918181019086841115610ff557600080fd5b8286015b8481101561103d57604081890312156110125760008081fd5b61101a610dec565b813561102581610bd1565b81528185013585820152835291830191604001610ff9565b509695505050505050565b600060a0823603121561105a57600080fd5b611062610e15565b8235815261107260208401610f13565b6020820152604083013567ffffffffffffffff8082111561109257600080fd5b61109e36838701610f2b565b604084015260608501359150808211156110b757600080fd5b6110c336838701610f2b565b606084015260808501359150808211156110dc57600080fd5b506110e936828601610f9b565b60808301525092915050565b6000610120828403121561110857600080fd5b6040516080810181811067ffffffffffffffff8211171561112b5761112b610d98565b6040526111388484610e69565b815260c0830151602082015260e0830151604082015261010083015161115d81610bd1565b6060820152939250505056fea2646970667358221220a61ae182bfb51a1019ef59b00af2197a48101817fb02f58af54a96e79ed4bd4964736f6c63430008170033",
					"opcodes": "PUSH1 0xA0 PUSH1 0x40 MSTORE CALLVALUE DUP1 ISZERO PUSH2 0x10 JUMPI PUSH1 0x0 DUP1 REVERT JUMPDEST POP PUSH1 0x40 MLOAD PUSH2 0x129B CODESIZE SUB DUP1 PUSH2 0x129B DUP4 CODECOPY DUP2 ADD PUSH1 0x40 DUP2 SWAP1 MSTORE PUSH2 0x2F SWAP2 PUSH2 0xA7 JUMP JUMPDEST DUP1 PUSH1 0x1 PUSH1 0x1 PUSH1 0xA0 SHL SUB DUP2 AND PUSH2 0x5E JUMPI PUSH1 0x40 MLOAD PUSH4 0x35FDCCCD PUSH1 0xE2 SHL DUP2 MSTORE PUSH1 0x0 PUSH1 0x4 DUP3 ADD MSTORE PUSH1 0x24 ADD PUSH1 0x40 MLOAD DUP1 SWAP2 SUB SWAP1 REVERT JUMPDEST PUSH1 0x1 PUSH1 0x1 PUSH1 0xA0 SHL SUB SWAP1 DUP2 AND PUSH1 0x80 MSTORE PUSH1 0x0 DUP1 SLOAD PUSH1 0x1 PUSH1 0x1 PUSH1 0xA0 SHL SUB NOT AND SWAP4 SWAP1 SWAP2 AND SWAP3 SWAP1 SWAP3 OR SWAP1 SWAP2 SSTORE POP PUSH2 0xDA JUMP JUMPDEST DUP1 MLOAD PUSH1 0x1 PUSH1 0x1 PUSH1 0xA0 SHL SUB DUP2 AND DUP2 EQ PUSH2 0xA2 JUMPI PUSH1 0x0 DUP1 REVERT JUMPDEST SWAP2 SWAP1 POP JUMP JUMPDEST PUSH1 0x0 DUP1 PUSH1 0x40 DUP4 DUP6 SUB SLT ISZERO PUSH2 0xBA JUMPI PUSH1 0x0 DUP1 REVERT JUMPDEST PUSH2 0xC3 DUP4 PUSH2 0x8B JUMP JUMPDEST SWAP2 POP PUSH2 0xD1 PUSH1 0x20 DUP5 ADD PUSH2 0x8B JUMP JUMPDEST SWAP1 POP SWAP3 POP SWAP3 SWAP1 POP JUMP JUMPDEST PUSH1 0x80 MLOAD PUSH2 0x119F PUSH2 0xFC PUSH1 0x0 CODECOPY PUSH1 0x0 DUP2 DUP2 PUSH2 0x19B ADD MSTORE PUSH2 0x660 ADD MSTORE PUSH2 0x119F PUSH1 0x0 RETURN INVALID PUSH1 0x80 PUSH1 0x40 MSTORE CALLVALUE DUP1 ISZERO PUSH2 0x10 JUMPI PUSH1 0x0 DUP1 REVERT JUMPDEST POP PUSH1 0x4 CALLDATASIZE LT PUSH2 0x93 JUMPI PUSH1 0x0 CALLDATALOAD PUSH1 0xE0 SHR DUP1 PUSH4 0x72D02AEA GT PUSH2 0x66 JUMPI DUP1 PUSH4 0x72D02AEA EQ PUSH2 0x119 JUMPI DUP1 PUSH4 0x85572FFB EQ PUSH2 0x139 JUMPI DUP1 PUSH4 0x885C7B39 EQ PUSH2 0x14E JUMPI DUP1 PUSH4 0xA7648435 EQ PUSH2 0x16E JUMPI DUP1 PUSH4 0xB0F479A1 EQ PUSH2 0x18E JUMPI PUSH1 0x0 DUP1 REVERT JUMPDEST DUP1 PUSH4 0x1FFC9A7 EQ PUSH2 0x98 JUMPI DUP1 PUSH4 0xD8E6E2C EQ PUSH2 0xC0 JUMPI DUP1 PUSH4 0x17D7DE7C EQ PUSH2 0xCF JUMPI DUP1 PUSH4 0x5C089A54 EQ PUSH2 0x104 JUMPI JUMPDEST PUSH1 0x0 DUP1 REVERT JUMPDEST PUSH2 0xAB PUSH2 0xA6 CALLDATASIZE PUSH1 0x4 PUSH2 0xB0D JUMP JUMPDEST PUSH2 0x1C5 JUMP JUMPDEST PUSH1 0x40 MLOAD SWAP1 ISZERO ISZERO DUP2 MSTORE PUSH1 0x20 ADD JUMPDEST PUSH1 0x40 MLOAD DUP1 SWAP2 SUB SWAP1 RETURN JUMPDEST PUSH1 0x40 MLOAD PUSH1 0x2 DUP2 MSTORE PUSH1 0x20 ADD PUSH2 0xB7 JUMP JUMPDEST PUSH1 0x40 DUP1 MLOAD DUP1 DUP3 ADD DUP3 MSTORE PUSH1 0x13 DUP2 MSTORE PUSH19 0x2922A9A2A92B22A22FA6AFA922A1A4A2AB22A9 PUSH1 0x69 SHL PUSH1 0x20 DUP3 ADD MSTORE SWAP1 MLOAD PUSH2 0xB7 SWAP2 SWAP1 PUSH2 0xB3E JUMP JUMPDEST PUSH2 0x10C PUSH2 0x1FC JUMP JUMPDEST PUSH1 0x40 MLOAD PUSH2 0xB7 SWAP2 SWAP1 PUSH2 0xB8D JUMP JUMPDEST PUSH2 0x12C PUSH2 0x127 CALLDATASIZE PUSH1 0x4 PUSH2 0xBE6 JUMP JUMPDEST PUSH2 0x254 JUMP JUMPDEST PUSH1 0x40 MLOAD PUSH2 0xB7 SWAP2 SWAP1 PUSH2 0xC03 JUMP JUMPDEST PUSH2 0x14C PUSH2 0x147 CALLDATASIZE PUSH1 0x4 PUSH2 0xC5C JUMP JUMPDEST PUSH2 0x655 JUMP JUMPDEST STOP JUMPDEST PUSH2 0x161 PUSH2 0x15C CALLDATASIZE PUSH1 0x4 PUSH2 0xBE6 JUMP JUMPDEST PUSH2 0x6B4 JUMP JUMPDEST PUSH1 0x40 MLOAD PUSH2 0xB7 SWAP2 SWAP1 PUSH2 0xCDC JUMP JUMPDEST PUSH2 0x181 PUSH2 0x17C CALLDATASIZE PUSH1 0x4 PUSH2 0xD1E JUMP JUMPDEST PUSH2 0x853 JUMP JUMPDEST PUSH1 0x40 MLOAD PUSH2 0xB7 SWAP2 SWAP1 PUSH2 0xD6C JUMP JUMPDEST PUSH1 0x40 MLOAD PUSH1 0x1 PUSH1 0x1 PUSH1 0xA0 SHL SUB PUSH32 0x0 AND DUP2 MSTORE PUSH1 0x20 ADD PUSH2 0xB7 JUMP JUMPDEST PUSH1 0x0 PUSH1 0x1 PUSH1 0x1 PUSH1 0xE0 SHL SUB NOT DUP3 AND PUSH4 0x85572FFB PUSH1 0xE0 SHL EQ DUP1 PUSH2 0x1F6 JUMPI POP PUSH1 0x1 PUSH1 0x1 PUSH1 0xE0 SHL SUB NOT DUP3 AND PUSH4 0x1FFC9A7 PUSH1 0xE0 SHL EQ JUMPDEST SWAP3 SWAP2 POP POP JUMP JUMPDEST PUSH1 0x60 PUSH1 0x3 DUP1 SLOAD DUP1 PUSH1 0x20 MUL PUSH1 0x20 ADD PUSH1 0x40 MLOAD SWAP1 DUP2 ADD PUSH1 0x40 MSTORE DUP1 SWAP3 SWAP2 SWAP1 DUP2 DUP2 MSTORE PUSH1 0x20 ADD DUP3 DUP1 SLOAD DUP1 ISZERO PUSH2 0x24A JUMPI PUSH1 0x20 MUL DUP3 ADD SWAP2 SWAP1 PUSH1 0x0 MSTORE PUSH1 0x20 PUSH1 0x0 KECCAK256 SWAP1 JUMPDEST DUP2 SLOAD DUP2 MSTORE PUSH1 0x20 ADD SWAP1 PUSH1 0x1 ADD SWAP1 DUP1 DUP4 GT PUSH2 0x236 JUMPI JUMPDEST POP POP POP POP POP SWAP1 POP SWAP1 JUMP JUMPDEST PUSH1 0x0 SLOAD PUSH1 0x40 DUP1 MLOAD DUP1 DUP3 ADD DUP3 MSTORE PUSH1 0x15 DUP2 MSTORE PUSH21 0x52455345525645445F4D4152474152495F434F5245 PUSH1 0x58 SHL PUSH1 0x20 DUP3 ADD MSTORE SWAP1 MLOAD PUSH4 0xBF40FAC1 PUSH1 0xE0 SHL DUP2 MSTORE PUSH1 0x60 SWAP3 PUSH1 0x1 PUSH1 0x1 PUSH1 0xA0 SHL SUB AND SWAP2 PUSH4 0xBF40FAC1 SWAP2 PUSH2 0x2AE SWAP2 SWAP1 PUSH1 0x4 ADD PUSH2 0xB3E JUMP JUMPDEST PUSH1 0x20 PUSH1 0x40 MLOAD DUP1 DUP4 SUB DUP2 DUP7 GAS STATICCALL ISZERO DUP1 ISZERO PUSH2 0x2CB JUMPI RETURNDATASIZE PUSH1 0x0 DUP1 RETURNDATACOPY RETURNDATASIZE PUSH1 0x0 REVERT JUMPDEST POP POP POP POP PUSH1 0x40 MLOAD RETURNDATASIZE PUSH1 0x1F NOT PUSH1 0x1F DUP3 ADD AND DUP3 ADD DUP1 PUSH1 0x40 MSTORE POP DUP2 ADD SWAP1 PUSH2 0x2EF SWAP2 SWAP1 PUSH2 0xD7B JUMP JUMPDEST PUSH1 0x1 PUSH1 0x1 PUSH1 0xA0 SHL SUB AND CALLER PUSH1 0x1 PUSH1 0x1 PUSH1 0xA0 SHL SUB AND EQ PUSH2 0x343 JUMPI PUSH1 0x40 MLOAD PUSH3 0x461BCD PUSH1 0xE5 SHL DUP2 MSTORE PUSH1 0x20 PUSH1 0x4 DUP3 ADD MSTORE PUSH1 0xC PUSH1 0x24 DUP3 ADD MSTORE PUSH12 0x6D617267617269206F6E6C79 PUSH1 0xA0 SHL PUSH1 0x44 DUP3 ADD MSTORE PUSH1 0x64 ADD JUMPDEST PUSH1 0x40 MLOAD DUP1 SWAP2 SUB SWAP1 REVERT JUMPDEST PUSH1 0x1 PUSH1 0x1 PUSH1 0xA0 SHL SUB DUP3 AND PUSH1 0x0 SWAP1 DUP2 MSTORE PUSH1 0x5 PUSH1 0x20 SWAP1 DUP2 MSTORE PUSH1 0x40 DUP1 DUP4 KECCAK256 DUP1 SLOAD DUP3 MLOAD DUP2 DUP6 MUL DUP2 ADD DUP6 ADD SWAP1 SWAP4 MSTORE DUP1 DUP4 MSTORE SWAP2 SWAP3 SWAP1 SWAP2 SWAP1 DUP4 ADD DUP3 DUP3 DUP1 ISZERO PUSH2 0x3A3 JUMPI PUSH1 0x20 MUL DUP3 ADD SWAP2 SWAP1 PUSH1 0x0 MSTORE PUSH1 0x20 PUSH1 0x0 KECCAK256 SWAP1 JUMPDEST DUP2 SLOAD DUP2 MSTORE PUSH1 0x20 ADD SWAP1 PUSH1 0x1 ADD SWAP1 DUP1 DUP4 GT PUSH2 0x38F JUMPI JUMPDEST POP POP POP POP PUSH1 0x1 PUSH1 0x1 PUSH1 0xA0 SHL SUB DUP6 AND PUSH1 0x0 SWAP1 DUP2 MSTORE PUSH1 0x5 PUSH1 0x20 MSTORE PUSH1 0x40 DUP2 KECCAK256 SWAP3 SWAP4 POP PUSH2 0x3CD SWAP3 SWAP2 POP PUSH2 0xA60 JUMP JUMPDEST DUP1 MLOAD PUSH8 0xFFFFFFFFFFFFFFFF DUP2 GT ISZERO PUSH2 0x3E7 JUMPI PUSH2 0x3E7 PUSH2 0xD98 JUMP JUMPDEST PUSH1 0x40 MLOAD SWAP1 DUP1 DUP3 MSTORE DUP1 PUSH1 0x20 MUL PUSH1 0x20 ADD DUP3 ADD PUSH1 0x40 MSTORE DUP1 ISZERO PUSH2 0x43C JUMPI DUP2 PUSH1 0x20 ADD JUMPDEST PUSH2 0x429 PUSH1 0x40 MLOAD DUP1 PUSH1 0x60 ADD PUSH1 0x40 MSTORE DUP1 PUSH1 0x0 DUP2 MSTORE PUSH1 0x20 ADD PUSH1 0x0 DUP2 MSTORE PUSH1 0x20 ADD PUSH1 0x0 DUP2 MSTORE POP SWAP1 JUMP JUMPDEST DUP2 MSTORE PUSH1 0x20 ADD SWAP1 PUSH1 0x1 SWAP1 SUB SWAP1 DUP2 PUSH2 0x405 JUMPI SWAP1 POP JUMPDEST POP SWAP2 POP PUSH1 0x0 JUMPDEST DUP2 MLOAD DUP2 LT ISZERO PUSH2 0x64D JUMPI PUSH1 0x0 DUP3 DUP3 DUP2 MLOAD DUP2 LT PUSH2 0x45F JUMPI PUSH2 0x45F PUSH2 0xDAE JUMP JUMPDEST PUSH1 0x20 SWAP1 DUP2 MUL SWAP2 SWAP1 SWAP2 ADD DUP2 ADD MLOAD PUSH1 0x0 DUP2 DUP2 MSTORE PUSH1 0x4 DUP1 DUP5 MSTORE PUSH1 0x40 DUP1 DUP4 KECCAK256 DUP2 MLOAD PUSH2 0x140 DUP2 ADD DUP4 MSTORE DUP2 SLOAD PUSH1 0x1 PUSH1 0x1 PUSH1 0xA0 SHL SUB SWAP1 DUP2 AND PUSH1 0x80 DUP4 ADD SWAP1 DUP2 MSTORE PUSH1 0x1 DUP5 ADD SLOAD PUSH1 0xA0 DUP5 ADD MSTORE PUSH1 0x2 DUP1 DUP6 ADD SLOAD PUSH1 0xC0 DUP6 ADD MSTORE PUSH1 0x3 DUP6 ADD SLOAD PUSH1 0xE0 DUP6 ADD MSTORE DUP5 DUP8 ADD SLOAD DUP4 AND PUSH2 0x100 DUP6 ADD MSTORE PUSH1 0x5 DUP6 ADD SLOAD PUSH2 0x120 DUP6 ADD MSTORE SWAP1 DUP4 MSTORE PUSH1 0x6 DUP5 ADD SLOAD SWAP9 DUP4 ADD SWAP9 SWAP1 SWAP9 MSTORE PUSH1 0x7 DUP4 ADD SLOAD DUP3 DUP6 ADD MSTORE PUSH1 0x8 SWAP1 SWAP3 ADD SLOAD DUP3 AND PUSH1 0x60 DUP3 ADD MSTORE SWAP6 SLOAD SWAP2 MLOAD PUSH4 0xB6B75251 PUSH1 0xE0 SHL DUP2 MSTORE SWAP5 SWAP7 POP SWAP3 SWAP4 SWAP3 AND SWAP2 PUSH4 0xB6B75251 SWAP2 PUSH2 0x51C SWAP2 DUP7 SWAP2 DUP13 SWAP2 ADD PUSH2 0xDC4 JUMP JUMPDEST PUSH1 0xC0 PUSH1 0x40 MLOAD DUP1 DUP4 SUB DUP2 PUSH1 0x0 DUP8 GAS CALL ISZERO DUP1 ISZERO PUSH2 0x53B JUMPI RETURNDATASIZE PUSH1 0x0 DUP1 RETURNDATACOPY RETURNDATASIZE PUSH1 0x0 REVERT JUMPDEST POP POP POP POP PUSH1 0x40 MLOAD RETURNDATASIZE PUSH1 0x1F NOT PUSH1 0x1F DUP3 ADD AND DUP3 ADD DUP1 PUSH1 0x40 MSTORE POP DUP2 ADD SWAP1 PUSH2 0x55F SWAP2 SWAP1 PUSH2 0xEF7 JUMP JUMPDEST PUSH1 0x1 PUSH1 0x1 PUSH1 0xA0 SHL SUB DUP9 AND PUSH1 0x0 SWAP1 DUP2 MSTORE PUSH1 0x6 PUSH1 0x20 SWAP1 DUP2 MSTORE PUSH1 0x40 DUP1 DUP4 KECCAK256 DUP1 SLOAD PUSH1 0x1 DUP2 ADD DUP3 SSTORE SWAP1 DUP5 MSTORE SWAP3 DUP3 SWAP1 KECCAK256 SWAP1 SWAP3 ADD DUP7 SWAP1 SSTORE DUP2 MLOAD PUSH1 0x60 DUP1 DUP3 ADD DUP5 MSTORE DUP7 DUP5 ADD MLOAD DUP3 MSTORE DUP7 MLOAD PUSH1 0xA0 ADD MLOAD SWAP3 DUP3 ADD SWAP3 SWAP1 SWAP3 MSTORE DUP6 MLOAD SWAP1 SWAP2 ADD MLOAD SWAP2 DUP2 ADD SWAP2 SWAP1 SWAP2 MSTORE DUP8 MLOAD SWAP2 SWAP3 POP SWAP1 DUP8 SWAP1 DUP7 SWAP1 DUP2 LT PUSH2 0x5D0 JUMPI PUSH2 0x5D0 PUSH2 0xDAE JUMP JUMPDEST PUSH1 0x20 SWAP1 DUP2 MUL SWAP2 SWAP1 SWAP2 ADD DUP2 ADD SWAP2 SWAP1 SWAP2 MSTORE DUP3 MLOAD DUP1 DUP3 ADD MLOAD PUSH1 0x60 SWAP2 DUP3 ADD MLOAD PUSH1 0xA0 DUP1 DUP7 ADD MLOAD PUSH1 0x40 DUP1 MLOAD PUSH1 0x1 PUSH1 0x1 PUSH1 0xA0 SHL SUB DUP16 AND DUP2 MSTORE SWAP7 DUP8 ADD SWAP5 SWAP1 SWAP5 MSTORE SWAP3 DUP6 ADD DUP9 SWAP1 MSTORE SWAP3 DUP5 ADD MSTORE PUSH1 0x80 DUP4 ADD MSTORE PUSH32 0xDB2B0C28633297E83DC452AAD8A73D2EC0AB72BC7C22EFDC5B830AC223DBAD41 SWAP2 ADD PUSH1 0x40 MLOAD DUP1 SWAP2 SUB SWAP1 LOG1 POP POP POP PUSH1 0x1 ADD PUSH2 0x442 JUMP JUMPDEST POP POP JUMPDEST SWAP2 SWAP1 POP JUMP JUMPDEST CALLER PUSH1 0x1 PUSH1 0x1 PUSH1 0xA0 SHL SUB PUSH32 0x0 AND EQ PUSH2 0x6A0 JUMPI PUSH1 0x40 MLOAD PUSH4 0x35FDCCCD PUSH1 0xE2 SHL DUP2 MSTORE CALLER PUSH1 0x4 DUP3 ADD MSTORE PUSH1 0x24 ADD PUSH2 0x33A JUMP JUMPDEST PUSH2 0x6B1 PUSH2 0x6AC DUP3 PUSH2 0x1048 JUMP JUMPDEST PUSH2 0x8EA JUMP JUMPDEST POP JUMP JUMPDEST PUSH1 0x1 PUSH1 0x1 PUSH1 0xA0 SHL SUB DUP2 AND PUSH1 0x0 SWAP1 DUP2 MSTORE PUSH1 0x5 PUSH1 0x20 SWAP1 DUP2 MSTORE PUSH1 0x40 DUP1 DUP4 KECCAK256 DUP1 SLOAD DUP3 MLOAD DUP2 DUP6 MUL DUP2 ADD DUP6 ADD SWAP1 SWAP4 MSTORE DUP1 DUP4 MSTORE PUSH1 0x60 SWAP5 SWAP4 DUP4 ADD DUP3 DUP3 DUP1 ISZERO PUSH2 0x713 JUMPI PUSH1 0x20 MUL DUP3 ADD SWAP2 SWAP1 PUSH1 0x0 MSTORE PUSH1 0x20 PUSH1 0x0 KECCAK256 SWAP1 JUMPDEST DUP2 SLOAD DUP2 MSTORE PUSH1 0x20 ADD SWAP1 PUSH1 0x1 ADD SWAP1 DUP1 DUP4 GT PUSH2 0x6FF JUMPI JUMPDEST POP POP POP POP POP SWAP1 POP DUP1 MLOAD PUSH8 0xFFFFFFFFFFFFFFFF DUP2 GT ISZERO PUSH2 0x734 JUMPI PUSH2 0x734 PUSH2 0xD98 JUMP JUMPDEST PUSH1 0x40 MLOAD SWAP1 DUP1 DUP3 MSTORE DUP1 PUSH1 0x20 MUL PUSH1 0x20 ADD DUP3 ADD PUSH1 0x40 MSTORE DUP1 ISZERO PUSH2 0x76D JUMPI DUP2 PUSH1 0x20 ADD JUMPDEST PUSH2 0x75A PUSH2 0xA7E JUMP JUMPDEST DUP2 MSTORE PUSH1 0x20 ADD SWAP1 PUSH1 0x1 SWAP1 SUB SWAP1 DUP2 PUSH2 0x752 JUMPI SWAP1 POP JUMPDEST POP SWAP2 POP PUSH1 0x0 JUMPDEST DUP2 MLOAD DUP2 LT ISZERO PUSH2 0x64D JUMPI PUSH1 0x0 DUP3 DUP3 DUP2 MLOAD DUP2 LT PUSH2 0x790 JUMPI PUSH2 0x790 PUSH2 0xDAE JUMP JUMPDEST PUSH1 0x20 SWAP1 DUP2 MUL SWAP2 SWAP1 SWAP2 ADD DUP2 ADD MLOAD PUSH1 0x0 DUP2 DUP2 MSTORE PUSH1 0x4 DUP1 DUP5 MSTORE PUSH1 0x40 SWAP2 DUP3 SWAP1 KECCAK256 DUP3 MLOAD PUSH2 0x140 DUP2 ADD DUP5 MSTORE DUP2 SLOAD PUSH1 0x1 PUSH1 0x1 PUSH1 0xA0 SHL SUB SWAP1 DUP2 AND PUSH1 0x80 DUP4 ADD SWAP1 DUP2 MSTORE PUSH1 0x1 DUP5 ADD SLOAD PUSH1 0xA0 DUP5 ADD MSTORE PUSH1 0x2 DUP5 ADD SLOAD PUSH1 0xC0 DUP5 ADD MSTORE PUSH1 0x3 DUP5 ADD SLOAD PUSH1 0xE0 DUP5 ADD MSTORE SWAP4 DUP4 ADD SLOAD DUP2 AND PUSH2 0x100 DUP4 ADD MSTORE PUSH1 0x5 DUP4 ADD SLOAD PUSH2 0x120 DUP4 ADD MSTORE DUP4 DUP3 MSTORE PUSH1 0x6 DUP4 ADD SLOAD SWAP7 DUP3 ADD SWAP7 SWAP1 SWAP7 MSTORE PUSH1 0x7 DUP3 ADD SLOAD SWAP4 DUP2 ADD SWAP4 SWAP1 SWAP4 MSTORE PUSH1 0x8 ADD SLOAD SWAP1 SWAP4 AND PUSH1 0x60 DUP3 ADD MSTORE DUP7 MLOAD SWAP2 SWAP4 POP SWAP2 SWAP1 DUP7 SWAP1 DUP6 SWAP1 DUP2 LT PUSH2 0x83E JUMPI PUSH2 0x83E PUSH2 0xDAE JUMP JUMPDEST PUSH1 0x20 SWAP1 DUP2 MUL SWAP2 SWAP1 SWAP2 ADD ADD MSTORE POP POP PUSH1 0x1 ADD PUSH2 0x773 JUMP JUMPDEST PUSH2 0x85B PUSH2 0xAC6 JUMP JUMPDEST POP PUSH1 0x0 SWAP1 DUP2 MSTORE PUSH1 0x4 PUSH1 0x20 DUP2 DUP2 MSTORE PUSH1 0x40 SWAP3 DUP4 SWAP1 KECCAK256 DUP4 MLOAD PUSH2 0x140 DUP2 ADD DUP6 MSTORE DUP2 SLOAD PUSH1 0x1 PUSH1 0x1 PUSH1 0xA0 SHL SUB SWAP1 DUP2 AND PUSH1 0x80 DUP4 ADD SWAP1 DUP2 MSTORE PUSH1 0x1 DUP5 ADD SLOAD PUSH1 0xA0 DUP5 ADD MSTORE PUSH1 0x2 DUP5 ADD SLOAD PUSH1 0xC0 DUP5 ADD MSTORE PUSH1 0x3 DUP5 ADD SLOAD PUSH1 0xE0 DUP5 ADD MSTORE SWAP5 DUP4 ADD SLOAD DUP2 AND PUSH2 0x100 DUP4 ADD MSTORE PUSH1 0x5 DUP4 ADD SLOAD PUSH2 0x120 DUP4 ADD MSTORE SWAP4 DUP2 MSTORE PUSH1 0x6 DUP3 ADD SLOAD SWAP3 DUP2 ADD SWAP3 SWAP1 SWAP3 MSTORE PUSH1 0x7 DUP2 ADD SLOAD SWAP4 DUP3 ADD SWAP4 SWAP1 SWAP4 MSTORE PUSH1 0x8 SWAP1 SWAP3 ADD SLOAD AND PUSH1 0x60 DUP3 ADD MSTORE SWAP1 JUMP JUMPDEST PUSH1 0x0 DUP2 PUSH1 0x60 ADD MLOAD DUP1 PUSH1 0x20 ADD SWAP1 MLOAD DUP2 ADD SWAP1 PUSH2 0x904 SWAP2 SWAP1 PUSH2 0x10F5 JUMP JUMPDEST PUSH1 0x60 DUP4 DUP2 ADD MLOAD DUP1 MLOAD PUSH1 0x20 SWAP2 DUP3 ADD KECCAK256 PUSH1 0x0 DUP2 DUP2 MSTORE PUSH1 0x4 DUP1 DUP5 MSTORE PUSH1 0x40 DUP1 DUP4 KECCAK256 DUP8 MLOAD DUP1 MLOAD DUP3 SLOAD PUSH1 0x1 PUSH1 0x1 PUSH1 0xA0 SHL SUB NOT SWAP1 DUP2 AND PUSH1 0x1 PUSH1 0x1 PUSH1 0xA0 SHL SUB SWAP3 DUP4 AND OR DUP5 SSTORE DUP3 DUP10 ADD MLOAD PUSH1 0x1 DUP1 DUP7 ADD SWAP2 SWAP1 SWAP2 SSTORE DUP4 DUP7 ADD MLOAD PUSH1 0x2 DUP7 ADD SSTORE DUP4 DUP12 ADD MLOAD PUSH1 0x3 DUP1 DUP8 ADD SWAP2 SWAP1 SWAP2 SSTORE PUSH1 0x80 DUP1 DUP7 ADD MLOAD SWAP9 DUP8 ADD DUP1 SLOAD DUP6 AND SWAP10 DUP7 AND SWAP10 SWAP1 SWAP10 OR SWAP1 SWAP9 SSTORE PUSH1 0xA0 SWAP5 DUP6 ADD MLOAD PUSH1 0x5 DUP1 DUP9 ADD SWAP2 SWAP1 SWAP2 SSTORE DUP14 DUP13 ADD MLOAD PUSH1 0x6 DUP9 ADD SSTORE DUP14 DUP9 ADD MLOAD PUSH1 0x7 DUP9 ADD SSTORE DUP14 DUP14 ADD DUP1 MLOAD PUSH1 0x8 SWAP1 SWAP9 ADD DUP1 SLOAD SWAP1 SWAP6 AND SWAP8 DUP7 AND SWAP8 DUP9 OR SWAP1 SWAP5 SSTORE SWAP6 DUP10 MSTORE SWAP5 DUP11 MSTORE DUP6 DUP9 KECCAK256 DUP1 SLOAD DUP1 DUP4 ADD DUP3 SSTORE SWAP1 DUP10 MSTORE DUP11 DUP10 KECCAK256 ADD DUP10 SWAP1 SSTORE DUP5 SLOAD SWAP1 DUP2 ADD DUP6 SSTORE SWAP4 SWAP1 SWAP7 MSTORE PUSH32 0xC2575A0E9E593C00F959F8C92F12DB2869C3395A3B0502D05E2516446F71F85B SWAP1 SWAP3 ADD DUP7 SWAP1 SSTORE SWAP4 MLOAD DUP9 MLOAD DUP1 DUP9 ADD MLOAD SWAP6 DUP2 ADD MLOAD SWAP1 DUP10 ADD MLOAD DUP5 MLOAD SWAP3 SWAP1 SWAP4 AND DUP3 MSTORE SWAP7 DUP2 ADD SWAP5 SWAP1 SWAP5 MSTORE SWAP1 DUP4 ADD SWAP5 SWAP1 SWAP5 MSTORE SWAP4 DUP2 ADD SWAP3 SWAP1 SWAP3 MSTORE SWAP3 SWAP4 POP PUSH32 0xF0CD9C1BF761A2B8C68B22A2DCDF991327826018ECC4044C62EE439A63428D14 SWAP2 ADD PUSH1 0x40 MLOAD DUP1 SWAP2 SUB SWAP1 LOG1 POP POP POP JUMP JUMPDEST POP DUP1 SLOAD PUSH1 0x0 DUP3 SSTORE SWAP1 PUSH1 0x0 MSTORE PUSH1 0x20 PUSH1 0x0 KECCAK256 SWAP1 DUP2 ADD SWAP1 PUSH2 0x6B1 SWAP2 SWAP1 PUSH2 0xAF4 JUMP JUMPDEST PUSH1 0x40 MLOAD DUP1 PUSH1 0xC0 ADD PUSH1 0x40 MSTORE DUP1 PUSH1 0x0 PUSH1 0x1 PUSH1 0x1 PUSH1 0xA0 SHL SUB AND DUP2 MSTORE PUSH1 0x20 ADD PUSH1 0x0 DUP2 MSTORE PUSH1 0x20 ADD PUSH1 0x0 DUP2 MSTORE PUSH1 0x20 ADD PUSH1 0x0 DUP2 MSTORE PUSH1 0x20 ADD PUSH1 0x0 PUSH1 0x1 PUSH1 0x1 PUSH1 0xA0 SHL SUB AND DUP2 MSTORE PUSH1 0x20 ADD PUSH1 0x0 DUP2 MSTORE POP SWAP1 JUMP JUMPDEST PUSH1 0x40 MLOAD DUP1 PUSH1 0x80 ADD PUSH1 0x40 MSTORE DUP1 PUSH2 0xAD9 PUSH2 0xA7E JUMP JUMPDEST DUP2 MSTORE PUSH1 0x0 PUSH1 0x20 DUP3 ADD DUP2 SWAP1 MSTORE PUSH1 0x40 DUP3 ADD DUP2 SWAP1 MSTORE PUSH1 0x60 SWAP1 SWAP2 ADD MSTORE SWAP1 JUMP JUMPDEST JUMPDEST DUP1 DUP3 GT ISZERO PUSH2 0xB09 JUMPI PUSH1 0x0 DUP2 SSTORE PUSH1 0x1 ADD PUSH2 0xAF5 JUMP JUMPDEST POP SWAP1 JUMP JUMPDEST PUSH1 0x0 PUSH1 0x20 DUP3 DUP5 SUB SLT ISZERO PUSH2 0xB1F JUMPI PUSH1 0x0 DUP1 REVERT JUMPDEST DUP2 CALLDATALOAD PUSH1 0x1 PUSH1 0x1 PUSH1 0xE0 SHL SUB NOT DUP2 AND DUP2 EQ PUSH2 0xB37 JUMPI PUSH1 0x0 DUP1 REVERT JUMPDEST SWAP4 SWAP3 POP POP POP JUMP JUMPDEST PUSH1 0x0 PUSH1 0x20 DUP1 DUP4 MSTORE DUP4 MLOAD DUP1 PUSH1 0x20 DUP6 ADD MSTORE PUSH1 0x0 JUMPDEST DUP2 DUP2 LT ISZERO PUSH2 0xB6C JUMPI DUP6 DUP2 ADD DUP4 ADD MLOAD DUP6 DUP3 ADD PUSH1 0x40 ADD MSTORE DUP3 ADD PUSH2 0xB50 JUMP JUMPDEST POP PUSH1 0x0 PUSH1 0x40 DUP3 DUP7 ADD ADD MSTORE PUSH1 0x40 PUSH1 0x1F NOT PUSH1 0x1F DUP4 ADD AND DUP6 ADD ADD SWAP3 POP POP POP SWAP3 SWAP2 POP POP JUMP JUMPDEST PUSH1 0x20 DUP1 DUP3 MSTORE DUP3 MLOAD DUP3 DUP3 ADD DUP2 SWAP1 MSTORE PUSH1 0x0 SWAP2 SWAP1 DUP5 DUP3 ADD SWAP1 PUSH1 0x40 DUP6 ADD SWAP1 DUP5 JUMPDEST DUP2 DUP2 LT ISZERO PUSH2 0xBC5 JUMPI DUP4 MLOAD DUP4 MSTORE SWAP3 DUP5 ADD SWAP3 SWAP2 DUP5 ADD SWAP2 PUSH1 0x1 ADD PUSH2 0xBA9 JUMP JUMPDEST POP SWAP1 SWAP7 SWAP6 POP POP POP POP POP POP JUMP JUMPDEST PUSH1 0x1 PUSH1 0x1 PUSH1 0xA0 SHL SUB DUP2 AND DUP2 EQ PUSH2 0x6B1 JUMPI PUSH1 0x0 DUP1 REVERT JUMPDEST PUSH1 0x0 PUSH1 0x20 DUP3 DUP5 SUB SLT ISZERO PUSH2 0xBF8 JUMPI PUSH1 0x0 DUP1 REVERT JUMPDEST DUP2 CALLDATALOAD PUSH2 0xB37 DUP2 PUSH2 0xBD1 JUMP JUMPDEST PUSH1 0x20 DUP1 DUP3 MSTORE DUP3 MLOAD DUP3 DUP3 ADD DUP2 SWAP1 MSTORE PUSH1 0x0 SWAP2 SWAP1 PUSH1 0x40 SWAP1 DUP2 DUP6 ADD SWAP1 DUP7 DUP5 ADD DUP6 JUMPDEST DUP3 DUP2 LT ISZERO PUSH2 0xC4F JUMPI DUP2 MLOAD DUP1 MLOAD DUP6 MSTORE DUP7 DUP2 ADD MLOAD DUP8 DUP7 ADD MSTORE DUP6 ADD MLOAD DUP6 DUP6 ADD MSTORE PUSH1 0x60 SWAP1 SWAP4 ADD SWAP3 SWAP1 DUP6 ADD SWAP1 PUSH1 0x1 ADD PUSH2 0xC20 JUMP JUMPDEST POP SWAP2 SWAP8 SWAP7 POP POP POP POP POP POP POP JUMP JUMPDEST PUSH1 0x0 PUSH1 0x20 DUP3 DUP5 SUB SLT ISZERO PUSH2 0xC6E JUMPI PUSH1 0x0 DUP1 REVERT JUMPDEST DUP2 CALLDATALOAD PUSH8 0xFFFFFFFFFFFFFFFF DUP2 GT ISZERO PUSH2 0xC85 JUMPI PUSH1 0x0 DUP1 REVERT JUMPDEST DUP3 ADD PUSH1 0xA0 DUP2 DUP6 SUB SLT ISZERO PUSH2 0xB37 JUMPI PUSH1 0x0 DUP1 REVERT JUMPDEST DUP1 MLOAD PUSH1 0x1 PUSH1 0x1 PUSH1 0xA0 SHL SUB SWAP1 DUP2 AND DUP4 MSTORE PUSH1 0x20 DUP1 DUP4 ADD MLOAD SWAP1 DUP5 ADD MSTORE PUSH1 0x40 DUP1 DUP4 ADD MLOAD SWAP1 DUP5 ADD MSTORE PUSH1 0x60 DUP1 DUP4 ADD MLOAD SWAP1 DUP5 ADD MSTORE PUSH1 0x80 DUP1 DUP4 ADD MLOAD SWAP1 SWAP2 AND SWAP1 DUP4 ADD MSTORE PUSH1 0xA0 SWAP1 DUP2 ADD MLOAD SWAP2 ADD MSTORE JUMP JUMPDEST PUSH1 0x20 DUP1 DUP3 MSTORE DUP3 MLOAD DUP3 DUP3 ADD DUP2 SWAP1 MSTORE PUSH1 0x0 SWAP2 SWAP1 DUP5 DUP3 ADD SWAP1 PUSH1 0x40 DUP6 ADD SWAP1 DUP5 JUMPDEST DUP2 DUP2 LT ISZERO PUSH2 0xBC5 JUMPI PUSH2 0xD0B DUP4 DUP6 MLOAD PUSH2 0xC97 JUMP JUMPDEST SWAP3 DUP5 ADD SWAP3 PUSH1 0xC0 SWAP3 SWAP1 SWAP3 ADD SWAP2 PUSH1 0x1 ADD PUSH2 0xCF8 JUMP JUMPDEST PUSH1 0x0 PUSH1 0x20 DUP3 DUP5 SUB SLT ISZERO PUSH2 0xD30 JUMPI PUSH1 0x0 DUP1 REVERT JUMPDEST POP CALLDATALOAD SWAP2 SWAP1 POP JUMP JUMPDEST PUSH2 0xD42 DUP3 DUP3 MLOAD PUSH2 0xC97 JUMP JUMPDEST PUSH1 0x20 DUP2 ADD MLOAD PUSH1 0xC0 DUP4 ADD MSTORE PUSH1 0x40 DUP2 ADD MLOAD PUSH1 0xE0 DUP4 ADD MSTORE PUSH1 0x60 ADD MLOAD PUSH1 0x1 PUSH1 0x1 PUSH1 0xA0 SHL SUB AND PUSH2 0x100 SWAP1 SWAP2 ADD MSTORE JUMP JUMPDEST PUSH2 0x120 DUP2 ADD PUSH2 0x1F6 DUP3 DUP5 PUSH2 0xD37 JUMP JUMPDEST PUSH1 0x0 PUSH1 0x20 DUP3 DUP5 SUB SLT ISZERO PUSH2 0xD8D JUMPI PUSH1 0x0 DUP1 REVERT JUMPDEST DUP2 MLOAD PUSH2 0xB37 DUP2 PUSH2 0xBD1 JUMP JUMPDEST PUSH4 0x4E487B71 PUSH1 0xE0 SHL PUSH1 0x0 MSTORE PUSH1 0x41 PUSH1 0x4 MSTORE PUSH1 0x24 PUSH1 0x0 REVERT JUMPDEST PUSH4 0x4E487B71 PUSH1 0xE0 SHL PUSH1 0x0 MSTORE PUSH1 0x32 PUSH1 0x4 MSTORE PUSH1 0x24 PUSH1 0x0 REVERT JUMPDEST PUSH2 0x140 DUP2 ADD PUSH2 0xDD3 DUP3 DUP6 PUSH2 0xD37 JUMP JUMPDEST PUSH1 0x1 PUSH1 0x1 PUSH1 0xA0 SHL SUB SWAP3 SWAP1 SWAP3 AND PUSH2 0x120 SWAP2 SWAP1 SWAP2 ADD MSTORE SWAP2 SWAP1 POP JUMP JUMPDEST PUSH1 0x40 DUP1 MLOAD SWAP1 DUP2 ADD PUSH8 0xFFFFFFFFFFFFFFFF DUP2 GT DUP3 DUP3 LT OR ISZERO PUSH2 0xE0F JUMPI PUSH2 0xE0F PUSH2 0xD98 JUMP JUMPDEST PUSH1 0x40 MSTORE SWAP1 JUMP JUMPDEST PUSH1 0x40 MLOAD PUSH1 0xA0 DUP2 ADD PUSH8 0xFFFFFFFFFFFFFFFF DUP2 GT DUP3 DUP3 LT OR ISZERO PUSH2 0xE0F JUMPI PUSH2 0xE0F PUSH2 0xD98 JUMP JUMPDEST PUSH1 0x40 MLOAD PUSH1 0x1F DUP3 ADD PUSH1 0x1F NOT AND DUP2 ADD PUSH8 0xFFFFFFFFFFFFFFFF DUP2 GT DUP3 DUP3 LT OR ISZERO PUSH2 0xE61 JUMPI PUSH2 0xE61 PUSH2 0xD98 JUMP JUMPDEST PUSH1 0x40 MSTORE SWAP2 SWAP1 POP JUMP JUMPDEST PUSH1 0x0 PUSH1 0xC0 DUP3 DUP5 SUB SLT ISZERO PUSH2 0xE7B JUMPI PUSH1 0x0 DUP1 REVERT JUMPDEST PUSH1 0x40 MLOAD PUSH1 0xC0 DUP2 ADD DUP2 DUP2 LT PUSH8 0xFFFFFFFFFFFFFFFF DUP3 GT OR ISZERO PUSH2 0xE9E JUMPI PUSH2 0xE9E PUSH2 0xD98 JUMP JUMPDEST DUP1 PUSH1 0x40 MSTORE POP DUP1 SWAP2 POP DUP3 MLOAD PUSH2 0xEB1 DUP2 PUSH2 0xBD1 JUMP JUMPDEST DUP1 DUP3 MSTORE POP PUSH1 0x20 DUP4 ADD MLOAD PUSH1 0x20 DUP3 ADD MSTORE PUSH1 0x40 DUP4 ADD MLOAD PUSH1 0x40 DUP3 ADD MSTORE PUSH1 0x60 DUP4 ADD MLOAD PUSH1 0x60 DUP3 ADD MSTORE PUSH1 0x80 DUP4 ADD MLOAD PUSH2 0xEE1 DUP2 PUSH2 0xBD1 JUMP JUMPDEST PUSH1 0x80 DUP3 ADD MSTORE PUSH1 0xA0 SWAP3 DUP4 ADD MLOAD SWAP3 ADD SWAP2 SWAP1 SWAP2 MSTORE SWAP2 SWAP1 POP JUMP JUMPDEST PUSH1 0x0 PUSH1 0xC0 DUP3 DUP5 SUB SLT ISZERO PUSH2 0xF09 JUMPI PUSH1 0x0 DUP1 REVERT JUMPDEST PUSH2 0xB37 DUP4 DUP4 PUSH2 0xE69 JUMP JUMPDEST DUP1 CALLDATALOAD PUSH8 0xFFFFFFFFFFFFFFFF DUP2 AND DUP2 EQ PUSH2 0x650 JUMPI PUSH1 0x0 DUP1 REVERT JUMPDEST PUSH1 0x0 DUP3 PUSH1 0x1F DUP4 ADD SLT PUSH2 0xF3C JUMPI PUSH1 0x0 DUP1 REVERT JUMPDEST DUP2 CALLDATALOAD PUSH8 0xFFFFFFFFFFFFFFFF DUP2 GT ISZERO PUSH2 0xF56 JUMPI PUSH2 0xF56 PUSH2 0xD98 JUMP JUMPDEST PUSH2 0xF69 PUSH1 0x1F DUP3 ADD PUSH1 0x1F NOT AND PUSH1 0x20 ADD PUSH2 0xE38 JUMP JUMPDEST DUP2 DUP2 MSTORE DUP5 PUSH1 0x20 DUP4 DUP7 ADD ADD GT ISZERO PUSH2 0xF7E JUMPI PUSH1 0x0 DUP1 REVERT JUMPDEST DUP2 PUSH1 0x20 DUP6 ADD PUSH1 0x20 DUP4 ADD CALLDATACOPY PUSH1 0x0 SWAP2 DUP2 ADD PUSH1 0x20 ADD SWAP2 SWAP1 SWAP2 MSTORE SWAP4 SWAP3 POP POP POP JUMP JUMPDEST PUSH1 0x0 DUP3 PUSH1 0x1F DUP4 ADD SLT PUSH2 0xFAC JUMPI PUSH1 0x0 DUP1 REVERT JUMPDEST DUP2 CALLDATALOAD PUSH1 0x20 PUSH8 0xFFFFFFFFFFFFFFFF DUP3 GT ISZERO PUSH2 0xFC8 JUMPI PUSH2 0xFC8 PUSH2 0xD98 JUMP JUMPDEST PUSH2 0xFD6 DUP2 DUP4 PUSH1 0x5 SHL ADD PUSH2 0xE38 JUMP JUMPDEST DUP3 DUP2 MSTORE PUSH1 0x6 SWAP3 SWAP1 SWAP3 SHL DUP5 ADD DUP2 ADD SWAP2 DUP2 DUP2 ADD SWAP1 DUP7 DUP5 GT ISZERO PUSH2 0xFF5 JUMPI PUSH1 0x0 DUP1 REVERT JUMPDEST DUP3 DUP7 ADD JUMPDEST DUP5 DUP2 LT ISZERO PUSH2 0x103D JUMPI PUSH1 0x40 DUP2 DUP10 SUB SLT ISZERO PUSH2 0x1012 JUMPI PUSH1 0x0 DUP1 DUP2 REVERT JUMPDEST PUSH2 0x101A PUSH2 0xDEC JUMP JUMPDEST DUP2 CALLDATALOAD PUSH2 0x1025 DUP2 PUSH2 0xBD1 JUMP JUMPDEST DUP2 MSTORE DUP2 DUP6 ADD CALLDATALOAD DUP6 DUP3 ADD MSTORE DUP4 MSTORE SWAP2 DUP4 ADD SWAP2 PUSH1 0x40 ADD PUSH2 0xFF9 JUMP JUMPDEST POP SWAP7 SWAP6 POP POP POP POP POP POP JUMP JUMPDEST PUSH1 0x0 PUSH1 0xA0 DUP3 CALLDATASIZE SUB SLT ISZERO PUSH2 0x105A JUMPI PUSH1 0x0 DUP1 REVERT JUMPDEST PUSH2 0x1062 PUSH2 0xE15 JUMP JUMPDEST DUP3 CALLDATALOAD DUP2 MSTORE PUSH2 0x1072 PUSH1 0x20 DUP5 ADD PUSH2 0xF13 JUMP JUMPDEST PUSH1 0x20 DUP3 ADD MSTORE PUSH1 0x40 DUP4 ADD CALLDATALOAD PUSH8 0xFFFFFFFFFFFFFFFF DUP1 DUP3 GT ISZERO PUSH2 0x1092 JUMPI PUSH1 0x0 DUP1 REVERT JUMPDEST PUSH2 0x109E CALLDATASIZE DUP4 DUP8 ADD PUSH2 0xF2B JUMP JUMPDEST PUSH1 0x40 DUP5 ADD MSTORE PUSH1 0x60 DUP6 ADD CALLDATALOAD SWAP2 POP DUP1 DUP3 GT ISZERO PUSH2 0x10B7 JUMPI PUSH1 0x0 DUP1 REVERT JUMPDEST PUSH2 0x10C3 CALLDATASIZE DUP4 DUP8 ADD PUSH2 0xF2B JUMP JUMPDEST PUSH1 0x60 DUP5 ADD MSTORE PUSH1 0x80 DUP6 ADD CALLDATALOAD SWAP2 POP DUP1 DUP3 GT ISZERO PUSH2 0x10DC JUMPI PUSH1 0x0 DUP1 REVERT JUMPDEST POP PUSH2 0x10E9 CALLDATASIZE DUP3 DUP7 ADD PUSH2 0xF9B JUMP JUMPDEST PUSH1 0x80 DUP4 ADD MSTORE POP SWAP3 SWAP2 POP POP JUMP JUMPDEST PUSH1 0x0 PUSH2 0x120 DUP3 DUP5 SUB SLT ISZERO PUSH2 0x1108 JUMPI PUSH1 0x0 DUP1 REVERT JUMPDEST PUSH1 0x40 MLOAD PUSH1 0x80 DUP2 ADD DUP2 DUP2 LT PUSH8 0xFFFFFFFFFFFFFFFF DUP3 GT OR ISZERO PUSH2 0x112B JUMPI PUSH2 0x112B PUSH2 0xD98 JUMP JUMPDEST PUSH1 0x40 MSTORE PUSH2 0x1138 DUP5 DUP5 PUSH2 0xE69 JUMP JUMPDEST DUP2 MSTORE PUSH1 0xC0 DUP4 ADD MLOAD PUSH1 0x20 DUP3 ADD MSTORE PUSH1 0xE0 DUP4 ADD MLOAD PUSH1 0x40 DUP3 ADD MSTORE PUSH2 0x100 DUP4 ADD MLOAD PUSH2 0x115D DUP2 PUSH2 0xBD1 JUMP JUMPDEST PUSH1 0x60 DUP3 ADD MSTORE SWAP4 SWAP3 POP POP POP JUMP INVALID LOG2 PUSH5 0x6970667358 0x22 SLT KECCAK256 0xA6 BYTE 0xE1 DUP3 0xBF 0xB5 BYTE LT NOT 0xEF MSIZE 0xB0 EXP CALLCODE NOT PUSH27 0x48101817FB02F58AF54A96E79ED4BD4964736F6C63430008170033 "
				},
				"gasEstimates": {
					"creation": {
						"codeDepositCost": "902200",
						"executionCost": "infinite",
						"totalCost": "infinite"
					},
					"external": {
						"ccipReceive((bytes32,uint64,bytes,bytes,(address,uint256)[]))": "infinite",
						"claimGilts(address)": "infinite",
						"getName()": "infinite",
						"getRouter()": "infinite",
						"getTGiltIds()": "infinite",
						"getTransmittedGilt(bytes32)": "20325",
						"getVersion()": "200",
						"supportsInterface(bytes4)": "427",
						"viewAvailableGiltClaims(address)": "infinite"
					},
					"internal": {
						"_ccipReceive(struct Client.Any2EVMMessage memory)": "infinite"
					}
				},
				"methodIdentifiers": {
					"ccipReceive((bytes32,uint64,bytes,bytes,(address,uint256)[]))": "85572ffb",
					"claimGilts(address)": "72d02aea",
					"getName()": "17d7de7c",
					"getRouter()": "b0f479a1",
					"getTGiltIds()": "5c089a54",
					"getTransmittedGilt(bytes32)": "a7648435",
					"getVersion()": "0d8e6e2c",
					"supportsInterface(bytes4)": "01ffc9a7",
					"viewAvailableGiltClaims(address)": "885c7b39"
				}
			},
			"storageLayout": {
				"storage": [
					{
						"astId": 645,
						"contract": "contracts/core/MReciever_flattened.sol:MReciever",
						"label": "register",
						"offset": 0,
						"slot": "0",
						"type": "t_contract(IMRegister)566"
					},
					{
						"astId": 648,
						"contract": "contracts/core/MReciever_flattened.sol:MReciever",
						"label": "gcIerc721",
						"offset": 0,
						"slot": "1",
						"type": "t_contract(IERC721)304"
					},
					{
						"astId": 651,
						"contract": "contracts/core/MReciever_flattened.sol:MReciever",
						"label": "giltContract",
						"offset": 0,
						"slot": "2",
						"type": "t_contract(IGiltContract)537"
					},
					{
						"astId": 654,
						"contract": "contracts/core/MReciever_flattened.sol:MReciever",
						"label": "tGiltIds",
						"offset": 0,
						"slot": "3",
						"type": "t_array(t_bytes32)dyn_storage"
					},
					{
						"astId": 659,
						"contract": "contracts/core/MReciever_flattened.sol:MReciever",
						"label": "tGiltById",
						"offset": 0,
						"slot": "4",
						"type": "t_mapping(t_bytes32,t_struct(TransmittedGilt)337_storage)"
					},
					{
						"astId": 664,
						"contract": "contracts/core/MReciever_flattened.sol:MReciever",
						"label": "tGiltIdsByOwner",
						"offset": 0,
						"slot": "5",
						"type": "t_mapping(t_address,t_array(t_bytes32)dyn_storage)"
					},
					{
						"astId": 669,
						"contract": "contracts/core/MReciever_flattened.sol:MReciever",
						"label": "claimedTGiltIdsByOwner",
						"offset": 0,
						"slot": "6",
						"type": "t_mapping(t_address,t_array(t_bytes32)dyn_storage)"
					},
					{
						"astId": 673,
						"contract": "contracts/core/MReciever_flattened.sol:MReciever",
						"label": "isClaimedByGiltId",
						"offset": 0,
						"slot": "7",
						"type": "t_mapping(t_bytes32,t_bool)"
					}
				],
				"types": {
					"t_address": {
						"encoding": "inplace",
						"label": "address",
						"numberOfBytes": "20"
					},
					"t_array(t_bytes32)dyn_storage": {
						"base": "t_bytes32",
						"encoding": "dynamic_array",
						"label": "bytes32[]",
						"numberOfBytes": "32"
					},
					"t_bool": {
						"encoding": "inplace",
						"label": "bool",
						"numberOfBytes": "1"
					},
					"t_bytes32": {
						"encoding": "inplace",
						"label": "bytes32",
						"numberOfBytes": "32"
					},
					"t_contract(IERC721)304": {
						"encoding": "inplace",
						"label": "contract IERC721",
						"numberOfBytes": "20"
					},
					"t_contract(IGiltContract)537": {
						"encoding": "inplace",
						"label": "contract IGiltContract",
						"numberOfBytes": "20"
					},
					"t_contract(IMRegister)566": {
						"encoding": "inplace",
						"label": "contract IMRegister",
						"numberOfBytes": "20"
					},
					"t_mapping(t_address,t_array(t_bytes32)dyn_storage)": {
						"encoding": "mapping",
						"key": "t_address",
						"label": "mapping(address => bytes32[])",
						"numberOfBytes": "32",
						"value": "t_array(t_bytes32)dyn_storage"
					},
					"t_mapping(t_bytes32,t_bool)": {
						"encoding": "mapping",
						"key": "t_bytes32",
						"label": "mapping(bytes32 => bool)",
						"numberOfBytes": "32",
						"value": "t_bool"
					},
					"t_mapping(t_bytes32,t_struct(TransmittedGilt)337_storage)": {
						"encoding": "mapping",
						"key": "t_bytes32",
						"label": "mapping(bytes32 => struct TransmittedGilt)",
						"numberOfBytes": "32",
						"value": "t_struct(TransmittedGilt)337_storage"
					},
					"t_struct(Gilt)327_storage": {
						"encoding": "inplace",
						"label": "struct Gilt",
						"members": [
							{
								"astId": 316,
								"contract": "contracts/core/MReciever_flattened.sol:MReciever",
								"label": "erc20",
								"offset": 0,
								"slot": "0",
								"type": "t_address"
							},
							{
								"astId": 318,
								"contract": "contracts/core/MReciever_flattened.sol:MReciever",
								"label": "amount",
								"offset": 0,
								"slot": "1",
								"type": "t_uint256"
							},
							{
								"astId": 320,
								"contract": "contracts/core/MReciever_flattened.sol:MReciever",
								"label": "creationDate",
								"offset": 0,
								"slot": "2",
								"type": "t_uint256"
							},
							{
								"astId": 322,
								"contract": "contracts/core/MReciever_flattened.sol:MReciever",
								"label": "chainId",
								"offset": 0,
								"slot": "3",
								"type": "t_uint256"
							},
							{
								"astId": 324,
								"contract": "contracts/core/MReciever_flattened.sol:MReciever",
								"label": "giltContract",
								"offset": 0,
								"slot": "4",
								"type": "t_address"
							},
							{
								"astId": 326,
								"contract": "contracts/core/MReciever_flattened.sol:MReciever",
								"label": "id",
								"offset": 0,
								"slot": "5",
								"type": "t_uint256"
							}
						],
						"numberOfBytes": "192"
					},
					"t_struct(TransmittedGilt)337_storage": {
						"encoding": "inplace",
						"label": "struct TransmittedGilt",
						"members": [
							{
								"astId": 330,
								"contract": "contracts/core/MReciever_flattened.sol:MReciever",
								"label": "gilt",
								"offset": 0,
								"slot": "0",
								"type": "t_struct(Gilt)327_storage"
							},
							{
								"astId": 332,
								"contract": "contracts/core/MReciever_flattened.sol:MReciever",
								"label": "alloProfileId",
								"offset": 0,
								"slot": "6",
								"type": "t_bytes32"
							},
							{
								"astId": 334,
								"contract": "contracts/core/MReciever_flattened.sol:MReciever",
								"label": "projectId",
								"offset": 0,
								"slot": "7",
								"type": "t_uint256"
							},
							{
								"astId": 336,
								"contract": "contracts/core/MReciever_flattened.sol:MReciever",
								"label": "owner",
								"offset": 0,
								"slot": "8",
								"type": "t_address"
							}
						],
						"numberOfBytes": "288"
					},
					"t_uint256": {
						"encoding": "inplace",
						"label": "uint256",
						"numberOfBytes": "32"
					}
				}
			},
			"userdoc": {
				"kind": "user",
				"methods": {
					"ccipReceive((bytes32,uint64,bytes,bytes,(address,uint256)[]))": {
						"notice": "Called by the Router to deliver a message. If this reverts, any token transfers also revert. The message will move to a FAILED state and become available for manual execution."
					},
					"getRouter()": {
						"notice": "Return the current router"
					},
					"supportsInterface(bytes4)": {
						"notice": "IERC165 supports an interfaceId"
					}
				},
				"version": 1
			}
		}
	}
}