{
	"contracts/core/GVault.sol": {
		"GVault": {
			"abi": [
				{
					"inputs": [
						{
							"internalType": "address",
							"name": "_register",
							"type": "address"
						},
						{
							"components": [
								{
									"internalType": "address",
									"name": "erc20",
									"type": "address"
								},
								{
									"internalType": "uint256",
									"name": "amount",
									"type": "uint256"
								},
								{
									"internalType": "uint256",
									"name": "creationDate",
									"type": "uint256"
								},
								{
									"internalType": "uint256",
									"name": "chainId",
									"type": "uint256"
								},
								{
									"internalType": "address",
									"name": "giltContract",
									"type": "address"
								},
								{
									"internalType": "uint256",
									"name": "id",
									"type": "uint256"
								}
							],
							"internalType": "struct Gilt",
							"name": "_gilt",
							"type": "tuple"
						}
					],
					"stateMutability": "nonpayable",
					"type": "constructor"
				},
				{
					"inputs": [],
					"name": "getAmountStored",
					"outputs": [
						{
							"internalType": "uint256",
							"name": "_amount",
							"type": "uint256"
						}
					],
					"stateMutability": "view",
					"type": "function"
				},
				{
					"inputs": [],
					"name": "getErc20",
					"outputs": [
						{
							"internalType": "address",
							"name": "_erc20",
							"type": "address"
						}
					],
					"stateMutability": "view",
					"type": "function"
				},
				{
					"inputs": [],
					"name": "getGilt",
					"outputs": [
						{
							"components": [
								{
									"internalType": "address",
									"name": "erc20",
									"type": "address"
								},
								{
									"internalType": "uint256",
									"name": "amount",
									"type": "uint256"
								},
								{
									"internalType": "uint256",
									"name": "creationDate",
									"type": "uint256"
								},
								{
									"internalType": "uint256",
									"name": "chainId",
									"type": "uint256"
								},
								{
									"internalType": "address",
									"name": "giltContract",
									"type": "address"
								},
								{
									"internalType": "uint256",
									"name": "id",
									"type": "uint256"
								}
							],
							"internalType": "struct Gilt",
							"name": "_gilt",
							"type": "tuple"
						}
					],
					"stateMutability": "view",
					"type": "function"
				},
				{
					"inputs": [],
					"name": "getName",
					"outputs": [
						{
							"internalType": "string",
							"name": "_name",
							"type": "string"
						}
					],
					"stateMutability": "pure",
					"type": "function"
				},
				{
					"inputs": [],
					"name": "getVersion",
					"outputs": [
						{
							"internalType": "uint256",
							"name": "_version",
							"type": "uint256"
						}
					],
					"stateMutability": "pure",
					"type": "function"
				},
				{
					"inputs": [],
					"name": "isCommitted",
					"outputs": [
						{
							"internalType": "bool",
							"name": "_isCommitted",
							"type": "bool"
						}
					],
					"stateMutability": "view",
					"type": "function"
				},
				{
					"inputs": [],
					"name": "isExpended",
					"outputs": [
						{
							"internalType": "bool",
							"name": "_isExpended",
							"type": "bool"
						}
					],
					"stateMutability": "view",
					"type": "function"
				},
				{
					"inputs": [],
					"name": "releaseFunds",
					"outputs": [
						{
							"internalType": "bool",
							"name": "_empty",
							"type": "bool"
						}
					],
					"stateMutability": "nonpayable",
					"type": "function"
				},
				{
					"inputs": [],
					"name": "storeFunds",
					"outputs": [
						{
							"internalType": "bool",
							"name": "_stored",
							"type": "bool"
						}
					],
					"stateMutability": "payable",
					"type": "function"
				}
			],
			"devdoc": {
				"kind": "dev",
				"methods": {},
				"version": 1
			},
			"evm": {
				"assembly": "    /* \"contracts/core/GVault.sol\":246:2337  contract GVault is IGVault, IMVersion { ... */\n  mstore(0x40, 0xa0)\n    /* \"contracts/core/GVault.sol\":521:542  bool expended = false */\n  0x06\n  dup1\n  sload\n  not(shl(0xa0, 0xffff))\n    /* \"contracts/core/GVault.sol\":550:572  bool committed = false */\n  and\n  swap1\n  sstore\n    /* \"contracts/core/GVault.sol\":582:739  constructor(address _register, Gilt memory _gilt) { ... */\n  callvalue\n  dup1\n  iszero\n  tag_1\n  jumpi\n  0x00\n  dup1\n  revert\ntag_1:\n  pop\n  mload(0x40)\n  sub(codesize, bytecodeSize)\n  dup1\n  bytecodeSize\n  dup4\n  codecopy\n  dup2\n  add\n  0x40\n  dup2\n  swap1\n  mstore\n  tag_2\n  swap2\n  tag_3\n  jump\t// in\ntag_2:\n    /* \"contracts/core/GVault.sol\":644:656  gilt = _gilt */\n  dup1\n  mload\n    /* \"contracts/core/GVault.sol\":644:648  gilt */\n  0x00\n    /* \"contracts/core/GVault.sol\":644:656  gilt = _gilt */\n  dup1\n  sload\n  sub(shl(0xa0, 0x01), 0x01)\n  swap3\n  dup4\n  and\n  not(sub(shl(0xa0, 0x01), 0x01))\n  swap2\n  dup3\n  and\n  or\n  swap1\n  swap2\n  sstore\n  0x20\n  dup4\n  add\n  mload\n  0x01\n  sstore\n  0x40\n  dup4\n  add\n  mload\n  0x02\n  sstore\n  0x60\n  dup4\n  add\n  mload\n  0x03\n  sstore\n  0x80\n  dup1\n  dup5\n  add\n  mload\n  0x04\n  dup1\n  sload\n  swap2\n  dup6\n  and\n  swap2\n  dup5\n  and\n  swap2\n  swap1\n  swap2\n  or\n  swap1\n  sstore\n  0xa0\n  swap1\n  swap4\n  add\n  mload\n  0x05\n  sstore\n    /* \"contracts/core/GVault.sol\":667:675  register */\n  0x06\n    /* \"contracts/core/GVault.sol\":667:699  register = IMRegister(_register) */\n  dup1\n  sload\n  swap5\n  swap1\n  swap3\n  and\n  swap4\n  and\n  swap3\n  swap1\n  swap3\n  or\n  swap1\n  swap2\n  sstore\n    /* \"contracts/core/GVault.sol\":725:729  this */\n  address\n    /* \"contracts/core/GVault.sol\":710:730  self = address(this) */\n  swap1\n  mstore\n    /* \"contracts/core/GVault.sol\":246:2337  contract GVault is IGVault, IMVersion { ... */\n  jump(tag_8)\n    /* \"#utility.yul\":14:191   */\ntag_7:\n    /* \"#utility.yul\":93:106   */\n  dup1\n  mload\n  sub(shl(0xa0, 0x01), 0x01)\n    /* \"#utility.yul\":135:166   */\n  dup2\n  and\n    /* \"#utility.yul\":125:167   */\n  dup2\n  eq\n    /* \"#utility.yul\":115:185   */\n  tag_10\n  jumpi\n    /* \"#utility.yul\":181:182   */\n  0x00\n    /* \"#utility.yul\":178:179   */\n  dup1\n    /* \"#utility.yul\":171:183   */\n  revert\n    /* \"#utility.yul\":115:185   */\ntag_10:\n    /* \"#utility.yul\":14:191   */\n  swap2\n  swap1\n  pop\n  jump\t// out\n    /* \"#utility.yul\":196:1245   */\ntag_3:\n    /* \"#utility.yul\":296:302   */\n  0x00\n    /* \"#utility.yul\":304:310   */\n  dup1\n    /* \"#utility.yul\":348:357   */\n  dup3\n    /* \"#utility.yul\":339:346   */\n  dup5\n    /* \"#utility.yul\":335:358   */\n  sub\n    /* \"#utility.yul\":378:381   */\n  0xe0\n    /* \"#utility.yul\":374:376   */\n  dup2\n    /* \"#utility.yul\":370:382   */\n  slt\n    /* \"#utility.yul\":367:399   */\n  iszero\n  tag_12\n  jumpi\n    /* \"#utility.yul\":395:396   */\n  0x00\n    /* \"#utility.yul\":392:393   */\n  dup1\n    /* \"#utility.yul\":385:397   */\n  revert\n    /* \"#utility.yul\":367:399   */\ntag_12:\n    /* \"#utility.yul\":418:458   */\n  tag_13\n    /* \"#utility.yul\":448:457   */\n  dup5\n    /* \"#utility.yul\":418:458   */\n  tag_7\n  jump\t// in\ntag_13:\n    /* \"#utility.yul\":408:458   */\n  swap3\n  pop\n    /* \"#utility.yul\":492:496   */\n  0xc0\n  not(0x1f)\n    /* \"#utility.yul\":474:490   */\n  dup3\n  add\n    /* \"#utility.yul\":470:497   */\n  slt\n    /* \"#utility.yul\":467:514   */\n  iszero\n  tag_14\n  jumpi\n    /* \"#utility.yul\":510:511   */\n  0x00\n    /* \"#utility.yul\":507:508   */\n  dup1\n    /* \"#utility.yul\":500:512   */\n  revert\n    /* \"#utility.yul\":467:514   */\ntag_14:\n  pop\n    /* \"#utility.yul\":543:545   */\n  0x40\n    /* \"#utility.yul\":537:546   */\n  mload\n    /* \"#utility.yul\":585:589   */\n  0xc0\n    /* \"#utility.yul\":573:590   */\n  dup2\n  add\n  sub(shl(0x40, 0x01), 0x01)\n    /* \"#utility.yul\":605:639   */\n  dup2\n  gt\n    /* \"#utility.yul\":641:663   */\n  dup3\n  dup3\n  lt\n    /* \"#utility.yul\":602:664   */\n  or\n    /* \"#utility.yul\":599:784   */\n  iszero\n  tag_15\n  jumpi\n    /* \"#utility.yul\":706:716   */\n  0x4e487b71\n    /* \"#utility.yul\":701:704   */\n  0xe0\n    /* \"#utility.yul\":697:717   */\n  shl\n    /* \"#utility.yul\":694:695   */\n  0x00\n    /* \"#utility.yul\":687:718   */\n  mstore\n    /* \"#utility.yul\":741:745   */\n  0x41\n    /* \"#utility.yul\":738:739   */\n  0x04\n    /* \"#utility.yul\":731:746   */\n  mstore\n    /* \"#utility.yul\":769:773   */\n  0x24\n    /* \"#utility.yul\":766:767   */\n  0x00\n    /* \"#utility.yul\":759:774   */\n  revert\n    /* \"#utility.yul\":599:784   */\ntag_15:\n    /* \"#utility.yul\":800:802   */\n  0x40\n    /* \"#utility.yul\":793:815   */\n  mstore\n    /* \"#utility.yul\":839:888   */\n  tag_16\n    /* \"#utility.yul\":884:886   */\n  0x20\n    /* \"#utility.yul\":869:887   */\n  dup6\n  add\n    /* \"#utility.yul\":839:888   */\n  tag_7\n  jump\t// in\ntag_16:\n    /* \"#utility.yul\":831:837   */\n  dup2\n    /* \"#utility.yul\":824:889   */\n  mstore\n    /* \"#utility.yul\":943:945   */\n  0x40\n    /* \"#utility.yul\":932:941   */\n  dup5\n    /* \"#utility.yul\":928:946   */\n  add\n    /* \"#utility.yul\":922:947   */\n  mload\n    /* \"#utility.yul\":917:919   */\n  0x20\n    /* \"#utility.yul\":909:915   */\n  dup3\n    /* \"#utility.yul\":905:920   */\n  add\n    /* \"#utility.yul\":898:948   */\n  mstore\n    /* \"#utility.yul\":1002:1004   */\n  0x60\n    /* \"#utility.yul\":991:1000   */\n  dup5\n    /* \"#utility.yul\":987:1005   */\n  add\n    /* \"#utility.yul\":981:1006   */\n  mload\n    /* \"#utility.yul\":976:978   */\n  0x40\n    /* \"#utility.yul\":968:974   */\n  dup3\n    /* \"#utility.yul\":964:979   */\n  add\n    /* \"#utility.yul\":957:1007   */\n  mstore\n    /* \"#utility.yul\":1061:1064   */\n  0x80\n    /* \"#utility.yul\":1050:1059   */\n  dup5\n    /* \"#utility.yul\":1046:1065   */\n  add\n    /* \"#utility.yul\":1040:1066   */\n  mload\n    /* \"#utility.yul\":1035:1037   */\n  0x60\n    /* \"#utility.yul\":1027:1033   */\n  dup3\n    /* \"#utility.yul\":1023:1038   */\n  add\n    /* \"#utility.yul\":1016:1067   */\n  mstore\n    /* \"#utility.yul\":1101:1151   */\n  tag_17\n    /* \"#utility.yul\":1146:1149   */\n  0xa0\n    /* \"#utility.yul\":1135:1144   */\n  dup6\n    /* \"#utility.yul\":1131:1150   */\n  add\n    /* \"#utility.yul\":1101:1151   */\n  tag_7\n  jump\t// in\ntag_17:\n    /* \"#utility.yul\":1095:1098   */\n  0x80\n    /* \"#utility.yul\":1083:1099   */\n  dup3\n  add\n    /* \"#utility.yul\":1076:1152   */\n  mstore\n    /* \"#utility.yul\":1207:1211   */\n  0xc0\n    /* \"#utility.yul\":1192:1212   */\n  swap4\n  swap1\n  swap4\n  add\n    /* \"#utility.yul\":1186:1213   */\n  mload\n    /* \"#utility.yul\":1180:1183   */\n  0xa0\n    /* \"#utility.yul\":1168:1184   */\n  dup5\n  add\n    /* \"#utility.yul\":1161:1214   */\n  mstore\n  pop\n    /* \"#utility.yul\":196:1245   */\n  swap3\n    /* \"#utility.yul\":1087:1093   */\n  swap1\n  swap2\n  pop\n    /* \"#utility.yul\":196:1245   */\n  jump\t// out\ntag_8:\n    /* \"contracts/core/GVault.sol\":246:2337  contract GVault is IGVault, IMVersion { ... */\n  mload(0x80)\n  codecopy(0x00, dataOffset(sub_0), dataSize(sub_0))\n  0x00\n  assignImmutable(\"0x2e5129c19be59da29ff89133759e8d7e21d926bf22eda9cdfd27c0cd8774b8c2\")\n  return(0x00, dataSize(sub_0))\nstop\n\nsub_0: assembly {\n        /* \"contracts/core/GVault.sol\":246:2337  contract GVault is IGVault, IMVersion { ... */\n      mstore(0x40, 0x80)\n      jumpi(tag_1, lt(calldatasize, 0x04))\n      shr(0xe0, calldataload(0x00))\n      dup1\n      0x7299cc83\n      gt\n      tag_11\n      jumpi\n      dup1\n      0x7299cc83\n      eq\n      tag_6\n      jumpi\n      dup1\n      0x7af148c0\n      eq\n      tag_7\n      jumpi\n      dup1\n      0x8aa24983\n      eq\n      tag_8\n      jumpi\n      dup1\n      0x932221fb\n      eq\n      tag_9\n      jumpi\n      dup1\n      0x97a8382b\n      eq\n      tag_10\n      jumpi\n      0x00\n      dup1\n      revert\n    tag_11:\n      dup1\n      0x0d8e6e2c\n      eq\n      tag_2\n      jumpi\n      dup1\n      0x17d7de7c\n      eq\n      tag_3\n      jumpi\n      dup1\n      0x374cc890\n      eq\n      tag_4\n      jumpi\n      dup1\n      0x69d89575\n      eq\n      tag_5\n      jumpi\n    tag_1:\n      0x00\n      dup1\n      revert\n        /* \"contracts/core/GVault.sol\":849:946  function getVersion() pure external returns (uint256 _version) {... */\n    tag_2:\n      callvalue\n      dup1\n      iszero\n      tag_12\n      jumpi\n      0x00\n      dup1\n      revert\n    tag_12:\n      pop\n        /* \"contracts/core/GVault.sol\":360:361  2 */\n      0x02\n        /* \"contracts/core/GVault.sol\":849:946  function getVersion() pure external returns (uint256 _version) {... */\n    tag_13:\n      mload(0x40)\n        /* \"#utility.yul\":160:185   */\n      swap1\n      dup2\n      mstore\n        /* \"#utility.yul\":148:150   */\n      0x20\n        /* \"#utility.yul\":133:151   */\n      add\n        /* \"contracts/core/GVault.sol\":849:946  function getVersion() pure external returns (uint256 _version) {... */\n    tag_15:\n      mload(0x40)\n      dup1\n      swap2\n      sub\n      swap1\n      return\n        /* \"contracts/core/GVault.sol\":747:841  function getName() pure external returns (string memory _name) {... */\n    tag_3:\n      callvalue\n      dup1\n      iszero\n      tag_17\n      jumpi\n      0x00\n      dup1\n      revert\n    tag_17:\n      pop\n        /* \"contracts/core/GVault.sol\":828:832  name */\n      0x40\n      dup1\n      mload\n      dup1\n      dup3\n      add\n      dup3\n      mstore\n      0x07\n      dup2\n      mstore\n      shl(0xca, 0x11d7d590555315)\n      0x20\n      dup3\n      add\n      mstore\n        /* \"contracts/core/GVault.sol\":747:841  function getName() pure external returns (string memory _name) {... */\n      swap1\n      mload\n      tag_15\n      swap2\n        /* \"contracts/core/GVault.sol\":828:832  name */\n      swap1\n        /* \"contracts/core/GVault.sol\":747:841  function getName() pure external returns (string memory _name) {... */\n      tag_21\n      jump\t// in\n        /* \"contracts/core/GVault.sol\":1156:1282  function getAmountStored() view external returns (uint256 _amount){... */\n    tag_4:\n      callvalue\n      dup1\n      iszero\n      tag_22\n      jumpi\n      0x00\n      dup1\n      revert\n    tag_22:\n      pop\n      tag_13\n      tag_24\n      jump\t// in\n        /* \"contracts/core/GVault.sol\":1706:2117  function releaseFunds() external returns(bool _empty){... */\n    tag_5:\n      callvalue\n      dup1\n      iszero\n      tag_26\n      jumpi\n      0x00\n      dup1\n      revert\n    tag_26:\n      pop\n      tag_27\n      tag_28\n      jump\t// in\n    tag_27:\n      mload(0x40)\n        /* \"#utility.yul\":914:928   */\n      swap1\n      iszero\n        /* \"#utility.yul\":907:929   */\n      iszero\n        /* \"#utility.yul\":889:930   */\n      dup2\n      mstore\n        /* \"#utility.yul\":877:879   */\n      0x20\n        /* \"#utility.yul\":862:880   */\n      add\n        /* \"contracts/core/GVault.sol\":1706:2117  function releaseFunds() external returns(bool _empty){... */\n      tag_15\n        /* \"#utility.yul\":749:936   */\n      jump\n        /* \"contracts/core/GVault.sol\":1290:1698  function storeFunds() external payable returns (bool _stored){... */\n    tag_6:\n      tag_27\n      tag_32\n      jump\t// in\n        /* \"contracts/core/GVault.sol\":1053:1148  function getErc20() view external returns (address _erc20){... */\n    tag_7:\n      callvalue\n      dup1\n      iszero\n      tag_34\n      jumpi\n      0x00\n      dup1\n      revert\n    tag_34:\n      pop\n        /* \"contracts/core/GVault.sol\":1096:1110  address _erc20 */\n      0x00\n        /* \"contracts/core/GVault.sol\":1129:1139  gilt.erc20 */\n      sload\n        /* \"contracts/core/GVault.sol\":1053:1148  function getErc20() view external returns (address _erc20){... */\n      mload(0x40)\n      sub(shl(0xa0, 0x01), 0x01)\n        /* \"contracts/core/GVault.sol\":1129:1139  gilt.erc20 */\n      swap1\n      swap2\n      and\n        /* \"#utility.yul\":1087:1138   */\n      dup2\n      mstore\n        /* \"#utility.yul\":1075:1077   */\n      0x20\n        /* \"#utility.yul\":1060:1078   */\n      add\n        /* \"contracts/core/GVault.sol\":1053:1148  function getErc20() view external returns (address _erc20){... */\n      tag_15\n        /* \"#utility.yul\":941:1144   */\n      jump\n        /* \"contracts/core/GVault.sol\":2232:2329  function isExpended() view external returns (bool _isExpended){... */\n    tag_8:\n      callvalue\n      dup1\n      iszero\n      tag_39\n      jumpi\n      0x00\n      dup1\n      revert\n    tag_39:\n      pop\n        /* \"contracts/core/GVault.sol\":2312:2320  expended */\n      sload(0x06)\n      shl(0xa0, 0x01)\n      swap1\n      div\n      0xff\n      and\n        /* \"contracts/core/GVault.sol\":2232:2329  function isExpended() view external returns (bool _isExpended){... */\n      jump(tag_27)\n        /* \"contracts/core/GVault.sol\":2125:2224  function isCommitted() view external returns(bool _isCommitted){... */\n    tag_9:\n      callvalue\n      dup1\n      iszero\n      tag_43\n      jumpi\n      0x00\n      dup1\n      revert\n    tag_43:\n      pop\n        /* \"contracts/core/GVault.sol\":2206:2215  committed */\n      sload(0x06)\n      shl(0xa8, 0x01)\n      swap1\n      div\n      0xff\n      and\n        /* \"contracts/core/GVault.sol\":2125:2224  function isCommitted() view external returns(bool _isCommitted){... */\n      jump(tag_27)\n        /* \"contracts/core/GVault.sol\":954:1045  function getGilt() view external returns (Gilt memory _gilt){... */\n    tag_10:\n      callvalue\n      dup1\n      iszero\n      tag_47\n      jumpi\n      0x00\n      dup1\n      revert\n    tag_47:\n      pop\n      tag_48\n      tag_49\n      jump\t// in\n    tag_48:\n      mload(0x40)\n      tag_15\n      swap2\n      swap1\n        /* \"#utility.yul\":1398:1411   */\n      dup2\n      mload\n      sub(shl(0xa0, 0x01), 0x01)\n        /* \"#utility.yul\":1394:1416   */\n      swap1\n      dup2\n      and\n        /* \"#utility.yul\":1376:1417   */\n      dup3\n      mstore\n        /* \"#utility.yul\":1473:1477   */\n      0x20\n        /* \"#utility.yul\":1461:1478   */\n      dup1\n      dup5\n      add\n        /* \"#utility.yul\":1455:1479   */\n      mload\n        /* \"#utility.yul\":1433:1453   */\n      swap1\n      dup4\n      add\n        /* \"#utility.yul\":1426:1480   */\n      mstore\n        /* \"#utility.yul\":1536:1540   */\n      0x40\n        /* \"#utility.yul\":1524:1541   */\n      dup1\n      dup5\n      add\n        /* \"#utility.yul\":1518:1542   */\n      mload\n        /* \"#utility.yul\":1496:1516   */\n      swap1\n      dup4\n      add\n        /* \"#utility.yul\":1489:1543   */\n      mstore\n        /* \"#utility.yul\":1599:1603   */\n      0x60\n        /* \"#utility.yul\":1587:1604   */\n      dup1\n      dup5\n      add\n        /* \"#utility.yul\":1581:1605   */\n      mload\n        /* \"#utility.yul\":1559:1579   */\n      swap1\n      dup4\n      add\n        /* \"#utility.yul\":1552:1606   */\n      mstore\n        /* \"#utility.yul\":1666:1670   */\n      0x80\n        /* \"#utility.yul\":1654:1671   */\n      dup1\n      dup5\n      add\n        /* \"#utility.yul\":1648:1672   */\n      mload\n        /* \"#utility.yul\":1644:1677   */\n      swap1\n      swap2\n      and\n        /* \"#utility.yul\":1622:1642   */\n      swap1\n      dup3\n      add\n        /* \"#utility.yul\":1615:1678   */\n      mstore\n        /* \"#utility.yul\":1356:1359   */\n      0xa0\n        /* \"#utility.yul\":1722:1739   */\n      swap2\n      dup3\n      add\n        /* \"#utility.yul\":1716:1740   */\n      mload\n        /* \"#utility.yul\":1694:1714   */\n      swap2\n      dup2\n      add\n        /* \"#utility.yul\":1687:1741   */\n      swap2\n      swap1\n      swap2\n      mstore\n        /* \"#utility.yul\":1325:1328   */\n      0xc0\n        /* \"#utility.yul\":1310:1329   */\n      add\n      swap1\n        /* \"#utility.yul\":1149:1747   */\n      jump\n        /* \"contracts/core/GVault.sol\":1156:1282  function getAmountStored() view external returns (uint256 _amount){... */\n    tag_24:\n        /* \"contracts/core/GVault.sol\":1206:1221  uint256 _amount */\n      0x00\n        /* \"contracts/core/GVault.sol\":1247:1257  gilt.erc20 */\n      dup1\n      sload\n        /* \"contracts/core/GVault.sol\":1240:1274  IERC20(gilt.erc20).balanceOf(self) */\n      mload(0x40)\n      shl(0xe0, 0x70a08231)\n      dup2\n      mstore\n      sub(shl(0xa0, 0x01), 0x01)\n        /* \"contracts/core/GVault.sol\":1269:1273  self */\n      immutable(\"0x2e5129c19be59da29ff89133759e8d7e21d926bf22eda9cdfd27c0cd8774b8c2\")\n        /* \"#utility.yul\":1105:1137   */\n      dup2\n      and\n        /* \"contracts/core/GVault.sol\":1240:1274  IERC20(gilt.erc20).balanceOf(self) */\n      0x04\n      dup4\n      add\n        /* \"#utility.yul\":1087:1138   */\n      mstore\n        /* \"contracts/core/GVault.sol\":1247:1257  gilt.erc20 */\n      swap1\n      swap2\n      and\n      swap1\n        /* \"contracts/core/GVault.sol\":1240:1268  IERC20(gilt.erc20).balanceOf */\n      0x70a08231\n      swap1\n        /* \"#utility.yul\":1060:1078   */\n      0x24\n      add\n        /* \"contracts/core/GVault.sol\":1240:1274  IERC20(gilt.erc20).balanceOf(self) */\n      0x20\n      mload(0x40)\n      dup1\n      dup4\n      sub\n      dup2\n      dup7\n      gas\n      staticcall\n      iszero\n      dup1\n      iszero\n      tag_57\n      jumpi\n      returndatasize\n      0x00\n      dup1\n      returndatacopy\n      revert(0x00, returndatasize)\n    tag_57:\n      pop\n      pop\n      pop\n      pop\n      mload(0x40)\n      returndatasize\n      not(0x1f)\n      0x1f\n      dup3\n      add\n      and\n      dup3\n      add\n      dup1\n      0x40\n      mstore\n      pop\n      dup2\n      add\n      swap1\n      tag_58\n      swap2\n      swap1\n      tag_59\n      jump\t// in\n    tag_58:\n        /* \"contracts/core/GVault.sol\":1233:1274  return IERC20(gilt.erc20).balanceOf(self) */\n      swap1\n      pop\n        /* \"contracts/core/GVault.sol\":1156:1282  function getAmountStored() view external returns (uint256 _amount){... */\n      swap1\n      jump\t// out\n        /* \"contracts/core/GVault.sol\":1706:2117  function releaseFunds() external returns(bool _empty){... */\n    tag_28:\n        /* \"contracts/core/GVault.sol\":1778:1787  committed */\n      sload(0x06)\n        /* \"contracts/core/GVault.sol\":1747:1758  bool _empty */\n      0x00\n      swap1\n      shl(0xa8, 0x01)\n        /* \"contracts/core/GVault.sol\":1778:1787  committed */\n      swap1\n      div\n      0xff\n      and\n        /* \"contracts/core/GVault.sol\":1770:1811  require(committed, \"vault not committed\") */\n      tag_61\n      jumpi\n      mload(0x40)\n      shl(0xe5, 0x461bcd)\n      dup2\n      mstore\n        /* \"#utility.yul\":2143:2145   */\n      0x20\n        /* \"contracts/core/GVault.sol\":1770:1811  require(committed, \"vault not committed\") */\n      0x04\n      dup3\n      add\n        /* \"#utility.yul\":2125:2146   */\n      mstore\n        /* \"#utility.yul\":2182:2184   */\n      0x13\n        /* \"#utility.yul\":2162:2180   */\n      0x24\n      dup3\n      add\n        /* \"#utility.yul\":2155:2185   */\n      mstore\n      shl(0x6a, 0x1d985d5b1d081b9bdd0818dbdb5b5a5d1d1959)\n        /* \"#utility.yul\":2201:2219   */\n      0x44\n      dup3\n      add\n        /* \"#utility.yul\":2194:2243   */\n      mstore\n        /* \"#utility.yul\":2260:2278   */\n      0x64\n      add\n        /* \"contracts/core/GVault.sol\":1770:1811  require(committed, \"vault not committed\") */\n    tag_62:\n      mload(0x40)\n      dup1\n      swap2\n      sub\n      swap1\n      revert\n    tag_61:\n        /* \"contracts/core/GVault.sol\":1831:1839  expended */\n      sload(0x06)\n      shl(0xa0, 0x01)\n      swap1\n      div\n      0xff\n      and\n        /* \"contracts/core/GVault.sol\":1830:1839  !expended */\n      iszero\n        /* \"contracts/core/GVault.sol\":1822:1858  require(!expended, \"vault expended\") */\n      tag_64\n      jumpi\n      mload(0x40)\n      shl(0xe5, 0x461bcd)\n      dup2\n      mstore\n        /* \"#utility.yul\":2491:2493   */\n      0x20\n        /* \"contracts/core/GVault.sol\":1822:1858  require(!expended, \"vault expended\") */\n      0x04\n      dup3\n      add\n        /* \"#utility.yul\":2473:2494   */\n      mstore\n        /* \"#utility.yul\":2530:2532   */\n      0x0e\n        /* \"#utility.yul\":2510:2528   */\n      0x24\n      dup3\n      add\n        /* \"#utility.yul\":2503:2533   */\n      mstore\n      shl(0x92, 0x1d985d5b1d08195e1c195b991959)\n        /* \"#utility.yul\":2549:2567   */\n      0x44\n      dup3\n      add\n        /* \"#utility.yul\":2542:2586   */\n      mstore\n        /* \"#utility.yul\":2603:2621   */\n      0x64\n      add\n        /* \"contracts/core/GVault.sol\":1822:1858  require(!expended, \"vault expended\") */\n      tag_62\n        /* \"#utility.yul\":2289:2627   */\n      jump\n        /* \"contracts/core/GVault.sol\":1822:1858  require(!expended, \"vault expended\") */\n    tag_64:\n        /* \"contracts/core/GVault.sol\":1869:1877  expended */\n      0x06\n        /* \"contracts/core/GVault.sol\":1869:1884  expended = true */\n      dup1\n      sload\n      shl(0xa0, 0x01)\n      not(shl(0xa0, 0xff))\n      swap1\n      swap2\n      and\n      or\n      swap1\n      sstore\n      0x00\n        /* \"contracts/core/GVault.sol\":1899:1909  gilt.erc20 */\n      sload\n      sub(shl(0xa0, 0x01), 0x01)\n      and\n      not(0xeeeeeeeeeeeeeeeeeeeeeeeeeeeeeeeeeeeeeeed)\n        /* \"contracts/core/GVault.sol\":1899:1919  gilt.erc20 == NATIVE */\n      add\n        /* \"contracts/core/GVault.sol\":1896:2083  if(gilt.erc20 == NATIVE) {... */\n      tag_67\n      jumpi\n        /* \"contracts/core/GVault.sol\":1936:1978  payable(msg.sender).transfer(self.balance) */\n      mload(0x40)\n        /* \"contracts/core/GVault.sol\":1944:1954  msg.sender */\n      caller\n      swap1\n        /* \"contracts/core/GVault.sol\":1965:1969  self */\n      immutable(\"0x2e5129c19be59da29ff89133759e8d7e21d926bf22eda9cdfd27c0cd8774b8c2\")\n      sub(shl(0xa0, 0x01), 0x01)\n        /* \"contracts/core/GVault.sol\":1965:1977  self.balance */\n      and\n      balance\n        /* \"contracts/core/GVault.sol\":1936:1978  payable(msg.sender).transfer(self.balance) */\n      dup1\n      iszero\n      0x08fc\n      mul\n      swap2\n      0x00\n      dup2\n      dup2\n      dup2\n        /* \"contracts/core/GVault.sol\":1965:1977  self.balance */\n      dup6\n        /* \"contracts/core/GVault.sol\":1944:1954  msg.sender */\n      dup9\n        /* \"contracts/core/GVault.sol\":1936:1978  payable(msg.sender).transfer(self.balance) */\n      dup9\n      call\n      swap4\n      pop\n      pop\n      pop\n      pop\n      iszero\n      dup1\n      iszero\n      tag_69\n      jumpi\n      returndatasize\n      0x00\n      dup1\n      returndatacopy\n      revert(0x00, returndatasize)\n    tag_69:\n      pop\n        /* \"contracts/core/GVault.sol\":1896:2083  if(gilt.erc20 == NATIVE) {... */\n      jump(tag_70)\n    tag_67:\n        /* \"contracts/core/GVault.sol\":2027:2031  gilt */\n      0x00\n        /* \"contracts/core/GVault.sol\":2027:2037  gilt.erc20 */\n      sload\n      0x01\n        /* \"contracts/core/GVault.sol\":2059:2070  gilt.amount */\n      sload\n        /* \"contracts/core/GVault.sol\":2020:2071  IERC20(gilt.erc20).approve(msg.sender, gilt.amount) */\n      mload(0x40)\n      shl(0xe0, 0x095ea7b3)\n      dup2\n      mstore\n        /* \"contracts/core/GVault.sol\":2047:2057  msg.sender */\n      caller\n        /* \"contracts/core/GVault.sol\":2020:2071  IERC20(gilt.erc20).approve(msg.sender, gilt.amount) */\n      0x04\n      dup3\n      add\n        /* \"#utility.yul\":2806:2857   */\n      mstore\n        /* \"#utility.yul\":2873:2891   */\n      0x24\n      dup2\n      add\n        /* \"#utility.yul\":2866:2900   */\n      swap2\n      swap1\n      swap2\n      mstore\n      sub(shl(0xa0, 0x01), 0x01)\n        /* \"contracts/core/GVault.sol\":2027:2037  gilt.erc20 */\n      swap1\n      swap2\n      and\n      swap1\n        /* \"contracts/core/GVault.sol\":2020:2046  IERC20(gilt.erc20).approve */\n      0x095ea7b3\n      swap1\n        /* \"#utility.yul\":2779:2797   */\n      0x44\n      add\n        /* \"contracts/core/GVault.sol\":2020:2071  IERC20(gilt.erc20).approve(msg.sender, gilt.amount) */\n      0x20\n      mload(0x40)\n      dup1\n      dup4\n      sub\n      dup2\n      0x00\n      dup8\n      gas\n      call\n      iszero\n      dup1\n      iszero\n      tag_74\n      jumpi\n      returndatasize\n      0x00\n      dup1\n      returndatacopy\n      revert(0x00, returndatasize)\n    tag_74:\n      pop\n      pop\n      pop\n      pop\n      mload(0x40)\n      returndatasize\n      not(0x1f)\n      0x1f\n      dup3\n      add\n      and\n      dup3\n      add\n      dup1\n      0x40\n      mstore\n      pop\n      dup2\n      add\n      swap1\n      tag_75\n      swap2\n      swap1\n      tag_76\n      jump\t// in\n    tag_75:\n      pop\n        /* \"contracts/core/GVault.sol\":1896:2083  if(gilt.erc20 == NATIVE) {... */\n    tag_70:\n      pop\n        /* \"contracts/core/GVault.sol\":2100:2108  expended */\n      sload(0x06)\n      shl(0xa0, 0x01)\n      swap1\n      div\n      0xff\n      and\n      swap1\n        /* \"contracts/core/GVault.sol\":1706:2117  function releaseFunds() external returns(bool _empty){... */\n      jump\t// out\n        /* \"contracts/core/GVault.sol\":1290:1698  function storeFunds() external payable returns (bool _stored){... */\n    tag_32:\n        /* \"contracts/core/GVault.sol\":1371:1380  committed */\n      sload(0x06)\n        /* \"contracts/core/GVault.sol\":1338:1350  bool _stored */\n      0x00\n      swap1\n      shl(0xa8, 0x01)\n        /* \"contracts/core/GVault.sol\":1371:1380  committed */\n      swap1\n      div\n      0xff\n      and\n        /* \"contracts/core/GVault.sol\":1370:1380  !committed */\n      iszero\n        /* \"contracts/core/GVault.sol\":1362:1400  require(!committed, \"vault committed\") */\n      tag_78\n      jumpi\n      mload(0x40)\n      shl(0xe5, 0x461bcd)\n      dup2\n      mstore\n        /* \"#utility.yul\":3395:3397   */\n      0x20\n        /* \"contracts/core/GVault.sol\":1362:1400  require(!committed, \"vault committed\") */\n      0x04\n      dup3\n      add\n        /* \"#utility.yul\":3377:3398   */\n      mstore\n        /* \"#utility.yul\":3434:3436   */\n      0x0f\n        /* \"#utility.yul\":3414:3432   */\n      0x24\n      dup3\n      add\n        /* \"#utility.yul\":3407:3437   */\n      mstore\n      shl(0x8a, 0x1d985d5b1d0818dbdb5b5a5d1d1959)\n        /* \"#utility.yul\":3453:3471   */\n      0x44\n      dup3\n      add\n        /* \"#utility.yul\":3446:3491   */\n      mstore\n        /* \"#utility.yul\":3508:3526   */\n      0x64\n      add\n        /* \"contracts/core/GVault.sol\":1362:1400  require(!committed, \"vault committed\") */\n      tag_62\n        /* \"#utility.yul\":3193:3532   */\n      jump\n        /* \"contracts/core/GVault.sol\":1362:1400  require(!committed, \"vault committed\") */\n    tag_78:\n        /* \"contracts/core/GVault.sol\":1411:1420  committed */\n      0x06\n        /* \"contracts/core/GVault.sol\":1411:1427  committed = true */\n      dup1\n      sload\n      shl(0xa8, 0x01)\n      not(shl(0xa8, 0xff))\n      swap1\n      swap2\n      and\n      or\n      swap1\n      sstore\n      0x00\n        /* \"contracts/core/GVault.sol\":1442:1452  gilt.erc20 */\n      sload\n      sub(shl(0xa0, 0x01), 0x01)\n      and\n      not(0xeeeeeeeeeeeeeeeeeeeeeeeeeeeeeeeeeeeeeeed)\n        /* \"contracts/core/GVault.sol\":1442:1462  gilt.erc20 == NATIVE */\n      add\n        /* \"contracts/core/GVault.sol\":1439:1668  if(gilt.erc20 == NATIVE) {... */\n      tag_81\n      jumpi\n        /* \"contracts/core/GVault.sol\":1500:1511  gilt.amount */\n      sload(0x01)\n        /* \"contracts/core/GVault.sol\":1487:1496  msg.value */\n      callvalue\n        /* \"contracts/core/GVault.sol\":1487:1511  msg.value >= gilt.amount */\n      lt\n      iszero\n        /* \"contracts/core/GVault.sol\":1479:1552  require(msg.value >= gilt.amount, \" NATIVE token transmission mis-match\") */\n      tag_82\n      jumpi\n      mload(0x40)\n      shl(0xe5, 0x461bcd)\n      dup2\n      mstore\n        /* \"#utility.yul\":3739:3741   */\n      0x20\n        /* \"contracts/core/GVault.sol\":1479:1552  require(msg.value >= gilt.amount, \" NATIVE token transmission mis-match\") */\n      0x04\n      dup3\n      add\n        /* \"#utility.yul\":3721:3742   */\n      mstore\n        /* \"#utility.yul\":3778:3780   */\n      0x24\n        /* \"#utility.yul\":3758:3776   */\n      dup1\n      dup3\n      add\n        /* \"#utility.yul\":3751:3781   */\n      mstore\n        /* \"#utility.yul\":3817:3851   */\n      0x204e415449564520746f6b656e207472616e736d697373696f6e206d69732d6d\n        /* \"#utility.yul\":3797:3815   */\n      0x44\n      dup3\n      add\n        /* \"#utility.yul\":3790:3852   */\n      mstore\n      shl(0xe3, 0x0c2e8c6d)\n        /* \"#utility.yul\":3868:3886   */\n      0x64\n      dup3\n      add\n        /* \"#utility.yul\":3861:3895   */\n      mstore\n        /* \"#utility.yul\":3912:3931   */\n      0x84\n      add\n        /* \"contracts/core/GVault.sol\":1479:1552  require(msg.value >= gilt.amount, \" NATIVE token transmission mis-match\") */\n      tag_62\n        /* \"#utility.yul\":3537:3937   */\n      jump\n        /* \"contracts/core/GVault.sol\":1479:1552  require(msg.value >= gilt.amount, \" NATIVE token transmission mis-match\") */\n    tag_82:\n        /* \"contracts/core/GVault.sol\":1439:1668  if(gilt.erc20 == NATIVE) {... */\n      jump(tag_85)\n    tag_81:\n        /* \"contracts/core/GVault.sol\":1601:1605  gilt */\n      0x00\n        /* \"contracts/core/GVault.sol\":1601:1611  gilt.erc20 */\n      sload\n      0x01\n        /* \"contracts/core/GVault.sol\":1644:1655  gilt.amount */\n      sload\n        /* \"contracts/core/GVault.sol\":1594:1656  IERC20(gilt.erc20).transferFrom(msg.sender, self, gilt.amount) */\n      mload(0x40)\n      shl(0xe0, 0x23b872dd)\n      dup2\n      mstore\n        /* \"contracts/core/GVault.sol\":1626:1636  msg.sender */\n      caller\n        /* \"contracts/core/GVault.sol\":1594:1656  IERC20(gilt.erc20).transferFrom(msg.sender, self, gilt.amount) */\n      0x04\n      dup3\n      add\n        /* \"#utility.yul\":4182:4216   */\n      mstore\n      sub(shl(0xa0, 0x01), 0x01)\n        /* \"contracts/core/GVault.sol\":1638:1642  self */\n      immutable(\"0x2e5129c19be59da29ff89133759e8d7e21d926bf22eda9cdfd27c0cd8774b8c2\")\n        /* \"#utility.yul\":4252:4267   */\n      dup2\n      and\n        /* \"#utility.yul\":4232:4250   */\n      0x24\n      dup4\n      add\n        /* \"#utility.yul\":4225:4268   */\n      mstore\n        /* \"#utility.yul\":4284:4302   */\n      0x44\n      dup3\n      add\n        /* \"#utility.yul\":4277:4311   */\n      swap3\n      swap1\n      swap3\n      mstore\n        /* \"contracts/core/GVault.sol\":1601:1611  gilt.erc20 */\n      swap2\n      and\n      swap1\n        /* \"contracts/core/GVault.sol\":1594:1625  IERC20(gilt.erc20).transferFrom */\n      0x23b872dd\n      swap1\n        /* \"#utility.yul\":4117:4135   */\n      0x64\n      add\n        /* \"contracts/core/GVault.sol\":1594:1656  IERC20(gilt.erc20).transferFrom(msg.sender, self, gilt.amount) */\n      0x20\n      mload(0x40)\n      dup1\n      dup4\n      sub\n      dup2\n      0x00\n      dup8\n      gas\n      call\n      iszero\n      dup1\n      iszero\n      tag_89\n      jumpi\n      returndatasize\n      0x00\n      dup1\n      returndatacopy\n      revert(0x00, returndatasize)\n    tag_89:\n      pop\n      pop\n      pop\n      pop\n      mload(0x40)\n      returndatasize\n      not(0x1f)\n      0x1f\n      dup3\n      add\n      and\n      dup3\n      add\n      dup1\n      0x40\n      mstore\n      pop\n      dup2\n      add\n      swap1\n      tag_90\n      swap2\n      swap1\n      tag_76\n      jump\t// in\n    tag_90:\n      pop\n        /* \"contracts/core/GVault.sol\":1439:1668  if(gilt.erc20 == NATIVE) {... */\n    tag_85:\n      pop\n        /* \"contracts/core/GVault.sol\":1685:1689  true */\n      0x01\n      swap1\n        /* \"contracts/core/GVault.sol\":1290:1698  function storeFunds() external payable returns (bool _stored){... */\n      jump\t// out\n        /* \"contracts/core/GVault.sol\":954:1045  function getGilt() view external returns (Gilt memory _gilt){... */\n    tag_49:\n        /* \"contracts/core/GVault.sol\":996:1013  Gilt memory _gilt */\n      tag_94\n      mload(0x40)\n      dup1\n      0xc0\n      add\n      0x40\n      mstore\n      dup1\n      and(sub(shl(0xa0, 0x01), 0x01), 0x00)\n      dup2\n      mstore\n      0x20\n      add\n      0x00\n      dup2\n      mstore\n      0x20\n      add\n      0x00\n      dup2\n      mstore\n      0x20\n      add\n      0x00\n      dup2\n      mstore\n      0x20\n      add\n      and(sub(shl(0xa0, 0x01), 0x01), 0x00)\n      dup2\n      mstore\n      0x20\n      add\n      0x00\n      dup2\n      mstore\n      pop\n      swap1\n      jump\n    tag_94:\n      pop\n        /* \"contracts/core/GVault.sol\":1025:1036  return gilt */\n      0x40\n      dup1\n      mload\n      0xc0\n      dup2\n      add\n      dup3\n      mstore\n        /* \"contracts/core/GVault.sol\":1032:1036  gilt */\n      0x00\n        /* \"contracts/core/GVault.sol\":1025:1036  return gilt */\n      sload\n      sub(shl(0xa0, 0x01), 0x01)\n      swap1\n      dup2\n      and\n      dup3\n      mstore\n      sload(0x01)\n      0x20\n      dup4\n      add\n      mstore\n      sload(0x02)\n      swap3\n      dup3\n      add\n      swap3\n      swap1\n      swap3\n      mstore\n      sload(0x03)\n      0x60\n      dup3\n      add\n      mstore\n      sload(0x04)\n      swap1\n      swap2\n      and\n      0x80\n      dup3\n      add\n      mstore\n      sload(0x05)\n      0xa0\n      dup3\n      add\n      mstore\n      swap1\n        /* \"contracts/core/GVault.sol\":954:1045  function getGilt() view external returns (Gilt memory _gilt){... */\n      jump\t// out\n        /* \"#utility.yul\":196:744   */\n    tag_21:\n        /* \"#utility.yul\":308:312   */\n      0x00\n        /* \"#utility.yul\":337:339   */\n      0x20\n        /* \"#utility.yul\":366:368   */\n      dup1\n        /* \"#utility.yul\":355:364   */\n      dup4\n        /* \"#utility.yul\":348:369   */\n      mstore\n        /* \"#utility.yul\":398:404   */\n      dup4\n        /* \"#utility.yul\":392:405   */\n      mload\n        /* \"#utility.yul\":441:447   */\n      dup1\n        /* \"#utility.yul\":436:438   */\n      0x20\n        /* \"#utility.yul\":425:434   */\n      dup6\n        /* \"#utility.yul\":421:439   */\n      add\n        /* \"#utility.yul\":414:448   */\n      mstore\n        /* \"#utility.yul\":466:467   */\n      0x00\n        /* \"#utility.yul\":476:616   */\n    tag_100:\n        /* \"#utility.yul\":490:496   */\n      dup2\n        /* \"#utility.yul\":487:488   */\n      dup2\n        /* \"#utility.yul\":484:497   */\n      lt\n        /* \"#utility.yul\":476:616   */\n      iszero\n      tag_102\n      jumpi\n        /* \"#utility.yul\":585:599   */\n      dup6\n      dup2\n      add\n        /* \"#utility.yul\":581:604   */\n      dup4\n      add\n        /* \"#utility.yul\":575:605   */\n      mload\n        /* \"#utility.yul\":551:568   */\n      dup6\n      dup3\n      add\n        /* \"#utility.yul\":570:572   */\n      0x40\n        /* \"#utility.yul\":547:573   */\n      add\n        /* \"#utility.yul\":540:606   */\n      mstore\n        /* \"#utility.yul\":505:515   */\n      dup3\n      add\n        /* \"#utility.yul\":476:616   */\n      jump(tag_100)\n    tag_102:\n        /* \"#utility.yul\":480:483   */\n      pop\n        /* \"#utility.yul\":665:666   */\n      0x00\n        /* \"#utility.yul\":660:662   */\n      0x40\n        /* \"#utility.yul\":651:657   */\n      dup3\n        /* \"#utility.yul\":640:649   */\n      dup7\n        /* \"#utility.yul\":636:658   */\n      add\n        /* \"#utility.yul\":632:663   */\n      add\n        /* \"#utility.yul\":625:667   */\n      mstore\n        /* \"#utility.yul\":735:737   */\n      0x40\n        /* \"#utility.yul\":728:730   */\n      0x1f\n        /* \"#utility.yul\":724:731   */\n      not\n        /* \"#utility.yul\":719:721   */\n      0x1f\n        /* \"#utility.yul\":711:717   */\n      dup4\n        /* \"#utility.yul\":707:722   */\n      add\n        /* \"#utility.yul\":703:732   */\n      and\n        /* \"#utility.yul\":692:701   */\n      dup6\n        /* \"#utility.yul\":688:733   */\n      add\n        /* \"#utility.yul\":684:738   */\n      add\n        /* \"#utility.yul\":676:738   */\n      swap3\n      pop\n      pop\n      pop\n        /* \"#utility.yul\":196:744   */\n      swap3\n      swap2\n      pop\n      pop\n      jump\t// out\n        /* \"#utility.yul\":1752:1936   */\n    tag_59:\n        /* \"#utility.yul\":1822:1828   */\n      0x00\n        /* \"#utility.yul\":1875:1877   */\n      0x20\n        /* \"#utility.yul\":1863:1872   */\n      dup3\n        /* \"#utility.yul\":1854:1861   */\n      dup5\n        /* \"#utility.yul\":1850:1873   */\n      sub\n        /* \"#utility.yul\":1846:1878   */\n      slt\n        /* \"#utility.yul\":1843:1895   */\n      iszero\n      tag_107\n      jumpi\n        /* \"#utility.yul\":1891:1892   */\n      0x00\n        /* \"#utility.yul\":1888:1889   */\n      dup1\n        /* \"#utility.yul\":1881:1893   */\n      revert\n        /* \"#utility.yul\":1843:1895   */\n    tag_107:\n      pop\n        /* \"#utility.yul\":1914:1930   */\n      mload\n      swap2\n        /* \"#utility.yul\":1752:1936   */\n      swap1\n      pop\n      jump\t// out\n        /* \"#utility.yul\":2911:3188   */\n    tag_76:\n        /* \"#utility.yul\":2978:2984   */\n      0x00\n        /* \"#utility.yul\":3031:3033   */\n      0x20\n        /* \"#utility.yul\":3019:3028   */\n      dup3\n        /* \"#utility.yul\":3010:3017   */\n      dup5\n        /* \"#utility.yul\":3006:3029   */\n      sub\n        /* \"#utility.yul\":3002:3034   */\n      slt\n        /* \"#utility.yul\":2999:3051   */\n      iszero\n      tag_112\n      jumpi\n        /* \"#utility.yul\":3047:3048   */\n      0x00\n        /* \"#utility.yul\":3044:3045   */\n      dup1\n        /* \"#utility.yul\":3037:3049   */\n      revert\n        /* \"#utility.yul\":2999:3051   */\n    tag_112:\n        /* \"#utility.yul\":3079:3088   */\n      dup2\n        /* \"#utility.yul\":3073:3089   */\n      mload\n        /* \"#utility.yul\":3132:3137   */\n      dup1\n        /* \"#utility.yul\":3125:3138   */\n      iszero\n        /* \"#utility.yul\":3118:3139   */\n      iszero\n        /* \"#utility.yul\":3111:3116   */\n      dup2\n        /* \"#utility.yul\":3108:3140   */\n      eq\n        /* \"#utility.yul\":3098:3158   */\n      tag_113\n      jumpi\n        /* \"#utility.yul\":3154:3155   */\n      0x00\n        /* \"#utility.yul\":3151:3152   */\n      dup1\n        /* \"#utility.yul\":3144:3156   */\n      revert\n        /* \"#utility.yul\":3098:3158   */\n    tag_113:\n        /* \"#utility.yul\":3177:3182   */\n      swap4\n        /* \"#utility.yul\":2911:3188   */\n      swap3\n      pop\n      pop\n      pop\n      jump\t// out\n\n    auxdata: 0xa2646970667358221220c66906577fa62818c1c9ed37f1d1023679e5b60be6b6df674135a842b397c04564736f6c63430008170033\n}\n",
				"bytecode": {
					"linkReferences": {},
					"object": "60a06040526006805461ffff60a01b1916905534801561001e57600080fd5b506040516108eb3803806108eb83398101604081905261003d916100ca565b8051600080546001600160a01b039283166001600160a01b0319918216179091556020830151600155604083015160025560608301516003556080808401516004805491851691841691909117905560a090930151600555600680549490921693169290921790915530905261017f565b80516001600160a01b03811681146100c557600080fd5b919050565b60008082840360e08112156100de57600080fd5b6100e7846100ae565b925060c0601f19820112156100fb57600080fd5b5060405160c081016001600160401b038111828210171561012c57634e487b7160e01b600052604160045260246000fd5b60405261013b602085016100ae565b815260408401516020820152606084015160408201526080840151606082015261016760a085016100ae565b608082015260c0939093015160a08401525092909150565b6080516107436101a8600039600081816102110152818161036f015261056101526107436000f3fe6080604052600436106100865760003560e01c80637299cc83116100595780637299cc831461011e5780637af148c0146101265780638aa249831461014e578063932221fb1461016d57806397a8382b1461018c57600080fd5b80630d8e6e2c1461008b57806317d7de7c146100ae578063374cc890146100e457806369d89575146100f9575b600080fd5b34801561009757600080fd5b5060025b6040519081526020015b60405180910390f35b3480156100ba57600080fd5b50604080518082018252600781526611d7d59055531560ca1b602082015290516100a5919061067c565b3480156100f057600080fd5b5061009b6101f6565b34801561010557600080fd5b5061010e61028a565b60405190151581526020016100a5565b61010e610450565b34801561013257600080fd5b506000546040516001600160a01b0390911681526020016100a5565b34801561015a57600080fd5b50600654600160a01b900460ff1661010e565b34801561017957600080fd5b50600654600160a81b900460ff1661010e565b34801561019857600080fd5b506101a16105e6565b6040516100a5919081516001600160a01b0390811682526020808401519083015260408084015190830152606080840151908301526080808401519091169082015260a0918201519181019190915260c00190565b600080546040516370a0823160e01b81526001600160a01b037f000000000000000000000000000000000000000000000000000000000000000081166004830152909116906370a0823190602401602060405180830381865afa158015610261573d6000803e3d6000fd5b505050506040513d601f19601f8201168201806040525081019061028591906106cb565b905090565b600654600090600160a81b900460ff166102e15760405162461bcd60e51b81526020600482015260136024820152721d985d5b1d081b9bdd0818dbdb5b5a5d1d1959606a1b60448201526064015b60405180910390fd5b600654600160a01b900460ff161561032c5760405162461bcd60e51b815260206004820152600e60248201526d1d985d5b1d08195e1c195b99195960921b60448201526064016102d8565b60068054600160a01b60ff60a01b199091161790556000546001600160a01b031673eeeeeeeeeeeeeeeeeeeeeeeeeeeeeeeeeeeeeeed19016103c45760405133907f00000000000000000000000000000000000000000000000000000000000000006001600160a01b03163180156108fc02916000818181858888f193505050501580156103be573d6000803e3d6000fd5b5061043f565b60005460015460405163095ea7b360e01b815233600482015260248101919091526001600160a01b039091169063095ea7b3906044016020604051808303816000875af1158015610419573d6000803e3d6000fd5b505050506040513d601f19601f8201168201806040525081019061043d91906106e4565b505b50600654600160a01b900460ff1690565b600654600090600160a81b900460ff161561049f5760405162461bcd60e51b815260206004820152600f60248201526e1d985d5b1d0818dbdb5b5a5d1d1959608a1b60448201526064016102d8565b60068054600160a81b60ff60a81b199091161790556000546001600160a01b031673eeeeeeeeeeeeeeeeeeeeeeeeeeeeeeeeeeeeeeed190161053e576001543410156105395760405162461bcd60e51b8152602060048201526024808201527f204e415449564520746f6b656e207472616e736d697373696f6e206d69732d6d6044820152630c2e8c6d60e31b60648201526084016102d8565b6105e0565b6000546001546040516323b872dd60e01b81523360048201526001600160a01b037f00000000000000000000000000000000000000000000000000000000000000008116602483015260448201929092529116906323b872dd906064016020604051808303816000875af11580156105ba573d6000803e3d6000fd5b505050506040513d601f19601f820116820180604052508101906105de91906106e4565b505b50600190565b6106316040518060c0016040528060006001600160a01b0316815260200160008152602001600081526020016000815260200160006001600160a01b03168152602001600081525090565b506040805160c0810182526000546001600160a01b0390811682526001546020830152600254928201929092526003546060820152600454909116608082015260055460a082015290565b60006020808352835180602085015260005b818110156106aa5785810183015185820160400152820161068e565b506000604082860101526040601f19601f8301168501019250505092915050565b6000602082840312156106dd57600080fd5b5051919050565b6000602082840312156106f657600080fd5b8151801515811461070657600080fd5b939250505056fea2646970667358221220c66906577fa62818c1c9ed37f1d1023679e5b60be6b6df674135a842b397c04564736f6c63430008170033",
					"opcodes": "PUSH1 0xA0 PUSH1 0x40 MSTORE PUSH1 0x6 DUP1 SLOAD PUSH2 0xFFFF PUSH1 0xA0 SHL NOT AND SWAP1 SSTORE CALLVALUE DUP1 ISZERO PUSH2 0x1E JUMPI PUSH1 0x0 DUP1 REVERT JUMPDEST POP PUSH1 0x40 MLOAD PUSH2 0x8EB CODESIZE SUB DUP1 PUSH2 0x8EB DUP4 CODECOPY DUP2 ADD PUSH1 0x40 DUP2 SWAP1 MSTORE PUSH2 0x3D SWAP2 PUSH2 0xCA JUMP JUMPDEST DUP1 MLOAD PUSH1 0x0 DUP1 SLOAD PUSH1 0x1 PUSH1 0x1 PUSH1 0xA0 SHL SUB SWAP3 DUP4 AND PUSH1 0x1 PUSH1 0x1 PUSH1 0xA0 SHL SUB NOT SWAP2 DUP3 AND OR SWAP1 SWAP2 SSTORE PUSH1 0x20 DUP4 ADD MLOAD PUSH1 0x1 SSTORE PUSH1 0x40 DUP4 ADD MLOAD PUSH1 0x2 SSTORE PUSH1 0x60 DUP4 ADD MLOAD PUSH1 0x3 SSTORE PUSH1 0x80 DUP1 DUP5 ADD MLOAD PUSH1 0x4 DUP1 SLOAD SWAP2 DUP6 AND SWAP2 DUP5 AND SWAP2 SWAP1 SWAP2 OR SWAP1 SSTORE PUSH1 0xA0 SWAP1 SWAP4 ADD MLOAD PUSH1 0x5 SSTORE PUSH1 0x6 DUP1 SLOAD SWAP5 SWAP1 SWAP3 AND SWAP4 AND SWAP3 SWAP1 SWAP3 OR SWAP1 SWAP2 SSTORE ADDRESS SWAP1 MSTORE PUSH2 0x17F JUMP JUMPDEST DUP1 MLOAD PUSH1 0x1 PUSH1 0x1 PUSH1 0xA0 SHL SUB DUP2 AND DUP2 EQ PUSH2 0xC5 JUMPI PUSH1 0x0 DUP1 REVERT JUMPDEST SWAP2 SWAP1 POP JUMP JUMPDEST PUSH1 0x0 DUP1 DUP3 DUP5 SUB PUSH1 0xE0 DUP2 SLT ISZERO PUSH2 0xDE JUMPI PUSH1 0x0 DUP1 REVERT JUMPDEST PUSH2 0xE7 DUP5 PUSH2 0xAE JUMP JUMPDEST SWAP3 POP PUSH1 0xC0 PUSH1 0x1F NOT DUP3 ADD SLT ISZERO PUSH2 0xFB JUMPI PUSH1 0x0 DUP1 REVERT JUMPDEST POP PUSH1 0x40 MLOAD PUSH1 0xC0 DUP2 ADD PUSH1 0x1 PUSH1 0x1 PUSH1 0x40 SHL SUB DUP2 GT DUP3 DUP3 LT OR ISZERO PUSH2 0x12C JUMPI PUSH4 0x4E487B71 PUSH1 0xE0 SHL PUSH1 0x0 MSTORE PUSH1 0x41 PUSH1 0x4 MSTORE PUSH1 0x24 PUSH1 0x0 REVERT JUMPDEST PUSH1 0x40 MSTORE PUSH2 0x13B PUSH1 0x20 DUP6 ADD PUSH2 0xAE JUMP JUMPDEST DUP2 MSTORE PUSH1 0x40 DUP5 ADD MLOAD PUSH1 0x20 DUP3 ADD MSTORE PUSH1 0x60 DUP5 ADD MLOAD PUSH1 0x40 DUP3 ADD MSTORE PUSH1 0x80 DUP5 ADD MLOAD PUSH1 0x60 DUP3 ADD MSTORE PUSH2 0x167 PUSH1 0xA0 DUP6 ADD PUSH2 0xAE JUMP JUMPDEST PUSH1 0x80 DUP3 ADD MSTORE PUSH1 0xC0 SWAP4 SWAP1 SWAP4 ADD MLOAD PUSH1 0xA0 DUP5 ADD MSTORE POP SWAP3 SWAP1 SWAP2 POP JUMP JUMPDEST PUSH1 0x80 MLOAD PUSH2 0x743 PUSH2 0x1A8 PUSH1 0x0 CODECOPY PUSH1 0x0 DUP2 DUP2 PUSH2 0x211 ADD MSTORE DUP2 DUP2 PUSH2 0x36F ADD MSTORE PUSH2 0x561 ADD MSTORE PUSH2 0x743 PUSH1 0x0 RETURN INVALID PUSH1 0x80 PUSH1 0x40 MSTORE PUSH1 0x4 CALLDATASIZE LT PUSH2 0x86 JUMPI PUSH1 0x0 CALLDATALOAD PUSH1 0xE0 SHR DUP1 PUSH4 0x7299CC83 GT PUSH2 0x59 JUMPI DUP1 PUSH4 0x7299CC83 EQ PUSH2 0x11E JUMPI DUP1 PUSH4 0x7AF148C0 EQ PUSH2 0x126 JUMPI DUP1 PUSH4 0x8AA24983 EQ PUSH2 0x14E JUMPI DUP1 PUSH4 0x932221FB EQ PUSH2 0x16D JUMPI DUP1 PUSH4 0x97A8382B EQ PUSH2 0x18C JUMPI PUSH1 0x0 DUP1 REVERT JUMPDEST DUP1 PUSH4 0xD8E6E2C EQ PUSH2 0x8B JUMPI DUP1 PUSH4 0x17D7DE7C EQ PUSH2 0xAE JUMPI DUP1 PUSH4 0x374CC890 EQ PUSH2 0xE4 JUMPI DUP1 PUSH4 0x69D89575 EQ PUSH2 0xF9 JUMPI JUMPDEST PUSH1 0x0 DUP1 REVERT JUMPDEST CALLVALUE DUP1 ISZERO PUSH2 0x97 JUMPI PUSH1 0x0 DUP1 REVERT JUMPDEST POP PUSH1 0x2 JUMPDEST PUSH1 0x40 MLOAD SWAP1 DUP2 MSTORE PUSH1 0x20 ADD JUMPDEST PUSH1 0x40 MLOAD DUP1 SWAP2 SUB SWAP1 RETURN JUMPDEST CALLVALUE DUP1 ISZERO PUSH2 0xBA JUMPI PUSH1 0x0 DUP1 REVERT JUMPDEST POP PUSH1 0x40 DUP1 MLOAD DUP1 DUP3 ADD DUP3 MSTORE PUSH1 0x7 DUP2 MSTORE PUSH7 0x11D7D590555315 PUSH1 0xCA SHL PUSH1 0x20 DUP3 ADD MSTORE SWAP1 MLOAD PUSH2 0xA5 SWAP2 SWAP1 PUSH2 0x67C JUMP JUMPDEST CALLVALUE DUP1 ISZERO PUSH2 0xF0 JUMPI PUSH1 0x0 DUP1 REVERT JUMPDEST POP PUSH2 0x9B PUSH2 0x1F6 JUMP JUMPDEST CALLVALUE DUP1 ISZERO PUSH2 0x105 JUMPI PUSH1 0x0 DUP1 REVERT JUMPDEST POP PUSH2 0x10E PUSH2 0x28A JUMP JUMPDEST PUSH1 0x40 MLOAD SWAP1 ISZERO ISZERO DUP2 MSTORE PUSH1 0x20 ADD PUSH2 0xA5 JUMP JUMPDEST PUSH2 0x10E PUSH2 0x450 JUMP JUMPDEST CALLVALUE DUP1 ISZERO PUSH2 0x132 JUMPI PUSH1 0x0 DUP1 REVERT JUMPDEST POP PUSH1 0x0 SLOAD PUSH1 0x40 MLOAD PUSH1 0x1 PUSH1 0x1 PUSH1 0xA0 SHL SUB SWAP1 SWAP2 AND DUP2 MSTORE PUSH1 0x20 ADD PUSH2 0xA5 JUMP JUMPDEST CALLVALUE DUP1 ISZERO PUSH2 0x15A JUMPI PUSH1 0x0 DUP1 REVERT JUMPDEST POP PUSH1 0x6 SLOAD PUSH1 0x1 PUSH1 0xA0 SHL SWAP1 DIV PUSH1 0xFF AND PUSH2 0x10E JUMP JUMPDEST CALLVALUE DUP1 ISZERO PUSH2 0x179 JUMPI PUSH1 0x0 DUP1 REVERT JUMPDEST POP PUSH1 0x6 SLOAD PUSH1 0x1 PUSH1 0xA8 SHL SWAP1 DIV PUSH1 0xFF AND PUSH2 0x10E JUMP JUMPDEST CALLVALUE DUP1 ISZERO PUSH2 0x198 JUMPI PUSH1 0x0 DUP1 REVERT JUMPDEST POP PUSH2 0x1A1 PUSH2 0x5E6 JUMP JUMPDEST PUSH1 0x40 MLOAD PUSH2 0xA5 SWAP2 SWAP1 DUP2 MLOAD PUSH1 0x1 PUSH1 0x1 PUSH1 0xA0 SHL SUB SWAP1 DUP2 AND DUP3 MSTORE PUSH1 0x20 DUP1 DUP5 ADD MLOAD SWAP1 DUP4 ADD MSTORE PUSH1 0x40 DUP1 DUP5 ADD MLOAD SWAP1 DUP4 ADD MSTORE PUSH1 0x60 DUP1 DUP5 ADD MLOAD SWAP1 DUP4 ADD MSTORE PUSH1 0x80 DUP1 DUP5 ADD MLOAD SWAP1 SWAP2 AND SWAP1 DUP3 ADD MSTORE PUSH1 0xA0 SWAP2 DUP3 ADD MLOAD SWAP2 DUP2 ADD SWAP2 SWAP1 SWAP2 MSTORE PUSH1 0xC0 ADD SWAP1 JUMP JUMPDEST PUSH1 0x0 DUP1 SLOAD PUSH1 0x40 MLOAD PUSH4 0x70A08231 PUSH1 0xE0 SHL DUP2 MSTORE PUSH1 0x1 PUSH1 0x1 PUSH1 0xA0 SHL SUB PUSH32 0x0 DUP2 AND PUSH1 0x4 DUP4 ADD MSTORE SWAP1 SWAP2 AND SWAP1 PUSH4 0x70A08231 SWAP1 PUSH1 0x24 ADD PUSH1 0x20 PUSH1 0x40 MLOAD DUP1 DUP4 SUB DUP2 DUP7 GAS STATICCALL ISZERO DUP1 ISZERO PUSH2 0x261 JUMPI RETURNDATASIZE PUSH1 0x0 DUP1 RETURNDATACOPY RETURNDATASIZE PUSH1 0x0 REVERT JUMPDEST POP POP POP POP PUSH1 0x40 MLOAD RETURNDATASIZE PUSH1 0x1F NOT PUSH1 0x1F DUP3 ADD AND DUP3 ADD DUP1 PUSH1 0x40 MSTORE POP DUP2 ADD SWAP1 PUSH2 0x285 SWAP2 SWAP1 PUSH2 0x6CB JUMP JUMPDEST SWAP1 POP SWAP1 JUMP JUMPDEST PUSH1 0x6 SLOAD PUSH1 0x0 SWAP1 PUSH1 0x1 PUSH1 0xA8 SHL SWAP1 DIV PUSH1 0xFF AND PUSH2 0x2E1 JUMPI PUSH1 0x40 MLOAD PUSH3 0x461BCD PUSH1 0xE5 SHL DUP2 MSTORE PUSH1 0x20 PUSH1 0x4 DUP3 ADD MSTORE PUSH1 0x13 PUSH1 0x24 DUP3 ADD MSTORE PUSH19 0x1D985D5B1D081B9BDD0818DBDB5B5A5D1D1959 PUSH1 0x6A SHL PUSH1 0x44 DUP3 ADD MSTORE PUSH1 0x64 ADD JUMPDEST PUSH1 0x40 MLOAD DUP1 SWAP2 SUB SWAP1 REVERT JUMPDEST PUSH1 0x6 SLOAD PUSH1 0x1 PUSH1 0xA0 SHL SWAP1 DIV PUSH1 0xFF AND ISZERO PUSH2 0x32C JUMPI PUSH1 0x40 MLOAD PUSH3 0x461BCD PUSH1 0xE5 SHL DUP2 MSTORE PUSH1 0x20 PUSH1 0x4 DUP3 ADD MSTORE PUSH1 0xE PUSH1 0x24 DUP3 ADD MSTORE PUSH14 0x1D985D5B1D08195E1C195B991959 PUSH1 0x92 SHL PUSH1 0x44 DUP3 ADD MSTORE PUSH1 0x64 ADD PUSH2 0x2D8 JUMP JUMPDEST PUSH1 0x6 DUP1 SLOAD PUSH1 0x1 PUSH1 0xA0 SHL PUSH1 0xFF PUSH1 0xA0 SHL NOT SWAP1 SWAP2 AND OR SWAP1 SSTORE PUSH1 0x0 SLOAD PUSH1 0x1 PUSH1 0x1 PUSH1 0xA0 SHL SUB AND PUSH20 0xEEEEEEEEEEEEEEEEEEEEEEEEEEEEEEEEEEEEEEED NOT ADD PUSH2 0x3C4 JUMPI PUSH1 0x40 MLOAD CALLER SWAP1 PUSH32 0x0 PUSH1 0x1 PUSH1 0x1 PUSH1 0xA0 SHL SUB AND BALANCE DUP1 ISZERO PUSH2 0x8FC MUL SWAP2 PUSH1 0x0 DUP2 DUP2 DUP2 DUP6 DUP9 DUP9 CALL SWAP4 POP POP POP POP ISZERO DUP1 ISZERO PUSH2 0x3BE JUMPI RETURNDATASIZE PUSH1 0x0 DUP1 RETURNDATACOPY RETURNDATASIZE PUSH1 0x0 REVERT JUMPDEST POP PUSH2 0x43F JUMP JUMPDEST PUSH1 0x0 SLOAD PUSH1 0x1 SLOAD PUSH1 0x40 MLOAD PUSH4 0x95EA7B3 PUSH1 0xE0 SHL DUP2 MSTORE CALLER PUSH1 0x4 DUP3 ADD MSTORE PUSH1 0x24 DUP2 ADD SWAP2 SWAP1 SWAP2 MSTORE PUSH1 0x1 PUSH1 0x1 PUSH1 0xA0 SHL SUB SWAP1 SWAP2 AND SWAP1 PUSH4 0x95EA7B3 SWAP1 PUSH1 0x44 ADD PUSH1 0x20 PUSH1 0x40 MLOAD DUP1 DUP4 SUB DUP2 PUSH1 0x0 DUP8 GAS CALL ISZERO DUP1 ISZERO PUSH2 0x419 JUMPI RETURNDATASIZE PUSH1 0x0 DUP1 RETURNDATACOPY RETURNDATASIZE PUSH1 0x0 REVERT JUMPDEST POP POP POP POP PUSH1 0x40 MLOAD RETURNDATASIZE PUSH1 0x1F NOT PUSH1 0x1F DUP3 ADD AND DUP3 ADD DUP1 PUSH1 0x40 MSTORE POP DUP2 ADD SWAP1 PUSH2 0x43D SWAP2 SWAP1 PUSH2 0x6E4 JUMP JUMPDEST POP JUMPDEST POP PUSH1 0x6 SLOAD PUSH1 0x1 PUSH1 0xA0 SHL SWAP1 DIV PUSH1 0xFF AND SWAP1 JUMP JUMPDEST PUSH1 0x6 SLOAD PUSH1 0x0 SWAP1 PUSH1 0x1 PUSH1 0xA8 SHL SWAP1 DIV PUSH1 0xFF AND ISZERO PUSH2 0x49F JUMPI PUSH1 0x40 MLOAD PUSH3 0x461BCD PUSH1 0xE5 SHL DUP2 MSTORE PUSH1 0x20 PUSH1 0x4 DUP3 ADD MSTORE PUSH1 0xF PUSH1 0x24 DUP3 ADD MSTORE PUSH15 0x1D985D5B1D0818DBDB5B5A5D1D1959 PUSH1 0x8A SHL PUSH1 0x44 DUP3 ADD MSTORE PUSH1 0x64 ADD PUSH2 0x2D8 JUMP JUMPDEST PUSH1 0x6 DUP1 SLOAD PUSH1 0x1 PUSH1 0xA8 SHL PUSH1 0xFF PUSH1 0xA8 SHL NOT SWAP1 SWAP2 AND OR SWAP1 SSTORE PUSH1 0x0 SLOAD PUSH1 0x1 PUSH1 0x1 PUSH1 0xA0 SHL SUB AND PUSH20 0xEEEEEEEEEEEEEEEEEEEEEEEEEEEEEEEEEEEEEEED NOT ADD PUSH2 0x53E JUMPI PUSH1 0x1 SLOAD CALLVALUE LT ISZERO PUSH2 0x539 JUMPI PUSH1 0x40 MLOAD PUSH3 0x461BCD PUSH1 0xE5 SHL DUP2 MSTORE PUSH1 0x20 PUSH1 0x4 DUP3 ADD MSTORE PUSH1 0x24 DUP1 DUP3 ADD MSTORE PUSH32 0x204E415449564520746F6B656E207472616E736D697373696F6E206D69732D6D PUSH1 0x44 DUP3 ADD MSTORE PUSH4 0xC2E8C6D PUSH1 0xE3 SHL PUSH1 0x64 DUP3 ADD MSTORE PUSH1 0x84 ADD PUSH2 0x2D8 JUMP JUMPDEST PUSH2 0x5E0 JUMP JUMPDEST PUSH1 0x0 SLOAD PUSH1 0x1 SLOAD PUSH1 0x40 MLOAD PUSH4 0x23B872DD PUSH1 0xE0 SHL DUP2 MSTORE CALLER PUSH1 0x4 DUP3 ADD MSTORE PUSH1 0x1 PUSH1 0x1 PUSH1 0xA0 SHL SUB PUSH32 0x0 DUP2 AND PUSH1 0x24 DUP4 ADD MSTORE PUSH1 0x44 DUP3 ADD SWAP3 SWAP1 SWAP3 MSTORE SWAP2 AND SWAP1 PUSH4 0x23B872DD SWAP1 PUSH1 0x64 ADD PUSH1 0x20 PUSH1 0x40 MLOAD DUP1 DUP4 SUB DUP2 PUSH1 0x0 DUP8 GAS CALL ISZERO DUP1 ISZERO PUSH2 0x5BA JUMPI RETURNDATASIZE PUSH1 0x0 DUP1 RETURNDATACOPY RETURNDATASIZE PUSH1 0x0 REVERT JUMPDEST POP POP POP POP PUSH1 0x40 MLOAD RETURNDATASIZE PUSH1 0x1F NOT PUSH1 0x1F DUP3 ADD AND DUP3 ADD DUP1 PUSH1 0x40 MSTORE POP DUP2 ADD SWAP1 PUSH2 0x5DE SWAP2 SWAP1 PUSH2 0x6E4 JUMP JUMPDEST POP JUMPDEST POP PUSH1 0x1 SWAP1 JUMP JUMPDEST PUSH2 0x631 PUSH1 0x40 MLOAD DUP1 PUSH1 0xC0 ADD PUSH1 0x40 MSTORE DUP1 PUSH1 0x0 PUSH1 0x1 PUSH1 0x1 PUSH1 0xA0 SHL SUB AND DUP2 MSTORE PUSH1 0x20 ADD PUSH1 0x0 DUP2 MSTORE PUSH1 0x20 ADD PUSH1 0x0 DUP2 MSTORE PUSH1 0x20 ADD PUSH1 0x0 DUP2 MSTORE PUSH1 0x20 ADD PUSH1 0x0 PUSH1 0x1 PUSH1 0x1 PUSH1 0xA0 SHL SUB AND DUP2 MSTORE PUSH1 0x20 ADD PUSH1 0x0 DUP2 MSTORE POP SWAP1 JUMP JUMPDEST POP PUSH1 0x40 DUP1 MLOAD PUSH1 0xC0 DUP2 ADD DUP3 MSTORE PUSH1 0x0 SLOAD PUSH1 0x1 PUSH1 0x1 PUSH1 0xA0 SHL SUB SWAP1 DUP2 AND DUP3 MSTORE PUSH1 0x1 SLOAD PUSH1 0x20 DUP4 ADD MSTORE PUSH1 0x2 SLOAD SWAP3 DUP3 ADD SWAP3 SWAP1 SWAP3 MSTORE PUSH1 0x3 SLOAD PUSH1 0x60 DUP3 ADD MSTORE PUSH1 0x4 SLOAD SWAP1 SWAP2 AND PUSH1 0x80 DUP3 ADD MSTORE PUSH1 0x5 SLOAD PUSH1 0xA0 DUP3 ADD MSTORE SWAP1 JUMP JUMPDEST PUSH1 0x0 PUSH1 0x20 DUP1 DUP4 MSTORE DUP4 MLOAD DUP1 PUSH1 0x20 DUP6 ADD MSTORE PUSH1 0x0 JUMPDEST DUP2 DUP2 LT ISZERO PUSH2 0x6AA JUMPI DUP6 DUP2 ADD DUP4 ADD MLOAD DUP6 DUP3 ADD PUSH1 0x40 ADD MSTORE DUP3 ADD PUSH2 0x68E JUMP JUMPDEST POP PUSH1 0x0 PUSH1 0x40 DUP3 DUP7 ADD ADD MSTORE PUSH1 0x40 PUSH1 0x1F NOT PUSH1 0x1F DUP4 ADD AND DUP6 ADD ADD SWAP3 POP POP POP SWAP3 SWAP2 POP POP JUMP JUMPDEST PUSH1 0x0 PUSH1 0x20 DUP3 DUP5 SUB SLT ISZERO PUSH2 0x6DD JUMPI PUSH1 0x0 DUP1 REVERT JUMPDEST POP MLOAD SWAP2 SWAP1 POP JUMP JUMPDEST PUSH1 0x0 PUSH1 0x20 DUP3 DUP5 SUB SLT ISZERO PUSH2 0x6F6 JUMPI PUSH1 0x0 DUP1 REVERT JUMPDEST DUP2 MLOAD DUP1 ISZERO ISZERO DUP2 EQ PUSH2 0x706 JUMPI PUSH1 0x0 DUP1 REVERT JUMPDEST SWAP4 SWAP3 POP POP POP JUMP INVALID LOG2 PUSH5 0x6970667358 0x22 SLT KECCAK256 0xC6 PUSH10 0x6577FA62818C1C9ED37 CALL 0xD1 MUL CALLDATASIZE PUSH26 0xE5B60BE6B6DF674135A842B397C04564736F6C63430008170033 "
				},
				"gasEstimates": {
					"creation": {
						"codeDepositCost": "371800",
						"executionCost": "infinite",
						"totalCost": "infinite"
					},
					"external": {
						"getAmountStored()": "infinite",
						"getErc20()": "2323",
						"getGilt()": "13445",
						"getName()": "infinite",
						"getVersion()": "171",
						"isCommitted()": "2387",
						"isExpended()": "2365",
						"releaseFunds()": "infinite",
						"storeFunds()": "infinite"
					}
				},
				"methodIdentifiers": {
					"getAmountStored()": "374cc890",
					"getErc20()": "7af148c0",
					"getGilt()": "97a8382b",
					"getName()": "17d7de7c",
					"getVersion()": "0d8e6e2c",
					"isCommitted()": "932221fb",
					"isExpended()": "8aa24983",
					"releaseFunds()": "69d89575",
					"storeFunds()": "7299cc83"
				}
			},
			"storageLayout": {
				"storage": [
					{
						"astId": 99,
						"contract": "contracts/core/GVault.sol:GVault",
						"label": "gilt",
						"offset": 0,
						"slot": "0",
						"type": "t_struct(Gilt)383_storage"
					},
					{
						"astId": 102,
						"contract": "contracts/core/GVault.sol:GVault",
						"label": "register",
						"offset": 0,
						"slot": "6",
						"type": "t_contract(IMRegister)366"
					},
					{
						"astId": 107,
						"contract": "contracts/core/GVault.sol:GVault",
						"label": "expended",
						"offset": 20,
						"slot": "6",
						"type": "t_bool"
					},
					{
						"astId": 110,
						"contract": "contracts/core/GVault.sol:GVault",
						"label": "committed",
						"offset": 21,
						"slot": "6",
						"type": "t_bool"
					}
				],
				"types": {
					"t_address": {
						"encoding": "inplace",
						"label": "address",
						"numberOfBytes": "20"
					},
					"t_bool": {
						"encoding": "inplace",
						"label": "bool",
						"numberOfBytes": "1"
					},
					"t_contract(IMRegister)366": {
						"encoding": "inplace",
						"label": "contract IMRegister",
						"numberOfBytes": "20"
					},
					"t_struct(Gilt)383_storage": {
						"encoding": "inplace",
						"label": "struct Gilt",
						"members": [
							{
								"astId": 372,
								"contract": "contracts/core/GVault.sol:GVault",
								"label": "erc20",
								"offset": 0,
								"slot": "0",
								"type": "t_address"
							},
							{
								"astId": 374,
								"contract": "contracts/core/GVault.sol:GVault",
								"label": "amount",
								"offset": 0,
								"slot": "1",
								"type": "t_uint256"
							},
							{
								"astId": 376,
								"contract": "contracts/core/GVault.sol:GVault",
								"label": "creationDate",
								"offset": 0,
								"slot": "2",
								"type": "t_uint256"
							},
							{
								"astId": 378,
								"contract": "contracts/core/GVault.sol:GVault",
								"label": "chainId",
								"offset": 0,
								"slot": "3",
								"type": "t_uint256"
							},
							{
								"astId": 380,
								"contract": "contracts/core/GVault.sol:GVault",
								"label": "giltContract",
								"offset": 0,
								"slot": "4",
								"type": "t_address"
							},
							{
								"astId": 382,
								"contract": "contracts/core/GVault.sol:GVault",
								"label": "id",
								"offset": 0,
								"slot": "5",
								"type": "t_uint256"
							}
						],
						"numberOfBytes": "192"
					},
					"t_uint256": {
						"encoding": "inplace",
						"label": "uint256",
						"numberOfBytes": "32"
					}
				}
			},
			"userdoc": {
				"kind": "user",
				"methods": {},
				"version": 1
			}
		}
	}
}