{
	"contracts/core/MRegister.sol": {
		"MRegister": {
			"abi": [
				{
					"inputs": [
						{
							"internalType": "address",
							"name": "_admin",
							"type": "address"
						},
						{
							"internalType": "uint256",
							"name": "_chainId",
							"type": "uint256"
						}
					],
					"stateMutability": "nonpayable",
					"type": "constructor"
				},
				{
					"inputs": [
						{
							"internalType": "string",
							"name": "_name",
							"type": "string"
						},
						{
							"internalType": "address",
							"name": "_address",
							"type": "address"
						},
						{
							"internalType": "uint256",
							"name": "_version",
							"type": "uint256"
						}
					],
					"name": "addAddress",
					"outputs": [
						{
							"internalType": "bool",
							"name": "_added",
							"type": "bool"
						}
					],
					"stateMutability": "nonpayable",
					"type": "function"
				},
				{
					"inputs": [
						{
							"components": [
								{
									"internalType": "uint256",
									"name": "chainId",
									"type": "uint256"
								},
								{
									"internalType": "uint64",
									"name": "ccipChainSelector",
									"type": "uint64"
								},
								{
									"internalType": "address",
									"name": "routerAddress",
									"type": "address"
								},
								{
									"internalType": "address[]",
									"name": "feeTokens",
									"type": "address[]"
								},
								{
									"internalType": "address",
									"name": "giltReciever",
									"type": "address"
								}
							],
							"internalType": "struct DestinationConfig",
							"name": "_destinationConfig",
							"type": "tuple"
						}
					],
					"name": "addDestinationConfig",
					"outputs": [
						{
							"internalType": "bool",
							"name": "_added",
							"type": "bool"
						}
					],
					"stateMutability": "nonpayable",
					"type": "function"
				},
				{
					"inputs": [
						{
							"internalType": "address",
							"name": "_address",
							"type": "address"
						}
					],
					"name": "addMVersionAddress",
					"outputs": [
						{
							"internalType": "bool",
							"name": "_added",
							"type": "bool"
						}
					],
					"stateMutability": "nonpayable",
					"type": "function"
				},
				{
					"inputs": [
						{
							"internalType": "string",
							"name": "_name",
							"type": "string"
						}
					],
					"name": "getAddress",
					"outputs": [
						{
							"internalType": "address",
							"name": "_address",
							"type": "address"
						}
					],
					"stateMutability": "view",
					"type": "function"
				},
				{
					"inputs": [],
					"name": "getChainId",
					"outputs": [
						{
							"internalType": "uint256",
							"name": "_chainId",
							"type": "uint256"
						}
					],
					"stateMutability": "view",
					"type": "function"
				},
				{
					"inputs": [],
					"name": "getConfig",
					"outputs": [
						{
							"components": [
								{
									"internalType": "string",
									"name": "name",
									"type": "string"
								},
								{
									"internalType": "address",
									"name": "vaddress",
									"type": "address"
								},
								{
									"internalType": "uint256",
									"name": "version",
									"type": "uint256"
								}
							],
							"internalType": "struct RegistryEntry[]",
							"name": "_entries",
							"type": "tuple[]"
						}
					],
					"stateMutability": "view",
					"type": "function"
				},
				{
					"inputs": [
						{
							"internalType": "uint256",
							"name": "_chainId",
							"type": "uint256"
						}
					],
					"name": "getDestinationConfig",
					"outputs": [
						{
							"components": [
								{
									"internalType": "uint256",
									"name": "chainId",
									"type": "uint256"
								},
								{
									"internalType": "uint64",
									"name": "ccipChainSelector",
									"type": "uint64"
								},
								{
									"internalType": "address",
									"name": "routerAddress",
									"type": "address"
								},
								{
									"internalType": "address[]",
									"name": "feeTokens",
									"type": "address[]"
								},
								{
									"internalType": "address",
									"name": "giltReciever",
									"type": "address"
								}
							],
							"internalType": "struct DestinationConfig",
							"name": "_dConfig",
							"type": "tuple"
						}
					],
					"stateMutability": "view",
					"type": "function"
				},
				{
					"inputs": [],
					"name": "getName",
					"outputs": [
						{
							"internalType": "string",
							"name": "_name",
							"type": "string"
						}
					],
					"stateMutability": "pure",
					"type": "function"
				},
				{
					"inputs": [
						{
							"internalType": "address",
							"name": "_address",
							"type": "address"
						}
					],
					"name": "getName",
					"outputs": [
						{
							"internalType": "string",
							"name": "_name",
							"type": "string"
						}
					],
					"stateMutability": "view",
					"type": "function"
				},
				{
					"inputs": [],
					"name": "getNames",
					"outputs": [
						{
							"internalType": "string[]",
							"name": "_names",
							"type": "string[]"
						}
					],
					"stateMutability": "view",
					"type": "function"
				},
				{
					"inputs": [],
					"name": "getVersion",
					"outputs": [
						{
							"internalType": "uint256",
							"name": "_version",
							"type": "uint256"
						}
					],
					"stateMutability": "pure",
					"type": "function"
				}
			],
			"devdoc": {
				"kind": "dev",
				"methods": {},
				"version": 1
			},
			"evm": {
				"assembly": "    /* \"contracts/core/MRegister.sol\":244:3826  contract MRegister is IMRegister, IMVersion { ... */\n  mstore(0x40, 0xc0)\n    /* \"contracts/core/MRegister.sol\":934:1178  constructor(address _admin, uint256 _chainId)  {... */\n  callvalue\n  dup1\n  iszero\n  tag_1\n  jumpi\n  0x00\n  dup1\n  revert\ntag_1:\n  pop\n  mload(0x40)\n  sub(codesize, bytecodeSize)\n  dup1\n  bytecodeSize\n  dup4\n  codecopy\n  dup2\n  add\n  0x40\n  dup2\n  swap1\n  mstore\n  tag_2\n  swap2\n  tag_3\n  jump\t// in\ntag_2:\n    /* \"contracts/core/MRegister.sol\":992:997  admin */\n  0x01\n    /* \"contracts/core/MRegister.sol\":992:1006  admin = _admin */\n  dup1\n  sload\n  not(sub(shl(0xa0, 0x01), 0x01))\n  and\n  sub(shl(0xa0, 0x01), 0x01)\n  dup5\n  and\n  or\n  swap1\n  sstore\n    /* \"contracts/core/MRegister.sol\":1018:1036  chainId = _chainId */\n  0x80\n  dup2\n  swap1\n  mstore\n    /* \"contracts/core/MRegister.sol\":1063:1067  this */\n  address\n    /* \"contracts/core/MRegister.sol\":1048:1068  self = address(this) */\n  0xa0\n  swap1\n  dup2\n  mstore\n    /* \"contracts/core/MRegister.sol\":1098:1102  name */\n  0x40\n  dup1\n  mload\n  dup1\n  dup3\n  add\n  swap1\n  swap2\n  mstore\n  0x13\n  dup2\n  mstore\n  0x52455345525645445f4d5f524547495354455200000000000000000000000000\n  0x20\n  dup3\n  add\n  mstore\n    /* \"contracts/core/MRegister.sol\":1104:1108  self */\n  swap1\n  mload\n    /* \"contracts/core/MRegister.sol\":1079:1118  addAddressInternal(name, self, version) */\n  tag_6\n  swap2\n    /* \"contracts/core/MRegister.sol\":1098:1102  name */\n  swap1\n    /* \"contracts/core/MRegister.sol\":476:477  2 */\n  0x02\n    /* \"contracts/core/MRegister.sol\":1079:1097  addAddressInternal */\n  tag_7\n    /* \"contracts/core/MRegister.sol\":1079:1118  addAddressInternal(name, self, version) */\n  jump\t// in\ntag_6:\n  pop\n    /* \"contracts/core/MRegister.sol\":1148:1158  M_ADMIN_CA */\n  0x40\n  dup1\n  mload\n  dup1\n  dup3\n  add\n  swap1\n  swap2\n  mstore\n  0x10\n  dup2\n  mstore\n  shl(0x81, 0x2922a9a2a92b22a22fa6afa0a226a4a7)\n  0x20\n  dup3\n  add\n  mstore\n    /* \"contracts/core/MRegister.sol\":1129:1170  addAddressInternal(M_ADMIN_CA, _admin, 0) */\n  tag_8\n  swap1\n    /* \"contracts/core/MRegister.sol\":1160:1166  _admin */\n  dup4\n  0x00\n    /* \"contracts/core/MRegister.sol\":1129:1147  addAddressInternal */\n  tag_7\n    /* \"contracts/core/MRegister.sol\":1129:1170  addAddressInternal(M_ADMIN_CA, _admin, 0) */\n  jump\t// in\ntag_8:\n  pop\n    /* \"contracts/core/MRegister.sol\":934:1178  constructor(address _admin, uint256 _chainId)  {... */\n  pop\n  pop\n    /* \"contracts/core/MRegister.sol\":244:3826  contract MRegister is IMRegister, IMVersion { ... */\n  jump(tag_25)\n    /* \"contracts/core/MRegister.sol\":3423:3819  function addAddressInternal(string memory _name, address _address, uint256 _version) internal returns (bool _added) {... */\ntag_7:\n    /* \"contracts/core/MRegister.sol\":3526:3537  bool _added */\n  0x00\n    /* \"contracts/core/MRegister.sol\":3554:3563  knownName */\n  0x03\n    /* \"contracts/core/MRegister.sol\":3564:3569  _name */\n  dup5\n    /* \"contracts/core/MRegister.sol\":3554:3570  knownName[_name] */\n  mload(0x40)\n  tag_11\n  swap2\n  swap1\n  tag_12\n  jump\t// in\ntag_11:\n  swap1\n  dup2\n  mstore\n  mload(0x40)\n  swap1\n  dup2\n  swap1\n  sub\n  0x20\n  add\n  swap1\n  keccak256\n  sload\n  0xff\n  and\n    /* \"contracts/core/MRegister.sol\":3550:3654  if(!knownName[_name]){... */\n  tag_13\n  jumpi\n    /* \"contracts/core/MRegister.sol\":3605:3609  true */\n  0x01\n    /* \"contracts/core/MRegister.sol\":3586:3595  knownName */\n  0x03\n    /* \"contracts/core/MRegister.sol\":3596:3601  _name */\n  dup6\n    /* \"contracts/core/MRegister.sol\":3586:3602  knownName[_name] */\n  mload(0x40)\n  tag_14\n  swap2\n  swap1\n  tag_12\n  jump\t// in\ntag_14:\n  swap1\n  dup2\n  mstore\n  mload(0x40)\n  swap1\n  dup2\n  swap1\n  sub\n  0x20\n  add\n  swap1\n  keccak256\n    /* \"contracts/core/MRegister.sol\":3586:3609  knownName[_name] = true */\n  dup1\n  sload\n  swap2\n  iszero\n  iszero\n  not(0xff)\n  swap1\n  swap3\n  and\n  swap2\n  swap1\n  swap2\n  or\n  swap1\n  sstore\n    /* \"contracts/core/MRegister.sol\":3625:3630  names */\n  0x02\n    /* \"contracts/core/MRegister.sol\":3625:3642  names.push(_name) */\n  dup1\n  sload\n    /* \"contracts/core/MRegister.sol\":3586:3609  knownName[_name] = true */\n  0x01\n    /* \"contracts/core/MRegister.sol\":3625:3642  names.push(_name) */\n  dup2\n  add\n  dup3\n  sstore\n    /* \"contracts/core/MRegister.sol\":3586:3602  knownName[_name] */\n  0x00\n    /* \"contracts/core/MRegister.sol\":3625:3642  names.push(_name) */\n  swap2\n  swap1\n  swap2\n  mstore\n  0x405787fa12a823e0f2b7631cc41b3ba8828b3321ca811111fa75cd3aa3bb5ace\n  add\n  tag_16\n    /* \"contracts/core/MRegister.sol\":3636:3641  _name */\n  dup6\n    /* \"contracts/core/MRegister.sol\":3625:3642  names.push(_name) */\n  dup3\n  tag_17\n  jump\t// in\ntag_16:\n  pop\n    /* \"contracts/core/MRegister.sol\":3550:3654  if(!knownName[_name]){... */\ntag_13:\n    /* \"contracts/core/MRegister.sol\":3687:3695  _address */\n  dup3\n    /* \"contracts/core/MRegister.sol\":3664:3677  addressByName */\n  0x04\n    /* \"contracts/core/MRegister.sol\":3678:3683  _name */\n  dup6\n    /* \"contracts/core/MRegister.sol\":3664:3684  addressByName[_name] */\n  mload(0x40)\n  tag_18\n  swap2\n  swap1\n  tag_12\n  jump\t// in\ntag_18:\n  swap1\n  dup2\n  mstore\n  0x40\n  dup1\n  mload\n  0x20\n  swap3\n  dup2\n  swap1\n  sub\n  dup4\n  add\n  swap1\n  keccak256\n    /* \"contracts/core/MRegister.sol\":3664:3695  addressByName[_name] = _address */\n  dup1\n  sload\n  not(sub(shl(0xa0, 0x01), 0x01))\n  and\n  sub(shl(0xa0, 0x01), 0x01)\n  swap5\n  dup6\n  and\n  or\n  swap1\n  sstore\n    /* \"contracts/core/MRegister.sol\":3707:3730  nameByAddress[_address] */\n  swap2\n  dup6\n  and\n  0x00\n  swap1\n  dup2\n  mstore\n    /* \"contracts/core/MRegister.sol\":3707:3720  nameByAddress */\n  0x05\n    /* \"contracts/core/MRegister.sol\":3707:3730  nameByAddress[_address] */\n  swap1\n  swap2\n  mstore\n  keccak256\n    /* \"contracts/core/MRegister.sol\":3707:3738  nameByAddress[_address] = _name */\n  tag_19\n    /* \"contracts/core/MRegister.sol\":3733:3738  _name */\n  dup6\n    /* \"contracts/core/MRegister.sol\":3707:3730  nameByAddress[_address] */\n  dup3\n    /* \"contracts/core/MRegister.sol\":3707:3738  nameByAddress[_address] = _name */\n  tag_17\n  jump\t// in\ntag_19:\n  pop\n  pop\n  sub(shl(0xa0, 0x01), 0x01)\n    /* \"contracts/core/MRegister.sol\":3750:3776  versionByAddress[_address] */\n  swap2\n  swap1\n  swap2\n  and\n  0x00\n  swap1\n  dup2\n  mstore\n    /* \"contracts/core/MRegister.sol\":3750:3766  versionByAddress */\n  0x06\n    /* \"contracts/core/MRegister.sol\":3750:3776  versionByAddress[_address] */\n  0x20\n  mstore\n  0x40\n  swap1\n  keccak256\n    /* \"contracts/core/MRegister.sol\":3750:3787  versionByAddress[_address] = _version */\n  sstore\n  pop\n    /* \"contracts/core/MRegister.sol\":3806:3810  true */\n  0x01\n  swap1\n    /* \"contracts/core/MRegister.sol\":3423:3819  function addAddressInternal(string memory _name, address _address, uint256 _version) internal returns (bool _added) {... */\n  jump\t// out\n    /* \"#utility.yul\":14:365   */\ntag_3:\n    /* \"#utility.yul\":93:99   */\n  0x00\n    /* \"#utility.yul\":101:107   */\n  dup1\n    /* \"#utility.yul\":154:156   */\n  0x40\n    /* \"#utility.yul\":142:151   */\n  dup4\n    /* \"#utility.yul\":133:140   */\n  dup6\n    /* \"#utility.yul\":129:152   */\n  sub\n    /* \"#utility.yul\":125:157   */\n  slt\n    /* \"#utility.yul\":122:174   */\n  iszero\n  tag_27\n  jumpi\n    /* \"#utility.yul\":170:171   */\n  0x00\n    /* \"#utility.yul\":167:168   */\n  dup1\n    /* \"#utility.yul\":160:172   */\n  revert\n    /* \"#utility.yul\":122:174   */\ntag_27:\n    /* \"#utility.yul\":196:212   */\n  dup3\n  mload\n  sub(shl(0xa0, 0x01), 0x01)\n    /* \"#utility.yul\":241:272   */\n  dup2\n  and\n    /* \"#utility.yul\":231:273   */\n  dup2\n  eq\n    /* \"#utility.yul\":221:291   */\n  tag_28\n  jumpi\n    /* \"#utility.yul\":287:288   */\n  0x00\n    /* \"#utility.yul\":284:285   */\n  dup1\n    /* \"#utility.yul\":277:289   */\n  revert\n    /* \"#utility.yul\":221:291   */\ntag_28:\n    /* \"#utility.yul\":355:357   */\n  0x20\n    /* \"#utility.yul\":340:358   */\n  swap4\n  swap1\n  swap4\n  add\n    /* \"#utility.yul\":334:359   */\n  mload\n    /* \"#utility.yul\":310:315   */\n  swap3\n  swap5\n    /* \"#utility.yul\":334:359   */\n  swap3\n  swap4\n  pop\n  pop\n  pop\n    /* \"#utility.yul\":14:365   */\n  jump\t// out\n    /* \"#utility.yul\":370:784   */\ntag_12:\n    /* \"#utility.yul\":501:504   */\n  0x00\n    /* \"#utility.yul\":539:545   */\n  dup3\n    /* \"#utility.yul\":533:546   */\n  mload\n    /* \"#utility.yul\":564:565   */\n  0x00\n    /* \"#utility.yul\":574:703   */\ntag_30:\n    /* \"#utility.yul\":588:594   */\n  dup2\n    /* \"#utility.yul\":585:586   */\n  dup2\n    /* \"#utility.yul\":582:595   */\n  lt\n    /* \"#utility.yul\":574:703   */\n  iszero\n  tag_32\n  jumpi\n    /* \"#utility.yul\":686:690   */\n  0x20\n    /* \"#utility.yul\":670:684   */\n  dup2\n  dup7\n  add\n    /* \"#utility.yul\":666:691   */\n  dup2\n  add\n    /* \"#utility.yul\":660:692   */\n  mload\n    /* \"#utility.yul\":647:658   */\n  dup6\n  dup4\n  add\n    /* \"#utility.yul\":640:693   */\n  mstore\n    /* \"#utility.yul\":603:615   */\n  add\n    /* \"#utility.yul\":574:703   */\n  jump(tag_30)\ntag_32:\n  pop\n    /* \"#utility.yul\":758:759   */\n  0x00\n    /* \"#utility.yul\":722:738   */\n  swap3\n  add\n    /* \"#utility.yul\":747:760   */\n  swap2\n  dup3\n  mstore\n  pop\n    /* \"#utility.yul\":722:738   */\n  swap2\n    /* \"#utility.yul\":370:784   */\n  swap1\n  pop\n  jump\t// out\n    /* \"#utility.yul\":789:916   */\ntag_20:\n    /* \"#utility.yul\":850:860   */\n  0x4e487b71\n    /* \"#utility.yul\":845:848   */\n  0xe0\n    /* \"#utility.yul\":841:861   */\n  shl\n    /* \"#utility.yul\":838:839   */\n  0x00\n    /* \"#utility.yul\":831:862   */\n  mstore\n    /* \"#utility.yul\":881:885   */\n  0x41\n    /* \"#utility.yul\":878:879   */\n  0x04\n    /* \"#utility.yul\":871:886   */\n  mstore\n    /* \"#utility.yul\":905:909   */\n  0x24\n    /* \"#utility.yul\":902:903   */\n  0x00\n    /* \"#utility.yul\":895:910   */\n  revert\n    /* \"#utility.yul\":921:1301   */\ntag_21:\n    /* \"#utility.yul\":1000:1001   */\n  0x01\n    /* \"#utility.yul\":996:1008   */\n  dup2\n  dup2\n  shr\n  swap1\n    /* \"#utility.yul\":1043:1055   */\n  dup3\n  and\n  dup1\n    /* \"#utility.yul\":1064:1125   */\n  tag_35\n  jumpi\n    /* \"#utility.yul\":1118:1122   */\n  0x7f\n    /* \"#utility.yul\":1110:1116   */\n  dup3\n    /* \"#utility.yul\":1106:1123   */\n  and\n    /* \"#utility.yul\":1096:1123   */\n  swap2\n  pop\n    /* \"#utility.yul\":1064:1125   */\ntag_35:\n    /* \"#utility.yul\":1171:1173   */\n  0x20\n    /* \"#utility.yul\":1163:1169   */\n  dup3\n    /* \"#utility.yul\":1160:1174   */\n  lt\n    /* \"#utility.yul\":1140:1158   */\n  dup2\n    /* \"#utility.yul\":1137:1175   */\n  sub\n    /* \"#utility.yul\":1134:1295   */\n  tag_36\n  jumpi\n    /* \"#utility.yul\":1217:1227   */\n  0x4e487b71\n    /* \"#utility.yul\":1212:1215   */\n  0xe0\n    /* \"#utility.yul\":1208:1228   */\n  shl\n    /* \"#utility.yul\":1205:1206   */\n  0x00\n    /* \"#utility.yul\":1198:1229   */\n  mstore\n    /* \"#utility.yul\":1252:1256   */\n  0x22\n    /* \"#utility.yul\":1249:1250   */\n  0x04\n    /* \"#utility.yul\":1242:1257   */\n  mstore\n    /* \"#utility.yul\":1280:1284   */\n  0x24\n    /* \"#utility.yul\":1277:1278   */\n  0x00\n    /* \"#utility.yul\":1270:1285   */\n  revert\n    /* \"#utility.yul\":1134:1295   */\ntag_36:\n  pop\n    /* \"#utility.yul\":921:1301   */\n  swap2\n  swap1\n  pop\n  jump\t// out\n    /* \"#utility.yul\":1432:1975   */\ntag_23:\n    /* \"#utility.yul\":1534:1536   */\n  0x1f\n    /* \"#utility.yul\":1529:1532   */\n  dup3\n    /* \"#utility.yul\":1526:1537   */\n  gt\n    /* \"#utility.yul\":1523:1969   */\n  iszero\n  tag_39\n  jumpi\n    /* \"#utility.yul\":1570:1571   */\n  0x00\n    /* \"#utility.yul\":1594:1599   */\n  dup2\n    /* \"#utility.yul\":1591:1592   */\n  0x00\n    /* \"#utility.yul\":1584:1600   */\n  mstore\n    /* \"#utility.yul\":1638:1642   */\n  0x20\n    /* \"#utility.yul\":1635:1636   */\n  0x00\n    /* \"#utility.yul\":1625:1643   */\n  keccak256\n    /* \"#utility.yul\":1708:1710   */\n  0x1f\n    /* \"#utility.yul\":1696:1706   */\n  dup6\n    /* \"#utility.yul\":1692:1711   */\n  add\n    /* \"#utility.yul\":1689:1690   */\n  0x05\n    /* \"#utility.yul\":1685:1712   */\n  shr\n    /* \"#utility.yul\":1679:1683   */\n  dup2\n    /* \"#utility.yul\":1675:1713   */\n  add\n    /* \"#utility.yul\":1744:1748   */\n  0x20\n    /* \"#utility.yul\":1732:1742   */\n  dup7\n    /* \"#utility.yul\":1729:1749   */\n  lt\n    /* \"#utility.yul\":1726:1773   */\n  iszero\n  tag_40\n  jumpi\n  pop\n    /* \"#utility.yul\":1767:1771   */\n  dup1\n    /* \"#utility.yul\":1726:1773   */\ntag_40:\n    /* \"#utility.yul\":1822:1824   */\n  0x1f\n    /* \"#utility.yul\":1817:1820   */\n  dup6\n    /* \"#utility.yul\":1813:1825   */\n  add\n    /* \"#utility.yul\":1810:1811   */\n  0x05\n    /* \"#utility.yul\":1806:1826   */\n  shr\n    /* \"#utility.yul\":1800:1804   */\n  dup3\n    /* \"#utility.yul\":1796:1827   */\n  add\n    /* \"#utility.yul\":1786:1827   */\n  swap2\n  pop\n    /* \"#utility.yul\":1877:1959   */\ntag_41:\n    /* \"#utility.yul\":1895:1897   */\n  dup2\n    /* \"#utility.yul\":1888:1893   */\n  dup2\n    /* \"#utility.yul\":1885:1898   */\n  lt\n    /* \"#utility.yul\":1877:1959   */\n  iszero\n  tag_43\n  jumpi\n    /* \"#utility.yul\":1940:1957   */\n  dup3\n  dup2\n  sstore\n    /* \"#utility.yul\":1921:1922   */\n  0x01\n    /* \"#utility.yul\":1910:1923   */\n  add\n    /* \"#utility.yul\":1877:1959   */\n  jump(tag_41)\ntag_43:\n    /* \"#utility.yul\":1881:1884   */\n  pop\n  pop\n  pop\n    /* \"#utility.yul\":1523:1969   */\ntag_39:\n    /* \"#utility.yul\":1432:1975   */\n  pop\n  pop\n  pop\n  jump\t// out\n    /* \"#utility.yul\":2151:3496   */\ntag_17:\n    /* \"#utility.yul\":2271:2281   */\n  dup2\n  mload\n  sub(shl(0x40, 0x01), 0x01)\n    /* \"#utility.yul\":2293:2323   */\n  dup2\n  gt\n    /* \"#utility.yul\":2290:2346   */\n  iszero\n  tag_47\n  jumpi\n    /* \"#utility.yul\":2326:2344   */\n  tag_47\n  tag_20\n  jump\t// in\ntag_47:\n    /* \"#utility.yul\":2355:2452   */\n  tag_48\n    /* \"#utility.yul\":2445:2451   */\n  dup2\n    /* \"#utility.yul\":2405:2443   */\n  tag_49\n    /* \"#utility.yul\":2437:2441   */\n  dup5\n    /* \"#utility.yul\":2431:2442   */\n  sload\n    /* \"#utility.yul\":2405:2443   */\n  tag_21\n  jump\t// in\ntag_49:\n    /* \"#utility.yul\":2399:2403   */\n  dup5\n    /* \"#utility.yul\":2355:2452   */\n  tag_23\n  jump\t// in\ntag_48:\n    /* \"#utility.yul\":2507:2511   */\n  0x20\n  dup1\n    /* \"#utility.yul\":2564:2566   */\n  0x1f\n    /* \"#utility.yul\":2553:2567   */\n  dup4\n  gt\n    /* \"#utility.yul\":2581:2582   */\n  0x01\n    /* \"#utility.yul\":2576:3239   */\n  dup2\n  eq\n  tag_51\n  jumpi\n    /* \"#utility.yul\":3283:3284   */\n  0x00\n    /* \"#utility.yul\":3300:3306   */\n  dup5\n    /* \"#utility.yul\":3297:3386   */\n  iszero\n  tag_52\n  jumpi\n  pop\n    /* \"#utility.yul\":3352:3371   */\n  dup6\n  dup4\n  add\n    /* \"#utility.yul\":3346:3372   */\n  mload\n    /* \"#utility.yul\":3297:3386   */\ntag_52:\n  not(0x00)\n    /* \"#utility.yul\":2108:2109   */\n  0x03\n    /* \"#utility.yul\":2104:2115   */\n  dup7\n  swap1\n  shl\n    /* \"#utility.yul\":2100:2124   */\n  shr\n    /* \"#utility.yul\":2096:2125   */\n  not\n    /* \"#utility.yul\":2086:2126   */\n  and\n    /* \"#utility.yul\":2132:2133   */\n  0x01\n    /* \"#utility.yul\":2128:2139   */\n  dup6\n  swap1\n  shl\n    /* \"#utility.yul\":2083:2140   */\n  or\n    /* \"#utility.yul\":3399:3480   */\n  dup6\n  sstore\n    /* \"#utility.yul\":2546:3490   */\n  jump(tag_43)\n    /* \"#utility.yul\":2576:3239   */\ntag_51:\n    /* \"#utility.yul\":1379:1380   */\n  0x00\n    /* \"#utility.yul\":1372:1386   */\n  dup6\n  dup2\n  mstore\n    /* \"#utility.yul\":1416:1420   */\n  0x20\n    /* \"#utility.yul\":1403:1421   */\n  dup2\n  keccak256\n  not(0x1f)\n    /* \"#utility.yul\":2612:2632   */\n  dup7\n  and\n  swap2\n    /* \"#utility.yul\":2730:2966   */\ntag_55:\n    /* \"#utility.yul\":2744:2751   */\n  dup3\n    /* \"#utility.yul\":2741:2742   */\n  dup2\n    /* \"#utility.yul\":2738:2752   */\n  lt\n    /* \"#utility.yul\":2730:2966   */\n  iszero\n  tag_57\n  jumpi\n    /* \"#utility.yul\":2833:2852   */\n  dup9\n  dup7\n  add\n    /* \"#utility.yul\":2827:2853   */\n  mload\n    /* \"#utility.yul\":2812:2854   */\n  dup3\n  sstore\n    /* \"#utility.yul\":2925:2952   */\n  swap5\n  dup5\n  add\n  swap5\n    /* \"#utility.yul\":2893:2894   */\n  0x01\n    /* \"#utility.yul\":2881:2895   */\n  swap1\n  swap2\n  add\n  swap1\n    /* \"#utility.yul\":2760:2779   */\n  dup5\n  add\n    /* \"#utility.yul\":2730:2966   */\n  jump(tag_55)\ntag_57:\n    /* \"#utility.yul\":2734:2737   */\n  pop\n    /* \"#utility.yul\":2994:3000   */\n  dup6\n    /* \"#utility.yul\":2985:2992   */\n  dup3\n    /* \"#utility.yul\":2982:3001   */\n  lt\n    /* \"#utility.yul\":2979:3180   */\n  iszero\n  tag_58\n  jumpi\n    /* \"#utility.yul\":3055:3074   */\n  dup8\n  dup6\n  add\n    /* \"#utility.yul\":3049:3075   */\n  mload\n  not(0x00)\n    /* \"#utility.yul\":3138:3139   */\n  0x03\n    /* \"#utility.yul\":3134:3148   */\n  dup9\n  swap1\n  shl\n    /* \"#utility.yul\":3150:3153   */\n  0xf8\n    /* \"#utility.yul\":3130:3154   */\n  and\n    /* \"#utility.yul\":3126:3163   */\n  shr\n    /* \"#utility.yul\":3122:3164   */\n  not\n    /* \"#utility.yul\":3107:3165   */\n  and\n    /* \"#utility.yul\":3092:3166   */\n  dup2\n  sstore\n    /* \"#utility.yul\":2979:3180   */\ntag_58:\n  pop\n  pop\n  pop\n  pop\n  pop\n    /* \"#utility.yul\":3226:3227   */\n  0x01\n    /* \"#utility.yul\":3210:3224   */\n  swap1\n  dup2\n  shl\n    /* \"#utility.yul\":3206:3228   */\n  add\n    /* \"#utility.yul\":3193:3229   */\n  swap1\n  sstore\n  pop\n    /* \"#utility.yul\":2151:3496   */\n  jump\t// out\ntag_25:\n    /* \"contracts/core/MRegister.sol\":244:3826  contract MRegister is IMRegister, IMVersion { ... */\n  mload(0x80)\n  mload(0xa0)\n  codecopy(0x00, dataOffset(sub_0), dataSize(sub_0))\n  0x00\n  assignImmutable(\"0x2e9b7c94e032d8b3b8b30bd825717a5ac74958b53e7c37a892a4fd7dc56e4975\")\n  0x00\n  assignImmutable(\"0xccb1f717aa77602faf03a594761a36956b1c4cf44c6b336d1db57da799b331b8\")\n  return(0x00, dataSize(sub_0))\nstop\n\nsub_0: assembly {\n        /* \"contracts/core/MRegister.sol\":244:3826  contract MRegister is IMRegister, IMVersion { ... */\n      mstore(0x40, 0x80)\n      callvalue\n      dup1\n      iszero\n      tag_1\n      jumpi\n      0x00\n      dup1\n      revert\n    tag_1:\n      pop\n      jumpi(tag_2, lt(calldatasize, 0x04))\n      shr(0xe0, calldataload(0x00))\n      dup1\n      0x5fd4b08a\n      gt\n      tag_14\n      jumpi\n      dup1\n      0x5fd4b08a\n      eq\n      tag_8\n      jumpi\n      dup1\n      0x70d8046c\n      eq\n      tag_9\n      jumpi\n      dup1\n      0xbf40fac1\n      eq\n      tag_10\n      jumpi\n      dup1\n      0xc3f909d4\n      eq\n      tag_11\n      jumpi\n      dup1\n      0xcd838f0f\n      eq\n      tag_12\n      jumpi\n      dup1\n      0xcea27c36\n      eq\n      tag_13\n      jumpi\n      0x00\n      dup1\n      revert\n    tag_14:\n      dup1\n      0x0d8e6e2c\n      eq\n      tag_3\n      jumpi\n      dup1\n      0x17d7de7c\n      eq\n      tag_4\n      jumpi\n      dup1\n      0x33db0050\n      eq\n      tag_5\n      jumpi\n      dup1\n      0x3408e470\n      eq\n      tag_6\n      jumpi\n      dup1\n      0x5b1ad536\n      eq\n      tag_7\n      jumpi\n    tag_2:\n      0x00\n      dup1\n      revert\n        /* \"contracts/core/MRegister.sol\":1288:1385  function getVersion() pure external returns (uint256 _version) {... */\n    tag_3:\n        /* \"contracts/core/MRegister.sol\":476:477  2 */\n      0x02\n        /* \"contracts/core/MRegister.sol\":1288:1385  function getVersion() pure external returns (uint256 _version) {... */\n    tag_15:\n      mload(0x40)\n        /* \"#utility.yul\":160:185   */\n      swap1\n      dup2\n      mstore\n        /* \"#utility.yul\":148:150   */\n      0x20\n        /* \"#utility.yul\":133:151   */\n      add\n        /* \"contracts/core/MRegister.sol\":1288:1385  function getVersion() pure external returns (uint256 _version) {... */\n    tag_17:\n      mload(0x40)\n      dup1\n      swap2\n      sub\n      swap1\n      return\n        /* \"contracts/core/MRegister.sol\":1186:1280  function getName() pure external returns (string memory _name) {... */\n    tag_4:\n        /* \"contracts/core/MRegister.sol\":1267:1271  name */\n      0x40\n      dup1\n      mload\n      dup1\n      dup3\n      add\n      swap1\n      swap2\n      mstore\n      0x13\n      dup2\n      mstore\n      shl(0x69, 0x2922a9a2a92b22a22fa6afa922a3a4a9aa22a9)\n      0x20\n      dup3\n      add\n      mstore\n        /* \"contracts/core/MRegister.sol\":1186:1280  function getName() pure external returns (string memory _name) {... */\n    tag_19:\n      mload(0x40)\n      tag_17\n      swap2\n      swap1\n      tag_22\n      jump\t// in\n        /* \"contracts/core/MRegister.sol\":2622:2856  function addDestinationConfig(DestinationConfig memory _destinationConfig) external adminOnly returns (bool _added) {... */\n    tag_5:\n      tag_23\n      tag_24\n      calldatasize\n      0x04\n      tag_25\n      jump\t// in\n    tag_24:\n      tag_26\n      jump\t// in\n    tag_23:\n      mload(0x40)\n        /* \"#utility.yul\":3525:3539   */\n      swap1\n      iszero\n        /* \"#utility.yul\":3518:3540   */\n      iszero\n        /* \"#utility.yul\":3500:3541   */\n      dup2\n      mstore\n        /* \"#utility.yul\":3488:3490   */\n      0x20\n        /* \"#utility.yul\":3473:3491   */\n      add\n        /* \"contracts/core/MRegister.sol\":2622:2856  function addDestinationConfig(DestinationConfig memory _destinationConfig) external adminOnly returns (bool _added) {... */\n      tag_17\n        /* \"#utility.yul\":3360:3547   */\n      jump\n        /* \"contracts/core/MRegister.sol\":1663:1760  function getChainId() view external returns (uint256 _chainId) {... */\n    tag_6:\n        /* \"contracts/core/MRegister.sol\":1744:1751  chainId */\n      immutable(\"0xccb1f717aa77602faf03a594761a36956b1c4cf44c6b336d1db57da799b331b8\")\n        /* \"contracts/core/MRegister.sol\":1663:1760  function getChainId() view external returns (uint256 _chainId) {... */\n      jump(tag_15)\n        /* \"contracts/core/MRegister.sol\":2864:3055  function addAddress(string memory _name, address _address, uint256 _version ) external adminOnly returns (bool _added) {... */\n    tag_7:\n      tag_23\n      tag_33\n      calldatasize\n      0x04\n      tag_34\n      jump\t// in\n    tag_33:\n      tag_35\n      jump\t// in\n        /* \"contracts/core/MRegister.sol\":1528:1655  function getName(address _address) view external returns (string memory _name){... */\n    tag_8:\n      tag_19\n      tag_38\n      calldatasize\n      0x04\n      tag_39\n      jump\t// in\n    tag_38:\n      tag_40\n      jump\t// in\n        /* \"contracts/core/MRegister.sol\":3063:3297  function addMVersionAddress(address _address)  external adminOnly returns (bool _added) {... */\n    tag_9:\n      tag_23\n      tag_43\n      calldatasize\n      0x04\n      tag_39\n      jump\t// in\n    tag_43:\n      tag_44\n      jump\t// in\n        /* \"contracts/core/MRegister.sol\":1393:1520  function getAddress(string memory _name) view external returns (address _address){... */\n    tag_10:\n      tag_46\n      tag_47\n      calldatasize\n      0x04\n      tag_48\n      jump\t// in\n    tag_47:\n      tag_49\n      jump\t// in\n    tag_46:\n      mload(0x40)\n      sub(shl(0xa0, 0x01), 0x01)\n        /* \"#utility.yul\":5473:5505   */\n      swap1\n      swap2\n      and\n        /* \"#utility.yul\":5455:5506   */\n      dup2\n      mstore\n        /* \"#utility.yul\":5443:5445   */\n      0x20\n        /* \"#utility.yul\":5428:5446   */\n      add\n        /* \"contracts/core/MRegister.sol\":1393:1520  function getAddress(string memory _name) view external returns (address _address){... */\n      tag_17\n        /* \"#utility.yul\":5309:5512   */\n      jump\n        /* \"contracts/core/MRegister.sol\":1876:2439  function getConfig() view external returns (RegistryEntry [] memory _entries) {... */\n    tag_11:\n      tag_52\n      tag_53\n      jump\t// in\n    tag_52:\n      mload(0x40)\n      tag_17\n      swap2\n      swap1\n      tag_55\n      jump\t// in\n        /* \"contracts/core/MRegister.sol\":1768:1868  function getNames() view external returns (string [] memory _names) {... */\n    tag_12:\n      tag_56\n      tag_57\n      jump\t// in\n    tag_56:\n      mload(0x40)\n      tag_17\n      swap2\n      swap1\n      tag_59\n      jump\t// in\n        /* \"contracts/core/MRegister.sol\":2447:2614  function getDestinationConfig(uint256 _chainId) view external returns (DestinationConfig memory _dConfig){... */\n    tag_13:\n      tag_60\n      tag_61\n      calldatasize\n      0x04\n      tag_62\n      jump\t// in\n    tag_61:\n      tag_63\n      jump\t// in\n    tag_60:\n      mload(0x40)\n      tag_17\n      swap2\n      swap1\n      tag_65\n      jump\t// in\n        /* \"contracts/core/MRegister.sol\":2622:2856  function addDestinationConfig(DestinationConfig memory _destinationConfig) external adminOnly returns (bool _added) {... */\n    tag_26:\n        /* \"contracts/core/MRegister.sol\":350:355  admin */\n      sload(0x01)\n        /* \"contracts/core/MRegister.sol\":2725:2736  bool _added */\n      0x00\n      swap1\n      sub(shl(0xa0, 0x01), 0x01)\n        /* \"contracts/core/MRegister.sol\":350:355  admin */\n      and\n        /* \"contracts/core/MRegister.sol\":336:346  msg.sender */\n      caller\n        /* \"contracts/core/MRegister.sol\":336:355  msg.sender == admin */\n      eq\n        /* \"contracts/core/MRegister.sol\":328:370  require(msg.sender == admin, \"admin only\") */\n      tag_69\n      jumpi\n      mload(0x40)\n      shl(0xe5, 0x461bcd)\n      dup2\n      mstore\n      0x04\n      add\n      tag_70\n      swap1\n      tag_71\n      jump\t// in\n    tag_70:\n      mload(0x40)\n      dup1\n      swap2\n      sub\n      swap1\n      revert\n    tag_69:\n        /* \"contracts/core/MRegister.sol\":2776:2802  _destinationConfig.chainId */\n      dup2\n      mload\n        /* \"contracts/core/MRegister.sol\":2749:2803  destinationConfigByChainId[_destinationConfig.chainId] */\n      0x00\n      swap1\n      dup2\n      mstore\n        /* \"contracts/core/MRegister.sol\":2749:2775  destinationConfigByChainId */\n      0x07\n        /* \"contracts/core/MRegister.sol\":2749:2803  destinationConfigByChainId[_destinationConfig.chainId] */\n      0x20\n      swap1\n      dup2\n      mstore\n      0x40\n      swap2\n      dup3\n      swap1\n      keccak256\n        /* \"contracts/core/MRegister.sol\":2749:2824  destinationConfigByChainId[_destinationConfig.chainId] = _destinationConfig */\n      dup5\n      mload\n      dup2\n      sstore\n      dup2\n      dup6\n      add\n      mload\n      0x01\n      dup3\n      add\n      dup1\n      sload\n      swap5\n      dup8\n      add\n      mload\n      sub(shl(0xa0, 0x01), 0x01)\n      and\n      shl(0x40, 0x01)\n      mul\n      not(sub(shl(0xe0, 0x01), 0x01))\n      swap1\n      swap6\n      and\n      0xffffffffffffffff\n      swap1\n      swap3\n      and\n      swap2\n      swap1\n      swap2\n      or\n      swap4\n      swap1\n      swap4\n      or\n      swap1\n      swap3\n      sstore\n      0x60\n      dup5\n      add\n      mload\n      dup1\n      mload\n        /* \"contracts/core/MRegister.sol\":2806:2824  _destinationConfig */\n      dup6\n      swap4\n        /* \"contracts/core/MRegister.sol\":2749:2803  destinationConfigByChainId[_destinationConfig.chainId] */\n      swap3\n        /* \"contracts/core/MRegister.sol\":2749:2824  destinationConfigByChainId[_destinationConfig.chainId] = _destinationConfig */\n      tag_73\n      swap3\n      0x02\n      dup6\n      add\n      swap3\n      swap2\n      add\n      swap1\n      tag_74\n      jump\t// in\n    tag_73:\n      pop\n      0x80\n      swap2\n      swap1\n      swap2\n      add\n      mload\n      0x03\n      swap1\n      swap2\n      add\n      dup1\n      sload\n      not(sub(shl(0xa0, 0x01), 0x01))\n      and\n      sub(shl(0xa0, 0x01), 0x01)\n      swap1\n      swap3\n      and\n      swap2\n      swap1\n      swap2\n      or\n      swap1\n      sstore\n      pop\n      0x01\n        /* \"contracts/core/MRegister.sol\":381:382  _ */\n    tag_72:\n        /* \"contracts/core/MRegister.sol\":2622:2856  function addDestinationConfig(DestinationConfig memory _destinationConfig) external adminOnly returns (bool _added) {... */\n      swap2\n      swap1\n      pop\n      jump\t// out\n        /* \"contracts/core/MRegister.sol\":2864:3055  function addAddress(string memory _name, address _address, uint256 _version ) external adminOnly returns (bool _added) {... */\n    tag_35:\n        /* \"contracts/core/MRegister.sol\":350:355  admin */\n      sload(0x01)\n        /* \"contracts/core/MRegister.sol\":2970:2981  bool _added */\n      0x00\n      swap1\n      sub(shl(0xa0, 0x01), 0x01)\n        /* \"contracts/core/MRegister.sol\":350:355  admin */\n      and\n        /* \"contracts/core/MRegister.sol\":336:346  msg.sender */\n      caller\n        /* \"contracts/core/MRegister.sol\":336:355  msg.sender == admin */\n      eq\n        /* \"contracts/core/MRegister.sol\":328:370  require(msg.sender == admin, \"admin only\") */\n      tag_77\n      jumpi\n      mload(0x40)\n      shl(0xe5, 0x461bcd)\n      dup2\n      mstore\n      0x04\n      add\n      tag_70\n      swap1\n      tag_71\n      jump\t// in\n    tag_77:\n        /* \"contracts/core/MRegister.sol\":3001:3046  addAddressInternal(_name, _address, _version) */\n      tag_80\n        /* \"contracts/core/MRegister.sol\":3020:3025  _name */\n      dup5\n        /* \"contracts/core/MRegister.sol\":3027:3035  _address */\n      dup5\n        /* \"contracts/core/MRegister.sol\":3037:3045  _version */\n      dup5\n        /* \"contracts/core/MRegister.sol\":3001:3019  addAddressInternal */\n      tag_81\n        /* \"contracts/core/MRegister.sol\":3001:3046  addAddressInternal(_name, _address, _version) */\n      jump\t// in\n    tag_80:\n        /* \"contracts/core/MRegister.sol\":2994:3046  return addAddressInternal(_name, _address, _version) */\n      swap5\n        /* \"contracts/core/MRegister.sol\":2864:3055  function addAddress(string memory _name, address _address, uint256 _version ) external adminOnly returns (bool _added) {... */\n      swap4\n      pop\n      pop\n      pop\n      pop\n      jump\t// out\n        /* \"contracts/core/MRegister.sol\":1528:1655  function getName(address _address) view external returns (string memory _name){... */\n    tag_40:\n      sub(shl(0xa0, 0x01), 0x01)\n        /* \"contracts/core/MRegister.sol\":1624:1647  nameByAddress[_address] */\n      dup2\n      and\n      0x00\n      swap1\n      dup2\n      mstore\n        /* \"contracts/core/MRegister.sol\":1624:1637  nameByAddress */\n      0x05\n        /* \"contracts/core/MRegister.sol\":1624:1647  nameByAddress[_address] */\n      0x20\n      mstore\n      0x40\n      swap1\n      keccak256\n        /* \"contracts/core/MRegister.sol\":1617:1647  return nameByAddress[_address] */\n      dup1\n      sload\n        /* \"contracts/core/MRegister.sol\":1586:1605  string memory _name */\n      0x60\n      swap2\n        /* \"contracts/core/MRegister.sol\":1624:1647  nameByAddress[_address] */\n      swap1\n        /* \"contracts/core/MRegister.sol\":1617:1647  return nameByAddress[_address] */\n      tag_83\n      swap1\n      tag_84\n      jump\t// in\n    tag_83:\n      dup1\n      0x1f\n      add\n      0x20\n      dup1\n      swap2\n      div\n      mul\n      0x20\n      add\n      mload(0x40)\n      swap1\n      dup2\n      add\n      0x40\n      mstore\n      dup1\n      swap3\n      swap2\n      swap1\n      dup2\n      dup2\n      mstore\n      0x20\n      add\n      dup3\n      dup1\n      sload\n      tag_85\n      swap1\n      tag_84\n      jump\t// in\n    tag_85:\n      dup1\n      iszero\n      tag_86\n      jumpi\n      dup1\n      0x1f\n      lt\n      tag_87\n      jumpi\n      0x0100\n      dup1\n      dup4\n      sload\n      div\n      mul\n      dup4\n      mstore\n      swap2\n      0x20\n      add\n      swap2\n      jump(tag_86)\n    tag_87:\n      dup3\n      add\n      swap2\n      swap1\n      0x00\n      mstore\n      keccak256(0x00, 0x20)\n      swap1\n    tag_88:\n      dup2\n      sload\n      dup2\n      mstore\n      swap1\n      0x01\n      add\n      swap1\n      0x20\n      add\n      dup1\n      dup4\n      gt\n      tag_88\n      jumpi\n      dup3\n      swap1\n      sub\n      0x1f\n      and\n      dup3\n      add\n      swap2\n    tag_86:\n      pop\n      pop\n      pop\n      pop\n      pop\n      swap1\n      pop\n        /* \"contracts/core/MRegister.sol\":1528:1655  function getName(address _address) view external returns (string memory _name){... */\n      swap2\n      swap1\n      pop\n      jump\t// out\n        /* \"contracts/core/MRegister.sol\":3063:3297  function addMVersionAddress(address _address)  external adminOnly returns (bool _added) {... */\n    tag_44:\n        /* \"contracts/core/MRegister.sol\":350:355  admin */\n      sload(0x01)\n        /* \"contracts/core/MRegister.sol\":3138:3149  bool _added */\n      0x00\n      swap1\n      sub(shl(0xa0, 0x01), 0x01)\n        /* \"contracts/core/MRegister.sol\":350:355  admin */\n      and\n        /* \"contracts/core/MRegister.sol\":336:346  msg.sender */\n      caller\n        /* \"contracts/core/MRegister.sol\":336:355  msg.sender == admin */\n      eq\n        /* \"contracts/core/MRegister.sol\":328:370  require(msg.sender == admin, \"admin only\") */\n      tag_90\n      jumpi\n      mload(0x40)\n      shl(0xe5, 0x461bcd)\n      dup2\n      mstore\n      0x04\n      add\n      tag_70\n      swap1\n      tag_71\n      jump\t// in\n    tag_90:\n        /* \"contracts/core/MRegister.sol\":3162:3174  IMVersion v_ */\n      0x00\n        /* \"contracts/core/MRegister.sol\":3187:3195  _address */\n      dup3\n        /* \"contracts/core/MRegister.sol\":3162:3196  IMVersion v_ = IMVersion(_address) */\n      swap1\n      pop\n        /* \"contracts/core/MRegister.sol\":3207:3266  addAddressInternal(v_.getName(), _address, v_.getVersion()) */\n      tag_93\n        /* \"contracts/core/MRegister.sol\":3226:3228  v_ */\n      dup2\n      sub(shl(0xa0, 0x01), 0x01)\n        /* \"contracts/core/MRegister.sol\":3226:3236  v_.getName */\n      and\n      0x17d7de7c\n        /* \"contracts/core/MRegister.sol\":3226:3238  v_.getName() */\n      mload(0x40)\n      dup2\n      0xffffffff\n      and\n      0xe0\n      shl\n      dup2\n      mstore\n      0x04\n      add\n      0x00\n      mload(0x40)\n      dup1\n      dup4\n      sub\n      dup2\n      dup7\n      gas\n      staticcall\n      iszero\n      dup1\n      iszero\n      tag_95\n      jumpi\n      returndatasize\n      0x00\n      dup1\n      returndatacopy\n      revert(0x00, returndatasize)\n    tag_95:\n      pop\n      pop\n      pop\n      pop\n      mload(0x40)\n      returndatasize\n      0x00\n      dup3\n      returndatacopy\n      0x1f\n      returndatasize\n      swap1\n      dup2\n      add\n      not(0x1f)\n      and\n      dup3\n      add\n      0x40\n      mstore\n      tag_96\n      swap2\n      swap1\n      dup2\n      add\n      swap1\n      tag_97\n      jump\t// in\n    tag_96:\n        /* \"contracts/core/MRegister.sol\":3240:3248  _address */\n      dup5\n        /* \"contracts/core/MRegister.sol\":3250:3252  v_ */\n      dup4\n      sub(shl(0xa0, 0x01), 0x01)\n        /* \"contracts/core/MRegister.sol\":3250:3263  v_.getVersion */\n      and\n      0x0d8e6e2c\n        /* \"contracts/core/MRegister.sol\":3250:3265  v_.getVersion() */\n      mload(0x40)\n      dup2\n      0xffffffff\n      and\n      0xe0\n      shl\n      dup2\n      mstore\n      0x04\n      add\n      0x20\n      mload(0x40)\n      dup1\n      dup4\n      sub\n      dup2\n      dup7\n      gas\n      staticcall\n      iszero\n      dup1\n      iszero\n      tag_99\n      jumpi\n      returndatasize\n      0x00\n      dup1\n      returndatacopy\n      revert(0x00, returndatasize)\n    tag_99:\n      pop\n      pop\n      pop\n      pop\n      mload(0x40)\n      returndatasize\n      not(0x1f)\n      0x1f\n      dup3\n      add\n      and\n      dup3\n      add\n      dup1\n      0x40\n      mstore\n      pop\n      dup2\n      add\n      swap1\n      tag_100\n      swap2\n      swap1\n      tag_101\n      jump\t// in\n    tag_100:\n        /* \"contracts/core/MRegister.sol\":3207:3225  addAddressInternal */\n      tag_81\n        /* \"contracts/core/MRegister.sol\":3207:3266  addAddressInternal(v_.getName(), _address, v_.getVersion()) */\n      jump\t// in\n    tag_93:\n      pop\n        /* \"contracts/core/MRegister.sol\":3284:3288  true */\n      0x01\n      swap4\n        /* \"contracts/core/MRegister.sol\":3063:3297  function addMVersionAddress(address _address)  external adminOnly returns (bool _added) {... */\n      swap3\n      pop\n      pop\n      pop\n      jump\t// out\n        /* \"contracts/core/MRegister.sol\":1393:1520  function getAddress(string memory _name) view external returns (address _address){... */\n    tag_49:\n        /* \"contracts/core/MRegister.sol\":1457:1473  address _address */\n      0x00\n        /* \"contracts/core/MRegister.sol\":1492:1505  addressByName */\n      0x04\n        /* \"contracts/core/MRegister.sol\":1506:1511  _name */\n      dup3\n        /* \"contracts/core/MRegister.sol\":1492:1512  addressByName[_name] */\n      mload(0x40)\n      tag_103\n      swap2\n      swap1\n      tag_104\n      jump\t// in\n    tag_103:\n      swap1\n      dup2\n      mstore\n      mload(0x40)\n      swap1\n      dup2\n      swap1\n      sub\n      0x20\n      add\n      swap1\n      keccak256\n      sload\n      sub(shl(0xa0, 0x01), 0x01)\n      and\n      swap3\n        /* \"contracts/core/MRegister.sol\":1393:1520  function getAddress(string memory _name) view external returns (address _address){... */\n      swap2\n      pop\n      pop\n      jump\t// out\n        /* \"contracts/core/MRegister.sol\":1876:2439  function getConfig() view external returns (RegistryEntry [] memory _entries) {... */\n    tag_53:\n        /* \"contracts/core/MRegister.sol\":1996:2001  names */\n      0x02\n        /* \"contracts/core/MRegister.sol\":1996:2008  names.length */\n      sload\n        /* \"contracts/core/MRegister.sol\":1920:1952  RegistryEntry [] memory _entries */\n      0x60\n      swap1\n        /* \"contracts/core/MRegister.sol\":1976:2009  new RegistryEntry[](names.length) */\n      0xffffffffffffffff\n      dup2\n      gt\n      iszero\n      tag_107\n      jumpi\n      tag_107\n      tag_108\n      jump\t// in\n    tag_107:\n      mload(0x40)\n      swap1\n      dup1\n      dup3\n      mstore\n      dup1\n      0x20\n      mul\n      0x20\n      add\n      dup3\n      add\n      0x40\n      mstore\n      dup1\n      iszero\n      tag_109\n      jumpi\n      dup2\n      0x20\n      add\n    tag_110:\n      tag_111\n      mload(0x40)\n      dup1\n      0x60\n      add\n      0x40\n      mstore\n      dup1\n      0x60\n      dup2\n      mstore\n      0x20\n      add\n      and(sub(shl(0xa0, 0x01), 0x01), 0x00)\n      dup2\n      mstore\n      0x20\n      add\n      0x00\n      dup2\n      mstore\n      pop\n      swap1\n      jump\n    tag_111:\n      dup2\n      mstore\n      0x20\n      add\n      swap1\n      0x01\n      swap1\n      sub\n      swap1\n      dup2\n      tag_110\n      jumpi\n      swap1\n      pop\n    tag_109:\n      pop\n        /* \"contracts/core/MRegister.sol\":1965:2009  _entries = new RegistryEntry[](names.length) */\n      swap1\n      pop\n        /* \"contracts/core/MRegister.sol\":2024:2033  uint256 x */\n      0x00\n        /* \"contracts/core/MRegister.sol\":2020:2405  for(uint256 x = 0; x < _entries.length; x++) {... */\n    tag_113:\n        /* \"contracts/core/MRegister.sol\":2043:2051  _entries */\n      dup2\n        /* \"contracts/core/MRegister.sol\":2043:2058  _entries.length */\n      mload\n        /* \"contracts/core/MRegister.sol\":2039:2040  x */\n      dup2\n        /* \"contracts/core/MRegister.sol\":2039:2058  x < _entries.length */\n      lt\n        /* \"contracts/core/MRegister.sol\":2020:2405  for(uint256 x = 0; x < _entries.length; x++) {... */\n      iszero\n      tag_114\n      jumpi\n        /* \"contracts/core/MRegister.sol\":2094:2393  RegistryEntry({... */\n      mload(0x40)\n      dup1\n      0x60\n      add\n      0x40\n      mstore\n      dup1\n        /* \"contracts/core/MRegister.sol\":2162:2167  names */\n      0x02\n        /* \"contracts/core/MRegister.sol\":2168:2169  x */\n      dup4\n        /* \"contracts/core/MRegister.sol\":2162:2170  names[x] */\n      dup2\n      sload\n      dup2\n      lt\n      tag_117\n      jumpi\n      tag_117\n      tag_118\n      jump\t// in\n    tag_117:\n      swap1\n      0x00\n      mstore\n      keccak256(0x00, 0x20)\n      add\n        /* \"contracts/core/MRegister.sol\":2094:2393  RegistryEntry({... */\n      dup1\n      sload\n      tag_120\n      swap1\n      tag_84\n      jump\t// in\n    tag_120:\n      dup1\n      0x1f\n      add\n      0x20\n      dup1\n      swap2\n      div\n      mul\n      0x20\n      add\n      mload(0x40)\n      swap1\n      dup2\n      add\n      0x40\n      mstore\n      dup1\n      swap3\n      swap2\n      swap1\n      dup2\n      dup2\n      mstore\n      0x20\n      add\n      dup3\n      dup1\n      sload\n      tag_121\n      swap1\n      tag_84\n      jump\t// in\n    tag_121:\n      dup1\n      iszero\n      tag_122\n      jumpi\n      dup1\n      0x1f\n      lt\n      tag_123\n      jumpi\n      0x0100\n      dup1\n      dup4\n      sload\n      div\n      mul\n      dup4\n      mstore\n      swap2\n      0x20\n      add\n      swap2\n      jump(tag_122)\n    tag_123:\n      dup3\n      add\n      swap2\n      swap1\n      0x00\n      mstore\n      keccak256(0x00, 0x20)\n      swap1\n    tag_124:\n      dup2\n      sload\n      dup2\n      mstore\n      swap1\n      0x01\n      add\n      swap1\n      0x20\n      add\n      dup1\n      dup4\n      gt\n      tag_124\n      jumpi\n      dup3\n      swap1\n      sub\n      0x1f\n      and\n      dup3\n      add\n      swap2\n    tag_122:\n      pop\n      pop\n      pop\n      pop\n      pop\n      dup2\n      mstore\n      0x20\n      add\n        /* \"contracts/core/MRegister.sol\":2228:2241  addressByName */\n      0x04\n        /* \"contracts/core/MRegister.sol\":2242:2247  names */\n      0x02\n        /* \"contracts/core/MRegister.sol\":2248:2249  x */\n      dup5\n        /* \"contracts/core/MRegister.sol\":2242:2250  names[x] */\n      dup2\n      sload\n      dup2\n      lt\n      tag_126\n      jumpi\n      tag_126\n      tag_118\n      jump\t// in\n    tag_126:\n      swap1\n      0x00\n      mstore\n      keccak256(0x00, 0x20)\n      add\n        /* \"contracts/core/MRegister.sol\":2228:2251  addressByName[names[x]] */\n      mload(0x40)\n      tag_128\n      swap2\n      swap1\n      tag_129\n      jump\t// in\n    tag_128:\n      swap1\n      dup2\n      mstore\n      0x20\n      add\n      mload(0x40)\n      dup1\n      swap2\n      sub\n      swap1\n      keccak256\n      0x00\n      swap1\n      sload\n      swap1\n      0x0100\n      exp\n      swap1\n      div\n      sub(shl(0xa0, 0x01), 0x01)\n      and\n      sub(shl(0xa0, 0x01), 0x01)\n        /* \"contracts/core/MRegister.sol\":2094:2393  RegistryEntry({... */\n      and\n      dup2\n      mstore\n      0x20\n      add\n        /* \"contracts/core/MRegister.sol\":2308:2324  versionByAddress */\n      0x06\n        /* \"contracts/core/MRegister.sol\":2308:2349  versionByAddress[addressByName[names[x]]] */\n      0x00\n        /* \"contracts/core/MRegister.sol\":2325:2338  addressByName */\n      0x04\n        /* \"contracts/core/MRegister.sol\":2339:2344  names */\n      0x02\n        /* \"contracts/core/MRegister.sol\":2345:2346  x */\n      dup7\n        /* \"contracts/core/MRegister.sol\":2339:2347  names[x] */\n      dup2\n      sload\n      dup2\n      lt\n      tag_131\n      jumpi\n      tag_131\n      tag_118\n      jump\t// in\n    tag_131:\n      swap1\n      0x00\n      mstore\n      keccak256(0x00, 0x20)\n      add\n        /* \"contracts/core/MRegister.sol\":2325:2348  addressByName[names[x]] */\n      mload(0x40)\n      tag_133\n      swap2\n      swap1\n      tag_129\n      jump\t// in\n    tag_133:\n      swap1\n      dup2\n      mstore\n      0x40\n      dup1\n      mload\n      0x20\n      swap3\n      dup2\n      swap1\n      sub\n      dup4\n      add\n      swap1\n      keccak256\n      sload\n      sub(shl(0xa0, 0x01), 0x01)\n      and\n        /* \"contracts/core/MRegister.sol\":2308:2349  versionByAddress[addressByName[names[x]]] */\n      dup4\n      mstore\n      swap1\n      dup3\n      add\n      swap3\n      swap1\n      swap3\n      mstore\n      add\n      0x00\n      keccak256\n      sload\n        /* \"contracts/core/MRegister.sol\":2094:2393  RegistryEntry({... */\n      swap1\n      mstore\n        /* \"contracts/core/MRegister.sol\":2080:2091  _entries[x] */\n      dup3\n      mload\n      dup4\n      swap1\n        /* \"contracts/core/MRegister.sol\":2089:2090  x */\n      dup4\n      swap1\n        /* \"contracts/core/MRegister.sol\":2080:2091  _entries[x] */\n      dup2\n      lt\n      tag_135\n      jumpi\n      tag_135\n      tag_118\n      jump\t// in\n    tag_135:\n      0x20\n      swap1\n      dup2\n      mul\n      swap2\n      swap1\n      swap2\n      add\n      add\n        /* \"contracts/core/MRegister.sol\":2080:2393  _entries[x] = RegistryEntry({... */\n      mstore\n        /* \"contracts/core/MRegister.sol\":2060:2063  x++ */\n      0x01\n      add\n        /* \"contracts/core/MRegister.sol\":2020:2405  for(uint256 x = 0; x < _entries.length; x++) {... */\n      jump(tag_113)\n    tag_114:\n      pop\n        /* \"contracts/core/MRegister.sol\":1876:2439  function getConfig() view external returns (RegistryEntry [] memory _entries) {... */\n      swap1\n      jump\t// out\n        /* \"contracts/core/MRegister.sol\":1768:1868  function getNames() view external returns (string [] memory _names) {... */\n    tag_57:\n        /* \"contracts/core/MRegister.sol\":1811:1834  string [] memory _names */\n      0x60\n        /* \"contracts/core/MRegister.sol\":1854:1859  names */\n      0x02\n        /* \"contracts/core/MRegister.sol\":1847:1859  return names */\n      dup1\n      sload\n      dup1\n      0x20\n      mul\n      0x20\n      add\n      mload(0x40)\n      swap1\n      dup2\n      add\n      0x40\n      mstore\n      dup1\n      swap3\n      swap2\n      swap1\n      dup2\n      dup2\n      mstore\n      0x20\n      add\n      0x00\n      swap1\n    tag_137:\n      dup3\n      dup3\n      lt\n      iszero\n      tag_138\n      jumpi\n      dup4\n      dup3\n      swap1\n      0x00\n      mstore\n      keccak256(0x00, 0x20)\n      add\n      dup1\n      sload\n      tag_140\n      swap1\n      tag_84\n      jump\t// in\n    tag_140:\n      dup1\n      0x1f\n      add\n      0x20\n      dup1\n      swap2\n      div\n      mul\n      0x20\n      add\n      mload(0x40)\n      swap1\n      dup2\n      add\n      0x40\n      mstore\n      dup1\n      swap3\n      swap2\n      swap1\n      dup2\n      dup2\n      mstore\n      0x20\n      add\n      dup3\n      dup1\n      sload\n      tag_141\n      swap1\n      tag_84\n      jump\t// in\n    tag_141:\n      dup1\n      iszero\n      tag_142\n      jumpi\n      dup1\n      0x1f\n      lt\n      tag_143\n      jumpi\n      0x0100\n      dup1\n      dup4\n      sload\n      div\n      mul\n      dup4\n      mstore\n      swap2\n      0x20\n      add\n      swap2\n      jump(tag_142)\n    tag_143:\n      dup3\n      add\n      swap2\n      swap1\n      0x00\n      mstore\n      keccak256(0x00, 0x20)\n      swap1\n    tag_144:\n      dup2\n      sload\n      dup2\n      mstore\n      swap1\n      0x01\n      add\n      swap1\n      0x20\n      add\n      dup1\n      dup4\n      gt\n      tag_144\n      jumpi\n      dup3\n      swap1\n      sub\n      0x1f\n      and\n      dup3\n      add\n      swap2\n    tag_142:\n      pop\n      pop\n      pop\n      pop\n      pop\n      dup2\n      mstore\n      0x20\n      add\n      swap1\n      0x01\n      add\n      swap1\n      jump(tag_137)\n    tag_138:\n      pop\n      pop\n      pop\n      pop\n      swap1\n      pop\n        /* \"contracts/core/MRegister.sol\":1768:1868  function getNames() view external returns (string [] memory _names) {... */\n      swap1\n      jump\t// out\n        /* \"contracts/core/MRegister.sol\":2447:2614  function getDestinationConfig(uint256 _chainId) view external returns (DestinationConfig memory _dConfig){... */\n    tag_63:\n      0x40\n      dup1\n      mload\n      0xa0\n      dup2\n      add\n      dup3\n      mstore\n      0x00\n      dup1\n      dup3\n      mstore\n      0x20\n      dup3\n      add\n      dup2\n      swap1\n      mstore\n      swap2\n      dup2\n      add\n      dup3\n      swap1\n      mstore\n      0x60\n      dup1\n      dup3\n      add\n      mstore\n      0x80\n      dup2\n      add\n      swap2\n      swap1\n      swap2\n      mstore\n        /* \"contracts/core/MRegister.sol\":2570:2606  destinationConfigByChainId[_chainId] */\n      0x00\n      dup3\n      dup2\n      mstore\n        /* \"contracts/core/MRegister.sol\":2570:2596  destinationConfigByChainId */\n      0x07\n        /* \"contracts/core/MRegister.sol\":2570:2606  destinationConfigByChainId[_chainId] */\n      0x20\n      swap1\n      dup2\n      mstore\n      0x40\n      swap2\n      dup3\n      swap1\n      keccak256\n        /* \"contracts/core/MRegister.sol\":2563:2606  return destinationConfigByChainId[_chainId] */\n      dup3\n      mload\n      0xa0\n      dup2\n      add\n      dup5\n      mstore\n      dup2\n      sload\n      dup2\n      mstore\n      0x01\n      dup3\n      add\n      sload\n      0xffffffffffffffff\n      dup2\n      and\n      dup3\n      dup6\n      add\n      mstore\n      shl(0x40, 0x01)\n      swap1\n      div\n      sub(shl(0xa0, 0x01), 0x01)\n      and\n      dup2\n      dup6\n      add\n      mstore\n      0x02\n      dup3\n      add\n      dup1\n      sload\n      dup6\n      mload\n      dup2\n      dup7\n      mul\n      dup2\n      add\n      dup7\n      add\n      swap1\n      swap7\n      mstore\n      dup1\n      dup7\n      mstore\n      swap2\n      swap5\n        /* \"contracts/core/MRegister.sol\":2570:2606  destinationConfigByChainId[_chainId] */\n      swap3\n      swap4\n        /* \"contracts/core/MRegister.sol\":2563:2606  return destinationConfigByChainId[_chainId] */\n      0x60\n      dup7\n      add\n      swap4\n      swap3\n      swap1\n      dup4\n      add\n      dup3\n      dup3\n      dup1\n      iszero\n      tag_148\n      jumpi\n      0x20\n      mul\n      dup3\n      add\n      swap2\n      swap1\n      0x00\n      mstore\n      keccak256(0x00, 0x20)\n      swap1\n    tag_149:\n      dup2\n      sload\n      sub(shl(0xa0, 0x01), 0x01)\n      and\n      dup2\n      mstore\n      0x01\n      swap1\n      swap2\n      add\n      swap1\n      0x20\n      add\n      dup1\n      dup4\n      gt\n      tag_149\n      jumpi\n    tag_148:\n      pop\n      pop\n      pop\n      swap2\n      dup4\n      mstore\n      pop\n      pop\n      0x03\n      swap2\n      swap1\n      swap2\n      add\n      sload\n      sub(shl(0xa0, 0x01), 0x01)\n      and\n      0x20\n      swap1\n      swap2\n      add\n      mstore\n      swap3\n        /* \"contracts/core/MRegister.sol\":2447:2614  function getDestinationConfig(uint256 _chainId) view external returns (DestinationConfig memory _dConfig){... */\n      swap2\n      pop\n      pop\n      jump\t// out\n        /* \"contracts/core/MRegister.sol\":3423:3819  function addAddressInternal(string memory _name, address _address, uint256 _version) internal returns (bool _added) {... */\n    tag_81:\n        /* \"contracts/core/MRegister.sol\":3526:3537  bool _added */\n      0x00\n        /* \"contracts/core/MRegister.sol\":3554:3563  knownName */\n      0x03\n        /* \"contracts/core/MRegister.sol\":3564:3569  _name */\n      dup5\n        /* \"contracts/core/MRegister.sol\":3554:3570  knownName[_name] */\n      mload(0x40)\n      tag_151\n      swap2\n      swap1\n      tag_104\n      jump\t// in\n    tag_151:\n      swap1\n      dup2\n      mstore\n      mload(0x40)\n      swap1\n      dup2\n      swap1\n      sub\n      0x20\n      add\n      swap1\n      keccak256\n      sload\n      0xff\n      and\n        /* \"contracts/core/MRegister.sol\":3550:3654  if(!knownName[_name]){... */\n      tag_152\n      jumpi\n        /* \"contracts/core/MRegister.sol\":3605:3609  true */\n      0x01\n        /* \"contracts/core/MRegister.sol\":3586:3595  knownName */\n      0x03\n        /* \"contracts/core/MRegister.sol\":3596:3601  _name */\n      dup6\n        /* \"contracts/core/MRegister.sol\":3586:3602  knownName[_name] */\n      mload(0x40)\n      tag_153\n      swap2\n      swap1\n      tag_104\n      jump\t// in\n    tag_153:\n      swap1\n      dup2\n      mstore\n      mload(0x40)\n      swap1\n      dup2\n      swap1\n      sub\n      0x20\n      add\n      swap1\n      keccak256\n        /* \"contracts/core/MRegister.sol\":3586:3609  knownName[_name] = true */\n      dup1\n      sload\n      swap2\n      iszero\n      iszero\n      not(0xff)\n      swap1\n      swap3\n      and\n      swap2\n      swap1\n      swap2\n      or\n      swap1\n      sstore\n        /* \"contracts/core/MRegister.sol\":3625:3630  names */\n      0x02\n        /* \"contracts/core/MRegister.sol\":3625:3642  names.push(_name) */\n      dup1\n      sload\n        /* \"contracts/core/MRegister.sol\":3586:3609  knownName[_name] = true */\n      0x01\n        /* \"contracts/core/MRegister.sol\":3625:3642  names.push(_name) */\n      dup2\n      add\n      dup3\n      sstore\n        /* \"contracts/core/MRegister.sol\":3586:3602  knownName[_name] */\n      0x00\n        /* \"contracts/core/MRegister.sol\":3625:3642  names.push(_name) */\n      swap2\n      swap1\n      swap2\n      mstore\n      0x405787fa12a823e0f2b7631cc41b3ba8828b3321ca811111fa75cd3aa3bb5ace\n      add\n      tag_155\n        /* \"contracts/core/MRegister.sol\":3636:3641  _name */\n      dup6\n        /* \"contracts/core/MRegister.sol\":3625:3642  names.push(_name) */\n      dup3\n      tag_156\n      jump\t// in\n    tag_155:\n      pop\n        /* \"contracts/core/MRegister.sol\":3550:3654  if(!knownName[_name]){... */\n    tag_152:\n        /* \"contracts/core/MRegister.sol\":3687:3695  _address */\n      dup3\n        /* \"contracts/core/MRegister.sol\":3664:3677  addressByName */\n      0x04\n        /* \"contracts/core/MRegister.sol\":3678:3683  _name */\n      dup6\n        /* \"contracts/core/MRegister.sol\":3664:3684  addressByName[_name] */\n      mload(0x40)\n      tag_157\n      swap2\n      swap1\n      tag_104\n      jump\t// in\n    tag_157:\n      swap1\n      dup2\n      mstore\n      0x40\n      dup1\n      mload\n      0x20\n      swap3\n      dup2\n      swap1\n      sub\n      dup4\n      add\n      swap1\n      keccak256\n        /* \"contracts/core/MRegister.sol\":3664:3695  addressByName[_name] = _address */\n      dup1\n      sload\n      not(sub(shl(0xa0, 0x01), 0x01))\n      and\n      sub(shl(0xa0, 0x01), 0x01)\n      swap5\n      dup6\n      and\n      or\n      swap1\n      sstore\n        /* \"contracts/core/MRegister.sol\":3707:3730  nameByAddress[_address] */\n      swap2\n      dup6\n      and\n      0x00\n      swap1\n      dup2\n      mstore\n        /* \"contracts/core/MRegister.sol\":3707:3720  nameByAddress */\n      0x05\n        /* \"contracts/core/MRegister.sol\":3707:3730  nameByAddress[_address] */\n      swap1\n      swap2\n      mstore\n      keccak256\n        /* \"contracts/core/MRegister.sol\":3707:3738  nameByAddress[_address] = _name */\n      tag_158\n        /* \"contracts/core/MRegister.sol\":3733:3738  _name */\n      dup6\n        /* \"contracts/core/MRegister.sol\":3707:3730  nameByAddress[_address] */\n      dup3\n        /* \"contracts/core/MRegister.sol\":3707:3738  nameByAddress[_address] = _name */\n      tag_156\n      jump\t// in\n    tag_158:\n      pop\n      pop\n      sub(shl(0xa0, 0x01), 0x01)\n        /* \"contracts/core/MRegister.sol\":3750:3776  versionByAddress[_address] */\n      swap2\n      swap1\n      swap2\n      and\n      0x00\n      swap1\n      dup2\n      mstore\n        /* \"contracts/core/MRegister.sol\":3750:3766  versionByAddress */\n      0x06\n        /* \"contracts/core/MRegister.sol\":3750:3776  versionByAddress[_address] */\n      0x20\n      mstore\n      0x40\n      swap1\n      keccak256\n        /* \"contracts/core/MRegister.sol\":3750:3787  versionByAddress[_address] = _version */\n      sstore\n      pop\n        /* \"contracts/core/MRegister.sol\":3806:3810  true */\n      0x01\n      swap1\n        /* \"contracts/core/MRegister.sol\":3423:3819  function addAddressInternal(string memory _name, address _address, uint256 _version) internal returns (bool _added) {... */\n      jump\t// out\n    tag_74:\n      dup3\n      dup1\n      sload\n      dup3\n      dup3\n      sstore\n      swap1\n      0x00\n      mstore\n      keccak256(0x00, 0x20)\n      swap1\n      dup2\n      add\n      swap3\n      dup3\n      iszero\n      tag_161\n      jumpi\n      swap2\n      0x20\n      mul\n      dup3\n      add\n    tag_160:\n      dup3\n      dup2\n      gt\n      iszero\n      tag_161\n      jumpi\n      dup3\n      mload\n      dup3\n      sload\n      not(sub(shl(0xa0, 0x01), 0x01))\n      and\n      sub(shl(0xa0, 0x01), 0x01)\n      swap1\n      swap2\n      and\n      or\n      dup3\n      sstore\n      0x20\n      swap1\n      swap3\n      add\n      swap2\n      0x01\n      swap1\n      swap2\n      add\n      swap1\n      jump(tag_160)\n    tag_161:\n      pop\n      tag_114\n      swap3\n      swap2\n      pop\n    tag_164:\n      dup1\n      dup3\n      gt\n      iszero\n      tag_114\n      jumpi\n      0x00\n      dup2\n      sstore\n      0x01\n      add\n      jump(tag_164)\n        /* \"#utility.yul\":196:446   */\n    tag_166:\n        /* \"#utility.yul\":281:282   */\n      0x00\n        /* \"#utility.yul\":291:404   */\n    tag_180:\n        /* \"#utility.yul\":305:311   */\n      dup4\n        /* \"#utility.yul\":302:303   */\n      dup2\n        /* \"#utility.yul\":299:312   */\n      lt\n        /* \"#utility.yul\":291:404   */\n      iszero\n      tag_182\n      jumpi\n        /* \"#utility.yul\":381:392   */\n      dup2\n      dup2\n      add\n        /* \"#utility.yul\":375:393   */\n      mload\n        /* \"#utility.yul\":362:373   */\n      dup4\n      dup3\n      add\n        /* \"#utility.yul\":355:394   */\n      mstore\n        /* \"#utility.yul\":327:329   */\n      0x20\n        /* \"#utility.yul\":320:330   */\n      add\n        /* \"#utility.yul\":291:404   */\n      jump(tag_180)\n    tag_182:\n      pop\n      pop\n        /* \"#utility.yul\":438:439   */\n      0x00\n        /* \"#utility.yul\":420:436   */\n      swap2\n      add\n        /* \"#utility.yul\":413:440   */\n      mstore\n        /* \"#utility.yul\":196:446   */\n      jump\t// out\n        /* \"#utility.yul\":451:722   */\n    tag_167:\n        /* \"#utility.yul\":493:496   */\n      0x00\n        /* \"#utility.yul\":531:536   */\n      dup2\n        /* \"#utility.yul\":525:537   */\n      mload\n        /* \"#utility.yul\":558:564   */\n      dup1\n        /* \"#utility.yul\":553:556   */\n      dup5\n        /* \"#utility.yul\":546:565   */\n      mstore\n        /* \"#utility.yul\":574:650   */\n      tag_184\n        /* \"#utility.yul\":643:649   */\n      dup2\n        /* \"#utility.yul\":636:640   */\n      0x20\n        /* \"#utility.yul\":631:634   */\n      dup7\n        /* \"#utility.yul\":627:641   */\n      add\n        /* \"#utility.yul\":620:624   */\n      0x20\n        /* \"#utility.yul\":613:618   */\n      dup7\n        /* \"#utility.yul\":609:625   */\n      add\n        /* \"#utility.yul\":574:650   */\n      tag_166\n      jump\t// in\n    tag_184:\n        /* \"#utility.yul\":704:706   */\n      0x1f\n        /* \"#utility.yul\":683:698   */\n      add\n      not(0x1f)\n        /* \"#utility.yul\":679:708   */\n      and\n        /* \"#utility.yul\":670:709   */\n      swap3\n      swap1\n      swap3\n      add\n        /* \"#utility.yul\":711:715   */\n      0x20\n        /* \"#utility.yul\":666:716   */\n      add\n      swap3\n        /* \"#utility.yul\":451:722   */\n      swap2\n      pop\n      pop\n      jump\t// out\n        /* \"#utility.yul\":727:947   */\n    tag_22:\n        /* \"#utility.yul\":876:878   */\n      0x20\n        /* \"#utility.yul\":865:874   */\n      dup2\n        /* \"#utility.yul\":858:879   */\n      mstore\n        /* \"#utility.yul\":839:843   */\n      0x00\n        /* \"#utility.yul\":896:941   */\n      tag_186\n        /* \"#utility.yul\":937:939   */\n      0x20\n        /* \"#utility.yul\":926:935   */\n      dup4\n        /* \"#utility.yul\":922:940   */\n      add\n        /* \"#utility.yul\":914:920   */\n      dup5\n        /* \"#utility.yul\":896:941   */\n      tag_167\n      jump\t// in\n    tag_186:\n        /* \"#utility.yul\":888:941   */\n      swap4\n        /* \"#utility.yul\":727:947   */\n      swap3\n      pop\n      pop\n      pop\n      jump\t// out\n        /* \"#utility.yul\":952:1079   */\n    tag_108:\n        /* \"#utility.yul\":1013:1023   */\n      0x4e487b71\n        /* \"#utility.yul\":1008:1011   */\n      0xe0\n        /* \"#utility.yul\":1004:1024   */\n      shl\n        /* \"#utility.yul\":1001:1002   */\n      0x00\n        /* \"#utility.yul\":994:1025   */\n      mstore\n        /* \"#utility.yul\":1044:1048   */\n      0x41\n        /* \"#utility.yul\":1041:1042   */\n      0x04\n        /* \"#utility.yul\":1034:1049   */\n      mstore\n        /* \"#utility.yul\":1068:1072   */\n      0x24\n        /* \"#utility.yul\":1065:1066   */\n      0x00\n        /* \"#utility.yul\":1058:1073   */\n      revert\n        /* \"#utility.yul\":1084:1337   */\n    tag_168:\n        /* \"#utility.yul\":1156:1158   */\n      0x40\n        /* \"#utility.yul\":1150:1159   */\n      mload\n        /* \"#utility.yul\":1198:1202   */\n      0xa0\n        /* \"#utility.yul\":1186:1203   */\n      dup2\n      add\n        /* \"#utility.yul\":1233:1251   */\n      0xffffffffffffffff\n        /* \"#utility.yul\":1218:1252   */\n      dup2\n      gt\n        /* \"#utility.yul\":1254:1276   */\n      dup3\n      dup3\n      lt\n        /* \"#utility.yul\":1215:1277   */\n      or\n        /* \"#utility.yul\":1212:1300   */\n      iszero\n      tag_190\n      jumpi\n        /* \"#utility.yul\":1280:1298   */\n      tag_190\n      tag_108\n      jump\t// in\n    tag_190:\n        /* \"#utility.yul\":1316:1318   */\n      0x40\n        /* \"#utility.yul\":1309:1331   */\n      mstore\n        /* \"#utility.yul\":1084:1337   */\n      swap1\n      jump\t// out\n        /* \"#utility.yul\":1342:1617   */\n    tag_169:\n        /* \"#utility.yul\":1413:1415   */\n      0x40\n        /* \"#utility.yul\":1407:1416   */\n      mload\n        /* \"#utility.yul\":1478:1480   */\n      0x1f\n        /* \"#utility.yul\":1459:1472   */\n      dup3\n      add\n      not(0x1f)\n        /* \"#utility.yul\":1455:1482   */\n      and\n        /* \"#utility.yul\":1443:1483   */\n      dup2\n      add\n        /* \"#utility.yul\":1513:1531   */\n      0xffffffffffffffff\n        /* \"#utility.yul\":1498:1532   */\n      dup2\n      gt\n        /* \"#utility.yul\":1534:1556   */\n      dup3\n      dup3\n      lt\n        /* \"#utility.yul\":1495:1557   */\n      or\n        /* \"#utility.yul\":1492:1580   */\n      iszero\n      tag_193\n      jumpi\n        /* \"#utility.yul\":1560:1578   */\n      tag_193\n      tag_108\n      jump\t// in\n    tag_193:\n        /* \"#utility.yul\":1596:1598   */\n      0x40\n        /* \"#utility.yul\":1589:1611   */\n      mstore\n        /* \"#utility.yul\":1342:1617   */\n      swap2\n      swap1\n      pop\n      jump\t// out\n        /* \"#utility.yul\":1622:1795   */\n    tag_170:\n        /* \"#utility.yul\":1690:1710   */\n      dup1\n      calldataload\n      sub(shl(0xa0, 0x01), 0x01)\n        /* \"#utility.yul\":1739:1770   */\n      dup2\n      and\n        /* \"#utility.yul\":1729:1771   */\n      dup2\n      eq\n        /* \"#utility.yul\":1719:1789   */\n      tag_72\n      jumpi\n        /* \"#utility.yul\":1785:1786   */\n      0x00\n        /* \"#utility.yul\":1782:1783   */\n      dup1\n        /* \"#utility.yul\":1775:1787   */\n      revert\n        /* \"#utility.yul\":1800:3355   */\n    tag_25:\n        /* \"#utility.yul\":1893:1899   */\n      0x00\n        /* \"#utility.yul\":1924:1926   */\n      0x20\n        /* \"#utility.yul\":1967:1969   */\n      dup1\n        /* \"#utility.yul\":1955:1964   */\n      dup4\n        /* \"#utility.yul\":1946:1953   */\n      dup6\n        /* \"#utility.yul\":1942:1965   */\n      sub\n        /* \"#utility.yul\":1938:1970   */\n      slt\n        /* \"#utility.yul\":1935:1987   */\n      iszero\n      tag_197\n      jumpi\n        /* \"#utility.yul\":1983:1984   */\n      0x00\n        /* \"#utility.yul\":1980:1981   */\n      dup1\n        /* \"#utility.yul\":1973:1985   */\n      revert\n        /* \"#utility.yul\":1935:1987   */\n    tag_197:\n        /* \"#utility.yul\":2023:2032   */\n      dup3\n        /* \"#utility.yul\":2010:2033   */\n      calldataload\n        /* \"#utility.yul\":2052:2070   */\n      0xffffffffffffffff\n        /* \"#utility.yul\":2093:2095   */\n      dup1\n        /* \"#utility.yul\":2085:2091   */\n      dup3\n        /* \"#utility.yul\":2082:2096   */\n      gt\n        /* \"#utility.yul\":2079:2113   */\n      iszero\n      tag_198\n      jumpi\n        /* \"#utility.yul\":2109:2110   */\n      0x00\n        /* \"#utility.yul\":2106:2107   */\n      dup1\n        /* \"#utility.yul\":2099:2111   */\n      revert\n        /* \"#utility.yul\":2079:2113   */\n    tag_198:\n        /* \"#utility.yul\":2132:2154   */\n      swap1\n      dup5\n      add\n      swap1\n        /* \"#utility.yul\":2188:2192   */\n      0xa0\n        /* \"#utility.yul\":2170:2186   */\n      dup3\n      dup8\n      sub\n        /* \"#utility.yul\":2166:2193   */\n      slt\n        /* \"#utility.yul\":2163:2210   */\n      iszero\n      tag_199\n      jumpi\n        /* \"#utility.yul\":2206:2207   */\n      0x00\n        /* \"#utility.yul\":2203:2204   */\n      dup1\n        /* \"#utility.yul\":2196:2208   */\n      revert\n        /* \"#utility.yul\":2163:2210   */\n    tag_199:\n        /* \"#utility.yul\":2232:2254   */\n      tag_200\n      tag_168\n      jump\t// in\n    tag_200:\n        /* \"#utility.yul\":2290:2292   */\n      dup3\n        /* \"#utility.yul\":2277:2293   */\n      calldataload\n        /* \"#utility.yul\":2270:2275   */\n      dup2\n        /* \"#utility.yul\":2263:2294   */\n      mstore\n        /* \"#utility.yul\":2339:2341   */\n      dup4\n        /* \"#utility.yul\":2335:2337   */\n      dup4\n        /* \"#utility.yul\":2331:2342   */\n      add\n        /* \"#utility.yul\":2318:2343   */\n      calldataload\n        /* \"#utility.yul\":2387:2389   */\n      dup3\n        /* \"#utility.yul\":2378:2385   */\n      dup2\n        /* \"#utility.yul\":2374:2390   */\n      and\n        /* \"#utility.yul\":2365:2372   */\n      dup2\n        /* \"#utility.yul\":2362:2391   */\n      eq\n        /* \"#utility.yul\":2352:2409   */\n      tag_201\n      jumpi\n        /* \"#utility.yul\":2405:2406   */\n      0x00\n        /* \"#utility.yul\":2402:2403   */\n      dup1\n        /* \"#utility.yul\":2395:2407   */\n      revert\n        /* \"#utility.yul\":2352:2409   */\n    tag_201:\n        /* \"#utility.yul\":2425:2439   */\n      dup2\n      dup6\n      add\n        /* \"#utility.yul\":2418:2449   */\n      mstore\n        /* \"#utility.yul\":2481:2512   */\n      tag_202\n        /* \"#utility.yul\":2508:2510   */\n      0x40\n        /* \"#utility.yul\":2500:2511   */\n      dup5\n      add\n        /* \"#utility.yul\":2481:2512   */\n      tag_170\n      jump\t// in\n    tag_202:\n        /* \"#utility.yul\":2476:2478   */\n      0x40\n        /* \"#utility.yul\":2469:2474   */\n      dup3\n        /* \"#utility.yul\":2465:2479   */\n      add\n        /* \"#utility.yul\":2458:2513   */\n      mstore\n        /* \"#utility.yul\":2559:2561   */\n      0x60\n        /* \"#utility.yul\":2555:2557   */\n      dup4\n        /* \"#utility.yul\":2551:2562   */\n      add\n        /* \"#utility.yul\":2538:2563   */\n      calldataload\n        /* \"#utility.yul\":2588:2590   */\n      dup3\n        /* \"#utility.yul\":2578:2586   */\n      dup2\n        /* \"#utility.yul\":2575:2591   */\n      gt\n        /* \"#utility.yul\":2572:2608   */\n      iszero\n      tag_203\n      jumpi\n        /* \"#utility.yul\":2604:2605   */\n      0x00\n        /* \"#utility.yul\":2601:2602   */\n      dup1\n        /* \"#utility.yul\":2594:2606   */\n      revert\n        /* \"#utility.yul\":2572:2608   */\n    tag_203:\n        /* \"#utility.yul\":2627:2644   */\n      dup4\n      add\n        /* \"#utility.yul\":2675:2679   */\n      0x1f\n        /* \"#utility.yul\":2667:2680   */\n      dup2\n      add\n        /* \"#utility.yul\":2663:2690   */\n      dup9\n      sgt\n        /* \"#utility.yul\":2653:2708   */\n      tag_204\n      jumpi\n        /* \"#utility.yul\":2704:2705   */\n      0x00\n        /* \"#utility.yul\":2701:2702   */\n      dup1\n        /* \"#utility.yul\":2694:2706   */\n      revert\n        /* \"#utility.yul\":2653:2708   */\n    tag_204:\n        /* \"#utility.yul\":2740:2742   */\n      dup1\n        /* \"#utility.yul\":2727:2743   */\n      calldataload\n        /* \"#utility.yul\":2762:2764   */\n      dup4\n        /* \"#utility.yul\":2758:2760   */\n      dup2\n        /* \"#utility.yul\":2755:2765   */\n      gt\n        /* \"#utility.yul\":2752:2788   */\n      iszero\n      tag_206\n      jumpi\n        /* \"#utility.yul\":2768:2786   */\n      tag_206\n      tag_108\n      jump\t// in\n    tag_206:\n        /* \"#utility.yul\":2814:2816   */\n      dup1\n        /* \"#utility.yul\":2811:2812   */\n      0x05\n        /* \"#utility.yul\":2807:2817   */\n      shl\n        /* \"#utility.yul\":2797:2817   */\n      swap4\n      pop\n        /* \"#utility.yul\":2837:2865   */\n      tag_207\n        /* \"#utility.yul\":2861:2863   */\n      dup7\n        /* \"#utility.yul\":2857:2859   */\n      dup6\n        /* \"#utility.yul\":2853:2864   */\n      add\n        /* \"#utility.yul\":2837:2865   */\n      tag_169\n      jump\t// in\n    tag_207:\n        /* \"#utility.yul\":2899:2914   */\n      dup2\n      dup2\n      mstore\n        /* \"#utility.yul\":2969:2980   */\n      swap4\n      dup3\n      add\n        /* \"#utility.yul\":2965:2985   */\n      dup7\n      add\n      swap4\n        /* \"#utility.yul\":2930:2942   */\n      dup7\n      dup2\n      add\n      swap1\n        /* \"#utility.yul\":2997:3016   */\n      dup11\n      dup7\n      gt\n        /* \"#utility.yul\":2994:3033   */\n      iszero\n      tag_208\n      jumpi\n        /* \"#utility.yul\":3029:3030   */\n      0x00\n        /* \"#utility.yul\":3026:3027   */\n      dup1\n        /* \"#utility.yul\":3019:3031   */\n      revert\n        /* \"#utility.yul\":2994:3033   */\n    tag_208:\n        /* \"#utility.yul\":3053:3064   */\n      swap3\n      dup8\n      add\n      swap3\n        /* \"#utility.yul\":3073:3221   */\n    tag_209:\n        /* \"#utility.yul\":3089:3095   */\n      dup6\n        /* \"#utility.yul\":3084:3087   */\n      dup5\n        /* \"#utility.yul\":3081:3096   */\n      lt\n        /* \"#utility.yul\":3073:3221   */\n      iszero\n      tag_211\n      jumpi\n        /* \"#utility.yul\":3155:3178   */\n      tag_212\n        /* \"#utility.yul\":3174:3177   */\n      dup5\n        /* \"#utility.yul\":3155:3178   */\n      tag_170\n      jump\t// in\n    tag_212:\n        /* \"#utility.yul\":3143:3179   */\n      dup3\n      mstore\n        /* \"#utility.yul\":3106:3118   */\n      swap3\n      dup8\n      add\n      swap3\n        /* \"#utility.yul\":3199:3211   */\n      swap1\n      dup8\n      add\n      swap1\n        /* \"#utility.yul\":3073:3221   */\n      jump(tag_209)\n    tag_211:\n        /* \"#utility.yul\":3248:3250   */\n      0x60\n        /* \"#utility.yul\":3237:3251   */\n      dup6\n      add\n        /* \"#utility.yul\":3230:3259   */\n      mstore\n      pop\n        /* \"#utility.yul\":3292:3324   */\n      tag_213\n      swap2\n      pop\n      pop\n        /* \"#utility.yul\":3319:3322   */\n      0x80\n        /* \"#utility.yul\":3311:3323   */\n      dup5\n      add\n        /* \"#utility.yul\":3292:3324   */\n      tag_170\n      jump\t// in\n    tag_213:\n        /* \"#utility.yul\":3286:3289   */\n      0x80\n        /* \"#utility.yul\":3275:3290   */\n      dup3\n      add\n        /* \"#utility.yul\":3268:3325   */\n      mstore\n        /* \"#utility.yul\":3279:3284   */\n      swap7\n        /* \"#utility.yul\":1800:3355   */\n      swap6\n      pop\n      pop\n      pop\n      pop\n      pop\n      pop\n      jump\t// out\n        /* \"#utility.yul\":3552:3739   */\n    tag_171:\n        /* \"#utility.yul\":3601:3605   */\n      0x00\n        /* \"#utility.yul\":3634:3652   */\n      0xffffffffffffffff\n        /* \"#utility.yul\":3626:3632   */\n      dup3\n        /* \"#utility.yul\":3623:3653   */\n      gt\n        /* \"#utility.yul\":3620:3676   */\n      iszero\n      tag_217\n      jumpi\n        /* \"#utility.yul\":3656:3674   */\n      tag_217\n      tag_108\n      jump\t// in\n    tag_217:\n      pop\n        /* \"#utility.yul\":3722:3724   */\n      0x1f\n        /* \"#utility.yul\":3701:3716   */\n      add\n      not(0x1f)\n        /* \"#utility.yul\":3697:3726   */\n      and\n        /* \"#utility.yul\":3728:3732   */\n      0x20\n        /* \"#utility.yul\":3693:3733   */\n      add\n      swap1\n        /* \"#utility.yul\":3552:3739   */\n      jump\t// out\n        /* \"#utility.yul\":3744:4208   */\n    tag_172:\n        /* \"#utility.yul\":3787:3792   */\n      0x00\n        /* \"#utility.yul\":3840:3843   */\n      dup3\n        /* \"#utility.yul\":3833:3837   */\n      0x1f\n        /* \"#utility.yul\":3825:3831   */\n      dup4\n        /* \"#utility.yul\":3821:3838   */\n      add\n        /* \"#utility.yul\":3817:3844   */\n      slt\n        /* \"#utility.yul\":3807:3862   */\n      tag_219\n      jumpi\n        /* \"#utility.yul\":3858:3859   */\n      0x00\n        /* \"#utility.yul\":3855:3856   */\n      dup1\n        /* \"#utility.yul\":3848:3860   */\n      revert\n        /* \"#utility.yul\":3807:3862   */\n    tag_219:\n        /* \"#utility.yul\":3894:3900   */\n      dup2\n        /* \"#utility.yul\":3881:3901   */\n      calldataload\n        /* \"#utility.yul\":3925:3974   */\n      tag_220\n        /* \"#utility.yul\":3941:3973   */\n      tag_221\n        /* \"#utility.yul\":3970:3972   */\n      dup3\n        /* \"#utility.yul\":3941:3973   */\n      tag_171\n      jump\t// in\n    tag_221:\n        /* \"#utility.yul\":3925:3974   */\n      tag_169\n      jump\t// in\n    tag_220:\n        /* \"#utility.yul\":3999:4001   */\n      dup2\n        /* \"#utility.yul\":3990:3997   */\n      dup2\n        /* \"#utility.yul\":3983:4002   */\n      mstore\n        /* \"#utility.yul\":4045:4048   */\n      dup5\n        /* \"#utility.yul\":4038:4042   */\n      0x20\n        /* \"#utility.yul\":4033:4035   */\n      dup4\n        /* \"#utility.yul\":4025:4031   */\n      dup7\n        /* \"#utility.yul\":4021:4036   */\n      add\n        /* \"#utility.yul\":4017:4043   */\n      add\n        /* \"#utility.yul\":4014:4049   */\n      gt\n        /* \"#utility.yul\":4011:4066   */\n      iszero\n      tag_222\n      jumpi\n        /* \"#utility.yul\":4062:4063   */\n      0x00\n        /* \"#utility.yul\":4059:4060   */\n      dup1\n        /* \"#utility.yul\":4052:4064   */\n      revert\n        /* \"#utility.yul\":4011:4066   */\n    tag_222:\n        /* \"#utility.yul\":4127:4129   */\n      dup2\n        /* \"#utility.yul\":4120:4124   */\n      0x20\n        /* \"#utility.yul\":4112:4118   */\n      dup6\n        /* \"#utility.yul\":4108:4125   */\n      add\n        /* \"#utility.yul\":4101:4105   */\n      0x20\n        /* \"#utility.yul\":4092:4099   */\n      dup4\n        /* \"#utility.yul\":4088:4106   */\n      add\n        /* \"#utility.yul\":4075:4130   */\n      calldatacopy\n        /* \"#utility.yul\":4175:4176   */\n      0x00\n        /* \"#utility.yul\":4150:4166   */\n      swap2\n      dup2\n      add\n        /* \"#utility.yul\":4168:4172   */\n      0x20\n        /* \"#utility.yul\":4146:4173   */\n      add\n        /* \"#utility.yul\":4139:4177   */\n      swap2\n      swap1\n      swap2\n      mstore\n        /* \"#utility.yul\":4154:4161   */\n      swap4\n        /* \"#utility.yul\":3744:4208   */\n      swap3\n      pop\n      pop\n      pop\n      jump\t// out\n        /* \"#utility.yul\":4213:4677   */\n    tag_34:\n        /* \"#utility.yul\":4300:4306   */\n      0x00\n        /* \"#utility.yul\":4308:4314   */\n      dup1\n        /* \"#utility.yul\":4316:4322   */\n      0x00\n        /* \"#utility.yul\":4369:4371   */\n      0x60\n        /* \"#utility.yul\":4357:4366   */\n      dup5\n        /* \"#utility.yul\":4348:4355   */\n      dup7\n        /* \"#utility.yul\":4344:4367   */\n      sub\n        /* \"#utility.yul\":4340:4372   */\n      slt\n        /* \"#utility.yul\":4337:4389   */\n      iszero\n      tag_224\n      jumpi\n        /* \"#utility.yul\":4385:4386   */\n      0x00\n        /* \"#utility.yul\":4382:4383   */\n      dup1\n        /* \"#utility.yul\":4375:4387   */\n      revert\n        /* \"#utility.yul\":4337:4389   */\n    tag_224:\n        /* \"#utility.yul\":4425:4434   */\n      dup4\n        /* \"#utility.yul\":4412:4435   */\n      calldataload\n        /* \"#utility.yul\":4458:4476   */\n      0xffffffffffffffff\n        /* \"#utility.yul\":4450:4456   */\n      dup2\n        /* \"#utility.yul\":4447:4477   */\n      gt\n        /* \"#utility.yul\":4444:4494   */\n      iszero\n      tag_225\n      jumpi\n        /* \"#utility.yul\":4490:4491   */\n      0x00\n        /* \"#utility.yul\":4487:4488   */\n      dup1\n        /* \"#utility.yul\":4480:4492   */\n      revert\n        /* \"#utility.yul\":4444:4494   */\n    tag_225:\n        /* \"#utility.yul\":4513:4563   */\n      tag_226\n        /* \"#utility.yul\":4555:4562   */\n      dup7\n        /* \"#utility.yul\":4546:4552   */\n      dup3\n        /* \"#utility.yul\":4535:4544   */\n      dup8\n        /* \"#utility.yul\":4531:4553   */\n      add\n        /* \"#utility.yul\":4513:4563   */\n      tag_172\n      jump\t// in\n    tag_226:\n        /* \"#utility.yul\":4503:4563   */\n      swap4\n      pop\n      pop\n        /* \"#utility.yul\":4582:4620   */\n      tag_227\n        /* \"#utility.yul\":4616:4618   */\n      0x20\n        /* \"#utility.yul\":4605:4614   */\n      dup6\n        /* \"#utility.yul\":4601:4619   */\n      add\n        /* \"#utility.yul\":4582:4620   */\n      tag_170\n      jump\t// in\n    tag_227:\n        /* \"#utility.yul\":4572:4620   */\n      swap2\n      pop\n        /* \"#utility.yul\":4667:4669   */\n      0x40\n        /* \"#utility.yul\":4656:4665   */\n      dup5\n        /* \"#utility.yul\":4652:4670   */\n      add\n        /* \"#utility.yul\":4639:4671   */\n      calldataload\n        /* \"#utility.yul\":4629:4671   */\n      swap1\n      pop\n        /* \"#utility.yul\":4213:4677   */\n      swap3\n      pop\n      swap3\n      pop\n      swap3\n      jump\t// out\n        /* \"#utility.yul\":4682:4868   */\n    tag_39:\n        /* \"#utility.yul\":4741:4747   */\n      0x00\n        /* \"#utility.yul\":4794:4796   */\n      0x20\n        /* \"#utility.yul\":4782:4791   */\n      dup3\n        /* \"#utility.yul\":4773:4780   */\n      dup5\n        /* \"#utility.yul\":4769:4792   */\n      sub\n        /* \"#utility.yul\":4765:4797   */\n      slt\n        /* \"#utility.yul\":4762:4814   */\n      iszero\n      tag_229\n      jumpi\n        /* \"#utility.yul\":4810:4811   */\n      0x00\n        /* \"#utility.yul\":4807:4808   */\n      dup1\n        /* \"#utility.yul\":4800:4812   */\n      revert\n        /* \"#utility.yul\":4762:4814   */\n    tag_229:\n        /* \"#utility.yul\":4833:4862   */\n      tag_186\n        /* \"#utility.yul\":4852:4861   */\n      dup3\n        /* \"#utility.yul\":4833:4862   */\n      tag_170\n      jump\t// in\n        /* \"#utility.yul\":4873:5195   */\n    tag_48:\n        /* \"#utility.yul\":4942:4948   */\n      0x00\n        /* \"#utility.yul\":4995:4997   */\n      0x20\n        /* \"#utility.yul\":4983:4992   */\n      dup3\n        /* \"#utility.yul\":4974:4981   */\n      dup5\n        /* \"#utility.yul\":4970:4993   */\n      sub\n        /* \"#utility.yul\":4966:4998   */\n      slt\n        /* \"#utility.yul\":4963:5015   */\n      iszero\n      tag_232\n      jumpi\n        /* \"#utility.yul\":5011:5012   */\n      0x00\n        /* \"#utility.yul\":5008:5009   */\n      dup1\n        /* \"#utility.yul\":5001:5013   */\n      revert\n        /* \"#utility.yul\":4963:5015   */\n    tag_232:\n        /* \"#utility.yul\":5051:5060   */\n      dup2\n        /* \"#utility.yul\":5038:5061   */\n      calldataload\n        /* \"#utility.yul\":5084:5102   */\n      0xffffffffffffffff\n        /* \"#utility.yul\":5076:5082   */\n      dup2\n        /* \"#utility.yul\":5073:5103   */\n      gt\n        /* \"#utility.yul\":5070:5120   */\n      iszero\n      tag_233\n      jumpi\n        /* \"#utility.yul\":5116:5117   */\n      0x00\n        /* \"#utility.yul\":5113:5114   */\n      dup1\n        /* \"#utility.yul\":5106:5118   */\n      revert\n        /* \"#utility.yul\":5070:5120   */\n    tag_233:\n        /* \"#utility.yul\":5139:5189   */\n      tag_80\n        /* \"#utility.yul\":5181:5188   */\n      dup5\n        /* \"#utility.yul\":5172:5178   */\n      dup3\n        /* \"#utility.yul\":5161:5170   */\n      dup6\n        /* \"#utility.yul\":5157:5179   */\n      add\n        /* \"#utility.yul\":5139:5189   */\n      tag_172\n      jump\t// in\n        /* \"#utility.yul\":5517:6694   */\n    tag_55:\n        /* \"#utility.yul\":5717:5721   */\n      0x00\n        /* \"#utility.yul\":5746:5748   */\n      0x20\n        /* \"#utility.yul\":5786:5788   */\n      dup1\n        /* \"#utility.yul\":5775:5784   */\n      dup4\n        /* \"#utility.yul\":5771:5789   */\n      add\n        /* \"#utility.yul\":5816:5818   */\n      dup2\n        /* \"#utility.yul\":5805:5814   */\n      dup5\n        /* \"#utility.yul\":5798:5819   */\n      mstore\n        /* \"#utility.yul\":5839:5845   */\n      dup1\n        /* \"#utility.yul\":5874:5880   */\n      dup6\n        /* \"#utility.yul\":5868:5881   */\n      mload\n        /* \"#utility.yul\":5905:5911   */\n      dup1\n        /* \"#utility.yul\":5897:5903   */\n      dup4\n        /* \"#utility.yul\":5890:5912   */\n      mstore\n        /* \"#utility.yul\":5931:5933   */\n      0x40\n        /* \"#utility.yul\":5921:5933   */\n      swap3\n      pop\n        /* \"#utility.yul\":5964:5966   */\n      0x40\n        /* \"#utility.yul\":5953:5962   */\n      dup7\n        /* \"#utility.yul\":5949:5967   */\n      add\n        /* \"#utility.yul\":5942:5967   */\n      swap2\n      pop\n        /* \"#utility.yul\":6026:6028   */\n      0x40\n        /* \"#utility.yul\":6016:6022   */\n      dup2\n        /* \"#utility.yul\":6013:6014   */\n      0x05\n        /* \"#utility.yul\":6009:6023   */\n      shl\n        /* \"#utility.yul\":5998:6007   */\n      dup8\n        /* \"#utility.yul\":5994:6024   */\n      add\n        /* \"#utility.yul\":5990:6029   */\n      add\n        /* \"#utility.yul\":6064:6066   */\n      dup5\n        /* \"#utility.yul\":6056:6062   */\n      dup9\n        /* \"#utility.yul\":6052:6067   */\n      add\n        /* \"#utility.yul\":6085:6086   */\n      0x00\n        /* \"#utility.yul\":6095:6665   */\n    tag_238:\n        /* \"#utility.yul\":6109:6115   */\n      dup4\n        /* \"#utility.yul\":6106:6107   */\n      dup2\n        /* \"#utility.yul\":6103:6116   */\n      lt\n        /* \"#utility.yul\":6095:6665   */\n      iszero\n      tag_240\n      jumpi\n        /* \"#utility.yul\":6202:6204   */\n      0x3f\n        /* \"#utility.yul\":6198:6205   */\n      not\n        /* \"#utility.yul\":6186:6195   */\n      dup10\n        /* \"#utility.yul\":6178:6184   */\n      dup5\n        /* \"#utility.yul\":6174:6196   */\n      sub\n        /* \"#utility.yul\":6170:6206   */\n      add\n        /* \"#utility.yul\":6165:6168   */\n      dup6\n        /* \"#utility.yul\":6158:6207   */\n      mstore\n        /* \"#utility.yul\":6236:6242   */\n      dup2\n        /* \"#utility.yul\":6230:6243   */\n      mload\n        /* \"#utility.yul\":6266:6270   */\n      0x60\n        /* \"#utility.yul\":6309:6311   */\n      dup2\n        /* \"#utility.yul\":6303:6312   */\n      mload\n        /* \"#utility.yul\":6340:6342   */\n      dup2\n        /* \"#utility.yul\":6332:6338   */\n      dup7\n        /* \"#utility.yul\":6325:6343   */\n      mstore\n        /* \"#utility.yul\":6370:6418   */\n      tag_241\n        /* \"#utility.yul\":6414:6416   */\n      dup3\n        /* \"#utility.yul\":6406:6412   */\n      dup8\n        /* \"#utility.yul\":6402:6417   */\n      add\n        /* \"#utility.yul\":6388:6400   */\n      dup3\n        /* \"#utility.yul\":6370:6418   */\n      tag_167\n      jump\t// in\n    tag_241:\n        /* \"#utility.yul\":6465:6476   */\n      dup4\n      dup12\n      add\n        /* \"#utility.yul\":6459:6477   */\n      mload\n      sub(shl(0xa0, 0x01), 0x01)\n        /* \"#utility.yul\":6455:6499   */\n      and\n        /* \"#utility.yul\":6438:6453   */\n      dup8\n      dup13\n      add\n        /* \"#utility.yul\":6431:6500   */\n      mstore\n        /* \"#utility.yul\":6543:6554   */\n      swap3\n      dup10\n      add\n        /* \"#utility.yul\":6537:6555   */\n      mload\n        /* \"#utility.yul\":6520:6535   */\n      swap6\n      dup10\n      add\n        /* \"#utility.yul\":6513:6556   */\n      swap6\n      swap1\n      swap6\n      mstore\n      pop\n        /* \"#utility.yul\":6643:6655   */\n      swap5\n      dup8\n      add\n      swap5\n        /* \"#utility.yul\":6356:6418   */\n      swap3\n      pop\n        /* \"#utility.yul\":6608:6623   */\n      swap1\n      dup7\n      add\n      swap1\n        /* \"#utility.yul\":6496:6497   */\n      0x01\n        /* \"#utility.yul\":6124:6133   */\n      add\n        /* \"#utility.yul\":6095:6665   */\n      jump(tag_238)\n    tag_240:\n      pop\n        /* \"#utility.yul\":6682:6688   */\n      swap1\n      swap9\n        /* \"#utility.yul\":5517:6694   */\n      swap8\n      pop\n      pop\n      pop\n      pop\n      pop\n      pop\n      pop\n      pop\n      jump\t// out\n        /* \"#utility.yul\":6699:7502   */\n    tag_59:\n        /* \"#utility.yul\":6861:6865   */\n      0x00\n        /* \"#utility.yul\":6890:6892   */\n      0x20\n        /* \"#utility.yul\":6930:6932   */\n      dup1\n        /* \"#utility.yul\":6919:6928   */\n      dup4\n        /* \"#utility.yul\":6915:6933   */\n      add\n        /* \"#utility.yul\":6960:6962   */\n      0x20\n        /* \"#utility.yul\":6949:6958   */\n      dup5\n        /* \"#utility.yul\":6942:6963   */\n      mstore\n        /* \"#utility.yul\":6983:6989   */\n      dup1\n        /* \"#utility.yul\":7018:7024   */\n      dup6\n        /* \"#utility.yul\":7012:7025   */\n      mload\n        /* \"#utility.yul\":7049:7055   */\n      dup1\n        /* \"#utility.yul\":7041:7047   */\n      dup4\n        /* \"#utility.yul\":7034:7056   */\n      mstore\n        /* \"#utility.yul\":7087:7089   */\n      0x40\n        /* \"#utility.yul\":7076:7085   */\n      dup7\n        /* \"#utility.yul\":7072:7090   */\n      add\n        /* \"#utility.yul\":7065:7090   */\n      swap2\n      pop\n        /* \"#utility.yul\":7149:7151   */\n      0x40\n        /* \"#utility.yul\":7139:7145   */\n      dup2\n        /* \"#utility.yul\":7136:7137   */\n      0x05\n        /* \"#utility.yul\":7132:7146   */\n      shl\n        /* \"#utility.yul\":7121:7130   */\n      dup8\n        /* \"#utility.yul\":7117:7147   */\n      add\n        /* \"#utility.yul\":7113:7152   */\n      add\n        /* \"#utility.yul\":7099:7152   */\n      swap3\n      pop\n        /* \"#utility.yul\":7187:7189   */\n      0x20\n        /* \"#utility.yul\":7179:7185   */\n      dup8\n        /* \"#utility.yul\":7175:7190   */\n      add\n        /* \"#utility.yul\":7208:7209   */\n      0x00\n        /* \"#utility.yul\":7218:7473   */\n    tag_243:\n        /* \"#utility.yul\":7232:7238   */\n      dup3\n        /* \"#utility.yul\":7229:7230   */\n      dup2\n        /* \"#utility.yul\":7226:7239   */\n      lt\n        /* \"#utility.yul\":7218:7473   */\n      iszero\n      tag_245\n      jumpi\n        /* \"#utility.yul\":7325:7327   */\n      0x3f\n        /* \"#utility.yul\":7321:7328   */\n      not\n        /* \"#utility.yul\":7309:7318   */\n      dup9\n        /* \"#utility.yul\":7301:7307   */\n      dup7\n        /* \"#utility.yul\":7297:7319   */\n      sub\n        /* \"#utility.yul\":7293:7329   */\n      add\n        /* \"#utility.yul\":7288:7291   */\n      dup5\n        /* \"#utility.yul\":7281:7330   */\n      mstore\n        /* \"#utility.yul\":7353:7393   */\n      tag_246\n        /* \"#utility.yul\":7386:7392   */\n      dup6\n        /* \"#utility.yul\":7377:7383   */\n      dup4\n        /* \"#utility.yul\":7371:7384   */\n      mload\n        /* \"#utility.yul\":7353:7393   */\n      tag_167\n      jump\t// in\n    tag_246:\n        /* \"#utility.yul\":7343:7393   */\n      swap5\n      pop\n        /* \"#utility.yul\":7451:7463   */\n      swap3\n      dup6\n      add\n      swap3\n        /* \"#utility.yul\":7416:7431   */\n      swap1\n      dup6\n      add\n      swap1\n        /* \"#utility.yul\":7254:7255   */\n      0x01\n        /* \"#utility.yul\":7247:7256   */\n      add\n        /* \"#utility.yul\":7218:7473   */\n      jump(tag_243)\n    tag_245:\n      pop\n        /* \"#utility.yul\":7490:7496   */\n      swap3\n      swap8\n        /* \"#utility.yul\":6699:7502   */\n      swap7\n      pop\n      pop\n      pop\n      pop\n      pop\n      pop\n      pop\n      jump\t// out\n        /* \"#utility.yul\":7507:7687   */\n    tag_62:\n        /* \"#utility.yul\":7566:7572   */\n      0x00\n        /* \"#utility.yul\":7619:7621   */\n      0x20\n        /* \"#utility.yul\":7607:7616   */\n      dup3\n        /* \"#utility.yul\":7598:7605   */\n      dup5\n        /* \"#utility.yul\":7594:7617   */\n      sub\n        /* \"#utility.yul\":7590:7622   */\n      slt\n        /* \"#utility.yul\":7587:7639   */\n      iszero\n      tag_248\n      jumpi\n        /* \"#utility.yul\":7635:7636   */\n      0x00\n        /* \"#utility.yul\":7632:7633   */\n      dup1\n        /* \"#utility.yul\":7625:7637   */\n      revert\n        /* \"#utility.yul\":7587:7639   */\n    tag_248:\n      pop\n        /* \"#utility.yul\":7658:7681   */\n      calldataload\n      swap2\n        /* \"#utility.yul\":7507:7687   */\n      swap1\n      pop\n      jump\t// out\n        /* \"#utility.yul\":7692:8864   */\n    tag_65:\n        /* \"#utility.yul\":7881:7883   */\n      0x20\n        /* \"#utility.yul\":7892:7913   */\n      dup1\n      dup3\n      mstore\n        /* \"#utility.yul\":7991:8004   */\n      dup3\n      mload\n        /* \"#utility.yul\":7971:7989   */\n      dup3\n      dup3\n      add\n        /* \"#utility.yul\":7964:8005   */\n      mstore\n        /* \"#utility.yul\":8051:8066   */\n      dup3\n      dup2\n      add\n        /* \"#utility.yul\":8045:8067   */\n      mload\n        /* \"#utility.yul\":8069:8087   */\n      0xffffffffffffffff\n        /* \"#utility.yul\":8041:8088   */\n      and\n        /* \"#utility.yul\":8036:8038   */\n      0x40\n        /* \"#utility.yul\":8021:8039   */\n      dup1\n      dup5\n      add\n        /* \"#utility.yul\":8014:8089   */\n      swap2\n      swap1\n      swap2\n      mstore\n        /* \"#utility.yul\":8124:8139   */\n      dup4\n      add\n        /* \"#utility.yul\":8118:8140   */\n      mload\n      sub(shl(0xa0, 0x01), 0x01)\n        /* \"#utility.yul\":8214:8235   */\n      swap1\n      dup2\n      and\n        /* \"#utility.yul\":8209:8211   */\n      0x60\n        /* \"#utility.yul\":8194:8212   */\n      dup1\n      dup6\n      add\n        /* \"#utility.yul\":8187:8236   */\n      swap2\n      swap1\n      swap2\n      mstore\n        /* \"#utility.yul\":8273:8288   */\n      dup5\n      add\n        /* \"#utility.yul\":8267:8289   */\n      mload\n        /* \"#utility.yul\":8167:8170   */\n      0xa0\n        /* \"#utility.yul\":8320:8323   */\n      0x80\n        /* \"#utility.yul\":8305:8324   */\n      dup6\n      add\n        /* \"#utility.yul\":8298:8331   */\n      mstore\n        /* \"#utility.yul\":8380:8401   */\n      dup1\n      mload\n        /* \"#utility.yul\":7951:7954   */\n      0xc0\n        /* \"#utility.yul\":7936:7955   */\n      dup6\n      add\n        /* \"#utility.yul\":8410:8432   */\n      dup2\n      swap1\n      mstore\n        /* \"#utility.yul\":7852:7856   */\n      0x00\n      swap4\n        /* \"#utility.yul\":7881:7883   */\n      swap3\n        /* \"#utility.yul\":8490:8513   */\n      swap2\n      dup4\n      add\n      swap2\n        /* \"#utility.yul\":7852:7856   */\n      dup5\n      swap2\n        /* \"#utility.yul\":8463:8466   */\n      0xe0\n        /* \"#utility.yul\":8448:8467   */\n      dup8\n      add\n      swap1\n        /* \"#utility.yul\":8541:8719   */\n    tag_250:\n        /* \"#utility.yul\":8555:8561   */\n      dup1\n        /* \"#utility.yul\":8552:8553   */\n      dup5\n        /* \"#utility.yul\":8549:8562   */\n      lt\n        /* \"#utility.yul\":8541:8719   */\n      iszero\n      tag_252\n      jumpi\n        /* \"#utility.yul\":8620:8633   */\n      dup5\n      mload\n        /* \"#utility.yul\":8616:8638   */\n      dup4\n      and\n        /* \"#utility.yul\":8604:8639   */\n      dup3\n      mstore\n        /* \"#utility.yul\":8694:8709   */\n      swap4\n      dup6\n      add\n      swap4\n        /* \"#utility.yul\":8577:8578   */\n      0x01\n        /* \"#utility.yul\":8570:8579   */\n      swap4\n      swap1\n      swap4\n      add\n      swap3\n        /* \"#utility.yul\":8659:8671   */\n      swap1\n      dup6\n      add\n      swap1\n        /* \"#utility.yul\":8541:8719   */\n      jump(tag_250)\n    tag_252:\n      pop\n        /* \"#utility.yul\":8768:8771   */\n      0x80\n        /* \"#utility.yul\":8756:8772   */\n      dup9\n      add\n        /* \"#utility.yul\":8750:8773   */\n      mload\n      sub(shl(0xa0, 0x01), 0x01)\n        /* \"#utility.yul\":5266:5297   */\n      dup2\n      and\n        /* \"#utility.yul\":8832:8836   */\n      0xa0\n        /* \"#utility.yul\":8817:8837   */\n      dup10\n      add\n        /* \"#utility.yul\":5254:5298   */\n      mstore\n        /* \"#utility.yul\":8750:8773   */\n      swap5\n      pop\n        /* \"#utility.yul\":8855:8858   */\n      swap8\n        /* \"#utility.yul\":7692:8864   */\n      swap7\n      pop\n      pop\n      pop\n      pop\n      pop\n      pop\n      pop\n      jump\t// out\n        /* \"#utility.yul\":8869:9203   */\n    tag_71:\n        /* \"#utility.yul\":9071:9073   */\n      0x20\n        /* \"#utility.yul\":9053:9074   */\n      dup1\n      dup3\n      mstore\n        /* \"#utility.yul\":9110:9112   */\n      0x0a\n        /* \"#utility.yul\":9090:9108   */\n      swap1\n      dup3\n      add\n        /* \"#utility.yul\":9083:9113   */\n      mstore\n      shl(0xb0, 0x61646d696e206f6e6c79)\n        /* \"#utility.yul\":9144:9146   */\n      0x40\n        /* \"#utility.yul\":9129:9147   */\n      dup3\n      add\n        /* \"#utility.yul\":9122:9162   */\n      mstore\n        /* \"#utility.yul\":9194:9196   */\n      0x60\n        /* \"#utility.yul\":9179:9197   */\n      add\n      swap1\n        /* \"#utility.yul\":8869:9203   */\n      jump\t// out\n        /* \"#utility.yul\":9208:9588   */\n    tag_84:\n        /* \"#utility.yul\":9287:9288   */\n      0x01\n        /* \"#utility.yul\":9283:9295   */\n      dup2\n      dup2\n      shr\n      swap1\n        /* \"#utility.yul\":9330:9342   */\n      dup3\n      and\n      dup1\n        /* \"#utility.yul\":9351:9412   */\n      tag_256\n      jumpi\n        /* \"#utility.yul\":9405:9409   */\n      0x7f\n        /* \"#utility.yul\":9397:9403   */\n      dup3\n        /* \"#utility.yul\":9393:9410   */\n      and\n        /* \"#utility.yul\":9383:9410   */\n      swap2\n      pop\n        /* \"#utility.yul\":9351:9412   */\n    tag_256:\n        /* \"#utility.yul\":9458:9460   */\n      0x20\n        /* \"#utility.yul\":9450:9456   */\n      dup3\n        /* \"#utility.yul\":9447:9461   */\n      lt\n        /* \"#utility.yul\":9427:9445   */\n      dup2\n        /* \"#utility.yul\":9424:9462   */\n      sub\n        /* \"#utility.yul\":9421:9582   */\n      tag_257\n      jumpi\n        /* \"#utility.yul\":9504:9514   */\n      0x4e487b71\n        /* \"#utility.yul\":9499:9502   */\n      0xe0\n        /* \"#utility.yul\":9495:9515   */\n      shl\n        /* \"#utility.yul\":9492:9493   */\n      0x00\n        /* \"#utility.yul\":9485:9516   */\n      mstore\n        /* \"#utility.yul\":9539:9543   */\n      0x22\n        /* \"#utility.yul\":9536:9537   */\n      0x04\n        /* \"#utility.yul\":9529:9544   */\n      mstore\n        /* \"#utility.yul\":9567:9571   */\n      0x24\n        /* \"#utility.yul\":9564:9565   */\n      0x00\n        /* \"#utility.yul\":9557:9572   */\n      revert\n        /* \"#utility.yul\":9421:9582   */\n    tag_257:\n      pop\n        /* \"#utility.yul\":9208:9588   */\n      swap2\n      swap1\n      pop\n      jump\t// out\n        /* \"#utility.yul\":9593:10242   */\n    tag_97:\n        /* \"#utility.yul\":9673:9679   */\n      0x00\n        /* \"#utility.yul\":9726:9728   */\n      0x20\n        /* \"#utility.yul\":9714:9723   */\n      dup3\n        /* \"#utility.yul\":9705:9712   */\n      dup5\n        /* \"#utility.yul\":9701:9724   */\n      sub\n        /* \"#utility.yul\":9697:9729   */\n      slt\n        /* \"#utility.yul\":9694:9746   */\n      iszero\n      tag_259\n      jumpi\n        /* \"#utility.yul\":9742:9743   */\n      0x00\n        /* \"#utility.yul\":9739:9740   */\n      dup1\n        /* \"#utility.yul\":9732:9744   */\n      revert\n        /* \"#utility.yul\":9694:9746   */\n    tag_259:\n        /* \"#utility.yul\":9775:9784   */\n      dup2\n        /* \"#utility.yul\":9769:9785   */\n      mload\n        /* \"#utility.yul\":9808:9826   */\n      0xffffffffffffffff\n        /* \"#utility.yul\":9800:9806   */\n      dup2\n        /* \"#utility.yul\":9797:9827   */\n      gt\n        /* \"#utility.yul\":9794:9844   */\n      iszero\n      tag_260\n      jumpi\n        /* \"#utility.yul\":9840:9841   */\n      0x00\n        /* \"#utility.yul\":9837:9838   */\n      dup1\n        /* \"#utility.yul\":9830:9842   */\n      revert\n        /* \"#utility.yul\":9794:9844   */\n    tag_260:\n        /* \"#utility.yul\":9863:9885   */\n      dup3\n      add\n        /* \"#utility.yul\":9916:9920   */\n      0x1f\n        /* \"#utility.yul\":9908:9921   */\n      dup2\n      add\n        /* \"#utility.yul\":9904:9931   */\n      dup5\n      sgt\n        /* \"#utility.yul\":9894:9949   */\n      tag_261\n      jumpi\n        /* \"#utility.yul\":9945:9946   */\n      0x00\n        /* \"#utility.yul\":9942:9943   */\n      dup1\n        /* \"#utility.yul\":9935:9947   */\n      revert\n        /* \"#utility.yul\":9894:9949   */\n    tag_261:\n        /* \"#utility.yul\":9974:9976   */\n      dup1\n        /* \"#utility.yul\":9968:9977   */\n      mload\n        /* \"#utility.yul\":9999:10048   */\n      tag_262\n        /* \"#utility.yul\":10015:10047   */\n      tag_221\n        /* \"#utility.yul\":10044:10046   */\n      dup3\n        /* \"#utility.yul\":10015:10047   */\n      tag_171\n      jump\t// in\n        /* \"#utility.yul\":9999:10048   */\n    tag_262:\n        /* \"#utility.yul\":10071:10073   */\n      dup2\n        /* \"#utility.yul\":10064:10069   */\n      dup2\n        /* \"#utility.yul\":10057:10074   */\n      mstore\n        /* \"#utility.yul\":10111:10118   */\n      dup6\n        /* \"#utility.yul\":10106:10108   */\n      0x20\n        /* \"#utility.yul\":10101:10103   */\n      dup4\n        /* \"#utility.yul\":10097:10099   */\n      dup6\n        /* \"#utility.yul\":10093:10104   */\n      add\n        /* \"#utility.yul\":10089:10109   */\n      add\n        /* \"#utility.yul\":10086:10119   */\n      gt\n        /* \"#utility.yul\":10083:10136   */\n      iszero\n      tag_264\n      jumpi\n        /* \"#utility.yul\":10132:10133   */\n      0x00\n        /* \"#utility.yul\":10129:10130   */\n      dup1\n        /* \"#utility.yul\":10122:10134   */\n      revert\n        /* \"#utility.yul\":10083:10136   */\n    tag_264:\n        /* \"#utility.yul\":10145:10212   */\n      tag_265\n        /* \"#utility.yul\":10209:10211   */\n      dup3\n        /* \"#utility.yul\":10204:10206   */\n      0x20\n        /* \"#utility.yul\":10197:10202   */\n      dup4\n        /* \"#utility.yul\":10193:10207   */\n      add\n        /* \"#utility.yul\":10188:10190   */\n      0x20\n        /* \"#utility.yul\":10184:10186   */\n      dup7\n        /* \"#utility.yul\":10180:10191   */\n      add\n        /* \"#utility.yul\":10145:10212   */\n      tag_166\n      jump\t// in\n    tag_265:\n        /* \"#utility.yul\":10231:10236   */\n      swap6\n        /* \"#utility.yul\":9593:10242   */\n      swap5\n      pop\n      pop\n      pop\n      pop\n      pop\n      jump\t// out\n        /* \"#utility.yul\":10247:10431   */\n    tag_101:\n        /* \"#utility.yul\":10317:10323   */\n      0x00\n        /* \"#utility.yul\":10370:10372   */\n      0x20\n        /* \"#utility.yul\":10358:10367   */\n      dup3\n        /* \"#utility.yul\":10349:10356   */\n      dup5\n        /* \"#utility.yul\":10345:10368   */\n      sub\n        /* \"#utility.yul\":10341:10373   */\n      slt\n        /* \"#utility.yul\":10338:10390   */\n      iszero\n      tag_267\n      jumpi\n        /* \"#utility.yul\":10386:10387   */\n      0x00\n        /* \"#utility.yul\":10383:10384   */\n      dup1\n        /* \"#utility.yul\":10376:10388   */\n      revert\n        /* \"#utility.yul\":10338:10390   */\n    tag_267:\n      pop\n        /* \"#utility.yul\":10409:10425   */\n      mload\n      swap2\n        /* \"#utility.yul\":10247:10431   */\n      swap1\n      pop\n      jump\t// out\n        /* \"#utility.yul\":10436:10725   */\n    tag_104:\n        /* \"#utility.yul\":10567:10570   */\n      0x00\n        /* \"#utility.yul\":10605:10611   */\n      dup3\n        /* \"#utility.yul\":10599:10612   */\n      mload\n        /* \"#utility.yul\":10621:10687   */\n      tag_269\n        /* \"#utility.yul\":10680:10686   */\n      dup2\n        /* \"#utility.yul\":10675:10678   */\n      dup5\n        /* \"#utility.yul\":10668:10672   */\n      0x20\n        /* \"#utility.yul\":10660:10666   */\n      dup8\n        /* \"#utility.yul\":10656:10673   */\n      add\n        /* \"#utility.yul\":10621:10687   */\n      tag_166\n      jump\t// in\n    tag_269:\n        /* \"#utility.yul\":10703:10719   */\n      swap2\n      swap1\n      swap2\n      add\n      swap3\n        /* \"#utility.yul\":10436:10725   */\n      swap2\n      pop\n      pop\n      jump\t// out\n        /* \"#utility.yul\":10730:10857   */\n    tag_118:\n        /* \"#utility.yul\":10791:10801   */\n      0x4e487b71\n        /* \"#utility.yul\":10786:10789   */\n      0xe0\n        /* \"#utility.yul\":10782:10802   */\n      shl\n        /* \"#utility.yul\":10779:10780   */\n      0x00\n        /* \"#utility.yul\":10772:10803   */\n      mstore\n        /* \"#utility.yul\":10822:10826   */\n      0x32\n        /* \"#utility.yul\":10819:10820   */\n      0x04\n        /* \"#utility.yul\":10812:10827   */\n      mstore\n        /* \"#utility.yul\":10846:10850   */\n      0x24\n        /* \"#utility.yul\":10843:10844   */\n      0x00\n        /* \"#utility.yul\":10836:10851   */\n      revert\n        /* \"#utility.yul\":10988:11831   */\n    tag_129:\n        /* \"#utility.yul\":11116:11119   */\n      0x00\n        /* \"#utility.yul\":11145:11146   */\n      dup1\n        /* \"#utility.yul\":11178:11184   */\n      dup4\n        /* \"#utility.yul\":11172:11185   */\n      sload\n        /* \"#utility.yul\":11208:11244   */\n      tag_273\n        /* \"#utility.yul\":11234:11243   */\n      dup2\n        /* \"#utility.yul\":11208:11244   */\n      tag_84\n      jump\t// in\n    tag_273:\n        /* \"#utility.yul\":11263:11264   */\n      0x01\n        /* \"#utility.yul\":11280:11297   */\n      dup3\n      dup2\n      and\n        /* \"#utility.yul\":11306:11439   */\n      dup1\n      iszero\n      tag_275\n      jumpi\n        /* \"#utility.yul\":11453:11454   */\n      0x01\n        /* \"#utility.yul\":11448:11806   */\n      dup2\n      eq\n      tag_276\n      jumpi\n        /* \"#utility.yul\":11273:11806   */\n      jump(tag_274)\n        /* \"#utility.yul\":11306:11439   */\n    tag_275:\n      not(0xff)\n        /* \"#utility.yul\":11339:11363   */\n      dup5\n      and\n        /* \"#utility.yul\":11327:11364   */\n      dup8\n      mstore\n        /* \"#utility.yul\":11412:11426   */\n      dup3\n      iszero\n        /* \"#utility.yul\":11405:11427   */\n      iszero\n        /* \"#utility.yul\":11393:11428   */\n      dup4\n      mul\n        /* \"#utility.yul\":11384:11429   */\n      dup8\n      add\n      swap5\n      pop\n        /* \"#utility.yul\":11306:11439   */\n      jump(tag_274)\n        /* \"#utility.yul\":11448:11806   */\n    tag_276:\n        /* \"#utility.yul\":11479:11485   */\n      dup8\n        /* \"#utility.yul\":11476:11477   */\n      0x00\n        /* \"#utility.yul\":11469:11486   */\n      mstore\n        /* \"#utility.yul\":11509:11513   */\n      0x20\n        /* \"#utility.yul\":11554:11558   */\n      dup1\n        /* \"#utility.yul\":11551:11552   */\n      0x00\n        /* \"#utility.yul\":11541:11559   */\n      keccak256\n        /* \"#utility.yul\":11581:11582   */\n      0x00\n        /* \"#utility.yul\":11595:11760   */\n    tag_277:\n        /* \"#utility.yul\":11609:11615   */\n      dup6\n        /* \"#utility.yul\":11606:11607   */\n      dup2\n        /* \"#utility.yul\":11603:11616   */\n      lt\n        /* \"#utility.yul\":11595:11760   */\n      iszero\n      tag_279\n      jumpi\n        /* \"#utility.yul\":11687:11701   */\n      dup2\n      sload\n        /* \"#utility.yul\":11674:11685   */\n      dup11\n      dup3\n      add\n        /* \"#utility.yul\":11667:11702   */\n      mstore\n        /* \"#utility.yul\":11730:11746   */\n      swap1\n      dup5\n      add\n      swap1\n        /* \"#utility.yul\":11624:11634   */\n      dup3\n      add\n        /* \"#utility.yul\":11595:11760   */\n      jump(tag_277)\n    tag_279:\n        /* \"#utility.yul\":11599:11602   */\n      pop\n      pop\n      pop\n        /* \"#utility.yul\":11789:11795   */\n      dup3\n        /* \"#utility.yul\":11784:11787   */\n      dup8\n        /* \"#utility.yul\":11780:11796   */\n      add\n        /* \"#utility.yul\":11773:11796   */\n      swap5\n      pop\n        /* \"#utility.yul\":11273:11806   */\n    tag_274:\n      pop\n        /* \"#utility.yul\":11822:11825   */\n      swap3\n      swap7\n        /* \"#utility.yul\":10988:11831   */\n      swap6\n      pop\n      pop\n      pop\n      pop\n      pop\n      pop\n      jump\t// out\n        /* \"#utility.yul\":11836:12379   */\n    tag_175:\n        /* \"#utility.yul\":11938:11940   */\n      0x1f\n        /* \"#utility.yul\":11933:11936   */\n      dup3\n        /* \"#utility.yul\":11930:11941   */\n      gt\n        /* \"#utility.yul\":11927:12373   */\n      iszero\n      tag_281\n      jumpi\n        /* \"#utility.yul\":11974:11975   */\n      0x00\n        /* \"#utility.yul\":11998:12003   */\n      dup2\n        /* \"#utility.yul\":11995:11996   */\n      0x00\n        /* \"#utility.yul\":11988:12004   */\n      mstore\n        /* \"#utility.yul\":12042:12046   */\n      0x20\n        /* \"#utility.yul\":12039:12040   */\n      0x00\n        /* \"#utility.yul\":12029:12047   */\n      keccak256\n        /* \"#utility.yul\":12112:12114   */\n      0x1f\n        /* \"#utility.yul\":12100:12110   */\n      dup6\n        /* \"#utility.yul\":12096:12115   */\n      add\n        /* \"#utility.yul\":12093:12094   */\n      0x05\n        /* \"#utility.yul\":12089:12116   */\n      shr\n        /* \"#utility.yul\":12083:12087   */\n      dup2\n        /* \"#utility.yul\":12079:12117   */\n      add\n        /* \"#utility.yul\":12148:12152   */\n      0x20\n        /* \"#utility.yul\":12136:12146   */\n      dup7\n        /* \"#utility.yul\":12133:12153   */\n      lt\n        /* \"#utility.yul\":12130:12177   */\n      iszero\n      tag_282\n      jumpi\n      pop\n        /* \"#utility.yul\":12171:12175   */\n      dup1\n        /* \"#utility.yul\":12130:12177   */\n    tag_282:\n        /* \"#utility.yul\":12226:12228   */\n      0x1f\n        /* \"#utility.yul\":12221:12224   */\n      dup6\n        /* \"#utility.yul\":12217:12229   */\n      add\n        /* \"#utility.yul\":12214:12215   */\n      0x05\n        /* \"#utility.yul\":12210:12230   */\n      shr\n        /* \"#utility.yul\":12204:12208   */\n      dup3\n        /* \"#utility.yul\":12200:12231   */\n      add\n        /* \"#utility.yul\":12190:12231   */\n      swap2\n      pop\n        /* \"#utility.yul\":12281:12363   */\n    tag_283:\n        /* \"#utility.yul\":12299:12301   */\n      dup2\n        /* \"#utility.yul\":12292:12297   */\n      dup2\n        /* \"#utility.yul\":12289:12302   */\n      lt\n        /* \"#utility.yul\":12281:12363   */\n      iszero\n      tag_285\n      jumpi\n        /* \"#utility.yul\":12344:12361   */\n      dup3\n      dup2\n      sstore\n        /* \"#utility.yul\":12325:12326   */\n      0x01\n        /* \"#utility.yul\":12314:12327   */\n      add\n        /* \"#utility.yul\":12281:12363   */\n      jump(tag_283)\n    tag_285:\n        /* \"#utility.yul\":12285:12288   */\n      pop\n      pop\n      pop\n        /* \"#utility.yul\":11927:12373   */\n    tag_281:\n        /* \"#utility.yul\":11836:12379   */\n      pop\n      pop\n      pop\n      jump\t// out\n        /* \"#utility.yul\":12555:13900   */\n    tag_156:\n        /* \"#utility.yul\":12681:12684   */\n      dup2\n        /* \"#utility.yul\":12675:12685   */\n      mload\n        /* \"#utility.yul\":12708:12726   */\n      0xffffffffffffffff\n        /* \"#utility.yul\":12700:12706   */\n      dup2\n        /* \"#utility.yul\":12697:12727   */\n      gt\n        /* \"#utility.yul\":12694:12750   */\n      iszero\n      tag_289\n      jumpi\n        /* \"#utility.yul\":12730:12748   */\n      tag_289\n      tag_108\n      jump\t// in\n    tag_289:\n        /* \"#utility.yul\":12759:12856   */\n      tag_290\n        /* \"#utility.yul\":12849:12855   */\n      dup2\n        /* \"#utility.yul\":12809:12847   */\n      tag_291\n        /* \"#utility.yul\":12841:12845   */\n      dup5\n        /* \"#utility.yul\":12835:12846   */\n      sload\n        /* \"#utility.yul\":12809:12847   */\n      tag_84\n      jump\t// in\n    tag_291:\n        /* \"#utility.yul\":12803:12807   */\n      dup5\n        /* \"#utility.yul\":12759:12856   */\n      tag_175\n      jump\t// in\n    tag_290:\n        /* \"#utility.yul\":12911:12915   */\n      0x20\n      dup1\n        /* \"#utility.yul\":12968:12970   */\n      0x1f\n        /* \"#utility.yul\":12957:12971   */\n      dup4\n      gt\n        /* \"#utility.yul\":12985:12986   */\n      0x01\n        /* \"#utility.yul\":12980:13643   */\n      dup2\n      eq\n      tag_293\n      jumpi\n        /* \"#utility.yul\":13687:13688   */\n      0x00\n        /* \"#utility.yul\":13704:13710   */\n      dup5\n        /* \"#utility.yul\":13701:13790   */\n      iszero\n      tag_294\n      jumpi\n      pop\n        /* \"#utility.yul\":13756:13775   */\n      dup6\n      dup4\n      add\n        /* \"#utility.yul\":13750:13776   */\n      mload\n        /* \"#utility.yul\":13701:13790   */\n    tag_294:\n      not(0x00)\n        /* \"#utility.yul\":12512:12513   */\n      0x03\n        /* \"#utility.yul\":12508:12519   */\n      dup7\n      swap1\n      shl\n        /* \"#utility.yul\":12504:12528   */\n      shr\n        /* \"#utility.yul\":12500:12529   */\n      not\n        /* \"#utility.yul\":12490:12530   */\n      and\n        /* \"#utility.yul\":12536:12537   */\n      0x01\n        /* \"#utility.yul\":12532:12543   */\n      dup6\n      swap1\n      shl\n        /* \"#utility.yul\":12487:12544   */\n      or\n        /* \"#utility.yul\":13803:13884   */\n      dup6\n      sstore\n        /* \"#utility.yul\":12950:13894   */\n      jump(tag_285)\n        /* \"#utility.yul\":12980:13643   */\n    tag_293:\n        /* \"#utility.yul\":10935:10936   */\n      0x00\n        /* \"#utility.yul\":10928:10942   */\n      dup6\n      dup2\n      mstore\n        /* \"#utility.yul\":10972:10976   */\n      0x20\n        /* \"#utility.yul\":10959:10977   */\n      dup2\n      keccak256\n      not(0x1f)\n        /* \"#utility.yul\":13016:13036   */\n      dup7\n      and\n      swap2\n        /* \"#utility.yul\":13134:13370   */\n    tag_297:\n        /* \"#utility.yul\":13148:13155   */\n      dup3\n        /* \"#utility.yul\":13145:13146   */\n      dup2\n        /* \"#utility.yul\":13142:13156   */\n      lt\n        /* \"#utility.yul\":13134:13370   */\n      iszero\n      tag_299\n      jumpi\n        /* \"#utility.yul\":13237:13256   */\n      dup9\n      dup7\n      add\n        /* \"#utility.yul\":13231:13257   */\n      mload\n        /* \"#utility.yul\":13216:13258   */\n      dup3\n      sstore\n        /* \"#utility.yul\":13329:13356   */\n      swap5\n      dup5\n      add\n      swap5\n        /* \"#utility.yul\":13297:13298   */\n      0x01\n        /* \"#utility.yul\":13285:13299   */\n      swap1\n      swap2\n      add\n      swap1\n        /* \"#utility.yul\":13164:13183   */\n      dup5\n      add\n        /* \"#utility.yul\":13134:13370   */\n      jump(tag_297)\n    tag_299:\n        /* \"#utility.yul\":13138:13141   */\n      pop\n        /* \"#utility.yul\":13398:13404   */\n      dup6\n        /* \"#utility.yul\":13389:13396   */\n      dup3\n        /* \"#utility.yul\":13386:13405   */\n      lt\n        /* \"#utility.yul\":13383:13584   */\n      iszero\n      tag_300\n      jumpi\n        /* \"#utility.yul\":13459:13478   */\n      dup8\n      dup6\n      add\n        /* \"#utility.yul\":13453:13479   */\n      mload\n      not(0x00)\n        /* \"#utility.yul\":13542:13543   */\n      0x03\n        /* \"#utility.yul\":13538:13552   */\n      dup9\n      swap1\n      shl\n        /* \"#utility.yul\":13554:13557   */\n      0xf8\n        /* \"#utility.yul\":13534:13558   */\n      and\n        /* \"#utility.yul\":13530:13567   */\n      shr\n        /* \"#utility.yul\":13526:13568   */\n      not\n        /* \"#utility.yul\":13511:13569   */\n      and\n        /* \"#utility.yul\":13496:13570   */\n      dup2\n      sstore\n        /* \"#utility.yul\":13383:13584   */\n    tag_300:\n      pop\n      pop\n      pop\n      pop\n      pop\n        /* \"#utility.yul\":13630:13631   */\n      0x01\n        /* \"#utility.yul\":13614:13628   */\n      swap1\n      dup2\n      shl\n        /* \"#utility.yul\":13610:13632   */\n      add\n        /* \"#utility.yul\":13597:13633   */\n      swap1\n      sstore\n      pop\n        /* \"#utility.yul\":12555:13900   */\n      jump\t// out\n\n    auxdata: 0xa2646970667358221220e3e6a988fd2b32295254f7170bc7a04133c3ae76c5c9534068d3b52017dfed1164736f6c63430008170033\n}\n",
				"bytecode": {
					"linkReferences": {},
					"object": "60c06040523480156200001157600080fd5b5060405162001615380380620016158339810160408190526200003491620001f8565b600180546001600160a01b0319166001600160a01b03841617905560808190523060a090815260408051808201909152601381527f52455345525645445f4d5f524547495354455200000000000000000000000000602082015290516200009e91906002620000dd565b5060408051808201909152601081526f2922a9a2a92b22a22fa6afa0a226a4a760811b6020820152620000d490836000620000dd565b505050620003d8565b6000600384604051620000f1919062000234565b9081526040519081900360200190205460ff166200017d5760016003856040516200011d919062000234565b908152604051908190036020019020805491151560ff19909216919091179055600280546001810182556000919091527f405787fa12a823e0f2b7631cc41b3ba8828b3321ca811111fa75cd3aa3bb5ace016200017b85826200030c565b505b8260048560405162000190919062000234565b908152604080516020928190038301902080546001600160a01b0319166001600160a01b039485161790559185166000908152600590915220620001d585826200030c565b50506001600160a01b039190911660009081526006602052604090205550600190565b600080604083850312156200020c57600080fd5b82516001600160a01b03811681146200022457600080fd5b6020939093015192949293505050565b6000825160005b818110156200025757602081860181015185830152016200023b565b506000920191825250919050565b634e487b7160e01b600052604160045260246000fd5b600181811c908216806200029057607f821691505b602082108103620002b157634e487b7160e01b600052602260045260246000fd5b50919050565b601f82111562000307576000816000526020600020601f850160051c81016020861015620002e25750805b601f850160051c820191505b818110156200030357828155600101620002ee565b5050505b505050565b81516001600160401b0381111562000328576200032862000265565b62000340816200033984546200027b565b84620002b7565b602080601f8311600181146200037857600084156200035f5750858301515b600019600386901b1c1916600185901b17855562000303565b600085815260208120601f198616915b82811015620003a95788860151825594840194600190910190840162000388565b5085821015620003c85787850151600019600388901b60f8161c191681555b5050505050600190811b01905550565b60805160a05161121a620003fb600039600050506000610121015261121a6000f3fe608060405234801561001057600080fd5b50600436106100a95760003560e01c80635fd4b08a116100715780635fd4b08a1461015857806370d8046c1461016b578063bf40fac11461017e578063c3f909d4146101a9578063cd838f0f146101be578063cea27c36146101d357600080fd5b80630d8e6e2c146100ae57806317d7de7c146100c457806333db0050146100fc5780633408e4701461011f5780635b1ad53614610145575b600080fd5b60025b6040519081526020015b60405180910390f35b6040805180820190915260138152722922a9a2a92b22a22fa6afa922a3a4a9aa22a960691b60208201525b6040516100bb9190610ab3565b61010f61010a366004610b54565b6101f3565b60405190151581526020016100bb565b7f00000000000000000000000000000000000000000000000000000000000000006100b1565b61010f610153366004610ced565b6102cf565b6100ef610166366004610d44565b61030f565b61010f610179366004610d44565b6103bb565b61019161018c366004610d5f565b6104c8565b6040516001600160a01b0390911681526020016100bb565b6101b16104f9565b6040516100bb9190610d94565b6101c661071c565b6040516100bb9190610e20565b6101e66101e1366004610e84565b6107f5565b6040516100bb9190610e9d565b6001546000906001600160a01b031633146102295760405162461bcd60e51b815260040161022090610f3d565b60405180910390fd5b81516000908152600760209081526040918290208451815581850151600182018054948701516001600160a01b0316600160401b026001600160e01b031990951667ffffffffffffffff90921691909117939093179092556060840151805185939261029c9260028501929101906109f2565b5060809190910151600390910180546001600160a01b0319166001600160a01b039092169190911790555060015b919050565b6001546000906001600160a01b031633146102fc5760405162461bcd60e51b815260040161022090610f3d565b6103078484846108e2565b949350505050565b6001600160a01b038116600090815260056020526040902080546060919061033690610f61565b80601f016020809104026020016040519081016040528092919081815260200182805461036290610f61565b80156103af5780601f10610384576101008083540402835291602001916103af565b820191906000526020600020905b81548152906001019060200180831161039257829003601f168201915b50505050509050919050565b6001546000906001600160a01b031633146103e85760405162461bcd60e51b815260040161022090610f3d565b60008290506104be816001600160a01b03166317d7de7c6040518163ffffffff1660e01b8152600401600060405180830381865afa15801561042e573d6000803e3d6000fd5b505050506040513d6000823e601f3d908101601f191682016040526104569190810190610f9b565b84836001600160a01b0316630d8e6e2c6040518163ffffffff1660e01b8152600401602060405180830381865afa158015610495573d6000803e3d6000fd5b505050506040513d601f19601f820116820180604052508101906104b99190611012565b6108e2565b5060019392505050565b60006004826040516104da919061102b565b908152604051908190036020019020546001600160a01b031692915050565b60025460609067ffffffffffffffff81111561051757610517610acd565b60405190808252806020026020018201604052801561057557816020015b61056260405180606001604052806060815260200160006001600160a01b03168152602001600081525090565b8152602001906001900390816105355790505b50905060005b8151811015610718576040518060600160405280600283815481106105a2576105a2611047565b9060005260206000200180546105b790610f61565b80601f01602080910402602001604051908101604052809291908181526020018280546105e390610f61565b80156106305780601f1061060557610100808354040283529160200191610630565b820191906000526020600020905b81548152906001019060200180831161061357829003601f168201915b5050505050815260200160046002848154811061064f5761064f611047565b90600052602060002001604051610666919061105d565b908152602001604051809103902060009054906101000a90046001600160a01b03166001600160a01b03168152602001600660006004600286815481106106af576106af611047565b906000526020600020016040516106c6919061105d565b9081526040805160209281900383019020546001600160a01b031683529082019290925201600020549052825183908390811061070557610705611047565b602090810291909101015260010161057b565b5090565b60606002805480602002602001604051908101604052809291908181526020016000905b828210156107ec57838290600052602060002001805461075f90610f61565b80601f016020809104026020016040519081016040528092919081815260200182805461078b90610f61565b80156107d85780601f106107ad576101008083540402835291602001916107d8565b820191906000526020600020905b8154815290600101906020018083116107bb57829003601f168201915b505050505081526020019060010190610740565b50505050905090565b6040805160a0810182526000808252602082018190529181018290526060808201526080810191909152600082815260076020908152604091829020825160a08101845281548152600182015467ffffffffffffffff811682850152600160401b90046001600160a01b03168185015260028201805485518186028101860190965280865291949293606086019392908301828280156108be57602002820191906000526020600020905b81546001600160a01b031681526001909101906020018083116108a0575b5050509183525050600391909101546001600160a01b031660209091015292915050565b60006003846040516108f4919061102b565b9081526040519081900360200190205460ff1661097b57600160038560405161091d919061102b565b908152604051908190036020019020805491151560ff19909216919091179055600280546001810182556000919091527f405787fa12a823e0f2b7631cc41b3ba8828b3321ca811111fa75cd3aa3bb5ace016109798582611124565b505b8260048560405161098c919061102b565b908152604080516020928190038301902080546001600160a01b0319166001600160a01b0394851617905591851660009081526005909152206109cf8582611124565b50506001600160a01b039190911660009081526006602052604090205550600190565b828054828255906000526020600020908101928215610a47579160200282015b82811115610a4757825182546001600160a01b0319166001600160a01b03909116178255602090920191600190910190610a12565b506107189291505b808211156107185760008155600101610a4f565b60005b83811015610a7e578181015183820152602001610a66565b50506000910152565b60008151808452610a9f816020860160208601610a63565b601f01601f19169290920160200192915050565b602081526000610ac66020830184610a87565b9392505050565b634e487b7160e01b600052604160045260246000fd5b60405160a0810167ffffffffffffffff81118282101715610b0657610b06610acd565b60405290565b604051601f8201601f1916810167ffffffffffffffff81118282101715610b3557610b35610acd565b604052919050565b80356001600160a01b03811681146102ca57600080fd5b60006020808385031215610b6757600080fd5b823567ffffffffffffffff80821115610b7f57600080fd5b9084019060a08287031215610b9357600080fd5b610b9b610ae3565b82358152838301358281168114610bb157600080fd5b81850152610bc160408401610b3d565b6040820152606083013582811115610bd857600080fd5b8301601f81018813610be957600080fd5b803583811115610bfb57610bfb610acd565b8060051b9350610c0c868501610b0c565b818152938201860193868101908a861115610c2657600080fd5b928701925b85841015610c4b57610c3c84610b3d565b82529287019290870190610c2b565b606085015250610c6091505060808401610b3d565b60808201529695505050505050565b600067ffffffffffffffff821115610c8957610c89610acd565b50601f01601f191660200190565b600082601f830112610ca857600080fd5b8135610cbb610cb682610c6f565b610b0c565b818152846020838601011115610cd057600080fd5b816020850160208301376000918101602001919091529392505050565b600080600060608486031215610d0257600080fd5b833567ffffffffffffffff811115610d1957600080fd5b610d2586828701610c97565b935050610d3460208501610b3d565b9150604084013590509250925092565b600060208284031215610d5657600080fd5b610ac682610b3d565b600060208284031215610d7157600080fd5b813567ffffffffffffffff811115610d8857600080fd5b61030784828501610c97565b600060208083018184528085518083526040925060408601915060408160051b87010184880160005b83811015610e1257603f19898403018552815160608151818652610de382870182610a87565b838b01516001600160a01b0316878c015292890151958901959095525094870194925090860190600101610dbd565b509098975050505050505050565b600060208083016020845280855180835260408601915060408160051b87010192506020870160005b82811015610e7757603f19888603018452610e65858351610a87565b94509285019290850190600101610e49565b5092979650505050505050565b600060208284031215610e9657600080fd5b5035919050565b60208082528251828201528281015167ffffffffffffffff166040808401919091528301516001600160a01b0390811660608085019190915284015160a06080850152805160c085018190526000939291830191849160e08701905b80841015610f1b57845183168252938501936001939093019290850190610ef9565b5060808801516001600160a01b03811660a08901529450979650505050505050565b6020808252600a908201526961646d696e206f6e6c7960b01b604082015260600190565b600181811c90821680610f7557607f821691505b602082108103610f9557634e487b7160e01b600052602260045260246000fd5b50919050565b600060208284031215610fad57600080fd5b815167ffffffffffffffff811115610fc457600080fd5b8201601f81018413610fd557600080fd5b8051610fe3610cb682610c6f565b818152856020838501011115610ff857600080fd5b611009826020830160208601610a63565b95945050505050565b60006020828403121561102457600080fd5b5051919050565b6000825161103d818460208701610a63565b9190910192915050565b634e487b7160e01b600052603260045260246000fd5b600080835461106b81610f61565b600182811680156110835760018114611098576110c7565b60ff19841687528215158302870194506110c7565b8760005260208060002060005b858110156110be5781548a8201529084019082016110a5565b50505082870194505b50929695505050505050565b601f82111561111f576000816000526020600020601f850160051c810160208610156110fc5750805b601f850160051c820191505b8181101561111b57828155600101611108565b5050505b505050565b815167ffffffffffffffff81111561113e5761113e610acd565b6111528161114c8454610f61565b846110d3565b602080601f831160018114611187576000841561116f5750858301515b600019600386901b1c1916600185901b17855561111b565b600085815260208120601f198616915b828110156111b657888601518255948401946001909101908401611197565b50858210156111d45787850151600019600388901b60f8161c191681555b5050505050600190811b0190555056fea2646970667358221220e3e6a988fd2b32295254f7170bc7a04133c3ae76c5c9534068d3b52017dfed1164736f6c63430008170033",
					"opcodes": "PUSH1 0xC0 PUSH1 0x40 MSTORE CALLVALUE DUP1 ISZERO PUSH3 0x11 JUMPI PUSH1 0x0 DUP1 REVERT JUMPDEST POP PUSH1 0x40 MLOAD PUSH3 0x1615 CODESIZE SUB DUP1 PUSH3 0x1615 DUP4 CODECOPY DUP2 ADD PUSH1 0x40 DUP2 SWAP1 MSTORE PUSH3 0x34 SWAP2 PUSH3 0x1F8 JUMP JUMPDEST PUSH1 0x1 DUP1 SLOAD PUSH1 0x1 PUSH1 0x1 PUSH1 0xA0 SHL SUB NOT AND PUSH1 0x1 PUSH1 0x1 PUSH1 0xA0 SHL SUB DUP5 AND OR SWAP1 SSTORE PUSH1 0x80 DUP2 SWAP1 MSTORE ADDRESS PUSH1 0xA0 SWAP1 DUP2 MSTORE PUSH1 0x40 DUP1 MLOAD DUP1 DUP3 ADD SWAP1 SWAP2 MSTORE PUSH1 0x13 DUP2 MSTORE PUSH32 0x52455345525645445F4D5F524547495354455200000000000000000000000000 PUSH1 0x20 DUP3 ADD MSTORE SWAP1 MLOAD PUSH3 0x9E SWAP2 SWAP1 PUSH1 0x2 PUSH3 0xDD JUMP JUMPDEST POP PUSH1 0x40 DUP1 MLOAD DUP1 DUP3 ADD SWAP1 SWAP2 MSTORE PUSH1 0x10 DUP2 MSTORE PUSH16 0x2922A9A2A92B22A22FA6AFA0A226A4A7 PUSH1 0x81 SHL PUSH1 0x20 DUP3 ADD MSTORE PUSH3 0xD4 SWAP1 DUP4 PUSH1 0x0 PUSH3 0xDD JUMP JUMPDEST POP POP POP PUSH3 0x3D8 JUMP JUMPDEST PUSH1 0x0 PUSH1 0x3 DUP5 PUSH1 0x40 MLOAD PUSH3 0xF1 SWAP2 SWAP1 PUSH3 0x234 JUMP JUMPDEST SWAP1 DUP2 MSTORE PUSH1 0x40 MLOAD SWAP1 DUP2 SWAP1 SUB PUSH1 0x20 ADD SWAP1 KECCAK256 SLOAD PUSH1 0xFF AND PUSH3 0x17D JUMPI PUSH1 0x1 PUSH1 0x3 DUP6 PUSH1 0x40 MLOAD PUSH3 0x11D SWAP2 SWAP1 PUSH3 0x234 JUMP JUMPDEST SWAP1 DUP2 MSTORE PUSH1 0x40 MLOAD SWAP1 DUP2 SWAP1 SUB PUSH1 0x20 ADD SWAP1 KECCAK256 DUP1 SLOAD SWAP2 ISZERO ISZERO PUSH1 0xFF NOT SWAP1 SWAP3 AND SWAP2 SWAP1 SWAP2 OR SWAP1 SSTORE PUSH1 0x2 DUP1 SLOAD PUSH1 0x1 DUP2 ADD DUP3 SSTORE PUSH1 0x0 SWAP2 SWAP1 SWAP2 MSTORE PUSH32 0x405787FA12A823E0F2B7631CC41B3BA8828B3321CA811111FA75CD3AA3BB5ACE ADD PUSH3 0x17B DUP6 DUP3 PUSH3 0x30C JUMP JUMPDEST POP JUMPDEST DUP3 PUSH1 0x4 DUP6 PUSH1 0x40 MLOAD PUSH3 0x190 SWAP2 SWAP1 PUSH3 0x234 JUMP JUMPDEST SWAP1 DUP2 MSTORE PUSH1 0x40 DUP1 MLOAD PUSH1 0x20 SWAP3 DUP2 SWAP1 SUB DUP4 ADD SWAP1 KECCAK256 DUP1 SLOAD PUSH1 0x1 PUSH1 0x1 PUSH1 0xA0 SHL SUB NOT AND PUSH1 0x1 PUSH1 0x1 PUSH1 0xA0 SHL SUB SWAP5 DUP6 AND OR SWAP1 SSTORE SWAP2 DUP6 AND PUSH1 0x0 SWAP1 DUP2 MSTORE PUSH1 0x5 SWAP1 SWAP2 MSTORE KECCAK256 PUSH3 0x1D5 DUP6 DUP3 PUSH3 0x30C JUMP JUMPDEST POP POP PUSH1 0x1 PUSH1 0x1 PUSH1 0xA0 SHL SUB SWAP2 SWAP1 SWAP2 AND PUSH1 0x0 SWAP1 DUP2 MSTORE PUSH1 0x6 PUSH1 0x20 MSTORE PUSH1 0x40 SWAP1 KECCAK256 SSTORE POP PUSH1 0x1 SWAP1 JUMP JUMPDEST PUSH1 0x0 DUP1 PUSH1 0x40 DUP4 DUP6 SUB SLT ISZERO PUSH3 0x20C JUMPI PUSH1 0x0 DUP1 REVERT JUMPDEST DUP3 MLOAD PUSH1 0x1 PUSH1 0x1 PUSH1 0xA0 SHL SUB DUP2 AND DUP2 EQ PUSH3 0x224 JUMPI PUSH1 0x0 DUP1 REVERT JUMPDEST PUSH1 0x20 SWAP4 SWAP1 SWAP4 ADD MLOAD SWAP3 SWAP5 SWAP3 SWAP4 POP POP POP JUMP JUMPDEST PUSH1 0x0 DUP3 MLOAD PUSH1 0x0 JUMPDEST DUP2 DUP2 LT ISZERO PUSH3 0x257 JUMPI PUSH1 0x20 DUP2 DUP7 ADD DUP2 ADD MLOAD DUP6 DUP4 ADD MSTORE ADD PUSH3 0x23B JUMP JUMPDEST POP PUSH1 0x0 SWAP3 ADD SWAP2 DUP3 MSTORE POP SWAP2 SWAP1 POP JUMP JUMPDEST PUSH4 0x4E487B71 PUSH1 0xE0 SHL PUSH1 0x0 MSTORE PUSH1 0x41 PUSH1 0x4 MSTORE PUSH1 0x24 PUSH1 0x0 REVERT JUMPDEST PUSH1 0x1 DUP2 DUP2 SHR SWAP1 DUP3 AND DUP1 PUSH3 0x290 JUMPI PUSH1 0x7F DUP3 AND SWAP2 POP JUMPDEST PUSH1 0x20 DUP3 LT DUP2 SUB PUSH3 0x2B1 JUMPI PUSH4 0x4E487B71 PUSH1 0xE0 SHL PUSH1 0x0 MSTORE PUSH1 0x22 PUSH1 0x4 MSTORE PUSH1 0x24 PUSH1 0x0 REVERT JUMPDEST POP SWAP2 SWAP1 POP JUMP JUMPDEST PUSH1 0x1F DUP3 GT ISZERO PUSH3 0x307 JUMPI PUSH1 0x0 DUP2 PUSH1 0x0 MSTORE PUSH1 0x20 PUSH1 0x0 KECCAK256 PUSH1 0x1F DUP6 ADD PUSH1 0x5 SHR DUP2 ADD PUSH1 0x20 DUP7 LT ISZERO PUSH3 0x2E2 JUMPI POP DUP1 JUMPDEST PUSH1 0x1F DUP6 ADD PUSH1 0x5 SHR DUP3 ADD SWAP2 POP JUMPDEST DUP2 DUP2 LT ISZERO PUSH3 0x303 JUMPI DUP3 DUP2 SSTORE PUSH1 0x1 ADD PUSH3 0x2EE JUMP JUMPDEST POP POP POP JUMPDEST POP POP POP JUMP JUMPDEST DUP2 MLOAD PUSH1 0x1 PUSH1 0x1 PUSH1 0x40 SHL SUB DUP2 GT ISZERO PUSH3 0x328 JUMPI PUSH3 0x328 PUSH3 0x265 JUMP JUMPDEST PUSH3 0x340 DUP2 PUSH3 0x339 DUP5 SLOAD PUSH3 0x27B JUMP JUMPDEST DUP5 PUSH3 0x2B7 JUMP JUMPDEST PUSH1 0x20 DUP1 PUSH1 0x1F DUP4 GT PUSH1 0x1 DUP2 EQ PUSH3 0x378 JUMPI PUSH1 0x0 DUP5 ISZERO PUSH3 0x35F JUMPI POP DUP6 DUP4 ADD MLOAD JUMPDEST PUSH1 0x0 NOT PUSH1 0x3 DUP7 SWAP1 SHL SHR NOT AND PUSH1 0x1 DUP6 SWAP1 SHL OR DUP6 SSTORE PUSH3 0x303 JUMP JUMPDEST PUSH1 0x0 DUP6 DUP2 MSTORE PUSH1 0x20 DUP2 KECCAK256 PUSH1 0x1F NOT DUP7 AND SWAP2 JUMPDEST DUP3 DUP2 LT ISZERO PUSH3 0x3A9 JUMPI DUP9 DUP7 ADD MLOAD DUP3 SSTORE SWAP5 DUP5 ADD SWAP5 PUSH1 0x1 SWAP1 SWAP2 ADD SWAP1 DUP5 ADD PUSH3 0x388 JUMP JUMPDEST POP DUP6 DUP3 LT ISZERO PUSH3 0x3C8 JUMPI DUP8 DUP6 ADD MLOAD PUSH1 0x0 NOT PUSH1 0x3 DUP9 SWAP1 SHL PUSH1 0xF8 AND SHR NOT AND DUP2 SSTORE JUMPDEST POP POP POP POP POP PUSH1 0x1 SWAP1 DUP2 SHL ADD SWAP1 SSTORE POP JUMP JUMPDEST PUSH1 0x80 MLOAD PUSH1 0xA0 MLOAD PUSH2 0x121A PUSH3 0x3FB PUSH1 0x0 CODECOPY PUSH1 0x0 POP POP PUSH1 0x0 PUSH2 0x121 ADD MSTORE PUSH2 0x121A PUSH1 0x0 RETURN INVALID PUSH1 0x80 PUSH1 0x40 MSTORE CALLVALUE DUP1 ISZERO PUSH2 0x10 JUMPI PUSH1 0x0 DUP1 REVERT JUMPDEST POP PUSH1 0x4 CALLDATASIZE LT PUSH2 0xA9 JUMPI PUSH1 0x0 CALLDATALOAD PUSH1 0xE0 SHR DUP1 PUSH4 0x5FD4B08A GT PUSH2 0x71 JUMPI DUP1 PUSH4 0x5FD4B08A EQ PUSH2 0x158 JUMPI DUP1 PUSH4 0x70D8046C EQ PUSH2 0x16B JUMPI DUP1 PUSH4 0xBF40FAC1 EQ PUSH2 0x17E JUMPI DUP1 PUSH4 0xC3F909D4 EQ PUSH2 0x1A9 JUMPI DUP1 PUSH4 0xCD838F0F EQ PUSH2 0x1BE JUMPI DUP1 PUSH4 0xCEA27C36 EQ PUSH2 0x1D3 JUMPI PUSH1 0x0 DUP1 REVERT JUMPDEST DUP1 PUSH4 0xD8E6E2C EQ PUSH2 0xAE JUMPI DUP1 PUSH4 0x17D7DE7C EQ PUSH2 0xC4 JUMPI DUP1 PUSH4 0x33DB0050 EQ PUSH2 0xFC JUMPI DUP1 PUSH4 0x3408E470 EQ PUSH2 0x11F JUMPI DUP1 PUSH4 0x5B1AD536 EQ PUSH2 0x145 JUMPI JUMPDEST PUSH1 0x0 DUP1 REVERT JUMPDEST PUSH1 0x2 JUMPDEST PUSH1 0x40 MLOAD SWAP1 DUP2 MSTORE PUSH1 0x20 ADD JUMPDEST PUSH1 0x40 MLOAD DUP1 SWAP2 SUB SWAP1 RETURN JUMPDEST PUSH1 0x40 DUP1 MLOAD DUP1 DUP3 ADD SWAP1 SWAP2 MSTORE PUSH1 0x13 DUP2 MSTORE PUSH19 0x2922A9A2A92B22A22FA6AFA922A3A4A9AA22A9 PUSH1 0x69 SHL PUSH1 0x20 DUP3 ADD MSTORE JUMPDEST PUSH1 0x40 MLOAD PUSH2 0xBB SWAP2 SWAP1 PUSH2 0xAB3 JUMP JUMPDEST PUSH2 0x10F PUSH2 0x10A CALLDATASIZE PUSH1 0x4 PUSH2 0xB54 JUMP JUMPDEST PUSH2 0x1F3 JUMP JUMPDEST PUSH1 0x40 MLOAD SWAP1 ISZERO ISZERO DUP2 MSTORE PUSH1 0x20 ADD PUSH2 0xBB JUMP JUMPDEST PUSH32 0x0 PUSH2 0xB1 JUMP JUMPDEST PUSH2 0x10F PUSH2 0x153 CALLDATASIZE PUSH1 0x4 PUSH2 0xCED JUMP JUMPDEST PUSH2 0x2CF JUMP JUMPDEST PUSH2 0xEF PUSH2 0x166 CALLDATASIZE PUSH1 0x4 PUSH2 0xD44 JUMP JUMPDEST PUSH2 0x30F JUMP JUMPDEST PUSH2 0x10F PUSH2 0x179 CALLDATASIZE PUSH1 0x4 PUSH2 0xD44 JUMP JUMPDEST PUSH2 0x3BB JUMP JUMPDEST PUSH2 0x191 PUSH2 0x18C CALLDATASIZE PUSH1 0x4 PUSH2 0xD5F JUMP JUMPDEST PUSH2 0x4C8 JUMP JUMPDEST PUSH1 0x40 MLOAD PUSH1 0x1 PUSH1 0x1 PUSH1 0xA0 SHL SUB SWAP1 SWAP2 AND DUP2 MSTORE PUSH1 0x20 ADD PUSH2 0xBB JUMP JUMPDEST PUSH2 0x1B1 PUSH2 0x4F9 JUMP JUMPDEST PUSH1 0x40 MLOAD PUSH2 0xBB SWAP2 SWAP1 PUSH2 0xD94 JUMP JUMPDEST PUSH2 0x1C6 PUSH2 0x71C JUMP JUMPDEST PUSH1 0x40 MLOAD PUSH2 0xBB SWAP2 SWAP1 PUSH2 0xE20 JUMP JUMPDEST PUSH2 0x1E6 PUSH2 0x1E1 CALLDATASIZE PUSH1 0x4 PUSH2 0xE84 JUMP JUMPDEST PUSH2 0x7F5 JUMP JUMPDEST PUSH1 0x40 MLOAD PUSH2 0xBB SWAP2 SWAP1 PUSH2 0xE9D JUMP JUMPDEST PUSH1 0x1 SLOAD PUSH1 0x0 SWAP1 PUSH1 0x1 PUSH1 0x1 PUSH1 0xA0 SHL SUB AND CALLER EQ PUSH2 0x229 JUMPI PUSH1 0x40 MLOAD PUSH3 0x461BCD PUSH1 0xE5 SHL DUP2 MSTORE PUSH1 0x4 ADD PUSH2 0x220 SWAP1 PUSH2 0xF3D JUMP JUMPDEST PUSH1 0x40 MLOAD DUP1 SWAP2 SUB SWAP1 REVERT JUMPDEST DUP2 MLOAD PUSH1 0x0 SWAP1 DUP2 MSTORE PUSH1 0x7 PUSH1 0x20 SWAP1 DUP2 MSTORE PUSH1 0x40 SWAP2 DUP3 SWAP1 KECCAK256 DUP5 MLOAD DUP2 SSTORE DUP2 DUP6 ADD MLOAD PUSH1 0x1 DUP3 ADD DUP1 SLOAD SWAP5 DUP8 ADD MLOAD PUSH1 0x1 PUSH1 0x1 PUSH1 0xA0 SHL SUB AND PUSH1 0x1 PUSH1 0x40 SHL MUL PUSH1 0x1 PUSH1 0x1 PUSH1 0xE0 SHL SUB NOT SWAP1 SWAP6 AND PUSH8 0xFFFFFFFFFFFFFFFF SWAP1 SWAP3 AND SWAP2 SWAP1 SWAP2 OR SWAP4 SWAP1 SWAP4 OR SWAP1 SWAP3 SSTORE PUSH1 0x60 DUP5 ADD MLOAD DUP1 MLOAD DUP6 SWAP4 SWAP3 PUSH2 0x29C SWAP3 PUSH1 0x2 DUP6 ADD SWAP3 SWAP2 ADD SWAP1 PUSH2 0x9F2 JUMP JUMPDEST POP PUSH1 0x80 SWAP2 SWAP1 SWAP2 ADD MLOAD PUSH1 0x3 SWAP1 SWAP2 ADD DUP1 SLOAD PUSH1 0x1 PUSH1 0x1 PUSH1 0xA0 SHL SUB NOT AND PUSH1 0x1 PUSH1 0x1 PUSH1 0xA0 SHL SUB SWAP1 SWAP3 AND SWAP2 SWAP1 SWAP2 OR SWAP1 SSTORE POP PUSH1 0x1 JUMPDEST SWAP2 SWAP1 POP JUMP JUMPDEST PUSH1 0x1 SLOAD PUSH1 0x0 SWAP1 PUSH1 0x1 PUSH1 0x1 PUSH1 0xA0 SHL SUB AND CALLER EQ PUSH2 0x2FC JUMPI PUSH1 0x40 MLOAD PUSH3 0x461BCD PUSH1 0xE5 SHL DUP2 MSTORE PUSH1 0x4 ADD PUSH2 0x220 SWAP1 PUSH2 0xF3D JUMP JUMPDEST PUSH2 0x307 DUP5 DUP5 DUP5 PUSH2 0x8E2 JUMP JUMPDEST SWAP5 SWAP4 POP POP POP POP JUMP JUMPDEST PUSH1 0x1 PUSH1 0x1 PUSH1 0xA0 SHL SUB DUP2 AND PUSH1 0x0 SWAP1 DUP2 MSTORE PUSH1 0x5 PUSH1 0x20 MSTORE PUSH1 0x40 SWAP1 KECCAK256 DUP1 SLOAD PUSH1 0x60 SWAP2 SWAP1 PUSH2 0x336 SWAP1 PUSH2 0xF61 JUMP JUMPDEST DUP1 PUSH1 0x1F ADD PUSH1 0x20 DUP1 SWAP2 DIV MUL PUSH1 0x20 ADD PUSH1 0x40 MLOAD SWAP1 DUP2 ADD PUSH1 0x40 MSTORE DUP1 SWAP3 SWAP2 SWAP1 DUP2 DUP2 MSTORE PUSH1 0x20 ADD DUP3 DUP1 SLOAD PUSH2 0x362 SWAP1 PUSH2 0xF61 JUMP JUMPDEST DUP1 ISZERO PUSH2 0x3AF JUMPI DUP1 PUSH1 0x1F LT PUSH2 0x384 JUMPI PUSH2 0x100 DUP1 DUP4 SLOAD DIV MUL DUP4 MSTORE SWAP2 PUSH1 0x20 ADD SWAP2 PUSH2 0x3AF JUMP JUMPDEST DUP3 ADD SWAP2 SWAP1 PUSH1 0x0 MSTORE PUSH1 0x20 PUSH1 0x0 KECCAK256 SWAP1 JUMPDEST DUP2 SLOAD DUP2 MSTORE SWAP1 PUSH1 0x1 ADD SWAP1 PUSH1 0x20 ADD DUP1 DUP4 GT PUSH2 0x392 JUMPI DUP3 SWAP1 SUB PUSH1 0x1F AND DUP3 ADD SWAP2 JUMPDEST POP POP POP POP POP SWAP1 POP SWAP2 SWAP1 POP JUMP JUMPDEST PUSH1 0x1 SLOAD PUSH1 0x0 SWAP1 PUSH1 0x1 PUSH1 0x1 PUSH1 0xA0 SHL SUB AND CALLER EQ PUSH2 0x3E8 JUMPI PUSH1 0x40 MLOAD PUSH3 0x461BCD PUSH1 0xE5 SHL DUP2 MSTORE PUSH1 0x4 ADD PUSH2 0x220 SWAP1 PUSH2 0xF3D JUMP JUMPDEST PUSH1 0x0 DUP3 SWAP1 POP PUSH2 0x4BE DUP2 PUSH1 0x1 PUSH1 0x1 PUSH1 0xA0 SHL SUB AND PUSH4 0x17D7DE7C PUSH1 0x40 MLOAD DUP2 PUSH4 0xFFFFFFFF AND PUSH1 0xE0 SHL DUP2 MSTORE PUSH1 0x4 ADD PUSH1 0x0 PUSH1 0x40 MLOAD DUP1 DUP4 SUB DUP2 DUP7 GAS STATICCALL ISZERO DUP1 ISZERO PUSH2 0x42E JUMPI RETURNDATASIZE PUSH1 0x0 DUP1 RETURNDATACOPY RETURNDATASIZE PUSH1 0x0 REVERT JUMPDEST POP POP POP POP PUSH1 0x40 MLOAD RETURNDATASIZE PUSH1 0x0 DUP3 RETURNDATACOPY PUSH1 0x1F RETURNDATASIZE SWAP1 DUP2 ADD PUSH1 0x1F NOT AND DUP3 ADD PUSH1 0x40 MSTORE PUSH2 0x456 SWAP2 SWAP1 DUP2 ADD SWAP1 PUSH2 0xF9B JUMP JUMPDEST DUP5 DUP4 PUSH1 0x1 PUSH1 0x1 PUSH1 0xA0 SHL SUB AND PUSH4 0xD8E6E2C PUSH1 0x40 MLOAD DUP2 PUSH4 0xFFFFFFFF AND PUSH1 0xE0 SHL DUP2 MSTORE PUSH1 0x4 ADD PUSH1 0x20 PUSH1 0x40 MLOAD DUP1 DUP4 SUB DUP2 DUP7 GAS STATICCALL ISZERO DUP1 ISZERO PUSH2 0x495 JUMPI RETURNDATASIZE PUSH1 0x0 DUP1 RETURNDATACOPY RETURNDATASIZE PUSH1 0x0 REVERT JUMPDEST POP POP POP POP PUSH1 0x40 MLOAD RETURNDATASIZE PUSH1 0x1F NOT PUSH1 0x1F DUP3 ADD AND DUP3 ADD DUP1 PUSH1 0x40 MSTORE POP DUP2 ADD SWAP1 PUSH2 0x4B9 SWAP2 SWAP1 PUSH2 0x1012 JUMP JUMPDEST PUSH2 0x8E2 JUMP JUMPDEST POP PUSH1 0x1 SWAP4 SWAP3 POP POP POP JUMP JUMPDEST PUSH1 0x0 PUSH1 0x4 DUP3 PUSH1 0x40 MLOAD PUSH2 0x4DA SWAP2 SWAP1 PUSH2 0x102B JUMP JUMPDEST SWAP1 DUP2 MSTORE PUSH1 0x40 MLOAD SWAP1 DUP2 SWAP1 SUB PUSH1 0x20 ADD SWAP1 KECCAK256 SLOAD PUSH1 0x1 PUSH1 0x1 PUSH1 0xA0 SHL SUB AND SWAP3 SWAP2 POP POP JUMP JUMPDEST PUSH1 0x2 SLOAD PUSH1 0x60 SWAP1 PUSH8 0xFFFFFFFFFFFFFFFF DUP2 GT ISZERO PUSH2 0x517 JUMPI PUSH2 0x517 PUSH2 0xACD JUMP JUMPDEST PUSH1 0x40 MLOAD SWAP1 DUP1 DUP3 MSTORE DUP1 PUSH1 0x20 MUL PUSH1 0x20 ADD DUP3 ADD PUSH1 0x40 MSTORE DUP1 ISZERO PUSH2 0x575 JUMPI DUP2 PUSH1 0x20 ADD JUMPDEST PUSH2 0x562 PUSH1 0x40 MLOAD DUP1 PUSH1 0x60 ADD PUSH1 0x40 MSTORE DUP1 PUSH1 0x60 DUP2 MSTORE PUSH1 0x20 ADD PUSH1 0x0 PUSH1 0x1 PUSH1 0x1 PUSH1 0xA0 SHL SUB AND DUP2 MSTORE PUSH1 0x20 ADD PUSH1 0x0 DUP2 MSTORE POP SWAP1 JUMP JUMPDEST DUP2 MSTORE PUSH1 0x20 ADD SWAP1 PUSH1 0x1 SWAP1 SUB SWAP1 DUP2 PUSH2 0x535 JUMPI SWAP1 POP JUMPDEST POP SWAP1 POP PUSH1 0x0 JUMPDEST DUP2 MLOAD DUP2 LT ISZERO PUSH2 0x718 JUMPI PUSH1 0x40 MLOAD DUP1 PUSH1 0x60 ADD PUSH1 0x40 MSTORE DUP1 PUSH1 0x2 DUP4 DUP2 SLOAD DUP2 LT PUSH2 0x5A2 JUMPI PUSH2 0x5A2 PUSH2 0x1047 JUMP JUMPDEST SWAP1 PUSH1 0x0 MSTORE PUSH1 0x20 PUSH1 0x0 KECCAK256 ADD DUP1 SLOAD PUSH2 0x5B7 SWAP1 PUSH2 0xF61 JUMP JUMPDEST DUP1 PUSH1 0x1F ADD PUSH1 0x20 DUP1 SWAP2 DIV MUL PUSH1 0x20 ADD PUSH1 0x40 MLOAD SWAP1 DUP2 ADD PUSH1 0x40 MSTORE DUP1 SWAP3 SWAP2 SWAP1 DUP2 DUP2 MSTORE PUSH1 0x20 ADD DUP3 DUP1 SLOAD PUSH2 0x5E3 SWAP1 PUSH2 0xF61 JUMP JUMPDEST DUP1 ISZERO PUSH2 0x630 JUMPI DUP1 PUSH1 0x1F LT PUSH2 0x605 JUMPI PUSH2 0x100 DUP1 DUP4 SLOAD DIV MUL DUP4 MSTORE SWAP2 PUSH1 0x20 ADD SWAP2 PUSH2 0x630 JUMP JUMPDEST DUP3 ADD SWAP2 SWAP1 PUSH1 0x0 MSTORE PUSH1 0x20 PUSH1 0x0 KECCAK256 SWAP1 JUMPDEST DUP2 SLOAD DUP2 MSTORE SWAP1 PUSH1 0x1 ADD SWAP1 PUSH1 0x20 ADD DUP1 DUP4 GT PUSH2 0x613 JUMPI DUP3 SWAP1 SUB PUSH1 0x1F AND DUP3 ADD SWAP2 JUMPDEST POP POP POP POP POP DUP2 MSTORE PUSH1 0x20 ADD PUSH1 0x4 PUSH1 0x2 DUP5 DUP2 SLOAD DUP2 LT PUSH2 0x64F JUMPI PUSH2 0x64F PUSH2 0x1047 JUMP JUMPDEST SWAP1 PUSH1 0x0 MSTORE PUSH1 0x20 PUSH1 0x0 KECCAK256 ADD PUSH1 0x40 MLOAD PUSH2 0x666 SWAP2 SWAP1 PUSH2 0x105D JUMP JUMPDEST SWAP1 DUP2 MSTORE PUSH1 0x20 ADD PUSH1 0x40 MLOAD DUP1 SWAP2 SUB SWAP1 KECCAK256 PUSH1 0x0 SWAP1 SLOAD SWAP1 PUSH2 0x100 EXP SWAP1 DIV PUSH1 0x1 PUSH1 0x1 PUSH1 0xA0 SHL SUB AND PUSH1 0x1 PUSH1 0x1 PUSH1 0xA0 SHL SUB AND DUP2 MSTORE PUSH1 0x20 ADD PUSH1 0x6 PUSH1 0x0 PUSH1 0x4 PUSH1 0x2 DUP7 DUP2 SLOAD DUP2 LT PUSH2 0x6AF JUMPI PUSH2 0x6AF PUSH2 0x1047 JUMP JUMPDEST SWAP1 PUSH1 0x0 MSTORE PUSH1 0x20 PUSH1 0x0 KECCAK256 ADD PUSH1 0x40 MLOAD PUSH2 0x6C6 SWAP2 SWAP1 PUSH2 0x105D JUMP JUMPDEST SWAP1 DUP2 MSTORE PUSH1 0x40 DUP1 MLOAD PUSH1 0x20 SWAP3 DUP2 SWAP1 SUB DUP4 ADD SWAP1 KECCAK256 SLOAD PUSH1 0x1 PUSH1 0x1 PUSH1 0xA0 SHL SUB AND DUP4 MSTORE SWAP1 DUP3 ADD SWAP3 SWAP1 SWAP3 MSTORE ADD PUSH1 0x0 KECCAK256 SLOAD SWAP1 MSTORE DUP3 MLOAD DUP4 SWAP1 DUP4 SWAP1 DUP2 LT PUSH2 0x705 JUMPI PUSH2 0x705 PUSH2 0x1047 JUMP JUMPDEST PUSH1 0x20 SWAP1 DUP2 MUL SWAP2 SWAP1 SWAP2 ADD ADD MSTORE PUSH1 0x1 ADD PUSH2 0x57B JUMP JUMPDEST POP SWAP1 JUMP JUMPDEST PUSH1 0x60 PUSH1 0x2 DUP1 SLOAD DUP1 PUSH1 0x20 MUL PUSH1 0x20 ADD PUSH1 0x40 MLOAD SWAP1 DUP2 ADD PUSH1 0x40 MSTORE DUP1 SWAP3 SWAP2 SWAP1 DUP2 DUP2 MSTORE PUSH1 0x20 ADD PUSH1 0x0 SWAP1 JUMPDEST DUP3 DUP3 LT ISZERO PUSH2 0x7EC JUMPI DUP4 DUP3 SWAP1 PUSH1 0x0 MSTORE PUSH1 0x20 PUSH1 0x0 KECCAK256 ADD DUP1 SLOAD PUSH2 0x75F SWAP1 PUSH2 0xF61 JUMP JUMPDEST DUP1 PUSH1 0x1F ADD PUSH1 0x20 DUP1 SWAP2 DIV MUL PUSH1 0x20 ADD PUSH1 0x40 MLOAD SWAP1 DUP2 ADD PUSH1 0x40 MSTORE DUP1 SWAP3 SWAP2 SWAP1 DUP2 DUP2 MSTORE PUSH1 0x20 ADD DUP3 DUP1 SLOAD PUSH2 0x78B SWAP1 PUSH2 0xF61 JUMP JUMPDEST DUP1 ISZERO PUSH2 0x7D8 JUMPI DUP1 PUSH1 0x1F LT PUSH2 0x7AD JUMPI PUSH2 0x100 DUP1 DUP4 SLOAD DIV MUL DUP4 MSTORE SWAP2 PUSH1 0x20 ADD SWAP2 PUSH2 0x7D8 JUMP JUMPDEST DUP3 ADD SWAP2 SWAP1 PUSH1 0x0 MSTORE PUSH1 0x20 PUSH1 0x0 KECCAK256 SWAP1 JUMPDEST DUP2 SLOAD DUP2 MSTORE SWAP1 PUSH1 0x1 ADD SWAP1 PUSH1 0x20 ADD DUP1 DUP4 GT PUSH2 0x7BB JUMPI DUP3 SWAP1 SUB PUSH1 0x1F AND DUP3 ADD SWAP2 JUMPDEST POP POP POP POP POP DUP2 MSTORE PUSH1 0x20 ADD SWAP1 PUSH1 0x1 ADD SWAP1 PUSH2 0x740 JUMP JUMPDEST POP POP POP POP SWAP1 POP SWAP1 JUMP JUMPDEST PUSH1 0x40 DUP1 MLOAD PUSH1 0xA0 DUP2 ADD DUP3 MSTORE PUSH1 0x0 DUP1 DUP3 MSTORE PUSH1 0x20 DUP3 ADD DUP2 SWAP1 MSTORE SWAP2 DUP2 ADD DUP3 SWAP1 MSTORE PUSH1 0x60 DUP1 DUP3 ADD MSTORE PUSH1 0x80 DUP2 ADD SWAP2 SWAP1 SWAP2 MSTORE PUSH1 0x0 DUP3 DUP2 MSTORE PUSH1 0x7 PUSH1 0x20 SWAP1 DUP2 MSTORE PUSH1 0x40 SWAP2 DUP3 SWAP1 KECCAK256 DUP3 MLOAD PUSH1 0xA0 DUP2 ADD DUP5 MSTORE DUP2 SLOAD DUP2 MSTORE PUSH1 0x1 DUP3 ADD SLOAD PUSH8 0xFFFFFFFFFFFFFFFF DUP2 AND DUP3 DUP6 ADD MSTORE PUSH1 0x1 PUSH1 0x40 SHL SWAP1 DIV PUSH1 0x1 PUSH1 0x1 PUSH1 0xA0 SHL SUB AND DUP2 DUP6 ADD MSTORE PUSH1 0x2 DUP3 ADD DUP1 SLOAD DUP6 MLOAD DUP2 DUP7 MUL DUP2 ADD DUP7 ADD SWAP1 SWAP7 MSTORE DUP1 DUP7 MSTORE SWAP2 SWAP5 SWAP3 SWAP4 PUSH1 0x60 DUP7 ADD SWAP4 SWAP3 SWAP1 DUP4 ADD DUP3 DUP3 DUP1 ISZERO PUSH2 0x8BE JUMPI PUSH1 0x20 MUL DUP3 ADD SWAP2 SWAP1 PUSH1 0x0 MSTORE PUSH1 0x20 PUSH1 0x0 KECCAK256 SWAP1 JUMPDEST DUP2 SLOAD PUSH1 0x1 PUSH1 0x1 PUSH1 0xA0 SHL SUB AND DUP2 MSTORE PUSH1 0x1 SWAP1 SWAP2 ADD SWAP1 PUSH1 0x20 ADD DUP1 DUP4 GT PUSH2 0x8A0 JUMPI JUMPDEST POP POP POP SWAP2 DUP4 MSTORE POP POP PUSH1 0x3 SWAP2 SWAP1 SWAP2 ADD SLOAD PUSH1 0x1 PUSH1 0x1 PUSH1 0xA0 SHL SUB AND PUSH1 0x20 SWAP1 SWAP2 ADD MSTORE SWAP3 SWAP2 POP POP JUMP JUMPDEST PUSH1 0x0 PUSH1 0x3 DUP5 PUSH1 0x40 MLOAD PUSH2 0x8F4 SWAP2 SWAP1 PUSH2 0x102B JUMP JUMPDEST SWAP1 DUP2 MSTORE PUSH1 0x40 MLOAD SWAP1 DUP2 SWAP1 SUB PUSH1 0x20 ADD SWAP1 KECCAK256 SLOAD PUSH1 0xFF AND PUSH2 0x97B JUMPI PUSH1 0x1 PUSH1 0x3 DUP6 PUSH1 0x40 MLOAD PUSH2 0x91D SWAP2 SWAP1 PUSH2 0x102B JUMP JUMPDEST SWAP1 DUP2 MSTORE PUSH1 0x40 MLOAD SWAP1 DUP2 SWAP1 SUB PUSH1 0x20 ADD SWAP1 KECCAK256 DUP1 SLOAD SWAP2 ISZERO ISZERO PUSH1 0xFF NOT SWAP1 SWAP3 AND SWAP2 SWAP1 SWAP2 OR SWAP1 SSTORE PUSH1 0x2 DUP1 SLOAD PUSH1 0x1 DUP2 ADD DUP3 SSTORE PUSH1 0x0 SWAP2 SWAP1 SWAP2 MSTORE PUSH32 0x405787FA12A823E0F2B7631CC41B3BA8828B3321CA811111FA75CD3AA3BB5ACE ADD PUSH2 0x979 DUP6 DUP3 PUSH2 0x1124 JUMP JUMPDEST POP JUMPDEST DUP3 PUSH1 0x4 DUP6 PUSH1 0x40 MLOAD PUSH2 0x98C SWAP2 SWAP1 PUSH2 0x102B JUMP JUMPDEST SWAP1 DUP2 MSTORE PUSH1 0x40 DUP1 MLOAD PUSH1 0x20 SWAP3 DUP2 SWAP1 SUB DUP4 ADD SWAP1 KECCAK256 DUP1 SLOAD PUSH1 0x1 PUSH1 0x1 PUSH1 0xA0 SHL SUB NOT AND PUSH1 0x1 PUSH1 0x1 PUSH1 0xA0 SHL SUB SWAP5 DUP6 AND OR SWAP1 SSTORE SWAP2 DUP6 AND PUSH1 0x0 SWAP1 DUP2 MSTORE PUSH1 0x5 SWAP1 SWAP2 MSTORE KECCAK256 PUSH2 0x9CF DUP6 DUP3 PUSH2 0x1124 JUMP JUMPDEST POP POP PUSH1 0x1 PUSH1 0x1 PUSH1 0xA0 SHL SUB SWAP2 SWAP1 SWAP2 AND PUSH1 0x0 SWAP1 DUP2 MSTORE PUSH1 0x6 PUSH1 0x20 MSTORE PUSH1 0x40 SWAP1 KECCAK256 SSTORE POP PUSH1 0x1 SWAP1 JUMP JUMPDEST DUP3 DUP1 SLOAD DUP3 DUP3 SSTORE SWAP1 PUSH1 0x0 MSTORE PUSH1 0x20 PUSH1 0x0 KECCAK256 SWAP1 DUP2 ADD SWAP3 DUP3 ISZERO PUSH2 0xA47 JUMPI SWAP2 PUSH1 0x20 MUL DUP3 ADD JUMPDEST DUP3 DUP2 GT ISZERO PUSH2 0xA47 JUMPI DUP3 MLOAD DUP3 SLOAD PUSH1 0x1 PUSH1 0x1 PUSH1 0xA0 SHL SUB NOT AND PUSH1 0x1 PUSH1 0x1 PUSH1 0xA0 SHL SUB SWAP1 SWAP2 AND OR DUP3 SSTORE PUSH1 0x20 SWAP1 SWAP3 ADD SWAP2 PUSH1 0x1 SWAP1 SWAP2 ADD SWAP1 PUSH2 0xA12 JUMP JUMPDEST POP PUSH2 0x718 SWAP3 SWAP2 POP JUMPDEST DUP1 DUP3 GT ISZERO PUSH2 0x718 JUMPI PUSH1 0x0 DUP2 SSTORE PUSH1 0x1 ADD PUSH2 0xA4F JUMP JUMPDEST PUSH1 0x0 JUMPDEST DUP4 DUP2 LT ISZERO PUSH2 0xA7E JUMPI DUP2 DUP2 ADD MLOAD DUP4 DUP3 ADD MSTORE PUSH1 0x20 ADD PUSH2 0xA66 JUMP JUMPDEST POP POP PUSH1 0x0 SWAP2 ADD MSTORE JUMP JUMPDEST PUSH1 0x0 DUP2 MLOAD DUP1 DUP5 MSTORE PUSH2 0xA9F DUP2 PUSH1 0x20 DUP7 ADD PUSH1 0x20 DUP7 ADD PUSH2 0xA63 JUMP JUMPDEST PUSH1 0x1F ADD PUSH1 0x1F NOT AND SWAP3 SWAP1 SWAP3 ADD PUSH1 0x20 ADD SWAP3 SWAP2 POP POP JUMP JUMPDEST PUSH1 0x20 DUP2 MSTORE PUSH1 0x0 PUSH2 0xAC6 PUSH1 0x20 DUP4 ADD DUP5 PUSH2 0xA87 JUMP JUMPDEST SWAP4 SWAP3 POP POP POP JUMP JUMPDEST PUSH4 0x4E487B71 PUSH1 0xE0 SHL PUSH1 0x0 MSTORE PUSH1 0x41 PUSH1 0x4 MSTORE PUSH1 0x24 PUSH1 0x0 REVERT JUMPDEST PUSH1 0x40 MLOAD PUSH1 0xA0 DUP2 ADD PUSH8 0xFFFFFFFFFFFFFFFF DUP2 GT DUP3 DUP3 LT OR ISZERO PUSH2 0xB06 JUMPI PUSH2 0xB06 PUSH2 0xACD JUMP JUMPDEST PUSH1 0x40 MSTORE SWAP1 JUMP JUMPDEST PUSH1 0x40 MLOAD PUSH1 0x1F DUP3 ADD PUSH1 0x1F NOT AND DUP2 ADD PUSH8 0xFFFFFFFFFFFFFFFF DUP2 GT DUP3 DUP3 LT OR ISZERO PUSH2 0xB35 JUMPI PUSH2 0xB35 PUSH2 0xACD JUMP JUMPDEST PUSH1 0x40 MSTORE SWAP2 SWAP1 POP JUMP JUMPDEST DUP1 CALLDATALOAD PUSH1 0x1 PUSH1 0x1 PUSH1 0xA0 SHL SUB DUP2 AND DUP2 EQ PUSH2 0x2CA JUMPI PUSH1 0x0 DUP1 REVERT JUMPDEST PUSH1 0x0 PUSH1 0x20 DUP1 DUP4 DUP6 SUB SLT ISZERO PUSH2 0xB67 JUMPI PUSH1 0x0 DUP1 REVERT JUMPDEST DUP3 CALLDATALOAD PUSH8 0xFFFFFFFFFFFFFFFF DUP1 DUP3 GT ISZERO PUSH2 0xB7F JUMPI PUSH1 0x0 DUP1 REVERT JUMPDEST SWAP1 DUP5 ADD SWAP1 PUSH1 0xA0 DUP3 DUP8 SUB SLT ISZERO PUSH2 0xB93 JUMPI PUSH1 0x0 DUP1 REVERT JUMPDEST PUSH2 0xB9B PUSH2 0xAE3 JUMP JUMPDEST DUP3 CALLDATALOAD DUP2 MSTORE DUP4 DUP4 ADD CALLDATALOAD DUP3 DUP2 AND DUP2 EQ PUSH2 0xBB1 JUMPI PUSH1 0x0 DUP1 REVERT JUMPDEST DUP2 DUP6 ADD MSTORE PUSH2 0xBC1 PUSH1 0x40 DUP5 ADD PUSH2 0xB3D JUMP JUMPDEST PUSH1 0x40 DUP3 ADD MSTORE PUSH1 0x60 DUP4 ADD CALLDATALOAD DUP3 DUP2 GT ISZERO PUSH2 0xBD8 JUMPI PUSH1 0x0 DUP1 REVERT JUMPDEST DUP4 ADD PUSH1 0x1F DUP2 ADD DUP9 SGT PUSH2 0xBE9 JUMPI PUSH1 0x0 DUP1 REVERT JUMPDEST DUP1 CALLDATALOAD DUP4 DUP2 GT ISZERO PUSH2 0xBFB JUMPI PUSH2 0xBFB PUSH2 0xACD JUMP JUMPDEST DUP1 PUSH1 0x5 SHL SWAP4 POP PUSH2 0xC0C DUP7 DUP6 ADD PUSH2 0xB0C JUMP JUMPDEST DUP2 DUP2 MSTORE SWAP4 DUP3 ADD DUP7 ADD SWAP4 DUP7 DUP2 ADD SWAP1 DUP11 DUP7 GT ISZERO PUSH2 0xC26 JUMPI PUSH1 0x0 DUP1 REVERT JUMPDEST SWAP3 DUP8 ADD SWAP3 JUMPDEST DUP6 DUP5 LT ISZERO PUSH2 0xC4B JUMPI PUSH2 0xC3C DUP5 PUSH2 0xB3D JUMP JUMPDEST DUP3 MSTORE SWAP3 DUP8 ADD SWAP3 SWAP1 DUP8 ADD SWAP1 PUSH2 0xC2B JUMP JUMPDEST PUSH1 0x60 DUP6 ADD MSTORE POP PUSH2 0xC60 SWAP2 POP POP PUSH1 0x80 DUP5 ADD PUSH2 0xB3D JUMP JUMPDEST PUSH1 0x80 DUP3 ADD MSTORE SWAP7 SWAP6 POP POP POP POP POP POP JUMP JUMPDEST PUSH1 0x0 PUSH8 0xFFFFFFFFFFFFFFFF DUP3 GT ISZERO PUSH2 0xC89 JUMPI PUSH2 0xC89 PUSH2 0xACD JUMP JUMPDEST POP PUSH1 0x1F ADD PUSH1 0x1F NOT AND PUSH1 0x20 ADD SWAP1 JUMP JUMPDEST PUSH1 0x0 DUP3 PUSH1 0x1F DUP4 ADD SLT PUSH2 0xCA8 JUMPI PUSH1 0x0 DUP1 REVERT JUMPDEST DUP2 CALLDATALOAD PUSH2 0xCBB PUSH2 0xCB6 DUP3 PUSH2 0xC6F JUMP JUMPDEST PUSH2 0xB0C JUMP JUMPDEST DUP2 DUP2 MSTORE DUP5 PUSH1 0x20 DUP4 DUP7 ADD ADD GT ISZERO PUSH2 0xCD0 JUMPI PUSH1 0x0 DUP1 REVERT JUMPDEST DUP2 PUSH1 0x20 DUP6 ADD PUSH1 0x20 DUP4 ADD CALLDATACOPY PUSH1 0x0 SWAP2 DUP2 ADD PUSH1 0x20 ADD SWAP2 SWAP1 SWAP2 MSTORE SWAP4 SWAP3 POP POP POP JUMP JUMPDEST PUSH1 0x0 DUP1 PUSH1 0x0 PUSH1 0x60 DUP5 DUP7 SUB SLT ISZERO PUSH2 0xD02 JUMPI PUSH1 0x0 DUP1 REVERT JUMPDEST DUP4 CALLDATALOAD PUSH8 0xFFFFFFFFFFFFFFFF DUP2 GT ISZERO PUSH2 0xD19 JUMPI PUSH1 0x0 DUP1 REVERT JUMPDEST PUSH2 0xD25 DUP7 DUP3 DUP8 ADD PUSH2 0xC97 JUMP JUMPDEST SWAP4 POP POP PUSH2 0xD34 PUSH1 0x20 DUP6 ADD PUSH2 0xB3D JUMP JUMPDEST SWAP2 POP PUSH1 0x40 DUP5 ADD CALLDATALOAD SWAP1 POP SWAP3 POP SWAP3 POP SWAP3 JUMP JUMPDEST PUSH1 0x0 PUSH1 0x20 DUP3 DUP5 SUB SLT ISZERO PUSH2 0xD56 JUMPI PUSH1 0x0 DUP1 REVERT JUMPDEST PUSH2 0xAC6 DUP3 PUSH2 0xB3D JUMP JUMPDEST PUSH1 0x0 PUSH1 0x20 DUP3 DUP5 SUB SLT ISZERO PUSH2 0xD71 JUMPI PUSH1 0x0 DUP1 REVERT JUMPDEST DUP2 CALLDATALOAD PUSH8 0xFFFFFFFFFFFFFFFF DUP2 GT ISZERO PUSH2 0xD88 JUMPI PUSH1 0x0 DUP1 REVERT JUMPDEST PUSH2 0x307 DUP5 DUP3 DUP6 ADD PUSH2 0xC97 JUMP JUMPDEST PUSH1 0x0 PUSH1 0x20 DUP1 DUP4 ADD DUP2 DUP5 MSTORE DUP1 DUP6 MLOAD DUP1 DUP4 MSTORE PUSH1 0x40 SWAP3 POP PUSH1 0x40 DUP7 ADD SWAP2 POP PUSH1 0x40 DUP2 PUSH1 0x5 SHL DUP8 ADD ADD DUP5 DUP9 ADD PUSH1 0x0 JUMPDEST DUP4 DUP2 LT ISZERO PUSH2 0xE12 JUMPI PUSH1 0x3F NOT DUP10 DUP5 SUB ADD DUP6 MSTORE DUP2 MLOAD PUSH1 0x60 DUP2 MLOAD DUP2 DUP7 MSTORE PUSH2 0xDE3 DUP3 DUP8 ADD DUP3 PUSH2 0xA87 JUMP JUMPDEST DUP4 DUP12 ADD MLOAD PUSH1 0x1 PUSH1 0x1 PUSH1 0xA0 SHL SUB AND DUP8 DUP13 ADD MSTORE SWAP3 DUP10 ADD MLOAD SWAP6 DUP10 ADD SWAP6 SWAP1 SWAP6 MSTORE POP SWAP5 DUP8 ADD SWAP5 SWAP3 POP SWAP1 DUP7 ADD SWAP1 PUSH1 0x1 ADD PUSH2 0xDBD JUMP JUMPDEST POP SWAP1 SWAP9 SWAP8 POP POP POP POP POP POP POP POP JUMP JUMPDEST PUSH1 0x0 PUSH1 0x20 DUP1 DUP4 ADD PUSH1 0x20 DUP5 MSTORE DUP1 DUP6 MLOAD DUP1 DUP4 MSTORE PUSH1 0x40 DUP7 ADD SWAP2 POP PUSH1 0x40 DUP2 PUSH1 0x5 SHL DUP8 ADD ADD SWAP3 POP PUSH1 0x20 DUP8 ADD PUSH1 0x0 JUMPDEST DUP3 DUP2 LT ISZERO PUSH2 0xE77 JUMPI PUSH1 0x3F NOT DUP9 DUP7 SUB ADD DUP5 MSTORE PUSH2 0xE65 DUP6 DUP4 MLOAD PUSH2 0xA87 JUMP JUMPDEST SWAP5 POP SWAP3 DUP6 ADD SWAP3 SWAP1 DUP6 ADD SWAP1 PUSH1 0x1 ADD PUSH2 0xE49 JUMP JUMPDEST POP SWAP3 SWAP8 SWAP7 POP POP POP POP POP POP POP JUMP JUMPDEST PUSH1 0x0 PUSH1 0x20 DUP3 DUP5 SUB SLT ISZERO PUSH2 0xE96 JUMPI PUSH1 0x0 DUP1 REVERT JUMPDEST POP CALLDATALOAD SWAP2 SWAP1 POP JUMP JUMPDEST PUSH1 0x20 DUP1 DUP3 MSTORE DUP3 MLOAD DUP3 DUP3 ADD MSTORE DUP3 DUP2 ADD MLOAD PUSH8 0xFFFFFFFFFFFFFFFF AND PUSH1 0x40 DUP1 DUP5 ADD SWAP2 SWAP1 SWAP2 MSTORE DUP4 ADD MLOAD PUSH1 0x1 PUSH1 0x1 PUSH1 0xA0 SHL SUB SWAP1 DUP2 AND PUSH1 0x60 DUP1 DUP6 ADD SWAP2 SWAP1 SWAP2 MSTORE DUP5 ADD MLOAD PUSH1 0xA0 PUSH1 0x80 DUP6 ADD MSTORE DUP1 MLOAD PUSH1 0xC0 DUP6 ADD DUP2 SWAP1 MSTORE PUSH1 0x0 SWAP4 SWAP3 SWAP2 DUP4 ADD SWAP2 DUP5 SWAP2 PUSH1 0xE0 DUP8 ADD SWAP1 JUMPDEST DUP1 DUP5 LT ISZERO PUSH2 0xF1B JUMPI DUP5 MLOAD DUP4 AND DUP3 MSTORE SWAP4 DUP6 ADD SWAP4 PUSH1 0x1 SWAP4 SWAP1 SWAP4 ADD SWAP3 SWAP1 DUP6 ADD SWAP1 PUSH2 0xEF9 JUMP JUMPDEST POP PUSH1 0x80 DUP9 ADD MLOAD PUSH1 0x1 PUSH1 0x1 PUSH1 0xA0 SHL SUB DUP2 AND PUSH1 0xA0 DUP10 ADD MSTORE SWAP5 POP SWAP8 SWAP7 POP POP POP POP POP POP POP JUMP JUMPDEST PUSH1 0x20 DUP1 DUP3 MSTORE PUSH1 0xA SWAP1 DUP3 ADD MSTORE PUSH10 0x61646D696E206F6E6C79 PUSH1 0xB0 SHL PUSH1 0x40 DUP3 ADD MSTORE PUSH1 0x60 ADD SWAP1 JUMP JUMPDEST PUSH1 0x1 DUP2 DUP2 SHR SWAP1 DUP3 AND DUP1 PUSH2 0xF75 JUMPI PUSH1 0x7F DUP3 AND SWAP2 POP JUMPDEST PUSH1 0x20 DUP3 LT DUP2 SUB PUSH2 0xF95 JUMPI PUSH4 0x4E487B71 PUSH1 0xE0 SHL PUSH1 0x0 MSTORE PUSH1 0x22 PUSH1 0x4 MSTORE PUSH1 0x24 PUSH1 0x0 REVERT JUMPDEST POP SWAP2 SWAP1 POP JUMP JUMPDEST PUSH1 0x0 PUSH1 0x20 DUP3 DUP5 SUB SLT ISZERO PUSH2 0xFAD JUMPI PUSH1 0x0 DUP1 REVERT JUMPDEST DUP2 MLOAD PUSH8 0xFFFFFFFFFFFFFFFF DUP2 GT ISZERO PUSH2 0xFC4 JUMPI PUSH1 0x0 DUP1 REVERT JUMPDEST DUP3 ADD PUSH1 0x1F DUP2 ADD DUP5 SGT PUSH2 0xFD5 JUMPI PUSH1 0x0 DUP1 REVERT JUMPDEST DUP1 MLOAD PUSH2 0xFE3 PUSH2 0xCB6 DUP3 PUSH2 0xC6F JUMP JUMPDEST DUP2 DUP2 MSTORE DUP6 PUSH1 0x20 DUP4 DUP6 ADD ADD GT ISZERO PUSH2 0xFF8 JUMPI PUSH1 0x0 DUP1 REVERT JUMPDEST PUSH2 0x1009 DUP3 PUSH1 0x20 DUP4 ADD PUSH1 0x20 DUP7 ADD PUSH2 0xA63 JUMP JUMPDEST SWAP6 SWAP5 POP POP POP POP POP JUMP JUMPDEST PUSH1 0x0 PUSH1 0x20 DUP3 DUP5 SUB SLT ISZERO PUSH2 0x1024 JUMPI PUSH1 0x0 DUP1 REVERT JUMPDEST POP MLOAD SWAP2 SWAP1 POP JUMP JUMPDEST PUSH1 0x0 DUP3 MLOAD PUSH2 0x103D DUP2 DUP5 PUSH1 0x20 DUP8 ADD PUSH2 0xA63 JUMP JUMPDEST SWAP2 SWAP1 SWAP2 ADD SWAP3 SWAP2 POP POP JUMP JUMPDEST PUSH4 0x4E487B71 PUSH1 0xE0 SHL PUSH1 0x0 MSTORE PUSH1 0x32 PUSH1 0x4 MSTORE PUSH1 0x24 PUSH1 0x0 REVERT JUMPDEST PUSH1 0x0 DUP1 DUP4 SLOAD PUSH2 0x106B DUP2 PUSH2 0xF61 JUMP JUMPDEST PUSH1 0x1 DUP3 DUP2 AND DUP1 ISZERO PUSH2 0x1083 JUMPI PUSH1 0x1 DUP2 EQ PUSH2 0x1098 JUMPI PUSH2 0x10C7 JUMP JUMPDEST PUSH1 0xFF NOT DUP5 AND DUP8 MSTORE DUP3 ISZERO ISZERO DUP4 MUL DUP8 ADD SWAP5 POP PUSH2 0x10C7 JUMP JUMPDEST DUP8 PUSH1 0x0 MSTORE PUSH1 0x20 DUP1 PUSH1 0x0 KECCAK256 PUSH1 0x0 JUMPDEST DUP6 DUP2 LT ISZERO PUSH2 0x10BE JUMPI DUP2 SLOAD DUP11 DUP3 ADD MSTORE SWAP1 DUP5 ADD SWAP1 DUP3 ADD PUSH2 0x10A5 JUMP JUMPDEST POP POP POP DUP3 DUP8 ADD SWAP5 POP JUMPDEST POP SWAP3 SWAP7 SWAP6 POP POP POP POP POP POP JUMP JUMPDEST PUSH1 0x1F DUP3 GT ISZERO PUSH2 0x111F JUMPI PUSH1 0x0 DUP2 PUSH1 0x0 MSTORE PUSH1 0x20 PUSH1 0x0 KECCAK256 PUSH1 0x1F DUP6 ADD PUSH1 0x5 SHR DUP2 ADD PUSH1 0x20 DUP7 LT ISZERO PUSH2 0x10FC JUMPI POP DUP1 JUMPDEST PUSH1 0x1F DUP6 ADD PUSH1 0x5 SHR DUP3 ADD SWAP2 POP JUMPDEST DUP2 DUP2 LT ISZERO PUSH2 0x111B JUMPI DUP3 DUP2 SSTORE PUSH1 0x1 ADD PUSH2 0x1108 JUMP JUMPDEST POP POP POP JUMPDEST POP POP POP JUMP JUMPDEST DUP2 MLOAD PUSH8 0xFFFFFFFFFFFFFFFF DUP2 GT ISZERO PUSH2 0x113E JUMPI PUSH2 0x113E PUSH2 0xACD JUMP JUMPDEST PUSH2 0x1152 DUP2 PUSH2 0x114C DUP5 SLOAD PUSH2 0xF61 JUMP JUMPDEST DUP5 PUSH2 0x10D3 JUMP JUMPDEST PUSH1 0x20 DUP1 PUSH1 0x1F DUP4 GT PUSH1 0x1 DUP2 EQ PUSH2 0x1187 JUMPI PUSH1 0x0 DUP5 ISZERO PUSH2 0x116F JUMPI POP DUP6 DUP4 ADD MLOAD JUMPDEST PUSH1 0x0 NOT PUSH1 0x3 DUP7 SWAP1 SHL SHR NOT AND PUSH1 0x1 DUP6 SWAP1 SHL OR DUP6 SSTORE PUSH2 0x111B JUMP JUMPDEST PUSH1 0x0 DUP6 DUP2 MSTORE PUSH1 0x20 DUP2 KECCAK256 PUSH1 0x1F NOT DUP7 AND SWAP2 JUMPDEST DUP3 DUP2 LT ISZERO PUSH2 0x11B6 JUMPI DUP9 DUP7 ADD MLOAD DUP3 SSTORE SWAP5 DUP5 ADD SWAP5 PUSH1 0x1 SWAP1 SWAP2 ADD SWAP1 DUP5 ADD PUSH2 0x1197 JUMP JUMPDEST POP DUP6 DUP3 LT ISZERO PUSH2 0x11D4 JUMPI DUP8 DUP6 ADD MLOAD PUSH1 0x0 NOT PUSH1 0x3 DUP9 SWAP1 SHL PUSH1 0xF8 AND SHR NOT AND DUP2 SSTORE JUMPDEST POP POP POP POP POP PUSH1 0x1 SWAP1 DUP2 SHL ADD SWAP1 SSTORE POP JUMP INVALID LOG2 PUSH5 0x6970667358 0x22 SLT KECCAK256 0xE3 0xE6 0xA9 DUP9 REVERT 0x2B ORIGIN 0x29 MSTORE SLOAD 0xF7 OR SIGNEXTEND 0xC7 LOG0 COINBASE CALLER 0xC3 0xAE PUSH23 0xC5C9534068D3B52017DFED1164736F6C63430008170033 "
				},
				"gasEstimates": {
					"creation": {
						"codeDepositCost": "926800",
						"executionCost": "infinite",
						"totalCost": "infinite"
					},
					"external": {
						"addAddress(string,address,uint256)": "infinite",
						"addDestinationConfig((uint256,uint64,address,address[],address))": "infinite",
						"addMVersionAddress(address)": "infinite",
						"getAddress(string)": "infinite",
						"getChainId()": "infinite",
						"getConfig()": "infinite",
						"getDestinationConfig(uint256)": "infinite",
						"getName()": "infinite",
						"getName(address)": "infinite",
						"getNames()": "infinite",
						"getVersion()": "171"
					},
					"internal": {
						"addAddressInternal(string memory,address,uint256)": "infinite"
					}
				},
				"methodIdentifiers": {
					"addAddress(string,address,uint256)": "5b1ad536",
					"addDestinationConfig((uint256,uint64,address,address[],address))": "33db0050",
					"addMVersionAddress(address)": "70d8046c",
					"getAddress(string)": "bf40fac1",
					"getChainId()": "3408e470",
					"getConfig()": "c3f909d4",
					"getDestinationConfig(uint256)": "cea27c36",
					"getName()": "17d7de7c",
					"getName(address)": "5fd4b08a",
					"getNames()": "cd838f0f",
					"getVersion()": "0d8e6e2c"
				}
			},
			"storageLayout": {
				"storage": [
					{
						"astId": 38,
						"contract": "contracts/core/MRegister.sol:MRegister",
						"label": "register",
						"offset": 0,
						"slot": "0",
						"type": "t_contract(IMRegister)380"
					},
					{
						"astId": 40,
						"contract": "contracts/core/MRegister.sol:MRegister",
						"label": "admin",
						"offset": 0,
						"slot": "1",
						"type": "t_address"
					},
					{
						"astId": 47,
						"contract": "contracts/core/MRegister.sol:MRegister",
						"label": "names",
						"offset": 0,
						"slot": "2",
						"type": "t_array(t_string_storage)dyn_storage"
					},
					{
						"astId": 51,
						"contract": "contracts/core/MRegister.sol:MRegister",
						"label": "knownName",
						"offset": 0,
						"slot": "3",
						"type": "t_mapping(t_string_memory_ptr,t_bool)"
					},
					{
						"astId": 55,
						"contract": "contracts/core/MRegister.sol:MRegister",
						"label": "addressByName",
						"offset": 0,
						"slot": "4",
						"type": "t_mapping(t_string_memory_ptr,t_address)"
					},
					{
						"astId": 59,
						"contract": "contracts/core/MRegister.sol:MRegister",
						"label": "nameByAddress",
						"offset": 0,
						"slot": "5",
						"type": "t_mapping(t_address,t_string_storage)"
					},
					{
						"astId": 63,
						"contract": "contracts/core/MRegister.sol:MRegister",
						"label": "versionByAddress",
						"offset": 0,
						"slot": "6",
						"type": "t_mapping(t_address,t_uint256)"
					},
					{
						"astId": 68,
						"contract": "contracts/core/MRegister.sol:MRegister",
						"label": "destinationConfigByChainId",
						"offset": 0,
						"slot": "7",
						"type": "t_mapping(t_uint256,t_struct(DestinationConfig)426_storage)"
					}
				],
				"types": {
					"t_address": {
						"encoding": "inplace",
						"label": "address",
						"numberOfBytes": "20"
					},
					"t_array(t_address)dyn_storage": {
						"base": "t_address",
						"encoding": "dynamic_array",
						"label": "address[]",
						"numberOfBytes": "32"
					},
					"t_array(t_string_storage)dyn_storage": {
						"base": "t_string_storage",
						"encoding": "dynamic_array",
						"label": "string[]",
						"numberOfBytes": "32"
					},
					"t_bool": {
						"encoding": "inplace",
						"label": "bool",
						"numberOfBytes": "1"
					},
					"t_contract(IMRegister)380": {
						"encoding": "inplace",
						"label": "contract IMRegister",
						"numberOfBytes": "20"
					},
					"t_mapping(t_address,t_string_storage)": {
						"encoding": "mapping",
						"key": "t_address",
						"label": "mapping(address => string)",
						"numberOfBytes": "32",
						"value": "t_string_storage"
					},
					"t_mapping(t_address,t_uint256)": {
						"encoding": "mapping",
						"key": "t_address",
						"label": "mapping(address => uint256)",
						"numberOfBytes": "32",
						"value": "t_uint256"
					},
					"t_mapping(t_string_memory_ptr,t_address)": {
						"encoding": "mapping",
						"key": "t_string_memory_ptr",
						"label": "mapping(string => address)",
						"numberOfBytes": "32",
						"value": "t_address"
					},
					"t_mapping(t_string_memory_ptr,t_bool)": {
						"encoding": "mapping",
						"key": "t_string_memory_ptr",
						"label": "mapping(string => bool)",
						"numberOfBytes": "32",
						"value": "t_bool"
					},
					"t_mapping(t_uint256,t_struct(DestinationConfig)426_storage)": {
						"encoding": "mapping",
						"key": "t_uint256",
						"label": "mapping(uint256 => struct DestinationConfig)",
						"numberOfBytes": "32",
						"value": "t_struct(DestinationConfig)426_storage"
					},
					"t_string_memory_ptr": {
						"encoding": "bytes",
						"label": "string",
						"numberOfBytes": "32"
					},
					"t_string_storage": {
						"encoding": "bytes",
						"label": "string",
						"numberOfBytes": "32"
					},
					"t_struct(DestinationConfig)426_storage": {
						"encoding": "inplace",
						"label": "struct DestinationConfig",
						"members": [
							{
								"astId": 416,
								"contract": "contracts/core/MRegister.sol:MRegister",
								"label": "chainId",
								"offset": 0,
								"slot": "0",
								"type": "t_uint256"
							},
							{
								"astId": 418,
								"contract": "contracts/core/MRegister.sol:MRegister",
								"label": "ccipChainSelector",
								"offset": 0,
								"slot": "1",
								"type": "t_uint64"
							},
							{
								"astId": 420,
								"contract": "contracts/core/MRegister.sol:MRegister",
								"label": "routerAddress",
								"offset": 8,
								"slot": "1",
								"type": "t_address"
							},
							{
								"astId": 423,
								"contract": "contracts/core/MRegister.sol:MRegister",
								"label": "feeTokens",
								"offset": 0,
								"slot": "2",
								"type": "t_array(t_address)dyn_storage"
							},
							{
								"astId": 425,
								"contract": "contracts/core/MRegister.sol:MRegister",
								"label": "giltReciever",
								"offset": 0,
								"slot": "3",
								"type": "t_address"
							}
						],
						"numberOfBytes": "128"
					},
					"t_uint256": {
						"encoding": "inplace",
						"label": "uint256",
						"numberOfBytes": "32"
					},
					"t_uint64": {
						"encoding": "inplace",
						"label": "uint64",
						"numberOfBytes": "8"
					}
				}
			},
			"userdoc": {
				"kind": "user",
				"methods": {},
				"version": 1
			}
		}
	}
}