{
	"contracts/core/MProject.sol": {
		"MProject": {
			"abi": [
				{
					"inputs": [
						{
							"internalType": "address",
							"name": "_register",
							"type": "address"
						},
						{
							"internalType": "uint256",
							"name": "_alloPoolId",
							"type": "uint256"
						},
						{
							"internalType": "bytes32",
							"name": "_alloProfileId",
							"type": "bytes32"
						},
						{
							"internalType": "uint256",
							"name": "_projectId",
							"type": "uint256"
						},
						{
							"internalType": "string",
							"name": "_projectName",
							"type": "string"
						},
						{
							"internalType": "uint256",
							"name": "_budget",
							"type": "uint256"
						},
						{
							"internalType": "address",
							"name": "_payoutToken",
							"type": "address"
						}
					],
					"stateMutability": "nonpayable",
					"type": "constructor"
				},
				{
					"inputs": [
						{
							"components": [
								{
									"internalType": "uint256",
									"name": "id",
									"type": "uint256"
								},
								{
									"internalType": "uint256",
									"name": "homeChain",
									"type": "uint256"
								},
								{
									"internalType": "address",
									"name": "wallet",
									"type": "address"
								},
								{
									"components": [
										{
											"internalType": "uint256",
											"name": "protocol",
											"type": "uint256"
										},
										{
											"internalType": "string",
											"name": "pointer",
											"type": "string"
										}
									],
									"internalType": "struct Metadata",
									"name": "metadata",
									"type": "tuple"
								}
							],
							"internalType": "struct Contributor",
							"name": "_contributor",
							"type": "tuple"
						}
					],
					"name": "addContributor",
					"outputs": [
						{
							"internalType": "uint256",
							"name": "_contributorId",
							"type": "uint256"
						}
					],
					"stateMutability": "nonpayable",
					"type": "function"
				},
				{
					"inputs": [
						{
							"components": [
								{
									"internalType": "uint256",
									"name": "id",
									"type": "uint256"
								},
								{
									"internalType": "uint256",
									"name": "projectId",
									"type": "uint256"
								},
								{
									"internalType": "uint256",
									"name": "payoutAmount",
									"type": "uint256"
								},
								{
									"internalType": "string",
									"name": "name",
									"type": "string"
								},
								{
									"components": [
										{
											"internalType": "uint256",
											"name": "protocol",
											"type": "uint256"
										},
										{
											"internalType": "string",
											"name": "pointer",
											"type": "string"
										}
									],
									"internalType": "struct Metadata",
									"name": "metadata",
									"type": "tuple"
								},
								{
									"internalType": "enum DeliverableStatus",
									"name": "deliverableStatus",
									"type": "uint8"
								},
								{
									"internalType": "enum PayoutStatus",
									"name": "payoutStatus",
									"type": "uint8"
								}
							],
							"internalType": "struct Deliverable",
							"name": "_deliverable",
							"type": "tuple"
						},
						{
							"internalType": "uint256",
							"name": "_contributorId",
							"type": "uint256"
						}
					],
					"name": "addDeliverable",
					"outputs": [
						{
							"internalType": "uint256",
							"name": "deliverableCount",
							"type": "uint256"
						}
					],
					"stateMutability": "nonpayable",
					"type": "function"
				},
				{
					"inputs": [
						{
							"internalType": "uint256",
							"name": "_newBudget",
							"type": "uint256"
						}
					],
					"name": "amendBudget",
					"outputs": [
						{
							"internalType": "int256",
							"name": "_amendmentAmount",
							"type": "int256"
						}
					],
					"stateMutability": "nonpayable",
					"type": "function"
				},
				{
					"inputs": [
						{
							"internalType": "address",
							"name": "_contributorWallet",
							"type": "address"
						}
					],
					"name": "getContributorByAddress",
					"outputs": [
						{
							"components": [
								{
									"internalType": "uint256",
									"name": "id",
									"type": "uint256"
								},
								{
									"internalType": "uint256",
									"name": "homeChain",
									"type": "uint256"
								},
								{
									"internalType": "address",
									"name": "wallet",
									"type": "address"
								},
								{
									"components": [
										{
											"internalType": "uint256",
											"name": "protocol",
											"type": "uint256"
										},
										{
											"internalType": "string",
											"name": "pointer",
											"type": "string"
										}
									],
									"internalType": "struct Metadata",
									"name": "metadata",
									"type": "tuple"
								}
							],
							"internalType": "struct Contributor",
							"name": "_contributor",
							"type": "tuple"
						}
					],
					"stateMutability": "view",
					"type": "function"
				},
				{
					"inputs": [
						{
							"internalType": "uint256",
							"name": "_contributorId",
							"type": "uint256"
						}
					],
					"name": "getContributorById",
					"outputs": [
						{
							"components": [
								{
									"internalType": "uint256",
									"name": "id",
									"type": "uint256"
								},
								{
									"internalType": "uint256",
									"name": "homeChain",
									"type": "uint256"
								},
								{
									"internalType": "address",
									"name": "wallet",
									"type": "address"
								},
								{
									"components": [
										{
											"internalType": "uint256",
											"name": "protocol",
											"type": "uint256"
										},
										{
											"internalType": "string",
											"name": "pointer",
											"type": "string"
										}
									],
									"internalType": "struct Metadata",
									"name": "metadata",
									"type": "tuple"
								}
							],
							"internalType": "struct Contributor",
							"name": "_contributor",
							"type": "tuple"
						}
					],
					"stateMutability": "view",
					"type": "function"
				},
				{
					"inputs": [],
					"name": "getContributorIds",
					"outputs": [
						{
							"internalType": "uint256[]",
							"name": "_contributorIds",
							"type": "uint256[]"
						}
					],
					"stateMutability": "view",
					"type": "function"
				},
				{
					"inputs": [
						{
							"internalType": "uint256",
							"name": "_deliverableId",
							"type": "uint256"
						}
					],
					"name": "getDeliverableById",
					"outputs": [
						{
							"components": [
								{
									"internalType": "uint256",
									"name": "id",
									"type": "uint256"
								},
								{
									"internalType": "uint256",
									"name": "projectId",
									"type": "uint256"
								},
								{
									"internalType": "uint256",
									"name": "payoutAmount",
									"type": "uint256"
								},
								{
									"internalType": "string",
									"name": "name",
									"type": "string"
								},
								{
									"components": [
										{
											"internalType": "uint256",
											"name": "protocol",
											"type": "uint256"
										},
										{
											"internalType": "string",
											"name": "pointer",
											"type": "string"
										}
									],
									"internalType": "struct Metadata",
									"name": "metadata",
									"type": "tuple"
								},
								{
									"internalType": "enum DeliverableStatus",
									"name": "deliverableStatus",
									"type": "uint8"
								},
								{
									"internalType": "enum PayoutStatus",
									"name": "payoutStatus",
									"type": "uint8"
								}
							],
							"internalType": "struct Deliverable",
							"name": "_deliverable",
							"type": "tuple"
						}
					],
					"stateMutability": "view",
					"type": "function"
				},
				{
					"inputs": [],
					"name": "getName",
					"outputs": [
						{
							"internalType": "string",
							"name": "_name",
							"type": "string"
						}
					],
					"stateMutability": "pure",
					"type": "function"
				},
				{
					"inputs": [],
					"name": "getPaymentDirectives",
					"outputs": [
						{
							"components": [
								{
									"internalType": "uint256",
									"name": "id",
									"type": "uint256"
								},
								{
									"components": [
										{
											"internalType": "uint256",
											"name": "id",
											"type": "uint256"
										},
										{
											"internalType": "uint256",
											"name": "homeChain",
											"type": "uint256"
										},
										{
											"internalType": "address",
											"name": "wallet",
											"type": "address"
										},
										{
											"components": [
												{
													"internalType": "uint256",
													"name": "protocol",
													"type": "uint256"
												},
												{
													"internalType": "string",
													"name": "pointer",
													"type": "string"
												}
											],
											"internalType": "struct Metadata",
											"name": "metadata",
											"type": "tuple"
										}
									],
									"internalType": "struct Contributor",
									"name": "contributor",
									"type": "tuple"
								},
								{
									"internalType": "uint256",
									"name": "projectId",
									"type": "uint256"
								},
								{
									"internalType": "bytes32",
									"name": "alloProfileId",
									"type": "bytes32"
								},
								{
									"internalType": "uint256",
									"name": "deliverableId",
									"type": "uint256"
								},
								{
									"internalType": "uint256",
									"name": "amount",
									"type": "uint256"
								},
								{
									"internalType": "address",
									"name": "erc20",
									"type": "address"
								}
							],
							"internalType": "struct PaymentDirective[]",
							"name": "_paymentDirectives",
							"type": "tuple[]"
						}
					],
					"stateMutability": "view",
					"type": "function"
				},
				{
					"inputs": [],
					"name": "getProjectDescriptor",
					"outputs": [
						{
							"components": [
								{
									"internalType": "uint256",
									"name": "projectId",
									"type": "uint256"
								},
								{
									"internalType": "string",
									"name": "name",
									"type": "string"
								},
								{
									"internalType": "uint256",
									"name": "alloPoolId",
									"type": "uint256"
								},
								{
									"internalType": "bytes32",
									"name": "alloProfileId",
									"type": "bytes32"
								},
								{
									"internalType": "address",
									"name": "payoutCurrency",
									"type": "address"
								},
								{
									"internalType": "uint256",
									"name": "budget",
									"type": "uint256"
								},
								{
									"internalType": "uint256[]",
									"name": "deliverableIds",
									"type": "uint256[]"
								},
								{
									"internalType": "address[]",
									"name": "contributors",
									"type": "address[]"
								}
							],
							"internalType": "struct Project",
							"name": "_project",
							"type": "tuple"
						}
					],
					"stateMutability": "view",
					"type": "function"
				},
				{
					"inputs": [],
					"name": "getVersion",
					"outputs": [
						{
							"internalType": "uint256",
							"name": "_version",
							"type": "uint256"
						}
					],
					"stateMutability": "pure",
					"type": "function"
				},
				{
					"inputs": [
						{
							"internalType": "uint256",
							"name": "_deliverableId",
							"type": "uint256"
						},
						{
							"internalType": "uint256",
							"name": "_newContributorId",
							"type": "uint256"
						}
					],
					"name": "reAssignDeliverable",
					"outputs": [
						{
							"internalType": "bool",
							"name": "_updated",
							"type": "bool"
						}
					],
					"stateMutability": "nonpayable",
					"type": "function"
				},
				{
					"inputs": [
						{
							"internalType": "uint256",
							"name": "_deliverableId",
							"type": "uint256"
						}
					],
					"name": "submitDeliverable",
					"outputs": [
						{
							"internalType": "bool",
							"name": "_submitted",
							"type": "bool"
						}
					],
					"stateMutability": "nonpayable",
					"type": "function"
				},
				{
					"inputs": [
						{
							"components": [
								{
									"internalType": "uint256",
									"name": "id",
									"type": "uint256"
								},
								{
									"internalType": "uint256",
									"name": "projectId",
									"type": "uint256"
								},
								{
									"internalType": "uint256",
									"name": "payoutAmount",
									"type": "uint256"
								},
								{
									"internalType": "string",
									"name": "name",
									"type": "string"
								},
								{
									"components": [
										{
											"internalType": "uint256",
											"name": "protocol",
											"type": "uint256"
										},
										{
											"internalType": "string",
											"name": "pointer",
											"type": "string"
										}
									],
									"internalType": "struct Metadata",
									"name": "metadata",
									"type": "tuple"
								},
								{
									"internalType": "enum DeliverableStatus",
									"name": "deliverableStatus",
									"type": "uint8"
								},
								{
									"internalType": "enum PayoutStatus",
									"name": "payoutStatus",
									"type": "uint8"
								}
							],
							"internalType": "struct Deliverable",
							"name": "_deliverable",
							"type": "tuple"
						}
					],
					"name": "updateDeliverable",
					"outputs": [
						{
							"internalType": "bool",
							"name": "_updated",
							"type": "bool"
						}
					],
					"stateMutability": "nonpayable",
					"type": "function"
				},
				{
					"inputs": [
						{
							"internalType": "uint256",
							"name": "_deliverableId",
							"type": "uint256"
						},
						{
							"internalType": "enum PayoutStatus",
							"name": "_status",
							"type": "uint8"
						}
					],
					"name": "updatePayoutStatus",
					"outputs": [
						{
							"internalType": "bool",
							"name": "_updated",
							"type": "bool"
						}
					],
					"stateMutability": "nonpayable",
					"type": "function"
				}
			],
			"devdoc": {
				"kind": "dev",
				"methods": {},
				"version": 1
			},
			"evm": {
				"assembly": "    /* \"contracts/core/MProject.sol\":613:13056  contract MProject is IMProject, IMVersion { ... */\n  mstore(0x40, 0xa0)\n    /* \"contracts/core/MProject.sol\":2365:2831  constructor(address _register, uint256 _alloPoolId, bytes32 _alloProfileId, uint256 _projectId, string memory _projectName, uint256 _budget, address _payoutToken) {... */\n  callvalue\n  dup1\n  iszero\n  tag_1\n  jumpi\n  0x00\n  dup1\n  revert\ntag_1:\n  pop\n  mload(0x40)\n  sub(codesize, bytecodeSize)\n  dup1\n  bytecodeSize\n  dup4\n  codecopy\n  dup2\n  add\n  0x40\n  dup2\n  swap1\n  mstore\n  tag_2\n  swap2\n  tag_3\n  jump\t// in\ntag_2:\n    /* \"contracts/core/MProject.sol\":2539:2547  register */\n  0x02\n    /* \"contracts/core/MProject.sol\":2539:2578  register        = IMRegister(_register) */\n  dup1\n  sload\n  not(sub(shl(0xa0, 0x01), 0x01))\n  and\n  sub(shl(0xa0, 0x01), 0x01)\n  dup10\n  and\n  or\n  swap1\n  sstore\n    /* \"contracts/core/MProject.sol\":2589:2599  alloPoolId */\n  0x03\n    /* \"contracts/core/MProject.sol\":2589:2618  alloPoolId      = _alloPoolId */\n  dup7\n  swap1\n  sstore\n    /* \"contracts/core/MProject.sol\":2630:2643  alloProfileId */\n  0x04\n    /* \"contracts/core/MProject.sol\":2630:2662  alloProfileId   = _alloProfileId */\n  dup6\n  swap1\n  sstore\n    /* \"contracts/core/MProject.sol\":2674:2702  id              = _projectId */\n  0x80\n  dup5\n  swap1\n  mstore\n  0x00\n    /* \"contracts/core/MProject.sol\":2714:2744  projectName     = _projectName */\n  tag_6\n    /* \"contracts/core/MProject.sol\":2732:2744  _projectName */\n  dup5\n  dup3\n    /* \"contracts/core/MProject.sol\":2714:2744  projectName     = _projectName */\n  tag_7\n  jump\t// in\ntag_6:\n  pop\n    /* \"contracts/core/MProject.sol\":2755:2761  budget */\n  0x01\n    /* \"contracts/core/MProject.sol\":2755:2780  budget          = _budget */\n  swap2\n  swap1\n  swap2\n  sstore\n    /* \"contracts/core/MProject.sol\":2792:2803  payoutErc20 */\n  0x05\n    /* \"contracts/core/MProject.sol\":2792:2822  payoutErc20     = _payoutToken */\n  dup1\n  sload\n  not(sub(shl(0xa0, 0x01), 0x01))\n  and\n  sub(shl(0xa0, 0x01), 0x01)\n  swap1\n  swap3\n  and\n  swap2\n  swap1\n  swap2\n  or\n  swap1\n  sstore\n  pop\n    /* \"contracts/core/MProject.sol\":613:13056  contract MProject is IMProject, IMVersion { ... */\n  tag_15\n  swap4\n  pop\n  pop\n  pop\n  pop\n  jump\n    /* \"#utility.yul\":14:191   */\ntag_9:\n    /* \"#utility.yul\":93:106   */\n  dup1\n  mload\n  sub(shl(0xa0, 0x01), 0x01)\n    /* \"#utility.yul\":135:166   */\n  dup2\n  and\n    /* \"#utility.yul\":125:167   */\n  dup2\n  eq\n    /* \"#utility.yul\":115:185   */\n  tag_17\n  jumpi\n    /* \"#utility.yul\":181:182   */\n  0x00\n    /* \"#utility.yul\":178:179   */\n  dup1\n    /* \"#utility.yul\":171:183   */\n  revert\n    /* \"#utility.yul\":115:185   */\ntag_17:\n    /* \"#utility.yul\":14:191   */\n  swap2\n  swap1\n  pop\n  jump\t// out\n    /* \"#utility.yul\":196:323   */\ntag_10:\n    /* \"#utility.yul\":257:267   */\n  0x4e487b71\n    /* \"#utility.yul\":252:255   */\n  0xe0\n    /* \"#utility.yul\":248:268   */\n  shl\n    /* \"#utility.yul\":245:246   */\n  0x00\n    /* \"#utility.yul\":238:269   */\n  mstore\n    /* \"#utility.yul\":288:292   */\n  0x41\n    /* \"#utility.yul\":285:286   */\n  0x04\n    /* \"#utility.yul\":278:293   */\n  mstore\n    /* \"#utility.yul\":312:316   */\n  0x24\n    /* \"#utility.yul\":309:310   */\n  0x00\n    /* \"#utility.yul\":302:317   */\n  revert\n    /* \"#utility.yul\":328:1788   */\ntag_3:\n    /* \"#utility.yul\":462:468   */\n  0x00\n    /* \"#utility.yul\":470:476   */\n  dup1\n    /* \"#utility.yul\":478:484   */\n  0x00\n    /* \"#utility.yul\":486:492   */\n  dup1\n    /* \"#utility.yul\":494:500   */\n  0x00\n    /* \"#utility.yul\":502:508   */\n  dup1\n    /* \"#utility.yul\":510:516   */\n  0x00\n    /* \"#utility.yul\":563:566   */\n  0xe0\n    /* \"#utility.yul\":551:560   */\n  dup9\n    /* \"#utility.yul\":542:549   */\n  dup11\n    /* \"#utility.yul\":538:561   */\n  sub\n    /* \"#utility.yul\":534:567   */\n  slt\n    /* \"#utility.yul\":531:584   */\n  iszero\n  tag_20\n  jumpi\n    /* \"#utility.yul\":580:581   */\n  0x00\n    /* \"#utility.yul\":577:578   */\n  dup1\n    /* \"#utility.yul\":570:582   */\n  revert\n    /* \"#utility.yul\":531:584   */\ntag_20:\n    /* \"#utility.yul\":603:643   */\n  tag_21\n    /* \"#utility.yul\":633:642   */\n  dup9\n    /* \"#utility.yul\":603:643   */\n  tag_9\n  jump\t// in\ntag_21:\n    /* \"#utility.yul\":662:664   */\n  0x20\n    /* \"#utility.yul\":689:707   */\n  dup10\n  dup2\n  add\n    /* \"#utility.yul\":683:708   */\n  mload\n    /* \"#utility.yul\":748:750   */\n  0x40\n    /* \"#utility.yul\":733:751   */\n  dup12\n  add\n    /* \"#utility.yul\":727:752   */\n  mload\n    /* \"#utility.yul\":792:794   */\n  0x60\n    /* \"#utility.yul\":777:795   */\n  dup13\n  add\n    /* \"#utility.yul\":771:796   */\n  mload\n    /* \"#utility.yul\":840:843   */\n  0x80\n    /* \"#utility.yul\":825:844   */\n  dup14\n  add\n    /* \"#utility.yul\":819:845   */\n  mload\n    /* \"#utility.yul\":593:643   */\n  swap5\n  swap12\n  pop\n    /* \"#utility.yul\":683:708   */\n  swap2\n  swap10\n  pop\n    /* \"#utility.yul\":727:752   */\n  swap8\n  pop\n    /* \"#utility.yul\":771:796   */\n  swap6\n  pop\n    /* \"#utility.yul\":662:664   */\n  swap1\n  sub(shl(0x40, 0x01), 0x01)\n    /* \"#utility.yul\":894:908   */\n  dup1\n  dup3\n  gt\n    /* \"#utility.yul\":891:925   */\n  iszero\n  tag_22\n  jumpi\n    /* \"#utility.yul\":921:922   */\n  0x00\n    /* \"#utility.yul\":918:919   */\n  dup1\n    /* \"#utility.yul\":911:923   */\n  revert\n    /* \"#utility.yul\":891:925   */\ntag_22:\n    /* \"#utility.yul\":959:965   */\n  dup2\n    /* \"#utility.yul\":948:957   */\n  dup12\n    /* \"#utility.yul\":944:966   */\n  add\n    /* \"#utility.yul\":934:966   */\n  swap2\n  pop\n    /* \"#utility.yul\":1004:1011   */\n  dup12\n    /* \"#utility.yul\":997:1001   */\n  0x1f\n    /* \"#utility.yul\":993:995   */\n  dup4\n    /* \"#utility.yul\":989:1002   */\n  add\n    /* \"#utility.yul\":985:1012   */\n  slt\n    /* \"#utility.yul\":975:1030   */\n  tag_23\n  jumpi\n    /* \"#utility.yul\":1026:1027   */\n  0x00\n    /* \"#utility.yul\":1023:1024   */\n  dup1\n    /* \"#utility.yul\":1016:1028   */\n  revert\n    /* \"#utility.yul\":975:1030   */\ntag_23:\n    /* \"#utility.yul\":1055:1057   */\n  dup2\n    /* \"#utility.yul\":1049:1058   */\n  mload\n    /* \"#utility.yul\":1077:1079   */\n  dup2\n    /* \"#utility.yul\":1073:1075   */\n  dup2\n    /* \"#utility.yul\":1070:1080   */\n  gt\n    /* \"#utility.yul\":1067:1103   */\n  iszero\n  tag_25\n  jumpi\n    /* \"#utility.yul\":1083:1101   */\n  tag_25\n  tag_10\n  jump\t// in\ntag_25:\n    /* \"#utility.yul\":1158:1160   */\n  0x40\n    /* \"#utility.yul\":1152:1161   */\n  mload\n    /* \"#utility.yul\":1126:1128   */\n  0x1f\n    /* \"#utility.yul\":1212:1225   */\n  dup3\n  add\n  not(0x1f)\n    /* \"#utility.yul\":1208:1230   */\n  swap1\n  dup2\n  and\n    /* \"#utility.yul\":1232:1234   */\n  0x3f\n    /* \"#utility.yul\":1204:1235   */\n  add\n    /* \"#utility.yul\":1200:1240   */\n  and\n    /* \"#utility.yul\":1188:1241   */\n  dup2\n  add\n  swap1\n    /* \"#utility.yul\":1256:1274   */\n  dup4\n  dup3\n  gt\n    /* \"#utility.yul\":1276:1298   */\n  dup2\n  dup4\n  lt\n    /* \"#utility.yul\":1253:1299   */\n  or\n    /* \"#utility.yul\":1250:1322   */\n  iszero\n  tag_27\n  jumpi\n    /* \"#utility.yul\":1302:1320   */\n  tag_27\n  tag_10\n  jump\t// in\ntag_27:\n    /* \"#utility.yul\":1342:1352   */\n  dup2\n    /* \"#utility.yul\":1338:1340   */\n  0x40\n    /* \"#utility.yul\":1331:1353   */\n  mstore\n    /* \"#utility.yul\":1377:1379   */\n  dup3\n    /* \"#utility.yul\":1369:1375   */\n  dup2\n    /* \"#utility.yul\":1362:1380   */\n  mstore\n    /* \"#utility.yul\":1417:1424   */\n  dup15\n    /* \"#utility.yul\":1412:1414   */\n  dup7\n    /* \"#utility.yul\":1407:1409   */\n  dup5\n    /* \"#utility.yul\":1403:1405   */\n  dup8\n    /* \"#utility.yul\":1399:1410   */\n  add\n    /* \"#utility.yul\":1395:1415   */\n  add\n    /* \"#utility.yul\":1392:1425   */\n  gt\n    /* \"#utility.yul\":1389:1442   */\n  iszero\n  tag_28\n  jumpi\n    /* \"#utility.yul\":1438:1439   */\n  0x00\n    /* \"#utility.yul\":1435:1436   */\n  dup1\n    /* \"#utility.yul\":1428:1440   */\n  revert\n    /* \"#utility.yul\":1389:1442   */\ntag_28:\n    /* \"#utility.yul\":1460:1461   */\n  0x00\n    /* \"#utility.yul\":1451:1461   */\n  swap4\n  pop\n    /* \"#utility.yul\":1470:1599   */\ntag_29:\n    /* \"#utility.yul\":1484:1486   */\n  dup3\n    /* \"#utility.yul\":1481:1482   */\n  dup5\n    /* \"#utility.yul\":1478:1487   */\n  lt\n    /* \"#utility.yul\":1470:1599   */\n  iszero\n  tag_31\n  jumpi\n    /* \"#utility.yul\":1572:1582   */\n  dup5\n  dup5\n  add\n    /* \"#utility.yul\":1568:1587   */\n  dup7\n  add\n    /* \"#utility.yul\":1562:1588   */\n  mload\n    /* \"#utility.yul\":1541:1555   */\n  dup2\n  dup6\n  add\n    /* \"#utility.yul\":1537:1560   */\n  dup8\n  add\n    /* \"#utility.yul\":1530:1589   */\n  mstore\n    /* \"#utility.yul\":1495:1505   */\n  swap3\n  dup6\n  add\n  swap3\n    /* \"#utility.yul\":1470:1599   */\n  jump(tag_29)\ntag_31:\n    /* \"#utility.yul\":1641:1642   */\n  0x00\n    /* \"#utility.yul\":1636:1638   */\n  dup7\n    /* \"#utility.yul\":1631:1633   */\n  dup5\n    /* \"#utility.yul\":1623:1629   */\n  dup4\n    /* \"#utility.yul\":1619:1634   */\n  add\n    /* \"#utility.yul\":1615:1639   */\n  add\n    /* \"#utility.yul\":1608:1643   */\n  mstore\n    /* \"#utility.yul\":1662:1668   */\n  dup1\n    /* \"#utility.yul\":1652:1668   */\n  swap9\n  pop\n  pop\n  pop\n  pop\n  pop\n  pop\n  pop\n    /* \"#utility.yul\":1708:1711   */\n  0xa0\n    /* \"#utility.yul\":1697:1706   */\n  dup9\n    /* \"#utility.yul\":1693:1712   */\n  add\n    /* \"#utility.yul\":1687:1713   */\n  mload\n    /* \"#utility.yul\":1677:1713   */\n  swap2\n  pop\n    /* \"#utility.yul\":1732:1782   */\n  tag_32\n    /* \"#utility.yul\":1777:1780   */\n  0xc0\n    /* \"#utility.yul\":1766:1775   */\n  dup10\n    /* \"#utility.yul\":1762:1781   */\n  add\n    /* \"#utility.yul\":1732:1782   */\n  tag_9\n  jump\t// in\ntag_32:\n    /* \"#utility.yul\":1722:1782   */\n  swap1\n  pop\n    /* \"#utility.yul\":328:1788   */\n  swap3\n  swap6\n  swap9\n  swap2\n  swap5\n  swap8\n  pop\n  swap3\n  swap6\n  pop\n  jump\t// out\n    /* \"#utility.yul\":1793:2173   */\ntag_11:\n    /* \"#utility.yul\":1872:1873   */\n  0x01\n    /* \"#utility.yul\":1868:1880   */\n  dup2\n  dup2\n  shr\n  swap1\n    /* \"#utility.yul\":1915:1927   */\n  dup3\n  and\n  dup1\n    /* \"#utility.yul\":1936:1997   */\n  tag_34\n  jumpi\n    /* \"#utility.yul\":1990:1994   */\n  0x7f\n    /* \"#utility.yul\":1982:1988   */\n  dup3\n    /* \"#utility.yul\":1978:1995   */\n  and\n    /* \"#utility.yul\":1968:1995   */\n  swap2\n  pop\n    /* \"#utility.yul\":1936:1997   */\ntag_34:\n    /* \"#utility.yul\":2043:2045   */\n  0x20\n    /* \"#utility.yul\":2035:2041   */\n  dup3\n    /* \"#utility.yul\":2032:2046   */\n  lt\n    /* \"#utility.yul\":2012:2030   */\n  dup2\n    /* \"#utility.yul\":2009:2047   */\n  sub\n    /* \"#utility.yul\":2006:2167   */\n  tag_35\n  jumpi\n    /* \"#utility.yul\":2089:2099   */\n  0x4e487b71\n    /* \"#utility.yul\":2084:2087   */\n  0xe0\n    /* \"#utility.yul\":2080:2100   */\n  shl\n    /* \"#utility.yul\":2077:2078   */\n  0x00\n    /* \"#utility.yul\":2070:2101   */\n  mstore\n    /* \"#utility.yul\":2124:2128   */\n  0x22\n    /* \"#utility.yul\":2121:2122   */\n  0x04\n    /* \"#utility.yul\":2114:2129   */\n  mstore\n    /* \"#utility.yul\":2152:2156   */\n  0x24\n    /* \"#utility.yul\":2149:2150   */\n  0x00\n    /* \"#utility.yul\":2142:2157   */\n  revert\n    /* \"#utility.yul\":2006:2167   */\ntag_35:\n  pop\n    /* \"#utility.yul\":1793:2173   */\n  swap2\n  swap1\n  pop\n  jump\t// out\n    /* \"#utility.yul\":2304:2847   */\ntag_13:\n    /* \"#utility.yul\":2406:2408   */\n  0x1f\n    /* \"#utility.yul\":2401:2404   */\n  dup3\n    /* \"#utility.yul\":2398:2409   */\n  gt\n    /* \"#utility.yul\":2395:2841   */\n  iszero\n  tag_38\n  jumpi\n    /* \"#utility.yul\":2442:2443   */\n  0x00\n    /* \"#utility.yul\":2466:2471   */\n  dup2\n    /* \"#utility.yul\":2463:2464   */\n  0x00\n    /* \"#utility.yul\":2456:2472   */\n  mstore\n    /* \"#utility.yul\":2510:2514   */\n  0x20\n    /* \"#utility.yul\":2507:2508   */\n  0x00\n    /* \"#utility.yul\":2497:2515   */\n  keccak256\n    /* \"#utility.yul\":2580:2582   */\n  0x1f\n    /* \"#utility.yul\":2568:2578   */\n  dup6\n    /* \"#utility.yul\":2564:2583   */\n  add\n    /* \"#utility.yul\":2561:2562   */\n  0x05\n    /* \"#utility.yul\":2557:2584   */\n  shr\n    /* \"#utility.yul\":2551:2555   */\n  dup2\n    /* \"#utility.yul\":2547:2585   */\n  add\n    /* \"#utility.yul\":2616:2620   */\n  0x20\n    /* \"#utility.yul\":2604:2614   */\n  dup7\n    /* \"#utility.yul\":2601:2621   */\n  lt\n    /* \"#utility.yul\":2598:2645   */\n  iszero\n  tag_39\n  jumpi\n  pop\n    /* \"#utility.yul\":2639:2643   */\n  dup1\n    /* \"#utility.yul\":2598:2645   */\ntag_39:\n    /* \"#utility.yul\":2694:2696   */\n  0x1f\n    /* \"#utility.yul\":2689:2692   */\n  dup6\n    /* \"#utility.yul\":2685:2697   */\n  add\n    /* \"#utility.yul\":2682:2683   */\n  0x05\n    /* \"#utility.yul\":2678:2698   */\n  shr\n    /* \"#utility.yul\":2672:2676   */\n  dup3\n    /* \"#utility.yul\":2668:2699   */\n  add\n    /* \"#utility.yul\":2658:2699   */\n  swap2\n  pop\n    /* \"#utility.yul\":2749:2831   */\ntag_40:\n    /* \"#utility.yul\":2767:2769   */\n  dup2\n    /* \"#utility.yul\":2760:2765   */\n  dup2\n    /* \"#utility.yul\":2757:2770   */\n  lt\n    /* \"#utility.yul\":2749:2831   */\n  iszero\n  tag_42\n  jumpi\n    /* \"#utility.yul\":2812:2829   */\n  dup3\n  dup2\n  sstore\n    /* \"#utility.yul\":2793:2794   */\n  0x01\n    /* \"#utility.yul\":2782:2795   */\n  add\n    /* \"#utility.yul\":2749:2831   */\n  jump(tag_40)\ntag_42:\n    /* \"#utility.yul\":2753:2756   */\n  pop\n  pop\n  pop\n    /* \"#utility.yul\":2395:2841   */\ntag_38:\n    /* \"#utility.yul\":2304:2847   */\n  pop\n  pop\n  pop\n  jump\t// out\n    /* \"#utility.yul\":3023:4368   */\ntag_7:\n    /* \"#utility.yul\":3143:3153   */\n  dup2\n  mload\n  sub(shl(0x40, 0x01), 0x01)\n    /* \"#utility.yul\":3165:3195   */\n  dup2\n  gt\n    /* \"#utility.yul\":3162:3218   */\n  iszero\n  tag_46\n  jumpi\n    /* \"#utility.yul\":3198:3216   */\n  tag_46\n  tag_10\n  jump\t// in\ntag_46:\n    /* \"#utility.yul\":3227:3324   */\n  tag_47\n    /* \"#utility.yul\":3317:3323   */\n  dup2\n    /* \"#utility.yul\":3277:3315   */\n  tag_48\n    /* \"#utility.yul\":3309:3313   */\n  dup5\n    /* \"#utility.yul\":3303:3314   */\n  sload\n    /* \"#utility.yul\":3277:3315   */\n  tag_11\n  jump\t// in\ntag_48:\n    /* \"#utility.yul\":3271:3275   */\n  dup5\n    /* \"#utility.yul\":3227:3324   */\n  tag_13\n  jump\t// in\ntag_47:\n    /* \"#utility.yul\":3379:3383   */\n  0x20\n  dup1\n    /* \"#utility.yul\":3436:3438   */\n  0x1f\n    /* \"#utility.yul\":3425:3439   */\n  dup4\n  gt\n    /* \"#utility.yul\":3453:3454   */\n  0x01\n    /* \"#utility.yul\":3448:4111   */\n  dup2\n  eq\n  tag_50\n  jumpi\n    /* \"#utility.yul\":4155:4156   */\n  0x00\n    /* \"#utility.yul\":4172:4178   */\n  dup5\n    /* \"#utility.yul\":4169:4258   */\n  iszero\n  tag_51\n  jumpi\n  pop\n    /* \"#utility.yul\":4224:4243   */\n  dup6\n  dup4\n  add\n    /* \"#utility.yul\":4218:4244   */\n  mload\n    /* \"#utility.yul\":4169:4258   */\ntag_51:\n  not(0x00)\n    /* \"#utility.yul\":2980:2981   */\n  0x03\n    /* \"#utility.yul\":2976:2987   */\n  dup7\n  swap1\n  shl\n    /* \"#utility.yul\":2972:2996   */\n  shr\n    /* \"#utility.yul\":2968:2997   */\n  not\n    /* \"#utility.yul\":2958:2998   */\n  and\n    /* \"#utility.yul\":3004:3005   */\n  0x01\n    /* \"#utility.yul\":3000:3011   */\n  dup6\n  swap1\n  shl\n    /* \"#utility.yul\":2955:3012   */\n  or\n    /* \"#utility.yul\":4271:4352   */\n  dup6\n  sstore\n    /* \"#utility.yul\":3418:4362   */\n  jump(tag_42)\n    /* \"#utility.yul\":3448:4111   */\ntag_50:\n    /* \"#utility.yul\":2251:2252   */\n  0x00\n    /* \"#utility.yul\":2244:2258   */\n  dup6\n  dup2\n  mstore\n    /* \"#utility.yul\":2288:2292   */\n  0x20\n    /* \"#utility.yul\":2275:2293   */\n  dup2\n  keccak256\n  not(0x1f)\n    /* \"#utility.yul\":3484:3504   */\n  dup7\n  and\n  swap2\n    /* \"#utility.yul\":3602:3838   */\ntag_54:\n    /* \"#utility.yul\":3616:3623   */\n  dup3\n    /* \"#utility.yul\":3613:3614   */\n  dup2\n    /* \"#utility.yul\":3610:3624   */\n  lt\n    /* \"#utility.yul\":3602:3838   */\n  iszero\n  tag_56\n  jumpi\n    /* \"#utility.yul\":3705:3724   */\n  dup9\n  dup7\n  add\n    /* \"#utility.yul\":3699:3725   */\n  mload\n    /* \"#utility.yul\":3684:3726   */\n  dup3\n  sstore\n    /* \"#utility.yul\":3797:3824   */\n  swap5\n  dup5\n  add\n  swap5\n    /* \"#utility.yul\":3765:3766   */\n  0x01\n    /* \"#utility.yul\":3753:3767   */\n  swap1\n  swap2\n  add\n  swap1\n    /* \"#utility.yul\":3632:3651   */\n  dup5\n  add\n    /* \"#utility.yul\":3602:3838   */\n  jump(tag_54)\ntag_56:\n    /* \"#utility.yul\":3606:3609   */\n  pop\n    /* \"#utility.yul\":3866:3872   */\n  dup6\n    /* \"#utility.yul\":3857:3864   */\n  dup3\n    /* \"#utility.yul\":3854:3873   */\n  lt\n    /* \"#utility.yul\":3851:4052   */\n  iszero\n  tag_57\n  jumpi\n    /* \"#utility.yul\":3927:3946   */\n  dup8\n  dup6\n  add\n    /* \"#utility.yul\":3921:3947   */\n  mload\n  not(0x00)\n    /* \"#utility.yul\":4010:4011   */\n  0x03\n    /* \"#utility.yul\":4006:4020   */\n  dup9\n  swap1\n  shl\n    /* \"#utility.yul\":4022:4025   */\n  0xf8\n    /* \"#utility.yul\":4002:4026   */\n  and\n    /* \"#utility.yul\":3998:4035   */\n  shr\n    /* \"#utility.yul\":3994:4036   */\n  not\n    /* \"#utility.yul\":3979:4037   */\n  and\n    /* \"#utility.yul\":3964:4038   */\n  dup2\n  sstore\n    /* \"#utility.yul\":3851:4052   */\ntag_57:\n  pop\n  pop\n  pop\n  pop\n  pop\n    /* \"#utility.yul\":4098:4099   */\n  0x01\n    /* \"#utility.yul\":4082:4096   */\n  swap1\n  dup2\n  shl\n    /* \"#utility.yul\":4078:4100   */\n  add\n    /* \"#utility.yul\":4065:4101   */\n  swap1\n  sstore\n  pop\n    /* \"#utility.yul\":3023:4368   */\n  jump\t// out\ntag_15:\n    /* \"contracts/core/MProject.sol\":613:13056  contract MProject is IMProject, IMVersion { ... */\n  mload(0x80)\n  codecopy(0x00, dataOffset(sub_0), dataSize(sub_0))\n  0x00\n  assignImmutable(\"0x840881693295f1213bc621234bc18aa1727c90c9e1416799df22e18f9c7c029b\")\n  return(0x00, dataSize(sub_0))\nstop\n\nsub_0: assembly {\n        /* \"contracts/core/MProject.sol\":613:13056  contract MProject is IMProject, IMVersion { ... */\n      mstore(0x40, 0x80)\n      callvalue\n      dup1\n      iszero\n      tag_1\n      jumpi\n      0x00\n      dup1\n      revert\n    tag_1:\n      pop\n      jumpi(tag_2, lt(calldatasize, 0x04))\n      shr(0xe0, calldataload(0x00))\n      dup1\n      0x3ba94ed8\n      gt\n      tag_18\n      jumpi\n      dup1\n      0xcaffe061\n      gt\n      tag_19\n      jumpi\n      dup1\n      0xcaffe061\n      eq\n      tag_14\n      jumpi\n      dup1\n      0xf2aa76aa\n      eq\n      tag_15\n      jumpi\n      dup1\n      0xf3cda72c\n      eq\n      tag_16\n      jumpi\n      dup1\n      0xf96baedc\n      eq\n      tag_17\n      jumpi\n      0x00\n      dup1\n      revert\n    tag_19:\n      dup1\n      0x3ba94ed8\n      eq\n      tag_10\n      jumpi\n      dup1\n      0x779a5a7f\n      eq\n      tag_11\n      jumpi\n      dup1\n      0x8e2c093d\n      eq\n      tag_12\n      jumpi\n      dup1\n      0xa91050c4\n      eq\n      tag_13\n      jumpi\n      0x00\n      dup1\n      revert\n    tag_18:\n      dup1\n      0x190fdcbd\n      gt\n      tag_20\n      jumpi\n      dup1\n      0x190fdcbd\n      eq\n      tag_6\n      jumpi\n      dup1\n      0x1fae35d4\n      eq\n      tag_7\n      jumpi\n      dup1\n      0x2890ee5c\n      eq\n      tag_8\n      jumpi\n      dup1\n      0x3280c215\n      eq\n      tag_9\n      jumpi\n      0x00\n      dup1\n      revert\n    tag_20:\n      dup1\n      0x04c325be\n      eq\n      tag_3\n      jumpi\n      dup1\n      0x0d8e6e2c\n      eq\n      tag_4\n      jumpi\n      dup1\n      0x17d7de7c\n      eq\n      tag_5\n      jumpi\n    tag_2:\n      0x00\n      dup1\n      revert\n        /* \"contracts/core/MProject.sol\":8562:8864  function updatePayoutStatus(uint256 _deliverableId, PayoutStatus _status) external payoutStrategyOnly returns (bool _updated) {... */\n    tag_3:\n      tag_21\n      tag_22\n      calldatasize\n      0x04\n      tag_23\n      jump\t// in\n    tag_22:\n      tag_24\n      jump\t// in\n    tag_21:\n      mload(0x40)\n        /* \"#utility.yul\":801:815   */\n      swap1\n      iszero\n        /* \"#utility.yul\":794:816   */\n      iszero\n        /* \"#utility.yul\":776:817   */\n      dup2\n      mstore\n        /* \"#utility.yul\":764:766   */\n      0x20\n        /* \"#utility.yul\":749:767   */\n      add\n        /* \"contracts/core/MProject.sol\":8562:8864  function updatePayoutStatus(uint256 _deliverableId, PayoutStatus _status) external payoutStrategyOnly returns (bool _updated) {... */\n    tag_25:\n      mload(0x40)\n      dup1\n      swap2\n      sub\n      swap1\n      return\n        /* \"contracts/core/MProject.sol\":2941:3038  function getVersion() pure external returns (uint256 _version) {... */\n    tag_4:\n        /* \"contracts/core/MProject.sol\":1237:1238  2 */\n      0x02\n        /* \"contracts/core/MProject.sol\":2941:3038  function getVersion() pure external returns (uint256 _version) {... */\n    tag_27:\n      mload(0x40)\n        /* \"#utility.yul\":974:999   */\n      swap1\n      dup2\n      mstore\n        /* \"#utility.yul\":962:964   */\n      0x20\n        /* \"#utility.yul\":947:965   */\n      add\n        /* \"contracts/core/MProject.sol\":2941:3038  function getVersion() pure external returns (uint256 _version) {... */\n      tag_25\n        /* \"#utility.yul\":828:1005   */\n      jump\n        /* \"contracts/core/MProject.sol\":2839:2933  function getName() pure external returns (string memory _name) {... */\n    tag_5:\n        /* \"contracts/core/MProject.sol\":2920:2924  name */\n      0x40\n      dup1\n      mload\n      dup1\n      dup3\n      add\n      dup3\n      mstore\n      0x07\n      dup2\n      mstore\n      shl(0xca, 0x141493d29150d5)\n      0x20\n      dup3\n      add\n      mstore\n        /* \"contracts/core/MProject.sol\":2839:2933  function getName() pure external returns (string memory _name) {... */\n      swap1\n      mload\n      tag_25\n      swap2\n        /* \"contracts/core/MProject.sol\":2920:2924  name */\n      swap1\n        /* \"contracts/core/MProject.sol\":2839:2933  function getName() pure external returns (string memory _name) {... */\n      tag_34\n      jump\t// in\n        /* \"contracts/core/MProject.sol\":4550:4714  function getDeliverableById(uint256 _deliverableId) view external returns (Deliverable memory _deliverable){... */\n    tag_6:\n      tag_35\n      tag_36\n      calldatasize\n      0x04\n      tag_37\n      jump\t// in\n    tag_36:\n      tag_38\n      jump\t// in\n    tag_35:\n      mload(0x40)\n      tag_25\n      swap2\n      swap1\n      tag_40\n      jump\t// in\n        /* \"contracts/core/MProject.sol\":3636:4024  function getPaymentDirectives() view external returns (PaymentDirective [] memory _paymentDirectives) {... */\n    tag_7:\n      tag_41\n      tag_42\n      jump\t// in\n    tag_41:\n      mload(0x40)\n      tag_25\n      swap2\n      swap1\n      tag_44\n      jump\t// in\n        /* \"contracts/core/MProject.sol\":4168:4333  function getContributorById(uint256 _contributorId ) view external returns (Contributor memory _contributor){... */\n    tag_8:\n      tag_45\n      tag_46\n      calldatasize\n      0x04\n      tag_37\n      jump\t// in\n    tag_46:\n      tag_47\n      jump\t// in\n    tag_45:\n      mload(0x40)\n      tag_25\n      swap2\n      swap1\n      tag_49\n      jump\t// in\n        /* \"contracts/core/MProject.sol\":6894:8554  function submitDeliverable(uint256 _deliverableId) external deliverableAssigneeOnly(_deliverableId) returns (bool _submitted) {... */\n    tag_9:\n      tag_21\n      tag_51\n      calldatasize\n      0x04\n      tag_37\n      jump\t// in\n    tag_51:\n      tag_52\n      jump\t// in\n        /* \"contracts/core/MProject.sol\":3046:3628  function getProjectDescriptor() view external returns (Project memory _project){... */\n    tag_10:\n      tag_54\n      tag_55\n      jump\t// in\n    tag_54:\n      mload(0x40)\n      tag_25\n      swap2\n      swap1\n      tag_57\n      jump\t// in\n        /* \"contracts/core/MProject.sol\":4341:4542  function getContributorByAddress(address _contributorWallet) view external returns (Contributor memory _contributor){... */\n    tag_11:\n      tag_45\n      tag_59\n      calldatasize\n      0x04\n      tag_60\n      jump\t// in\n    tag_59:\n      tag_61\n      jump\t// in\n        /* \"contracts/core/MProject.sol\":4032:4160  function getContributorIds() view external returns (uint256 [] memory _contributorIds) {... */\n    tag_12:\n      tag_63\n      tag_64\n      jump\t// in\n    tag_63:\n      mload(0x40)\n      tag_25\n      swap2\n      swap1\n      tag_66\n      jump\t// in\n        /* \"contracts/core/MProject.sol\":5546:6886  function addDeliverable(Deliverable memory _deliverable, uint256 _contributorId) external projectAdminOnly returns (uint256 deliverableCount){... */\n    tag_13:\n      tag_27\n      tag_68\n      calldatasize\n      0x04\n      tag_69\n      jump\t// in\n    tag_68:\n      tag_70\n      jump\t// in\n        /* \"contracts/core/MProject.sol\":10229:10469  function amendBudget(uint256 _newBudget) external projectAdminOnly returns (int256 _amendmentAmount) {... */\n    tag_14:\n      tag_27\n      tag_73\n      calldatasize\n      0x04\n      tag_37\n      jump\t// in\n    tag_73:\n      tag_74\n      jump\t// in\n        /* \"contracts/core/MProject.sol\":8872:9193  function updateDeliverable(Deliverable memory _deliverable) external projectAdminOnly returns (bool _updated) {... */\n    tag_15:\n      tag_21\n      tag_78\n      calldatasize\n      0x04\n      tag_79\n      jump\t// in\n    tag_78:\n      tag_80\n      jump\t// in\n        /* \"contracts/core/MProject.sol\":9201:10221  function reAssignDeliverable(uint256 _deliverableId, uint256 _newContributorId) external projectAdminOnly returns (bool _updated) {... */\n    tag_16:\n      tag_21\n      tag_83\n      calldatasize\n      0x04\n      tag_84\n      jump\t// in\n    tag_83:\n      tag_85\n      jump\t// in\n        /* \"contracts/core/MProject.sol\":4722:5538  function addContributor(Contributor memory _contributor) external returns (uint256 _contributorId) {... */\n    tag_17:\n      tag_27\n      tag_88\n      calldatasize\n      0x04\n      tag_89\n      jump\t// in\n    tag_88:\n      tag_90\n      jump\t// in\n        /* \"contracts/core/MProject.sol\":8562:8864  function updatePayoutStatus(uint256 _deliverableId, PayoutStatus _status) external payoutStrategyOnly returns (bool _updated) {... */\n    tag_24:\n        /* \"contracts/core/MProject.sol\":1078:1086  register */\n      sload(0x02)\n        /* \"contracts/core/MProject.sol\":1098:1116  PAYOUT_STRATEGY_CA */\n      0x40\n      dup1\n      mload\n      dup1\n      dup3\n      add\n      dup3\n      mstore\n      0x1e\n      dup2\n      mstore\n      0x52455345525645445f4d5f415f44454c49564552595f53545241544547590000\n      0x20\n      dup3\n      add\n      mstore\n        /* \"contracts/core/MProject.sol\":1078:1117  register.getAddress(PAYOUT_STRATEGY_CA) */\n      swap1\n      mload\n      shl(0xe0, 0xbf40fac1)\n      dup2\n      mstore\n        /* \"contracts/core/MProject.sol\":8673:8686  bool _updated */\n      0x00\n      swap3\n      sub(shl(0xa0, 0x01), 0x01)\n        /* \"contracts/core/MProject.sol\":1078:1086  register */\n      and\n      swap2\n        /* \"contracts/core/MProject.sol\":1078:1097  register.getAddress */\n      0xbf40fac1\n      swap2\n        /* \"contracts/core/MProject.sol\":1078:1117  register.getAddress(PAYOUT_STRATEGY_CA) */\n      tag_93\n      swap2\n        /* \"contracts/core/MProject.sol\":1098:1116  PAYOUT_STRATEGY_CA */\n      swap1\n        /* \"contracts/core/MProject.sol\":1078:1117  register.getAddress(PAYOUT_STRATEGY_CA) */\n      0x04\n      add\n      tag_34\n      jump\t// in\n    tag_93:\n      0x20\n      mload(0x40)\n      dup1\n      dup4\n      sub\n      dup2\n      dup7\n      gas\n      staticcall\n      iszero\n      dup1\n      iszero\n      tag_95\n      jumpi\n      returndatasize\n      0x00\n      dup1\n      returndatacopy\n      revert(0x00, returndatasize)\n    tag_95:\n      pop\n      pop\n      pop\n      pop\n      mload(0x40)\n      returndatasize\n      not(0x1f)\n      0x1f\n      dup3\n      add\n      and\n      dup3\n      add\n      dup1\n      0x40\n      mstore\n      pop\n      dup2\n      add\n      swap1\n      tag_96\n      swap2\n      swap1\n      tag_97\n      jump\t// in\n    tag_96:\n      sub(shl(0xa0, 0x01), 0x01)\n        /* \"contracts/core/MProject.sol\":1064:1117  msg.sender == register.getAddress(PAYOUT_STRATEGY_CA) */\n      and\n        /* \"contracts/core/MProject.sol\":1064:1074  msg.sender */\n      caller\n      sub(shl(0xa0, 0x01), 0x01)\n        /* \"contracts/core/MProject.sol\":1064:1117  msg.sender == register.getAddress(PAYOUT_STRATEGY_CA) */\n      and\n      eq\n        /* \"contracts/core/MProject.sol\":1056:1142  require(msg.sender == register.getAddress(PAYOUT_STRATEGY_CA), \"payout strategy only\") */\n      tag_98\n      jumpi\n      mload(0x40)\n      shl(0xe5, 0x461bcd)\n      dup2\n      mstore\n        /* \"#utility.yul\":14596:14598   */\n      0x20\n        /* \"contracts/core/MProject.sol\":1056:1142  require(msg.sender == register.getAddress(PAYOUT_STRATEGY_CA), \"payout strategy only\") */\n      0x04\n      dup3\n      add\n        /* \"#utility.yul\":14578:14599   */\n      mstore\n        /* \"#utility.yul\":14635:14637   */\n      0x14\n        /* \"#utility.yul\":14615:14633   */\n      0x24\n      dup3\n      add\n        /* \"#utility.yul\":14608:14638   */\n      mstore\n      shl(0x60, 0x7061796f7574207374726174656779206f6e6c79)\n        /* \"#utility.yul\":14654:14672   */\n      0x44\n      dup3\n      add\n        /* \"#utility.yul\":14647:14697   */\n      mstore\n        /* \"#utility.yul\":14714:14732   */\n      0x64\n      add\n        /* \"contracts/core/MProject.sol\":1056:1142  require(msg.sender == register.getAddress(PAYOUT_STRATEGY_CA), \"payout strategy only\") */\n    tag_99:\n      mload(0x40)\n      dup1\n      swap2\n      sub\n      swap1\n      revert\n    tag_98:\n        /* \"contracts/core/MProject.sol\":8707:8741  isKnownDeliverable[_deliverableId] */\n      0x00\n      dup4\n      dup2\n      mstore\n        /* \"contracts/core/MProject.sol\":8707:8725  isKnownDeliverable */\n      0x10\n        /* \"contracts/core/MProject.sol\":8707:8741  isKnownDeliverable[_deliverableId] */\n      0x20\n      mstore\n      0x40\n      swap1\n      keccak256\n      sload\n      0xff\n      and\n        /* \"contracts/core/MProject.sol\":8699:8768  require(isKnownDeliverable[_deliverableId], \" unkknown deliverable \") */\n      tag_102\n      jumpi\n      mload(0x40)\n      shl(0xe5, 0x461bcd)\n      dup2\n      mstore\n      0x04\n      add\n      tag_99\n      swap1\n      tag_104\n      jump\t// in\n    tag_102:\n        /* \"contracts/core/MProject.sol\":8779:8810  deliverableById[_deliverableId] */\n      0x00\n      dup4\n      dup2\n      mstore\n        /* \"contracts/core/MProject.sol\":8779:8794  deliverableById */\n      0x11\n        /* \"contracts/core/MProject.sol\":8779:8810  deliverableById[_deliverableId] */\n      0x20\n      mstore\n      0x40\n      swap1\n      keccak256\n        /* \"contracts/core/MProject.sol\":8779:8823  deliverableById[_deliverableId].payoutStatus */\n      0x06\n      add\n        /* \"contracts/core/MProject.sol\":8779:8833  deliverableById[_deliverableId].payoutStatus = _status */\n      dup1\n      sload\n        /* \"contracts/core/MProject.sol\":8826:8833  _status */\n      dup4\n      swap2\n        /* \"contracts/core/MProject.sol\":8779:8823  deliverableById[_deliverableId].payoutStatus */\n      swap1\n      not(0xff00)\n        /* \"contracts/core/MProject.sol\":8779:8833  deliverableById[_deliverableId].payoutStatus = _status */\n      and\n      0x0100\n        /* \"contracts/core/MProject.sol\":8826:8833  _status */\n      dup4\n        /* \"contracts/core/MProject.sol\":8779:8833  deliverableById[_deliverableId].payoutStatus = _status */\n      0x04\n      dup2\n      gt\n      iszero\n      tag_106\n      jumpi\n      tag_106\n      tag_107\n      jump\t// in\n    tag_106:\n      mul\n      or\n      swap1\n      sstore\n      pop\n        /* \"contracts/core/MProject.sol\":8851:8855  true */\n      0x01\n        /* \"contracts/core/MProject.sol\":8844:8855  return true */\n      swap1\n      pop\n        /* \"contracts/core/MProject.sol\":1153:1154  _ */\n    tag_101:\n        /* \"contracts/core/MProject.sol\":8562:8864  function updatePayoutStatus(uint256 _deliverableId, PayoutStatus _status) external payoutStrategyOnly returns (bool _updated) {... */\n      swap3\n      swap2\n      pop\n      pop\n      jump\t// out\n        /* \"contracts/core/MProject.sol\":4550:4714  function getDeliverableById(uint256 _deliverableId) view external returns (Deliverable memory _deliverable){... */\n    tag_38:\n        /* \"contracts/core/MProject.sol\":4625:4656  Deliverable memory _deliverable */\n      tag_110\n      tag_111\n      jump\t// in\n    tag_110:\n        /* \"contracts/core/MProject.sol\":4675:4690  deliverableById */\n      0x11\n        /* \"contracts/core/MProject.sol\":4675:4706  deliverableById[_deliverableId] */\n      0x00\n        /* \"contracts/core/MProject.sol\":4691:4705  _deliverableId */\n      dup4\n        /* \"contracts/core/MProject.sol\":4675:4706  deliverableById[_deliverableId] */\n      dup2\n      mstore\n      0x20\n      add\n      swap1\n      dup2\n      mstore\n      0x20\n      add\n      0x00\n      keccak256\n        /* \"contracts/core/MProject.sol\":4668:4706  return deliverableById[_deliverableId] */\n      mload(0x40)\n      dup1\n      0xe0\n      add\n      0x40\n      mstore\n      swap1\n      dup2\n      0x00\n      dup3\n      add\n      sload\n      dup2\n      mstore\n      0x20\n      add\n      0x01\n      dup3\n      add\n      sload\n      dup2\n      mstore\n      0x20\n      add\n      0x02\n      dup3\n      add\n      sload\n      dup2\n      mstore\n      0x20\n      add\n      0x03\n      dup3\n      add\n      dup1\n      sload\n      tag_113\n      swap1\n      tag_114\n      jump\t// in\n    tag_113:\n      dup1\n      0x1f\n      add\n      0x20\n      dup1\n      swap2\n      div\n      mul\n      0x20\n      add\n      mload(0x40)\n      swap1\n      dup2\n      add\n      0x40\n      mstore\n      dup1\n      swap3\n      swap2\n      swap1\n      dup2\n      dup2\n      mstore\n      0x20\n      add\n      dup3\n      dup1\n      sload\n      tag_115\n      swap1\n      tag_114\n      jump\t// in\n    tag_115:\n      dup1\n      iszero\n      tag_116\n      jumpi\n      dup1\n      0x1f\n      lt\n      tag_117\n      jumpi\n      0x0100\n      dup1\n      dup4\n      sload\n      div\n      mul\n      dup4\n      mstore\n      swap2\n      0x20\n      add\n      swap2\n      jump(tag_116)\n    tag_117:\n      dup3\n      add\n      swap2\n      swap1\n      0x00\n      mstore\n      keccak256(0x00, 0x20)\n      swap1\n    tag_118:\n      dup2\n      sload\n      dup2\n      mstore\n      swap1\n      0x01\n      add\n      swap1\n      0x20\n      add\n      dup1\n      dup4\n      gt\n      tag_118\n      jumpi\n      dup3\n      swap1\n      sub\n      0x1f\n      and\n      dup3\n      add\n      swap2\n    tag_116:\n      pop\n      pop\n      pop\n      pop\n      pop\n      dup2\n      mstore\n      0x20\n      add\n      0x04\n      dup3\n      add\n      mload(0x40)\n      dup1\n      0x40\n      add\n      0x40\n      mstore\n      swap1\n      dup2\n      0x00\n      dup3\n      add\n      sload\n      dup2\n      mstore\n      0x20\n      add\n      0x01\n      dup3\n      add\n      dup1\n      sload\n      tag_119\n      swap1\n      tag_114\n      jump\t// in\n    tag_119:\n      dup1\n      0x1f\n      add\n      0x20\n      dup1\n      swap2\n      div\n      mul\n      0x20\n      add\n      mload(0x40)\n      swap1\n      dup2\n      add\n      0x40\n      mstore\n      dup1\n      swap3\n      swap2\n      swap1\n      dup2\n      dup2\n      mstore\n      0x20\n      add\n      dup3\n      dup1\n      sload\n      tag_120\n      swap1\n      tag_114\n      jump\t// in\n    tag_120:\n      dup1\n      iszero\n      tag_121\n      jumpi\n      dup1\n      0x1f\n      lt\n      tag_122\n      jumpi\n      0x0100\n      dup1\n      dup4\n      sload\n      div\n      mul\n      dup4\n      mstore\n      swap2\n      0x20\n      add\n      swap2\n      jump(tag_121)\n    tag_122:\n      dup3\n      add\n      swap2\n      swap1\n      0x00\n      mstore\n      keccak256(0x00, 0x20)\n      swap1\n    tag_123:\n      dup2\n      sload\n      dup2\n      mstore\n      swap1\n      0x01\n      add\n      swap1\n      0x20\n      add\n      dup1\n      dup4\n      gt\n      tag_123\n      jumpi\n      dup3\n      swap1\n      sub\n      0x1f\n      and\n      dup3\n      add\n      swap2\n    tag_121:\n      pop\n      pop\n      pop\n      swap2\n      swap1\n      swap3\n      mstore\n      pop\n      pop\n      pop\n      dup2\n      mstore\n      0x06\n      dup3\n      add\n      sload\n      0x20\n      swap1\n      swap2\n      add\n      swap1\n      0xff\n      and\n      0x04\n      dup2\n      gt\n      iszero\n      tag_125\n      jumpi\n      tag_125\n      tag_107\n      jump\t// in\n    tag_125:\n      0x04\n      dup2\n      gt\n      iszero\n      tag_127\n      jumpi\n      tag_127\n      tag_107\n      jump\t// in\n    tag_127:\n      dup2\n      mstore\n      0x20\n      add\n      0x06\n      dup3\n      add\n      0x01\n      swap1\n      sload\n      swap1\n      0x0100\n      exp\n      swap1\n      div\n      0xff\n      and\n      0x04\n      dup2\n      gt\n      iszero\n      tag_129\n      jumpi\n      tag_129\n      tag_107\n      jump\t// in\n    tag_129:\n      0x04\n      dup2\n      gt\n      iszero\n      tag_131\n      jumpi\n      tag_131\n      tag_107\n      jump\t// in\n    tag_131:\n      swap1\n      mstore\n      pop\n      swap3\n        /* \"contracts/core/MProject.sol\":4550:4714  function getDeliverableById(uint256 _deliverableId) view external returns (Deliverable memory _deliverable){... */\n      swap2\n      pop\n      pop\n      jump\t// out\n        /* \"contracts/core/MProject.sol\":3636:4024  function getPaymentDirectives() view external returns (PaymentDirective [] memory _paymentDirectives) {... */\n    tag_42:\n        /* \"contracts/core/MProject.sol\":3793:3812  paymentDirectiveIds */\n      0x08\n        /* \"contracts/core/MProject.sol\":3793:3819  paymentDirectiveIds.length */\n      sload\n        /* \"contracts/core/MProject.sol\":3691:3736  PaymentDirective [] memory _paymentDirectives */\n      0x60\n      swap1\n      sub(shl(0x40, 0x01), 0x01)\n        /* \"contracts/core/MProject.sol\":3770:3820  new PaymentDirective[](paymentDirectiveIds.length) */\n      dup2\n      gt\n      iszero\n      tag_134\n      jumpi\n      tag_134\n      tag_135\n      jump\t// in\n    tag_134:\n      mload(0x40)\n      swap1\n      dup1\n      dup3\n      mstore\n      dup1\n      0x20\n      mul\n      0x20\n      add\n      dup3\n      add\n      0x40\n      mstore\n      dup1\n      iszero\n      tag_136\n      jumpi\n      dup2\n      0x20\n      add\n    tag_137:\n      tag_138\n      tag_139\n      jump\t// in\n    tag_138:\n      dup2\n      mstore\n      0x20\n      add\n      swap1\n      0x01\n      swap1\n      sub\n      swap1\n      dup2\n      tag_137\n      jumpi\n      swap1\n      pop\n    tag_136:\n      pop\n        /* \"contracts/core/MProject.sol\":3749:3820  _paymentDirectives = new PaymentDirective[](paymentDirectiveIds.length) */\n      swap1\n      pop\n        /* \"contracts/core/MProject.sol\":3835:3844  uint256 x */\n      0x00\n        /* \"contracts/core/MProject.sol\":3831:3981  for(uint256 x = 0; x < _paymentDirectives.length; x++ ){... */\n    tag_140:\n        /* \"contracts/core/MProject.sol\":3854:3872  _paymentDirectives */\n      dup2\n        /* \"contracts/core/MProject.sol\":3854:3879  _paymentDirectives.length */\n      mload\n        /* \"contracts/core/MProject.sol\":3850:3851  x */\n      dup2\n        /* \"contracts/core/MProject.sol\":3850:3879  x < _paymentDirectives.length */\n      lt\n        /* \"contracts/core/MProject.sol\":3831:3981  for(uint256 x = 0; x < _paymentDirectives.length; x++ ){... */\n      iszero\n      tag_141\n      jumpi\n        /* \"contracts/core/MProject.sol\":3925:3945  paymentDirectiveById */\n      0x14\n        /* \"contracts/core/MProject.sol\":3925:3969  paymentDirectiveById[paymentDirectiveIds[x]] */\n      0x00\n        /* \"contracts/core/MProject.sol\":3946:3965  paymentDirectiveIds */\n      0x08\n        /* \"contracts/core/MProject.sol\":3966:3967  x */\n      dup4\n        /* \"contracts/core/MProject.sol\":3946:3968  paymentDirectiveIds[x] */\n      dup2\n      sload\n      dup2\n      lt\n      tag_144\n      jumpi\n      tag_144\n      tag_145\n      jump\t// in\n    tag_144:\n      swap1\n      0x00\n      mstore\n      keccak256(0x00, 0x20)\n      add\n      sload\n        /* \"contracts/core/MProject.sol\":3925:3969  paymentDirectiveById[paymentDirectiveIds[x]] */\n      dup2\n      mstore\n      0x20\n      add\n      swap1\n      dup2\n      mstore\n      0x20\n      add\n      0x00\n      keccak256\n        /* \"contracts/core/MProject.sol\":3901:3969  _paymentDirectives[x] = paymentDirectiveById[paymentDirectiveIds[x]] */\n      mload(0x40)\n      dup1\n      0xe0\n      add\n      0x40\n      mstore\n      swap1\n      dup2\n      0x00\n      dup3\n      add\n      sload\n      dup2\n      mstore\n      0x20\n      add\n      0x01\n      dup3\n      add\n      mload(0x40)\n      dup1\n      0x80\n      add\n      0x40\n      mstore\n      swap1\n      dup2\n      0x00\n      dup3\n      add\n      sload\n      dup2\n      mstore\n      0x20\n      add\n      0x01\n      dup3\n      add\n      sload\n      dup2\n      mstore\n      0x20\n      add\n      0x02\n      dup3\n      add\n      0x00\n      swap1\n      sload\n      swap1\n      0x0100\n      exp\n      swap1\n      div\n      sub(shl(0xa0, 0x01), 0x01)\n      and\n      sub(shl(0xa0, 0x01), 0x01)\n      and\n      sub(shl(0xa0, 0x01), 0x01)\n      and\n      dup2\n      mstore\n      0x20\n      add\n      0x03\n      dup3\n      add\n      mload(0x40)\n      dup1\n      0x40\n      add\n      0x40\n      mstore\n      swap1\n      dup2\n      0x00\n      dup3\n      add\n      sload\n      dup2\n      mstore\n      0x20\n      add\n      0x01\n      dup3\n      add\n      dup1\n      sload\n      tag_147\n      swap1\n      tag_114\n      jump\t// in\n    tag_147:\n      dup1\n      0x1f\n      add\n      0x20\n      dup1\n      swap2\n      div\n      mul\n      0x20\n      add\n      mload(0x40)\n      swap1\n      dup2\n      add\n      0x40\n      mstore\n      dup1\n      swap3\n      swap2\n      swap1\n      dup2\n      dup2\n      mstore\n      0x20\n      add\n      dup3\n      dup1\n      sload\n      tag_148\n      swap1\n      tag_114\n      jump\t// in\n    tag_148:\n      dup1\n      iszero\n      tag_149\n      jumpi\n      dup1\n      0x1f\n      lt\n      tag_150\n      jumpi\n      0x0100\n      dup1\n      dup4\n      sload\n      div\n      mul\n      dup4\n      mstore\n      swap2\n      0x20\n      add\n      swap2\n      jump(tag_149)\n    tag_150:\n      dup3\n      add\n      swap2\n      swap1\n      0x00\n      mstore\n      keccak256(0x00, 0x20)\n      swap1\n    tag_151:\n      dup2\n      sload\n      dup2\n      mstore\n      swap1\n      0x01\n      add\n      swap1\n      0x20\n      add\n      dup1\n      dup4\n      gt\n      tag_151\n      jumpi\n      dup3\n      swap1\n      sub\n      0x1f\n      and\n      dup3\n      add\n      swap2\n    tag_149:\n      pop\n      pop\n      pop\n      swap2\n      swap1\n      swap3\n      mstore\n      pop\n      pop\n      pop\n      swap1\n      mstore\n      pop\n      dup2\n      mstore\n      0x06\n      dup3\n      add\n      sload\n      0x20\n      dup3\n      add\n      mstore\n      0x07\n      dup3\n      add\n      sload\n      0x40\n      dup3\n      add\n      mstore\n      0x08\n      dup3\n      add\n      sload\n      0x60\n      dup3\n      add\n      mstore\n      0x09\n      dup3\n      add\n      sload\n      0x80\n      dup3\n      add\n      mstore\n      0x0a\n      swap1\n      swap2\n      add\n      sload\n      sub(shl(0xa0, 0x01), 0x01)\n      and\n      0xa0\n      swap1\n      swap2\n      add\n      mstore\n        /* \"contracts/core/MProject.sol\":3901:3922  _paymentDirectives[x] */\n      dup3\n      mload\n        /* \"contracts/core/MProject.sol\":3901:3919  _paymentDirectives */\n      dup4\n      swap1\n        /* \"contracts/core/MProject.sol\":3920:3921  x */\n      dup4\n      swap1\n        /* \"contracts/core/MProject.sol\":3901:3922  _paymentDirectives[x] */\n      dup2\n      lt\n      tag_153\n      jumpi\n      tag_153\n      tag_145\n      jump\t// in\n    tag_153:\n      0x20\n      swap1\n      dup2\n      mul\n      swap2\n      swap1\n      swap2\n      add\n      add\n        /* \"contracts/core/MProject.sol\":3901:3969  _paymentDirectives[x] = paymentDirectiveById[paymentDirectiveIds[x]] */\n      mstore\n        /* \"contracts/core/MProject.sol\":3881:3884  x++ */\n      0x01\n      add\n        /* \"contracts/core/MProject.sol\":3831:3981  for(uint256 x = 0; x < _paymentDirectives.length; x++ ){... */\n      jump(tag_140)\n    tag_141:\n      pop\n        /* \"contracts/core/MProject.sol\":3636:4024  function getPaymentDirectives() view external returns (PaymentDirective [] memory _paymentDirectives) {... */\n      swap1\n      jump\t// out\n        /* \"contracts/core/MProject.sol\":4168:4333  function getContributorById(uint256 _contributorId ) view external returns (Contributor memory _contributor){... */\n    tag_47:\n        /* \"contracts/core/MProject.sol\":4244:4275  Contributor memory _contributor */\n      tag_154\n      tag_155\n      jump\t// in\n    tag_154:\n        /* \"contracts/core/MProject.sol\":4294:4325  contributorById[_contributorId] */\n      0x00\n      dup3\n      dup2\n      mstore\n        /* \"contracts/core/MProject.sol\":4294:4309  contributorById */\n      0x0b\n        /* \"contracts/core/MProject.sol\":4294:4325  contributorById[_contributorId] */\n      0x20\n      swap1\n      dup2\n      mstore\n      0x40\n      swap2\n      dup3\n      swap1\n      keccak256\n        /* \"contracts/core/MProject.sol\":4287:4325  return contributorById[_contributorId] */\n      dup3\n      mload\n      0x80\n      dup2\n      add\n      dup5\n      mstore\n      dup2\n      sload\n      dup2\n      mstore\n      0x01\n      dup3\n      add\n      sload\n      dup2\n      dup5\n      add\n      mstore\n      0x02\n      dup3\n      add\n      sload\n      sub(shl(0xa0, 0x01), 0x01)\n      and\n      dup2\n      dup6\n      add\n      mstore\n      dup4\n      mload\n      dup1\n      dup6\n      add\n      swap1\n      swap5\n      mstore\n      0x03\n      dup3\n      add\n      dup1\n      sload\n      dup6\n      mstore\n      0x04\n      dup4\n      add\n      dup1\n      sload\n      swap3\n      swap6\n        /* \"contracts/core/MProject.sol\":4294:4325  contributorById[_contributorId] */\n      swap4\n      swap5\n        /* \"contracts/core/MProject.sol\":4287:4325  return contributorById[_contributorId] */\n      0x60\n      dup8\n      add\n      swap5\n      swap4\n      swap1\n      dup5\n      add\n      swap2\n      swap1\n      tag_157\n      swap1\n      tag_114\n      jump\t// in\n    tag_157:\n      dup1\n      0x1f\n      add\n      0x20\n      dup1\n      swap2\n      div\n      mul\n      0x20\n      add\n      mload(0x40)\n      swap1\n      dup2\n      add\n      0x40\n      mstore\n      dup1\n      swap3\n      swap2\n      swap1\n      dup2\n      dup2\n      mstore\n      0x20\n      add\n      dup3\n      dup1\n      sload\n      tag_158\n      swap1\n      tag_114\n      jump\t// in\n    tag_158:\n      dup1\n      iszero\n      tag_159\n      jumpi\n      dup1\n      0x1f\n      lt\n      tag_160\n      jumpi\n      0x0100\n      dup1\n      dup4\n      sload\n      div\n      mul\n      dup4\n      mstore\n      swap2\n      0x20\n      add\n      swap2\n      jump(tag_159)\n    tag_160:\n      dup3\n      add\n      swap2\n      swap1\n      0x00\n      mstore\n      keccak256(0x00, 0x20)\n      swap1\n    tag_161:\n      dup2\n      sload\n      dup2\n      mstore\n      swap1\n      0x01\n      add\n      swap1\n      0x20\n      add\n      dup1\n      dup4\n      gt\n      tag_161\n      jumpi\n      dup3\n      swap1\n      sub\n      0x1f\n      and\n      dup3\n      add\n      swap2\n    tag_159:\n      pop\n      pop\n      pop\n      swap2\n      swap1\n      swap3\n      mstore\n      pop\n      pop\n      pop\n      swap1\n      mstore\n      pop\n      swap3\n        /* \"contracts/core/MProject.sol\":4168:4333  function getContributorById(uint256 _contributorId ) view external returns (Contributor memory _contributor){... */\n      swap2\n      pop\n      pop\n      jump\t// out\n        /* \"contracts/core/MProject.sol\":6894:8554  function submitDeliverable(uint256 _deliverableId) external deliverableAssigneeOnly(_deliverableId) returns (bool _submitted) {... */\n    tag_52:\n        /* \"contracts/core/MProject.sol\":7003:7018  bool _submitted */\n      0x00\n        /* \"contracts/core/MProject.sol\":891:935  contributorIdByDeliverableId[_deliverableId] */\n      dup2\n      dup2\n      mstore\n        /* \"contracts/core/MProject.sol\":891:919  contributorIdByDeliverableId */\n      0x0e\n        /* \"contracts/core/MProject.sol\":891:935  contributorIdByDeliverableId[_deliverableId] */\n      0x20\n      swap1\n      dup2\n      mstore\n      0x40\n      dup1\n      dup4\n      keccak256\n      sload\n        /* \"contracts/core/MProject.sol\":875:936  contributorById[contributorIdByDeliverableId[_deliverableId]] */\n      dup4\n      mstore\n        /* \"contracts/core/MProject.sol\":875:890  contributorById */\n      0x0b\n        /* \"contracts/core/MProject.sol\":875:936  contributorById[contributorIdByDeliverableId[_deliverableId]] */\n      swap1\n      swap2\n      mstore\n      dup2\n      keccak256\n        /* \"contracts/core/MProject.sol\":875:943  contributorById[contributorIdByDeliverableId[_deliverableId]].wallet */\n      0x02\n      add\n      sload\n        /* \"contracts/core/MProject.sol\":6978:6992  _deliverableId */\n      dup3\n      swap1\n      sub(shl(0xa0, 0x01), 0x01)\n        /* \"contracts/core/MProject.sol\":875:943  contributorById[contributorIdByDeliverableId[_deliverableId]].wallet */\n      and\n        /* \"contracts/core/MProject.sol\":947:957  msg.sender */\n      caller\n        /* \"contracts/core/MProject.sol\":875:957  contributorById[contributorIdByDeliverableId[_deliverableId]].wallet == msg.sender */\n      eq\n        /* \"contracts/core/MProject.sol\":867:989  require(contributorById[contributorIdByDeliverableId[_deliverableId]].wallet == msg.sender, \" deliverable assignee only \") */\n      tag_163\n      jumpi\n      mload(0x40)\n      shl(0xe5, 0x461bcd)\n      dup2\n      mstore\n        /* \"#utility.yul\":15813:15815   */\n      0x20\n        /* \"contracts/core/MProject.sol\":867:989  require(contributorById[contributorIdByDeliverableId[_deliverableId]].wallet == msg.sender, \" deliverable assignee only \") */\n      0x04\n      dup3\n      add\n        /* \"#utility.yul\":15795:15816   */\n      mstore\n        /* \"#utility.yul\":15852:15854   */\n      0x1b\n        /* \"#utility.yul\":15832:15850   */\n      0x24\n      dup3\n      add\n        /* \"#utility.yul\":15825:15855   */\n      mstore\n        /* \"#utility.yul\":15891:15920   */\n      0x2064656c6976657261626c652061737369676e6565206f6e6c79200000000000\n        /* \"#utility.yul\":15871:15889   */\n      0x44\n      dup3\n      add\n        /* \"#utility.yul\":15864:15921   */\n      mstore\n        /* \"#utility.yul\":15938:15956   */\n      0x64\n      add\n        /* \"contracts/core/MProject.sol\":867:989  require(contributorById[contributorIdByDeliverableId[_deliverableId]].wallet == msg.sender, \" deliverable assignee only \") */\n      tag_99\n        /* \"#utility.yul\":15611:15962   */\n      jump\n        /* \"contracts/core/MProject.sol\":867:989  require(contributorById[contributorIdByDeliverableId[_deliverableId]].wallet == msg.sender, \" deliverable assignee only \") */\n    tag_163:\n        /* \"contracts/core/MProject.sol\":7039:7073  isKnownDeliverable[_deliverableId] */\n      0x00\n      dup4\n      dup2\n      mstore\n        /* \"contracts/core/MProject.sol\":7039:7057  isKnownDeliverable */\n      0x10\n        /* \"contracts/core/MProject.sol\":7039:7073  isKnownDeliverable[_deliverableId] */\n      0x20\n      mstore\n      0x40\n      swap1\n      keccak256\n      sload\n      0xff\n      and\n        /* \"contracts/core/MProject.sol\":7031:7100  require(isKnownDeliverable[_deliverableId], \" unkknown deliverable \") */\n      tag_167\n      jumpi\n      mload(0x40)\n      shl(0xe5, 0x461bcd)\n      dup2\n      mstore\n      0x04\n      add\n      tag_99\n      swap1\n      tag_104\n      jump\t// in\n    tag_167:\n        /* \"contracts/core/MProject.sol\":7111:7136  DeliverableStatus status_ */\n      0x00\n        /* \"contracts/core/MProject.sol\":7139:7170  deliverableById[_deliverableId] */\n      dup4\n      dup2\n      mstore\n        /* \"contracts/core/MProject.sol\":7139:7154  deliverableById */\n      0x11\n        /* \"contracts/core/MProject.sol\":7139:7170  deliverableById[_deliverableId] */\n      0x20\n      mstore\n      0x40\n      swap1\n      keccak256\n        /* \"contracts/core/MProject.sol\":7139:7188  deliverableById[_deliverableId].deliverableStatus */\n      0x06\n      add\n      sload\n      0xff\n      and\n        /* \"contracts/core/MProject.sol\":7219:7246  DeliverableStatus.CANCELLED */\n      0x04\n        /* \"contracts/core/MProject.sol\":7208:7215  status_ */\n      dup2\n        /* \"contracts/core/MProject.sol\":7208:7246  status_ != DeliverableStatus.CANCELLED */\n      0x04\n      dup2\n      gt\n      iszero\n      tag_172\n      jumpi\n      tag_172\n      tag_107\n      jump\t// in\n    tag_172:\n      eq\n      iszero\n        /* \"contracts/core/MProject.sol\":7208:7288  status_ != DeliverableStatus.CANCELLED || status_ != DeliverableStatus.SUSPENDED */\n      dup1\n      tag_173\n      jumpi\n      pop\n        /* \"contracts/core/MProject.sol\":7261:7288  DeliverableStatus.SUSPENDED */\n      0x03\n        /* \"contracts/core/MProject.sol\":7250:7257  status_ */\n      dup2\n        /* \"contracts/core/MProject.sol\":7250:7288  status_ != DeliverableStatus.SUSPENDED */\n      0x04\n      dup2\n      gt\n      iszero\n      tag_177\n      jumpi\n      tag_177\n      tag_107\n      jump\t// in\n    tag_177:\n      eq\n      iszero\n        /* \"contracts/core/MProject.sol\":7208:7288  status_ != DeliverableStatus.CANCELLED || status_ != DeliverableStatus.SUSPENDED */\n    tag_173:\n        /* \"contracts/core/MProject.sol\":7199:7328  require( status_ != DeliverableStatus.CANCELLED || status_ != DeliverableStatus.SUSPENDED, \"Deliverable suspended or cancelled\" ) */\n      tag_178\n      jumpi\n      mload(0x40)\n      shl(0xe5, 0x461bcd)\n      dup2\n      mstore\n        /* \"#utility.yul\":16169:16171   */\n      0x20\n        /* \"contracts/core/MProject.sol\":7199:7328  require( status_ != DeliverableStatus.CANCELLED || status_ != DeliverableStatus.SUSPENDED, \"Deliverable suspended or cancelled\" ) */\n      0x04\n      dup3\n      add\n        /* \"#utility.yul\":16151:16172   */\n      mstore\n        /* \"#utility.yul\":16208:16210   */\n      0x22\n        /* \"#utility.yul\":16188:16206   */\n      0x24\n      dup3\n      add\n        /* \"#utility.yul\":16181:16211   */\n      mstore\n        /* \"#utility.yul\":16247:16281   */\n      0x44656c6976657261626c652073757370656e646564206f722063616e63656c6c\n        /* \"#utility.yul\":16227:16245   */\n      0x44\n      dup3\n      add\n        /* \"#utility.yul\":16220:16282   */\n      mstore\n      shl(0xf2, 0x1959)\n        /* \"#utility.yul\":16298:16316   */\n      0x64\n      dup3\n      add\n        /* \"#utility.yul\":16291:16323   */\n      mstore\n        /* \"#utility.yul\":16340:16359   */\n      0x84\n      add\n        /* \"contracts/core/MProject.sol\":7199:7328  require( status_ != DeliverableStatus.CANCELLED || status_ != DeliverableStatus.SUSPENDED, \"Deliverable suspended or cancelled\" ) */\n      tag_99\n        /* \"#utility.yul\":15967:16365   */\n      jump\n        /* \"contracts/core/MProject.sol\":7199:7328  require( status_ != DeliverableStatus.CANCELLED || status_ != DeliverableStatus.SUSPENDED, \"Deliverable suspended or cancelled\" ) */\n    tag_178:\n        /* \"contracts/core/MProject.sol\":7339:7370  deliverableById[_deliverableId] */\n      0x00\n      dup5\n      dup2\n      mstore\n        /* \"contracts/core/MProject.sol\":7339:7354  deliverableById */\n      0x11\n        /* \"contracts/core/MProject.sol\":7339:7370  deliverableById[_deliverableId] */\n      0x20\n      mstore\n      0x40\n      dup2\n      keccak256\n        /* \"contracts/core/MProject.sol\":7339:7388  deliverableById[_deliverableId].deliverableStatus */\n      0x06\n      add\n        /* \"contracts/core/MProject.sol\":7339:7418  deliverableById[_deliverableId].deliverableStatus = DeliverableStatus.DELIVERED */\n      dup1\n      sload\n      not(0xffff)\n        /* \"contracts/core/MProject.sol\":7430:7497  deliverableById[_deliverableId].payoutStatus = PayoutStatus.PENDING */\n      and\n      0x0102\n      or\n      swap1\n      sstore\n        /* \"contracts/core/MProject.sol\":7539:7549  getIndex() */\n      tag_185\n        /* \"contracts/core/MProject.sol\":7539:7547  getIndex */\n      tag_186\n        /* \"contracts/core/MProject.sol\":7539:7549  getIndex() */\n      jump\t// in\n    tag_185:\n        /* \"contracts/core/MProject.sol\":7605:8465  PaymentDirective({... */\n      0x40\n      dup1\n      mload\n      0xe0\n      dup2\n      add\n      dup3\n      mstore\n      dup3\n      dup2\n      mstore\n      0x00\n        /* \"contracts/core/MProject.sol\":7826:7870  contributorIdByDeliverableId[_deliverableId] */\n      dup9\n      dup2\n      mstore\n        /* \"contracts/core/MProject.sol\":7826:7854  contributorIdByDeliverableId */\n      0x0e\n        /* \"contracts/core/MProject.sol\":7605:8465  PaymentDirective({... */\n      0x20\n        /* \"contracts/core/MProject.sol\":7826:7870  contributorIdByDeliverableId[_deliverableId] */\n      swap1\n      dup2\n      mstore\n      dup4\n      dup3\n      keccak256\n      sload\n        /* \"contracts/core/MProject.sol\":7810:7871  contributorById[contributorIdByDeliverableId[_deliverableId]] */\n      dup3\n      mstore\n        /* \"contracts/core/MProject.sol\":7810:7825  contributorById */\n      0x0b\n        /* \"contracts/core/MProject.sol\":7810:7871  contributorById[contributorIdByDeliverableId[_deliverableId]] */\n      dup2\n      mstore\n      swap1\n      dup4\n      swap1\n      keccak256\n        /* \"contracts/core/MProject.sol\":7605:8465  PaymentDirective({... */\n      dup4\n      mload\n      0x80\n      dup2\n      add\n      dup6\n      mstore\n      dup2\n      sload\n      dup2\n      mstore\n      0x01\n      dup3\n      add\n      sload\n      dup2\n      dup5\n      add\n      mstore\n      0x02\n      dup3\n      add\n      sload\n      sub(shl(0xa0, 0x01), 0x01)\n      and\n      dup2\n      dup7\n      add\n      mstore\n      dup5\n      mload\n      dup1\n      dup7\n      add\n      swap1\n      swap6\n      mstore\n      0x03\n      dup3\n      add\n      dup1\n      sload\n      dup7\n      mstore\n      0x04\n      dup4\n      add\n      dup1\n      sload\n        /* \"contracts/core/MProject.sol\":7509:7549  uint256 paymentDirectiveId_ = getIndex() */\n      swap8\n      swap9\n      pop\n        /* \"contracts/core/MProject.sol\":7605:8465  PaymentDirective({... */\n      swap5\n      swap7\n      dup5\n      dup9\n      add\n      swap7\n      swap3\n      swap6\n        /* \"contracts/core/MProject.sol\":7810:7871  contributorById[contributorIdByDeliverableId[_deliverableId]] */\n      swap4\n      swap5\n        /* \"contracts/core/MProject.sol\":7605:8465  PaymentDirective({... */\n      0x60\n      dup8\n      add\n      swap5\n      swap1\n      dup5\n      add\n      swap2\n      tag_187\n      swap1\n      tag_114\n      jump\t// in\n    tag_187:\n      dup1\n      0x1f\n      add\n      0x20\n      dup1\n      swap2\n      div\n      mul\n      0x20\n      add\n      mload(0x40)\n      swap1\n      dup2\n      add\n      0x40\n      mstore\n      dup1\n      swap3\n      swap2\n      swap1\n      dup2\n      dup2\n      mstore\n      0x20\n      add\n      dup3\n      dup1\n      sload\n      tag_188\n      swap1\n      tag_114\n      jump\t// in\n    tag_188:\n      dup1\n      iszero\n      tag_189\n      jumpi\n      dup1\n      0x1f\n      lt\n      tag_190\n      jumpi\n      0x0100\n      dup1\n      dup4\n      sload\n      div\n      mul\n      dup4\n      mstore\n      swap2\n      0x20\n      add\n      swap2\n      jump(tag_189)\n    tag_190:\n      dup3\n      add\n      swap2\n      swap1\n      0x00\n      mstore\n      keccak256(0x00, 0x20)\n      swap1\n    tag_191:\n      dup2\n      sload\n      dup2\n      mstore\n      swap1\n      0x01\n      add\n      swap1\n      0x20\n      add\n      dup1\n      dup4\n      gt\n      tag_191\n      jumpi\n      dup3\n      swap1\n      sub\n      0x1f\n      and\n      dup3\n      add\n      swap2\n    tag_189:\n      pop\n      pop\n      pop\n      swap2\n      swap1\n      swap3\n      mstore\n      pop\n      pop\n      pop\n      swap1\n      mstore\n      pop\n      dup2\n      mstore\n        /* \"contracts/core/MProject.sol\":7958:7960  id */\n      immutable(\"0x840881693295f1213bc621234bc18aa1727c90c9e1416799df22e18f9c7c029b\")\n        /* \"contracts/core/MProject.sol\":7605:8465  PaymentDirective({... */\n      0x20\n      dup1\n      dup4\n      add\n      swap2\n      swap1\n      swap2\n      mstore\n        /* \"contracts/core/MProject.sol\":8051:8064  alloProfileId */\n      0x04\n      dup1\n      sload\n        /* \"contracts/core/MProject.sol\":7605:8465  PaymentDirective({... */\n      0x40\n      dup1\n      dup6\n      add\n      swap2\n      swap1\n      swap2\n      mstore\n      0x60\n      dup1\n      dup6\n      add\n      dup12\n      swap1\n      mstore\n      0x00\n        /* \"contracts/core/MProject.sol\":8255:8286  deliverableById[_deliverableId] */\n      dup12\n      dup2\n      mstore\n        /* \"contracts/core/MProject.sol\":8255:8270  deliverableById */\n      0x11\n        /* \"contracts/core/MProject.sol\":8255:8286  deliverableById[_deliverableId] */\n      dup6\n      mstore\n      dup3\n      dup2\n      keccak256\n        /* \"contracts/core/MProject.sol\":8255:8299  deliverableById[_deliverableId].payoutAmount */\n      0x02\n      swap1\n      dup2\n      add\n      sload\n        /* \"contracts/core/MProject.sol\":7605:8465  PaymentDirective({... */\n      0x80\n      dup9\n      add\n      mstore\n        /* \"contracts/core/MProject.sol\":8382:8393  payoutErc20 */\n      0x05\n      dup1\n      sload\n      sub(shl(0xa0, 0x01), 0x01)\n      swap1\n      dup2\n      and\n        /* \"contracts/core/MProject.sol\":7605:8465  PaymentDirective({... */\n      0xa0\n      swap1\n      swap10\n      add\n      swap9\n      swap1\n      swap9\n      mstore\n        /* \"contracts/core/MProject.sol\":7561:7602  paymentDirectiveById[paymentDirectiveId_] */\n      dup10\n      dup4\n      mstore\n        /* \"contracts/core/MProject.sol\":7561:7581  paymentDirectiveById */\n      0x14\n        /* \"contracts/core/MProject.sol\":7561:7602  paymentDirectiveById[paymentDirectiveId_] */\n      dup8\n      mstore\n      swap2\n      dup5\n      swap1\n      keccak256\n        /* \"contracts/core/MProject.sol\":7561:8465  paymentDirectiveById[paymentDirectiveId_] = PaymentDirective({... */\n      dup9\n      mload\n      dup2\n      sstore\n      dup9\n      dup8\n      add\n      mload\n      dup1\n      mload\n        /* \"contracts/core/MProject.sol\":8382:8393  payoutErc20 */\n      0x01\n        /* \"contracts/core/MProject.sol\":7561:8465  paymentDirectiveById[paymentDirectiveId_] = PaymentDirective({... */\n      dup4\n      add\n      swap1\n      dup2\n      sstore\n      dup2\n      dup10\n      add\n      mload\n      swap4\n      dup4\n      add\n      swap4\n      swap1\n      swap4\n      sstore\n      swap5\n      dup6\n      add\n      mload\n      0x03\n      dup3\n      add\n      dup1\n      sload\n      not(sub(shl(0xa0, 0x01), 0x01))\n      and\n      swap2\n      swap1\n      swap10\n      and\n      or\n      swap1\n      swap8\n      sstore\n      swap2\n      dup4\n      add\n      mload\n      dup1\n      mload\n      swap5\n      dup8\n      add\n      swap5\n      dup6\n      sstore\n      swap5\n      dup6\n      add\n      mload\n      swap3\n      swap5\n      swap2\n      swap4\n      swap2\n      swap3\n      swap1\n      dup7\n      add\n      swap1\n      tag_192\n      swap1\n      dup3\n      tag_193\n      jump\t// in\n    tag_192:\n      pop\n      pop\n      pop\n      pop\n      0x40\n      dup4\n      add\n      mload\n      0x06\n      dup4\n      add\n      sstore\n      pop\n      0x60\n      dup3\n      add\n      mload\n      0x07\n      dup3\n      add\n      sstore\n      0x80\n      dup3\n      add\n      mload\n      0x08\n      dup1\n      dup4\n      add\n      swap2\n      swap1\n      swap2\n      sstore\n      0xa0\n      dup4\n      add\n      mload\n      0x09\n      dup4\n      add\n      sstore\n      0xc0\n      swap1\n      swap3\n      add\n      mload\n      0x0a\n      swap1\n      swap2\n      add\n      dup1\n      sload\n      not(sub(shl(0xa0, 0x01), 0x01))\n      and\n      sub(shl(0xa0, 0x01), 0x01)\n      swap1\n      swap3\n      and\n      swap2\n      swap1\n      swap2\n      or\n      swap1\n      sstore\n        /* \"contracts/core/MProject.sol\":8476:8521  paymentDirectiveIds.push(paymentDirectiveId_) */\n      dup1\n      sload\n      0x01\n      dup2\n      dup2\n      add\n      dup4\n      sstore\n      0x00\n      swap3\n      swap1\n      swap3\n      mstore\n      0xf3f7a9fe364faab93b216da50a3214154f22a0a2b415b23a84c8169e8b636ee3\n      add\n      swap2\n      swap1\n      swap2\n      sstore\n      swap3\n      pop\n      pop\n        /* \"contracts/core/MProject.sol\":1000:1001  _ */\n    tag_166:\n        /* \"contracts/core/MProject.sol\":6894:8554  function submitDeliverable(uint256 _deliverableId) external deliverableAssigneeOnly(_deliverableId) returns (bool _submitted) {... */\n      pop\n      swap2\n      swap1\n      pop\n      jump\t// out\n        /* \"contracts/core/MProject.sol\":3046:3628  function getProjectDescriptor() view external returns (Project memory _project){... */\n    tag_55:\n        /* \"contracts/core/MProject.sol\":3101:3124  Project memory _project */\n      tag_195\n      mload(0x40)\n      dup1\n      0x0100\n      add\n      0x40\n      mstore\n      dup1\n      0x00\n      dup2\n      mstore\n      0x20\n      add\n      0x60\n      dup2\n      mstore\n      0x20\n      add\n      0x00\n      dup2\n      mstore\n      0x20\n      add\n      0x00\n      dup1\n      not\n      and\n      dup2\n      mstore\n      0x20\n      add\n      and(sub(shl(0xa0, 0x01), 0x01), 0x00)\n      dup2\n      mstore\n      0x20\n      add\n      0x00\n      dup2\n      mstore\n      0x20\n      add\n      0x60\n      dup2\n      mstore\n      0x20\n      add\n      0x60\n      dup2\n      mstore\n      pop\n      swap1\n      jump\n    tag_195:\n        /* \"contracts/core/MProject.sol\":3143:3619  Project({... */\n      0x40\n      dup1\n      mload\n      0x0100\n      dup2\n      add\n      dup3\n      mstore\n        /* \"contracts/core/MProject.sol\":3194:3196  id */\n      immutable(\"0x840881693295f1213bc621234bc18aa1727c90c9e1416799df22e18f9c7c029b\")\n        /* \"contracts/core/MProject.sol\":3143:3619  Project({... */\n      dup2\n      mstore\n        /* \"contracts/core/MProject.sol\":3235:3239  name */\n      dup2\n      mload\n      dup1\n      dup4\n      add\n      dup4\n      mstore\n      0x07\n      dup2\n      mstore\n      shl(0xca, 0x141493d29150d5)\n        /* \"contracts/core/MProject.sol\":3143:3619  Project({... */\n      0x20\n        /* \"contracts/core/MProject.sol\":3235:3239  name */\n      dup3\n      dup2\n      add\n      swap2\n      swap1\n      swap2\n      mstore\n        /* \"contracts/core/MProject.sol\":3143:3619  Project({... */\n      dup1\n      dup4\n      add\n      swap2\n      swap1\n      swap2\n      mstore\n        /* \"contracts/core/MProject.sol\":3284:3294  alloPoolId */\n      sload(0x03)\n        /* \"contracts/core/MProject.sol\":3143:3619  Project({... */\n      dup3\n      dup5\n      add\n      mstore\n        /* \"contracts/core/MProject.sol\":3342:3355  alloProfileId */\n      sload(0x04)\n        /* \"contracts/core/MProject.sol\":3143:3619  Project({... */\n      0x60\n      dup4\n      add\n      mstore\n        /* \"contracts/core/MProject.sol\":3403:3414  payoutErc20 */\n      and(sub(shl(0xa0, 0x01), 0x01), sload(0x05))\n        /* \"contracts/core/MProject.sol\":3143:3619  Project({... */\n      0x80\n      dup4\n      add\n      mstore\n        /* \"contracts/core/MProject.sol\":3403:3414  payoutErc20 */\n      0x01\n        /* \"contracts/core/MProject.sol\":3454:3460  budget */\n      sload\n        /* \"contracts/core/MProject.sol\":3143:3619  Project({... */\n      0xa0\n      dup4\n      add\n      mstore\n        /* \"contracts/core/MProject.sol\":3509:3523  deliverableIds */\n      0x0f\n        /* \"contracts/core/MProject.sol\":3143:3619  Project({... */\n      dup1\n      sload\n      dup5\n      mload\n      dup2\n      dup5\n      mul\n      dup2\n      add\n      dup5\n      add\n      swap1\n      swap6\n      mstore\n      dup1\n      dup6\n      mstore\n      swap3\n      swap4\n      0xc0\n      dup6\n      add\n      swap4\n      swap1\n      swap3\n      dup4\n      add\n        /* \"contracts/core/MProject.sol\":3509:3523  deliverableIds */\n      dup3\n        /* \"contracts/core/MProject.sol\":3143:3619  Project({... */\n      dup3\n      dup1\n      iszero\n      tag_198\n      jumpi\n      0x20\n      mul\n      dup3\n      add\n      swap2\n      swap1\n      0x00\n      mstore\n      keccak256(0x00, 0x20)\n      swap1\n    tag_199:\n      dup2\n      sload\n      dup2\n      mstore\n      0x20\n      add\n      swap1\n      0x01\n      add\n      swap1\n      dup1\n      dup4\n      gt\n      tag_199\n      jumpi\n    tag_198:\n      pop\n      pop\n      pop\n      pop\n      pop\n      dup2\n      mstore\n      0x20\n      add\n        /* \"contracts/core/MProject.sol\":3571:3591  contributorAddresses */\n      0x07\n        /* \"contracts/core/MProject.sol\":3143:3619  Project({... */\n      dup1\n      sload\n      dup1\n      0x20\n      mul\n      0x20\n      add\n      mload(0x40)\n      swap1\n      dup2\n      add\n      0x40\n      mstore\n      dup1\n      swap3\n      swap2\n      swap1\n      dup2\n      dup2\n      mstore\n      0x20\n      add\n      dup3\n      dup1\n      sload\n      dup1\n      iszero\n      tag_200\n      jumpi\n      0x20\n      mul\n      dup3\n      add\n      swap2\n      swap1\n      0x00\n      mstore\n      keccak256(0x00, 0x20)\n      swap1\n    tag_201:\n      dup2\n      sload\n      sub(shl(0xa0, 0x01), 0x01)\n      and\n      dup2\n      mstore\n      0x01\n      swap1\n      swap2\n      add\n      swap1\n      0x20\n      add\n      dup1\n      dup4\n      gt\n      tag_201\n      jumpi\n    tag_200:\n      pop\n      pop\n      pop\n      pop\n      pop\n      dup2\n      mstore\n      pop\n        /* \"contracts/core/MProject.sol\":3136:3619  return Project({... */\n      swap1\n      pop\n        /* \"contracts/core/MProject.sol\":3046:3628  function getProjectDescriptor() view external returns (Project memory _project){... */\n      swap1\n      jump\t// out\n        /* \"contracts/core/MProject.sol\":4341:4542  function getContributorByAddress(address _contributorWallet) view external returns (Contributor memory _contributor){... */\n    tag_61:\n        /* \"contracts/core/MProject.sol\":4425:4456  Contributor memory _contributor */\n      tag_202\n      tag_155\n      jump\t// in\n    tag_202:\n      sub(shl(0xa0, 0x01), 0x01)\n        /* \"contracts/core/MProject.sol\":4491:4533  contributorIdByAddress[_contributorWallet] */\n      dup1\n      dup4\n      and\n        /* \"contracts/core/MProject.sol\":4475:4534  contributorById[contributorIdByAddress[_contributorWallet]] */\n      0x00\n        /* \"contracts/core/MProject.sol\":4491:4533  contributorIdByAddress[_contributorWallet] */\n      swap1\n      dup2\n      mstore\n        /* \"contracts/core/MProject.sol\":4491:4513  contributorIdByAddress */\n      0x0c\n        /* \"contracts/core/MProject.sol\":4491:4533  contributorIdByAddress[_contributorWallet] */\n      0x20\n      swap1\n      dup2\n      mstore\n      0x40\n      dup1\n      dup4\n      keccak256\n      sload\n        /* \"contracts/core/MProject.sol\":4475:4534  contributorById[contributorIdByAddress[_contributorWallet]] */\n      dup4\n      mstore\n        /* \"contracts/core/MProject.sol\":4475:4490  contributorById */\n      0x0b\n        /* \"contracts/core/MProject.sol\":4475:4534  contributorById[contributorIdByAddress[_contributorWallet]] */\n      dup3\n      mstore\n      swap2\n      dup3\n      swap1\n      keccak256\n        /* \"contracts/core/MProject.sol\":4468:4534  return contributorById[contributorIdByAddress[_contributorWallet]] */\n      dup3\n      mload\n      0x80\n      dup2\n      add\n      dup5\n      mstore\n      dup2\n      sload\n      dup2\n      mstore\n      0x01\n      dup3\n      add\n      sload\n      dup2\n      dup5\n      add\n      mstore\n      0x02\n      dup3\n      add\n      sload\n      swap1\n      swap5\n      and\n      dup5\n      dup5\n      add\n      mstore\n      dup3\n      mload\n      dup1\n      dup5\n      add\n      swap1\n      swap4\n      mstore\n      0x03\n      dup2\n      add\n      dup1\n      sload\n      dup5\n      mstore\n      0x04\n      dup3\n      add\n      dup1\n      sload\n        /* \"contracts/core/MProject.sol\":4475:4534  contributorById[contributorIdByAddress[_contributorWallet]] */\n      swap3\n      swap5\n        /* \"contracts/core/MProject.sol\":4468:4534  return contributorById[contributorIdByAddress[_contributorWallet]] */\n      0x60\n      dup8\n      add\n      swap5\n      swap1\n      swap4\n      swap1\n      dup5\n      add\n      swap2\n      swap1\n      tag_157\n      swap1\n      tag_114\n      jump\t// in\n        /* \"contracts/core/MProject.sol\":4032:4160  function getContributorIds() view external returns (uint256 [] memory _contributorIds) {... */\n    tag_64:\n        /* \"contracts/core/MProject.sol\":4084:4117  uint256 [] memory _contributorIds */\n      0x60\n        /* \"contracts/core/MProject.sol\":4137:4151  contributorIds */\n      0x06\n        /* \"contracts/core/MProject.sol\":4130:4151  return contributorIds */\n      dup1\n      sload\n      dup1\n      0x20\n      mul\n      0x20\n      add\n      mload(0x40)\n      swap1\n      dup2\n      add\n      0x40\n      mstore\n      dup1\n      swap3\n      swap2\n      swap1\n      dup2\n      dup2\n      mstore\n      0x20\n      add\n      dup3\n      dup1\n      sload\n      dup1\n      iszero\n      tag_210\n      jumpi\n      0x20\n      mul\n      dup3\n      add\n      swap2\n      swap1\n      0x00\n      mstore\n      keccak256(0x00, 0x20)\n      swap1\n    tag_211:\n      dup2\n      sload\n      dup2\n      mstore\n      0x20\n      add\n      swap1\n      0x01\n      add\n      swap1\n      dup1\n      dup4\n      gt\n      tag_211\n      jumpi\n    tag_210:\n      pop\n      pop\n      pop\n      pop\n      pop\n      swap1\n      pop\n        /* \"contracts/core/MProject.sol\":4032:4160  function getContributorIds() view external returns (uint256 [] memory _contributorIds) {... */\n      swap1\n      jump\t// out\n        /* \"contracts/core/MProject.sol\":5546:6886  function addDeliverable(Deliverable memory _deliverable, uint256 _contributorId) external projectAdminOnly returns (uint256 deliverableCount){... */\n    tag_70:\n        /* \"contracts/core/MProject.sol\":5662:5686  uint256 deliverableCount */\n      0x00\n        /* \"contracts/core/MProject.sol\":711:745  isProjectAdminInternal(msg.sender) */\n      tag_213\n        /* \"contracts/core/MProject.sol\":734:744  msg.sender */\n      caller\n        /* \"contracts/core/MProject.sol\":711:733  isProjectAdminInternal */\n      tag_214\n        /* \"contracts/core/MProject.sol\":711:745  isProjectAdminInternal(msg.sender) */\n      jump\t// in\n    tag_213:\n        /* \"contracts/core/MProject.sol\":703:770  require(isProjectAdminInternal(msg.sender), \" project admin only \") */\n      tag_215\n      jumpi\n      mload(0x40)\n      shl(0xe5, 0x461bcd)\n      dup2\n      mstore\n      0x04\n      add\n      tag_99\n      swap1\n      tag_217\n      jump\t// in\n    tag_215:\n        /* \"contracts/core/MProject.sol\":5708:5730  uint256 deliverableId_ */\n      0x00\n        /* \"contracts/core/MProject.sol\":5733:5743  getIndex() */\n      tag_219\n        /* \"contracts/core/MProject.sol\":5733:5741  getIndex */\n      tag_186\n        /* \"contracts/core/MProject.sol\":5733:5743  getIndex() */\n      jump\t// in\n    tag_219:\n        /* \"contracts/core/MProject.sol\":5755:5789  isKnownDeliverable[deliverableId_] */\n      0x00\n      dup2\n      dup2\n      mstore\n        /* \"contracts/core/MProject.sol\":5755:5773  isKnownDeliverable */\n      0x10\n        /* \"contracts/core/MProject.sol\":5755:5789  isKnownDeliverable[deliverableId_] */\n      0x20\n      swap1\n      dup2\n      mstore\n      0x40\n      dup1\n      dup4\n      keccak256\n        /* \"contracts/core/MProject.sol\":5755:5796  isKnownDeliverable[deliverableId_] = true */\n      dup1\n      sload\n      not(0xff)\n      and\n        /* \"contracts/core/MProject.sol\":5792:5796  true */\n      0x01\n        /* \"contracts/core/MProject.sol\":5755:5796  isKnownDeliverable[deliverableId_] = true */\n      swap1\n      dup2\n      or\n      swap1\n      swap2\n      sstore\n        /* \"contracts/core/MProject.sol\":5807:5821  deliverableIds */\n      0x0f\n        /* \"contracts/core/MProject.sol\":5807:5842  deliverableIds.push(deliverableId_) */\n      dup1\n      sload\n      swap2\n      dup3\n      add\n      dup2\n      sstore\n      swap1\n      swap4\n      mstore\n      0x8d1108e10bcb7c27dddfc02ed9d693a074039d026cf4ea4240b40f7d581ac802\n      swap1\n      swap3\n      add\n      dup4\n      swap1\n      sstore\n        /* \"contracts/core/MProject.sol\":5889:6595  Deliverable({... */\n      dup2\n      mload\n      0xe0\n      dup2\n      add\n      dup4\n      mstore\n      dup4\n      dup2\n      mstore\n        /* \"contracts/core/MProject.sol\":6050:6052  id */\n      immutable(\"0x840881693295f1213bc621234bc18aa1727c90c9e1416799df22e18f9c7c029b\")\n        /* \"contracts/core/MProject.sol\":5889:6595  Deliverable({... */\n      swap2\n      dup2\n      add\n      swap2\n      swap1\n      swap2\n      mstore\n        /* \"contracts/core/MProject.sol\":6128:6153  _deliverable.payoutAmount */\n      dup7\n      dup3\n      add\n      mload\n        /* \"contracts/core/MProject.sol\":5889:6595  Deliverable({... */\n      swap2\n      dup2\n      add\n      swap2\n      swap1\n      swap2\n      mstore\n      0x60\n        /* \"contracts/core/MProject.sol\":6220:6237  _deliverable.name */\n      dup1\n      dup8\n      add\n      mload\n        /* \"contracts/core/MProject.sol\":5889:6595  Deliverable({... */\n      swap1\n      dup3\n      add\n      mstore\n      0x80\n        /* \"contracts/core/MProject.sol\":6308:6329  _deliverable.metadata */\n      dup1\n      dup8\n      add\n      mload\n        /* \"contracts/core/MProject.sol\":5889:6595  Deliverable({... */\n      swap1\n      dup3\n      add\n      mstore\n      0xa0\n        /* \"contracts/core/MProject.sol\":6409:6439  _deliverable.deliverableStatus */\n      dup1\n      dup8\n      add\n      mload\n        /* \"contracts/core/MProject.sol\":5708:5743  uint256 deliverableId_ = getIndex() */\n      swap3\n      swap4\n      pop\n        /* \"contracts/core/MProject.sol\":5889:6595  Deliverable({... */\n      swap1\n      swap2\n      swap1\n      dup3\n      add\n      swap1\n      0x04\n      dup2\n      gt\n      iszero\n      tag_222\n      jumpi\n      tag_222\n      tag_107\n      jump\t// in\n    tag_222:\n      dup2\n      mstore\n      0x20\n      add\n        /* \"contracts/core/MProject.sol\":6513:6525  _deliverable */\n      dup6\n        /* \"contracts/core/MProject.sol\":6513:6538  _deliverable.payoutStatus */\n      0xc0\n      add\n      mload\n        /* \"contracts/core/MProject.sol\":5889:6595  Deliverable({... */\n      0x04\n      dup2\n      gt\n      iszero\n      tag_224\n      jumpi\n      tag_224\n      tag_107\n      jump\t// in\n    tag_224:\n      swap1\n      mstore\n        /* \"contracts/core/MProject.sol\":5855:5886  deliverableById[deliverableId_] */\n      0x00\n      dup3\n      dup2\n      mstore\n        /* \"contracts/core/MProject.sol\":5855:5870  deliverableById */\n      0x11\n        /* \"contracts/core/MProject.sol\":5855:5886  deliverableById[deliverableId_] */\n      0x20\n      swap1\n      dup2\n      mstore\n      0x40\n      swap2\n      dup3\n      swap1\n      keccak256\n        /* \"contracts/core/MProject.sol\":5855:6595  deliverableById[deliverableId_] = Deliverable({... */\n      dup4\n      mload\n      dup2\n      sstore\n      swap1\n      dup4\n      add\n      mload\n      0x01\n      dup3\n      add\n      sstore\n      swap1\n      dup3\n      add\n      mload\n      0x02\n      dup3\n      add\n      sstore\n      0x60\n      dup3\n      add\n      mload\n      0x03\n      dup3\n      add\n      swap1\n      tag_225\n      swap1\n      dup3\n      tag_193\n      jump\t// in\n    tag_225:\n      pop\n      0x80\n      dup3\n      add\n      mload\n      dup1\n      mload\n      0x04\n      dup4\n      add\n      swap1\n      dup2\n      sstore\n      0x20\n      dup3\n      add\n      mload\n      0x05\n      dup5\n      add\n      swap1\n      tag_226\n      swap1\n      dup3\n      tag_193\n      jump\t// in\n    tag_226:\n      pop\n      pop\n      pop\n      0xa0\n      dup3\n      add\n      mload\n      0x06\n      dup3\n      add\n      dup1\n      sload\n      not(0xff)\n      and\n      0x01\n      dup4\n      0x04\n      dup2\n      gt\n      iszero\n      tag_228\n      jumpi\n      tag_228\n      tag_107\n      jump\t// in\n    tag_228:\n      mul\n      or\n      swap1\n      sstore\n      pop\n      0xc0\n      dup3\n      add\n      mload\n      0x06\n      dup3\n      add\n      dup1\n      sload\n      not(0xff00)\n      and\n      0x0100\n      dup4\n      0x04\n      dup2\n      gt\n      iszero\n      tag_230\n      jumpi\n      tag_230\n      tag_107\n      jump\t// in\n    tag_230:\n      mul\n      or\n      swap1\n      sstore\n      pop\n      pop\n      pop\n        /* \"contracts/core/MProject.sol\":6606:6651  deliverableIdsByContributorId[_contributorId] */\n      0x00\n      dup4\n      dup2\n      mstore\n        /* \"contracts/core/MProject.sol\":6606:6635  deliverableIdsByContributorId */\n      0x0d\n        /* \"contracts/core/MProject.sol\":6606:6651  deliverableIdsByContributorId[_contributorId] */\n      0x20\n      swap1\n      dup2\n      mstore\n      0x40\n      dup1\n      dup4\n      keccak256\n        /* \"contracts/core/MProject.sol\":6606:6672  deliverableIdsByContributorId[_contributorId].push(deliverableId_) */\n      dup1\n      sload\n      0x01\n      dup2\n      add\n      dup3\n      sstore\n      swap1\n      dup5\n      mstore\n      dup3\n      dup5\n      keccak256\n      add\n      dup5\n      swap1\n      sstore\n        /* \"contracts/core/MProject.sol\":6683:6727  contributorIdByDeliverableId[deliverableId_] */\n      dup4\n      dup4\n      mstore\n        /* \"contracts/core/MProject.sol\":6683:6711  contributorIdByDeliverableId */\n      0x0e\n        /* \"contracts/core/MProject.sol\":6683:6727  contributorIdByDeliverableId[deliverableId_] */\n      swap1\n      swap2\n      mstore\n      swap1\n      keccak256\n        /* \"contracts/core/MProject.sol\":6683:6744  contributorIdByDeliverableId[deliverableId_] = _contributorId */\n      dup4\n      swap1\n      sstore\n        /* \"contracts/core/MProject.sol\":6756:6806  overwriteDeliverable(deliverableId_, _deliverable) */\n      tag_232\n        /* \"contracts/core/MProject.sol\":6657:6671  deliverableId_ */\n      dup2\n        /* \"contracts/core/MProject.sol\":6793:6805  _deliverable */\n      dup6\n        /* \"contracts/core/MProject.sol\":6756:6776  overwriteDeliverable */\n      tag_233\n        /* \"contracts/core/MProject.sol\":6756:6806  overwriteDeliverable(deliverableId_, _deliverable) */\n      jump\t// in\n    tag_232:\n      pop\n        /* \"contracts/core/MProject.sol\":6819:6829  checkSum() */\n      tag_234\n        /* \"contracts/core/MProject.sol\":6819:6827  checkSum */\n      tag_235\n        /* \"contracts/core/MProject.sol\":6819:6829  checkSum() */\n      jump\t// in\n    tag_234:\n      pop\n      pop\n        /* \"contracts/core/MProject.sol\":6857:6871  deliverableIds */\n      0x0f\n        /* \"contracts/core/MProject.sol\":6857:6878  deliverableIds.length */\n      sload\n      swap4\n        /* \"contracts/core/MProject.sol\":5546:6886  function addDeliverable(Deliverable memory _deliverable, uint256 _contributorId) external projectAdminOnly returns (uint256 deliverableCount){... */\n      swap3\n      pop\n      pop\n      pop\n      jump\t// out\n        /* \"contracts/core/MProject.sol\":10229:10469  function amendBudget(uint256 _newBudget) external projectAdminOnly returns (int256 _amendmentAmount) {... */\n    tag_74:\n        /* \"contracts/core/MProject.sol\":10305:10328  int256 _amendmentAmount */\n      0x00\n        /* \"contracts/core/MProject.sol\":711:745  isProjectAdminInternal(msg.sender) */\n      tag_237\n        /* \"contracts/core/MProject.sol\":734:744  msg.sender */\n      caller\n        /* \"contracts/core/MProject.sol\":711:733  isProjectAdminInternal */\n      tag_214\n        /* \"contracts/core/MProject.sol\":711:745  isProjectAdminInternal(msg.sender) */\n      jump\t// in\n    tag_237:\n        /* \"contracts/core/MProject.sol\":703:770  require(isProjectAdminInternal(msg.sender), \" project admin only \") */\n      tag_238\n      jumpi\n      mload(0x40)\n      shl(0xe5, 0x461bcd)\n      dup2\n      mstore\n      0x04\n      add\n      tag_99\n      swap1\n      tag_217\n      jump\t// in\n    tag_238:\n        /* \"contracts/core/MProject.sol\":10388:10394  budget */\n      sload(0x01)\n        /* \"contracts/core/MProject.sol\":10360:10395  int256(_newBudget) - int256(budget) */\n      tag_241\n      swap1\n        /* \"contracts/core/MProject.sol\":10367:10377  _newBudget */\n      dup4\n        /* \"contracts/core/MProject.sol\":10360:10395  int256(_newBudget) - int256(budget) */\n      tag_242\n      jump\t// in\n    tag_241:\n        /* \"contracts/core/MProject.sol\":10406:10412  budget */\n      0x01\n        /* \"contracts/core/MProject.sol\":10406:10425  budget = _newBudget */\n      dup4\n      swap1\n      sstore\n        /* \"contracts/core/MProject.sol\":10341:10395  _amendmentAmount = int256(_newBudget) - int256(budget) */\n      swap1\n      pop\n        /* \"contracts/core/MProject.sol\":781:782  _ */\n    tag_240:\n        /* \"contracts/core/MProject.sol\":10229:10469  function amendBudget(uint256 _newBudget) external projectAdminOnly returns (int256 _amendmentAmount) {... */\n      swap2\n      swap1\n      pop\n      jump\t// out\n        /* \"contracts/core/MProject.sol\":8872:9193  function updateDeliverable(Deliverable memory _deliverable) external projectAdminOnly returns (bool _updated) {... */\n    tag_80:\n        /* \"contracts/core/MProject.sol\":8967:8980  bool _updated */\n      0x00\n        /* \"contracts/core/MProject.sol\":711:745  isProjectAdminInternal(msg.sender) */\n      tag_244\n        /* \"contracts/core/MProject.sol\":734:744  msg.sender */\n      caller\n        /* \"contracts/core/MProject.sol\":711:733  isProjectAdminInternal */\n      tag_214\n        /* \"contracts/core/MProject.sol\":711:745  isProjectAdminInternal(msg.sender) */\n      jump\t// in\n    tag_244:\n        /* \"contracts/core/MProject.sol\":703:770  require(isProjectAdminInternal(msg.sender), \" project admin only \") */\n      tag_245\n      jumpi\n      mload(0x40)\n      shl(0xe5, 0x461bcd)\n      dup2\n      mstore\n      0x04\n      add\n      tag_99\n      swap1\n      tag_217\n      jump\t// in\n    tag_245:\n        /* \"contracts/core/MProject.sol\":9020:9035  _deliverable.id */\n      dup2\n      mload\n        /* \"contracts/core/MProject.sol\":9001:9036  isKnownDeliverable[_deliverable.id] */\n      0x00\n      swap1\n      dup2\n      mstore\n        /* \"contracts/core/MProject.sol\":9001:9019  isKnownDeliverable */\n      0x10\n        /* \"contracts/core/MProject.sol\":9001:9036  isKnownDeliverable[_deliverable.id] */\n      0x20\n      mstore\n      0x40\n      swap1\n      keccak256\n      sload\n      0xff\n      and\n        /* \"contracts/core/MProject.sol\":8993:9063  require(isKnownDeliverable[_deliverable.id], \" unkknown deliverable \") */\n      tag_248\n      jumpi\n      mload(0x40)\n      shl(0xe5, 0x461bcd)\n      dup2\n      mstore\n      0x04\n      add\n      tag_99\n      swap1\n      tag_104\n      jump\t// in\n    tag_248:\n        /* \"contracts/core/MProject.sol\":9106:9121  _deliverable.id */\n      dup2\n      mload\n        /* \"contracts/core/MProject.sol\":9085:9136  overwriteDeliverable(_deliverable.id, _deliverable) */\n      tag_250\n      swap1\n        /* \"contracts/core/MProject.sol\":9106:9118  _deliverable */\n      dup4\n        /* \"contracts/core/MProject.sol\":9085:9105  overwriteDeliverable */\n      tag_233\n        /* \"contracts/core/MProject.sol\":9085:9136  overwriteDeliverable(_deliverable.id, _deliverable) */\n      jump\t// in\n    tag_250:\n        /* \"contracts/core/MProject.sol\":9074:9136  _updated = overwriteDeliverable(_deliverable.id, _deliverable) */\n      swap1\n      pop\n        /* \"contracts/core/MProject.sol\":9147:9157  checkSum() */\n      tag_166\n        /* \"contracts/core/MProject.sol\":9147:9155  checkSum */\n      tag_235\n        /* \"contracts/core/MProject.sol\":9147:9157  checkSum() */\n      jump\t// in\n        /* \"contracts/core/MProject.sol\":9201:10221  function reAssignDeliverable(uint256 _deliverableId, uint256 _newContributorId) external projectAdminOnly returns (bool _updated) {... */\n    tag_85:\n        /* \"contracts/core/MProject.sol\":9316:9329  bool _updated */\n      0x00\n        /* \"contracts/core/MProject.sol\":711:745  isProjectAdminInternal(msg.sender) */\n      tag_253\n        /* \"contracts/core/MProject.sol\":734:744  msg.sender */\n      caller\n        /* \"contracts/core/MProject.sol\":711:733  isProjectAdminInternal */\n      tag_214\n        /* \"contracts/core/MProject.sol\":711:745  isProjectAdminInternal(msg.sender) */\n      jump\t// in\n    tag_253:\n        /* \"contracts/core/MProject.sol\":703:770  require(isProjectAdminInternal(msg.sender), \" project admin only \") */\n      tag_254\n      jumpi\n      mload(0x40)\n      shl(0xe5, 0x461bcd)\n      dup2\n      mstore\n      0x04\n      add\n      tag_99\n      swap1\n      tag_217\n      jump\t// in\n    tag_254:\n        /* \"contracts/core/MProject.sol\":9342:9365  uint256 oldContributor_ */\n      0x00\n        /* \"contracts/core/MProject.sol\":9368:9412  contributorIdByDeliverableId[_deliverableId] */\n      dup4\n      dup2\n      mstore\n        /* \"contracts/core/MProject.sol\":9368:9396  contributorIdByDeliverableId */\n      0x0e\n        /* \"contracts/core/MProject.sol\":9368:9412  contributorIdByDeliverableId[_deliverableId] */\n      0x20\n      swap1\n      dup2\n      mstore\n      0x40\n      dup1\n      dup4\n      keccak256\n      dup1\n      sload\n        /* \"contracts/core/MProject.sol\":9423:9487  contributorIdByDeliverableId[_deliverableId] = _newContributorId */\n      swap1\n      dup7\n      swap1\n      sstore\n        /* \"contracts/core/MProject.sol\":9498:9546  deliverableIdsByContributorId[_newContributorId] */\n      dup6\n      dup5\n      mstore\n        /* \"contracts/core/MProject.sol\":9498:9527  deliverableIdsByContributorId */\n      0x0d\n        /* \"contracts/core/MProject.sol\":9498:9546  deliverableIdsByContributorId[_newContributorId] */\n      dup4\n      mstore\n      dup2\n      dup5\n      keccak256\n        /* \"contracts/core/MProject.sol\":9498:9567  deliverableIdsByContributorId[_newContributorId].push(_deliverableId) */\n      dup1\n      sload\n      0x01\n      dup2\n      add\n      dup3\n      sstore\n      swap1\n      dup6\n      mstore\n      dup4\n      dup6\n      keccak256\n      add\n      dup8\n      swap1\n      sstore\n        /* \"contracts/core/MProject.sol\":9614:9660  deliverableIdsByContributorId[oldContributor_] */\n      dup1\n      dup5\n      mstore\n      dup2\n      dup5\n      keccak256\n        /* \"contracts/core/MProject.sol\":9588:9660  uint256 [] memory dIds_ = deliverableIdsByContributorId[oldContributor_] */\n      dup1\n      sload\n      dup4\n      mload\n      dup2\n      dup7\n      mul\n      dup2\n      add\n      dup7\n      add\n      swap1\n      swap5\n      mstore\n      dup1\n      dup5\n      mstore\n        /* \"contracts/core/MProject.sol\":9368:9412  contributorIdByDeliverableId[_deliverableId] */\n      swap2\n      swap5\n        /* \"contracts/core/MProject.sol\":9342:9365  uint256 oldContributor_ */\n      swap4\n        /* \"contracts/core/MProject.sol\":9614:9660  deliverableIdsByContributorId[oldContributor_] */\n      swap1\n      swap2\n        /* \"contracts/core/MProject.sol\":9588:9660  uint256 [] memory dIds_ = deliverableIdsByContributorId[oldContributor_] */\n      swap1\n      dup4\n      add\n        /* \"contracts/core/MProject.sol\":9614:9660  deliverableIdsByContributorId[oldContributor_] */\n      dup3\n        /* \"contracts/core/MProject.sol\":9588:9660  uint256 [] memory dIds_ = deliverableIdsByContributorId[oldContributor_] */\n      dup3\n      dup1\n      iszero\n      tag_258\n      jumpi\n      0x20\n      mul\n      dup3\n      add\n      swap2\n      swap1\n      0x00\n      mstore\n      keccak256(0x00, 0x20)\n      swap1\n    tag_259:\n      dup2\n      sload\n      dup2\n      mstore\n      0x20\n      add\n      swap1\n      0x01\n      add\n      swap1\n      dup1\n      dup4\n      gt\n      tag_259\n      jumpi\n    tag_258:\n      pop\n      pop\n      pop\n      pop\n      pop\n      swap1\n      pop\n        /* \"contracts/core/MProject.sol\":9690:9691  1 */\n      0x01\n        /* \"contracts/core/MProject.sol\":9675:9680  dIds_ */\n      dup2\n        /* \"contracts/core/MProject.sol\":9675:9687  dIds_.length */\n      mload\n        /* \"contracts/core/MProject.sol\":9675:9691  dIds_.length > 1 */\n      gt\n        /* \"contracts/core/MProject.sol\":9672:10191  if(dIds_.length > 1) {... */\n      iszero\n      tag_260\n      jumpi\n        /* \"contracts/core/MProject.sol\":9708:9732  uint256 [] memory nDIds_ */\n      0x00\n        /* \"contracts/core/MProject.sol\":9749:9754  dIds_ */\n      dup2\n        /* \"contracts/core/MProject.sol\":9749:9761  dIds_.length */\n      mload\n      sub(shl(0x40, 0x01), 0x01)\n        /* \"contracts/core/MProject.sol\":9735:9762  new uint256[](dIds_.length) */\n      dup2\n      gt\n      iszero\n      tag_262\n      jumpi\n      tag_262\n      tag_135\n      jump\t// in\n    tag_262:\n      mload(0x40)\n      swap1\n      dup1\n      dup3\n      mstore\n      dup1\n      0x20\n      mul\n      0x20\n      add\n      dup3\n      add\n      0x40\n      mstore\n      dup1\n      iszero\n      tag_263\n      jumpi\n      dup2\n      0x20\n      add\n      0x20\n      dup3\n      mul\n      dup1\n      calldatasize\n      dup4\n      calldatacopy\n      add\n      swap1\n      pop\n    tag_263:\n      pop\n        /* \"contracts/core/MProject.sol\":9708:9762  uint256 [] memory nDIds_ = new uint256[](dIds_.length) */\n      swap1\n      pop\n        /* \"contracts/core/MProject.sol\":9777:9786  uint256 y */\n      0x00\n        /* \"contracts/core/MProject.sol\":9810:9819  uint256 x */\n      dup1\n        /* \"contracts/core/MProject.sol\":9806:10001  for(uint256 x = 0; x < dIds_.length; x++) {... */\n    tag_264:\n        /* \"contracts/core/MProject.sol\":9829:9834  dIds_ */\n      dup4\n        /* \"contracts/core/MProject.sol\":9829:9841  dIds_.length */\n      mload\n        /* \"contracts/core/MProject.sol\":9825:9826  x */\n      dup2\n        /* \"contracts/core/MProject.sol\":9825:9841  x < dIds_.length */\n      lt\n        /* \"contracts/core/MProject.sol\":9806:10001  for(uint256 x = 0; x < dIds_.length; x++) {... */\n      iszero\n      tag_265\n      jumpi\n        /* \"contracts/core/MProject.sol\":9882:9896  _deliverableId */\n      dup8\n        /* \"contracts/core/MProject.sol\":9870:9875  dIds_ */\n      dup5\n        /* \"contracts/core/MProject.sol\":9876:9877  x */\n      dup3\n        /* \"contracts/core/MProject.sol\":9870:9878  dIds_[x] */\n      dup2\n      mload\n      dup2\n      lt\n      tag_268\n      jumpi\n      tag_268\n      tag_145\n      jump\t// in\n    tag_268:\n      0x20\n      mul\n      0x20\n      add\n      add\n      mload\n        /* \"contracts/core/MProject.sol\":9870:9896  dIds_[x] != _deliverableId */\n      eq\n        /* \"contracts/core/MProject.sol\":9867:9986  if(dIds_[x] != _deliverableId){... */\n      tag_269\n      jumpi\n        /* \"contracts/core/MProject.sol\":9932:9937  dIds_ */\n      dup4\n        /* \"contracts/core/MProject.sol\":9938:9939  x */\n      dup2\n        /* \"contracts/core/MProject.sol\":9932:9940  dIds_[x] */\n      dup2\n      mload\n      dup2\n      lt\n      tag_271\n      jumpi\n      tag_271\n      tag_145\n      jump\t// in\n    tag_271:\n      0x20\n      mul\n      0x20\n      add\n      add\n      mload\n        /* \"contracts/core/MProject.sol\":9920:9926  nDIds_ */\n      dup4\n        /* \"contracts/core/MProject.sol\":9927:9928  y */\n      dup4\n        /* \"contracts/core/MProject.sol\":9920:9929  nDIds_[y] */\n      dup2\n      mload\n      dup2\n      lt\n      tag_273\n      jumpi\n      tag_273\n      tag_145\n      jump\t// in\n    tag_273:\n      0x20\n      swap1\n      dup2\n      mul\n      swap2\n      swap1\n      swap2\n      add\n      add\n        /* \"contracts/core/MProject.sol\":9920:9940  nDIds_[y] = dIds_[x] */\n      mstore\n        /* \"contracts/core/MProject.sol\":9963:9966  y++ */\n      dup2\n      tag_274\n      dup2\n      tag_275\n      jump\t// in\n    tag_274:\n      swap3\n      pop\n      pop\n        /* \"contracts/core/MProject.sol\":9867:9986  if(dIds_[x] != _deliverableId){... */\n    tag_269:\n        /* \"contracts/core/MProject.sol\":9843:9846  x++ */\n      0x01\n      add\n        /* \"contracts/core/MProject.sol\":9806:10001  for(uint256 x = 0; x < dIds_.length; x++) {... */\n      jump(tag_264)\n    tag_265:\n      pop\n        /* \"contracts/core/MProject.sol\":10015:10061  deliverableIdsByContributorId[oldContributor_] */\n      0x00\n      dup5\n      dup2\n      mstore\n        /* \"contracts/core/MProject.sol\":10015:10044  deliverableIdsByContributorId */\n      0x0d\n        /* \"contracts/core/MProject.sol\":10015:10061  deliverableIdsByContributorId[oldContributor_] */\n      0x20\n      swap1\n      dup2\n      mstore\n      0x40\n      swap1\n      swap2\n      keccak256\n        /* \"contracts/core/MProject.sol\":10015:10070  deliverableIdsByContributorId[oldContributor_] = nDIds_ */\n      dup4\n      mload\n      tag_276\n      swap3\n      dup6\n      add\n      swap1\n      tag_277\n      jump\t// in\n    tag_276:\n      pop\n        /* \"contracts/core/MProject.sol\":9693:10083  {... */\n      pop\n      pop\n        /* \"contracts/core/MProject.sol\":9672:10191  if(dIds_.length > 1) {... */\n      jump(tag_278)\n    tag_260:\n        /* \"contracts/core/MProject.sol\":10163:10179  new uint256[](0) */\n      0x40\n      dup1\n      mload\n        /* \"contracts/core/MProject.sol\":10177:10178  0 */\n      0x00\n        /* \"contracts/core/MProject.sol\":10163:10179  new uint256[](0) */\n      dup1\n      dup3\n      mstore\n      0x20\n      dup1\n      dup4\n      add\n      dup1\n      dup6\n      mstore\n        /* \"contracts/core/MProject.sol\":10114:10160  deliverableIdsByContributorId[oldContributor_] */\n      dup7\n      dup4\n      mstore\n        /* \"contracts/core/MProject.sol\":10114:10143  deliverableIdsByContributorId */\n      0x0d\n        /* \"contracts/core/MProject.sol\":10114:10160  deliverableIdsByContributorId[oldContributor_] */\n      swap1\n      swap2\n      mstore\n      swap3\n      swap1\n      keccak256\n        /* \"contracts/core/MProject.sol\":10114:10179  deliverableIdsByContributorId[oldContributor_] = new uint256[](0) */\n      swap1\n      mload\n      tag_282\n      swap3\n        /* \"contracts/core/MProject.sol\":10163:10179  new uint256[](0) */\n      swap1\n        /* \"contracts/core/MProject.sol\":10114:10179  deliverableIdsByContributorId[oldContributor_] = new uint256[](0) */\n      tag_277\n      jump\t// in\n    tag_282:\n      pop\n        /* \"contracts/core/MProject.sol\":9672:10191  if(dIds_.length > 1) {... */\n    tag_278:\n      pop\n        /* \"contracts/core/MProject.sol\":10208:10212  true */\n      0x01\n      swap5\n        /* \"contracts/core/MProject.sol\":9201:10221  function reAssignDeliverable(uint256 _deliverableId, uint256 _newContributorId) external projectAdminOnly returns (bool _updated) {... */\n      swap4\n      pop\n      pop\n      pop\n      pop\n      jump\t// out\n        /* \"contracts/core/MProject.sol\":4722:5538  function addContributor(Contributor memory _contributor) external returns (uint256 _contributorId) {... */\n    tag_90:\n        /* \"contracts/core/MProject.sol\":4797:4819  uint256 _contributorId */\n      0x00\n        /* \"contracts/core/MProject.sol\":4832:4854  uint256 contributorId_ */\n      dup1\n        /* \"contracts/core/MProject.sol\":4857:4867  getIndex() */\n      tag_284\n        /* \"contracts/core/MProject.sol\":4857:4865  getIndex */\n      tag_186\n        /* \"contracts/core/MProject.sol\":4857:4867  getIndex() */\n      jump\t// in\n    tag_284:\n        /* \"contracts/core/MProject.sol\":4878:4892  contributorIds */\n      0x06\n        /* \"contracts/core/MProject.sol\":4878:4913  contributorIds.push(contributorId_) */\n      dup1\n      sload\n      0x01\n      dup1\n      dup3\n      add\n      dup4\n      sstore\n      0x00\n      swap3\n      dup4\n      mstore\n      0xf652222313e28459528d920b65115c16c04f3efc82aaedc97be59f3f377c0d3f\n      swap1\n      swap2\n      add\n      dup4\n      swap1\n      sstore\n        /* \"contracts/core/MProject.sol\":4958:5376  Contributor({... */\n      0x40\n      dup1\n      mload\n      0x80\n      dup2\n      add\n      dup3\n      mstore\n      dup5\n      dup2\n      mstore\n        /* \"contracts/core/MProject.sol\":4878:4913  contributorIds.push(contributorId_) */\n      0x20\n        /* \"contracts/core/MProject.sol\":5119:5141  _contributor.homeChain */\n      dup9\n      dup2\n      add\n      mload\n        /* \"contracts/core/MProject.sol\":4958:5376  Contributor({... */\n      dup2\n      dup4\n      add\n      swap1\n      dup2\n      mstore\n        /* \"contracts/core/MProject.sol\":5209:5228  _contributor.wallet */\n      dup10\n      dup5\n      add\n      mload\n      sub(shl(0xa0, 0x01), 0x01)\n        /* \"contracts/core/MProject.sol\":4958:5376  Contributor({... */\n      swap1\n      dup2\n      and\n      dup5\n      dup7\n      add\n      swap1\n      dup2\n      mstore\n      0x60\n        /* \"contracts/core/MProject.sol\":5299:5320  _contributor.metadata */\n      dup1\n      dup14\n      add\n      mload\n        /* \"contracts/core/MProject.sol\":4958:5376  Contributor({... */\n      swap1\n      dup7\n      add\n      swap1\n      dup2\n      mstore\n        /* \"contracts/core/MProject.sol\":4924:4955  contributorById[contributorId_] */\n      dup10\n      dup10\n      mstore\n        /* \"contracts/core/MProject.sol\":4924:4939  contributorById */\n      0x0b\n        /* \"contracts/core/MProject.sol\":4924:4955  contributorById[contributorId_] */\n      dup6\n      mstore\n      swap6\n      swap1\n      swap8\n      keccak256\n        /* \"contracts/core/MProject.sol\":4924:5376  contributorById[contributorId_] = Contributor({... */\n      dup5\n      mload\n      dup2\n      sstore\n      swap2\n      mload\n      swap6\n      dup3\n      add\n      swap6\n      swap1\n      swap6\n      sstore\n      swap5\n      mload\n      0x02\n      dup7\n      add\n      dup1\n      sload\n      not(sub(shl(0xa0, 0x01), 0x01))\n      and\n      swap2\n      swap1\n      swap6\n      and\n      or\n      swap1\n      swap4\n      sstore\n      swap1\n      mload\n      dup1\n      mload\n      0x03\n      dup6\n      add\n      swap1\n      dup2\n      sstore\n      swap3\n      dup2\n      add\n      mload\n        /* \"contracts/core/MProject.sol\":4878:4913  contributorIds.push(contributorId_) */\n      swap5\n      swap6\n      pop\n        /* \"contracts/core/MProject.sol\":4958:5376  Contributor({... */\n      swap1\n      swap4\n        /* \"contracts/core/MProject.sol\":4924:5376  contributorById[contributorId_] = Contributor({... */\n      swap1\n      swap2\n      swap1\n      0x04\n      dup5\n      add\n      swap1\n      tag_286\n      swap1\n      dup3\n      tag_193\n      jump\t// in\n    tag_286:\n      pop\n      pop\n      pop\n      pop\n        /* \"contracts/core/MProject.sol\":5413:5432  _contributor.wallet */\n      0x40\n      swap4\n      dup5\n      add\n      dup1\n      mload\n        /* \"contracts/core/MProject.sol\":5387:5407  contributorAddresses */\n      0x07\n        /* \"contracts/core/MProject.sol\":5387:5433  contributorAddresses.push(_contributor.wallet) */\n      dup1\n      sload\n      0x01\n      dup1\n      dup3\n      add\n      dup4\n      sstore\n      0x00\n      swap3\n      dup4\n      mstore\n      0xa66cc928b5edb82af9bd49922954155ab7b0942694bea4ce44661d9a8736c688\n      swap1\n      swap2\n      add\n      dup1\n      sload\n      not(sub(shl(0xa0, 0x01), 0x01))\n      and\n      sub(shl(0xa0, 0x01), 0x01)\n      swap5\n      dup6\n      and\n      or\n      swap1\n      sstore\n        /* \"contracts/core/MProject.sol\":5470:5489  _contributor.wallet */\n      swap3\n      mload\n        /* \"contracts/core/MProject.sol\":5444:5490  isKnownContributorAddress[_contributor.wallet] */\n      swap1\n      swap2\n      and\n      dup2\n      mstore\n        /* \"contracts/core/MProject.sol\":5444:5469  isKnownContributorAddress */\n      0x09\n        /* \"contracts/core/MProject.sol\":5387:5433  contributorAddresses.push(_contributor.wallet) */\n      0x20\n        /* \"contracts/core/MProject.sol\":5444:5490  isKnownContributorAddress[_contributor.wallet] */\n      mstore\n      swap5\n      swap1\n      swap5\n      keccak256\n        /* \"contracts/core/MProject.sol\":5444:5497  isKnownContributorAddress[_contributor.wallet] = true */\n      dup1\n      sload\n      not(0xff)\n      and\n      swap1\n      swap5\n      or\n      swap1\n      swap4\n      sstore\n      pop\n        /* \"contracts/core/MProject.sol\":4722:5538  function addContributor(Contributor memory _contributor) external returns (uint256 _contributorId) {... */\n      swap2\n      swap1\n      pop\n      jump\t// out\n        /* \"contracts/core/MProject.sol\":10625:10756  function getIndex() internal returns (uint256 _index) {... */\n    tag_186:\n        /* \"contracts/core/MProject.sol\":10699:10704  index */\n      0x15\n      dup1\n      sload\n      swap1\n      dup2\n      swap1\n        /* \"contracts/core/MProject.sol\":10663:10677  uint256 _index */\n      0x00\n        /* \"contracts/core/MProject.sol\":10716:10723  index++ */\n      tag_289\n        /* \"contracts/core/MProject.sol\":10699:10704  index */\n      dup4\n        /* \"contracts/core/MProject.sol\":10716:10723  index++ */\n      tag_275\n      jump\t// in\n    tag_289:\n      swap2\n      swap1\n      pop\n      sstore\n      pop\n        /* \"contracts/core/MProject.sol\":10625:10756  function getIndex() internal returns (uint256 _index) {... */\n      swap1\n      jump\t// out\n        /* \"contracts/core/MProject.sol\":12589:13051  function isProjectAdminInternal(address _address) view internal returns (bool _isProjectAdmin) {... */\n    tag_214:\n        /* \"contracts/core/MProject.sol\":12714:12722  register */\n      sload(0x02)\n        /* \"contracts/core/MProject.sol\":12734:12741  ALLO_CA */\n      0x40\n      dup1\n      mload\n      dup1\n      dup3\n      add\n      dup3\n      mstore\n      0x12\n      dup2\n      mstore\n      shl(0x70, 0x52455345525645445f414c4c4f5f434f5245)\n      0x20\n      dup3\n      add\n      mstore\n        /* \"contracts/core/MProject.sol\":12714:12742  register.getAddress(ALLO_CA) */\n      swap1\n      mload\n      shl(0xe0, 0xbf40fac1)\n      dup2\n      mstore\n        /* \"contracts/core/MProject.sol\":12662:12682  bool _isProjectAdmin */\n      0x00\n      swap3\n      dup4\n      swap3\n      sub(shl(0xa0, 0x01), 0x01)\n        /* \"contracts/core/MProject.sol\":12714:12722  register */\n      swap1\n      swap2\n      and\n      swap2\n        /* \"contracts/core/MProject.sol\":12714:12733  register.getAddress */\n      0xbf40fac1\n      swap2\n        /* \"contracts/core/MProject.sol\":12714:12742  register.getAddress(ALLO_CA) */\n      tag_291\n      swap2\n      0x04\n      add\n      tag_34\n      jump\t// in\n    tag_291:\n      0x20\n      mload(0x40)\n      dup1\n      dup4\n      sub\n      dup2\n      dup7\n      gas\n      staticcall\n      iszero\n      dup1\n      iszero\n      tag_293\n      jumpi\n      returndatasize\n      0x00\n      dup1\n      returndatacopy\n      revert(0x00, returndatasize)\n    tag_293:\n      pop\n      pop\n      pop\n      pop\n      mload(0x40)\n      returndatasize\n      not(0x1f)\n      0x1f\n      dup3\n      add\n      and\n      dup3\n      add\n      dup1\n      0x40\n      mstore\n      pop\n      dup2\n      add\n      swap1\n      tag_294\n      swap2\n      swap1\n      tag_97\n      jump\t// in\n    tag_294:\n        /* \"contracts/core/MProject.sol\":12695:12743  IAllo allo = IAllo(register.getAddress(ALLO_CA)) */\n      swap1\n      pop\n        /* \"contracts/core/MProject.sol\":12754:12776  IRegistry alloRegistry */\n      0x00\n        /* \"contracts/core/MProject.sol\":12779:12783  allo */\n      dup2\n      sub(shl(0xa0, 0x01), 0x01)\n        /* \"contracts/core/MProject.sol\":12779:12795  allo.getRegistry */\n      and\n      0x5ab1bd53\n        /* \"contracts/core/MProject.sol\":12779:12797  allo.getRegistry() */\n      mload(0x40)\n      dup2\n      0xffffffff\n      and\n      0xe0\n      shl\n      dup2\n      mstore\n      0x04\n      add\n      0x20\n      mload(0x40)\n      dup1\n      dup4\n      sub\n      dup2\n      dup7\n      gas\n      staticcall\n      iszero\n      dup1\n      iszero\n      tag_296\n      jumpi\n      returndatasize\n      0x00\n      dup1\n      returndatacopy\n      revert(0x00, returndatasize)\n    tag_296:\n      pop\n      pop\n      pop\n      pop\n      mload(0x40)\n      returndatasize\n      not(0x1f)\n      0x1f\n      dup3\n      add\n      and\n      dup3\n      add\n      dup1\n      0x40\n      mstore\n      pop\n      dup2\n      add\n      swap1\n      tag_297\n      swap2\n      swap1\n      tag_97\n      jump\t// in\n    tag_297:\n        /* \"contracts/core/MProject.sol\":12831:12841  alloPoolId */\n      sload(0x03)\n        /* \"contracts/core/MProject.sol\":12812:12852  allo.isPoolManager(alloPoolId, _address) */\n      mload(0x40)\n      shl(0xe0, 0x29e40d4b)\n      dup2\n      mstore\n        /* \"contracts/core/MProject.sol\":12754:12797  IRegistry alloRegistry = allo.getRegistry() */\n      swap2\n      swap3\n      pop\n      sub(shl(0xa0, 0x01), 0x01)\n        /* \"contracts/core/MProject.sol\":12812:12830  allo.isPoolManager */\n      dup5\n      and\n      swap2\n      0x29e40d4b\n      swap2\n        /* \"contracts/core/MProject.sol\":12812:12852  allo.isPoolManager(alloPoolId, _address) */\n      tag_299\n      swap2\n        /* \"contracts/core/MProject.sol\":12843:12851  _address */\n      dup9\n      swap1\n        /* \"contracts/core/MProject.sol\":12812:12852  allo.isPoolManager(alloPoolId, _address) */\n      0x04\n      add\n        /* \"#utility.yul\":19839:19864   */\n      swap2\n      dup3\n      mstore\n      sub(shl(0xa0, 0x01), 0x01)\n        /* \"#utility.yul\":19900:19932   */\n      and\n        /* \"#utility.yul\":19895:19897   */\n      0x20\n        /* \"#utility.yul\":19880:19898   */\n      dup3\n      add\n        /* \"#utility.yul\":19873:19933   */\n      mstore\n        /* \"#utility.yul\":19827:19829   */\n      0x40\n        /* \"#utility.yul\":19812:19830   */\n      add\n      swap1\n        /* \"#utility.yul\":19665:19939   */\n      jump\n        /* \"contracts/core/MProject.sol\":12812:12852  allo.isPoolManager(alloPoolId, _address) */\n    tag_299:\n      0x20\n      mload(0x40)\n      dup1\n      dup4\n      sub\n      dup2\n      dup7\n      gas\n      staticcall\n      iszero\n      dup1\n      iszero\n      tag_302\n      jumpi\n      returndatasize\n      0x00\n      dup1\n      returndatacopy\n      revert(0x00, returndatasize)\n    tag_302:\n      pop\n      pop\n      pop\n      pop\n      mload(0x40)\n      returndatasize\n      not(0x1f)\n      0x1f\n      dup3\n      add\n      and\n      dup3\n      add\n      dup1\n      0x40\n      mstore\n      pop\n      dup2\n      add\n      swap1\n      tag_303\n      swap2\n      swap1\n      tag_304\n      jump\t// in\n    tag_303:\n        /* \"contracts/core/MProject.sol\":12812:12908  allo.isPoolManager(alloPoolId, _address) ... */\n      dup1\n      tag_309\n      jumpi\n      pop\n        /* \"contracts/core/MProject.sol\":12887:12897  alloPoolId */\n      sload(0x03)\n        /* \"contracts/core/MProject.sol\":12870:12908  allo.isPoolAdmin(alloPoolId, _address) */\n      mload(0x40)\n      shl(0xe1, 0x559ff5e3)\n      dup2\n      mstore\n      0x04\n      dup2\n      add\n        /* \"#utility.yul\":19839:19864   */\n      swap2\n      swap1\n      swap2\n      mstore\n      sub(shl(0xa0, 0x01), 0x01)\n        /* \"#utility.yul\":19900:19932   */\n      dup6\n      dup2\n      and\n        /* \"#utility.yul\":19880:19898   */\n      0x24\n      dup4\n      add\n        /* \"#utility.yul\":19873:19933   */\n      mstore\n        /* \"contracts/core/MProject.sol\":12870:12886  allo.isPoolAdmin */\n      dup4\n      and\n      swap1\n      0xab3febc6\n      swap1\n        /* \"#utility.yul\":19812:19830   */\n      0x44\n      add\n        /* \"contracts/core/MProject.sol\":12870:12908  allo.isPoolAdmin(alloPoolId, _address) */\n      0x20\n      mload(0x40)\n      dup1\n      dup4\n      sub\n      dup2\n      dup7\n      gas\n      staticcall\n      iszero\n      dup1\n      iszero\n      tag_308\n      jumpi\n      returndatasize\n      0x00\n      dup1\n      returndatacopy\n      revert(0x00, returndatasize)\n    tag_308:\n      pop\n      pop\n      pop\n      pop\n      mload(0x40)\n      returndatasize\n      not(0x1f)\n      0x1f\n      dup3\n      add\n      and\n      dup3\n      add\n      dup1\n      0x40\n      mstore\n      pop\n      dup2\n      add\n      swap1\n      tag_309\n      swap2\n      swap1\n      tag_304\n      jump\t// in\n    tag_309:\n        /* \"contracts/core/MProject.sol\":12812:12980  allo.isPoolManager(alloPoolId, _address) ... */\n      dup1\n      tag_315\n      jumpi\n      pop\n        /* \"contracts/core/MProject.sol\":12956:12969  alloProfileId */\n      0x04\n      dup1\n      sload\n        /* \"contracts/core/MProject.sol\":12926:12980  alloRegistry.isOwnerOfProfile(alloProfileId, _address) */\n      mload(0x40)\n      shl(0xe2, 0x0e6e1ae3)\n      dup2\n      mstore\n      swap2\n      dup3\n      add\n        /* \"#utility.yul\":19839:19864   */\n      mstore\n      sub(shl(0xa0, 0x01), 0x01)\n        /* \"#utility.yul\":19900:19932   */\n      dup6\n      dup2\n      and\n        /* \"#utility.yul\":19880:19898   */\n      0x24\n      dup4\n      add\n        /* \"#utility.yul\":19873:19933   */\n      mstore\n        /* \"contracts/core/MProject.sol\":12926:12955  alloRegistry.isOwnerOfProfile */\n      dup3\n      and\n      swap1\n      0x39b86b8c\n      swap1\n        /* \"#utility.yul\":19812:19830   */\n      0x44\n      add\n        /* \"contracts/core/MProject.sol\":12926:12980  alloRegistry.isOwnerOfProfile(alloProfileId, _address) */\n      0x20\n      mload(0x40)\n      dup1\n      dup4\n      sub\n      dup2\n      dup7\n      gas\n      staticcall\n      iszero\n      dup1\n      iszero\n      tag_314\n      jumpi\n      returndatasize\n      0x00\n      dup1\n      returndatacopy\n      revert(0x00, returndatasize)\n    tag_314:\n      pop\n      pop\n      pop\n      pop\n      mload(0x40)\n      returndatasize\n      not(0x1f)\n      0x1f\n      dup3\n      add\n      and\n      dup3\n      add\n      dup1\n      0x40\n      mstore\n      pop\n      dup2\n      add\n      swap1\n      tag_315\n      swap2\n      swap1\n      tag_304\n      jump\t// in\n    tag_315:\n        /* \"contracts/core/MProject.sol\":12809:13020  if(allo.isPoolManager(alloPoolId, _address) ... */\n      iszero\n      tag_316\n      jumpi\n      pop\n        /* \"contracts/core/MProject.sol\":13003:13007  true */\n      0x01\n      swap4\n        /* \"contracts/core/MProject.sol\":12589:13051  function isProjectAdminInternal(address _address) view internal returns (bool _isProjectAdmin) {... */\n      swap3\n      pop\n      pop\n      pop\n      jump\t// out\n        /* \"contracts/core/MProject.sol\":12809:13020  if(allo.isPoolManager(alloPoolId, _address) ... */\n    tag_316:\n      pop\n        /* \"contracts/core/MProject.sol\":13037:13042  false */\n      0x00\n      swap4\n        /* \"contracts/core/MProject.sol\":12589:13051  function isProjectAdminInternal(address _address) view internal returns (bool _isProjectAdmin) {... */\n      swap3\n      pop\n      pop\n      pop\n      jump\t// out\n        /* \"contracts/core/MProject.sol\":11658:12581  function overwriteDeliverable(uint256 _deliverableId, Deliverable memory _deliverable) internal returns (bool) {  ... */\n    tag_233:\n        /* \"contracts/core/MProject.sol\":11763:11767  bool */\n      0x00\n        /* \"contracts/core/MProject.sol\":11816:12550  Deliverable({... */\n      mload(0x40)\n      dup1\n      0xe0\n      add\n      0x40\n      mstore\n      dup1\n        /* \"contracts/core/MProject.sol\":11892:11906  _deliverableId */\n      dup5\n        /* \"contracts/core/MProject.sol\":11816:12550  Deliverable({... */\n      dup2\n      mstore\n      0x20\n      add\n        /* \"contracts/core/MProject.sol\":11984:11986  id */\n      immutable(\"0x840881693295f1213bc621234bc18aa1727c90c9e1416799df22e18f9c7c029b\")\n        /* \"contracts/core/MProject.sol\":11816:12550  Deliverable({... */\n      dup2\n      mstore\n      0x20\n      add\n        /* \"contracts/core/MProject.sol\":12063:12075  _deliverable */\n      dup4\n        /* \"contracts/core/MProject.sol\":12063:12088  _deliverable.payoutAmount */\n      0x40\n      add\n      mload\n        /* \"contracts/core/MProject.sol\":11816:12550  Deliverable({... */\n      dup2\n      mstore\n      0x20\n      add\n        /* \"contracts/core/MProject.sol\":12166:12178  _deliverable */\n      dup4\n        /* \"contracts/core/MProject.sol\":12166:12183  _deliverable.name */\n      0x60\n      add\n      mload\n        /* \"contracts/core/MProject.sol\":11816:12550  Deliverable({... */\n      dup2\n      mstore\n      0x20\n      add\n        /* \"contracts/core/MProject.sol\":12260:12272  _deliverable */\n      dup4\n        /* \"contracts/core/MProject.sol\":12260:12281  _deliverable.metadata */\n      0x80\n      add\n      mload\n        /* \"contracts/core/MProject.sol\":11816:12550  Deliverable({... */\n      dup2\n      mstore\n      0x20\n      add\n        /* \"contracts/core/MProject.sol\":12361:12373  _deliverable */\n      dup4\n        /* \"contracts/core/MProject.sol\":12361:12391  _deliverable.deliverableStatus */\n      0xa0\n      add\n      mload\n        /* \"contracts/core/MProject.sol\":11816:12550  Deliverable({... */\n      0x04\n      dup2\n      gt\n      iszero\n      tag_319\n      jumpi\n      tag_319\n      tag_107\n      jump\t// in\n    tag_319:\n      dup2\n      mstore\n      0x20\n      add\n        /* \"contracts/core/MProject.sol\":12469:12481  _deliverable */\n      dup4\n        /* \"contracts/core/MProject.sol\":12469:12494  _deliverable.payoutStatus */\n      0xc0\n      add\n      mload\n        /* \"contracts/core/MProject.sol\":11816:12550  Deliverable({... */\n      0x04\n      dup2\n      gt\n      iszero\n      tag_321\n      jumpi\n      tag_321\n      tag_107\n      jump\t// in\n    tag_321:\n      swap1\n      mstore\n        /* \"contracts/core/MProject.sol\":11782:11813  deliverableById[_deliverableId] */\n      0x00\n      dup5\n      dup2\n      mstore\n        /* \"contracts/core/MProject.sol\":11782:11797  deliverableById */\n      0x11\n        /* \"contracts/core/MProject.sol\":11782:11813  deliverableById[_deliverableId] */\n      0x20\n      swap1\n      dup2\n      mstore\n      0x40\n      swap2\n      dup3\n      swap1\n      keccak256\n        /* \"contracts/core/MProject.sol\":11782:12550  deliverableById[_deliverableId] = Deliverable({... */\n      dup4\n      mload\n      dup2\n      sstore\n      swap1\n      dup4\n      add\n      mload\n      0x01\n      dup3\n      add\n      sstore\n      swap1\n      dup3\n      add\n      mload\n      0x02\n      dup3\n      add\n      sstore\n      0x60\n      dup3\n      add\n      mload\n      0x03\n      dup3\n      add\n      swap1\n      tag_322\n      swap1\n      dup3\n      tag_193\n      jump\t// in\n    tag_322:\n      pop\n      0x80\n      dup3\n      add\n      mload\n      dup1\n      mload\n      0x04\n      dup4\n      add\n      swap1\n      dup2\n      sstore\n      0x20\n      dup3\n      add\n      mload\n      0x05\n      dup5\n      add\n      swap1\n      tag_323\n      swap1\n      dup3\n      tag_193\n      jump\t// in\n    tag_323:\n      pop\n      pop\n      pop\n      0xa0\n      dup3\n      add\n      mload\n      0x06\n      dup3\n      add\n      dup1\n      sload\n      not(0xff)\n      and\n      0x01\n      dup4\n      0x04\n      dup2\n      gt\n      iszero\n      tag_325\n      jumpi\n      tag_325\n      tag_107\n      jump\t// in\n    tag_325:\n      mul\n      or\n      swap1\n      sstore\n      pop\n      0xc0\n      dup3\n      add\n      mload\n      0x06\n      dup3\n      add\n      dup1\n      sload\n      not(0xff00)\n      and\n      0x0100\n      dup4\n      0x04\n      dup2\n      gt\n      iszero\n      tag_327\n      jumpi\n      tag_327\n      tag_107\n      jump\t// in\n    tag_327:\n      mul\n      or\n      swap1\n      sstore\n      pop\n        /* \"contracts/core/MProject.sol\":12568:12572  true */\n      0x01\n      swap6\n        /* \"contracts/core/MProject.sol\":11658:12581  function overwriteDeliverable(uint256 _deliverableId, Deliverable memory _deliverable) internal returns (bool) {  ... */\n      swap5\n      pop\n      pop\n      pop\n      pop\n      pop\n      jump\t// out\n        /* \"contracts/core/MProject.sol\":10764:11135  function checkSum() view internal returns (uint256 _sum) {... */\n    tag_235:\n        /* \"contracts/core/MProject.sol\":10807:10819  uint256 _sum */\n      0x00\n        /* \"contracts/core/MProject.sol\":10839:10846  resum() */\n      tag_329\n        /* \"contracts/core/MProject.sol\":10839:10844  resum */\n      tag_330\n        /* \"contracts/core/MProject.sol\":10839:10846  resum() */\n      jump\t// in\n    tag_329:\n        /* \"contracts/core/MProject.sol\":10832:10846  _sum = resum() */\n      swap1\n      pop\n        /* \"contracts/core/MProject.sol\":10875:10879  _sum */\n      dup1\n        /* \"contracts/core/MProject.sol\":10865:10871  budget */\n      sload(0x01)\n        /* \"contracts/core/MProject.sol\":10865:10879  budget >= _sum */\n      lt\n      iszero\n        /* \"contracts/core/MProject.sol\":10857:10906  require(budget >= _sum, \" in sufficient budget \") */\n      tag_331\n      jumpi\n      mload(0x40)\n      shl(0xe5, 0x461bcd)\n      dup2\n      mstore\n        /* \"#utility.yul\":20707:20709   */\n      0x20\n        /* \"contracts/core/MProject.sol\":10857:10906  require(budget >= _sum, \" in sufficient budget \") */\n      0x04\n      dup3\n      add\n        /* \"#utility.yul\":20689:20710   */\n      mstore\n        /* \"#utility.yul\":20746:20748   */\n      0x16\n        /* \"#utility.yul\":20726:20744   */\n      0x24\n      dup3\n      add\n        /* \"#utility.yul\":20719:20749   */\n      mstore\n      shl(0x55, 0x01034b71039bab33334b1b4b2b73a10313ab233b2ba1)\n        /* \"#utility.yul\":20765:20783   */\n      0x44\n      dup3\n      add\n        /* \"#utility.yul\":20758:20810   */\n      mstore\n        /* \"#utility.yul\":20827:20845   */\n      0x64\n      add\n        /* \"contracts/core/MProject.sol\":10857:10906  require(budget >= _sum, \" in sufficient budget \") */\n      tag_99\n        /* \"#utility.yul\":20505:20851   */\n      jump\n        /* \"contracts/core/MProject.sol\":10857:10906  require(budget >= _sum, \" in sufficient budget \") */\n    tag_331:\n        /* \"contracts/core/MProject.sol\":10939:10947  register */\n      sload(0x02)\n        /* \"contracts/core/MProject.sol\":10959:10966  ALLO_CA */\n      0x40\n      dup1\n      mload\n      dup1\n      dup3\n      add\n      dup3\n      mstore\n      0x12\n      dup2\n      mstore\n      shl(0x70, 0x52455345525645445f414c4c4f5f434f5245)\n      0x20\n      dup3\n      add\n      mstore\n        /* \"contracts/core/MProject.sol\":10939:10967  register.getAddress(ALLO_CA) */\n      swap1\n      mload\n      shl(0xe0, 0xbf40fac1)\n      dup2\n      mstore\n        /* \"contracts/core/MProject.sol\":10919:10930  IAllo allo_ */\n      0x00\n      swap3\n      sub(shl(0xa0, 0x01), 0x01)\n        /* \"contracts/core/MProject.sol\":10939:10947  register */\n      and\n      swap2\n        /* \"contracts/core/MProject.sol\":10939:10958  register.getAddress */\n      0xbf40fac1\n      swap2\n        /* \"contracts/core/MProject.sol\":10939:10967  register.getAddress(ALLO_CA) */\n      tag_334\n      swap2\n        /* \"contracts/core/MProject.sol\":10959:10966  ALLO_CA */\n      swap1\n        /* \"contracts/core/MProject.sol\":10939:10967  register.getAddress(ALLO_CA) */\n      0x04\n      add\n      tag_34\n      jump\t// in\n    tag_334:\n      0x20\n      mload(0x40)\n      dup1\n      dup4\n      sub\n      dup2\n      dup7\n      gas\n      staticcall\n      iszero\n      dup1\n      iszero\n      tag_336\n      jumpi\n      returndatasize\n      0x00\n      dup1\n      returndatacopy\n      revert(0x00, returndatasize)\n    tag_336:\n      pop\n      pop\n      pop\n      pop\n      mload(0x40)\n      returndatasize\n      not(0x1f)\n      0x1f\n      dup3\n      add\n      and\n      dup3\n      add\n      dup1\n      0x40\n      mstore\n      pop\n      dup2\n      add\n      swap1\n      tag_337\n      swap2\n      swap1\n      tag_97\n      jump\t// in\n    tag_337:\n        /* \"contracts/core/MProject.sol\":10919:10968  IAllo allo_ = IAllo(register.getAddress(ALLO_CA)) */\n      swap1\n      pop\n        /* \"contracts/core/MProject.sol\":11056:11060  _sum */\n      dup2\n        /* \"contracts/core/MProject.sol\":10994:10999  allo_ */\n      dup2\n      sub(shl(0xa0, 0x01), 0x01)\n        /* \"contracts/core/MProject.sol\":10994:11007  allo_.getPool */\n      and\n      0x068bcd8d\n        /* \"contracts/core/MProject.sol\":11008:11018  alloPoolId */\n      sload(0x03)\n        /* \"contracts/core/MProject.sol\":10994:11019  allo_.getPool(alloPoolId) */\n      mload(0x40)\n      dup3\n      0xffffffff\n      and\n      0xe0\n      shl\n      dup2\n      mstore\n      0x04\n      add\n      tag_338\n      swap2\n        /* \"#utility.yul\":974:999   */\n      dup2\n      mstore\n        /* \"#utility.yul\":962:964   */\n      0x20\n        /* \"#utility.yul\":947:965   */\n      add\n      swap1\n        /* \"#utility.yul\":828:1005   */\n      jump\n        /* \"contracts/core/MProject.sol\":10994:11019  allo_.getPool(alloPoolId) */\n    tag_338:\n      0x00\n      mload(0x40)\n      dup1\n      dup4\n      sub\n      dup2\n      dup7\n      gas\n      staticcall\n      iszero\n      dup1\n      iszero\n      tag_340\n      jumpi\n      returndatasize\n      0x00\n      dup1\n      returndatacopy\n      revert(0x00, returndatasize)\n    tag_340:\n      pop\n      pop\n      pop\n      pop\n      mload(0x40)\n      returndatasize\n      0x00\n      dup3\n      returndatacopy\n      0x1f\n      returndatasize\n      swap1\n      dup2\n      add\n      not(0x1f)\n      and\n      dup3\n      add\n      0x40\n      mstore\n      tag_341\n      swap2\n      swap1\n      dup2\n      add\n      swap1\n      tag_342\n      jump\t// in\n    tag_341:\n        /* \"contracts/core/MProject.sol\":10994:11025  allo_.getPool(alloPoolId).token */\n      0x40\n      swap1\n      dup2\n      add\n      mload\n        /* \"contracts/core/MProject.sol\":10987:11052  IERC20(allo_.getPool(alloPoolId).token).balanceOf(address(allo_)) */\n      swap1\n      mload\n      shl(0xe0, 0x70a08231)\n      dup2\n      mstore\n      sub(shl(0xa0, 0x01), 0x01)\n        /* \"#utility.yul\":22678:22710   */\n      dup5\n      dup2\n      and\n        /* \"contracts/core/MProject.sol\":10987:11052  IERC20(allo_.getPool(alloPoolId).token).balanceOf(address(allo_)) */\n      0x04\n      dup4\n      add\n        /* \"#utility.yul\":22660:22711   */\n      mstore\n        /* \"contracts/core/MProject.sol\":10987:11036  IERC20(allo_.getPool(alloPoolId).token).balanceOf */\n      swap1\n      swap2\n      and\n      swap1\n      0x70a08231\n      swap1\n        /* \"#utility.yul\":22633:22651   */\n      0x24\n      add\n        /* \"contracts/core/MProject.sol\":10987:11052  IERC20(allo_.getPool(alloPoolId).token).balanceOf(address(allo_)) */\n      0x20\n      mload(0x40)\n      dup1\n      dup4\n      sub\n      dup2\n      dup7\n      gas\n      staticcall\n      iszero\n      dup1\n      iszero\n      tag_346\n      jumpi\n      returndatasize\n      0x00\n      dup1\n      returndatacopy\n      revert(0x00, returndatasize)\n    tag_346:\n      pop\n      pop\n      pop\n      pop\n      mload(0x40)\n      returndatasize\n      not(0x1f)\n      0x1f\n      dup3\n      add\n      and\n      dup3\n      add\n      dup1\n      0x40\n      mstore\n      pop\n      dup2\n      add\n      swap1\n      tag_347\n      swap2\n      swap1\n      tag_348\n      jump\t// in\n    tag_347:\n        /* \"contracts/core/MProject.sol\":10987:11060  IERC20(allo_.getPool(alloPoolId).token).balanceOf(address(allo_)) >= _sum */\n      lt\n      iszero\n        /* \"contracts/core/MProject.sol\":10979:11104  require(IERC20(allo_.getPool(alloPoolId).token).balanceOf(address(allo_)) >= _sum, \" insufficient funds available in pool \" ) */\n      tag_141\n      jumpi\n      mload(0x40)\n      shl(0xe5, 0x461bcd)\n      dup2\n      mstore\n        /* \"#utility.yul\":23113:23115   */\n      0x20\n        /* \"contracts/core/MProject.sol\":10979:11104  require(IERC20(allo_.getPool(alloPoolId).token).balanceOf(address(allo_)) >= _sum, \" insufficient funds available in pool \" ) */\n      0x04\n      dup3\n      add\n        /* \"#utility.yul\":23095:23116   */\n      mstore\n        /* \"#utility.yul\":23152:23154   */\n      0x26\n        /* \"#utility.yul\":23132:23150   */\n      0x24\n      dup3\n      add\n        /* \"#utility.yul\":23125:23155   */\n      mstore\n        /* \"#utility.yul\":23191:23225   */\n      0x20696e73756666696369656e742066756e647320617661696c61626c6520696e\n        /* \"#utility.yul\":23171:23189   */\n      0x44\n      dup3\n      add\n        /* \"#utility.yul\":23164:23226   */\n      mstore\n      shl(0xd5, 0x0103837b7b61)\n        /* \"#utility.yul\":23242:23260   */\n      0x64\n      dup3\n      add\n        /* \"#utility.yul\":23235:23271   */\n      mstore\n        /* \"#utility.yul\":23288:23307   */\n      0x84\n      add\n        /* \"contracts/core/MProject.sol\":10979:11104  require(IERC20(allo_.getPool(alloPoolId).token).balanceOf(address(allo_)) >= _sum, \" insufficient funds available in pool \" ) */\n      tag_99\n        /* \"#utility.yul\":22911:23313   */\n      jump\n        /* \"contracts/core/MProject.sol\":11143:11650  function resum() view internal returns (uint256 _deliverableAmountSum) {... */\n    tag_330:\n        /* \"contracts/core/MProject.sol\":11183:11212  uint256 _deliverableAmountSum */\n      0x00\n      dup1\n        /* \"contracts/core/MProject.sol\":11225:11603  for(uint256 x = 0; x < deliverableIds.length; x++){... */\n    tag_353:\n        /* \"contracts/core/MProject.sol\":11248:11262  deliverableIds */\n      0x0f\n        /* \"contracts/core/MProject.sol\":11248:11269  deliverableIds.length */\n      sload\n        /* \"contracts/core/MProject.sol\":11244:11269  x < deliverableIds.length */\n      dup2\n      lt\n        /* \"contracts/core/MProject.sol\":11225:11603  for(uint256 x = 0; x < deliverableIds.length; x++){... */\n      iszero\n      tag_141\n      jumpi\n        /* \"contracts/core/MProject.sol\":11290:11321  Deliverable memory deliverable_ */\n      0x00\n        /* \"contracts/core/MProject.sol\":11324:11339  deliverableById */\n      0x11\n        /* \"contracts/core/MProject.sol\":11324:11358  deliverableById[deliverableIds[x]] */\n      0x00\n        /* \"contracts/core/MProject.sol\":11340:11354  deliverableIds */\n      0x0f\n        /* \"contracts/core/MProject.sol\":11355:11356  x */\n      dup5\n        /* \"contracts/core/MProject.sol\":11340:11357  deliverableIds[x] */\n      dup2\n      sload\n      dup2\n      lt\n      tag_357\n      jumpi\n      tag_357\n      tag_145\n      jump\t// in\n    tag_357:\n      swap1\n      0x00\n      mstore\n      keccak256(0x00, 0x20)\n      add\n      sload\n        /* \"contracts/core/MProject.sol\":11324:11358  deliverableById[deliverableIds[x]] */\n      dup2\n      mstore\n      0x20\n      add\n      swap1\n      dup2\n      mstore\n      0x20\n      add\n      0x00\n      keccak256\n        /* \"contracts/core/MProject.sol\":11290:11358  Deliverable memory deliverable_ = deliverableById[deliverableIds[x]] */\n      mload(0x40)\n      dup1\n      0xe0\n      add\n      0x40\n      mstore\n      swap1\n      dup2\n      0x00\n      dup3\n      add\n      sload\n      dup2\n      mstore\n      0x20\n      add\n      0x01\n      dup3\n      add\n      sload\n      dup2\n      mstore\n      0x20\n      add\n      0x02\n      dup3\n      add\n      sload\n      dup2\n      mstore\n      0x20\n      add\n      0x03\n      dup3\n      add\n      dup1\n      sload\n      tag_359\n      swap1\n      tag_114\n      jump\t// in\n    tag_359:\n      dup1\n      0x1f\n      add\n      0x20\n      dup1\n      swap2\n      div\n      mul\n      0x20\n      add\n      mload(0x40)\n      swap1\n      dup2\n      add\n      0x40\n      mstore\n      dup1\n      swap3\n      swap2\n      swap1\n      dup2\n      dup2\n      mstore\n      0x20\n      add\n      dup3\n      dup1\n      sload\n      tag_360\n      swap1\n      tag_114\n      jump\t// in\n    tag_360:\n      dup1\n      iszero\n      tag_361\n      jumpi\n      dup1\n      0x1f\n      lt\n      tag_362\n      jumpi\n      0x0100\n      dup1\n      dup4\n      sload\n      div\n      mul\n      dup4\n      mstore\n      swap2\n      0x20\n      add\n      swap2\n      jump(tag_361)\n    tag_362:\n      dup3\n      add\n      swap2\n      swap1\n      0x00\n      mstore\n      keccak256(0x00, 0x20)\n      swap1\n    tag_363:\n      dup2\n      sload\n      dup2\n      mstore\n      swap1\n      0x01\n      add\n      swap1\n      0x20\n      add\n      dup1\n      dup4\n      gt\n      tag_363\n      jumpi\n      dup3\n      swap1\n      sub\n      0x1f\n      and\n      dup3\n      add\n      swap2\n    tag_361:\n      pop\n      pop\n      pop\n      pop\n      pop\n      dup2\n      mstore\n      0x20\n      add\n      0x04\n      dup3\n      add\n      mload(0x40)\n      dup1\n      0x40\n      add\n      0x40\n      mstore\n      swap1\n      dup2\n      0x00\n      dup3\n      add\n      sload\n      dup2\n      mstore\n      0x20\n      add\n      0x01\n      dup3\n      add\n      dup1\n      sload\n      tag_364\n      swap1\n      tag_114\n      jump\t// in\n    tag_364:\n      dup1\n      0x1f\n      add\n      0x20\n      dup1\n      swap2\n      div\n      mul\n      0x20\n      add\n      mload(0x40)\n      swap1\n      dup2\n      add\n      0x40\n      mstore\n      dup1\n      swap3\n      swap2\n      swap1\n      dup2\n      dup2\n      mstore\n      0x20\n      add\n      dup3\n      dup1\n      sload\n      tag_365\n      swap1\n      tag_114\n      jump\t// in\n    tag_365:\n      dup1\n      iszero\n      tag_366\n      jumpi\n      dup1\n      0x1f\n      lt\n      tag_367\n      jumpi\n      0x0100\n      dup1\n      dup4\n      sload\n      div\n      mul\n      dup4\n      mstore\n      swap2\n      0x20\n      add\n      swap2\n      jump(tag_366)\n    tag_367:\n      dup3\n      add\n      swap2\n      swap1\n      0x00\n      mstore\n      keccak256(0x00, 0x20)\n      swap1\n    tag_368:\n      dup2\n      sload\n      dup2\n      mstore\n      swap1\n      0x01\n      add\n      swap1\n      0x20\n      add\n      dup1\n      dup4\n      gt\n      tag_368\n      jumpi\n      dup3\n      swap1\n      sub\n      0x1f\n      and\n      dup3\n      add\n      swap2\n    tag_366:\n      pop\n      pop\n      pop\n      swap2\n      swap1\n      swap3\n      mstore\n      pop\n      pop\n      pop\n      dup2\n      mstore\n      0x06\n      dup3\n      add\n      sload\n      0x20\n      swap1\n      swap2\n      add\n      swap1\n      0xff\n      and\n      0x04\n      dup2\n      gt\n      iszero\n      tag_370\n      jumpi\n      tag_370\n      tag_107\n      jump\t// in\n    tag_370:\n      0x04\n      dup2\n      gt\n      iszero\n      tag_372\n      jumpi\n      tag_372\n      tag_107\n      jump\t// in\n    tag_372:\n      dup2\n      mstore\n      0x20\n      add\n      0x06\n      dup3\n      add\n      0x01\n      swap1\n      sload\n      swap1\n      0x0100\n      exp\n      swap1\n      div\n      0xff\n      and\n      0x04\n      dup2\n      gt\n      iszero\n      tag_374\n      jumpi\n      tag_374\n      tag_107\n      jump\t// in\n    tag_374:\n      0x04\n      dup2\n      gt\n      iszero\n      tag_376\n      jumpi\n      tag_376\n      tag_107\n      jump\t// in\n    tag_376:\n      swap1\n      mstore\n      pop\n      swap1\n      pop\n        /* \"contracts/core/MProject.sol\":11410:11437  DeliverableStatus.CANCELLED */\n      0x04\n        /* \"contracts/core/MProject.sol\":11376:11388  deliverable_ */\n      dup2\n        /* \"contracts/core/MProject.sol\":11376:11406  deliverable_.deliverableStatus */\n      0xa0\n      add\n      mload\n        /* \"contracts/core/MProject.sol\":11376:11437  deliverable_.deliverableStatus != DeliverableStatus.CANCELLED */\n      0x04\n      dup2\n      gt\n      iszero\n      tag_380\n      jumpi\n      tag_380\n      tag_107\n      jump\t// in\n    tag_380:\n      eq\n      iszero\n        /* \"contracts/core/MProject.sol\":11376:11505  deliverable_.deliverableStatus != DeliverableStatus.CANCELLED && ... */\n      dup1\n      iszero\n      tag_381\n      jumpi\n      pop\n        /* \"contracts/core/MProject.sol\":11488:11505  PayoutStatus.PAID */\n      0x02\n        /* \"contracts/core/MProject.sol\":11459:11471  deliverable_ */\n      dup2\n        /* \"contracts/core/MProject.sol\":11459:11484  deliverable_.payoutStatus */\n      0xc0\n      add\n      mload\n        /* \"contracts/core/MProject.sol\":11459:11505  deliverable_.payoutStatus != PayoutStatus.PAID */\n      0x04\n      dup2\n      gt\n      iszero\n      tag_385\n      jumpi\n      tag_385\n      tag_107\n      jump\t// in\n    tag_385:\n      eq\n      iszero\n        /* \"contracts/core/MProject.sol\":11376:11505  deliverable_.deliverableStatus != DeliverableStatus.CANCELLED && ... */\n    tag_381:\n        /* \"contracts/core/MProject.sol\":11373:11592  if(deliverable_.deliverableStatus != DeliverableStatus.CANCELLED && ... */\n      iszero\n      tag_386\n      jumpi\n        /* \"contracts/core/MProject.sol\":11551:11576  deliverable_.payoutAmount */\n      0x40\n      dup2\n      add\n      mload\n        /* \"contracts/core/MProject.sol\":11526:11576  _deliverableAmountSum += deliverable_.payoutAmount */\n      tag_387\n      swap1\n      dup5\n      tag_388\n      jump\t// in\n    tag_387:\n      swap3\n      pop\n        /* \"contracts/core/MProject.sol\":11373:11592  if(deliverable_.deliverableStatus != DeliverableStatus.CANCELLED && ... */\n    tag_386:\n      pop\n        /* \"contracts/core/MProject.sol\":11271:11274  x++ */\n      0x01\n      add\n        /* \"contracts/core/MProject.sol\":11225:11603  for(uint256 x = 0; x < deliverableIds.length; x++){... */\n      jump(tag_353)\n    tag_111:\n      mload(0x40)\n      dup1\n      0xe0\n      add\n      0x40\n      mstore\n      dup1\n      0x00\n      dup2\n      mstore\n      0x20\n      add\n      0x00\n      dup2\n      mstore\n      0x20\n      add\n      0x00\n      dup2\n      mstore\n      0x20\n      add\n      0x60\n      dup2\n      mstore\n      0x20\n      add\n      tag_389\n      mload(0x40)\n      dup1\n      0x40\n      add\n      0x40\n      mstore\n      dup1\n      0x00\n      dup2\n      mstore\n      0x20\n      add\n      0x60\n      dup2\n      mstore\n      pop\n      swap1\n      jump\n    tag_389:\n      dup2\n      mstore\n      0x20\n      add\n      0x00\n      dup2\n      mstore\n      0x20\n      add\n      0x00\n    tag_394:\n      swap1\n      mstore\n      swap1\n      jump\t// out\n    tag_139:\n      mload(0x40)\n      dup1\n      0xe0\n      add\n      0x40\n      mstore\n      dup1\n      0x00\n      dup2\n      mstore\n      0x20\n      add\n      tag_395\n      tag_155\n      jump\t// in\n    tag_395:\n      dup2\n      mstore\n      0x00\n      0x20\n      dup3\n      add\n      dup2\n      swap1\n      mstore\n      0x40\n      dup3\n      add\n      dup2\n      swap1\n      mstore\n      0x60\n      dup3\n      add\n      dup2\n      swap1\n      mstore\n      0x80\n      dup3\n      add\n      dup2\n      swap1\n      mstore\n      0xa0\n      swap1\n      swap2\n      add\n      mstore\n      swap1\n      jump\t// out\n    tag_155:\n      mload(0x40)\n      dup1\n      0x80\n      add\n      0x40\n      mstore\n      dup1\n      0x00\n      dup2\n      mstore\n      0x20\n      add\n      0x00\n      dup2\n      mstore\n      0x20\n      add\n      and(sub(shl(0xa0, 0x01), 0x01), 0x00)\n      dup2\n      mstore\n      0x20\n      add\n      tag_394\n      mload(0x40)\n      dup1\n      0x40\n      add\n      0x40\n      mstore\n      dup1\n      0x00\n      dup2\n      mstore\n      0x20\n      add\n      0x60\n      dup2\n      mstore\n      pop\n      swap1\n      jump\n    tag_277:\n      dup3\n      dup1\n      sload\n      dup3\n      dup3\n      sstore\n      swap1\n      0x00\n      mstore\n      keccak256(0x00, 0x20)\n      swap1\n      dup2\n      add\n      swap3\n      dup3\n      iszero\n      tag_399\n      jumpi\n      swap2\n      0x20\n      mul\n      dup3\n      add\n    tag_398:\n      dup3\n      dup2\n      gt\n      iszero\n      tag_399\n      jumpi\n      dup3\n      mload\n      dup3\n      sstore\n      swap2\n      0x20\n      add\n      swap2\n      swap1\n      0x01\n      add\n      swap1\n      jump(tag_398)\n    tag_399:\n      pop\n      tag_141\n      swap3\n      swap2\n      pop\n    tag_402:\n      dup1\n      dup3\n      gt\n      iszero\n      tag_141\n      jumpi\n      0x00\n      dup2\n      sstore\n      0x01\n      add\n      jump(tag_402)\n        /* \"#utility.yul\":14:125   */\n    tag_404:\n        /* \"#utility.yul\":99:100   */\n      0x05\n        /* \"#utility.yul\":92:97   */\n      dup2\n        /* \"#utility.yul\":89:101   */\n      lt\n        /* \"#utility.yul\":79:119   */\n      tag_429\n      jumpi\n        /* \"#utility.yul\":115:116   */\n      0x00\n        /* \"#utility.yul\":112:113   */\n      dup1\n        /* \"#utility.yul\":105:117   */\n      revert\n        /* \"#utility.yul\":79:119   */\n    tag_429:\n        /* \"#utility.yul\":14:125   */\n      pop\n      jump\t// out\n        /* \"#utility.yul\":130:284   */\n    tag_405:\n        /* \"#utility.yul\":208:228   */\n      dup1\n      calldataload\n        /* \"#utility.yul\":237:278   */\n      tag_240\n        /* \"#utility.yul\":208:228   */\n      dup2\n        /* \"#utility.yul\":237:278   */\n      tag_404\n      jump\t// in\n        /* \"#utility.yul\":289:631   */\n    tag_23:\n        /* \"#utility.yul\":374:380   */\n      0x00\n        /* \"#utility.yul\":382:388   */\n      dup1\n        /* \"#utility.yul\":435:437   */\n      0x40\n        /* \"#utility.yul\":423:432   */\n      dup4\n        /* \"#utility.yul\":414:421   */\n      dup6\n        /* \"#utility.yul\":410:433   */\n      sub\n        /* \"#utility.yul\":406:438   */\n      slt\n        /* \"#utility.yul\":403:455   */\n      iszero\n      tag_433\n      jumpi\n        /* \"#utility.yul\":451:452   */\n      0x00\n        /* \"#utility.yul\":448:449   */\n      dup1\n        /* \"#utility.yul\":441:453   */\n      revert\n        /* \"#utility.yul\":403:455   */\n    tag_433:\n        /* \"#utility.yul\":487:496   */\n      dup3\n        /* \"#utility.yul\":474:497   */\n      calldataload\n        /* \"#utility.yul\":464:497   */\n      swap2\n      pop\n        /* \"#utility.yul\":547:549   */\n      0x20\n        /* \"#utility.yul\":536:545   */\n      dup4\n        /* \"#utility.yul\":532:550   */\n      add\n        /* \"#utility.yul\":519:551   */\n      calldataload\n        /* \"#utility.yul\":560:601   */\n      tag_434\n        /* \"#utility.yul\":595:600   */\n      dup2\n        /* \"#utility.yul\":560:601   */\n      tag_404\n      jump\t// in\n    tag_434:\n        /* \"#utility.yul\":620:625   */\n      dup1\n        /* \"#utility.yul\":610:625   */\n      swap2\n      pop\n      pop\n        /* \"#utility.yul\":289:631   */\n      swap3\n      pop\n      swap3\n      swap1\n      pop\n      jump\t// out\n        /* \"#utility.yul\":1010:1260   */\n    tag_406:\n        /* \"#utility.yul\":1095:1096   */\n      0x00\n        /* \"#utility.yul\":1105:1218   */\n    tag_438:\n        /* \"#utility.yul\":1119:1125   */\n      dup4\n        /* \"#utility.yul\":1116:1117   */\n      dup2\n        /* \"#utility.yul\":1113:1126   */\n      lt\n        /* \"#utility.yul\":1105:1218   */\n      iszero\n      tag_440\n      jumpi\n        /* \"#utility.yul\":1195:1206   */\n      dup2\n      dup2\n      add\n        /* \"#utility.yul\":1189:1207   */\n      mload\n        /* \"#utility.yul\":1176:1187   */\n      dup4\n      dup3\n      add\n        /* \"#utility.yul\":1169:1208   */\n      mstore\n        /* \"#utility.yul\":1141:1143   */\n      0x20\n        /* \"#utility.yul\":1134:1144   */\n      add\n        /* \"#utility.yul\":1105:1218   */\n      jump(tag_438)\n    tag_440:\n      pop\n      pop\n        /* \"#utility.yul\":1252:1253   */\n      0x00\n        /* \"#utility.yul\":1234:1250   */\n      swap2\n      add\n        /* \"#utility.yul\":1227:1254   */\n      mstore\n        /* \"#utility.yul\":1010:1260   */\n      jump\t// out\n        /* \"#utility.yul\":1265:1536   */\n    tag_407:\n        /* \"#utility.yul\":1307:1310   */\n      0x00\n        /* \"#utility.yul\":1345:1350   */\n      dup2\n        /* \"#utility.yul\":1339:1351   */\n      mload\n        /* \"#utility.yul\":1372:1378   */\n      dup1\n        /* \"#utility.yul\":1367:1370   */\n      dup5\n        /* \"#utility.yul\":1360:1379   */\n      mstore\n        /* \"#utility.yul\":1388:1464   */\n      tag_442\n        /* \"#utility.yul\":1457:1463   */\n      dup2\n        /* \"#utility.yul\":1450:1454   */\n      0x20\n        /* \"#utility.yul\":1445:1448   */\n      dup7\n        /* \"#utility.yul\":1441:1455   */\n      add\n        /* \"#utility.yul\":1434:1438   */\n      0x20\n        /* \"#utility.yul\":1427:1432   */\n      dup7\n        /* \"#utility.yul\":1423:1439   */\n      add\n        /* \"#utility.yul\":1388:1464   */\n      tag_406\n      jump\t// in\n    tag_442:\n        /* \"#utility.yul\":1518:1520   */\n      0x1f\n        /* \"#utility.yul\":1497:1512   */\n      add\n      not(0x1f)\n        /* \"#utility.yul\":1493:1522   */\n      and\n        /* \"#utility.yul\":1484:1523   */\n      swap3\n      swap1\n      swap3\n      add\n        /* \"#utility.yul\":1525:1529   */\n      0x20\n        /* \"#utility.yul\":1480:1530   */\n      add\n      swap3\n        /* \"#utility.yul\":1265:1536   */\n      swap2\n      pop\n      pop\n      jump\t// out\n        /* \"#utility.yul\":1541:1761   */\n    tag_34:\n        /* \"#utility.yul\":1690:1692   */\n      0x20\n        /* \"#utility.yul\":1679:1688   */\n      dup2\n        /* \"#utility.yul\":1672:1693   */\n      mstore\n        /* \"#utility.yul\":1653:1657   */\n      0x00\n        /* \"#utility.yul\":1710:1755   */\n      tag_444\n        /* \"#utility.yul\":1751:1753   */\n      0x20\n        /* \"#utility.yul\":1740:1749   */\n      dup4\n        /* \"#utility.yul\":1736:1754   */\n      add\n        /* \"#utility.yul\":1728:1734   */\n      dup5\n        /* \"#utility.yul\":1710:1755   */\n      tag_407\n      jump\t// in\n    tag_444:\n        /* \"#utility.yul\":1702:1755   */\n      swap4\n        /* \"#utility.yul\":1541:1761   */\n      swap3\n      pop\n      pop\n      pop\n      jump\t// out\n        /* \"#utility.yul\":1766:1946   */\n    tag_37:\n        /* \"#utility.yul\":1825:1831   */\n      0x00\n        /* \"#utility.yul\":1878:1880   */\n      0x20\n        /* \"#utility.yul\":1866:1875   */\n      dup3\n        /* \"#utility.yul\":1857:1864   */\n      dup5\n        /* \"#utility.yul\":1853:1876   */\n      sub\n        /* \"#utility.yul\":1849:1881   */\n      slt\n        /* \"#utility.yul\":1846:1898   */\n      iszero\n      tag_446\n      jumpi\n        /* \"#utility.yul\":1894:1895   */\n      0x00\n        /* \"#utility.yul\":1891:1892   */\n      dup1\n        /* \"#utility.yul\":1884:1896   */\n      revert\n        /* \"#utility.yul\":1846:1898   */\n    tag_446:\n      pop\n        /* \"#utility.yul\":1917:1940   */\n      calldataload\n      swap2\n        /* \"#utility.yul\":1766:1946   */\n      swap1\n      pop\n      jump\t// out\n        /* \"#utility.yul\":1951:2203   */\n    tag_408:\n        /* \"#utility.yul\":2038:2043   */\n      dup1\n        /* \"#utility.yul\":2032:2044   */\n      mload\n        /* \"#utility.yul\":2027:2030   */\n      dup3\n        /* \"#utility.yul\":2020:2045   */\n      mstore\n        /* \"#utility.yul\":2002:2005   */\n      0x00\n        /* \"#utility.yul\":2091:2095   */\n      0x20\n        /* \"#utility.yul\":2084:2089   */\n      dup3\n        /* \"#utility.yul\":2080:2096   */\n      add\n        /* \"#utility.yul\":2074:2097   */\n      mload\n        /* \"#utility.yul\":2129:2133   */\n      0x40\n        /* \"#utility.yul\":2122:2126   */\n      0x20\n        /* \"#utility.yul\":2117:2120   */\n      dup6\n        /* \"#utility.yul\":2113:2127   */\n      add\n        /* \"#utility.yul\":2106:2134   */\n      mstore\n        /* \"#utility.yul\":2150:2197   */\n      tag_448\n        /* \"#utility.yul\":2191:2195   */\n      0x40\n        /* \"#utility.yul\":2186:2189   */\n      dup6\n        /* \"#utility.yul\":2182:2196   */\n      add\n        /* \"#utility.yul\":2168:2180   */\n      dup3\n        /* \"#utility.yul\":2150:2197   */\n      tag_407\n      jump\t// in\n    tag_448:\n        /* \"#utility.yul\":2143:2197   */\n      swap5\n        /* \"#utility.yul\":1951:2203   */\n      swap4\n      pop\n      pop\n      pop\n      pop\n      jump\t// out\n        /* \"#utility.yul\":2208:2335   */\n    tag_107:\n        /* \"#utility.yul\":2269:2279   */\n      0x4e487b71\n        /* \"#utility.yul\":2264:2267   */\n      0xe0\n        /* \"#utility.yul\":2260:2280   */\n      shl\n        /* \"#utility.yul\":2257:2258   */\n      0x00\n        /* \"#utility.yul\":2250:2281   */\n      mstore\n        /* \"#utility.yul\":2300:2304   */\n      0x21\n        /* \"#utility.yul\":2297:2298   */\n      0x04\n        /* \"#utility.yul\":2290:2305   */\n      mstore\n        /* \"#utility.yul\":2324:2328   */\n      0x24\n        /* \"#utility.yul\":2321:2322   */\n      0x00\n        /* \"#utility.yul\":2314:2329   */\n      revert\n        /* \"#utility.yul\":2340:2559   */\n    tag_409:\n        /* \"#utility.yul\":2430:2431   */\n      0x05\n        /* \"#utility.yul\":2423:2428   */\n      dup2\n        /* \"#utility.yul\":2420:2432   */\n      lt\n        /* \"#utility.yul\":2410:2553   */\n      tag_429\n      jumpi\n        /* \"#utility.yul\":2475:2485   */\n      0x4e487b71\n        /* \"#utility.yul\":2470:2473   */\n      0xe0\n        /* \"#utility.yul\":2466:2486   */\n      shl\n        /* \"#utility.yul\":2463:2464   */\n      0x00\n        /* \"#utility.yul\":2456:2487   */\n      mstore\n        /* \"#utility.yul\":2510:2514   */\n      0x21\n        /* \"#utility.yul\":2507:2508   */\n      0x04\n        /* \"#utility.yul\":2500:2515   */\n      mstore\n        /* \"#utility.yul\":2538:2542   */\n      0x24\n        /* \"#utility.yul\":2535:2536   */\n      0x00\n        /* \"#utility.yul\":2528:2543   */\n      revert\n        /* \"#utility.yul\":2564:3661   */\n    tag_40:\n        /* \"#utility.yul\":2751:2753   */\n      0x20\n        /* \"#utility.yul\":2740:2749   */\n      dup2\n        /* \"#utility.yul\":2733:2754   */\n      mstore\n        /* \"#utility.yul\":2796:2802   */\n      dup2\n        /* \"#utility.yul\":2790:2803   */\n      mload\n        /* \"#utility.yul\":2785:2787   */\n      0x20\n        /* \"#utility.yul\":2774:2783   */\n      dup3\n        /* \"#utility.yul\":2770:2788   */\n      add\n        /* \"#utility.yul\":2763:2804   */\n      mstore\n        /* \"#utility.yul\":2858:2860   */\n      0x20\n        /* \"#utility.yul\":2850:2856   */\n      dup3\n        /* \"#utility.yul\":2846:2861   */\n      add\n        /* \"#utility.yul\":2840:2862   */\n      mload\n        /* \"#utility.yul\":2835:2837   */\n      0x40\n        /* \"#utility.yul\":2824:2833   */\n      dup3\n        /* \"#utility.yul\":2820:2838   */\n      add\n        /* \"#utility.yul\":2813:2863   */\n      mstore\n        /* \"#utility.yul\":2917:2919   */\n      0x40\n        /* \"#utility.yul\":2909:2915   */\n      dup3\n        /* \"#utility.yul\":2905:2920   */\n      add\n        /* \"#utility.yul\":2899:2921   */\n      mload\n        /* \"#utility.yul\":2894:2896   */\n      0x60\n        /* \"#utility.yul\":2883:2892   */\n      dup3\n        /* \"#utility.yul\":2879:2897   */\n      add\n        /* \"#utility.yul\":2872:2922   */\n      mstore\n        /* \"#utility.yul\":2714:2718   */\n      0x00\n        /* \"#utility.yul\":2969:2971   */\n      0x60\n        /* \"#utility.yul\":2961:2967   */\n      dup4\n        /* \"#utility.yul\":2957:2972   */\n      add\n        /* \"#utility.yul\":2951:2973   */\n      mload\n        /* \"#utility.yul\":3010:3014   */\n      0xe0\n        /* \"#utility.yul\":3004:3007   */\n      0x80\n        /* \"#utility.yul\":2993:3002   */\n      dup5\n        /* \"#utility.yul\":2989:3008   */\n      add\n        /* \"#utility.yul\":2982:3015   */\n      mstore\n        /* \"#utility.yul\":3038:3090   */\n      tag_453\n        /* \"#utility.yul\":3085:3088   */\n      0x0100\n        /* \"#utility.yul\":3074:3083   */\n      dup5\n        /* \"#utility.yul\":3070:3089   */\n      add\n        /* \"#utility.yul\":3056:3068   */\n      dup3\n        /* \"#utility.yul\":3038:3090   */\n      tag_407\n      jump\t// in\n    tag_453:\n        /* \"#utility.yul\":3024:3090   */\n      swap1\n      pop\n        /* \"#utility.yul\":3139:3142   */\n      0x80\n        /* \"#utility.yul\":3131:3137   */\n      dup5\n        /* \"#utility.yul\":3127:3143   */\n      add\n        /* \"#utility.yul\":3121:3144   */\n      mload\n        /* \"#utility.yul\":3213:3215   */\n      0x1f\n        /* \"#utility.yul\":3209:3216   */\n      not\n        /* \"#utility.yul\":3197:3206   */\n      dup5\n        /* \"#utility.yul\":3189:3195   */\n      dup4\n        /* \"#utility.yul\":3185:3207   */\n      sub\n        /* \"#utility.yul\":3181:3217   */\n      add\n        /* \"#utility.yul\":3175:3178   */\n      0xa0\n        /* \"#utility.yul\":3164:3173   */\n      dup6\n        /* \"#utility.yul\":3160:3179   */\n      add\n        /* \"#utility.yul\":3153:3218   */\n      mstore\n        /* \"#utility.yul\":3241:3291   */\n      tag_454\n        /* \"#utility.yul\":3284:3290   */\n      dup3\n        /* \"#utility.yul\":3268:3282   */\n      dup3\n        /* \"#utility.yul\":3241:3291   */\n      tag_408\n      jump\t// in\n    tag_454:\n        /* \"#utility.yul\":3227:3291   */\n      swap2\n      pop\n      pop\n        /* \"#utility.yul\":3340:3343   */\n      0xa0\n        /* \"#utility.yul\":3332:3338   */\n      dup5\n        /* \"#utility.yul\":3328:3344   */\n      add\n        /* \"#utility.yul\":3322:3345   */\n      mload\n        /* \"#utility.yul\":3354:3409   */\n      tag_455\n        /* \"#utility.yul\":3394:3408   */\n      dup2\n        /* \"#utility.yul\":3354:3409   */\n      tag_409\n      jump\t// in\n    tag_455:\n        /* \"#utility.yul\":3446:3460   */\n      dup1\n        /* \"#utility.yul\":3440:3443   */\n      0xc0\n        /* \"#utility.yul\":3429:3438   */\n      dup6\n        /* \"#utility.yul\":3425:3444   */\n      add\n        /* \"#utility.yul\":3418:3461   */\n      mstore\n      pop\n        /* \"#utility.yul\":3510:3513   */\n      0xc0\n        /* \"#utility.yul\":3502:3508   */\n      dup5\n        /* \"#utility.yul\":3498:3514   */\n      add\n        /* \"#utility.yul\":3492:3515   */\n      mload\n        /* \"#utility.yul\":3524:3579   */\n      tag_456\n        /* \"#utility.yul\":3564:3578   */\n      dup2\n        /* \"#utility.yul\":3524:3579   */\n      tag_409\n      jump\t// in\n    tag_456:\n        /* \"#utility.yul\":3610:3614   */\n      0xe0\n        /* \"#utility.yul\":3595:3615   */\n      swap4\n      swap1\n      swap4\n      add\n        /* \"#utility.yul\":3588:3632   */\n      swap3\n      swap1\n      swap3\n      mstore\n      pop\n        /* \"#utility.yul\":3649:3655   */\n      swap2\n        /* \"#utility.yul\":2564:3661   */\n      swap1\n      pop\n      jump\t// out\n        /* \"#utility.yul\":3775:4177   */\n    tag_411:\n        /* \"#utility.yul\":3865:3870   */\n      dup1\n        /* \"#utility.yul\":3859:3871   */\n      mload\n        /* \"#utility.yul\":3854:3857   */\n      dup3\n        /* \"#utility.yul\":3847:3872   */\n      mstore\n        /* \"#utility.yul\":3921:3925   */\n      0x20\n        /* \"#utility.yul\":3914:3919   */\n      dup2\n        /* \"#utility.yul\":3910:3926   */\n      add\n        /* \"#utility.yul\":3904:3927   */\n      mload\n        /* \"#utility.yul\":3897:3901   */\n      0x20\n        /* \"#utility.yul\":3892:3895   */\n      dup4\n        /* \"#utility.yul\":3888:3902   */\n      add\n        /* \"#utility.yul\":3881:3928   */\n      mstore\n        /* \"#utility.yul\":4006:4007   */\n      0x01\n        /* \"#utility.yul\":4002:4003   */\n      dup1\n        /* \"#utility.yul\":3997:4000   */\n      0xa0\n        /* \"#utility.yul\":3993:4004   */\n      shl\n        /* \"#utility.yul\":3989:4008   */\n      sub\n        /* \"#utility.yul\":3981:3985   */\n      0x40\n        /* \"#utility.yul\":3974:3979   */\n      dup3\n        /* \"#utility.yul\":3970:3986   */\n      add\n        /* \"#utility.yul\":3964:3987   */\n      mload\n        /* \"#utility.yul\":3960:4009   */\n      and\n        /* \"#utility.yul\":3953:3957   */\n      0x40\n        /* \"#utility.yul\":3948:3951   */\n      dup4\n        /* \"#utility.yul\":3944:3958   */\n      add\n        /* \"#utility.yul\":3937:4010   */\n      mstore\n        /* \"#utility.yul\":3829:3832   */\n      0x00\n        /* \"#utility.yul\":4056:4060   */\n      0x60\n        /* \"#utility.yul\":4049:4054   */\n      dup3\n        /* \"#utility.yul\":4045:4061   */\n      add\n        /* \"#utility.yul\":4039:4062   */\n      mload\n        /* \"#utility.yul\":4094:4098   */\n      0x80\n        /* \"#utility.yul\":4087:4091   */\n      0x60\n        /* \"#utility.yul\":4082:4085   */\n      dup6\n        /* \"#utility.yul\":4078:4092   */\n      add\n        /* \"#utility.yul\":4071:4099   */\n      mstore\n        /* \"#utility.yul\":4115:4171   */\n      tag_448\n        /* \"#utility.yul\":4165:4169   */\n      0x80\n        /* \"#utility.yul\":4160:4163   */\n      dup6\n        /* \"#utility.yul\":4156:4170   */\n      add\n        /* \"#utility.yul\":4142:4154   */\n      dup3\n        /* \"#utility.yul\":4115:4171   */\n      tag_408\n      jump\t// in\n        /* \"#utility.yul\":4182:5713   */\n    tag_44:\n        /* \"#utility.yul\":4392:4396   */\n      0x00\n        /* \"#utility.yul\":4421:4423   */\n      0x20\n        /* \"#utility.yul\":4461:4463   */\n      dup1\n        /* \"#utility.yul\":4450:4459   */\n      dup4\n        /* \"#utility.yul\":4446:4464   */\n      add\n        /* \"#utility.yul\":4491:4493   */\n      dup2\n        /* \"#utility.yul\":4480:4489   */\n      dup5\n        /* \"#utility.yul\":4473:4494   */\n      mstore\n        /* \"#utility.yul\":4514:4520   */\n      dup1\n        /* \"#utility.yul\":4549:4555   */\n      dup6\n        /* \"#utility.yul\":4543:4556   */\n      mload\n        /* \"#utility.yul\":4580:4586   */\n      dup1\n        /* \"#utility.yul\":4572:4578   */\n      dup4\n        /* \"#utility.yul\":4565:4587   */\n      mstore\n        /* \"#utility.yul\":4606:4608   */\n      0x40\n        /* \"#utility.yul\":4596:4608   */\n      swap3\n      pop\n        /* \"#utility.yul\":4639:4641   */\n      0x40\n        /* \"#utility.yul\":4628:4637   */\n      dup7\n        /* \"#utility.yul\":4624:4642   */\n      add\n        /* \"#utility.yul\":4617:4642   */\n      swap2\n      pop\n        /* \"#utility.yul\":4701:4703   */\n      0x40\n        /* \"#utility.yul\":4691:4697   */\n      dup2\n        /* \"#utility.yul\":4688:4689   */\n      0x05\n        /* \"#utility.yul\":4684:4698   */\n      shl\n        /* \"#utility.yul\":4673:4682   */\n      dup8\n        /* \"#utility.yul\":4669:4699   */\n      add\n        /* \"#utility.yul\":4665:4704   */\n      add\n        /* \"#utility.yul\":4739:4741   */\n      dup5\n        /* \"#utility.yul\":4731:4737   */\n      dup9\n        /* \"#utility.yul\":4727:4742   */\n      add\n        /* \"#utility.yul\":4760:4761   */\n      0x00\n        /* \"#utility.yul\":4770:5684   */\n    tag_461:\n        /* \"#utility.yul\":4784:4790   */\n      dup4\n        /* \"#utility.yul\":4781:4782   */\n      dup2\n        /* \"#utility.yul\":4778:4791   */\n      lt\n        /* \"#utility.yul\":4770:5684   */\n      iszero\n      tag_463\n      jumpi\n        /* \"#utility.yul\":4877:4879   */\n      0x3f\n        /* \"#utility.yul\":4873:4880   */\n      not\n        /* \"#utility.yul\":4861:4870   */\n      dup10\n        /* \"#utility.yul\":4853:4859   */\n      dup5\n        /* \"#utility.yul\":4849:4871   */\n      sub\n        /* \"#utility.yul\":4845:4881   */\n      add\n        /* \"#utility.yul\":4840:4843   */\n      dup6\n        /* \"#utility.yul\":4833:4882   */\n      mstore\n        /* \"#utility.yul\":4911:4917   */\n      dup2\n        /* \"#utility.yul\":4905:4918   */\n      mload\n        /* \"#utility.yul\":4941:4945   */\n      0xe0\n        /* \"#utility.yul\":4979:4981   */\n      dup2\n        /* \"#utility.yul\":4973:4982   */\n      mload\n        /* \"#utility.yul\":4965:4971   */\n      dup6\n        /* \"#utility.yul\":4958:4983   */\n      mstore\n        /* \"#utility.yul\":5030:5032   */\n      dup9\n        /* \"#utility.yul\":5026:5028   */\n      dup3\n        /* \"#utility.yul\":5022:5033   */\n      add\n        /* \"#utility.yul\":5016:5034   */\n      mload\n        /* \"#utility.yul\":5071:5073   */\n      dup2\n        /* \"#utility.yul\":5066:5068   */\n      dup11\n        /* \"#utility.yul\":5058:5064   */\n      dup8\n        /* \"#utility.yul\":5054:5069   */\n      add\n        /* \"#utility.yul\":5047:5074   */\n      mstore\n        /* \"#utility.yul\":5101:5161   */\n      tag_464\n        /* \"#utility.yul\":5157:5159   */\n      dup3\n        /* \"#utility.yul\":5149:5155   */\n      dup8\n        /* \"#utility.yul\":5145:5160   */\n      add\n        /* \"#utility.yul\":5131:5143   */\n      dup3\n        /* \"#utility.yul\":5101:5161   */\n      tag_411\n      jump\t// in\n    tag_464:\n        /* \"#utility.yul\":5204:5215   */\n      dup4\n      dup11\n      add\n        /* \"#utility.yul\":5198:5216   */\n      mload\n        /* \"#utility.yul\":5181:5196   */\n      dup8\n      dup12\n      add\n        /* \"#utility.yul\":5174:5217   */\n      mstore\n        /* \"#utility.yul\":5240:5244   */\n      0x60\n        /* \"#utility.yul\":5287:5298   */\n      dup1\n      dup6\n      add\n        /* \"#utility.yul\":5281:5299   */\n      mload\n        /* \"#utility.yul\":5264:5279   */\n      swap1\n      dup9\n      add\n        /* \"#utility.yul\":5257:5300   */\n      mstore\n        /* \"#utility.yul\":5323:5327   */\n      0x80\n        /* \"#utility.yul\":5370:5381   */\n      dup1\n      dup6\n      add\n        /* \"#utility.yul\":5364:5382   */\n      mload\n        /* \"#utility.yul\":5347:5362   */\n      swap1\n      dup9\n      add\n        /* \"#utility.yul\":5340:5383   */\n      mstore\n        /* \"#utility.yul\":5406:5410   */\n      0xa0\n        /* \"#utility.yul\":5453:5464   */\n      dup1\n      dup6\n      add\n        /* \"#utility.yul\":5447:5465   */\n      mload\n        /* \"#utility.yul\":5430:5445   */\n      swap1\n      dup9\n      add\n        /* \"#utility.yul\":5423:5466   */\n      mstore\n        /* \"#utility.yul\":5489:5493   */\n      0xc0\n        /* \"#utility.yul\":5540:5551   */\n      swap4\n      dup5\n      add\n        /* \"#utility.yul\":5534:5552   */\n      mload\n      sub(shl(0xa0, 0x01), 0x01)\n        /* \"#utility.yul\":5530:5574   */\n      and\n        /* \"#utility.yul\":5513:5528   */\n      swap4\n      swap1\n      swap7\n      add\n        /* \"#utility.yul\":5506:5575   */\n      swap3\n      swap1\n      swap3\n      mstore\n      pop\n      pop\n        /* \"#utility.yul\":5662:5674   */\n      swap4\n      dup7\n      add\n      swap4\n        /* \"#utility.yul\":5627:5642   */\n      swap1\n      dup7\n      add\n      swap1\n        /* \"#utility.yul\":5571:5572   */\n      0x01\n        /* \"#utility.yul\":4799:4808   */\n      add\n        /* \"#utility.yul\":4770:5684   */\n      jump(tag_461)\n    tag_463:\n      pop\n        /* \"#utility.yul\":5701:5707   */\n      swap1\n      swap9\n        /* \"#utility.yul\":4182:5713   */\n      swap8\n      pop\n      pop\n      pop\n      pop\n      pop\n      pop\n      pop\n      pop\n      jump\t// out\n        /* \"#utility.yul\":5718:5988   */\n    tag_49:\n        /* \"#utility.yul\":5905:5907   */\n      0x20\n        /* \"#utility.yul\":5894:5903   */\n      dup2\n        /* \"#utility.yul\":5887:5908   */\n      mstore\n        /* \"#utility.yul\":5868:5872   */\n      0x00\n        /* \"#utility.yul\":5925:5982   */\n      tag_444\n        /* \"#utility.yul\":5978:5980   */\n      0x20\n        /* \"#utility.yul\":5967:5976   */\n      dup4\n        /* \"#utility.yul\":5963:5981   */\n      add\n        /* \"#utility.yul\":5955:5961   */\n      dup5\n        /* \"#utility.yul\":5925:5982   */\n      tag_411\n      jump\t// in\n        /* \"#utility.yul\":5993:6432   */\n    tag_412:\n        /* \"#utility.yul\":6046:6049   */\n      0x00\n        /* \"#utility.yul\":6084:6089   */\n      dup2\n        /* \"#utility.yul\":6078:6090   */\n      mload\n        /* \"#utility.yul\":6111:6117   */\n      dup1\n        /* \"#utility.yul\":6106:6109   */\n      dup5\n        /* \"#utility.yul\":6099:6118   */\n      mstore\n        /* \"#utility.yul\":6137:6141   */\n      0x20\n        /* \"#utility.yul\":6166:6170   */\n      dup1\n        /* \"#utility.yul\":6161:6164   */\n      dup6\n        /* \"#utility.yul\":6157:6171   */\n      add\n        /* \"#utility.yul\":6150:6171   */\n      swap5\n      pop\n        /* \"#utility.yul\":6205:6209   */\n      0x20\n        /* \"#utility.yul\":6198:6203   */\n      dup5\n        /* \"#utility.yul\":6194:6210   */\n      add\n        /* \"#utility.yul\":6228:6229   */\n      0x00\n        /* \"#utility.yul\":6238:6407   */\n    tag_468:\n        /* \"#utility.yul\":6252:6258   */\n      dup4\n        /* \"#utility.yul\":6249:6250   */\n      dup2\n        /* \"#utility.yul\":6246:6259   */\n      lt\n        /* \"#utility.yul\":6238:6407   */\n      iszero\n      tag_470\n      jumpi\n        /* \"#utility.yul\":6313:6326   */\n      dup2\n      mload\n        /* \"#utility.yul\":6301:6327   */\n      dup8\n      mstore\n        /* \"#utility.yul\":6347:6359   */\n      swap6\n      dup3\n      add\n      swap6\n        /* \"#utility.yul\":6382:6397   */\n      swap1\n      dup3\n      add\n      swap1\n        /* \"#utility.yul\":6274:6275   */\n      0x01\n        /* \"#utility.yul\":6267:6276   */\n      add\n        /* \"#utility.yul\":6238:6407   */\n      jump(tag_468)\n    tag_470:\n      pop\n        /* \"#utility.yul\":6423:6426   */\n      swap5\n      swap6\n        /* \"#utility.yul\":5993:6432   */\n      swap5\n      pop\n      pop\n      pop\n      pop\n      pop\n      jump\t// out\n        /* \"#utility.yul\":6437:6902   */\n    tag_413:\n        /* \"#utility.yul\":6490:6493   */\n      0x00\n        /* \"#utility.yul\":6528:6533   */\n      dup2\n        /* \"#utility.yul\":6522:6534   */\n      mload\n        /* \"#utility.yul\":6555:6561   */\n      dup1\n        /* \"#utility.yul\":6550:6553   */\n      dup5\n        /* \"#utility.yul\":6543:6562   */\n      mstore\n        /* \"#utility.yul\":6581:6585   */\n      0x20\n        /* \"#utility.yul\":6610:6614   */\n      dup1\n        /* \"#utility.yul\":6605:6608   */\n      dup6\n        /* \"#utility.yul\":6601:6615   */\n      add\n        /* \"#utility.yul\":6594:6615   */\n      swap5\n      pop\n        /* \"#utility.yul\":6649:6653   */\n      0x20\n        /* \"#utility.yul\":6642:6647   */\n      dup5\n        /* \"#utility.yul\":6638:6654   */\n      add\n        /* \"#utility.yul\":6672:6673   */\n      0x00\n        /* \"#utility.yul\":6682:6877   */\n    tag_472:\n        /* \"#utility.yul\":6696:6702   */\n      dup4\n        /* \"#utility.yul\":6693:6694   */\n      dup2\n        /* \"#utility.yul\":6690:6703   */\n      lt\n        /* \"#utility.yul\":6682:6877   */\n      iszero\n      tag_470\n      jumpi\n        /* \"#utility.yul\":6761:6774   */\n      dup2\n      mload\n      sub(shl(0xa0, 0x01), 0x01)\n        /* \"#utility.yul\":6757:6796   */\n      and\n        /* \"#utility.yul\":6745:6797   */\n      dup8\n      mstore\n        /* \"#utility.yul\":6817:6829   */\n      swap6\n      dup3\n      add\n      swap6\n        /* \"#utility.yul\":6852:6867   */\n      swap1\n      dup3\n      add\n      swap1\n        /* \"#utility.yul\":6793:6794   */\n      0x01\n        /* \"#utility.yul\":6711:6720   */\n      add\n        /* \"#utility.yul\":6682:6877   */\n      jump(tag_472)\n        /* \"#utility.yul\":6907:8048   */\n    tag_57:\n        /* \"#utility.yul\":7086:7088   */\n      0x20\n        /* \"#utility.yul\":7075:7084   */\n      dup2\n        /* \"#utility.yul\":7068:7089   */\n      mstore\n        /* \"#utility.yul\":7131:7137   */\n      dup2\n        /* \"#utility.yul\":7125:7138   */\n      mload\n        /* \"#utility.yul\":7120:7122   */\n      0x20\n        /* \"#utility.yul\":7109:7118   */\n      dup3\n        /* \"#utility.yul\":7105:7123   */\n      add\n        /* \"#utility.yul\":7098:7139   */\n      mstore\n        /* \"#utility.yul\":7049:7053   */\n      0x00\n        /* \"#utility.yul\":7186:7188   */\n      0x20\n        /* \"#utility.yul\":7178:7184   */\n      dup4\n        /* \"#utility.yul\":7174:7189   */\n      add\n        /* \"#utility.yul\":7168:7190   */\n      mload\n        /* \"#utility.yul\":7209:7215   */\n      0x0100\n        /* \"#utility.yul\":7251:7253   */\n      dup1\n        /* \"#utility.yul\":7246:7248   */\n      0x40\n        /* \"#utility.yul\":7235:7244   */\n      dup6\n        /* \"#utility.yul\":7231:7249   */\n      add\n        /* \"#utility.yul\":7224:7254   */\n      mstore\n        /* \"#utility.yul\":7277:7329   */\n      tag_476\n        /* \"#utility.yul\":7324:7327   */\n      0x0120\n        /* \"#utility.yul\":7313:7322   */\n      dup6\n        /* \"#utility.yul\":7309:7328   */\n      add\n        /* \"#utility.yul\":7295:7307   */\n      dup4\n        /* \"#utility.yul\":7277:7329   */\n      tag_407\n      jump\t// in\n    tag_476:\n        /* \"#utility.yul\":7263:7329   */\n      swap2\n      pop\n        /* \"#utility.yul\":7383:7385   */\n      0x40\n        /* \"#utility.yul\":7375:7381   */\n      dup6\n        /* \"#utility.yul\":7371:7386   */\n      add\n        /* \"#utility.yul\":7365:7387   */\n      mload\n        /* \"#utility.yul\":7360:7362   */\n      0x60\n        /* \"#utility.yul\":7349:7358   */\n      dup6\n        /* \"#utility.yul\":7345:7363   */\n      add\n        /* \"#utility.yul\":7338:7388   */\n      mstore\n        /* \"#utility.yul\":7443:7445   */\n      0x60\n        /* \"#utility.yul\":7435:7441   */\n      dup6\n        /* \"#utility.yul\":7431:7446   */\n      add\n        /* \"#utility.yul\":7425:7447   */\n      mload\n        /* \"#utility.yul\":7419:7422   */\n      0x80\n        /* \"#utility.yul\":7408:7417   */\n      dup6\n        /* \"#utility.yul\":7404:7423   */\n      add\n        /* \"#utility.yul\":7397:7448   */\n      mstore\n        /* \"#utility.yul\":7497:7500   */\n      0x80\n        /* \"#utility.yul\":7489:7495   */\n      dup6\n        /* \"#utility.yul\":7485:7501   */\n      add\n        /* \"#utility.yul\":7479:7502   */\n      mload\n        /* \"#utility.yul\":7511:7566   */\n      tag_477\n        /* \"#utility.yul\":7561:7564   */\n      0xa0\n        /* \"#utility.yul\":7550:7559   */\n      dup7\n        /* \"#utility.yul\":7546:7565   */\n      add\n        /* \"#utility.yul\":7530:7544   */\n      dup3\n      sub(shl(0xa0, 0x01), 0x01)\n        /* \"#utility.yul\":3732:3763   */\n      and\n        /* \"#utility.yul\":3720:3764   */\n      swap1\n      mstore\n        /* \"#utility.yul\":3666:3770   */\n      jump\n        /* \"#utility.yul\":7511:7566   */\n    tag_477:\n      pop\n        /* \"#utility.yul\":7621:7624   */\n      0xa0\n        /* \"#utility.yul\":7613:7619   */\n      dup6\n        /* \"#utility.yul\":7609:7625   */\n      add\n        /* \"#utility.yul\":7603:7626   */\n      mload\n        /* \"#utility.yul\":7597:7600   */\n      0xc0\n        /* \"#utility.yul\":7586:7595   */\n      dup6\n        /* \"#utility.yul\":7582:7601   */\n      add\n        /* \"#utility.yul\":7575:7627   */\n      mstore\n        /* \"#utility.yul\":7676:7679   */\n      0xc0\n        /* \"#utility.yul\":7668:7674   */\n      dup6\n        /* \"#utility.yul\":7664:7680   */\n      add\n        /* \"#utility.yul\":7658:7681   */\n      mload\n        /* \"#utility.yul\":7704:7706   */\n      0x1f\n        /* \"#utility.yul\":7700:7707   */\n      not\n        /* \"#utility.yul\":7772:7774   */\n      dup1\n        /* \"#utility.yul\":7760:7769   */\n      dup7\n        /* \"#utility.yul\":7752:7758   */\n      dup6\n        /* \"#utility.yul\":7748:7770   */\n      sub\n        /* \"#utility.yul\":7744:7775   */\n      add\n        /* \"#utility.yul\":7738:7741   */\n      0xe0\n        /* \"#utility.yul\":7727:7736   */\n      dup8\n        /* \"#utility.yul\":7723:7742   */\n      add\n        /* \"#utility.yul\":7716:7776   */\n      mstore\n        /* \"#utility.yul\":7799:7851   */\n      tag_478\n        /* \"#utility.yul\":7844:7850   */\n      dup5\n        /* \"#utility.yul\":7828:7842   */\n      dup4\n        /* \"#utility.yul\":7799:7851   */\n      tag_412\n      jump\t// in\n    tag_478:\n        /* \"#utility.yul\":7785:7851   */\n      swap4\n      pop\n        /* \"#utility.yul\":7900:7903   */\n      0xe0\n        /* \"#utility.yul\":7892:7898   */\n      dup8\n        /* \"#utility.yul\":7888:7904   */\n      add\n        /* \"#utility.yul\":7882:7905   */\n      mload\n        /* \"#utility.yul\":7860:7905   */\n      swap2\n      pop\n        /* \"#utility.yul\":7969:7971   */\n      dup1\n        /* \"#utility.yul\":7957:7966   */\n      dup7\n        /* \"#utility.yul\":7949:7955   */\n      dup6\n        /* \"#utility.yul\":7945:7967   */\n      sub\n        /* \"#utility.yul\":7941:7972   */\n      add\n        /* \"#utility.yul\":7936:7938   */\n      dup4\n        /* \"#utility.yul\":7925:7934   */\n      dup8\n        /* \"#utility.yul\":7921:7939   */\n      add\n        /* \"#utility.yul\":7914:7973   */\n      mstore\n      pop\n        /* \"#utility.yul\":7990:8042   */\n      tag_479\n        /* \"#utility.yul\":8035:8041   */\n      dup4\n        /* \"#utility.yul\":8019:8033   */\n      dup3\n        /* \"#utility.yul\":7990:8042   */\n      tag_413\n      jump\t// in\n    tag_479:\n        /* \"#utility.yul\":7982:8042   */\n      swap7\n        /* \"#utility.yul\":6907:8048   */\n      swap6\n      pop\n      pop\n      pop\n      pop\n      pop\n      pop\n      jump\t// out\n        /* \"#utility.yul\":8053:8184   */\n    tag_414:\n      sub(shl(0xa0, 0x01), 0x01)\n        /* \"#utility.yul\":8128:8159   */\n      dup2\n      and\n        /* \"#utility.yul\":8118:8160   */\n      dup2\n      eq\n        /* \"#utility.yul\":8108:8178   */\n      tag_429\n      jumpi\n        /* \"#utility.yul\":8174:8175   */\n      0x00\n        /* \"#utility.yul\":8171:8172   */\n      dup1\n        /* \"#utility.yul\":8164:8176   */\n      revert\n        /* \"#utility.yul\":8189:8436   */\n    tag_60:\n        /* \"#utility.yul\":8248:8254   */\n      0x00\n        /* \"#utility.yul\":8301:8303   */\n      0x20\n        /* \"#utility.yul\":8289:8298   */\n      dup3\n        /* \"#utility.yul\":8280:8287   */\n      dup5\n        /* \"#utility.yul\":8276:8299   */\n      sub\n        /* \"#utility.yul\":8272:8304   */\n      slt\n        /* \"#utility.yul\":8269:8321   */\n      iszero\n      tag_483\n      jumpi\n        /* \"#utility.yul\":8317:8318   */\n      0x00\n        /* \"#utility.yul\":8314:8315   */\n      dup1\n        /* \"#utility.yul\":8307:8319   */\n      revert\n        /* \"#utility.yul\":8269:8321   */\n    tag_483:\n        /* \"#utility.yul\":8356:8365   */\n      dup2\n        /* \"#utility.yul\":8343:8366   */\n      calldataload\n        /* \"#utility.yul\":8375:8406   */\n      tag_444\n        /* \"#utility.yul\":8400:8405   */\n      dup2\n        /* \"#utility.yul\":8375:8406   */\n      tag_414\n      jump\t// in\n        /* \"#utility.yul\":8441:8702   */\n    tag_66:\n        /* \"#utility.yul\":8620:8622   */\n      0x20\n        /* \"#utility.yul\":8609:8618   */\n      dup2\n        /* \"#utility.yul\":8602:8623   */\n      mstore\n        /* \"#utility.yul\":8583:8587   */\n      0x00\n        /* \"#utility.yul\":8640:8696   */\n      tag_444\n        /* \"#utility.yul\":8692:8694   */\n      0x20\n        /* \"#utility.yul\":8681:8690   */\n      dup4\n        /* \"#utility.yul\":8677:8695   */\n      add\n        /* \"#utility.yul\":8669:8675   */\n      dup5\n        /* \"#utility.yul\":8640:8696   */\n      tag_412\n      jump\t// in\n        /* \"#utility.yul\":8707:8834   */\n    tag_135:\n        /* \"#utility.yul\":8768:8778   */\n      0x4e487b71\n        /* \"#utility.yul\":8763:8766   */\n      0xe0\n        /* \"#utility.yul\":8759:8779   */\n      shl\n        /* \"#utility.yul\":8756:8757   */\n      0x00\n        /* \"#utility.yul\":8749:8780   */\n      mstore\n        /* \"#utility.yul\":8799:8803   */\n      0x41\n        /* \"#utility.yul\":8796:8797   */\n      0x04\n        /* \"#utility.yul\":8789:8804   */\n      mstore\n        /* \"#utility.yul\":8823:8827   */\n      0x24\n        /* \"#utility.yul\":8820:8821   */\n      0x00\n        /* \"#utility.yul\":8813:8828   */\n      revert\n        /* \"#utility.yul\":8839:9096   */\n    tag_415:\n        /* \"#utility.yul\":8911:8915   */\n      0x40\n        /* \"#utility.yul\":8905:8916   */\n      dup1\n      mload\n      swap1\n        /* \"#utility.yul\":8943:8960   */\n      dup2\n      add\n      sub(shl(0x40, 0x01), 0x01)\n        /* \"#utility.yul\":8975:9009   */\n      dup2\n      gt\n        /* \"#utility.yul\":9011:9033   */\n      dup3\n      dup3\n      lt\n        /* \"#utility.yul\":8972:9034   */\n      or\n        /* \"#utility.yul\":8969:9057   */\n      iszero\n      tag_490\n      jumpi\n        /* \"#utility.yul\":9037:9055   */\n      tag_490\n      tag_135\n      jump\t// in\n    tag_490:\n        /* \"#utility.yul\":9073:9077   */\n      0x40\n        /* \"#utility.yul\":9066:9090   */\n      mstore\n        /* \"#utility.yul\":8839:9096   */\n      swap1\n      jump\t// out\n        /* \"#utility.yul\":9101:9354   */\n    tag_416:\n        /* \"#utility.yul\":9173:9175   */\n      0x40\n        /* \"#utility.yul\":9167:9176   */\n      mload\n        /* \"#utility.yul\":9215:9219   */\n      0xe0\n        /* \"#utility.yul\":9203:9220   */\n      dup2\n      add\n      sub(shl(0x40, 0x01), 0x01)\n        /* \"#utility.yul\":9235:9269   */\n      dup2\n      gt\n        /* \"#utility.yul\":9271:9293   */\n      dup3\n      dup3\n      lt\n        /* \"#utility.yul\":9232:9294   */\n      or\n        /* \"#utility.yul\":9229:9317   */\n      iszero\n      tag_490\n      jumpi\n        /* \"#utility.yul\":9297:9315   */\n      tag_490\n      tag_135\n      jump\t// in\n        /* \"#utility.yul\":9359:9612   */\n    tag_417:\n        /* \"#utility.yul\":9431:9433   */\n      0x40\n        /* \"#utility.yul\":9425:9434   */\n      mload\n        /* \"#utility.yul\":9473:9477   */\n      0xc0\n        /* \"#utility.yul\":9461:9478   */\n      dup2\n      add\n      sub(shl(0x40, 0x01), 0x01)\n        /* \"#utility.yul\":9493:9527   */\n      dup2\n      gt\n        /* \"#utility.yul\":9529:9551   */\n      dup3\n      dup3\n      lt\n        /* \"#utility.yul\":9490:9552   */\n      or\n        /* \"#utility.yul\":9487:9575   */\n      iszero\n      tag_490\n      jumpi\n        /* \"#utility.yul\":9555:9573   */\n      tag_490\n      tag_135\n      jump\t// in\n        /* \"#utility.yul\":9617:9892   */\n    tag_418:\n        /* \"#utility.yul\":9688:9690   */\n      0x40\n        /* \"#utility.yul\":9682:9691   */\n      mload\n        /* \"#utility.yul\":9753:9755   */\n      0x1f\n        /* \"#utility.yul\":9734:9747   */\n      dup3\n      add\n      not(0x1f)\n        /* \"#utility.yul\":9730:9757   */\n      and\n        /* \"#utility.yul\":9718:9758   */\n      dup2\n      add\n      sub(shl(0x40, 0x01), 0x01)\n        /* \"#utility.yul\":9773:9807   */\n      dup2\n      gt\n        /* \"#utility.yul\":9809:9831   */\n      dup3\n      dup3\n      lt\n        /* \"#utility.yul\":9770:9832   */\n      or\n        /* \"#utility.yul\":9767:9855   */\n      iszero\n      tag_499\n      jumpi\n        /* \"#utility.yul\":9835:9853   */\n      tag_499\n      tag_135\n      jump\t// in\n    tag_499:\n        /* \"#utility.yul\":9871:9873   */\n      0x40\n        /* \"#utility.yul\":9864:9886   */\n      mstore\n        /* \"#utility.yul\":9617:9892   */\n      swap2\n      swap1\n      pop\n      jump\t// out\n        /* \"#utility.yul\":9897:10084   */\n    tag_419:\n        /* \"#utility.yul\":9946:9950   */\n      0x00\n      sub(shl(0x40, 0x01), 0x01)\n        /* \"#utility.yul\":9971:9977   */\n      dup3\n        /* \"#utility.yul\":9968:9998   */\n      gt\n        /* \"#utility.yul\":9965:10021   */\n      iszero\n      tag_502\n      jumpi\n        /* \"#utility.yul\":10001:10019   */\n      tag_502\n      tag_135\n      jump\t// in\n    tag_502:\n      pop\n        /* \"#utility.yul\":10067:10069   */\n      0x1f\n        /* \"#utility.yul\":10046:10061   */\n      add\n      not(0x1f)\n        /* \"#utility.yul\":10042:10071   */\n      and\n        /* \"#utility.yul\":10073:10077   */\n      0x20\n        /* \"#utility.yul\":10038:10078   */\n      add\n      swap1\n        /* \"#utility.yul\":9897:10084   */\n      jump\t// out\n        /* \"#utility.yul\":10089:10553   */\n    tag_420:\n        /* \"#utility.yul\":10132:10137   */\n      0x00\n        /* \"#utility.yul\":10185:10188   */\n      dup3\n        /* \"#utility.yul\":10178:10182   */\n      0x1f\n        /* \"#utility.yul\":10170:10176   */\n      dup4\n        /* \"#utility.yul\":10166:10183   */\n      add\n        /* \"#utility.yul\":10162:10189   */\n      slt\n        /* \"#utility.yul\":10152:10207   */\n      tag_504\n      jumpi\n        /* \"#utility.yul\":10203:10204   */\n      0x00\n        /* \"#utility.yul\":10200:10201   */\n      dup1\n        /* \"#utility.yul\":10193:10205   */\n      revert\n        /* \"#utility.yul\":10152:10207   */\n    tag_504:\n        /* \"#utility.yul\":10239:10245   */\n      dup2\n        /* \"#utility.yul\":10226:10246   */\n      calldataload\n        /* \"#utility.yul\":10270:10319   */\n      tag_505\n        /* \"#utility.yul\":10286:10318   */\n      tag_506\n        /* \"#utility.yul\":10315:10317   */\n      dup3\n        /* \"#utility.yul\":10286:10318   */\n      tag_419\n      jump\t// in\n    tag_506:\n        /* \"#utility.yul\":10270:10319   */\n      tag_418\n      jump\t// in\n    tag_505:\n        /* \"#utility.yul\":10344:10346   */\n      dup2\n        /* \"#utility.yul\":10335:10342   */\n      dup2\n        /* \"#utility.yul\":10328:10347   */\n      mstore\n        /* \"#utility.yul\":10390:10393   */\n      dup5\n        /* \"#utility.yul\":10383:10387   */\n      0x20\n        /* \"#utility.yul\":10378:10380   */\n      dup4\n        /* \"#utility.yul\":10370:10376   */\n      dup7\n        /* \"#utility.yul\":10366:10381   */\n      add\n        /* \"#utility.yul\":10362:10388   */\n      add\n        /* \"#utility.yul\":10359:10394   */\n      gt\n        /* \"#utility.yul\":10356:10411   */\n      iszero\n      tag_507\n      jumpi\n        /* \"#utility.yul\":10407:10408   */\n      0x00\n        /* \"#utility.yul\":10404:10405   */\n      dup1\n        /* \"#utility.yul\":10397:10409   */\n      revert\n        /* \"#utility.yul\":10356:10411   */\n    tag_507:\n        /* \"#utility.yul\":10472:10474   */\n      dup2\n        /* \"#utility.yul\":10465:10469   */\n      0x20\n        /* \"#utility.yul\":10457:10463   */\n      dup6\n        /* \"#utility.yul\":10453:10470   */\n      add\n        /* \"#utility.yul\":10446:10450   */\n      0x20\n        /* \"#utility.yul\":10437:10444   */\n      dup4\n        /* \"#utility.yul\":10433:10451   */\n      add\n        /* \"#utility.yul\":10420:10475   */\n      calldatacopy\n        /* \"#utility.yul\":10520:10521   */\n      0x00\n        /* \"#utility.yul\":10495:10511   */\n      swap2\n      dup2\n      add\n        /* \"#utility.yul\":10513:10517   */\n      0x20\n        /* \"#utility.yul\":10491:10518   */\n      add\n        /* \"#utility.yul\":10484:10522   */\n      swap2\n      swap1\n      swap2\n      mstore\n        /* \"#utility.yul\":10499:10506   */\n      swap4\n        /* \"#utility.yul\":10089:10553   */\n      swap3\n      pop\n      pop\n      pop\n      jump\t// out\n        /* \"#utility.yul\":10558:10969   */\n    tag_421:\n        /* \"#utility.yul\":10613:10618   */\n      0x00\n        /* \"#utility.yul\":10661:10665   */\n      0x40\n        /* \"#utility.yul\":10649:10658   */\n      dup3\n        /* \"#utility.yul\":10644:10647   */\n      dup5\n        /* \"#utility.yul\":10640:10659   */\n      sub\n        /* \"#utility.yul\":10636:10666   */\n      slt\n        /* \"#utility.yul\":10633:10683   */\n      iszero\n      tag_509\n      jumpi\n        /* \"#utility.yul\":10679:10680   */\n      0x00\n        /* \"#utility.yul\":10676:10677   */\n      dup1\n        /* \"#utility.yul\":10669:10681   */\n      revert\n        /* \"#utility.yul\":10633:10683   */\n    tag_509:\n        /* \"#utility.yul\":10701:10723   */\n      tag_510\n      tag_415\n      jump\t// in\n    tag_510:\n        /* \"#utility.yul\":10692:10723   */\n      swap1\n      pop\n        /* \"#utility.yul\":10759:10768   */\n      dup2\n        /* \"#utility.yul\":10746:10769   */\n      calldataload\n        /* \"#utility.yul\":10739:10744   */\n      dup2\n        /* \"#utility.yul\":10732:10770   */\n      mstore\n        /* \"#utility.yul\":10821:10823   */\n      0x20\n        /* \"#utility.yul\":10810:10819   */\n      dup3\n        /* \"#utility.yul\":10806:10824   */\n      add\n        /* \"#utility.yul\":10793:10825   */\n      calldataload\n      sub(shl(0x40, 0x01), 0x01)\n        /* \"#utility.yul\":10840:10846   */\n      dup2\n        /* \"#utility.yul\":10837:10867   */\n      gt\n        /* \"#utility.yul\":10834:10884   */\n      iszero\n      tag_511\n      jumpi\n        /* \"#utility.yul\":10880:10881   */\n      0x00\n        /* \"#utility.yul\":10877:10878   */\n      dup1\n        /* \"#utility.yul\":10870:10882   */\n      revert\n        /* \"#utility.yul\":10834:10884   */\n    tag_511:\n        /* \"#utility.yul\":10916:10962   */\n      tag_512\n        /* \"#utility.yul\":10958:10961   */\n      dup5\n        /* \"#utility.yul\":10949:10955   */\n      dup3\n        /* \"#utility.yul\":10938:10947   */\n      dup6\n        /* \"#utility.yul\":10934:10956   */\n      add\n        /* \"#utility.yul\":10916:10962   */\n      tag_420\n      jump\t// in\n    tag_512:\n        /* \"#utility.yul\":10911:10913   */\n      0x20\n        /* \"#utility.yul\":10904:10909   */\n      dup4\n        /* \"#utility.yul\":10900:10914   */\n      add\n        /* \"#utility.yul\":10893:10963   */\n      mstore\n      pop\n        /* \"#utility.yul\":10558:10969   */\n      swap3\n      swap2\n      pop\n      pop\n      jump\t// out\n        /* \"#utility.yul\":10974:11899   */\n    tag_422:\n        /* \"#utility.yul\":11032:11037   */\n      0x00\n        /* \"#utility.yul\":11080:11084   */\n      0xe0\n        /* \"#utility.yul\":11068:11077   */\n      dup3\n        /* \"#utility.yul\":11063:11066   */\n      dup5\n        /* \"#utility.yul\":11059:11078   */\n      sub\n        /* \"#utility.yul\":11055:11085   */\n      slt\n        /* \"#utility.yul\":11052:11102   */\n      iszero\n      tag_514\n      jumpi\n        /* \"#utility.yul\":11098:11099   */\n      0x00\n        /* \"#utility.yul\":11095:11096   */\n      dup1\n        /* \"#utility.yul\":11088:11100   */\n      revert\n        /* \"#utility.yul\":11052:11102   */\n    tag_514:\n        /* \"#utility.yul\":11120:11142   */\n      tag_515\n      tag_416\n      jump\t// in\n    tag_515:\n        /* \"#utility.yul\":11111:11142   */\n      swap1\n      pop\n        /* \"#utility.yul\":11178:11187   */\n      dup2\n        /* \"#utility.yul\":11165:11188   */\n      calldataload\n        /* \"#utility.yul\":11158:11163   */\n      dup2\n        /* \"#utility.yul\":11151:11189   */\n      mstore\n        /* \"#utility.yul\":11249:11251   */\n      0x20\n        /* \"#utility.yul\":11238:11247   */\n      dup3\n        /* \"#utility.yul\":11234:11252   */\n      add\n        /* \"#utility.yul\":11221:11253   */\n      calldataload\n        /* \"#utility.yul\":11216:11218   */\n      0x20\n        /* \"#utility.yul\":11209:11214   */\n      dup3\n        /* \"#utility.yul\":11205:11219   */\n      add\n        /* \"#utility.yul\":11198:11254   */\n      mstore\n        /* \"#utility.yul\":11314:11316   */\n      0x40\n        /* \"#utility.yul\":11303:11312   */\n      dup3\n        /* \"#utility.yul\":11299:11317   */\n      add\n        /* \"#utility.yul\":11286:11318   */\n      calldataload\n        /* \"#utility.yul\":11281:11283   */\n      0x40\n        /* \"#utility.yul\":11274:11279   */\n      dup3\n        /* \"#utility.yul\":11270:11284   */\n      add\n        /* \"#utility.yul\":11263:11319   */\n      mstore\n        /* \"#utility.yul\":11370:11372   */\n      0x60\n        /* \"#utility.yul\":11359:11368   */\n      dup3\n        /* \"#utility.yul\":11355:11373   */\n      add\n        /* \"#utility.yul\":11342:11374   */\n      calldataload\n      sub(shl(0x40, 0x01), 0x01)\n        /* \"#utility.yul\":11434:11436   */\n      dup1\n        /* \"#utility.yul\":11426:11432   */\n      dup3\n        /* \"#utility.yul\":11423:11437   */\n      gt\n        /* \"#utility.yul\":11420:11454   */\n      iszero\n      tag_516\n      jumpi\n        /* \"#utility.yul\":11450:11451   */\n      0x00\n        /* \"#utility.yul\":11447:11448   */\n      dup1\n        /* \"#utility.yul\":11440:11452   */\n      revert\n        /* \"#utility.yul\":11420:11454   */\n    tag_516:\n        /* \"#utility.yul\":11486:11532   */\n      tag_517\n        /* \"#utility.yul\":11528:11531   */\n      dup6\n        /* \"#utility.yul\":11519:11525   */\n      dup4\n        /* \"#utility.yul\":11508:11517   */\n      dup7\n        /* \"#utility.yul\":11504:11526   */\n      add\n        /* \"#utility.yul\":11486:11532   */\n      tag_420\n      jump\t// in\n    tag_517:\n        /* \"#utility.yul\":11481:11483   */\n      0x60\n        /* \"#utility.yul\":11474:11479   */\n      dup5\n        /* \"#utility.yul\":11470:11484   */\n      add\n        /* \"#utility.yul\":11463:11533   */\n      mstore\n        /* \"#utility.yul\":11586:11589   */\n      0x80\n        /* \"#utility.yul\":11575:11584   */\n      dup5\n        /* \"#utility.yul\":11571:11590   */\n      add\n        /* \"#utility.yul\":11558:11591   */\n      calldataload\n        /* \"#utility.yul\":11542:11591   */\n      swap2\n      pop\n        /* \"#utility.yul\":11616:11618   */\n      dup1\n        /* \"#utility.yul\":11606:11614   */\n      dup3\n        /* \"#utility.yul\":11603:11619   */\n      gt\n        /* \"#utility.yul\":11600:11636   */\n      iszero\n      tag_518\n      jumpi\n        /* \"#utility.yul\":11632:11633   */\n      0x00\n        /* \"#utility.yul\":11629:11630   */\n      dup1\n        /* \"#utility.yul\":11622:11634   */\n      revert\n        /* \"#utility.yul\":11600:11636   */\n    tag_518:\n      pop\n        /* \"#utility.yul\":11669:11726   */\n      tag_519\n        /* \"#utility.yul\":11722:11725   */\n      dup5\n        /* \"#utility.yul\":11711:11719   */\n      dup3\n        /* \"#utility.yul\":11700:11709   */\n      dup6\n        /* \"#utility.yul\":11696:11720   */\n      add\n        /* \"#utility.yul\":11669:11726   */\n      tag_421\n      jump\t// in\n    tag_519:\n        /* \"#utility.yul\":11663:11666   */\n      0x80\n        /* \"#utility.yul\":11656:11661   */\n      dup4\n        /* \"#utility.yul\":11652:11667   */\n      add\n        /* \"#utility.yul\":11645:11727   */\n      mstore\n      pop\n        /* \"#utility.yul\":11760:11809   */\n      tag_520\n        /* \"#utility.yul\":11804:11807   */\n      0xa0\n        /* \"#utility.yul\":11793:11802   */\n      dup4\n        /* \"#utility.yul\":11789:11808   */\n      add\n        /* \"#utility.yul\":11760:11809   */\n      tag_405\n      jump\t// in\n    tag_520:\n        /* \"#utility.yul\":11754:11757   */\n      0xa0\n        /* \"#utility.yul\":11747:11752   */\n      dup3\n        /* \"#utility.yul\":11743:11758   */\n      add\n        /* \"#utility.yul\":11736:11810   */\n      mstore\n        /* \"#utility.yul\":11843:11892   */\n      tag_521\n        /* \"#utility.yul\":11887:11890   */\n      0xc0\n        /* \"#utility.yul\":11876:11885   */\n      dup4\n        /* \"#utility.yul\":11872:11891   */\n      add\n        /* \"#utility.yul\":11843:11892   */\n      tag_405\n      jump\t// in\n    tag_521:\n        /* \"#utility.yul\":11837:11840   */\n      0xc0\n        /* \"#utility.yul\":11830:11835   */\n      dup3\n        /* \"#utility.yul\":11826:11841   */\n      add\n        /* \"#utility.yul\":11819:11893   */\n      mstore\n        /* \"#utility.yul\":10974:11899   */\n      swap3\n      swap2\n      pop\n      pop\n      jump\t// out\n        /* \"#utility.yul\":11904:12325   */\n    tag_69:\n        /* \"#utility.yul\":12001:12007   */\n      0x00\n        /* \"#utility.yul\":12009:12015   */\n      dup1\n        /* \"#utility.yul\":12062:12064   */\n      0x40\n        /* \"#utility.yul\":12050:12059   */\n      dup4\n        /* \"#utility.yul\":12041:12048   */\n      dup6\n        /* \"#utility.yul\":12037:12060   */\n      sub\n        /* \"#utility.yul\":12033:12065   */\n      slt\n        /* \"#utility.yul\":12030:12082   */\n      iszero\n      tag_523\n      jumpi\n        /* \"#utility.yul\":12078:12079   */\n      0x00\n        /* \"#utility.yul\":12075:12076   */\n      dup1\n        /* \"#utility.yul\":12068:12080   */\n      revert\n        /* \"#utility.yul\":12030:12082   */\n    tag_523:\n        /* \"#utility.yul\":12118:12127   */\n      dup3\n        /* \"#utility.yul\":12105:12128   */\n      calldataload\n      sub(shl(0x40, 0x01), 0x01)\n        /* \"#utility.yul\":12143:12149   */\n      dup2\n        /* \"#utility.yul\":12140:12170   */\n      gt\n        /* \"#utility.yul\":12137:12187   */\n      iszero\n      tag_524\n      jumpi\n        /* \"#utility.yul\":12183:12184   */\n      0x00\n        /* \"#utility.yul\":12180:12181   */\n      dup1\n        /* \"#utility.yul\":12173:12185   */\n      revert\n        /* \"#utility.yul\":12137:12187   */\n    tag_524:\n        /* \"#utility.yul\":12206:12268   */\n      tag_525\n        /* \"#utility.yul\":12260:12267   */\n      dup6\n        /* \"#utility.yul\":12251:12257   */\n      dup3\n        /* \"#utility.yul\":12240:12249   */\n      dup7\n        /* \"#utility.yul\":12236:12258   */\n      add\n        /* \"#utility.yul\":12206:12268   */\n      tag_422\n      jump\t// in\n    tag_525:\n        /* \"#utility.yul\":12196:12268   */\n      swap6\n        /* \"#utility.yul\":12315:12317   */\n      0x20\n        /* \"#utility.yul\":12300:12318   */\n      swap5\n      swap1\n      swap5\n      add\n        /* \"#utility.yul\":12287:12319   */\n      calldataload\n      swap5\n      pop\n      pop\n      pop\n      pop\n        /* \"#utility.yul\":11904:12325   */\n      jump\t// out\n        /* \"#utility.yul\":12510:12863   */\n    tag_79:\n        /* \"#utility.yul\":12598:12604   */\n      0x00\n        /* \"#utility.yul\":12651:12653   */\n      0x20\n        /* \"#utility.yul\":12639:12648   */\n      dup3\n        /* \"#utility.yul\":12630:12637   */\n      dup5\n        /* \"#utility.yul\":12626:12649   */\n      sub\n        /* \"#utility.yul\":12622:12654   */\n      slt\n        /* \"#utility.yul\":12619:12671   */\n      iszero\n      tag_528\n      jumpi\n        /* \"#utility.yul\":12667:12668   */\n      0x00\n        /* \"#utility.yul\":12664:12665   */\n      dup1\n        /* \"#utility.yul\":12657:12669   */\n      revert\n        /* \"#utility.yul\":12619:12671   */\n    tag_528:\n        /* \"#utility.yul\":12707:12716   */\n      dup2\n        /* \"#utility.yul\":12694:12717   */\n      calldataload\n      sub(shl(0x40, 0x01), 0x01)\n        /* \"#utility.yul\":12732:12738   */\n      dup2\n        /* \"#utility.yul\":12729:12759   */\n      gt\n        /* \"#utility.yul\":12726:12776   */\n      iszero\n      tag_529\n      jumpi\n        /* \"#utility.yul\":12772:12773   */\n      0x00\n        /* \"#utility.yul\":12769:12770   */\n      dup1\n        /* \"#utility.yul\":12762:12774   */\n      revert\n        /* \"#utility.yul\":12726:12776   */\n    tag_529:\n        /* \"#utility.yul\":12795:12857   */\n      tag_448\n        /* \"#utility.yul\":12849:12856   */\n      dup5\n        /* \"#utility.yul\":12840:12846   */\n      dup3\n        /* \"#utility.yul\":12829:12838   */\n      dup6\n        /* \"#utility.yul\":12825:12847   */\n      add\n        /* \"#utility.yul\":12795:12857   */\n      tag_422\n      jump\t// in\n        /* \"#utility.yul\":12868:13116   */\n    tag_84:\n        /* \"#utility.yul\":12936:12942   */\n      0x00\n        /* \"#utility.yul\":12944:12950   */\n      dup1\n        /* \"#utility.yul\":12997:12999   */\n      0x40\n        /* \"#utility.yul\":12985:12994   */\n      dup4\n        /* \"#utility.yul\":12976:12983   */\n      dup6\n        /* \"#utility.yul\":12972:12995   */\n      sub\n        /* \"#utility.yul\":12968:13000   */\n      slt\n        /* \"#utility.yul\":12965:13017   */\n      iszero\n      tag_532\n      jumpi\n        /* \"#utility.yul\":13013:13014   */\n      0x00\n        /* \"#utility.yul\":13010:13011   */\n      dup1\n        /* \"#utility.yul\":13003:13015   */\n      revert\n        /* \"#utility.yul\":12965:13017   */\n    tag_532:\n      pop\n      pop\n        /* \"#utility.yul\":13036:13059   */\n      dup1\n      calldataload\n      swap3\n        /* \"#utility.yul\":13106:13108   */\n      0x20\n        /* \"#utility.yul\":13091:13109   */\n      swap1\n      swap2\n      add\n        /* \"#utility.yul\":13078:13110   */\n      calldataload\n      swap2\n      pop\n        /* \"#utility.yul\":12868:13116   */\n      jump\t// out\n        /* \"#utility.yul\":13121:14133   */\n    tag_89:\n        /* \"#utility.yul\":13209:13215   */\n      0x00\n        /* \"#utility.yul\":13262:13264   */\n      0x20\n        /* \"#utility.yul\":13250:13259   */\n      dup3\n        /* \"#utility.yul\":13241:13248   */\n      dup5\n        /* \"#utility.yul\":13237:13260   */\n      sub\n        /* \"#utility.yul\":13233:13265   */\n      slt\n        /* \"#utility.yul\":13230:13282   */\n      iszero\n      tag_534\n      jumpi\n        /* \"#utility.yul\":13278:13279   */\n      0x00\n        /* \"#utility.yul\":13275:13276   */\n      dup1\n        /* \"#utility.yul\":13268:13280   */\n      revert\n        /* \"#utility.yul\":13230:13282   */\n    tag_534:\n        /* \"#utility.yul\":13318:13327   */\n      dup2\n        /* \"#utility.yul\":13305:13328   */\n      calldataload\n      sub(shl(0x40, 0x01), 0x01)\n        /* \"#utility.yul\":13388:13390   */\n      dup1\n        /* \"#utility.yul\":13380:13386   */\n      dup3\n        /* \"#utility.yul\":13377:13391   */\n      gt\n        /* \"#utility.yul\":13374:13408   */\n      iszero\n      tag_535\n      jumpi\n        /* \"#utility.yul\":13404:13405   */\n      0x00\n        /* \"#utility.yul\":13401:13402   */\n      dup1\n        /* \"#utility.yul\":13394:13406   */\n      revert\n        /* \"#utility.yul\":13374:13408   */\n    tag_535:\n        /* \"#utility.yul\":13427:13449   */\n      swap1\n      dup4\n      add\n      swap1\n        /* \"#utility.yul\":13483:13487   */\n      0x80\n        /* \"#utility.yul\":13465:13481   */\n      dup3\n      dup7\n      sub\n        /* \"#utility.yul\":13461:13488   */\n      slt\n        /* \"#utility.yul\":13458:13505   */\n      iszero\n      tag_536\n      jumpi\n        /* \"#utility.yul\":13501:13502   */\n      0x00\n        /* \"#utility.yul\":13498:13499   */\n      dup1\n        /* \"#utility.yul\":13491:13503   */\n      revert\n        /* \"#utility.yul\":13458:13505   */\n    tag_536:\n        /* \"#utility.yul\":13534:13536   */\n      0x40\n        /* \"#utility.yul\":13528:13537   */\n      mload\n        /* \"#utility.yul\":13576:13580   */\n      0x80\n        /* \"#utility.yul\":13568:13574   */\n      dup2\n        /* \"#utility.yul\":13564:13581   */\n      add\n        /* \"#utility.yul\":13631:13637   */\n      dup2\n        /* \"#utility.yul\":13619:13629   */\n      dup2\n        /* \"#utility.yul\":13616:13638   */\n      lt\n        /* \"#utility.yul\":13611:13613   */\n      dup4\n        /* \"#utility.yul\":13599:13609   */\n      dup3\n        /* \"#utility.yul\":13596:13614   */\n      gt\n        /* \"#utility.yul\":13593:13639   */\n      or\n        /* \"#utility.yul\":13590:13662   */\n      iszero\n      tag_538\n      jumpi\n        /* \"#utility.yul\":13642:13660   */\n      tag_538\n      tag_135\n      jump\t// in\n    tag_538:\n        /* \"#utility.yul\":13682:13692   */\n      dup1\n        /* \"#utility.yul\":13678:13680   */\n      0x40\n        /* \"#utility.yul\":13671:13693   */\n      mstore\n      pop\n        /* \"#utility.yul\":13730:13732   */\n      dup3\n        /* \"#utility.yul\":13717:13733   */\n      calldataload\n        /* \"#utility.yul\":13709:13715   */\n      dup2\n        /* \"#utility.yul\":13702:13734   */\n      mstore\n        /* \"#utility.yul\":13788:13790   */\n      0x20\n        /* \"#utility.yul\":13784:13786   */\n      dup4\n        /* \"#utility.yul\":13780:13791   */\n      add\n        /* \"#utility.yul\":13767:13792   */\n      calldataload\n        /* \"#utility.yul\":13762:13764   */\n      0x20\n        /* \"#utility.yul\":13754:13760   */\n      dup3\n        /* \"#utility.yul\":13750:13765   */\n      add\n        /* \"#utility.yul\":13743:13793   */\n      mstore\n        /* \"#utility.yul\":13836:13838   */\n      0x40\n        /* \"#utility.yul\":13832:13834   */\n      dup4\n        /* \"#utility.yul\":13828:13839   */\n      add\n        /* \"#utility.yul\":13815:13840   */\n      calldataload\n        /* \"#utility.yul\":13849:13880   */\n      tag_539\n        /* \"#utility.yul\":13874:13879   */\n      dup2\n        /* \"#utility.yul\":13849:13880   */\n      tag_414\n      jump\t// in\n    tag_539:\n        /* \"#utility.yul\":13908:13910   */\n      0x40\n        /* \"#utility.yul\":13896:13911   */\n      dup3\n      add\n        /* \"#utility.yul\":13889:13919   */\n      mstore\n        /* \"#utility.yul\":13965:13967   */\n      0x60\n        /* \"#utility.yul\":13957:13968   */\n      dup4\n      add\n        /* \"#utility.yul\":13944:13969   */\n      calldataload\n        /* \"#utility.yul\":13981:13997   */\n      dup3\n      dup2\n      gt\n        /* \"#utility.yul\":13978:14014   */\n      iszero\n      tag_540\n      jumpi\n        /* \"#utility.yul\":14010:14011   */\n      0x00\n        /* \"#utility.yul\":14007:14008   */\n      dup1\n        /* \"#utility.yul\":14000:14012   */\n      revert\n        /* \"#utility.yul\":13978:14014   */\n    tag_540:\n        /* \"#utility.yul\":14047:14101   */\n      tag_541\n        /* \"#utility.yul\":14093:14100   */\n      dup8\n        /* \"#utility.yul\":14082:14090   */\n      dup3\n        /* \"#utility.yul\":14078:14080   */\n      dup7\n        /* \"#utility.yul\":14074:14091   */\n      add\n        /* \"#utility.yul\":14047:14101   */\n      tag_421\n      jump\t// in\n    tag_541:\n        /* \"#utility.yul\":14042:14044   */\n      0x60\n        /* \"#utility.yul\":14030:14045   */\n      dup4\n      add\n        /* \"#utility.yul\":14023:14102   */\n      mstore\n      pop\n        /* \"#utility.yul\":14034:14040   */\n      swap6\n        /* \"#utility.yul\":13121:14133   */\n      swap5\n      pop\n      pop\n      pop\n      pop\n      pop\n      jump\t// out\n        /* \"#utility.yul\":14138:14389   */\n    tag_97:\n        /* \"#utility.yul\":14208:14214   */\n      0x00\n        /* \"#utility.yul\":14261:14263   */\n      0x20\n        /* \"#utility.yul\":14249:14258   */\n      dup3\n        /* \"#utility.yul\":14240:14247   */\n      dup5\n        /* \"#utility.yul\":14236:14259   */\n      sub\n        /* \"#utility.yul\":14232:14264   */\n      slt\n        /* \"#utility.yul\":14229:14281   */\n      iszero\n      tag_543\n      jumpi\n        /* \"#utility.yul\":14277:14278   */\n      0x00\n        /* \"#utility.yul\":14274:14275   */\n      dup1\n        /* \"#utility.yul\":14267:14279   */\n      revert\n        /* \"#utility.yul\":14229:14281   */\n    tag_543:\n        /* \"#utility.yul\":14309:14318   */\n      dup2\n        /* \"#utility.yul\":14303:14319   */\n      mload\n        /* \"#utility.yul\":14328:14359   */\n      tag_444\n        /* \"#utility.yul\":14353:14358   */\n      dup2\n        /* \"#utility.yul\":14328:14359   */\n      tag_414\n      jump\t// in\n        /* \"#utility.yul\":14743:15089   */\n    tag_104:\n        /* \"#utility.yul\":14945:14947   */\n      0x20\n        /* \"#utility.yul\":14927:14948   */\n      dup1\n      dup3\n      mstore\n        /* \"#utility.yul\":14984:14986   */\n      0x16\n        /* \"#utility.yul\":14964:14982   */\n      swap1\n      dup3\n      add\n        /* \"#utility.yul\":14957:14987   */\n      mstore\n      shl(0x55, 0x0103ab735b5b737bbb7103232b634bb32b930b136329)\n        /* \"#utility.yul\":15018:15020   */\n      0x40\n        /* \"#utility.yul\":15003:15021   */\n      dup3\n      add\n        /* \"#utility.yul\":14996:15048   */\n      mstore\n        /* \"#utility.yul\":15080:15082   */\n      0x60\n        /* \"#utility.yul\":15065:15083   */\n      add\n      swap1\n        /* \"#utility.yul\":14743:15089   */\n      jump\t// out\n        /* \"#utility.yul\":15094:15474   */\n    tag_114:\n        /* \"#utility.yul\":15173:15174   */\n      0x01\n        /* \"#utility.yul\":15169:15181   */\n      dup2\n      dup2\n      shr\n      swap1\n        /* \"#utility.yul\":15216:15228   */\n      dup3\n      and\n      dup1\n        /* \"#utility.yul\":15237:15298   */\n      tag_548\n      jumpi\n        /* \"#utility.yul\":15291:15295   */\n      0x7f\n        /* \"#utility.yul\":15283:15289   */\n      dup3\n        /* \"#utility.yul\":15279:15296   */\n      and\n        /* \"#utility.yul\":15269:15296   */\n      swap2\n      pop\n        /* \"#utility.yul\":15237:15298   */\n    tag_548:\n        /* \"#utility.yul\":15344:15346   */\n      0x20\n        /* \"#utility.yul\":15336:15342   */\n      dup3\n        /* \"#utility.yul\":15333:15347   */\n      lt\n        /* \"#utility.yul\":15313:15331   */\n      dup2\n        /* \"#utility.yul\":15310:15348   */\n      sub\n        /* \"#utility.yul\":15307:15468   */\n      tag_166\n      jumpi\n        /* \"#utility.yul\":15390:15400   */\n      0x4e487b71\n        /* \"#utility.yul\":15385:15388   */\n      0xe0\n        /* \"#utility.yul\":15381:15401   */\n      shl\n        /* \"#utility.yul\":15378:15379   */\n      0x00\n        /* \"#utility.yul\":15371:15402   */\n      mstore\n        /* \"#utility.yul\":15425:15429   */\n      0x22\n        /* \"#utility.yul\":15422:15423   */\n      0x04\n        /* \"#utility.yul\":15415:15430   */\n      mstore\n        /* \"#utility.yul\":15453:15457   */\n      0x24\n        /* \"#utility.yul\":15450:15451   */\n      0x00\n        /* \"#utility.yul\":15443:15458   */\n      revert\n        /* \"#utility.yul\":15479:15606   */\n    tag_145:\n        /* \"#utility.yul\":15540:15550   */\n      0x4e487b71\n        /* \"#utility.yul\":15535:15538   */\n      0xe0\n        /* \"#utility.yul\":15531:15551   */\n      shl\n        /* \"#utility.yul\":15528:15529   */\n      0x00\n        /* \"#utility.yul\":15521:15552   */\n      mstore\n        /* \"#utility.yul\":15571:15575   */\n      0x32\n        /* \"#utility.yul\":15568:15569   */\n      0x04\n        /* \"#utility.yul\":15561:15576   */\n      mstore\n        /* \"#utility.yul\":15595:15599   */\n      0x24\n        /* \"#utility.yul\":15592:15593   */\n      0x00\n        /* \"#utility.yul\":15585:15600   */\n      revert\n        /* \"#utility.yul\":16496:17039   */\n    tag_424:\n        /* \"#utility.yul\":16598:16600   */\n      0x1f\n        /* \"#utility.yul\":16593:16596   */\n      dup3\n        /* \"#utility.yul\":16590:16601   */\n      gt\n        /* \"#utility.yul\":16587:17033   */\n      iszero\n      tag_555\n      jumpi\n        /* \"#utility.yul\":16634:16635   */\n      0x00\n        /* \"#utility.yul\":16658:16663   */\n      dup2\n        /* \"#utility.yul\":16655:16656   */\n      0x00\n        /* \"#utility.yul\":16648:16664   */\n      mstore\n        /* \"#utility.yul\":16702:16706   */\n      0x20\n        /* \"#utility.yul\":16699:16700   */\n      0x00\n        /* \"#utility.yul\":16689:16707   */\n      keccak256\n        /* \"#utility.yul\":16772:16774   */\n      0x1f\n        /* \"#utility.yul\":16760:16770   */\n      dup6\n        /* \"#utility.yul\":16756:16775   */\n      add\n        /* \"#utility.yul\":16753:16754   */\n      0x05\n        /* \"#utility.yul\":16749:16776   */\n      shr\n        /* \"#utility.yul\":16743:16747   */\n      dup2\n        /* \"#utility.yul\":16739:16777   */\n      add\n        /* \"#utility.yul\":16808:16812   */\n      0x20\n        /* \"#utility.yul\":16796:16806   */\n      dup7\n        /* \"#utility.yul\":16793:16813   */\n      lt\n        /* \"#utility.yul\":16790:16837   */\n      iszero\n      tag_556\n      jumpi\n      pop\n        /* \"#utility.yul\":16831:16835   */\n      dup1\n        /* \"#utility.yul\":16790:16837   */\n    tag_556:\n        /* \"#utility.yul\":16886:16888   */\n      0x1f\n        /* \"#utility.yul\":16881:16884   */\n      dup6\n        /* \"#utility.yul\":16877:16889   */\n      add\n        /* \"#utility.yul\":16874:16875   */\n      0x05\n        /* \"#utility.yul\":16870:16890   */\n      shr\n        /* \"#utility.yul\":16864:16868   */\n      dup3\n        /* \"#utility.yul\":16860:16891   */\n      add\n        /* \"#utility.yul\":16850:16891   */\n      swap2\n      pop\n        /* \"#utility.yul\":16941:17023   */\n    tag_557:\n        /* \"#utility.yul\":16959:16961   */\n      dup2\n        /* \"#utility.yul\":16952:16957   */\n      dup2\n        /* \"#utility.yul\":16949:16962   */\n      lt\n        /* \"#utility.yul\":16941:17023   */\n      iszero\n      tag_559\n      jumpi\n        /* \"#utility.yul\":17004:17021   */\n      dup3\n      dup2\n      sstore\n        /* \"#utility.yul\":16985:16986   */\n      0x01\n        /* \"#utility.yul\":16974:16987   */\n      add\n        /* \"#utility.yul\":16941:17023   */\n      jump(tag_557)\n    tag_559:\n        /* \"#utility.yul\":16945:16948   */\n      pop\n      pop\n      pop\n        /* \"#utility.yul\":16587:17033   */\n    tag_555:\n        /* \"#utility.yul\":16496:17039   */\n      pop\n      pop\n      pop\n      jump\t// out\n        /* \"#utility.yul\":17215:18560   */\n    tag_193:\n        /* \"#utility.yul\":17341:17344   */\n      dup2\n        /* \"#utility.yul\":17335:17345   */\n      mload\n      sub(shl(0x40, 0x01), 0x01)\n        /* \"#utility.yul\":17360:17366   */\n      dup2\n        /* \"#utility.yul\":17357:17387   */\n      gt\n        /* \"#utility.yul\":17354:17410   */\n      iszero\n      tag_563\n      jumpi\n        /* \"#utility.yul\":17390:17408   */\n      tag_563\n      tag_135\n      jump\t// in\n    tag_563:\n        /* \"#utility.yul\":17419:17516   */\n      tag_564\n        /* \"#utility.yul\":17509:17515   */\n      dup2\n        /* \"#utility.yul\":17469:17507   */\n      tag_565\n        /* \"#utility.yul\":17501:17505   */\n      dup5\n        /* \"#utility.yul\":17495:17506   */\n      sload\n        /* \"#utility.yul\":17469:17507   */\n      tag_114\n      jump\t// in\n    tag_565:\n        /* \"#utility.yul\":17463:17467   */\n      dup5\n        /* \"#utility.yul\":17419:17516   */\n      tag_424\n      jump\t// in\n    tag_564:\n        /* \"#utility.yul\":17571:17575   */\n      0x20\n      dup1\n        /* \"#utility.yul\":17628:17630   */\n      0x1f\n        /* \"#utility.yul\":17617:17631   */\n      dup4\n      gt\n        /* \"#utility.yul\":17645:17646   */\n      0x01\n        /* \"#utility.yul\":17640:18303   */\n      dup2\n      eq\n      tag_567\n      jumpi\n        /* \"#utility.yul\":18347:18348   */\n      0x00\n        /* \"#utility.yul\":18364:18370   */\n      dup5\n        /* \"#utility.yul\":18361:18450   */\n      iszero\n      tag_568\n      jumpi\n      pop\n        /* \"#utility.yul\":18416:18435   */\n      dup6\n      dup4\n      add\n        /* \"#utility.yul\":18410:18436   */\n      mload\n        /* \"#utility.yul\":18361:18450   */\n    tag_568:\n      not(0x00)\n        /* \"#utility.yul\":17172:17173   */\n      0x03\n        /* \"#utility.yul\":17168:17179   */\n      dup7\n      swap1\n      shl\n        /* \"#utility.yul\":17164:17188   */\n      shr\n        /* \"#utility.yul\":17160:17189   */\n      not\n        /* \"#utility.yul\":17150:17190   */\n      and\n        /* \"#utility.yul\":17196:17197   */\n      0x01\n        /* \"#utility.yul\":17192:17203   */\n      dup6\n      swap1\n      shl\n        /* \"#utility.yul\":17147:17204   */\n      or\n        /* \"#utility.yul\":18463:18544   */\n      dup6\n      sstore\n        /* \"#utility.yul\":17610:18554   */\n      jump(tag_559)\n        /* \"#utility.yul\":17640:18303   */\n    tag_567:\n        /* \"#utility.yul\":16443:16444   */\n      0x00\n        /* \"#utility.yul\":16436:16450   */\n      dup6\n      dup2\n      mstore\n        /* \"#utility.yul\":16480:16484   */\n      0x20\n        /* \"#utility.yul\":16467:16485   */\n      dup2\n      keccak256\n      not(0x1f)\n        /* \"#utility.yul\":17676:17696   */\n      dup7\n      and\n      swap2\n        /* \"#utility.yul\":17794:18030   */\n    tag_571:\n        /* \"#utility.yul\":17808:17815   */\n      dup3\n        /* \"#utility.yul\":17805:17806   */\n      dup2\n        /* \"#utility.yul\":17802:17816   */\n      lt\n        /* \"#utility.yul\":17794:18030   */\n      iszero\n      tag_573\n      jumpi\n        /* \"#utility.yul\":17897:17916   */\n      dup9\n      dup7\n      add\n        /* \"#utility.yul\":17891:17917   */\n      mload\n        /* \"#utility.yul\":17876:17918   */\n      dup3\n      sstore\n        /* \"#utility.yul\":17989:18016   */\n      swap5\n      dup5\n      add\n      swap5\n        /* \"#utility.yul\":17957:17958   */\n      0x01\n        /* \"#utility.yul\":17945:17959   */\n      swap1\n      swap2\n      add\n      swap1\n        /* \"#utility.yul\":17824:17843   */\n      dup5\n      add\n        /* \"#utility.yul\":17794:18030   */\n      jump(tag_571)\n    tag_573:\n        /* \"#utility.yul\":17798:17801   */\n      pop\n        /* \"#utility.yul\":18058:18064   */\n      dup6\n        /* \"#utility.yul\":18049:18056   */\n      dup3\n        /* \"#utility.yul\":18046:18065   */\n      lt\n        /* \"#utility.yul\":18043:18244   */\n      iszero\n      tag_574\n      jumpi\n        /* \"#utility.yul\":18119:18138   */\n      dup8\n      dup6\n      add\n        /* \"#utility.yul\":18113:18139   */\n      mload\n      not(0x00)\n        /* \"#utility.yul\":18202:18203   */\n      0x03\n        /* \"#utility.yul\":18198:18212   */\n      dup9\n      swap1\n      shl\n        /* \"#utility.yul\":18214:18217   */\n      0xf8\n        /* \"#utility.yul\":18194:18218   */\n      and\n        /* \"#utility.yul\":18190:18227   */\n      shr\n        /* \"#utility.yul\":18186:18228   */\n      not\n        /* \"#utility.yul\":18171:18229   */\n      and\n        /* \"#utility.yul\":18156:18230   */\n      dup2\n      sstore\n        /* \"#utility.yul\":18043:18244   */\n    tag_574:\n      pop\n      pop\n      pop\n      pop\n      pop\n        /* \"#utility.yul\":18290:18291   */\n      0x01\n        /* \"#utility.yul\":18274:18288   */\n      swap1\n      dup2\n      shl\n        /* \"#utility.yul\":18270:18292   */\n      add\n        /* \"#utility.yul\":18257:18293   */\n      swap1\n      sstore\n      pop\n        /* \"#utility.yul\":17215:18560   */\n      jump\t// out\n        /* \"#utility.yul\":18565:18909   */\n    tag_217:\n        /* \"#utility.yul\":18767:18769   */\n      0x20\n        /* \"#utility.yul\":18749:18770   */\n      dup1\n      dup3\n      mstore\n        /* \"#utility.yul\":18806:18808   */\n      0x14\n        /* \"#utility.yul\":18786:18804   */\n      swap1\n      dup3\n      add\n        /* \"#utility.yul\":18779:18809   */\n      mstore\n      shl(0x65, 0x010383937b532b1ba1030b236b4b71037b7363c9)\n        /* \"#utility.yul\":18840:18842   */\n      0x40\n        /* \"#utility.yul\":18825:18843   */\n      dup3\n      add\n        /* \"#utility.yul\":18818:18868   */\n      mstore\n        /* \"#utility.yul\":18900:18902   */\n      0x60\n        /* \"#utility.yul\":18885:18903   */\n      add\n      swap1\n        /* \"#utility.yul\":18565:18909   */\n      jump\t// out\n        /* \"#utility.yul\":18914:19041   */\n    tag_426:\n        /* \"#utility.yul\":18975:18985   */\n      0x4e487b71\n        /* \"#utility.yul\":18970:18973   */\n      0xe0\n        /* \"#utility.yul\":18966:18986   */\n      shl\n        /* \"#utility.yul\":18963:18964   */\n      0x00\n        /* \"#utility.yul\":18956:18987   */\n      mstore\n        /* \"#utility.yul\":19006:19010   */\n      0x11\n        /* \"#utility.yul\":19003:19004   */\n      0x04\n        /* \"#utility.yul\":18996:19011   */\n      mstore\n        /* \"#utility.yul\":19030:19034   */\n      0x24\n        /* \"#utility.yul\":19027:19028   */\n      0x00\n        /* \"#utility.yul\":19020:19035   */\n      revert\n        /* \"#utility.yul\":19046:19246   */\n    tag_242:\n        /* \"#utility.yul\":19112:19121   */\n      dup2\n      dup2\n      sub\n        /* \"#utility.yul\":19085:19089   */\n      0x00\n        /* \"#utility.yul\":19140:19149   */\n      dup4\n      slt\n        /* \"#utility.yul\":19168:19178   */\n      dup1\n      iszero\n        /* \"#utility.yul\":19180:19192   */\n      dup4\n      dup4\n      sgt\n        /* \"#utility.yul\":19164:19193   */\n      and\n        /* \"#utility.yul\":19203:19215   */\n      dup4\n      dup4\n      slt\n        /* \"#utility.yul\":19195:19216   */\n      dup3\n      and\n        /* \"#utility.yul\":19161:19217   */\n      or\n        /* \"#utility.yul\":19158:19240   */\n      iszero\n      tag_579\n      jumpi\n        /* \"#utility.yul\":19220:19238   */\n      tag_579\n      tag_426\n      jump\t// in\n    tag_579:\n        /* \"#utility.yul\":19158:19240   */\n      pop\n        /* \"#utility.yul\":19046:19246   */\n      swap3\n      swap2\n      pop\n      pop\n      jump\t// out\n        /* \"#utility.yul\":19251:19386   */\n    tag_275:\n        /* \"#utility.yul\":19290:19293   */\n      0x00\n        /* \"#utility.yul\":19311:19328   */\n      0x01\n      dup3\n      add\n        /* \"#utility.yul\":19308:19351   */\n      tag_582\n      jumpi\n        /* \"#utility.yul\":19331:19349   */\n      tag_582\n      tag_426\n      jump\t// in\n    tag_582:\n      pop\n        /* \"#utility.yul\":19378:19379   */\n      0x01\n        /* \"#utility.yul\":19367:19380   */\n      add\n      swap1\n        /* \"#utility.yul\":19251:19386   */\n      jump\t// out\n        /* \"#utility.yul\":19944:20221   */\n    tag_304:\n        /* \"#utility.yul\":20011:20017   */\n      0x00\n        /* \"#utility.yul\":20064:20066   */\n      0x20\n        /* \"#utility.yul\":20052:20061   */\n      dup3\n        /* \"#utility.yul\":20043:20050   */\n      dup5\n        /* \"#utility.yul\":20039:20062   */\n      sub\n        /* \"#utility.yul\":20035:20067   */\n      slt\n        /* \"#utility.yul\":20032:20084   */\n      iszero\n      tag_588\n      jumpi\n        /* \"#utility.yul\":20080:20081   */\n      0x00\n        /* \"#utility.yul\":20077:20078   */\n      dup1\n        /* \"#utility.yul\":20070:20082   */\n      revert\n        /* \"#utility.yul\":20032:20084   */\n    tag_588:\n        /* \"#utility.yul\":20112:20121   */\n      dup2\n        /* \"#utility.yul\":20106:20122   */\n      mload\n        /* \"#utility.yul\":20165:20170   */\n      dup1\n        /* \"#utility.yul\":20158:20171   */\n      iszero\n        /* \"#utility.yul\":20151:20172   */\n      iszero\n        /* \"#utility.yul\":20144:20149   */\n      dup2\n        /* \"#utility.yul\":20141:20173   */\n      eq\n        /* \"#utility.yul\":20131:20191   */\n      tag_444\n      jumpi\n        /* \"#utility.yul\":20187:20188   */\n      0x00\n        /* \"#utility.yul\":20184:20185   */\n      dup1\n        /* \"#utility.yul\":20177:20189   */\n      revert\n        /* \"#utility.yul\":20856:22509   */\n    tag_342:\n        /* \"#utility.yul\":20948:20954   */\n      0x00\n        /* \"#utility.yul\":20979:20981   */\n      0x20\n        /* \"#utility.yul\":21022:21024   */\n      dup1\n        /* \"#utility.yul\":21010:21019   */\n      dup4\n        /* \"#utility.yul\":21001:21008   */\n      dup6\n        /* \"#utility.yul\":20997:21020   */\n      sub\n        /* \"#utility.yul\":20993:21025   */\n      slt\n        /* \"#utility.yul\":20990:21042   */\n      iszero\n      tag_593\n      jumpi\n        /* \"#utility.yul\":21038:21039   */\n      0x00\n        /* \"#utility.yul\":21035:21036   */\n      dup1\n        /* \"#utility.yul\":21028:21040   */\n      revert\n        /* \"#utility.yul\":20990:21042   */\n    tag_593:\n        /* \"#utility.yul\":21071:21080   */\n      dup3\n        /* \"#utility.yul\":21065:21081   */\n      mload\n      sub(shl(0x40, 0x01), 0x01)\n        /* \"#utility.yul\":21141:21143   */\n      dup1\n        /* \"#utility.yul\":21133:21139   */\n      dup3\n        /* \"#utility.yul\":21130:21144   */\n      gt\n        /* \"#utility.yul\":21127:21161   */\n      iszero\n      tag_594\n      jumpi\n        /* \"#utility.yul\":21157:21158   */\n      0x00\n        /* \"#utility.yul\":21154:21155   */\n      dup1\n        /* \"#utility.yul\":21147:21159   */\n      revert\n        /* \"#utility.yul\":21127:21161   */\n    tag_594:\n        /* \"#utility.yul\":21180:21202   */\n      swap1\n      dup5\n      add\n      swap1\n        /* \"#utility.yul\":21236:21240   */\n      0xc0\n        /* \"#utility.yul\":21218:21234   */\n      dup3\n      dup8\n      sub\n        /* \"#utility.yul\":21214:21241   */\n      slt\n        /* \"#utility.yul\":21211:21258   */\n      iszero\n      tag_595\n      jumpi\n        /* \"#utility.yul\":21254:21255   */\n      0x00\n        /* \"#utility.yul\":21251:21252   */\n      dup1\n        /* \"#utility.yul\":21244:21256   */\n      revert\n        /* \"#utility.yul\":21211:21258   */\n    tag_595:\n        /* \"#utility.yul\":21280:21302   */\n      tag_596\n      tag_417\n      jump\t// in\n    tag_596:\n        /* \"#utility.yul\":21331:21333   */\n      dup3\n        /* \"#utility.yul\":21325:21334   */\n      mload\n        /* \"#utility.yul\":21318:21323   */\n      dup2\n        /* \"#utility.yul\":21311:21335   */\n      mstore\n        /* \"#utility.yul\":21373:21375   */\n      dup4\n        /* \"#utility.yul\":21369:21371   */\n      dup4\n        /* \"#utility.yul\":21365:21376   */\n      add\n        /* \"#utility.yul\":21359:21377   */\n      mload\n        /* \"#utility.yul\":21386:21419   */\n      tag_597\n        /* \"#utility.yul\":21411:21418   */\n      dup2\n        /* \"#utility.yul\":21386:21419   */\n      tag_414\n      jump\t// in\n    tag_597:\n        /* \"#utility.yul\":21435:21449   */\n      dup2\n      dup6\n      add\n        /* \"#utility.yul\":21428:21459   */\n      mstore\n        /* \"#utility.yul\":21497:21499   */\n      0x40\n        /* \"#utility.yul\":21489:21500   */\n      dup4\n      add\n        /* \"#utility.yul\":21483:21501   */\n      mload\n        /* \"#utility.yul\":21510:21543   */\n      tag_598\n        /* \"#utility.yul\":21483:21501   */\n      dup2\n        /* \"#utility.yul\":21510:21543   */\n      tag_414\n      jump\t// in\n    tag_598:\n        /* \"#utility.yul\":21570:21572   */\n      0x40\n        /* \"#utility.yul\":21559:21573   */\n      dup3\n      add\n        /* \"#utility.yul\":21552:21583   */\n      mstore\n        /* \"#utility.yul\":21622:21624   */\n      0x60\n        /* \"#utility.yul\":21614:21625   */\n      dup4\n      add\n        /* \"#utility.yul\":21608:21626   */\n      mload\n        /* \"#utility.yul\":21638:21654   */\n      dup3\n      dup2\n      gt\n        /* \"#utility.yul\":21635:21671   */\n      iszero\n      tag_599\n      jumpi\n        /* \"#utility.yul\":21667:21668   */\n      0x00\n        /* \"#utility.yul\":21664:21665   */\n      dup1\n        /* \"#utility.yul\":21657:21669   */\n      revert\n        /* \"#utility.yul\":21635:21671   */\n    tag_599:\n        /* \"#utility.yul\":21690:21707   */\n      dup4\n      add\n        /* \"#utility.yul\":21741:21743   */\n      0x40\n        /* \"#utility.yul\":21723:21739   */\n      dup2\n      dup10\n      sub\n        /* \"#utility.yul\":21719:21744   */\n      slt\n        /* \"#utility.yul\":21716:21761   */\n      iszero\n      tag_600\n      jumpi\n        /* \"#utility.yul\":21757:21758   */\n      0x00\n        /* \"#utility.yul\":21754:21755   */\n      dup1\n        /* \"#utility.yul\":21747:21759   */\n      revert\n        /* \"#utility.yul\":21716:21761   */\n    tag_600:\n        /* \"#utility.yul\":21785:21807   */\n      tag_601\n      tag_415\n      jump\t// in\n    tag_601:\n        /* \"#utility.yul\":21838:21840   */\n      dup2\n        /* \"#utility.yul\":21832:21841   */\n      mload\n        /* \"#utility.yul\":21823:21830   */\n      dup2\n        /* \"#utility.yul\":21816:21842   */\n      mstore\n        /* \"#utility.yul\":21881:21883   */\n      dup6\n        /* \"#utility.yul\":21877:21879   */\n      dup3\n        /* \"#utility.yul\":21873:21884   */\n      add\n        /* \"#utility.yul\":21867:21885   */\n      mload\n        /* \"#utility.yul\":21910:21912   */\n      dup5\n        /* \"#utility.yul\":21900:21908   */\n      dup2\n        /* \"#utility.yul\":21897:21913   */\n      gt\n        /* \"#utility.yul\":21894:21930   */\n      iszero\n      tag_602\n      jumpi\n        /* \"#utility.yul\":21926:21927   */\n      0x00\n        /* \"#utility.yul\":21923:21924   */\n      dup1\n        /* \"#utility.yul\":21916:21928   */\n      revert\n        /* \"#utility.yul\":21894:21930   */\n    tag_602:\n        /* \"#utility.yul\":21949:21966   */\n      dup3\n      add\n      swap4\n      pop\n        /* \"#utility.yul\":21997:22001   */\n      0x1f\n        /* \"#utility.yul\":21989:22002   */\n      dup5\n      add\n        /* \"#utility.yul\":21985:22012   */\n      dup10\n      sgt\n        /* \"#utility.yul\":21975:22030   */\n      tag_603\n      jumpi\n        /* \"#utility.yul\":22026:22027   */\n      0x00\n        /* \"#utility.yul\":22023:22024   */\n      dup1\n        /* \"#utility.yul\":22016:22028   */\n      revert\n        /* \"#utility.yul\":21975:22030   */\n    tag_603:\n        /* \"#utility.yul\":22055:22057   */\n      dup4\n        /* \"#utility.yul\":22049:22058   */\n      mload\n        /* \"#utility.yul\":22039:22058   */\n      swap2\n      pop\n        /* \"#utility.yul\":22080:22129   */\n      tag_604\n        /* \"#utility.yul\":22096:22128   */\n      tag_506\n        /* \"#utility.yul\":22125:22127   */\n      dup4\n        /* \"#utility.yul\":22096:22128   */\n      tag_419\n      jump\t// in\n        /* \"#utility.yul\":22080:22129   */\n    tag_604:\n        /* \"#utility.yul\":22152:22154   */\n      dup3\n        /* \"#utility.yul\":22145:22150   */\n      dup2\n        /* \"#utility.yul\":22138:22155   */\n      mstore\n        /* \"#utility.yul\":22192:22199   */\n      dup10\n        /* \"#utility.yul\":22187:22189   */\n      dup8\n        /* \"#utility.yul\":22182:22184   */\n      dup5\n        /* \"#utility.yul\":22178:22180   */\n      dup8\n        /* \"#utility.yul\":22174:22185   */\n      add\n        /* \"#utility.yul\":22170:22190   */\n      add\n        /* \"#utility.yul\":22167:22200   */\n      gt\n        /* \"#utility.yul\":22164:22217   */\n      iszero\n      tag_606\n      jumpi\n        /* \"#utility.yul\":22213:22214   */\n      0x00\n        /* \"#utility.yul\":22210:22211   */\n      dup1\n        /* \"#utility.yul\":22203:22215   */\n      revert\n        /* \"#utility.yul\":22164:22217   */\n    tag_606:\n        /* \"#utility.yul\":22226:22293   */\n      tag_607\n        /* \"#utility.yul\":22290:22292   */\n      dup4\n        /* \"#utility.yul\":22285:22287   */\n      dup9\n        /* \"#utility.yul\":22278:22283   */\n      dup4\n        /* \"#utility.yul\":22274:22288   */\n      add\n        /* \"#utility.yul\":22269:22271   */\n      dup10\n        /* \"#utility.yul\":22265:22267   */\n      dup9\n        /* \"#utility.yul\":22261:22272   */\n      add\n        /* \"#utility.yul\":22226:22293   */\n      tag_406\n      jump\t// in\n    tag_607:\n        /* \"#utility.yul\":22309:22325   */\n      swap6\n      dup2\n      add\n        /* \"#utility.yul\":22302:22333   */\n      swap6\n      swap1\n      swap6\n      mstore\n      pop\n        /* \"#utility.yul\":22360:22362   */\n      0x60\n        /* \"#utility.yul\":22349:22363   */\n      dup2\n      add\n        /* \"#utility.yul\":22342:22373   */\n      swap4\n      swap1\n      swap4\n      mstore\n      pop\n        /* \"#utility.yul\":22420:22423   */\n      0x80\n        /* \"#utility.yul\":22412:22424   */\n      dup2\n      dup2\n      add\n        /* \"#utility.yul\":22406:22425   */\n      mload\n        /* \"#utility.yul\":22389:22404   */\n      swap1\n      dup4\n      add\n        /* \"#utility.yul\":22382:22426   */\n      mstore\n        /* \"#utility.yul\":22473:22476   */\n      0xa0\n        /* \"#utility.yul\":22465:22477   */\n      swap1\n      dup2\n      add\n        /* \"#utility.yul\":22459:22478   */\n      mload\n        /* \"#utility.yul\":22442:22457   */\n      swap1\n      dup3\n      add\n        /* \"#utility.yul\":22435:22479   */\n      mstore\n        /* \"#utility.yul\":22353:22358   */\n      swap4\n        /* \"#utility.yul\":20856:22509   */\n      swap3\n      pop\n      pop\n      pop\n      jump\t// out\n        /* \"#utility.yul\":22722:22906   */\n    tag_348:\n        /* \"#utility.yul\":22792:22798   */\n      0x00\n        /* \"#utility.yul\":22845:22847   */\n      0x20\n        /* \"#utility.yul\":22833:22842   */\n      dup3\n        /* \"#utility.yul\":22824:22831   */\n      dup5\n        /* \"#utility.yul\":22820:22843   */\n      sub\n        /* \"#utility.yul\":22816:22848   */\n      slt\n        /* \"#utility.yul\":22813:22865   */\n      iszero\n      tag_610\n      jumpi\n        /* \"#utility.yul\":22861:22862   */\n      0x00\n        /* \"#utility.yul\":22858:22859   */\n      dup1\n        /* \"#utility.yul\":22851:22863   */\n      revert\n        /* \"#utility.yul\":22813:22865   */\n    tag_610:\n      pop\n        /* \"#utility.yul\":22884:22900   */\n      mload\n      swap2\n        /* \"#utility.yul\":22722:22906   */\n      swap1\n      pop\n      jump\t// out\n        /* \"#utility.yul\":23318:23443   */\n    tag_388:\n        /* \"#utility.yul\":23383:23392   */\n      dup1\n      dup3\n      add\n        /* \"#utility.yul\":23404:23414   */\n      dup1\n      dup3\n      gt\n        /* \"#utility.yul\":23401:23437   */\n      iszero\n      tag_101\n      jumpi\n        /* \"#utility.yul\":23417:23435   */\n      tag_101\n      tag_426\n      jump\t// in\n\n    auxdata: 0xa264697066735822122084f150651cbf92cda80983dd479de02f87c4355438706c814b9867b58efe462264736f6c63430008170033\n}\n",
				"bytecode": {
					"linkReferences": {},
					"object": "60a06040523480156200001157600080fd5b5060405162002db438038062002db48339810160408190526200003491620000d1565b600280546001600160a01b0319166001600160a01b03891617905560038690556004859055608084905260006200006c848262000285565b50600191909155600580546001600160a01b0319166001600160a01b0390921691909117905550620003519350505050565b80516001600160a01b0381168114620000b657600080fd5b919050565b634e487b7160e01b600052604160045260246000fd5b600080600080600080600060e0888a031215620000ed57600080fd5b620000f8886200009e565b60208981015160408b015160608c015160808d0151949b5091995097509550906001600160401b03808211156200012e57600080fd5b818b0191508b601f8301126200014357600080fd5b815181811115620001585762000158620000bb565b604051601f8201601f19908116603f01168101908382118183101715620001835762000183620000bb565b816040528281528e868487010111156200019c57600080fd5b600093505b82841015620001c05784840186015181850187015292850192620001a1565b600086848301015280985050505050505060a08801519150620001e660c089016200009e565b905092959891949750929550565b600181811c908216806200020957607f821691505b6020821081036200022a57634e487b7160e01b600052602260045260246000fd5b50919050565b601f82111562000280576000816000526020600020601f850160051c810160208610156200025b5750805b601f850160051c820191505b818110156200027c5782815560010162000267565b5050505b505050565b81516001600160401b03811115620002a157620002a1620000bb565b620002b981620002b28454620001f4565b8462000230565b602080601f831160018114620002f15760008415620002d85750858301515b600019600386901b1c1916600185901b1785556200027c565b600085815260208120601f198616915b82811015620003225788860151825594840194600190910190840162000301565b5085821015620003415787850151600019600388901b60f8161c191681555b5050505050600190811b01905550565b608051612a326200038260003960008181610b4e01528181610d1a01528181610fa601526117c00152612a326000f3fe608060405234801561001057600080fd5b50600436106100f55760003560e01c80633ba94ed811610097578063caffe06111610066578063caffe06114610214578063f2aa76aa14610227578063f3cda72c1461023a578063f96baedc1461024d57600080fd5b80633ba94ed8146101c4578063779a5a7f146101d95780638e2c093d146101ec578063a91050c41461020157600080fd5b8063190fdcbd116100d3578063190fdcbd1461015c5780631fae35d41461017c5780632890ee5c146101915780633280c215146101b157600080fd5b806304c325be146100fa5780630d8e6e2c1461012257806317d7de7c14610133575b600080fd5b61010d610108366004611eef565b610260565b60405190151581526020015b60405180910390f35b60025b604051908152602001610119565b6040805180820182526007815266141493d29150d560ca1b602082015290516101199190611f6f565b61016f61016a366004611f89565b6103cd565b6040516101199190611ffd565b6101846105c4565b60405161011991906120c6565b6101a461019f366004611f89565b6107db565b604051610119919061217a565b61010d6101bf366004611f89565b6108d6565b6101cc610cb9565b6040516101199190612203565b6101a46101e73660046122bf565b610e41565b6101f4610ebe565b60405161011991906122dc565b61012561020f36600461251d565b610f16565b610125610222366004611f89565b61112d565b61010d610235366004612561565b61116e565b61010d610248366004612595565b6111db565b61012561025b3660046125b7565b6113b0565b600254604080518082018252601e81527f52455345525645445f4d5f415f44454c49564552595f535452415445475900006020820152905163bf40fac160e01b81526000926001600160a01b03169163bf40fac1916102c29190600401611f6f565b602060405180830381865afa1580156102df573d6000803e3d6000fd5b505050506040513d601f19601f820116820180604052508101906103039190612662565b6001600160a01b0316336001600160a01b03161461035f5760405162461bcd60e51b81526020600482015260146024820152737061796f7574207374726174656779206f6e6c7960601b60448201526064015b60405180910390fd5b60008381526010602052604090205460ff1661038d5760405162461bcd60e51b81526004016103569061267f565b6000838152601160205260409020600601805483919061ff0019166101008360048111156103bd576103bd611fc9565b0217905550600190505b92915050565b6103d5611d9c565b601160008381526020019081526020016000206040518060e0016040529081600082015481526020016001820154815260200160028201548152602001600382018054610421906126af565b80601f016020809104026020016040519081016040528092919081815260200182805461044d906126af565b801561049a5780601f1061046f5761010080835404028352916020019161049a565b820191906000526020600020905b81548152906001019060200180831161047d57829003601f168201915b5050505050815260200160048201604051806040016040529081600082015481526020016001820180546104cd906126af565b80601f01602080910402602001604051908101604052809291908181526020018280546104f9906126af565b80156105465780601f1061051b57610100808354040283529160200191610546565b820191906000526020600020905b81548152906001019060200180831161052957829003601f168201915b505050919092525050508152600682015460209091019060ff16600481111561057157610571611fc9565b600481111561058257610582611fc9565b81526020016006820160019054906101000a900460ff1660048111156105aa576105aa611fc9565b60048111156105bb576105bb611fc9565b90525092915050565b6008546060906001600160401b038111156105e1576105e16122ef565b60405190808252806020026020018201604052801561061a57816020015b610607611df4565b8152602001906001900390816105ff5790505b50905060005b81518110156107d7576014600060088381548110610640576106406126e3565b906000526020600020015481526020019081526020016000206040518060e0016040529081600082015481526020016001820160405180608001604052908160008201548152602001600182015481526020016002820160009054906101000a90046001600160a01b03166001600160a01b03166001600160a01b0316815260200160038201604051806040016040529081600082015481526020016001820180546106eb906126af565b80601f0160208091040260200160405190810160405280929190818152602001828054610717906126af565b80156107645780601f1061073957610100808354040283529160200191610764565b820191906000526020600020905b81548152906001019060200180831161074757829003601f168201915b50505091909252505050905250815260068201546020820152600782015460408201526008820154606082015260098201546080820152600a909101546001600160a01b031660a09091015282518390839081106107c4576107c46126e3565b6020908102919091010152600101610620565b5090565b6107e3611e37565b6000828152600b602090815260409182902082516080810184528154815260018201548184015260028201546001600160a01b0316818501528351808501909452600382018054855260048301805492959394606087019493908401919061084a906126af565b80601f0160208091040260200160405190810160405280929190818152602001828054610876906126af565b80156108c35780601f10610898576101008083540402835291602001916108c3565b820191906000526020600020905b8154815290600101906020018083116108a657829003601f168201915b5050509190925250505090525092915050565b6000818152600e60209081526040808320548352600b90915281206002015482906001600160a01b0316331461094e5760405162461bcd60e51b815260206004820152601b60248201527f2064656c6976657261626c652061737369676e6565206f6e6c792000000000006044820152606401610356565b60008381526010602052604090205460ff1661097c5760405162461bcd60e51b81526004016103569061267f565b60008381526011602052604090206006015460ff1660048160048111156109a5576109a5611fc9565b1415806109c4575060038160048111156109c1576109c1611fc9565b14155b610a1b5760405162461bcd60e51b815260206004820152602260248201527f44656c6976657261626c652073757370656e646564206f722063616e63656c6c604482015261195960f21b6064820152608401610356565b6000848152601160205260408120600601805461ffff1916610102179055610a416114ff565b6040805160e0810182528281526000888152600e6020908152838220548252600b81529083902083516080810185528154815260018201548184015260028201546001600160a01b0316818601528451808601909552600382018054865260048301805497985094968488019692959394606087019490840191610ac4906126af565b80601f0160208091040260200160405190810160405280929190818152602001828054610af0906126af565b8015610b3d5780601f10610b1257610100808354040283529160200191610b3d565b820191906000526020600020905b815481529060010190602001808311610b2057829003601f168201915b5050509190925250505090525081527f00000000000000000000000000000000000000000000000000000000000000006020808301919091526004805460408085019190915260608085018b905260008b8152601185528281206002908101546080880152600580546001600160a01b0390811660a090990198909852898352601487529184902088518155888701518051600183019081558189015193830193909355948501516003820180546001600160a01b03191691909916179097559183015180519487019485559485015192949193919290860190610c21908261274a565b50505050604083015160068301555060608201516007820155608082015160088083019190915560a0830151600983015560c090920151600a90910180546001600160a01b0319166001600160a01b039092169190911790558054600181810183556000929092527ff3f7a9fe364faab93b216da50a3214154f22a0a2b415b23a84c8169e8b636ee301919091559250505b50919050565b610d0d6040518061010001604052806000815260200160608152602001600081526020016000801916815260200160006001600160a01b031681526020016000815260200160608152602001606081525090565b60408051610100810182527f00000000000000000000000000000000000000000000000000000000000000008152815180830183526007815266141493d29150d560ca1b602082810191909152808301919091526003548284015260045460608301526005546001600160a01b0316608083015260015460a0830152600f8054845181840281018401909552808552929360c08501939092830182828015610dd457602002820191906000526020600020905b815481526020019060010190808311610dc0575b505050505081526020016007805480602002602001604051908101604052809291908181526020018280548015610e3457602002820191906000526020600020905b81546001600160a01b03168152600190910190602001808311610e16575b5050505050815250905090565b610e49611e37565b6001600160a01b038083166000908152600c60209081526040808320548352600b82529182902082516080810184528154815260018201548184015260028201549094168484015282518084019093526003810180548452600482018054929460608701949093908401919061084a906126af565b60606006805480602002602001604051908101604052809291908181526020018280548015610f0c57602002820191906000526020600020905b815481526020019060010190808311610ef8575b5050505050905090565b6000610f2133611519565b610f3d5760405162461bcd60e51b815260040161035690612809565b6000610f476114ff565b6000818152601060209081526040808320805460ff19166001908117909155600f805491820181559093527f8d1108e10bcb7c27dddfc02ed9d693a074039d026cf4ea4240b40f7d581ac802909201839055815160e0810183528381527f0000000000000000000000000000000000000000000000000000000000000000918101919091528682015191810191909152606080870151908201526080808701519082015260a080870151929350909190820190600481111561100b5761100b611fc9565b81526020018560c00151600481111561102657611026611fc9565b90526000828152601160209081526040918290208351815590830151600182015590820151600282015560608201516003820190611064908261274a565b50608082015180516004830190815560208201516005840190611087908261274a565b50505060a082015160068201805460ff191660018360048111156110ad576110ad611fc9565b021790555060c082015160068201805461ff0019166101008360048111156110d7576110d7611fc9565b021790555050506000838152600d60209081526040808320805460018101825590845282842001849055838352600e909152902083905561111881856117ab565b506111216118f4565b5050600f549392505050565b600061113833611519565b6111545760405162461bcd60e51b815260040161035690612809565b600154611161908361284d565b600183905590505b919050565b600061117933611519565b6111955760405162461bcd60e51b815260040161035690612809565b815160009081526010602052604090205460ff166111c55760405162461bcd60e51b81526004016103569061267f565b81516111d190836117ab565b9050610cb36118f4565b60006111e633611519565b6112025760405162461bcd60e51b815260040161035690612809565b6000838152600e60209081526040808320805490869055858452600d8352818420805460018101825590855283852001879055808452818420805483518186028101860190945280845291949390919083018282801561128157602002820191906000526020600020905b81548152602001906001019080831161126d575b5050505050905060018151111561137b57600081516001600160401b038111156112ad576112ad6122ef565b6040519080825280602002602001820160405280156112d6578160200160208202803683370190505b5090506000805b835181101561135357878482815181106112f9576112f96126e3565b60200260200101511461134b57838181518110611318576113186126e3565b6020026020010151838381518110611332576113326126e3565b60209081029190910101528161134781612874565b9250505b6001016112dd565b506000848152600d60209081526040909120835161137392850190611e7d565b5050506113a5565b6040805160008082526020808301808552868352600d90915292902090516113a39290611e7d565b505b506001949350505050565b6000806113bb6114ff565b600680546001808201835560009283527ff652222313e28459528d920b65115c16c04f3efc82aaedc97be59f3f377c0d3f90910183905560408051608081018252848152602088810151818301908152898401516001600160a01b039081168486019081526060808d0151908601908152898952600b8552959097208451815591519582019590955594516002860180546001600160a01b031916919095161790935590518051600385019081559281015194955090939091906004840190611484908261274a565b5050505060409384018051600780546001808201835560009283527fa66cc928b5edb82af9bd49922954155ab7b0942694bea4ce44661d9a8736c68890910180546001600160a01b0319166001600160a01b0394851617905592519091168152600960205294909420805460ff191690941790935550919050565b60158054908190600061151183612874565b919050555090565b600254604080518082018252601281527152455345525645445f414c4c4f5f434f524560701b6020820152905163bf40fac160e01b815260009283926001600160a01b039091169163bf40fac19161157391600401611f6f565b602060405180830381865afa158015611590573d6000803e3d6000fd5b505050506040513d601f19601f820116820180604052508101906115b49190612662565b90506000816001600160a01b0316635ab1bd536040518163ffffffff1660e01b8152600401602060405180830381865afa1580156115f6573d6000803e3d6000fd5b505050506040513d601f19601f8201168201806040525081019061161a9190612662565b6003546040516329e40d4b60e01b81529192506001600160a01b038416916329e40d4b9161165e9188906004019182526001600160a01b0316602082015260400190565b602060405180830381865afa15801561167b573d6000803e3d6000fd5b505050506040513d601f19601f8201168201806040525081019061169f919061288d565b8061171a575060035460405163559ff5e360e11b815260048101919091526001600160a01b03858116602483015283169063ab3febc690604401602060405180830381865afa1580156116f6573d6000803e3d6000fd5b505050506040513d601f19601f8201168201806040525081019061171a919061288d565b80611792575060048054604051630e6e1ae360e21b8152918201526001600160a01b0385811660248301528216906339b86b8c90604401602060405180830381865afa15801561176e573d6000803e3d6000fd5b505050506040513d601f19601f82011682018060405250810190611792919061288d565b156117a1575060019392505050565b5060009392505050565b60006040518060e001604052808481526020017f000000000000000000000000000000000000000000000000000000000000000081526020018360400151815260200183606001518152602001836080015181526020018360a00151600481111561181857611818611fc9565b81526020018360c00151600481111561183357611833611fc9565b90526000848152601160209081526040918290208351815590830151600182015590820151600282015560608201516003820190611871908261274a565b50608082015180516004830190815560208201516005840190611894908261274a565b50505060a082015160068201805460ff191660018360048111156118ba576118ba611fc9565b021790555060c082015160068201805461ff0019166101008360048111156118e4576118e4611fc9565b0217905550600195945050505050565b60006118fe611b28565b905080600154101561194b5760405162461bcd60e51b815260206004820152601660248201527501034b71039bab33334b1b4b2b73a10313ab233b2ba160551b6044820152606401610356565b600254604080518082018252601281527152455345525645445f414c4c4f5f434f524560701b6020820152905163bf40fac160e01b81526000926001600160a01b03169163bf40fac1916119a29190600401611f6f565b602060405180830381865afa1580156119bf573d6000803e3d6000fd5b505050506040513d601f19601f820116820180604052508101906119e39190612662565b905081816001600160a01b031663068bcd8d6003546040518263ffffffff1660e01b8152600401611a1691815260200190565b600060405180830381865afa158015611a33573d6000803e3d6000fd5b505050506040513d6000823e601f3d908101601f19168201604052611a5b91908101906128af565b60409081015190516370a0823160e01b81526001600160a01b038481166004830152909116906370a0823190602401602060405180830381865afa158015611aa7573d6000803e3d6000fd5b505050506040513d601f19601f82011682018060405250810190611acb91906129d0565b10156107d75760405162461bcd60e51b815260206004820152602660248201527f20696e73756666696369656e742066756e647320617661696c61626c6520696e6044820152650103837b7b6160d51b6064820152608401610356565b6000805b600f548110156107d757600060116000600f8481548110611b4f57611b4f6126e3565b906000526020600020015481526020019081526020016000206040518060e0016040529081600082015481526020016001820154815260200160028201548152602001600382018054611ba1906126af565b80601f0160208091040260200160405190810160405280929190818152602001828054611bcd906126af565b8015611c1a5780601f10611bef57610100808354040283529160200191611c1a565b820191906000526020600020905b815481529060010190602001808311611bfd57829003601f168201915b505050505081526020016004820160405180604001604052908160008201548152602001600182018054611c4d906126af565b80601f0160208091040260200160405190810160405280929190818152602001828054611c79906126af565b8015611cc65780601f10611c9b57610100808354040283529160200191611cc6565b820191906000526020600020905b815481529060010190602001808311611ca957829003601f168201915b505050919092525050508152600682015460209091019060ff166004811115611cf157611cf1611fc9565b6004811115611d0257611d02611fc9565b81526020016006820160019054906101000a900460ff166004811115611d2a57611d2a611fc9565b6004811115611d3b57611d3b611fc9565b905250905060048160a001516004811115611d5857611d58611fc9565b14158015611d7c575060028160c001516004811115611d7957611d79611fc9565b14155b15611d93576040810151611d9090846129e9565b92505b50600101611b2c565b6040518060e0016040528060008152602001600081526020016000815260200160608152602001611de0604051806040016040528060008152602001606081525090565b81526020016000815260200160005b905290565b6040518060e0016040528060008152602001611e0e611e37565b815260006020820181905260408201819052606082018190526080820181905260a09091015290565b6040518060800160405280600081526020016000815260200160006001600160a01b03168152602001611def604051806040016040528060008152602001606081525090565b828054828255906000526020600020908101928215611eb8579160200282015b82811115611eb8578251825591602001919060010190611e9d565b506107d79291505b808211156107d75760008155600101611ec0565b60058110611ee157600080fd5b50565b803561116981611ed4565b60008060408385031215611f0257600080fd5b823591506020830135611f1481611ed4565b809150509250929050565b60005b83811015611f3a578181015183820152602001611f22565b50506000910152565b60008151808452611f5b816020860160208601611f1f565b601f01601f19169290920160200192915050565b602081526000611f826020830184611f43565b9392505050565b600060208284031215611f9b57600080fd5b5035919050565b805182526000602082015160406020850152611fc16040850182611f43565b949350505050565b634e487b7160e01b600052602160045260246000fd5b60058110611ee157634e487b7160e01b600052602160045260246000fd5b602081528151602082015260208201516040820152604082015160608201526000606083015160e06080840152612038610100840182611f43565b90506080840151601f198483030160a08501526120558282611fa2565b91505060a084015161206681611fdf565b8060c08501525060c084015161207b81611fdf565b60e0939093019290925250919050565b805182526020810151602083015260018060a01b0360408201511660408301526000606082015160806060850152611fc16080850182611fa2565b600060208083018184528085518083526040925060408601915060408160051b87010184880160005b8381101561216c57603f19898403018552815160e08151855288820151818a87015261211d8287018261208b565b838a0151878b0152606080850151908801526080808501519088015260a0808501519088015260c0938401516001600160a01b03169390960192909252505093860193908601906001016120ef565b509098975050505050505050565b602081526000611f82602083018461208b565b60008151808452602080850194506020840160005b838110156121be578151875295820195908201906001016121a2565b509495945050505050565b60008151808452602080850194506020840160005b838110156121be5781516001600160a01b0316875295820195908201906001016121de565b60208152815160208201526000602083015161010080604085015261222c610120850183611f43565b91506040850151606085015260608501516080850152608085015161225c60a08601826001600160a01b03169052565b5060a085015160c085015260c0850151601f19808685030160e0870152612283848361218d565b935060e08701519150808685030183870152506122a083826121c9565b9695505050505050565b6001600160a01b0381168114611ee157600080fd5b6000602082840312156122d157600080fd5b8135611f82816122aa565b602081526000611f82602083018461218d565b634e487b7160e01b600052604160045260246000fd5b604080519081016001600160401b0381118282101715612327576123276122ef565b60405290565b60405160e081016001600160401b0381118282101715612327576123276122ef565b60405160c081016001600160401b0381118282101715612327576123276122ef565b604051601f8201601f191681016001600160401b0381118282101715612399576123996122ef565b604052919050565b60006001600160401b038211156123ba576123ba6122ef565b50601f01601f191660200190565b600082601f8301126123d957600080fd5b81356123ec6123e7826123a1565b612371565b81815284602083860101111561240157600080fd5b816020850160208301376000918101602001919091529392505050565b60006040828403121561243057600080fd5b612438612305565b90508135815260208201356001600160401b0381111561245757600080fd5b612463848285016123c8565b60208301525092915050565b600060e0828403121561248157600080fd5b61248961232d565b905081358152602082013560208201526040820135604082015260608201356001600160401b03808211156124bd57600080fd5b6124c9858386016123c8565b606084015260808401359150808211156124e257600080fd5b506124ef8482850161241e565b60808301525061250160a08301611ee4565b60a082015261251260c08301611ee4565b60c082015292915050565b6000806040838503121561253057600080fd5b82356001600160401b0381111561254657600080fd5b6125528582860161246f565b95602094909401359450505050565b60006020828403121561257357600080fd5b81356001600160401b0381111561258957600080fd5b611fc18482850161246f565b600080604083850312156125a857600080fd5b50508035926020909101359150565b6000602082840312156125c957600080fd5b81356001600160401b03808211156125e057600080fd5b90830190608082860312156125f457600080fd5b60405160808101818110838211171561260f5761260f6122ef565b806040525082358152602083013560208201526040830135612630816122aa565b604082015260608301358281111561264757600080fd5b6126538782860161241e565b60608301525095945050505050565b60006020828403121561267457600080fd5b8151611f82816122aa565b6020808252601690820152750103ab735b5b737bbb7103232b634bb32b930b13632960551b604082015260600190565b600181811c908216806126c357607f821691505b602082108103610cb357634e487b7160e01b600052602260045260246000fd5b634e487b7160e01b600052603260045260246000fd5b601f821115612745576000816000526020600020601f850160051c810160208610156127225750805b601f850160051c820191505b818110156127415782815560010161272e565b5050505b505050565b81516001600160401b03811115612763576127636122ef565b6127778161277184546126af565b846126f9565b602080601f8311600181146127ac57600084156127945750858301515b600019600386901b1c1916600185901b178555612741565b600085815260208120601f198616915b828110156127db578886015182559484019460019091019084016127bc565b50858210156127f95787850151600019600388901b60f8161c191681555b5050505050600190811b01905550565b602080825260149082015273010383937b532b1ba1030b236b4b71037b7363c960651b604082015260600190565b634e487b7160e01b600052601160045260246000fd5b818103600083128015838313168383128216171561286d5761286d612837565b5092915050565b60006001820161288657612886612837565b5060010190565b60006020828403121561289f57600080fd5b81518015158114611f8257600080fd5b600060208083850312156128c257600080fd5b82516001600160401b03808211156128d957600080fd5b9084019060c082870312156128ed57600080fd5b6128f561234f565b8251815283830151612906816122aa565b818501526040830151612918816122aa565b604082015260608301518281111561292f57600080fd5b83016040818903121561294157600080fd5b612949612305565b81518152858201518481111561295e57600080fd5b82019350601f8401891361297157600080fd5b835191506129816123e7836123a1565b828152898784870101111561299557600080fd5b6129a483888301898801611f1f565b95810195909552506060810193909352506080818101519083015260a090810151908201529392505050565b6000602082840312156129e257600080fd5b5051919050565b808201808211156103c7576103c761283756fea264697066735822122084f150651cbf92cda80983dd479de02f87c4355438706c814b9867b58efe462264736f6c63430008170033",
					"opcodes": "PUSH1 0xA0 PUSH1 0x40 MSTORE CALLVALUE DUP1 ISZERO PUSH3 0x11 JUMPI PUSH1 0x0 DUP1 REVERT JUMPDEST POP PUSH1 0x40 MLOAD PUSH3 0x2DB4 CODESIZE SUB DUP1 PUSH3 0x2DB4 DUP4 CODECOPY DUP2 ADD PUSH1 0x40 DUP2 SWAP1 MSTORE PUSH3 0x34 SWAP2 PUSH3 0xD1 JUMP JUMPDEST PUSH1 0x2 DUP1 SLOAD PUSH1 0x1 PUSH1 0x1 PUSH1 0xA0 SHL SUB NOT AND PUSH1 0x1 PUSH1 0x1 PUSH1 0xA0 SHL SUB DUP10 AND OR SWAP1 SSTORE PUSH1 0x3 DUP7 SWAP1 SSTORE PUSH1 0x4 DUP6 SWAP1 SSTORE PUSH1 0x80 DUP5 SWAP1 MSTORE PUSH1 0x0 PUSH3 0x6C DUP5 DUP3 PUSH3 0x285 JUMP JUMPDEST POP PUSH1 0x1 SWAP2 SWAP1 SWAP2 SSTORE PUSH1 0x5 DUP1 SLOAD PUSH1 0x1 PUSH1 0x1 PUSH1 0xA0 SHL SUB NOT AND PUSH1 0x1 PUSH1 0x1 PUSH1 0xA0 SHL SUB SWAP1 SWAP3 AND SWAP2 SWAP1 SWAP2 OR SWAP1 SSTORE POP PUSH3 0x351 SWAP4 POP POP POP POP JUMP JUMPDEST DUP1 MLOAD PUSH1 0x1 PUSH1 0x1 PUSH1 0xA0 SHL SUB DUP2 AND DUP2 EQ PUSH3 0xB6 JUMPI PUSH1 0x0 DUP1 REVERT JUMPDEST SWAP2 SWAP1 POP JUMP JUMPDEST PUSH4 0x4E487B71 PUSH1 0xE0 SHL PUSH1 0x0 MSTORE PUSH1 0x41 PUSH1 0x4 MSTORE PUSH1 0x24 PUSH1 0x0 REVERT JUMPDEST PUSH1 0x0 DUP1 PUSH1 0x0 DUP1 PUSH1 0x0 DUP1 PUSH1 0x0 PUSH1 0xE0 DUP9 DUP11 SUB SLT ISZERO PUSH3 0xED JUMPI PUSH1 0x0 DUP1 REVERT JUMPDEST PUSH3 0xF8 DUP9 PUSH3 0x9E JUMP JUMPDEST PUSH1 0x20 DUP10 DUP2 ADD MLOAD PUSH1 0x40 DUP12 ADD MLOAD PUSH1 0x60 DUP13 ADD MLOAD PUSH1 0x80 DUP14 ADD MLOAD SWAP5 SWAP12 POP SWAP2 SWAP10 POP SWAP8 POP SWAP6 POP SWAP1 PUSH1 0x1 PUSH1 0x1 PUSH1 0x40 SHL SUB DUP1 DUP3 GT ISZERO PUSH3 0x12E JUMPI PUSH1 0x0 DUP1 REVERT JUMPDEST DUP2 DUP12 ADD SWAP2 POP DUP12 PUSH1 0x1F DUP4 ADD SLT PUSH3 0x143 JUMPI PUSH1 0x0 DUP1 REVERT JUMPDEST DUP2 MLOAD DUP2 DUP2 GT ISZERO PUSH3 0x158 JUMPI PUSH3 0x158 PUSH3 0xBB JUMP JUMPDEST PUSH1 0x40 MLOAD PUSH1 0x1F DUP3 ADD PUSH1 0x1F NOT SWAP1 DUP2 AND PUSH1 0x3F ADD AND DUP2 ADD SWAP1 DUP4 DUP3 GT DUP2 DUP4 LT OR ISZERO PUSH3 0x183 JUMPI PUSH3 0x183 PUSH3 0xBB JUMP JUMPDEST DUP2 PUSH1 0x40 MSTORE DUP3 DUP2 MSTORE DUP15 DUP7 DUP5 DUP8 ADD ADD GT ISZERO PUSH3 0x19C JUMPI PUSH1 0x0 DUP1 REVERT JUMPDEST PUSH1 0x0 SWAP4 POP JUMPDEST DUP3 DUP5 LT ISZERO PUSH3 0x1C0 JUMPI DUP5 DUP5 ADD DUP7 ADD MLOAD DUP2 DUP6 ADD DUP8 ADD MSTORE SWAP3 DUP6 ADD SWAP3 PUSH3 0x1A1 JUMP JUMPDEST PUSH1 0x0 DUP7 DUP5 DUP4 ADD ADD MSTORE DUP1 SWAP9 POP POP POP POP POP POP POP PUSH1 0xA0 DUP9 ADD MLOAD SWAP2 POP PUSH3 0x1E6 PUSH1 0xC0 DUP10 ADD PUSH3 0x9E JUMP JUMPDEST SWAP1 POP SWAP3 SWAP6 SWAP9 SWAP2 SWAP5 SWAP8 POP SWAP3 SWAP6 POP JUMP JUMPDEST PUSH1 0x1 DUP2 DUP2 SHR SWAP1 DUP3 AND DUP1 PUSH3 0x209 JUMPI PUSH1 0x7F DUP3 AND SWAP2 POP JUMPDEST PUSH1 0x20 DUP3 LT DUP2 SUB PUSH3 0x22A JUMPI PUSH4 0x4E487B71 PUSH1 0xE0 SHL PUSH1 0x0 MSTORE PUSH1 0x22 PUSH1 0x4 MSTORE PUSH1 0x24 PUSH1 0x0 REVERT JUMPDEST POP SWAP2 SWAP1 POP JUMP JUMPDEST PUSH1 0x1F DUP3 GT ISZERO PUSH3 0x280 JUMPI PUSH1 0x0 DUP2 PUSH1 0x0 MSTORE PUSH1 0x20 PUSH1 0x0 KECCAK256 PUSH1 0x1F DUP6 ADD PUSH1 0x5 SHR DUP2 ADD PUSH1 0x20 DUP7 LT ISZERO PUSH3 0x25B JUMPI POP DUP1 JUMPDEST PUSH1 0x1F DUP6 ADD PUSH1 0x5 SHR DUP3 ADD SWAP2 POP JUMPDEST DUP2 DUP2 LT ISZERO PUSH3 0x27C JUMPI DUP3 DUP2 SSTORE PUSH1 0x1 ADD PUSH3 0x267 JUMP JUMPDEST POP POP POP JUMPDEST POP POP POP JUMP JUMPDEST DUP2 MLOAD PUSH1 0x1 PUSH1 0x1 PUSH1 0x40 SHL SUB DUP2 GT ISZERO PUSH3 0x2A1 JUMPI PUSH3 0x2A1 PUSH3 0xBB JUMP JUMPDEST PUSH3 0x2B9 DUP2 PUSH3 0x2B2 DUP5 SLOAD PUSH3 0x1F4 JUMP JUMPDEST DUP5 PUSH3 0x230 JUMP JUMPDEST PUSH1 0x20 DUP1 PUSH1 0x1F DUP4 GT PUSH1 0x1 DUP2 EQ PUSH3 0x2F1 JUMPI PUSH1 0x0 DUP5 ISZERO PUSH3 0x2D8 JUMPI POP DUP6 DUP4 ADD MLOAD JUMPDEST PUSH1 0x0 NOT PUSH1 0x3 DUP7 SWAP1 SHL SHR NOT AND PUSH1 0x1 DUP6 SWAP1 SHL OR DUP6 SSTORE PUSH3 0x27C JUMP JUMPDEST PUSH1 0x0 DUP6 DUP2 MSTORE PUSH1 0x20 DUP2 KECCAK256 PUSH1 0x1F NOT DUP7 AND SWAP2 JUMPDEST DUP3 DUP2 LT ISZERO PUSH3 0x322 JUMPI DUP9 DUP7 ADD MLOAD DUP3 SSTORE SWAP5 DUP5 ADD SWAP5 PUSH1 0x1 SWAP1 SWAP2 ADD SWAP1 DUP5 ADD PUSH3 0x301 JUMP JUMPDEST POP DUP6 DUP3 LT ISZERO PUSH3 0x341 JUMPI DUP8 DUP6 ADD MLOAD PUSH1 0x0 NOT PUSH1 0x3 DUP9 SWAP1 SHL PUSH1 0xF8 AND SHR NOT AND DUP2 SSTORE JUMPDEST POP POP POP POP POP PUSH1 0x1 SWAP1 DUP2 SHL ADD SWAP1 SSTORE POP JUMP JUMPDEST PUSH1 0x80 MLOAD PUSH2 0x2A32 PUSH3 0x382 PUSH1 0x0 CODECOPY PUSH1 0x0 DUP2 DUP2 PUSH2 0xB4E ADD MSTORE DUP2 DUP2 PUSH2 0xD1A ADD MSTORE DUP2 DUP2 PUSH2 0xFA6 ADD MSTORE PUSH2 0x17C0 ADD MSTORE PUSH2 0x2A32 PUSH1 0x0 RETURN INVALID PUSH1 0x80 PUSH1 0x40 MSTORE CALLVALUE DUP1 ISZERO PUSH2 0x10 JUMPI PUSH1 0x0 DUP1 REVERT JUMPDEST POP PUSH1 0x4 CALLDATASIZE LT PUSH2 0xF5 JUMPI PUSH1 0x0 CALLDATALOAD PUSH1 0xE0 SHR DUP1 PUSH4 0x3BA94ED8 GT PUSH2 0x97 JUMPI DUP1 PUSH4 0xCAFFE061 GT PUSH2 0x66 JUMPI DUP1 PUSH4 0xCAFFE061 EQ PUSH2 0x214 JUMPI DUP1 PUSH4 0xF2AA76AA EQ PUSH2 0x227 JUMPI DUP1 PUSH4 0xF3CDA72C EQ PUSH2 0x23A JUMPI DUP1 PUSH4 0xF96BAEDC EQ PUSH2 0x24D JUMPI PUSH1 0x0 DUP1 REVERT JUMPDEST DUP1 PUSH4 0x3BA94ED8 EQ PUSH2 0x1C4 JUMPI DUP1 PUSH4 0x779A5A7F EQ PUSH2 0x1D9 JUMPI DUP1 PUSH4 0x8E2C093D EQ PUSH2 0x1EC JUMPI DUP1 PUSH4 0xA91050C4 EQ PUSH2 0x201 JUMPI PUSH1 0x0 DUP1 REVERT JUMPDEST DUP1 PUSH4 0x190FDCBD GT PUSH2 0xD3 JUMPI DUP1 PUSH4 0x190FDCBD EQ PUSH2 0x15C JUMPI DUP1 PUSH4 0x1FAE35D4 EQ PUSH2 0x17C JUMPI DUP1 PUSH4 0x2890EE5C EQ PUSH2 0x191 JUMPI DUP1 PUSH4 0x3280C215 EQ PUSH2 0x1B1 JUMPI PUSH1 0x0 DUP1 REVERT JUMPDEST DUP1 PUSH4 0x4C325BE EQ PUSH2 0xFA JUMPI DUP1 PUSH4 0xD8E6E2C EQ PUSH2 0x122 JUMPI DUP1 PUSH4 0x17D7DE7C EQ PUSH2 0x133 JUMPI JUMPDEST PUSH1 0x0 DUP1 REVERT JUMPDEST PUSH2 0x10D PUSH2 0x108 CALLDATASIZE PUSH1 0x4 PUSH2 0x1EEF JUMP JUMPDEST PUSH2 0x260 JUMP JUMPDEST PUSH1 0x40 MLOAD SWAP1 ISZERO ISZERO DUP2 MSTORE PUSH1 0x20 ADD JUMPDEST PUSH1 0x40 MLOAD DUP1 SWAP2 SUB SWAP1 RETURN JUMPDEST PUSH1 0x2 JUMPDEST PUSH1 0x40 MLOAD SWAP1 DUP2 MSTORE PUSH1 0x20 ADD PUSH2 0x119 JUMP JUMPDEST PUSH1 0x40 DUP1 MLOAD DUP1 DUP3 ADD DUP3 MSTORE PUSH1 0x7 DUP2 MSTORE PUSH7 0x141493D29150D5 PUSH1 0xCA SHL PUSH1 0x20 DUP3 ADD MSTORE SWAP1 MLOAD PUSH2 0x119 SWAP2 SWAP1 PUSH2 0x1F6F JUMP JUMPDEST PUSH2 0x16F PUSH2 0x16A CALLDATASIZE PUSH1 0x4 PUSH2 0x1F89 JUMP JUMPDEST PUSH2 0x3CD JUMP JUMPDEST PUSH1 0x40 MLOAD PUSH2 0x119 SWAP2 SWAP1 PUSH2 0x1FFD JUMP JUMPDEST PUSH2 0x184 PUSH2 0x5C4 JUMP JUMPDEST PUSH1 0x40 MLOAD PUSH2 0x119 SWAP2 SWAP1 PUSH2 0x20C6 JUMP JUMPDEST PUSH2 0x1A4 PUSH2 0x19F CALLDATASIZE PUSH1 0x4 PUSH2 0x1F89 JUMP JUMPDEST PUSH2 0x7DB JUMP JUMPDEST PUSH1 0x40 MLOAD PUSH2 0x119 SWAP2 SWAP1 PUSH2 0x217A JUMP JUMPDEST PUSH2 0x10D PUSH2 0x1BF CALLDATASIZE PUSH1 0x4 PUSH2 0x1F89 JUMP JUMPDEST PUSH2 0x8D6 JUMP JUMPDEST PUSH2 0x1CC PUSH2 0xCB9 JUMP JUMPDEST PUSH1 0x40 MLOAD PUSH2 0x119 SWAP2 SWAP1 PUSH2 0x2203 JUMP JUMPDEST PUSH2 0x1A4 PUSH2 0x1E7 CALLDATASIZE PUSH1 0x4 PUSH2 0x22BF JUMP JUMPDEST PUSH2 0xE41 JUMP JUMPDEST PUSH2 0x1F4 PUSH2 0xEBE JUMP JUMPDEST PUSH1 0x40 MLOAD PUSH2 0x119 SWAP2 SWAP1 PUSH2 0x22DC JUMP JUMPDEST PUSH2 0x125 PUSH2 0x20F CALLDATASIZE PUSH1 0x4 PUSH2 0x251D JUMP JUMPDEST PUSH2 0xF16 JUMP JUMPDEST PUSH2 0x125 PUSH2 0x222 CALLDATASIZE PUSH1 0x4 PUSH2 0x1F89 JUMP JUMPDEST PUSH2 0x112D JUMP JUMPDEST PUSH2 0x10D PUSH2 0x235 CALLDATASIZE PUSH1 0x4 PUSH2 0x2561 JUMP JUMPDEST PUSH2 0x116E JUMP JUMPDEST PUSH2 0x10D PUSH2 0x248 CALLDATASIZE PUSH1 0x4 PUSH2 0x2595 JUMP JUMPDEST PUSH2 0x11DB JUMP JUMPDEST PUSH2 0x125 PUSH2 0x25B CALLDATASIZE PUSH1 0x4 PUSH2 0x25B7 JUMP JUMPDEST PUSH2 0x13B0 JUMP JUMPDEST PUSH1 0x2 SLOAD PUSH1 0x40 DUP1 MLOAD DUP1 DUP3 ADD DUP3 MSTORE PUSH1 0x1E DUP2 MSTORE PUSH32 0x52455345525645445F4D5F415F44454C49564552595F53545241544547590000 PUSH1 0x20 DUP3 ADD MSTORE SWAP1 MLOAD PUSH4 0xBF40FAC1 PUSH1 0xE0 SHL DUP2 MSTORE PUSH1 0x0 SWAP3 PUSH1 0x1 PUSH1 0x1 PUSH1 0xA0 SHL SUB AND SWAP2 PUSH4 0xBF40FAC1 SWAP2 PUSH2 0x2C2 SWAP2 SWAP1 PUSH1 0x4 ADD PUSH2 0x1F6F JUMP JUMPDEST PUSH1 0x20 PUSH1 0x40 MLOAD DUP1 DUP4 SUB DUP2 DUP7 GAS STATICCALL ISZERO DUP1 ISZERO PUSH2 0x2DF JUMPI RETURNDATASIZE PUSH1 0x0 DUP1 RETURNDATACOPY RETURNDATASIZE PUSH1 0x0 REVERT JUMPDEST POP POP POP POP PUSH1 0x40 MLOAD RETURNDATASIZE PUSH1 0x1F NOT PUSH1 0x1F DUP3 ADD AND DUP3 ADD DUP1 PUSH1 0x40 MSTORE POP DUP2 ADD SWAP1 PUSH2 0x303 SWAP2 SWAP1 PUSH2 0x2662 JUMP JUMPDEST PUSH1 0x1 PUSH1 0x1 PUSH1 0xA0 SHL SUB AND CALLER PUSH1 0x1 PUSH1 0x1 PUSH1 0xA0 SHL SUB AND EQ PUSH2 0x35F JUMPI PUSH1 0x40 MLOAD PUSH3 0x461BCD PUSH1 0xE5 SHL DUP2 MSTORE PUSH1 0x20 PUSH1 0x4 DUP3 ADD MSTORE PUSH1 0x14 PUSH1 0x24 DUP3 ADD MSTORE PUSH20 0x7061796F7574207374726174656779206F6E6C79 PUSH1 0x60 SHL PUSH1 0x44 DUP3 ADD MSTORE PUSH1 0x64 ADD JUMPDEST PUSH1 0x40 MLOAD DUP1 SWAP2 SUB SWAP1 REVERT JUMPDEST PUSH1 0x0 DUP4 DUP2 MSTORE PUSH1 0x10 PUSH1 0x20 MSTORE PUSH1 0x40 SWAP1 KECCAK256 SLOAD PUSH1 0xFF AND PUSH2 0x38D JUMPI PUSH1 0x40 MLOAD PUSH3 0x461BCD PUSH1 0xE5 SHL DUP2 MSTORE PUSH1 0x4 ADD PUSH2 0x356 SWAP1 PUSH2 0x267F JUMP JUMPDEST PUSH1 0x0 DUP4 DUP2 MSTORE PUSH1 0x11 PUSH1 0x20 MSTORE PUSH1 0x40 SWAP1 KECCAK256 PUSH1 0x6 ADD DUP1 SLOAD DUP4 SWAP2 SWAP1 PUSH2 0xFF00 NOT AND PUSH2 0x100 DUP4 PUSH1 0x4 DUP2 GT ISZERO PUSH2 0x3BD JUMPI PUSH2 0x3BD PUSH2 0x1FC9 JUMP JUMPDEST MUL OR SWAP1 SSTORE POP PUSH1 0x1 SWAP1 POP JUMPDEST SWAP3 SWAP2 POP POP JUMP JUMPDEST PUSH2 0x3D5 PUSH2 0x1D9C JUMP JUMPDEST PUSH1 0x11 PUSH1 0x0 DUP4 DUP2 MSTORE PUSH1 0x20 ADD SWAP1 DUP2 MSTORE PUSH1 0x20 ADD PUSH1 0x0 KECCAK256 PUSH1 0x40 MLOAD DUP1 PUSH1 0xE0 ADD PUSH1 0x40 MSTORE SWAP1 DUP2 PUSH1 0x0 DUP3 ADD SLOAD DUP2 MSTORE PUSH1 0x20 ADD PUSH1 0x1 DUP3 ADD SLOAD DUP2 MSTORE PUSH1 0x20 ADD PUSH1 0x2 DUP3 ADD SLOAD DUP2 MSTORE PUSH1 0x20 ADD PUSH1 0x3 DUP3 ADD DUP1 SLOAD PUSH2 0x421 SWAP1 PUSH2 0x26AF JUMP JUMPDEST DUP1 PUSH1 0x1F ADD PUSH1 0x20 DUP1 SWAP2 DIV MUL PUSH1 0x20 ADD PUSH1 0x40 MLOAD SWAP1 DUP2 ADD PUSH1 0x40 MSTORE DUP1 SWAP3 SWAP2 SWAP1 DUP2 DUP2 MSTORE PUSH1 0x20 ADD DUP3 DUP1 SLOAD PUSH2 0x44D SWAP1 PUSH2 0x26AF JUMP JUMPDEST DUP1 ISZERO PUSH2 0x49A JUMPI DUP1 PUSH1 0x1F LT PUSH2 0x46F JUMPI PUSH2 0x100 DUP1 DUP4 SLOAD DIV MUL DUP4 MSTORE SWAP2 PUSH1 0x20 ADD SWAP2 PUSH2 0x49A JUMP JUMPDEST DUP3 ADD SWAP2 SWAP1 PUSH1 0x0 MSTORE PUSH1 0x20 PUSH1 0x0 KECCAK256 SWAP1 JUMPDEST DUP2 SLOAD DUP2 MSTORE SWAP1 PUSH1 0x1 ADD SWAP1 PUSH1 0x20 ADD DUP1 DUP4 GT PUSH2 0x47D JUMPI DUP3 SWAP1 SUB PUSH1 0x1F AND DUP3 ADD SWAP2 JUMPDEST POP POP POP POP POP DUP2 MSTORE PUSH1 0x20 ADD PUSH1 0x4 DUP3 ADD PUSH1 0x40 MLOAD DUP1 PUSH1 0x40 ADD PUSH1 0x40 MSTORE SWAP1 DUP2 PUSH1 0x0 DUP3 ADD SLOAD DUP2 MSTORE PUSH1 0x20 ADD PUSH1 0x1 DUP3 ADD DUP1 SLOAD PUSH2 0x4CD SWAP1 PUSH2 0x26AF JUMP JUMPDEST DUP1 PUSH1 0x1F ADD PUSH1 0x20 DUP1 SWAP2 DIV MUL PUSH1 0x20 ADD PUSH1 0x40 MLOAD SWAP1 DUP2 ADD PUSH1 0x40 MSTORE DUP1 SWAP3 SWAP2 SWAP1 DUP2 DUP2 MSTORE PUSH1 0x20 ADD DUP3 DUP1 SLOAD PUSH2 0x4F9 SWAP1 PUSH2 0x26AF JUMP JUMPDEST DUP1 ISZERO PUSH2 0x546 JUMPI DUP1 PUSH1 0x1F LT PUSH2 0x51B JUMPI PUSH2 0x100 DUP1 DUP4 SLOAD DIV MUL DUP4 MSTORE SWAP2 PUSH1 0x20 ADD SWAP2 PUSH2 0x546 JUMP JUMPDEST DUP3 ADD SWAP2 SWAP1 PUSH1 0x0 MSTORE PUSH1 0x20 PUSH1 0x0 KECCAK256 SWAP1 JUMPDEST DUP2 SLOAD DUP2 MSTORE SWAP1 PUSH1 0x1 ADD SWAP1 PUSH1 0x20 ADD DUP1 DUP4 GT PUSH2 0x529 JUMPI DUP3 SWAP1 SUB PUSH1 0x1F AND DUP3 ADD SWAP2 JUMPDEST POP POP POP SWAP2 SWAP1 SWAP3 MSTORE POP POP POP DUP2 MSTORE PUSH1 0x6 DUP3 ADD SLOAD PUSH1 0x20 SWAP1 SWAP2 ADD SWAP1 PUSH1 0xFF AND PUSH1 0x4 DUP2 GT ISZERO PUSH2 0x571 JUMPI PUSH2 0x571 PUSH2 0x1FC9 JUMP JUMPDEST PUSH1 0x4 DUP2 GT ISZERO PUSH2 0x582 JUMPI PUSH2 0x582 PUSH2 0x1FC9 JUMP JUMPDEST DUP2 MSTORE PUSH1 0x20 ADD PUSH1 0x6 DUP3 ADD PUSH1 0x1 SWAP1 SLOAD SWAP1 PUSH2 0x100 EXP SWAP1 DIV PUSH1 0xFF AND PUSH1 0x4 DUP2 GT ISZERO PUSH2 0x5AA JUMPI PUSH2 0x5AA PUSH2 0x1FC9 JUMP JUMPDEST PUSH1 0x4 DUP2 GT ISZERO PUSH2 0x5BB JUMPI PUSH2 0x5BB PUSH2 0x1FC9 JUMP JUMPDEST SWAP1 MSTORE POP SWAP3 SWAP2 POP POP JUMP JUMPDEST PUSH1 0x8 SLOAD PUSH1 0x60 SWAP1 PUSH1 0x1 PUSH1 0x1 PUSH1 0x40 SHL SUB DUP2 GT ISZERO PUSH2 0x5E1 JUMPI PUSH2 0x5E1 PUSH2 0x22EF JUMP JUMPDEST PUSH1 0x40 MLOAD SWAP1 DUP1 DUP3 MSTORE DUP1 PUSH1 0x20 MUL PUSH1 0x20 ADD DUP3 ADD PUSH1 0x40 MSTORE DUP1 ISZERO PUSH2 0x61A JUMPI DUP2 PUSH1 0x20 ADD JUMPDEST PUSH2 0x607 PUSH2 0x1DF4 JUMP JUMPDEST DUP2 MSTORE PUSH1 0x20 ADD SWAP1 PUSH1 0x1 SWAP1 SUB SWAP1 DUP2 PUSH2 0x5FF JUMPI SWAP1 POP JUMPDEST POP SWAP1 POP PUSH1 0x0 JUMPDEST DUP2 MLOAD DUP2 LT ISZERO PUSH2 0x7D7 JUMPI PUSH1 0x14 PUSH1 0x0 PUSH1 0x8 DUP4 DUP2 SLOAD DUP2 LT PUSH2 0x640 JUMPI PUSH2 0x640 PUSH2 0x26E3 JUMP JUMPDEST SWAP1 PUSH1 0x0 MSTORE PUSH1 0x20 PUSH1 0x0 KECCAK256 ADD SLOAD DUP2 MSTORE PUSH1 0x20 ADD SWAP1 DUP2 MSTORE PUSH1 0x20 ADD PUSH1 0x0 KECCAK256 PUSH1 0x40 MLOAD DUP1 PUSH1 0xE0 ADD PUSH1 0x40 MSTORE SWAP1 DUP2 PUSH1 0x0 DUP3 ADD SLOAD DUP2 MSTORE PUSH1 0x20 ADD PUSH1 0x1 DUP3 ADD PUSH1 0x40 MLOAD DUP1 PUSH1 0x80 ADD PUSH1 0x40 MSTORE SWAP1 DUP2 PUSH1 0x0 DUP3 ADD SLOAD DUP2 MSTORE PUSH1 0x20 ADD PUSH1 0x1 DUP3 ADD SLOAD DUP2 MSTORE PUSH1 0x20 ADD PUSH1 0x2 DUP3 ADD PUSH1 0x0 SWAP1 SLOAD SWAP1 PUSH2 0x100 EXP SWAP1 DIV PUSH1 0x1 PUSH1 0x1 PUSH1 0xA0 SHL SUB AND PUSH1 0x1 PUSH1 0x1 PUSH1 0xA0 SHL SUB AND PUSH1 0x1 PUSH1 0x1 PUSH1 0xA0 SHL SUB AND DUP2 MSTORE PUSH1 0x20 ADD PUSH1 0x3 DUP3 ADD PUSH1 0x40 MLOAD DUP1 PUSH1 0x40 ADD PUSH1 0x40 MSTORE SWAP1 DUP2 PUSH1 0x0 DUP3 ADD SLOAD DUP2 MSTORE PUSH1 0x20 ADD PUSH1 0x1 DUP3 ADD DUP1 SLOAD PUSH2 0x6EB SWAP1 PUSH2 0x26AF JUMP JUMPDEST DUP1 PUSH1 0x1F ADD PUSH1 0x20 DUP1 SWAP2 DIV MUL PUSH1 0x20 ADD PUSH1 0x40 MLOAD SWAP1 DUP2 ADD PUSH1 0x40 MSTORE DUP1 SWAP3 SWAP2 SWAP1 DUP2 DUP2 MSTORE PUSH1 0x20 ADD DUP3 DUP1 SLOAD PUSH2 0x717 SWAP1 PUSH2 0x26AF JUMP JUMPDEST DUP1 ISZERO PUSH2 0x764 JUMPI DUP1 PUSH1 0x1F LT PUSH2 0x739 JUMPI PUSH2 0x100 DUP1 DUP4 SLOAD DIV MUL DUP4 MSTORE SWAP2 PUSH1 0x20 ADD SWAP2 PUSH2 0x764 JUMP JUMPDEST DUP3 ADD SWAP2 SWAP1 PUSH1 0x0 MSTORE PUSH1 0x20 PUSH1 0x0 KECCAK256 SWAP1 JUMPDEST DUP2 SLOAD DUP2 MSTORE SWAP1 PUSH1 0x1 ADD SWAP1 PUSH1 0x20 ADD DUP1 DUP4 GT PUSH2 0x747 JUMPI DUP3 SWAP1 SUB PUSH1 0x1F AND DUP3 ADD SWAP2 JUMPDEST POP POP POP SWAP2 SWAP1 SWAP3 MSTORE POP POP POP SWAP1 MSTORE POP DUP2 MSTORE PUSH1 0x6 DUP3 ADD SLOAD PUSH1 0x20 DUP3 ADD MSTORE PUSH1 0x7 DUP3 ADD SLOAD PUSH1 0x40 DUP3 ADD MSTORE PUSH1 0x8 DUP3 ADD SLOAD PUSH1 0x60 DUP3 ADD MSTORE PUSH1 0x9 DUP3 ADD SLOAD PUSH1 0x80 DUP3 ADD MSTORE PUSH1 0xA SWAP1 SWAP2 ADD SLOAD PUSH1 0x1 PUSH1 0x1 PUSH1 0xA0 SHL SUB AND PUSH1 0xA0 SWAP1 SWAP2 ADD MSTORE DUP3 MLOAD DUP4 SWAP1 DUP4 SWAP1 DUP2 LT PUSH2 0x7C4 JUMPI PUSH2 0x7C4 PUSH2 0x26E3 JUMP JUMPDEST PUSH1 0x20 SWAP1 DUP2 MUL SWAP2 SWAP1 SWAP2 ADD ADD MSTORE PUSH1 0x1 ADD PUSH2 0x620 JUMP JUMPDEST POP SWAP1 JUMP JUMPDEST PUSH2 0x7E3 PUSH2 0x1E37 JUMP JUMPDEST PUSH1 0x0 DUP3 DUP2 MSTORE PUSH1 0xB PUSH1 0x20 SWAP1 DUP2 MSTORE PUSH1 0x40 SWAP2 DUP3 SWAP1 KECCAK256 DUP3 MLOAD PUSH1 0x80 DUP2 ADD DUP5 MSTORE DUP2 SLOAD DUP2 MSTORE PUSH1 0x1 DUP3 ADD SLOAD DUP2 DUP5 ADD MSTORE PUSH1 0x2 DUP3 ADD SLOAD PUSH1 0x1 PUSH1 0x1 PUSH1 0xA0 SHL SUB AND DUP2 DUP6 ADD MSTORE DUP4 MLOAD DUP1 DUP6 ADD SWAP1 SWAP5 MSTORE PUSH1 0x3 DUP3 ADD DUP1 SLOAD DUP6 MSTORE PUSH1 0x4 DUP4 ADD DUP1 SLOAD SWAP3 SWAP6 SWAP4 SWAP5 PUSH1 0x60 DUP8 ADD SWAP5 SWAP4 SWAP1 DUP5 ADD SWAP2 SWAP1 PUSH2 0x84A SWAP1 PUSH2 0x26AF JUMP JUMPDEST DUP1 PUSH1 0x1F ADD PUSH1 0x20 DUP1 SWAP2 DIV MUL PUSH1 0x20 ADD PUSH1 0x40 MLOAD SWAP1 DUP2 ADD PUSH1 0x40 MSTORE DUP1 SWAP3 SWAP2 SWAP1 DUP2 DUP2 MSTORE PUSH1 0x20 ADD DUP3 DUP1 SLOAD PUSH2 0x876 SWAP1 PUSH2 0x26AF JUMP JUMPDEST DUP1 ISZERO PUSH2 0x8C3 JUMPI DUP1 PUSH1 0x1F LT PUSH2 0x898 JUMPI PUSH2 0x100 DUP1 DUP4 SLOAD DIV MUL DUP4 MSTORE SWAP2 PUSH1 0x20 ADD SWAP2 PUSH2 0x8C3 JUMP JUMPDEST DUP3 ADD SWAP2 SWAP1 PUSH1 0x0 MSTORE PUSH1 0x20 PUSH1 0x0 KECCAK256 SWAP1 JUMPDEST DUP2 SLOAD DUP2 MSTORE SWAP1 PUSH1 0x1 ADD SWAP1 PUSH1 0x20 ADD DUP1 DUP4 GT PUSH2 0x8A6 JUMPI DUP3 SWAP1 SUB PUSH1 0x1F AND DUP3 ADD SWAP2 JUMPDEST POP POP POP SWAP2 SWAP1 SWAP3 MSTORE POP POP POP SWAP1 MSTORE POP SWAP3 SWAP2 POP POP JUMP JUMPDEST PUSH1 0x0 DUP2 DUP2 MSTORE PUSH1 0xE PUSH1 0x20 SWAP1 DUP2 MSTORE PUSH1 0x40 DUP1 DUP4 KECCAK256 SLOAD DUP4 MSTORE PUSH1 0xB SWAP1 SWAP2 MSTORE DUP2 KECCAK256 PUSH1 0x2 ADD SLOAD DUP3 SWAP1 PUSH1 0x1 PUSH1 0x1 PUSH1 0xA0 SHL SUB AND CALLER EQ PUSH2 0x94E JUMPI PUSH1 0x40 MLOAD PUSH3 0x461BCD PUSH1 0xE5 SHL DUP2 MSTORE PUSH1 0x20 PUSH1 0x4 DUP3 ADD MSTORE PUSH1 0x1B PUSH1 0x24 DUP3 ADD MSTORE PUSH32 0x2064656C6976657261626C652061737369676E6565206F6E6C79200000000000 PUSH1 0x44 DUP3 ADD MSTORE PUSH1 0x64 ADD PUSH2 0x356 JUMP JUMPDEST PUSH1 0x0 DUP4 DUP2 MSTORE PUSH1 0x10 PUSH1 0x20 MSTORE PUSH1 0x40 SWAP1 KECCAK256 SLOAD PUSH1 0xFF AND PUSH2 0x97C JUMPI PUSH1 0x40 MLOAD PUSH3 0x461BCD PUSH1 0xE5 SHL DUP2 MSTORE PUSH1 0x4 ADD PUSH2 0x356 SWAP1 PUSH2 0x267F JUMP JUMPDEST PUSH1 0x0 DUP4 DUP2 MSTORE PUSH1 0x11 PUSH1 0x20 MSTORE PUSH1 0x40 SWAP1 KECCAK256 PUSH1 0x6 ADD SLOAD PUSH1 0xFF AND PUSH1 0x4 DUP2 PUSH1 0x4 DUP2 GT ISZERO PUSH2 0x9A5 JUMPI PUSH2 0x9A5 PUSH2 0x1FC9 JUMP JUMPDEST EQ ISZERO DUP1 PUSH2 0x9C4 JUMPI POP PUSH1 0x3 DUP2 PUSH1 0x4 DUP2 GT ISZERO PUSH2 0x9C1 JUMPI PUSH2 0x9C1 PUSH2 0x1FC9 JUMP JUMPDEST EQ ISZERO JUMPDEST PUSH2 0xA1B JUMPI PUSH1 0x40 MLOAD PUSH3 0x461BCD PUSH1 0xE5 SHL DUP2 MSTORE PUSH1 0x20 PUSH1 0x4 DUP3 ADD MSTORE PUSH1 0x22 PUSH1 0x24 DUP3 ADD MSTORE PUSH32 0x44656C6976657261626C652073757370656E646564206F722063616E63656C6C PUSH1 0x44 DUP3 ADD MSTORE PUSH2 0x1959 PUSH1 0xF2 SHL PUSH1 0x64 DUP3 ADD MSTORE PUSH1 0x84 ADD PUSH2 0x356 JUMP JUMPDEST PUSH1 0x0 DUP5 DUP2 MSTORE PUSH1 0x11 PUSH1 0x20 MSTORE PUSH1 0x40 DUP2 KECCAK256 PUSH1 0x6 ADD DUP1 SLOAD PUSH2 0xFFFF NOT AND PUSH2 0x102 OR SWAP1 SSTORE PUSH2 0xA41 PUSH2 0x14FF JUMP JUMPDEST PUSH1 0x40 DUP1 MLOAD PUSH1 0xE0 DUP2 ADD DUP3 MSTORE DUP3 DUP2 MSTORE PUSH1 0x0 DUP9 DUP2 MSTORE PUSH1 0xE PUSH1 0x20 SWAP1 DUP2 MSTORE DUP4 DUP3 KECCAK256 SLOAD DUP3 MSTORE PUSH1 0xB DUP2 MSTORE SWAP1 DUP4 SWAP1 KECCAK256 DUP4 MLOAD PUSH1 0x80 DUP2 ADD DUP6 MSTORE DUP2 SLOAD DUP2 MSTORE PUSH1 0x1 DUP3 ADD SLOAD DUP2 DUP5 ADD MSTORE PUSH1 0x2 DUP3 ADD SLOAD PUSH1 0x1 PUSH1 0x1 PUSH1 0xA0 SHL SUB AND DUP2 DUP7 ADD MSTORE DUP5 MLOAD DUP1 DUP7 ADD SWAP1 SWAP6 MSTORE PUSH1 0x3 DUP3 ADD DUP1 SLOAD DUP7 MSTORE PUSH1 0x4 DUP4 ADD DUP1 SLOAD SWAP8 SWAP9 POP SWAP5 SWAP7 DUP5 DUP9 ADD SWAP7 SWAP3 SWAP6 SWAP4 SWAP5 PUSH1 0x60 DUP8 ADD SWAP5 SWAP1 DUP5 ADD SWAP2 PUSH2 0xAC4 SWAP1 PUSH2 0x26AF JUMP JUMPDEST DUP1 PUSH1 0x1F ADD PUSH1 0x20 DUP1 SWAP2 DIV MUL PUSH1 0x20 ADD PUSH1 0x40 MLOAD SWAP1 DUP2 ADD PUSH1 0x40 MSTORE DUP1 SWAP3 SWAP2 SWAP1 DUP2 DUP2 MSTORE PUSH1 0x20 ADD DUP3 DUP1 SLOAD PUSH2 0xAF0 SWAP1 PUSH2 0x26AF JUMP JUMPDEST DUP1 ISZERO PUSH2 0xB3D JUMPI DUP1 PUSH1 0x1F LT PUSH2 0xB12 JUMPI PUSH2 0x100 DUP1 DUP4 SLOAD DIV MUL DUP4 MSTORE SWAP2 PUSH1 0x20 ADD SWAP2 PUSH2 0xB3D JUMP JUMPDEST DUP3 ADD SWAP2 SWAP1 PUSH1 0x0 MSTORE PUSH1 0x20 PUSH1 0x0 KECCAK256 SWAP1 JUMPDEST DUP2 SLOAD DUP2 MSTORE SWAP1 PUSH1 0x1 ADD SWAP1 PUSH1 0x20 ADD DUP1 DUP4 GT PUSH2 0xB20 JUMPI DUP3 SWAP1 SUB PUSH1 0x1F AND DUP3 ADD SWAP2 JUMPDEST POP POP POP SWAP2 SWAP1 SWAP3 MSTORE POP POP POP SWAP1 MSTORE POP DUP2 MSTORE PUSH32 0x0 PUSH1 0x20 DUP1 DUP4 ADD SWAP2 SWAP1 SWAP2 MSTORE PUSH1 0x4 DUP1 SLOAD PUSH1 0x40 DUP1 DUP6 ADD SWAP2 SWAP1 SWAP2 MSTORE PUSH1 0x60 DUP1 DUP6 ADD DUP12 SWAP1 MSTORE PUSH1 0x0 DUP12 DUP2 MSTORE PUSH1 0x11 DUP6 MSTORE DUP3 DUP2 KECCAK256 PUSH1 0x2 SWAP1 DUP2 ADD SLOAD PUSH1 0x80 DUP9 ADD MSTORE PUSH1 0x5 DUP1 SLOAD PUSH1 0x1 PUSH1 0x1 PUSH1 0xA0 SHL SUB SWAP1 DUP2 AND PUSH1 0xA0 SWAP1 SWAP10 ADD SWAP9 SWAP1 SWAP9 MSTORE DUP10 DUP4 MSTORE PUSH1 0x14 DUP8 MSTORE SWAP2 DUP5 SWAP1 KECCAK256 DUP9 MLOAD DUP2 SSTORE DUP9 DUP8 ADD MLOAD DUP1 MLOAD PUSH1 0x1 DUP4 ADD SWAP1 DUP2 SSTORE DUP2 DUP10 ADD MLOAD SWAP4 DUP4 ADD SWAP4 SWAP1 SWAP4 SSTORE SWAP5 DUP6 ADD MLOAD PUSH1 0x3 DUP3 ADD DUP1 SLOAD PUSH1 0x1 PUSH1 0x1 PUSH1 0xA0 SHL SUB NOT AND SWAP2 SWAP1 SWAP10 AND OR SWAP1 SWAP8 SSTORE SWAP2 DUP4 ADD MLOAD DUP1 MLOAD SWAP5 DUP8 ADD SWAP5 DUP6 SSTORE SWAP5 DUP6 ADD MLOAD SWAP3 SWAP5 SWAP2 SWAP4 SWAP2 SWAP3 SWAP1 DUP7 ADD SWAP1 PUSH2 0xC21 SWAP1 DUP3 PUSH2 0x274A JUMP JUMPDEST POP POP POP POP PUSH1 0x40 DUP4 ADD MLOAD PUSH1 0x6 DUP4 ADD SSTORE POP PUSH1 0x60 DUP3 ADD MLOAD PUSH1 0x7 DUP3 ADD SSTORE PUSH1 0x80 DUP3 ADD MLOAD PUSH1 0x8 DUP1 DUP4 ADD SWAP2 SWAP1 SWAP2 SSTORE PUSH1 0xA0 DUP4 ADD MLOAD PUSH1 0x9 DUP4 ADD SSTORE PUSH1 0xC0 SWAP1 SWAP3 ADD MLOAD PUSH1 0xA SWAP1 SWAP2 ADD DUP1 SLOAD PUSH1 0x1 PUSH1 0x1 PUSH1 0xA0 SHL SUB NOT AND PUSH1 0x1 PUSH1 0x1 PUSH1 0xA0 SHL SUB SWAP1 SWAP3 AND SWAP2 SWAP1 SWAP2 OR SWAP1 SSTORE DUP1 SLOAD PUSH1 0x1 DUP2 DUP2 ADD DUP4 SSTORE PUSH1 0x0 SWAP3 SWAP1 SWAP3 MSTORE PUSH32 0xF3F7A9FE364FAAB93B216DA50A3214154F22A0A2B415B23A84C8169E8B636EE3 ADD SWAP2 SWAP1 SWAP2 SSTORE SWAP3 POP POP JUMPDEST POP SWAP2 SWAP1 POP JUMP JUMPDEST PUSH2 0xD0D PUSH1 0x40 MLOAD DUP1 PUSH2 0x100 ADD PUSH1 0x40 MSTORE DUP1 PUSH1 0x0 DUP2 MSTORE PUSH1 0x20 ADD PUSH1 0x60 DUP2 MSTORE PUSH1 0x20 ADD PUSH1 0x0 DUP2 MSTORE PUSH1 0x20 ADD PUSH1 0x0 DUP1 NOT AND DUP2 MSTORE PUSH1 0x20 ADD PUSH1 0x0 PUSH1 0x1 PUSH1 0x1 PUSH1 0xA0 SHL SUB AND DUP2 MSTORE PUSH1 0x20 ADD PUSH1 0x0 DUP2 MSTORE PUSH1 0x20 ADD PUSH1 0x60 DUP2 MSTORE PUSH1 0x20 ADD PUSH1 0x60 DUP2 MSTORE POP SWAP1 JUMP JUMPDEST PUSH1 0x40 DUP1 MLOAD PUSH2 0x100 DUP2 ADD DUP3 MSTORE PUSH32 0x0 DUP2 MSTORE DUP2 MLOAD DUP1 DUP4 ADD DUP4 MSTORE PUSH1 0x7 DUP2 MSTORE PUSH7 0x141493D29150D5 PUSH1 0xCA SHL PUSH1 0x20 DUP3 DUP2 ADD SWAP2 SWAP1 SWAP2 MSTORE DUP1 DUP4 ADD SWAP2 SWAP1 SWAP2 MSTORE PUSH1 0x3 SLOAD DUP3 DUP5 ADD MSTORE PUSH1 0x4 SLOAD PUSH1 0x60 DUP4 ADD MSTORE PUSH1 0x5 SLOAD PUSH1 0x1 PUSH1 0x1 PUSH1 0xA0 SHL SUB AND PUSH1 0x80 DUP4 ADD MSTORE PUSH1 0x1 SLOAD PUSH1 0xA0 DUP4 ADD MSTORE PUSH1 0xF DUP1 SLOAD DUP5 MLOAD DUP2 DUP5 MUL DUP2 ADD DUP5 ADD SWAP1 SWAP6 MSTORE DUP1 DUP6 MSTORE SWAP3 SWAP4 PUSH1 0xC0 DUP6 ADD SWAP4 SWAP1 SWAP3 DUP4 ADD DUP3 DUP3 DUP1 ISZERO PUSH2 0xDD4 JUMPI PUSH1 0x20 MUL DUP3 ADD SWAP2 SWAP1 PUSH1 0x0 MSTORE PUSH1 0x20 PUSH1 0x0 KECCAK256 SWAP1 JUMPDEST DUP2 SLOAD DUP2 MSTORE PUSH1 0x20 ADD SWAP1 PUSH1 0x1 ADD SWAP1 DUP1 DUP4 GT PUSH2 0xDC0 JUMPI JUMPDEST POP POP POP POP POP DUP2 MSTORE PUSH1 0x20 ADD PUSH1 0x7 DUP1 SLOAD DUP1 PUSH1 0x20 MUL PUSH1 0x20 ADD PUSH1 0x40 MLOAD SWAP1 DUP2 ADD PUSH1 0x40 MSTORE DUP1 SWAP3 SWAP2 SWAP1 DUP2 DUP2 MSTORE PUSH1 0x20 ADD DUP3 DUP1 SLOAD DUP1 ISZERO PUSH2 0xE34 JUMPI PUSH1 0x20 MUL DUP3 ADD SWAP2 SWAP1 PUSH1 0x0 MSTORE PUSH1 0x20 PUSH1 0x0 KECCAK256 SWAP1 JUMPDEST DUP2 SLOAD PUSH1 0x1 PUSH1 0x1 PUSH1 0xA0 SHL SUB AND DUP2 MSTORE PUSH1 0x1 SWAP1 SWAP2 ADD SWAP1 PUSH1 0x20 ADD DUP1 DUP4 GT PUSH2 0xE16 JUMPI JUMPDEST POP POP POP POP POP DUP2 MSTORE POP SWAP1 POP SWAP1 JUMP JUMPDEST PUSH2 0xE49 PUSH2 0x1E37 JUMP JUMPDEST PUSH1 0x1 PUSH1 0x1 PUSH1 0xA0 SHL SUB DUP1 DUP4 AND PUSH1 0x0 SWAP1 DUP2 MSTORE PUSH1 0xC PUSH1 0x20 SWAP1 DUP2 MSTORE PUSH1 0x40 DUP1 DUP4 KECCAK256 SLOAD DUP4 MSTORE PUSH1 0xB DUP3 MSTORE SWAP2 DUP3 SWAP1 KECCAK256 DUP3 MLOAD PUSH1 0x80 DUP2 ADD DUP5 MSTORE DUP2 SLOAD DUP2 MSTORE PUSH1 0x1 DUP3 ADD SLOAD DUP2 DUP5 ADD MSTORE PUSH1 0x2 DUP3 ADD SLOAD SWAP1 SWAP5 AND DUP5 DUP5 ADD MSTORE DUP3 MLOAD DUP1 DUP5 ADD SWAP1 SWAP4 MSTORE PUSH1 0x3 DUP2 ADD DUP1 SLOAD DUP5 MSTORE PUSH1 0x4 DUP3 ADD DUP1 SLOAD SWAP3 SWAP5 PUSH1 0x60 DUP8 ADD SWAP5 SWAP1 SWAP4 SWAP1 DUP5 ADD SWAP2 SWAP1 PUSH2 0x84A SWAP1 PUSH2 0x26AF JUMP JUMPDEST PUSH1 0x60 PUSH1 0x6 DUP1 SLOAD DUP1 PUSH1 0x20 MUL PUSH1 0x20 ADD PUSH1 0x40 MLOAD SWAP1 DUP2 ADD PUSH1 0x40 MSTORE DUP1 SWAP3 SWAP2 SWAP1 DUP2 DUP2 MSTORE PUSH1 0x20 ADD DUP3 DUP1 SLOAD DUP1 ISZERO PUSH2 0xF0C JUMPI PUSH1 0x20 MUL DUP3 ADD SWAP2 SWAP1 PUSH1 0x0 MSTORE PUSH1 0x20 PUSH1 0x0 KECCAK256 SWAP1 JUMPDEST DUP2 SLOAD DUP2 MSTORE PUSH1 0x20 ADD SWAP1 PUSH1 0x1 ADD SWAP1 DUP1 DUP4 GT PUSH2 0xEF8 JUMPI JUMPDEST POP POP POP POP POP SWAP1 POP SWAP1 JUMP JUMPDEST PUSH1 0x0 PUSH2 0xF21 CALLER PUSH2 0x1519 JUMP JUMPDEST PUSH2 0xF3D JUMPI PUSH1 0x40 MLOAD PUSH3 0x461BCD PUSH1 0xE5 SHL DUP2 MSTORE PUSH1 0x4 ADD PUSH2 0x356 SWAP1 PUSH2 0x2809 JUMP JUMPDEST PUSH1 0x0 PUSH2 0xF47 PUSH2 0x14FF JUMP JUMPDEST PUSH1 0x0 DUP2 DUP2 MSTORE PUSH1 0x10 PUSH1 0x20 SWAP1 DUP2 MSTORE PUSH1 0x40 DUP1 DUP4 KECCAK256 DUP1 SLOAD PUSH1 0xFF NOT AND PUSH1 0x1 SWAP1 DUP2 OR SWAP1 SWAP2 SSTORE PUSH1 0xF DUP1 SLOAD SWAP2 DUP3 ADD DUP2 SSTORE SWAP1 SWAP4 MSTORE PUSH32 0x8D1108E10BCB7C27DDDFC02ED9D693A074039D026CF4EA4240B40F7D581AC802 SWAP1 SWAP3 ADD DUP4 SWAP1 SSTORE DUP2 MLOAD PUSH1 0xE0 DUP2 ADD DUP4 MSTORE DUP4 DUP2 MSTORE PUSH32 0x0 SWAP2 DUP2 ADD SWAP2 SWAP1 SWAP2 MSTORE DUP7 DUP3 ADD MLOAD SWAP2 DUP2 ADD SWAP2 SWAP1 SWAP2 MSTORE PUSH1 0x60 DUP1 DUP8 ADD MLOAD SWAP1 DUP3 ADD MSTORE PUSH1 0x80 DUP1 DUP8 ADD MLOAD SWAP1 DUP3 ADD MSTORE PUSH1 0xA0 DUP1 DUP8 ADD MLOAD SWAP3 SWAP4 POP SWAP1 SWAP2 SWAP1 DUP3 ADD SWAP1 PUSH1 0x4 DUP2 GT ISZERO PUSH2 0x100B JUMPI PUSH2 0x100B PUSH2 0x1FC9 JUMP JUMPDEST DUP2 MSTORE PUSH1 0x20 ADD DUP6 PUSH1 0xC0 ADD MLOAD PUSH1 0x4 DUP2 GT ISZERO PUSH2 0x1026 JUMPI PUSH2 0x1026 PUSH2 0x1FC9 JUMP JUMPDEST SWAP1 MSTORE PUSH1 0x0 DUP3 DUP2 MSTORE PUSH1 0x11 PUSH1 0x20 SWAP1 DUP2 MSTORE PUSH1 0x40 SWAP2 DUP3 SWAP1 KECCAK256 DUP4 MLOAD DUP2 SSTORE SWAP1 DUP4 ADD MLOAD PUSH1 0x1 DUP3 ADD SSTORE SWAP1 DUP3 ADD MLOAD PUSH1 0x2 DUP3 ADD SSTORE PUSH1 0x60 DUP3 ADD MLOAD PUSH1 0x3 DUP3 ADD SWAP1 PUSH2 0x1064 SWAP1 DUP3 PUSH2 0x274A JUMP JUMPDEST POP PUSH1 0x80 DUP3 ADD MLOAD DUP1 MLOAD PUSH1 0x4 DUP4 ADD SWAP1 DUP2 SSTORE PUSH1 0x20 DUP3 ADD MLOAD PUSH1 0x5 DUP5 ADD SWAP1 PUSH2 0x1087 SWAP1 DUP3 PUSH2 0x274A JUMP JUMPDEST POP POP POP PUSH1 0xA0 DUP3 ADD MLOAD PUSH1 0x6 DUP3 ADD DUP1 SLOAD PUSH1 0xFF NOT AND PUSH1 0x1 DUP4 PUSH1 0x4 DUP2 GT ISZERO PUSH2 0x10AD JUMPI PUSH2 0x10AD PUSH2 0x1FC9 JUMP JUMPDEST MUL OR SWAP1 SSTORE POP PUSH1 0xC0 DUP3 ADD MLOAD PUSH1 0x6 DUP3 ADD DUP1 SLOAD PUSH2 0xFF00 NOT AND PUSH2 0x100 DUP4 PUSH1 0x4 DUP2 GT ISZERO PUSH2 0x10D7 JUMPI PUSH2 0x10D7 PUSH2 0x1FC9 JUMP JUMPDEST MUL OR SWAP1 SSTORE POP POP POP PUSH1 0x0 DUP4 DUP2 MSTORE PUSH1 0xD PUSH1 0x20 SWAP1 DUP2 MSTORE PUSH1 0x40 DUP1 DUP4 KECCAK256 DUP1 SLOAD PUSH1 0x1 DUP2 ADD DUP3 SSTORE SWAP1 DUP5 MSTORE DUP3 DUP5 KECCAK256 ADD DUP5 SWAP1 SSTORE DUP4 DUP4 MSTORE PUSH1 0xE SWAP1 SWAP2 MSTORE SWAP1 KECCAK256 DUP4 SWAP1 SSTORE PUSH2 0x1118 DUP2 DUP6 PUSH2 0x17AB JUMP JUMPDEST POP PUSH2 0x1121 PUSH2 0x18F4 JUMP JUMPDEST POP POP PUSH1 0xF SLOAD SWAP4 SWAP3 POP POP POP JUMP JUMPDEST PUSH1 0x0 PUSH2 0x1138 CALLER PUSH2 0x1519 JUMP JUMPDEST PUSH2 0x1154 JUMPI PUSH1 0x40 MLOAD PUSH3 0x461BCD PUSH1 0xE5 SHL DUP2 MSTORE PUSH1 0x4 ADD PUSH2 0x356 SWAP1 PUSH2 0x2809 JUMP JUMPDEST PUSH1 0x1 SLOAD PUSH2 0x1161 SWAP1 DUP4 PUSH2 0x284D JUMP JUMPDEST PUSH1 0x1 DUP4 SWAP1 SSTORE SWAP1 POP JUMPDEST SWAP2 SWAP1 POP JUMP JUMPDEST PUSH1 0x0 PUSH2 0x1179 CALLER PUSH2 0x1519 JUMP JUMPDEST PUSH2 0x1195 JUMPI PUSH1 0x40 MLOAD PUSH3 0x461BCD PUSH1 0xE5 SHL DUP2 MSTORE PUSH1 0x4 ADD PUSH2 0x356 SWAP1 PUSH2 0x2809 JUMP JUMPDEST DUP2 MLOAD PUSH1 0x0 SWAP1 DUP2 MSTORE PUSH1 0x10 PUSH1 0x20 MSTORE PUSH1 0x40 SWAP1 KECCAK256 SLOAD PUSH1 0xFF AND PUSH2 0x11C5 JUMPI PUSH1 0x40 MLOAD PUSH3 0x461BCD PUSH1 0xE5 SHL DUP2 MSTORE PUSH1 0x4 ADD PUSH2 0x356 SWAP1 PUSH2 0x267F JUMP JUMPDEST DUP2 MLOAD PUSH2 0x11D1 SWAP1 DUP4 PUSH2 0x17AB JUMP JUMPDEST SWAP1 POP PUSH2 0xCB3 PUSH2 0x18F4 JUMP JUMPDEST PUSH1 0x0 PUSH2 0x11E6 CALLER PUSH2 0x1519 JUMP JUMPDEST PUSH2 0x1202 JUMPI PUSH1 0x40 MLOAD PUSH3 0x461BCD PUSH1 0xE5 SHL DUP2 MSTORE PUSH1 0x4 ADD PUSH2 0x356 SWAP1 PUSH2 0x2809 JUMP JUMPDEST PUSH1 0x0 DUP4 DUP2 MSTORE PUSH1 0xE PUSH1 0x20 SWAP1 DUP2 MSTORE PUSH1 0x40 DUP1 DUP4 KECCAK256 DUP1 SLOAD SWAP1 DUP7 SWAP1 SSTORE DUP6 DUP5 MSTORE PUSH1 0xD DUP4 MSTORE DUP2 DUP5 KECCAK256 DUP1 SLOAD PUSH1 0x1 DUP2 ADD DUP3 SSTORE SWAP1 DUP6 MSTORE DUP4 DUP6 KECCAK256 ADD DUP8 SWAP1 SSTORE DUP1 DUP5 MSTORE DUP2 DUP5 KECCAK256 DUP1 SLOAD DUP4 MLOAD DUP2 DUP7 MUL DUP2 ADD DUP7 ADD SWAP1 SWAP5 MSTORE DUP1 DUP5 MSTORE SWAP2 SWAP5 SWAP4 SWAP1 SWAP2 SWAP1 DUP4 ADD DUP3 DUP3 DUP1 ISZERO PUSH2 0x1281 JUMPI PUSH1 0x20 MUL DUP3 ADD SWAP2 SWAP1 PUSH1 0x0 MSTORE PUSH1 0x20 PUSH1 0x0 KECCAK256 SWAP1 JUMPDEST DUP2 SLOAD DUP2 MSTORE PUSH1 0x20 ADD SWAP1 PUSH1 0x1 ADD SWAP1 DUP1 DUP4 GT PUSH2 0x126D JUMPI JUMPDEST POP POP POP POP POP SWAP1 POP PUSH1 0x1 DUP2 MLOAD GT ISZERO PUSH2 0x137B JUMPI PUSH1 0x0 DUP2 MLOAD PUSH1 0x1 PUSH1 0x1 PUSH1 0x40 SHL SUB DUP2 GT ISZERO PUSH2 0x12AD JUMPI PUSH2 0x12AD PUSH2 0x22EF JUMP JUMPDEST PUSH1 0x40 MLOAD SWAP1 DUP1 DUP3 MSTORE DUP1 PUSH1 0x20 MUL PUSH1 0x20 ADD DUP3 ADD PUSH1 0x40 MSTORE DUP1 ISZERO PUSH2 0x12D6 JUMPI DUP2 PUSH1 0x20 ADD PUSH1 0x20 DUP3 MUL DUP1 CALLDATASIZE DUP4 CALLDATACOPY ADD SWAP1 POP JUMPDEST POP SWAP1 POP PUSH1 0x0 DUP1 JUMPDEST DUP4 MLOAD DUP2 LT ISZERO PUSH2 0x1353 JUMPI DUP8 DUP5 DUP3 DUP2 MLOAD DUP2 LT PUSH2 0x12F9 JUMPI PUSH2 0x12F9 PUSH2 0x26E3 JUMP JUMPDEST PUSH1 0x20 MUL PUSH1 0x20 ADD ADD MLOAD EQ PUSH2 0x134B JUMPI DUP4 DUP2 DUP2 MLOAD DUP2 LT PUSH2 0x1318 JUMPI PUSH2 0x1318 PUSH2 0x26E3 JUMP JUMPDEST PUSH1 0x20 MUL PUSH1 0x20 ADD ADD MLOAD DUP4 DUP4 DUP2 MLOAD DUP2 LT PUSH2 0x1332 JUMPI PUSH2 0x1332 PUSH2 0x26E3 JUMP JUMPDEST PUSH1 0x20 SWAP1 DUP2 MUL SWAP2 SWAP1 SWAP2 ADD ADD MSTORE DUP2 PUSH2 0x1347 DUP2 PUSH2 0x2874 JUMP JUMPDEST SWAP3 POP POP JUMPDEST PUSH1 0x1 ADD PUSH2 0x12DD JUMP JUMPDEST POP PUSH1 0x0 DUP5 DUP2 MSTORE PUSH1 0xD PUSH1 0x20 SWAP1 DUP2 MSTORE PUSH1 0x40 SWAP1 SWAP2 KECCAK256 DUP4 MLOAD PUSH2 0x1373 SWAP3 DUP6 ADD SWAP1 PUSH2 0x1E7D JUMP JUMPDEST POP POP POP PUSH2 0x13A5 JUMP JUMPDEST PUSH1 0x40 DUP1 MLOAD PUSH1 0x0 DUP1 DUP3 MSTORE PUSH1 0x20 DUP1 DUP4 ADD DUP1 DUP6 MSTORE DUP7 DUP4 MSTORE PUSH1 0xD SWAP1 SWAP2 MSTORE SWAP3 SWAP1 KECCAK256 SWAP1 MLOAD PUSH2 0x13A3 SWAP3 SWAP1 PUSH2 0x1E7D JUMP JUMPDEST POP JUMPDEST POP PUSH1 0x1 SWAP5 SWAP4 POP POP POP POP JUMP JUMPDEST PUSH1 0x0 DUP1 PUSH2 0x13BB PUSH2 0x14FF JUMP JUMPDEST PUSH1 0x6 DUP1 SLOAD PUSH1 0x1 DUP1 DUP3 ADD DUP4 SSTORE PUSH1 0x0 SWAP3 DUP4 MSTORE PUSH32 0xF652222313E28459528D920B65115C16C04F3EFC82AAEDC97BE59F3F377C0D3F SWAP1 SWAP2 ADD DUP4 SWAP1 SSTORE PUSH1 0x40 DUP1 MLOAD PUSH1 0x80 DUP2 ADD DUP3 MSTORE DUP5 DUP2 MSTORE PUSH1 0x20 DUP9 DUP2 ADD MLOAD DUP2 DUP4 ADD SWAP1 DUP2 MSTORE DUP10 DUP5 ADD MLOAD PUSH1 0x1 PUSH1 0x1 PUSH1 0xA0 SHL SUB SWAP1 DUP2 AND DUP5 DUP7 ADD SWAP1 DUP2 MSTORE PUSH1 0x60 DUP1 DUP14 ADD MLOAD SWAP1 DUP7 ADD SWAP1 DUP2 MSTORE DUP10 DUP10 MSTORE PUSH1 0xB DUP6 MSTORE SWAP6 SWAP1 SWAP8 KECCAK256 DUP5 MLOAD DUP2 SSTORE SWAP2 MLOAD SWAP6 DUP3 ADD SWAP6 SWAP1 SWAP6 SSTORE SWAP5 MLOAD PUSH1 0x2 DUP7 ADD DUP1 SLOAD PUSH1 0x1 PUSH1 0x1 PUSH1 0xA0 SHL SUB NOT AND SWAP2 SWAP1 SWAP6 AND OR SWAP1 SWAP4 SSTORE SWAP1 MLOAD DUP1 MLOAD PUSH1 0x3 DUP6 ADD SWAP1 DUP2 SSTORE SWAP3 DUP2 ADD MLOAD SWAP5 SWAP6 POP SWAP1 SWAP4 SWAP1 SWAP2 SWAP1 PUSH1 0x4 DUP5 ADD SWAP1 PUSH2 0x1484 SWAP1 DUP3 PUSH2 0x274A JUMP JUMPDEST POP POP POP POP PUSH1 0x40 SWAP4 DUP5 ADD DUP1 MLOAD PUSH1 0x7 DUP1 SLOAD PUSH1 0x1 DUP1 DUP3 ADD DUP4 SSTORE PUSH1 0x0 SWAP3 DUP4 MSTORE PUSH32 0xA66CC928B5EDB82AF9BD49922954155AB7B0942694BEA4CE44661D9A8736C688 SWAP1 SWAP2 ADD DUP1 SLOAD PUSH1 0x1 PUSH1 0x1 PUSH1 0xA0 SHL SUB NOT AND PUSH1 0x1 PUSH1 0x1 PUSH1 0xA0 SHL SUB SWAP5 DUP6 AND OR SWAP1 SSTORE SWAP3 MLOAD SWAP1 SWAP2 AND DUP2 MSTORE PUSH1 0x9 PUSH1 0x20 MSTORE SWAP5 SWAP1 SWAP5 KECCAK256 DUP1 SLOAD PUSH1 0xFF NOT AND SWAP1 SWAP5 OR SWAP1 SWAP4 SSTORE POP SWAP2 SWAP1 POP JUMP JUMPDEST PUSH1 0x15 DUP1 SLOAD SWAP1 DUP2 SWAP1 PUSH1 0x0 PUSH2 0x1511 DUP4 PUSH2 0x2874 JUMP JUMPDEST SWAP2 SWAP1 POP SSTORE POP SWAP1 JUMP JUMPDEST PUSH1 0x2 SLOAD PUSH1 0x40 DUP1 MLOAD DUP1 DUP3 ADD DUP3 MSTORE PUSH1 0x12 DUP2 MSTORE PUSH18 0x52455345525645445F414C4C4F5F434F5245 PUSH1 0x70 SHL PUSH1 0x20 DUP3 ADD MSTORE SWAP1 MLOAD PUSH4 0xBF40FAC1 PUSH1 0xE0 SHL DUP2 MSTORE PUSH1 0x0 SWAP3 DUP4 SWAP3 PUSH1 0x1 PUSH1 0x1 PUSH1 0xA0 SHL SUB SWAP1 SWAP2 AND SWAP2 PUSH4 0xBF40FAC1 SWAP2 PUSH2 0x1573 SWAP2 PUSH1 0x4 ADD PUSH2 0x1F6F JUMP JUMPDEST PUSH1 0x20 PUSH1 0x40 MLOAD DUP1 DUP4 SUB DUP2 DUP7 GAS STATICCALL ISZERO DUP1 ISZERO PUSH2 0x1590 JUMPI RETURNDATASIZE PUSH1 0x0 DUP1 RETURNDATACOPY RETURNDATASIZE PUSH1 0x0 REVERT JUMPDEST POP POP POP POP PUSH1 0x40 MLOAD RETURNDATASIZE PUSH1 0x1F NOT PUSH1 0x1F DUP3 ADD AND DUP3 ADD DUP1 PUSH1 0x40 MSTORE POP DUP2 ADD SWAP1 PUSH2 0x15B4 SWAP2 SWAP1 PUSH2 0x2662 JUMP JUMPDEST SWAP1 POP PUSH1 0x0 DUP2 PUSH1 0x1 PUSH1 0x1 PUSH1 0xA0 SHL SUB AND PUSH4 0x5AB1BD53 PUSH1 0x40 MLOAD DUP2 PUSH4 0xFFFFFFFF AND PUSH1 0xE0 SHL DUP2 MSTORE PUSH1 0x4 ADD PUSH1 0x20 PUSH1 0x40 MLOAD DUP1 DUP4 SUB DUP2 DUP7 GAS STATICCALL ISZERO DUP1 ISZERO PUSH2 0x15F6 JUMPI RETURNDATASIZE PUSH1 0x0 DUP1 RETURNDATACOPY RETURNDATASIZE PUSH1 0x0 REVERT JUMPDEST POP POP POP POP PUSH1 0x40 MLOAD RETURNDATASIZE PUSH1 0x1F NOT PUSH1 0x1F DUP3 ADD AND DUP3 ADD DUP1 PUSH1 0x40 MSTORE POP DUP2 ADD SWAP1 PUSH2 0x161A SWAP2 SWAP1 PUSH2 0x2662 JUMP JUMPDEST PUSH1 0x3 SLOAD PUSH1 0x40 MLOAD PUSH4 0x29E40D4B PUSH1 0xE0 SHL DUP2 MSTORE SWAP2 SWAP3 POP PUSH1 0x1 PUSH1 0x1 PUSH1 0xA0 SHL SUB DUP5 AND SWAP2 PUSH4 0x29E40D4B SWAP2 PUSH2 0x165E SWAP2 DUP9 SWAP1 PUSH1 0x4 ADD SWAP2 DUP3 MSTORE PUSH1 0x1 PUSH1 0x1 PUSH1 0xA0 SHL SUB AND PUSH1 0x20 DUP3 ADD MSTORE PUSH1 0x40 ADD SWAP1 JUMP JUMPDEST PUSH1 0x20 PUSH1 0x40 MLOAD DUP1 DUP4 SUB DUP2 DUP7 GAS STATICCALL ISZERO DUP1 ISZERO PUSH2 0x167B JUMPI RETURNDATASIZE PUSH1 0x0 DUP1 RETURNDATACOPY RETURNDATASIZE PUSH1 0x0 REVERT JUMPDEST POP POP POP POP PUSH1 0x40 MLOAD RETURNDATASIZE PUSH1 0x1F NOT PUSH1 0x1F DUP3 ADD AND DUP3 ADD DUP1 PUSH1 0x40 MSTORE POP DUP2 ADD SWAP1 PUSH2 0x169F SWAP2 SWAP1 PUSH2 0x288D JUMP JUMPDEST DUP1 PUSH2 0x171A JUMPI POP PUSH1 0x3 SLOAD PUSH1 0x40 MLOAD PUSH4 0x559FF5E3 PUSH1 0xE1 SHL DUP2 MSTORE PUSH1 0x4 DUP2 ADD SWAP2 SWAP1 SWAP2 MSTORE PUSH1 0x1 PUSH1 0x1 PUSH1 0xA0 SHL SUB DUP6 DUP2 AND PUSH1 0x24 DUP4 ADD MSTORE DUP4 AND SWAP1 PUSH4 0xAB3FEBC6 SWAP1 PUSH1 0x44 ADD PUSH1 0x20 PUSH1 0x40 MLOAD DUP1 DUP4 SUB DUP2 DUP7 GAS STATICCALL ISZERO DUP1 ISZERO PUSH2 0x16F6 JUMPI RETURNDATASIZE PUSH1 0x0 DUP1 RETURNDATACOPY RETURNDATASIZE PUSH1 0x0 REVERT JUMPDEST POP POP POP POP PUSH1 0x40 MLOAD RETURNDATASIZE PUSH1 0x1F NOT PUSH1 0x1F DUP3 ADD AND DUP3 ADD DUP1 PUSH1 0x40 MSTORE POP DUP2 ADD SWAP1 PUSH2 0x171A SWAP2 SWAP1 PUSH2 0x288D JUMP JUMPDEST DUP1 PUSH2 0x1792 JUMPI POP PUSH1 0x4 DUP1 SLOAD PUSH1 0x40 MLOAD PUSH4 0xE6E1AE3 PUSH1 0xE2 SHL DUP2 MSTORE SWAP2 DUP3 ADD MSTORE PUSH1 0x1 PUSH1 0x1 PUSH1 0xA0 SHL SUB DUP6 DUP2 AND PUSH1 0x24 DUP4 ADD MSTORE DUP3 AND SWAP1 PUSH4 0x39B86B8C SWAP1 PUSH1 0x44 ADD PUSH1 0x20 PUSH1 0x40 MLOAD DUP1 DUP4 SUB DUP2 DUP7 GAS STATICCALL ISZERO DUP1 ISZERO PUSH2 0x176E JUMPI RETURNDATASIZE PUSH1 0x0 DUP1 RETURNDATACOPY RETURNDATASIZE PUSH1 0x0 REVERT JUMPDEST POP POP POP POP PUSH1 0x40 MLOAD RETURNDATASIZE PUSH1 0x1F NOT PUSH1 0x1F DUP3 ADD AND DUP3 ADD DUP1 PUSH1 0x40 MSTORE POP DUP2 ADD SWAP1 PUSH2 0x1792 SWAP2 SWAP1 PUSH2 0x288D JUMP JUMPDEST ISZERO PUSH2 0x17A1 JUMPI POP PUSH1 0x1 SWAP4 SWAP3 POP POP POP JUMP JUMPDEST POP PUSH1 0x0 SWAP4 SWAP3 POP POP POP JUMP JUMPDEST PUSH1 0x0 PUSH1 0x40 MLOAD DUP1 PUSH1 0xE0 ADD PUSH1 0x40 MSTORE DUP1 DUP5 DUP2 MSTORE PUSH1 0x20 ADD PUSH32 0x0 DUP2 MSTORE PUSH1 0x20 ADD DUP4 PUSH1 0x40 ADD MLOAD DUP2 MSTORE PUSH1 0x20 ADD DUP4 PUSH1 0x60 ADD MLOAD DUP2 MSTORE PUSH1 0x20 ADD DUP4 PUSH1 0x80 ADD MLOAD DUP2 MSTORE PUSH1 0x20 ADD DUP4 PUSH1 0xA0 ADD MLOAD PUSH1 0x4 DUP2 GT ISZERO PUSH2 0x1818 JUMPI PUSH2 0x1818 PUSH2 0x1FC9 JUMP JUMPDEST DUP2 MSTORE PUSH1 0x20 ADD DUP4 PUSH1 0xC0 ADD MLOAD PUSH1 0x4 DUP2 GT ISZERO PUSH2 0x1833 JUMPI PUSH2 0x1833 PUSH2 0x1FC9 JUMP JUMPDEST SWAP1 MSTORE PUSH1 0x0 DUP5 DUP2 MSTORE PUSH1 0x11 PUSH1 0x20 SWAP1 DUP2 MSTORE PUSH1 0x40 SWAP2 DUP3 SWAP1 KECCAK256 DUP4 MLOAD DUP2 SSTORE SWAP1 DUP4 ADD MLOAD PUSH1 0x1 DUP3 ADD SSTORE SWAP1 DUP3 ADD MLOAD PUSH1 0x2 DUP3 ADD SSTORE PUSH1 0x60 DUP3 ADD MLOAD PUSH1 0x3 DUP3 ADD SWAP1 PUSH2 0x1871 SWAP1 DUP3 PUSH2 0x274A JUMP JUMPDEST POP PUSH1 0x80 DUP3 ADD MLOAD DUP1 MLOAD PUSH1 0x4 DUP4 ADD SWAP1 DUP2 SSTORE PUSH1 0x20 DUP3 ADD MLOAD PUSH1 0x5 DUP5 ADD SWAP1 PUSH2 0x1894 SWAP1 DUP3 PUSH2 0x274A JUMP JUMPDEST POP POP POP PUSH1 0xA0 DUP3 ADD MLOAD PUSH1 0x6 DUP3 ADD DUP1 SLOAD PUSH1 0xFF NOT AND PUSH1 0x1 DUP4 PUSH1 0x4 DUP2 GT ISZERO PUSH2 0x18BA JUMPI PUSH2 0x18BA PUSH2 0x1FC9 JUMP JUMPDEST MUL OR SWAP1 SSTORE POP PUSH1 0xC0 DUP3 ADD MLOAD PUSH1 0x6 DUP3 ADD DUP1 SLOAD PUSH2 0xFF00 NOT AND PUSH2 0x100 DUP4 PUSH1 0x4 DUP2 GT ISZERO PUSH2 0x18E4 JUMPI PUSH2 0x18E4 PUSH2 0x1FC9 JUMP JUMPDEST MUL OR SWAP1 SSTORE POP PUSH1 0x1 SWAP6 SWAP5 POP POP POP POP POP JUMP JUMPDEST PUSH1 0x0 PUSH2 0x18FE PUSH2 0x1B28 JUMP JUMPDEST SWAP1 POP DUP1 PUSH1 0x1 SLOAD LT ISZERO PUSH2 0x194B JUMPI PUSH1 0x40 MLOAD PUSH3 0x461BCD PUSH1 0xE5 SHL DUP2 MSTORE PUSH1 0x20 PUSH1 0x4 DUP3 ADD MSTORE PUSH1 0x16 PUSH1 0x24 DUP3 ADD MSTORE PUSH22 0x1034B71039BAB33334B1B4B2B73A10313AB233B2BA1 PUSH1 0x55 SHL PUSH1 0x44 DUP3 ADD MSTORE PUSH1 0x64 ADD PUSH2 0x356 JUMP JUMPDEST PUSH1 0x2 SLOAD PUSH1 0x40 DUP1 MLOAD DUP1 DUP3 ADD DUP3 MSTORE PUSH1 0x12 DUP2 MSTORE PUSH18 0x52455345525645445F414C4C4F5F434F5245 PUSH1 0x70 SHL PUSH1 0x20 DUP3 ADD MSTORE SWAP1 MLOAD PUSH4 0xBF40FAC1 PUSH1 0xE0 SHL DUP2 MSTORE PUSH1 0x0 SWAP3 PUSH1 0x1 PUSH1 0x1 PUSH1 0xA0 SHL SUB AND SWAP2 PUSH4 0xBF40FAC1 SWAP2 PUSH2 0x19A2 SWAP2 SWAP1 PUSH1 0x4 ADD PUSH2 0x1F6F JUMP JUMPDEST PUSH1 0x20 PUSH1 0x40 MLOAD DUP1 DUP4 SUB DUP2 DUP7 GAS STATICCALL ISZERO DUP1 ISZERO PUSH2 0x19BF JUMPI RETURNDATASIZE PUSH1 0x0 DUP1 RETURNDATACOPY RETURNDATASIZE PUSH1 0x0 REVERT JUMPDEST POP POP POP POP PUSH1 0x40 MLOAD RETURNDATASIZE PUSH1 0x1F NOT PUSH1 0x1F DUP3 ADD AND DUP3 ADD DUP1 PUSH1 0x40 MSTORE POP DUP2 ADD SWAP1 PUSH2 0x19E3 SWAP2 SWAP1 PUSH2 0x2662 JUMP JUMPDEST SWAP1 POP DUP2 DUP2 PUSH1 0x1 PUSH1 0x1 PUSH1 0xA0 SHL SUB AND PUSH4 0x68BCD8D PUSH1 0x3 SLOAD PUSH1 0x40 MLOAD DUP3 PUSH4 0xFFFFFFFF AND PUSH1 0xE0 SHL DUP2 MSTORE PUSH1 0x4 ADD PUSH2 0x1A16 SWAP2 DUP2 MSTORE PUSH1 0x20 ADD SWAP1 JUMP JUMPDEST PUSH1 0x0 PUSH1 0x40 MLOAD DUP1 DUP4 SUB DUP2 DUP7 GAS STATICCALL ISZERO DUP1 ISZERO PUSH2 0x1A33 JUMPI RETURNDATASIZE PUSH1 0x0 DUP1 RETURNDATACOPY RETURNDATASIZE PUSH1 0x0 REVERT JUMPDEST POP POP POP POP PUSH1 0x40 MLOAD RETURNDATASIZE PUSH1 0x0 DUP3 RETURNDATACOPY PUSH1 0x1F RETURNDATASIZE SWAP1 DUP2 ADD PUSH1 0x1F NOT AND DUP3 ADD PUSH1 0x40 MSTORE PUSH2 0x1A5B SWAP2 SWAP1 DUP2 ADD SWAP1 PUSH2 0x28AF JUMP JUMPDEST PUSH1 0x40 SWAP1 DUP2 ADD MLOAD SWAP1 MLOAD PUSH4 0x70A08231 PUSH1 0xE0 SHL DUP2 MSTORE PUSH1 0x1 PUSH1 0x1 PUSH1 0xA0 SHL SUB DUP5 DUP2 AND PUSH1 0x4 DUP4 ADD MSTORE SWAP1 SWAP2 AND SWAP1 PUSH4 0x70A08231 SWAP1 PUSH1 0x24 ADD PUSH1 0x20 PUSH1 0x40 MLOAD DUP1 DUP4 SUB DUP2 DUP7 GAS STATICCALL ISZERO DUP1 ISZERO PUSH2 0x1AA7 JUMPI RETURNDATASIZE PUSH1 0x0 DUP1 RETURNDATACOPY RETURNDATASIZE PUSH1 0x0 REVERT JUMPDEST POP POP POP POP PUSH1 0x40 MLOAD RETURNDATASIZE PUSH1 0x1F NOT PUSH1 0x1F DUP3 ADD AND DUP3 ADD DUP1 PUSH1 0x40 MSTORE POP DUP2 ADD SWAP1 PUSH2 0x1ACB SWAP2 SWAP1 PUSH2 0x29D0 JUMP JUMPDEST LT ISZERO PUSH2 0x7D7 JUMPI PUSH1 0x40 MLOAD PUSH3 0x461BCD PUSH1 0xE5 SHL DUP2 MSTORE PUSH1 0x20 PUSH1 0x4 DUP3 ADD MSTORE PUSH1 0x26 PUSH1 0x24 DUP3 ADD MSTORE PUSH32 0x20696E73756666696369656E742066756E647320617661696C61626C6520696E PUSH1 0x44 DUP3 ADD MSTORE PUSH6 0x103837B7B61 PUSH1 0xD5 SHL PUSH1 0x64 DUP3 ADD MSTORE PUSH1 0x84 ADD PUSH2 0x356 JUMP JUMPDEST PUSH1 0x0 DUP1 JUMPDEST PUSH1 0xF SLOAD DUP2 LT ISZERO PUSH2 0x7D7 JUMPI PUSH1 0x0 PUSH1 0x11 PUSH1 0x0 PUSH1 0xF DUP5 DUP2 SLOAD DUP2 LT PUSH2 0x1B4F JUMPI PUSH2 0x1B4F PUSH2 0x26E3 JUMP JUMPDEST SWAP1 PUSH1 0x0 MSTORE PUSH1 0x20 PUSH1 0x0 KECCAK256 ADD SLOAD DUP2 MSTORE PUSH1 0x20 ADD SWAP1 DUP2 MSTORE PUSH1 0x20 ADD PUSH1 0x0 KECCAK256 PUSH1 0x40 MLOAD DUP1 PUSH1 0xE0 ADD PUSH1 0x40 MSTORE SWAP1 DUP2 PUSH1 0x0 DUP3 ADD SLOAD DUP2 MSTORE PUSH1 0x20 ADD PUSH1 0x1 DUP3 ADD SLOAD DUP2 MSTORE PUSH1 0x20 ADD PUSH1 0x2 DUP3 ADD SLOAD DUP2 MSTORE PUSH1 0x20 ADD PUSH1 0x3 DUP3 ADD DUP1 SLOAD PUSH2 0x1BA1 SWAP1 PUSH2 0x26AF JUMP JUMPDEST DUP1 PUSH1 0x1F ADD PUSH1 0x20 DUP1 SWAP2 DIV MUL PUSH1 0x20 ADD PUSH1 0x40 MLOAD SWAP1 DUP2 ADD PUSH1 0x40 MSTORE DUP1 SWAP3 SWAP2 SWAP1 DUP2 DUP2 MSTORE PUSH1 0x20 ADD DUP3 DUP1 SLOAD PUSH2 0x1BCD SWAP1 PUSH2 0x26AF JUMP JUMPDEST DUP1 ISZERO PUSH2 0x1C1A JUMPI DUP1 PUSH1 0x1F LT PUSH2 0x1BEF JUMPI PUSH2 0x100 DUP1 DUP4 SLOAD DIV MUL DUP4 MSTORE SWAP2 PUSH1 0x20 ADD SWAP2 PUSH2 0x1C1A JUMP JUMPDEST DUP3 ADD SWAP2 SWAP1 PUSH1 0x0 MSTORE PUSH1 0x20 PUSH1 0x0 KECCAK256 SWAP1 JUMPDEST DUP2 SLOAD DUP2 MSTORE SWAP1 PUSH1 0x1 ADD SWAP1 PUSH1 0x20 ADD DUP1 DUP4 GT PUSH2 0x1BFD JUMPI DUP3 SWAP1 SUB PUSH1 0x1F AND DUP3 ADD SWAP2 JUMPDEST POP POP POP POP POP DUP2 MSTORE PUSH1 0x20 ADD PUSH1 0x4 DUP3 ADD PUSH1 0x40 MLOAD DUP1 PUSH1 0x40 ADD PUSH1 0x40 MSTORE SWAP1 DUP2 PUSH1 0x0 DUP3 ADD SLOAD DUP2 MSTORE PUSH1 0x20 ADD PUSH1 0x1 DUP3 ADD DUP1 SLOAD PUSH2 0x1C4D SWAP1 PUSH2 0x26AF JUMP JUMPDEST DUP1 PUSH1 0x1F ADD PUSH1 0x20 DUP1 SWAP2 DIV MUL PUSH1 0x20 ADD PUSH1 0x40 MLOAD SWAP1 DUP2 ADD PUSH1 0x40 MSTORE DUP1 SWAP3 SWAP2 SWAP1 DUP2 DUP2 MSTORE PUSH1 0x20 ADD DUP3 DUP1 SLOAD PUSH2 0x1C79 SWAP1 PUSH2 0x26AF JUMP JUMPDEST DUP1 ISZERO PUSH2 0x1CC6 JUMPI DUP1 PUSH1 0x1F LT PUSH2 0x1C9B JUMPI PUSH2 0x100 DUP1 DUP4 SLOAD DIV MUL DUP4 MSTORE SWAP2 PUSH1 0x20 ADD SWAP2 PUSH2 0x1CC6 JUMP JUMPDEST DUP3 ADD SWAP2 SWAP1 PUSH1 0x0 MSTORE PUSH1 0x20 PUSH1 0x0 KECCAK256 SWAP1 JUMPDEST DUP2 SLOAD DUP2 MSTORE SWAP1 PUSH1 0x1 ADD SWAP1 PUSH1 0x20 ADD DUP1 DUP4 GT PUSH2 0x1CA9 JUMPI DUP3 SWAP1 SUB PUSH1 0x1F AND DUP3 ADD SWAP2 JUMPDEST POP POP POP SWAP2 SWAP1 SWAP3 MSTORE POP POP POP DUP2 MSTORE PUSH1 0x6 DUP3 ADD SLOAD PUSH1 0x20 SWAP1 SWAP2 ADD SWAP1 PUSH1 0xFF AND PUSH1 0x4 DUP2 GT ISZERO PUSH2 0x1CF1 JUMPI PUSH2 0x1CF1 PUSH2 0x1FC9 JUMP JUMPDEST PUSH1 0x4 DUP2 GT ISZERO PUSH2 0x1D02 JUMPI PUSH2 0x1D02 PUSH2 0x1FC9 JUMP JUMPDEST DUP2 MSTORE PUSH1 0x20 ADD PUSH1 0x6 DUP3 ADD PUSH1 0x1 SWAP1 SLOAD SWAP1 PUSH2 0x100 EXP SWAP1 DIV PUSH1 0xFF AND PUSH1 0x4 DUP2 GT ISZERO PUSH2 0x1D2A JUMPI PUSH2 0x1D2A PUSH2 0x1FC9 JUMP JUMPDEST PUSH1 0x4 DUP2 GT ISZERO PUSH2 0x1D3B JUMPI PUSH2 0x1D3B PUSH2 0x1FC9 JUMP JUMPDEST SWAP1 MSTORE POP SWAP1 POP PUSH1 0x4 DUP2 PUSH1 0xA0 ADD MLOAD PUSH1 0x4 DUP2 GT ISZERO PUSH2 0x1D58 JUMPI PUSH2 0x1D58 PUSH2 0x1FC9 JUMP JUMPDEST EQ ISZERO DUP1 ISZERO PUSH2 0x1D7C JUMPI POP PUSH1 0x2 DUP2 PUSH1 0xC0 ADD MLOAD PUSH1 0x4 DUP2 GT ISZERO PUSH2 0x1D79 JUMPI PUSH2 0x1D79 PUSH2 0x1FC9 JUMP JUMPDEST EQ ISZERO JUMPDEST ISZERO PUSH2 0x1D93 JUMPI PUSH1 0x40 DUP2 ADD MLOAD PUSH2 0x1D90 SWAP1 DUP5 PUSH2 0x29E9 JUMP JUMPDEST SWAP3 POP JUMPDEST POP PUSH1 0x1 ADD PUSH2 0x1B2C JUMP JUMPDEST PUSH1 0x40 MLOAD DUP1 PUSH1 0xE0 ADD PUSH1 0x40 MSTORE DUP1 PUSH1 0x0 DUP2 MSTORE PUSH1 0x20 ADD PUSH1 0x0 DUP2 MSTORE PUSH1 0x20 ADD PUSH1 0x0 DUP2 MSTORE PUSH1 0x20 ADD PUSH1 0x60 DUP2 MSTORE PUSH1 0x20 ADD PUSH2 0x1DE0 PUSH1 0x40 MLOAD DUP1 PUSH1 0x40 ADD PUSH1 0x40 MSTORE DUP1 PUSH1 0x0 DUP2 MSTORE PUSH1 0x20 ADD PUSH1 0x60 DUP2 MSTORE POP SWAP1 JUMP JUMPDEST DUP2 MSTORE PUSH1 0x20 ADD PUSH1 0x0 DUP2 MSTORE PUSH1 0x20 ADD PUSH1 0x0 JUMPDEST SWAP1 MSTORE SWAP1 JUMP JUMPDEST PUSH1 0x40 MLOAD DUP1 PUSH1 0xE0 ADD PUSH1 0x40 MSTORE DUP1 PUSH1 0x0 DUP2 MSTORE PUSH1 0x20 ADD PUSH2 0x1E0E PUSH2 0x1E37 JUMP JUMPDEST DUP2 MSTORE PUSH1 0x0 PUSH1 0x20 DUP3 ADD DUP2 SWAP1 MSTORE PUSH1 0x40 DUP3 ADD DUP2 SWAP1 MSTORE PUSH1 0x60 DUP3 ADD DUP2 SWAP1 MSTORE PUSH1 0x80 DUP3 ADD DUP2 SWAP1 MSTORE PUSH1 0xA0 SWAP1 SWAP2 ADD MSTORE SWAP1 JUMP JUMPDEST PUSH1 0x40 MLOAD DUP1 PUSH1 0x80 ADD PUSH1 0x40 MSTORE DUP1 PUSH1 0x0 DUP2 MSTORE PUSH1 0x20 ADD PUSH1 0x0 DUP2 MSTORE PUSH1 0x20 ADD PUSH1 0x0 PUSH1 0x1 PUSH1 0x1 PUSH1 0xA0 SHL SUB AND DUP2 MSTORE PUSH1 0x20 ADD PUSH2 0x1DEF PUSH1 0x40 MLOAD DUP1 PUSH1 0x40 ADD PUSH1 0x40 MSTORE DUP1 PUSH1 0x0 DUP2 MSTORE PUSH1 0x20 ADD PUSH1 0x60 DUP2 MSTORE POP SWAP1 JUMP JUMPDEST DUP3 DUP1 SLOAD DUP3 DUP3 SSTORE SWAP1 PUSH1 0x0 MSTORE PUSH1 0x20 PUSH1 0x0 KECCAK256 SWAP1 DUP2 ADD SWAP3 DUP3 ISZERO PUSH2 0x1EB8 JUMPI SWAP2 PUSH1 0x20 MUL DUP3 ADD JUMPDEST DUP3 DUP2 GT ISZERO PUSH2 0x1EB8 JUMPI DUP3 MLOAD DUP3 SSTORE SWAP2 PUSH1 0x20 ADD SWAP2 SWAP1 PUSH1 0x1 ADD SWAP1 PUSH2 0x1E9D JUMP JUMPDEST POP PUSH2 0x7D7 SWAP3 SWAP2 POP JUMPDEST DUP1 DUP3 GT ISZERO PUSH2 0x7D7 JUMPI PUSH1 0x0 DUP2 SSTORE PUSH1 0x1 ADD PUSH2 0x1EC0 JUMP JUMPDEST PUSH1 0x5 DUP2 LT PUSH2 0x1EE1 JUMPI PUSH1 0x0 DUP1 REVERT JUMPDEST POP JUMP JUMPDEST DUP1 CALLDATALOAD PUSH2 0x1169 DUP2 PUSH2 0x1ED4 JUMP JUMPDEST PUSH1 0x0 DUP1 PUSH1 0x40 DUP4 DUP6 SUB SLT ISZERO PUSH2 0x1F02 JUMPI PUSH1 0x0 DUP1 REVERT JUMPDEST DUP3 CALLDATALOAD SWAP2 POP PUSH1 0x20 DUP4 ADD CALLDATALOAD PUSH2 0x1F14 DUP2 PUSH2 0x1ED4 JUMP JUMPDEST DUP1 SWAP2 POP POP SWAP3 POP SWAP3 SWAP1 POP JUMP JUMPDEST PUSH1 0x0 JUMPDEST DUP4 DUP2 LT ISZERO PUSH2 0x1F3A JUMPI DUP2 DUP2 ADD MLOAD DUP4 DUP3 ADD MSTORE PUSH1 0x20 ADD PUSH2 0x1F22 JUMP JUMPDEST POP POP PUSH1 0x0 SWAP2 ADD MSTORE JUMP JUMPDEST PUSH1 0x0 DUP2 MLOAD DUP1 DUP5 MSTORE PUSH2 0x1F5B DUP2 PUSH1 0x20 DUP7 ADD PUSH1 0x20 DUP7 ADD PUSH2 0x1F1F JUMP JUMPDEST PUSH1 0x1F ADD PUSH1 0x1F NOT AND SWAP3 SWAP1 SWAP3 ADD PUSH1 0x20 ADD SWAP3 SWAP2 POP POP JUMP JUMPDEST PUSH1 0x20 DUP2 MSTORE PUSH1 0x0 PUSH2 0x1F82 PUSH1 0x20 DUP4 ADD DUP5 PUSH2 0x1F43 JUMP JUMPDEST SWAP4 SWAP3 POP POP POP JUMP JUMPDEST PUSH1 0x0 PUSH1 0x20 DUP3 DUP5 SUB SLT ISZERO PUSH2 0x1F9B JUMPI PUSH1 0x0 DUP1 REVERT JUMPDEST POP CALLDATALOAD SWAP2 SWAP1 POP JUMP JUMPDEST DUP1 MLOAD DUP3 MSTORE PUSH1 0x0 PUSH1 0x20 DUP3 ADD MLOAD PUSH1 0x40 PUSH1 0x20 DUP6 ADD MSTORE PUSH2 0x1FC1 PUSH1 0x40 DUP6 ADD DUP3 PUSH2 0x1F43 JUMP JUMPDEST SWAP5 SWAP4 POP POP POP POP JUMP JUMPDEST PUSH4 0x4E487B71 PUSH1 0xE0 SHL PUSH1 0x0 MSTORE PUSH1 0x21 PUSH1 0x4 MSTORE PUSH1 0x24 PUSH1 0x0 REVERT JUMPDEST PUSH1 0x5 DUP2 LT PUSH2 0x1EE1 JUMPI PUSH4 0x4E487B71 PUSH1 0xE0 SHL PUSH1 0x0 MSTORE PUSH1 0x21 PUSH1 0x4 MSTORE PUSH1 0x24 PUSH1 0x0 REVERT JUMPDEST PUSH1 0x20 DUP2 MSTORE DUP2 MLOAD PUSH1 0x20 DUP3 ADD MSTORE PUSH1 0x20 DUP3 ADD MLOAD PUSH1 0x40 DUP3 ADD MSTORE PUSH1 0x40 DUP3 ADD MLOAD PUSH1 0x60 DUP3 ADD MSTORE PUSH1 0x0 PUSH1 0x60 DUP4 ADD MLOAD PUSH1 0xE0 PUSH1 0x80 DUP5 ADD MSTORE PUSH2 0x2038 PUSH2 0x100 DUP5 ADD DUP3 PUSH2 0x1F43 JUMP JUMPDEST SWAP1 POP PUSH1 0x80 DUP5 ADD MLOAD PUSH1 0x1F NOT DUP5 DUP4 SUB ADD PUSH1 0xA0 DUP6 ADD MSTORE PUSH2 0x2055 DUP3 DUP3 PUSH2 0x1FA2 JUMP JUMPDEST SWAP2 POP POP PUSH1 0xA0 DUP5 ADD MLOAD PUSH2 0x2066 DUP2 PUSH2 0x1FDF JUMP JUMPDEST DUP1 PUSH1 0xC0 DUP6 ADD MSTORE POP PUSH1 0xC0 DUP5 ADD MLOAD PUSH2 0x207B DUP2 PUSH2 0x1FDF JUMP JUMPDEST PUSH1 0xE0 SWAP4 SWAP1 SWAP4 ADD SWAP3 SWAP1 SWAP3 MSTORE POP SWAP2 SWAP1 POP JUMP JUMPDEST DUP1 MLOAD DUP3 MSTORE PUSH1 0x20 DUP2 ADD MLOAD PUSH1 0x20 DUP4 ADD MSTORE PUSH1 0x1 DUP1 PUSH1 0xA0 SHL SUB PUSH1 0x40 DUP3 ADD MLOAD AND PUSH1 0x40 DUP4 ADD MSTORE PUSH1 0x0 PUSH1 0x60 DUP3 ADD MLOAD PUSH1 0x80 PUSH1 0x60 DUP6 ADD MSTORE PUSH2 0x1FC1 PUSH1 0x80 DUP6 ADD DUP3 PUSH2 0x1FA2 JUMP JUMPDEST PUSH1 0x0 PUSH1 0x20 DUP1 DUP4 ADD DUP2 DUP5 MSTORE DUP1 DUP6 MLOAD DUP1 DUP4 MSTORE PUSH1 0x40 SWAP3 POP PUSH1 0x40 DUP7 ADD SWAP2 POP PUSH1 0x40 DUP2 PUSH1 0x5 SHL DUP8 ADD ADD DUP5 DUP9 ADD PUSH1 0x0 JUMPDEST DUP4 DUP2 LT ISZERO PUSH2 0x216C JUMPI PUSH1 0x3F NOT DUP10 DUP5 SUB ADD DUP6 MSTORE DUP2 MLOAD PUSH1 0xE0 DUP2 MLOAD DUP6 MSTORE DUP9 DUP3 ADD MLOAD DUP2 DUP11 DUP8 ADD MSTORE PUSH2 0x211D DUP3 DUP8 ADD DUP3 PUSH2 0x208B JUMP JUMPDEST DUP4 DUP11 ADD MLOAD DUP8 DUP12 ADD MSTORE PUSH1 0x60 DUP1 DUP6 ADD MLOAD SWAP1 DUP9 ADD MSTORE PUSH1 0x80 DUP1 DUP6 ADD MLOAD SWAP1 DUP9 ADD MSTORE PUSH1 0xA0 DUP1 DUP6 ADD MLOAD SWAP1 DUP9 ADD MSTORE PUSH1 0xC0 SWAP4 DUP5 ADD MLOAD PUSH1 0x1 PUSH1 0x1 PUSH1 0xA0 SHL SUB AND SWAP4 SWAP1 SWAP7 ADD SWAP3 SWAP1 SWAP3 MSTORE POP POP SWAP4 DUP7 ADD SWAP4 SWAP1 DUP7 ADD SWAP1 PUSH1 0x1 ADD PUSH2 0x20EF JUMP JUMPDEST POP SWAP1 SWAP9 SWAP8 POP POP POP POP POP POP POP POP JUMP JUMPDEST PUSH1 0x20 DUP2 MSTORE PUSH1 0x0 PUSH2 0x1F82 PUSH1 0x20 DUP4 ADD DUP5 PUSH2 0x208B JUMP JUMPDEST PUSH1 0x0 DUP2 MLOAD DUP1 DUP5 MSTORE PUSH1 0x20 DUP1 DUP6 ADD SWAP5 POP PUSH1 0x20 DUP5 ADD PUSH1 0x0 JUMPDEST DUP4 DUP2 LT ISZERO PUSH2 0x21BE JUMPI DUP2 MLOAD DUP8 MSTORE SWAP6 DUP3 ADD SWAP6 SWAP1 DUP3 ADD SWAP1 PUSH1 0x1 ADD PUSH2 0x21A2 JUMP JUMPDEST POP SWAP5 SWAP6 SWAP5 POP POP POP POP POP JUMP JUMPDEST PUSH1 0x0 DUP2 MLOAD DUP1 DUP5 MSTORE PUSH1 0x20 DUP1 DUP6 ADD SWAP5 POP PUSH1 0x20 DUP5 ADD PUSH1 0x0 JUMPDEST DUP4 DUP2 LT ISZERO PUSH2 0x21BE JUMPI DUP2 MLOAD PUSH1 0x1 PUSH1 0x1 PUSH1 0xA0 SHL SUB AND DUP8 MSTORE SWAP6 DUP3 ADD SWAP6 SWAP1 DUP3 ADD SWAP1 PUSH1 0x1 ADD PUSH2 0x21DE JUMP JUMPDEST PUSH1 0x20 DUP2 MSTORE DUP2 MLOAD PUSH1 0x20 DUP3 ADD MSTORE PUSH1 0x0 PUSH1 0x20 DUP4 ADD MLOAD PUSH2 0x100 DUP1 PUSH1 0x40 DUP6 ADD MSTORE PUSH2 0x222C PUSH2 0x120 DUP6 ADD DUP4 PUSH2 0x1F43 JUMP JUMPDEST SWAP2 POP PUSH1 0x40 DUP6 ADD MLOAD PUSH1 0x60 DUP6 ADD MSTORE PUSH1 0x60 DUP6 ADD MLOAD PUSH1 0x80 DUP6 ADD MSTORE PUSH1 0x80 DUP6 ADD MLOAD PUSH2 0x225C PUSH1 0xA0 DUP7 ADD DUP3 PUSH1 0x1 PUSH1 0x1 PUSH1 0xA0 SHL SUB AND SWAP1 MSTORE JUMP JUMPDEST POP PUSH1 0xA0 DUP6 ADD MLOAD PUSH1 0xC0 DUP6 ADD MSTORE PUSH1 0xC0 DUP6 ADD MLOAD PUSH1 0x1F NOT DUP1 DUP7 DUP6 SUB ADD PUSH1 0xE0 DUP8 ADD MSTORE PUSH2 0x2283 DUP5 DUP4 PUSH2 0x218D JUMP JUMPDEST SWAP4 POP PUSH1 0xE0 DUP8 ADD MLOAD SWAP2 POP DUP1 DUP7 DUP6 SUB ADD DUP4 DUP8 ADD MSTORE POP PUSH2 0x22A0 DUP4 DUP3 PUSH2 0x21C9 JUMP JUMPDEST SWAP7 SWAP6 POP POP POP POP POP POP JUMP JUMPDEST PUSH1 0x1 PUSH1 0x1 PUSH1 0xA0 SHL SUB DUP2 AND DUP2 EQ PUSH2 0x1EE1 JUMPI PUSH1 0x0 DUP1 REVERT JUMPDEST PUSH1 0x0 PUSH1 0x20 DUP3 DUP5 SUB SLT ISZERO PUSH2 0x22D1 JUMPI PUSH1 0x0 DUP1 REVERT JUMPDEST DUP2 CALLDATALOAD PUSH2 0x1F82 DUP2 PUSH2 0x22AA JUMP JUMPDEST PUSH1 0x20 DUP2 MSTORE PUSH1 0x0 PUSH2 0x1F82 PUSH1 0x20 DUP4 ADD DUP5 PUSH2 0x218D JUMP JUMPDEST PUSH4 0x4E487B71 PUSH1 0xE0 SHL PUSH1 0x0 MSTORE PUSH1 0x41 PUSH1 0x4 MSTORE PUSH1 0x24 PUSH1 0x0 REVERT JUMPDEST PUSH1 0x40 DUP1 MLOAD SWAP1 DUP2 ADD PUSH1 0x1 PUSH1 0x1 PUSH1 0x40 SHL SUB DUP2 GT DUP3 DUP3 LT OR ISZERO PUSH2 0x2327 JUMPI PUSH2 0x2327 PUSH2 0x22EF JUMP JUMPDEST PUSH1 0x40 MSTORE SWAP1 JUMP JUMPDEST PUSH1 0x40 MLOAD PUSH1 0xE0 DUP2 ADD PUSH1 0x1 PUSH1 0x1 PUSH1 0x40 SHL SUB DUP2 GT DUP3 DUP3 LT OR ISZERO PUSH2 0x2327 JUMPI PUSH2 0x2327 PUSH2 0x22EF JUMP JUMPDEST PUSH1 0x40 MLOAD PUSH1 0xC0 DUP2 ADD PUSH1 0x1 PUSH1 0x1 PUSH1 0x40 SHL SUB DUP2 GT DUP3 DUP3 LT OR ISZERO PUSH2 0x2327 JUMPI PUSH2 0x2327 PUSH2 0x22EF JUMP JUMPDEST PUSH1 0x40 MLOAD PUSH1 0x1F DUP3 ADD PUSH1 0x1F NOT AND DUP2 ADD PUSH1 0x1 PUSH1 0x1 PUSH1 0x40 SHL SUB DUP2 GT DUP3 DUP3 LT OR ISZERO PUSH2 0x2399 JUMPI PUSH2 0x2399 PUSH2 0x22EF JUMP JUMPDEST PUSH1 0x40 MSTORE SWAP2 SWAP1 POP JUMP JUMPDEST PUSH1 0x0 PUSH1 0x1 PUSH1 0x1 PUSH1 0x40 SHL SUB DUP3 GT ISZERO PUSH2 0x23BA JUMPI PUSH2 0x23BA PUSH2 0x22EF JUMP JUMPDEST POP PUSH1 0x1F ADD PUSH1 0x1F NOT AND PUSH1 0x20 ADD SWAP1 JUMP JUMPDEST PUSH1 0x0 DUP3 PUSH1 0x1F DUP4 ADD SLT PUSH2 0x23D9 JUMPI PUSH1 0x0 DUP1 REVERT JUMPDEST DUP2 CALLDATALOAD PUSH2 0x23EC PUSH2 0x23E7 DUP3 PUSH2 0x23A1 JUMP JUMPDEST PUSH2 0x2371 JUMP JUMPDEST DUP2 DUP2 MSTORE DUP5 PUSH1 0x20 DUP4 DUP7 ADD ADD GT ISZERO PUSH2 0x2401 JUMPI PUSH1 0x0 DUP1 REVERT JUMPDEST DUP2 PUSH1 0x20 DUP6 ADD PUSH1 0x20 DUP4 ADD CALLDATACOPY PUSH1 0x0 SWAP2 DUP2 ADD PUSH1 0x20 ADD SWAP2 SWAP1 SWAP2 MSTORE SWAP4 SWAP3 POP POP POP JUMP JUMPDEST PUSH1 0x0 PUSH1 0x40 DUP3 DUP5 SUB SLT ISZERO PUSH2 0x2430 JUMPI PUSH1 0x0 DUP1 REVERT JUMPDEST PUSH2 0x2438 PUSH2 0x2305 JUMP JUMPDEST SWAP1 POP DUP2 CALLDATALOAD DUP2 MSTORE PUSH1 0x20 DUP3 ADD CALLDATALOAD PUSH1 0x1 PUSH1 0x1 PUSH1 0x40 SHL SUB DUP2 GT ISZERO PUSH2 0x2457 JUMPI PUSH1 0x0 DUP1 REVERT JUMPDEST PUSH2 0x2463 DUP5 DUP3 DUP6 ADD PUSH2 0x23C8 JUMP JUMPDEST PUSH1 0x20 DUP4 ADD MSTORE POP SWAP3 SWAP2 POP POP JUMP JUMPDEST PUSH1 0x0 PUSH1 0xE0 DUP3 DUP5 SUB SLT ISZERO PUSH2 0x2481 JUMPI PUSH1 0x0 DUP1 REVERT JUMPDEST PUSH2 0x2489 PUSH2 0x232D JUMP JUMPDEST SWAP1 POP DUP2 CALLDATALOAD DUP2 MSTORE PUSH1 0x20 DUP3 ADD CALLDATALOAD PUSH1 0x20 DUP3 ADD MSTORE PUSH1 0x40 DUP3 ADD CALLDATALOAD PUSH1 0x40 DUP3 ADD MSTORE PUSH1 0x60 DUP3 ADD CALLDATALOAD PUSH1 0x1 PUSH1 0x1 PUSH1 0x40 SHL SUB DUP1 DUP3 GT ISZERO PUSH2 0x24BD JUMPI PUSH1 0x0 DUP1 REVERT JUMPDEST PUSH2 0x24C9 DUP6 DUP4 DUP7 ADD PUSH2 0x23C8 JUMP JUMPDEST PUSH1 0x60 DUP5 ADD MSTORE PUSH1 0x80 DUP5 ADD CALLDATALOAD SWAP2 POP DUP1 DUP3 GT ISZERO PUSH2 0x24E2 JUMPI PUSH1 0x0 DUP1 REVERT JUMPDEST POP PUSH2 0x24EF DUP5 DUP3 DUP6 ADD PUSH2 0x241E JUMP JUMPDEST PUSH1 0x80 DUP4 ADD MSTORE POP PUSH2 0x2501 PUSH1 0xA0 DUP4 ADD PUSH2 0x1EE4 JUMP JUMPDEST PUSH1 0xA0 DUP3 ADD MSTORE PUSH2 0x2512 PUSH1 0xC0 DUP4 ADD PUSH2 0x1EE4 JUMP JUMPDEST PUSH1 0xC0 DUP3 ADD MSTORE SWAP3 SWAP2 POP POP JUMP JUMPDEST PUSH1 0x0 DUP1 PUSH1 0x40 DUP4 DUP6 SUB SLT ISZERO PUSH2 0x2530 JUMPI PUSH1 0x0 DUP1 REVERT JUMPDEST DUP3 CALLDATALOAD PUSH1 0x1 PUSH1 0x1 PUSH1 0x40 SHL SUB DUP2 GT ISZERO PUSH2 0x2546 JUMPI PUSH1 0x0 DUP1 REVERT JUMPDEST PUSH2 0x2552 DUP6 DUP3 DUP7 ADD PUSH2 0x246F JUMP JUMPDEST SWAP6 PUSH1 0x20 SWAP5 SWAP1 SWAP5 ADD CALLDATALOAD SWAP5 POP POP POP POP JUMP JUMPDEST PUSH1 0x0 PUSH1 0x20 DUP3 DUP5 SUB SLT ISZERO PUSH2 0x2573 JUMPI PUSH1 0x0 DUP1 REVERT JUMPDEST DUP2 CALLDATALOAD PUSH1 0x1 PUSH1 0x1 PUSH1 0x40 SHL SUB DUP2 GT ISZERO PUSH2 0x2589 JUMPI PUSH1 0x0 DUP1 REVERT JUMPDEST PUSH2 0x1FC1 DUP5 DUP3 DUP6 ADD PUSH2 0x246F JUMP JUMPDEST PUSH1 0x0 DUP1 PUSH1 0x40 DUP4 DUP6 SUB SLT ISZERO PUSH2 0x25A8 JUMPI PUSH1 0x0 DUP1 REVERT JUMPDEST POP POP DUP1 CALLDATALOAD SWAP3 PUSH1 0x20 SWAP1 SWAP2 ADD CALLDATALOAD SWAP2 POP JUMP JUMPDEST PUSH1 0x0 PUSH1 0x20 DUP3 DUP5 SUB SLT ISZERO PUSH2 0x25C9 JUMPI PUSH1 0x0 DUP1 REVERT JUMPDEST DUP2 CALLDATALOAD PUSH1 0x1 PUSH1 0x1 PUSH1 0x40 SHL SUB DUP1 DUP3 GT ISZERO PUSH2 0x25E0 JUMPI PUSH1 0x0 DUP1 REVERT JUMPDEST SWAP1 DUP4 ADD SWAP1 PUSH1 0x80 DUP3 DUP7 SUB SLT ISZERO PUSH2 0x25F4 JUMPI PUSH1 0x0 DUP1 REVERT JUMPDEST PUSH1 0x40 MLOAD PUSH1 0x80 DUP2 ADD DUP2 DUP2 LT DUP4 DUP3 GT OR ISZERO PUSH2 0x260F JUMPI PUSH2 0x260F PUSH2 0x22EF JUMP JUMPDEST DUP1 PUSH1 0x40 MSTORE POP DUP3 CALLDATALOAD DUP2 MSTORE PUSH1 0x20 DUP4 ADD CALLDATALOAD PUSH1 0x20 DUP3 ADD MSTORE PUSH1 0x40 DUP4 ADD CALLDATALOAD PUSH2 0x2630 DUP2 PUSH2 0x22AA JUMP JUMPDEST PUSH1 0x40 DUP3 ADD MSTORE PUSH1 0x60 DUP4 ADD CALLDATALOAD DUP3 DUP2 GT ISZERO PUSH2 0x2647 JUMPI PUSH1 0x0 DUP1 REVERT JUMPDEST PUSH2 0x2653 DUP8 DUP3 DUP7 ADD PUSH2 0x241E JUMP JUMPDEST PUSH1 0x60 DUP4 ADD MSTORE POP SWAP6 SWAP5 POP POP POP POP POP JUMP JUMPDEST PUSH1 0x0 PUSH1 0x20 DUP3 DUP5 SUB SLT ISZERO PUSH2 0x2674 JUMPI PUSH1 0x0 DUP1 REVERT JUMPDEST DUP2 MLOAD PUSH2 0x1F82 DUP2 PUSH2 0x22AA JUMP JUMPDEST PUSH1 0x20 DUP1 DUP3 MSTORE PUSH1 0x16 SWAP1 DUP3 ADD MSTORE PUSH22 0x103AB735B5B737BBB7103232B634BB32B930B136329 PUSH1 0x55 SHL PUSH1 0x40 DUP3 ADD MSTORE PUSH1 0x60 ADD SWAP1 JUMP JUMPDEST PUSH1 0x1 DUP2 DUP2 SHR SWAP1 DUP3 AND DUP1 PUSH2 0x26C3 JUMPI PUSH1 0x7F DUP3 AND SWAP2 POP JUMPDEST PUSH1 0x20 DUP3 LT DUP2 SUB PUSH2 0xCB3 JUMPI PUSH4 0x4E487B71 PUSH1 0xE0 SHL PUSH1 0x0 MSTORE PUSH1 0x22 PUSH1 0x4 MSTORE PUSH1 0x24 PUSH1 0x0 REVERT JUMPDEST PUSH4 0x4E487B71 PUSH1 0xE0 SHL PUSH1 0x0 MSTORE PUSH1 0x32 PUSH1 0x4 MSTORE PUSH1 0x24 PUSH1 0x0 REVERT JUMPDEST PUSH1 0x1F DUP3 GT ISZERO PUSH2 0x2745 JUMPI PUSH1 0x0 DUP2 PUSH1 0x0 MSTORE PUSH1 0x20 PUSH1 0x0 KECCAK256 PUSH1 0x1F DUP6 ADD PUSH1 0x5 SHR DUP2 ADD PUSH1 0x20 DUP7 LT ISZERO PUSH2 0x2722 JUMPI POP DUP1 JUMPDEST PUSH1 0x1F DUP6 ADD PUSH1 0x5 SHR DUP3 ADD SWAP2 POP JUMPDEST DUP2 DUP2 LT ISZERO PUSH2 0x2741 JUMPI DUP3 DUP2 SSTORE PUSH1 0x1 ADD PUSH2 0x272E JUMP JUMPDEST POP POP POP JUMPDEST POP POP POP JUMP JUMPDEST DUP2 MLOAD PUSH1 0x1 PUSH1 0x1 PUSH1 0x40 SHL SUB DUP2 GT ISZERO PUSH2 0x2763 JUMPI PUSH2 0x2763 PUSH2 0x22EF JUMP JUMPDEST PUSH2 0x2777 DUP2 PUSH2 0x2771 DUP5 SLOAD PUSH2 0x26AF JUMP JUMPDEST DUP5 PUSH2 0x26F9 JUMP JUMPDEST PUSH1 0x20 DUP1 PUSH1 0x1F DUP4 GT PUSH1 0x1 DUP2 EQ PUSH2 0x27AC JUMPI PUSH1 0x0 DUP5 ISZERO PUSH2 0x2794 JUMPI POP DUP6 DUP4 ADD MLOAD JUMPDEST PUSH1 0x0 NOT PUSH1 0x3 DUP7 SWAP1 SHL SHR NOT AND PUSH1 0x1 DUP6 SWAP1 SHL OR DUP6 SSTORE PUSH2 0x2741 JUMP JUMPDEST PUSH1 0x0 DUP6 DUP2 MSTORE PUSH1 0x20 DUP2 KECCAK256 PUSH1 0x1F NOT DUP7 AND SWAP2 JUMPDEST DUP3 DUP2 LT ISZERO PUSH2 0x27DB JUMPI DUP9 DUP7 ADD MLOAD DUP3 SSTORE SWAP5 DUP5 ADD SWAP5 PUSH1 0x1 SWAP1 SWAP2 ADD SWAP1 DUP5 ADD PUSH2 0x27BC JUMP JUMPDEST POP DUP6 DUP3 LT ISZERO PUSH2 0x27F9 JUMPI DUP8 DUP6 ADD MLOAD PUSH1 0x0 NOT PUSH1 0x3 DUP9 SWAP1 SHL PUSH1 0xF8 AND SHR NOT AND DUP2 SSTORE JUMPDEST POP POP POP POP POP PUSH1 0x1 SWAP1 DUP2 SHL ADD SWAP1 SSTORE POP JUMP JUMPDEST PUSH1 0x20 DUP1 DUP3 MSTORE PUSH1 0x14 SWAP1 DUP3 ADD MSTORE PUSH20 0x10383937B532B1BA1030B236B4B71037B7363C9 PUSH1 0x65 SHL PUSH1 0x40 DUP3 ADD MSTORE PUSH1 0x60 ADD SWAP1 JUMP JUMPDEST PUSH4 0x4E487B71 PUSH1 0xE0 SHL PUSH1 0x0 MSTORE PUSH1 0x11 PUSH1 0x4 MSTORE PUSH1 0x24 PUSH1 0x0 REVERT JUMPDEST DUP2 DUP2 SUB PUSH1 0x0 DUP4 SLT DUP1 ISZERO DUP4 DUP4 SGT AND DUP4 DUP4 SLT DUP3 AND OR ISZERO PUSH2 0x286D JUMPI PUSH2 0x286D PUSH2 0x2837 JUMP JUMPDEST POP SWAP3 SWAP2 POP POP JUMP JUMPDEST PUSH1 0x0 PUSH1 0x1 DUP3 ADD PUSH2 0x2886 JUMPI PUSH2 0x2886 PUSH2 0x2837 JUMP JUMPDEST POP PUSH1 0x1 ADD SWAP1 JUMP JUMPDEST PUSH1 0x0 PUSH1 0x20 DUP3 DUP5 SUB SLT ISZERO PUSH2 0x289F JUMPI PUSH1 0x0 DUP1 REVERT JUMPDEST DUP2 MLOAD DUP1 ISZERO ISZERO DUP2 EQ PUSH2 0x1F82 JUMPI PUSH1 0x0 DUP1 REVERT JUMPDEST PUSH1 0x0 PUSH1 0x20 DUP1 DUP4 DUP6 SUB SLT ISZERO PUSH2 0x28C2 JUMPI PUSH1 0x0 DUP1 REVERT JUMPDEST DUP3 MLOAD PUSH1 0x1 PUSH1 0x1 PUSH1 0x40 SHL SUB DUP1 DUP3 GT ISZERO PUSH2 0x28D9 JUMPI PUSH1 0x0 DUP1 REVERT JUMPDEST SWAP1 DUP5 ADD SWAP1 PUSH1 0xC0 DUP3 DUP8 SUB SLT ISZERO PUSH2 0x28ED JUMPI PUSH1 0x0 DUP1 REVERT JUMPDEST PUSH2 0x28F5 PUSH2 0x234F JUMP JUMPDEST DUP3 MLOAD DUP2 MSTORE DUP4 DUP4 ADD MLOAD PUSH2 0x2906 DUP2 PUSH2 0x22AA JUMP JUMPDEST DUP2 DUP6 ADD MSTORE PUSH1 0x40 DUP4 ADD MLOAD PUSH2 0x2918 DUP2 PUSH2 0x22AA JUMP JUMPDEST PUSH1 0x40 DUP3 ADD MSTORE PUSH1 0x60 DUP4 ADD MLOAD DUP3 DUP2 GT ISZERO PUSH2 0x292F JUMPI PUSH1 0x0 DUP1 REVERT JUMPDEST DUP4 ADD PUSH1 0x40 DUP2 DUP10 SUB SLT ISZERO PUSH2 0x2941 JUMPI PUSH1 0x0 DUP1 REVERT JUMPDEST PUSH2 0x2949 PUSH2 0x2305 JUMP JUMPDEST DUP2 MLOAD DUP2 MSTORE DUP6 DUP3 ADD MLOAD DUP5 DUP2 GT ISZERO PUSH2 0x295E JUMPI PUSH1 0x0 DUP1 REVERT JUMPDEST DUP3 ADD SWAP4 POP PUSH1 0x1F DUP5 ADD DUP10 SGT PUSH2 0x2971 JUMPI PUSH1 0x0 DUP1 REVERT JUMPDEST DUP4 MLOAD SWAP2 POP PUSH2 0x2981 PUSH2 0x23E7 DUP4 PUSH2 0x23A1 JUMP JUMPDEST DUP3 DUP2 MSTORE DUP10 DUP8 DUP5 DUP8 ADD ADD GT ISZERO PUSH2 0x2995 JUMPI PUSH1 0x0 DUP1 REVERT JUMPDEST PUSH2 0x29A4 DUP4 DUP9 DUP4 ADD DUP10 DUP9 ADD PUSH2 0x1F1F JUMP JUMPDEST SWAP6 DUP2 ADD SWAP6 SWAP1 SWAP6 MSTORE POP PUSH1 0x60 DUP2 ADD SWAP4 SWAP1 SWAP4 MSTORE POP PUSH1 0x80 DUP2 DUP2 ADD MLOAD SWAP1 DUP4 ADD MSTORE PUSH1 0xA0 SWAP1 DUP2 ADD MLOAD SWAP1 DUP3 ADD MSTORE SWAP4 SWAP3 POP POP POP JUMP JUMPDEST PUSH1 0x0 PUSH1 0x20 DUP3 DUP5 SUB SLT ISZERO PUSH2 0x29E2 JUMPI PUSH1 0x0 DUP1 REVERT JUMPDEST POP MLOAD SWAP2 SWAP1 POP JUMP JUMPDEST DUP1 DUP3 ADD DUP1 DUP3 GT ISZERO PUSH2 0x3C7 JUMPI PUSH2 0x3C7 PUSH2 0x2837 JUMP INVALID LOG2 PUSH5 0x6970667358 0x22 SLT KECCAK256 DUP5 CALL POP PUSH6 0x1CBF92CDA809 DUP4 0xDD SELFBALANCE SWAP14 0xE0 0x2F DUP8 0xC4 CALLDATALOAD SLOAD CODESIZE PUSH17 0x6C814B9867B58EFE462264736F6C634300 ADDMOD OR STOP CALLER "
				},
				"gasEstimates": {
					"creation": {
						"codeDepositCost": "2160400",
						"executionCost": "infinite",
						"totalCost": "infinite"
					},
					"external": {
						"addContributor((uint256,uint256,address,(uint256,string)))": "infinite",
						"addDeliverable((uint256,uint256,uint256,string,(uint256,string),uint8,uint8),uint256)": "infinite",
						"amendBudget(uint256)": "infinite",
						"getContributorByAddress(address)": "infinite",
						"getContributorById(uint256)": "infinite",
						"getContributorIds()": "infinite",
						"getDeliverableById(uint256)": "infinite",
						"getName()": "infinite",
						"getPaymentDirectives()": "infinite",
						"getProjectDescriptor()": "infinite",
						"getVersion()": "227",
						"reAssignDeliverable(uint256,uint256)": "infinite",
						"submitDeliverable(uint256)": "infinite",
						"updateDeliverable((uint256,uint256,uint256,string,(uint256,string),uint8,uint8))": "infinite",
						"updatePayoutStatus(uint256,uint8)": "infinite"
					},
					"internal": {
						"checkSum()": "infinite",
						"getIndex()": "24304",
						"isProjectAdminInternal(address)": "infinite",
						"overwriteDeliverable(uint256,struct Deliverable memory)": "infinite",
						"resum()": "infinite"
					}
				},
				"methodIdentifiers": {
					"addContributor((uint256,uint256,address,(uint256,string)))": "f96baedc",
					"addDeliverable((uint256,uint256,uint256,string,(uint256,string),uint8,uint8),uint256)": "a91050c4",
					"amendBudget(uint256)": "caffe061",
					"getContributorByAddress(address)": "779a5a7f",
					"getContributorById(uint256)": "2890ee5c",
					"getContributorIds()": "8e2c093d",
					"getDeliverableById(uint256)": "190fdcbd",
					"getName()": "17d7de7c",
					"getPaymentDirectives()": "1fae35d4",
					"getProjectDescriptor()": "3ba94ed8",
					"getVersion()": "0d8e6e2c",
					"reAssignDeliverable(uint256,uint256)": "f3cda72c",
					"submitDeliverable(uint256)": "3280c215",
					"updateDeliverable((uint256,uint256,uint256,string,(uint256,string),uint8,uint8))": "f2aa76aa",
					"updatePayoutStatus(uint256,uint8)": "04c325be"
				}
			},
			"storageLayout": {
				"storage": [
					{
						"astId": 160,
						"contract": "contracts/core/MProject.sol:MProject",
						"label": "projectName",
						"offset": 0,
						"slot": "0",
						"type": "t_string_storage"
					},
					{
						"astId": 162,
						"contract": "contracts/core/MProject.sol:MProject",
						"label": "budget",
						"offset": 0,
						"slot": "1",
						"type": "t_uint256"
					},
					{
						"astId": 165,
						"contract": "contracts/core/MProject.sol:MProject",
						"label": "register",
						"offset": 0,
						"slot": "2",
						"type": "t_contract(IMRegister)1131"
					},
					{
						"astId": 167,
						"contract": "contracts/core/MProject.sol:MProject",
						"label": "alloPoolId",
						"offset": 0,
						"slot": "3",
						"type": "t_uint256"
					},
					{
						"astId": 169,
						"contract": "contracts/core/MProject.sol:MProject",
						"label": "alloProfileId",
						"offset": 0,
						"slot": "4",
						"type": "t_bytes32"
					},
					{
						"astId": 171,
						"contract": "contracts/core/MProject.sol:MProject",
						"label": "payoutErc20",
						"offset": 0,
						"slot": "5",
						"type": "t_address"
					},
					{
						"astId": 174,
						"contract": "contracts/core/MProject.sol:MProject",
						"label": "contributorIds",
						"offset": 0,
						"slot": "6",
						"type": "t_array(t_uint256)dyn_storage"
					},
					{
						"astId": 177,
						"contract": "contracts/core/MProject.sol:MProject",
						"label": "contributorAddresses",
						"offset": 0,
						"slot": "7",
						"type": "t_array(t_address)dyn_storage"
					},
					{
						"astId": 180,
						"contract": "contracts/core/MProject.sol:MProject",
						"label": "paymentDirectiveIds",
						"offset": 0,
						"slot": "8",
						"type": "t_array(t_uint256)dyn_storage"
					},
					{
						"astId": 184,
						"contract": "contracts/core/MProject.sol:MProject",
						"label": "isKnownContributorAddress",
						"offset": 0,
						"slot": "9",
						"type": "t_mapping(t_address,t_bool)"
					},
					{
						"astId": 188,
						"contract": "contracts/core/MProject.sol:MProject",
						"label": "isKnownContributor",
						"offset": 0,
						"slot": "10",
						"type": "t_mapping(t_uint256,t_bool)"
					},
					{
						"astId": 193,
						"contract": "contracts/core/MProject.sol:MProject",
						"label": "contributorById",
						"offset": 0,
						"slot": "11",
						"type": "t_mapping(t_uint256,t_struct(Contributor)1219_storage)"
					},
					{
						"astId": 197,
						"contract": "contracts/core/MProject.sol:MProject",
						"label": "contributorIdByAddress",
						"offset": 0,
						"slot": "12",
						"type": "t_mapping(t_address,t_uint256)"
					},
					{
						"astId": 202,
						"contract": "contracts/core/MProject.sol:MProject",
						"label": "deliverableIdsByContributorId",
						"offset": 0,
						"slot": "13",
						"type": "t_mapping(t_uint256,t_array(t_uint256)dyn_storage)"
					},
					{
						"astId": 206,
						"contract": "contracts/core/MProject.sol:MProject",
						"label": "contributorIdByDeliverableId",
						"offset": 0,
						"slot": "14",
						"type": "t_mapping(t_uint256,t_uint256)"
					},
					{
						"astId": 209,
						"contract": "contracts/core/MProject.sol:MProject",
						"label": "deliverableIds",
						"offset": 0,
						"slot": "15",
						"type": "t_array(t_uint256)dyn_storage"
					},
					{
						"astId": 213,
						"contract": "contracts/core/MProject.sol:MProject",
						"label": "isKnownDeliverable",
						"offset": 0,
						"slot": "16",
						"type": "t_mapping(t_uint256,t_bool)"
					},
					{
						"astId": 218,
						"contract": "contracts/core/MProject.sol:MProject",
						"label": "deliverableById",
						"offset": 0,
						"slot": "17",
						"type": "t_mapping(t_uint256,t_struct(Deliverable)1277_storage)"
					},
					{
						"astId": 222,
						"contract": "contracts/core/MProject.sol:MProject",
						"label": "isAssignedByDeliverableId",
						"offset": 0,
						"slot": "18",
						"type": "t_mapping(t_uint256,t_bool)"
					},
					{
						"astId": 226,
						"contract": "contracts/core/MProject.sol:MProject",
						"label": "outstandingContributorBalanceByContributorId",
						"offset": 0,
						"slot": "19",
						"type": "t_mapping(t_uint256,t_uint256)"
					},
					{
						"astId": 231,
						"contract": "contracts/core/MProject.sol:MProject",
						"label": "paymentDirectiveById",
						"offset": 0,
						"slot": "20",
						"type": "t_mapping(t_uint256,t_struct(PaymentDirective)1259_storage)"
					},
					{
						"astId": 821,
						"contract": "contracts/core/MProject.sol:MProject",
						"label": "index",
						"offset": 0,
						"slot": "21",
						"type": "t_uint256"
					}
				],
				"types": {
					"t_address": {
						"encoding": "inplace",
						"label": "address",
						"numberOfBytes": "20"
					},
					"t_array(t_address)dyn_storage": {
						"base": "t_address",
						"encoding": "dynamic_array",
						"label": "address[]",
						"numberOfBytes": "32"
					},
					"t_array(t_uint256)dyn_storage": {
						"base": "t_uint256",
						"encoding": "dynamic_array",
						"label": "uint256[]",
						"numberOfBytes": "32"
					},
					"t_bool": {
						"encoding": "inplace",
						"label": "bool",
						"numberOfBytes": "1"
					},
					"t_bytes32": {
						"encoding": "inplace",
						"label": "bytes32",
						"numberOfBytes": "32"
					},
					"t_contract(IMRegister)1131": {
						"encoding": "inplace",
						"label": "contract IMRegister",
						"numberOfBytes": "20"
					},
					"t_enum(DeliverableStatus)1194": {
						"encoding": "inplace",
						"label": "enum DeliverableStatus",
						"numberOfBytes": "1"
					},
					"t_enum(PayoutStatus)1200": {
						"encoding": "inplace",
						"label": "enum PayoutStatus",
						"numberOfBytes": "1"
					},
					"t_mapping(t_address,t_bool)": {
						"encoding": "mapping",
						"key": "t_address",
						"label": "mapping(address => bool)",
						"numberOfBytes": "32",
						"value": "t_bool"
					},
					"t_mapping(t_address,t_uint256)": {
						"encoding": "mapping",
						"key": "t_address",
						"label": "mapping(address => uint256)",
						"numberOfBytes": "32",
						"value": "t_uint256"
					},
					"t_mapping(t_uint256,t_array(t_uint256)dyn_storage)": {
						"encoding": "mapping",
						"key": "t_uint256",
						"label": "mapping(uint256 => uint256[])",
						"numberOfBytes": "32",
						"value": "t_array(t_uint256)dyn_storage"
					},
					"t_mapping(t_uint256,t_bool)": {
						"encoding": "mapping",
						"key": "t_uint256",
						"label": "mapping(uint256 => bool)",
						"numberOfBytes": "32",
						"value": "t_bool"
					},
					"t_mapping(t_uint256,t_struct(Contributor)1219_storage)": {
						"encoding": "mapping",
						"key": "t_uint256",
						"label": "mapping(uint256 => struct Contributor)",
						"numberOfBytes": "32",
						"value": "t_struct(Contributor)1219_storage"
					},
					"t_mapping(t_uint256,t_struct(Deliverable)1277_storage)": {
						"encoding": "mapping",
						"key": "t_uint256",
						"label": "mapping(uint256 => struct Deliverable)",
						"numberOfBytes": "32",
						"value": "t_struct(Deliverable)1277_storage"
					},
					"t_mapping(t_uint256,t_struct(PaymentDirective)1259_storage)": {
						"encoding": "mapping",
						"key": "t_uint256",
						"label": "mapping(uint256 => struct PaymentDirective)",
						"numberOfBytes": "32",
						"value": "t_struct(PaymentDirective)1259_storage"
					},
					"t_mapping(t_uint256,t_uint256)": {
						"encoding": "mapping",
						"key": "t_uint256",
						"label": "mapping(uint256 => uint256)",
						"numberOfBytes": "32",
						"value": "t_uint256"
					},
					"t_string_storage": {
						"encoding": "bytes",
						"label": "string",
						"numberOfBytes": "32"
					},
					"t_struct(Contributor)1219_storage": {
						"encoding": "inplace",
						"label": "struct Contributor",
						"members": [
							{
								"astId": 1211,
								"contract": "contracts/core/MProject.sol:MProject",
								"label": "id",
								"offset": 0,
								"slot": "0",
								"type": "t_uint256"
							},
							{
								"astId": 1213,
								"contract": "contracts/core/MProject.sol:MProject",
								"label": "homeChain",
								"offset": 0,
								"slot": "1",
								"type": "t_uint256"
							},
							{
								"astId": 1215,
								"contract": "contracts/core/MProject.sol:MProject",
								"label": "wallet",
								"offset": 0,
								"slot": "2",
								"type": "t_address"
							},
							{
								"astId": 1218,
								"contract": "contracts/core/MProject.sol:MProject",
								"label": "metadata",
								"offset": 0,
								"slot": "3",
								"type": "t_struct(Metadata)1999_storage"
							}
						],
						"numberOfBytes": "160"
					},
					"t_struct(Deliverable)1277_storage": {
						"encoding": "inplace",
						"label": "struct Deliverable",
						"members": [
							{
								"astId": 1261,
								"contract": "contracts/core/MProject.sol:MProject",
								"label": "id",
								"offset": 0,
								"slot": "0",
								"type": "t_uint256"
							},
							{
								"astId": 1263,
								"contract": "contracts/core/MProject.sol:MProject",
								"label": "projectId",
								"offset": 0,
								"slot": "1",
								"type": "t_uint256"
							},
							{
								"astId": 1265,
								"contract": "contracts/core/MProject.sol:MProject",
								"label": "payoutAmount",
								"offset": 0,
								"slot": "2",
								"type": "t_uint256"
							},
							{
								"astId": 1267,
								"contract": "contracts/core/MProject.sol:MProject",
								"label": "name",
								"offset": 0,
								"slot": "3",
								"type": "t_string_storage"
							},
							{
								"astId": 1270,
								"contract": "contracts/core/MProject.sol:MProject",
								"label": "metadata",
								"offset": 0,
								"slot": "4",
								"type": "t_struct(Metadata)1999_storage"
							},
							{
								"astId": 1273,
								"contract": "contracts/core/MProject.sol:MProject",
								"label": "deliverableStatus",
								"offset": 0,
								"slot": "6",
								"type": "t_enum(DeliverableStatus)1194"
							},
							{
								"astId": 1276,
								"contract": "contracts/core/MProject.sol:MProject",
								"label": "payoutStatus",
								"offset": 1,
								"slot": "6",
								"type": "t_enum(PayoutStatus)1200"
							}
						],
						"numberOfBytes": "224"
					},
					"t_struct(Metadata)1999_storage": {
						"encoding": "inplace",
						"label": "struct Metadata",
						"members": [
							{
								"astId": 1995,
								"contract": "contracts/core/MProject.sol:MProject",
								"label": "protocol",
								"offset": 0,
								"slot": "0",
								"type": "t_uint256"
							},
							{
								"astId": 1998,
								"contract": "contracts/core/MProject.sol:MProject",
								"label": "pointer",
								"offset": 0,
								"slot": "1",
								"type": "t_string_storage"
							}
						],
						"numberOfBytes": "64"
					},
					"t_struct(PaymentDirective)1259_storage": {
						"encoding": "inplace",
						"label": "struct PaymentDirective",
						"members": [
							{
								"astId": 1245,
								"contract": "contracts/core/MProject.sol:MProject",
								"label": "id",
								"offset": 0,
								"slot": "0",
								"type": "t_uint256"
							},
							{
								"astId": 1248,
								"contract": "contracts/core/MProject.sol:MProject",
								"label": "contributor",
								"offset": 0,
								"slot": "1",
								"type": "t_struct(Contributor)1219_storage"
							},
							{
								"astId": 1250,
								"contract": "contracts/core/MProject.sol:MProject",
								"label": "projectId",
								"offset": 0,
								"slot": "6",
								"type": "t_uint256"
							},
							{
								"astId": 1252,
								"contract": "contracts/core/MProject.sol:MProject",
								"label": "alloProfileId",
								"offset": 0,
								"slot": "7",
								"type": "t_bytes32"
							},
							{
								"astId": 1254,
								"contract": "contracts/core/MProject.sol:MProject",
								"label": "deliverableId",
								"offset": 0,
								"slot": "8",
								"type": "t_uint256"
							},
							{
								"astId": 1256,
								"contract": "contracts/core/MProject.sol:MProject",
								"label": "amount",
								"offset": 0,
								"slot": "9",
								"type": "t_uint256"
							},
							{
								"astId": 1258,
								"contract": "contracts/core/MProject.sol:MProject",
								"label": "erc20",
								"offset": 0,
								"slot": "10",
								"type": "t_address"
							}
						],
						"numberOfBytes": "352"
					},
					"t_uint256": {
						"encoding": "inplace",
						"label": "uint256",
						"numberOfBytes": "32"
					}
				}
			},
			"userdoc": {
				"kind": "user",
				"methods": {},
				"version": 1
			}
		}
	}
}